{
  "abi": [
    {
      "type": "constructor",
      "inputs": [],
      "stateMutability": "nonpayable"
    },
    {
      "type": "function",
      "name": "acceptOwnership",
      "inputs": [],
      "outputs": [],
      "stateMutability": "nonpayable"
    },
    {
      "type": "function",
      "name": "addContract",
      "inputs": [
        {
          "name": "name",
          "type": "string",
          "internalType": "string"
        },
        {
          "name": "symbol",
          "type": "string",
          "internalType": "string"
        },
        {
          "name": "perpId",
          "type": "uint256",
          "internalType": "uint256"
        },
        {
          "name": "basePricePNS",
          "type": "uint256",
          "internalType": "uint256"
        },
        {
          "name": "priceDecimals",
          "type": "uint256",
          "internalType": "uint256"
        },
        {
          "name": "lotDecimals",
          "type": "uint256",
          "internalType": "uint256"
        },
        {
          "name": "takerFeePer100K",
          "type": "uint256",
          "internalType": "uint256"
        },
        {
          "name": "makerFeePer100K",
          "type": "uint256",
          "internalType": "uint256"
        },
        {
          "name": "initMarginFracHdths",
          "type": "uint256",
          "internalType": "uint256"
        },
        {
          "name": "maintMarginFracHdths",
          "type": "uint256",
          "internalType": "uint256"
        }
      ],
      "outputs": [],
      "stateMutability": "nonpayable"
    },
    {
      "type": "function",
      "name": "addressBlocked",
      "inputs": [
        {
          "name": "",
          "type": "address",
          "internalType": "address"
        }
      ],
      "outputs": [
        {
          "name": "",
          "type": "bool",
          "internalType": "bool"
        }
      ],
      "stateMutability": "view"
    },
    {
      "type": "function",
      "name": "adminCancelOrders",
      "inputs": [
        {
          "name": "signatures",
          "type": "tuple[]",
          "internalType": "struct OrderSignature[]",
          "components": [
            {
              "name": "perpId",
              "type": "uint256",
              "internalType": "uint256"
            },
            {
              "name": "orderId",
              "type": "uint256",
              "internalType": "uint256"
            }
          ]
        }
      ],
      "outputs": [],
      "stateMutability": "nonpayable"
    },
    {
      "type": "function",
      "name": "allowOrderForwarding",
      "inputs": [
        {
          "name": "allow",
          "type": "bool",
          "internalType": "bool"
        }
      ],
      "outputs": [],
      "stateMutability": "nonpayable"
    },
    {
      "type": "function",
      "name": "autoDeleverage",
      "inputs": [
        {
          "name": "adlDescs",
          "type": "tuple[]",
          "internalType": "struct AdlDesc[]",
          "components": [
            {
              "name": "perpId",
              "type": "uint256",
              "internalType": "uint256"
            },
            {
              "name": "posAccountId",
              "type": "uint256",
              "internalType": "uint256"
            },
            {
              "name": "sortedPositionIds",
              "type": "uint256[]",
              "internalType": "uint256[]"
            }
          ]
        },
        {
          "name": "revertOnFail",
          "type": "bool",
          "internalType": "bool"
        }
      ],
      "outputs": [],
      "stateMutability": "nonpayable"
    },
    {
      "type": "function",
      "name": "buyLiquidations",
      "inputs": [
        {
          "name": "liquidationDescs",
          "type": "tuple[]",
          "internalType": "struct BuyToLiquidateDesc[]",
          "components": [
            {
              "name": "perpId",
              "type": "uint256",
              "internalType": "uint256"
            },
            {
              "name": "posAccountId",
              "type": "uint256",
              "internalType": "uint256"
            },
            {
              "name": "lotLNS",
              "type": "uint256",
              "internalType": "uint256"
            },
            {
              "name": "leverageHdths",
              "type": "uint256",
              "internalType": "uint256"
            },
            {
              "name": "limitPricePNS",
              "type": "uint256",
              "internalType": "uint256"
            },
            {
              "name": "maxSlippageBps",
              "type": "uint256",
              "internalType": "uint256"
            }
          ]
        },
        {
          "name": "revertOnFail",
          "type": "bool",
          "internalType": "bool"
        }
      ],
      "outputs": [],
      "stateMutability": "nonpayable"
    },
    {
      "type": "function",
      "name": "cancelDecreaseCollateralRequest",
      "inputs": [
        {
          "name": "perpId",
          "type": "uint256",
          "internalType": "uint256"
        }
      ],
      "outputs": [],
      "stateMutability": "nonpayable"
    },
    {
      "type": "function",
      "name": "clearInitUnwindContract",
      "inputs": [
        {
          "name": "perpId",
          "type": "uint256",
          "internalType": "uint256"
        }
      ],
      "outputs": [],
      "stateMutability": "nonpayable"
    },
    {
      "type": "function",
      "name": "clearOrderSlots",
      "inputs": [
        {
          "name": "perpId",
          "type": "uint256",
          "internalType": "uint256"
        },
        {
          "name": "orderIds",
          "type": "uint256[]",
          "internalType": "uint256[]"
        }
      ],
      "outputs": [],
      "stateMutability": "nonpayable"
    },
    {
      "type": "function",
      "name": "clearPrepareUnwindContract",
      "inputs": [
        {
          "name": "perpId",
          "type": "uint256",
          "internalType": "uint256"
        }
      ],
      "outputs": [],
      "stateMutability": "nonpayable"
    },
    {
      "type": "function",
      "name": "clearPricePointerSlots",
      "inputs": [
        {
          "name": "perpId",
          "type": "uint256",
          "internalType": "uint256"
        },
        {
          "name": "pricesONS",
          "type": "uint256[]",
          "internalType": "uint256[]"
        }
      ],
      "outputs": [],
      "stateMutability": "nonpayable"
    },
    {
      "type": "function",
      "name": "createAccount",
      "inputs": [
        {
          "name": "amountCNS",
          "type": "uint256",
          "internalType": "uint256"
        }
      ],
      "outputs": [
        {
          "name": "accountId",
          "type": "uint256",
          "internalType": "uint256"
        }
      ],
      "stateMutability": "nonpayable"
    },
    {
      "type": "function",
      "name": "declineDecreaseCollateralRequest",
      "inputs": [
        {
          "name": "perpId",
          "type": "uint256",
          "internalType": "uint256"
        },
        {
          "name": "accountId",
          "type": "uint256",
          "internalType": "uint256"
        },
        {
          "name": "reason",
          "type": "string",
          "internalType": "string"
        }
      ],
      "outputs": [],
      "stateMutability": "nonpayable"
    },
    {
      "type": "function",
      "name": "decreasePositionCollateral",
      "inputs": [
        {
          "name": "perpId",
          "type": "uint256",
          "internalType": "uint256"
        },
        {
          "name": "accountId",
          "type": "uint256",
          "internalType": "uint256"
        },
        {
          "name": "impactAdjPricePNS",
          "type": "uint32",
          "internalType": "uint32"
        },
        {
          "name": "borrowMarginFracHdths",
          "type": "uint16",
          "internalType": "uint16"
        },
        {
          "name": "positionType",
          "type": "uint8",
          "internalType": "enum PositionEnum"
        }
      ],
      "outputs": [],
      "stateMutability": "nonpayable"
    },
    {
      "type": "function",
      "name": "depositCollateral",
      "inputs": [
        {
          "name": "amountCNS",
          "type": "uint256",
          "internalType": "uint256"
        }
      ],
      "outputs": [],
      "stateMutability": "nonpayable"
    },
    {
      "type": "function",
      "name": "depositToProtocol",
      "inputs": [
        {
          "name": "amountCNS",
          "type": "uint256",
          "internalType": "uint256"
        }
      ],
      "outputs": [],
      "stateMutability": "nonpayable"
    },
    {
      "type": "function",
      "name": "execFwdPositionOps",
      "inputs": [
        {
          "name": "forwardedOrders",
          "type": "tuple[]",
          "internalType": "struct FwdOrderDesc[]",
          "components": [
            {
              "name": "accountId",
              "type": "uint256",
              "internalType": "uint256"
            },
            {
              "name": "feePer100K",
              "type": "uint256",
              "internalType": "uint256"
            },
            {
              "name": "orderDesc",
              "type": "tuple",
              "internalType": "struct OrderDesc",
              "components": [
                {
                  "name": "orderDescId",
                  "type": "uint256",
                  "internalType": "uint256"
                },
                {
                  "name": "perpId",
                  "type": "uint256",
                  "internalType": "uint256"
                },
                {
                  "name": "orderType",
                  "type": "uint8",
                  "internalType": "enum OrderDescEnum"
                },
                {
                  "name": "orderId",
                  "type": "uint256",
                  "internalType": "uint256"
                },
                {
                  "name": "pricePNS",
                  "type": "uint256",
                  "internalType": "uint256"
                },
                {
                  "name": "lotLNS",
                  "type": "uint256",
                  "internalType": "uint256"
                },
                {
                  "name": "expiryBlock",
                  "type": "uint256",
                  "internalType": "uint256"
                },
                {
                  "name": "postOnly",
                  "type": "bool",
                  "internalType": "bool"
                },
                {
                  "name": "fillOrKill",
                  "type": "bool",
                  "internalType": "bool"
                },
                {
                  "name": "immediateOrCancel",
                  "type": "bool",
                  "internalType": "bool"
                },
                {
                  "name": "maxMatches",
                  "type": "uint256",
                  "internalType": "uint256"
                },
                {
                  "name": "leverageHdths",
                  "type": "uint256",
                  "internalType": "uint256"
                },
                {
                  "name": "lastExecutionBlock",
                  "type": "uint256",
                  "internalType": "uint256"
                },
                {
                  "name": "amountCNS",
                  "type": "uint256",
                  "internalType": "uint256"
                },
                {
                  "name": "maxSlippageBps",
                  "type": "uint256",
                  "internalType": "uint256"
                }
              ]
            },
            {
              "name": "triggeredOrder",
              "type": "bool",
              "internalType": "bool"
            },
            {
              "name": "triggerPricePNS",
              "type": "uint32",
              "internalType": "uint32"
            },
            {
              "name": "triggerPriceCondition",
              "type": "uint8",
              "internalType": "enum TriggerPriceConditionEnum"
            },
            {
              "name": "triggerRequestId",
              "type": "uint256",
              "internalType": "uint256"
            },
            {
              "name": "triggerPositionId",
              "type": "uint256",
              "internalType": "uint256"
            }
          ]
        }
      ],
      "outputs": [
        {
          "name": "signatures",
          "type": "tuple[]",
          "internalType": "struct OrderSignature[]",
          "components": [
            {
              "name": "perpId",
              "type": "uint256",
              "internalType": "uint256"
            },
            {
              "name": "orderId",
              "type": "uint256",
              "internalType": "uint256"
            }
          ]
        }
      ],
      "stateMutability": "nonpayable"
    },
    {
      "type": "function",
      "name": "execFznAccountPosOps",
      "inputs": [
        {
          "name": "fznAccountCloseOrders",
          "type": "tuple[]",
          "internalType": "struct FznOrderDesc[]",
          "components": [
            {
              "name": "accountId",
              "type": "uint256",
              "internalType": "uint256"
            },
            {
              "name": "orderDesc",
              "type": "tuple",
              "internalType": "struct OrderDesc",
              "components": [
                {
                  "name": "orderDescId",
                  "type": "uint256",
                  "internalType": "uint256"
                },
                {
                  "name": "perpId",
                  "type": "uint256",
                  "internalType": "uint256"
                },
                {
                  "name": "orderType",
                  "type": "uint8",
                  "internalType": "enum OrderDescEnum"
                },
                {
                  "name": "orderId",
                  "type": "uint256",
                  "internalType": "uint256"
                },
                {
                  "name": "pricePNS",
                  "type": "uint256",
                  "internalType": "uint256"
                },
                {
                  "name": "lotLNS",
                  "type": "uint256",
                  "internalType": "uint256"
                },
                {
                  "name": "expiryBlock",
                  "type": "uint256",
                  "internalType": "uint256"
                },
                {
                  "name": "postOnly",
                  "type": "bool",
                  "internalType": "bool"
                },
                {
                  "name": "fillOrKill",
                  "type": "bool",
                  "internalType": "bool"
                },
                {
                  "name": "immediateOrCancel",
                  "type": "bool",
                  "internalType": "bool"
                },
                {
                  "name": "maxMatches",
                  "type": "uint256",
                  "internalType": "uint256"
                },
                {
                  "name": "leverageHdths",
                  "type": "uint256",
                  "internalType": "uint256"
                },
                {
                  "name": "lastExecutionBlock",
                  "type": "uint256",
                  "internalType": "uint256"
                },
                {
                  "name": "amountCNS",
                  "type": "uint256",
                  "internalType": "uint256"
                },
                {
                  "name": "maxSlippageBps",
                  "type": "uint256",
                  "internalType": "uint256"
                }
              ]
            }
          ]
        }
      ],
      "outputs": [],
      "stateMutability": "nonpayable"
    },
    {
      "type": "function",
      "name": "execOrder",
      "inputs": [
        {
          "name": "orderDesc",
          "type": "tuple",
          "internalType": "struct OrderDesc",
          "components": [
            {
              "name": "orderDescId",
              "type": "uint256",
              "internalType": "uint256"
            },
            {
              "name": "perpId",
              "type": "uint256",
              "internalType": "uint256"
            },
            {
              "name": "orderType",
              "type": "uint8",
              "internalType": "enum OrderDescEnum"
            },
            {
              "name": "orderId",
              "type": "uint256",
              "internalType": "uint256"
            },
            {
              "name": "pricePNS",
              "type": "uint256",
              "internalType": "uint256"
            },
            {
              "name": "lotLNS",
              "type": "uint256",
              "internalType": "uint256"
            },
            {
              "name": "expiryBlock",
              "type": "uint256",
              "internalType": "uint256"
            },
            {
              "name": "postOnly",
              "type": "bool",
              "internalType": "bool"
            },
            {
              "name": "fillOrKill",
              "type": "bool",
              "internalType": "bool"
            },
            {
              "name": "immediateOrCancel",
              "type": "bool",
              "internalType": "bool"
            },
            {
              "name": "maxMatches",
              "type": "uint256",
              "internalType": "uint256"
            },
            {
              "name": "leverageHdths",
              "type": "uint256",
              "internalType": "uint256"
            },
            {
              "name": "lastExecutionBlock",
              "type": "uint256",
              "internalType": "uint256"
            },
            {
              "name": "amountCNS",
              "type": "uint256",
              "internalType": "uint256"
            },
            {
              "name": "maxSlippageBps",
              "type": "uint256",
              "internalType": "uint256"
            }
          ]
        }
      ],
      "outputs": [
        {
          "name": "signature",
          "type": "tuple",
          "internalType": "struct OrderSignature",
          "components": [
            {
              "name": "perpId",
              "type": "uint256",
              "internalType": "uint256"
            },
            {
              "name": "orderId",
              "type": "uint256",
              "internalType": "uint256"
            }
          ]
        }
      ],
      "stateMutability": "nonpayable"
    },
    {
      "type": "function",
      "name": "execOrders",
      "inputs": [
        {
          "name": "orderDescs",
          "type": "tuple[]",
          "internalType": "struct OrderDesc[]",
          "components": [
            {
              "name": "orderDescId",
              "type": "uint256",
              "internalType": "uint256"
            },
            {
              "name": "perpId",
              "type": "uint256",
              "internalType": "uint256"
            },
            {
              "name": "orderType",
              "type": "uint8",
              "internalType": "enum OrderDescEnum"
            },
            {
              "name": "orderId",
              "type": "uint256",
              "internalType": "uint256"
            },
            {
              "name": "pricePNS",
              "type": "uint256",
              "internalType": "uint256"
            },
            {
              "name": "lotLNS",
              "type": "uint256",
              "internalType": "uint256"
            },
            {
              "name": "expiryBlock",
              "type": "uint256",
              "internalType": "uint256"
            },
            {
              "name": "postOnly",
              "type": "bool",
              "internalType": "bool"
            },
            {
              "name": "fillOrKill",
              "type": "bool",
              "internalType": "bool"
            },
            {
              "name": "immediateOrCancel",
              "type": "bool",
              "internalType": "bool"
            },
            {
              "name": "maxMatches",
              "type": "uint256",
              "internalType": "uint256"
            },
            {
              "name": "leverageHdths",
              "type": "uint256",
              "internalType": "uint256"
            },
            {
              "name": "lastExecutionBlock",
              "type": "uint256",
              "internalType": "uint256"
            },
            {
              "name": "amountCNS",
              "type": "uint256",
              "internalType": "uint256"
            },
            {
              "name": "maxSlippageBps",
              "type": "uint256",
              "internalType": "uint256"
            }
          ]
        },
        {
          "name": "revertOnFail",
          "type": "bool",
          "internalType": "bool"
        }
      ],
      "outputs": [
        {
          "name": "signatures",
          "type": "tuple[]",
          "internalType": "struct OrderSignature[]",
          "components": [
            {
              "name": "perpId",
              "type": "uint256",
              "internalType": "uint256"
            },
            {
              "name": "orderId",
              "type": "uint256",
              "internalType": "uint256"
            }
          ]
        }
      ],
      "stateMutability": "nonpayable"
    },
    {
      "type": "function",
      "name": "execPerpOps",
      "inputs": [
        {
          "name": "operations",
          "type": "tuple[]",
          "internalType": "struct OpDesc[]",
          "components": [
            {
              "name": "opDescId",
              "type": "uint256",
              "internalType": "uint256"
            },
            {
              "name": "perpId",
              "type": "uint256",
              "internalType": "uint256"
            },
            {
              "name": "opType",
              "type": "uint8",
              "internalType": "enum OpDescEnum"
            },
            {
              "name": "pricePNS",
              "type": "uint32",
              "internalType": "uint32"
            },
            {
              "name": "fundingRatePct100k",
              "type": "int256",
              "internalType": "int256"
            },
            {
              "name": "allowOverwrite",
              "type": "bool",
              "internalType": "bool"
            },
            {
              "name": "unverifiedReport",
              "type": "bytes",
              "internalType": "bytes"
            }
          ]
        }
      ],
      "outputs": [],
      "stateMutability": "nonpayable"
    },
    {
      "type": "function",
      "name": "forceClose",
      "inputs": [
        {
          "name": "perpId",
          "type": "uint256",
          "internalType": "uint256"
        },
        {
          "name": "posAccountId",
          "type": "uint256",
          "internalType": "uint256"
        },
        {
          "name": "sortedPositionIds",
          "type": "uint256[]",
          "internalType": "uint256[]"
        },
        {
          "name": "revertOnFail",
          "type": "bool",
          "internalType": "bool"
        }
      ],
      "outputs": [
        {
          "name": "success",
          "type": "bool",
          "internalType": "bool"
        }
      ],
      "stateMutability": "nonpayable"
    },
    {
      "type": "function",
      "name": "forceResetWithdrawRateLimit",
      "inputs": [],
      "outputs": [],
      "stateMutability": "nonpayable"
    },
    {
      "type": "function",
      "name": "getAccountByAddr",
      "inputs": [
        {
          "name": "accountAddress",
          "type": "address",
          "internalType": "address"
        }
      ],
      "outputs": [
        {
          "name": "accountInfo",
          "type": "tuple",
          "internalType": "struct AccountInfo",
          "components": [
            {
              "name": "accountId",
              "type": "uint256",
              "internalType": "uint256"
            },
            {
              "name": "balanceCNS",
              "type": "uint256",
              "internalType": "uint256"
            },
            {
              "name": "lockedBalanceCNS",
              "type": "uint256",
              "internalType": "uint256"
            },
            {
              "name": "frozen",
              "type": "uint8",
              "internalType": "enum FreezeStatusEnum"
            },
            {
              "name": "accountAddr",
              "type": "address",
              "internalType": "address"
            },
            {
              "name": "positions",
              "type": "tuple",
              "internalType": "struct PositionBitMap",
              "components": [
                {
                  "name": "bank1",
                  "type": "uint256",
                  "internalType": "uint256"
                },
                {
                  "name": "bank2",
                  "type": "uint256",
                  "internalType": "uint256"
                },
                {
                  "name": "bank3",
                  "type": "uint256",
                  "internalType": "uint256"
                },
                {
                  "name": "bank4",
                  "type": "uint256",
                  "internalType": "uint256"
                }
              ]
            }
          ]
        }
      ],
      "stateMutability": "view"
    },
    {
      "type": "function",
      "name": "getAccountById",
      "inputs": [
        {
          "name": "accountId",
          "type": "uint256",
          "internalType": "uint256"
        }
      ],
      "outputs": [
        {
          "name": "accountInfo",
          "type": "tuple",
          "internalType": "struct AccountInfo",
          "components": [
            {
              "name": "accountId",
              "type": "uint256",
              "internalType": "uint256"
            },
            {
              "name": "balanceCNS",
              "type": "uint256",
              "internalType": "uint256"
            },
            {
              "name": "lockedBalanceCNS",
              "type": "uint256",
              "internalType": "uint256"
            },
            {
              "name": "frozen",
              "type": "uint8",
              "internalType": "enum FreezeStatusEnum"
            },
            {
              "name": "accountAddr",
              "type": "address",
              "internalType": "address"
            },
            {
              "name": "positions",
              "type": "tuple",
              "internalType": "struct PositionBitMap",
              "components": [
                {
                  "name": "bank1",
                  "type": "uint256",
                  "internalType": "uint256"
                },
                {
                  "name": "bank2",
                  "type": "uint256",
                  "internalType": "uint256"
                },
                {
                  "name": "bank3",
                  "type": "uint256",
                  "internalType": "uint256"
                },
                {
                  "name": "bank4",
                  "type": "uint256",
                  "internalType": "uint256"
                }
              ]
            }
          ]
        }
      ],
      "stateMutability": "view"
    },
    {
      "type": "function",
      "name": "getExchangeInfo",
      "inputs": [],
      "outputs": [
        {
          "name": "balanceCNS",
          "type": "uint256",
          "internalType": "uint256"
        },
        {
          "name": "protocolBalanceCNS",
          "type": "uint256",
          "internalType": "uint256"
        },
        {
          "name": "recycleBalanceCNS",
          "type": "uint256",
          "internalType": "uint256"
        },
        {
          "name": "collateralDecimals",
          "type": "uint256",
          "internalType": "uint256"
        },
        {
          "name": "collateralToken",
          "type": "address",
          "internalType": "address"
        },
        {
          "name": "verifierProxy",
          "type": "address",
          "internalType": "address"
        }
      ],
      "stateMutability": "view"
    },
    {
      "type": "function",
      "name": "getFundingInterval",
      "inputs": [],
      "outputs": [
        {
          "name": "fundingInterval",
          "type": "uint256",
          "internalType": "uint256"
        }
      ],
      "stateMutability": "pure"
    },
    {
      "type": "function",
      "name": "getFundingSumAtBlock",
      "inputs": [
        {
          "name": "perpId",
          "type": "uint256",
          "internalType": "uint256"
        },
        {
          "name": "blockNumber",
          "type": "uint256",
          "internalType": "uint256"
        }
      ],
      "outputs": [
        {
          "name": "fundingSumPNS",
          "type": "int48",
          "internalType": "int48"
        },
        {
          "name": "fundingEventBlock",
          "type": "uint256",
          "internalType": "uint256"
        }
      ],
      "stateMutability": "view"
    },
    {
      "type": "function",
      "name": "getLiquidationInfo",
      "inputs": [
        {
          "name": "perpId",
          "type": "uint256",
          "internalType": "uint256"
        }
      ],
      "outputs": [
        {
          "name": "liquidationInfo",
          "type": "tuple",
          "internalType": "struct LiquidationInfo",
          "components": [
            {
              "name": "liqInsAmtPer100K",
              "type": "uint256",
              "internalType": "uint256"
            },
            {
              "name": "liqUserAmtPer100K",
              "type": "uint256",
              "internalType": "uint256"
            },
            {
              "name": "liqProtocolAmtPer100K",
              "type": "uint256",
              "internalType": "uint256"
            },
            {
              "name": "btlPriceThreshPer100K",
              "type": "uint256",
              "internalType": "uint256"
            },
            {
              "name": "btlInsAmtPer100K",
              "type": "uint256",
              "internalType": "uint256"
            },
            {
              "name": "btlUserAmtPer100K",
              "type": "uint256",
              "internalType": "uint256"
            },
            {
              "name": "btlBuyerAmtPer100K",
              "type": "uint256",
              "internalType": "uint256"
            },
            {
              "name": "btlProtocolAmtPer100K",
              "type": "uint256",
              "internalType": "uint256"
            },
            {
              "name": "btlRestrictBuyers",
              "type": "bool",
              "internalType": "bool"
            }
          ]
        }
      ],
      "stateMutability": "view"
    },
    {
      "type": "function",
      "name": "getMakerFee",
      "inputs": [
        {
          "name": "perpId",
          "type": "uint256",
          "internalType": "uint256"
        }
      ],
      "outputs": [
        {
          "name": "",
          "type": "uint256",
          "internalType": "uint256"
        }
      ],
      "stateMutability": "view"
    },
    {
      "type": "function",
      "name": "getMarginFractions",
      "inputs": [
        {
          "name": "perpId",
          "type": "uint256",
          "internalType": "uint256"
        },
        {
          "name": "lotLNS",
          "type": "uint256",
          "internalType": "uint256"
        }
      ],
      "outputs": [
        {
          "name": "perpInitMarginFracHdths",
          "type": "uint256",
          "internalType": "uint256"
        },
        {
          "name": "perpMaintMarginFracHdths",
          "type": "uint256",
          "internalType": "uint256"
        },
        {
          "name": "dynamicInitMarginFracHdths",
          "type": "uint256",
          "internalType": "uint256"
        },
        {
          "name": "oiMaxLNS",
          "type": "uint256",
          "internalType": "uint256"
        },
        {
          "name": "unityDescentThreshHdths",
          "type": "uint256",
          "internalType": "uint256"
        },
        {
          "name": "overColDescentThreshHdths",
          "type": "uint256",
          "internalType": "uint256"
        }
      ],
      "stateMutability": "view"
    },
    {
      "type": "function",
      "name": "getMinAccountOpenCNS",
      "inputs": [],
      "outputs": [
        {
          "name": "minAccountOpenCNS",
          "type": "uint256",
          "internalType": "uint256"
        }
      ],
      "stateMutability": "view"
    },
    {
      "type": "function",
      "name": "getMinimumPostCNS",
      "inputs": [],
      "outputs": [
        {
          "name": "minimumPostCNS",
          "type": "uint256",
          "internalType": "uint256"
        }
      ],
      "stateMutability": "view"
    },
    {
      "type": "function",
      "name": "getMinimumSettleCNS",
      "inputs": [],
      "outputs": [
        {
          "name": "minimumSettleCNS",
          "type": "uint256",
          "internalType": "uint256"
        }
      ],
      "stateMutability": "view"
    },
    {
      "type": "function",
      "name": "getNextPriceAboveWithOrders",
      "inputs": [
        {
          "name": "perpId",
          "type": "uint256",
          "internalType": "uint256"
        },
        {
          "name": "priceONS",
          "type": "uint256",
          "internalType": "uint256"
        }
      ],
      "outputs": [
        {
          "name": "priceAboveONS",
          "type": "uint256",
          "internalType": "uint256"
        }
      ],
      "stateMutability": "view"
    },
    {
      "type": "function",
      "name": "getNextPriceBelowWithOrders",
      "inputs": [
        {
          "name": "perpId",
          "type": "uint256",
          "internalType": "uint256"
        },
        {
          "name": "priceONS",
          "type": "uint256",
          "internalType": "uint256"
        }
      ],
      "outputs": [
        {
          "name": "priceBelowONS",
          "type": "uint256",
          "internalType": "uint256"
        }
      ],
      "stateMutability": "view"
    },
    {
      "type": "function",
      "name": "getOrder",
      "inputs": [
        {
          "name": "perpId",
          "type": "uint256",
          "internalType": "uint256"
        },
        {
          "name": "orderId",
          "type": "uint256",
          "internalType": "uint256"
        }
      ],
      "outputs": [
        {
          "name": "order",
          "type": "tuple",
          "internalType": "struct Order",
          "components": [
            {
              "name": "accountId",
              "type": "uint32",
              "internalType": "uint32"
            },
            {
              "name": "orderType",
              "type": "uint8",
              "internalType": "enum OrderEnum"
            },
            {
              "name": "priceONS",
              "type": "uint24",
              "internalType": "uint24"
            },
            {
              "name": "lotLNS",
              "type": "uint40",
              "internalType": "uint40"
            },
            {
              "name": "recycleFeeRaw",
              "type": "uint16",
              "internalType": "uint16"
            },
            {
              "name": "expiryBlock",
              "type": "uint32",
              "internalType": "uint32"
            },
            {
              "name": "leverageHdths",
              "type": "uint16",
              "internalType": "uint16"
            },
            {
              "name": "orderId",
              "type": "uint16",
              "internalType": "uint16"
            },
            {
              "name": "prevOrderId",
              "type": "uint16",
              "internalType": "uint16"
            },
            {
              "name": "nextOrderId",
              "type": "uint16",
              "internalType": "uint16"
            },
            {
              "name": "maxSlippageBps",
              "type": "uint16",
              "internalType": "uint16"
            }
          ]
        }
      ],
      "stateMutability": "view"
    },
    {
      "type": "function",
      "name": "getOrderIdIndex",
      "inputs": [
        {
          "name": "perpId",
          "type": "uint256",
          "internalType": "uint256"
        }
      ],
      "outputs": [
        {
          "name": "root",
          "type": "uint256",
          "internalType": "uint256"
        },
        {
          "name": "leaves",
          "type": "uint256[]",
          "internalType": "uint256[]"
        },
        {
          "name": "numOrders",
          "type": "uint256",
          "internalType": "uint256"
        }
      ],
      "stateMutability": "view"
    },
    {
      "type": "function",
      "name": "getOrderLocks",
      "inputs": [
        {
          "name": "accountId",
          "type": "uint256",
          "internalType": "uint256"
        }
      ],
      "outputs": [
        {
          "name": "orderLocks",
          "type": "tuple[]",
          "internalType": "struct OrderLock[]",
          "components": [
            {
              "name": "orderLockId",
              "type": "uint32",
              "internalType": "uint32"
            },
            {
              "name": "nextOrderLockId",
              "type": "uint32",
              "internalType": "uint32"
            },
            {
              "name": "prevOrderLockId",
              "type": "uint32",
              "internalType": "uint32"
            },
            {
              "name": "orderType",
              "type": "uint8",
              "internalType": "enum OrderEnum"
            },
            {
              "name": "lotLNS",
              "type": "uint40",
              "internalType": "uint40"
            },
            {
              "name": "amountCNS",
              "type": "uint80",
              "internalType": "uint80"
            }
          ]
        }
      ],
      "stateMutability": "view"
    },
    {
      "type": "function",
      "name": "getOrdersAtPriceLevel",
      "inputs": [
        {
          "name": "perpId",
          "type": "uint256",
          "internalType": "uint256"
        },
        {
          "name": "priceONS",
          "type": "uint256",
          "internalType": "uint256"
        },
        {
          "name": "pageStartOrderId",
          "type": "uint256",
          "internalType": "uint256"
        },
        {
          "name": "ordersPerPage",
          "type": "uint256",
          "internalType": "uint256"
        }
      ],
      "outputs": [
        {
          "name": "ordersAtPriceLevel",
          "type": "tuple[]",
          "internalType": "struct Order[]",
          "components": [
            {
              "name": "accountId",
              "type": "uint32",
              "internalType": "uint32"
            },
            {
              "name": "orderType",
              "type": "uint8",
              "internalType": "enum OrderEnum"
            },
            {
              "name": "priceONS",
              "type": "uint24",
              "internalType": "uint24"
            },
            {
              "name": "lotLNS",
              "type": "uint40",
              "internalType": "uint40"
            },
            {
              "name": "recycleFeeRaw",
              "type": "uint16",
              "internalType": "uint16"
            },
            {
              "name": "expiryBlock",
              "type": "uint32",
              "internalType": "uint32"
            },
            {
              "name": "leverageHdths",
              "type": "uint16",
              "internalType": "uint16"
            },
            {
              "name": "orderId",
              "type": "uint16",
              "internalType": "uint16"
            },
            {
              "name": "prevOrderId",
              "type": "uint16",
              "internalType": "uint16"
            },
            {
              "name": "nextOrderId",
              "type": "uint16",
              "internalType": "uint16"
            },
            {
              "name": "maxSlippageBps",
              "type": "uint16",
              "internalType": "uint16"
            }
          ]
        },
        {
          "name": "numOrders",
          "type": "uint256",
          "internalType": "uint256"
        }
      ],
      "stateMutability": "view"
    },
    {
      "type": "function",
      "name": "getOwner",
      "inputs": [],
      "outputs": [
        {
          "name": "",
          "type": "address",
          "internalType": "address"
        }
      ],
      "stateMutability": "view"
    },
    {
      "type": "function",
      "name": "getPermissionedCancelParams",
      "inputs": [
        {
          "name": "perpId",
          "type": "uint256",
          "internalType": "uint256"
        }
      ],
      "outputs": [
        {
          "name": "permCancelMinOrders",
          "type": "uint256",
          "internalType": "uint256"
        },
        {
          "name": "permCancelSegment",
          "type": "uint256",
          "internalType": "uint256"
        }
      ],
      "stateMutability": "view"
    },
    {
      "type": "function",
      "name": "getPerpOrderLocks",
      "inputs": [
        {
          "name": "accountId",
          "type": "uint256",
          "internalType": "uint256"
        },
        {
          "name": "perpId",
          "type": "uint256",
          "internalType": "uint256"
        }
      ],
      "outputs": [
        {
          "name": "perpOrderLocks",
          "type": "tuple[]",
          "internalType": "struct OrderLock[]",
          "components": [
            {
              "name": "orderLockId",
              "type": "uint32",
              "internalType": "uint32"
            },
            {
              "name": "nextOrderLockId",
              "type": "uint32",
              "internalType": "uint32"
            },
            {
              "name": "prevOrderLockId",
              "type": "uint32",
              "internalType": "uint32"
            },
            {
              "name": "orderType",
              "type": "uint8",
              "internalType": "enum OrderEnum"
            },
            {
              "name": "lotLNS",
              "type": "uint40",
              "internalType": "uint40"
            },
            {
              "name": "amountCNS",
              "type": "uint80",
              "internalType": "uint80"
            }
          ]
        }
      ],
      "stateMutability": "view"
    },
    {
      "type": "function",
      "name": "getPerpetualInfo",
      "inputs": [
        {
          "name": "perpId",
          "type": "uint256",
          "internalType": "uint256"
        }
      ],
      "outputs": [
        {
          "name": "perpetualInfo",
          "type": "tuple",
          "internalType": "struct PerpetualInfo",
          "components": [
            {
              "name": "name",
              "type": "string",
              "internalType": "string"
            },
            {
              "name": "symbol",
              "type": "string",
              "internalType": "string"
            },
            {
              "name": "priceDecimals",
              "type": "uint256",
              "internalType": "uint256"
            },
            {
              "name": "lotDecimals",
              "type": "uint256",
              "internalType": "uint256"
            },
            {
              "name": "linkFeedId",
              "type": "bytes32",
              "internalType": "bytes32"
            },
            {
              "name": "priceTolPer100K",
              "type": "uint256",
              "internalType": "uint256"
            },
            {
              "name": "marginTol",
              "type": "uint256",
              "internalType": "uint256"
            },
            {
              "name": "marginTolDecimals",
              "type": "uint256",
              "internalType": "uint256"
            },
            {
              "name": "refPriceMaxAgeSec",
              "type": "uint256",
              "internalType": "uint256"
            },
            {
              "name": "positionBalanceCNS",
              "type": "uint256",
              "internalType": "uint256"
            },
            {
              "name": "insuranceBalanceCNS",
              "type": "uint256",
              "internalType": "uint256"
            },
            {
              "name": "markPNS",
              "type": "uint256",
              "internalType": "uint256"
            },
            {
              "name": "markTimestamp",
              "type": "uint256",
              "internalType": "uint256"
            },
            {
              "name": "lastPNS",
              "type": "uint256",
              "internalType": "uint256"
            },
            {
              "name": "lastTimestamp",
              "type": "uint256",
              "internalType": "uint256"
            },
            {
              "name": "oraclePNS",
              "type": "uint256",
              "internalType": "uint256"
            },
            {
              "name": "oracleTimestampSec",
              "type": "uint256",
              "internalType": "uint256"
            },
            {
              "name": "longOpenInterestLNS",
              "type": "uint256",
              "internalType": "uint256"
            },
            {
              "name": "shortOpenInterestLNS",
              "type": "uint256",
              "internalType": "uint256"
            },
            {
              "name": "fundingStartBlock",
              "type": "uint256",
              "internalType": "uint256"
            },
            {
              "name": "fundingRatePct100k",
              "type": "int16",
              "internalType": "int16"
            },
            {
              "name": "absFundingClampPctPer100K",
              "type": "uint256",
              "internalType": "uint256"
            },
            {
              "name": "status",
              "type": "uint8",
              "internalType": "enum PerpStatusEnum"
            },
            {
              "name": "basePricePNS",
              "type": "uint256",
              "internalType": "uint256"
            },
            {
              "name": "maxBidPriceONS",
              "type": "uint256",
              "internalType": "uint256"
            },
            {
              "name": "minBidPriceONS",
              "type": "uint256",
              "internalType": "uint256"
            },
            {
              "name": "maxAskPriceONS",
              "type": "uint256",
              "internalType": "uint256"
            },
            {
              "name": "minAskPriceONS",
              "type": "uint256",
              "internalType": "uint256"
            },
            {
              "name": "numOrders",
              "type": "uint256",
              "internalType": "uint256"
            },
            {
              "name": "ignOracle",
              "type": "bool",
              "internalType": "bool"
            }
          ]
        }
      ],
      "stateMutability": "view"
    },
    {
      "type": "function",
      "name": "getPosition",
      "inputs": [
        {
          "name": "perpId",
          "type": "uint256",
          "internalType": "uint256"
        },
        {
          "name": "accountId",
          "type": "uint256",
          "internalType": "uint256"
        }
      ],
      "outputs": [
        {
          "name": "positionInfo",
          "type": "tuple",
          "internalType": "struct PositionInfo",
          "components": [
            {
              "name": "accountId",
              "type": "uint256",
              "internalType": "uint256"
            },
            {
              "name": "nextNodeId",
              "type": "uint256",
              "internalType": "uint256"
            },
            {
              "name": "prevNodeId",
              "type": "uint256",
              "internalType": "uint256"
            },
            {
              "name": "positionType",
              "type": "uint8",
              "internalType": "enum PositionEnum"
            },
            {
              "name": "depositCNS",
              "type": "uint256",
              "internalType": "uint256"
            },
            {
              "name": "pricePNS",
              "type": "uint256",
              "internalType": "uint256"
            },
            {
              "name": "lotLNS",
              "type": "uint256",
              "internalType": "uint256"
            },
            {
              "name": "entryBlock",
              "type": "uint256",
              "internalType": "uint256"
            },
            {
              "name": "pnlCNS",
              "type": "int256",
              "internalType": "int256"
            },
            {
              "name": "deltaPnlCNS",
              "type": "int256",
              "internalType": "int256"
            },
            {
              "name": "premiumPnlCNS",
              "type": "int256",
              "internalType": "int256"
            }
          ]
        },
        {
          "name": "markPricePNS",
          "type": "uint256",
          "internalType": "uint256"
        },
        {
          "name": "markPriceValid",
          "type": "bool",
          "internalType": "bool"
        }
      ],
      "stateMutability": "view"
    },
    {
      "type": "function",
      "name": "getPositionIds",
      "inputs": [
        {
          "name": "perpId",
          "type": "uint256",
          "internalType": "uint256"
        }
      ],
      "outputs": [
        {
          "name": "startNodeId",
          "type": "uint256",
          "internalType": "uint256"
        },
        {
          "name": "endNodeId",
          "type": "uint256",
          "internalType": "uint256"
        }
      ],
      "stateMutability": "view"
    },
    {
      "type": "function",
      "name": "getPositions",
      "inputs": [
        {
          "name": "perpId",
          "type": "uint256",
          "internalType": "uint256"
        },
        {
          "name": "pageStartPositionId",
          "type": "uint256",
          "internalType": "uint256"
        },
        {
          "name": "positionsPerPage",
          "type": "uint256",
          "internalType": "uint256"
        }
      ],
      "outputs": [
        {
          "name": "positions",
          "type": "tuple[]",
          "internalType": "struct PositionInfo[]",
          "components": [
            {
              "name": "accountId",
              "type": "uint256",
              "internalType": "uint256"
            },
            {
              "name": "nextNodeId",
              "type": "uint256",
              "internalType": "uint256"
            },
            {
              "name": "prevNodeId",
              "type": "uint256",
              "internalType": "uint256"
            },
            {
              "name": "positionType",
              "type": "uint8",
              "internalType": "enum PositionEnum"
            },
            {
              "name": "depositCNS",
              "type": "uint256",
              "internalType": "uint256"
            },
            {
              "name": "pricePNS",
              "type": "uint256",
              "internalType": "uint256"
            },
            {
              "name": "lotLNS",
              "type": "uint256",
              "internalType": "uint256"
            },
            {
              "name": "entryBlock",
              "type": "uint256",
              "internalType": "uint256"
            },
            {
              "name": "pnlCNS",
              "type": "int256",
              "internalType": "int256"
            },
            {
              "name": "deltaPnlCNS",
              "type": "int256",
              "internalType": "int256"
            },
            {
              "name": "premiumPnlCNS",
              "type": "int256",
              "internalType": "int256"
            }
          ]
        },
        {
          "name": "numPositions",
          "type": "uint256",
          "internalType": "uint256"
        },
        {
          "name": "markPricePNS",
          "type": "uint256",
          "internalType": "uint256"
        },
        {
          "name": "markPriceValid",
          "type": "bool",
          "internalType": "bool"
        }
      ],
      "stateMutability": "view"
    },
    {
      "type": "function",
      "name": "getPriceLevelOrderIds",
      "inputs": [
        {
          "name": "perpId",
          "type": "uint256",
          "internalType": "uint256"
        },
        {
          "name": "priceONS",
          "type": "uint256",
          "internalType": "uint256"
        }
      ],
      "outputs": [
        {
          "name": "startOrderId",
          "type": "uint256",
          "internalType": "uint256"
        },
        {
          "name": "endOrderId",
          "type": "uint256",
          "internalType": "uint256"
        }
      ],
      "stateMutability": "view"
    },
    {
      "type": "function",
      "name": "getProtocolBalanceCNS",
      "inputs": [],
      "outputs": [
        {
          "name": "protocolBalanceCNS",
          "type": "uint256",
          "internalType": "uint256"
        }
      ],
      "stateMutability": "view"
    },
    {
      "type": "function",
      "name": "getRecycleBalanceCNS",
      "inputs": [],
      "outputs": [
        {
          "name": "recycleBalanceCNS",
          "type": "uint256",
          "internalType": "uint256"
        }
      ],
      "stateMutability": "view"
    },
    {
      "type": "function",
      "name": "getRecycleFeeCNS",
      "inputs": [],
      "outputs": [
        {
          "name": "recycleFeeCNS",
          "type": "uint256",
          "internalType": "uint256"
        }
      ],
      "stateMutability": "view"
    },
    {
      "type": "function",
      "name": "getTakerFee",
      "inputs": [
        {
          "name": "perpId",
          "type": "uint256",
          "internalType": "uint256"
        }
      ],
      "outputs": [
        {
          "name": "",
          "type": "uint256",
          "internalType": "uint256"
        }
      ],
      "stateMutability": "view"
    },
    {
      "type": "function",
      "name": "getUnwindInfo",
      "inputs": [
        {
          "name": "perpId",
          "type": "uint256",
          "internalType": "uint256"
        }
      ],
      "outputs": [
        {
          "name": "status",
          "type": "uint8",
          "internalType": "enum PerpStatusEnum"
        },
        {
          "name": "unwindSumPositiveFmvCNS",
          "type": "uint256",
          "internalType": "uint256"
        },
        {
          "name": "unwindInitPosBalCNS",
          "type": "uint256",
          "internalType": "uint256"
        }
      ],
      "stateMutability": "view"
    },
    {
      "type": "function",
      "name": "getVolumeAtBookPrice",
      "inputs": [
        {
          "name": "perpId",
          "type": "uint256",
          "internalType": "uint256"
        },
        {
          "name": "priceONS",
          "type": "uint256",
          "internalType": "uint256"
        }
      ],
      "outputs": [
        {
          "name": "bids",
          "type": "uint256",
          "internalType": "uint256"
        },
        {
          "name": "expBids",
          "type": "uint256",
          "internalType": "uint256"
        },
        {
          "name": "asks",
          "type": "uint256",
          "internalType": "uint256"
        },
        {
          "name": "expAsks",
          "type": "uint256",
          "internalType": "uint256"
        }
      ],
      "stateMutability": "view"
    },
    {
      "type": "function",
      "name": "getWithdrawAllowanceData",
      "inputs": [
        {
          "name": "blockNumber",
          "type": "uint256",
          "internalType": "uint256"
        }
      ],
      "outputs": [
        {
          "name": "allowanceCNS",
          "type": "uint256",
          "internalType": "uint256"
        },
        {
          "name": "expiryBlock",
          "type": "uint256",
          "internalType": "uint256"
        },
        {
          "name": "lastAllowanceBlock",
          "type": "uint256",
          "internalType": "uint256"
        },
        {
          "name": "cnsPerBlock",
          "type": "uint256",
          "internalType": "uint256"
        }
      ],
      "stateMutability": "view"
    },
    {
      "type": "function",
      "name": "increasePositionCollateral",
      "inputs": [
        {
          "name": "perpId",
          "type": "uint256",
          "internalType": "uint256"
        },
        {
          "name": "amountCNS",
          "type": "uint256",
          "internalType": "uint256"
        }
      ],
      "outputs": [],
      "stateMutability": "nonpayable"
    },
    {
      "type": "function",
      "name": "initUnwindContract",
      "inputs": [
        {
          "name": "perpId",
          "type": "uint256",
          "internalType": "uint256"
        },
        {
          "name": "sumPositiveFmvCNS",
          "type": "uint256",
          "internalType": "uint256"
        }
      ],
      "outputs": [],
      "stateMutability": "nonpayable"
    },
    {
      "type": "function",
      "name": "initialize",
      "inputs": [
        {
          "name": "collateralToken",
          "type": "address",
          "internalType": "address"
        }
      ],
      "outputs": [],
      "stateMutability": "nonpayable"
    },
    {
      "type": "function",
      "name": "isAdministrator",
      "inputs": [
        {
          "name": "anAddress",
          "type": "address",
          "internalType": "address"
        }
      ],
      "outputs": [
        {
          "name": "",
          "type": "bool",
          "internalType": "bool"
        }
      ],
      "stateMutability": "view"
    },
    {
      "type": "function",
      "name": "isHalted",
      "inputs": [],
      "outputs": [
        {
          "name": "halted",
          "type": "bool",
          "internalType": "bool"
        }
      ],
      "stateMutability": "view"
    },
    {
      "type": "function",
      "name": "isLiquidationBuyer",
      "inputs": [
        {
          "name": "anAddress",
          "type": "address",
          "internalType": "address"
        }
      ],
      "outputs": [
        {
          "name": "",
          "type": "bool",
          "internalType": "bool"
        }
      ],
      "stateMutability": "view"
    },
    {
      "type": "function",
      "name": "isPositionAdministrator",
      "inputs": [
        {
          "name": "anAddress",
          "type": "address",
          "internalType": "address"
        }
      ],
      "outputs": [
        {
          "name": "",
          "type": "bool",
          "internalType": "bool"
        }
      ],
      "stateMutability": "view"
    },
    {
      "type": "function",
      "name": "isPriceAdministrator",
      "inputs": [
        {
          "name": "anAddress",
          "type": "address",
          "internalType": "address"
        }
      ],
      "outputs": [
        {
          "name": "",
          "type": "bool",
          "internalType": "bool"
        }
      ],
      "stateMutability": "view"
    },
    {
      "type": "function",
      "name": "isToleranceAdministrator",
      "inputs": [
        {
          "name": "anAddress",
          "type": "address",
          "internalType": "address"
        }
      ],
      "outputs": [
        {
          "name": "",
          "type": "bool",
          "internalType": "bool"
        }
      ],
      "stateMutability": "view"
    },
    {
      "type": "function",
      "name": "liquidation",
      "inputs": [
        {
          "name": "liquidationDesc",
          "type": "tuple",
          "internalType": "struct LiquidationDesc",
          "components": [
            {
              "name": "perpId",
              "type": "uint256",
              "internalType": "uint256"
            },
            {
              "name": "posAccountId",
              "type": "uint256",
              "internalType": "uint256"
            },
            {
              "name": "lotLNS",
              "type": "uint256",
              "internalType": "uint256"
            },
            {
              "name": "userProceedsToPosition",
              "type": "bool",
              "internalType": "bool"
            }
          ]
        }
      ],
      "outputs": [],
      "stateMutability": "nonpayable"
    },
    {
      "type": "function",
      "name": "liquidations",
      "inputs": [
        {
          "name": "liquidationDescs",
          "type": "tuple[]",
          "internalType": "struct LiquidationDesc[]",
          "components": [
            {
              "name": "perpId",
              "type": "uint256",
              "internalType": "uint256"
            },
            {
              "name": "posAccountId",
              "type": "uint256",
              "internalType": "uint256"
            },
            {
              "name": "lotLNS",
              "type": "uint256",
              "internalType": "uint256"
            },
            {
              "name": "userProceedsToPosition",
              "type": "bool",
              "internalType": "bool"
            }
          ]
        },
        {
          "name": "revertOnFail",
          "type": "bool",
          "internalType": "bool"
        }
      ],
      "outputs": [],
      "stateMutability": "nonpayable"
    },
    {
      "type": "function",
      "name": "numberOfAccounts",
      "inputs": [],
      "outputs": [
        {
          "name": "numAccounts",
          "type": "uint256",
          "internalType": "uint256"
        }
      ],
      "stateMutability": "view"
    },
    {
      "type": "function",
      "name": "owner",
      "inputs": [],
      "outputs": [
        {
          "name": "",
          "type": "address",
          "internalType": "address"
        }
      ],
      "stateMutability": "view"
    },
    {
      "type": "function",
      "name": "pauseContract",
      "inputs": [
        {
          "name": "perpId",
          "type": "uint256",
          "internalType": "uint256"
        }
      ],
      "outputs": [],
      "stateMutability": "nonpayable"
    },
    {
      "type": "function",
      "name": "pendingOwner",
      "inputs": [],
      "outputs": [
        {
          "name": "",
          "type": "address",
          "internalType": "address"
        }
      ],
      "stateMutability": "view"
    },
    {
      "type": "function",
      "name": "prepareUnwindContract",
      "inputs": [
        {
          "name": "perpId",
          "type": "uint256",
          "internalType": "uint256"
        }
      ],
      "outputs": [],
      "stateMutability": "nonpayable"
    },
    {
      "type": "function",
      "name": "proxiableUUID",
      "inputs": [],
      "outputs": [
        {
          "name": "",
          "type": "bytes32",
          "internalType": "bytes32"
        }
      ],
      "stateMutability": "view"
    },
    {
      "type": "function",
      "name": "removeContract",
      "inputs": [
        {
          "name": "perpId",
          "type": "uint256",
          "internalType": "uint256"
        }
      ],
      "outputs": [],
      "stateMutability": "nonpayable"
    },
    {
      "type": "function",
      "name": "renounceOwnership",
      "inputs": [],
      "outputs": [],
      "stateMutability": "nonpayable"
    },
    {
      "type": "function",
      "name": "requestDecreasePositionCollateral",
      "inputs": [
        {
          "name": "perpId",
          "type": "uint256",
          "internalType": "uint256"
        },
        {
          "name": "amountCNS",
          "type": "uint256",
          "internalType": "uint256"
        },
        {
          "name": "clampToMaximum",
          "type": "bool",
          "internalType": "bool"
        }
      ],
      "outputs": [],
      "stateMutability": "nonpayable"
    },
    {
      "type": "function",
      "name": "setAddressBlockStatus",
      "inputs": [
        {
          "name": "addresses",
          "type": "address[]",
          "internalType": "address[]"
        },
        {
          "name": "blocked",
          "type": "bool",
          "internalType": "bool"
        }
      ],
      "outputs": [],
      "stateMutability": "nonpayable"
    },
    {
      "type": "function",
      "name": "setAddressWhitelisted",
      "inputs": [
        {
          "name": "addresses",
          "type": "address[]",
          "internalType": "address[]"
        },
        {
          "name": "whitelisted_",
          "type": "bool",
          "internalType": "bool"
        }
      ],
      "outputs": [],
      "stateMutability": "nonpayable"
    },
    {
      "type": "function",
      "name": "setAdministrator",
      "inputs": [
        {
          "name": "administrator",
          "type": "address",
          "internalType": "address"
        },
        {
          "name": "add",
          "type": "bool",
          "internalType": "bool"
        }
      ],
      "outputs": [],
      "stateMutability": "nonpayable"
    },
    {
      "type": "function",
      "name": "setBuyToLiquidateBuyerRestriction",
      "inputs": [
        {
          "name": "perpId",
          "type": "uint256",
          "internalType": "uint256"
        },
        {
          "name": "restrictBuyers",
          "type": "bool",
          "internalType": "bool"
        }
      ],
      "outputs": [],
      "stateMutability": "nonpayable"
    },
    {
      "type": "function",
      "name": "setBuyToLiquidateParams",
      "inputs": [
        {
          "name": "perpId",
          "type": "uint256",
          "internalType": "uint256"
        },
        {
          "name": "insAmtPer100K",
          "type": "uint256",
          "internalType": "uint256"
        },
        {
          "name": "userAmtPer100K",
          "type": "uint256",
          "internalType": "uint256"
        },
        {
          "name": "buyerAmtPer100K",
          "type": "uint256",
          "internalType": "uint256"
        }
      ],
      "outputs": [],
      "stateMutability": "nonpayable"
    },
    {
      "type": "function",
      "name": "setBuyToLiquidatePriceThreshold",
      "inputs": [
        {
          "name": "perpId",
          "type": "uint256",
          "internalType": "uint256"
        },
        {
          "name": "thresholdPer100K",
          "type": "uint256",
          "internalType": "uint256"
        }
      ],
      "outputs": [],
      "stateMutability": "nonpayable"
    },
    {
      "type": "function",
      "name": "setContractPaused",
      "inputs": [
        {
          "name": "perpId",
          "type": "uint256",
          "internalType": "uint256"
        },
        {
          "name": "paused",
          "type": "bool",
          "internalType": "bool"
        }
      ],
      "outputs": [],
      "stateMutability": "nonpayable"
    },
    {
      "type": "function",
      "name": "setDcpBorrowThreshold",
      "inputs": [
        {
          "name": "perpId",
          "type": "uint256",
          "internalType": "uint256"
        },
        {
          "name": "threshHdths",
          "type": "uint256",
          "internalType": "uint256"
        }
      ],
      "outputs": [],
      "stateMutability": "nonpayable"
    },
    {
      "type": "function",
      "name": "setExchangeHalted",
      "inputs": [
        {
          "name": "halted",
          "type": "bool",
          "internalType": "bool"
        }
      ],
      "outputs": [],
      "stateMutability": "nonpayable"
    },
    {
      "type": "function",
      "name": "setFeeParams",
      "inputs": [
        {
          "name": "perpId",
          "type": "uint256",
          "internalType": "uint256"
        },
        {
          "name": "insAmtPer100K",
          "type": "uint256",
          "internalType": "uint256"
        }
      ],
      "outputs": [],
      "stateMutability": "nonpayable"
    },
    {
      "type": "function",
      "name": "setFreezeStatus",
      "inputs": [
        {
          "name": "account",
          "type": "address",
          "internalType": "address"
        },
        {
          "name": "status",
          "type": "uint8",
          "internalType": "enum FreezeStatusEnum"
        }
      ],
      "outputs": [],
      "stateMutability": "nonpayable"
    },
    {
      "type": "function",
      "name": "setFrozen",
      "inputs": [
        {
          "name": "account",
          "type": "address",
          "internalType": "address"
        },
        {
          "name": "status",
          "type": "uint8",
          "internalType": "enum FreezeStatusEnum"
        }
      ],
      "outputs": [],
      "stateMutability": "nonpayable"
    },
    {
      "type": "function",
      "name": "setFundingClampPct",
      "inputs": [
        {
          "name": "perpId",
          "type": "uint256",
          "internalType": "uint256"
        },
        {
          "name": "absFundingClampPctPer100K",
          "type": "uint256",
          "internalType": "uint256"
        }
      ],
      "outputs": [],
      "stateMutability": "nonpayable"
    },
    {
      "type": "function",
      "name": "setFundingSum",
      "inputs": [
        {
          "name": "perpId",
          "type": "uint256",
          "internalType": "uint256"
        },
        {
          "name": "fundingRatePct100k",
          "type": "int256",
          "internalType": "int256"
        },
        {
          "name": "pricePNS",
          "type": "uint32",
          "internalType": "uint32"
        },
        {
          "name": "allowOverwrite",
          "type": "bool",
          "internalType": "bool"
        },
        {
          "name": "revertOnFail",
          "type": "bool",
          "internalType": "bool"
        }
      ],
      "outputs": [],
      "stateMutability": "nonpayable"
    },
    {
      "type": "function",
      "name": "setIgnOracle",
      "inputs": [
        {
          "name": "perpId",
          "type": "uint256",
          "internalType": "uint256"
        },
        {
          "name": "ignOracle",
          "type": "bool",
          "internalType": "bool"
        }
      ],
      "outputs": [],
      "stateMutability": "nonpayable"
    },
    {
      "type": "function",
      "name": "setInitialMarginFraction",
      "inputs": [
        {
          "name": "perpId",
          "type": "uint256",
          "internalType": "uint256"
        },
        {
          "name": "initMarginFracHdths",
          "type": "uint256",
          "internalType": "uint256"
        }
      ],
      "outputs": [],
      "stateMutability": "nonpayable"
    },
    {
      "type": "function",
      "name": "setLastForwardedDescId",
      "inputs": [
        {
          "name": "accountId",
          "type": "uint256",
          "internalType": "uint256"
        },
        {
          "name": "newDescId",
          "type": "uint256",
          "internalType": "uint256"
        }
      ],
      "outputs": [],
      "stateMutability": "nonpayable"
    },
    {
      "type": "function",
      "name": "setLastForwardedDescIdAsOwner",
      "inputs": [
        {
          "name": "accountId",
          "type": "uint256",
          "internalType": "uint256"
        },
        {
          "name": "newDescId",
          "type": "uint256",
          "internalType": "uint256"
        }
      ],
      "outputs": [],
      "stateMutability": "nonpayable"
    },
    {
      "type": "function",
      "name": "setLastTriggeredDescId",
      "inputs": [
        {
          "name": "accountId",
          "type": "uint256",
          "internalType": "uint256"
        },
        {
          "name": "newDescId",
          "type": "uint256",
          "internalType": "uint256"
        }
      ],
      "outputs": [],
      "stateMutability": "nonpayable"
    },
    {
      "type": "function",
      "name": "setLinkDsVerifier",
      "inputs": [
        {
          "name": "verifierProxy",
          "type": "address",
          "internalType": "address"
        }
      ],
      "outputs": [],
      "stateMutability": "nonpayable"
    },
    {
      "type": "function",
      "name": "setLiquidationBuyer",
      "inputs": [
        {
          "name": "liquidationBuyer",
          "type": "address",
          "internalType": "address"
        },
        {
          "name": "add",
          "type": "bool",
          "internalType": "bool"
        }
      ],
      "outputs": [],
      "stateMutability": "nonpayable"
    },
    {
      "type": "function",
      "name": "setLiquidationParams",
      "inputs": [
        {
          "name": "perpId",
          "type": "uint256",
          "internalType": "uint256"
        },
        {
          "name": "insAmtPer100K",
          "type": "uint256",
          "internalType": "uint256"
        },
        {
          "name": "userAmtPer100K",
          "type": "uint256",
          "internalType": "uint256"
        }
      ],
      "outputs": [],
      "stateMutability": "nonpayable"
    },
    {
      "type": "function",
      "name": "setMaintenanceMarginFraction",
      "inputs": [
        {
          "name": "perpId",
          "type": "uint256",
          "internalType": "uint256"
        },
        {
          "name": "maintMarginFracHdths",
          "type": "uint256",
          "internalType": "uint256"
        }
      ],
      "outputs": [],
      "stateMutability": "nonpayable"
    },
    {
      "type": "function",
      "name": "setMakerFee",
      "inputs": [
        {
          "name": "perpId",
          "type": "uint256",
          "internalType": "uint256"
        },
        {
          "name": "makerFeePer100K",
          "type": "uint256",
          "internalType": "uint256"
        }
      ],
      "outputs": [],
      "stateMutability": "nonpayable"
    },
    {
      "type": "function",
      "name": "setMarginTol",
      "inputs": [
        {
          "name": "perpId",
          "type": "uint256",
          "internalType": "uint256"
        },
        {
          "name": "tolerance",
          "type": "uint256",
          "internalType": "uint256"
        },
        {
          "name": "decimals",
          "type": "uint256",
          "internalType": "uint256"
        }
      ],
      "outputs": [],
      "stateMutability": "nonpayable"
    },
    {
      "type": "function",
      "name": "setMaxOpenInterest",
      "inputs": [
        {
          "name": "perpId",
          "type": "uint256",
          "internalType": "uint256"
        },
        {
          "name": "maxOpenInterestLNS",
          "type": "uint256",
          "internalType": "uint256"
        }
      ],
      "outputs": [],
      "stateMutability": "nonpayable"
    },
    {
      "type": "function",
      "name": "setMinAccountOpenAmount",
      "inputs": [
        {
          "name": "amountCNS",
          "type": "uint256",
          "internalType": "uint256"
        }
      ],
      "outputs": [],
      "stateMutability": "nonpayable"
    },
    {
      "type": "function",
      "name": "setMinPost",
      "inputs": [
        {
          "name": "minPostCNS",
          "type": "uint256",
          "internalType": "uint256"
        }
      ],
      "outputs": [],
      "stateMutability": "nonpayable"
    },
    {
      "type": "function",
      "name": "setMinSettle",
      "inputs": [
        {
          "name": "minSettleCNS",
          "type": "uint256",
          "internalType": "uint256"
        }
      ],
      "outputs": [],
      "stateMutability": "nonpayable"
    },
    {
      "type": "function",
      "name": "setMinWithdrawLimit",
      "inputs": [
        {
          "name": "limitCNS",
          "type": "uint256",
          "internalType": "uint256"
        }
      ],
      "outputs": [],
      "stateMutability": "nonpayable"
    },
    {
      "type": "function",
      "name": "setOverCollatDescentThreshold",
      "inputs": [
        {
          "name": "perpId",
          "type": "uint256",
          "internalType": "uint256"
        },
        {
          "name": "threshHdths",
          "type": "uint256",
          "internalType": "uint256"
        }
      ],
      "outputs": [],
      "stateMutability": "nonpayable"
    },
    {
      "type": "function",
      "name": "setPermissionedCancelParams",
      "inputs": [
        {
          "name": "perpId",
          "type": "uint256",
          "internalType": "uint256"
        },
        {
          "name": "permCancelMinOrders",
          "type": "uint256",
          "internalType": "uint256"
        },
        {
          "name": "permCancelSegment",
          "type": "uint256",
          "internalType": "uint256"
        }
      ],
      "outputs": [],
      "stateMutability": "nonpayable"
    },
    {
      "type": "function",
      "name": "setPerpLinkDsFeedId",
      "inputs": [
        {
          "name": "perpId",
          "type": "uint256",
          "internalType": "uint256"
        },
        {
          "name": "feedId",
          "type": "bytes32",
          "internalType": "bytes32"
        }
      ],
      "outputs": [],
      "stateMutability": "nonpayable"
    },
    {
      "type": "function",
      "name": "setPositionAdministrator",
      "inputs": [
        {
          "name": "positionAdministrator",
          "type": "address",
          "internalType": "address"
        },
        {
          "name": "add",
          "type": "bool",
          "internalType": "bool"
        }
      ],
      "outputs": [],
      "stateMutability": "nonpayable"
    },
    {
      "type": "function",
      "name": "setPriceAdministrator",
      "inputs": [
        {
          "name": "priceAdministrator",
          "type": "address",
          "internalType": "address"
        },
        {
          "name": "add",
          "type": "bool",
          "internalType": "bool"
        }
      ],
      "outputs": [],
      "stateMutability": "nonpayable"
    },
    {
      "type": "function",
      "name": "setPriceMaxAge",
      "inputs": [
        {
          "name": "perpId",
          "type": "uint256",
          "internalType": "uint256"
        },
        {
          "name": "maxAgeSec",
          "type": "uint256",
          "internalType": "uint256"
        }
      ],
      "outputs": [],
      "stateMutability": "nonpayable"
    },
    {
      "type": "function",
      "name": "setPriceTolPer100K",
      "inputs": [
        {
          "name": "perpId",
          "type": "uint256",
          "internalType": "uint256"
        },
        {
          "name": "tolerancePer100K",
          "type": "uint256",
          "internalType": "uint256"
        }
      ],
      "outputs": [],
      "stateMutability": "nonpayable"
    },
    {
      "type": "function",
      "name": "setPriceTolPer100KByOwner",
      "inputs": [
        {
          "name": "perpId",
          "type": "uint256",
          "internalType": "uint256"
        },
        {
          "name": "tolerancePer100K",
          "type": "uint256",
          "internalType": "uint256"
        }
      ],
      "outputs": [],
      "stateMutability": "nonpayable"
    },
    {
      "type": "function",
      "name": "setRecycleFee",
      "inputs": [
        {
          "name": "recycleFeeCNS",
          "type": "uint256",
          "internalType": "uint256"
        }
      ],
      "outputs": [],
      "stateMutability": "nonpayable"
    },
    {
      "type": "function",
      "name": "setTakerFee",
      "inputs": [
        {
          "name": "perpId",
          "type": "uint256",
          "internalType": "uint256"
        },
        {
          "name": "takerFeePer100K",
          "type": "uint256",
          "internalType": "uint256"
        }
      ],
      "outputs": [],
      "stateMutability": "nonpayable"
    },
    {
      "type": "function",
      "name": "setThousandthsTvlWRLS",
      "inputs": [
        {
          "name": "thousandthsTvl",
          "type": "uint256",
          "internalType": "uint256"
        }
      ],
      "outputs": [],
      "stateMutability": "nonpayable"
    },
    {
      "type": "function",
      "name": "setToleranceAdministrator",
      "inputs": [
        {
          "name": "toleranceAdministrator",
          "type": "address",
          "internalType": "address"
        },
        {
          "name": "add",
          "type": "bool",
          "internalType": "bool"
        }
      ],
      "outputs": [],
      "stateMutability": "nonpayable"
    },
    {
      "type": "function",
      "name": "setUnityDescentThreshold",
      "inputs": [
        {
          "name": "perpId",
          "type": "uint256",
          "internalType": "uint256"
        },
        {
          "name": "threshHdths",
          "type": "uint256",
          "internalType": "uint256"
        }
      ],
      "outputs": [],
      "stateMutability": "nonpayable"
    },
    {
      "type": "function",
      "name": "setWhitelistingEnabled",
      "inputs": [
        {
          "name": "enabled",
          "type": "bool",
          "internalType": "bool"
        }
      ],
      "outputs": [],
      "stateMutability": "nonpayable"
    },
    {
      "type": "function",
      "name": "setWithdrawBypass",
      "inputs": [
        {
          "name": "addr",
          "type": "address",
          "internalType": "address"
        },
        {
          "name": "enabled",
          "type": "bool",
          "internalType": "bool"
        }
      ],
      "outputs": [],
      "stateMutability": "nonpayable"
    },
    {
      "type": "function",
      "name": "transferOwnership",
      "inputs": [
        {
          "name": "newOwner",
          "type": "address",
          "internalType": "address"
        }
      ],
      "outputs": [],
      "stateMutability": "nonpayable"
    },
    {
      "type": "function",
      "name": "triggerUnwindContract",
      "inputs": [
        {
          "name": "perpId",
          "type": "uint256",
          "internalType": "uint256"
        }
      ],
      "outputs": [],
      "stateMutability": "nonpayable"
    },
    {
      "type": "function",
      "name": "unwindContract",
      "inputs": [
        {
          "name": "perpId",
          "type": "uint256",
          "internalType": "uint256"
        },
        {
          "name": "maxPosToUnwind",
          "type": "uint256",
          "internalType": "uint256"
        },
        {
          "name": "allowWithoutPayment",
          "type": "bool",
          "internalType": "bool"
        }
      ],
      "outputs": [],
      "stateMutability": "nonpayable"
    },
    {
      "type": "function",
      "name": "unwindContractByOwner",
      "inputs": [
        {
          "name": "perpId",
          "type": "uint256",
          "internalType": "uint256"
        },
        {
          "name": "maxPosToUnwind",
          "type": "uint256",
          "internalType": "uint256"
        },
        {
          "name": "allowWithoutPayment",
          "type": "bool",
          "internalType": "bool"
        }
      ],
      "outputs": [],
      "stateMutability": "nonpayable"
    },
    {
      "type": "function",
      "name": "updateMarkPricePNS",
      "inputs": [
        {
          "name": "perpId",
          "type": "uint256",
          "internalType": "uint256"
        },
        {
          "name": "markPricePNS",
          "type": "uint32",
          "internalType": "uint32"
        }
      ],
      "outputs": [],
      "stateMutability": "nonpayable"
    },
    {
      "type": "function",
      "name": "updateMarkPricePNSByOwner",
      "inputs": [
        {
          "name": "perpId",
          "type": "uint256",
          "internalType": "uint256"
        },
        {
          "name": "markPricePNS",
          "type": "uint32",
          "internalType": "uint32"
        }
      ],
      "outputs": [],
      "stateMutability": "nonpayable"
    },
    {
      "type": "function",
      "name": "updateOraclePrice",
      "inputs": [
        {
          "name": "perpId",
          "type": "uint256",
          "internalType": "uint256"
        },
        {
          "name": "unverifiedReport",
          "type": "bytes",
          "internalType": "bytes"
        }
      ],
      "outputs": [],
      "stateMutability": "nonpayable"
    },
    {
      "type": "function",
      "name": "upgradeTo",
      "inputs": [
        {
          "name": "newImplementation",
          "type": "address",
          "internalType": "address"
        }
      ],
      "outputs": [],
      "stateMutability": "nonpayable"
    },
    {
      "type": "function",
      "name": "upgradeToAndCall",
      "inputs": [
        {
          "name": "newImplementation",
          "type": "address",
          "internalType": "address"
        },
        {
          "name": "data",
          "type": "bytes",
          "internalType": "bytes"
        }
      ],
      "outputs": [],
      "stateMutability": "payable"
    },
    {
      "type": "function",
      "name": "whitelisted",
      "inputs": [
        {
          "name": "",
          "type": "address",
          "internalType": "address"
        }
      ],
      "outputs": [
        {
          "name": "",
          "type": "bool",
          "internalType": "bool"
        }
      ],
      "stateMutability": "view"
    },
    {
      "type": "function",
      "name": "whitelistingEnabled",
      "inputs": [],
      "outputs": [
        {
          "name": "",
          "type": "bool",
          "internalType": "bool"
        }
      ],
      "stateMutability": "view"
    },
    {
      "type": "function",
      "name": "withdrawCollateral",
      "inputs": [
        {
          "name": "amountCNS",
          "type": "uint256",
          "internalType": "uint256"
        }
      ],
      "outputs": [],
      "stateMutability": "nonpayable"
    },
    {
      "type": "function",
      "name": "withdrawFromProtocol",
      "inputs": [
        {
          "name": "amountCNS",
          "type": "uint256",
          "internalType": "uint256"
        }
      ],
      "outputs": [],
      "stateMutability": "nonpayable"
    },
    {
      "type": "function",
      "name": "xferAcctToProtocol",
      "inputs": [
        {
          "name": "amountCNS",
          "type": "uint256",
          "internalType": "uint256"
        }
      ],
      "outputs": [],
      "stateMutability": "nonpayable"
    },
    {
      "type": "function",
      "name": "xferPerpInsToProtocol",
      "inputs": [
        {
          "name": "perpId",
          "type": "uint256",
          "internalType": "uint256"
        },
        {
          "name": "amountCNS",
          "type": "uint256",
          "internalType": "uint256"
        }
      ],
      "outputs": [],
      "stateMutability": "nonpayable"
    },
    {
      "type": "function",
      "name": "xferProtocolToAcct",
      "inputs": [
        {
          "name": "accountId",
          "type": "uint256",
          "internalType": "uint256"
        },
        {
          "name": "amountCNS",
          "type": "uint256",
          "internalType": "uint256"
        }
      ],
      "outputs": [],
      "stateMutability": "nonpayable"
    },
    {
      "type": "function",
      "name": "xferProtocolToPerp",
      "inputs": [
        {
          "name": "perpId",
          "type": "uint256",
          "internalType": "uint256"
        },
        {
          "name": "amountCNS",
          "type": "uint256",
          "internalType": "uint256"
        },
        {
          "name": "insurance",
          "type": "bool",
          "internalType": "bool"
        }
      ],
      "outputs": [],
      "stateMutability": "nonpayable"
    },
    {
      "type": "function",
      "name": "xferProtocolToRecycleBal",
      "inputs": [
        {
          "name": "amountCNS",
          "type": "uint256",
          "internalType": "uint256"
        }
      ],
      "outputs": [],
      "stateMutability": "nonpayable"
    },
    {
      "type": "event",
      "name": "AccountCreated",
      "inputs": [
        {
          "name": "account",
          "type": "address",
          "indexed": false,
          "internalType": "address"
        },
        {
          "name": "id",
          "type": "uint256",
          "indexed": false,
          "internalType": "uint256"
        }
      ],
      "anonymous": false
    },
    {
      "type": "event",
      "name": "AccountFreeze",
      "inputs": [
        {
          "name": "accountId",
          "type": "uint256",
          "indexed": false,
          "internalType": "uint256"
        },
        {
          "name": "status",
          "type": "uint8",
          "indexed": false,
          "internalType": "enum FreezeStatusEnum"
        }
      ],
      "anonymous": false
    },
    {
      "type": "event",
      "name": "AccountFrozen",
      "inputs": [
        {
          "name": "status",
          "type": "uint8",
          "indexed": false,
          "internalType": "enum FreezeStatusEnum"
        }
      ],
      "anonymous": false
    },
    {
      "type": "event",
      "name": "AccountLiquidationCredit",
      "inputs": [
        {
          "name": "perpId",
          "type": "uint256",
          "indexed": false,
          "internalType": "uint256"
        },
        {
          "name": "accountId",
          "type": "uint256",
          "indexed": false,
          "internalType": "uint256"
        },
        {
          "name": "startBalanceCNS",
          "type": "uint256",
          "indexed": false,
          "internalType": "uint256"
        },
        {
          "name": "endBalanceCNS",
          "type": "uint256",
          "indexed": false,
          "internalType": "uint256"
        }
      ],
      "anonymous": false
    },
    {
      "type": "event",
      "name": "AdminChanged",
      "inputs": [
        {
          "name": "previousAdmin",
          "type": "address",
          "indexed": false,
          "internalType": "address"
        },
        {
          "name": "newAdmin",
          "type": "address",
          "indexed": false,
          "internalType": "address"
        }
      ],
      "anonymous": false
    },
    {
      "type": "event",
      "name": "AdministratorUpdated",
      "inputs": [
        {
          "name": "administrator",
          "type": "address",
          "indexed": false,
          "internalType": "address"
        },
        {
          "name": "added",
          "type": "bool",
          "indexed": false,
          "internalType": "bool"
        }
      ],
      "anonymous": false
    },
    {
      "type": "event",
      "name": "AmountExceedsAvailableBalance",
      "inputs": [
        {
          "name": "amountCNS",
          "type": "uint256",
          "indexed": false,
          "internalType": "uint256"
        },
        {
          "name": "availableBalanceCNS",
          "type": "uint256",
          "indexed": false,
          "internalType": "uint256"
        },
        {
          "name": "balanceCNS",
          "type": "uint256",
          "indexed": false,
          "internalType": "uint256"
        }
      ],
      "anonymous": false
    },
    {
      "type": "event",
      "name": "BankruptcyPricePreventsDeleverage",
      "inputs": [
        {
          "name": "perpId",
          "type": "uint256",
          "indexed": false,
          "internalType": "uint256"
        },
        {
          "name": "accountId",
          "type": "uint256",
          "indexed": false,
          "internalType": "uint256"
        },
        {
          "name": "positionType",
          "type": "uint8",
          "indexed": false,
          "internalType": "enum PositionEnum"
        },
        {
          "name": "bankruptcyPricePNS",
          "type": "uint256",
          "indexed": false,
          "internalType": "uint256"
        },
        {
          "name": "markPricePNS",
          "type": "uint256",
          "indexed": false,
          "internalType": "uint256"
        }
      ],
      "anonymous": false
    },
    {
      "type": "event",
      "name": "BeaconUpgraded",
      "inputs": [
        {
          "name": "beacon",
          "type": "address",
          "indexed": true,
          "internalType": "address"
        }
      ],
      "anonymous": false
    },
    {
      "type": "event",
      "name": "BlockStatusChanged",
      "inputs": [
        {
          "name": "addr",
          "type": "address",
          "indexed": true,
          "internalType": "address"
        },
        {
          "name": "blocked",
          "type": "bool",
          "indexed": false,
          "internalType": "bool"
        }
      ],
      "anonymous": false
    },
    {
      "type": "event",
      "name": "BorrowMarginNotMetAfterDecCollateral",
      "inputs": [
        {
          "name": "perpId",
          "type": "uint256",
          "indexed": false,
          "internalType": "uint256"
        },
        {
          "name": "accountId",
          "type": "uint256",
          "indexed": false,
          "internalType": "uint256"
        },
        {
          "name": "bmrCNS",
          "type": "int256",
          "indexed": false,
          "internalType": "int256"
        },
        {
          "name": "fmvAfterCNS",
          "type": "int256",
          "indexed": false,
          "internalType": "int256"
        }
      ],
      "anonymous": false
    },
    {
      "type": "event",
      "name": "BuyToLiquidateBuyerRestricted",
      "inputs": [
        {
          "name": "perpId",
          "type": "uint256",
          "indexed": false,
          "internalType": "uint256"
        },
        {
          "name": "buyer",
          "type": "address",
          "indexed": false,
          "internalType": "address"
        }
      ],
      "anonymous": false
    },
    {
      "type": "event",
      "name": "BuyToLiquidateParamsUpdated",
      "inputs": [
        {
          "name": "perpId",
          "type": "uint256",
          "indexed": false,
          "internalType": "uint256"
        },
        {
          "name": "insAmtPer100K",
          "type": "uint256",
          "indexed": false,
          "internalType": "uint256"
        },
        {
          "name": "userAmtPer100K",
          "type": "uint256",
          "indexed": false,
          "internalType": "uint256"
        },
        {
          "name": "buyerAmtPer100K",
          "type": "uint256",
          "indexed": false,
          "internalType": "uint256"
        },
        {
          "name": "protAmtPer100K",
          "type": "uint256",
          "indexed": false,
          "internalType": "uint256"
        }
      ],
      "anonymous": false
    },
    {
      "type": "event",
      "name": "BuyToLiquidateRestrictionUpdated",
      "inputs": [
        {
          "name": "perpId",
          "type": "uint256",
          "indexed": false,
          "internalType": "uint256"
        },
        {
          "name": "restrictBuyers",
          "type": "bool",
          "indexed": false,
          "internalType": "bool"
        }
      ],
      "anonymous": false
    },
    {
      "type": "event",
      "name": "BuyToLiquidateSlippageExceeded",
      "inputs": [
        {
          "name": "perpId",
          "type": "uint256",
          "indexed": false,
          "internalType": "uint256"
        },
        {
          "name": "posAccountId",
          "type": "uint256",
          "indexed": false,
          "internalType": "uint256"
        },
        {
          "name": "positionType",
          "type": "uint8",
          "indexed": false,
          "internalType": "enum PositionEnum"
        },
        {
          "name": "markPricePNS",
          "type": "uint256",
          "indexed": false,
          "internalType": "uint256"
        },
        {
          "name": "limitPricePNS",
          "type": "uint256",
          "indexed": false,
          "internalType": "uint256"
        }
      ],
      "anonymous": false
    },
    {
      "type": "event",
      "name": "BuyToLiquidateThresholdUpdated",
      "inputs": [
        {
          "name": "perpId",
          "type": "uint256",
          "indexed": false,
          "internalType": "uint256"
        },
        {
          "name": "thresholdPer100K",
          "type": "uint256",
          "indexed": false,
          "internalType": "uint256"
        }
      ],
      "anonymous": false
    },
    {
      "type": "event",
      "name": "CancelExistingInvalidCloseOrders",
      "inputs": [
        {
          "name": "lockedLotLNS",
          "type": "uint256",
          "indexed": false,
          "internalType": "uint256"
        },
        {
          "name": "lockedPositionType",
          "type": "uint8",
          "indexed": false,
          "internalType": "enum PositionEnum"
        },
        {
          "name": "newPositionType",
          "type": "uint8",
          "indexed": false,
          "internalType": "enum PositionEnum"
        }
      ],
      "anonymous": false
    },
    {
      "type": "event",
      "name": "CannotAdjustEntryPriceToDecCollateral",
      "inputs": [
        {
          "name": "perpId",
          "type": "uint256",
          "indexed": false,
          "internalType": "uint256"
        },
        {
          "name": "accountId",
          "type": "uint256",
          "indexed": false,
          "internalType": "uint256"
        },
        {
          "name": "amountCNS",
          "type": "uint256",
          "indexed": false,
          "internalType": "uint256"
        },
        {
          "name": "adjustmentAmountCNS",
          "type": "uint256",
          "indexed": false,
          "internalType": "uint256"
        },
        {
          "name": "entryPricePNS",
          "type": "uint256",
          "indexed": false,
          "internalType": "uint256"
        },
        {
          "name": "adjustedEntryPricePNS",
          "type": "int256",
          "indexed": false,
          "internalType": "int256"
        },
        {
          "name": "positionType",
          "type": "uint8",
          "indexed": false,
          "internalType": "enum PositionEnum"
        }
      ],
      "anonymous": false
    },
    {
      "type": "event",
      "name": "CantBuyToLiquidate",
      "inputs": [
        {
          "name": "perpId",
          "type": "uint256",
          "indexed": false,
          "internalType": "uint256"
        },
        {
          "name": "posAccountId",
          "type": "uint256",
          "indexed": false,
          "internalType": "uint256"
        },
        {
          "name": "positionType",
          "type": "uint8",
          "indexed": false,
          "internalType": "enum PositionEnum"
        },
        {
          "name": "markPricePNS",
          "type": "uint256",
          "indexed": false,
          "internalType": "uint256"
        },
        {
          "name": "bsLiqPricePNS",
          "type": "uint256",
          "indexed": false,
          "internalType": "uint256"
        },
        {
          "name": "liqPricePNS",
          "type": "uint256",
          "indexed": false,
          "internalType": "uint256"
        },
        {
          "name": "bkptPricePNS",
          "type": "uint256",
          "indexed": false,
          "internalType": "uint256"
        }
      ],
      "anonymous": false
    },
    {
      "type": "event",
      "name": "CantChangeCloseOrder",
      "inputs": [
        {
          "name": "perpId",
          "type": "uint256",
          "indexed": false,
          "internalType": "uint256"
        },
        {
          "name": "orderId",
          "type": "uint256",
          "indexed": false,
          "internalType": "uint256"
        },
        {
          "name": "accountId",
          "type": "uint256",
          "indexed": false,
          "internalType": "uint256"
        }
      ],
      "anonymous": false
    },
    {
      "type": "event",
      "name": "CantDeleverageAgainstOpposingPositions",
      "inputs": [
        {
          "name": "perpId",
          "type": "uint256",
          "indexed": false,
          "internalType": "uint256"
        },
        {
          "name": "accountId",
          "type": "uint256",
          "indexed": false,
          "internalType": "uint256"
        },
        {
          "name": "forceClose",
          "type": "bool",
          "indexed": false,
          "internalType": "bool"
        },
        {
          "name": "positionType",
          "type": "uint8",
          "indexed": false,
          "internalType": "enum PositionEnum"
        },
        {
          "name": "deleveragePricePNS",
          "type": "uint256",
          "indexed": false,
          "internalType": "uint256"
        },
        {
          "name": "sortedPositionIds",
          "type": "uint256[]",
          "indexed": false,
          "internalType": "uint256[]"
        }
      ],
      "anonymous": false
    },
    {
      "type": "event",
      "name": "CantLiquidatePosAboveMMR",
      "inputs": [
        {
          "name": "perpId",
          "type": "uint256",
          "indexed": false,
          "internalType": "uint256"
        },
        {
          "name": "posAccountId",
          "type": "uint256",
          "indexed": false,
          "internalType": "uint256"
        },
        {
          "name": "positionType",
          "type": "uint8",
          "indexed": false,
          "internalType": "enum PositionEnum"
        },
        {
          "name": "markPricePNS",
          "type": "uint256",
          "indexed": false,
          "internalType": "uint256"
        },
        {
          "name": "liqPricePNS",
          "type": "uint256",
          "indexed": false,
          "internalType": "uint256"
        }
      ],
      "anonymous": false
    },
    {
      "type": "event",
      "name": "ChangeExpiredOrderNeedsNewExpiry",
      "inputs": [
        {
          "name": "perpId",
          "type": "uint256",
          "indexed": false,
          "internalType": "uint256"
        },
        {
          "name": "orderId",
          "type": "uint256",
          "indexed": false,
          "internalType": "uint256"
        },
        {
          "name": "accountId",
          "type": "uint256",
          "indexed": false,
          "internalType": "uint256"
        },
        {
          "name": "expiryBlock",
          "type": "uint256",
          "indexed": false,
          "internalType": "uint256"
        }
      ],
      "anonymous": false
    },
    {
      "type": "event",
      "name": "ClearingExpiredOrder",
      "inputs": [
        {
          "name": "perpId",
          "type": "uint256",
          "indexed": false,
          "internalType": "uint256"
        },
        {
          "name": "accountId",
          "type": "uint256",
          "indexed": false,
          "internalType": "uint256"
        },
        {
          "name": "orderId",
          "type": "uint256",
          "indexed": false,
          "internalType": "uint256"
        },
        {
          "name": "lockedBalanceCNS",
          "type": "uint256",
          "indexed": false,
          "internalType": "uint256"
        },
        {
          "name": "recyclerAccountId",
          "type": "uint256",
          "indexed": false,
          "internalType": "uint256"
        },
        {
          "name": "recyclerAmountCNS",
          "type": "int256",
          "indexed": false,
          "internalType": "int256"
        },
        {
          "name": "recyclerBalanceCNS",
          "type": "uint256",
          "indexed": false,
          "internalType": "uint256"
        }
      ],
      "anonymous": false
    },
    {
      "type": "event",
      "name": "ClearingFrozenAccountOrder",
      "inputs": [
        {
          "name": "perpId",
          "type": "uint256",
          "indexed": false,
          "internalType": "uint256"
        },
        {
          "name": "accountId",
          "type": "uint256",
          "indexed": false,
          "internalType": "uint256"
        },
        {
          "name": "orderId",
          "type": "uint256",
          "indexed": false,
          "internalType": "uint256"
        },
        {
          "name": "lockedBalanceCNS",
          "type": "uint256",
          "indexed": false,
          "internalType": "uint256"
        },
        {
          "name": "recyclerAccountId",
          "type": "uint256",
          "indexed": false,
          "internalType": "uint256"
        },
        {
          "name": "recyclerAmountCNS",
          "type": "int256",
          "indexed": false,
          "internalType": "int256"
        },
        {
          "name": "recyclerBalanceCNS",
          "type": "uint256",
          "indexed": false,
          "internalType": "uint256"
        }
      ],
      "anonymous": false
    },
    {
      "type": "event",
      "name": "ClearingInvalidCloseOrder",
      "inputs": [
        {
          "name": "perpId",
          "type": "uint256",
          "indexed": false,
          "internalType": "uint256"
        },
        {
          "name": "accountId",
          "type": "uint256",
          "indexed": false,
          "internalType": "uint256"
        },
        {
          "name": "orderId",
          "type": "uint256",
          "indexed": false,
          "internalType": "uint256"
        },
        {
          "name": "lockedBalanceCNS",
          "type": "uint256",
          "indexed": false,
          "internalType": "uint256"
        },
        {
          "name": "recyclerAccountId",
          "type": "uint256",
          "indexed": false,
          "internalType": "uint256"
        },
        {
          "name": "recyclerAmountCNS",
          "type": "int256",
          "indexed": false,
          "internalType": "int256"
        },
        {
          "name": "recyclerBalanceCNS",
          "type": "uint256",
          "indexed": false,
          "internalType": "uint256"
        }
      ],
      "anonymous": false
    },
    {
      "type": "event",
      "name": "ClearingSelfMatchingOrder",
      "inputs": [
        {
          "name": "perpId",
          "type": "uint256",
          "indexed": false,
          "internalType": "uint256"
        },
        {
          "name": "accountId",
          "type": "uint256",
          "indexed": false,
          "internalType": "uint256"
        },
        {
          "name": "orderId",
          "type": "uint256",
          "indexed": false,
          "internalType": "uint256"
        },
        {
          "name": "lockedBalanceCNS",
          "type": "uint256",
          "indexed": false,
          "internalType": "uint256"
        },
        {
          "name": "recyclerAccountId",
          "type": "uint256",
          "indexed": false,
          "internalType": "uint256"
        },
        {
          "name": "recyclerAmountCNS",
          "type": "int256",
          "indexed": false,
          "internalType": "int256"
        },
        {
          "name": "recyclerBalanceCNS",
          "type": "uint256",
          "indexed": false,
          "internalType": "uint256"
        }
      ],
      "anonymous": false
    },
    {
      "type": "event",
      "name": "CloseOrderExceedsPosition",
      "inputs": [
        {
          "name": "posLotLNS",
          "type": "uint256",
          "indexed": false,
          "internalType": "uint256"
        },
        {
          "name": "orderLotLNS",
          "type": "uint256",
          "indexed": false,
          "internalType": "uint256"
        }
      ],
      "anonymous": false
    },
    {
      "type": "event",
      "name": "CloseOrderPositionMismatch",
      "inputs": [
        {
          "name": "positionType",
          "type": "uint8",
          "indexed": false,
          "internalType": "enum PositionEnum"
        },
        {
          "name": "orderType",
          "type": "uint8",
          "indexed": false,
          "internalType": "enum OrderEnum"
        }
      ],
      "anonymous": false
    },
    {
      "type": "event",
      "name": "CollateralDecreaseDeclined",
      "inputs": [
        {
          "name": "perpId",
          "type": "uint256",
          "indexed": false,
          "internalType": "uint256"
        },
        {
          "name": "accountId",
          "type": "uint256",
          "indexed": false,
          "internalType": "uint256"
        },
        {
          "name": "reason",
          "type": "string",
          "indexed": false,
          "internalType": "string"
        }
      ],
      "anonymous": false
    },
    {
      "type": "event",
      "name": "CollateralDecreaseRequestCancelled",
      "inputs": [
        {
          "name": "perpId",
          "type": "uint256",
          "indexed": false,
          "internalType": "uint256"
        },
        {
          "name": "accountId",
          "type": "uint256",
          "indexed": false,
          "internalType": "uint256"
        }
      ],
      "anonymous": false
    },
    {
      "type": "event",
      "name": "CollateralDecreaseRequestExpired",
      "inputs": [
        {
          "name": "perpId",
          "type": "uint256",
          "indexed": false,
          "internalType": "uint256"
        },
        {
          "name": "accountId",
          "type": "uint256",
          "indexed": false,
          "internalType": "uint256"
        },
        {
          "name": "expiryTS",
          "type": "uint256",
          "indexed": false,
          "internalType": "uint256"
        },
        {
          "name": "blockTS",
          "type": "uint256",
          "indexed": false,
          "internalType": "uint256"
        }
      ],
      "anonymous": false
    },
    {
      "type": "event",
      "name": "CollateralDecreaseRequested",
      "inputs": [
        {
          "name": "perpId",
          "type": "uint256",
          "indexed": false,
          "internalType": "uint256"
        },
        {
          "name": "accountId",
          "type": "uint256",
          "indexed": false,
          "internalType": "uint256"
        },
        {
          "name": "expiryTS",
          "type": "uint256",
          "indexed": false,
          "internalType": "uint256"
        },
        {
          "name": "amountCNS",
          "type": "uint256",
          "indexed": false,
          "internalType": "uint256"
        },
        {
          "name": "clampToMaximum",
          "type": "bool",
          "indexed": false,
          "internalType": "bool"
        },
        {
          "name": "positionType",
          "type": "uint8",
          "indexed": false,
          "internalType": "enum PositionEnum"
        },
        {
          "name": "entryPricePNS",
          "type": "uint256",
          "indexed": false,
          "internalType": "uint256"
        },
        {
          "name": "lotLNS",
          "type": "uint256",
          "indexed": false,
          "internalType": "uint256"
        }
      ],
      "anonymous": false
    },
    {
      "type": "event",
      "name": "CollateralDeposit",
      "inputs": [
        {
          "name": "accountId",
          "type": "uint256",
          "indexed": false,
          "internalType": "uint256"
        },
        {
          "name": "amountCNS",
          "type": "uint256",
          "indexed": false,
          "internalType": "uint256"
        },
        {
          "name": "balanceCNS",
          "type": "uint256",
          "indexed": false,
          "internalType": "uint256"
        }
      ],
      "anonymous": false
    },
    {
      "type": "event",
      "name": "CollateralWithdrawal",
      "inputs": [
        {
          "name": "accountId",
          "type": "uint256",
          "indexed": false,
          "internalType": "uint256"
        },
        {
          "name": "amountCNS",
          "type": "uint256",
          "indexed": false,
          "internalType": "uint256"
        },
        {
          "name": "balanceCNS",
          "type": "uint256",
          "indexed": false,
          "internalType": "uint256"
        }
      ],
      "anonymous": false
    },
    {
      "type": "event",
      "name": "ContractAdded",
      "inputs": [
        {
          "name": "perpId",
          "type": "uint256",
          "indexed": false,
          "internalType": "uint256"
        },
        {
          "name": "name",
          "type": "string",
          "indexed": false,
          "internalType": "string"
        },
        {
          "name": "symbol",
          "type": "string",
          "indexed": false,
          "internalType": "string"
        },
        {
          "name": "status",
          "type": "uint8",
          "indexed": false,
          "internalType": "enum PerpStatusEnum"
        },
        {
          "name": "basePricePNS",
          "type": "uint256",
          "indexed": false,
          "internalType": "uint256"
        },
        {
          "name": "priceDecimals",
          "type": "uint256",
          "indexed": false,
          "internalType": "uint256"
        },
        {
          "name": "lotDecimals",
          "type": "uint256",
          "indexed": false,
          "internalType": "uint256"
        },
        {
          "name": "takerFeePer100K",
          "type": "uint256",
          "indexed": false,
          "internalType": "uint256"
        },
        {
          "name": "makerFeePer100K",
          "type": "uint256",
          "indexed": false,
          "internalType": "uint256"
        },
        {
          "name": "initMarginFracHdths",
          "type": "uint256",
          "indexed": false,
          "internalType": "uint256"
        },
        {
          "name": "maintMarginFracHdths",
          "type": "uint256",
          "indexed": false,
          "internalType": "uint256"
        },
        {
          "name": "maxOpenInterestLNS",
          "type": "uint256",
          "indexed": false,
          "internalType": "uint256"
        },
        {
          "name": "unityDescentThreshHdths",
          "type": "uint256",
          "indexed": false,
          "internalType": "uint256"
        },
        {
          "name": "overColDescentThreshHdths",
          "type": "uint256",
          "indexed": false,
          "internalType": "uint256"
        },
        {
          "name": "dcpBorrowThreshHdths",
          "type": "uint256",
          "indexed": false,
          "internalType": "uint256"
        },
        {
          "name": "priceTolPer100K",
          "type": "uint256",
          "indexed": false,
          "internalType": "uint256"
        },
        {
          "name": "marginTol",
          "type": "uint256",
          "indexed": false,
          "internalType": "uint256"
        },
        {
          "name": "marginTolDecimals",
          "type": "uint256",
          "indexed": false,
          "internalType": "uint256"
        },
        {
          "name": "refPriceMaxAgeSec",
          "type": "uint256",
          "indexed": false,
          "internalType": "uint256"
        },
        {
          "name": "absFundingClampPctPer100K",
          "type": "uint256",
          "indexed": false,
          "internalType": "uint256"
        },
        {
          "name": "permCancelMinOrders",
          "type": "uint256",
          "indexed": false,
          "internalType": "uint256"
        },
        {
          "name": "permCancelSegment",
          "type": "uint256",
          "indexed": false,
          "internalType": "uint256"
        },
        {
          "name": "insAmtPer100K",
          "type": "uint256",
          "indexed": false,
          "internalType": "uint256"
        },
        {
          "name": "liqInsAmtPer100K",
          "type": "uint256",
          "indexed": false,
          "internalType": "uint256"
        },
        {
          "name": "liqUserAmtPer100K",
          "type": "uint256",
          "indexed": false,
          "internalType": "uint256"
        },
        {
          "name": "btlRestrictBuyers",
          "type": "bool",
          "indexed": false,
          "internalType": "bool"
        },
        {
          "name": "btlPriceThreshPer100K",
          "type": "uint256",
          "indexed": false,
          "internalType": "uint256"
        },
        {
          "name": "btlInsAmtPer100K",
          "type": "uint256",
          "indexed": false,
          "internalType": "uint256"
        },
        {
          "name": "btlUserAmtPer100K",
          "type": "uint256",
          "indexed": false,
          "internalType": "uint256"
        },
        {
          "name": "btlBuyerAmtPer100K",
          "type": "uint256",
          "indexed": false,
          "internalType": "uint256"
        },
        {
          "name": "numPerpetuals",
          "type": "uint256",
          "indexed": false,
          "internalType": "uint256"
        }
      ],
      "anonymous": false
    },
    {
      "type": "event",
      "name": "ContractLinkFeedUpdated",
      "inputs": [
        {
          "name": "perpId",
          "type": "uint256",
          "indexed": false,
          "internalType": "uint256"
        },
        {
          "name": "feedId",
          "type": "bytes32",
          "indexed": false,
          "internalType": "bytes32"
        }
      ],
      "anonymous": false
    },
    {
      "type": "event",
      "name": "ContractNotOperational",
      "inputs": [
        {
          "name": "perpId",
          "type": "uint256",
          "indexed": false,
          "internalType": "uint256"
        },
        {
          "name": "status",
          "type": "uint8",
          "indexed": false,
          "internalType": "enum PerpStatusEnum"
        }
      ],
      "anonymous": false
    },
    {
      "type": "event",
      "name": "ContractPaused",
      "inputs": [
        {
          "name": "perpId",
          "type": "uint256",
          "indexed": false,
          "internalType": "uint256"
        },
        {
          "name": "paused",
          "type": "bool",
          "indexed": false,
          "internalType": "bool"
        }
      ],
      "anonymous": false
    },
    {
      "type": "event",
      "name": "ContractRemoved",
      "inputs": [
        {
          "name": "perpId",
          "type": "uint256",
          "indexed": false,
          "internalType": "uint256"
        }
      ],
      "anonymous": false
    },
    {
      "type": "event",
      "name": "CrossesBook",
      "inputs": [
        {
          "name": "minAskOrMaxBidPNS",
          "type": "uint256",
          "indexed": false,
          "internalType": "uint256"
        },
        {
          "name": "maxOrdersChecked",
          "type": "bool",
          "indexed": false,
          "internalType": "bool"
        }
      ],
      "anonymous": false
    },
    {
      "type": "event",
      "name": "DcpBorrowThreshUpdated",
      "inputs": [
        {
          "name": "perpId",
          "type": "uint256",
          "indexed": false,
          "internalType": "uint256"
        },
        {
          "name": "threshHdths",
          "type": "uint256",
          "indexed": false,
          "internalType": "uint256"
        }
      ],
      "anonymous": false
    },
    {
      "type": "event",
      "name": "DecreaseCollateralBeyondMarkPrice",
      "inputs": [
        {
          "name": "perpId",
          "type": "uint256",
          "indexed": false,
          "internalType": "uint256"
        },
        {
          "name": "accountId",
          "type": "uint256",
          "indexed": false,
          "internalType": "uint256"
        },
        {
          "name": "positionType",
          "type": "uint8",
          "indexed": false,
          "internalType": "enum PositionEnum"
        },
        {
          "name": "impactAdjPricePNS",
          "type": "uint256",
          "indexed": false,
          "internalType": "uint256"
        },
        {
          "name": "markPricePNS",
          "type": "uint256",
          "indexed": false,
          "internalType": "uint256"
        }
      ],
      "anonymous": false
    },
    {
      "type": "event",
      "name": "DeleveragePositionListEmpty",
      "inputs": [
        {
          "name": "perpId",
          "type": "uint256",
          "indexed": false,
          "internalType": "uint256"
        },
        {
          "name": "accountId",
          "type": "uint256",
          "indexed": false,
          "internalType": "uint256"
        }
      ],
      "anonymous": false
    },
    {
      "type": "event",
      "name": "ExceedsLastExecutionBlock",
      "inputs": [
        {
          "name": "lastExecutionBlock",
          "type": "uint256",
          "indexed": false,
          "internalType": "uint256"
        }
      ],
      "anonymous": false
    },
    {
      "type": "event",
      "name": "ExchangeHalted",
      "inputs": [
        {
          "name": "halted",
          "type": "bool",
          "indexed": false,
          "internalType": "bool"
        }
      ],
      "anonymous": false
    },
    {
      "type": "event",
      "name": "ExchangeInitialized",
      "inputs": [
        {
          "name": "sender",
          "type": "address",
          "indexed": false,
          "internalType": "address"
        },
        {
          "name": "collateralToken",
          "type": "address",
          "indexed": false,
          "internalType": "address"
        },
        {
          "name": "collateralDecimals",
          "type": "uint256",
          "indexed": false,
          "internalType": "uint256"
        },
        {
          "name": "minAccountOpenCNS",
          "type": "uint256",
          "indexed": false,
          "internalType": "uint256"
        },
        {
          "name": "wrlsThousandthsTvl",
          "type": "uint256",
          "indexed": false,
          "internalType": "uint256"
        },
        {
          "name": "wrlsMinWithdrawLimitCNS",
          "type": "uint256",
          "indexed": false,
          "internalType": "uint256"
        },
        {
          "name": "recycleFeeCNS",
          "type": "uint256",
          "indexed": false,
          "internalType": "uint256"
        },
        {
          "name": "whitelistingEnabled",
          "type": "bool",
          "indexed": false,
          "internalType": "bool"
        }
      ],
      "anonymous": false
    },
    {
      "type": "event",
      "name": "FeeParamsUpdated",
      "inputs": [
        {
          "name": "perpId",
          "type": "uint256",
          "indexed": false,
          "internalType": "uint256"
        },
        {
          "name": "insAmtPer100K",
          "type": "uint256",
          "indexed": false,
          "internalType": "uint256"
        }
      ],
      "anonymous": false
    },
    {
      "type": "event",
      "name": "FundingClampPctUpdated",
      "inputs": [
        {
          "name": "perpId",
          "type": "uint256",
          "indexed": false,
          "internalType": "uint256"
        },
        {
          "name": "clampPctPer100k",
          "type": "uint256",
          "indexed": false,
          "internalType": "uint256"
        }
      ],
      "anonymous": false
    },
    {
      "type": "event",
      "name": "FundingEventCompleted",
      "inputs": [
        {
          "name": "perpId",
          "type": "uint256",
          "indexed": false,
          "internalType": "uint256"
        },
        {
          "name": "fundingEventBlock",
          "type": "uint256",
          "indexed": false,
          "internalType": "uint256"
        },
        {
          "name": "specifiedRatePct100k",
          "type": "int256",
          "indexed": false,
          "internalType": "int256"
        },
        {
          "name": "actualRatePct100k",
          "type": "int256",
          "indexed": false,
          "internalType": "int256"
        },
        {
          "name": "fundingPricePNS",
          "type": "uint256",
          "indexed": false,
          "internalType": "uint256"
        },
        {
          "name": "fundingPaymentPNS",
          "type": "int48",
          "indexed": false,
          "internalType": "int48"
        },
        {
          "name": "fundingSumPNS",
          "type": "int48",
          "indexed": false,
          "internalType": "int48"
        },
        {
          "name": "allowOverwrite",
          "type": "bool",
          "indexed": false,
          "internalType": "bool"
        }
      ],
      "anonymous": false
    },
    {
      "type": "event",
      "name": "FundingEventSetTooEarly",
      "inputs": [
        {
          "name": "perpId",
          "type": "uint256",
          "indexed": false,
          "internalType": "uint256"
        },
        {
          "name": "blockNumber",
          "type": "uint256",
          "indexed": false,
          "internalType": "uint256"
        },
        {
          "name": "fundingEventBlock",
          "type": "uint256",
          "indexed": false,
          "internalType": "uint256"
        }
      ],
      "anonymous": false
    },
    {
      "type": "event",
      "name": "FundingPriceExceedsTol",
      "inputs": [
        {
          "name": "perpId",
          "type": "uint256",
          "indexed": false,
          "internalType": "uint256"
        },
        {
          "name": "fundingPricePNS",
          "type": "uint256",
          "indexed": false,
          "internalType": "uint256"
        },
        {
          "name": "oraclePNS",
          "type": "uint256",
          "indexed": false,
          "internalType": "uint256"
        },
        {
          "name": "tolerancePer100k",
          "type": "uint256",
          "indexed": false,
          "internalType": "uint256"
        }
      ],
      "anonymous": false
    },
    {
      "type": "event",
      "name": "FundingSumAlreadySet",
      "inputs": [
        {
          "name": "perpId",
          "type": "uint256",
          "indexed": false,
          "internalType": "uint256"
        },
        {
          "name": "fundingEventBlock",
          "type": "uint256",
          "indexed": false,
          "internalType": "uint256"
        },
        {
          "name": "storageIndex",
          "type": "uint256",
          "indexed": false,
          "internalType": "uint256"
        },
        {
          "name": "fundingSumOffset",
          "type": "uint256",
          "indexed": false,
          "internalType": "uint256"
        }
      ],
      "anonymous": false
    },
    {
      "type": "event",
      "name": "IgnoreOracleUpdated",
      "inputs": [
        {
          "name": "perpId",
          "type": "uint256",
          "indexed": false,
          "internalType": "uint256"
        },
        {
          "name": "ignOracle",
          "type": "bool",
          "indexed": false,
          "internalType": "bool"
        }
      ],
      "anonymous": false
    },
    {
      "type": "event",
      "name": "ImmediateOrCancelExecuted",
      "inputs": [
        {
          "name": "unmatchedLotLNS",
          "type": "uint256",
          "indexed": false,
          "internalType": "uint256"
        },
        {
          "name": "totalLotLNS",
          "type": "uint256",
          "indexed": false,
          "internalType": "uint256"
        }
      ],
      "anonymous": false
    },
    {
      "type": "event",
      "name": "IncreasePositionCollateral",
      "inputs": [
        {
          "name": "perpId",
          "type": "uint256",
          "indexed": false,
          "internalType": "uint256"
        },
        {
          "name": "accountId",
          "type": "uint256",
          "indexed": false,
          "internalType": "uint256"
        },
        {
          "name": "positionDepositCNS",
          "type": "uint256",
          "indexed": false,
          "internalType": "uint256"
        },
        {
          "name": "amountCNS",
          "type": "uint256",
          "indexed": false,
          "internalType": "uint256"
        },
        {
          "name": "balanceCNS",
          "type": "uint256",
          "indexed": false,
          "internalType": "uint256"
        }
      ],
      "anonymous": false
    },
    {
      "type": "event",
      "name": "InitialMarginFractionUpdated",
      "inputs": [
        {
          "name": "perpId",
          "type": "uint256",
          "indexed": false,
          "internalType": "uint256"
        },
        {
          "name": "initMarginFracHdths",
          "type": "uint256",
          "indexed": false,
          "internalType": "uint256"
        }
      ],
      "anonymous": false
    },
    {
      "type": "event",
      "name": "Initialized",
      "inputs": [
        {
          "name": "version",
          "type": "uint8",
          "indexed": false,
          "internalType": "uint8"
        }
      ],
      "anonymous": false
    },
    {
      "type": "event",
      "name": "InsolventPositionCannotBeForcedClose",
      "inputs": [
        {
          "name": "perpId",
          "type": "uint256",
          "indexed": false,
          "internalType": "uint256"
        },
        {
          "name": "posAccountId",
          "type": "uint256",
          "indexed": false,
          "internalType": "uint256"
        },
        {
          "name": "positionType",
          "type": "uint8",
          "indexed": false,
          "internalType": "enum PositionEnum"
        },
        {
          "name": "bankruptcyPricePNS",
          "type": "uint256",
          "indexed": false,
          "internalType": "uint256"
        },
        {
          "name": "markPricePNS",
          "type": "uint256",
          "indexed": false,
          "internalType": "uint256"
        }
      ],
      "anonymous": false
    },
    {
      "type": "event",
      "name": "InsufficientFundsToDecCollateral",
      "inputs": [
        {
          "name": "perpId",
          "type": "uint256",
          "indexed": false,
          "internalType": "uint256"
        },
        {
          "name": "accountId",
          "type": "uint256",
          "indexed": false,
          "internalType": "uint256"
        },
        {
          "name": "amountCNS",
          "type": "uint256",
          "indexed": false,
          "internalType": "uint256"
        },
        {
          "name": "withdrawMaxCNS",
          "type": "uint256",
          "indexed": false,
          "internalType": "uint256"
        }
      ],
      "anonymous": false
    },
    {
      "type": "event",
      "name": "InsuficientFundsForRecycleFee",
      "inputs": [
        {
          "name": "perpId",
          "type": "uint256",
          "indexed": false,
          "internalType": "uint256"
        },
        {
          "name": "accountId",
          "type": "uint256",
          "indexed": false,
          "internalType": "uint256"
        },
        {
          "name": "balanceCNS",
          "type": "uint256",
          "indexed": false,
          "internalType": "uint256"
        },
        {
          "name": "lockedCNS",
          "type": "uint256",
          "indexed": false,
          "internalType": "uint256"
        },
        {
          "name": "recycleFeeCNS",
          "type": "uint256",
          "indexed": false,
          "internalType": "uint256"
        }
      ],
      "anonymous": false
    },
    {
      "type": "event",
      "name": "InsurancePaymentForSettlement",
      "inputs": [
        {
          "name": "perpId",
          "type": "uint256",
          "indexed": false,
          "internalType": "uint256"
        },
        {
          "name": "accountId",
          "type": "uint256",
          "indexed": false,
          "internalType": "uint256"
        },
        {
          "name": "insPaymentCNS",
          "type": "uint256",
          "indexed": false,
          "internalType": "uint256"
        }
      ],
      "anonymous": false
    },
    {
      "type": "event",
      "name": "InvalidAccountFrozenOrder",
      "inputs": [
        {
          "name": "orderType",
          "type": "uint8",
          "indexed": false,
          "internalType": "enum OrderDescEnum"
        },
        {
          "name": "immediateOrCancel",
          "type": "bool",
          "indexed": false,
          "internalType": "bool"
        }
      ],
      "anonymous": false
    },
    {
      "type": "event",
      "name": "InvalidBankruptcyPrice",
      "inputs": [
        {
          "name": "perpId",
          "type": "uint256",
          "indexed": false,
          "internalType": "uint256"
        },
        {
          "name": "accountId",
          "type": "uint256",
          "indexed": false,
          "internalType": "uint256"
        },
        {
          "name": "depositCNS",
          "type": "uint256",
          "indexed": false,
          "internalType": "uint256"
        },
        {
          "name": "posPricePNS",
          "type": "uint256",
          "indexed": false,
          "internalType": "uint256"
        },
        {
          "name": "liqLotLNS",
          "type": "uint256",
          "indexed": false,
          "internalType": "uint256"
        },
        {
          "name": "premiumPnlCNS",
          "type": "int256",
          "indexed": false,
          "internalType": "int256"
        }
      ],
      "anonymous": false
    },
    {
      "type": "event",
      "name": "InvalidExpiryBlock",
      "inputs": [
        {
          "name": "expiryBlock",
          "type": "uint256",
          "indexed": false,
          "internalType": "uint256"
        },
        {
          "name": "blockNumber",
          "type": "uint256",
          "indexed": false,
          "internalType": "uint256"
        }
      ],
      "anonymous": false
    },
    {
      "type": "event",
      "name": "InvalidLinkReportForContract",
      "inputs": [
        {
          "name": "perpId",
          "type": "uint256",
          "indexed": false,
          "internalType": "uint256"
        },
        {
          "name": "perpFeedId",
          "type": "bytes32",
          "indexed": false,
          "internalType": "bytes32"
        },
        {
          "name": "reportFeedId",
          "type": "bytes32",
          "indexed": false,
          "internalType": "bytes32"
        }
      ],
      "anonymous": false
    },
    {
      "type": "event",
      "name": "InvalidLinkReportVersion",
      "inputs": [
        {
          "name": "perpId",
          "type": "uint256",
          "indexed": false,
          "internalType": "uint256"
        },
        {
          "name": "reportVersion",
          "type": "uint256",
          "indexed": false,
          "internalType": "uint256"
        }
      ],
      "anonymous": false
    },
    {
      "type": "event",
      "name": "InvalidLiquidationPrice",
      "inputs": [
        {
          "name": "perpId",
          "type": "uint256",
          "indexed": false,
          "internalType": "uint256"
        },
        {
          "name": "accountId",
          "type": "uint256",
          "indexed": false,
          "internalType": "uint256"
        },
        {
          "name": "depositCNS",
          "type": "uint256",
          "indexed": false,
          "internalType": "uint256"
        },
        {
          "name": "posPricePNS",
          "type": "uint256",
          "indexed": false,
          "internalType": "uint256"
        },
        {
          "name": "liqLotLNS",
          "type": "uint256",
          "indexed": false,
          "internalType": "uint256"
        },
        {
          "name": "premiumPnlCNS",
          "type": "int256",
          "indexed": false,
          "internalType": "int256"
        }
      ],
      "anonymous": false
    },
    {
      "type": "event",
      "name": "InvalidOrderId",
      "inputs": [
        {
          "name": "orderId",
          "type": "uint256",
          "indexed": false,
          "internalType": "uint256"
        },
        {
          "name": "min",
          "type": "uint256",
          "indexed": false,
          "internalType": "uint256"
        },
        {
          "name": "max",
          "type": "uint256",
          "indexed": false,
          "internalType": "uint256"
        }
      ],
      "anonymous": false
    },
    {
      "type": "event",
      "name": "LastForwardedDescIdReset",
      "inputs": [
        {
          "name": "accountId",
          "type": "uint256",
          "indexed": false,
          "internalType": "uint256"
        },
        {
          "name": "newDescId",
          "type": "uint256",
          "indexed": false,
          "internalType": "uint256"
        }
      ],
      "anonymous": false
    },
    {
      "type": "event",
      "name": "LastTriggeredDescIdReset",
      "inputs": [
        {
          "name": "accountId",
          "type": "uint256",
          "indexed": false,
          "internalType": "uint256"
        },
        {
          "name": "newDescId",
          "type": "uint256",
          "indexed": false,
          "internalType": "uint256"
        }
      ],
      "anonymous": false
    },
    {
      "type": "event",
      "name": "LinkDatastreamConfigured",
      "inputs": [
        {
          "name": "verifierProxy",
          "type": "address",
          "indexed": false,
          "internalType": "address"
        }
      ],
      "anonymous": false
    },
    {
      "type": "event",
      "name": "LinkDsError",
      "inputs": [
        {
          "name": "perpId",
          "type": "uint256",
          "indexed": false,
          "internalType": "uint256"
        },
        {
          "name": "reason",
          "type": "string",
          "indexed": false,
          "internalType": "string"
        }
      ],
      "anonymous": false
    },
    {
      "type": "event",
      "name": "LinkDsError",
      "inputs": [
        {
          "name": "perpId",
          "type": "uint256",
          "indexed": false,
          "internalType": "uint256"
        },
        {
          "name": "lowLevelData",
          "type": "bytes",
          "indexed": false,
          "internalType": "bytes"
        }
      ],
      "anonymous": false
    },
    {
      "type": "event",
      "name": "LinkDsPanic",
      "inputs": [
        {
          "name": "perpId",
          "type": "uint256",
          "indexed": false,
          "internalType": "uint256"
        },
        {
          "name": "errorCode",
          "type": "uint256",
          "indexed": false,
          "internalType": "uint256"
        }
      ],
      "anonymous": false
    },
    {
      "type": "event",
      "name": "LinkPriceUpdated",
      "inputs": [
        {
          "name": "perpId",
          "type": "uint256",
          "indexed": false,
          "internalType": "uint256"
        },
        {
          "name": "oraclePricePNS",
          "type": "uint256",
          "indexed": false,
          "internalType": "uint256"
        },
        {
          "name": "timestamp",
          "type": "uint256",
          "indexed": false,
          "internalType": "uint256"
        }
      ],
      "anonymous": false
    },
    {
      "type": "event",
      "name": "LiquidationBuyerUpdated",
      "inputs": [
        {
          "name": "liquidationBuyer",
          "type": "address",
          "indexed": false,
          "internalType": "address"
        },
        {
          "name": "accountId",
          "type": "uint256",
          "indexed": false,
          "internalType": "uint256"
        },
        {
          "name": "added",
          "type": "bool",
          "indexed": false,
          "internalType": "bool"
        }
      ],
      "anonymous": false
    },
    {
      "type": "event",
      "name": "LiquidationParamsUpdated",
      "inputs": [
        {
          "name": "perpId",
          "type": "uint256",
          "indexed": false,
          "internalType": "uint256"
        },
        {
          "name": "insAmtPer100K",
          "type": "uint256",
          "indexed": false,
          "internalType": "uint256"
        },
        {
          "name": "liqAmtPer100K",
          "type": "uint256",
          "indexed": false,
          "internalType": "uint256"
        },
        {
          "name": "userAmtPer100K",
          "type": "uint256",
          "indexed": false,
          "internalType": "uint256"
        }
      ],
      "anonymous": false
    },
    {
      "type": "event",
      "name": "LotOutOfRange",
      "inputs": [
        {
          "name": "minLotLNS",
          "type": "uint256",
          "indexed": false,
          "internalType": "uint256"
        },
        {
          "name": "maxLotLNS",
          "type": "uint256",
          "indexed": false,
          "internalType": "uint256"
        }
      ],
      "anonymous": false
    },
    {
      "type": "event",
      "name": "MaintenanceMarginFractionUpdated",
      "inputs": [
        {
          "name": "perpId",
          "type": "uint256",
          "indexed": false,
          "internalType": "uint256"
        },
        {
          "name": "maintMarginFracHdths",
          "type": "uint256",
          "indexed": false,
          "internalType": "uint256"
        }
      ],
      "anonymous": false
    },
    {
      "type": "event",
      "name": "MakerFeeUpdated",
      "inputs": [
        {
          "name": "perpId",
          "type": "uint256",
          "indexed": false,
          "internalType": "uint256"
        },
        {
          "name": "makerFeePer100K",
          "type": "uint256",
          "indexed": false,
          "internalType": "uint256"
        }
      ],
      "anonymous": false
    },
    {
      "type": "event",
      "name": "MakerOrderFilled",
      "inputs": [
        {
          "name": "perpId",
          "type": "uint256",
          "indexed": false,
          "internalType": "uint256"
        },
        {
          "name": "accountId",
          "type": "uint256",
          "indexed": false,
          "internalType": "uint256"
        },
        {
          "name": "orderId",
          "type": "uint256",
          "indexed": false,
          "internalType": "uint256"
        },
        {
          "name": "pricePNS",
          "type": "uint256",
          "indexed": false,
          "internalType": "uint256"
        },
        {
          "name": "lotLNS",
          "type": "uint256",
          "indexed": false,
          "internalType": "uint256"
        },
        {
          "name": "feeCNS",
          "type": "uint256",
          "indexed": false,
          "internalType": "uint256"
        },
        {
          "name": "lockedBalanceCNS",
          "type": "uint256",
          "indexed": false,
          "internalType": "uint256"
        },
        {
          "name": "amountCNS",
          "type": "int256",
          "indexed": false,
          "internalType": "int256"
        },
        {
          "name": "balanceCNS",
          "type": "uint256",
          "indexed": false,
          "internalType": "uint256"
        }
      ],
      "anonymous": false
    },
    {
      "type": "event",
      "name": "MakerOrderSettlementFailed",
      "inputs": [
        {
          "name": "perpId",
          "type": "uint256",
          "indexed": false,
          "internalType": "uint256"
        },
        {
          "name": "accountId",
          "type": "uint256",
          "indexed": false,
          "internalType": "uint256"
        },
        {
          "name": "orderId",
          "type": "uint256",
          "indexed": false,
          "internalType": "uint256"
        },
        {
          "name": "orderType",
          "type": "uint8",
          "indexed": false,
          "internalType": "enum OrderEnum"
        },
        {
          "name": "pricePNS",
          "type": "uint256",
          "indexed": false,
          "internalType": "uint256"
        },
        {
          "name": "lotLNS",
          "type": "uint256",
          "indexed": false,
          "internalType": "uint256"
        },
        {
          "name": "maxSlippageBps",
          "type": "uint256",
          "indexed": false,
          "internalType": "uint256"
        },
        {
          "name": "reason",
          "type": "uint256",
          "indexed": false,
          "internalType": "uint256"
        },
        {
          "name": "lockedBalanceCNS",
          "type": "uint256",
          "indexed": false,
          "internalType": "uint256"
        },
        {
          "name": "recyclerAccountId",
          "type": "uint256",
          "indexed": false,
          "internalType": "uint256"
        },
        {
          "name": "recyclerAmountCNS",
          "type": "int256",
          "indexed": false,
          "internalType": "int256"
        },
        {
          "name": "recyclerBalanceCNS",
          "type": "uint256",
          "indexed": false,
          "internalType": "uint256"
        }
      ],
      "anonymous": false
    },
    {
      "type": "event",
      "name": "MarginTolUpdated",
      "inputs": [
        {
          "name": "perpId",
          "type": "uint256",
          "indexed": false,
          "internalType": "uint256"
        },
        {
          "name": "tolerance",
          "type": "uint256",
          "indexed": false,
          "internalType": "uint256"
        },
        {
          "name": "decimals",
          "type": "uint256",
          "indexed": false,
          "internalType": "uint256"
        }
      ],
      "anonymous": false
    },
    {
      "type": "event",
      "name": "MarkExceedsTol",
      "inputs": [
        {
          "name": "perpId",
          "type": "uint256",
          "indexed": false,
          "internalType": "uint256"
        },
        {
          "name": "markPNS",
          "type": "uint256",
          "indexed": false,
          "internalType": "uint256"
        },
        {
          "name": "spotOraclePricePNS",
          "type": "uint256",
          "indexed": false,
          "internalType": "uint256"
        },
        {
          "name": "tolerancePer100k",
          "type": "uint256",
          "indexed": false,
          "internalType": "uint256"
        }
      ],
      "anonymous": false
    },
    {
      "type": "event",
      "name": "MarkPriceAgeExceedsMax",
      "inputs": [
        {
          "name": "perpId",
          "type": "uint256",
          "indexed": false,
          "internalType": "uint256"
        },
        {
          "name": "markTimestamp",
          "type": "uint256",
          "indexed": false,
          "internalType": "uint256"
        },
        {
          "name": "timestamp",
          "type": "uint256",
          "indexed": false,
          "internalType": "uint256"
        },
        {
          "name": "maxAgeSec",
          "type": "uint256",
          "indexed": false,
          "internalType": "uint256"
        }
      ],
      "anonymous": false
    },
    {
      "type": "event",
      "name": "MarkUpdated",
      "inputs": [
        {
          "name": "perpId",
          "type": "uint256",
          "indexed": false,
          "internalType": "uint256"
        },
        {
          "name": "pricePNS",
          "type": "uint256",
          "indexed": false,
          "internalType": "uint256"
        }
      ],
      "anonymous": false
    },
    {
      "type": "event",
      "name": "MaxMatchesReached",
      "inputs": [],
      "anonymous": false
    },
    {
      "type": "event",
      "name": "MaxOpenInterestUpdated",
      "inputs": [
        {
          "name": "perpId",
          "type": "uint256",
          "indexed": false,
          "internalType": "uint256"
        },
        {
          "name": "maxOpenInterestLNS",
          "type": "uint256",
          "indexed": false,
          "internalType": "uint256"
        }
      ],
      "anonymous": false
    },
    {
      "type": "event",
      "name": "MaximumAccountOrders",
      "inputs": [
        {
          "name": "perpId",
          "type": "uint256",
          "indexed": false,
          "internalType": "uint256"
        },
        {
          "name": "accountId",
          "type": "uint256",
          "indexed": false,
          "internalType": "uint256"
        }
      ],
      "anonymous": false
    },
    {
      "type": "event",
      "name": "MinAccountOpenAmountUpdated",
      "inputs": [
        {
          "name": "minAccountOpenCNS",
          "type": "uint256",
          "indexed": false,
          "internalType": "uint256"
        }
      ],
      "anonymous": false
    },
    {
      "type": "event",
      "name": "MinPostUpdated",
      "inputs": [
        {
          "name": "minPostCNS",
          "type": "uint256",
          "indexed": false,
          "internalType": "uint256"
        }
      ],
      "anonymous": false
    },
    {
      "type": "event",
      "name": "MinSettleUpdated",
      "inputs": [
        {
          "name": "minSettleCNS",
          "type": "uint256",
          "indexed": false,
          "internalType": "uint256"
        }
      ],
      "anonymous": false
    },
    {
      "type": "event",
      "name": "OracleAgeExceedsMax",
      "inputs": [
        {
          "name": "perpId",
          "type": "uint256",
          "indexed": false,
          "internalType": "uint256"
        },
        {
          "name": "oracleTimestamp",
          "type": "uint256",
          "indexed": false,
          "internalType": "uint256"
        },
        {
          "name": "timestamp",
          "type": "uint256",
          "indexed": false,
          "internalType": "uint256"
        },
        {
          "name": "maxAgeSec",
          "type": "uint256",
          "indexed": false,
          "internalType": "uint256"
        }
      ],
      "anonymous": false
    },
    {
      "type": "event",
      "name": "OracleDisabled",
      "inputs": [
        {
          "name": "perpId",
          "type": "uint256",
          "indexed": false,
          "internalType": "uint256"
        }
      ],
      "anonymous": false
    },
    {
      "type": "event",
      "name": "OrderBatchCompleted",
      "inputs": [
        {
          "name": "gasLeft",
          "type": "uint256",
          "indexed": false,
          "internalType": "uint256"
        }
      ],
      "anonymous": false
    },
    {
      "type": "event",
      "name": "OrderCancelled",
      "inputs": [
        {
          "name": "lockedBalanceCNS",
          "type": "uint256",
          "indexed": false,
          "internalType": "uint256"
        },
        {
          "name": "amountCNS",
          "type": "int256",
          "indexed": false,
          "internalType": "int256"
        },
        {
          "name": "balanceCNS",
          "type": "uint256",
          "indexed": false,
          "internalType": "uint256"
        }
      ],
      "anonymous": false
    },
    {
      "type": "event",
      "name": "OrderCancelledByAdmin",
      "inputs": [
        {
          "name": "perpId",
          "type": "uint256",
          "indexed": false,
          "internalType": "uint256"
        },
        {
          "name": "accountId",
          "type": "uint256",
          "indexed": false,
          "internalType": "uint256"
        },
        {
          "name": "orderId",
          "type": "uint256",
          "indexed": false,
          "internalType": "uint256"
        },
        {
          "name": "lockedBalanceCNS",
          "type": "uint256",
          "indexed": false,
          "internalType": "uint256"
        }
      ],
      "anonymous": false
    },
    {
      "type": "event",
      "name": "OrderCancelledByLiquidator",
      "inputs": [
        {
          "name": "perpId",
          "type": "uint256",
          "indexed": false,
          "internalType": "uint256"
        },
        {
          "name": "accountId",
          "type": "uint256",
          "indexed": false,
          "internalType": "uint256"
        },
        {
          "name": "orderId",
          "type": "uint256",
          "indexed": false,
          "internalType": "uint256"
        },
        {
          "name": "lockedBalanceCNS",
          "type": "uint256",
          "indexed": false,
          "internalType": "uint256"
        }
      ],
      "anonymous": false
    },
    {
      "type": "event",
      "name": "OrderChanged",
      "inputs": [
        {
          "name": "orderId",
          "type": "uint256",
          "indexed": false,
          "internalType": "uint256"
        },
        {
          "name": "pricePNS",
          "type": "uint256",
          "indexed": false,
          "internalType": "uint256"
        },
        {
          "name": "lotLNS",
          "type": "uint256",
          "indexed": false,
          "internalType": "uint256"
        },
        {
          "name": "expiryBlock",
          "type": "uint256",
          "indexed": false,
          "internalType": "uint256"
        },
        {
          "name": "lockedBalanceCNS",
          "type": "uint256",
          "indexed": false,
          "internalType": "uint256"
        },
        {
          "name": "balanceCNS",
          "type": "uint256",
          "indexed": false,
          "internalType": "uint256"
        }
      ],
      "anonymous": false
    },
    {
      "type": "event",
      "name": "OrderDescIdTooLow",
      "inputs": [
        {
          "name": "lastOrderDescId",
          "type": "uint256",
          "indexed": false,
          "internalType": "uint256"
        }
      ],
      "anonymous": false
    },
    {
      "type": "event",
      "name": "OrderDoesNotExist",
      "inputs": [
        {
          "name": "perpId",
          "type": "uint256",
          "indexed": false,
          "internalType": "uint256"
        },
        {
          "name": "orderId",
          "type": "uint256",
          "indexed": false,
          "internalType": "uint256"
        }
      ],
      "anonymous": false
    },
    {
      "type": "event",
      "name": "OrderForwardingNotAllowed",
      "inputs": [],
      "anonymous": false
    },
    {
      "type": "event",
      "name": "OrderForwardingUpdated",
      "inputs": [
        {
          "name": "accountId",
          "type": "uint256",
          "indexed": false,
          "internalType": "uint256"
        },
        {
          "name": "allowed",
          "type": "bool",
          "indexed": false,
          "internalType": "bool"
        }
      ],
      "anonymous": false
    },
    {
      "type": "event",
      "name": "OrderPlaced",
      "inputs": [
        {
          "name": "orderId",
          "type": "uint256",
          "indexed": false,
          "internalType": "uint256"
        },
        {
          "name": "lotLNS",
          "type": "uint256",
          "indexed": false,
          "internalType": "uint256"
        },
        {
          "name": "lockedBalanceCNS",
          "type": "uint256",
          "indexed": false,
          "internalType": "uint256"
        },
        {
          "name": "amountCNS",
          "type": "int256",
          "indexed": false,
          "internalType": "int256"
        },
        {
          "name": "balanceCNS",
          "type": "uint256",
          "indexed": false,
          "internalType": "uint256"
        }
      ],
      "anonymous": false
    },
    {
      "type": "event",
      "name": "OrderPostFailed",
      "inputs": [
        {
          "name": "reason",
          "type": "uint256",
          "indexed": false,
          "internalType": "uint256"
        }
      ],
      "anonymous": false
    },
    {
      "type": "event",
      "name": "OrderRequest",
      "inputs": [
        {
          "name": "perpId",
          "type": "uint256",
          "indexed": false,
          "internalType": "uint256"
        },
        {
          "name": "accountId",
          "type": "uint256",
          "indexed": false,
          "internalType": "uint256"
        },
        {
          "name": "orderDescId",
          "type": "uint256",
          "indexed": false,
          "internalType": "uint256"
        },
        {
          "name": "orderId",
          "type": "uint256",
          "indexed": false,
          "internalType": "uint256"
        },
        {
          "name": "orderType",
          "type": "uint8",
          "indexed": false,
          "internalType": "enum OrderDescEnum"
        },
        {
          "name": "pricePNS",
          "type": "uint256",
          "indexed": false,
          "internalType": "uint256"
        },
        {
          "name": "lotLNS",
          "type": "uint256",
          "indexed": false,
          "internalType": "uint256"
        },
        {
          "name": "expiryBlock",
          "type": "uint256",
          "indexed": false,
          "internalType": "uint256"
        },
        {
          "name": "postOnly",
          "type": "bool",
          "indexed": false,
          "internalType": "bool"
        },
        {
          "name": "fillOrKill",
          "type": "bool",
          "indexed": false,
          "internalType": "bool"
        },
        {
          "name": "immediateOrCancel",
          "type": "bool",
          "indexed": false,
          "internalType": "bool"
        },
        {
          "name": "maxMatches",
          "type": "uint256",
          "indexed": false,
          "internalType": "uint256"
        },
        {
          "name": "leverageHdths",
          "type": "uint256",
          "indexed": false,
          "internalType": "uint256"
        },
        {
          "name": "lastExecutionBlock",
          "type": "uint256",
          "indexed": false,
          "internalType": "uint256"
        },
        {
          "name": "amountCNS",
          "type": "uint256",
          "indexed": false,
          "internalType": "uint256"
        },
        {
          "name": "maxSlippageBps",
          "type": "uint256",
          "indexed": false,
          "internalType": "uint256"
        },
        {
          "name": "gasLeft",
          "type": "uint256",
          "indexed": false,
          "internalType": "uint256"
        }
      ],
      "anonymous": false
    },
    {
      "type": "event",
      "name": "OrderSettlementImpliesInsolvent",
      "inputs": [
        {
          "name": "perpId",
          "type": "uint256",
          "indexed": false,
          "internalType": "uint256"
        },
        {
          "name": "accountId",
          "type": "uint256",
          "indexed": false,
          "internalType": "uint256"
        },
        {
          "name": "orderType",
          "type": "uint8",
          "indexed": false,
          "internalType": "enum OrderEnum"
        },
        {
          "name": "pricePNS",
          "type": "uint256",
          "indexed": false,
          "internalType": "uint256"
        },
        {
          "name": "lotLNS",
          "type": "uint256",
          "indexed": false,
          "internalType": "uint256"
        },
        {
          "name": "perpPositionBalCNS",
          "type": "uint256",
          "indexed": false,
          "internalType": "uint256"
        },
        {
          "name": "perpInsuranceBalCNS",
          "type": "uint256",
          "indexed": false,
          "internalType": "uint256"
        },
        {
          "name": "addedPosCollatReqCNS",
          "type": "uint256",
          "indexed": false,
          "internalType": "uint256"
        },
        {
          "name": "requestedAmountCNS",
          "type": "uint256",
          "indexed": false,
          "internalType": "uint256"
        }
      ],
      "anonymous": false
    },
    {
      "type": "event",
      "name": "OrderSizeExceedsAvailableSize",
      "inputs": [
        {
          "name": "orderLotLNS",
          "type": "uint256",
          "indexed": false,
          "internalType": "uint256"
        },
        {
          "name": "availableLotLNS",
          "type": "uint256",
          "indexed": false,
          "internalType": "uint256"
        },
        {
          "name": "positionLotLNS",
          "type": "uint256",
          "indexed": false,
          "internalType": "uint256"
        }
      ],
      "anonymous": false
    },
    {
      "type": "event",
      "name": "OverCollatDescentThreshUpdated",
      "inputs": [
        {
          "name": "perpId",
          "type": "uint256",
          "indexed": false,
          "internalType": "uint256"
        },
        {
          "name": "threshHdths",
          "type": "uint256",
          "indexed": false,
          "internalType": "uint256"
        }
      ],
      "anonymous": false
    },
    {
      "type": "event",
      "name": "OwnershipTransferStarted",
      "inputs": [
        {
          "name": "previousOwner",
          "type": "address",
          "indexed": true,
          "internalType": "address"
        },
        {
          "name": "newOwner",
          "type": "address",
          "indexed": true,
          "internalType": "address"
        }
      ],
      "anonymous": false
    },
    {
      "type": "event",
      "name": "OwnershipTransferred",
      "inputs": [
        {
          "name": "previousOwner",
          "type": "address",
          "indexed": true,
          "internalType": "address"
        },
        {
          "name": "newOwner",
          "type": "address",
          "indexed": true,
          "internalType": "address"
        }
      ],
      "anonymous": false
    },
    {
      "type": "event",
      "name": "PermissonedCancelParamsUpdated",
      "inputs": [
        {
          "name": "cancelMinOrders",
          "type": "uint256",
          "indexed": false,
          "internalType": "uint256"
        },
        {
          "name": "cancelSegment",
          "type": "uint256",
          "indexed": false,
          "internalType": "uint256"
        }
      ],
      "anonymous": false
    },
    {
      "type": "event",
      "name": "PerpPositionBalCreditPositiveSevere",
      "inputs": [
        {
          "name": "perpId",
          "type": "uint256",
          "indexed": false,
          "internalType": "uint256"
        },
        {
          "name": "accountId",
          "type": "uint256",
          "indexed": false,
          "internalType": "uint256"
        },
        {
          "name": "realizedPricePNS",
          "type": "uint256",
          "indexed": false,
          "internalType": "uint256"
        },
        {
          "name": "lotLNS",
          "type": "uint256",
          "indexed": false,
          "internalType": "uint256"
        },
        {
          "name": "userProceedsToPosition",
          "type": "bool",
          "indexed": false,
          "internalType": "bool"
        },
        {
          "name": "buyToLiquidate",
          "type": "bool",
          "indexed": false,
          "internalType": "bool"
        },
        {
          "name": "creditPerpBalCNS",
          "type": "int256",
          "indexed": false,
          "internalType": "int256"
        }
      ],
      "anonymous": false
    },
    {
      "type": "event",
      "name": "PositionAdministratorUpdated",
      "inputs": [
        {
          "name": "positionAdministrator",
          "type": "address",
          "indexed": false,
          "internalType": "address"
        },
        {
          "name": "added",
          "type": "bool",
          "indexed": false,
          "internalType": "bool"
        }
      ],
      "anonymous": false
    },
    {
      "type": "event",
      "name": "PositionClosed",
      "inputs": [
        {
          "name": "perpId",
          "type": "uint256",
          "indexed": false,
          "internalType": "uint256"
        },
        {
          "name": "accountId",
          "type": "uint256",
          "indexed": false,
          "internalType": "uint256"
        },
        {
          "name": "positionType",
          "type": "uint8",
          "indexed": false,
          "internalType": "enum PositionEnum"
        },
        {
          "name": "pricePNS",
          "type": "uint256",
          "indexed": false,
          "internalType": "uint256"
        },
        {
          "name": "deltaPnlCNS",
          "type": "int256",
          "indexed": false,
          "internalType": "int256"
        },
        {
          "name": "fundingCNS",
          "type": "int256",
          "indexed": false,
          "internalType": "int256"
        }
      ],
      "anonymous": false
    },
    {
      "type": "event",
      "name": "PositionCollateralDecreased",
      "inputs": [
        {
          "name": "perpId",
          "type": "uint256",
          "indexed": false,
          "internalType": "uint256"
        },
        {
          "name": "accountId",
          "type": "uint256",
          "indexed": false,
          "internalType": "uint256"
        },
        {
          "name": "positionType",
          "type": "uint8",
          "indexed": false,
          "internalType": "enum PositionEnum"
        },
        {
          "name": "markPricePNS",
          "type": "uint256",
          "indexed": false,
          "internalType": "uint256"
        },
        {
          "name": "impactAdjPricePNS",
          "type": "uint256",
          "indexed": false,
          "internalType": "uint256"
        },
        {
          "name": "startDepositCNS",
          "type": "uint256",
          "indexed": false,
          "internalType": "uint256"
        },
        {
          "name": "endDepositCNS",
          "type": "uint256",
          "indexed": false,
          "internalType": "uint256"
        },
        {
          "name": "startEntryPricePNS",
          "type": "uint256",
          "indexed": false,
          "internalType": "uint256"
        },
        {
          "name": "endEntryPricePNS",
          "type": "uint256",
          "indexed": false,
          "internalType": "uint256"
        },
        {
          "name": "effBmfHdths",
          "type": "uint256",
          "indexed": false,
          "internalType": "uint256"
        },
        {
          "name": "decreaseCNS",
          "type": "uint256",
          "indexed": false,
          "internalType": "uint256"
        },
        {
          "name": "balanceCNS",
          "type": "uint256",
          "indexed": false,
          "internalType": "uint256"
        }
      ],
      "anonymous": false
    },
    {
      "type": "event",
      "name": "PositionDecreased",
      "inputs": [
        {
          "name": "perpId",
          "type": "uint256",
          "indexed": false,
          "internalType": "uint256"
        },
        {
          "name": "accountId",
          "type": "uint256",
          "indexed": false,
          "internalType": "uint256"
        },
        {
          "name": "positionType",
          "type": "uint8",
          "indexed": false,
          "internalType": "enum PositionEnum"
        },
        {
          "name": "startDepositCNS",
          "type": "uint256",
          "indexed": false,
          "internalType": "uint256"
        },
        {
          "name": "endDepositCNS",
          "type": "uint256",
          "indexed": false,
          "internalType": "uint256"
        },
        {
          "name": "startLotLNS",
          "type": "uint256",
          "indexed": false,
          "internalType": "uint256"
        },
        {
          "name": "endLotLNS",
          "type": "uint256",
          "indexed": false,
          "internalType": "uint256"
        },
        {
          "name": "deltaPnlCNS",
          "type": "int256",
          "indexed": false,
          "internalType": "int256"
        },
        {
          "name": "fundingCNS",
          "type": "int256",
          "indexed": false,
          "internalType": "int256"
        }
      ],
      "anonymous": false
    },
    {
      "type": "event",
      "name": "PositionDeleveraged",
      "inputs": [
        {
          "name": "perpId",
          "type": "uint256",
          "indexed": false,
          "internalType": "uint256"
        },
        {
          "name": "accountId",
          "type": "uint256",
          "indexed": false,
          "internalType": "uint256"
        },
        {
          "name": "forceClose",
          "type": "bool",
          "indexed": false,
          "internalType": "bool"
        },
        {
          "name": "positionType",
          "type": "uint8",
          "indexed": false,
          "internalType": "enum PositionEnum"
        },
        {
          "name": "entryPricePNS",
          "type": "uint256",
          "indexed": false,
          "internalType": "uint256"
        },
        {
          "name": "markPricePNS",
          "type": "uint256",
          "indexed": false,
          "internalType": "uint256"
        },
        {
          "name": "deleveragePricePNS",
          "type": "uint256",
          "indexed": false,
          "internalType": "uint256"
        },
        {
          "name": "deltaPnlCNS",
          "type": "int256",
          "indexed": false,
          "internalType": "int256"
        },
        {
          "name": "fundingCNS",
          "type": "int256",
          "indexed": false,
          "internalType": "int256"
        },
        {
          "name": "startDepositCNS",
          "type": "uint256",
          "indexed": false,
          "internalType": "uint256"
        },
        {
          "name": "endDepositCNS",
          "type": "uint256",
          "indexed": false,
          "internalType": "uint256"
        },
        {
          "name": "startLotLNS",
          "type": "uint256",
          "indexed": false,
          "internalType": "uint256"
        },
        {
          "name": "endLotLNS",
          "type": "uint256",
          "indexed": false,
          "internalType": "uint256"
        },
        {
          "name": "amountCNS",
          "type": "uint256",
          "indexed": false,
          "internalType": "uint256"
        },
        {
          "name": "balanceCNS",
          "type": "uint256",
          "indexed": false,
          "internalType": "uint256"
        }
      ],
      "anonymous": false
    },
    {
      "type": "event",
      "name": "PositionDoesNotExist",
      "inputs": [
        {
          "name": "perpId",
          "type": "uint256",
          "indexed": false,
          "internalType": "uint256"
        },
        {
          "name": "accountId",
          "type": "uint256",
          "indexed": false,
          "internalType": "uint256"
        }
      ],
      "anonymous": false
    },
    {
      "type": "event",
      "name": "PositionIncreased",
      "inputs": [
        {
          "name": "perpId",
          "type": "uint256",
          "indexed": false,
          "internalType": "uint256"
        },
        {
          "name": "accountId",
          "type": "uint256",
          "indexed": false,
          "internalType": "uint256"
        },
        {
          "name": "positionType",
          "type": "uint8",
          "indexed": false,
          "internalType": "enum PositionEnum"
        },
        {
          "name": "leverageHdths",
          "type": "uint256",
          "indexed": false,
          "internalType": "uint256"
        },
        {
          "name": "startDepositCNS",
          "type": "uint256",
          "indexed": false,
          "internalType": "uint256"
        },
        {
          "name": "endDepositCNS",
          "type": "uint256",
          "indexed": false,
          "internalType": "uint256"
        },
        {
          "name": "pnlCollateralizedCNS",
          "type": "int256",
          "indexed": false,
          "internalType": "int256"
        },
        {
          "name": "premiumPnlSettledCNS",
          "type": "int256",
          "indexed": false,
          "internalType": "int256"
        },
        {
          "name": "maxSlippageBps",
          "type": "uint256",
          "indexed": false,
          "internalType": "uint256"
        },
        {
          "name": "pricePNS",
          "type": "uint256",
          "indexed": false,
          "internalType": "uint256"
        },
        {
          "name": "startLotLNS",
          "type": "uint256",
          "indexed": false,
          "internalType": "uint256"
        },
        {
          "name": "endLotLNS",
          "type": "uint256",
          "indexed": false,
          "internalType": "uint256"
        },
        {
          "name": "insFeeCNS",
          "type": "uint256",
          "indexed": false,
          "internalType": "uint256"
        },
        {
          "name": "protFeeCNS",
          "type": "uint256",
          "indexed": false,
          "internalType": "uint256"
        }
      ],
      "anonymous": false
    },
    {
      "type": "event",
      "name": "PositionInverted",
      "inputs": [
        {
          "name": "perpId",
          "type": "uint256",
          "indexed": false,
          "internalType": "uint256"
        },
        {
          "name": "accountId",
          "type": "uint256",
          "indexed": false,
          "internalType": "uint256"
        },
        {
          "name": "positionType",
          "type": "uint8",
          "indexed": false,
          "internalType": "enum PositionEnum"
        },
        {
          "name": "leverageHdths",
          "type": "uint256",
          "indexed": false,
          "internalType": "uint256"
        },
        {
          "name": "startDepositCNS",
          "type": "uint256",
          "indexed": false,
          "internalType": "uint256"
        },
        {
          "name": "endDepositCNS",
          "type": "uint256",
          "indexed": false,
          "internalType": "uint256"
        },
        {
          "name": "pnlCollateralizedCNS",
          "type": "int256",
          "indexed": false,
          "internalType": "int256"
        },
        {
          "name": "pricePNS",
          "type": "uint256",
          "indexed": false,
          "internalType": "uint256"
        },
        {
          "name": "startLotLNS",
          "type": "uint256",
          "indexed": false,
          "internalType": "uint256"
        },
        {
          "name": "endLotLNS",
          "type": "uint256",
          "indexed": false,
          "internalType": "uint256"
        },
        {
          "name": "deltaPnlCNS",
          "type": "int256",
          "indexed": false,
          "internalType": "int256"
        },
        {
          "name": "fundingCNS",
          "type": "int256",
          "indexed": false,
          "internalType": "int256"
        },
        {
          "name": "insFeeCNS",
          "type": "uint256",
          "indexed": false,
          "internalType": "uint256"
        },
        {
          "name": "protFeeCNS",
          "type": "uint256",
          "indexed": false,
          "internalType": "uint256"
        }
      ],
      "anonymous": false
    },
    {
      "type": "event",
      "name": "PositionLiquidated",
      "inputs": [
        {
          "name": "perpId",
          "type": "uint256",
          "indexed": false,
          "internalType": "uint256"
        },
        {
          "name": "posAccountId",
          "type": "uint256",
          "indexed": false,
          "internalType": "uint256"
        },
        {
          "name": "positionType",
          "type": "uint8",
          "indexed": false,
          "internalType": "enum PositionEnum"
        },
        {
          "name": "markPricePNS",
          "type": "uint256",
          "indexed": false,
          "internalType": "uint256"
        },
        {
          "name": "liqPricePNS",
          "type": "uint256",
          "indexed": false,
          "internalType": "uint256"
        },
        {
          "name": "liqLotLNS",
          "type": "uint256",
          "indexed": false,
          "internalType": "uint256"
        },
        {
          "name": "posLotLNS",
          "type": "uint256",
          "indexed": false,
          "internalType": "uint256"
        },
        {
          "name": "deltaPnlCNS",
          "type": "int256",
          "indexed": false,
          "internalType": "int256"
        },
        {
          "name": "fundingCNS",
          "type": "int256",
          "indexed": false,
          "internalType": "int256"
        },
        {
          "name": "posAmountCNS",
          "type": "int256",
          "indexed": false,
          "internalType": "int256"
        },
        {
          "name": "posDepositCNS",
          "type": "uint256",
          "indexed": false,
          "internalType": "uint256"
        },
        {
          "name": "accAmountCNS",
          "type": "int256",
          "indexed": false,
          "internalType": "int256"
        },
        {
          "name": "accBalanceCNS",
          "type": "uint256",
          "indexed": false,
          "internalType": "uint256"
        },
        {
          "name": "onOrderBook",
          "type": "bool",
          "indexed": false,
          "internalType": "bool"
        }
      ],
      "anonymous": false
    },
    {
      "type": "event",
      "name": "PositionLiquidationCredit",
      "inputs": [
        {
          "name": "perpId",
          "type": "uint256",
          "indexed": false,
          "internalType": "uint256"
        },
        {
          "name": "accountId",
          "type": "uint256",
          "indexed": false,
          "internalType": "uint256"
        },
        {
          "name": "startDepositCNS",
          "type": "uint256",
          "indexed": false,
          "internalType": "uint256"
        },
        {
          "name": "endDepositCNS",
          "type": "uint256",
          "indexed": false,
          "internalType": "uint256"
        }
      ],
      "anonymous": false
    },
    {
      "type": "event",
      "name": "PositionOpened",
      "inputs": [
        {
          "name": "perpId",
          "type": "uint256",
          "indexed": false,
          "internalType": "uint256"
        },
        {
          "name": "accountId",
          "type": "uint256",
          "indexed": false,
          "internalType": "uint256"
        },
        {
          "name": "positionType",
          "type": "uint8",
          "indexed": false,
          "internalType": "enum PositionEnum"
        },
        {
          "name": "leverageHdths",
          "type": "uint256",
          "indexed": false,
          "internalType": "uint256"
        },
        {
          "name": "depositCNS",
          "type": "uint256",
          "indexed": false,
          "internalType": "uint256"
        },
        {
          "name": "pnlCollateralizedCNS",
          "type": "int256",
          "indexed": false,
          "internalType": "int256"
        },
        {
          "name": "pricePNS",
          "type": "uint256",
          "indexed": false,
          "internalType": "uint256"
        },
        {
          "name": "lotLNS",
          "type": "uint256",
          "indexed": false,
          "internalType": "uint256"
        },
        {
          "name": "insFeeCNS",
          "type": "uint256",
          "indexed": false,
          "internalType": "uint256"
        },
        {
          "name": "protFeeCNS",
          "type": "uint256",
          "indexed": false,
          "internalType": "uint256"
        }
      ],
      "anonymous": false
    },
    {
      "type": "event",
      "name": "PositionUnwound",
      "inputs": [
        {
          "name": "perpId",
          "type": "uint256",
          "indexed": false,
          "internalType": "uint256"
        },
        {
          "name": "accountId",
          "type": "uint256",
          "indexed": false,
          "internalType": "uint256"
        },
        {
          "name": "markPricePNS",
          "type": "uint256",
          "indexed": false,
          "internalType": "uint256"
        },
        {
          "name": "positionType",
          "type": "uint8",
          "indexed": false,
          "internalType": "enum PositionEnum"
        },
        {
          "name": "pricePNS",
          "type": "uint256",
          "indexed": false,
          "internalType": "uint256"
        },
        {
          "name": "lotLNS",
          "type": "uint256",
          "indexed": false,
          "internalType": "uint256"
        },
        {
          "name": "depositCNS",
          "type": "uint256",
          "indexed": false,
          "internalType": "uint256"
        },
        {
          "name": "positionFmvCNS",
          "type": "int256",
          "indexed": false,
          "internalType": "int256"
        },
        {
          "name": "paymentCNS",
          "type": "uint256",
          "indexed": false,
          "internalType": "uint256"
        },
        {
          "name": "balanceCNS",
          "type": "uint256",
          "indexed": false,
          "internalType": "uint256"
        }
      ],
      "anonymous": false
    },
    {
      "type": "event",
      "name": "PositionUnwoundWithoutPayment",
      "inputs": [
        {
          "name": "perpId",
          "type": "uint256",
          "indexed": false,
          "internalType": "uint256"
        },
        {
          "name": "accountId",
          "type": "uint256",
          "indexed": false,
          "internalType": "uint256"
        },
        {
          "name": "markPricePNS",
          "type": "uint256",
          "indexed": false,
          "internalType": "uint256"
        },
        {
          "name": "positionType",
          "type": "uint8",
          "indexed": false,
          "internalType": "enum PositionEnum"
        },
        {
          "name": "pricePNS",
          "type": "uint256",
          "indexed": false,
          "internalType": "uint256"
        },
        {
          "name": "lotLNS",
          "type": "uint256",
          "indexed": false,
          "internalType": "uint256"
        },
        {
          "name": "depositCNS",
          "type": "uint256",
          "indexed": false,
          "internalType": "uint256"
        },
        {
          "name": "positionFmvCNS",
          "type": "int256",
          "indexed": false,
          "internalType": "int256"
        },
        {
          "name": "amountOwedCNS",
          "type": "uint256",
          "indexed": false,
          "internalType": "uint256"
        }
      ],
      "anonymous": false
    },
    {
      "type": "event",
      "name": "PostOrderUnderMinimum",
      "inputs": [
        {
          "name": "orderAmountCNS",
          "type": "uint256",
          "indexed": false,
          "internalType": "uint256"
        },
        {
          "name": "minAmountCNS",
          "type": "uint256",
          "indexed": false,
          "internalType": "uint256"
        }
      ],
      "anonymous": false
    },
    {
      "type": "event",
      "name": "PriceAdministratorUpdated",
      "inputs": [
        {
          "name": "priceAdministrator",
          "type": "address",
          "indexed": false,
          "internalType": "address"
        },
        {
          "name": "added",
          "type": "bool",
          "indexed": false,
          "internalType": "bool"
        }
      ],
      "anonymous": false
    },
    {
      "type": "event",
      "name": "PriceMaxAgeUpdated",
      "inputs": [
        {
          "name": "perpId",
          "type": "uint256",
          "indexed": false,
          "internalType": "uint256"
        },
        {
          "name": "maxAgeSec",
          "type": "uint256",
          "indexed": false,
          "internalType": "uint256"
        }
      ],
      "anonymous": false
    },
    {
      "type": "event",
      "name": "PriceOutOfRange",
      "inputs": [
        {
          "name": "minPricePNS",
          "type": "uint256",
          "indexed": false,
          "internalType": "uint256"
        },
        {
          "name": "maxPricePNS",
          "type": "uint256",
          "indexed": false,
          "internalType": "uint256"
        }
      ],
      "anonymous": false
    },
    {
      "type": "event",
      "name": "PriceTolUpdated",
      "inputs": [
        {
          "name": "perpId",
          "type": "uint256",
          "indexed": false,
          "internalType": "uint256"
        },
        {
          "name": "tolPer100k",
          "type": "uint256",
          "indexed": false,
          "internalType": "uint256"
        }
      ],
      "anonymous": false
    },
    {
      "type": "event",
      "name": "ProtocolBalanceDeposit",
      "inputs": [
        {
          "name": "amountCNS",
          "type": "uint256",
          "indexed": false,
          "internalType": "uint256"
        }
      ],
      "anonymous": false
    },
    {
      "type": "event",
      "name": "ProtocolBalanceWithdraw",
      "inputs": [
        {
          "name": "amountCNS",
          "type": "uint256",
          "indexed": false,
          "internalType": "uint256"
        }
      ],
      "anonymous": false
    },
    {
      "type": "event",
      "name": "RecycleBalanceInsufficientSevere",
      "inputs": [
        {
          "name": "accountId",
          "type": "uint256",
          "indexed": false,
          "internalType": "uint256"
        },
        {
          "name": "perpId",
          "type": "uint256",
          "indexed": false,
          "internalType": "uint256"
        },
        {
          "name": "orderId",
          "type": "uint256",
          "indexed": false,
          "internalType": "uint256"
        },
        {
          "name": "recycleFeeCNS",
          "type": "uint256",
          "indexed": false,
          "internalType": "uint256"
        },
        {
          "name": "recycleBalanceCNS",
          "type": "uint256",
          "indexed": false,
          "internalType": "uint256"
        }
      ],
      "anonymous": false
    },
    {
      "type": "event",
      "name": "RecycleFeeToAccount",
      "inputs": [
        {
          "name": "accountId",
          "type": "uint256",
          "indexed": false,
          "internalType": "uint256"
        },
        {
          "name": "perpId",
          "type": "uint256",
          "indexed": false,
          "internalType": "uint256"
        },
        {
          "name": "orderId",
          "type": "uint256",
          "indexed": false,
          "internalType": "uint256"
        },
        {
          "name": "recycleFeeCNS",
          "type": "uint256",
          "indexed": false,
          "internalType": "uint256"
        },
        {
          "name": "recycleBalanceCNS",
          "type": "uint256",
          "indexed": false,
          "internalType": "uint256"
        }
      ],
      "anonymous": false
    },
    {
      "type": "event",
      "name": "RecycleFeeToProtocol",
      "inputs": [
        {
          "name": "perpId",
          "type": "uint256",
          "indexed": false,
          "internalType": "uint256"
        },
        {
          "name": "orderId",
          "type": "uint256",
          "indexed": false,
          "internalType": "uint256"
        },
        {
          "name": "recycleFeeCNS",
          "type": "uint256",
          "indexed": false,
          "internalType": "uint256"
        },
        {
          "name": "recycleBalanceCNS",
          "type": "uint256",
          "indexed": false,
          "internalType": "uint256"
        }
      ],
      "anonymous": false
    },
    {
      "type": "event",
      "name": "RecycleFeeUpdated",
      "inputs": [
        {
          "name": "recycleFeeCNS",
          "type": "uint256",
          "indexed": false,
          "internalType": "uint256"
        }
      ],
      "anonymous": false
    },
    {
      "type": "event",
      "name": "ReportAgeExceedsLastUpdate",
      "inputs": [
        {
          "name": "perpId",
          "type": "uint256",
          "indexed": false,
          "internalType": "uint256"
        },
        {
          "name": "lastUpdateTimestamp",
          "type": "uint256",
          "indexed": false,
          "internalType": "uint256"
        },
        {
          "name": "reportValidFromTimestamp",
          "type": "uint256",
          "indexed": false,
          "internalType": "uint256"
        }
      ],
      "anonymous": false
    },
    {
      "type": "event",
      "name": "ReportExpiresTooSoon",
      "inputs": [
        {
          "name": "perpId",
          "type": "uint256",
          "indexed": false,
          "internalType": "uint256"
        },
        {
          "name": "expiresAt",
          "type": "uint256",
          "indexed": false,
          "internalType": "uint256"
        },
        {
          "name": "minRequired",
          "type": "uint256",
          "indexed": false,
          "internalType": "uint256"
        }
      ],
      "anonymous": false
    },
    {
      "type": "event",
      "name": "ReportFromFuture",
      "inputs": [
        {
          "name": "perpId",
          "type": "uint256",
          "indexed": false,
          "internalType": "uint256"
        },
        {
          "name": "reportTimestamp",
          "type": "uint256",
          "indexed": false,
          "internalType": "uint256"
        },
        {
          "name": "blockTimestamp",
          "type": "uint256",
          "indexed": false,
          "internalType": "uint256"
        }
      ],
      "anonymous": false
    },
    {
      "type": "event",
      "name": "ReportPriceIsNegative",
      "inputs": [
        {
          "name": "perpId",
          "type": "uint256",
          "indexed": false,
          "internalType": "uint256"
        },
        {
          "name": "reportPrice",
          "type": "int256",
          "indexed": false,
          "internalType": "int256"
        }
      ],
      "anonymous": false
    },
    {
      "type": "event",
      "name": "TakerFeeUpdated",
      "inputs": [
        {
          "name": "perpId",
          "type": "uint256",
          "indexed": false,
          "internalType": "uint256"
        },
        {
          "name": "takerFeePer100K",
          "type": "uint256",
          "indexed": false,
          "internalType": "uint256"
        }
      ],
      "anonymous": false
    },
    {
      "type": "event",
      "name": "TakerOrderFilled",
      "inputs": [
        {
          "name": "entryPricePNS",
          "type": "uint256",
          "indexed": false,
          "internalType": "uint256"
        },
        {
          "name": "collatPricePNS",
          "type": "uint256",
          "indexed": false,
          "internalType": "uint256"
        },
        {
          "name": "pnlPricePNS",
          "type": "uint256",
          "indexed": false,
          "internalType": "uint256"
        },
        {
          "name": "lotLNS",
          "type": "uint256",
          "indexed": false,
          "internalType": "uint256"
        },
        {
          "name": "feeCNS",
          "type": "uint256",
          "indexed": false,
          "internalType": "uint256"
        },
        {
          "name": "amountCNS",
          "type": "int256",
          "indexed": false,
          "internalType": "int256"
        },
        {
          "name": "balanceCNS",
          "type": "uint256",
          "indexed": false,
          "internalType": "uint256"
        }
      ],
      "anonymous": false
    },
    {
      "type": "event",
      "name": "ToleranceAdministratorUpdated",
      "inputs": [
        {
          "name": "toleranceAdministrator",
          "type": "address",
          "indexed": false,
          "internalType": "address"
        },
        {
          "name": "added",
          "type": "bool",
          "indexed": false,
          "internalType": "bool"
        }
      ],
      "anonymous": false
    },
    {
      "type": "event",
      "name": "TransferAccountToProtocol",
      "inputs": [
        {
          "name": "accountId",
          "type": "uint256",
          "indexed": false,
          "internalType": "uint256"
        },
        {
          "name": "amountCNS",
          "type": "uint256",
          "indexed": false,
          "internalType": "uint256"
        },
        {
          "name": "balanceCNS",
          "type": "uint256",
          "indexed": false,
          "internalType": "uint256"
        }
      ],
      "anonymous": false
    },
    {
      "type": "event",
      "name": "TransferPerpInsToProtocol",
      "inputs": [
        {
          "name": "perpId",
          "type": "uint256",
          "indexed": false,
          "internalType": "uint256"
        },
        {
          "name": "amountCNS",
          "type": "uint256",
          "indexed": false,
          "internalType": "uint256"
        }
      ],
      "anonymous": false
    },
    {
      "type": "event",
      "name": "TransferPerpPosToProtocol",
      "inputs": [
        {
          "name": "perpId",
          "type": "uint256",
          "indexed": false,
          "internalType": "uint256"
        },
        {
          "name": "amountCNS",
          "type": "uint256",
          "indexed": false,
          "internalType": "uint256"
        }
      ],
      "anonymous": false
    },
    {
      "type": "event",
      "name": "TransferProtocolToAccount",
      "inputs": [
        {
          "name": "accountId",
          "type": "uint256",
          "indexed": false,
          "internalType": "uint256"
        },
        {
          "name": "amountCNS",
          "type": "uint256",
          "indexed": false,
          "internalType": "uint256"
        },
        {
          "name": "balanceCNS",
          "type": "uint256",
          "indexed": false,
          "internalType": "uint256"
        }
      ],
      "anonymous": false
    },
    {
      "type": "event",
      "name": "TransferProtocolToPerp",
      "inputs": [
        {
          "name": "perpId",
          "type": "uint256",
          "indexed": false,
          "internalType": "uint256"
        },
        {
          "name": "amountCNS",
          "type": "uint256",
          "indexed": false,
          "internalType": "uint256"
        },
        {
          "name": "toInsuranceFund",
          "type": "bool",
          "indexed": false,
          "internalType": "bool"
        }
      ],
      "anonymous": false
    },
    {
      "type": "event",
      "name": "TransferProtocolToRecycleBal",
      "inputs": [
        {
          "name": "amountCNS",
          "type": "uint256",
          "indexed": false,
          "internalType": "uint256"
        }
      ],
      "anonymous": false
    },
    {
      "type": "event",
      "name": "TriggerDescIdTooLow",
      "inputs": [
        {
          "name": "lastTriggerDescId",
          "type": "uint256",
          "indexed": false,
          "internalType": "uint256"
        }
      ],
      "anonymous": false
    },
    {
      "type": "event",
      "name": "TriggerOrderRequest",
      "inputs": [
        {
          "name": "triggerPricePNS",
          "type": "uint32",
          "indexed": false,
          "internalType": "uint32"
        },
        {
          "name": "triggerPriceCondition",
          "type": "uint8",
          "indexed": false,
          "internalType": "enum TriggerPriceConditionEnum"
        },
        {
          "name": "triggerRequestId",
          "type": "uint256",
          "indexed": false,
          "internalType": "uint256"
        },
        {
          "name": "triggerPositionId",
          "type": "uint256",
          "indexed": false,
          "internalType": "uint256"
        }
      ],
      "anonymous": false
    },
    {
      "type": "event",
      "name": "UnableToCancelOrder",
      "inputs": [
        {
          "name": "perpId",
          "type": "uint256",
          "indexed": false,
          "internalType": "uint256"
        },
        {
          "name": "orderId",
          "type": "uint256",
          "indexed": false,
          "internalType": "uint256"
        }
      ],
      "anonymous": false
    },
    {
      "type": "event",
      "name": "UnityDescentThreshUpdated",
      "inputs": [
        {
          "name": "perpId",
          "type": "uint256",
          "indexed": false,
          "internalType": "uint256"
        },
        {
          "name": "threshHdths",
          "type": "uint256",
          "indexed": false,
          "internalType": "uint256"
        }
      ],
      "anonymous": false
    },
    {
      "type": "event",
      "name": "UnspecifiedCollateral",
      "inputs": [],
      "anonymous": false
    },
    {
      "type": "event",
      "name": "UnwindCompleted",
      "inputs": [
        {
          "name": "perpId",
          "type": "uint256",
          "indexed": false,
          "internalType": "uint256"
        },
        {
          "name": "positionsUnwound",
          "type": "uint256",
          "indexed": false,
          "internalType": "uint256"
        },
        {
          "name": "perpPositionBalanceCNS",
          "type": "uint256",
          "indexed": false,
          "internalType": "uint256"
        },
        {
          "name": "insuranceBalanceCNS",
          "type": "uint256",
          "indexed": false,
          "internalType": "uint256"
        }
      ],
      "anonymous": false
    },
    {
      "type": "event",
      "name": "UnwindContractTrigger",
      "inputs": [
        {
          "name": "perpId",
          "type": "uint256",
          "indexed": false,
          "internalType": "uint256"
        }
      ],
      "anonymous": false
    },
    {
      "type": "event",
      "name": "UnwindInitializationCleared",
      "inputs": [
        {
          "name": "perpId",
          "type": "uint256",
          "indexed": false,
          "internalType": "uint256"
        }
      ],
      "anonymous": false
    },
    {
      "type": "event",
      "name": "UnwindInitialized",
      "inputs": [
        {
          "name": "perpId",
          "type": "uint256",
          "indexed": false,
          "internalType": "uint256"
        },
        {
          "name": "sumPositiveFmvCNS",
          "type": "uint256",
          "indexed": false,
          "internalType": "uint256"
        }
      ],
      "anonymous": false
    },
    {
      "type": "event",
      "name": "UnwindInsufficientBalance",
      "inputs": [
        {
          "name": "perpId",
          "type": "uint256",
          "indexed": false,
          "internalType": "uint256"
        },
        {
          "name": "accountId",
          "type": "uint256",
          "indexed": false,
          "internalType": "uint256"
        },
        {
          "name": "perpPositionBalanceCNS",
          "type": "uint256",
          "indexed": false,
          "internalType": "uint256"
        },
        {
          "name": "paymentCNS",
          "type": "uint256",
          "indexed": false,
          "internalType": "uint256"
        }
      ],
      "anonymous": false
    },
    {
      "type": "event",
      "name": "UnwindIterationCompleted",
      "inputs": [
        {
          "name": "perpId",
          "type": "uint256",
          "indexed": false,
          "internalType": "uint256"
        },
        {
          "name": "positionsUnwound",
          "type": "uint256",
          "indexed": false,
          "internalType": "uint256"
        },
        {
          "name": "perpPositionBalanceCNS",
          "type": "uint256",
          "indexed": false,
          "internalType": "uint256"
        },
        {
          "name": "insuranceBalanceCNS",
          "type": "uint256",
          "indexed": false,
          "internalType": "uint256"
        }
      ],
      "anonymous": false
    },
    {
      "type": "event",
      "name": "UnwindPreparationCleared",
      "inputs": [
        {
          "name": "perpId",
          "type": "uint256",
          "indexed": false,
          "internalType": "uint256"
        }
      ],
      "anonymous": false
    },
    {
      "type": "event",
      "name": "UnwindPrepared",
      "inputs": [
        {
          "name": "perpId",
          "type": "uint256",
          "indexed": false,
          "internalType": "uint256"
        }
      ],
      "anonymous": false
    },
    {
      "type": "event",
      "name": "UnwindProcessInProgress",
      "inputs": [
        {
          "name": "perpId",
          "type": "uint256",
          "indexed": false,
          "internalType": "uint256"
        }
      ],
      "anonymous": false
    },
    {
      "type": "event",
      "name": "UpdateOracleFailed",
      "inputs": [
        {
          "name": "perpId",
          "type": "uint256",
          "indexed": false,
          "internalType": "uint256"
        }
      ],
      "anonymous": false
    },
    {
      "type": "event",
      "name": "Upgraded",
      "inputs": [
        {
          "name": "implementation",
          "type": "address",
          "indexed": true,
          "internalType": "address"
        }
      ],
      "anonymous": false
    },
    {
      "type": "event",
      "name": "ValueExceedsMaximum",
      "inputs": [
        {
          "name": "value",
          "type": "uint256",
          "indexed": false,
          "internalType": "uint256"
        },
        {
          "name": "maximum",
          "type": "uint256",
          "indexed": false,
          "internalType": "uint256"
        }
      ],
      "anonymous": false
    },
    {
      "type": "event",
      "name": "WRLSMinWithdrawLimitUpdated",
      "inputs": [
        {
          "name": "limitCNS",
          "type": "uint256",
          "indexed": false,
          "internalType": "uint256"
        }
      ],
      "anonymous": false
    },
    {
      "type": "event",
      "name": "WRLSThousandthsTvlUpdated",
      "inputs": [
        {
          "name": "thousandthsTvl",
          "type": "uint256",
          "indexed": false,
          "internalType": "uint256"
        }
      ],
      "anonymous": false
    },
    {
      "type": "event",
      "name": "WhitelistAddress",
      "inputs": [
        {
          "name": "addr",
          "type": "address",
          "indexed": true,
          "internalType": "address"
        },
        {
          "name": "whitelisted",
          "type": "bool",
          "indexed": false,
          "internalType": "bool"
        }
      ],
      "anonymous": false
    },
    {
      "type": "event",
      "name": "WhitelistingEnabledChanged",
      "inputs": [
        {
          "name": "enabled",
          "type": "bool",
          "indexed": false,
          "internalType": "bool"
        }
      ],
      "anonymous": false
    },
    {
      "type": "event",
      "name": "WithdrawRateLimitBypassSet",
      "inputs": [
        {
          "name": "addr",
          "type": "address",
          "indexed": true,
          "internalType": "address"
        },
        {
          "name": "enabled",
          "type": "bool",
          "indexed": false,
          "internalType": "bool"
        }
      ],
      "anonymous": false
    },
    {
      "type": "event",
      "name": "WithdrawRateLimitForceReset",
      "inputs": [
        {
          "name": "newExpiryBlock",
          "type": "uint256",
          "indexed": false,
          "internalType": "uint256"
        },
        {
          "name": "newLimitCNS",
          "type": "uint256",
          "indexed": false,
          "internalType": "uint256"
        },
        {
          "name": "perBlockCNS",
          "type": "uint256",
          "indexed": false,
          "internalType": "uint256"
        }
      ],
      "anonymous": false
    },
    {
      "type": "event",
      "name": "WithdrawRateLimitReset",
      "inputs": [
        {
          "name": "newExpiryBlock",
          "type": "uint256",
          "indexed": false,
          "internalType": "uint256"
        },
        {
          "name": "newLimitCNS",
          "type": "uint256",
          "indexed": false,
          "internalType": "uint256"
        },
        {
          "name": "perBlockCNS",
          "type": "uint256",
          "indexed": false,
          "internalType": "uint256"
        }
      ],
      "anonymous": false
    },
    {
      "type": "event",
      "name": "WrongAccountForOrder",
      "inputs": [
        {
          "name": "perpId",
          "type": "uint256",
          "indexed": false,
          "internalType": "uint256"
        },
        {
          "name": "orderId",
          "type": "uint256",
          "indexed": false,
          "internalType": "uint256"
        },
        {
          "name": "accountId",
          "type": "uint256",
          "indexed": false,
          "internalType": "uint256"
        }
      ],
      "anonymous": false
    }
  ],
  "bytecode": {
    "object": "0x60a080604052346100dc57306080525f549060ff8260081c1661008a575060ff80821603610050575b6040516201be479081620000e1823960805181818161591101528181615d7d01526167770152f35b60ff90811916175f557f7f26b83ff96e1f2b6a682f133852f6798a09c465da95921460cefb3847402498602060405160ff8152a15f610028565b62461bcd60e51b815260206004820152602760248201527f496e697469616c697a61626c653a20636f6e747261637420697320696e697469604482015266616c697a696e6760c81b6064820152608490fd5b5f80fdfe610bc080604052600436101562000014575f80fd5b5f905f3560e01c908162092cce14620078fb575080630189a2b7146200787157806303cfe83c14620077c557806305aca141146200778f578063075367f614620076e55780630a039fbd146200769f5780630a2eb301146200765e5780630d3e87a714620076405780630e517f4114620075805780630f03e4c314620075545780631201415614620074935780631217be6714620074225780631275d14c14620073ed57806312e8eb2c146200733c57806316a0659314620072a957806316a483ea146200728b578063171a5b81146200701f578063182b01f21462006fd55780631973c6191462006f975780631df87ade1462006f2957806320c801d21462006e97578063229c24921462006df9578063252c35941462006d6e578063259d2aa61462006cdd5780632709b7461462006c49578063279289e91462006bbc5780632f32509b1462006ab557806332b9203b14620069f15780633659cfe6146200674c57806338ecd885146200667457806339435dac14620065e2578063396d7e4714620065a35780633a63dabe14620065855780633bf45a2f14620065445780634119f930146200650f57806343559bbf14620064cd57806345c8c92414620064325780634a9a415814620063a85780634b8344fb14620062df5780634d3282b414620062685780634d574c5614620061cd5780634d8dc98514620060195780634f1ef2861462005d3557806350ef5c351462005bc85780635180d5a814620059cd57806352d1902d14620058f557806354056119146200587b578063541b04e914620058195780635495086a14620057a957806358087a741462005724578063586d92ca14620056925780635b0c29eb146200566e5780635bf9264c14620056085780635e1a357314620055085780635f40c1f714620054a457806360ad17fd14620053455780636112fe2e146200523b57806361bd6f44146200514f578063653a6bd714620050f85780636728641b14620050a75780636825e9e5146200501e578063697521591462004ede5780636debf8fa1462004e8a578063715018a61462004e1d578063751de4211462004c47578063768f68551462004baa57806379609c111462004a325780637962f910146200492d57806379ba509714620048925780637cca3b06146200465d5780637d45678e14620045ba5780637dd7e75914620045825780637ddbdc2a14620044ba57806387c9505814620043f8578063893d20e81462003fae5780638a92464014620043225780638bc5b3c514620042ae5780638bcf1b2714620041595780638c031164146200408f5780638c1c2cef1462003fd65780638da5cb5b1462003fae5780638f3ffc851462003f1657806392f54b3a146200361e5780639a6d763014620035c95780639b170bd1146200358f5780639d2ec18814620034c25780639e430eda14620032b05780639fc8afd7146200321c5780639fffdfe214620031f5578063a5e9c4111462003136578063a87041d114620030f5578063a9bd5cee1462003033578063ae0d44421462002ff2578063af37c07d1462002eff578063b10824861462002e38578063b216d0d21462002dbb578063b5cd004e1462002d09578063b5fcf7621462002cdd578063b839a8c41462002c23578063ba53027d1462002bdf578063bad4a01f1462002b9d578063bbac6c95146200294f578063bbf979ac14620028b6578063be0783f51462002842578063be70473d1462002762578063bed97b7114620026fc578063c2852f38146200262c578063c4d66de81462002307578063c7ff158414620022de578063cab13915146200210d578063d360dd31146200209d578063d3b8c49d1462001ff2578063d541abc11462001f5a578063d6f34bd61462001edf578063d780ece81462001e54578063d8b442681462001e13578063d936547e1462001dd2578063dbfbf7e81462001d91578063dd0a3e2b1462001cce578063ddac1cde146200184a578063dec92b69146200182a578063e2e1cb57146200177f578063e30c39781462001756578063e548bb5714620016a3578063e5631c9e14620015d8578063e68073c3146200151c578063e74e2c9b14620014b9578063eaadbbef1462001492578063ebcf16561462001416578063ecdff22e146200130d578063ed6760fe146200121b578063edb1314e14620011e6578063efb62904146200111e578063f28b98f3146200107e578063f2fde38b1462001008578063f769f0d31462000f4f578063fb05acb7146200093c578063fb455f6b14620008cb5763fe37fe1214620006a3575f80fd5b34620008c857620006b43662007e50565b919081809381620006d5620006ca82956200a2cc565b92600984016200bad7565b508060108401915b620007075760408051888152602081018a90529081018690526060810187905280608081015b0390f35b825280602052604082205461ffff8160c81c169663ffffffff82169182855260d560205260ff604086205460a01c16620007418162007d94565b620008bd5764ffffffffff8160401c169260ff8260201c1690620007658262010087565b620007f4575b5063ffffffff620007806200078b92620100b5565b9260781c166200f820565b620007c05715620007aa578791620007a391620085cc565b96620006dd565b96948591620007b991620085cc565b94620006dd565b9798909715620007de578891620007d791620085cc565b97620006dd565b97958691620007ed91620085cc565b95620006dd565b865260128701602052604086206200080c8262007d94565b60028214905464ffffffffff8160b81c1691821515918262000854575b5050156200084757808511156200076b57935063ffffffff6200076b565b50505096809150620006dd565b9091508180620008a1575b821562000871575b50505f8062000829565b1591508162000884575b505f8062000867565b6001915060401c60ff16620008998162008099565b145f6200087b565b915060ff8160401c16620008b58162008099565b15916200085f565b5096809150620006dd565b80fd5b5034620008c857620008dd3662007e50565b919062ffffff83116200092257602092600c620008fe62000905936200a2cc565b016200ff76565b905f19821462000919575b50604051908152f35b90505f62000910565b5060449163c6ebaaa160e01b825260045262ffffff602452fd5b5034620008c8576200094e3662007e97565b60a09291925260c05233825260dc60205260ff6040832054161562000f3c57620009776200a748565b62000f2d576200098960c0516200a2cc565b9160ff835460c01c1660058110158062000f195760028214158062000f0b575b62000eeb5762000ed75760030362000e87575b6001600160501b03600384015416600484015460805260058401548454839163ffffffff601188015416925b8315158062000e7d575b1562000e705783865260128801602052604086209380875260d5602052604087209084865462000a7762000a628d60ff8560b81c169060ff8660b01c169064ffffffffff8660b81c169063ffffffff8760981c16908760e01c9060ff8960401c169063ffffffff8b16906200ba64565b50506001600160501b038360481c166200bdd7565b8a918280831362000c01575b9362000b459363ffffffff9362000b52979362000b589a99975f1462000b5e57917f2ce44e296cf9f36d06b56fb77dfebb744f984a66a7a32a9c1982adde5719a10893916001600160501b0361012094886040519560c051875289602088015216604086015262000afa60ff8260401c1662008099565b60ff8160401c166060860152888160981c16608086015264ffffffffff8160b81c1660a086015260481c1660c084015260e0830152610100820152a15b9854169760118d0162013573565b600560c05191016201367f565b62008b76565b620009e8565b610140927f8e75a224410b0b5b54b88738c69eb996a4225e1720432903a1b03693c3fcb6f894926001600160501b03808b541693896040519660c05188528a602089015216604087015262000bb960ff8260401c1662008099565b60ff8160401c166060870152898160981c16608087015264ffffffffff8160b81c1660a087015260481c1660c085015260e0840152610100830152610120820152a162000b37565b608051909450919250901562000e695762000c2a60805162000c24848a62008537565b6200858b565b80938b82115f1462000e2b575060019060a0511562000c705750938862000b5897969462000b459463ffffffff9462000b52985b9397999a509397509350935062000a83565b969a9b9d9c50505050509450507f8c6452308f4aa5da3dd7582bf4f08c41c0bd9378806d96ce939fbddad72bf926925062000cce9150604051918291878660c051859094939260609260808301968352602083015260408201520152565b0390a15b1562000d4e57600392909201805469ffffffffffffffffffff19166001600160501b0383811691909117918290556040805160c0518152602081019590955284019290925260501c1660608201527f2a562f7b66b9d232c3f7a19384fbcff970c9fec0f42ac7ef9ea592fbcb848d209080608081015b0390a180f35b60038301546040805160c05181526020810193909352820183905260501c6001600160501b0316606082018190529162000dc8917fa9b78fd50db3a3e2b070cb8d415b5a3cd12f80614e74626415f2bcf20ae81d0c9080608081015b0390a160038401805469ffffffffffffffffffff191690556200bbb4565b8062000e01575b50600581018290556004810182905560028101805469ffffffffffffffffffff19169055805460ff60c01b1916905580f35b60038201805469ffffffffffffffffffff60501b1916905562000e24906200bbb4565b5f62000dcf565b919294909a62000e418c8b92999896996200857d565b9b62000e4e90866200a9f6565b62000b589762000b529662000b459563ffffffff9562000c5e565b8a62000c2a565b9394969550505062000cd2565b50868110620009f2565b6001600160501b036003840162000eb982825460501c1669ffffffffffffffffffff60501b198354168355866200fd5c565b54166005840155600360c01b60ff60c01b19845416178355620009bc565b634e487b7160e01b82526021600452602482fd5b6313295a4960e11b835260c05160045260448362000f098462007d77565bfd5b5050816003821415620009a9565b634e487b7160e01b83526021600452602483fd5b630b15863d60e41b8252600482fd5b631d37e03560e31b825233600452602482fd5b5034620008c85762000f613662007e50565b62000f6e9291926200a748565b62000f2d5762000f7e336200a7b7565b80835260d56020526040832060ff815460a01c1662000f9d8162007d94565b8062000fe9575062000fc362000fb3866200a2cc565b9560ff875460c01c16906200a80f565b50821562000fda5762000fd793946200fd9b565b80f35b631fccd51f60e01b8452600484fd5b63e0860e5f60e01b85526024908590620010038162007d94565b600452fd5b5034620008c8576020366003190112620008c8576001600160a01b036200102e62007e39565b620010386200a31d565b16806001600160a01b031960655416176065556001600160a01b03603354167f38d16b8cac22d99fc7c124b9cd0de2d3fa1faef420bfe791d8c362d765e227008380a380f35b5034620008c8576020366003190112620008c8576004356200109f6200a31d565b6309c3d8f080821162001104575060c954620010ba6200a72c565b91612710613fff9104831b921b19161760c9557f8ad800de6b48db2a4430821a66e9ea34dee8c66fea63f8a83559bf91279cf77c6020620010fa6200afa8565b604051908152a180f35b60649291630c8f0a6960e41b835260045281602452604452fd5b5034620008c8576200114b600962001136366200807e565b9291620011459491946200a31d565b6200a2cc565b016200115883826200d522565b600282108015620011db575b620011bd5791604091837fbb5907b6810f0c2966db8e0939fbf4a19724f4e58e2bfd1d15195fdf8b4908a2945468ff000000000000000083861b169068ff0000000000000000191617905582519182526020820152a180f35b630c8f0a6960e41b8452600482905260026024526009604452606484fd5b506009821162001164565b5034620008c85780600319360112620008c85760209060c95490506c1fffffffffffffffffffffffff6040519160701c168152f35b5034620008c8576200122d3662007e50565b620012376200a31d565b62001242826200a2cc565b60018210801562001302575b620012e65760020160ff815460d81c1680831115620012cf575080547fffffff00ffffffffffffffffffffffffffffffffffffffffffffffffffffffff1660e083901b60ff60e01b161790556040805192835260208301919091527fb0459c2e01b889e7e78bb7d1400cb3049a1d98ef3d6949439b173c5ffba92dd191a180f35b630ba8360160e41b85526004526024829052604484fd5b60648483630c8f0a6960e41b8252600452600160245281604452fd5b50606482116200124e565b5034620008c8576060366003190112620008c8576004359060243560443567ffffffffffffffff811162001412576200134b9036906004016200837f565b33845260dc60205260ff60408520541615620013ff576200136b6200a748565b620013f0576103fc8511620013dc577f8197894e93a93f60bb4024782ca25f3402b91b549a53da47eae6287ce13d707393949162000d48916004620013b0866200a376565b018488526020528660408120556040519485948552602085015260606040850152606084019162009d7d565b63324f0d9160e21b84526004859052602484fd5b630b15863d60e41b8452600484fd5b631d37e03560e31b845233600452602484fd5b8280fd5b5034620008c8576020366003190112620008c857600435620014376200a748565b62000f2d5760407f25cb41632994165977216ca86070cf4f14c696e259419044e9d2de44c5955c5c916200146b336200a7b7565b600462001478826200a376565b01828652602052848381205582519182526020820152a180f35b5034620008c85762000fd7620014a83662007e50565b90620014b36200a31d565b62009e88565b5034620008c8577f6bf5f38f4e94f47ae7a4d6e56dbf388c856f890b5f0f2808b66914710b0266ca6040620014ee3662007e50565b620014f86200a31d565b6200150e8162001508846200a2cc565b6200d436565b82519182526020820152a180f35b5034620008c8576200152e3662007e97565b90620015396200a31d565b60c9546001600160701b0316818110620015c45750916060917fe3bcf60a5994e7328c2ddfbbf2c18d6e57c1cc69502d1ee3900c1e1f08ca555d936200157f836200a2cc565b6200158a826200a8c2565b818315620015b3576200159d916200fd78565b604051928352602083015215156040820152a180f35b620015be916200fd5c565b6200159d565b62fae2d560e21b8552600452602452604483fd5b5034620008c8576020366003190112620008c857600435620015f96200a31d565b62001604816200a2cc565b805460ff8160c01c1660058110156200168f5780620016735750916020916200165863ffffffff7f398693be005c0e64e1ef16ed7453155535d078a14ebb77360c1409b8e6f63c209560c81c16836200fd40565b600160c01b60ff60c01b19825416179055604051908152a180f35b8462000f0960449286630d76efe360e41b845260045262007d77565b634e487b7160e01b85526021600452602485fd5b5034620008c8576020366003190112620008c85760043567ffffffffffffffff8111620017525736602382011215620017525780600401359067ffffffffffffffff821162001412573660248360061b83010111620014125733835260da60205260ff604084205416156200173f576200171c6200a748565b620017305790602462000fd7920162009f97565b630b15863d60e41b8352600483fd5b63a37849fb60e01b835233600452602483fd5b5080fd5b5034620008c85780600319360112620008c85760206001600160a01b0360655416604051908152f35b5034620008c857620017913662007e50565b6200179b6200a31d565b620017a6826200a2cc565b600281015461ffff8160c81c1680841015620017ee57857f9c6091bfb36035e2973fb3ad5c07d8c5d74d0981770feea276a41c4221246f0e604087876200150e81896200d46b565b6040516322b85af560e11b8152600481018690526024810185905260b89290921c61ffff908116604484015216606482015280608481015b0390fd5b5034620008c85780600319360112620008c857602060cd54604051908152f35b5034620008c8576200185c3662007e97565b6101009291925261012052620018716200a31d565b6200187f610120516200a2cc565b9160ff835460c01c1660058110158062000f195760028214158062001cc0575b62001ca15762000ed75760030362001c51575b6001600160501b03600384015416600484015460e05260058401548454839163ffffffff601188015416925b8315158062001c47575b1562001c3a5783865260128801602052604086209380875260d560205260408720908486546200195862000a628d60ff8560b81c169060ff8660b01c169064ffffffffff8660b81c169063ffffffff8760981c16908760e01c9060ff8960401c169063ffffffff8b16906200ba64565b8a918280831362001a4a575b93620019da9363ffffffff9362000b529793620019e89a99975f14620019ee57917f2ce44e296cf9f36d06b56fb77dfebb744f984a66a7a32a9c1982adde5719a10893916001600160501b036101209488604051958751875289602088015216604086015262000afa60ff8260401c1662008099565b60056101205191016201367f565b620018de565b610140927f8e75a224410b0b5b54b88738c69eb996a4225e1720432903a1b03693c3fcb6f894926001600160501b03808b54169389604051966101205188528a602089015216604087015262000bb960ff8260401c1662008099565b60e051909450919250901562001c335762001a6d60e05162000c24848a62008537565b80938b82115f1462001bf55750600190610100511562001ab457509388620019e8979694620019da9463ffffffff9462000b52985b9397999a509397509350935062001964565b969a9b9d9c50505050509450507f8c6452308f4aa5da3dd7582bf4f08c41c0bd9378806d96ce939fbddad72bf926925062001b139150604051918291878661012051859094939260609260808301968352602083015260408201520152565b0390a15b1562001b9357600392909201805469ffffffffffffffffffff19166001600160501b03838116919091179182905560408051610120518152602081019590955284019290925260501c1660608201527f2a562f7b66b9d232c3f7a19384fbcff970c9fec0f42ac7ef9ea592fbcb848d2090806080810162000d48565b6003830154604080516101205181526020810193909352820183905260501c6001600160501b0316606082018190529162000dc8917fa9b78fd50db3a3e2b070cb8d415b5a3cd12f80614e74626415f2bcf20ae81d0c90806080810162000daa565b919294909a62001c0b8c8b92999896996200857d565b9b62001c1890866200a9f6565b620019e89762000b5296620019da9563ffffffff9562001aa2565b8a62001a6d565b9394969550505062001b17565b50868110620018e8565b6001600160501b036003840162001c8382825460501c1669ffffffffffffffffffff60501b198354168355866200fd5c565b54166005840155600360c01b60ff60c01b19845416178355620018b2565b6313295a4960e11b83526101205160045260448362000f098462007d77565b50508160038214156200189f565b5034620008c8576040366003190112620008c8577fe38e0dbe12c2dcb6ba8e96202e2cdd922095935e5ca1105ddf9e86c7f79df76662001d0d62007e39565b62001d1762007e67565b9062001d226200a31d565b811562001d6e576001600160a01b038116845260dd60205260408420805460ff191660011790555b604080516001600160a01b0390921682529115156020820152908190810162000d48565b6001600160a01b038116845260dd60205260408420805460ff1916905562001d4a565b5034620008c8576020366003190112620008c85760ff60406020926001600160a01b0362001dbe62007e39565b16815260dc84522054166040519015158152f35b5034620008c8576020366003190112620008c85760ff60406020926001600160a01b0362001dff62007e39565b16815260e084522054166040519015158152f35b5034620008c8576020366003190112620008c85760ff60406020926001600160a01b0362001e4062007e39565b16815260db84522054166040519015158152f35b5034620008c8576020366003190112620008c85760043562001e756200a31d565b60018110801562001ed4575b62001eb8576020817fc6edc4969138bba547ff56e984b415e7a1ec1181d6199d6946c48e3a858906369260ce55604051908152a180f35b63034bd7dd60e31b8252600160045260fa602452604452606490fd5b5060fa811162001e81565b5034620008c8576020366003190112620008c85760043562001f006200a31d565b64e8d4a51000811162001f3f576020817f0fface2454d594caf83c2c1b1f8da428b41a8585fcf72713ea6ce39cd6cba9fc9260cd55604051908152a180f35b6395d41f3f60e01b825260045264e8d4a51000602452604490fd5b5034620008c85762001f6c3662007f22565b9092919233835260da60205260ff604084205416156200173f5762001f906200a748565b62001730576103fc841162001fde5783835260d9602052604083209362001fb7856200a938565b62001fcc5750600962000fd79394016200f7ce565b63b934a7fb60e01b8452600452602483fd5b63324f0d9160e21b83526004849052602483fd5b5034620008c8576040366003190112620008c8576004359067ffffffffffffffff8211620008c85736602383011215620008c857816004013567ffffffffffffffff811162001752573660248260071b8501011162001752576200205562007e67565b9033835260dc60205260ff604084205416156200208a57620020766200a748565b6200173057602462000fd793940162009ed0565b631d37e03560e31b835233600452602483fd5b5034620008c8576020366003190112620008c8577fa9a3e53f31ef1464015e1b64897b819880bcc9787e25987d6d4336f3613ade2660206001600160a01b03620020e662007e39565b620020f06200a31d565b16806001600160a01b031960ca54161760ca55604051908152a180f35b5034620008c8576020366003190112620008c8576004356200212e6200cda5565b620021386200a748565b62000f2d5733825260df60205260ff604083205416620022cb5760ff60e1541680620022b3575b620022a05760cd5481106200228a5733825260d660205260408220548062002274575060d7549060018201808311620022605763ffffffff8111620022515790602093620022449260d75583815260d585528360406001818420019283546bffffffffffffffffffffffff80193360601b16911617845533815260d68852205563ffffffff8085161663ffffffff198254161790557f7325fb14450d3e5eb288c620b4ff1d6b43a41b33b4a4f143ae88cd4c12f99ea3604051806200223b863383602090939291936001600160a01b0360408201951681520152565b0390a16200d7e1565b6001609755604051908152f35b634e5bb58160e01b8452600484fd5b634e487b7160e01b84526011600452602484fd5b630c8c12bd60e31b835233600452602452604482fd5b630cfe73bb60e41b825233600452602452604490fd5b636f8bf18b60e11b825233600452602482fd5b5033825260e060205260ff604083205416156200215f565b6371fa9c9960e01b825233600452602482fd5b5034620008c85780600319360112620008c8576020620022fd6200a748565b6040519015158152f35b5034620008c8576020366003190112620008c8576200232562007e39565b815460ff8160081c1615918280936200261e575b801562002605575b156200259a5760ff19821660011784556001600160a01b03918362002588575b501690816001600160a01b031960cb54161760cb5560405163313ce56760e01b8152602081600481865afa80156200257d57849062002535575b60ff915016916006830362002519576305f5e10060cd55600160d7819055606460ce5564e8d4a5100060d35560e1805460ff1916909117905560c980547ffffffff8001fffffffffffffffffffffffffffffffffffffffffffffffffffff167b0140000000000000000000000000000000000000000000000000000017905583547f7b1f94d30e47df15616bc31716546ce84737fcf471dff8cd336c68fb810d7e6f91610100916200245e9060081c60ff1662002458816200f75b565b6200f75b565b62002469336200d26f565b8554946200248d60ff8760081c1662002482816200f75b565b62002458816200f75b565b600160975560cd5460ce5460d35490620024a66200a7eb565b9260ff60e154169460405196338852602088015260408701526060860152608085015260a084015260c0830152151560e0820152a1620024e4575080f35b61ff00191681557f7f26b83ff96e1f2b6a682f133852f6798a09c465da95921460cefb3847402498602060405160018152a180f35b630f30f42960e01b845260045260248290526006604452606483fd5b506020813d60201162002574575b816200255260209383620082e3565b8101031262002570575160ff81168103620025705760ff906200239b565b8380fd5b3d915062002543565b6040513d86823e3d90fd5b61ffff19166101011784555f62002361565b60405162461bcd60e51b815260206004820152602e60248201527f496e697469616c697a61626c653a20636f6e747261637420697320616c72656160448201527f647920696e697469616c697a65640000000000000000000000000000000000006064820152608490fd5b50303b158015620023415750600160ff83161462002341565b50600160ff83161062002339565b5034620008c8576020366003190112620008c85733815260da60205260ff60408220541615620026e957620026606200a748565b620026da57620026726004356200a2cc565b60ff815460c01c16600581101562000f195760041462002690575080f35b604061ffff60027f2bf3500d8e3b78624f68716bdcfccb30df6b6ef393561a3ffa32e8d357ac7e439360ff60c01b198154168155015460a81c16815190815260016020820152a180f35b630b15863d60e41b8152600490fd5b63a37849fb60e01b815233600452602490fd5b5034620008c85780600319360112620008c857620027196200a31d565b8060cf558060d0558060d1558060d2557f4a1c1830c45941cc05cf110c5d7424a3e493f0e42be2522c05ab26c0221062cf6060604051838152836020820152836040820152a180f35b5034620008c85762002774366200803d565b9033845260da60205260ff604085205416156200282f5790918215159190845b828110620027a0578580f35b806001600160a01b03620027c2620027bc600194878762009e24565b62009e35565b16875260e0602052620027e486604089209060ff801983541691151516179055565b6001600160a01b03620027fd620027bc83878762009e24565b167f33e0bf3ce98fac4118d5a0a8fe49e83b6acdfdef32871c9eca20e1528d7701ba6020604051888152a20162002794565b63a37849fb60e01b845233600452602484fd5b5034620008c8576020366003190112620008c857600435620028636200a31d565b6309c3d8f080821162001104575060c954612710613fff920460d51b9160d51b19161760c9557f4151e59ddd8ffe35ce0b539f837d353ed0ff884e058b715910c7f4688a5da7366020620010fa6200a7eb565b5034620008c8576080366003190112620008c85733815260dc60205260ff604082205416156200293c57620028ea6200a748565b620026da57620028fc6004356200a2cc565b6200291b61ffff600283015460a81c1660ff835460c01c16906200a80f565b506064358015158103620014125762000fd79160443590602435906200f2eb565b631d37e03560e31b815233600452602490fd5b5034620008c8576040366003190112620008c8576004359067ffffffffffffffff8211620008c85736602383011215620008c85781600401359067ffffffffffffffff8211620008c857602483019036602460c0850286010111620008c857620029b862007e67565b91620029c36200a748565b62000f2d57620029d3336200a7b7565b9485835260d560205260ff604084205460a01c16620029f28162007d94565b8062002b835750841562002b6f5781359262002a0e846200a2cc565b9060ff825460c01c1660ff600184015460d01c169033835260de60205260ff60408420541694835b8a81101562002b6b578062002b1f575b62002a538a848b6200a843565b62002b1657898c8a8a6040810135801562002b0857888062002aff575b62002aa657918160019695938c60a062002a9f979501359460808401359460206060860135950135926200d906565b0162002a36565b5050505062002ae7576001907f4cd1188857d86056fa3ff56966c92f1f952217fe7328696137d42b1043a5d91c604080518c8152336020820152a162002a9f565b63099a231160e31b8552600489905233602452604485fd5b508b1562002a70565b505050505060019062002a9f565b60019062002a9f565b60c08102820160240197508735808a0362002b3c575b5062002a46565b9850925093505062002b4e866200a2cc565b9260ff845460c01c169060ff600186015460d01c16925f62002b35565b8480f35b634e487b7160e01b83526032600452602483fd5b63e0860e5f60e01b84526024908490620010038162007d94565b5034620008c8576020366003190112620008c85762002bbb6200cda5565b62002bc56200a748565b620026da5762002bd76004356200d7e1565b600160975580f35b5034620008c85762002bf13662007e50565b9033835260da60205260ff604084205416156200173f5762002c126200a748565b62001730579062000fd79162009e88565b5034620008c85762002c353662007e50565b62002c3f6200a31d565b614e20811162002cc157816040916200150e62002c7d7f29246c8aee392e4f61a964c88192adac4afc12ed286fcbd7698783763467475f956200a2cc565b80547fffffffffffffffffffffffff0000ffffffffffffffffffffffffffffffffffff16609084901b73ffff00000000000000000000000000000000000016179055565b60649291634dcc027160e11b8352600452602452614e20604452fd5b5034620008c85780600319360112620008c85760209060c95490506001600160701b0360405191168152f35b5034620008c8576020366003190112620008c85760043562002d2a6200a31d565b62002d35816200a2cc565b60ff815460c01c16600581101562002da7576001810362002d8b57507fc5ed7f880900879a894e28cc520c997b23650b24b94faf0b7a4e9621b09dec8b9160209160ff60c01b198154169055604051908152a180f35b8362000f0960449285637edd2a1d60e01b845260045262007d77565b634e487b7160e01b84526021600452602484fd5b5034620008c8576080366003190112620008c85760443567ffffffffffffffff8111620017525762002df290369060040162007eee565b9062002dfd62007e87565b9233815260dc60205260ff604082205416156200293c5762002e1e6200a748565b620026da576020620022fd85858560243560043562009e4a565b5034620008c85762002e4a366200803d565b9033845260da60205260ff604085205416156200282f5790918215159190845b82811062002e76578580f35b806001600160a01b0362002e92620027bc600194878762009e24565b16875260df60205262002eb486604089209060ff801983541691151516179055565b6001600160a01b0362002ecd620027bc83878762009e24565b167f78ba4d4e021eac2ff3a6a2337dc61ca2b49986705a2438b5764b9c18bd1c25fd6020604051888152a20162002e6a565b5034620008c85762002f113662007e50565b919062002f1d6200a31d565b62002f28816200a2cc565b60018410801562002fe7575b62002fcb5760020160ff815460d81c168085101562002fb4575080547fffff00ffffffffffffffffffffffffffffffffffffffffffffffffffffffffff1660e885901b60ff60e81b1617905560408051918252602082018490527fbe36b3b0b7a3a58d54c694996c6aadba93761ca8210af4d6b72115c02aa210e491a180f35b63291eed9d60e01b84526004859052602452604483fd5b60648385630c8f0a6960e41b8252600452600160245281604452fd5b506064841162002f34565b5034620008c8576020366003190112620008c85760ff60406020926001600160a01b036200301f62007e39565b16815260de84522054166040519015158152f35b5034620008c8576040366003190112620008c8577f6259c67b83c17d274bef178edcf79755337c12fdc6de65b955b5ab3f95e82e056200307262007e39565b6200307c62007e67565b90620030876200a31d565b8115620030d2576001600160a01b038116845260db60205260408420805460ff19166001179055604080516001600160a01b0390921682529115156020820152908190810162000d48565b6001600160a01b038116845260db60205260408420805460ff1916905562001d4a565b5034620008c8576020366003190112620008c85760ff60406020926001600160a01b036200312262007e39565b16815260dd84522054166040519015158152f35b5034620008c857620031483662007e50565b620031526200a31d565b6200315d826200a2cc565b60ff815460c01c1660058110156200168f5760018103620031d9575091818360409360047f7101921841f3f86b1db94836f0b095d276833a7b6669c5d7628161978ae7e686960155780200000000000000000000000000000000000000000000000060ff60c01b1982541617905582519182526020820152a180f35b8462000f0960449286634d3d766360e01b845260045262007d77565b5034620008c85780600319360112620008c8576020620032146200af82565b604051908152f35b5034620008c85760a0366003190112620008c8576200323a62007e25565b906200324562007e87565b608435908115158203620014125733835260db60205260ff604084205416156200329d57620032736200a748565b620017305762000fd7929363ffffffff620032906004356200a2cc565b911690602435906200c82a565b636dfc4d6160e11b835233600452602483fd5b5034620008c8576040366003190112620008c857600435620032d162007e67565b620032db6200a31d565b620032e6826200a2cc565b90815460ff8160c01c1693620032fd85826200d6a4565b508215809581966200349a575b506200339a575b5050156200339257825b600581101562002da7579161ffff6002837f2bf3500d8e3b78624f68716bdcfccb30df6b6ef393561a3ffa32e8d357ac7e439560ff60c01b1978ff000000000000000000000000000000000000000000000000604097549260c01b169116178155015460a81c16908251918252156020820152a180f35b60046200331b565b600284015460f01c60ff1662003474576001600160a01b0360ca54168015801562003467575b62003447575063ffffffff8260401c16156200343557505b63ffffffff8160c81c1615620033f0575b8062003311565b63ffffffff60c81b197cffffffff0000000000000000000000000000000000000000000000000062003422436200d790565b91505060c81b1691161782555f620033e9565b630c5eed9d60e11b8652600452602485fd5b6006850154631744ee4f60e31b8852600492909252602452604452606485fd5b50600685015415620033c0565b63ffffffff821615620034885750620033d8565b63136618cd60e01b8652600452602485fd5b90506005811015620034ae57155f6200330a565b634e487b7160e01b87526021600452602487fd5b5034620008c857620034d43662007e50565b620034de6200a31d565b620034e9826200a2cc565b620186a08211620035745780547cffffffffffffffffffffffffffffffffffffffffffffffffffffffffff1660e883901b7fffffff0000000000000000000000000000000000000000000000000000000000161790556040805192835260208301919091527f95e1172237a02916c6d5aba284d04aa4e02e876b0c666387d62f03d0cd77719a91a180f35b6395d41f3f60e01b84526004829052620186a0602452604484fd5b5034620008c857620035a13662007e50565b919062ffffff83116200092257602092600c620035c262000905936200a2cc565b016200d581565b5034620008c8577f672c0a156ee23d5a79ee89b233d6d30458115eabf152fb294cb8a894eadeeb116040620035fe3662007e50565b620036086200a31d565b6200150e8162003618846200a2cc565b6200d4ae565b3462003f125761014036600319011262003f125760043567ffffffffffffffff811162003f1257620036559036906004016200837f565b60243567ffffffffffffffff811162003f1257620036789036906004016200837f565b909160443592606435926084359060a435906101043561012435916200369d6200a31d565b620036a76200cda5565b6050871162003edb576010811162003ea3576103fc891162003e9057885f5260d960205260405f2096620036db886200a938565b62003e7d576006620036ee8688620085cc565b1162003e5257600788019a67ffffffffffffffff821162003d9557620037158c54620083b0565b601f811162003e1e575b505f90601f831160011462003db5576200375192915f918362003da9575b50508160011b915f199060031b1c19161790565b8a555b600887019567ffffffffffffffff821162003d9557620037758754620083b0565b601f811162003d55575b505f90601f831160011462003cec57620037b092915f918362003ce05750508160011b915f199060031b1c19161790565b85555b60028601805461ffff60a81b191660a88a901b61ffff60a81b161781559360ff60c01b1987541687556006811162003cc95786546006851162003cb1577fffffffffffffffff0000ffffffffffffffffffffffffffffffffffffffffffff76ff0000000000000000000000000000000000000000000077ff00000000000000000000000000000000000000000000008760b81b169360b01b169116171786556200386060c435876200d20d565b6200386e60e435876200d436565b8181101562003c9c5790620038886200388f92876200d46b565b856200d3d5565b6200389a8162009cf5565b80620f42400290620f424082040362003c5257620038b990856200d4ae565b81547fffff000000ffffffffffffffffffffffffffffffffffffffffffffffffffffff167d555f5a000000000000000000000000000000000000000000000000000000178255600a84018054600986019291901562003c7c575b5063feffffff80871162003c665750815463ffffffff871663ffffffff1990911617825584546001860180547affffffffffffffffffffffffffffffffffffffffffffffffffffff167f09000000640000000000000000000000000000000000000000000000000000001781557fffffffffffffffffffff00000000ffffffffffffffffffffffffffffffffffff909116743c138800000000000000000000000000000000000017865583547427100000000000000000000000000000000000000061ffff60981b1990911617845561d8ef9261ffff90620039f685826200d522565b805468ff000000000000000019166802000000000000000017905586547cffffffffffffffffffffffffffffffffffffffffffffffffffffffffff16610c3560ec1b17875581547a010061a80061a80061a801731800823500823500000000000000007fffffffffff00000000000000000000000000000000000000ffffffffffffffff90911617825560d85462003aa29062003a939062008b76565b978860d8555495549362009cf5565b9182620f42400292620f424084040362003c525754956040519a8b9a8b5260208b016103e090526103e08b0162003ad99162009d9d565b8a810360408c015262003aec9162009d9d565b9762003b0360608b0160ff60c089901c1662007d86565b60808a01528460b01c60ff1660a08a01528460b81c60ff1660c08a0152808360781c1660e08a0152808360881c166101008a0152808360b81c166101208a01528260c81c166101408901526101608801526101808701605a90526101a08701605f905260e81c60ff166101c08701526101e0860161138890526102008601606490526102208601600990526102408601603c9052610260860161271090526102808601526102a085016002905260e81c6102c08501528060401c62ffffff166102e08501528060581c62ffffff166103008501528060d01c60ff1615156103208501528060701c62ffffff166103408501528060881c62ffffff166103608501528060a01c62ffffff1661038085015260b81c62ffffff166103a08401526103c0830152037fd78b2274f0f8c5fb36f3464d4fc273e80ba45dde960a535eeacf3c1ae42c4e3c91a16001609755005b634e487b7160e01b5f52601160045260245ffd5b866395d41f3f60e01b5f5260045260245260445ffd5b5f1990555f8052600b850160205260405f20600181541790558862003913565b6322e659c160e11b5f5260045260245260445ffd5b846395d41f3f60e01b5f52600452600660245260445ffd5b6395d41f3f60e01b5f52600452600660245260445ffd5b013590508c806200373d565b601f19831691885f5260205f20925f5b81811062003d3c575090846001959493921062003d22575b505050811b018555620037b3565b01355f19600384901b60f8161c191690558b808062003d14565b9193602060018192878701358155019501920162003cfc565b62003d8390885f5260205f20601f850160051c8101916020861062003d8a575b601f0160051c019062009d04565b8b6200377f565b909150819062003d75565b634e487b7160e01b5f52604160045260245ffd5b013590508d806200373d565b601f198316918d5f5260205f20925f5b81811062003e05575090846001959493921062003deb575b505050811b018a5562003754565b01355f19600384901b60f8161c191690558c808062003ddd565b9193602060018192878701358155019501920162003dc5565b62003e4b908d5f5260205f20601f850160051c8101916020861062003d8a57601f0160051c019062009d04565b8c6200371f565b60848a86886040519263bc42e62760e01b845260048401526006602484015260448301526064820152fd5b8963c401953760e01b5f5260045260245ffd5b8863324f0d9160e21b5f5260045260245ffd5b604051631ffb247760e11b81526060600482015290819062003eca60648301828a62009d7d565b906024830152601060448301520390fd5b60405163ab94bf3960e01b815260606004820152808862003f0160648301828f62009d7d565b906024830152605060448301520390fd5b5f80fd5b3462003f1257604036600319011262003f125760043560243567ffffffffffffffff811162003f125762003f4f9036906004016200835e565b335f5260db60205260ff60405f2054161562003f9b5762003f6f6200a748565b62003f8c578162003f8462003f8a936200a2cc565b6200cbc2565b005b630b15863d60e41b5f5260045ffd5b636dfc4d6160e11b5f523360045260245ffd5b3462003f12575f36600319011262003f125760206001600160a01b0360335416604051908152f35b3462003f1257602036600319011262003f125762003ff66004356200a376565b8054908160f01c90620040098262008b1d565b91600263ffffffff5f9560b01c169201915b8015158062004085575b1562004075575f528160205263ffffffff60405f2062004069620040498762008b76565b96620040558362008b85565b620040618289620086e3565b5286620086e3565b505460201c166200401b565b6040518062000703868262007fa1565b5081851062004025565b3462003f1257620040a03662007e50565b620040aa6200a31d565b620040b5826200a2cc565b600281015461ffff8160c81c16808410801562004147575b62004110577f258cfea0edc89c1ba4ce7d75bd475712ab2a06ce19794e2193cbd64f182a3f78604086866200410381886200d3d5565b82519182526020820152a1005b60405163be5707cb60e01b8152600481018690526024810185905261ffff918216604482015260b89290921c166064820152608490fd5b5061ffff8260b81c16841115620040cd565b3462003f1257602036600319011262003f12575f80808060043543811015620041a7575b50906200070391604051948594859094939260609260808301968352602083015260408201520152565b935050505060cf549060d1549160d25460d054908484115f146200426757505050905061217b810180821162003c52579061085f810180911162003c52576103e8620041f960ce5460cc549062008537565b0460d3548082115f146200425f57505b61217b810461217b81029181159282810461217b1484171562003c525762004231916200857d565b61085f82029282840461085f14171562003c525762000703926200425591620085cc565b925b90916200417d565b905062004209565b8084116200427d575b6200070392935062004257565b62000703926200429d8362004297620042a494886200857d565b62008537565b90620085cc565b9283925062004270565b3462003f12575f36600319011262003f125760c060cc5460c9546001600160701b03906c1fffffffffffffffffffffffff6001600160a01b0360cb5416916001600160a01b0360ca5416936040519586528116602086015260701c16604084015260066060840152608083015260a0820152f35b3462003f1257602036600319011262003f1257600435620043426200a31d565b60c9546001600160701b0316808211620043e4575060cc54808211620043cf577ffbebce9e66eea6596d62b805af61b4b1ea406128e73ffb928faa091b17d524f960208362004391816200cf4d565b6200439c816200a8c2565b620043aa8160cc546200857d565b60cc55620043c6816001600160a01b0360cb541633906200d103565b604051908152a1005b6303dc938760e61b5f5260045260245260445ffd5b62fae2d560e21b5f5260045260245260445ffd5b3462003f1257604036600319011262003f12577f184fbff1cd7a3d3af1fd538263d79328e135402c70c68de9b795ee4fcc0440bc6200443662007e39565b6200444062007e67565b906200444b6200a31d565b811562004497576001600160a01b0381165f5260da60205260405f20600160ff198254161790555b604080516001600160a01b039092168252911515602082015290819081015b0390a1005b6001600160a01b0381165f5260da60205260405f2060ff19815416905562004473565b3462003f1257604036600319011262003f12577ffe982a540a46b78ba39fe94b2fec322414acda6ca69e165520017d474e0dee486060620044fa62007e39565b6200450462007e67565b6200450e6200a31d565b62004519826200a7b7565b81156200455f576001600160a01b0383165f5260de60205260405f20600160ff198254161790555b6001600160a01b0360405193168352602083015215156040820152a1005b6001600160a01b0383165f5260de60205260405f2060ff19815416905562004541565b3462003f12576040620045ab620045a56200459d3662007e50565b91906200a2cc565b6200d2e1565b82519160050b82526020820152f35b3462003f1257620045cb3662007e50565b90335f5260dd60205260ff60405f205416156200464a57620045ec6200a748565b62003f8c57614e2082116200462f57807f29246c8aee392e4f61a964c88192adac4afc12ed286fcbd7698783763467475f926200410362002c7d6040946200a2cc565b634dcc027160e11b5f52600452602452614e2060445260645ffd5b6338095ba560e21b5f523360045260245ffd5b3462003f1257602036600319011262003f12576004356200467d6200a31d565b62004688816200a2cc565b90600282015464ffffffffff811615908115916200487d575b5080156200484e575b6200483c5761ffff600983015460201c168062004826577fc1c33d1bd4abb6d1a8ed08f6a49cdf51c1db8b81ce6810a713fcd0291cc63f97602083856001600160501b03600382018181541680620047d9575b505460501c1690816200478b575b5050805f5260d982525f601160408220828155826001820155826002820155826003820155826004820155826005820155826006820155620047506007820162009d1c565b6200475e6008820162009d1c565b82600982015582600a82015582600c82015501556200477f60d85462009d70565b60d855604051908152a1005b81620047bb7f6cbcbbf194e245478b88cdee7b07dd6402cf492bcef0df03eae198637a072474936040936200c375565b620047c6816200bbb4565b81519084825285820152a183806200470b565b604081620048097f9adf439943034ba500551cd8e7417ea8cafa00933026f4e8e3612c01524d637793876200d2c5565b62004814816200bbb4565b81519087825288820152a186620046fd565b9063e47393c360e01b5f5260045260245260445ffd5b631bb9ae6f60e11b5f5260045260245ffd5b5060ff825460c01c16600581101562004869571515620046aa565b634e487b7160e01b5f52602160045260245ffd5b64ffffffffff915060281c16151583620046a1565b3462003f12575f36600319011262003f1257336001600160a01b036065541603620048c25762003f8a336200d26f565b60405162461bcd60e51b815260206004820152602960248201527f4f776e61626c6532537465703a2063616c6c6572206973206e6f74207468652060448201527f6e6577206f776e657200000000000000000000000000000000000000000000006064820152608490fd5b3462003f1257602036600319011262003f12576200494a62007e77565b620049546200a748565b62003f8c5762004964336200a7b7565b90815f5260d560205260405f209182549260ff8460a01c1693620049888562007d94565b8462004a14577f743a9ef374d6b3c905b8fd725a33cc63980a202108bfd3cbf65e94a23640a02e94507fffffffffffffffffffff00ffffffffffffffffffffffffffffffffffffffffff75ff00000000000000000000000000000000000000000085151560a81b1691161790556200449260405192839283909291602090604083019483521515910152565b63e0860e5f60e01b5f528462004a2a8162007d94565b60045260245ffd5b3462003f125762004a43366200807e565b62004a4d6200a31d565b60098110801562004b9f575b62004b835762004a698162009cf5565b808311801562004b75575b62004b3f575091620044927fca21b8a8b8d11b0faf46a19341a9e5fa3d668a48778efaff9fbec48fa21e5df093600162004aae846200a2cc565b0180547affffffffffffffffffffffffffffffffffffffffffffffffffffff1660d886901b7effffffff000000000000000000000000000000000000000000000000000000161760f883901b7fff0000000000000000000000000000000000000000000000000000000000000016179055604080519384526020840194909452928201929092529081906060820190565b905063ffffffff81101562004b6857915b6377b084bf60e11b5f5260045260245260445260645ffd5b5063ffffffff9162004b50565b5063ffffffff831162004a74565b633361596f60e11b5f526004526009602452602460445260645ffd5b506024811162004a59565b3462003f1257602036600319011262003f125760043567ffffffffffffffff811162003f12573660238201121562003f1257806004013567ffffffffffffffff811162003f12573660248260091b8401011162003f1257335f5260dc60205260ff60405f2054161562004c345762004c216200a748565b62003f8c57602462003f8a920162009aad565b631d37e03560e31b5f523360045260245ffd5b3462003f125762004c6f62004c5c3662007e50565b919062004c6862008f97565b506200a2cc565b815f526012810160205260405f20916040519262004c8d846200826f565b549263ffffffff84168152602081019163ffffffff8560201c16835260ff8560401c1694604083019562004cc18162008099565b865260608301956001600160501b038260481c1687526080840163ffffffff8360981c16815260a085019164ffffffffff8460b81c16835260c086019360e01c845262004d0e886200ba19565b505050968715988962004e0d575b926101a09a83869363ffffffff64ffffffffff8162004dad9f9e9d9b9862004d7e8f839f9c8c859f8c8888806001600160501b0399519562004d5e8762008099565b51169251169251169284549560ff808860b81c169760b01c16956200ba64565b9f919d909e511695511695519662004d968862008099565b5116965116965116965116966040519d8e62008251565b8d5260208d015260408c015262004dc48162008099565b60608b015260808a015260a089015260c088015260e087015261010086015261012085015261014084015262004dfe6040518094620080a4565b61016083015215610180820152f35b805463ffffffff16985062004d1c565b3462003f12575f36600319011262003f125762004e396200a31d565b6001600160a01b0319606554166065555f6001600160a01b036033546001600160a01b03198116603355167f8be0079c531659141344cd1fd0a4f28419497f9722a3daafe3b4186f6b6457e08280a3005b3462003f12577f8e37539629486a88c6a6083eb90030fb61cb856d56d96f53a326fda0d399ef32604062004ebe3662007e50565b62004ec86200a31d565b620041038162004ed8846200a2cc565b6200d20d565b3462003f1257604036600319011262003f125760043562004efe62007e67565b62004f086200a31d565b62004f13826200a2cc565b916002830180549360ff8560f01c168062005015575b62004fa3575b507f8ac110193a47d8207dd88897368f2031dd31bfea6bcfd9a2b3ea6759e81c4e14937fff00ffffffffffffffffffffffffffffffffffffffffffffffffffffffffffff60ff60f01b85151560f01b1691161790556200449260405192839283909291602090604083019483521515910152565b6001600160a01b0360ca54168015801562005008575b62004fe957505460401c63ffffffff161562004fd6578462004f2f565b50630c5eed9d60e11b5f5260045260245ffd5b60068492015491631744ee4f60e31b5f5260045260245260445260645ffd5b5060068201541562004fb9565b50831562004f29565b3462003f125760c06200503f6002620050373662007e50565b92906200a2cc565b015461ffff8160b81c169164ffffffffff8260501c168261ffff6200508160ff849660d81c16948560ff8560e01c1697889264ffffffffff8716908b6200d1de565b9160405196875260c81c16602086015260408501526060840152608083015260a0820152f35b3462003f1257602036600319011262003f12576060620050c96004356200a2cc565b60ff815460c01c16906005600482015491015490620050ec604051809462007d86565b60208301526040820152f35b3462003f12576200510f6009620050373662007e50565b0162ffffff8211620051355760409162005129916200bad7565b82519182526020820152f35b5063c6ebaaa160e01b5f5260045262ffffff60245260445ffd5b3462003f1257602036600319011262003f12576004356200516f6200a748565b62003f8c576200517f336200a7b7565b90815f5260d560205260405f209160ff835460a01c16620051a08162007d94565b60028114620052265750620044926001600160501b0384620051e4857f2687926b167b6633deaaa80c3d106be87c0530fbc9ecba972ef8da4a3f2c489b976200ce1d565b50620051f185826200d0ea565b620051fc856200bbb4565b5416604051938493849160409194936001600160501b039160608501968552602085015216910152565b63e0860e5f60e01b5f5262004a2a8162007d94565b3462003f1257602036600319011262003f12576004356200525b6200cda5565b620052656200a748565b62003f8c5762005275336200a7b7565b90815f5260d560205260405f209160ff835460a01c16620052968162007d94565b80620052265750620052a982846200ce1d565b5060cc548083116200532e5750620053246001600160501b037f8a087568cf2efa04e1e6c72c7f61b68a1ac013d6a33bd6e978e1ba2b4efc04d494620052ef856200cf4d565b620052fb85826200d0ea565b620053098560cc546200857d565b60cc55620051fc85336001600160a01b0360cb54166200d103565b0390a16001609755005b90506303dc938760e61b5f5260045260245260445ffd5b3462003f125762005356366200807e565b91620053616200a31d565b6200536c816200a2cc565b620053788484620085cc565b90620186a082116200547a57620186a08411620054605760010180546affffff00000000000000001916604085901b6affffff000000000000000016178155620186a08511620054465780546dffffff00000000000000000000001916605886901b6dffffff000000000000000000000016179055620186a090810390811162003c52577f61c468e821b1662263e339e465b2b8aa3c36b504f804ffac4a19ad8eae3df813936200449291604051948594859094939260609260808301968352602083015260408201520152565b846395d41f3f60e01b5f52600452620186a060245260445ffd5b836395d41f3f60e01b5f52600452620186a060245260445ffd5b6084838686604051926334af053b60e21b8452600484015260248301525f60448301526064820152fd5b3462003f1257602036600319011262003f12577f4837c28a17fa53b7af0fe87d3e7cf2a681119d768391e182ed4dfd33497e288f6020620054e462007e77565b620054ee6200a31d565b151560ff1960e1541660ff82161760e155604051908152a1005b3462003f12576200551d62004c5c3662007e50565b61ffff8211620055eb576010915f520160205261016060405f2061ffff60405191620055498362008251565b5463ffffffff8116835260ff8160201c16620055658162007d94565b602084015262ffffff8160281c16604084015264ffffffffff8160401c166060840152818160681c16608084015263ffffffff8160781c1660a0840152818160981c1660c0840152818160a81c1660e0840152818160b81c16610100840152818160c81c1661012084015260d81c16610140820152620055e960405180926200813c565bf35b50630c8f0a6960e41b5f526004525f60245261ffff60445260645ffd5b3462003f1257602036600319011262003f125760043567ffffffffffffffff811162003f12576200563e90369060040162007eee565b335f5260db60205260ff60405f2054161562003f9b576200565e6200a748565b62003f8c5762003f8a916200995e565b3462003f12575f36600319011262003f1257602060ff60e154166040519015158152f35b3462003f1257620056a33662007e50565b90620056ae6200a31d565b620056b9816200a2cc565b6001600160501b03600382015460501c168381106200570e577f6cbcbbf194e245478b88cdee7b07dd6402cf492bcef0df03eae198637a072474604084866200570381876200c375565b62004103816200bbb4565b839062fae2d560e21b5f5260045260245260445ffd5b3462003f1257602036600319011262003f12577fb405a09f729f41978995eba596767f10784a912a3e8d56a978e5e167c1b23d7d60206200576462007e77565b6200576e6200a31d565b60c9548115620057a1576001905b600160ff6200578a6200a73e565b9316831b921b19161760c9556040519015158152a1005b5f906200577c565b3462003f125760a036600319011262003f1257620057c662007e25565b60643561ffff8116810362003f125760843590600282101562003f1257335f5260dc60205260ff60405f2054161562004c3457620058036200a748565b62003f8c5762003f8a9260243560043562009570565b3462003f1257604036600319011262003f12576200583662007e11565b335f5260db60205260ff60405f2054161562003f9b57620058566200a748565b62003f8c5762003f8a9063ffffffff620058726004356200a2cc565b9116906200a583565b3462003f1257602036600319011262003f12577f06d9a2e5d1f47e8b66c517104114f36514593b09c9b90cb622a6883e595d4bcd6020600435620058be6200a31d565b620058c9816200bbb4565b620058d78160cc54620085cc565b60cc55620043c6816001600160a01b0360cb5416309033906200bbcc565b3462003f12575f36600319011262003f12576001600160a01b037f0000000000000000000000000000000000000000000000000000000000000000163003620059625760206040517f360894a13ba1a3210667c828492db98dca3e2076cc3735a920a3ca505d382bbc8152f35b60405162461bcd60e51b815260206004820152603860248201527f555550535570677261646561626c653a206d757374206e6f742062652063616c60448201527f6c6564207468726f7567682064656c656761746563616c6c00000000000000006064820152608490fd5b3462003f1257620059de366200811d565b620059eb9391936200a31d565b620059f6826200a2cc565b62005a0d8262005a078787620085cc565b620085cc565b90620186a0821162005b9557620186a08511620054465760010180547fffffffffffffffffffffffff000000ffffffffffffffffffffffffffffffffff16608886901b73ffffff000000000000000000000000000000000016178155620186a0861162005b7b5780547fffffffffffffffffff000000ffffffffffffffffffffffffffffffffffffffff1660a087901b76ffffff000000000000000000000000000000000000000016178155620186a0831162005b615780547fffffffffffff000000ffffffffffffffffffffffffffffffffffffffffffffff79ffffff0000000000000000000000000000000000000000000000808660b81b16169116179055620186a00390620186a0821162003c52577f58735d184c71d18d22f8f2eb43be3e299cad7d465faac909163477072a58f9e99460a0946040519485526020850152604084015260608301526080820152a1005b826395d41f3f60e01b5f52600452620186a060245260445ffd5b856395d41f3f60e01b5f52600452620186a060245260445ffd5b5050604051631121702960e01b815260048101929092526024820192909252604481018390526064810191909152608490fd5b3462003f1257602036600319011262003f12575f61010060405162005bed8162008233565b8281528260208201528260408201528260608201528260808201528260a08201528260c08201528260e08201520152600162005c2b6004356200a2cc565b015462ffffff8160401c1662ffffff8260581c169162005c4c8383620085cc565b620186a00392620186a0841162003c525762ffffff8260881c1662ffffff8360a01c1662ffffff8460b81c169162005c8a8362005a078484620085cc565b620186a00393620186a0851162003c5257610120976040519162005cae8362008233565b888352602083019081526040830191825260ff610100606085019462ffffff8b60701c1686526080810196875260a0810197885260c0810198895260e08101998a52019860d01c16151588526040519889525160208901525160408801525160608701525160808601525160a08501525160c08401525160e0830152511515610100820152f35b604036600319011262003f125762005d4c62007e39565b60243567ffffffffffffffff811162003f125762005d6f9036906004016200835e565b62005ddd6001600160a01b037f00000000000000000000000000000000000000000000000000000000000000001662005dab8130141562008bf8565b6001600160a01b037f360894a13ba1a3210667c828492db98dca3e2076cc3735a920a3ca505d382bbc54161462008c6b565b62005de76200a31d565b7f4910fdfa16fed3260ed0e7147f7cc6da11a60208b5b9406d12a635614ffd91435460ff161562005e1e575062003f8a9062010b5b565b6040516352d1902d60e01b81526001600160a01b03831690602081600481855afa5f918162005fdf575b5062005eaa5760405162461bcd60e51b815260206004820152602e60248201527f45524331393637557067726164653a206e657720696d706c656d656e7461746960448201526d6f6e206973206e6f74205555505360901b6064820152608490fd5b7f360894a13ba1a3210667c828492db98dca3e2076cc3735a920a3ca505d382bbc0362005f885762005edc8362010b5b565b7fbc7cd75a20ee27fd9adebab32041f755214dbc6bffa90cc0225b39da2e5c2d3b5f80a280511580159062005f7f575b62005f1357005b62003f8a915f806040519362005f2b606086620082e3565b602785527f416464726573733a206c6f772d6c6576656c2064656c65676174652063616c6c6020860152660819985a5b195960ca1b6040860152602081519101845af462005f7862014f7b565b916201a01d565b50600162005f0c565b60405162461bcd60e51b815260206004820152602960248201527f45524331393637557067726164653a20756e737570706f727465642070726f786044820152681a58589b195555525160ba1b6064820152608490fd5b9091506020813d60201162006010575b8162005ffe60209383620082e3565b8101031262003f125751908562005e48565b3d915062005fef565b3462003f12576101e036600319011262003f12576200603762008644565b50620060426200a748565b62003f8c5762006052336200a7b7565b805f5260d560205260405f209060ff825460a01c16620060728162007d94565b80151580620061b5575b6200522657506024359062006091826200a2cc565b9060443593600785101562003f125760e4358015159081810362003f12575061010435948515159586810362003f12575061012435908115159788830362003f1257604098620061a3987f02d2bf39d2355aaa5486487e934403fd3ba3f88c73ab71938cee11931fddeb7b9561022095506200612d5a948d519687528a60208801526004358e8801526064356060880152608087019062009a9f565b60843560a086015260a43560c086015260c43560e08601526101008501526101208401526101408301526101443561016083015261016435610180830152610184356101a08301526101a4356101c08301526101c4356101e0830152610200820152a161ffff600284015460781c16926200ab67565b60208251918051835201516020820152f35b50604435600781101562003f1257600414156200607c565b3462003f1257602036600319011262003f1257600435620061ed6200a31d565b64e8d4a510008110801562006258575b62006233576020817f2407f52a609c844e44dbad3e5a8ec9347e6aa702684e124256f81ef7504b9d1b9260d355604051908152a1005b63747693eb60e11b5f5264e8d4a51000600452655af3107a400060245260445260645ffd5b50655af3107a40008111620061fd565b3462003f1257620062876200627d366200811d565b9291909162009332565b9060405190604082019260408352815180945260206060840192015f945b808610620062bb57505082935060208301520390f35b9092602061016082620062d260019488516200813c565b01940195019490620062a5565b3462003f1257620062f03662007ebc565b90335f5260da60205260ff60405f205416156200639557620063116200a748565b62003f8c57620063218262007d94565b811562006386577f287a1a0be47186fe812cf10628edc8c56638095124099fea05c3e3f59e3a0dc691620063576040926200a7b7565b90815f5260d56020526200636e81845f20620085da565b82519182526200637e8162007d94565b6020820152a1005b633f068f8760e11b5f5260045ffd5b63a37849fb60e01b5f523360045260245ffd5b3462003f1257620063c4620063bd366200807e565b9162008fea565b610b4051610b6051919290604051926080840194608085528351809652602060a0860194015f965b8088106200640e57505084955060208501526040840152151560608301520390f35b9094602061016082620064256001948a51620080a4565b01960197019690620063ec565b3462003f1257620064433662007e50565b906200644e6200a31d565b62006459816200a2cc565b620186a0831162005b6157600101805470ffffff00000000000000000000000000001916607084901b70ffffff0000000000000000000000000000161790556040805191825260208201929092527f82af0435eb6aa1e7cd302eaf1f32e10e8d7bb8e96d1f724a6006fbaa4571890f9190a1005b3462003f1257620064de366200803d565b90335f5260dc60205260ff60405f2054161562004c3457620064ff6200a748565b62003f8c5762003f8a9262008e7b565b3462003f1257602036600319011262003f1257602061ffff6002620065366004356200a2cc565b015460781c16604051908152f35b3462003f1257602036600319011262003f12576001600160a01b036200656962007e39565b165f5260df602052602060ff60405f2054166040519015158152f35b3462003f12575f36600319011262003f12576020620032146200afa8565b3462003f1257602036600319011262003f125760406009620065c76004356200a2cc565b015460ff82519161ffff8160301c168352831c166020820152f35b3462003f1257604036600319011262003f125760043567ffffffffffffffff811162003f12573660238201121562003f125780600401359067ffffffffffffffff821162003f12573660246101e084028301011162003f12576200664562007e67565b6200664f6200a748565b62003f8c576200070392602462006667930162008d16565b6040519182918262007f5a565b3462003f1257602036600319011262003f1257620066946004356200a2cc565b600a8101549061202060405191620066ad8284620082e3565b61010083526020830191601f1901368337600b81015f5b610100811062006729575050600961ffff91015460201c166040519260608401948452606060208501525180945260808301915f945b8086106200671057505082935060408301520390f35b90926020806001928651815201940195019490620066fa565b806001915f528260205260405f2054620067448288620086e3565b5201620066c4565b3462003f1257602036600319011262003f12576200676962007e39565b620067a56001600160a01b037f00000000000000000000000000000000000000000000000000000000000000001662005dab8130141562008bf8565b620067af6200a31d565b604051906020620067c18184620082e3565b5f8352808301601f1982013682377f4910fdfa16fed3260ed0e7147f7cc6da11a60208b5b9406d12a635614ffd91435460ff16156200680857505062003f8a915062010b5b565b6001600160a01b03839293166040516352d1902d60e01b81528481600481855afa5f9181620069bc575b50620068945760405162461bcd60e51b815260048101869052602e60248201527f45524331393637557067726164653a206e657720696d706c656d656e7461746960448201526d6f6e206973206e6f74205555505360901b6064820152608490fd5b7f360894a13ba1a3210667c828492db98dca3e2076cc3735a920a3ca505d382bbc036200696557620068c68362010b5b565b7fbc7cd75a20ee27fd9adebab32041f755214dbc6bffa90cc0225b39da2e5c2d3b5f80a28351158015906200695d575b620068fd57005b5f809162003f8a957f416464726573733a206c6f772d6c6576656c2064656c65676174652063616c6c6040519662006937606089620082e3565b60278852870152660819985a5b195960ca1b60408701525190845af462005f7862014f7b565b505f620068f6565b60405162461bcd60e51b815260048101859052602960248201527f45524331393637557067726164653a20756e737570706f727465642070726f786044820152681a58589b195555525160ba1b6064820152608490fd5b9091508581813d8311620069e9575b620069d78183620082e3565b8101031262003f125751908762006832565b503d620069cb565b3462003f1257604036600319011262003f12577ffff8b0b240abf69d0ca9160bd7dcc49339068496d45e0bf7aab7468fc6a6c2c760043562006a3262007e67565b9062006a3d6200a31d565b600162006a4a826200a2cc565b0180547fffffffffff00ffffffffffffffffffffffffffffffffffffffffffffffffffff7aff000000000000000000000000000000000000000000000000000085151560d01b1691161790556200449260405192839283909291602090604083019483521515910152565b3462003f125762006ac63662007e50565b62006ad06200a31d565b62006adb826200a2cc565b60018210801562006bb1575b62006b945760020160ff815460e01c168083101562006b7e5781547fffffffff00ffffffffffffffffffffffffffffffffffffffffffffffffffffff1660d884901b7bff0000000000000000000000000000000000000000000000000000001617825560408051858152602081018590527ff4b59dd9ee04b23a163fa42f622d424f19a1cc0f76d4455f900106cef0e3c5129190a1005b82630ba8360160e41b5f5260045260245260445ffd5b50630c8f0a6960e41b5f526004526001602452606460445260645ffd5b506064821162006ae7565b3462003f1257602036600319011262003f125760043562006bdc6200a31d565b6309c3d8f080821162006c2f575060c95460e391612710613fff9104831b921b19161760c9557fcd3426b08e2946f33fe401b723f71049867976631425553ecf95848fc4b088a96020620043c66200af82565b90630c8f0a6960e41b5f526004525f60245260445260645ffd5b3462003f125762006c6662006c5e3662007e50565b91906200a376565b905f526003810160205260405f20549061ffff8260401c169062006c8a8262008b1d565b91600263ffffffff5f95169201915b8015158062006cd3575b1562004075575f528160205263ffffffff60405f2062006cc7620040498762008b76565b505460201c1662006c99565b5081851062006ca3565b3462003f1257602036600319011262003f125760043567ffffffffffffffff811162003f12573660238201121562003f125780600401359067ffffffffffffffff821162003f12573660246102c084028301011162003f1257335f5260da60205260ff60405f20541615620063955762006d566200a748565b62003f8c57620007039160246200666792016200870c565b3462003f1257604036600319011262003f125762006d8b62007e39565b7f8b91d2cd88f6e870c2beaa65e6299f6dee33511ff403ab0ffb32f926e3a9a28360206001600160a01b0362006dc062007e67565b9362006dcb6200a31d565b1692835f5260d4825262006dee8160405f209060ff801983541691151516179055565b6040519015158152a2005b3462003f125762006e0a3662007e50565b62006e146200a31d565b60c9546001600160701b0316818110620043e4575062006e34826200a376565b9160ff835460a01c1662006e488162007d94565b60028114620052265750620044926001600160501b037f85b48f5618e9d5b21320fb47ad01cfbf4f739a3e7f7950a445c97099d578911e9462006e8b856200a8c2565b620051fc85826200a9f6565b3462003f125762006ea83662007f22565b90335f5260da60205260ff60405f20541615620063955762006ec96200a748565b62003f8c576103fc831162006f1657825f5260d960205260405f209262006ef0846200a938565b62006f045750600962003f8a93016200a95f565b63b934a7fb60e01b5f5260045260245ffd5b8263324f0d9160e21b5f5260045260245ffd5b3462003f1257602036600319011262003f125760043562006f496200a31d565b60c9546001600160701b0316818110620043e4577f3926c691232881614240a3ec84f5910abdac662ecb616cf8ab9b9fe44d932bc860208362006f8c816200a8c2565b620043c6816200a8eb565b3462003f1257602036600319011262003f12576040601162006fbb6004356200a2cc565b015463ffffffff825191818116835260201c166020820152f35b3462003f12577f287a1a0be47186fe812cf10628edc8c56638095124099fea05c3e3f59e3a0dc66040620063576200700d3662007ebc565b9190620070196200a31d565b6200a7b7565b3462003f1257620070303662007e97565b90916200703c6200a748565b62003f8c576200704c336200a7b7565b9162007058836200a376565b9060ff825460a01c166200706c8162007d94565b806200522657506200707e836200a2cc565b6200709160ff825460c01c16856200a80f565b5060028101546064620070d264ffffffffff808416818560281c168082115f146200728357505b169260ff64ffffffffff8260501c169160e81c1662008537565b0490818110156200726a5750506001600160501b0386116200724c57601290855f520160205260405f209364ffffffffff855460b81c16156200723657607842019283421162003c52577fd990ce6190d58ffb8c06ec564b7ebdac6a21afe5b067513aba6cbf478ccac6e9966101009663ffffffff64ffffffffff961694604051906200715f8262008216565b868252602082016001600160501b0385168152600460408401921515968784528b5f520160205263ffffffff8060405f209451161663ffffffff1984541617835551906dffffffffffffffffffff000000006eff000000000000000000000000000084549251151560701b169260201b16906effffffffffffffffffffff00000000191617179055549360ff8560401c16936040519788526020880152604087015260608601526080850152620072168162008099565b60a084015263ffffffff8160981c1660c084015260b81c1660e0820152a1005b836334a4033d60e11b5f5260045260245260445ffd5b856395d41f3f60e01b5f526004526001600160501b0360245260445ffd5b8563a086029960e01b5f5260045260245260445260645ffd5b9050620070b8565b3462003f12575f36600319011262003f12576020620032146200a7eb565b3462003f1257620072ba3662007e50565b90620072c56200a31d565b613a9882116200732157807f70df7db68793145153f083606826dfc0e51ef634e3d99f5a8ff74d7fd27405e69262004103620073036040946200a2cc565b600201805461ffff60981b1916609884901b61ffff60981b16179055565b631b71514f60e11b5f52600452602452613a9860445260645ffd5b3462003f1257602036600319011262003f125762000703620073726200736162007e39565b6200736b62008497565b506200a7b7565b620073db600562007383836200a376565b805460ff8160a01c166001600160501b03600184015460601c9260405197620073ac89620081f9565b8852818116602089015260501c166040870152620073ca8162007d94565b6060860152608085015201620084ec565b60a08201526040519182918262007d9f565b3462003f1257602036600319011262003f1257602061ffff6002620074146004356200a2cc565b015460881c16604051908152f35b3462003f1257620074333662007e50565b335f5260da60205260ff60405f205416156200639557620074536200a748565b62003f8c578181620041036040936200748d7fa04001d82f77cdc968e0f2d5a478c76bb47ca32033001fe324c0f1bf89446ecd966200a376565b6200a75e565b3462003f1257604036600319011262003f12577f44f632293c2bd117a0d277a1057b0a5495dfbd57d2e3636bb80f0912ee6d0ba9620074d162007e39565b620074db62007e67565b90620074e66200a31d565b811562007531576001600160a01b0381165f5260dc60205260405f20600160ff19825416179055604080516001600160a01b0390921682529115156020820152908190810162004492565b6001600160a01b0381165f5260dc60205260405f2060ff19815416905562004473565b3462003f12575f36600319011262003f125760d7545f19810190811162003c5257602090604051908152f35b3462003f1257620075913662007e50565b6200759b6200a31d565b61012c80821162007627577fd947284a0ec09f0204c4d87a28d7f12ae5979a8c58b1456b5aa2c5066f97329560408484620075d6826200a2cc565b80547fffffffffffffffffffff0000ffffffffffffffffffffffffffffffffffffffff1660a083901b75ffff00000000000000000000000000000000000000001617905582519182526020820152a1005b916335d09a8f60e21b5f5260045260245260445260645ffd5b3462003f12575f36600319011262003f1257602060405161217b8152f35b3462003f1257602036600319011262003f12576001600160a01b036200768362007e39565b165f5260da602052602060ff60405f2054166040519015158152f35b3462003f1257604036600319011262003f125762003f8a620076c062007e11565b620076ca6200a31d565b63ffffffff620076dc6004356200a2cc565b9116906200a3e6565b3462003f1257602036600319011262003f1257600435620077056200a31d565b62007710816200a2cc565b60ff815460c01c16600581101562004869576002810362007770577fd92eee87539b24ad02a6f03980106354cd078a3eb9c2c4257685215063c61ecd602084845f6004820155600160c01b60ff60c01b19825416179055604051908152a1005b6313295a4960e11b5f5260048390526200778a9062007d77565b60445ffd5b3462003f1257602036600319011262003f125762000703600435620077b362008497565b50620073db600562007383836200a376565b3462003f1257604036600319011262003f1257600435602435620077e86200a31d565b620077f3826200a2cc565b60ff815460c01c1660058110156200486957806200785757506001600160a01b0360ca5416801562004fe9577f9c03c6796385c736172929a88c5f8c4fc7c287d6df80c75f290d4f18ca9ece726040858580600687015582519182526020820152a1005b630d76efe360e41b5f5260048490526200778a9062007d77565b3462003f1257602036600319011262003f1257600435620078916200a31d565b60ff6200789e826200a2cc565b5460c01c166005811015620048695760028103620078e3577f5fa123d2cd3b174872bde6224d3ecc37811a5b365b5c481672f7ff0cb5bfd6c4602083604051908152a1005b6200778a916313295a4960e11b5f5260045262007d77565b3462003f1257602036600319011262003f12576103a0816200791e5f93620081db565b60608152606060208201528260408201528260608201528260808201528260a08201528260c08201528260e08201528261010082015282610120820152826101408201528261016082015282610180820152826101a0820152826101c0820152826101e08201528261020082015282610220820152826102408201528261026082015282610280820152826102a0820152826102c0820152826102e082015282610300820152826103208201528261034082015282610360820152826103808201520152620079ef6004356200a2cc565b805460068201549060018301549063ffffffff6003850154926001600160501b0360028701549460098801549662007a4860086040519a62007a318c620081db565b62007a3f60078201620083eb565b8c5201620083eb565b60208a015260ff8660b01c1660408a015260ff8660b81c1660608a0152608089015261ffff8560901c1660a0890152838360d81c1660c08901528260f81c60e089015261ffff8560a01c1661010089015281811661012089015260501c16610140870152818316610160870152818360201c166101808701528181166101a087015260201c166101c085015263ffffffff8160401c166101e085015263ffffffff8160601c1661020085015264ffffffffff821661022085015264ffffffffff8260281c1661024085015263ffffffff8160c81c166102608501528060801c60010b61028085015261ffff8260981c166102a0850152600560ff8260c01c161015620048695760ff928361ffff9260c01c166102c086015263ffffffff81166102e086015262ffffff8160781c1661030086015262ffffff8160901c1661032086015262ffffff8160481c1661034086015262ffffff8160601c1661036086015260201c1661038084015260f01c1615156103a08201526040518091602082526103a062007c0062007be983516103c060208701526103e086019062007d53565b6020840151858203601f1901604087015262007d53565b916040810151606085015260608101516080850152608081015160a085015260a081015160c085015260c081015160e085015260e08101516101008501526101008101516101208501526101208101516101408501526101408101516101608501526101608101516101808501526101808101516101a08501526101a08101516101c08501526101c08101516101e08501526101e081015161020085015261020081015161022085015261022081015161024085015261024081015161026085015261026081015161028085015261028081015160010b6102a08501526102a08101516102c085015262007cff6102c08201516102e086019062007d86565b6102e081015161030085015261030081015161032085015261032081015161034085015261034081015161036085015261036081015161038085015261038081015182850152015115156103c08301520390f35b805180835260209291819084018484015e5f828201840152601f01601f1916010190565b60058110156200486957602452565b906005821015620048695752565b600411156200486957565b919091610100606060a06101208401958051855260208101516020860152604081015160408601528281015162007dd68162007d94565b838601526001600160a01b0360808201511660808601520151805160a0850152602081015160c0850152604081015160e08501520151910152565b6024359063ffffffff8216820362003f1257565b6044359063ffffffff8216820362003f1257565b600435906001600160a01b038216820362003f1257565b604090600319011262003f12576004359060243590565b60243590811515820362003f1257565b60043590811515820362003f1257565b60643590811515820362003f1257565b606090600319011262003f12576004359060243590604435801515810362003f125790565b604090600319011262003f12576004356001600160a01b038116810362003f125790602435600481101562003f125790565b9181601f8401121562003f125782359167ffffffffffffffff831162003f12576020808501948460051b01011162003f1257565b90604060031983011262003f1257600435916024359067ffffffffffffffff821162003f125762007f569160040162007eee565b9091565b60206040818301928281528451809452019201905f5b81811062007f7e5750505090565b825180518552602090810151818601526040909401939092019160010162007f70565b60206040818301928281528451809452019201905f5b81811062007fc55750505090565b909192602060c06001926001600160501b0360a0885163ffffffff815116845263ffffffff86820151168685015263ffffffff60408201511660408501526060810151620080138162007d94565b606085015260808181015164ffffffffff169085015201511660a082015201940192910162007fb7565b604060031982011262003f12576004359067ffffffffffffffff821162003f12576200806c9160040162007eee565b9091602435801515810362003f125790565b606090600319011262003f1257600435906024359060443590565b600211156200486957565b61014080918051845260208101516020850152604081015160408501526060810151620080d18162008099565b60608501526080810151608085015260a081015160a085015260c081015160c085015260e081015160e08501526101008101516101008501526101208101516101208501520151910152565b608090600319011262003f125760043590602435906044359060643590565b61ffff610140809263ffffffff815116855260208101516200815e8162007d94565b602086015262ffffff604082015116604086015264ffffffffff606082015116606086015282608082015116608086015263ffffffff60a08201511660a08601528260c08201511660c08601528260e08201511660e086015282610100820151166101008601528261012082015116610120860152015116910152565b6103c0810190811067ffffffffffffffff82111762003d9557604052565b60c0810190811067ffffffffffffffff82111762003d9557604052565b6060810190811067ffffffffffffffff82111762003d9557604052565b610120810190811067ffffffffffffffff82111762003d9557604052565b610160810190811067ffffffffffffffff82111762003d9557604052565b60e0810190811067ffffffffffffffff82111762003d9557604052565b6080810190811067ffffffffffffffff82111762003d9557604052565b6040810190811067ffffffffffffffff82111762003d9557604052565b60a0810190811067ffffffffffffffff82111762003d9557604052565b90601f8019910116810190811067ffffffffffffffff82111762003d9557604052565b67ffffffffffffffff811162003d9557601f01601f191660200190565b929192620083318262008306565b91620083416040519384620082e3565b82948184528183011162003f12578281602093845f960137010152565b9080601f8301121562003f12578160206200837c9335910162008323565b90565b9181601f8401121562003f125782359167ffffffffffffffff831162003f12576020838186019501011162003f1257565b90600182811c92168015620083e0575b6020831014620083cc57565b634e487b7160e01b5f52602260045260245ffd5b91607f1691620083c0565b9060405191825f8254926200840084620083b0565b80845293600181169081156200847357506001146200842b575b506200842992500383620082e3565b565b90505f9291925260205f20905f915b8183106200845657505090602062008429928201015f6200841a565b60209193508060019154838589010152019101909184926200843a565b9050602092506200842994915060ff191682840152151560051b8201015f6200841a565b60405190620084a682620081f9565b815f81525f60208201525f60408201525f60608201525f608082015260a060405191620084d3836200828c565b5f83525f60208401525f60408401525f60608401520152565b90604051620084fb816200828c565b6060600382948054845260018101546020850152600281015460408501520154910152565b9060308202918083046030149015171562003c5257565b8181029291811591840414171562003c5257565b6102fc1981019190821162003c5257565b6101fc1981019190821162003c5257565b60fc1981019190821162003c5257565b9190820391821162003c5257565b811562008596570490565b634e487b7160e01b5f52601260045260245ffd5b600101908160011162003c5257565b62ffffff01908162ffffff1162003c5257565b9190820180921162003c5257565b90620085e68162007d94565b7fffffffffffffffffffffff00ffffffffffffffffffffffffffffffffffffffff74ff000000000000000000000000000000000000000083549260a01b169116179055565b67ffffffffffffffff811162003d955760051b60200190565b604051906200865382620082a9565b5f6020838281520152565b906200866a826200862b565b620086796040519182620082e3565b82815280926200868c601f19916200862b565b01905f5b8281106200869d57505050565b602090604051620086ae81620082a9565b5f81525f838201528282850101520162008690565b35801515810362003f125790565b3563ffffffff8116810362003f125790565b8051821015620086f85760209160051b010190565b634e487b7160e01b5f52603260045260245ffd5b62008717826200865e565b80511562008ae5578215620086f8578193604083016060840135936200873d856200a2cc565b925f5b8781101562008aaf578062008a70575b889081356200876186828b6200aa22565b805f5260d560205260405f20866102208501926200877f84620086c3565b1562008a095763ffffffff600184015460401c165f63ffffffff8281863516031660030b1315620089ce57505b61024086019363ffffffff620087c286620086d1565b166200896c575b835460ff8160a01c16620087dd8162007d94565b8062008924575060a81c60ff1615620088f157620087fb90620086c3565b15620088de576200880e8235846200a75e565b63ffffffff6200881e85620086d1565b1615620088a95750505062008835919250620086d1565b906102608a013591600283101562003f125760807f37b8f109740a46caf2ef8a90dbf20c8dcbfb4362f8e1077517e6dc3945c804699160019463ffffffff60405192168252620088858162008099565b60208201526102808d013560408201526102a08d01356060820152a15b0162008740565b620088be935060206001960135928a6200ac62565b620088ca8289620086e3565b52620088d78188620086e3565b50620088a2565b620088eb8235846200ab2c565b6200880e565b5050505050600191507fcb7f793535461714e08fcb65e21b3379d2aedbf9c04354ade356a824dcefe9f55f80a1620088a2565b9350505050600194507fe0860e5ff8578b025fc8a7f42c449c575b7a19600e8d2b3fd6ab0ae6e2e0840392506020915060405190620089638162007d94565b8152a1620088a2565b61018083013580151580620089c4575b620089885750620087c9565b92505050600194507f9f38a7d29e6c9e707bfe5fee47b29748083dc31546de0135d48ed99db5e190f0925060209150604051908152a1620088a2565b504381106200897c565b915050600194507f47313d3b2b870c5a3200f25c5f8d5ce9ea5d073955f16e6f70104ddca4be5fdc925060209150604051908152a1620088a2565b63ffffffff600184015460201c165f63ffffffff8281863516031660030b131562008a355750620087ac565b915050600194507f6be50b396ca4962b3810cd9e65b8160cd24180a1e7adbc2c795e8dd090891284925060209150604051908152a1620088a2565b6102c08102830198506040890193508890606082013580890362008a98575b50905062008750565b9750945062008aa7876200a2cc565b945f62008a8f565b5095505050509250507fc2813e86d911b51775079b03b9fcab443ec450bc1634cf75dd578874a0af7add60205a604051908152a1565b91505090565b6040519062008afa82620081f9565b5f60a0838281528260208201528260408201528260608201528260808201520152565b9062008b29826200862b565b62008b386040519182620082e3565b828152809262008b4b601f19916200862b565b01905f5b82811062008b5c57505050565b60209062008b6962008aeb565b8282850101520162008b4f565b5f19811462003c525760010190565b9060405162008b9481620081f9565b60a06001600160501b0382945463ffffffff8116845263ffffffff8160201c16602085015263ffffffff8160401c16604085015260ff8160601c1662008bda8162007d94565b606085015264ffffffffff8160681c16608085015260901c16910152565b1562008c0057565b60405162461bcd60e51b815260206004820152602c60248201527f46756e6374696f6e206d7573742062652063616c6c6564207468726f7567682060448201527f64656c656761746563616c6c00000000000000000000000000000000000000006064820152608490fd5b1562008c7357565b60405162461bcd60e51b815260206004820152602c60248201527f46756e6374696f6e206d7573742062652063616c6c6564207468726f7567682060448201527f6163746976652070726f787900000000000000000000000000000000000000006064820152608490fd5b9062008cea826200862b565b62008cf96040519182620082e3565b828152809262008d0c601f19916200862b565b0190602036910137565b9291909162008d25336200a7b7565b93845f5260d560205260405f209460ff865460a01c1662008d468162007d94565b8062005226575062008d58856200865e565b9586511562008e72578515620086f85782602081013562008d79816200a2cc565b9161ffff600284015460781c16965f5b8a81101562008e3a578b8a8a8362008dde575b92809262008dc362008dd6936001968e8e8e8e62008dbd8f8486916200aa22565b6200ada5565b62008dcf8383620086e3565b52620086e3565b500162008d89565b5050506101e08102830197508b8a60208a013580870362008e02575b508a62008d9c565b955095508699509087818a938762008e1b81996200a2cc565b600281015460781c61ffff169e50939b50929893945092915062008dfa565b50985050505050505050507fc2813e86d911b51775079b03b9fcab443ec450bc1634cf75dd578874a0af7add60205a604051908152a1565b50919350505050565b929091821562008f915736849003605e19019380358581121562003f125781019283359562008eaa876200a2cc565b9260ff845460c01c16925f5b8881101562008f85578062008f3c575b62008ed387868c6200a843565b62008f33576040880135601e198936030181121562003f125788019081359167ffffffffffffffff831162003f1257602001918060051b3603831362003f12578862008f2a916001948e60208e0135908c6200b051565b505b0162008eb6565b60019062008f2c565b96508660051b8201358381121562003f12578201968735808b0362008f63575b5062008ec6565b99509350935062008f74886200a2cc565b9360ff855460c01c16935f62008f5c565b50975050505050505050565b50915050565b6040519062008fa68262008251565b5f610140838281528260208201528260408201528260608201528260808201528260a08201528260c08201528260e082015282610100820152826101208201520152565b9190925f610b60525f610b4052620090035f936200a2cc565b610b20526011610b20510154936200901e610b20516200ba19565b50505080610b6052158015610b40526200931d575b8062009316575063ffffffff8416915b82156200930a5780151580620092fe575b5f610ac05215620092ed57610ac0529290925b62009075610ac0516200862b565b91620090856040519384620082e3565b610ac0518352601f196200909c610ac0516200862b565b015f5b818110620092cd5750508294610b205154610b00525b610ac0518510620090c7575b50509050565b805f526012610b20510160205260405f209060405191620090e8836200826f565b5463ffffffff8116835263ffffffff8160201c166020840152620091b060ff8260401c16620091178162008099565b8060408601526001600160501b038360481c16606086015260808501610ba05263ffffffff8360981c16610ba0515260a085019264ffffffffff8160b81c16845260e01c60c08601526200916b8162008099565b63ffffffff60c08601511663ffffffff610ba05151169160ff610b005160b81c169260ff610b005160b01c169264ffffffffff87511692610b6051610b20516200ba64565b9263ffffffff8693929351169063ffffffff602088015116610b8052604087015190620091dd8262008099565b6001600160501b0360608901511664ffffffffff63ffffffff610ba05151169251169263ffffffff60c08b01511694604051610ae05262009221610ae05162008251565b89610ae051526020610ae0510152610b80516040610ae0510152620092468162008099565b6060610ae05101526080610ae051015260a0610ae051015260c0610ae051015260e0610ae0510152610100610ae0510152610120610ae0510152610140610ae0510152620092a9620092988762008b76565b96610ae051620040618289620086e3565b5063ffffffff8360201c1614620092c7575163ffffffff16620090b5565b620090c1565b602090620092dd97939762008f97565b828288010152019591956200909f565b50611388610ac05292909262009067565b50611388811062009054565b50606093505f92509050565b9162009043565b63ffffffff610b20515416610b605262009033565b91939092936060945f851562009565576200934d856200a2cc565b966200935d8760098a016200bad7565b9490918215620095575750806200954f57505b918015158062009543575b15620095375791905b6200938f836200862b565b906200939f6040519283620082e3565b838252601f19620093b0856200862b565b015f5b818110620095155750506010829901905b848110806200950b575b156200950057835f528160205260405f209360405194620093ef8662008251565b549163ffffffff8316865260ff8360201c166200940c8162007d94565b602087015262ffffff8360281c1680604088015264ffffffffff8460401c16606088015261ffff8460681c16608088015263ffffffff8460781c1660a088015261ffff8460981c1660c088015261ffff8460a81c1660e088015261ffff8460b81c1661010088015261ffff610120880194818160c81c16865260d81c166101408801528b8103620094d6575090620094b882620094ab8a949162008b76565b97620040618289620086e3565b5014620094cb575161ffff1692620093c4565b505050945050509050565b8a608491848e604051936324bfc58760e01b85526004850152602484015260448301526064820152fd5b975050505050509050565b50831515620093ce565b602090620095269693959662008f97565b8282870101520194939194620093b3565b50611388919062009384565b5061138881106200937b565b905062009370565b965050509550505091509190565b505f94509192505050565b9291936200957e846200a2cc565b906200959260ff835460c01c16866200a80f565b506200959e836200a376565b9260ff845460a01c16620095b28162007d94565b806200522657506004840196865f528760205260405f209263ffffffff84541680156200994757804211620098f55750825f526012850160205260405f209664ffffffffff885460b81c1615620098af5760ff885460401c16620096168362008099565b620096218162008099565b8281036200986e575061ffff906200964863ffffffff8060098a015416951694856200bc16565b50169260018410801562009859575b620098225762009667866200ba19565b9294929091908515620097e757505050620096828162008099565b801580620097dd575b8015620097bc575b6200975a575062009708620096c564ffffffffff8a5460b81c1688549060ff808360b81c169260b01c1690866201165d565b9462009701600289015460ff8160e01c169060ff8160d81c169064ffffffffff8160501c169061ffff64ffffffffff82169160b81c166200d142565b90620116ad565b9360648102908082046064149015171562003c52576200974d986200972f868c9362013540565b9654986001600160501b0360ff8b60701c169a60201c16986200be1e565b5f526020525f6040812055565b929350945092507fd70dcea04756ab23b8663cb4528ddd657c55ea6dbc95b4481b62b25d028633ab955060a094506040519387855260208501526200979f8162008099565b604084015260608301526080820152a15f526020525f6040812055565b50620097c88162008099565b60018114801562009693575082841062009693565b508284116200968b565b60028a0154604051631f466abb60e21b815260a89190911c61ffff166004820152602481019390935260448301919091526064820152608490fd5b6084898561ffff60028a015460b81c1690604051926321b82b4d60e01b845260048401526024830152600160448301526064820152fd5b5061ffff600287015460b81c16841162009657565b604051633ea2c45d60e21b8152600481018b90526024810186905260849184620098988162008099565b6044830152620098a88162008099565b6064820152fd5b5050509150507f6948067a0ba575890268b9a7eaf592a5832287e4402201145ce0768a9d9533fc9250604080925051908482526020820152a15f526020525f6040812055565b604080518a8152602081019590955284015250504260608201527fb4cbbb4a79087ef85485ec777721c815de25aac9940c011694a831a77d30aa86945060809350915050a15f526020525f6040812055565b838963e2fd5a3560e01b5f5260045260245260445ffd5b9091821562009a9a575f5b8381101562008f91578060051b83013560de198436030181121562003f12578301906020820135916200999c836200a2cc565b926040820135600381101562003f125760018103620099e257505060019263ffffffff620099d16060620099d99401620086d1565b16906200a5d8565b505b0162009969565b9091908062009a46575060c081013590601e198136030182121562003f1257019283359367ffffffffffffffff851162003f125760200191843603831362003f125762009a3862009a3f93600196369162008323565b916200ccc9565b50620099db565b60019491925060021462009a5d575b5050620099db565b8162009a70606062009a929401620086d1565b91608063ffffffff62009a8660a08501620086c3565b9416920135906200c414565b5f8062009a55565b915050565b906007821015620048695752565b91811562009a9a5782602084019060408501359462009acc866200a2cc565b935f5b8681101562009cc0578062009c85575b83359062009aef86838b6200aa22565b604086013591600783101562003f12575f60028414158062009c77575b801562009c60575b62009c08575060019250805f5260d56020528660405f209163ffffffff8584015460201c16928235935f63ffffffff82818816031660030b131562009bd1575060ff815460a01c169362009b688562007d94565b841562009b915762009b88945062009b8190826200ab2c565b8a6200aeb0565b505b0162009acf565b5050505060207fe0860e5ff8578b025fc8a7f42c449c575b7a19600e8d2b3fd6ab0ae6e2e08403916040519062009bc88162007d94565b8152a162009b8a565b9150507f6be50b396ca4962b3810cd9e65b8160cd24180a1e7adbc2c795e8dd090891284925060209150604051908152a162009b8a565b905062003f12577fcbb789ca59a70c9d9ac308b2f773480d433619886320ba81e8e871690fc220c3604060019362009c446101208a01620086c3565b62009c528351809362009a9f565b15156020820152a162009b8a565b5062009c706101208901620086c3565b1562009b14565b50505f600384141562009b0c565b600981901b83016020810195509350604084013580890362009ca9575b5062009adf565b9750945062009cb8876200a2cc565b945f62009ca2565b50955050505050507fc2813e86d911b51775079b03b9fcab443ec450bc1634cf75dd578874a0af7add60205a604051908152a1565b604d811162003c5257600a0a90565b81811062009d10575050565b5f815560010162009d04565b62009d288154620083b0565b908162009d33575050565b81601f5f931160011462009d45575055565b8183526020832062009d6391601f0160051c81019060010162009d04565b8082528160208120915555565b801562003c52575f190190565b908060209392818452848401375f828201840152601f01601f1916010190565b5f929181549162009dae83620083b0565b808352926001811690811562009e07575060011462009dcc57505050565b5f9081526020812093945091925b83831062009dec575060209250010190565b60018160209294939454838587010152019101919062009dda565b915050602093945060ff929192191683830152151560051b010190565b9190811015620086f85760051b0190565b356001600160a01b038116810362003f125790565b9392919062009e59856200a2cc565b9462009e6e8560ff885460c01c16836200a843565b62009e7e576200837c956200b598565b5050505050505f90565b6040907fc0541f32f5c37f170acf579ae2de8be00385c7ab848fb4b1f19340fd41d588449262009ec38162009ebd846200a376565b6200ab2c565b82519182526020820152a1565b9091821562009f925781358262009ee7826200a2cc565b9160ff835460c01c16915f5b8781101562009f88578062009f49575b60019062009f138786866200a843565b62009f435762009f3c8762009f2b60608b01620086c3565b60408b013560208c01358a6200f6ab565b0162009ef3565b62009f3c565b95508560071b810195863580840362009f64575b5062009f03565b92509250925062009f75816200a2cc565b92600160ff855460c01c16939062009f5d565b5050505050505050565b505050565b81156200a2c8578092813562009fad816200a2cc565b94600986019360ff875460c01c166005811015620048695715935f5b878110156200a2bd57806200a27a575b600190876020860135801580156200a26e575b6200a26657805f526007820160205260405f2063ffffffff815416156200a25d5780548d63ffffffff821692835f5260d56020528b8d60405f20946200a03b63ffffffff8260781c166200f820565b9182156200a254575b5081156200a236575b81156200a11f575b50156200a0e2576200a0ac866200a0d79561ffff60027f3669d8cc87cc659246c535cf34b73f019e2da2a48e04d14093701e877fb6eac69b976200a09f6200a0b39886986200f85e565b015460a81c16906200f976565b926200fd08565b6040519384938c859094939260609260808301968352602083015260408201520152565b0390a15b0162009fc9565b50505050507fa2f88eaf96334c482f1071c105643f009253e044dc7767b94cd01f787c7d92ad91506040908151908982526020820152a16200a0db565b90505f90885461ffff8160301c1661ffff8260201c16116200a145575b50505f6200a055565b60ff8160401c166200a15d60ff8460201c16620100b5565b156200a1ce5762ffffff808360781c169260901c1691801515806200a1c4575b6200a190575b505050505b5f806200a13c565b62ffffff93945082916200a1ad6200a1b3946200429d936200857d565b62013540565b9160281c1611155f8080806200a183565b508215156200a17d565b62ffffff808360481c169260601c16821515806200a22c575b6200a1f7575b505050506200a188565b62ffffff93945082916200a1ad6200a214926200a21b956200857d565b906200857d565b9160281c1610155f8080806200a1ed565b508015156200a1e7565b905060ff855460a01c166200a24b8162007d94565b1515906200a04d565b91508f6200a044565b5050506200a0db565b50506200a0db565b5061ffff811162009fec565b600681901b830193508335851462009fd9579450945095506200a29d826200a2cc565b95600987019460ff885460c01c1660058110156200486957159462009fd9565b509650505050505050565b5050565b906103fc82116200a30a57815f5260d960205260405f20916200a2ef836200a938565b156200a2f85750565b63264fcda560e11b5f5260045260245ffd5b5063324f0d9160e21b5f5260045260245ffd5b6001600160a01b036033541633036200a33257565b606460405162461bcd60e51b815260206004820152602060248201527f4f776e61626c653a2063616c6c6572206973206e6f7420746865206f776e65726044820152fd5b906001821080156200a3d8575b6200a3b857815f5260d560205260405f2091600183015460601c156200a3a65750565b6305b58f2560e51b5f5260045260245ffd5b50630c8f0a6960e41b5f52600452600160245263ffffffff60445260645ffd5b5063ffffffff82116200a383565b90915f926002830192835461ffff8160a81c169582549160ff8360c01c1660058110156200486957600381036200a42a5788633534376760e21b5f5260045260245ffd5b96979596949593946002146200a5705760f01c60ff16159081806200a55c575b6200a551576200a467600163ffffffff600988015416886200bc69565b6200a54857506200a4e4575b5050805467ffffffffffffffff191663ffffffff8316174260201b63ffffffff60201b161790557f65ec400f2e8b22c7064f99991d01828c6a55acaa066b3fdba3bf5a491b1a6a4c905b92546040805160a89290921c61ffff1682526020820194909452600193819081015b0390a1565b61ffff63ffffffff8260401c169160901c16906200a5048282876201410d565b156200a51157506200a473565b6040516307311a2960e31b815261ffff93909316600484015260248301949094526044820193909352606481019290925250608490fd5b96505050505050565b505f96505050505050565b506200a56a600186620100ce565b6200a44a565b8363aa5493c360e01b5f5260045260245ffd5b91905f926002810193845461ffff8160a81c169160ff8454926200a5ad828560c01c16866200d6a4565b5060f01c16159081806200a55c576200a551576200a467600163ffffffff600988015416886200bc69565b91905f926002810193845461ffff8160a81c169060ff8454916200a602828460c01c16856200d6a4565b5060f01c161580806200a719575b6200a551576200a62c5f63ffffffff600988015416886200bc69565b6200a70f576200a688575b5050815467ffffffffffffffff191663ffffffff8416174260201b63ffffffff60201b1617909155507f65ec400f2e8b22c7064f99991d01828c6a55acaa066b3fdba3bf5a491b1a6a4c906200a4bd565b61ffff63ffffffff8260401c169160901c16906200a6a88282886201410d565b156200a6b557506200a637565b6200a70992939697507f3988d14888f50c39e6b838927480e13c79fd6c5cfdfb08a1b02febe997a3571e959450604051948594859094939260609261ffff6080840197168352602083015260408201520152565b0390a190565b5091955050505050565b506200a7265f86620100ce565b6200a610565b60e35b600e810180911162003c525790565b6200a72f6200a72c565b60018060c9546200a7586200a73e565b1c161490565b91909167ffffffffffffffff83116200a79857600101805463ffffffff60401b191660409390931b63ffffffff60401b1692909217909155565b826395d41f3f60e01b5f5260045267ffffffffffffffff60245260445ffd5b6001600160a01b031690815f5260d660205260405f20549182156200a7d95750565b6303a0e27760e01b5f5260045260245ffd5b60c954613fff9060d51c16612710810290808204612710149015171562003c525790565b91905f9260058210156200486957600482036200a82a575050565b63a532a27d60e01b5f526004526200778a915062007d77565b909291925f9360058210156200486957600482036200a86157505050565b90919293506200a8aa577fa532a27d068a9d4b869c6cc37b1c8edd12d861261edcad20311cfc140d1190bc916200a8a46040928351928352602083019062007d86565ba1600190565b6200778a9163a532a27d60e01b5f5260045262007d77565b6200a8da60c954916001600160701b038316620101b2565b906001600160701b0319161760c955565b7fffffffffffe0000000000000000000000000ffffffffffffffffffffffffffff6200a92d60c954926c1fffffffffffffffffffffffff8460701c1662010247565b60701b91161760c955565b6002015461ffff8160b81c16151590816200a951575090565b61ffff915060c81c16151590565b919091811562009f925763ffffffff915f5b8181106200a980575050505050565b6200a98d81838762009e24565b356001811080156200a9e9575b6200a9df576200a9af9060078106906200857d565b938085146200a9d45750600190845f52600684016020525f60408120555b016200a971565b93506001906200a9cd565b506001906200a9cd565b508062ffffff106200a99a565b906001600160501b036200aa0f81928285541662010247565b16166001600160501b0319825416179055565b60408301359291600784101562003f12576101c0837f02d2bf39d2355aaa5486487e934403fd3ba3f88c73ab71938cee11931fddeb7b956200aa6a60e06102209701620086c3565b6200aa796101008401620086c3565b906200aab76200aa8d6101208601620086c3565b935a97604051998a5260208a0152853560408a0152606086013560608a0152608089019062009a9f565b608084013560a088015260a084013560c088015260c084013560e08801521515610100870152151561012086015215156101408501526101408101356101608501526101608101356101808501526101808101356101a08501526101a08101358285015201356101e0830152610200820152a1565b91909167ffffffffffffffff83116200a79857600101805467ffffffff00000000191660209390931b63ffffffff60201b1692909217909155565b9291906040516200ab7881620082a9565b5f81525f6020820152806200ab916001600488620102c7565b156200ac3e575060443590600782101562003f1257600482146200ac475760ff835460a01c166200abc28162007d94565b806200522657506200abea600161ffff600289015460a81c1660ff895460c01c16906200a843565b6200ac3e57600582146200ac2657506006146200ac14575060019160045f926200837c95620107b6565b600192506004906200837c9462010667565b94916200837c945060019391506101a435926200feb2565b94505050505090565b946200837c945060019392506064359150602435906201055f565b9391939290925f936040516200ac7881620082a9565b5f81525f6020820152806200ac8f5f8686620102c7565b156200ad375750604084013590600782101562003f1257600482146200ad855760ff835460a01c166200acc28162007d94565b806200ad4257506200ace98761ffff600287015460a81c1660ff875460c01c16906200a843565b6200ad3757600582146200ad1f57506006146200ad115750906200837c9460019392620107b6565b906200837c95935062010667565b9692936200837c9695506101a091500135926200feb2565b965050505050505090565b945096505050507fe0860e5ff8578b025fc8a7f42c449c575b7a19600e8d2b3fd6ab0ae6e2e08403925060209150604051906200ad7f8162007d94565b8152a190565b9693929150506200837c94505f935060206060830135920135906201055f565b9094939291946040516200adb981620082a9565b5f81525f6020820152806200add0878686620102c7565b156200ad375750604084013590600782101562003f1257600482146200ae925760ff835460a01c166200ae038162007d94565b806200ae5157506200ae2a8761ffff600287015460a81c1660ff875460c01c16906200a843565b6200ad3757600582146200ad1f57506006146200ad115750906200837c945f9392620107b6565b969550965050505050620052265760207fe0860e5ff8578b025fc8a7f42c449c575b7a19600e8d2b3fd6ab0ae6e2e0840391604051906200ad7f8162007d94565b9693929150506200837c94935060206060830135920135906201055f565b9291906040516200aec181620082a9565b5f81525f6020820152806200aed85f8688620102c7565b156200ac3e5750604084013590600782101562003f1257600482146200af66576200af185f61ffff600289015460a81c1660ff895460c01c16906200a843565b6200ac3e57600582146200af4f57506006146200af4157505f80926001926200837c95620107b6565b915f926200837c9462010667565b94915f9391506101a06200837c950135926200feb2565b946200837c945f9493506060810135925060200135906201055f565b60c95460e35b90613fff911c16612710810290808204612710149015171562003c525790565b60c9546200af886200a72c565b908152602081019190915260a081019493926080926200afd58162008099565b604083015260608201520152565b949392919085526020850152151560408401526200b0018162008099565b6060830152608082015260c060a08201528260c08201527f07ffffffffffffffffffffffffffffffffffffffffffffffffffffffffffffff831162003f125760e09260051b809284830137010190565b939091929594955f9682156200b541576012860190855f528160205260405f209164ffffffffff835460b81c16156200b4e9576200b09082896200bd01565b9081156200b4de5790839291899454908160401c60ff16916200b0b38362008099565b8215928754918260b01c60ff1698899360b81c60ff168091848460b81c64ffffffffff169687936200b0e591620113e9565b919092438760e01c6200b0f892620114ef565b5050916200b107908562008537565b906200b1139362014d5e565b9283928160481c6001600160501b03169c8d9260981c63ffffffff16946200b14094866001958d62010c33565b998a156200b3fb57505050835f146200b3f157878511155b156200b3885750915f91905b8a8d89878d8d8189106200b2a8575b5050505050505050506200b1939064ffffffffff855460b81c166200857d565b806200b2185750506200b1ee57927faad1caf83451874ebc06a35849e4a295d8bfa856d05d1fbac2876702c7d5074394926200b1e59260ff620084299998965460401c165f604051978897886200afe3565b0390a1620113b5565b9060ff620018269493925460401c165f60405197889763155a395f60e31b8952600489016200afe3565b899b5084849597508196505f9350828a8a6200b23a976001969c9d9e62011098565b156200b25d5750505050906200b25091620110b3565b62008429600192620113b5565b9460ff60e4965460401c1690604051956350e5550560e11b8752600487015260248601525f60448601526200b2928162008099565b6064850152608484015260a483015260c4820152fd5b976200b2ba91819a9697989962009e24565b35805f528760205260405f209564ffffffffff875460b81c16156200b37857865460ff8160401c166200b2ed8162008099565b1589146200b36757916200b32095939164ffffffffff5f969460b81c168881101587146200b35e57508798899562010e6e565b156200b35357906200b332916200857d565b9283156200b347576001905b0191906200b164565b8a8d89878d8d6200b173565b93600191506200b33e565b98899562010e6e565b50505050505093600191506200b33e565b505050505093600191506200b33e565b9d9b505050509450919250506200b3d057906200a709917fb2f4de9c8b5c718fbc129fd73f1f19ba5c646e821e39464c1c0bdb4014b4ed6e959697604051958695866200afb5565b90620018269187604051958695632cbd37a760e21b8752600487016200afb5565b878510156200b158565b995099509a9b9c5050975050505090509796976200b482576040805195865260208601969096526001600160501b03169484019490945263ffffffff909316606083015264ffffffffff909216608082015260a08101919091527f2e92846d5b5d5dd9cf60dd19064afe4a911e6751cdad455cb26a600db66e963c908060c081016200a709565b6200182694959650604051968796632e92846d60e01b8852600488019260a0946001600160501b0363ffffffff9264ffffffffff959a9998949a60c088019b885260208801521660408601521660608401521660808201520152565b505050505050505050565b509395505050509392936200b52b577f6948067a0ba575890268b9a7eaf592a5832287e4402201145ce0768a9d9533fc9160409182519182526020820152a190565b906334a4033d60e11b5f5260045260245260445ffd5b93945050509293506200b582577f64846a095feab375f007bd15ab65eefdf07957e365b3c7ee4711cd9dbdecabe79160409182519182526020820152a15f90565b906364846a0960e01b5f5260045260245260445ffd5b9295935f9681156200b9d8576012850196845f528760205260405f2064ffffffffff815460b81c16156200b996576200b5d282886200bd01565b9182156200b9895781548860ff8260401c166200b5ef8162008099565b801592825460ff808260b01c169160b81c16906200b6715f6200b64d6200b63c64ffffffffff8760b81c1698886200b6466200b62c8989620113e9565b94909343908c60e01c90620114ef565b5050938c62008537565b9162014d5e565b9363ffffffff6001600160501b038760481c169660981c1693858986898d62010c33565b9283156200b90357505050835f146200b8fa578087115b156200b88e575050905f905b8782106200b7c0575b505082939495969798999a5064ffffffffff6200b6c092935460b81c166200857d565b806200b73d57506200b71257927faad1caf83451874ebc06a35849e4a295d8bfa856d05d1fbac2876702c7d5074394926200b1e59260ff620084299998965460401c166001604051978897886200afe3565b9060ff620018269493925460401c16600160405197889763155a395f60e31b8952600489016200afe3565b829a5083806200b75d9597508296505f935089896001968d9e9d62011098565b156200b7735750506200b25092939450620110b3565b60e49360ff885460401c1690604051946350e5550560e11b865260048601526024850152600160448501526200b7a98162008099565b606484015260848301528060a483015260c4820152fd5b90916200b7cf83898962009e24565b3590815f528d6020528b8760405f209364ffffffffff855460b81c16156200b880578c855460ff8160401c166200b8068162008099565b1588146200b870576200b8399460019490939092839260b81c64ffffffffff168881106200b35e57508798899562010e6e565b156200b86557906200b84b916200857d565b9182156200b85f576001905b01906200b694565b6200b69d565b92600191506200b857565b505050505092600191506200b857565b50505092600191506200b857565b97509c9a9b505050925050929394506200b8d957906200a709917f2d77916ace43e6acd02840c860e1e53ff9192b11b1e4dd447dddbcd4b5a4a5c3959697604051958695866200afb5565b906200182691876040519586956316bbc8b560e11b8752600487016200afb5565b8087106200b688565b995099509a9c9e9d505050969850509150506200b482576040805195865260208601969096526001600160501b03169484019490945263ffffffff909316606083015264ffffffffff909216608082015260a08101919091527f2e92846d5b5d5dd9cf60dd19064afe4a911e6751cdad455cb26a600db66e963c908060c081016200a709565b5096975050505050505050565b509394505050929493506200b52b577f6948067a0ba575890268b9a7eaf592a5832287e4402201145ce0768a9d9533fc9160409182519182526020820152a190565b50509391509193506200b582577f64846a095feab375f007bd15ab65eefdf07957e365b3c7ee4711cd9dbdecabe79160409182519182526020820152a15f90565b5f9142915463ffffffff8160201c169161ffff8260a01c16915f8442116200ba4f575b156200ba455750565b63ffffffff169450565b50826200ba5d85426200857d565b116200ba3c565b9796946200bab56200ba9e6200baae85979498966200baa76200ba916200babe98996200bac59d620113e9565b94819f82944391620114ef565b50509b62008537565b9562008537565b9262008537565b94859262014e9c565b9562014d5e565b906200bad282846200bdd7565b929190565b6006906200baea6007840680946200857d565b5f520160205260405f209080155f146200bb125750549061ffff808360081c169260181c1690565b600181036200bb2f5750549061ffff808360281c169260381c1690565b600281036200bb4c5750549061ffff808360481c169260581c1690565b600381036200bb695750549061ffff808360681c169260781c1690565b600481036200bb865750549061ffff808360881c169260981c1690565b6005036200bba157549061ffff808360a81c169260b81c1690565b549061ffff808360c81c169260d81c1690565b6200a8da60c954916001600160701b03831662010247565b9091926001600160a01b03620084299481604051956323b872dd60e01b60208801521660248601521660448401526064830152606482526200bc10608483620082e3565b62011554565b91906200bc2e6200bc2782620085aa565b91620085b9565b908381119384156200bc5e575b846200bc4657505050565b630caa980960e21b5f5260045260245260445260645ffd5b82811194506200bc3b565b9291926200bc826200bc7b83620085aa565b92620085b9565b908083119485156200bcf6575b856200bc9c575b50505050565b6200bcdc57507f9c6cd57b23ccacf841857c1eb7892bef39f27d0c1197bb0bf7646c90dc7fb8709160409182519182526020820152a15f8080806200bc96565b8290630caa980960e21b5f5260045260245260445260645ffd5b82821195506200bc8f565b91906200bd0e836200ba19565b919295909386156200bd22575b5050505050565b6200bd8057600201546040805160a89290921c61ffff16825260208201949094529283019190915260608201527f7d19aaecec937dccd460f6ff611aadbc7bfa5ef672ef8fb6cfaf12ea804ed4a090608090a15f808080806200bd1b565b60020154604051631f466abb60e21b815260a89190911c61ffff166004820152602481019390935260448301919091526064820152608490fd5b9060018201915f60018412911290801582169115161762003c5257565b9190915f838201938412911290801582169115161762003c5257565b905f19820191821360011662003c5257565b81810392915f13801582851316918412161762003c5257565b996200be719997939692989495919a89549163ffffffff8360981c16996200be8683549d8e8d60ff808360b81c169260b01c169064ffffffffff8960b81c16908960e01c60ff8b60401c168d8b6200ba64565b50506001600160501b038660481c166200bdd7565b808912156200c32857886200be9b916200be05565b91816200c2a8575050955b604883901c6001600160501b0316808811156200c280576200bec990886200857d565b996200bee28d60ff808260b81c169160b01c16620085cc565b6006036006811162003c52576200befd6200bf0e9162009cf5565b64ffffffffff8660b81c1662008537565b816200bf2060ff8760401c1662008099565b8c60ff8760401c16155f146200c260576200bf47926200bf409162013540565b906200bdd7565b9a5b5f8c13156200c1ef5750508963ffffffff6009840154166200bf6f6200bc2782620085aa565b8282119283156200c1e3575b50826200c1ab575b50506200c19c576200bfcb6200bfc25f9d5b60ff808260b81c169160b01c168d64ffffffffff8860b81c16908860e01c60ff8a60401c168c8a6200ba64565b50508d6200bdd7565b908082126200c0cb575b50509363ffffffff620084299c819995899560ff8a968f6200c0c59f9d906200c02c7fa97e56d50498d7b8acf31641413f46438d6d7d3f6e6acf04c6e7995cab8b66b29e6001600160501b03936101809f6201170f565b6200c0388a886200a9f6565b54955416986040519a8b5260208b01526200c058828260401c1662008099565b60401c166040890152606088015260808701526001600160501b038160481c1660a08701528c60c087015260981c1660e085015286610100850152610120840152610140830152610160820152a1835463ffffffff60981b1916911660981b63ffffffff60981b16178255565b62011825565b5f82138015906200c127575b156200bfd557989a5098505050505050507fa3cd1f19e02df00e3aa13cca19961f43eeedbfb5f34c064e278a6e2554a45088955060809450604051938452602084015260408301526060820152a1565b5060018301548060f81c6009811080156200c191575b62004b83576200c14d9062009cf5565b826200c15f57505081155b156200c0d7565b828411156200c181578263ffffffff818603935b60d81c16029102106200c158565b8263ffffffff858203936200c173565b50602481116200c13d565b50505050505050505050505050565b7f9c6cd57b23ccacf841857c1eb7892bef39f27d0c1197bb0bf7646c90dc7fb8709160409182519182526020820152a15f806200bf83565b81935011915f6200bf7b565b96509694505050959750507f5af9ac97cf247d243434484869b838e2197714f1588e5d33e67505161e003687985060e0975060ff9593604051978852602088015260408701526060860152608085015260a08401526200c254828260401c1662008099565b60401c1660c0820152a1565b6200c2729150916200c2799262013540565b826200be05565b9a6200bf49565b506200bfcb6200bfc26200c2a1896001600160501b038760481c166200857d565b9d6200bf95565b8282999392116200c2bc575b50506200bea6565b97909197156200c2d05750955f806200c2b4565b979b509799505050505050507f2d1899850ba9b9c9b74657311b57a098fafc67bacd47c2572b10b1d48158646595506200a4df9250604051948594859094939260609260808301968352602083015260408201520152565b509950505050505050509092507f2d1899850ba9b9c9b74657311b57a098fafc67bacd47c2572b10b1d481586465945060809350604051928352602083015260408201525f6060820152a1565b906001600160501b036200c39860036200842994019282845460501c16620101b2565b825469ffffffffffffffffffff60501b1916911660501b69ffffffffffffffffffff60501b16179055565b600160ff1b811462003c52575f0390565b81810292915f8212600160ff1b82141662003c5257818405149015171562003c5257565b81156200859657600160ff1b81145f1983141662003c52570590565b929190925f91600282015461ffff8160a81c169583549463ffffffff8660c81c16926200c442848a6200fd40565b6200c4555f60ff8960c01c168b6200d705565b6200b4de576200c465436200d790565b9391929098608f430180431162003c525785116200c7dc576013890191848452826020526040842054916200c49a8c6201189b565b9c15809d819e6200c7cf575b506200c73b5760ff8260f01c16158080916200c728575b6200c717576200c4d98663ffffffff60098f0154168d6200bc69565b6200c717576200c654575b5060981c61ffff166200c4f7816200c3c3565b8790828213156200c637575050965b620186a06200c516898b6200c3d4565b0560050b99849187116200c5be575b50927f9c0e05c2bbc786a75afe5fed63ff9274f7c690af8ea4e843e07f2a525295c1049c9a989694926040928b6101009e9c9a9896019a8b9165ffffffffffff806200c57c6200c5758562008520565b946201189b565b9416831b921b191617179382526020522055604051978852602088015260408701526060860152608085015260a084015260050b60c08301521560e0820152a1565b5f19870191508682116200c62357926040928b7f9c0e05c2bbc786a75afe5fed63ff9274f7c690af8ea4e843e07f2a525295c1049f9d9b9997956101009f9d9b9997946200c60c916200d2e1565b509396989a509b9d509250929496989a9c6200c525565b634e487b7160e01b85526011600452602485fd5b809199925088126200c64b575b506200c506565b97505f6200c644565b61ffff63ffffffff8260401c169160901c16906200c67482828d6201410d565b156200c68157506200c4e4565b9a509a5050505094989750505050506200c6e1577f2030ce993f9f888e4d2a20dcbf75ead5d3de6742ef5fa8e75a47849a41a4af579392916200a4df91604051948594859094939260609260808301968352602083015260408201520152565b906200182691604051948594632030ce9960e01b8652600486019094939260609260808301968352602083015260408201520152565b505050505050505050505050505050565b506200c735868d620100ce565b6200c4bd565b505050509450945096955050506200c799577fdd8c0c9dcb3ad98da85346fa23e456a8128ec3fc478eaacb4990e450880308cc9392916200a4df91604051948594859094939260609260808301968352602083015260408201520152565b90620018269160405194859463dd8c0c9d60e01b8652600486019094939260609260808301968352602083015260408201520152565b9050831615155f6200c4a6565b5050604080519a8b524360208c01528a0192909252507fe0a0c6a40b4bf56f73bec44f57f213f583e95a0be298411ea97afbe135c07d82979650869550506060850193506200a4df92505050565b600281015481549560a882901c61ffff169594919360c888901c63ffffffff16916200c85783896200fd40565b6200c86a8160ff8b60c01c168a6200d705565b6200b4de576200c87a436200d790565b929097608f430180431162003c525784116200cb59576013880191835f528260205260405f20549c8d6200c8ae8c6201189b565b9c159c8d91826200cb4c575b50506200caee5760ff8360f01c16158080916200cadb575b6200c717576200c8ee8363ffffffff60098e0154168c6200bc69565b6200c717576200ca4f575b505060981c61ffff166200c90d816200c3c3565b8590828213156200ca32575050945b620186a06200c92c87896200c3d4565b0560050b975f9185116200c9d3575b50907f9c0e05c2bbc786a75afe5fed63ff9274f7c690af8ea4e843e07f2a525295c1049b886101009c9b9a9998979695949301986200c9856200c97e8262008520565b916201189b565b9165ffffffffffff808c16831b921b19161717915f5260205260405f2055604051978852602088015260408701526060860152608085015260a084015260050b60c08301521560e0820152a1565b9a99989796959493929190505f1983019b838d1162003c5257876200ca1d7f9c0e05c2bbc786a75afe5fed63ff9274f7c690af8ea4e843e07f2a525295c1049e6101009e6200d2e1565b50929394959697985098999a9b509b6200c93b565b809197925086126200ca46575b506200c91c565b95505f6200ca3f565b61ffff63ffffffff8260401c169160901c16916200ca6f83838c6201410d565b156200ca7c57506200c8f9565b99509950995050505050505094506200c6e1577f2030ce993f9f888e4d2a20dcbf75ead5d3de6742ef5fa8e75a47849a41a4af579392916200a4df91604051948594859094939260609260808301968352602083015260408201520152565b506200cae8838c620100ce565b6200c8d2565b509750505095965097505050506200c799577fdd8c0c9dcb3ad98da85346fa23e456a8128ec3fc478eaacb4990e450880308cc9392916200a4df91604051948594859094939260609260808301968352602083015260408201520152565b16151590505f8f6200c8ba565b50975050975050505050506200cba957604080519182524360208301528101919091527fe0a0c6a40b4bf56f73bec44f57f213f583e95a0be298411ea97afbe135c07d829080606081016200a4df565b63382831a960e21b5f526004524360245260445260645ffd5b90929160ff600283015460f01c166200cc975760016200cbe491858462011a50565b9490929091156200cc8457805463ffffffff60401b1916604084901b63ffffffff60401b161781557f5e3f1c81da4dcfcb835cba6457aa389114f5d309917179746b46ac03953f56b29291905b80546fffffffff0000000000000000000000008760601b16906fffffffff00000000000000000000000019161790556200a4df600195604051938493846040919493926060820195825260208201520152565b5063a8c2945f60e01b5f5260045260245ffd5b50509060207f36f8ddb481e1d66678af53feb8d0fdddc463c11ce08cda4e93ac2065d26634dd91604051908152a15f90565b9291905f9160ff600286015460f01c166200cd71575f6200ccec91838762011a50565b9590939091156200cd3f5750805463ffffffff60401b1916604084901b63ffffffff60401b161781557f5e3f1c81da4dcfcb835cba6457aa389114f5d309917179746b46ac03953f56b29291906200cc31565b9450507fa8c2945f7db53a36d192551c9b4c3ea4cbc53140f60d0dc8b1a8b58499958cdf9150602090604051908152a1565b507f36f8ddb481e1d66678af53feb8d0fdddc463c11ce08cda4e93ac2065d26634dd92935060209150604051908152a15f90565b6002609754146200cdb7576002609755565b60405162461bcd60e51b815260206004820152601f60248201527f5265656e7472616e637947756172643a207265656e7472616e742063616c6c006044820152606490fd5b906001600160501b03809116911603906001600160501b03821162003c5257565b9190915f9054906001600160501b038083169260501c168083116200ce65575b5080841193846200ce4d57505050565b632e14f96160e21b5f5260045260245260445260645ffd5b6001600160501b0391506200ce7b90836200cdfc565b165f6200ce3d565b9290925f9054936001600160501b038086169560501c168086116200cf2d575b5081811193846200ceb7575b505050909150565b6200cf12576040805191825260208201929092526001600160501b039094169084015290917fb853e5846ad52919c794f709695100094681c458cd1864d5217c6c897b6858b19080606081015b0390a181905f80806200ceaf565b849250632e14f96160e21b5f5260045260245260445260645ffd5b6001600160501b039192506200cf4490866200cdfc565b16905f6200cea3565b335f5260d460205260ff60405f2054166200d0e75760d1544311156200d09f5761217b430180431162003c52578060d1556103e86200cf9260ce5460cc549062008537565b0460d3548082115f146200d09757505b61217b8104918260d05561085f430180431162003c525760d25561217b830283159084810461217b1482171562003c52576200cfdf90846200857d565b9361085f81029181830461085f14171562003c52576200d0256200d045927fbed1e76d359c53e2dbafd4561fa97daac567d51974f6317c2f583ef17cddaa9d96620085cc565b60cf55604051938493846040919493926060820195825260208201520152565b0390a15b60cf548082116200d06557906200d060916200857d565b60cf55565b60d05460d1546040516356cb4a3d60e01b81526004810194909452602484019290925260448301526064820152608490fd5b90506200cfa2565b60d2548043116200d0b2575b506200d049565b6200d0d06200d0c66200d0d992436200857d565b60d0549062008537565b60cf54620085cc565b60cf554360d2555f6200d0ab565b50565b906001600160501b036200aa0f819282855416620101b2565b60405163a9059cbb60e01b60208201526001600160a01b0392909216602483015260448083019390935291815262008429916200bc10606483620082e3565b9392919060648102928184046064148215171562003c5257826200d1669162008537565b938484106200d1d657826200d17b9162008537565b938484106200d1c6575081116200d1955750505050600190565b60648102908082046064149015171562003c52576200d1b4926201203f565b818111156200d1c1575090565b905090565b90506200d1b49391508462011f78565b505050505090565b949392916200d1ed91620085cc565b60648102928184046064148215171562003c5257826200d1669162008537565b9061271081116200d248576002909101805470ffff000000000000000000000000000000191660789290921b61ffff60781b16919091179055565b61ffff600283015460a81c16630dbcc17f60e31b5f5260045260245261271060445260645ffd5b6001600160a01b0319606554166065556001600160a01b0380603354921691826001600160a01b0319821617603355167f8be0079c531659141344cd1fd0a4f28419497f9722a3daafe3b4186f6b6457e05f80a3565b6001600160501b036200aa0f60038293019382855416620101b2565b63ffffffff815460c81c16918281106200d3cc579091906200d3039062012078565b9391939290929383926013829101915f52816020526200d32860405f2054956201189b565b8516156200d34e57505050906200d34665ffffffffffff9262008520565b1c1660050b91565b9194939092858511156200d3c257806200d3ab5750506200d37560059161a767906200857d565b9050600491815f528060205260405f2054935b61217a19810190811162003c5257946200d3a2846201189b565b9290926200d328565b909392905f19810190811162003c5257926200d388565b505f959350505050565b5050505f905f90565b9190916001831080156200d42a575b6200d40c57600201805461ffff60c81b191660c89390931b61ffff60c81b1692909217909155565b82630c8f0a6960e41b5f52600452600160245261271060445260645ffd5b5061271083116200d3e4565b9061271081116200d2485790600261ffff62008429931691019061ffff60881b1961ffff60881b83549260881b169116179055565b9190916001831080156200d4a2575b6200d40c57600201805461ffff60b81b191660b89390931b61ffff60b81b1692909217909155565b5061271083116200d47a565b6001821080156200d513575b6200d4f257600201906effffffffff0000000000000000000082549160501b16906effffffffff000000000000000000001916179055565b50630c8f0a6960e41b5f52600452600160245264ffffffffff60445260645ffd5b5064ffffffffff82116200d4ba565b906103e8811080156200d575575b6200d5565767ffff00000000000082549160301b169067ffff0000000000001916179055565b61ffff9063d24aa9ff60e01b5f526004526103e860245260445260645ffd5b5061ffff81116200d530565b908060081c9060ff811660ff81036200d674575b5060101c9060ff811660ff81036200d612575b505060ff81036200d5bb575b50505f1990565b6200d5c8908254620120b4565b60018101156200d5b457806002915f52600183016020526200d5ee60405f2054620120da565b9060081b1791825f52016020526200d60a60405f2054620120da565b9060081b1790565b6200d62c90835f526001850160205260405f2054620120b4565b9060018201156200d5a857600292507effffffffffffffffffffffffffffffffffffffffffffffffffffffffffff00161791825f52016020526200d60a60405f2054620120da565b6200d68e90835f526002850160205260405f2054620120b4565b60018101156200d595579250905060ff19161790565b5f9291600581101590816200486957600181149182156200d6f7575b82156200d6e4575b50506200d6d25750565b633892657f60e01b5f5260045260245ffd5b90915062004869576003145f806200d6c8565b506002811491505f6200d6c0565b9092915f93600581101590816200486957600181149182156200d782575b82156200d76f575b50506200d736575050565b909192506200d6d25760207f3892657f1733e6fad09eddb45222f85d706fcdf18040658aae5eb4bd9ba497e691604051908152a1600190565b90915062004869576003145f806200d72b565b506002811491505f6200d723565b6200d79b9062012078565b92908290600481036200d7cc5750506200d7ba5f9261a76790620085cc565b925b61217b810180911162003c525790565b6200d7da9194935062008b76565b916200d7bc565b906200d7ed336200a7b7565b91825f5260d560205260405f209260ff845460a01c166200d80e8162007d94565b806200522657506200d830826001600160a01b0360cb5416309033906200bbcc565b6200d83c82856200a9f6565b60cc546200d84b8382620085cc565b906001600160501b0382116200d8ab575060cc5592546040805194855260208501929092526001600160501b031690830152907f84b5adc99a7d46a960b87da6e4882021bab65d63c6d02c9bcfc52f02e710b1e39080606081016200a4df565b8390632242001360e21b5f526004526024526001600160501b0360445260645ffd5b93909796959260c0959260e0860199865260208601526200d8ee8162008099565b60408501526060840152608083015260a08201520152565b9493946109c0526109405261076052610980526109e052610980515f5260126109c0510160205260405f20610780528364ffffffffff610780515460b81c16156200f28e576200d9629161098051610780516109c0516201221a565b6107e05261080092909252919592909190156200f286576200d9968662ffffff60016109c051015460701c168484620125f8565b9086806200f278575b806200f26a575b80156200f23d575b156200f1ac57505050816200f101575b505060ff610780515460401c166107c0525f610900525f610920525f6107a0526200da7061078051546200da0d610800516001600160501b038360481c1664ffffffffff8460b81c16620151e7565b6200da1b819492946200c3c3565b610900526200da6160ff8460401c16936109c051549060ff808360b81c169260b01c1690610800519063ffffffff8160981c169060e01c886107e0516109c0516200ba64565b6108c05261088052906200bdd7565b905f82126200f0a95750806200da8a6200db31926200c3c3565b610960525f6108405260016109c05101546109a052620186a06200daba62ffffff6109a05160881c16836200c3d4565b05610860526109a051620186a0906200dadc9060a01c62ffffff16836200c3d4565b056108a0819052610920526109a051620186a0906200db049060b81c62ffffff16836200c3d4565b056108e0819052610860516108a0516200db2a92916200db24916200bdd7565b6200bdd7565b906200be05565b610840526200db476108e051610960516200bdd7565b610960528015806200f0a0575b6200f069575b6200dbb56001600160501b036200db81610860518260036109c051015460501c1662018648565b1660036109c051019069ffffffffffffffffffff60501b1969ffffffffffffffffffff60501b83549260501b169116179055565b6200dbc36109605162015208565b5f61096051125f146200efda576200dbe390610980516109c0516201170f565b610980515f5260d560205260405f20906200dc02610920518362015218565b6107a05260c9546200dc226001600160701b036108405190831662018648565b906001600160701b0319161760c95560ff610780515460401c166200dc478162008099565b6200efc2576200dc5e610800516109c05162015295565b156200ef97576200dc97906200dc7e6109805160116109c0510162013573565b600561ffff60026109c051015460a81c1691016201367f565b6200dcf46200dcea60026109c0510154845f146200ef855764ffffffffff8116905b60ff8160e01c169160ff8260d81c169164ffffffffff808260501c1692169061ffff610800519160b81c166200d1de565b6109e051620116ad565b5f6107005291156200ef79575f610700525b610760515f5260d560205260405f20610720526001600160501b036107205154166106e052610760515f5260126109c0510160205260405f20610820526200dd5961080051610700516108205162018690565b6200dd6761070051620138fb565b806200ef71575b6200ef2d575b6200dd7f8162007d94565b806200e61c57506200ddab905f83610800516107e0516107e05161070051610720516109c05162018722565b9092939184156200e097575b505050505b6001600160501b036107205154166106e051811015805f146200e081576200dde86106e051836200857d565b905b6001600160ff1b0382116200e06757156200e056575b5050600781036200e0235750610760515f9081526109c05160120160205260409020805460b81c64ffffffffff16156200df9857806001600160501b03807ff14b2e916a38315c52d00796f7301d83d24a889ea889ef230a501c9dcb524d20935460481c16916200de756108e05182620152c0565b54604080516107605161094051825260208201529081019390935260481c166001600160501b0316606082015280608081010390a15b6200dec16107605161098051610940516201121e565b7f6fc9c0ea1c0531654320ba06740c802447dbdef7c26cf749c4f12553cdd958a96101c061078051546001600160501b03604051916109405183526109805160208401526200df136107c05162008099565b6107c05160408401526107e05160608401526107e05160808401526108005160a084015264ffffffffff8160b81c1660c08401526108805160e08401526108c0516101008401526109005161012084015260481c16610140820152610920516101608201526107a0516101808201525f6101a0820152a1620084296109c051620113b5565b50610760515f5260d56020527f66c4fd8d726a62e549cbf66bc9a8e005cb6e30b73e027b3d86c4df1388d2b16f60405f206200dffa6001600160501b03825416916200dfef6108e051610760516109c0516201170f565b6108e0519062015218565b60408051610760516109405182526020820152908101929092526060820152608090a16200deab565b6200182690604051918291633e3906a760e21b8352610800516107e0516107005161076051610940516004880162012985565b6200e061906200c3c3565b6200de00565b8263e69a04b360e01b5f526004526106e05160245260445ffd5b6200e090826106e0516200857d565b906200ddea565b839450926200e0a8919293620085cc565b926200e0b76107005162007d94565b610700516200e613575f935b61ffff60026109c051015460a81c165f60c06040516200e0e3816200826f565b8281528260208201528260408201528260608201528260808201528260a082015201526001600160501b0382116200e5f55764ffffffffff61080051116200e5d657604051906200e134826200826f565b5f82525f60208301526200e1488762008099565b8660408301526001600160501b038316606083015263ffffffff6107e05116608083015264ffffffffff610800511660a083015263ffffffff431660c0830152610760515f5260126109c0510160205264ffffffffff60405f205460b81c166200e5bd57506109c0516011015460201c63ffffffff16806200e53e5750917fc0150ebb43a9c2478aa9c69d27078da071ceafb70e2d822d7d39a533e04187289593916200e34161014096946200e2086107605160116109c05101620162f4565b610760515f9081526109c05160120160209081526040909120825181548484015167ffffffffffffffff1990911663ffffffff92831617931b63ffffffff60201b169290921781559160c0905b6200e27060408201516200e2698162008099565b856201a1f4565b6060810151845472ffffffffffffffffffff000000000000000000191660489190911b72ffffffffffffffffffff000000000000000000161784556080810151845463ffffffff60981b191690841660981b63ffffffff60981b1617845560a0810151845464ffffffffff60b81b191660b89190911b64ffffffffff60b81b16178455015182547bffffffffffffffffffffffffffffffffffffffffffffffffffffffff16911660e01b7fffffffff0000000000000000000000000000000000000000000000000000000016179055565b6200e3566107605160116109c0510162016318565b6005610720510161ffff60026109c051015460a81c1660fc8111155f146200e493576001901b81541790555b6200e39c6200e3928483620085cc565b610720516200d0ea565b6200e3ab816109c0516200fd5c565b6200e3d46200e3cc6200e3c6856109c0515460e81c62008537565b62013512565b80946200857d565b936200e3e0856200bbb4565b6200e3ef846109c0516200fd78565b6200e3fa8662008099565b856200e47b576200e412610800516109c0516201a244565b61ffff60026109c051015460a81c16956040519687526107605160208801526200e43c8162008099565b60408701526060860152608085015260a08401526107e05160c08401526108005160e0840152610100830152610120820152a160075f8080806200ddb7565b6200e48d610800516109c0516201a223565b6200e412565b6101fc81116200e4c8576200e4aa6001916200856d565b1b60066107205101908154179055600160fd1b81541790556200e382565b6102fc81116200e4fd576200e4df6001916200855c565b1b60076107205101908154179055600160fe1b81541790556200e382565b6103fc8111156200e511575b50506200e382565b6200e51e6001916200854b565b1b60086107205101908154179055600160ff1b81541790555f806200e509565b63ffffffff81116200e5a357916200e34182847fc0150ebb43a9c2478aa9c69d27078da071ceafb70e2d822d7d39a533e041872899979560206101409a989601525f5260126109c051016020526200e59d6107605160405f20620162f4565b6200e208565b6395d41f3f60e01b5f5260045263ffffffff60245260445ffd5b633f1ed2e160e21b5f526004526107605160245260445ffd5b6395d41f3f60e01b5f526108005160045264ffffffffff60245260445ffd5b506395d41f3f60e01b5f526004526001600160501b0360245260445ffd5b6001936200e0c3565b6200e6278162007d94565b600181036200e9a35750906200e657825f83610800516107e0516107e05161072051610820516109c05162018dab565b61074091909152959794969293919088600a81036200e6e25761ffff60026109c051015460a81c1660036109c051015490620018266200e69a6107405162015208565b60405163063c641b60e41b815261ffff90931660048401526001600160501b03808516602485015260509490941c909316604483015260648201929092529081906084820190565b156200e6f8575b50505050505050505b6200ddbc565b6200e70e91929394959698506107205162015218565b506200e71d6107405162015208565b5f61074051125f146200e98e576200e73d90610760516109c0516201170f565b6200e7546200e3c6886109c0515460e81c62008537565b906200e76182896200857d565b926200e76d846200bbb4565b6200e77c836109c0516200fd78565b6200e7996108205154926001600160501b038460481c166200bdd7565b905f82126200e97f577f2a077a58d72570ce2b985a210c9ad672373eb9bcc337d1dc62b8b75dd644cf27976101c0976200e7d960ff8660401c1662008099565b64ffffffffff8560b81c166200e81f6200e8136200e8018363ffffffff8a60981c1662008537565b6200429d610800516107e05162008537565b916108005190620085cc565b60ff8760401c16155f146200e96d576200e8399162013540565b925b6200e84c60ff8760401c1662008099565b60ff8660401c16155f146200e955576200e86d610800516109c0516201a244565b64ffffffffff610820515460b81c16946001600160501b036200e8946108005188620085cc565b976200e8c761ffff60026109c051015460a81c168a8986439360ff8760401c1690610760519060116109c051016201a77f565b61ffff60026109c051015460a81c169b6040519c8d528c6020610760519101526200e8f860ff8360401c1662008099565b8c604060ff84821c1691015260608d015260481c1660808b015260a08a015260c089015260e08801526101008701526101208601526101408501526101608401526101808301526101a0820152a16007915f80808080806200e6e9565b6200e967610800516109c0516201a223565b6200e86d565b6200e978916200858b565b926200e83b565b63b42b26c760e01b5f5260045ffd5b6200e99d906109c0516200fd5c565b6200e73d565b6003906200e9b18162007d94565b036200ec8a576200e9e0905f83610800516107e0516107e0516107e05161072051610820516109c05162018ad0565b6106c093909352610a205161066052610a405161060052610640949094529491929084600a81036200ea365761ffff60026109c051015460a81c1660036109c051015490620018266200e69a6106c05162015208565b156200ea4b575b509293506200ddbc92505050565b6101c094506200eaae7f01a0596385c75b269e896ca6468a2be2edc8b2b5459f4e25ca0a75944390a10c966200ea846106c05162015208565b5f6106c051125f146200ec75576200eaa490610760516109c0516201170f565b6107205162015218565b506200eac96200e3c6610660516109c0515460e81c62008537565b9164ffffffffff6200eadf84610660516200857d565b946200eaeb866200bbb4565b6200eafa856109c0516200fd78565b61082051546106205260ff6106205160401c16966200eb198862008099565b876200ec46576200eb3783610820515460b81c166109c05162015295565b6200eb49610600516109c0516201a223565b6108205154916200eb5e8261064051620085cc565b906200eb9d61ffff60026109c051015460a81c168b155f146200ec3f5760015b43918561060051926107e05192610760519060116109c051016201a77f565b6109c0516002015460a81c61ffff16996200ec385760015b6040519a8b526107605160208c01526200ebcf8162008099565b60408b015260608a01526001600160501b038360481c1660808a015260a089015260c08801526107e05160e088015260b81c16610100860152610600516101208601526101408501526101608401526101808301526101a0820152a16007805f8080806200ea3d565b5f6200ebb5565b5f6200eb7e565b6200ec5d836106205160b81c166109c0516201524f565b6200ec6f610600516109c0516201a244565b6200eb49565b6200ec84906109c0516200fd5c565b6200eaa4565b506200ecaa90610800516107e0516107e051610820516109c051620189da565b61068094909452506106a085905291929091600a85036200ed1f576109c051600281015460039091015460405163063c641b60e41b81526106805160a89390931c61ffff1660048201526001600160501b03808316602483015260509290921c90911660448201526064810191909152608490fd5b6106a051156200ed35575b506200e6f292505050565b90919293506200ed5061068051610760516109c0516201170f565b6200ed6261068051610720516200a9f6565b60ff610820515460401c16916200ed798362008099565b826200ef15576200ed91610800516109c05162015295565b84156200ee4457509060c0917f599b5f439ed4daf1f28ae8638e5439d3982e8001fb26dd8f70021b38672eb26f936200edd46107605160116109c0510162013573565b6200edf461ffff60026109c051015460a81c16600561072051016201367f565b61ffff60026109c051015460a81c16926040519384526107605160208501526200ee1e8162008099565b60408401526107e0516060840152608083015260a0820152a15b6007905f80806200ed2a565b907fcd4a9f7ae1cc250eaa0be6bdb30d07efaf0faafb4ff0e76d8fe09a8373e43f859364ffffffffff610120946200ee85610820515495610820516201862a565b6200ee97610800516108205162015315565b8161ffff60026109c051015460a81c16956108205154926040519788526107605160208901526200eec88162008099565b60408801526001600160501b038160481c1660608801526001600160501b038360481c16608088015260b81c1660a086015260b81c1660c084015260e0830152610100820152a16200ee38565b6200ef27610800516109c0516201524f565b6200ed91565b610800515f036108005162003c5257836200ef646200ef6a926109c051549060ff808360b81c169260b01c16906107e0516201165d565b620116ce565b506200dd74565b505f6200dd6e565b6001610700526200dd06565b64ffffffffff8160281c16906200dcb9565b506200efaa6109005161078051620152c0565b6200efbc610800516107805162015315565b6200dc97565b6200efd4610800516109c0516201524f565b6200dc5e565b806200efe8575b506200dbe3565b6200eff7906109c0516200fd5c565b7fbee5185c13c42cac0d82b6c115c77d5e8dc2b2888c013d169e068e634f57f58e60e061ffff60026109c051015460a81c166040519081526109805160208201526107e051604082015261080051606082015260016080820152600160a08201526109605160c0820152a15f6200efe1565b6200f07b6108a051610960516200bdd7565b610960526200f0916108a051610900516200bdd7565b610900525f610920526200db5a565b5060016200db54565b60c49161ffff60026109c051015460a81c169160405192630c62a44b60e11b845260048401526109805160248401526200f0e38162008099565b60448301526108005160648301526107e051608483015260a4820152fd5b83156200f19f57816107e05111155b6200d9be57915091506200f169577f1f008bb4cf7968d3043531816710a52872a7cd65b725fdf40176bbe0ff8215979060ff610780515460401c166200a4df6040519283926107e051906109805161094051866200afb5565b60ff610780515460401c16620018266040519283926307c022ed60e21b84526107e051906109805161094051600487016200afb5565b816107e05110156200f110565b935093509493506200f205576200a4df7f244c695d1e05b510329d2a418fcf7f40a78e7e06283e8422153ba676d7dc8f9d939460ff610780515460401c16926040519485946107e051906109805161094051886200d8cd565b620018268460ff610780515460401c169260405194859463244c695d60e01b86526107e051906109805161094051600489016200d8cd565b508615806200f25c575b80156200d9ae5750826107e05111156200d9ae565b506107e0518211156200f247565b50816107e05111156200d9a6565b506107e0518311156200d99f565b505050505050565b505050506200f2ce577f6948067a0ba575890268b9a7eaf592a5832287e4402201145ce0768a9d9533fc60408051610940518152610980516020820152a1565b6334a4033d60e11b5f52610940516004526109805160245260445ffd5b6105205261050052906200f301600183620129b8565b6200a2c857610500515f526012610520510160205260405f209164ffffffffff835460b81c16156200f6835760016200f343916105005185610520516201221a565b959194156200f67a578315947f02d2bf39d2355aaa5486487e934403fd3ba3f88c73ab71938cee11931fddeb7b61022061ffff600261052051015460a81c16885f146200f6725760035b6200f3b95a916040519384526105005160208501525f60408501525f6060850152608084019062009a9f565b8560a08301528760c08301525f60e08301525f6101008301525f61012083015260016101408301526103e86101608301525f6101808301525f6101a08301525f6101c08301525f6101e0830152610200820152a16200f41e8685846105205162012a3e565b936105a051948082116200f445575b505050505050505050506200842961052051620113b5565b6200f450916200857d565b938487156200f660576200f4649162013540565b945b60ff895460401c1696816200f655575b81156200f63b575b506200f5e85750509282826200f4cd7f6fc9c0ea1c0531654320ba06740c802447dbdef7c26cf749c4f12553cdd958a998966001600160501b03956101c09997610500518a6105205162012682565b9195949096936104e09a939a526104c052949397506200f4ff6105005161ffff600261052051015460a81c16620110b3565b7f5be6b2e974d9a72428e5cb9cf915a5f991d1c862db8cafc9a121bb99b091cb7460e06040518481528460208201528460408201528560608201525f60808201526104e05160a08201528a60c0820152a161ffff600261052051015460a81c16985495604051998a526105005160208b01526200f57c8162008099565b60408a01526060890152608088015260a087015264ffffffffff8360b81c1660c087015260e08601526101008501526104c05161012085015260481c166101408301526104e05161016083015261018082015260016101a0820152a15f8080808080808080806200f42d565b60c49186918661ffff600261052051015460a81c16936040519463fbe5086f60e01b865260048601526105005160248601526200f6258162008099565b60448501526064840152608483015260a4820152fd5b9050806200f64b575b5f6200f47e565b508482106200f644565b86841191506200f476565b6200f66b916200858b565b946200f466565b60026200f38d565b50505050505050565b61ffff600261052051015460a81c166334a4033d60e11b5f526004526105005160245260445ffd5b6105205261050052916200f6c08184620129b8565b62009f9257610500515f526012610520510160205260405f209264ffffffffff845460b81c16156200f70157906200f343916105005185610520516201221a565b509150506200f683576105205160020154604080516105005160a89390931c61ffff16815260208101929092527f6948067a0ba575890268b9a7eaf592a5832287e4402201145ce0768a9d9533fc9190819081016200a4df565b156200f76357565b60405162461bcd60e51b815260206004820152602b60248201527f496e697469616c697a61626c653a20636f6e7472616374206973206e6f74206960448201527f6e697469616c697a696e670000000000000000000000000000000000000000006064820152608490fd5b9091801562009f92575f5b8181106200f7e75750505050565b806200f7f7600192848762009e24565b358061ffff106200f819575f52600784016020525f60408120555b016200f7d9565b506200f812565b905f9180151590816200f853575b81156200f844575b506200f83e57565b60019150565b63ffffffff9150115f6200f836565b43811091506200f82e565b90805461ffff8160681c1690811580156200f87a575050505050565b612710830292830461271014171562003c525760c95460701c6c1fffffffffffffffffffffffff16908183116200f914575050916080918361ffff6200f8e17f829714cd4c1b45d8cb7fc185e9a89690df638ae20633056021e186ef6ce2e0bf9662013780565b926200f8ed836200bbb4565b5460a81c16604051938452602084015260408301526060820152a15b5f808080806200bd1b565b60a093509161ffff7ff662aa6b6412ffe2a4e433dace098e96260a08fdaefdb023773e41f999b7c4ec9593604051945f8652602086015260a81c16604084015260608301526080820152a16200f909565b61ffff16801562003c52575f190190565b5f939183156200fce75761ffff948585166303ff00008360101b1617906002840192825f528360205260405f209687549063ffffffff8216156200fcc15750855460b01c63ffffffff1684036200fc8857506200f9de63ffffffff885460201c1686620137d0565b63ffffffff875460201c16806200fc69575b505b845460d01c63ffffffff1683036200fc2d576200fa1a63ffffffff885460401c16866201386e565b63ffffffff875460401c16806200fc0e575b505b6003850191815f52826020526200fa746200fa5360405f209a8b5460401c166200f965565b8a5469ffff0000000000000000191660409190911b61ffff60401b16178a55565b87546200fa8760ff8260601c16620138fb565b156200fbef5750506200faa86001600160501b03885460901c168662013960565b965b885463ffffffff8116851480806200fbdc575b156200fb435750505062008429959697505f526020525f60408120555b5f526020525f60408120556200faf4815460f01c6200f965565b81547dffffffffffffffffffffffffffffffffffffffffffffffffffffffffffff1660f09190911b7fffff00000000000000000000000000000000000000000000000000000000000016179055565b9193509150156200fb9d57505460201c63ffffffff16956303fcffff8088116200fb87575063ffffffff620084299596971663ffffffff198254161790556200fada565b876395d41f3f60e01b5f5260045260245260445ffd5b968263ffffffff6200842997989960201c16146200fbbe575b50506200fada565b63ffffffff6200fbd4925460401c1690620138cb565b5f806200fbb6565b508563ffffffff8360201c16146200fabd565b64ffffffffff6200fc089160689a939a1c168a62013923565b6200faaa565b5f528360205260405f2063ffffffff60201b1981541690555f6200fa2c565b8654602081811c63ffffffff165f9081529086905260409020805463ffffffff60401b191663ffffffff60401b9092169190911790556200fa2e565b5f528360205260405f2063ffffffff60401b1981541690555f6200f9f0565b604081811c63ffffffff165f908152602087905220805467ffffffff00000000191663ffffffff60201b9092169190911790556200f9f2565b905063ffffffff60018701541691638d5bba0f60e01b5f5260045260245260445260645ffd5b63ffffffff600183015416906369bc91ef60e11b5f5260045260245260445ffd5b906200842991815f52600781016020526200fd3a60405f206200fd3260ff825460201c16620100b5565b9083620139c2565b62013f2d565b90156200fd4a5750565b6364d572b360e01b5f5260045260245ffd5b6001600160501b036200aa0f6003829301938285541662010247565b906001600160501b036200c39860036200842994019282845460501c1662010247565b929061ffff600285015460a81c16936200fdb8600184846200ce83565b6200bd1b57835f526012810160205260405f209064ffffffffff825460b81c16156200fe9b57916001600160501b038085936200fe278560a099976200fe217f577ed0a8f65f2feb5a407660b0a3009c2ee155a17d0e34947c58ecdd6c8b37719c9a886200d0ea565b6200fd5c565b6200fe75826200fe3e8782855460481c1662010247565b835472ffffffffffffffffffff0000000000000000001916911660481b72ffffffffffffffffffff00000000000000000016178255565b5460481c16915416926040519485526020850152604084015260608301526080820152a1565b84866334a4033d60e11b5f5260045260245260445ffd5b9392919261ffff600286015460a81c16946200fed08285856200ce83565b6200f28657845f526012810160205260405f209164ffffffffff835460b81c16156200ff3a5750916001600160501b038085936200fe278560a099976200fe217f577ed0a8f65f2feb5a407660b0a3009c2ee155a17d0e34947c58ecdd6c8b37719c9a886200d0ea565b93505050506200b52b577f6948067a0ba575890268b9a7eaf592a5832287e4402201145ce0768a9d9533fc9160409182519182526020820152a1565b908060081c9060ff81168062010057575b5060101c9060ff8116806200fff5575b5050806200ffa65750505f1990565b6200ffb390825462013fe4565b60018101156200d5b457806002915f52600183016020526200ffd960405f20546201400a565b9060081b1791825f52016020526200d60a60405f20546201400a565b6201000f90835f526001850160205260405f205462013fe4565b9060018201156200ff9757600292507effffffffffffffffffffffffffffffffffffffffffffffffffffffffffff00161791825f52016020526200d60a60405f20546201400a565b6201007190835f526002850160205260405f205462013fe4565b60018101156200ff87579250905060ff19161790565b620100928162007d94565b60028114908115620100a2575090565b60039150620100b18162007d94565b1490565b620100c08162007d94565b8015908115620100a2575090565b91825461ffff63ffffffff8260601c169160a01c16905f938142116201019b575b84620100fd57505050909150565b6201015f576200cf0461ffff60027fa8ea47e93f284c6600be84b692d51af848f0cc9115e2c7d7d4048983348f9b2d959697015460a81c16926040519384934291859094939260609261ffff6080840197168352602083015260408201520152565b600285015460405163a8ea47e960e01b815260a89190911c61ffff16600482015260248101919091524260448201526064810191909152608490fd5b935081620101aa82426200857d565b1193620100ef565b9190828111620101f357808303926001600160501b038411620101d3575050565b63733cc1d960e11b5f526004526024526001600160501b0360445260645ffd5b9050637509da4360e11b5f5260045260245260445ffd5b9190828111620101f3578083039264ffffffffff841162010229575050565b63733cc1d960e11b5f5260045260245264ffffffffff60445260645ffd5b9190620102558184620085cc565b926001600160501b03841162010269575050565b632242001360e21b5f526004526024526001600160501b0360445260645ffd5b9190620102978184620085cc565b9264ffffffffff8411620102a9575050565b632242001360e21b5f5260045260245264ffffffffff60445260645ffd5b91905f926101808201358015158062010555575b6201050b57506040820135600781101562003f125760068103620103a157506201030a836060840135620141a5565b6201039b578260808301358062010377575b50905060a08201358062010359575b505060c00135908162010341575b505050600190565b6201034c916201413f565b6200837c57808062010339565b906201036591620129b8565b6201037257815f6201032b565b505090565b63ffffffff60096201038d94015416906200bc69565b62010372575f82816201031c565b50505090565b60058103620103f95750506101a0013515620103be575050600190565b620103ea577f1fccd51f56ecc3a71d5e32721dbf2bb0690bf050c6147a84fd5f83717d8c5d225f80a190565b631fccd51f60e01b5f5260045ffd5b6004036201041d575090606062010412920135620141a5565b6200837c5750600190565b8263ffffffff6009620104389301541660808401356200bc69565b62010372576201044d8260a0830135620129b8565b6201037257620104616101008201620086c3565b1580620104f4575b620104d9575b6101c001359061ffff82116201048757505050600190565b620104c15760407f95d41f3f44becfa47a91cf04138709af8e760c9060dcf6091505be37dce1418891815190815261ffff6020820152a190565b6395d41f3f60e01b5f5260045261ffff60245260445ffd5b620104e98260c08301356201413f565b156201046f57505090565b50620105046101208201620086c3565b1562010469565b93505050620105435760207f9f38a7d29e6c9e707bfe5fee47b29748083dc31546de0135d48ed99db5e190f091604051908152a15f90565b634f9c53e960e11b5f5260045260245ffd5b50438110620102db565b9192835f526010830160205260405f209463ffffffff865416156201061557620105949063ffffffff87541683878662014212565b15620105a1575050505050565b620105f9846009620105f1606097620105dd867fe9805f82cb3729e97b234bb6bb4f90ea971e2c274201ff71818ebde153e1b0a69b8962014294565b9790965f5260d560205260405f206200f976565b95016200fd08565b60405192835260208301526040820152a15f808080806200bd1b565b925050925062010651577f69b92a906c4fe940cd3de572076c4a5181ddced80218575cc4959b1d8f6a6e3f9160409182519182526020820152a1565b9063069b92a960e41b5f5260045260245260445ffd5b94929093916040516201067a81620082a9565b5f81525f6020820152809561ffff600289015460a81c16606084013590815f5260108a0160205260405f209363ffffffff855416156201077357508354620106cc8863ffffffff831689868662014212565b620107665760ff620106e29160201c1662010087565b620106f6575050620084299596976201440d565b94985094925050509392936201074b576200a7097fe03d6e5b9ada2bee571a0faed84b4da12ba5afc5c10f1c29d8fbbb6dcd7519d8939495604051938493846040919493926060820195825260208201520152565b84925063e03d6e5b60e01b5f5260045260245260445260645ffd5b5050505050505050915090565b985096985094935050505062010651577f69b92a906c4fe940cd3de572076c4a5181ddced80218575cc4959b1d8f6a6e3f9160409182519182526020820152a190565b949391929060405193620107ca85620082a9565b5f85525f602086015284604082013595600787101562003f1257620107ef8762007d94565b60a083013591620108008862010087565b62010a07575b5061012083016201081781620086c3565b8015620109f1575b620109195750620108308762010087565b620108fa575b506040516201084581620082a9565b5f81525f602082015297600981019163ffffffff835416966201086e608086013598896200857d565b9682986201087f60e08801620086c3565b15620108ca575b505050866201089c575b50505050505050505090565b620108b0995088620108bf575b50620185f4565b5f808080808080808062010890565b861497505f620108a9565b620108f09399506101c0870135908b8b6101408a0135926101608b0135928c8a6201695e565b955f808062010886565b620109088883868c62014b6b565b620108365797505050505050505090565b95839850620109529199949561010093986101c06201095a960135908b8b610140820135926080610160840135930135908c8c6201695e565b9601620086c3565b80620109e7575b620109c15750506201097390620086c3565b80620109b7575b6201098457505090565b7f59468f520017226c0116472def96f905dbeff518444091b355de591a2161cdbe9160409182519182526020820152a190565b508115156201097a565b9061ffff60028693015460a81c1663578f7fed60e01b5f5260045260245260445260645ffd5b5084151562010961565b5062010a016101008501620086c3565b6201081f565b845f5260128a0160205260405f209064ffffffffff825460b81c1615158062010b2f575b62010a9d57505460b81c64ffffffffff168083111562010806579795509750945050505062010a87577f604559a5e01ca154dad1c02a9ef408530f8fa41f3506e6a57f7d2ac727e148229160409182519182526020820152a190565b9063604559a560e01b5f5260045260245260445ffd5b995096979550505050505062010afd577f189a4ff828fb1a93c81a2248c39ac499b67bf632ade3d5f89935821e8d1ec9989160ff60409254831c169082519162010ae78162008099565b825262010af48162007d94565b6020820152a190565b5463031349ff60e31b5f5260401c60ff1662010b198162008099565b60045262010b278162007d94565b60245260445ffd5b5060ff825460401c1662010b438162008099565b62010b4e8a62007d94565b1560028a14141562010a2b565b803b1562010bbd576001600160a01b03166001600160a01b03197f360894a13ba1a3210667c828492db98dca3e2076cc3735a920a3ca505d382bbc5416177f360894a13ba1a3210667c828492db98dca3e2076cc3735a920a3ca505d382bbc55565b60405162461bcd60e51b815260206004820152602d60248201527f455243313936373a206e657720696d706c656d656e746174696f6e206973206e60448201527f6f74206120636f6e7472616374000000000000000000000000000000000000006064820152608490fd5b811562008596570790565b949362010c539062010c4d62010c5a949998935f6200be05565b6200be05565b93620085cc565b600603906006821162003c525762010c7662010c7d9262009cf5565b9062008537565b9262010c9662010c8e85846200c3f8565b948362010c28565b62010cd0575b50501562010cbf5762010caf916200bdd7565b5f811262010cba5790565b505f90565b62010cca916200be05565b62010caf565b808062010d24575b1562010cf65750509062010cec906200bdba565b905b5f8062010c9c565b15908162010d19575b501562010cee579062010d12906200bdf3565b9062010cee565b5f9150125f62010cff565b505f821362010cd8565b959462010c4d62010d4694989362010c53936200be05565b600603906006821162003c525762010c7662010d629262009cf5565b9062010d7b62010d7383836200c3f8565b928262010c28565b62010d94575b50901562010cbf5762010caf916200bdd7565b5f121562010db15762010da7906200bdba565b905b905f62010d81565b9062010da9565b929194939562010dd462010ddb929762010c4d5f995f6200be05565b94620085cc565b600603906006821162003c525762010c7662010df79262009cf5565b9162010e1062010e0884836200c3f8565b938262010c28565b62010e48575b501562010e365762010e28916200bdd7565b905b8082126200d1c1575090565b62010e41916200be05565b9062010e2a565b93505f80941262010e5b575b5f62010e16565b9062010e67906200bdf3565b9062010e54565b93969592949094610b805262010e885f8483888862014dbc565b9b94809a949a9993999892989791976201103f5750509487969464ffffffffff96946001600160501b036101e09c9b9a957f3b1e497992fc37fbf896b38202d19417ad54402fa8d8aed214d20f27c34bcabc9e958a98610b80515f5260d560205260405f209a61ffff600284015460a81c16610ba05262010f1c84549a62010f1581610b8051876201170f565b8d6200a9f6565b60ff845460401c169e8f62010f318162008099565b6201102d5762010f42838562015295565b156201100e575050610b805162010f5c9160110162013573565b62010f6e610ba05160058b016201367f565b54975416996040519b610ba0518d528c6020610b8051910152151560408d015262010f998162008099565b60608c015263ffffffff8560981c1660808c015260a08b015260c08a015260e08901526101008801526001600160501b038160481c166101208801526001600160501b038360481c1661014088015260b81c1661016086015260b81c166101808401526101a08301526101c0820152a1600190565b6201102792506201102090846201862a565b8262015315565b62010f6e565b6201103983856201524f565b62010f42565b97509a5050965050505050600a919350146201105c575050505f90565b6084935060036001600160501b039101546040519363063c641b60e41b85526004850152818116602485015260501c1660448301526064820152fd5b9491929662010e889196949897610b80528483888862014dbc565b90805f5260d560205260405f2092825f526003840160205260405f20549061ffff8260401c1680156201121657620110ee8196959662008cde565b9363ffffffff5f94169660028701975b801515806201120c575b15620111475761ffff956201112c620111218262008b76565b9783169189620086e3565b525f528760205263ffffffff60405f205460201c16620110fe565b50935093919550936201115a836200a2cc565b600981019260105f9201915b87811062011178575050505050505050565b807fb52688454dfd5028443d05c10bc78a9ca263b7c7645d2e8bfef428d0e8b3b047620111a860019385620086e3565b51805f5285602052620111bf60405f208a6200f85e565b620111cc818a896200f976565b90620111d9818a6200fd08565b620112026040519283928d8d859094939260609260808301968352602083015260408201520152565b0390a10162011166565b5083861062011108565b509350505050565b90929192805f5260d560205260405f2092825f526003840160205260405f20549161ffff8360401c16908115620113ac576201125d8297969762008cde565b9463ffffffff5f95169760028101985b80151580620113a2575b15620112b65761ffff966201129b620112908262008b76565b988316918a620086e3565b525f528860205263ffffffff60405f205460201c166201126d565b50929691959397509350620112cb846200a2cc565b600981019360105f9201915b888110620112ea57505050505050505050565b807fb52688454dfd5028443d05c10bc78a9ca263b7c7645d2e8bfef428d0e8b3b0478989620113848a8a620113618b6201135a8c876201132d60019d8f620086e3565b519586948593845f5260205260405f209080155f146201138e57506201135490836200f85e565b6200f976565b936200fd08565b604051948594859094939260609260808301968352602083015260408201520152565b0390a101620112d7565b6201139a918462014294565b50506200f976565b5084871062011277565b50509350505050565b6002015464ffffffffff8082169160281c1690818103620113d4575050565b6395626a2760e01b5f5260045260245260445ffd5b90915f5f9280155f1462011470575050620f4240925b806201140e5750620f42409150565b60018103620114205750620186a09150565b600281036201143157506127109150565b600381036201144257506103e89150565b6004810362011452575060649150565b60058103620114625750600a9150565b600603620084295760019150565b6001810362011487575050620186a0925b620113ff565b600281036201149c57505061271092620113ff565b60038103620114b15750506103e892620113ff565b60048103620114c5575050606492620113ff565b60058103620114d9575050600a92620113ff565b90939060051901620114815760019350620113ff565b9091925f928085106201152e57936201150f8394956201151a946200d2e1565b93909184956200d2e1565b80940362011526575050565b0360050b9350565b849061ffff600285015460a81c16635d00a16960e01b5f5260045260245260445260645ffd5b906001600160a01b03620115b492165f806040519362011576604086620082e3565b602085527f5361666545524332303a206c6f772d6c6576656c2063616c6c206661696c6564602086015260208151910182855af162005f7862014f7b565b805190811591821562011637575b505015620115cc57565b60405162461bcd60e51b815260206004820152602a60248201527f5361666545524332303a204552433230206f7065726174696f6e20646964206e60448201527f6f742073756363656564000000000000000000000000000000000000000000006064820152608490fd5b819250906020918101031262003f125760200151801515810362003f12575f80620115c2565b9190926201166c8183620085cc565b9160068311620116985750506006036006811162003c52576200837c926200baae620042979262009cf5565b632f0a93cd60e21b5f5260045260245260445ffd5b90600182101580620116c4575b156200d1c1575090565b50808210620116ba565b9060648202918083046064149015171562003c52576200837c9162013540565b906001600160501b03809116911601906001600160501b03821162003c5257565b6003810180546001600160501b03811695949391908685116201173c57505050620084299293506200d2c5565b6001600160501b0390605095929493951c166001600160501b03620117628289620116ee565b168211620117db575060026060949392620117a37f24600c3aa8cc38cbdf9648ea5ebfea6227de49651807d1a2a58fe70ea24953cc979861ffff946200857d565b845469ffffffffffffffffffff1916909455620117c184826200c375565b015460a81c169160405192835260208301526040820152a1565b6002830154604051635b80bdb960e11b815260a89190911c61ffff1660048201526001600160501b0380891660248301529091166044820152606481019190915280608481010390fd5b9190916001600160501b0383116201187d576001600160501b036200842992931672ffffffffffffffffffff0000000000000000001972ffffffffffffffffffff00000000000000000083549260481b169116179055565b826395d41f3f60e01b5f526004526001600160501b0360245260445ffd5b60f0018060f01162003c52576001901b90565b81601f8201121562003f1257805190620118c88262008306565b92620118d86040519485620082e3565b8284526020838301011162003f1257815f9260208093018386015e8301015290565b9060208282031262003f1257815167ffffffffffffffff811162003f12576200837c9201620118ae565b90916201193e6200837c9360408452604084019062007d53565b91602081840391015262007d53565b519063ffffffff8216820362003f1257565b519077ffffffffffffffffffffffffffffffffffffffffffffffff8216820362003f1257565b51908160170b820362003f1257565b908161012091031262003f125762011a4761010060405192620119b78462008233565b80518452620119c9602082016201194d565b6020850152620119dc604082016201194d565b6040850152620119ef606082016201195f565b606085015262011a02608082016201195f565b608085015262011a1560a082016201194d565b60a085015262011a2860c0820162011985565b60c085015262011a3b60e0820162011985565b60e08501520162011985565b61010082015290565b915f905f905f91815182016080836020830192031262003f125780603f8401121562003f125760405162011a848162008216565b608084019082821162003f125760208501905b82821062011f4b575050519067ffffffffffffffff821162003f1257602062011ac392850101620118ae565b805115620086f85761ff0080602083015160f01c161690805160011015620086f8576021015160f81c176003810362011ef1575060209160405162011b098482620082e3565b5f8152881562011ec9575f9062011b45926001600160a01b0360ca54169083604051809681958294637bf41d7760e11b84526004840162011924565b03925af190811562011ebe575f9162011e97575b50925b83519562011b7284808701988701018862011994565b5160068901549081810362011e2957505063ffffffff604062011b9b8688518901018a62011994565b0151169642881162011db95788549463ffffffff8660601c16808a111562011d53575060c062011bd18289518a01018462011994565b0151968760170b5f811262011cf5575063ffffffff9260a0928262011bfa935101019062011994565b0151169062011c1161ffff8660a01c1642620085cc565b80831062011c7f57505050505062011c6d9177ffffffffffffffffffffffffffffffffffffffffffffffff62011c5160ff62011c599460b01c1662015162565b91166200858b565b9463ffffffff60098596015416866200bc69565b62011c79575050600192565b93909150565b94509450949550969097955062011cdb576040805192835263ffffffff9093166020830152918101919091527f7f93aebf261535cb0331009511ba8896f348b68b1e0d448196c002a6bfcbdb7a9080606081015b0390a1929190565b9250637f93aebf60e01b5f5260045260245260445260645ffd5b975050945050949550969097955062011d3c57916040917f4d8c851d919cf102ec02f76a35ca2f0b9e8ca3e9cd36ecc7128c03c7048e247a938351928352820152a1929190565b5090634d8c851d60e01b5f5260045260245260445ffd5b9550939a985050949593509662011d9f57917fac23cd4bf85c84f3aa74c4752cbc1abc6ca3871a6e6b676f56bd64f992b700ae93916060936040519384528301526040820152a1929190565b508263ac23cd4b60e01b5f5260045260245260445260645ffd5b509495935096915096945062011e0f576040805192835263ffffffff909116602083015242908201527f560f753ea20ff5d3b404893dc8502570dec81bbc02626784a8f3d635f9c21b2990806060810162011cd3565b90632b07ba9f60e11b5f526004526024524260445260645ffd5b94509596509350969097955062011e7d57604080519283526020830193909352918101919091527fe9ab5ccfbd8b803e0bd519630f62d1a32b22e517a5bfcd78e8c860b36c98386b90806060810162011cd3565b925063e9ab5ccf60e01b5f5260045260245260445260645ffd5b62011eb791503d805f833e62011eae8183620082e3565b810190620118fa565b5f62011b59565b6040513d5f823e3d90fd5b62011ed5918762014faf565b901562011ee3579262011b5c565b509694505093509050929190565b9550505050509162011f35577f09c9ec7d8ebb7546d7aa7fae159f14736cab80420326900e4b1ce60942f331d89160409182519182526020820152a15f905f905f90565b906309c9ec7d60e01b5f5260045260245260445ffd5b815181526020918201910162011a97565b1562011f6457565b634e487b7160e01b5f52600160045260245ffd5b9262011fa862011fcd9362011fa1869462011f9a8162011f9a8860646200be05565b946200be05565b906200c3d4565b62011fb482826200c3f8565b915f8212918262012029575b50506201201e576200bdd7565b8160648293125f1462011ffa5713158062011fee575b6200837c9062011f5c565b50606481131562011fe3565b6200837c9160641315908162012012575b5062011f5c565b90508213155f6201200b565b6200db24906200bdf3565b62012035925062010c28565b15155f8062011fc0565b9162011fa860649262011fa1620120629562011f9a8162011f9a8860016200be05565b80600113158062011fee576200837c9062011f5c565b9061a7676201208e61217b91840680946200857d565b92049061217b82029180830461217b148115171562003c52576200837c909284620085cc565b6001820180921162003c5257811c9081620120d05750505f1990565b6200429d6200837c925b905f916fffffffffffffffffffffffffffffffff811615620121e9575b67ffffffffffffffff811615620121d2575b63ffffffff811615620121bb575b61ffff811615620121a4575b60ff8116156201218d575b600f81161562012176575b60038116156201215f575b600116156201214f57565b906001810180911162003c525790565b916002810180911162003c52579160021c62012144565b916004810180911162003c52579160041c62012139565b916008810180911162003c52579160081c6201212e565b916010810180911162003c52579160101c62012123565b916020810180911162003c52579160201c62012117565b916040810180911162003c52579160401c62012109565b60809250821c620120f7565b9192608093969594919661ffff60a085019816845260208401526200afd58162008099565b93909192935f5f93549564ffffffffff8760b81c1681115f14620125f1575064ffffffffff8660b81c16955b86958354906201226e60ff8360b81c1660ff8460b01c168b63ffffffff8760981c166201165d565b906201228860028701549261ffff8460c81c1690620116ce565b906201229588886200bd01565b968715620125db578a9b508460b81c60ff168560b01c60ff1690620122ba91620113e9565b9091438860e01c620122cc92620114ef565b505090620122db908d62008537565b8760401c60ff16620122ed9362014d5e565b938560481c6001600160501b03168b8760b81c64ffffffffff16916201231392620151e7565b9390508660401c60ff16620123289062008099565b8660401c60ff16159c8d91878460b81c60ff16928560b01c60ff1692888c60981c63ffffffff16916201235b9762010d2e565b998a156201251d578c8062012513575b8015620124ff575b620124785750808c868d60ff80620123a19660b81c169460b01c16928763ffffffff8c60981c169162010db8565b978815620123b55750505050505050600195565b9b969798999a9b6201242c576040805160a89490941c61ffff168452602084019190915282015260989290921c63ffffffff1660608301526080820188905260a08201527f2e92846d5b5d5dd9cf60dd19064afe4a911e6751cdad455cb26a600db66e963c908060c081015b0390a1959493929190565b604051632e92846d60e01b815260a89390931c61ffff1660048401526024830152604482015260989290921c63ffffffff1660648301526084820188905260a48201528060c481010390fd5b999a9b9c9798925050919250620124ce579162012421888760ff947f2822c66c89ce366f8d2961ecb44375cdaf6fd59a220e83b68f12498108778f849661ffff60405197889760401c169260a81c1686620121f5565b60408051630a08b19b60e21b815293849362001826938b938a93901c60ff169160a81c61ffff1660048701620121f5565b508c1580156201237357508a891062012373565b508a89116201236b565b999a9b9c979890506201258f576040805160a89490941c61ffff168452602084019190915282015260989290921c63ffffffff1660608301526080820188905260a08201527f0df65f0bfef22299d2332a74323c24d136c79b82d668afc82cfe8dfb0d75a2f2908060c0810162012421565b604051630df65f0b60e01b815260a89390931c61ffff1660048401526024830152604482015260989290921c63ffffffff1660648301526084820188905260a48201528060c481010390fd5b505f9b8c9b9a508b995089985095505050505050565b9562012246565b9092919082156201266a57838110620126625762012629916200e3c6915b858515620126565762010c76916200857d565b90156201263c57906200837c91620085cc565b8082111562012650576200837c916200857d565b50505f90565b9062010c76916200857d565b505050505f90565b808410620126625762012629916200e3c69162012616565b95620127069192969594955f9584549888620126b7818c64ffffffffff6001600160501b038260481c169160b81c16620151e7565b979093620126fc8a620126ca8b6200c3c3565b9e60ff8160401c169e8f918a549360ff808660b81c169560b01c169363ffffffff8360981c169260e01c918d6200ba64565b9991909a6200bdd7565b9b5f8d126201294e57506201271b8c6200c3c3565b8c60018801548060401c62ffffff166201273690836200c3d4565b5f610ba052620186a09005610ba052610ba0515060581c62ffffff166201275d916200c3d4565b620186a090059a8b9d8c610ba05162012776916200bdd7565b62012781916200be05565b9b87158062012946575b62012922575b50620127b7600389016001600160501b036200c398610ba05182845460501c1662018648565b620127c28262015208565b915f811215620128a0575050620127dc915084876201170f565b825f5260d560205260405f2093620127f58c8662015218565b996201280e60c954916001600160701b03831662018648565b906001600160701b0319161760c95560ff825460401c16620128308162008099565b6201288e5762012841838762015295565b156201287257505061ffff60028462012864600594601162008429980162013573565b015460a81c1691016201367f565b91509150620084299250620128888a82620152c0565b62015315565b6201289a83876201524f565b62012841565b82620128b1575b50505050620127dc565b7fbee5185c13c42cac0d82b6c115c77d5e8dc2b2888c013d169e068e634f57f58e93620128e160e0948b6200fd5c565b61ffff60028b015460a81c16926040519384528860208501526040840152866060840152151560808301525f60a083015260c0820152a15f808080620128a7565b909d5062012935816201293c936200bdd7565b9e6200bdd7565b9c5f9c5f62012791565b50836201278b565b848d8c8660c49461ffff60028d015460a81c169460405195630c62a44b60e11b8752600487015260248601526200f6258162008099565b9260a094919796959260c085019885526020850152620129a58162007d94565b6040840152606083015260808201520152565b600181109291831562012a2d575b83620129d0575050565b62012a0d57507f36bcd027a371ec05acd4f563a155f51be204511b55fb95d0451703d02e3ca185604080516001815264ffffffffff6020820152a1565b630793b30360e11b5f52600452600160245264ffffffffff60445260645ffd5b92508064ffffffffff1092620129c6565b6106c08190526105e08490525f6105a05290926103e89162012a649190600901620162a7565b610600525f610580526105c0839052915b8015158062013505575b15620134c15783151580620134cc575b620134c157505f610560525f610680525f610620525f6105605262012abb8260096106c051016200bad7565b50610540526105c05161068052610620525b61068051151580620134b4575b80620134a7575b15620133b557610540515f5260106106c0510160205260405f20805463ffffffff81165f5260d560205260405f206106405260ff610640515460a01c1662012b298162007d94565b1562012bcd57505f8161ffff7f86ad99b48b2565c9720e33335db58e8c7468d6af03a5e6238b20d4a562f5b8b4935460c81c166105405262012bc462012b8960018461ffff60026106c051015460a81c16809560096106c051016201a25e565b9096916040949394519788978893909796959260c0959260e08601998652602086015260408501526060840152608083015260a08201520152565b0390a162012acd565b62012be163ffffffff8260781c166200f820565b1562012c4157505f8161ffff7fb95e250f9f017dcb1bb1806916771df0c04a269e5f46d5db7519382a0f7bb477935460c81c166105405262012bc462012b8960018461ffff60026106c051015460a81c16809560096106c051016201a25e565b63ffffffff811662012ca757505f8161ffff7f52d5291dc7b477ebda965d0693c67e6ccec5b3667b530305685465384756d3fd935460c81c166105405262012bc462012b8960018461ffff60026106c051015460a81c16809560096106c051016201a25e565b5f62012cb960ff8360201c1662010087565b62013345575b1562012d1f57505f8161ffff7fae6369c6e529c86dd87431d10e0db70657c834daa75356e1efd7c0ac79f934b7935460c81c166105405262012bc462012b8960018461ffff60026106c051015460a81c16809560096106c051016201a25e565b9064ffffffffff8260401c16806106a05262012d4160ff8460201c1662010087565b6201330a575b610680518111801561066052620132fc5762012e04815b60026106c05101549062012dc762012db964ffffffffff841664ffffffffff8560281c168082115f14620132f457505b60ff8560e01c169060ff8660d81c169064ffffffffff8760501c16908661ffff8960b81c166200d1de565b61ffff8860981c16620116ad565b9061ffff808860d81c169360881c16916106a0519061060051906106005190610600519060ff8c60201c169063ffffffff8d166106c05162015352565b61084051929593909286916006198101620131b757506106605115620131465762012e4162012e37876106005162008537565b61056051620085cc565b6105605262012e5486610680516200857d565b610680525b62012e676106205162009d70565b61062052610660511562012f9457505050916101209391859362012ecd62012ec663ffffffff7ff5f5aef063f495816b6982c44c70c97c8fbec2fa24b73487e6542ce02143121499168461ffff60026106c051015460a81c1662014294565b956200bdd7565b9261ffff835460c81c166105405262012f2562012f0461ffff8860a81c1661ffff60026106c051015460a81c16610640516200f976565b9362012f1760ff825460201c16620100b5565b9060096106c05101620139c2565b62012f3e61ffff8760a81c1660096106c0510162013f2d565b61ffff8060026106c051015460a81c169660405197885263ffffffff8116602089015260a81c166040870152610600516060870152608086015260a085015260c084015260e0830152610100820152a162012acd565b90949391955060ff60026106c0510154925460201c165f9061ffff8960a81c16156201311a5761ffff8960a81c166303ff00008560981c16175f526002610640510160205260405f209384549163ffffffff831615620130e557967ff5f5aef063f495816b6982c44c70c97c8fbec2fa24b73487e6542ce0214312149a9896949281969492620130286101209c9a620138fb565b156201307157505050506201305f8262013055836001600160501b036201306a965460901c1692620194c5565b6106405162013960565b506106405162019511565b9162012f3e565b620130df94509461ffff620130d99293949660a81c165f526003610640510160205264ffffffffff620130ae858260405f209660681c166201020a565b825471ffffffffff000000000000000000000000001916911660681b64ffffffffff60681b16179055565b62013923565b6201306a565b5061ffff8a8163ffffffff60016106405101541693638d5bba0f60e01b5f5260a81c1660045260a81c1660245260445260645ffd5b8361ffff63ffffffff600161064051015416916369bc91ef60e11b5f5260a81c1660045260245260445ffd5b94506201315e62012e37610680516106005162008537565b61056052620131a764ffffffffff620131816106805182885460401c166201020a565b86546cffffffffff00000000000000001916911660401b64ffffffffff60401b16178555565b61068051945f6106805262012e59565b9650505050509250600d8214620132a85782610180927f1c304023b27262393dcde9fe67af613bc45ee4f8c452b031dc393d074031157b945461ffff8160c81c166105405261ffff60026106c051015460a81c1693610660515f146201329c57915b61ffff6201323960015f8860ff8760201c169860096106c051016201a25e565b969397929891906040519a8b5260208b015260408a01526201325b8162007d94565b606089015261060051608089015260a088015260d81c1660c086015260e08501526101008401525f610120840152610140830152610160820152a162012acd565b50610680519162013219565b608461ffff60026106c051015460a81c1661ffff6106c0515460405192631f466abb60e21b8452600484015263ffffffff8160201c16602484015242604484015260a01c166064820152fd5b905062012d8e565b62012e046106805162012d5e565b63ffffffff83165f5260126106c0510160205264ffffffffff60405f205460b81c168181106201333c575b5062012d47565b90505f62013335565b5063ffffffff81165f5260126106c0510160205260405f2064ffffffffff815460b81c161515159081156201337c575b5062012cbf565b60ff91505460401c16620133908162008099565b620133a160ff8360201c1662007d94565b15600260ff8360201c161414155f62013375565b61062051916106805190620133d1610560516105a051620085cc565b6105a052610680516105c0510362013491575b610620511562013422576106805162013400575b929062012a75565b9150620134176105e05160096106c05101620162a7565b6106005291620133f8565b50929150507fb492fac0bb9e8c8d824bf2a4c19ec1efd3e98e987de34e127bc17eb2b5c0605e5f80a15b610580516201345757565b6106c05161058051600191909101805467ffffffffffffffff191663ffffffff92909216919091174260201b63ffffffff60201b16179055565b6106005161058052610680516105c052620133e4565b5061062051151562012ae1565b5061054051151562012ada565b93925050506201344c565b506105e05180620134f8575b8062012a8f57506105e05115801562012a8f575061060051841162012a8f565b50610600518410620134d8565b5061060051151562012a7f565b5f90806201351e575090565b5f1981019150811162003c5257620186a090046001810180911162003c525790565b90816201354d5750505f90565b5f19820191821162003c525762013564916200858b565b6001810180911162003c525790565b906001820191815f528260205260405f2064ffffffffff815460b81c166201359b5750505050565b549063ffffffff808360201c16921663ffffffff82541684145f146201366357620135c78183620162f4565b8062013644575b815460201c63ffffffff16840362013627575081620135ed9162016318565b806201360b575b505b5f526020525f60408120555f8080806200bc96565b5f528160205260405f2063ffffffff1981541690555f620135f4565b6201363e9291505f528360205260405f2062016318565b620135f6565b805f528460205260405f2063ffffffff60201b198154169055620135ce565b825f5284602052620136798160405f20620162f4565b620135ce565b9060fc811162013695576001901b198154169055565b6101fc8111620136ea57620136ac6001916200856d565b1b19600182019081541680915515620136c25750565b7fdfffffffffffffffffffffffffffffffffffffffffffffffffffffffffffffff8154169055565b6102fc81116201373f57620137016001916200855c565b1b19600282019081541680915515620137175750565b7fbfffffffffffffffffffffffffffffffffffffffffffffffffffffffffffffff8154169055565b6103fc8111156201374e575050565b6201375b6001916200854b565b1b19600382019081541680915515620137715750565b6001600160ff1b038154169055565b90620137a260c954926c1fffffffffffffffffffffffff8460701c16620101b2565b917fffffffffffe0000000000000000000000000ffffffffffffffffffffffffffff8360701b91161760c955565b906303fcffff8082116201382957507fffffffffffff00000000ffffffffffffffffffffffffffffffffffffffffffff79ffffffff0000000000000000000000000000000000000000000083549260b01b169116179055565b906395d41f3f60e01b5f5260045260245260445ffd5b906303fcffff808211620138295750815463ffffffff60401b191660409190911b63ffffffff60401b16179055565b906303fcffff8082116201382957507fffff00000000ffffffffffffffffffffffffffffffffffffffffffffffffffff7dffffffff000000000000000000000000000000000000000000000000000083549260d01b169116179055565b906303fcffff808211620138295750815467ffffffff00000000191660209190911b63ffffffff60201b16179055565b620139068162007d94565b801590811562013914575090565b60019150620100b18162007d94565b64ffffffffff6201393f620084299382845460581c166201020a565b825464ffffffffff60581b1916911660581b64ffffffffff60581b16179055565b805460501c6001600160501b0316929180841115620139ba57808403935b6001600160501b038511620101d3575050805469ffffffffffffffffffff60501b1916605084901b69ffffffffffffffffffff60501b16179055565b5f936201397e565b9080548060281c9062ffffff8216948592620139df84876200bad7565b9061ffff8560a81c16809114918262013f22575b505062013d4d575b50505050805461ffff8160b81c1690811580809162013d3d575b1562013b02575050505060069062013a326007840680946200857d565b5f520160205260405f2090600160ff1983541617825580155f1462013a605750805464ffffffff0019169055565b6001810362013a7c5750805468ffffffff000000000019169055565b6002810362013a9c575080546cffffffff00000000000000000019169055565b6003810362013ac05750805470ffffffff0000000000000000000000000019169055565b6004810362013ada5750805463ffffffff60881b19169055565b60050362013af257805463ffffffff60a81b19169055565b805463ffffffff60c81b19169055565b9294921562013c8b5750508261ffff91826007955460c81c1662013b2a86830680936200857d565b5f526006850160205260405f2091600160ff1984541617835580155f1462013b815750815462ffff00191660089190911b62ffff00161790555b5460c81c165f520160205260405f2061ffff60b81b198154169055565b6001810362013baf5750815466ffff0000000000191660289190911b66ffff00000000001617905562013b64565b6002810362013be5575081546affff000000000000000000191660489190911b6affff0000000000000000001617905562013b64565b6003810362013c19575081546effff00000000000000000000000000191660689190911b61ffff60681b1617905562013b64565b6004810362013c435750815461ffff60881b191660889190911b61ffff60881b1617905562013b64565b60050362013c6b57815461ffff60a81b191660a89190911b61ffff60a81b1617905562013b64565b815461ffff60c81b191660c89190911b61ffff60c81b1617905562013b64565b60c81c61ffff168062013cd15750508262013cb461ffff92836007965460b81c1690856201636d565b5460b81c165f520160205260405f2061ffff60c81b198154169055565b620084299491925062013d0c90600761ffff9501935f528360205260405f209061ffff60c81b1961ffff60c81b83549260c81b169116179055565b5490828260c81c165f5260205260b81c1660405f209061ffff60b81b1961ffff60b81b83549260b81b169116179055565b5061ffff8260c81c161562013a15565b600386019260058701918160301c9261ffff841691825f5281602052600160ff60405f205492161b1916915f526020528060405f20551562013ed4575b50501562013e3757835462ffffff8160781c1683145f1462013e0057509062013db3916200ff76565b5f19810362013dee575081547fffffffffffffffffffffff000000000000ffffffffffffffffffffffffffffff1682555b825f8080620139fb565b62013dfa90836201896c565b62013de4565b60901c62ffffff16821462013e18575b505062013de4565b62013e2f9162013e28916200d581565b836201891b565b825f62013e10565b835462ffffff8160481c1683145f1462013ea657509062013e58916200ff76565b5f198114801562013e93575b1562013e87575081546effffffffffff0000000000000000001916825562013de4565b62013dfa9083620188e6565b5062ffffff835460781c16811462013e64565b60601c62ffffff16821462013ebd57505062013de4565b62013e2f9162013ecd916200d581565b8362018892565b60ff9060381c16906004870190825f5281602052600160ff60405f205492161b191690825f526020528060405f20551562013f11575b8062013d8a565b6001901b1982541682555f62013f0a565b1490505f80620139f3565b5f828152600782016020526040902080547fffffffffff0000000000000000000000000000000000000000000000000000001663ffffffff60781b179055811562013fd55762013fa582620084299360081c90815f5260028401602052600160ff60405f2092161b19815416905560018301620189ad565b62013fb861ffff825460201c166200f965565b65ffff0000000082549160201b169065ffff000000001916179055565b6302f9530760e61b5f5260045ffd5b9061010003610100811162003c52575f19901c16806201400457505f1990565b6200837c905b905f916fffffffffffffffffffffffffffffffff811162014101575b67ffffffffffffffff8111620140ea575b63ffffffff8111620140d3575b61ffff8111620140bc575b60ff8111620140a5575b600f81116201408e575b6003811162014077575b6001106201214f57565b916002810180911162003c52579160021c6201406d565b916004810180911162003c52579160041c62014063565b916008810180911162003c52579160081c62014059565b916010810180911162003c52579160101c6201404f565b916020810180911162003c52579160201c62014044565b916040810180911162003c52579160401c62014037565b60809250821c62014026565b9190806201411b5750501590565b80620186a092938181115f14620141365703925b0291021090565b9003926201412f565b9190916201414d816200f820565b928362014158575050565b6201418f5760407f8ecb05e775f8b004d0796e497a6b28cfe97a6f8acd115327138350b5a08347ed918151908152436020820152a1565b638ecb05e760e01b5f526004524360245260445ffd5b61ffff8111929183620141b6575050565b620141f65760607fe99e76b7075a2c30a8d971cb3f247cba3e1995e4d12ff31053b190b2f71dcc7b916040519081525f602082015261ffff6040820152a1565b63e99e76b760e01b5f526004525f60245261ffff60445260645ffd5b91909294935f958203620142265750505050565b9091929394506201427a57604080519283526020830193909352918101919091527f0ff65eacbb5b956c92957d3a4c76260d051566a34945c41b4e621bc895918ee790606090a16001905f8080806200bc96565b92506303fd97ab60e21b5f5260045260245260445260645ffd5b9291905f93825f5260d560205260405f2092825461ffff8160681c169081158015620142cf575b5050505050506001600160501b0390541690565b6127108394959699930293840461271014171562003c525760c95460701c6c1fffffffffffffffffffffffff168084116201439857505050917e106621f9f74b437219c51c8fded1d9faa8056f77fd0f3631d2ab8967a4d75d916201438884620143426001600160501b03979662013780565b906201434f81886200a9f6565b61ffff819a5460a81c16604051958695869160809361ffff91979695929760a08501988552602085015216604083015260608201520152565b0390a15b905f80808080620142bb565b620144049192985061ffff937ff662aa6b6412ffe2a4e433dace098e96260a08fdaefdb023773e41f999b7c4ec956001600160501b03989760405196879660a81c1691869160809361ffff91979695929760a08501988552602085015216604083015260608201520152565b0390a16201438c565b610b40819052610ae09190915260020154610b80528054610ba081905260c083013592919060781c63ffffffff165f8062014448836200f820565b1562014b4c575050600190841562014a9757508093955b5f9564ffffffffff610ba05160401c169560a08601358015158062014a8c575b62014a64575b5063ffffffff6009610b405101541662ffffff610ba05160281c16610b0052610b0051155f1462014a4e575f905b60808298013591821515908162014a42575b5062014a1c575b50501562009f88576201451760ff610b805160e01c1660ff610b805160d81c1664ffffffffff610b805160501c1664ffffffffff610b8051168a61ffff610b805160b81c166200d1de565b96801562014a08575b80610b605215620149f2575b6201454060ff610ba05160201c16620100b5565b610b20525f96610b6051620147f7575b50505080620147db575b610b00518254604086901b64ffffffffff60401b1660289290921b67ffffff0000000000167fffffffffffffffffffffffffff00000000ffff0000000000000000ffffffffff9091161717607887901b63ffffffff60781b1617825562014796575b610b605115620147555760ff815460201c169461ffff610ba05160a81c1615620147275761ffff610ba05160a81c166303ff0000610b805160981c16175f526002610ae0510160205260405f2080549663ffffffff881615620146eb576201462490620138fb565b15620146c05762014687866201467d60c09861ffff94620146766001600160501b037fbf5d27a683d1ce858f6095fde2cc9837ba595c533e97576c5ff3de4376ccbf3c9d60901c16610ae05162013960565b50620194c5565b610ae05162019511565b925b5460a81c16936001600160501b03610ae051541693604051958652602086015260408501526060840152608083015260a0820152a1565b63086415b760e01b5f5261ffff610b805160a81c1660045261ffff610ba05160a81c1660245260445ffd5b63ffffffff6001610ae051015416638d5bba0f60e01b5f5261ffff610b805160a81c1660045261ffff610ba05160a81c1660245260445260645ffd5b63ffffffff6001610ae0510154166369bc91ef60e11b5f5261ffff610b805160a81c1660045260245260445ffd5b60c093507fbf5d27a683d1ce858f6095fde2cc9837ba595c533e97576c5ff3de4376ccbf3c9461ffff6001600160501b03610ae0515460501c169262014689565b80547fffffffffff00000000ffffffffffffffffffffffffffffffffffffffffffffff168155610b2051610b4051620147d59190839060090162019142565b620145bc565b620147f1610b2051836009610b405101620139c2565b6201455a565b6201486597506201483c62014818849261ffff610ba05160981c16620116ad565b888861ffff610b805160881c169260ff610ba05160201c169087610b4051620164fe565b5095939b92819592919c8c610b00518d610b205160ff610ba05160201c168a610b40516201672c565b15620149e65761ffff610ba05160a81c166303ff0000610b805160981c16175f526002610ae0510160205260405f20549063ffffffff821615620149b857506001600160501b039060901c1690610ae05154926001600160501b038460501c169280841015620149a4575b506001600160501b035f9416928084116201498e575b5080156201498657620148f991620085cc565b905b818310938462014918575b505050506200f286575f808062014550565b6201496c576040805192835260208301939093526001600160501b0316918101919091527fb853e5846ad52919c794f709695100094681c458cd1864d5217c6c897b6858b190606090a15f80808062014906565b9250632e14f96160e21b5f5260045260245260445260645ffd5b5090620148fb565b6201499c919450836200857d565b925f620148e6565b620149b091936200857d565b915f620148d0565b638d5bba0f60e01b5f5261ffff610b805160a81c1660045261ffff610ba05160a81c1660245260445260645ffd5b50505050505050505050565b61ffff610ba05160981c1615610b60526201452c565b5061ffff610ba05160981c16871062014520565b96509750509150600191829662014a358496826200857d565b610b0052945f80620144cc565b90508214155f620144c5565b62014a5d81610b0051620085cc565b90620144b3565b9691975050829192911562014a81575b5090600195865f62014485565b905084115f62014a74565b50878114156201447f565b95935050505062014b0257907fef9c486e607431362e32f87055ecc54107d0bde504cfbca8d6a59a6108b99ead916200a4df60405192839261ffff610ba05160a81c1661ffff610b805160a81c16859094939260609260808301968352602083015260408201520152565b620018266040519283926377ce243760e11b845261ffff610ba05160a81c1661ffff610b805160a81c16600486019094939260609260808301968352602083015260408201520152565b919690948062014b5e575b506201445f565b9650600194505f62014b57565b939190805f5260d5602052600360405f20019061ffff600287015460a81c1691825f5260205260405f205464ffffffffff8160581c1696871562014d5157601290835f520160205260ff60405f209160501c1690549260ff8460401c169262014bd48462008099565b83158315150362014c87575050505060b81c64ffffffffff16938085111562014c7e5762014c0390856200857d565b905b8181119384159462014c1957505050909150565b62014c63576200cf047f1b7ba008cbebdd0330e64275c62765a671adbce08d86e7b894f0601a886b78cf939495604051938493846040919493926060820195825260208201520152565b84925063036f740160e31b5f5260045260245260445260645ffd5b505f9062014c05565b92959796919450925062014cf9575050916060917f04d93c80531ebbd61ebd9906714391b8431ec4437abe44969d252210244128de935f1462014cf1575f5b60405192835262014cd78162008099565b602083015262014ce78162008099565b6040820152a15f90565b600162014cc6565b8460a49492935f1462014d48575f915b60405194634298a83160e01b865260048601526024850152604484015262014d318162008099565b606483015262014d418162008099565b6084820152fd5b60019162014d09565b5050505050915050600190565b620f42409193926200429762014d85925f861295865f14620042975762004297906200c3c3565b049162014d928162008099565b62014dab571562014da05790565b6200837c906200c3c3565b156200837c576200837c906200c3c3565b92939162014e2291955f96549362014dec876001600160501b038760481c1664ffffffffff8860b81c16620151e7565b9490938596859989549260ff808560b81c169460b01c169263ffffffff8160981c169160ff8260e01c9260401c16908d6200ba64565b949195908562014e348298846200bdd7565b941562014e765750505050505f5b6001600160501b0362014e6360038398015482808260501c169116620116ee565b16811162014e6e5750565b600a97509450565b5f851262014e88575050505062014e42565b600c9b509299505f98509096509450925050565b620f4240919381841193845f1462014ee95762014ebe9262004297916200857d565b04915b62014ecc8162008099565b62014ee257156200837c576200837c906200c3c3565b1562014dab565b620042979062014ef9936200857d565b049162014ec1565b5f60443d106200837c576040513d600319016004823e8051913d602484011167ffffffffffffffff84111762014f75578282019283519167ffffffffffffffff831162014f6d573d8401600319018584016020011162014f6d57506200837c92910160200190620082e3565b949350505050565b92915050565b3d1562014faa573d9062014f8f8262008306565b9162014f9f6040519384620082e3565b82523d5f602084013e565b606090565b9291909262014fe85f80936060966001600160a01b0360ca54169083604051809681958294637bf41d7760e11b84526004840162011924565b03925af15f918162015142575b506201513857505f60033d1162015127575b806308c379a014620150cf57634e487b711462015071575b7f7d7f9345462f0c85c00b5c2083a2ddd2d72fb70e98d0ebed71562cba6feef687906201504b62014f7b565b906201506a604051928392835260406020840152604083019062007d53565b0390a19190565b5f8060233d11620150bd575b6201508957506201501f565b7fe526d22a15e94c788050d8c0ca8cddc836ce3580e3dbe7ac64afb9229c7d633e9160409182519182526020820152a19190565b5050602060045f3e5f5160016201507d565b50620150da62014f01565b80620150e757506201501f565b7fd83687e05ff302f677e5adcaeee1a4cb3c6473e57b9000d71f2c42ff6ada466c916201506a604051928392835260406020840152604083019062007d53565b5060045f803e5f5160e01c62015007565b9293505050600191565b6201515a9192503d805f833e62011eae8183620082e3565b905f62014ff5565b6006810362015175575064e8d4a5100090565b600581036201518957506509184e72a00090565b600481036201519d5750655af3107a400090565b60038103620151b2575066038d7ea4c6800090565b60028103620151c75750662386f26fc1000090565b600114620151db57670de0b6b3a764000090565b67016345785d8a000090565b82811493928415620151f857505090565b62000c24906200837c9362008537565b5f8112620152135790565b5f0390565b919062015230906001600160501b0384541662018648565b825469ffffffffffffffffffff19166001600160501b03821617909255565b9064ffffffffff6201527060026200842994019282845460281c166201020a565b825469ffffffffff00000000001916911660281b69ffffffffff000000000016179055565b64ffffffffff620152af600282930193828554166201020a565b161664ffffffffff19825416179055565b6001600160501b03620152de620084299382845460481c1662018648565b825472ffffffffffffffffffff0000000000000000001916911660481b72ffffffffffffffffffff00000000000000000016179055565b64ffffffffff62015331620084299382845460b81c166201020a565b825464ffffffffff60b81b1916911660b81b64ffffffffff60b81b16179055565b9a999897949693929a6109e0526109c0526109a0526109205261098052610960525f6106e0525f6108c0525f610840525f610820525f6106e0525f6108c0525f610840525f610820525f906109c0515f5260d560205260405f20610940526001600160501b03610940515416610900526109c0515f5260126109e0510160205260405f2061080052620153ed61096051886108005162018690565b620153f888620138fb565b8062016297575b62016254575b620154108162007d94565b806201596457505050906201543d92916109a0519061096051906109205188610940516109e05162018722565b9093926108e05292909383856106e0526108e051956108e05115620154e9575b505050505b6001600160501b036109405154169161090051831015805f14620154d3576201548f61090051856200857d565b905b6001600160ff1b038211620154b95715620154aa579291565b620154b5906200c3c3565b9291565b8463e69a04b360e01b5f526004526109005160245260445ffd5b620154e284610900516200857d565b9062015491565b8394965092620154fb919293620085cc565b91620155078162007d94565b6201595b575f925b61ffff60026109e051015460a81c165f60c06040516201552f816200826f565b8281528260208201528260408201528260608201528260808201528260a082015201526001600160501b0384116201593d5764ffffffffff61096051116201591e576040519062015580826200826f565b5f82525f6020830152620155948662008099565b8560408301526001600160501b038516606083015263ffffffff6109205116608083015264ffffffffff610960511660a083015263ffffffff431660c08301526109c0515f5260126109e0510160205264ffffffffff60405f205460b81c166201590557506109e0516011015460201c63ffffffff1680620158a15750916101409391620156a57fc0150ebb43a9c2478aa9c69d27078da071ceafb70e2d822d7d39a533e04187289694620156536109c05160116109e05101620162f4565b6109c0515f9081526109e05160120160209081526040909120825181548484015167ffffffffffffffff1990911663ffffffff92831617931b63ffffffff60201b169290921781559160c0906200e255565b620156ba6109c05160116109e0510162016318565b6005610940510161ffff60026109e051015460a81c1660fc8111155f14620157f6576001901b81541790555b62015700620156f68385620085cc565b610940516200d0ea565b6201570f836109e0516200fd5c565b620157326201572a6200e3c6846109e0515460e81c62008537565b80936200857d565b926201573e846200bbb4565b6201574d836109e0516200fd78565b620157588562008099565b84620157de5762015770610960516109e0516201a244565b61ffff60026109e051015460a81c16946040519586526109c05160208701526201579a8162008099565b60408601526109a0516060860152608085015260a08401526109205160c08401526109605160e0840152610100830152610120820152a16007915f8080806201545d565b620157f0610960516109e0516201a223565b62015770565b6101fc81116201582b576201580d6001916200856d565b1b60066109405101908154179055600160fd1b8154179055620156e6565b6102fc81116201586057620158426001916200855c565b1b60076109405101908154179055600160fe1b8154179055620156e6565b6103fc81111562015874575b5050620156e6565b620158816001916200854b565b1b60086109405101908154179055600160ff1b81541790555f806201586c565b63ffffffff81116200e5a35791620156a58284610140979560207fc0150ebb43a9c2478aa9c69d27078da071ceafb70e2d822d7d39a533e04187289a989601525f5260126109e05101602052620158ff6109c05160405f20620162f4565b62015653565b633f1ed2e160e21b5f526004526109c05160245260445ffd5b6395d41f3f60e01b5f526109605160045264ffffffffff60245260445ffd5b836395d41f3f60e01b5f526004526001600160501b0360245260445ffd5b6001926201550f565b909192959650620159758162007d94565b6001810362015cba5750505090620159ae9181935f610880526109a0519061096051906109205161094051610800516109e05162018dab565b6108a091909152610860879052610880879052949694959294939192600a03620159fc5761ffff60026109e051015460a81c1660036109e051015490620018266200e69a6108a05162015208565b610860511562015a1c575b5050505050906106e052610880519162015462565b62015a2b906109405162015218565b5062015a3a6108a05162015208565b5f6108a051125f1462015ca55762015a5a906109c0516109e0516201170f565b62015a716200e3c6866109e0515460e81c62008537565b62015a7d81876200857d565b9162015a89836200bbb4565b62015a98826109e0516200fd78565b62015ab56108005154946001600160501b038660481c166200bdd7565b905f82126200e97f577f2a077a58d72570ce2b985a210c9ad672373eb9bcc337d1dc62b8b75dd644cf27966101c09662015af560ff8860401c1662008099565b60ff8760401c16159162015b4764ffffffffff8960b81c1662015b3862015b268263ffffffff8d60981c1662008537565b6200429d610960516109205162008537565b610760526109605190620085cc565b61074052821562015c8c5762015b64610740516107605162013540565b925b62015b7760ff8a60401c1662008099565b1562015c745762015b8f610960516109e0516201a244565b64ffffffffff610800515460b81c169362015bae6109605186620085cc565b956001600160501b0361ffff60026109e0510162015beb8d8b8a8786865460a81c1660ff439560401c16906109c0519060116109e051016201a77f565b5460a81c169a6040519b8c526109c05160208d015262015c1160ff8260401c1662008099565b60ff8160401c1660408d01526109a05160608d015260481c1660808b015260a08a015260c089015260e08801526101008701526101208601526101408501526101608401526101808301526101a0820152a16007610880525f8080808062015a07565b62015c86610960516109e0516201a223565b62015b8f565b62015c9e61074051610760516200858b565b9262015b66565b62015cb4906109e0516200fd5c565b62015a5a565b9194909160039062015ccc8162007d94565b0362015fb25762015cfd94505f6107a0526109a0519161096051916109205161094051610800516109e05162018ad0565b6107e093909352610a405161072052610700939093526107c0859052610a20516107a0869052939491929091600a0362015d5b5761ffff60026109e051015460a81c1660036109e051015490620018266200e69a6107e05162015208565b6107c0511562015d79575b505050906106e0526107a0519162015462565b7f01a0596385c75b269e896ca6468a2be2edc8b2b5459f4e25ca0a75944390a10c9262015ddb6101c09362015db16107e05162015208565b5f6107e051125f1462015f9d5762015dd1906109c0516109e0516201170f565b6109405162015218565b5062015df36200e3c6866109e0515460e81c62008537565b62015dff81876200857d565b9162015e0b836200bbb4565b62015e1a826109e0516200fd78565b61080051549360ff8560401c169462015e338662008099565b8562015f6c575062015e5764ffffffffff610800515460b81c166109e05162015295565b62015e69610720516109e0516201a223565b64ffffffffff610800515462015e83610700518c620085cc565b61ffff60026109e0510162015ec382825460a81c168b155f1462015f655760015b439186610720519261092051926109c0519060116109e051016201a77f565b5460a81c169762015f5e5760015b6040519889526109c05160208a015262015eeb8162008099565b60408901526109a05160608901526001600160501b038260481c16608089015260a08801526107005160c08801526109205160e088015260b81c16610100860152610720516101208601526101408501526101608401526101808301526101a0820152a160076107a0525f808062015d66565b5f62015ed1565b5f62015ea4565b64ffffffffff62015f859160b81c166109e0516201524f565b62015f97610720516109e0516201a244565b62015e69565b62015fac906109e0516200fd5c565b62015dd1565b90925062015fd491506109a05190610960519084610800516109e051620189da565b6107809490945250939491939185600a810362016045576109e051600281015460039091015460405163063c641b60e41b81526107805160a89390931c61ffff1660048201526001600160501b03808316602483015260509290921c90911660448201526064810191909152608490fd5b1562016063575b5050505061082052610780516108c0529162015462565b9091929394506201607f610780516109c0516109e0516201170f565b6201609161078051610940516200a9f6565b60ff610800515460401c1693620160a88562008099565b846201623c57620160c0610960516109e05162015295565b8515620161695750917f599b5f439ed4daf1f28ae8638e5439d3982e8001fb26dd8f70021b38672eb26f939160c093620161046109c05160116109e0510162013573565b61ffff60026109e051016201612682825460a81c16600561094051016201367f565b5460a81c16936040519485526109c0516020860152620161468162008099565b60408501526060840152608083015260a0820152a15b6007905f8080806201604c565b9161012093915064ffffffffff7fcd4a9f7ae1cc250eaa0be6bdb30d07efaf0faafb4ff0e76d8fe09a8373e43f8595620161ac610800515495610800516201862a565b620161be610960516108005162015315565b8161ffff60026109e051015460a81c16956108005154926040519788526109c0516020890152620161ef8162008099565b60408801526001600160501b038160481c1660608801526001600160501b038360481c16608088015260b81c1660a086015260b81c1660c084015260e0830152610100820152a16201615c565b6201624e610960516109e0516201524f565b620160c0565b6201628d6201626a61096051610980516200857d565b6200ef646109e051546109a0519260ff808360b81c169260b01c1690896201165d565b6108405262015405565b50610960516109805111620153ff565b919015620162de5763ffffffff62ffffff80845460601c165b1692541682155f14620162d257505f90565b6200837c9083620085cc565b63ffffffff62ffffff80845460781c16620162c0565b9063ffffffff81116200e5a357815463ffffffff191663ffffffff91909116179055565b91909163ffffffff8311620163525763ffffffff6200842992931663ffffffff60201b82549160201b169063ffffffff60201b1916179055565b826395d41f3f60e01b5f5260045263ffffffff60245260445ffd5b600690620163806007840680946200857d565b5f520160205260405f2090600160ff1983541617825580155f14620163c4575061ffff62008429921664ffff00000082549160181b169064ffff0000001916179055565b60018103620163fa575061ffff62008429921668ffff0000000000000082549160381b169068ffff000000000000001916179055565b6002810362016438575061ffff6200842992166cffff000000000000000000000082549160581b16906cffff00000000000000000000001916179055565b6003810362016466575061ffff62008429921661ffff60781b82549160781b169061ffff60781b1916179055565b6004810362016494575061ffff62008429921661ffff60981b1961ffff60981b83549260981b169116179055565b600503620164c05761ffff62008429921661ffff60b81b1961ffff60b81b83549260b81b169116179055565b61ffff6200842992167fffffff0000ffffffffffffffffffffffffffffffffffffffffffffffffffffff61ffff60d81b83549260d81b169116179055565b939592959490945f965f955f5f99895f5260d560205260405f20995f526012830160205260405f20916201653487868562018690565b6201653f8162007d94565b8062016564575050505090620165589697839262018823565b92959194859392909150565b9091929450620165748162007d94565b60018103620165a0575050509682916201658f979862018f8d565b969995988997969095509350505050565b60039192939498969a979950620165b78162007d94565b03620167095750509160ff969793916201661d9593886201662c5f96546001600160501b0364ffffffffff8260b81c169a858c96549e8f60b01c169e8f96879160b81c1697889263ffffffff8760981c16908760e01c908c60ff8a60401c16916200ba64565b939193505060481c166200bdd7565b975f891315620166df5789838d620166448c62015208565b9c620166969862010c4d978f976201666c62016681986201667396620166909b5b506200857d565b8b6201a0f2565b509e8f97829f92506201a0bc565b50509762010c4d5f8c6200bdd7565b6200c3c3565b905f82129182620166bd575b505015620166b657506005945b9192939495565b94620166af565b6001600160501b03919250620166d39062015208565b915416105f80620166a2565b89838d5f9c620166969862010c4d978f976201666c62016681986201667396620166909b62016665565b9794509750819250936201671e9594620189da565b925092949593505090929395565b939498919295969997909961ffff600286015460a81c169781151580620168c4575b6201685d575050620167719288925f92620167686200af82565b928d8b62018fed565b6201685257826009620167899201968886896201a4a5565b9096829892620167aa575b5050505050505050620167a657600190565b5f90565b5463ffffffff1681620168405750505f945b62016807575050604080519384529315156020840152507fc0ed4041bfe51a7b847f46f096b9d2495866089371037e3efd436bd858f46edd92919050a15f8080808080808062016794565b9160c4949186936040519563beb3942960e01b8752600487015260248601526044850152151560648401526084830152151560a4820152fd5b6201684b91620085cc565b94620167bc565b505050505050505f90565b979894509998505050919250620168a257505050505060207f18a118a5bb122057e420b1bcf7903a57ebc749be0d1981d112c6e257e7bd5e8891604051908152a15f90565b91859162001826936040519687966321b303f960e11b88526004880162012985565b50600a8214156201674e565b9499939597909a9891929661ffff600287015460a81c16988115158062016952575b6201690c575050916201677193918993620167686200af82565b989995509a9950505092935050620168a257505050505060207f18a118a5bb122057e420b1bcf7903a57ebc749be0d1981d112c6e257e7bd5e8891604051908152a15f90565b50600a821415620168f2565b989695986106c0526106a05261056052610680526105a0526102405261048052610620526201699061056051620100b5565b6105c0525f610280526127108111620185da57610280525b6106c0516002015464ffffffffff16610260525f6101e08190526103a0528015818115620185cd575b50620185c3575b620169ed6105c05160096106c05101620162a7565b61052091909152610640525f6101c0526105a0516102a08190526103a0525b6103a051151580620185b6575b1562018570576106805115156106805162018577575b62018570575f610600525f610660525f6105e0525f6106005262016a5d6105205160096106c051016200bad7565b506102c0526102a051610660526105e0525b6106605115158062018563575b8062018556575b156201732b576102c0515f5260106106c0510160205260405f2061054052610540515463ffffffff81165f5260d560205260405f206101405260ff610140515460a01c1662016ad28162007d94565b1562016b85575061ffff610540515460c81c166102c0527f86ad99b48b2565c9720e33335db58e8c7468d6af03a5e6238b20d4a562f5b8b462016b7c61ffff60026106c051015460a81c1662016b3b610620516106a051836105405160096106c051016201a25e565b604096949296959195519687966106a051938893909796959260c0959260e08601998652602086015260408501526060840152608083015260a08201520152565b0390a162016a6f565b62016b9963ffffffff8260781c166200f820565b1562016c02575061ffff610540515460c81c166102c0527fb95e250f9f017dcb1bb1806916771df0c04a269e5f46d5db7519382a0f7bb47762016b7c61ffff60026106c051015460a81c1662016b3b610620516106a051836105405160096106c051016201a25e565b6106a05163ffffffff82160362016c76575061ffff610540515460c81c166102c0527f52d5291dc7b477ebda965d0693c67e6ccec5b3667b530305685465384756d3fd62016b7c61ffff60026106c051015460a81c1662016b3b610620516106a051836105405160096106c051016201a25e565b5f62016c8860ff8360201c1662010087565b620172bb575b1562016cf7575061ffff610540515460c81c166102c0527fae6369c6e529c86dd87431d10e0db70657c834daa75356e1efd7c0ac79f934b762016b7c61ffff60026106c051015460a81c1662016b3b610620516106a051836105405160096106c051016201a25e565b64ffffffffff8160401c168062016d1460ff8460201c1662010087565b62017280575b61066051811180159262016dd191620172755782905b60026106c05101549162016d9962016d8b64ffffffffff851664ffffffffff8660281c168082115f146201726d57505b60ff8660e01c169060ff8760d81c169064ffffffffff8860501c16908661ffff8a60b81c166200d1de565b61ffff8960981c16620116ad565b9161ffff808960d81c169460881c169261064051906106405190610640519060ff8c60201c169063ffffffff8d166106c05162015352565b61084051610220526102008290526101a08390529194919290919060061981016201717157508015620170fc5762016e1b62016e11856106405162008537565b61060051620085cc565b6106005262016e2e84610660516200857d565b610660525b62016e416105e05162009d70565b6105e0521562016f7a57509183916101209362016ea362016e9c63ffffffff7ff5f5aef063f495816b6982c44c70c97c8fbec2fa24b73487e6542ce02143121498166105405161ffff60026106c051015460a81c1662014294565b946200bdd7565b6101a05261ffff610540515460c81c166102c05262016edc61ffff8560a81c1661ffff60026106c051015460a81c16610140516200f976565b9162016f0762016ef660ff610540515460201c16620100b5565b6105405160096106c05101620139c2565b62016f2061ffff8660a81c1660096106c0510162013f2d565b61ffff8060026106c051015460a81c169560405196875263ffffffff8116602088015260a81c166040860152610640516060860152608085015260a084015260c08301526101a05160e0830152610100820152a162016a6f565b925060026106c051015460ff610540515460201c16905f9161ffff8760a81c1615620170d05761ffff8760a81c166303ff00008360981c16175f526002610140510160205260405f209182549163ffffffff8316156201709b5795809492610120989694926201700c7ff5f5aef063f495816b6982c44c70c97c8fbec2fa24b73487e6542ce0214312149b99620138fb565b156201705d57505050620170439150620170396001600160501b03825460901c16916102205190620194c5565b6101405162013960565b5062017056610220516101405162019511565b9162016f20565b620170959361ffff620130d99260a81c165f526003610140510160205264ffffffffff620130ae858260405f209660681c166201020a565b62017056565b5061ffff888163ffffffff60016101405101541693638d5bba0f60e01b5f5260a81c1660045260a81c1660245260445260645ffd5b5061ffff63ffffffff600161014051015416916369bc91ef60e11b5f5260a81c1660045260245260445ffd5b92506201711462016e11610660516106405162008537565b610600526201716164ffffffffff6201713a6106605182610540515460401c166201020a565b16610540519064ffffffffff60401b82549160401b169064ffffffffff60401b1916179055565b61066051925f6106605262016e33565b95509293505050600d8314620132a8577f1c304023b27262393dcde9fe67af613bc45ee4f8c452b031dc393d074031157b926101809261054051549061ffff8260c81c166102c05261ffff60026106c051015460a81c16935f146201726157905b60ff8160201c169261ffff620171fb610620516106a051886105405160096106c051016201a25e565b969397929891906040519a8b5260208b015260408a01526201721d8162007d94565b606089015261064051608089015260a088015260d81c1660c086015260e08501526101008401526106a051610120840152610140830152610160820152a162016a6f565b506106605190620171d2565b905062016d60565b610660519062016d30565b63ffffffff83165f5260126106c0510160205264ffffffffff60405f205460b81c16818110620172b2575b5062016d1a565b90505f620172ab565b5063ffffffff81165f5260126106c0510160205260405f2064ffffffffff815460b81c16151515908115620172f2575b5062016c8e565b60ff91505460401c16620173068162008099565b6201731760ff8360201c1662007d94565b15600260ff8360201c161414155f620172eb565b6105e051610660516103a05262017349610600516101e051620085cc565b6101e052610660516102a0510362018540575b6105e051156201739357610660511562016a0c57620173856105c05160096106c05101620162a7565b610640526105205262016a0c565b507fb492fac0bb9e8c8d824bf2a4c19ec1efd3e98e987de34e127bc17eb2b5c0605e5f80a15b6101c05162018502575b6103a051906103a0516105a05111620173e5575b620084296106c051620113b5565b620173f76103a0516105a0516200857d565b6104a0526201740d6104a0516101e0516200858b565b6201741f6104a0516101e05162013540565b610500526201743161056051620100b5565b5f6104e05215620184f757610500516104e0525b6106a0515f5260126106c0510160205260ff60405f205460401c166201746b8162008099565b5f61042052620184e857610420525b620174dc620174d260026106c05101546201749861056051620138fb565b15620184e0576104a051905b60ff8160e01c169160ff8260d81c169164ffffffffff8160501c169161ffff610260519260b81c166200d1de565b61024051620116ad565b610580525f610300525f5f5f915f610300526106a0515f5260d560205260405f206103e0526001600160501b036103e05154166104c0526106a0515f5260126106c0510160205260405f2061044052620175416104a051610560516104405162018690565b6201754f61056051620138fb565b80620184d8575b62018497575b620175678162007d94565b8062017b9e5750506201759d6104805161028051610580516104a051610500516104e051610560516103e0516106c05162018722565b80610300959493955284831562017746575b5050505b6001600160501b036103e0515416936104c051851015805f146201773057620175e06104c051876200857d565b905b6001600160ff1b03821162017716576201762a929190156201770457945b61ffff60026106c051015460a81c16946201761a6200afa8565b91610560516106a05188620190a9565b5060078103620176af575050907f5be6b2e974d9a72428e5cb9cf915a5f991d1c862db8cafc9a121bb99b091cb7491620176a6604051928392610300516104a05161042051610500516104e0518893909796959260c0959260e08601998652602086015260408501526060840152608083015260a08201520152565b0390a1620173d7565b61010492506040519163b29d194960e01b835260048301526106a05160248301526104e05160448301526105005160648301526104205160848301526104a05160a48301526103a05160c483015260e4820152fd5b6201770f906200c3c3565b9462017600565b8663e69a04b360e01b5f526004526104c05160245260445ffd5b6201773f866104c0516200857d565b90620175e2565b82935091620177569192620085cc565b90620177656105605162007d94565b6105605162017b95575f925b61ffff60026106c051015460a81c165f60c060405162017791816200826f565b8281528260208201528260408201528260608201528260808201528260a082015201526001600160501b0384116201593d5764ffffffffff6104a0511162017b765760405190620177e2826200826f565b5f82525f6020830152620177f68662008099565b8560408301526001600160501b038516606083015263ffffffff6104e05116608083015264ffffffffff6104a0511660a083015263ffffffff431660c08301526106a0515f5260126106c0510160205264ffffffffff60405f205460b81c1662017b5d57506106c0516011015460201c63ffffffff168062017af95750916101409391620179077fc0150ebb43a9c2478aa9c69d27078da071ceafb70e2d822d7d39a533e04187289694620178b56106a05160116106c05101620162f4565b6106a0515f9081526106c05160120160209081526040909120825181548484015167ffffffffffffffff1990911663ffffffff92831617931b63ffffffff60201b169290921781559160c0906200e255565b6201791c6106a05160116106c0510162016318565b60056103e0510161ffff60026106c051015460a81c1660fc8111155f1462017a4e576001901b81541790555b62017962620179588385620085cc565b6103e0516200d0ea565b62017971836106c0516200fd5c565b6201798c6201572a6200e3c6846106c0515460e81c62008537565b9262017998846200bbb4565b620179a7836106c0516200fd78565b620179b28562008099565b8462017a3657620179ca6104a0516106c0516201a244565b61ffff60026106c051015460a81c16946040519586526106a0516020870152620179f48162008099565b6040860152610580516060860152608085015260a08401526104e05160c08401526104a05160e0840152610100830152610120820152a160075f8080620175af565b62017a486104a0516106c0516201a223565b620179ca565b6101fc811162017a835762017a656001916200856d565b1b60066103e05101908154179055600160fd1b815417905562017948565b6102fc811162017ab85762017a9a6001916200855c565b1b60076103e05101908154179055600160fe1b815417905562017948565b6103fc81111562017acc575b505062017948565b62017ad96001916200854b565b1b60086103e05101908154179055600160ff1b81541790555f8062017ac4565b63ffffffff81116200e5a35791620179078284610140979560207fc0150ebb43a9c2478aa9c69d27078da071ceafb70e2d822d7d39a533e04187289a989601525f5260126106c0510160205262017b576106a05160405f20620162f4565b620178b5565b633f1ed2e160e21b5f526004526106a05160245260445ffd5b6395d41f3f60e01b5f526104a05160045264ffffffffff60245260445ffd5b60019262017771565b62017ba98162007d94565b6001810362017eef5750505f6104005262017be76104805161028051610580516104a051610500516104e0516103e051610440516106c05162018dab565b919695906103c0526104605294909192938061040052600a81145f1462017c325761ffff60026106c051015460a81c1660036106c051015490620018266200e69a6103c05162015208565b1562017c50575b5050505061030052610460519061040051620175b3565b62017c5f906103e05162015218565b5062017c6e6103c05162015208565b5f6103c051125f1462017eda5762017c8e906106a0516106c0516201170f565b62017ca56200e3c6856106c0515460e81c62008537565b62017cb181866200857d565b9062017cbd826200bbb4565b62017ccc816106c0516200fd78565b62017ce96104405154936001600160501b038560481c166200bdd7565b5f81126200e97f577f2a077a58d72570ce2b985a210c9ad672373eb9bcc337d1dc62b8b75dd644cf27956101c09562017d2860ff8760401c1662008099565b60ff8660401c16159064ffffffffff8760b81c1662017d7762017d6b62017d598363ffffffff8c60981c1662008537565b6200429d6104a0516104e05162008537565b916104a05190620085cc565b61018052821562017ec4576101805162017d919162013540565b915b62017da460ff8960401c1662008099565b1562017eac5762017dbc6104a0516106c0516201a244565b64ffffffffff610440515460b81c169262017ddb6104a05185620085cc565b9462017e0e8987868461ffff60026106c051015460a81c1660ff439560401c16906106a0519060116106c051016201a77f565b6001600160501b0361ffff60026106c051015460a81c16996040519a8b526106a05160208c015262017e4660ff8260401c1662008099565b60ff8160401c1660408c01526105805160608c015260481c1660808a015260a089015260c088015260e0870152610480516101008701526101208601526101408501526101608401526101808301526101a0820152a16007610400525f80808062017c39565b62017ebe6104a0516106c0516201a223565b62017dbc565b6101805162017ed3916200858b565b9162017d93565b62017ee9906106c0516200fd5c565b62017c8e565b60039062017efd8162007d94565b03620181f157505f6103405262017f3b6104805161028051610580516104a05161042051610500516104e0516103e051610440516106c05162018ad0565b61032093909352610a40516101605261038094909452610360859052610a2051610340869052949193909291600a0362017f995761ffff60026106c051015460a81c1660036106c051015490620018266200e69a6103205162015208565b610360511562017fbb575b5050505061030052610380519061034051620175b3565b7f01a0596385c75b269e896ca6468a2be2edc8b2b5459f4e25ca0a75944390a10c936201801d6101c09462017ff36103205162015208565b5f61032051125f14620181dc5762018013906106a0516106c0516201170f565b6103e05162015218565b50620180356200e3c6876106c0515460e81c62008537565b906201804282886200857d565b926201804e846200bbb4565b6201805d836106c0516200fd78565b64ffffffffff61044051549560ff8760401c16966201807c8862008099565b87620181b057506201809b82610440515460b81c166106c05162015295565b620180ad610160516106c0516201a223565b610440515490620180c28161038051620085cc565b6201810061ffff60026106c051015460a81c168a155f14620181a95760015b43918461016051926104e051926106a0519060116106c051016201a77f565b6106c0516002015460a81c61ffff1698620181a25760015b604051998a526106a05160208b0152620181328162008099565b60408a01526105805160608a01526001600160501b038360481c1660808a015260a089015260c08801526104e05160e088015260b81c16610100860152610160516101208601526101408501526101608401526101808301526101a0820152a16007610340525f80808062017fa4565b5f62018118565b5f620180e1565b82620181c49160b81c166106c0516201524f565b620181d6610160516106c0516201a244565b620180ad565b620181eb906106c0516200fd5c565b62018013565b91505062018216610580516104a0516105005161042051610440516106c051620189da565b6102e094909452509394939192909185600a810362018289576106c051600281015460039091015460405163063c641b60e41b81526102e05160a89390931c61ffff1660048201526001600160501b03808316602483015260509290921c90911660448201526064810191909152608490fd5b156201829f575b505050916102e05190620175b3565b9091929450620182ba6102e0516106a0516106c0516201170f565b620182cc6102e0516103e0516200a9f6565b60ff610440515460401c1691620182e38362008099565b826201847f57620182fb6104a0516106c05162015295565b8515620183ae57509060c0917f599b5f439ed4daf1f28ae8638e5439d3982e8001fb26dd8f70021b38672eb26f936201833e6106a05160116106c0510162013573565b6201835e61ffff60026106c051015460a81c1660056103e051016201367f565b61ffff60026106c051015460a81c16926040519384526106a0516020850152620183888162008099565b6040840152610420516060840152608083015260a0820152a15b6007915f808062018290565b907fcd4a9f7ae1cc250eaa0be6bdb30d07efaf0faafb4ff0e76d8fe09a8373e43f859364ffffffffff61012094620183ef610440515495610440516201862a565b620184016104a0516104405162015315565b8161ffff60026106c051015460a81c16956104405154926040519788526106a0516020890152620184328162008099565b60408801526001600160501b038160481c1660608801526001600160501b038360481c16608088015260b81c1660a086015260b81c1660c084015260e0830152610100820152a1620183a2565b620184916104a0516106c0516201524f565b620182fb565b6104a0515f036104a05162003c5257620184d1906200ef646106c05154610580519260ff808360b81c169260b01c1690610500516201165d565b506201755c565b505f62017556565b5f90620174a4565b5061050051610420526201747a565b806104e05262017445565b6106c0516101c051600191909101805467ffffffffffffffff191663ffffffff92909216919091174260201b63ffffffff60201b16179055620173c3565b610640516101c052610660516102a0526201735c565b506105e051151562016a83565b506102c051151562016a7c565b50620173b9565b506105c05180620185a6575b8062016a2f57506105c05115801562016a2f575061064051610680511162016a2f565b5061064051610680511062018583565b5061064051151562016a19565b506103e8620169d8565b6103e89150115f620169d1565b5061ffff60026106c051015460781c1661028052620169a8565b906201862397949693959291610b4052610b6052610b8052610ac052610b2052610aa0525f610a80526201a9f8565b610a805190565b6001600160501b03620152de620084299382845460481c16620101b2565b91905f620186568262015208565b9113156201867d57620102558184620085cc565b6001600160501b03841162010269575050565b6201868981846200857d565b926201866a565b9190916201869e8362010087565b15620186ac57505050600290565b5464ffffffffff8160b81c169283155f14620186ca57505050505f90565b620186d590620100b5565b15620187175760ff5f915b60401c16620186ef8262008099565b620186fa8162008099565b0362018707575050600190565b116201871257600290565b600390565b60ff600191620186e0565b959894929197969093620187368962010087565b6201880f576201876160ff9a620187829386938a548e8160b01c169e8f9160b81c169586926201a0f2565b9b91959094859962018774889d620100b5565b1562018806575f906201a146565b9190988297838b1580620187fc575b620187d7575b50505088620187cd575050506001600160501b03905416620187bf8362005a078688620085cc565b11620187c757565b60019450565b9196509450925050565b620187e2926201a1cc565b15620187f2575b5f808362018797565b600e9850620187e9565b505f811362018791565b6001906201a146565b50600698505f975087965086955050505050565b9794919593909692505f976201883a5f9762010087565b6201887e57906201885e94939291549160ff808460b81c169360b01c16916201a0f2565b509190620187bf8362005a07866001600160501b038599541694620085cc565b5050505050925050506006905f905f905f90565b9062ffffff8111620188cd576effffff00000000000000000000000082549160601b16906effffff0000000000000000000000001916179055565b6395d41f3f60e01b5f5260045262ffffff60245260445ffd5b9062ffffff8111620188cd576bffffff00000000000000000082549160481b16906bffffff0000000000000000001916179055565b9062ffffff8111620188cd577fffffffffffffffffffffff000000ffffffffffffffffffffffffffffffffffff74ffffff00000000000000000000000000000000000083549260901b169116179055565b9062ffffff8111620188cd5771ffffff00000000000000000000000000000082549160781b169071ffffff0000000000000000000000000000001916179055565b906001811b905f52600182016020525f1960405f2054145f14620189d357198154169055565b8154179055565b9394929095915f96549262018a07876001600160501b038660481c1664ffffffffff8760b81c16620151e7565b95909460ff879962018a468a899783825491868360b01c1696879360b81c1697889463ffffffff8260981c169260ff8360e01c9360401c16916200ba64565b98919a9099899a62018a5a819d846200bdd7565b9a5f8c1262018ab257505050509062018a76949392916201a0bc565b505092836001600160501b0362018a9b6003849a015482808260501c169116620116ee565b16821162018aa7575050565b600a99509096509250565b9c509c509c509c50505050505092505050600c94935f9392915f9190565b989796959498610ba052610b8052610b6052610b4052610b2052610aa052610ac052610ae052610a80525f610a60525f610a00525f610a40525f610a2052610b805154610b005262018b6b610ba051549160ff8360b81c169060ff8460b01c169064ffffffffff610b005160b81c169063ffffffff610b005160981c1690610b005160e01c9060ff610b005160401c1690610ba0516200ba64565b92839291929162018b8d84916001600160501b03610b005160481c166200bdd7565b5f81131562018da35762018ba18162015208565b945b85610a605262018bc464ffffffffff610b005160b81c16610aa0516200857d565b610a405262018bf0610ac051610ae05160ff8760b81c1660ff8860b01c16610a4051610b20516201a0f2565b9790919282610a2052839962018c7362018c23610ac05160ff8b60b81c1660ff8c60b01c16610aa051610b20516201a0bc565b50509889610a005262018c3f60ff610b005160401c1662008099565b610b005160401c60ff1662018d9c5760015b60ff808360b81c169260b01c1690610a405190610b405190610ba0516201a146565b949098859b8a158062018d92575b62018d69575b508962018d41575050505050505062018ca69062010c4d86886200bdd7565b9262018cba610a205162010c4d866200c3c3565b925f84128062018d20575b1562018cd15750600596565b965f85128062018ce9575b62018ce357565b600a9750565b5062018cf58562015208565b6001600160501b0362018d186003610ba051015482808260501c169116620116ee565b161062018cdc565b5062018d2c8462015208565b6001600160501b03610b605154161062018cc5565b610a6094909452610a0093909352610a209290925295999298509096505f9550859493509150565b62018d7a9087610a8051916201a1cc565b1562018d88575b5f62018c87565b600e995062018d81565b505f871362018c81565b5f62018c51565b5f9462018ba3565b9890939495979896929196610ba05262018e505f955f9562018de68b5f97610ba051549460ff8660b81c16908d60ff8860b01c16916201a0f2565b509c90998d9662018e3762018e2f8d9f8654610b80526200ef6460ff8960b81c1660ff8a60b01c1664ffffffffff610b805160b81c1663ffffffff610b805160981c166201165d565b809d620085cc565b9b60ff808760b81c169660b01c1694610ba0516201a2f5565b9890919a8983998d1562018e65575050505050565b9091965062018e9793985062018e809297509b939b6200bdd7565b6001600160501b03610b805160481c16906200be05565b9462018ea3866200c3c3565b5f82121562018f5d5762018ec99162018ebc916200bdd7565b935b62011f9a856200c3c3565b935f8512908162018f3d575b501562018eeb57506003975f808080806200bd1b565b975f83128062018f06575b156200f90957600a98506200f909565b5062018f128362015208565b6001600160501b0362018f356003610ba051015482808260501c169116620116ee565b161062018ef6565b90506001600160501b0362018f528662015208565b915416105f62018ed5565b93905f811362018f74575b5062018ec99062018ebe565b62018f859062018ec992976200bdd7565b959062018f68565b9490506001600160501b0395925062018fbc93979691975f95549160ff808460b81c169360b01c16916201a0f2565b50929094541662018fce8386620085cc565b1162018fe4575b92915f915f915f915f915f9190565b50600362018fd5565b505062019002909695969492919394620138fb565b928315620190a157906201901691620085cc565b915b15908162019098575b50156201908d575f93845b6201903657505050565b919390929091156201905957505063587d2a9760e01b5f5260045260245260445ffd5b916040907f587d2a97a31a5894b097ff75ad27cad3e726d27474d08c959bcb5e51c5244d0a929482519182526020820152a1565b81811093846201902c565b90505f62019021565b509162019018565b93909492969591620190bb90620138fb565b9687156201913a5790620190cf91620085cc565b955b15908162019131575b501562019126575f94855b620190f05750505050565b906200182691604051948594635e7f12af60e11b8652600486019094939260609260808301968352602083015260408201520152565b8085109485620190e5565b90505f620190da565b5095620190d1565b908054928360281c62ffffff8116946201915d86866200bad7565b90620194575750916006939161ffff8094600388019060ff8160381c169060301c916001821b81541790555f526004880160205260405f20600160ff83161b8154179055165f5260058601602052600160ff60405f2092161b81541790555f14620193ea57835462ffffff808260781c169160901c1690801580620193e1575b15620193b2575050620191f185856201896c565b620191fd85856201891b565b5460a81c1691620192136007850680956200857d565b5f520160205260405f2091600160ff1984541617835580155f146201925a5750815464ffffffff00191662ffff00600883901b161760189190911b64ffff00000016179055565b60018103620192975750815468ffffffff0000000000191666ffff0000000000602883901b161760389190911b68ffff0000000000000016179055565b60028103620192e0575081546cffffffff00000000000000000019166affff000000000000000000604883901b161760589190911b6cffff000000000000000000000016179055565b600381036201931f5750815470ffffffff00000000000000000000000000191661ffff60681b606883901b161760789190911b61ffff60781b16179055565b60048103620193545750815463ffffffff60881b191661ffff60881b608883901b161760989190911b61ffff60981b16179055565b6005036201938757815463ffffffff60a81b191661ffff60a81b60a883901b161760b89190911b61ffff60b81b16179055565b815463ffffffff60c81b191661ffff60c81b60c883901b161760d89190911b61ffff60d81b16179055565b861115620193cd5750620193c785856201896c565b620191fd565b851015620191fd57620193c785856201891b565b508115620191dd565b835462ffffff808260481c169160601c16908015806201944e575b1562019425575050620194198585620188e6565b620193c7858562018892565b8611156201943a5750620193c78585620188e6565b851015620193c757620193c7858562018892565b50811562019405565b61ffff93506200842996949250806201949e85620194b99481945f5260078a0160205260a81c1660405f209061ffff60c81b1961ffff60c81b83549260c81b169116179055565b835461ffff60b81b1916911660b81b61ffff60b81b16178255565b5460a81c16916201636d565b9190916001600160501b0383116201187d576001600160501b036200842992931669ffffffffffffffffffff60901b1969ffffffffffffffffffff60901b83549260901b169116179055565b91906201953062008429916001600160501b03855460501c1662010247565b835469ffffffffffffffffffff60501b1916605082901b69ffffffffffffffffffff60501b1617909355565b61ffff1661ffff811462003c525760010190565b91909394925f94821562019ffc576201958982620138fb565b92620195958362007d94565b821597881562019fe4575b61ffff938483166303ff00008560101b16175f526002870160205263ffffffff620195ce60405f2062008b85565b511662019fbe57851562019fb7575f5b861562019faf575f905b620195f262008aeb565b506303fcffff808887166303ff00008960101b16171162019f8b57506001600160501b03811162019f6e5764ffffffffff821162019f5257620196358362010087565b1562019f3d578062019f19576001600160501b03905b64ffffffffff604051936201966085620081f9565b8988166303ff00008a60101b161785525f60208601525f604086015260608501956201968c8162007d94565b86521660808401521660a0820152875460d01c63ffffffff166201995757928798999a868694620198026201981f956001600160501b0360a060809a620198e49e9f6002906201970664ffffffffff9f6303ff00008b8e620196f8828216848660101b161787620137d0565b169160101b1617826201386e565b8c6303ff00008a8d169160101b16175f520160205260405f209363ffffffff808351161663ffffffff198654161785556201976663ffffffff602084015116869063ffffffff60201b82549160201b169063ffffffff60201b1916179055565b604082810151865463ffffffff60401b1916911b63ffffffff60401b1617855551620197928162007d94565b6201979d8162007d94565b8454828e015165ffffffffffff60601b1990911660609290921b60ff60601b1691909117908e1660681b64ffffffffff60681b161784555b0151825469ffffffffffffffffffff60901b1916911660901b69ffffffffffffffffffff60901b16179055565b8a156201995057505f925b166303ff00008560101b16176201a6fd565b905f52600387016020526201989d60405f209463ffffffff808451161663ffffffff198754161786556201987863ffffffff602085015116879063ffffffff60201b82549160201b169063ffffffff60201b1916179055565b604083810151875469ffff000000000000000019169216901b61ffff60401b16178555565b606081015184546aff00000000000000000000191690151560501b60ff60501b161784550151825464ffffffffff60581b1916911660581b64ffffffffff60581b16179055565b620198ff575b62008429905b6200faf4815460f01c6201955c565b9150620084296201991e5f6001600160501b03855460501c1662010247565b835469ffffffffffffffffffff60501b1916605082901b69ffffffffffffffffffff60501b16178455929050620198ea565b926201980d565b9291906003880193855f528460205260405f20805463ffffffff8116155f1462019bb55750509288999a9b876080969462019ac062019af7956001600160501b0360a062019b4c9e9f9a60028c64ffffffffff9f9d8e6303ff00008b8e63ffffffff620199dc955460d01c165f52868601602052169160101b161760405f20620138cb565b63ffffffff815460d01c1660408401528d6303ff00008a8d169160101b16175f520160205260405f209363ffffffff808351161663ffffffff1986541617855562019a4c63ffffffff602084015116869063ffffffff60201b82549160201b169063ffffffff60201b1916179055565b604082810151865463ffffffff60401b1916911b63ffffffff60401b161785555162019a788162007d94565b62019a838162007d94565b8454828f015165ffffffffffff60601b1990911660609290921b60ff60601b1691909117908f1660681b64ffffffffff60681b16178455620197d5565b62019ada8d8386166303ff00008a60101b1617906201386e565b8b1562019bae57505f925b166303ff00008660101b16176201a6fd565b915f526020526201989d60405f209463ffffffff808451161663ffffffff198754161786556201987863ffffffff602085015116879063ffffffff60201b82549160201b169063ffffffff60201b1916179055565b62019b5d575b6200842990620198f0565b91506200842962019b7c5f6001600160501b03855460501c1662010247565b835469ffffffffffffffffffff60501b1916605082901b69ffffffffffffffffffff60501b1617845592905062019b52565b9262019ae5565b62019d2e9497965063ffffffff9199959262019d118a9e9a9560028e62019c0e87602097881c16805f52838301885260405f20906040880152888154891c16888801528d6303ff00008c8c169160101b161790620138cb565b8686860151168062019eee575b508888166303ff00008d60101b16175f5201845260405f2090858085511616861983541617825562019c6d868686015116839063ffffffff60201b82549160201b169063ffffffff60201b1916179055565b604084810151835463ffffffff60401b191690881690911b63ffffffff60401b161782555162019c9d8162007d94565b62019ca88162007d94565b8154608085015165ffffffffffff60601b1990911660609290921b60ff60601b169190911760689190911b64ffffffffff60681b1617815560a0830151815469ffffffffffffffffffff60901b191660909190911b69ffffffffffffffffffff60901b16179055565b0151161562019ecf575b166303ff00008460101b161786620138cb565b1562019db957505050620084299293945062019db39062019d9862019d615f6001600160501b03865460501c1662010247565b845469ffffffffffffffffffff60501b1916605082901b69ffffffffffffffffffff60501b16178555965b825460401c166201955c565b61ffff60401b82549160401b169061ffff60401b1916179055565b620198f0565b839692965460ff8160501c169089151582151514158062019ebb575b62019e5257505050829162019e4c64ffffffffff62019e2b62019d989462019e1e620084299a9b9c62019db3999060ff60501b825491151560501b169060ff60501b1916179055565b82875460581c1662010289565b855464ffffffffff60581b1916911660581b64ffffffffff60581b16178455565b62019d8c565b60a4935064ffffffffff8a9163ffffffff60018a015416935f1462019eb2575f925b1562019ea9575f935b60405195634298a83160e01b87526004870152602486015260581c16604484015262014d318162008099565b60019362019e7d565b60019262019e74565b5064ffffffffff8160581c16151562019dd5565b62019ee88282166303ff00008760101b16178a6201386e565b62019d1b565b5f52818101865262019f128c6303ff00008b8b169160101b161760405f206201383f565b5f62019c1b565b63a9c0cecd60e01b5f528262019f2f8162007d94565b60045260245260445260645ffd5b8162019f19576001600160501b03906201964b565b506395d41f3f60e01b5f5260045264ffffffffff60245260445ffd5b6395d41f3f60e01b5f526004526001600160501b0360245260445ffd5b866303ff000089886395d41f3f60e01b5f52169160101b161760045260245260445ffd5b8290620195e8565b5f620195de565b505063ffffffff6001860154169163feefcc0b60e01b5f5260045260245260445260645ffd5b975062019ff18362007d94565b6002831497620195a0565b63ffffffff600185015416906369bc91ef60e11b5f5260045260245260445ffd5b919290156201a08257508151156201a033575090565b3b156201a03d5790565b60405162461bcd60e51b815260206004820152601d60248201527f416464726573733a2063616c6c20746f206e6f6e2d636f6e74726163740000006044820152606490fd5b8251909150156201a0965750805190602001fd5b60405162461bcd60e51b8152602060048201529081906200182690602483019062007d53565b906201a0cd9392919594956201165d565b9160648302908382046064148415171562003c52576201a0ed9162013540565b915f91565b906201a104939291969594966201165d565b9060648202908282046064148315171562003c52576201a1249162013540565b925f90806201a131575091565b6201a14391506200e3c6908362008537565b91565b94939291925f946201a1595f976200ba19565b5050509182155f146201a1725750505050505050600d91565b6201a1a66201a1b4969594936201a1956201a1ad946201a19f949c9a9c620113e9565b9390809262008537565b9662008537565b9362008537565b9262014e9c565b5f81126201a1bf5750565b6200837c9192506200c3c3565b9091612710830292808404612710149015171562003c52576201a1ef9162008537565b101590565b906201a2008162008099565b68ff000000000000000082549160401b169068ff00000000000000001916179055565b9064ffffffffff6201527060026200842994019282845460281c1662010289565b64ffffffffff620152af6002829301938285541662010289565b945f9485949080156201a2ec575b156201a2c957506200842963ffffffff9495966201a28b84866200f85e565b8354906200fd3a6201a2b661ffff8460a81c16809981951698895f5260d560205260405f206200f976565b956200fd3260ff825460201c16620100b5565b62008429955063ffffffff94506201a2e390838562014294565b9590966201a28b565b5080156201a26c565b9097949293969591976201a309826200ba19565b505050156201a4945754958660401c60ff168184898060b81c64ffffffffff16956201a3368484620113e9565b866201a3484360e087901c86620114ef565b5050916201a357908b62008537565b906201a3639362014d5e565b9c6201a36f8662008099565b6201a37b8189620085cc565b9a8b98899460981c63ffffffff16906201a3959162008537565b916201a3a19162008537565b6201a3ac91620085cc565b6201a3b8838262013540565b976201a3c4916200858b565b6201a3d79590816201a48b57916201a146565b909981988b15806201a481575b6201a3f3575050505050505050565b60481c6001600160501b031690808211156201a478576201a414916200857d565b808213156201a46e576201a428916200be05565b925b5f84136201a43b575b808062009f88565b6201a451956201a44b936201165d565b6201a1cc565b156201a464575b5f80808080806201a433565b600e93506201a458565b50505f926201a42a565b50505f6201a414565b505f83136201a3e4565b5087916201a146565b50600d97505f965086955050505050565b9293919082156201a6a65762ffffff80855460601c165b16906201a4cb8487846201a983565b156201a699576201a4dd82866200bad7565b50915f5b6103e88110806201a68f575b156201a67b57835f526007870160205260405f209363ffffffff855416156201a66557506201a51c9062008b76565b83546201a53263ffffffff8260781c166200f820565b156201a65457867fb95e250f9f017dcb1bb1806916771df0c04a269e5f46d5db7519382a0f7bb47760e08a6201a5b161ffff6201a5f19660c81c16996201a57b8c828c62014294565b929093826201a5a88d82549063ffffffff82165f5260d560205261ffff60405f209260a81c16916200f976565b981591620139c2565b549161ffff8360a81c169563ffffffff604051948c865216602085015286604085015260608401528b608084015260a083015260c0820152a18862013f2d565b836201a4e15792505083156201a6435762ffffff80865460601c165b166201a61b8588836201a983565b156201a635576201a62d81876200bad7565b50926201a4e1565b955050505050505f915f9190565b62ffffff80865460781c166201a60d565b5050955050505050506001915f9190565b8363cf25731d60e01b5f5260045260245260445ffd5b935094505093506103e89150101591151592565b508315156201a4ed565b5093505050505f915f9190565b62ffffff80855460781c166201a4bc565b906201a6c3826201a9a9565b91939091845f1981146201a6f6575090829162008429935f5260018201602052600160405f20911b8154179055620189ad565b9450505050565b9190915f60806040516201a71181620082c6565b82815282602082015282604082015282606082015201526303fcffff80821162013829575064ffffffffff821162019f52576040519264ffffffffff929163ffffffff166201a76085620082c6565b8085526020850152600160408501521515606084015216608082015290565b90959796949392916001820191815f528260205260405f209764ffffffffff895460b81c16156201a96c57506201a80895936201a7e99363ffffffff9693838b6201a7e29554938a8560201c16908185036201a8b7575b5050925050506201a1f4565b8662011825565b845463ffffffff60981b1916911660981b63ffffffff60981b16178355565b64ffffffffff84116201a89b5763ffffffff906201a84f64ffffffffff62008429959616849064ffffffffff60b81b1964ffffffffff60b81b83549260b81b169116179055565b82547bffffffffffffffffffffffffffffffffffffffffffffffffffffffff16911660e01b7fffffffff0000000000000000000000000000000000000000000000000000000016179055565b836395d41f3f60e01b5f5260045264ffffffffff60245260445ffd5b6201a92295836201a91594548e808216931688145f146201a92e5750506201a8e08186620162f4565b5f528060205260405f2063ffffffff60201b1981541690555b815f526020526201a90e8460405f20620162f4565b8d62016318565b88198c54168c5562016318565b5f80808b81806201a7d6565b918e6201a9669360201c165f52836020526201a94e8160405f20620162f4565b5f52826020528d60405f20915460201c169062016318565b6201a8f9565b90506334a4033d60e11b5f5260045260245260445ffd5b909291925f93826201a99457505050565b9293509091156201a9a457101590565b111590565b805480156201a9ed576201a9bf600191620120da565b91825f52016020526201a9e460405f2054196201a9de81151562011f5c565b620120da565b808260081b1792565b505f19915f91508190565b6201aaea9291604051916201aa0d83620082a9565b5f83525f602084015282610a80526201aa29610b2051620100b5565b610ba0526201aaa86002610b4051015461ffff6201aa846201aa7560ff8460e01c1660ff8560d81c1664ffffffffff8660501c1664ffffffffff8716610ac051878960b81c166200d1de565b610160610b80510135620116ad565b9160881c1690610ac051906080610b8051013590610b20519086610b4051620164fe565b9194909793610b009a939a52610a605295929795610aa0519087610b0051610a6051610ac0518a6080610b80510135610ba051610b20518d610b4051620168d0565b156201be04575060c954610ae0819052613fff610a4081905260d59190911c16612710808202829004149015171562003c5257612710610a4051610ae05160d51c1602906201ab3c610b2051620138fb565b6201bde0575b806201bdce575b50815f5260d560205260405f2090815460f01c5f610a005261ffff610a0052610a0051146201bd4657906201ab8391610aa051916200ce83565b6201bc3057610a00516002610b4051015460a81c165f6109c0525f6109e0525f6109c0525f6109e052815f5260d560205260405f20610a2052610a2051546001600160501b038160501c166001600160501b03821611806201bd11575b156201bc385750506201ac06612710610a4051610ae05160d51c1602610a20516200d0ea565b6201ac20612710610a4051610ae05160d51c16026200a8eb565b6201ac3a612710610a4051610ae05160d51c16026200c3c3565b6109e05260016109c0525b6001600160501b03610a205154166109a0526109c051156201bc3057610a00516002610b4051015460a81c16916201ac7c62008644565b506201ac8e6001610b6051016201a6b7565b6109808190525f19146201bc1d576201acd96201acb7610a0051610b60515460201c166201955c565b610b60519065ffff0000000082549160201b169065ffff000000001916179055565b6201ace362008f97565b506001821080156201bc0f575b6200a3b857801580156201bc02575b6201bbe9576001610ac0511080156201bbd7575b6201bbb357610a4051610ae05160d51c8116116201bb8f5763ffffffff60c0610b80510135116201bb6d57612710610160610b80510135116201bb4c57610a00516101c0610b80510135116201bb2a576201af656040516201ad758162008251565b63ffffffff841681526201ad8c610b205162007d94565b610b2051602082015262ffffff8316604082015264ffffffffff610ac051166060820152610a4051610ae05160d51c16608082015263ffffffff60c0610b805101351660a0820152610a0051610160610b805101351660c0820152610a0051610980511660e08201525f6101008201525f610120820152610a00516101c0610b8051013516610140820152610980515f526007610b60510160205260405f209063ffffffff808251161663ffffffff1983541617825560208101516201ae528162007d94565b6201ae5d8162007d94565b82546040838101516060850151610a0051608087015160a088015160c089015160e08a01516101008b01516101208c0151610140909c015161ffff60d81b90871660d81b169b861660c81b61ffff60c81b1690861660b81b61ffff60b81b1691861660a81b61ffff60a81b1692861660981b61ffff60981b1660789490941b63ffffffff60781b169490951660681b61ffff60681b169590971b64ffffffffff60401b1660289690961b67ffffff00000000001660209990991b64ff00000000167fffffff00000000000000000000000000000000000000000000000000ffffffff909816979097179790971793909317919091179190911793909317919091171717179055565b610980515f526007610b6051016020526201af8b610ba05160405f20610b605162019142565b604051926201af9a84620082a9565b835261098051602084015282610a805261098051156201bacb57505f815f5260d560205260405f20906201afd1610b2051620138fb565b156201ba6e57506002610b405101549560208401515f9781156201ba44576201affd610b2051620138fb565b916201b00c610b205162007d94565b610b20511580156201ba28575b610a005182166303ff0000609885901c16175f908152600287016020526040902063ffffffff906201b04b9062008b85565b51166201b9fa5783156201b9f357845b84156201b9eb575f905b6201b06f62008aeb565b506303fcffff80610a005186166303ff000063ffff00006cffffffffffffffffffffff00008a60981c16161617116201b9af57506001600160501b03811162019f6e5764ffffffffff821162019f52576201b0cd610b205162010087565b156201b99a57806201b96f576001600160501b03905b64ffffffffff604051936201b0f885620081f9565b610a005187166303ff000063ffff00006cffffffffffffffffffffff00008b60981c1616161785525f60208601525f60408601526201b13a610b205162007d94565b610b205160608601521660808401521660a0820152865460d01c63ffffffff166201b4bc5760a0999896936201b30960209997947f5d5d31f82cb7d7cf1b09787031cd282c6accc62145d50de980d298bb340a9aba9d9e97946201b2e86201b39a956201b1cd610a005185166303ff000063ffff00006cffffffffffffffffffffff00008a60981c161616178b620137d0565b610a00516201b1eb9085166303ff0000609889901c16178b6201386e565b610a005184166303ff000063ffff00006cffffffffffffffffffffff00008960981c161616175f5260028a018e528f6001600160501b039060405f209263ffffffff808251161663ffffffff19855416178455602063ffffffff6201b26f9183015116859063ffffffff60201b82549160201b169063ffffffff60201b1916179055565b604081810151855463ffffffff60401b1916911b63ffffffff60401b1617845560608101516201b29f8162007d94565b6201b2aa8162007d94565b8454608083015165ffffffffffff60601b1990911660609290921b60ff60601b169190911760689190911b64ffffffffff60681b16178455620197d5565b85156201b4b4575f915b610a0051166303ff0000609886901c16176201a6fd565b90610a00519060a81c165f5260038501895264ffffffffff608060405f209263ffffffff808251161663ffffffff198554161784556201b36d63ffffffff8d83015116859063ffffffff60201b82549160201b169063ffffffff60201b1916179055565b610a0051604082810151865469ffff000000000000000019169216901b61ffff60401b161784556201989d565b6201b499575b506201b3b5906200faf4815460f01c6201955c565b935b600a610a6051146201b3f2575b5050015190604051918252610ac051602083015260408201526109e05160608201526109a0516080820152a1565b7fb971bdbd8f44fbf3ba501ee287c2533eb61b09097d638c664566aac00bbb3e6591610120916001600160501b03610a00516002610b4051015460a81c16926003610b4051015490604051948552888501526201b452610b205162007d94565b610b205160408501526080610b805101356060850152610ac05160808501528181168a85015260501c1660c0830152610b005160e0830152610100820152a15f806201b3c4565b8192506201b4ac906201b3b59262019511565b91906201b3a0565b5f916201b2f2565b610a00518460a81c165f526003870160205260405f20805463ffffffff8116155f146201b64957505086936201b30960209997947f5d5d31f82cb7d7cf1b09787031cd282c6accc62145d50de980d298bb340a9aba9d9e97946201b5fe6201b61c9560a09f9e9c63ffffffff905460d01c165f5260028a018e526201b56a610a005185166303ff000063ffff00006cffffffffffffffffffffff00008a60981c1616161760405f20620138cb565b63ffffffff8a5460d01c166040820152610a005184166303ff000063ffff00006cffffffffffffffffffffff00008960981c161616175f5260028a018e528f6001600160501b039060405f209263ffffffff808251161663ffffffff19855416178455602063ffffffff6201b26f9183015116859063ffffffff60201b82549160201b169063ffffffff60201b1916179055565b610a00516201b2e89083166303ff0000609887901c1617896201386e565b6201b62e575b506201b3b590620198f0565b8192506201b641906201b3b59262019511565b91906201b622565b60206201b768938a9f98959796939a6002906201b6b363ffffffff8096861c16805f52838301865260405f20906040860152868154871c16868601528a6303ff000063ffff00006cffffffffffffffffffffff0000610a00518c169360981c1616161790620138cb565b848484015116806201b92d575b50610a005186166303ff000060988b901c16175f9081529101835260409020815181548385015163ffffffff60201b90871660201b1691861686199091161767ffffffff0000000019161781556201b74690604083810151825463ffffffff60401b191690871690911b63ffffffff60401b16178155606083015162019c9d8162007d94565b015116156201b909575b610a0051166303ff0000609885901c161787620138cb565b156201b7c6575050509160a09493916201b3b58862019db36201b7b06020977f5d5d31f82cb7d7cf1b09787031cd282c6accc62145d50de980d298bb340a9aba9b9c62019511565b935b62019d98610a0051825460401c166201955c565b9091938093505460ff8160501c16908315158215151415806201b8f5575b6201b88557505050916201b3b57f5d5d31f82cb7d7cf1b09787031cd282c6accc62145d50de980d298bb340a9aba979862019db3846201b84260a09a9997602099979060ff60501b825491151560501b169060ff60501b1916179055565b6201b87f64ffffffffff6201b85e5f82855460581c1662010289565b835464ffffffffff60581b1916911660581b64ffffffffff60581b16178255565b6201b7b2565b9264ffffffffff60a49463ffffffff60018e015416935f146201b8ec575f925b156201b8e3575f935b60405195634298a83160e01b8752610a00519060a81c166004870152602486015260581c16604484015262014d318162008099565b6001936201b8ae565b6001926201b8a5565b5064ffffffffff8160581c1615156201b7e4565b610a00516201b9279082166303ff0000609887901c16178e6201386e565b6201b750565b5f5281810184526201b968610a005187166303ff000063ffff00006cffffffffffffffffffffff00008d60981c1616161760405f206201383f565b5f6201b6c0565b63a9c0cecd60e01b5f52610b20516201b9889062007d94565b610b205160045260245260445260645ffd5b816201b96f576001600160501b03906201b0e3565b856303ff000063ffff00006cffffffffffffffffffffff0000886395d41f3f60e01b5f52610a0051169360981c1616161760045260245260445ffd5b5f906201b065565b5f6201b05b565b5063ffffffff6001860154169163feefcc0b60e01b5f52610a00519060a81c1660045260245260445260645ffd5b506201ba37610b205162007d94565b6002610b2051146201b019565b63ffffffff600185015416906369bc91ef60e11b5f52610a00519060a81c1660045260245260445ffd5b92907f5d5d31f82cb7d7cf1b09787031cd282c6accc62145d50de980d298bb340a9aba9596509160a0946201bac4602094610a00516002610b4051015460a81c16610ac05191610b205191888801519162019570565b506201b3b7565b60c49250610a00516002610b4051015460a81c169160405192635f4d015360e01b8452600484015260248301526201bb06610b205162007d94565b610b205160448301526064820152610ac0516084820152610ba051151560a4820152fd5b6395d41f3f60e01b5f526101c0610b80510135600452610a005160245260445ffd5b6395d41f3f60e01b5f52610160610b8051013560045261271060245260445ffd5b6395d41f3f60e01b5f5260c0610b8051013560045263ffffffff60245260445ffd5b6395d41f3f60e01b5f908152610a4051610ae05160d51c8116600452602452604490fd5b630c8f0a6960e41b5f52610ac051600452600160245264ffffffffff60445260645ffd5b5064ffffffffff610ac051116201ad13565b63c6ebaaa160e01b5f5260045262ffffff60245260445ffd5b5062ffffff81116201acff565b5063ffffffff82116201acf0565b826313d2887b60e01b5f5260045260245ffd5b509192505050565b610aa0516201bcb75760408051610a4051610ae051948252602082018690526001600160501b038085169383019390935260509390931c909116606082015260d59290921c166127100260808201527fe45a99fff28c6d15925d1e2d85178b939f8809e353ffdd55bc03edb410aa24de908060a081010390a16201ac45565b60405163e45a99ff60e01b8152610a4051610ae051600483019490945260248201949094526001600160501b03828116604483015260509290921c909116606482015261271060d59290921c90921602608482015260a490fd5b50612710610a4051610ae05160d51c16026001600160501b036201bd3d818460501c168285166200cdfc565b1610156201abe0565b50509293505050610aa0516201bda9577fbd608c77710b601b3c0b0f34d13295beb58c48631119b910d8d6067ad650d5b890610a00516002610b4051015460a81c166200a4df604051928392836020909392919361ffff60408201951681520152565b610a00516002610b4051015460a81c1663bd608c7760e01b5f5260045260245260445ffd5b6201bdd991620085cc565b5f6201ab49565b90506201bdfd86612710610a4051610ae05160d51c1602620085cc565b906201ab42565b94955050505050610a805256fea2646970667358221220681c7412d0e109c065e1d4f55a2687c7ea3b118ab4681617f535b63af731f7b164736f6c634300081e0033",
    "linkReferences": {}
  },
  "methodIdentifiers": {
    "acceptOwnership()": "79ba5097",
    "addContract(string,string,uint256,uint256,uint256,uint256,uint256,uint256,uint256,uint256)": "92f54b3a",
    "addressBlocked(address)": "3bf45a2f",
    "adminCancelOrders((uint256,uint256)[])": "e548bb57",
    "allowOrderForwarding(bool)": "7962f910",
    "autoDeleverage((uint256,uint256,uint256[])[],bool)": "43559bbf",
    "buyLiquidations((uint256,uint256,uint256,uint256,uint256,uint256)[],bool)": "bbac6c95",
    "cancelDecreaseCollateralRequest(uint256)": "ebcf1656",
    "clearInitUnwindContract(uint256)": "075367f6",
    "clearOrderSlots(uint256,uint256[])": "d541abc1",
    "clearPrepareUnwindContract(uint256)": "b5cd004e",
    "clearPricePointerSlots(uint256,uint256[])": "20c801d2",
    "createAccount(uint256)": "cab13915",
    "declineDecreaseCollateralRequest(uint256,uint256,string)": "ecdff22e",
    "decreasePositionCollateral(uint256,uint256,uint32,uint16,uint8)": "5495086a",
    "depositCollateral(uint256)": "bad4a01f",
    "depositToProtocol(uint256)": "54056119",
    "execFwdPositionOps((uint256,uint256,(uint256,uint256,uint8,uint256,uint256,uint256,uint256,bool,bool,bool,uint256,uint256,uint256,uint256,uint256),bool,uint32,uint8,uint256,uint256)[])": "259d2aa6",
    "execFznAccountPosOps((uint256,(uint256,uint256,uint8,uint256,uint256,uint256,uint256,bool,bool,bool,uint256,uint256,uint256,uint256,uint256))[])": "768f6855",
    "execOrder((uint256,uint256,uint8,uint256,uint256,uint256,uint256,bool,bool,bool,uint256,uint256,uint256,uint256,uint256))": "4d8dc985",
    "execOrders((uint256,uint256,uint8,uint256,uint256,uint256,uint256,bool,bool,bool,uint256,uint256,uint256,uint256,uint256)[],bool)": "39435dac",
    "execPerpOps((uint256,uint256,uint8,uint32,int256,bool,bytes)[])": "5bf9264c",
    "forceClose(uint256,uint256,uint256[],bool)": "b216d0d2",
    "forceResetWithdrawRateLimit()": "bed97b71",
    "getAccountByAddr(address)": "12e8eb2c",
    "getAccountById(uint256)": "05aca141",
    "getExchangeInfo()": "8bc5b3c5",
    "getFundingInterval()": "0d3e87a7",
    "getFundingSumAtBlock(uint256,uint256)": "7dd7e759",
    "getLiquidationInfo(uint256)": "50ef5c35",
    "getMakerFee(uint256)": "1275d14c",
    "getMarginFractions(uint256,uint256)": "6825e9e5",
    "getMinAccountOpenCNS()": "dec92b69",
    "getMinimumPostCNS()": "9fffdfe2",
    "getMinimumSettleCNS()": "3a63dabe",
    "getNextPriceAboveWithOrders(uint256,uint256)": "9b170bd1",
    "getNextPriceBelowWithOrders(uint256,uint256)": "fb455f6b",
    "getOrder(uint256,uint256)": "5e1a3573",
    "getOrderIdIndex(uint256)": "38ecd885",
    "getOrderLocks(uint256)": "8c1c2cef",
    "getOrdersAtPriceLevel(uint256,uint256,uint256,uint256)": "4d3282b4",
    "getOwner()": "893d20e8",
    "getPermissionedCancelParams(uint256)": "396d7e47",
    "getPerpOrderLocks(uint256,uint256)": "2709b746",
    "getPerpetualInfo(uint256)": "00092cce",
    "getPosition(uint256,uint256)": "751de421",
    "getPositionIds(uint256)": "1973c619",
    "getPositions(uint256,uint256,uint256)": "4a9a4158",
    "getPriceLevelOrderIds(uint256,uint256)": "653a6bd7",
    "getProtocolBalanceCNS()": "b5fcf762",
    "getRecycleBalanceCNS()": "edb1314e",
    "getRecycleFeeCNS()": "16a483ea",
    "getTakerFee(uint256)": "4119f930",
    "getUnwindInfo(uint256)": "6728641b",
    "getVolumeAtBookPrice(uint256,uint256)": "fe37fe12",
    "getWithdrawAllowanceData(uint256)": "8bcf1b27",
    "increasePositionCollateral(uint256,uint256)": "f769f0d3",
    "initUnwindContract(uint256,uint256)": "a5e9c411",
    "initialize(address)": "c4d66de8",
    "isAdministrator(address)": "0a2eb301",
    "isHalted()": "c7ff1584",
    "isLiquidationBuyer(address)": "ae0d4442",
    "isPositionAdministrator(address)": "dbfbf7e8",
    "isPriceAdministrator(address)": "d8b44268",
    "isToleranceAdministrator(address)": "a87041d1",
    "liquidation((uint256,uint256,uint256,bool))": "bbf979ac",
    "liquidations((uint256,uint256,uint256,bool)[],bool)": "d3b8c49d",
    "numberOfAccounts()": "0f03e4c3",
    "owner()": "8da5cb5b",
    "pauseContract(uint256)": "c2852f38",
    "pendingOwner()": "e30c3978",
    "prepareUnwindContract(uint256)": "e5631c9e",
    "proxiableUUID()": "52d1902d",
    "removeContract(uint256)": "7cca3b06",
    "renounceOwnership()": "715018a6",
    "requestDecreasePositionCollateral(uint256,uint256,bool)": "171a5b81",
    "setAddressBlockStatus(address[],bool)": "b1082486",
    "setAddressWhitelisted(address[],bool)": "be70473d",
    "setAdministrator(address,bool)": "87c95058",
    "setBuyToLiquidateBuyerRestriction(uint256,bool)": "32b9203b",
    "setBuyToLiquidateParams(uint256,uint256,uint256,uint256)": "5180d5a8",
    "setBuyToLiquidatePriceThreshold(uint256,uint256)": "45c8c924",
    "setContractPaused(uint256,bool)": "9e430eda",
    "setDcpBorrowThreshold(uint256,uint256)": "af37c07d",
    "setExchangeHalted(bool)": "58087a74",
    "setFeeParams(uint256,uint256)": "9d2ec188",
    "setFreezeStatus(address,uint8)": "182b01f2",
    "setFrozen(address,uint8)": "4b8344fb",
    "setFundingClampPct(uint256,uint256)": "16a06593",
    "setFundingSum(uint256,int256,uint32,bool,bool)": "9fc8afd7",
    "setIgnOracle(uint256,bool)": "69752159",
    "setInitialMarginFraction(uint256,uint256)": "e2e1cb57",
    "setLastForwardedDescId(uint256,uint256)": "ba53027d",
    "setLastForwardedDescIdAsOwner(uint256,uint256)": "eaadbbef",
    "setLastTriggeredDescId(uint256,uint256)": "1217be67",
    "setLinkDsVerifier(address)": "d360dd31",
    "setLiquidationBuyer(address,bool)": "7ddbdc2a",
    "setLiquidationParams(uint256,uint256,uint256)": "60ad17fd",
    "setMaintenanceMarginFraction(uint256,uint256)": "8c031164",
    "setMakerFee(uint256,uint256)": "e74e2c9b",
    "setMarginTol(uint256,uint256,uint256)": "79609c11",
    "setMaxOpenInterest(uint256,uint256)": "9a6d7630",
    "setMinAccountOpenAmount(uint256)": "d6f34bd6",
    "setMinPost(uint256)": "279289e9",
    "setMinSettle(uint256)": "f28b98f3",
    "setMinWithdrawLimit(uint256)": "4d574c56",
    "setOverCollatDescentThreshold(uint256,uint256)": "ed6760fe",
    "setPermissionedCancelParams(uint256,uint256,uint256)": "efb62904",
    "setPerpLinkDsFeedId(uint256,bytes32)": "03cfe83c",
    "setPositionAdministrator(address,bool)": "12014156",
    "setPriceAdministrator(address,bool)": "a9bd5cee",
    "setPriceMaxAge(uint256,uint256)": "0e517f41",
    "setPriceTolPer100K(uint256,uint256)": "7d45678e",
    "setPriceTolPer100KByOwner(uint256,uint256)": "b839a8c4",
    "setRecycleFee(uint256)": "be0783f5",
    "setTakerFee(uint256,uint256)": "6debf8fa",
    "setThousandthsTvlWRLS(uint256)": "d780ece8",
    "setToleranceAdministrator(address,bool)": "dd0a3e2b",
    "setUnityDescentThreshold(uint256,uint256)": "2f32509b",
    "setWhitelistingEnabled(bool)": "5f40c1f7",
    "setWithdrawBypass(address,bool)": "252c3594",
    "transferOwnership(address)": "f2fde38b",
    "triggerUnwindContract(uint256)": "0189a2b7",
    "unwindContract(uint256,uint256,bool)": "fb05acb7",
    "unwindContractByOwner(uint256,uint256,bool)": "ddac1cde",
    "updateMarkPricePNS(uint256,uint32)": "541b04e9",
    "updateMarkPricePNSByOwner(uint256,uint32)": "0a039fbd",
    "updateOraclePrice(uint256,bytes)": "8f3ffc85",
    "upgradeTo(address)": "3659cfe6",
    "upgradeToAndCall(address,bytes)": "4f1ef286",
    "whitelisted(address)": "d936547e",
    "whitelistingEnabled()": "5b0c29eb",
    "withdrawCollateral(uint256)": "6112fe2e",
    "withdrawFromProtocol(uint256)": "8a924640",
    "xferAcctToProtocol(uint256)": "61bd6f44",
    "xferPerpInsToProtocol(uint256,uint256)": "586d92ca",
    "xferProtocolToAcct(uint256,uint256)": "229c2492",
    "xferProtocolToPerp(uint256,uint256,bool)": "e68073c3",
    "xferProtocolToRecycleBal(uint256)": "1df87ade"
  },
  "id": 14
}