{
  "abi": [
    {
      "type": "constructor",
      "inputs": [],
      "stateMutability": "nonpayable"
    },
    {
      "type": "function",
      "name": "acceptOwnership",
      "inputs": [],
      "outputs": [],
      "stateMutability": "nonpayable"
    },
    {
      "type": "function",
      "name": "addContract",
      "inputs": [
        {
          "name": "name",
          "type": "string",
          "internalType": "string"
        },
        {
          "name": "symbol",
          "type": "string",
          "internalType": "string"
        },
        {
          "name": "perpId",
          "type": "uint256",
          "internalType": "uint256"
        },
        {
          "name": "basePricePNS",
          "type": "uint256",
          "internalType": "uint256"
        },
        {
          "name": "priceDecimals",
          "type": "uint256",
          "internalType": "uint256"
        },
        {
          "name": "lotDecimals",
          "type": "uint256",
          "internalType": "uint256"
        },
        {
          "name": "takerFeePer100K",
          "type": "uint256",
          "internalType": "uint256"
        },
        {
          "name": "makerFeePer100K",
          "type": "uint256",
          "internalType": "uint256"
        },
        {
          "name": "initMarginFracHdths",
          "type": "uint256",
          "internalType": "uint256"
        },
        {
          "name": "maintMarginFracHdths",
          "type": "uint256",
          "internalType": "uint256"
        }
      ],
      "outputs": [],
      "stateMutability": "nonpayable"
    },
    {
      "type": "function",
      "name": "addressBlocked",
      "inputs": [
        {
          "name": "",
          "type": "address",
          "internalType": "address"
        }
      ],
      "outputs": [
        {
          "name": "",
          "type": "bool",
          "internalType": "bool"
        }
      ],
      "stateMutability": "view"
    },
    {
      "type": "function",
      "name": "adminCancelOrders",
      "inputs": [
        {
          "name": "signatures",
          "type": "tuple[]",
          "internalType": "struct OrderSignature[]",
          "components": [
            {
              "name": "perpId",
              "type": "uint256",
              "internalType": "uint256"
            },
            {
              "name": "orderId",
              "type": "uint256",
              "internalType": "uint256"
            }
          ]
        }
      ],
      "outputs": [],
      "stateMutability": "nonpayable"
    },
    {
      "type": "function",
      "name": "allowOrderForwarding",
      "inputs": [
        {
          "name": "allow",
          "type": "bool",
          "internalType": "bool"
        }
      ],
      "outputs": [],
      "stateMutability": "nonpayable"
    },
    {
      "type": "function",
      "name": "autoDeleverage",
      "inputs": [
        {
          "name": "adlDescs",
          "type": "tuple[]",
          "internalType": "struct AdlDesc[]",
          "components": [
            {
              "name": "perpId",
              "type": "uint256",
              "internalType": "uint256"
            },
            {
              "name": "posAccountId",
              "type": "uint256",
              "internalType": "uint256"
            },
            {
              "name": "sortedPositionIds",
              "type": "uint256[]",
              "internalType": "uint256[]"
            }
          ]
        },
        {
          "name": "revertOnFail",
          "type": "bool",
          "internalType": "bool"
        }
      ],
      "outputs": [],
      "stateMutability": "nonpayable"
    },
    {
      "type": "function",
      "name": "buyLiquidations",
      "inputs": [
        {
          "name": "liquidationDescs",
          "type": "tuple[]",
          "internalType": "struct BuyToLiquidateDesc[]",
          "components": [
            {
              "name": "perpId",
              "type": "uint256",
              "internalType": "uint256"
            },
            {
              "name": "posAccountId",
              "type": "uint256",
              "internalType": "uint256"
            },
            {
              "name": "lotLNS",
              "type": "uint256",
              "internalType": "uint256"
            },
            {
              "name": "leverageHdths",
              "type": "uint256",
              "internalType": "uint256"
            },
            {
              "name": "limitPricePNS",
              "type": "uint256",
              "internalType": "uint256"
            },
            {
              "name": "maxNegPnlCollatBPS",
              "type": "uint256",
              "internalType": "uint256"
            }
          ]
        },
        {
          "name": "revertOnFail",
          "type": "bool",
          "internalType": "bool"
        }
      ],
      "outputs": [],
      "stateMutability": "nonpayable"
    },
    {
      "type": "function",
      "name": "cancelDecreaseCollateralRequest",
      "inputs": [
        {
          "name": "perpId",
          "type": "uint256",
          "internalType": "uint256"
        }
      ],
      "outputs": [],
      "stateMutability": "nonpayable"
    },
    {
      "type": "function",
      "name": "clearInitUnwindContract",
      "inputs": [
        {
          "name": "perpId",
          "type": "uint256",
          "internalType": "uint256"
        }
      ],
      "outputs": [],
      "stateMutability": "nonpayable"
    },
    {
      "type": "function",
      "name": "clearOrderSlots",
      "inputs": [
        {
          "name": "perpId",
          "type": "uint256",
          "internalType": "uint256"
        },
        {
          "name": "orderIds",
          "type": "uint256[]",
          "internalType": "uint256[]"
        }
      ],
      "outputs": [],
      "stateMutability": "nonpayable"
    },
    {
      "type": "function",
      "name": "clearPrepareUnwindContract",
      "inputs": [
        {
          "name": "perpId",
          "type": "uint256",
          "internalType": "uint256"
        }
      ],
      "outputs": [],
      "stateMutability": "nonpayable"
    },
    {
      "type": "function",
      "name": "clearPricePointerSlots",
      "inputs": [
        {
          "name": "perpId",
          "type": "uint256",
          "internalType": "uint256"
        },
        {
          "name": "pricesONS",
          "type": "uint256[]",
          "internalType": "uint256[]"
        }
      ],
      "outputs": [],
      "stateMutability": "nonpayable"
    },
    {
      "type": "function",
      "name": "createAccount",
      "inputs": [
        {
          "name": "amountCNS",
          "type": "uint256",
          "internalType": "uint256"
        }
      ],
      "outputs": [
        {
          "name": "accountId",
          "type": "uint256",
          "internalType": "uint256"
        }
      ],
      "stateMutability": "nonpayable"
    },
    {
      "type": "function",
      "name": "declineDecreaseCollateralRequest",
      "inputs": [
        {
          "name": "perpId",
          "type": "uint256",
          "internalType": "uint256"
        },
        {
          "name": "accountId",
          "type": "uint256",
          "internalType": "uint256"
        },
        {
          "name": "reason",
          "type": "string",
          "internalType": "string"
        }
      ],
      "outputs": [],
      "stateMutability": "nonpayable"
    },
    {
      "type": "function",
      "name": "decreasePositionCollateral",
      "inputs": [
        {
          "name": "perpId",
          "type": "uint256",
          "internalType": "uint256"
        },
        {
          "name": "accountId",
          "type": "uint256",
          "internalType": "uint256"
        },
        {
          "name": "impactAdjPricePNS",
          "type": "uint32",
          "internalType": "uint32"
        },
        {
          "name": "borrowMarginFracHdths",
          "type": "uint16",
          "internalType": "uint16"
        },
        {
          "name": "positionType",
          "type": "uint8",
          "internalType": "enum PositionEnum"
        }
      ],
      "outputs": [],
      "stateMutability": "nonpayable"
    },
    {
      "type": "function",
      "name": "depositCollateral",
      "inputs": [
        {
          "name": "amountCNS",
          "type": "uint256",
          "internalType": "uint256"
        }
      ],
      "outputs": [],
      "stateMutability": "nonpayable"
    },
    {
      "type": "function",
      "name": "depositToProtocol",
      "inputs": [
        {
          "name": "amountCNS",
          "type": "uint256",
          "internalType": "uint256"
        }
      ],
      "outputs": [],
      "stateMutability": "nonpayable"
    },
    {
      "type": "function",
      "name": "execFwdPositionOps",
      "inputs": [
        {
          "name": "forwardedOrders",
          "type": "tuple[]",
          "internalType": "struct FwdOrderDesc[]",
          "components": [
            {
              "name": "accountId",
              "type": "uint256",
              "internalType": "uint256"
            },
            {
              "name": "feePer100K",
              "type": "uint256",
              "internalType": "uint256"
            },
            {
              "name": "orderDesc",
              "type": "tuple",
              "internalType": "struct OrderDesc",
              "components": [
                {
                  "name": "orderDescId",
                  "type": "uint256",
                  "internalType": "uint256"
                },
                {
                  "name": "perpId",
                  "type": "uint256",
                  "internalType": "uint256"
                },
                {
                  "name": "orderType",
                  "type": "uint8",
                  "internalType": "enum OrderDescEnum"
                },
                {
                  "name": "orderId",
                  "type": "uint256",
                  "internalType": "uint256"
                },
                {
                  "name": "pricePNS",
                  "type": "uint256",
                  "internalType": "uint256"
                },
                {
                  "name": "lotLNS",
                  "type": "uint256",
                  "internalType": "uint256"
                },
                {
                  "name": "expiryBlock",
                  "type": "uint256",
                  "internalType": "uint256"
                },
                {
                  "name": "postOnly",
                  "type": "bool",
                  "internalType": "bool"
                },
                {
                  "name": "fillOrKill",
                  "type": "bool",
                  "internalType": "bool"
                },
                {
                  "name": "immediateOrCancel",
                  "type": "bool",
                  "internalType": "bool"
                },
                {
                  "name": "maxMatches",
                  "type": "uint256",
                  "internalType": "uint256"
                },
                {
                  "name": "leverageHdths",
                  "type": "uint256",
                  "internalType": "uint256"
                },
                {
                  "name": "lastExecutionBlock",
                  "type": "uint256",
                  "internalType": "uint256"
                },
                {
                  "name": "amountCNS",
                  "type": "uint256",
                  "internalType": "uint256"
                },
                {
                  "name": "maxNegPnlCollatBPS",
                  "type": "uint256",
                  "internalType": "uint256"
                }
              ]
            },
            {
              "name": "execTriggerOrder",
              "type": "bool",
              "internalType": "bool"
            },
            {
              "name": "triggerPricePNS",
              "type": "uint256",
              "internalType": "uint256"
            },
            {
              "name": "triggerPriceCondition",
              "type": "uint8",
              "internalType": "enum TriggerPriceConditionEnum"
            },
            {
              "name": "triggerRequestId",
              "type": "uint256",
              "internalType": "uint256"
            },
            {
              "name": "triggerPositionId",
              "type": "uint256",
              "internalType": "uint256"
            }
          ]
        }
      ],
      "outputs": [
        {
          "name": "signatures",
          "type": "tuple[]",
          "internalType": "struct OrderSignature[]",
          "components": [
            {
              "name": "perpId",
              "type": "uint256",
              "internalType": "uint256"
            },
            {
              "name": "orderId",
              "type": "uint256",
              "internalType": "uint256"
            }
          ]
        }
      ],
      "stateMutability": "nonpayable"
    },
    {
      "type": "function",
      "name": "execFznAccountPosOps",
      "inputs": [
        {
          "name": "fznAccountCloseOrders",
          "type": "tuple[]",
          "internalType": "struct FznOrderDesc[]",
          "components": [
            {
              "name": "accountId",
              "type": "uint256",
              "internalType": "uint256"
            },
            {
              "name": "orderDesc",
              "type": "tuple",
              "internalType": "struct OrderDesc",
              "components": [
                {
                  "name": "orderDescId",
                  "type": "uint256",
                  "internalType": "uint256"
                },
                {
                  "name": "perpId",
                  "type": "uint256",
                  "internalType": "uint256"
                },
                {
                  "name": "orderType",
                  "type": "uint8",
                  "internalType": "enum OrderDescEnum"
                },
                {
                  "name": "orderId",
                  "type": "uint256",
                  "internalType": "uint256"
                },
                {
                  "name": "pricePNS",
                  "type": "uint256",
                  "internalType": "uint256"
                },
                {
                  "name": "lotLNS",
                  "type": "uint256",
                  "internalType": "uint256"
                },
                {
                  "name": "expiryBlock",
                  "type": "uint256",
                  "internalType": "uint256"
                },
                {
                  "name": "postOnly",
                  "type": "bool",
                  "internalType": "bool"
                },
                {
                  "name": "fillOrKill",
                  "type": "bool",
                  "internalType": "bool"
                },
                {
                  "name": "immediateOrCancel",
                  "type": "bool",
                  "internalType": "bool"
                },
                {
                  "name": "maxMatches",
                  "type": "uint256",
                  "internalType": "uint256"
                },
                {
                  "name": "leverageHdths",
                  "type": "uint256",
                  "internalType": "uint256"
                },
                {
                  "name": "lastExecutionBlock",
                  "type": "uint256",
                  "internalType": "uint256"
                },
                {
                  "name": "amountCNS",
                  "type": "uint256",
                  "internalType": "uint256"
                },
                {
                  "name": "maxNegPnlCollatBPS",
                  "type": "uint256",
                  "internalType": "uint256"
                }
              ]
            }
          ]
        }
      ],
      "outputs": [],
      "stateMutability": "nonpayable"
    },
    {
      "type": "function",
      "name": "execOrder",
      "inputs": [
        {
          "name": "orderDesc",
          "type": "tuple",
          "internalType": "struct OrderDesc",
          "components": [
            {
              "name": "orderDescId",
              "type": "uint256",
              "internalType": "uint256"
            },
            {
              "name": "perpId",
              "type": "uint256",
              "internalType": "uint256"
            },
            {
              "name": "orderType",
              "type": "uint8",
              "internalType": "enum OrderDescEnum"
            },
            {
              "name": "orderId",
              "type": "uint256",
              "internalType": "uint256"
            },
            {
              "name": "pricePNS",
              "type": "uint256",
              "internalType": "uint256"
            },
            {
              "name": "lotLNS",
              "type": "uint256",
              "internalType": "uint256"
            },
            {
              "name": "expiryBlock",
              "type": "uint256",
              "internalType": "uint256"
            },
            {
              "name": "postOnly",
              "type": "bool",
              "internalType": "bool"
            },
            {
              "name": "fillOrKill",
              "type": "bool",
              "internalType": "bool"
            },
            {
              "name": "immediateOrCancel",
              "type": "bool",
              "internalType": "bool"
            },
            {
              "name": "maxMatches",
              "type": "uint256",
              "internalType": "uint256"
            },
            {
              "name": "leverageHdths",
              "type": "uint256",
              "internalType": "uint256"
            },
            {
              "name": "lastExecutionBlock",
              "type": "uint256",
              "internalType": "uint256"
            },
            {
              "name": "amountCNS",
              "type": "uint256",
              "internalType": "uint256"
            },
            {
              "name": "maxNegPnlCollatBPS",
              "type": "uint256",
              "internalType": "uint256"
            }
          ]
        }
      ],
      "outputs": [
        {
          "name": "signature",
          "type": "tuple",
          "internalType": "struct OrderSignature",
          "components": [
            {
              "name": "perpId",
              "type": "uint256",
              "internalType": "uint256"
            },
            {
              "name": "orderId",
              "type": "uint256",
              "internalType": "uint256"
            }
          ]
        }
      ],
      "stateMutability": "nonpayable"
    },
    {
      "type": "function",
      "name": "execOrders",
      "inputs": [
        {
          "name": "orderDescs",
          "type": "tuple[]",
          "internalType": "struct OrderDesc[]",
          "components": [
            {
              "name": "orderDescId",
              "type": "uint256",
              "internalType": "uint256"
            },
            {
              "name": "perpId",
              "type": "uint256",
              "internalType": "uint256"
            },
            {
              "name": "orderType",
              "type": "uint8",
              "internalType": "enum OrderDescEnum"
            },
            {
              "name": "orderId",
              "type": "uint256",
              "internalType": "uint256"
            },
            {
              "name": "pricePNS",
              "type": "uint256",
              "internalType": "uint256"
            },
            {
              "name": "lotLNS",
              "type": "uint256",
              "internalType": "uint256"
            },
            {
              "name": "expiryBlock",
              "type": "uint256",
              "internalType": "uint256"
            },
            {
              "name": "postOnly",
              "type": "bool",
              "internalType": "bool"
            },
            {
              "name": "fillOrKill",
              "type": "bool",
              "internalType": "bool"
            },
            {
              "name": "immediateOrCancel",
              "type": "bool",
              "internalType": "bool"
            },
            {
              "name": "maxMatches",
              "type": "uint256",
              "internalType": "uint256"
            },
            {
              "name": "leverageHdths",
              "type": "uint256",
              "internalType": "uint256"
            },
            {
              "name": "lastExecutionBlock",
              "type": "uint256",
              "internalType": "uint256"
            },
            {
              "name": "amountCNS",
              "type": "uint256",
              "internalType": "uint256"
            },
            {
              "name": "maxNegPnlCollatBPS",
              "type": "uint256",
              "internalType": "uint256"
            }
          ]
        },
        {
          "name": "revertOnFail",
          "type": "bool",
          "internalType": "bool"
        }
      ],
      "outputs": [
        {
          "name": "signatures",
          "type": "tuple[]",
          "internalType": "struct OrderSignature[]",
          "components": [
            {
              "name": "perpId",
              "type": "uint256",
              "internalType": "uint256"
            },
            {
              "name": "orderId",
              "type": "uint256",
              "internalType": "uint256"
            }
          ]
        }
      ],
      "stateMutability": "nonpayable"
    },
    {
      "type": "function",
      "name": "execPerpOps",
      "inputs": [
        {
          "name": "operations",
          "type": "tuple[]",
          "internalType": "struct OpDesc[]",
          "components": [
            {
              "name": "opDescId",
              "type": "uint256",
              "internalType": "uint256"
            },
            {
              "name": "perpId",
              "type": "uint256",
              "internalType": "uint256"
            },
            {
              "name": "opType",
              "type": "uint8",
              "internalType": "enum OpDescEnum"
            },
            {
              "name": "pricePNS",
              "type": "uint32",
              "internalType": "uint32"
            },
            {
              "name": "fundingRatePct100k",
              "type": "int256",
              "internalType": "int256"
            },
            {
              "name": "allowOverwrite",
              "type": "bool",
              "internalType": "bool"
            },
            {
              "name": "unverifiedReport",
              "type": "bytes",
              "internalType": "bytes"
            }
          ]
        }
      ],
      "outputs": [],
      "stateMutability": "nonpayable"
    },
    {
      "type": "function",
      "name": "forceClose",
      "inputs": [
        {
          "name": "perpId",
          "type": "uint256",
          "internalType": "uint256"
        },
        {
          "name": "posAccountId",
          "type": "uint256",
          "internalType": "uint256"
        },
        {
          "name": "sortedPositionIds",
          "type": "uint256[]",
          "internalType": "uint256[]"
        },
        {
          "name": "revertOnFail",
          "type": "bool",
          "internalType": "bool"
        }
      ],
      "outputs": [
        {
          "name": "success",
          "type": "bool",
          "internalType": "bool"
        }
      ],
      "stateMutability": "nonpayable"
    },
    {
      "type": "function",
      "name": "forceResetWithdrawRateLimit",
      "inputs": [],
      "outputs": [],
      "stateMutability": "nonpayable"
    },
    {
      "type": "function",
      "name": "getAccountByAddr",
      "inputs": [
        {
          "name": "accountAddress",
          "type": "address",
          "internalType": "address"
        }
      ],
      "outputs": [
        {
          "name": "accountInfo",
          "type": "tuple",
          "internalType": "struct AccountInfo",
          "components": [
            {
              "name": "accountId",
              "type": "uint256",
              "internalType": "uint256"
            },
            {
              "name": "balanceCNS",
              "type": "uint256",
              "internalType": "uint256"
            },
            {
              "name": "lockedBalanceCNS",
              "type": "uint256",
              "internalType": "uint256"
            },
            {
              "name": "frozen",
              "type": "uint8",
              "internalType": "enum FreezeStatusEnum"
            },
            {
              "name": "accountAddr",
              "type": "address",
              "internalType": "address"
            },
            {
              "name": "positions",
              "type": "tuple",
              "internalType": "struct PositionBitMap",
              "components": [
                {
                  "name": "bank1",
                  "type": "uint256",
                  "internalType": "uint256"
                },
                {
                  "name": "bank2",
                  "type": "uint256",
                  "internalType": "uint256"
                },
                {
                  "name": "bank3",
                  "type": "uint256",
                  "internalType": "uint256"
                },
                {
                  "name": "bank4",
                  "type": "uint256",
                  "internalType": "uint256"
                }
              ]
            }
          ]
        }
      ],
      "stateMutability": "view"
    },
    {
      "type": "function",
      "name": "getAccountById",
      "inputs": [
        {
          "name": "accountId",
          "type": "uint256",
          "internalType": "uint256"
        }
      ],
      "outputs": [
        {
          "name": "accountInfo",
          "type": "tuple",
          "internalType": "struct AccountInfo",
          "components": [
            {
              "name": "accountId",
              "type": "uint256",
              "internalType": "uint256"
            },
            {
              "name": "balanceCNS",
              "type": "uint256",
              "internalType": "uint256"
            },
            {
              "name": "lockedBalanceCNS",
              "type": "uint256",
              "internalType": "uint256"
            },
            {
              "name": "frozen",
              "type": "uint8",
              "internalType": "enum FreezeStatusEnum"
            },
            {
              "name": "accountAddr",
              "type": "address",
              "internalType": "address"
            },
            {
              "name": "positions",
              "type": "tuple",
              "internalType": "struct PositionBitMap",
              "components": [
                {
                  "name": "bank1",
                  "type": "uint256",
                  "internalType": "uint256"
                },
                {
                  "name": "bank2",
                  "type": "uint256",
                  "internalType": "uint256"
                },
                {
                  "name": "bank3",
                  "type": "uint256",
                  "internalType": "uint256"
                },
                {
                  "name": "bank4",
                  "type": "uint256",
                  "internalType": "uint256"
                }
              ]
            }
          ]
        }
      ],
      "stateMutability": "view"
    },
    {
      "type": "function",
      "name": "getExchangeInfo",
      "inputs": [],
      "outputs": [
        {
          "name": "balanceCNS",
          "type": "uint256",
          "internalType": "uint256"
        },
        {
          "name": "protocolBalanceCNS",
          "type": "uint256",
          "internalType": "uint256"
        },
        {
          "name": "recycleBalanceCNS",
          "type": "uint256",
          "internalType": "uint256"
        },
        {
          "name": "collateralDecimals",
          "type": "uint256",
          "internalType": "uint256"
        },
        {
          "name": "collateralToken",
          "type": "address",
          "internalType": "address"
        },
        {
          "name": "verifierProxy",
          "type": "address",
          "internalType": "address"
        }
      ],
      "stateMutability": "view"
    },
    {
      "type": "function",
      "name": "getFundingInterval",
      "inputs": [],
      "outputs": [
        {
          "name": "fundingInterval",
          "type": "uint256",
          "internalType": "uint256"
        }
      ],
      "stateMutability": "pure"
    },
    {
      "type": "function",
      "name": "getFundingSumAtBlock",
      "inputs": [
        {
          "name": "perpId",
          "type": "uint256",
          "internalType": "uint256"
        },
        {
          "name": "blockNumber",
          "type": "uint256",
          "internalType": "uint256"
        }
      ],
      "outputs": [
        {
          "name": "fundingSumPNS",
          "type": "int48",
          "internalType": "int48"
        },
        {
          "name": "fundingEventBlock",
          "type": "uint256",
          "internalType": "uint256"
        }
      ],
      "stateMutability": "view"
    },
    {
      "type": "function",
      "name": "getLiquidationInfo",
      "inputs": [
        {
          "name": "perpId",
          "type": "uint256",
          "internalType": "uint256"
        }
      ],
      "outputs": [
        {
          "name": "liquidationInfo",
          "type": "tuple",
          "internalType": "struct LiquidationInfo",
          "components": [
            {
              "name": "liqInsAmtPer100K",
              "type": "uint256",
              "internalType": "uint256"
            },
            {
              "name": "liqUserAmtPer100K",
              "type": "uint256",
              "internalType": "uint256"
            },
            {
              "name": "liqProtocolAmtPer100K",
              "type": "uint256",
              "internalType": "uint256"
            },
            {
              "name": "btlPriceThreshPer100K",
              "type": "uint256",
              "internalType": "uint256"
            },
            {
              "name": "btlInsAmtPer100K",
              "type": "uint256",
              "internalType": "uint256"
            },
            {
              "name": "btlUserAmtPer100K",
              "type": "uint256",
              "internalType": "uint256"
            },
            {
              "name": "btlBuyerAmtPer100K",
              "type": "uint256",
              "internalType": "uint256"
            },
            {
              "name": "btlProtocolAmtPer100K",
              "type": "uint256",
              "internalType": "uint256"
            },
            {
              "name": "btlRestrictBuyers",
              "type": "bool",
              "internalType": "bool"
            }
          ]
        }
      ],
      "stateMutability": "view"
    },
    {
      "type": "function",
      "name": "getMakerFee",
      "inputs": [
        {
          "name": "perpId",
          "type": "uint256",
          "internalType": "uint256"
        }
      ],
      "outputs": [
        {
          "name": "",
          "type": "uint256",
          "internalType": "uint256"
        }
      ],
      "stateMutability": "view"
    },
    {
      "type": "function",
      "name": "getMarginFractions",
      "inputs": [
        {
          "name": "perpId",
          "type": "uint256",
          "internalType": "uint256"
        },
        {
          "name": "lotLNS",
          "type": "uint256",
          "internalType": "uint256"
        }
      ],
      "outputs": [
        {
          "name": "perpInitMarginFracHdths",
          "type": "uint256",
          "internalType": "uint256"
        },
        {
          "name": "perpMaintMarginFracHdths",
          "type": "uint256",
          "internalType": "uint256"
        },
        {
          "name": "dynamicInitMarginFracHdths",
          "type": "uint256",
          "internalType": "uint256"
        },
        {
          "name": "oiMaxLNS",
          "type": "uint256",
          "internalType": "uint256"
        },
        {
          "name": "unityDescentThreshHdths",
          "type": "uint256",
          "internalType": "uint256"
        },
        {
          "name": "overColDescentThreshHdths",
          "type": "uint256",
          "internalType": "uint256"
        }
      ],
      "stateMutability": "view"
    },
    {
      "type": "function",
      "name": "getMinAccountOpenCNS",
      "inputs": [],
      "outputs": [
        {
          "name": "minAccountOpenCNS",
          "type": "uint256",
          "internalType": "uint256"
        }
      ],
      "stateMutability": "view"
    },
    {
      "type": "function",
      "name": "getMinimumPostCNS",
      "inputs": [],
      "outputs": [
        {
          "name": "minimumPostCNS",
          "type": "uint256",
          "internalType": "uint256"
        }
      ],
      "stateMutability": "view"
    },
    {
      "type": "function",
      "name": "getMinimumSettleCNS",
      "inputs": [],
      "outputs": [
        {
          "name": "minimumSettleCNS",
          "type": "uint256",
          "internalType": "uint256"
        }
      ],
      "stateMutability": "view"
    },
    {
      "type": "function",
      "name": "getNextPriceAboveWithOrders",
      "inputs": [
        {
          "name": "perpId",
          "type": "uint256",
          "internalType": "uint256"
        },
        {
          "name": "priceONS",
          "type": "uint256",
          "internalType": "uint256"
        }
      ],
      "outputs": [
        {
          "name": "priceAboveONS",
          "type": "uint256",
          "internalType": "uint256"
        }
      ],
      "stateMutability": "view"
    },
    {
      "type": "function",
      "name": "getNextPriceBelowWithOrders",
      "inputs": [
        {
          "name": "perpId",
          "type": "uint256",
          "internalType": "uint256"
        },
        {
          "name": "priceONS",
          "type": "uint256",
          "internalType": "uint256"
        }
      ],
      "outputs": [
        {
          "name": "priceBelowONS",
          "type": "uint256",
          "internalType": "uint256"
        }
      ],
      "stateMutability": "view"
    },
    {
      "type": "function",
      "name": "getOrder",
      "inputs": [
        {
          "name": "perpId",
          "type": "uint256",
          "internalType": "uint256"
        },
        {
          "name": "orderId",
          "type": "uint256",
          "internalType": "uint256"
        }
      ],
      "outputs": [
        {
          "name": "order",
          "type": "tuple",
          "internalType": "struct Order",
          "components": [
            {
              "name": "accountId",
              "type": "uint32",
              "internalType": "uint32"
            },
            {
              "name": "orderType",
              "type": "uint8",
              "internalType": "enum OrderEnum"
            },
            {
              "name": "priceONS",
              "type": "uint24",
              "internalType": "uint24"
            },
            {
              "name": "lotLNS",
              "type": "uint40",
              "internalType": "uint40"
            },
            {
              "name": "recycleFeeRaw",
              "type": "uint16",
              "internalType": "uint16"
            },
            {
              "name": "expiryBlock",
              "type": "uint32",
              "internalType": "uint32"
            },
            {
              "name": "leverageHdths",
              "type": "uint16",
              "internalType": "uint16"
            },
            {
              "name": "orderId",
              "type": "uint16",
              "internalType": "uint16"
            },
            {
              "name": "prevOrderId",
              "type": "uint16",
              "internalType": "uint16"
            },
            {
              "name": "nextOrderId",
              "type": "uint16",
              "internalType": "uint16"
            },
            {
              "name": "maxNegPnlCollatBPS",
              "type": "uint16",
              "internalType": "uint16"
            }
          ]
        }
      ],
      "stateMutability": "view"
    },
    {
      "type": "function",
      "name": "getOrderIdIndex",
      "inputs": [
        {
          "name": "perpId",
          "type": "uint256",
          "internalType": "uint256"
        }
      ],
      "outputs": [
        {
          "name": "root",
          "type": "uint256",
          "internalType": "uint256"
        },
        {
          "name": "leaves",
          "type": "uint256[]",
          "internalType": "uint256[]"
        },
        {
          "name": "numOrders",
          "type": "uint256",
          "internalType": "uint256"
        }
      ],
      "stateMutability": "view"
    },
    {
      "type": "function",
      "name": "getOrderLocks",
      "inputs": [
        {
          "name": "accountId",
          "type": "uint256",
          "internalType": "uint256"
        }
      ],
      "outputs": [
        {
          "name": "orderLocks",
          "type": "tuple[]",
          "internalType": "struct OrderLock[]",
          "components": [
            {
              "name": "orderLockId",
              "type": "uint32",
              "internalType": "uint32"
            },
            {
              "name": "nextOrderLockId",
              "type": "uint32",
              "internalType": "uint32"
            },
            {
              "name": "prevOrderLockId",
              "type": "uint32",
              "internalType": "uint32"
            },
            {
              "name": "orderType",
              "type": "uint8",
              "internalType": "enum OrderEnum"
            },
            {
              "name": "lotLNS",
              "type": "uint40",
              "internalType": "uint40"
            },
            {
              "name": "amountCNS",
              "type": "uint80",
              "internalType": "uint80"
            }
          ]
        }
      ],
      "stateMutability": "view"
    },
    {
      "type": "function",
      "name": "getOrdersAtPriceLevel",
      "inputs": [
        {
          "name": "perpId",
          "type": "uint256",
          "internalType": "uint256"
        },
        {
          "name": "priceONS",
          "type": "uint256",
          "internalType": "uint256"
        },
        {
          "name": "pageStartOrderId",
          "type": "uint256",
          "internalType": "uint256"
        },
        {
          "name": "ordersPerPage",
          "type": "uint256",
          "internalType": "uint256"
        }
      ],
      "outputs": [
        {
          "name": "ordersAtPriceLevel",
          "type": "tuple[]",
          "internalType": "struct Order[]",
          "components": [
            {
              "name": "accountId",
              "type": "uint32",
              "internalType": "uint32"
            },
            {
              "name": "orderType",
              "type": "uint8",
              "internalType": "enum OrderEnum"
            },
            {
              "name": "priceONS",
              "type": "uint24",
              "internalType": "uint24"
            },
            {
              "name": "lotLNS",
              "type": "uint40",
              "internalType": "uint40"
            },
            {
              "name": "recycleFeeRaw",
              "type": "uint16",
              "internalType": "uint16"
            },
            {
              "name": "expiryBlock",
              "type": "uint32",
              "internalType": "uint32"
            },
            {
              "name": "leverageHdths",
              "type": "uint16",
              "internalType": "uint16"
            },
            {
              "name": "orderId",
              "type": "uint16",
              "internalType": "uint16"
            },
            {
              "name": "prevOrderId",
              "type": "uint16",
              "internalType": "uint16"
            },
            {
              "name": "nextOrderId",
              "type": "uint16",
              "internalType": "uint16"
            },
            {
              "name": "maxNegPnlCollatBPS",
              "type": "uint16",
              "internalType": "uint16"
            }
          ]
        },
        {
          "name": "numOrders",
          "type": "uint256",
          "internalType": "uint256"
        }
      ],
      "stateMutability": "view"
    },
    {
      "type": "function",
      "name": "getOwner",
      "inputs": [],
      "outputs": [
        {
          "name": "",
          "type": "address",
          "internalType": "address"
        }
      ],
      "stateMutability": "view"
    },
    {
      "type": "function",
      "name": "getPermissionedCancelParams",
      "inputs": [
        {
          "name": "perpId",
          "type": "uint256",
          "internalType": "uint256"
        }
      ],
      "outputs": [
        {
          "name": "permCancelMinOrders",
          "type": "uint256",
          "internalType": "uint256"
        },
        {
          "name": "permCancelSegment",
          "type": "uint256",
          "internalType": "uint256"
        }
      ],
      "stateMutability": "view"
    },
    {
      "type": "function",
      "name": "getPerpOrderLocks",
      "inputs": [
        {
          "name": "accountId",
          "type": "uint256",
          "internalType": "uint256"
        },
        {
          "name": "perpId",
          "type": "uint256",
          "internalType": "uint256"
        }
      ],
      "outputs": [
        {
          "name": "perpOrderLocks",
          "type": "tuple[]",
          "internalType": "struct OrderLock[]",
          "components": [
            {
              "name": "orderLockId",
              "type": "uint32",
              "internalType": "uint32"
            },
            {
              "name": "nextOrderLockId",
              "type": "uint32",
              "internalType": "uint32"
            },
            {
              "name": "prevOrderLockId",
              "type": "uint32",
              "internalType": "uint32"
            },
            {
              "name": "orderType",
              "type": "uint8",
              "internalType": "enum OrderEnum"
            },
            {
              "name": "lotLNS",
              "type": "uint40",
              "internalType": "uint40"
            },
            {
              "name": "amountCNS",
              "type": "uint80",
              "internalType": "uint80"
            }
          ]
        }
      ],
      "stateMutability": "view"
    },
    {
      "type": "function",
      "name": "getPerpetualInfo",
      "inputs": [
        {
          "name": "perpId",
          "type": "uint256",
          "internalType": "uint256"
        }
      ],
      "outputs": [
        {
          "name": "perpetualInfo",
          "type": "tuple",
          "internalType": "struct PerpetualInfo",
          "components": [
            {
              "name": "name",
              "type": "string",
              "internalType": "string"
            },
            {
              "name": "symbol",
              "type": "string",
              "internalType": "string"
            },
            {
              "name": "priceDecimals",
              "type": "uint256",
              "internalType": "uint256"
            },
            {
              "name": "lotDecimals",
              "type": "uint256",
              "internalType": "uint256"
            },
            {
              "name": "linkFeedId",
              "type": "bytes32",
              "internalType": "bytes32"
            },
            {
              "name": "priceTolPer100K",
              "type": "uint256",
              "internalType": "uint256"
            },
            {
              "name": "marginTol",
              "type": "uint256",
              "internalType": "uint256"
            },
            {
              "name": "marginTolDecimals",
              "type": "uint256",
              "internalType": "uint256"
            },
            {
              "name": "refPriceMaxAgeSec",
              "type": "uint256",
              "internalType": "uint256"
            },
            {
              "name": "positionBalanceCNS",
              "type": "uint256",
              "internalType": "uint256"
            },
            {
              "name": "insuranceBalanceCNS",
              "type": "uint256",
              "internalType": "uint256"
            },
            {
              "name": "markPNS",
              "type": "uint256",
              "internalType": "uint256"
            },
            {
              "name": "markTimestamp",
              "type": "uint256",
              "internalType": "uint256"
            },
            {
              "name": "lastPNS",
              "type": "uint256",
              "internalType": "uint256"
            },
            {
              "name": "lastTimestamp",
              "type": "uint256",
              "internalType": "uint256"
            },
            {
              "name": "oraclePNS",
              "type": "uint256",
              "internalType": "uint256"
            },
            {
              "name": "oracleTimestampSec",
              "type": "uint256",
              "internalType": "uint256"
            },
            {
              "name": "longOpenInterestLNS",
              "type": "uint256",
              "internalType": "uint256"
            },
            {
              "name": "shortOpenInterestLNS",
              "type": "uint256",
              "internalType": "uint256"
            },
            {
              "name": "fundingStartBlock",
              "type": "uint256",
              "internalType": "uint256"
            },
            {
              "name": "fundingRatePct100k",
              "type": "int16",
              "internalType": "int16"
            },
            {
              "name": "absFundingClampPctPer100K",
              "type": "uint256",
              "internalType": "uint256"
            },
            {
              "name": "status",
              "type": "uint8",
              "internalType": "enum PerpStatusEnum"
            },
            {
              "name": "basePricePNS",
              "type": "uint256",
              "internalType": "uint256"
            },
            {
              "name": "maxBidPriceONS",
              "type": "uint256",
              "internalType": "uint256"
            },
            {
              "name": "minBidPriceONS",
              "type": "uint256",
              "internalType": "uint256"
            },
            {
              "name": "maxAskPriceONS",
              "type": "uint256",
              "internalType": "uint256"
            },
            {
              "name": "minAskPriceONS",
              "type": "uint256",
              "internalType": "uint256"
            },
            {
              "name": "numOrders",
              "type": "uint256",
              "internalType": "uint256"
            },
            {
              "name": "ignOracle",
              "type": "bool",
              "internalType": "bool"
            }
          ]
        }
      ],
      "stateMutability": "view"
    },
    {
      "type": "function",
      "name": "getPerpetualInfoV2",
      "inputs": [
        {
          "name": "perpId",
          "type": "uint256",
          "internalType": "uint256"
        }
      ],
      "outputs": [
        {
          "name": "perpetualInfo",
          "type": "tuple",
          "internalType": "struct PerpetualInfoV2",
          "components": [
            {
              "name": "name",
              "type": "string",
              "internalType": "string"
            },
            {
              "name": "symbol",
              "type": "string",
              "internalType": "string"
            },
            {
              "name": "priceDecimals",
              "type": "uint256",
              "internalType": "uint256"
            },
            {
              "name": "lotDecimals",
              "type": "uint256",
              "internalType": "uint256"
            },
            {
              "name": "linkFeedId",
              "type": "bytes32",
              "internalType": "bytes32"
            },
            {
              "name": "priceTolPer100K",
              "type": "uint256",
              "internalType": "uint256"
            },
            {
              "name": "marginTol",
              "type": "uint256",
              "internalType": "uint256"
            },
            {
              "name": "marginTolDecimals",
              "type": "uint256",
              "internalType": "uint256"
            },
            {
              "name": "refPriceMaxAgeSec",
              "type": "uint256",
              "internalType": "uint256"
            },
            {
              "name": "positionBalanceCNS",
              "type": "uint256",
              "internalType": "uint256"
            },
            {
              "name": "insuranceBalanceCNS",
              "type": "uint256",
              "internalType": "uint256"
            },
            {
              "name": "markPNS",
              "type": "uint256",
              "internalType": "uint256"
            },
            {
              "name": "markTimestamp",
              "type": "uint256",
              "internalType": "uint256"
            },
            {
              "name": "lastPNS",
              "type": "uint256",
              "internalType": "uint256"
            },
            {
              "name": "lastTimestamp",
              "type": "uint256",
              "internalType": "uint256"
            },
            {
              "name": "oraclePNS",
              "type": "uint256",
              "internalType": "uint256"
            },
            {
              "name": "oracleTimestampSec",
              "type": "uint256",
              "internalType": "uint256"
            },
            {
              "name": "longOpenInterestLNS",
              "type": "uint256",
              "internalType": "uint256"
            },
            {
              "name": "shortOpenInterestLNS",
              "type": "uint256",
              "internalType": "uint256"
            },
            {
              "name": "fundingStartBlock",
              "type": "uint256",
              "internalType": "uint256"
            },
            {
              "name": "fundingRatePct100k",
              "type": "int16",
              "internalType": "int16"
            },
            {
              "name": "absFundingClampPctPer100K",
              "type": "uint256",
              "internalType": "uint256"
            },
            {
              "name": "status",
              "type": "uint8",
              "internalType": "enum PerpStatusEnum"
            },
            {
              "name": "basePricePNS",
              "type": "uint256",
              "internalType": "uint256"
            },
            {
              "name": "maxBidPriceONS",
              "type": "uint256",
              "internalType": "uint256"
            },
            {
              "name": "minBidPriceONS",
              "type": "uint256",
              "internalType": "uint256"
            },
            {
              "name": "maxAskPriceONS",
              "type": "uint256",
              "internalType": "uint256"
            },
            {
              "name": "minAskPriceONS",
              "type": "uint256",
              "internalType": "uint256"
            },
            {
              "name": "numOrders",
              "type": "uint256",
              "internalType": "uint256"
            },
            {
              "name": "ignOracle",
              "type": "bool",
              "internalType": "bool"
            },
            {
              "name": "fundingSumScalingExp",
              "type": "uint256",
              "internalType": "uint256"
            }
          ]
        }
      ],
      "stateMutability": "view"
    },
    {
      "type": "function",
      "name": "getPosition",
      "inputs": [
        {
          "name": "perpId",
          "type": "uint256",
          "internalType": "uint256"
        },
        {
          "name": "accountId",
          "type": "uint256",
          "internalType": "uint256"
        }
      ],
      "outputs": [
        {
          "name": "positionInfo",
          "type": "tuple",
          "internalType": "struct PositionInfo",
          "components": [
            {
              "name": "accountId",
              "type": "uint256",
              "internalType": "uint256"
            },
            {
              "name": "nextNodeId",
              "type": "uint256",
              "internalType": "uint256"
            },
            {
              "name": "prevNodeId",
              "type": "uint256",
              "internalType": "uint256"
            },
            {
              "name": "positionType",
              "type": "uint8",
              "internalType": "enum PositionEnum"
            },
            {
              "name": "depositCNS",
              "type": "uint256",
              "internalType": "uint256"
            },
            {
              "name": "pricePNS",
              "type": "uint256",
              "internalType": "uint256"
            },
            {
              "name": "lotLNS",
              "type": "uint256",
              "internalType": "uint256"
            },
            {
              "name": "entryBlock",
              "type": "uint256",
              "internalType": "uint256"
            },
            {
              "name": "pnlCNS",
              "type": "int256",
              "internalType": "int256"
            },
            {
              "name": "deltaPnlCNS",
              "type": "int256",
              "internalType": "int256"
            },
            {
              "name": "premiumPnlCNS",
              "type": "int256",
              "internalType": "int256"
            }
          ]
        },
        {
          "name": "markPricePNS",
          "type": "uint256",
          "internalType": "uint256"
        },
        {
          "name": "markPriceValid",
          "type": "bool",
          "internalType": "bool"
        }
      ],
      "stateMutability": "view"
    },
    {
      "type": "function",
      "name": "getPositionIds",
      "inputs": [
        {
          "name": "perpId",
          "type": "uint256",
          "internalType": "uint256"
        }
      ],
      "outputs": [
        {
          "name": "startNodeId",
          "type": "uint256",
          "internalType": "uint256"
        },
        {
          "name": "endNodeId",
          "type": "uint256",
          "internalType": "uint256"
        }
      ],
      "stateMutability": "view"
    },
    {
      "type": "function",
      "name": "getPositionV2",
      "inputs": [
        {
          "name": "perpId",
          "type": "uint256",
          "internalType": "uint256"
        },
        {
          "name": "accountId",
          "type": "uint256",
          "internalType": "uint256"
        }
      ],
      "outputs": [
        {
          "name": "positionInfo",
          "type": "tuple",
          "internalType": "struct PositionInfoV2",
          "components": [
            {
              "name": "accountId",
              "type": "uint256",
              "internalType": "uint256"
            },
            {
              "name": "nextNodeId",
              "type": "uint256",
              "internalType": "uint256"
            },
            {
              "name": "prevNodeId",
              "type": "uint256",
              "internalType": "uint256"
            },
            {
              "name": "positionType",
              "type": "uint8",
              "internalType": "enum PositionEnum"
            },
            {
              "name": "depositCNS",
              "type": "uint256",
              "internalType": "uint256"
            },
            {
              "name": "pricePNS",
              "type": "uint256",
              "internalType": "uint256"
            },
            {
              "name": "lotLNS",
              "type": "uint256",
              "internalType": "uint256"
            },
            {
              "name": "entryBlock",
              "type": "uint256",
              "internalType": "uint256"
            },
            {
              "name": "pnlCNS",
              "type": "int256",
              "internalType": "int256"
            },
            {
              "name": "deltaPnlCNS",
              "type": "int256",
              "internalType": "int256"
            },
            {
              "name": "premiumPnlCNS",
              "type": "int256",
              "internalType": "int256"
            },
            {
              "name": "priceResiduePNSQ16",
              "type": "uint256",
              "internalType": "uint256"
            }
          ]
        },
        {
          "name": "markPricePNS",
          "type": "uint256",
          "internalType": "uint256"
        },
        {
          "name": "markPriceValid",
          "type": "bool",
          "internalType": "bool"
        }
      ],
      "stateMutability": "view"
    },
    {
      "type": "function",
      "name": "getPositions",
      "inputs": [
        {
          "name": "perpId",
          "type": "uint256",
          "internalType": "uint256"
        },
        {
          "name": "pageStartPositionId",
          "type": "uint256",
          "internalType": "uint256"
        },
        {
          "name": "positionsPerPage",
          "type": "uint256",
          "internalType": "uint256"
        }
      ],
      "outputs": [
        {
          "name": "positions",
          "type": "tuple[]",
          "internalType": "struct PositionInfo[]",
          "components": [
            {
              "name": "accountId",
              "type": "uint256",
              "internalType": "uint256"
            },
            {
              "name": "nextNodeId",
              "type": "uint256",
              "internalType": "uint256"
            },
            {
              "name": "prevNodeId",
              "type": "uint256",
              "internalType": "uint256"
            },
            {
              "name": "positionType",
              "type": "uint8",
              "internalType": "enum PositionEnum"
            },
            {
              "name": "depositCNS",
              "type": "uint256",
              "internalType": "uint256"
            },
            {
              "name": "pricePNS",
              "type": "uint256",
              "internalType": "uint256"
            },
            {
              "name": "lotLNS",
              "type": "uint256",
              "internalType": "uint256"
            },
            {
              "name": "entryBlock",
              "type": "uint256",
              "internalType": "uint256"
            },
            {
              "name": "pnlCNS",
              "type": "int256",
              "internalType": "int256"
            },
            {
              "name": "deltaPnlCNS",
              "type": "int256",
              "internalType": "int256"
            },
            {
              "name": "premiumPnlCNS",
              "type": "int256",
              "internalType": "int256"
            }
          ]
        },
        {
          "name": "numPositions",
          "type": "uint256",
          "internalType": "uint256"
        },
        {
          "name": "markPricePNS",
          "type": "uint256",
          "internalType": "uint256"
        },
        {
          "name": "markPriceValid",
          "type": "bool",
          "internalType": "bool"
        }
      ],
      "stateMutability": "view"
    },
    {
      "type": "function",
      "name": "getPositionsV2",
      "inputs": [
        {
          "name": "perpId",
          "type": "uint256",
          "internalType": "uint256"
        },
        {
          "name": "pageStartPositionId",
          "type": "uint256",
          "internalType": "uint256"
        },
        {
          "name": "positionsPerPage",
          "type": "uint256",
          "internalType": "uint256"
        }
      ],
      "outputs": [
        {
          "name": "positions",
          "type": "tuple[]",
          "internalType": "struct PositionInfoV2[]",
          "components": [
            {
              "name": "accountId",
              "type": "uint256",
              "internalType": "uint256"
            },
            {
              "name": "nextNodeId",
              "type": "uint256",
              "internalType": "uint256"
            },
            {
              "name": "prevNodeId",
              "type": "uint256",
              "internalType": "uint256"
            },
            {
              "name": "positionType",
              "type": "uint8",
              "internalType": "enum PositionEnum"
            },
            {
              "name": "depositCNS",
              "type": "uint256",
              "internalType": "uint256"
            },
            {
              "name": "pricePNS",
              "type": "uint256",
              "internalType": "uint256"
            },
            {
              "name": "lotLNS",
              "type": "uint256",
              "internalType": "uint256"
            },
            {
              "name": "entryBlock",
              "type": "uint256",
              "internalType": "uint256"
            },
            {
              "name": "pnlCNS",
              "type": "int256",
              "internalType": "int256"
            },
            {
              "name": "deltaPnlCNS",
              "type": "int256",
              "internalType": "int256"
            },
            {
              "name": "premiumPnlCNS",
              "type": "int256",
              "internalType": "int256"
            },
            {
              "name": "priceResiduePNSQ16",
              "type": "uint256",
              "internalType": "uint256"
            }
          ]
        },
        {
          "name": "numPositions",
          "type": "uint256",
          "internalType": "uint256"
        },
        {
          "name": "markPricePNS",
          "type": "uint256",
          "internalType": "uint256"
        },
        {
          "name": "markPriceValid",
          "type": "bool",
          "internalType": "bool"
        }
      ],
      "stateMutability": "view"
    },
    {
      "type": "function",
      "name": "getPriceLevelOrderIds",
      "inputs": [
        {
          "name": "perpId",
          "type": "uint256",
          "internalType": "uint256"
        },
        {
          "name": "priceONS",
          "type": "uint256",
          "internalType": "uint256"
        }
      ],
      "outputs": [
        {
          "name": "startOrderId",
          "type": "uint256",
          "internalType": "uint256"
        },
        {
          "name": "endOrderId",
          "type": "uint256",
          "internalType": "uint256"
        }
      ],
      "stateMutability": "view"
    },
    {
      "type": "function",
      "name": "getProtocolBalanceCNS",
      "inputs": [],
      "outputs": [
        {
          "name": "protocolBalanceCNS",
          "type": "uint256",
          "internalType": "uint256"
        }
      ],
      "stateMutability": "view"
    },
    {
      "type": "function",
      "name": "getRecycleBalanceCNS",
      "inputs": [],
      "outputs": [
        {
          "name": "recycleBalanceCNS",
          "type": "uint256",
          "internalType": "uint256"
        }
      ],
      "stateMutability": "view"
    },
    {
      "type": "function",
      "name": "getRecycleFeeCNS",
      "inputs": [],
      "outputs": [
        {
          "name": "recycleFeeCNS",
          "type": "uint256",
          "internalType": "uint256"
        }
      ],
      "stateMutability": "view"
    },
    {
      "type": "function",
      "name": "getTakerFee",
      "inputs": [
        {
          "name": "perpId",
          "type": "uint256",
          "internalType": "uint256"
        }
      ],
      "outputs": [
        {
          "name": "",
          "type": "uint256",
          "internalType": "uint256"
        }
      ],
      "stateMutability": "view"
    },
    {
      "type": "function",
      "name": "getUnwindInfo",
      "inputs": [
        {
          "name": "perpId",
          "type": "uint256",
          "internalType": "uint256"
        }
      ],
      "outputs": [
        {
          "name": "status",
          "type": "uint8",
          "internalType": "enum PerpStatusEnum"
        },
        {
          "name": "unwindSumPositiveFmvCNS",
          "type": "uint256",
          "internalType": "uint256"
        },
        {
          "name": "unwindInitPosBalCNS",
          "type": "uint256",
          "internalType": "uint256"
        }
      ],
      "stateMutability": "view"
    },
    {
      "type": "function",
      "name": "getVolumeAtBookPrice",
      "inputs": [
        {
          "name": "perpId",
          "type": "uint256",
          "internalType": "uint256"
        },
        {
          "name": "priceONS",
          "type": "uint256",
          "internalType": "uint256"
        }
      ],
      "outputs": [
        {
          "name": "bids",
          "type": "uint256",
          "internalType": "uint256"
        },
        {
          "name": "expBids",
          "type": "uint256",
          "internalType": "uint256"
        },
        {
          "name": "asks",
          "type": "uint256",
          "internalType": "uint256"
        },
        {
          "name": "expAsks",
          "type": "uint256",
          "internalType": "uint256"
        }
      ],
      "stateMutability": "view"
    },
    {
      "type": "function",
      "name": "getWithdrawAllowanceData",
      "inputs": [
        {
          "name": "blockNumber",
          "type": "uint256",
          "internalType": "uint256"
        }
      ],
      "outputs": [
        {
          "name": "allowanceCNS",
          "type": "uint256",
          "internalType": "uint256"
        },
        {
          "name": "expiryBlock",
          "type": "uint256",
          "internalType": "uint256"
        },
        {
          "name": "lastAllowanceBlock",
          "type": "uint256",
          "internalType": "uint256"
        },
        {
          "name": "cnsPerBlock",
          "type": "uint256",
          "internalType": "uint256"
        }
      ],
      "stateMutability": "view"
    },
    {
      "type": "function",
      "name": "increasePositionCollateral",
      "inputs": [
        {
          "name": "perpId",
          "type": "uint256",
          "internalType": "uint256"
        },
        {
          "name": "amountCNS",
          "type": "uint256",
          "internalType": "uint256"
        }
      ],
      "outputs": [],
      "stateMutability": "nonpayable"
    },
    {
      "type": "function",
      "name": "initUnwindContract",
      "inputs": [
        {
          "name": "perpId",
          "type": "uint256",
          "internalType": "uint256"
        },
        {
          "name": "sumPositiveFmvCNS",
          "type": "uint256",
          "internalType": "uint256"
        }
      ],
      "outputs": [],
      "stateMutability": "nonpayable"
    },
    {
      "type": "function",
      "name": "initialize",
      "inputs": [
        {
          "name": "collateralToken",
          "type": "address",
          "internalType": "address"
        }
      ],
      "outputs": [],
      "stateMutability": "nonpayable"
    },
    {
      "type": "function",
      "name": "initializeV2",
      "inputs": [
        {
          "name": "configs",
          "type": "tuple[]",
          "internalType": "struct Exchange.PerpScalingConfig[]",
          "components": [
            {
              "name": "perpId",
              "type": "uint256",
              "internalType": "uint256"
            },
            {
              "name": "fundingSumScalingExp",
              "type": "uint256",
              "internalType": "uint256"
            }
          ]
        },
        {
          "name": "residueTransfers",
          "type": "tuple[]",
          "internalType": "struct Exchange.ResidueTransfer[]",
          "components": [
            {
              "name": "perpId",
              "type": "uint256",
              "internalType": "uint256"
            },
            {
              "name": "residueAmountCNS",
              "type": "uint256",
              "internalType": "uint256"
            }
          ]
        }
      ],
      "outputs": [],
      "stateMutability": "nonpayable"
    },
    {
      "type": "function",
      "name": "isAdministrator",
      "inputs": [
        {
          "name": "anAddress",
          "type": "address",
          "internalType": "address"
        }
      ],
      "outputs": [
        {
          "name": "",
          "type": "bool",
          "internalType": "bool"
        }
      ],
      "stateMutability": "view"
    },
    {
      "type": "function",
      "name": "isHalted",
      "inputs": [],
      "outputs": [
        {
          "name": "halted",
          "type": "bool",
          "internalType": "bool"
        }
      ],
      "stateMutability": "view"
    },
    {
      "type": "function",
      "name": "isLiquidationBuyer",
      "inputs": [
        {
          "name": "anAddress",
          "type": "address",
          "internalType": "address"
        }
      ],
      "outputs": [
        {
          "name": "",
          "type": "bool",
          "internalType": "bool"
        }
      ],
      "stateMutability": "view"
    },
    {
      "type": "function",
      "name": "isPositionAdministrator",
      "inputs": [
        {
          "name": "anAddress",
          "type": "address",
          "internalType": "address"
        }
      ],
      "outputs": [
        {
          "name": "",
          "type": "bool",
          "internalType": "bool"
        }
      ],
      "stateMutability": "view"
    },
    {
      "type": "function",
      "name": "isPriceAdministrator",
      "inputs": [
        {
          "name": "anAddress",
          "type": "address",
          "internalType": "address"
        }
      ],
      "outputs": [
        {
          "name": "",
          "type": "bool",
          "internalType": "bool"
        }
      ],
      "stateMutability": "view"
    },
    {
      "type": "function",
      "name": "isToleranceAdministrator",
      "inputs": [
        {
          "name": "anAddress",
          "type": "address",
          "internalType": "address"
        }
      ],
      "outputs": [
        {
          "name": "",
          "type": "bool",
          "internalType": "bool"
        }
      ],
      "stateMutability": "view"
    },
    {
      "type": "function",
      "name": "liquidation",
      "inputs": [
        {
          "name": "liquidationDesc",
          "type": "tuple",
          "internalType": "struct LiquidationDesc",
          "components": [
            {
              "name": "perpId",
              "type": "uint256",
              "internalType": "uint256"
            },
            {
              "name": "posAccountId",
              "type": "uint256",
              "internalType": "uint256"
            },
            {
              "name": "lotLNS",
              "type": "uint256",
              "internalType": "uint256"
            },
            {
              "name": "userProceedsToPosition",
              "type": "bool",
              "internalType": "bool"
            }
          ]
        }
      ],
      "outputs": [],
      "stateMutability": "nonpayable"
    },
    {
      "type": "function",
      "name": "liquidations",
      "inputs": [
        {
          "name": "liquidationDescs",
          "type": "tuple[]",
          "internalType": "struct LiquidationDesc[]",
          "components": [
            {
              "name": "perpId",
              "type": "uint256",
              "internalType": "uint256"
            },
            {
              "name": "posAccountId",
              "type": "uint256",
              "internalType": "uint256"
            },
            {
              "name": "lotLNS",
              "type": "uint256",
              "internalType": "uint256"
            },
            {
              "name": "userProceedsToPosition",
              "type": "bool",
              "internalType": "bool"
            }
          ]
        },
        {
          "name": "revertOnFail",
          "type": "bool",
          "internalType": "bool"
        }
      ],
      "outputs": [],
      "stateMutability": "nonpayable"
    },
    {
      "type": "function",
      "name": "numberOfAccounts",
      "inputs": [],
      "outputs": [
        {
          "name": "numAccounts",
          "type": "uint256",
          "internalType": "uint256"
        }
      ],
      "stateMutability": "view"
    },
    {
      "type": "function",
      "name": "owner",
      "inputs": [],
      "outputs": [
        {
          "name": "",
          "type": "address",
          "internalType": "address"
        }
      ],
      "stateMutability": "view"
    },
    {
      "type": "function",
      "name": "pauseContract",
      "inputs": [
        {
          "name": "perpId",
          "type": "uint256",
          "internalType": "uint256"
        }
      ],
      "outputs": [],
      "stateMutability": "nonpayable"
    },
    {
      "type": "function",
      "name": "pauseContractByMonitor",
      "inputs": [
        {
          "name": "perpId",
          "type": "uint256",
          "internalType": "uint256"
        }
      ],
      "outputs": [],
      "stateMutability": "nonpayable"
    },
    {
      "type": "function",
      "name": "pendingOwner",
      "inputs": [],
      "outputs": [
        {
          "name": "",
          "type": "address",
          "internalType": "address"
        }
      ],
      "stateMutability": "view"
    },
    {
      "type": "function",
      "name": "prepareUnwindContract",
      "inputs": [
        {
          "name": "perpId",
          "type": "uint256",
          "internalType": "uint256"
        }
      ],
      "outputs": [],
      "stateMutability": "nonpayable"
    },
    {
      "type": "function",
      "name": "proxiableUUID",
      "inputs": [],
      "outputs": [
        {
          "name": "",
          "type": "bytes32",
          "internalType": "bytes32"
        }
      ],
      "stateMutability": "view"
    },
    {
      "type": "function",
      "name": "removeContract",
      "inputs": [
        {
          "name": "perpId",
          "type": "uint256",
          "internalType": "uint256"
        }
      ],
      "outputs": [],
      "stateMutability": "nonpayable"
    },
    {
      "type": "function",
      "name": "renounceOwnership",
      "inputs": [],
      "outputs": [],
      "stateMutability": "nonpayable"
    },
    {
      "type": "function",
      "name": "requestDecreasePositionCollateral",
      "inputs": [
        {
          "name": "perpId",
          "type": "uint256",
          "internalType": "uint256"
        },
        {
          "name": "amountCNS",
          "type": "uint256",
          "internalType": "uint256"
        },
        {
          "name": "clampToMaximum",
          "type": "bool",
          "internalType": "bool"
        }
      ],
      "outputs": [],
      "stateMutability": "nonpayable"
    },
    {
      "type": "function",
      "name": "setAddressBlockStatus",
      "inputs": [
        {
          "name": "addresses",
          "type": "address[]",
          "internalType": "address[]"
        },
        {
          "name": "blocked",
          "type": "bool",
          "internalType": "bool"
        }
      ],
      "outputs": [],
      "stateMutability": "nonpayable"
    },
    {
      "type": "function",
      "name": "setAddressWhitelisted",
      "inputs": [
        {
          "name": "addresses",
          "type": "address[]",
          "internalType": "address[]"
        },
        {
          "name": "whitelisted_",
          "type": "bool",
          "internalType": "bool"
        }
      ],
      "outputs": [],
      "stateMutability": "nonpayable"
    },
    {
      "type": "function",
      "name": "setAdministrator",
      "inputs": [
        {
          "name": "administrator",
          "type": "address",
          "internalType": "address"
        },
        {
          "name": "add",
          "type": "bool",
          "internalType": "bool"
        }
      ],
      "outputs": [],
      "stateMutability": "nonpayable"
    },
    {
      "type": "function",
      "name": "setBuyToLiquidateBuyerRestriction",
      "inputs": [
        {
          "name": "perpId",
          "type": "uint256",
          "internalType": "uint256"
        },
        {
          "name": "restrictBuyers",
          "type": "bool",
          "internalType": "bool"
        }
      ],
      "outputs": [],
      "stateMutability": "nonpayable"
    },
    {
      "type": "function",
      "name": "setBuyToLiquidateParams",
      "inputs": [
        {
          "name": "perpId",
          "type": "uint256",
          "internalType": "uint256"
        },
        {
          "name": "insAmtPer100K",
          "type": "uint256",
          "internalType": "uint256"
        },
        {
          "name": "userAmtPer100K",
          "type": "uint256",
          "internalType": "uint256"
        },
        {
          "name": "buyerAmtPer100K",
          "type": "uint256",
          "internalType": "uint256"
        }
      ],
      "outputs": [],
      "stateMutability": "nonpayable"
    },
    {
      "type": "function",
      "name": "setBuyToLiquidatePriceThreshold",
      "inputs": [
        {
          "name": "perpId",
          "type": "uint256",
          "internalType": "uint256"
        },
        {
          "name": "thresholdPer100K",
          "type": "uint256",
          "internalType": "uint256"
        }
      ],
      "outputs": [],
      "stateMutability": "nonpayable"
    },
    {
      "type": "function",
      "name": "setContractPaused",
      "inputs": [
        {
          "name": "perpId",
          "type": "uint256",
          "internalType": "uint256"
        },
        {
          "name": "paused",
          "type": "bool",
          "internalType": "bool"
        }
      ],
      "outputs": [],
      "stateMutability": "nonpayable"
    },
    {
      "type": "function",
      "name": "setDcpBorrowThreshold",
      "inputs": [
        {
          "name": "perpId",
          "type": "uint256",
          "internalType": "uint256"
        },
        {
          "name": "threshHdths",
          "type": "uint256",
          "internalType": "uint256"
        }
      ],
      "outputs": [],
      "stateMutability": "nonpayable"
    },
    {
      "type": "function",
      "name": "setExchangeHalted",
      "inputs": [
        {
          "name": "halted",
          "type": "bool",
          "internalType": "bool"
        }
      ],
      "outputs": [],
      "stateMutability": "nonpayable"
    },
    {
      "type": "function",
      "name": "setFeeParams",
      "inputs": [
        {
          "name": "perpId",
          "type": "uint256",
          "internalType": "uint256"
        },
        {
          "name": "insAmtPer100K",
          "type": "uint256",
          "internalType": "uint256"
        }
      ],
      "outputs": [],
      "stateMutability": "nonpayable"
    },
    {
      "type": "function",
      "name": "setFreezeStatus",
      "inputs": [
        {
          "name": "account",
          "type": "address",
          "internalType": "address"
        },
        {
          "name": "status",
          "type": "uint8",
          "internalType": "enum FreezeStatusEnum"
        }
      ],
      "outputs": [],
      "stateMutability": "nonpayable"
    },
    {
      "type": "function",
      "name": "setFrozen",
      "inputs": [
        {
          "name": "account",
          "type": "address",
          "internalType": "address"
        },
        {
          "name": "status",
          "type": "uint8",
          "internalType": "enum FreezeStatusEnum"
        }
      ],
      "outputs": [],
      "stateMutability": "nonpayable"
    },
    {
      "type": "function",
      "name": "setFundingClampPct",
      "inputs": [
        {
          "name": "perpId",
          "type": "uint256",
          "internalType": "uint256"
        },
        {
          "name": "absFundingClampPctPer100K",
          "type": "uint256",
          "internalType": "uint256"
        }
      ],
      "outputs": [],
      "stateMutability": "nonpayable"
    },
    {
      "type": "function",
      "name": "setFundingSum",
      "inputs": [
        {
          "name": "perpId",
          "type": "uint256",
          "internalType": "uint256"
        },
        {
          "name": "fundingRatePct100k",
          "type": "int256",
          "internalType": "int256"
        },
        {
          "name": "pricePNS",
          "type": "uint32",
          "internalType": "uint32"
        },
        {
          "name": "allowOverwrite",
          "type": "bool",
          "internalType": "bool"
        },
        {
          "name": "revertOnFail",
          "type": "bool",
          "internalType": "bool"
        }
      ],
      "outputs": [],
      "stateMutability": "nonpayable"
    },
    {
      "type": "function",
      "name": "setFundingSumScalingExp",
      "inputs": [
        {
          "name": "perpId",
          "type": "uint256",
          "internalType": "uint256"
        },
        {
          "name": "fundingSumScalingExp",
          "type": "uint256",
          "internalType": "uint256"
        }
      ],
      "outputs": [],
      "stateMutability": "nonpayable"
    },
    {
      "type": "function",
      "name": "setIgnOracle",
      "inputs": [
        {
          "name": "perpId",
          "type": "uint256",
          "internalType": "uint256"
        },
        {
          "name": "ignOracle",
          "type": "bool",
          "internalType": "bool"
        }
      ],
      "outputs": [],
      "stateMutability": "nonpayable"
    },
    {
      "type": "function",
      "name": "setInitialMarginFraction",
      "inputs": [
        {
          "name": "perpId",
          "type": "uint256",
          "internalType": "uint256"
        },
        {
          "name": "initMarginFracHdths",
          "type": "uint256",
          "internalType": "uint256"
        }
      ],
      "outputs": [],
      "stateMutability": "nonpayable"
    },
    {
      "type": "function",
      "name": "setLastForwardedDescId",
      "inputs": [
        {
          "name": "accountId",
          "type": "uint256",
          "internalType": "uint256"
        },
        {
          "name": "newDescId",
          "type": "uint256",
          "internalType": "uint256"
        }
      ],
      "outputs": [],
      "stateMutability": "nonpayable"
    },
    {
      "type": "function",
      "name": "setLastForwardedDescIdAsOwner",
      "inputs": [
        {
          "name": "accountId",
          "type": "uint256",
          "internalType": "uint256"
        },
        {
          "name": "newDescId",
          "type": "uint256",
          "internalType": "uint256"
        }
      ],
      "outputs": [],
      "stateMutability": "nonpayable"
    },
    {
      "type": "function",
      "name": "setLastTriggeredDescId",
      "inputs": [
        {
          "name": "accountId",
          "type": "uint256",
          "internalType": "uint256"
        },
        {
          "name": "newDescId",
          "type": "uint256",
          "internalType": "uint256"
        }
      ],
      "outputs": [],
      "stateMutability": "nonpayable"
    },
    {
      "type": "function",
      "name": "setLastTriggeredDescIdAsOwner",
      "inputs": [
        {
          "name": "accountId",
          "type": "uint256",
          "internalType": "uint256"
        },
        {
          "name": "newDescId",
          "type": "uint256",
          "internalType": "uint256"
        }
      ],
      "outputs": [],
      "stateMutability": "nonpayable"
    },
    {
      "type": "function",
      "name": "setLinkDsVerifier",
      "inputs": [
        {
          "name": "verifierProxy",
          "type": "address",
          "internalType": "address"
        }
      ],
      "outputs": [],
      "stateMutability": "nonpayable"
    },
    {
      "type": "function",
      "name": "setLiquidationBuyer",
      "inputs": [
        {
          "name": "liquidationBuyer",
          "type": "address",
          "internalType": "address"
        },
        {
          "name": "add",
          "type": "bool",
          "internalType": "bool"
        }
      ],
      "outputs": [],
      "stateMutability": "nonpayable"
    },
    {
      "type": "function",
      "name": "setLiquidationParams",
      "inputs": [
        {
          "name": "perpId",
          "type": "uint256",
          "internalType": "uint256"
        },
        {
          "name": "insAmtPer100K",
          "type": "uint256",
          "internalType": "uint256"
        },
        {
          "name": "userAmtPer100K",
          "type": "uint256",
          "internalType": "uint256"
        }
      ],
      "outputs": [],
      "stateMutability": "nonpayable"
    },
    {
      "type": "function",
      "name": "setMaintenanceMarginFraction",
      "inputs": [
        {
          "name": "perpId",
          "type": "uint256",
          "internalType": "uint256"
        },
        {
          "name": "maintMarginFracHdths",
          "type": "uint256",
          "internalType": "uint256"
        }
      ],
      "outputs": [],
      "stateMutability": "nonpayable"
    },
    {
      "type": "function",
      "name": "setMakerFee",
      "inputs": [
        {
          "name": "perpId",
          "type": "uint256",
          "internalType": "uint256"
        },
        {
          "name": "makerFeePer100K",
          "type": "uint256",
          "internalType": "uint256"
        }
      ],
      "outputs": [],
      "stateMutability": "nonpayable"
    },
    {
      "type": "function",
      "name": "setMarginTol",
      "inputs": [
        {
          "name": "perpId",
          "type": "uint256",
          "internalType": "uint256"
        },
        {
          "name": "tolerance",
          "type": "uint256",
          "internalType": "uint256"
        },
        {
          "name": "decimals",
          "type": "uint256",
          "internalType": "uint256"
        }
      ],
      "outputs": [],
      "stateMutability": "nonpayable"
    },
    {
      "type": "function",
      "name": "setMaxOpenInterest",
      "inputs": [
        {
          "name": "perpId",
          "type": "uint256",
          "internalType": "uint256"
        },
        {
          "name": "maxOpenInterestLNS",
          "type": "uint256",
          "internalType": "uint256"
        }
      ],
      "outputs": [],
      "stateMutability": "nonpayable"
    },
    {
      "type": "function",
      "name": "setMinAccountOpenAmount",
      "inputs": [
        {
          "name": "amountCNS",
          "type": "uint256",
          "internalType": "uint256"
        }
      ],
      "outputs": [],
      "stateMutability": "nonpayable"
    },
    {
      "type": "function",
      "name": "setMinPost",
      "inputs": [
        {
          "name": "minPostCNS",
          "type": "uint256",
          "internalType": "uint256"
        }
      ],
      "outputs": [],
      "stateMutability": "nonpayable"
    },
    {
      "type": "function",
      "name": "setMinSettle",
      "inputs": [
        {
          "name": "minSettleCNS",
          "type": "uint256",
          "internalType": "uint256"
        }
      ],
      "outputs": [],
      "stateMutability": "nonpayable"
    },
    {
      "type": "function",
      "name": "setMinWithdrawLimit",
      "inputs": [
        {
          "name": "limitCNS",
          "type": "uint256",
          "internalType": "uint256"
        }
      ],
      "outputs": [],
      "stateMutability": "nonpayable"
    },
    {
      "type": "function",
      "name": "setMonitorAdministrator",
      "inputs": [
        {
          "name": "monitorAdministrator",
          "type": "address",
          "internalType": "address"
        },
        {
          "name": "add",
          "type": "bool",
          "internalType": "bool"
        }
      ],
      "outputs": [],
      "stateMutability": "nonpayable"
    },
    {
      "type": "function",
      "name": "setOverCollatDescentThreshold",
      "inputs": [
        {
          "name": "perpId",
          "type": "uint256",
          "internalType": "uint256"
        },
        {
          "name": "threshHdths",
          "type": "uint256",
          "internalType": "uint256"
        }
      ],
      "outputs": [],
      "stateMutability": "nonpayable"
    },
    {
      "type": "function",
      "name": "setPermissionedCancelParams",
      "inputs": [
        {
          "name": "perpId",
          "type": "uint256",
          "internalType": "uint256"
        },
        {
          "name": "permCancelMinOrders",
          "type": "uint256",
          "internalType": "uint256"
        },
        {
          "name": "permCancelSegment",
          "type": "uint256",
          "internalType": "uint256"
        }
      ],
      "outputs": [],
      "stateMutability": "nonpayable"
    },
    {
      "type": "function",
      "name": "setPerpLinkDsFeedId",
      "inputs": [
        {
          "name": "perpId",
          "type": "uint256",
          "internalType": "uint256"
        },
        {
          "name": "feedId",
          "type": "bytes32",
          "internalType": "bytes32"
        }
      ],
      "outputs": [],
      "stateMutability": "nonpayable"
    },
    {
      "type": "function",
      "name": "setPositionAdministrator",
      "inputs": [
        {
          "name": "positionAdministrator",
          "type": "address",
          "internalType": "address"
        },
        {
          "name": "add",
          "type": "bool",
          "internalType": "bool"
        }
      ],
      "outputs": [],
      "stateMutability": "nonpayable"
    },
    {
      "type": "function",
      "name": "setPriceAdministrator",
      "inputs": [
        {
          "name": "priceAdministrator",
          "type": "address",
          "internalType": "address"
        },
        {
          "name": "add",
          "type": "bool",
          "internalType": "bool"
        }
      ],
      "outputs": [],
      "stateMutability": "nonpayable"
    },
    {
      "type": "function",
      "name": "setPriceMaxAge",
      "inputs": [
        {
          "name": "perpId",
          "type": "uint256",
          "internalType": "uint256"
        },
        {
          "name": "maxAgeSec",
          "type": "uint256",
          "internalType": "uint256"
        }
      ],
      "outputs": [],
      "stateMutability": "nonpayable"
    },
    {
      "type": "function",
      "name": "setPriceTolPer100K",
      "inputs": [
        {
          "name": "perpId",
          "type": "uint256",
          "internalType": "uint256"
        },
        {
          "name": "tolerancePer100K",
          "type": "uint256",
          "internalType": "uint256"
        }
      ],
      "outputs": [],
      "stateMutability": "nonpayable"
    },
    {
      "type": "function",
      "name": "setPriceTolPer100KByOwner",
      "inputs": [
        {
          "name": "perpId",
          "type": "uint256",
          "internalType": "uint256"
        },
        {
          "name": "tolerancePer100K",
          "type": "uint256",
          "internalType": "uint256"
        }
      ],
      "outputs": [],
      "stateMutability": "nonpayable"
    },
    {
      "type": "function",
      "name": "setRecycleFee",
      "inputs": [
        {
          "name": "recycleFeeCNS",
          "type": "uint256",
          "internalType": "uint256"
        }
      ],
      "outputs": [],
      "stateMutability": "nonpayable"
    },
    {
      "type": "function",
      "name": "setTakerFee",
      "inputs": [
        {
          "name": "perpId",
          "type": "uint256",
          "internalType": "uint256"
        },
        {
          "name": "takerFeePer100K",
          "type": "uint256",
          "internalType": "uint256"
        }
      ],
      "outputs": [],
      "stateMutability": "nonpayable"
    },
    {
      "type": "function",
      "name": "setThousandthsTvlWRLS",
      "inputs": [
        {
          "name": "thousandthsTvl",
          "type": "uint256",
          "internalType": "uint256"
        }
      ],
      "outputs": [],
      "stateMutability": "nonpayable"
    },
    {
      "type": "function",
      "name": "setToleranceAdministrator",
      "inputs": [
        {
          "name": "toleranceAdministrator",
          "type": "address",
          "internalType": "address"
        },
        {
          "name": "add",
          "type": "bool",
          "internalType": "bool"
        }
      ],
      "outputs": [],
      "stateMutability": "nonpayable"
    },
    {
      "type": "function",
      "name": "setUnityDescentThreshold",
      "inputs": [
        {
          "name": "perpId",
          "type": "uint256",
          "internalType": "uint256"
        },
        {
          "name": "threshHdths",
          "type": "uint256",
          "internalType": "uint256"
        }
      ],
      "outputs": [],
      "stateMutability": "nonpayable"
    },
    {
      "type": "function",
      "name": "setWhitelistingEnabled",
      "inputs": [
        {
          "name": "enabled",
          "type": "bool",
          "internalType": "bool"
        }
      ],
      "outputs": [],
      "stateMutability": "nonpayable"
    },
    {
      "type": "function",
      "name": "setWithdrawBypass",
      "inputs": [
        {
          "name": "addr",
          "type": "address",
          "internalType": "address"
        },
        {
          "name": "enabled",
          "type": "bool",
          "internalType": "bool"
        }
      ],
      "outputs": [],
      "stateMutability": "nonpayable"
    },
    {
      "type": "function",
      "name": "transferOwnership",
      "inputs": [
        {
          "name": "newOwner",
          "type": "address",
          "internalType": "address"
        }
      ],
      "outputs": [],
      "stateMutability": "nonpayable"
    },
    {
      "type": "function",
      "name": "triggerUnwindContract",
      "inputs": [
        {
          "name": "perpId",
          "type": "uint256",
          "internalType": "uint256"
        }
      ],
      "outputs": [],
      "stateMutability": "nonpayable"
    },
    {
      "type": "function",
      "name": "unwindContract",
      "inputs": [
        {
          "name": "perpId",
          "type": "uint256",
          "internalType": "uint256"
        },
        {
          "name": "maxPosToUnwind",
          "type": "uint256",
          "internalType": "uint256"
        },
        {
          "name": "allowWithoutPayment",
          "type": "bool",
          "internalType": "bool"
        }
      ],
      "outputs": [],
      "stateMutability": "nonpayable"
    },
    {
      "type": "function",
      "name": "unwindContractByOwner",
      "inputs": [
        {
          "name": "perpId",
          "type": "uint256",
          "internalType": "uint256"
        },
        {
          "name": "maxPosToUnwind",
          "type": "uint256",
          "internalType": "uint256"
        },
        {
          "name": "allowWithoutPayment",
          "type": "bool",
          "internalType": "bool"
        }
      ],
      "outputs": [],
      "stateMutability": "nonpayable"
    },
    {
      "type": "function",
      "name": "updateMarkPricePNS",
      "inputs": [
        {
          "name": "perpId",
          "type": "uint256",
          "internalType": "uint256"
        },
        {
          "name": "markPricePNS",
          "type": "uint32",
          "internalType": "uint32"
        }
      ],
      "outputs": [],
      "stateMutability": "nonpayable"
    },
    {
      "type": "function",
      "name": "updateMarkPricePNSByOwner",
      "inputs": [
        {
          "name": "perpId",
          "type": "uint256",
          "internalType": "uint256"
        },
        {
          "name": "markPricePNS",
          "type": "uint32",
          "internalType": "uint32"
        }
      ],
      "outputs": [],
      "stateMutability": "nonpayable"
    },
    {
      "type": "function",
      "name": "updateOraclePrice",
      "inputs": [
        {
          "name": "perpId",
          "type": "uint256",
          "internalType": "uint256"
        },
        {
          "name": "unverifiedReport",
          "type": "bytes",
          "internalType": "bytes"
        }
      ],
      "outputs": [],
      "stateMutability": "nonpayable"
    },
    {
      "type": "function",
      "name": "upgradeTo",
      "inputs": [
        {
          "name": "newImplementation",
          "type": "address",
          "internalType": "address"
        }
      ],
      "outputs": [],
      "stateMutability": "nonpayable"
    },
    {
      "type": "function",
      "name": "upgradeToAndCall",
      "inputs": [
        {
          "name": "newImplementation",
          "type": "address",
          "internalType": "address"
        },
        {
          "name": "data",
          "type": "bytes",
          "internalType": "bytes"
        }
      ],
      "outputs": [],
      "stateMutability": "payable"
    },
    {
      "type": "function",
      "name": "whitelisted",
      "inputs": [
        {
          "name": "",
          "type": "address",
          "internalType": "address"
        }
      ],
      "outputs": [
        {
          "name": "",
          "type": "bool",
          "internalType": "bool"
        }
      ],
      "stateMutability": "view"
    },
    {
      "type": "function",
      "name": "whitelistingEnabled",
      "inputs": [],
      "outputs": [
        {
          "name": "",
          "type": "bool",
          "internalType": "bool"
        }
      ],
      "stateMutability": "view"
    },
    {
      "type": "function",
      "name": "withdrawCollateral",
      "inputs": [
        {
          "name": "amountCNS",
          "type": "uint256",
          "internalType": "uint256"
        }
      ],
      "outputs": [],
      "stateMutability": "nonpayable"
    },
    {
      "type": "function",
      "name": "withdrawFromProtocol",
      "inputs": [
        {
          "name": "amountCNS",
          "type": "uint256",
          "internalType": "uint256"
        }
      ],
      "outputs": [],
      "stateMutability": "nonpayable"
    },
    {
      "type": "function",
      "name": "xferAcctToProtocol",
      "inputs": [
        {
          "name": "amountCNS",
          "type": "uint256",
          "internalType": "uint256"
        }
      ],
      "outputs": [],
      "stateMutability": "nonpayable"
    },
    {
      "type": "function",
      "name": "xferPerpInsToProtocol",
      "inputs": [
        {
          "name": "perpId",
          "type": "uint256",
          "internalType": "uint256"
        },
        {
          "name": "amountCNS",
          "type": "uint256",
          "internalType": "uint256"
        }
      ],
      "outputs": [],
      "stateMutability": "nonpayable"
    },
    {
      "type": "function",
      "name": "xferProtocolToAcct",
      "inputs": [
        {
          "name": "accountId",
          "type": "uint256",
          "internalType": "uint256"
        },
        {
          "name": "amountCNS",
          "type": "uint256",
          "internalType": "uint256"
        }
      ],
      "outputs": [],
      "stateMutability": "nonpayable"
    },
    {
      "type": "function",
      "name": "xferProtocolToPerp",
      "inputs": [
        {
          "name": "perpId",
          "type": "uint256",
          "internalType": "uint256"
        },
        {
          "name": "amountCNS",
          "type": "uint256",
          "internalType": "uint256"
        },
        {
          "name": "insurance",
          "type": "bool",
          "internalType": "bool"
        }
      ],
      "outputs": [],
      "stateMutability": "nonpayable"
    },
    {
      "type": "function",
      "name": "xferProtocolToRecycleBal",
      "inputs": [
        {
          "name": "amountCNS",
          "type": "uint256",
          "internalType": "uint256"
        }
      ],
      "outputs": [],
      "stateMutability": "nonpayable"
    },
    {
      "type": "event",
      "name": "AccountCreated",
      "inputs": [
        {
          "name": "account",
          "type": "address",
          "indexed": false,
          "internalType": "address"
        },
        {
          "name": "id",
          "type": "uint256",
          "indexed": false,
          "internalType": "uint256"
        }
      ],
      "anonymous": false
    },
    {
      "type": "event",
      "name": "AccountFreeze",
      "inputs": [
        {
          "name": "accountId",
          "type": "uint256",
          "indexed": false,
          "internalType": "uint256"
        },
        {
          "name": "status",
          "type": "uint8",
          "indexed": false,
          "internalType": "enum FreezeStatusEnum"
        }
      ],
      "anonymous": false
    },
    {
      "type": "event",
      "name": "AccountFrozen",
      "inputs": [
        {
          "name": "status",
          "type": "uint8",
          "indexed": false,
          "internalType": "enum FreezeStatusEnum"
        }
      ],
      "anonymous": false
    },
    {
      "type": "event",
      "name": "AccountLiquidationCredit",
      "inputs": [
        {
          "name": "perpId",
          "type": "uint256",
          "indexed": false,
          "internalType": "uint256"
        },
        {
          "name": "accountId",
          "type": "uint256",
          "indexed": false,
          "internalType": "uint256"
        },
        {
          "name": "startBalanceCNS",
          "type": "uint256",
          "indexed": false,
          "internalType": "uint256"
        },
        {
          "name": "endBalanceCNS",
          "type": "uint256",
          "indexed": false,
          "internalType": "uint256"
        }
      ],
      "anonymous": false
    },
    {
      "type": "event",
      "name": "AdminChanged",
      "inputs": [
        {
          "name": "previousAdmin",
          "type": "address",
          "indexed": false,
          "internalType": "address"
        },
        {
          "name": "newAdmin",
          "type": "address",
          "indexed": false,
          "internalType": "address"
        }
      ],
      "anonymous": false
    },
    {
      "type": "event",
      "name": "AdministratorUpdated",
      "inputs": [
        {
          "name": "administrator",
          "type": "address",
          "indexed": false,
          "internalType": "address"
        },
        {
          "name": "added",
          "type": "bool",
          "indexed": false,
          "internalType": "bool"
        }
      ],
      "anonymous": false
    },
    {
      "type": "event",
      "name": "AmountExceedsAvailableBalance",
      "inputs": [
        {
          "name": "amountCNS",
          "type": "uint256",
          "indexed": false,
          "internalType": "uint256"
        },
        {
          "name": "availableBalanceCNS",
          "type": "uint256",
          "indexed": false,
          "internalType": "uint256"
        },
        {
          "name": "balanceCNS",
          "type": "uint256",
          "indexed": false,
          "internalType": "uint256"
        }
      ],
      "anonymous": false
    },
    {
      "type": "event",
      "name": "BankruptcyPricePreventsDeleverage",
      "inputs": [
        {
          "name": "perpId",
          "type": "uint256",
          "indexed": false,
          "internalType": "uint256"
        },
        {
          "name": "accountId",
          "type": "uint256",
          "indexed": false,
          "internalType": "uint256"
        },
        {
          "name": "positionType",
          "type": "uint8",
          "indexed": false,
          "internalType": "enum PositionEnum"
        },
        {
          "name": "bankruptcyPricePNS",
          "type": "uint256",
          "indexed": false,
          "internalType": "uint256"
        },
        {
          "name": "markPricePNS",
          "type": "uint256",
          "indexed": false,
          "internalType": "uint256"
        }
      ],
      "anonymous": false
    },
    {
      "type": "event",
      "name": "BeaconUpgraded",
      "inputs": [
        {
          "name": "beacon",
          "type": "address",
          "indexed": true,
          "internalType": "address"
        }
      ],
      "anonymous": false
    },
    {
      "type": "event",
      "name": "BlockStatusChanged",
      "inputs": [
        {
          "name": "addr",
          "type": "address",
          "indexed": true,
          "internalType": "address"
        },
        {
          "name": "blocked",
          "type": "bool",
          "indexed": false,
          "internalType": "bool"
        }
      ],
      "anonymous": false
    },
    {
      "type": "event",
      "name": "BorrowMarginNotMetAfterDecCollateral",
      "inputs": [
        {
          "name": "perpId",
          "type": "uint256",
          "indexed": false,
          "internalType": "uint256"
        },
        {
          "name": "accountId",
          "type": "uint256",
          "indexed": false,
          "internalType": "uint256"
        },
        {
          "name": "bmrCNS",
          "type": "int256",
          "indexed": false,
          "internalType": "int256"
        },
        {
          "name": "fmvAfterCNS",
          "type": "int256",
          "indexed": false,
          "internalType": "int256"
        }
      ],
      "anonymous": false
    },
    {
      "type": "event",
      "name": "BuyToLiquidateBuyerRestricted",
      "inputs": [
        {
          "name": "perpId",
          "type": "uint256",
          "indexed": false,
          "internalType": "uint256"
        },
        {
          "name": "buyer",
          "type": "address",
          "indexed": false,
          "internalType": "address"
        }
      ],
      "anonymous": false
    },
    {
      "type": "event",
      "name": "BuyToLiquidateParamsUpdated",
      "inputs": [
        {
          "name": "perpId",
          "type": "uint256",
          "indexed": false,
          "internalType": "uint256"
        },
        {
          "name": "insAmtPer100K",
          "type": "uint256",
          "indexed": false,
          "internalType": "uint256"
        },
        {
          "name": "userAmtPer100K",
          "type": "uint256",
          "indexed": false,
          "internalType": "uint256"
        },
        {
          "name": "buyerAmtPer100K",
          "type": "uint256",
          "indexed": false,
          "internalType": "uint256"
        },
        {
          "name": "protAmtPer100K",
          "type": "uint256",
          "indexed": false,
          "internalType": "uint256"
        }
      ],
      "anonymous": false
    },
    {
      "type": "event",
      "name": "BuyToLiquidateRestrictionUpdated",
      "inputs": [
        {
          "name": "perpId",
          "type": "uint256",
          "indexed": false,
          "internalType": "uint256"
        },
        {
          "name": "restrictBuyers",
          "type": "bool",
          "indexed": false,
          "internalType": "bool"
        }
      ],
      "anonymous": false
    },
    {
      "type": "event",
      "name": "BuyToLiquidateSettled",
      "inputs": [
        {
          "name": "perpId",
          "type": "uint256",
          "indexed": false,
          "internalType": "uint256"
        },
        {
          "name": "accountId",
          "type": "uint256",
          "indexed": false,
          "internalType": "uint256"
        },
        {
          "name": "orderType",
          "type": "uint8",
          "indexed": false,
          "internalType": "enum OrderEnum"
        },
        {
          "name": "realizedPricePNS",
          "type": "uint256",
          "indexed": false,
          "internalType": "uint256"
        },
        {
          "name": "lotLNS",
          "type": "uint256",
          "indexed": false,
          "internalType": "uint256"
        },
        {
          "name": "amountCNS",
          "type": "int256",
          "indexed": false,
          "internalType": "int256"
        },
        {
          "name": "balanceCNS",
          "type": "uint256",
          "indexed": false,
          "internalType": "uint256"
        }
      ],
      "anonymous": false
    },
    {
      "type": "event",
      "name": "BuyToLiquidateSlippageExceeded",
      "inputs": [
        {
          "name": "perpId",
          "type": "uint256",
          "indexed": false,
          "internalType": "uint256"
        },
        {
          "name": "posAccountId",
          "type": "uint256",
          "indexed": false,
          "internalType": "uint256"
        },
        {
          "name": "positionType",
          "type": "uint8",
          "indexed": false,
          "internalType": "enum PositionEnum"
        },
        {
          "name": "markPricePNS",
          "type": "uint256",
          "indexed": false,
          "internalType": "uint256"
        },
        {
          "name": "limitPricePNS",
          "type": "uint256",
          "indexed": false,
          "internalType": "uint256"
        }
      ],
      "anonymous": false
    },
    {
      "type": "event",
      "name": "BuyToLiquidateStarted",
      "inputs": [
        {
          "name": "perpId",
          "type": "uint256",
          "indexed": false,
          "internalType": "uint256"
        },
        {
          "name": "posAccountId",
          "type": "uint256",
          "indexed": false,
          "internalType": "uint256"
        },
        {
          "name": "liquidatorId",
          "type": "uint256",
          "indexed": false,
          "internalType": "uint256"
        },
        {
          "name": "requestedLotLNS",
          "type": "uint256",
          "indexed": false,
          "internalType": "uint256"
        },
        {
          "name": "leverageHdths",
          "type": "uint256",
          "indexed": false,
          "internalType": "uint256"
        },
        {
          "name": "limitPricePNS",
          "type": "uint256",
          "indexed": false,
          "internalType": "uint256"
        },
        {
          "name": "maxNegPnlCollatBPS",
          "type": "uint256",
          "indexed": false,
          "internalType": "uint256"
        }
      ],
      "anonymous": false
    },
    {
      "type": "event",
      "name": "BuyToLiquidateThresholdUpdated",
      "inputs": [
        {
          "name": "perpId",
          "type": "uint256",
          "indexed": false,
          "internalType": "uint256"
        },
        {
          "name": "thresholdPer100K",
          "type": "uint256",
          "indexed": false,
          "internalType": "uint256"
        }
      ],
      "anonymous": false
    },
    {
      "type": "event",
      "name": "CancelExistingInvalidCloseOrders",
      "inputs": [
        {
          "name": "lockedLotLNS",
          "type": "uint256",
          "indexed": false,
          "internalType": "uint256"
        },
        {
          "name": "lockedPositionType",
          "type": "uint8",
          "indexed": false,
          "internalType": "enum PositionEnum"
        },
        {
          "name": "newPositionType",
          "type": "uint8",
          "indexed": false,
          "internalType": "enum PositionEnum"
        }
      ],
      "anonymous": false
    },
    {
      "type": "event",
      "name": "CannotAdjustEntryPriceToDecCollateral",
      "inputs": [
        {
          "name": "perpId",
          "type": "uint256",
          "indexed": false,
          "internalType": "uint256"
        },
        {
          "name": "accountId",
          "type": "uint256",
          "indexed": false,
          "internalType": "uint256"
        },
        {
          "name": "amountCNS",
          "type": "uint256",
          "indexed": false,
          "internalType": "uint256"
        },
        {
          "name": "adjustmentAmountCNS",
          "type": "uint256",
          "indexed": false,
          "internalType": "uint256"
        },
        {
          "name": "entryPricePNS",
          "type": "uint256",
          "indexed": false,
          "internalType": "uint256"
        },
        {
          "name": "adjustedEntryPricePNS",
          "type": "int256",
          "indexed": false,
          "internalType": "int256"
        },
        {
          "name": "positionType",
          "type": "uint8",
          "indexed": false,
          "internalType": "enum PositionEnum"
        }
      ],
      "anonymous": false
    },
    {
      "type": "event",
      "name": "CantBuyToLiquidate",
      "inputs": [
        {
          "name": "perpId",
          "type": "uint256",
          "indexed": false,
          "internalType": "uint256"
        },
        {
          "name": "posAccountId",
          "type": "uint256",
          "indexed": false,
          "internalType": "uint256"
        },
        {
          "name": "positionType",
          "type": "uint8",
          "indexed": false,
          "internalType": "enum PositionEnum"
        },
        {
          "name": "markPricePNS",
          "type": "uint256",
          "indexed": false,
          "internalType": "uint256"
        },
        {
          "name": "bsLiqPricePNS",
          "type": "uint256",
          "indexed": false,
          "internalType": "uint256"
        },
        {
          "name": "liqPricePNS",
          "type": "uint256",
          "indexed": false,
          "internalType": "uint256"
        },
        {
          "name": "bkptPricePNS",
          "type": "uint256",
          "indexed": false,
          "internalType": "uint256"
        }
      ],
      "anonymous": false
    },
    {
      "type": "event",
      "name": "CantChangeCloseOrder",
      "inputs": [
        {
          "name": "perpId",
          "type": "uint256",
          "indexed": false,
          "internalType": "uint256"
        },
        {
          "name": "orderId",
          "type": "uint256",
          "indexed": false,
          "internalType": "uint256"
        },
        {
          "name": "accountId",
          "type": "uint256",
          "indexed": false,
          "internalType": "uint256"
        }
      ],
      "anonymous": false
    },
    {
      "type": "event",
      "name": "CantDeleverageAgainstOpposingPositions",
      "inputs": [
        {
          "name": "perpId",
          "type": "uint256",
          "indexed": false,
          "internalType": "uint256"
        },
        {
          "name": "accountId",
          "type": "uint256",
          "indexed": false,
          "internalType": "uint256"
        },
        {
          "name": "forceClose",
          "type": "bool",
          "indexed": false,
          "internalType": "bool"
        },
        {
          "name": "positionType",
          "type": "uint8",
          "indexed": false,
          "internalType": "enum PositionEnum"
        },
        {
          "name": "deleveragePricePNS",
          "type": "uint256",
          "indexed": false,
          "internalType": "uint256"
        },
        {
          "name": "sortedPositionIds",
          "type": "uint256[]",
          "indexed": false,
          "internalType": "uint256[]"
        }
      ],
      "anonymous": false
    },
    {
      "type": "event",
      "name": "CantLiquidatePosAboveMMR",
      "inputs": [
        {
          "name": "perpId",
          "type": "uint256",
          "indexed": false,
          "internalType": "uint256"
        },
        {
          "name": "posAccountId",
          "type": "uint256",
          "indexed": false,
          "internalType": "uint256"
        },
        {
          "name": "positionType",
          "type": "uint8",
          "indexed": false,
          "internalType": "enum PositionEnum"
        },
        {
          "name": "markPricePNS",
          "type": "uint256",
          "indexed": false,
          "internalType": "uint256"
        },
        {
          "name": "liqPricePNS",
          "type": "uint256",
          "indexed": false,
          "internalType": "uint256"
        }
      ],
      "anonymous": false
    },
    {
      "type": "event",
      "name": "ChangeExpiredOrderNeedsNewExpiry",
      "inputs": [
        {
          "name": "perpId",
          "type": "uint256",
          "indexed": false,
          "internalType": "uint256"
        },
        {
          "name": "orderId",
          "type": "uint256",
          "indexed": false,
          "internalType": "uint256"
        },
        {
          "name": "accountId",
          "type": "uint256",
          "indexed": false,
          "internalType": "uint256"
        },
        {
          "name": "expiryBlock",
          "type": "uint256",
          "indexed": false,
          "internalType": "uint256"
        }
      ],
      "anonymous": false
    },
    {
      "type": "event",
      "name": "ClearingExpiredOrder",
      "inputs": [
        {
          "name": "perpId",
          "type": "uint256",
          "indexed": false,
          "internalType": "uint256"
        },
        {
          "name": "accountId",
          "type": "uint256",
          "indexed": false,
          "internalType": "uint256"
        },
        {
          "name": "orderId",
          "type": "uint256",
          "indexed": false,
          "internalType": "uint256"
        },
        {
          "name": "lockedBalanceCNS",
          "type": "uint256",
          "indexed": false,
          "internalType": "uint256"
        },
        {
          "name": "recyclerAccountId",
          "type": "uint256",
          "indexed": false,
          "internalType": "uint256"
        },
        {
          "name": "recyclerAmountCNS",
          "type": "int256",
          "indexed": false,
          "internalType": "int256"
        },
        {
          "name": "recyclerBalanceCNS",
          "type": "uint256",
          "indexed": false,
          "internalType": "uint256"
        }
      ],
      "anonymous": false
    },
    {
      "type": "event",
      "name": "ClearingFrozenAccountOrder",
      "inputs": [
        {
          "name": "perpId",
          "type": "uint256",
          "indexed": false,
          "internalType": "uint256"
        },
        {
          "name": "accountId",
          "type": "uint256",
          "indexed": false,
          "internalType": "uint256"
        },
        {
          "name": "orderId",
          "type": "uint256",
          "indexed": false,
          "internalType": "uint256"
        },
        {
          "name": "lockedBalanceCNS",
          "type": "uint256",
          "indexed": false,
          "internalType": "uint256"
        },
        {
          "name": "recyclerAccountId",
          "type": "uint256",
          "indexed": false,
          "internalType": "uint256"
        },
        {
          "name": "recyclerAmountCNS",
          "type": "int256",
          "indexed": false,
          "internalType": "int256"
        },
        {
          "name": "recyclerBalanceCNS",
          "type": "uint256",
          "indexed": false,
          "internalType": "uint256"
        }
      ],
      "anonymous": false
    },
    {
      "type": "event",
      "name": "ClearingInvalidCloseOrder",
      "inputs": [
        {
          "name": "perpId",
          "type": "uint256",
          "indexed": false,
          "internalType": "uint256"
        },
        {
          "name": "accountId",
          "type": "uint256",
          "indexed": false,
          "internalType": "uint256"
        },
        {
          "name": "orderId",
          "type": "uint256",
          "indexed": false,
          "internalType": "uint256"
        },
        {
          "name": "lockedBalanceCNS",
          "type": "uint256",
          "indexed": false,
          "internalType": "uint256"
        },
        {
          "name": "recyclerAccountId",
          "type": "uint256",
          "indexed": false,
          "internalType": "uint256"
        },
        {
          "name": "recyclerAmountCNS",
          "type": "int256",
          "indexed": false,
          "internalType": "int256"
        },
        {
          "name": "recyclerBalanceCNS",
          "type": "uint256",
          "indexed": false,
          "internalType": "uint256"
        }
      ],
      "anonymous": false
    },
    {
      "type": "event",
      "name": "ClearingRemainingOrderLockBeyondBalance",
      "inputs": [
        {
          "name": "perpId",
          "type": "uint256",
          "indexed": false,
          "internalType": "uint256"
        },
        {
          "name": "accountId",
          "type": "uint256",
          "indexed": false,
          "internalType": "uint256"
        },
        {
          "name": "orderId",
          "type": "uint256",
          "indexed": false,
          "internalType": "uint256"
        },
        {
          "name": "pricePNS",
          "type": "uint256",
          "indexed": false,
          "internalType": "uint256"
        },
        {
          "name": "remainingLotLNS",
          "type": "uint256",
          "indexed": false,
          "internalType": "uint256"
        },
        {
          "name": "lockedBalanceCNS",
          "type": "uint256",
          "indexed": false,
          "internalType": "uint256"
        },
        {
          "name": "excessiveLockedBalCNS",
          "type": "uint256",
          "indexed": false,
          "internalType": "uint256"
        },
        {
          "name": "recyclerAccountId",
          "type": "uint256",
          "indexed": false,
          "internalType": "uint256"
        },
        {
          "name": "recyclerAmountCNS",
          "type": "int256",
          "indexed": false,
          "internalType": "int256"
        },
        {
          "name": "recyclerBalanceCNS",
          "type": "uint256",
          "indexed": false,
          "internalType": "uint256"
        }
      ],
      "anonymous": false
    },
    {
      "type": "event",
      "name": "ClearingSelfMatchingOrder",
      "inputs": [
        {
          "name": "perpId",
          "type": "uint256",
          "indexed": false,
          "internalType": "uint256"
        },
        {
          "name": "accountId",
          "type": "uint256",
          "indexed": false,
          "internalType": "uint256"
        },
        {
          "name": "orderId",
          "type": "uint256",
          "indexed": false,
          "internalType": "uint256"
        },
        {
          "name": "lockedBalanceCNS",
          "type": "uint256",
          "indexed": false,
          "internalType": "uint256"
        },
        {
          "name": "recyclerAccountId",
          "type": "uint256",
          "indexed": false,
          "internalType": "uint256"
        },
        {
          "name": "recyclerAmountCNS",
          "type": "int256",
          "indexed": false,
          "internalType": "int256"
        },
        {
          "name": "recyclerBalanceCNS",
          "type": "uint256",
          "indexed": false,
          "internalType": "uint256"
        }
      ],
      "anonymous": false
    },
    {
      "type": "event",
      "name": "CloseOrderExceedsPosition",
      "inputs": [
        {
          "name": "posLotLNS",
          "type": "uint256",
          "indexed": false,
          "internalType": "uint256"
        },
        {
          "name": "orderLotLNS",
          "type": "uint256",
          "indexed": false,
          "internalType": "uint256"
        }
      ],
      "anonymous": false
    },
    {
      "type": "event",
      "name": "CloseOrderPositionMismatch",
      "inputs": [
        {
          "name": "positionType",
          "type": "uint8",
          "indexed": false,
          "internalType": "enum PositionEnum"
        },
        {
          "name": "orderType",
          "type": "uint8",
          "indexed": false,
          "internalType": "enum OrderEnum"
        }
      ],
      "anonymous": false
    },
    {
      "type": "event",
      "name": "CollateralDecreaseDeclined",
      "inputs": [
        {
          "name": "perpId",
          "type": "uint256",
          "indexed": false,
          "internalType": "uint256"
        },
        {
          "name": "accountId",
          "type": "uint256",
          "indexed": false,
          "internalType": "uint256"
        },
        {
          "name": "reason",
          "type": "string",
          "indexed": false,
          "internalType": "string"
        }
      ],
      "anonymous": false
    },
    {
      "type": "event",
      "name": "CollateralDecreaseRequestCancelled",
      "inputs": [
        {
          "name": "perpId",
          "type": "uint256",
          "indexed": false,
          "internalType": "uint256"
        },
        {
          "name": "accountId",
          "type": "uint256",
          "indexed": false,
          "internalType": "uint256"
        }
      ],
      "anonymous": false
    },
    {
      "type": "event",
      "name": "CollateralDecreaseRequestExpired",
      "inputs": [
        {
          "name": "perpId",
          "type": "uint256",
          "indexed": false,
          "internalType": "uint256"
        },
        {
          "name": "accountId",
          "type": "uint256",
          "indexed": false,
          "internalType": "uint256"
        },
        {
          "name": "expiryTS",
          "type": "uint256",
          "indexed": false,
          "internalType": "uint256"
        },
        {
          "name": "blockTS",
          "type": "uint256",
          "indexed": false,
          "internalType": "uint256"
        }
      ],
      "anonymous": false
    },
    {
      "type": "event",
      "name": "CollateralDecreaseRequested",
      "inputs": [
        {
          "name": "perpId",
          "type": "uint256",
          "indexed": false,
          "internalType": "uint256"
        },
        {
          "name": "accountId",
          "type": "uint256",
          "indexed": false,
          "internalType": "uint256"
        },
        {
          "name": "expiryTS",
          "type": "uint256",
          "indexed": false,
          "internalType": "uint256"
        },
        {
          "name": "amountCNS",
          "type": "uint256",
          "indexed": false,
          "internalType": "uint256"
        },
        {
          "name": "clampToMaximum",
          "type": "bool",
          "indexed": false,
          "internalType": "bool"
        },
        {
          "name": "positionType",
          "type": "uint8",
          "indexed": false,
          "internalType": "enum PositionEnum"
        },
        {
          "name": "entryPricePNS",
          "type": "uint256",
          "indexed": false,
          "internalType": "uint256"
        },
        {
          "name": "lotLNS",
          "type": "uint256",
          "indexed": false,
          "internalType": "uint256"
        }
      ],
      "anonymous": false
    },
    {
      "type": "event",
      "name": "CollateralDeposit",
      "inputs": [
        {
          "name": "accountId",
          "type": "uint256",
          "indexed": false,
          "internalType": "uint256"
        },
        {
          "name": "amountCNS",
          "type": "uint256",
          "indexed": false,
          "internalType": "uint256"
        },
        {
          "name": "balanceCNS",
          "type": "uint256",
          "indexed": false,
          "internalType": "uint256"
        }
      ],
      "anonymous": false
    },
    {
      "type": "event",
      "name": "CollateralWithdrawal",
      "inputs": [
        {
          "name": "accountId",
          "type": "uint256",
          "indexed": false,
          "internalType": "uint256"
        },
        {
          "name": "amountCNS",
          "type": "uint256",
          "indexed": false,
          "internalType": "uint256"
        },
        {
          "name": "balanceCNS",
          "type": "uint256",
          "indexed": false,
          "internalType": "uint256"
        }
      ],
      "anonymous": false
    },
    {
      "type": "event",
      "name": "ContractAdded",
      "inputs": [
        {
          "name": "perpId",
          "type": "uint256",
          "indexed": false,
          "internalType": "uint256"
        },
        {
          "name": "name",
          "type": "string",
          "indexed": false,
          "internalType": "string"
        },
        {
          "name": "symbol",
          "type": "string",
          "indexed": false,
          "internalType": "string"
        },
        {
          "name": "status",
          "type": "uint8",
          "indexed": false,
          "internalType": "enum PerpStatusEnum"
        },
        {
          "name": "basePricePNS",
          "type": "uint256",
          "indexed": false,
          "internalType": "uint256"
        },
        {
          "name": "priceDecimals",
          "type": "uint256",
          "indexed": false,
          "internalType": "uint256"
        },
        {
          "name": "lotDecimals",
          "type": "uint256",
          "indexed": false,
          "internalType": "uint256"
        },
        {
          "name": "takerFeePer100K",
          "type": "uint256",
          "indexed": false,
          "internalType": "uint256"
        },
        {
          "name": "makerFeePer100K",
          "type": "uint256",
          "indexed": false,
          "internalType": "uint256"
        },
        {
          "name": "initMarginFracHdths",
          "type": "uint256",
          "indexed": false,
          "internalType": "uint256"
        },
        {
          "name": "maintMarginFracHdths",
          "type": "uint256",
          "indexed": false,
          "internalType": "uint256"
        },
        {
          "name": "maxOpenInterestLNS",
          "type": "uint256",
          "indexed": false,
          "internalType": "uint256"
        },
        {
          "name": "unityDescentThreshHdths",
          "type": "uint256",
          "indexed": false,
          "internalType": "uint256"
        },
        {
          "name": "overColDescentThreshHdths",
          "type": "uint256",
          "indexed": false,
          "internalType": "uint256"
        },
        {
          "name": "dcpBorrowThreshHdths",
          "type": "uint256",
          "indexed": false,
          "internalType": "uint256"
        },
        {
          "name": "priceTolPer100K",
          "type": "uint256",
          "indexed": false,
          "internalType": "uint256"
        },
        {
          "name": "marginTol",
          "type": "uint256",
          "indexed": false,
          "internalType": "uint256"
        },
        {
          "name": "marginTolDecimals",
          "type": "uint256",
          "indexed": false,
          "internalType": "uint256"
        },
        {
          "name": "refPriceMaxAgeSec",
          "type": "uint256",
          "indexed": false,
          "internalType": "uint256"
        },
        {
          "name": "absFundingClampPctPer100K",
          "type": "uint256",
          "indexed": false,
          "internalType": "uint256"
        },
        {
          "name": "permCancelMinOrders",
          "type": "uint256",
          "indexed": false,
          "internalType": "uint256"
        },
        {
          "name": "permCancelSegment",
          "type": "uint256",
          "indexed": false,
          "internalType": "uint256"
        },
        {
          "name": "insAmtPer100K",
          "type": "uint256",
          "indexed": false,
          "internalType": "uint256"
        },
        {
          "name": "liqInsAmtPer100K",
          "type": "uint256",
          "indexed": false,
          "internalType": "uint256"
        },
        {
          "name": "liqUserAmtPer100K",
          "type": "uint256",
          "indexed": false,
          "internalType": "uint256"
        },
        {
          "name": "btlRestrictBuyers",
          "type": "bool",
          "indexed": false,
          "internalType": "bool"
        },
        {
          "name": "btlPriceThreshPer100K",
          "type": "uint256",
          "indexed": false,
          "internalType": "uint256"
        },
        {
          "name": "btlInsAmtPer100K",
          "type": "uint256",
          "indexed": false,
          "internalType": "uint256"
        },
        {
          "name": "btlUserAmtPer100K",
          "type": "uint256",
          "indexed": false,
          "internalType": "uint256"
        },
        {
          "name": "btlBuyerAmtPer100K",
          "type": "uint256",
          "indexed": false,
          "internalType": "uint256"
        },
        {
          "name": "numPerpetuals",
          "type": "uint256",
          "indexed": false,
          "internalType": "uint256"
        }
      ],
      "anonymous": false
    },
    {
      "type": "event",
      "name": "ContractLinkFeedUpdated",
      "inputs": [
        {
          "name": "perpId",
          "type": "uint256",
          "indexed": false,
          "internalType": "uint256"
        },
        {
          "name": "feedId",
          "type": "bytes32",
          "indexed": false,
          "internalType": "bytes32"
        }
      ],
      "anonymous": false
    },
    {
      "type": "event",
      "name": "ContractNotOperational",
      "inputs": [
        {
          "name": "perpId",
          "type": "uint256",
          "indexed": false,
          "internalType": "uint256"
        },
        {
          "name": "status",
          "type": "uint8",
          "indexed": false,
          "internalType": "enum PerpStatusEnum"
        }
      ],
      "anonymous": false
    },
    {
      "type": "event",
      "name": "ContractPaused",
      "inputs": [
        {
          "name": "perpId",
          "type": "uint256",
          "indexed": false,
          "internalType": "uint256"
        },
        {
          "name": "paused",
          "type": "bool",
          "indexed": false,
          "internalType": "bool"
        }
      ],
      "anonymous": false
    },
    {
      "type": "event",
      "name": "ContractRemoved",
      "inputs": [
        {
          "name": "perpId",
          "type": "uint256",
          "indexed": false,
          "internalType": "uint256"
        }
      ],
      "anonymous": false
    },
    {
      "type": "event",
      "name": "CrossesBook",
      "inputs": [
        {
          "name": "minAskOrMaxBidPNS",
          "type": "uint256",
          "indexed": false,
          "internalType": "uint256"
        },
        {
          "name": "maxOrdersChecked",
          "type": "bool",
          "indexed": false,
          "internalType": "bool"
        }
      ],
      "anonymous": false
    },
    {
      "type": "event",
      "name": "DcpBorrowThreshUpdated",
      "inputs": [
        {
          "name": "perpId",
          "type": "uint256",
          "indexed": false,
          "internalType": "uint256"
        },
        {
          "name": "threshHdths",
          "type": "uint256",
          "indexed": false,
          "internalType": "uint256"
        }
      ],
      "anonymous": false
    },
    {
      "type": "event",
      "name": "DecreaseCollateralBeyondMarkPrice",
      "inputs": [
        {
          "name": "perpId",
          "type": "uint256",
          "indexed": false,
          "internalType": "uint256"
        },
        {
          "name": "accountId",
          "type": "uint256",
          "indexed": false,
          "internalType": "uint256"
        },
        {
          "name": "positionType",
          "type": "uint8",
          "indexed": false,
          "internalType": "enum PositionEnum"
        },
        {
          "name": "impactAdjPricePNS",
          "type": "uint256",
          "indexed": false,
          "internalType": "uint256"
        },
        {
          "name": "markPricePNS",
          "type": "uint256",
          "indexed": false,
          "internalType": "uint256"
        }
      ],
      "anonymous": false
    },
    {
      "type": "event",
      "name": "DeleveragePositionListEmpty",
      "inputs": [
        {
          "name": "perpId",
          "type": "uint256",
          "indexed": false,
          "internalType": "uint256"
        },
        {
          "name": "accountId",
          "type": "uint256",
          "indexed": false,
          "internalType": "uint256"
        }
      ],
      "anonymous": false
    },
    {
      "type": "event",
      "name": "ExceedsLastExecutionBlock",
      "inputs": [
        {
          "name": "lastExecutionBlock",
          "type": "uint256",
          "indexed": false,
          "internalType": "uint256"
        }
      ],
      "anonymous": false
    },
    {
      "type": "event",
      "name": "ExchangeHalted",
      "inputs": [
        {
          "name": "halted",
          "type": "bool",
          "indexed": false,
          "internalType": "bool"
        }
      ],
      "anonymous": false
    },
    {
      "type": "event",
      "name": "ExchangeInitialized",
      "inputs": [
        {
          "name": "sender",
          "type": "address",
          "indexed": false,
          "internalType": "address"
        },
        {
          "name": "collateralToken",
          "type": "address",
          "indexed": false,
          "internalType": "address"
        },
        {
          "name": "collateralDecimals",
          "type": "uint256",
          "indexed": false,
          "internalType": "uint256"
        },
        {
          "name": "minAccountOpenCNS",
          "type": "uint256",
          "indexed": false,
          "internalType": "uint256"
        },
        {
          "name": "wrlsThousandthsTvl",
          "type": "uint256",
          "indexed": false,
          "internalType": "uint256"
        },
        {
          "name": "wrlsMinWithdrawLimitCNS",
          "type": "uint256",
          "indexed": false,
          "internalType": "uint256"
        },
        {
          "name": "recycleFeeCNS",
          "type": "uint256",
          "indexed": false,
          "internalType": "uint256"
        },
        {
          "name": "whitelistingEnabled",
          "type": "bool",
          "indexed": false,
          "internalType": "bool"
        }
      ],
      "anonymous": false
    },
    {
      "type": "event",
      "name": "FeeParamsUpdated",
      "inputs": [
        {
          "name": "perpId",
          "type": "uint256",
          "indexed": false,
          "internalType": "uint256"
        },
        {
          "name": "insAmtPer100K",
          "type": "uint256",
          "indexed": false,
          "internalType": "uint256"
        }
      ],
      "anonymous": false
    },
    {
      "type": "event",
      "name": "FundingClampPctUpdated",
      "inputs": [
        {
          "name": "perpId",
          "type": "uint256",
          "indexed": false,
          "internalType": "uint256"
        },
        {
          "name": "clampPctPer100k",
          "type": "uint256",
          "indexed": false,
          "internalType": "uint256"
        }
      ],
      "anonymous": false
    },
    {
      "type": "event",
      "name": "FundingEventCompleted",
      "inputs": [
        {
          "name": "perpId",
          "type": "uint256",
          "indexed": false,
          "internalType": "uint256"
        },
        {
          "name": "fundingEventBlock",
          "type": "uint256",
          "indexed": false,
          "internalType": "uint256"
        },
        {
          "name": "specifiedRatePct100k",
          "type": "int256",
          "indexed": false,
          "internalType": "int256"
        },
        {
          "name": "actualRatePct100k",
          "type": "int256",
          "indexed": false,
          "internalType": "int256"
        },
        {
          "name": "fundingPricePNS",
          "type": "uint256",
          "indexed": false,
          "internalType": "uint256"
        },
        {
          "name": "fundingPaymentPNS",
          "type": "int48",
          "indexed": false,
          "internalType": "int48"
        },
        {
          "name": "fundingSumPNS",
          "type": "int48",
          "indexed": false,
          "internalType": "int48"
        },
        {
          "name": "allowOverwrite",
          "type": "bool",
          "indexed": false,
          "internalType": "bool"
        }
      ],
      "anonymous": false
    },
    {
      "type": "event",
      "name": "FundingEventSetTooEarly",
      "inputs": [
        {
          "name": "perpId",
          "type": "uint256",
          "indexed": false,
          "internalType": "uint256"
        },
        {
          "name": "blockNumber",
          "type": "uint256",
          "indexed": false,
          "internalType": "uint256"
        },
        {
          "name": "fundingEventBlock",
          "type": "uint256",
          "indexed": false,
          "internalType": "uint256"
        }
      ],
      "anonymous": false
    },
    {
      "type": "event",
      "name": "FundingPriceExceedsTol",
      "inputs": [
        {
          "name": "perpId",
          "type": "uint256",
          "indexed": false,
          "internalType": "uint256"
        },
        {
          "name": "fundingPricePNS",
          "type": "uint256",
          "indexed": false,
          "internalType": "uint256"
        },
        {
          "name": "oraclePNS",
          "type": "uint256",
          "indexed": false,
          "internalType": "uint256"
        },
        {
          "name": "tolerancePer100k",
          "type": "uint256",
          "indexed": false,
          "internalType": "uint256"
        }
      ],
      "anonymous": false
    },
    {
      "type": "event",
      "name": "FundingSumAlreadySet",
      "inputs": [
        {
          "name": "perpId",
          "type": "uint256",
          "indexed": false,
          "internalType": "uint256"
        },
        {
          "name": "fundingEventBlock",
          "type": "uint256",
          "indexed": false,
          "internalType": "uint256"
        },
        {
          "name": "storageIndex",
          "type": "uint256",
          "indexed": false,
          "internalType": "uint256"
        },
        {
          "name": "fundingSumOffset",
          "type": "uint256",
          "indexed": false,
          "internalType": "uint256"
        }
      ],
      "anonymous": false
    },
    {
      "type": "event",
      "name": "FundingSumScalingExpUpdated",
      "inputs": [
        {
          "name": "perpId",
          "type": "uint256",
          "indexed": false,
          "internalType": "uint256"
        },
        {
          "name": "newExp",
          "type": "uint256",
          "indexed": false,
          "internalType": "uint256"
        }
      ],
      "anonymous": false
    },
    {
      "type": "event",
      "name": "IgnoreOracleUpdated",
      "inputs": [
        {
          "name": "perpId",
          "type": "uint256",
          "indexed": false,
          "internalType": "uint256"
        },
        {
          "name": "ignOracle",
          "type": "bool",
          "indexed": false,
          "internalType": "bool"
        }
      ],
      "anonymous": false
    },
    {
      "type": "event",
      "name": "ImmediateOrCancelExecuted",
      "inputs": [
        {
          "name": "unmatchedLotLNS",
          "type": "uint256",
          "indexed": false,
          "internalType": "uint256"
        },
        {
          "name": "totalLotLNS",
          "type": "uint256",
          "indexed": false,
          "internalType": "uint256"
        }
      ],
      "anonymous": false
    },
    {
      "type": "event",
      "name": "IncreasePositionCollateral",
      "inputs": [
        {
          "name": "perpId",
          "type": "uint256",
          "indexed": false,
          "internalType": "uint256"
        },
        {
          "name": "accountId",
          "type": "uint256",
          "indexed": false,
          "internalType": "uint256"
        },
        {
          "name": "positionDepositCNS",
          "type": "uint256",
          "indexed": false,
          "internalType": "uint256"
        },
        {
          "name": "amountCNS",
          "type": "uint256",
          "indexed": false,
          "internalType": "uint256"
        },
        {
          "name": "balanceCNS",
          "type": "uint256",
          "indexed": false,
          "internalType": "uint256"
        }
      ],
      "anonymous": false
    },
    {
      "type": "event",
      "name": "InitialMarginFractionUpdated",
      "inputs": [
        {
          "name": "perpId",
          "type": "uint256",
          "indexed": false,
          "internalType": "uint256"
        },
        {
          "name": "initMarginFracHdths",
          "type": "uint256",
          "indexed": false,
          "internalType": "uint256"
        }
      ],
      "anonymous": false
    },
    {
      "type": "event",
      "name": "Initialized",
      "inputs": [
        {
          "name": "version",
          "type": "uint8",
          "indexed": false,
          "internalType": "uint8"
        }
      ],
      "anonymous": false
    },
    {
      "type": "event",
      "name": "InsolventPositionCannotBeForcedClose",
      "inputs": [
        {
          "name": "perpId",
          "type": "uint256",
          "indexed": false,
          "internalType": "uint256"
        },
        {
          "name": "posAccountId",
          "type": "uint256",
          "indexed": false,
          "internalType": "uint256"
        },
        {
          "name": "positionType",
          "type": "uint8",
          "indexed": false,
          "internalType": "enum PositionEnum"
        },
        {
          "name": "bankruptcyPricePNS",
          "type": "uint256",
          "indexed": false,
          "internalType": "uint256"
        },
        {
          "name": "markPricePNS",
          "type": "uint256",
          "indexed": false,
          "internalType": "uint256"
        }
      ],
      "anonymous": false
    },
    {
      "type": "event",
      "name": "InsufficientFundsToDecCollateral",
      "inputs": [
        {
          "name": "perpId",
          "type": "uint256",
          "indexed": false,
          "internalType": "uint256"
        },
        {
          "name": "accountId",
          "type": "uint256",
          "indexed": false,
          "internalType": "uint256"
        },
        {
          "name": "amountCNS",
          "type": "uint256",
          "indexed": false,
          "internalType": "uint256"
        },
        {
          "name": "withdrawMaxCNS",
          "type": "uint256",
          "indexed": false,
          "internalType": "uint256"
        }
      ],
      "anonymous": false
    },
    {
      "type": "event",
      "name": "InsuficientFundsForRecycleFee",
      "inputs": [
        {
          "name": "perpId",
          "type": "uint256",
          "indexed": false,
          "internalType": "uint256"
        },
        {
          "name": "accountId",
          "type": "uint256",
          "indexed": false,
          "internalType": "uint256"
        },
        {
          "name": "balanceCNS",
          "type": "uint256",
          "indexed": false,
          "internalType": "uint256"
        },
        {
          "name": "lockedCNS",
          "type": "uint256",
          "indexed": false,
          "internalType": "uint256"
        },
        {
          "name": "recycleFeeCNS",
          "type": "uint256",
          "indexed": false,
          "internalType": "uint256"
        }
      ],
      "anonymous": false
    },
    {
      "type": "event",
      "name": "InsurancePaymentForSettlement",
      "inputs": [
        {
          "name": "perpId",
          "type": "uint256",
          "indexed": false,
          "internalType": "uint256"
        },
        {
          "name": "accountId",
          "type": "uint256",
          "indexed": false,
          "internalType": "uint256"
        },
        {
          "name": "insPaymentCNS",
          "type": "uint256",
          "indexed": false,
          "internalType": "uint256"
        }
      ],
      "anonymous": false
    },
    {
      "type": "event",
      "name": "InvalidAccountFrozenOrder",
      "inputs": [
        {
          "name": "orderType",
          "type": "uint8",
          "indexed": false,
          "internalType": "enum OrderDescEnum"
        },
        {
          "name": "immediateOrCancel",
          "type": "bool",
          "indexed": false,
          "internalType": "bool"
        }
      ],
      "anonymous": false
    },
    {
      "type": "event",
      "name": "InvalidBankruptcyPrice",
      "inputs": [
        {
          "name": "perpId",
          "type": "uint256",
          "indexed": false,
          "internalType": "uint256"
        },
        {
          "name": "accountId",
          "type": "uint256",
          "indexed": false,
          "internalType": "uint256"
        },
        {
          "name": "depositCNS",
          "type": "uint256",
          "indexed": false,
          "internalType": "uint256"
        },
        {
          "name": "posPricePNS",
          "type": "uint256",
          "indexed": false,
          "internalType": "uint256"
        },
        {
          "name": "liqLotLNS",
          "type": "uint256",
          "indexed": false,
          "internalType": "uint256"
        },
        {
          "name": "premiumPnlCNS",
          "type": "int256",
          "indexed": false,
          "internalType": "int256"
        }
      ],
      "anonymous": false
    },
    {
      "type": "event",
      "name": "InvalidExpiryBlock",
      "inputs": [
        {
          "name": "expiryBlock",
          "type": "uint256",
          "indexed": false,
          "internalType": "uint256"
        },
        {
          "name": "blockNumber",
          "type": "uint256",
          "indexed": false,
          "internalType": "uint256"
        }
      ],
      "anonymous": false
    },
    {
      "type": "event",
      "name": "InvalidLinkReportForContract",
      "inputs": [
        {
          "name": "perpId",
          "type": "uint256",
          "indexed": false,
          "internalType": "uint256"
        },
        {
          "name": "perpFeedId",
          "type": "bytes32",
          "indexed": false,
          "internalType": "bytes32"
        },
        {
          "name": "reportFeedId",
          "type": "bytes32",
          "indexed": false,
          "internalType": "bytes32"
        }
      ],
      "anonymous": false
    },
    {
      "type": "event",
      "name": "InvalidLinkReportVersion",
      "inputs": [
        {
          "name": "perpId",
          "type": "uint256",
          "indexed": false,
          "internalType": "uint256"
        },
        {
          "name": "reportVersion",
          "type": "uint256",
          "indexed": false,
          "internalType": "uint256"
        }
      ],
      "anonymous": false
    },
    {
      "type": "event",
      "name": "InvalidLiquidationPrice",
      "inputs": [
        {
          "name": "perpId",
          "type": "uint256",
          "indexed": false,
          "internalType": "uint256"
        },
        {
          "name": "accountId",
          "type": "uint256",
          "indexed": false,
          "internalType": "uint256"
        },
        {
          "name": "depositCNS",
          "type": "uint256",
          "indexed": false,
          "internalType": "uint256"
        },
        {
          "name": "posPricePNS",
          "type": "uint256",
          "indexed": false,
          "internalType": "uint256"
        },
        {
          "name": "liqLotLNS",
          "type": "uint256",
          "indexed": false,
          "internalType": "uint256"
        },
        {
          "name": "premiumPnlCNS",
          "type": "int256",
          "indexed": false,
          "internalType": "int256"
        }
      ],
      "anonymous": false
    },
    {
      "type": "event",
      "name": "InvalidOrderId",
      "inputs": [
        {
          "name": "orderId",
          "type": "uint256",
          "indexed": false,
          "internalType": "uint256"
        },
        {
          "name": "min",
          "type": "uint256",
          "indexed": false,
          "internalType": "uint256"
        },
        {
          "name": "max",
          "type": "uint256",
          "indexed": false,
          "internalType": "uint256"
        }
      ],
      "anonymous": false
    },
    {
      "type": "event",
      "name": "LastForwardedDescIdReset",
      "inputs": [
        {
          "name": "accountId",
          "type": "uint256",
          "indexed": false,
          "internalType": "uint256"
        },
        {
          "name": "newDescId",
          "type": "uint256",
          "indexed": false,
          "internalType": "uint256"
        }
      ],
      "anonymous": false
    },
    {
      "type": "event",
      "name": "LastTriggeredDescIdReset",
      "inputs": [
        {
          "name": "accountId",
          "type": "uint256",
          "indexed": false,
          "internalType": "uint256"
        },
        {
          "name": "newDescId",
          "type": "uint256",
          "indexed": false,
          "internalType": "uint256"
        }
      ],
      "anonymous": false
    },
    {
      "type": "event",
      "name": "LinkDatastreamConfigured",
      "inputs": [
        {
          "name": "verifierProxy",
          "type": "address",
          "indexed": false,
          "internalType": "address"
        }
      ],
      "anonymous": false
    },
    {
      "type": "event",
      "name": "LinkDsError",
      "inputs": [
        {
          "name": "perpId",
          "type": "uint256",
          "indexed": false,
          "internalType": "uint256"
        },
        {
          "name": "reason",
          "type": "string",
          "indexed": false,
          "internalType": "string"
        }
      ],
      "anonymous": false
    },
    {
      "type": "event",
      "name": "LinkDsError",
      "inputs": [
        {
          "name": "perpId",
          "type": "uint256",
          "indexed": false,
          "internalType": "uint256"
        },
        {
          "name": "lowLevelData",
          "type": "bytes",
          "indexed": false,
          "internalType": "bytes"
        }
      ],
      "anonymous": false
    },
    {
      "type": "event",
      "name": "LinkDsPanic",
      "inputs": [
        {
          "name": "perpId",
          "type": "uint256",
          "indexed": false,
          "internalType": "uint256"
        },
        {
          "name": "errorCode",
          "type": "uint256",
          "indexed": false,
          "internalType": "uint256"
        }
      ],
      "anonymous": false
    },
    {
      "type": "event",
      "name": "LinkPriceUpdated",
      "inputs": [
        {
          "name": "perpId",
          "type": "uint256",
          "indexed": false,
          "internalType": "uint256"
        },
        {
          "name": "oraclePricePNS",
          "type": "uint256",
          "indexed": false,
          "internalType": "uint256"
        },
        {
          "name": "timestamp",
          "type": "uint256",
          "indexed": false,
          "internalType": "uint256"
        }
      ],
      "anonymous": false
    },
    {
      "type": "event",
      "name": "LiquidationBuyerUpdated",
      "inputs": [
        {
          "name": "liquidationBuyer",
          "type": "address",
          "indexed": false,
          "internalType": "address"
        },
        {
          "name": "accountId",
          "type": "uint256",
          "indexed": false,
          "internalType": "uint256"
        },
        {
          "name": "added",
          "type": "bool",
          "indexed": false,
          "internalType": "bool"
        }
      ],
      "anonymous": false
    },
    {
      "type": "event",
      "name": "LiquidationParamsUpdated",
      "inputs": [
        {
          "name": "perpId",
          "type": "uint256",
          "indexed": false,
          "internalType": "uint256"
        },
        {
          "name": "insAmtPer100K",
          "type": "uint256",
          "indexed": false,
          "internalType": "uint256"
        },
        {
          "name": "liqAmtPer100K",
          "type": "uint256",
          "indexed": false,
          "internalType": "uint256"
        },
        {
          "name": "userAmtPer100K",
          "type": "uint256",
          "indexed": false,
          "internalType": "uint256"
        }
      ],
      "anonymous": false
    },
    {
      "type": "event",
      "name": "LotOutOfRange",
      "inputs": [
        {
          "name": "minLotLNS",
          "type": "uint256",
          "indexed": false,
          "internalType": "uint256"
        },
        {
          "name": "maxLotLNS",
          "type": "uint256",
          "indexed": false,
          "internalType": "uint256"
        }
      ],
      "anonymous": false
    },
    {
      "type": "event",
      "name": "MaintenanceMarginFractionUpdated",
      "inputs": [
        {
          "name": "perpId",
          "type": "uint256",
          "indexed": false,
          "internalType": "uint256"
        },
        {
          "name": "maintMarginFracHdths",
          "type": "uint256",
          "indexed": false,
          "internalType": "uint256"
        }
      ],
      "anonymous": false
    },
    {
      "type": "event",
      "name": "MakerFeeUpdated",
      "inputs": [
        {
          "name": "perpId",
          "type": "uint256",
          "indexed": false,
          "internalType": "uint256"
        },
        {
          "name": "makerFeePer100K",
          "type": "uint256",
          "indexed": false,
          "internalType": "uint256"
        }
      ],
      "anonymous": false
    },
    {
      "type": "event",
      "name": "MakerOrderFilled",
      "inputs": [
        {
          "name": "perpId",
          "type": "uint256",
          "indexed": false,
          "internalType": "uint256"
        },
        {
          "name": "accountId",
          "type": "uint256",
          "indexed": false,
          "internalType": "uint256"
        },
        {
          "name": "orderId",
          "type": "uint256",
          "indexed": false,
          "internalType": "uint256"
        },
        {
          "name": "pricePNS",
          "type": "uint256",
          "indexed": false,
          "internalType": "uint256"
        },
        {
          "name": "lotLNS",
          "type": "uint256",
          "indexed": false,
          "internalType": "uint256"
        },
        {
          "name": "feeCNS",
          "type": "uint256",
          "indexed": false,
          "internalType": "uint256"
        },
        {
          "name": "lockedBalanceCNS",
          "type": "uint256",
          "indexed": false,
          "internalType": "uint256"
        },
        {
          "name": "amountCNS",
          "type": "int256",
          "indexed": false,
          "internalType": "int256"
        },
        {
          "name": "balanceCNS",
          "type": "uint256",
          "indexed": false,
          "internalType": "uint256"
        }
      ],
      "anonymous": false
    },
    {
      "type": "event",
      "name": "MakerOrderSettlementFailed",
      "inputs": [
        {
          "name": "perpId",
          "type": "uint256",
          "indexed": false,
          "internalType": "uint256"
        },
        {
          "name": "accountId",
          "type": "uint256",
          "indexed": false,
          "internalType": "uint256"
        },
        {
          "name": "orderId",
          "type": "uint256",
          "indexed": false,
          "internalType": "uint256"
        },
        {
          "name": "orderType",
          "type": "uint8",
          "indexed": false,
          "internalType": "enum OrderEnum"
        },
        {
          "name": "pricePNS",
          "type": "uint256",
          "indexed": false,
          "internalType": "uint256"
        },
        {
          "name": "lotLNS",
          "type": "uint256",
          "indexed": false,
          "internalType": "uint256"
        },
        {
          "name": "maxNegPnlCollatBPS",
          "type": "uint256",
          "indexed": false,
          "internalType": "uint256"
        },
        {
          "name": "reason",
          "type": "uint256",
          "indexed": false,
          "internalType": "uint256"
        },
        {
          "name": "lockedBalanceCNS",
          "type": "uint256",
          "indexed": false,
          "internalType": "uint256"
        },
        {
          "name": "recyclerAccountId",
          "type": "uint256",
          "indexed": false,
          "internalType": "uint256"
        },
        {
          "name": "recyclerAmountCNS",
          "type": "int256",
          "indexed": false,
          "internalType": "int256"
        },
        {
          "name": "recyclerBalanceCNS",
          "type": "uint256",
          "indexed": false,
          "internalType": "uint256"
        }
      ],
      "anonymous": false
    },
    {
      "type": "event",
      "name": "MarginTolUpdated",
      "inputs": [
        {
          "name": "perpId",
          "type": "uint256",
          "indexed": false,
          "internalType": "uint256"
        },
        {
          "name": "tolerance",
          "type": "uint256",
          "indexed": false,
          "internalType": "uint256"
        },
        {
          "name": "decimals",
          "type": "uint256",
          "indexed": false,
          "internalType": "uint256"
        }
      ],
      "anonymous": false
    },
    {
      "type": "event",
      "name": "MarkExceedsTol",
      "inputs": [
        {
          "name": "perpId",
          "type": "uint256",
          "indexed": false,
          "internalType": "uint256"
        },
        {
          "name": "markPNS",
          "type": "uint256",
          "indexed": false,
          "internalType": "uint256"
        },
        {
          "name": "spotOraclePricePNS",
          "type": "uint256",
          "indexed": false,
          "internalType": "uint256"
        },
        {
          "name": "tolerancePer100k",
          "type": "uint256",
          "indexed": false,
          "internalType": "uint256"
        }
      ],
      "anonymous": false
    },
    {
      "type": "event",
      "name": "MarkPriceAgeExceedsMax",
      "inputs": [
        {
          "name": "perpId",
          "type": "uint256",
          "indexed": false,
          "internalType": "uint256"
        },
        {
          "name": "markTimestamp",
          "type": "uint256",
          "indexed": false,
          "internalType": "uint256"
        },
        {
          "name": "timestamp",
          "type": "uint256",
          "indexed": false,
          "internalType": "uint256"
        },
        {
          "name": "maxAgeSec",
          "type": "uint256",
          "indexed": false,
          "internalType": "uint256"
        }
      ],
      "anonymous": false
    },
    {
      "type": "event",
      "name": "MarkUpdated",
      "inputs": [
        {
          "name": "perpId",
          "type": "uint256",
          "indexed": false,
          "internalType": "uint256"
        },
        {
          "name": "pricePNS",
          "type": "uint256",
          "indexed": false,
          "internalType": "uint256"
        }
      ],
      "anonymous": false
    },
    {
      "type": "event",
      "name": "MaxMatchesReached",
      "inputs": [],
      "anonymous": false
    },
    {
      "type": "event",
      "name": "MaxOpenInterestUpdated",
      "inputs": [
        {
          "name": "perpId",
          "type": "uint256",
          "indexed": false,
          "internalType": "uint256"
        },
        {
          "name": "maxOpenInterestLNS",
          "type": "uint256",
          "indexed": false,
          "internalType": "uint256"
        }
      ],
      "anonymous": false
    },
    {
      "type": "event",
      "name": "MaximumAccountOrders",
      "inputs": [
        {
          "name": "perpId",
          "type": "uint256",
          "indexed": false,
          "internalType": "uint256"
        },
        {
          "name": "accountId",
          "type": "uint256",
          "indexed": false,
          "internalType": "uint256"
        }
      ],
      "anonymous": false
    },
    {
      "type": "event",
      "name": "MinAccountOpenAmountUpdated",
      "inputs": [
        {
          "name": "minAccountOpenCNS",
          "type": "uint256",
          "indexed": false,
          "internalType": "uint256"
        }
      ],
      "anonymous": false
    },
    {
      "type": "event",
      "name": "MinPostUpdated",
      "inputs": [
        {
          "name": "minPostCNS",
          "type": "uint256",
          "indexed": false,
          "internalType": "uint256"
        }
      ],
      "anonymous": false
    },
    {
      "type": "event",
      "name": "MinSettleUpdated",
      "inputs": [
        {
          "name": "minSettleCNS",
          "type": "uint256",
          "indexed": false,
          "internalType": "uint256"
        }
      ],
      "anonymous": false
    },
    {
      "type": "event",
      "name": "MonitorAdministratorUpdated",
      "inputs": [
        {
          "name": "monitorAdministrator",
          "type": "address",
          "indexed": false,
          "internalType": "address"
        },
        {
          "name": "added",
          "type": "bool",
          "indexed": false,
          "internalType": "bool"
        }
      ],
      "anonymous": false
    },
    {
      "type": "event",
      "name": "MonitorPauseAttempted",
      "inputs": [
        {
          "name": "perpId",
          "type": "uint256",
          "indexed": false,
          "internalType": "uint256"
        },
        {
          "name": "actualStatus",
          "type": "uint8",
          "indexed": false,
          "internalType": "enum PerpStatusEnum"
        },
        {
          "name": "transitioned",
          "type": "bool",
          "indexed": false,
          "internalType": "bool"
        }
      ],
      "anonymous": false
    },
    {
      "type": "event",
      "name": "OracleAgeExceedsMax",
      "inputs": [
        {
          "name": "perpId",
          "type": "uint256",
          "indexed": false,
          "internalType": "uint256"
        },
        {
          "name": "oracleTimestamp",
          "type": "uint256",
          "indexed": false,
          "internalType": "uint256"
        },
        {
          "name": "timestamp",
          "type": "uint256",
          "indexed": false,
          "internalType": "uint256"
        },
        {
          "name": "maxAgeSec",
          "type": "uint256",
          "indexed": false,
          "internalType": "uint256"
        }
      ],
      "anonymous": false
    },
    {
      "type": "event",
      "name": "OracleDisabled",
      "inputs": [
        {
          "name": "perpId",
          "type": "uint256",
          "indexed": false,
          "internalType": "uint256"
        }
      ],
      "anonymous": false
    },
    {
      "type": "event",
      "name": "OrderBatchCompleted",
      "inputs": [
        {
          "name": "gasLeft",
          "type": "uint256",
          "indexed": false,
          "internalType": "uint256"
        }
      ],
      "anonymous": false
    },
    {
      "type": "event",
      "name": "OrderCancelled",
      "inputs": [
        {
          "name": "lockedBalanceCNS",
          "type": "uint256",
          "indexed": false,
          "internalType": "uint256"
        },
        {
          "name": "amountCNS",
          "type": "int256",
          "indexed": false,
          "internalType": "int256"
        },
        {
          "name": "balanceCNS",
          "type": "uint256",
          "indexed": false,
          "internalType": "uint256"
        }
      ],
      "anonymous": false
    },
    {
      "type": "event",
      "name": "OrderCancelledByAdmin",
      "inputs": [
        {
          "name": "perpId",
          "type": "uint256",
          "indexed": false,
          "internalType": "uint256"
        },
        {
          "name": "accountId",
          "type": "uint256",
          "indexed": false,
          "internalType": "uint256"
        },
        {
          "name": "orderId",
          "type": "uint256",
          "indexed": false,
          "internalType": "uint256"
        },
        {
          "name": "lockedBalanceCNS",
          "type": "uint256",
          "indexed": false,
          "internalType": "uint256"
        }
      ],
      "anonymous": false
    },
    {
      "type": "event",
      "name": "OrderCancelledByLiquidator",
      "inputs": [
        {
          "name": "perpId",
          "type": "uint256",
          "indexed": false,
          "internalType": "uint256"
        },
        {
          "name": "accountId",
          "type": "uint256",
          "indexed": false,
          "internalType": "uint256"
        },
        {
          "name": "orderId",
          "type": "uint256",
          "indexed": false,
          "internalType": "uint256"
        },
        {
          "name": "lockedBalanceCNS",
          "type": "uint256",
          "indexed": false,
          "internalType": "uint256"
        }
      ],
      "anonymous": false
    },
    {
      "type": "event",
      "name": "OrderChanged",
      "inputs": [
        {
          "name": "orderId",
          "type": "uint256",
          "indexed": false,
          "internalType": "uint256"
        },
        {
          "name": "pricePNS",
          "type": "uint256",
          "indexed": false,
          "internalType": "uint256"
        },
        {
          "name": "lotLNS",
          "type": "uint256",
          "indexed": false,
          "internalType": "uint256"
        },
        {
          "name": "expiryBlock",
          "type": "uint256",
          "indexed": false,
          "internalType": "uint256"
        },
        {
          "name": "lockedBalanceCNS",
          "type": "uint256",
          "indexed": false,
          "internalType": "uint256"
        },
        {
          "name": "balanceCNS",
          "type": "uint256",
          "indexed": false,
          "internalType": "uint256"
        }
      ],
      "anonymous": false
    },
    {
      "type": "event",
      "name": "OrderDescIdTooLow",
      "inputs": [
        {
          "name": "lastOrderDescId",
          "type": "uint256",
          "indexed": false,
          "internalType": "uint256"
        }
      ],
      "anonymous": false
    },
    {
      "type": "event",
      "name": "OrderDoesNotExist",
      "inputs": [
        {
          "name": "perpId",
          "type": "uint256",
          "indexed": false,
          "internalType": "uint256"
        },
        {
          "name": "orderId",
          "type": "uint256",
          "indexed": false,
          "internalType": "uint256"
        }
      ],
      "anonymous": false
    },
    {
      "type": "event",
      "name": "OrderForwardingNotAllowed",
      "inputs": [],
      "anonymous": false
    },
    {
      "type": "event",
      "name": "OrderForwardingUpdated",
      "inputs": [
        {
          "name": "accountId",
          "type": "uint256",
          "indexed": false,
          "internalType": "uint256"
        },
        {
          "name": "allowed",
          "type": "bool",
          "indexed": false,
          "internalType": "bool"
        }
      ],
      "anonymous": false
    },
    {
      "type": "event",
      "name": "OrderPlaced",
      "inputs": [
        {
          "name": "orderId",
          "type": "uint256",
          "indexed": false,
          "internalType": "uint256"
        },
        {
          "name": "lotLNS",
          "type": "uint256",
          "indexed": false,
          "internalType": "uint256"
        },
        {
          "name": "lockedBalanceCNS",
          "type": "uint256",
          "indexed": false,
          "internalType": "uint256"
        },
        {
          "name": "amountCNS",
          "type": "int256",
          "indexed": false,
          "internalType": "int256"
        },
        {
          "name": "balanceCNS",
          "type": "uint256",
          "indexed": false,
          "internalType": "uint256"
        }
      ],
      "anonymous": false
    },
    {
      "type": "event",
      "name": "OrderPostFailed",
      "inputs": [
        {
          "name": "reason",
          "type": "uint256",
          "indexed": false,
          "internalType": "uint256"
        }
      ],
      "anonymous": false
    },
    {
      "type": "event",
      "name": "OrderRequest",
      "inputs": [
        {
          "name": "perpId",
          "type": "uint256",
          "indexed": false,
          "internalType": "uint256"
        },
        {
          "name": "accountId",
          "type": "uint256",
          "indexed": false,
          "internalType": "uint256"
        },
        {
          "name": "orderDescId",
          "type": "uint256",
          "indexed": false,
          "internalType": "uint256"
        },
        {
          "name": "orderId",
          "type": "uint256",
          "indexed": false,
          "internalType": "uint256"
        },
        {
          "name": "orderType",
          "type": "uint8",
          "indexed": false,
          "internalType": "enum OrderDescEnum"
        },
        {
          "name": "pricePNS",
          "type": "uint256",
          "indexed": false,
          "internalType": "uint256"
        },
        {
          "name": "lotLNS",
          "type": "uint256",
          "indexed": false,
          "internalType": "uint256"
        },
        {
          "name": "expiryBlock",
          "type": "uint256",
          "indexed": false,
          "internalType": "uint256"
        },
        {
          "name": "postOnly",
          "type": "bool",
          "indexed": false,
          "internalType": "bool"
        },
        {
          "name": "fillOrKill",
          "type": "bool",
          "indexed": false,
          "internalType": "bool"
        },
        {
          "name": "immediateOrCancel",
          "type": "bool",
          "indexed": false,
          "internalType": "bool"
        },
        {
          "name": "maxMatches",
          "type": "uint256",
          "indexed": false,
          "internalType": "uint256"
        },
        {
          "name": "leverageHdths",
          "type": "uint256",
          "indexed": false,
          "internalType": "uint256"
        },
        {
          "name": "lastExecutionBlock",
          "type": "uint256",
          "indexed": false,
          "internalType": "uint256"
        },
        {
          "name": "amountCNS",
          "type": "uint256",
          "indexed": false,
          "internalType": "uint256"
        },
        {
          "name": "maxNegPnlCollatBPS",
          "type": "uint256",
          "indexed": false,
          "internalType": "uint256"
        },
        {
          "name": "gasLeft",
          "type": "uint256",
          "indexed": false,
          "internalType": "uint256"
        }
      ],
      "anonymous": false
    },
    {
      "type": "event",
      "name": "OrderSettlementImpliesInsolvent",
      "inputs": [
        {
          "name": "perpId",
          "type": "uint256",
          "indexed": false,
          "internalType": "uint256"
        },
        {
          "name": "accountId",
          "type": "uint256",
          "indexed": false,
          "internalType": "uint256"
        },
        {
          "name": "orderType",
          "type": "uint8",
          "indexed": false,
          "internalType": "enum OrderEnum"
        },
        {
          "name": "pricePNS",
          "type": "uint256",
          "indexed": false,
          "internalType": "uint256"
        },
        {
          "name": "lotLNS",
          "type": "uint256",
          "indexed": false,
          "internalType": "uint256"
        },
        {
          "name": "perpPositionBalCNS",
          "type": "uint256",
          "indexed": false,
          "internalType": "uint256"
        },
        {
          "name": "perpInsuranceBalCNS",
          "type": "uint256",
          "indexed": false,
          "internalType": "uint256"
        },
        {
          "name": "addedPosCollatReqCNS",
          "type": "uint256",
          "indexed": false,
          "internalType": "uint256"
        },
        {
          "name": "requestedAmountCNS",
          "type": "uint256",
          "indexed": false,
          "internalType": "uint256"
        }
      ],
      "anonymous": false
    },
    {
      "type": "event",
      "name": "OrderSizeExceedsAvailableSize",
      "inputs": [
        {
          "name": "orderLotLNS",
          "type": "uint256",
          "indexed": false,
          "internalType": "uint256"
        },
        {
          "name": "availableLotLNS",
          "type": "uint256",
          "indexed": false,
          "internalType": "uint256"
        },
        {
          "name": "positionLotLNS",
          "type": "uint256",
          "indexed": false,
          "internalType": "uint256"
        }
      ],
      "anonymous": false
    },
    {
      "type": "event",
      "name": "OverCollatDescentThreshUpdated",
      "inputs": [
        {
          "name": "perpId",
          "type": "uint256",
          "indexed": false,
          "internalType": "uint256"
        },
        {
          "name": "threshHdths",
          "type": "uint256",
          "indexed": false,
          "internalType": "uint256"
        }
      ],
      "anonymous": false
    },
    {
      "type": "event",
      "name": "OwnershipTransferStarted",
      "inputs": [
        {
          "name": "previousOwner",
          "type": "address",
          "indexed": true,
          "internalType": "address"
        },
        {
          "name": "newOwner",
          "type": "address",
          "indexed": true,
          "internalType": "address"
        }
      ],
      "anonymous": false
    },
    {
      "type": "event",
      "name": "OwnershipTransferred",
      "inputs": [
        {
          "name": "previousOwner",
          "type": "address",
          "indexed": true,
          "internalType": "address"
        },
        {
          "name": "newOwner",
          "type": "address",
          "indexed": true,
          "internalType": "address"
        }
      ],
      "anonymous": false
    },
    {
      "type": "event",
      "name": "PermissonedCancelParamsUpdated",
      "inputs": [
        {
          "name": "cancelMinOrders",
          "type": "uint256",
          "indexed": false,
          "internalType": "uint256"
        },
        {
          "name": "cancelSegment",
          "type": "uint256",
          "indexed": false,
          "internalType": "uint256"
        }
      ],
      "anonymous": false
    },
    {
      "type": "event",
      "name": "PerpPositionBalCreditPositiveSevere",
      "inputs": [
        {
          "name": "perpId",
          "type": "uint256",
          "indexed": false,
          "internalType": "uint256"
        },
        {
          "name": "accountId",
          "type": "uint256",
          "indexed": false,
          "internalType": "uint256"
        },
        {
          "name": "realizedPricePNS",
          "type": "uint256",
          "indexed": false,
          "internalType": "uint256"
        },
        {
          "name": "lotLNS",
          "type": "uint256",
          "indexed": false,
          "internalType": "uint256"
        },
        {
          "name": "userProceedsToPosition",
          "type": "bool",
          "indexed": false,
          "internalType": "bool"
        },
        {
          "name": "buyToLiquidate",
          "type": "bool",
          "indexed": false,
          "internalType": "bool"
        },
        {
          "name": "creditPerpBalCNS",
          "type": "int256",
          "indexed": false,
          "internalType": "int256"
        }
      ],
      "anonymous": false
    },
    {
      "type": "event",
      "name": "PositionAdministratorUpdated",
      "inputs": [
        {
          "name": "positionAdministrator",
          "type": "address",
          "indexed": false,
          "internalType": "address"
        },
        {
          "name": "added",
          "type": "bool",
          "indexed": false,
          "internalType": "bool"
        }
      ],
      "anonymous": false
    },
    {
      "type": "event",
      "name": "PositionClosed",
      "inputs": [
        {
          "name": "perpId",
          "type": "uint256",
          "indexed": false,
          "internalType": "uint256"
        },
        {
          "name": "accountId",
          "type": "uint256",
          "indexed": false,
          "internalType": "uint256"
        },
        {
          "name": "positionType",
          "type": "uint8",
          "indexed": false,
          "internalType": "enum PositionEnum"
        },
        {
          "name": "pricePNS",
          "type": "uint256",
          "indexed": false,
          "internalType": "uint256"
        },
        {
          "name": "deltaPnlCNS",
          "type": "int256",
          "indexed": false,
          "internalType": "int256"
        },
        {
          "name": "fundingCNS",
          "type": "int256",
          "indexed": false,
          "internalType": "int256"
        }
      ],
      "anonymous": false
    },
    {
      "type": "event",
      "name": "PositionCollateralDecreased",
      "inputs": [
        {
          "name": "perpId",
          "type": "uint256",
          "indexed": false,
          "internalType": "uint256"
        },
        {
          "name": "accountId",
          "type": "uint256",
          "indexed": false,
          "internalType": "uint256"
        },
        {
          "name": "positionType",
          "type": "uint8",
          "indexed": false,
          "internalType": "enum PositionEnum"
        },
        {
          "name": "markPricePNS",
          "type": "uint256",
          "indexed": false,
          "internalType": "uint256"
        },
        {
          "name": "impactAdjPricePNS",
          "type": "uint256",
          "indexed": false,
          "internalType": "uint256"
        },
        {
          "name": "startDepositCNS",
          "type": "uint256",
          "indexed": false,
          "internalType": "uint256"
        },
        {
          "name": "endDepositCNS",
          "type": "uint256",
          "indexed": false,
          "internalType": "uint256"
        },
        {
          "name": "startEntryPricePNS",
          "type": "uint256",
          "indexed": false,
          "internalType": "uint256"
        },
        {
          "name": "endEntryPricePNS",
          "type": "uint256",
          "indexed": false,
          "internalType": "uint256"
        },
        {
          "name": "effBmfHdths",
          "type": "uint256",
          "indexed": false,
          "internalType": "uint256"
        },
        {
          "name": "decreaseCNS",
          "type": "uint256",
          "indexed": false,
          "internalType": "uint256"
        },
        {
          "name": "balanceCNS",
          "type": "uint256",
          "indexed": false,
          "internalType": "uint256"
        }
      ],
      "anonymous": false
    },
    {
      "type": "event",
      "name": "PositionDecreased",
      "inputs": [
        {
          "name": "perpId",
          "type": "uint256",
          "indexed": false,
          "internalType": "uint256"
        },
        {
          "name": "accountId",
          "type": "uint256",
          "indexed": false,
          "internalType": "uint256"
        },
        {
          "name": "positionType",
          "type": "uint8",
          "indexed": false,
          "internalType": "enum PositionEnum"
        },
        {
          "name": "startDepositCNS",
          "type": "uint256",
          "indexed": false,
          "internalType": "uint256"
        },
        {
          "name": "endDepositCNS",
          "type": "uint256",
          "indexed": false,
          "internalType": "uint256"
        },
        {
          "name": "startLotLNS",
          "type": "uint256",
          "indexed": false,
          "internalType": "uint256"
        },
        {
          "name": "endLotLNS",
          "type": "uint256",
          "indexed": false,
          "internalType": "uint256"
        },
        {
          "name": "deltaPnlCNS",
          "type": "int256",
          "indexed": false,
          "internalType": "int256"
        },
        {
          "name": "fundingCNS",
          "type": "int256",
          "indexed": false,
          "internalType": "int256"
        }
      ],
      "anonymous": false
    },
    {
      "type": "event",
      "name": "PositionDeleveraged",
      "inputs": [
        {
          "name": "perpId",
          "type": "uint256",
          "indexed": false,
          "internalType": "uint256"
        },
        {
          "name": "accountId",
          "type": "uint256",
          "indexed": false,
          "internalType": "uint256"
        },
        {
          "name": "forceClose",
          "type": "bool",
          "indexed": false,
          "internalType": "bool"
        },
        {
          "name": "positionType",
          "type": "uint8",
          "indexed": false,
          "internalType": "enum PositionEnum"
        },
        {
          "name": "entryPricePNS",
          "type": "uint256",
          "indexed": false,
          "internalType": "uint256"
        },
        {
          "name": "markPricePNS",
          "type": "uint256",
          "indexed": false,
          "internalType": "uint256"
        },
        {
          "name": "deleveragePricePNS",
          "type": "uint256",
          "indexed": false,
          "internalType": "uint256"
        },
        {
          "name": "deltaPnlCNS",
          "type": "int256",
          "indexed": false,
          "internalType": "int256"
        },
        {
          "name": "fundingCNS",
          "type": "int256",
          "indexed": false,
          "internalType": "int256"
        },
        {
          "name": "startDepositCNS",
          "type": "uint256",
          "indexed": false,
          "internalType": "uint256"
        },
        {
          "name": "endDepositCNS",
          "type": "uint256",
          "indexed": false,
          "internalType": "uint256"
        },
        {
          "name": "startLotLNS",
          "type": "uint256",
          "indexed": false,
          "internalType": "uint256"
        },
        {
          "name": "endLotLNS",
          "type": "uint256",
          "indexed": false,
          "internalType": "uint256"
        },
        {
          "name": "amountCNS",
          "type": "uint256",
          "indexed": false,
          "internalType": "uint256"
        },
        {
          "name": "balanceCNS",
          "type": "uint256",
          "indexed": false,
          "internalType": "uint256"
        }
      ],
      "anonymous": false
    },
    {
      "type": "event",
      "name": "PositionDeleveragedV2",
      "inputs": [
        {
          "name": "perpId",
          "type": "uint256",
          "indexed": false,
          "internalType": "uint256"
        },
        {
          "name": "accountId",
          "type": "uint256",
          "indexed": false,
          "internalType": "uint256"
        },
        {
          "name": "forceClose",
          "type": "bool",
          "indexed": false,
          "internalType": "bool"
        },
        {
          "name": "positionType",
          "type": "uint8",
          "indexed": false,
          "internalType": "enum PositionEnum"
        },
        {
          "name": "entryPricePNS",
          "type": "uint256",
          "indexed": false,
          "internalType": "uint256"
        },
        {
          "name": "markPricePNS",
          "type": "uint256",
          "indexed": false,
          "internalType": "uint256"
        },
        {
          "name": "deleveragePricePNS",
          "type": "uint256",
          "indexed": false,
          "internalType": "uint256"
        },
        {
          "name": "deltaPnlCNS",
          "type": "int256",
          "indexed": false,
          "internalType": "int256"
        },
        {
          "name": "fundingCNS",
          "type": "int256",
          "indexed": false,
          "internalType": "int256"
        },
        {
          "name": "startDepositCNS",
          "type": "uint256",
          "indexed": false,
          "internalType": "uint256"
        },
        {
          "name": "endDepositCNS",
          "type": "uint256",
          "indexed": false,
          "internalType": "uint256"
        },
        {
          "name": "startLotLNS",
          "type": "uint256",
          "indexed": false,
          "internalType": "uint256"
        },
        {
          "name": "endLotLNS",
          "type": "uint256",
          "indexed": false,
          "internalType": "uint256"
        },
        {
          "name": "amountCNS",
          "type": "uint256",
          "indexed": false,
          "internalType": "uint256"
        },
        {
          "name": "balanceCNS",
          "type": "uint256",
          "indexed": false,
          "internalType": "uint256"
        },
        {
          "name": "priceResiduePNSQ16",
          "type": "uint256",
          "indexed": false,
          "internalType": "uint256"
        }
      ],
      "anonymous": false
    },
    {
      "type": "event",
      "name": "PositionDoesNotExist",
      "inputs": [
        {
          "name": "perpId",
          "type": "uint256",
          "indexed": false,
          "internalType": "uint256"
        },
        {
          "name": "accountId",
          "type": "uint256",
          "indexed": false,
          "internalType": "uint256"
        }
      ],
      "anonymous": false
    },
    {
      "type": "event",
      "name": "PositionIncreased",
      "inputs": [
        {
          "name": "perpId",
          "type": "uint256",
          "indexed": false,
          "internalType": "uint256"
        },
        {
          "name": "accountId",
          "type": "uint256",
          "indexed": false,
          "internalType": "uint256"
        },
        {
          "name": "positionType",
          "type": "uint8",
          "indexed": false,
          "internalType": "enum PositionEnum"
        },
        {
          "name": "leverageHdths",
          "type": "uint256",
          "indexed": false,
          "internalType": "uint256"
        },
        {
          "name": "startDepositCNS",
          "type": "uint256",
          "indexed": false,
          "internalType": "uint256"
        },
        {
          "name": "endDepositCNS",
          "type": "uint256",
          "indexed": false,
          "internalType": "uint256"
        },
        {
          "name": "pnlCollateralizedCNS",
          "type": "int256",
          "indexed": false,
          "internalType": "int256"
        },
        {
          "name": "premiumPnlSettledCNS",
          "type": "int256",
          "indexed": false,
          "internalType": "int256"
        },
        {
          "name": "maxNegPnlCollatBPS",
          "type": "uint256",
          "indexed": false,
          "internalType": "uint256"
        },
        {
          "name": "pricePNS",
          "type": "uint256",
          "indexed": false,
          "internalType": "uint256"
        },
        {
          "name": "startLotLNS",
          "type": "uint256",
          "indexed": false,
          "internalType": "uint256"
        },
        {
          "name": "endLotLNS",
          "type": "uint256",
          "indexed": false,
          "internalType": "uint256"
        },
        {
          "name": "insFeeCNS",
          "type": "uint256",
          "indexed": false,
          "internalType": "uint256"
        },
        {
          "name": "protFeeCNS",
          "type": "uint256",
          "indexed": false,
          "internalType": "uint256"
        }
      ],
      "anonymous": false
    },
    {
      "type": "event",
      "name": "PositionIncreasedV2",
      "inputs": [
        {
          "name": "perpId",
          "type": "uint256",
          "indexed": false,
          "internalType": "uint256"
        },
        {
          "name": "accountId",
          "type": "uint256",
          "indexed": false,
          "internalType": "uint256"
        },
        {
          "name": "positionType",
          "type": "uint8",
          "indexed": false,
          "internalType": "enum PositionEnum"
        },
        {
          "name": "leverageHdths",
          "type": "uint256",
          "indexed": false,
          "internalType": "uint256"
        },
        {
          "name": "startDepositCNS",
          "type": "uint256",
          "indexed": false,
          "internalType": "uint256"
        },
        {
          "name": "endDepositCNS",
          "type": "uint256",
          "indexed": false,
          "internalType": "uint256"
        },
        {
          "name": "pnlCollateralizedCNS",
          "type": "int256",
          "indexed": false,
          "internalType": "int256"
        },
        {
          "name": "premiumPnlSettledCNS",
          "type": "int256",
          "indexed": false,
          "internalType": "int256"
        },
        {
          "name": "maxNegPnlCollatBPS",
          "type": "uint256",
          "indexed": false,
          "internalType": "uint256"
        },
        {
          "name": "pricePNS",
          "type": "uint256",
          "indexed": false,
          "internalType": "uint256"
        },
        {
          "name": "startLotLNS",
          "type": "uint256",
          "indexed": false,
          "internalType": "uint256"
        },
        {
          "name": "endLotLNS",
          "type": "uint256",
          "indexed": false,
          "internalType": "uint256"
        },
        {
          "name": "insFeeCNS",
          "type": "uint256",
          "indexed": false,
          "internalType": "uint256"
        },
        {
          "name": "protFeeCNS",
          "type": "uint256",
          "indexed": false,
          "internalType": "uint256"
        },
        {
          "name": "priceResiduePNSQ16",
          "type": "uint256",
          "indexed": false,
          "internalType": "uint256"
        }
      ],
      "anonymous": false
    },
    {
      "type": "event",
      "name": "PositionInverted",
      "inputs": [
        {
          "name": "perpId",
          "type": "uint256",
          "indexed": false,
          "internalType": "uint256"
        },
        {
          "name": "accountId",
          "type": "uint256",
          "indexed": false,
          "internalType": "uint256"
        },
        {
          "name": "positionType",
          "type": "uint8",
          "indexed": false,
          "internalType": "enum PositionEnum"
        },
        {
          "name": "leverageHdths",
          "type": "uint256",
          "indexed": false,
          "internalType": "uint256"
        },
        {
          "name": "startDepositCNS",
          "type": "uint256",
          "indexed": false,
          "internalType": "uint256"
        },
        {
          "name": "endDepositCNS",
          "type": "uint256",
          "indexed": false,
          "internalType": "uint256"
        },
        {
          "name": "pnlCollateralizedCNS",
          "type": "int256",
          "indexed": false,
          "internalType": "int256"
        },
        {
          "name": "pricePNS",
          "type": "uint256",
          "indexed": false,
          "internalType": "uint256"
        },
        {
          "name": "startLotLNS",
          "type": "uint256",
          "indexed": false,
          "internalType": "uint256"
        },
        {
          "name": "endLotLNS",
          "type": "uint256",
          "indexed": false,
          "internalType": "uint256"
        },
        {
          "name": "deltaPnlCNS",
          "type": "int256",
          "indexed": false,
          "internalType": "int256"
        },
        {
          "name": "fundingCNS",
          "type": "int256",
          "indexed": false,
          "internalType": "int256"
        },
        {
          "name": "insFeeCNS",
          "type": "uint256",
          "indexed": false,
          "internalType": "uint256"
        },
        {
          "name": "protFeeCNS",
          "type": "uint256",
          "indexed": false,
          "internalType": "uint256"
        }
      ],
      "anonymous": false
    },
    {
      "type": "event",
      "name": "PositionLiquidated",
      "inputs": [
        {
          "name": "perpId",
          "type": "uint256",
          "indexed": false,
          "internalType": "uint256"
        },
        {
          "name": "posAccountId",
          "type": "uint256",
          "indexed": false,
          "internalType": "uint256"
        },
        {
          "name": "positionType",
          "type": "uint8",
          "indexed": false,
          "internalType": "enum PositionEnum"
        },
        {
          "name": "markPricePNS",
          "type": "uint256",
          "indexed": false,
          "internalType": "uint256"
        },
        {
          "name": "liqPricePNS",
          "type": "uint256",
          "indexed": false,
          "internalType": "uint256"
        },
        {
          "name": "liqLotLNS",
          "type": "uint256",
          "indexed": false,
          "internalType": "uint256"
        },
        {
          "name": "posLotLNS",
          "type": "uint256",
          "indexed": false,
          "internalType": "uint256"
        },
        {
          "name": "deltaPnlCNS",
          "type": "int256",
          "indexed": false,
          "internalType": "int256"
        },
        {
          "name": "fundingCNS",
          "type": "int256",
          "indexed": false,
          "internalType": "int256"
        },
        {
          "name": "posAmountCNS",
          "type": "int256",
          "indexed": false,
          "internalType": "int256"
        },
        {
          "name": "posDepositCNS",
          "type": "uint256",
          "indexed": false,
          "internalType": "uint256"
        },
        {
          "name": "accAmountCNS",
          "type": "int256",
          "indexed": false,
          "internalType": "int256"
        },
        {
          "name": "accBalanceCNS",
          "type": "uint256",
          "indexed": false,
          "internalType": "uint256"
        },
        {
          "name": "onOrderBook",
          "type": "bool",
          "indexed": false,
          "internalType": "bool"
        }
      ],
      "anonymous": false
    },
    {
      "type": "event",
      "name": "PositionLiquidationCredit",
      "inputs": [
        {
          "name": "perpId",
          "type": "uint256",
          "indexed": false,
          "internalType": "uint256"
        },
        {
          "name": "accountId",
          "type": "uint256",
          "indexed": false,
          "internalType": "uint256"
        },
        {
          "name": "startDepositCNS",
          "type": "uint256",
          "indexed": false,
          "internalType": "uint256"
        },
        {
          "name": "endDepositCNS",
          "type": "uint256",
          "indexed": false,
          "internalType": "uint256"
        }
      ],
      "anonymous": false
    },
    {
      "type": "event",
      "name": "PositionOpened",
      "inputs": [
        {
          "name": "perpId",
          "type": "uint256",
          "indexed": false,
          "internalType": "uint256"
        },
        {
          "name": "accountId",
          "type": "uint256",
          "indexed": false,
          "internalType": "uint256"
        },
        {
          "name": "positionType",
          "type": "uint8",
          "indexed": false,
          "internalType": "enum PositionEnum"
        },
        {
          "name": "leverageHdths",
          "type": "uint256",
          "indexed": false,
          "internalType": "uint256"
        },
        {
          "name": "depositCNS",
          "type": "uint256",
          "indexed": false,
          "internalType": "uint256"
        },
        {
          "name": "pnlCollateralizedCNS",
          "type": "int256",
          "indexed": false,
          "internalType": "int256"
        },
        {
          "name": "pricePNS",
          "type": "uint256",
          "indexed": false,
          "internalType": "uint256"
        },
        {
          "name": "lotLNS",
          "type": "uint256",
          "indexed": false,
          "internalType": "uint256"
        },
        {
          "name": "insFeeCNS",
          "type": "uint256",
          "indexed": false,
          "internalType": "uint256"
        },
        {
          "name": "protFeeCNS",
          "type": "uint256",
          "indexed": false,
          "internalType": "uint256"
        }
      ],
      "anonymous": false
    },
    {
      "type": "event",
      "name": "PositionOpenedV2",
      "inputs": [
        {
          "name": "perpId",
          "type": "uint256",
          "indexed": false,
          "internalType": "uint256"
        },
        {
          "name": "accountId",
          "type": "uint256",
          "indexed": false,
          "internalType": "uint256"
        },
        {
          "name": "positionType",
          "type": "uint8",
          "indexed": false,
          "internalType": "enum PositionEnum"
        },
        {
          "name": "leverageHdths",
          "type": "uint256",
          "indexed": false,
          "internalType": "uint256"
        },
        {
          "name": "depositCNS",
          "type": "uint256",
          "indexed": false,
          "internalType": "uint256"
        },
        {
          "name": "pnlCollateralizedCNS",
          "type": "int256",
          "indexed": false,
          "internalType": "int256"
        },
        {
          "name": "pricePNS",
          "type": "uint256",
          "indexed": false,
          "internalType": "uint256"
        },
        {
          "name": "lotLNS",
          "type": "uint256",
          "indexed": false,
          "internalType": "uint256"
        },
        {
          "name": "insFeeCNS",
          "type": "uint256",
          "indexed": false,
          "internalType": "uint256"
        },
        {
          "name": "protFeeCNS",
          "type": "uint256",
          "indexed": false,
          "internalType": "uint256"
        },
        {
          "name": "priceResiduePNSQ16",
          "type": "uint256",
          "indexed": false,
          "internalType": "uint256"
        }
      ],
      "anonymous": false
    },
    {
      "type": "event",
      "name": "PositionUnwound",
      "inputs": [
        {
          "name": "perpId",
          "type": "uint256",
          "indexed": false,
          "internalType": "uint256"
        },
        {
          "name": "accountId",
          "type": "uint256",
          "indexed": false,
          "internalType": "uint256"
        },
        {
          "name": "markPricePNS",
          "type": "uint256",
          "indexed": false,
          "internalType": "uint256"
        },
        {
          "name": "positionType",
          "type": "uint8",
          "indexed": false,
          "internalType": "enum PositionEnum"
        },
        {
          "name": "pricePNS",
          "type": "uint256",
          "indexed": false,
          "internalType": "uint256"
        },
        {
          "name": "lotLNS",
          "type": "uint256",
          "indexed": false,
          "internalType": "uint256"
        },
        {
          "name": "depositCNS",
          "type": "uint256",
          "indexed": false,
          "internalType": "uint256"
        },
        {
          "name": "positionFmvCNS",
          "type": "int256",
          "indexed": false,
          "internalType": "int256"
        },
        {
          "name": "paymentCNS",
          "type": "uint256",
          "indexed": false,
          "internalType": "uint256"
        },
        {
          "name": "balanceCNS",
          "type": "uint256",
          "indexed": false,
          "internalType": "uint256"
        }
      ],
      "anonymous": false
    },
    {
      "type": "event",
      "name": "PositionUnwoundV2",
      "inputs": [
        {
          "name": "perpId",
          "type": "uint256",
          "indexed": false,
          "internalType": "uint256"
        },
        {
          "name": "accountId",
          "type": "uint256",
          "indexed": false,
          "internalType": "uint256"
        },
        {
          "name": "markPricePNS",
          "type": "uint256",
          "indexed": false,
          "internalType": "uint256"
        },
        {
          "name": "positionType",
          "type": "uint8",
          "indexed": false,
          "internalType": "enum PositionEnum"
        },
        {
          "name": "pricePNS",
          "type": "uint256",
          "indexed": false,
          "internalType": "uint256"
        },
        {
          "name": "lotLNS",
          "type": "uint256",
          "indexed": false,
          "internalType": "uint256"
        },
        {
          "name": "depositCNS",
          "type": "uint256",
          "indexed": false,
          "internalType": "uint256"
        },
        {
          "name": "positionFmvCNS",
          "type": "int256",
          "indexed": false,
          "internalType": "int256"
        },
        {
          "name": "paymentCNS",
          "type": "uint256",
          "indexed": false,
          "internalType": "uint256"
        },
        {
          "name": "balanceCNS",
          "type": "uint256",
          "indexed": false,
          "internalType": "uint256"
        },
        {
          "name": "priceResiduePNSQ16",
          "type": "uint256",
          "indexed": false,
          "internalType": "uint256"
        }
      ],
      "anonymous": false
    },
    {
      "type": "event",
      "name": "PositionUnwoundWithoutPayment",
      "inputs": [
        {
          "name": "perpId",
          "type": "uint256",
          "indexed": false,
          "internalType": "uint256"
        },
        {
          "name": "accountId",
          "type": "uint256",
          "indexed": false,
          "internalType": "uint256"
        },
        {
          "name": "markPricePNS",
          "type": "uint256",
          "indexed": false,
          "internalType": "uint256"
        },
        {
          "name": "positionType",
          "type": "uint8",
          "indexed": false,
          "internalType": "enum PositionEnum"
        },
        {
          "name": "pricePNS",
          "type": "uint256",
          "indexed": false,
          "internalType": "uint256"
        },
        {
          "name": "lotLNS",
          "type": "uint256",
          "indexed": false,
          "internalType": "uint256"
        },
        {
          "name": "depositCNS",
          "type": "uint256",
          "indexed": false,
          "internalType": "uint256"
        },
        {
          "name": "positionFmvCNS",
          "type": "int256",
          "indexed": false,
          "internalType": "int256"
        },
        {
          "name": "amountOwedCNS",
          "type": "uint256",
          "indexed": false,
          "internalType": "uint256"
        }
      ],
      "anonymous": false
    },
    {
      "type": "event",
      "name": "PositionUnwoundWithoutPaymentV2",
      "inputs": [
        {
          "name": "perpId",
          "type": "uint256",
          "indexed": false,
          "internalType": "uint256"
        },
        {
          "name": "accountId",
          "type": "uint256",
          "indexed": false,
          "internalType": "uint256"
        },
        {
          "name": "markPricePNS",
          "type": "uint256",
          "indexed": false,
          "internalType": "uint256"
        },
        {
          "name": "positionType",
          "type": "uint8",
          "indexed": false,
          "internalType": "enum PositionEnum"
        },
        {
          "name": "pricePNS",
          "type": "uint256",
          "indexed": false,
          "internalType": "uint256"
        },
        {
          "name": "lotLNS",
          "type": "uint256",
          "indexed": false,
          "internalType": "uint256"
        },
        {
          "name": "depositCNS",
          "type": "uint256",
          "indexed": false,
          "internalType": "uint256"
        },
        {
          "name": "positionFmvCNS",
          "type": "int256",
          "indexed": false,
          "internalType": "int256"
        },
        {
          "name": "amountOwedCNS",
          "type": "uint256",
          "indexed": false,
          "internalType": "uint256"
        },
        {
          "name": "priceResiduePNSQ16",
          "type": "uint256",
          "indexed": false,
          "internalType": "uint256"
        }
      ],
      "anonymous": false
    },
    {
      "type": "event",
      "name": "PostOrderUnderMinimum",
      "inputs": [
        {
          "name": "orderAmountCNS",
          "type": "uint256",
          "indexed": false,
          "internalType": "uint256"
        },
        {
          "name": "minAmountCNS",
          "type": "uint256",
          "indexed": false,
          "internalType": "uint256"
        }
      ],
      "anonymous": false
    },
    {
      "type": "event",
      "name": "PriceAdministratorUpdated",
      "inputs": [
        {
          "name": "priceAdministrator",
          "type": "address",
          "indexed": false,
          "internalType": "address"
        },
        {
          "name": "added",
          "type": "bool",
          "indexed": false,
          "internalType": "bool"
        }
      ],
      "anonymous": false
    },
    {
      "type": "event",
      "name": "PriceMaxAgeUpdated",
      "inputs": [
        {
          "name": "perpId",
          "type": "uint256",
          "indexed": false,
          "internalType": "uint256"
        },
        {
          "name": "maxAgeSec",
          "type": "uint256",
          "indexed": false,
          "internalType": "uint256"
        }
      ],
      "anonymous": false
    },
    {
      "type": "event",
      "name": "PriceOutOfRange",
      "inputs": [
        {
          "name": "minPricePNS",
          "type": "uint256",
          "indexed": false,
          "internalType": "uint256"
        },
        {
          "name": "maxPricePNS",
          "type": "uint256",
          "indexed": false,
          "internalType": "uint256"
        }
      ],
      "anonymous": false
    },
    {
      "type": "event",
      "name": "PriceSetDuringTriggerExec",
      "inputs": [
        {
          "name": "triggerPricePNS",
          "type": "uint256",
          "indexed": false,
          "internalType": "uint256"
        }
      ],
      "anonymous": false
    },
    {
      "type": "event",
      "name": "PriceTolUpdated",
      "inputs": [
        {
          "name": "perpId",
          "type": "uint256",
          "indexed": false,
          "internalType": "uint256"
        },
        {
          "name": "tolPer100k",
          "type": "uint256",
          "indexed": false,
          "internalType": "uint256"
        }
      ],
      "anonymous": false
    },
    {
      "type": "event",
      "name": "ProtocolBalanceDeposit",
      "inputs": [
        {
          "name": "amountCNS",
          "type": "uint256",
          "indexed": false,
          "internalType": "uint256"
        }
      ],
      "anonymous": false
    },
    {
      "type": "event",
      "name": "ProtocolBalanceWithdraw",
      "inputs": [
        {
          "name": "amountCNS",
          "type": "uint256",
          "indexed": false,
          "internalType": "uint256"
        }
      ],
      "anonymous": false
    },
    {
      "type": "event",
      "name": "RecycleBalanceInsufficientSevere",
      "inputs": [
        {
          "name": "accountId",
          "type": "uint256",
          "indexed": false,
          "internalType": "uint256"
        },
        {
          "name": "perpId",
          "type": "uint256",
          "indexed": false,
          "internalType": "uint256"
        },
        {
          "name": "orderId",
          "type": "uint256",
          "indexed": false,
          "internalType": "uint256"
        },
        {
          "name": "recycleFeeCNS",
          "type": "uint256",
          "indexed": false,
          "internalType": "uint256"
        },
        {
          "name": "recycleBalanceCNS",
          "type": "uint256",
          "indexed": false,
          "internalType": "uint256"
        }
      ],
      "anonymous": false
    },
    {
      "type": "event",
      "name": "RecycleFeeToAccount",
      "inputs": [
        {
          "name": "accountId",
          "type": "uint256",
          "indexed": false,
          "internalType": "uint256"
        },
        {
          "name": "perpId",
          "type": "uint256",
          "indexed": false,
          "internalType": "uint256"
        },
        {
          "name": "orderId",
          "type": "uint256",
          "indexed": false,
          "internalType": "uint256"
        },
        {
          "name": "recycleFeeCNS",
          "type": "uint256",
          "indexed": false,
          "internalType": "uint256"
        },
        {
          "name": "recycleBalanceCNS",
          "type": "uint256",
          "indexed": false,
          "internalType": "uint256"
        }
      ],
      "anonymous": false
    },
    {
      "type": "event",
      "name": "RecycleFeeToProtocol",
      "inputs": [
        {
          "name": "perpId",
          "type": "uint256",
          "indexed": false,
          "internalType": "uint256"
        },
        {
          "name": "orderId",
          "type": "uint256",
          "indexed": false,
          "internalType": "uint256"
        },
        {
          "name": "recycleFeeCNS",
          "type": "uint256",
          "indexed": false,
          "internalType": "uint256"
        },
        {
          "name": "recycleBalanceCNS",
          "type": "uint256",
          "indexed": false,
          "internalType": "uint256"
        }
      ],
      "anonymous": false
    },
    {
      "type": "event",
      "name": "RecycleFeeUpdated",
      "inputs": [
        {
          "name": "recycleFeeCNS",
          "type": "uint256",
          "indexed": false,
          "internalType": "uint256"
        }
      ],
      "anonymous": false
    },
    {
      "type": "event",
      "name": "ReportAgeExceedsLastUpdate",
      "inputs": [
        {
          "name": "perpId",
          "type": "uint256",
          "indexed": false,
          "internalType": "uint256"
        },
        {
          "name": "lastUpdateTimestamp",
          "type": "uint256",
          "indexed": false,
          "internalType": "uint256"
        },
        {
          "name": "reportValidFromTimestamp",
          "type": "uint256",
          "indexed": false,
          "internalType": "uint256"
        }
      ],
      "anonymous": false
    },
    {
      "type": "event",
      "name": "ReportExpiresTooSoon",
      "inputs": [
        {
          "name": "perpId",
          "type": "uint256",
          "indexed": false,
          "internalType": "uint256"
        },
        {
          "name": "expiresAt",
          "type": "uint256",
          "indexed": false,
          "internalType": "uint256"
        },
        {
          "name": "minRequired",
          "type": "uint256",
          "indexed": false,
          "internalType": "uint256"
        }
      ],
      "anonymous": false
    },
    {
      "type": "event",
      "name": "ReportFromFuture",
      "inputs": [
        {
          "name": "perpId",
          "type": "uint256",
          "indexed": false,
          "internalType": "uint256"
        },
        {
          "name": "reportTimestamp",
          "type": "uint256",
          "indexed": false,
          "internalType": "uint256"
        },
        {
          "name": "blockTimestamp",
          "type": "uint256",
          "indexed": false,
          "internalType": "uint256"
        }
      ],
      "anonymous": false
    },
    {
      "type": "event",
      "name": "ReportPriceIsNegative",
      "inputs": [
        {
          "name": "perpId",
          "type": "uint256",
          "indexed": false,
          "internalType": "uint256"
        },
        {
          "name": "reportPrice",
          "type": "int256",
          "indexed": false,
          "internalType": "int256"
        }
      ],
      "anonymous": false
    },
    {
      "type": "event",
      "name": "ResidueBalanceInsufficient",
      "inputs": [
        {
          "name": "perpId",
          "type": "uint256",
          "indexed": false,
          "internalType": "uint256"
        },
        {
          "name": "requestedAmountCNS",
          "type": "uint256",
          "indexed": false,
          "internalType": "uint256"
        },
        {
          "name": "positionBalanceCNS",
          "type": "uint256",
          "indexed": false,
          "internalType": "uint256"
        }
      ],
      "anonymous": false
    },
    {
      "type": "event",
      "name": "ResidueTransferred",
      "inputs": [
        {
          "name": "perpId",
          "type": "uint256",
          "indexed": false,
          "internalType": "uint256"
        },
        {
          "name": "residueAmountCNS",
          "type": "uint256",
          "indexed": false,
          "internalType": "uint256"
        },
        {
          "name": "positionBalanceCNS",
          "type": "uint256",
          "indexed": false,
          "internalType": "uint256"
        }
      ],
      "anonymous": false
    },
    {
      "type": "event",
      "name": "TakerFeeUpdated",
      "inputs": [
        {
          "name": "perpId",
          "type": "uint256",
          "indexed": false,
          "internalType": "uint256"
        },
        {
          "name": "takerFeePer100K",
          "type": "uint256",
          "indexed": false,
          "internalType": "uint256"
        }
      ],
      "anonymous": false
    },
    {
      "type": "event",
      "name": "TakerOrderFilled",
      "inputs": [
        {
          "name": "entryPricePNS",
          "type": "uint256",
          "indexed": false,
          "internalType": "uint256"
        },
        {
          "name": "collatPricePNS",
          "type": "uint256",
          "indexed": false,
          "internalType": "uint256"
        },
        {
          "name": "pnlPricePNS",
          "type": "uint256",
          "indexed": false,
          "internalType": "uint256"
        },
        {
          "name": "lotLNS",
          "type": "uint256",
          "indexed": false,
          "internalType": "uint256"
        },
        {
          "name": "feeCNS",
          "type": "uint256",
          "indexed": false,
          "internalType": "uint256"
        },
        {
          "name": "amountCNS",
          "type": "int256",
          "indexed": false,
          "internalType": "int256"
        },
        {
          "name": "balanceCNS",
          "type": "uint256",
          "indexed": false,
          "internalType": "uint256"
        }
      ],
      "anonymous": false
    },
    {
      "type": "event",
      "name": "ToleranceAdministratorUpdated",
      "inputs": [
        {
          "name": "toleranceAdministrator",
          "type": "address",
          "indexed": false,
          "internalType": "address"
        },
        {
          "name": "added",
          "type": "bool",
          "indexed": false,
          "internalType": "bool"
        }
      ],
      "anonymous": false
    },
    {
      "type": "event",
      "name": "TransferAccountToProtocol",
      "inputs": [
        {
          "name": "accountId",
          "type": "uint256",
          "indexed": false,
          "internalType": "uint256"
        },
        {
          "name": "amountCNS",
          "type": "uint256",
          "indexed": false,
          "internalType": "uint256"
        },
        {
          "name": "balanceCNS",
          "type": "uint256",
          "indexed": false,
          "internalType": "uint256"
        }
      ],
      "anonymous": false
    },
    {
      "type": "event",
      "name": "TransferPerpInsToProtocol",
      "inputs": [
        {
          "name": "perpId",
          "type": "uint256",
          "indexed": false,
          "internalType": "uint256"
        },
        {
          "name": "amountCNS",
          "type": "uint256",
          "indexed": false,
          "internalType": "uint256"
        }
      ],
      "anonymous": false
    },
    {
      "type": "event",
      "name": "TransferPerpPosToProtocol",
      "inputs": [
        {
          "name": "perpId",
          "type": "uint256",
          "indexed": false,
          "internalType": "uint256"
        },
        {
          "name": "amountCNS",
          "type": "uint256",
          "indexed": false,
          "internalType": "uint256"
        }
      ],
      "anonymous": false
    },
    {
      "type": "event",
      "name": "TransferProtocolToAccount",
      "inputs": [
        {
          "name": "accountId",
          "type": "uint256",
          "indexed": false,
          "internalType": "uint256"
        },
        {
          "name": "amountCNS",
          "type": "uint256",
          "indexed": false,
          "internalType": "uint256"
        },
        {
          "name": "balanceCNS",
          "type": "uint256",
          "indexed": false,
          "internalType": "uint256"
        }
      ],
      "anonymous": false
    },
    {
      "type": "event",
      "name": "TransferProtocolToPerp",
      "inputs": [
        {
          "name": "perpId",
          "type": "uint256",
          "indexed": false,
          "internalType": "uint256"
        },
        {
          "name": "amountCNS",
          "type": "uint256",
          "indexed": false,
          "internalType": "uint256"
        },
        {
          "name": "toInsuranceFund",
          "type": "bool",
          "indexed": false,
          "internalType": "bool"
        }
      ],
      "anonymous": false
    },
    {
      "type": "event",
      "name": "TransferProtocolToRecycleBal",
      "inputs": [
        {
          "name": "amountCNS",
          "type": "uint256",
          "indexed": false,
          "internalType": "uint256"
        }
      ],
      "anonymous": false
    },
    {
      "type": "event",
      "name": "TriggerDescIdTooLow",
      "inputs": [
        {
          "name": "lastTriggerDescId",
          "type": "uint256",
          "indexed": false,
          "internalType": "uint256"
        }
      ],
      "anonymous": false
    },
    {
      "type": "event",
      "name": "TriggerOrderExecution",
      "inputs": [],
      "anonymous": false
    },
    {
      "type": "event",
      "name": "TriggerOrderRequest",
      "inputs": [
        {
          "name": "triggerPricePNS",
          "type": "uint256",
          "indexed": false,
          "internalType": "uint256"
        },
        {
          "name": "triggerPriceCondition",
          "type": "uint8",
          "indexed": false,
          "internalType": "enum TriggerPriceConditionEnum"
        },
        {
          "name": "triggerRequestId",
          "type": "uint256",
          "indexed": false,
          "internalType": "uint256"
        },
        {
          "name": "triggerPositionId",
          "type": "uint256",
          "indexed": false,
          "internalType": "uint256"
        }
      ],
      "anonymous": false
    },
    {
      "type": "event",
      "name": "UnableToCancelOrder",
      "inputs": [
        {
          "name": "perpId",
          "type": "uint256",
          "indexed": false,
          "internalType": "uint256"
        },
        {
          "name": "orderId",
          "type": "uint256",
          "indexed": false,
          "internalType": "uint256"
        }
      ],
      "anonymous": false
    },
    {
      "type": "event",
      "name": "UnityDescentThreshUpdated",
      "inputs": [
        {
          "name": "perpId",
          "type": "uint256",
          "indexed": false,
          "internalType": "uint256"
        },
        {
          "name": "threshHdths",
          "type": "uint256",
          "indexed": false,
          "internalType": "uint256"
        }
      ],
      "anonymous": false
    },
    {
      "type": "event",
      "name": "UnspecifiedCollateral",
      "inputs": [],
      "anonymous": false
    },
    {
      "type": "event",
      "name": "UnwindCompleted",
      "inputs": [
        {
          "name": "perpId",
          "type": "uint256",
          "indexed": false,
          "internalType": "uint256"
        },
        {
          "name": "positionsUnwound",
          "type": "uint256",
          "indexed": false,
          "internalType": "uint256"
        },
        {
          "name": "perpPositionBalanceCNS",
          "type": "uint256",
          "indexed": false,
          "internalType": "uint256"
        },
        {
          "name": "insuranceBalanceCNS",
          "type": "uint256",
          "indexed": false,
          "internalType": "uint256"
        }
      ],
      "anonymous": false
    },
    {
      "type": "event",
      "name": "UnwindContractTrigger",
      "inputs": [
        {
          "name": "perpId",
          "type": "uint256",
          "indexed": false,
          "internalType": "uint256"
        }
      ],
      "anonymous": false
    },
    {
      "type": "event",
      "name": "UnwindInitializationCleared",
      "inputs": [
        {
          "name": "perpId",
          "type": "uint256",
          "indexed": false,
          "internalType": "uint256"
        }
      ],
      "anonymous": false
    },
    {
      "type": "event",
      "name": "UnwindInitialized",
      "inputs": [
        {
          "name": "perpId",
          "type": "uint256",
          "indexed": false,
          "internalType": "uint256"
        },
        {
          "name": "sumPositiveFmvCNS",
          "type": "uint256",
          "indexed": false,
          "internalType": "uint256"
        }
      ],
      "anonymous": false
    },
    {
      "type": "event",
      "name": "UnwindInsufficientBalance",
      "inputs": [
        {
          "name": "perpId",
          "type": "uint256",
          "indexed": false,
          "internalType": "uint256"
        },
        {
          "name": "accountId",
          "type": "uint256",
          "indexed": false,
          "internalType": "uint256"
        },
        {
          "name": "perpPositionBalanceCNS",
          "type": "uint256",
          "indexed": false,
          "internalType": "uint256"
        },
        {
          "name": "paymentCNS",
          "type": "uint256",
          "indexed": false,
          "internalType": "uint256"
        }
      ],
      "anonymous": false
    },
    {
      "type": "event",
      "name": "UnwindIterationCompleted",
      "inputs": [
        {
          "name": "perpId",
          "type": "uint256",
          "indexed": false,
          "internalType": "uint256"
        },
        {
          "name": "positionsUnwound",
          "type": "uint256",
          "indexed": false,
          "internalType": "uint256"
        },
        {
          "name": "perpPositionBalanceCNS",
          "type": "uint256",
          "indexed": false,
          "internalType": "uint256"
        },
        {
          "name": "insuranceBalanceCNS",
          "type": "uint256",
          "indexed": false,
          "internalType": "uint256"
        }
      ],
      "anonymous": false
    },
    {
      "type": "event",
      "name": "UnwindPreparationCleared",
      "inputs": [
        {
          "name": "perpId",
          "type": "uint256",
          "indexed": false,
          "internalType": "uint256"
        }
      ],
      "anonymous": false
    },
    {
      "type": "event",
      "name": "UnwindPrepared",
      "inputs": [
        {
          "name": "perpId",
          "type": "uint256",
          "indexed": false,
          "internalType": "uint256"
        }
      ],
      "anonymous": false
    },
    {
      "type": "event",
      "name": "UnwindProcessInProgress",
      "inputs": [
        {
          "name": "perpId",
          "type": "uint256",
          "indexed": false,
          "internalType": "uint256"
        }
      ],
      "anonymous": false
    },
    {
      "type": "event",
      "name": "UpdateOracleFailed",
      "inputs": [
        {
          "name": "perpId",
          "type": "uint256",
          "indexed": false,
          "internalType": "uint256"
        }
      ],
      "anonymous": false
    },
    {
      "type": "event",
      "name": "Upgraded",
      "inputs": [
        {
          "name": "implementation",
          "type": "address",
          "indexed": true,
          "internalType": "address"
        }
      ],
      "anonymous": false
    },
    {
      "type": "event",
      "name": "ValueExceedsMaximum",
      "inputs": [
        {
          "name": "value",
          "type": "uint256",
          "indexed": false,
          "internalType": "uint256"
        },
        {
          "name": "maximum",
          "type": "uint256",
          "indexed": false,
          "internalType": "uint256"
        }
      ],
      "anonymous": false
    },
    {
      "type": "event",
      "name": "WRLSMinWithdrawLimitUpdated",
      "inputs": [
        {
          "name": "limitCNS",
          "type": "uint256",
          "indexed": false,
          "internalType": "uint256"
        }
      ],
      "anonymous": false
    },
    {
      "type": "event",
      "name": "WRLSThousandthsTvlUpdated",
      "inputs": [
        {
          "name": "thousandthsTvl",
          "type": "uint256",
          "indexed": false,
          "internalType": "uint256"
        }
      ],
      "anonymous": false
    },
    {
      "type": "event",
      "name": "WhitelistAddress",
      "inputs": [
        {
          "name": "addr",
          "type": "address",
          "indexed": true,
          "internalType": "address"
        },
        {
          "name": "whitelisted",
          "type": "bool",
          "indexed": false,
          "internalType": "bool"
        }
      ],
      "anonymous": false
    },
    {
      "type": "event",
      "name": "WhitelistingEnabledChanged",
      "inputs": [
        {
          "name": "enabled",
          "type": "bool",
          "indexed": false,
          "internalType": "bool"
        }
      ],
      "anonymous": false
    },
    {
      "type": "event",
      "name": "WithdrawRateLimitBypassSet",
      "inputs": [
        {
          "name": "addr",
          "type": "address",
          "indexed": true,
          "internalType": "address"
        },
        {
          "name": "enabled",
          "type": "bool",
          "indexed": false,
          "internalType": "bool"
        }
      ],
      "anonymous": false
    },
    {
      "type": "event",
      "name": "WithdrawRateLimitForceReset",
      "inputs": [
        {
          "name": "newExpiryBlock",
          "type": "uint256",
          "indexed": false,
          "internalType": "uint256"
        },
        {
          "name": "newLimitCNS",
          "type": "uint256",
          "indexed": false,
          "internalType": "uint256"
        },
        {
          "name": "perBlockCNS",
          "type": "uint256",
          "indexed": false,
          "internalType": "uint256"
        }
      ],
      "anonymous": false
    },
    {
      "type": "event",
      "name": "WithdrawRateLimitReset",
      "inputs": [
        {
          "name": "newExpiryBlock",
          "type": "uint256",
          "indexed": false,
          "internalType": "uint256"
        },
        {
          "name": "newLimitCNS",
          "type": "uint256",
          "indexed": false,
          "internalType": "uint256"
        },
        {
          "name": "perBlockCNS",
          "type": "uint256",
          "indexed": false,
          "internalType": "uint256"
        }
      ],
      "anonymous": false
    },
    {
      "type": "event",
      "name": "WrongAccountForOrder",
      "inputs": [
        {
          "name": "perpId",
          "type": "uint256",
          "indexed": false,
          "internalType": "uint256"
        },
        {
          "name": "orderId",
          "type": "uint256",
          "indexed": false,
          "internalType": "uint256"
        },
        {
          "name": "accountId",
          "type": "uint256",
          "indexed": false,
          "internalType": "uint256"
        }
      ],
      "anonymous": false
    }
  ],
  "bytecode": {
    "object": "0x60a080604052346100dc57306080525f549060ff8260081c1661008a575060ff80821603610050575b6040516201dc079081620000e1823960805181818161638c015281816167f701526171ef0152f35b60ff90811916175f557f7f26b83ff96e1f2b6a682f133852f6798a09c465da95921460cefb3847402498602060405160ff8152a15f610028565b62461bcd60e51b815260206004820152602760248201527f496e697469616c697a61626c653a20636f6e747261637420697320696e697469604482015266616c697a696e6760c81b6064820152608490fd5b5f80fdfe610ca080604052600436101562000014575f80fd5b5f905f3560e01c908162092cce1462008623575080630189a2b7146200859957806303cfe83c14620084ed57806305aca14114620084b7578063065db33014620081e1578063075367f614620081375780630a039fbd14620080f15780630a2eb30114620080b05780630d3e87a714620080925780630e517f411462007fd25780630f03e4c31462007fa65780630f6795d91462007f17578063120141561462007e565780631217be671462007e155780631275d14c1462007de057806312e8eb2c1462007d2f57806316a065931462007c9c57806316a483ea1462007c7e578063171a5b811462007a06578063182b01f214620079bc5780631973c619146200797e5780631df87ade146200791057806320c801d2146200787e578063229c249214620077e0578063252c359414620077555780632709b74614620076c1578063279289e914620076345780632f32509b146200752d57806332b9203b14620074695780633659cfe614620071c457806338ecd88514620070ec57806339435dac146200705c578063396d7e47146200701d5780633a63dabe1462006fff5780633bf45a2f1462006fbe5780634119f9301462006f8957806343559bbf1462006f4757806345c8c9241462006eac5780634a9a41581462006e225780634b8344fb1462006d595780634d3282b41462006ce25780634d574c561462006c475780634d8dc9851462006a935780634f1ef28614620067b057806350ef5c3514620066435780635180d5a8146200644857806352d1902d14620063705780635405611914620062f6578063541b04e914620062945780635495086a146200622457806358087a74146200619f578063586d92ca146200610d5780635b0c29eb14620060e95780635bf9264c14620060845780635e1a35731462005ec85780635f40c1f71462005e6457806360ad17fd1462005d055780636112fe2e1462005bfb57806361bd6f441462005b0f578063653a6bd71462005ab85780636728641b1462005a675780636825e9e514620059de57806369752159146200589e5780636debf8fa146200584a578063715018a614620057dd578063751de421146200560c578063768f6855146200557157806379609c1114620053f65780637962f91014620052f157806379ba509714620052565780637cca3b0614620050215780637d45678e1462004f7e5780637dd7e7591462004f465780637ddbdc2a1462004e7e57806387c950581462004dbc578063893d20e814620049725780638a9246401462004ce65780638bc5b3c51462004c725780638bcf1b271462004b1d5780638c0311641462004a535780638c1c2cef146200499a5780638da5cb5b14620049725780638f3ffc8514620048db57806392e19126146200485157806392f54b3a1462003f5d5780639a6d76301462003f085780639b170bd11462003ece5780639b335b9e1462003a675780639d2ec188146200399a5780639e430eda14620037885780639fc8afd714620036f45780639fffdfe214620036cd578063a5e9c411146200360e578063a87041d114620035cd578063a971b6d414620035a6578063a9bd5cee14620034e4578063ae0d444214620034a3578063af37c07d14620033b0578063b108248614620032e9578063b216d0d2146200326d578063b5cd004e14620031bb578063b5fcf762146200318f578063b839a8c414620030d5578063ba53027d1462003091578063bad4a01f146200304f578063bbac6c951462002d93578063bbf979ac1462002d0d578063be0783f51462002c99578063be70473d1462002bb9578063bed97b711462002b53578063c0a44efc1462002af8578063c2852f381462002a37578063c4d66de81462002778578063c6efcd4314620026b6578063c7ff1584146200268d578063cab1391514620024bc578063d360dd31146200244c578063d3b8c49d14620023a3578063d541abc1146200230b578063d6f34bd61462002290578063d780ece81462002205578063d8b4426814620021c4578063d936547e1462002183578063dbfbf7e81462002142578063dd0a3e2b146200207f578063ddac1cde1462001be4578063dec92b691462001bc4578063e2e1cb571462001b19578063e30c39781462001af0578063e548bb571462001a62578063e5631c9e14620019ab578063e68073c314620018ef578063e74e2c9b146200188c578063ea3196ec1462001682578063eaadbbef146200165b578063ebcf165614620015d3578063ec4cba8314620014a7578063ecdff22e14620013a9578063ed6760fe14620012b7578063edb1314e1462001282578063efb6290414620011ba578063f28b98f3146200111a578063f2fde38b14620010a4578063f769f0d31462000fdc578063fb05acb714620009c2578063fb455f6b14620009515763fe37fe121462000703575f80fd5b346200094e57620007143662008bde565b919081809381620007356200072a82956200b67e565b92600984016200cfeb565b508060108401915b620007675760408051888152602081018a90529081018690526060810187905280608081015b0390f35b825280602052604082205461ffff8160c81c169663ffffffff82169182855260d560205260ff604086205460a01c16620007a18162008aef565b620009435764ffffffffff8160401c169260ff8260201c1690620007c58262011530565b62000854575b5063ffffffff620007e0620007eb926201155e565b9260781c1662010c99565b6200082057156200080a5787916200080391620099e8565b966200073d565b969485916200081991620099e8565b946200073d565b97989097156200083e5788916200083791620099e8565b976200073d565b979586916200084d91620099e8565b956200073d565b865260128701602052604086206200086c8262008aef565b60028214905464ffffffffff8160b81c16918215159182620008b4575b505015620008a75780851115620007cb57935063ffffffff620007cb565b505050968091506200073d565b909150818062000914575b8215620008d1575b50505f8062000889565b15915081620008e4575b505f80620008c7565b60ff915060401c16600281101562000900576001145f620008db565b634e487b7160e01b88526021600452602488fd5b915060ff8160401c1660028110156200092f571591620008bf565b634e487b7160e01b8a52602160045260248afd5b50968091506200073d565b80fd5b50346200094e57620009633662008bde565b919062ffffff8311620009a857602092600c620009846200098b936200b67e565b016201141f565b905f1982146200099f575b50604051908152f35b90505f62000996565b5060449163c6ebaaa160e01b825260045262ffffff602452fd5b50346200094e57620009d43662008c6c565b60e05260c05260a05233815260dc60205260ff6040822054161562000fc957620009fd6200bbf5565b62000fba5762000a0f60a0516200b67e565b9060ff825460c01c1660058110158062000fa65760028214158062000f98575b62000f785762000f645760030362000f14575b906001600160501b03600382015416916004820154916005810154938154608052829063ffffffff601184015416915b8215158062000f08575b1562000efc5782855260128401602052604085209280865260d56020526040862090845462000b0a62000af560ff60805160b81c1660ff60805160b01c1664ffffffffff8560b81c1661ffff8660881c1663ffffffff8760981c168d8860e01c9060ff8a60401c169063ffffffff60805116906200cf71565b50506001600160401b038360481c166200d1e8565b95889089908a891362000ca9575b9362000bf796959362000be49363ffffffff9362000bf197549b61ffff8d60881c16925f1462000bfd57917f4fa37f0ea2da4229663982f49120b61018ec1a6d0d2eea523dad9719a7dfef599391610140936001600160401b036040519460a05186528860208701528960805116604087015262000ba06060870160ff8360401c1662008e24565b898160981c16608087015264ffffffffff8160b81c1660a087015260481c1660c085015260e0840152610100830152610120820152a15b9716966011890162014b5a565b600560a051910162014c66565b62009ad2565b62000a72565b91610160927f04213fea4abae4cce19e63741cd5968e220f30dd7f5ffe9fc7b0913ed3994d0f94926001600160501b038a5416916001600160401b036040519560a05187528960208801528a60805116604088015262000c676060880160ff8360401c1662008e24565b8a8160981c16608088015264ffffffffff8160b81c1660a088015260481c1660c086015260e0850152610100840152610120830152610140820152a162000bd7565b919050878b8d811562000ef15762000ccc9262000cc6916200942e565b620099a7565b915b82918883111562000eba575060019260e0511562000d1157509362000bf796959362000be49363ffffffff9362000bf1975b939750935093509395965062000b18565b955050505050935062000d6e919597507f8c6452308f4aa5da3dd7582bf4f08c41c0bd9378806d96ce939fbddad72bf92692949650604051918291868660a051859094939260609260808301968352602083015260408201520152565b0390a15b1562000ddc5790816001600160501b0360037f2a562f7b66b9d232c3f7a19384fbcff970c9fec0f42ac7ef9ea592fbcb848d209582806080971616831983830154161782820155015460501c16906040519260a0518452602084015260408301526060820152a180f35b60038301546040805160a05181526020810194909452830182905260501c6001600160501b0316606083018190529162000e5791907fa9b78fd50db3a3e2b070cb8d415b5a3cd12f80614e74626415f2bcf20ae81d0c9080608081015b0390a160038401805469ffffffffffffffffffff191690556200b86a565b8062000e90575b50600581018290556004810182905560028101805469ffffffffffffffffffff19169055805460ff60c01b1916905580f35b60038201805469ffffffffffffffffffff60501b1916905562000eb3906200b86a565b5f62000e5e565b9362000bf797969463ffffffff9362000bf1979362000eeb62000ee38862000be4999e62009474565b9c896200c53f565b62000d00565b505050899162000cce565b93955091935062000d72565b5060c051811062000a7c565b6001600160501b036003830162000f4682825460501c1669ffffffffffffffffffff60501b19835416835585620111d5565b54166005830155600360c01b60ff60c01b1983541617825562000a42565b634e487b7160e01b82526021600452602482fd5b6313295a4960e11b835260a05160045260448362000f968462008ad2565bfd5b505081600382141562000a2f565b634e487b7160e01b83526021600452602483fd5b630b15863d60e41b8152600490fd5b631d37e03560e31b815233600452602490fd5b50346200094e5762000fee3662008bde565b62000ffb9291926200bbf5565b62001095576200100b336200c311565b80835260d56020526040832060ff815460a01c166200102a8162008aef565b806200107657506200105062001040866200b67e565b9560ff875460c01c16906200c369565b508215620010675762001064939462011214565b80f35b631fccd51f60e01b8452600484fd5b63e0860e5f60e01b85526024908590620010908162008aef565b600452fd5b630b15863d60e41b8252600482fd5b50346200094e5760203660031901126200094e576001600160a01b03620010ca62008bc7565b620010d46200b6cf565b16806001600160a01b031960655416176065556001600160a01b03603354167f38d16b8cac22d99fc7c124b9cd0de2d3fa1faef420bfe791d8c362d765e227008380a380f35b50346200094e5760203660031901126200094e576004356200113b6200b6cf565b6309c3d8f0808211620011a0575060c954620011566200bbd9565b91612710613fff9104831b921b19161760c9557f8ad800de6b48db2a4430821a66e9ea34dee8c66fea63f8a83559bf91279cf77c6020620011966200c57e565b604051908152a180f35b60649291630c8f0a6960e41b835260045281602452604452fd5b50346200094e57620011e76009620011d23662008e09565b9291620011e19491946200b6cf565b6200b67e565b01620011f483826200e9ba565b60028210801562001277575b620012595791604091837fbb5907b6810f0c2966db8e0939fbf4a19724f4e58e2bfd1d15195fdf8b4908a2945468ff000000000000000083861b169068ff0000000000000000191617905582519182526020820152a180f35b630c8f0a6960e41b8452600482905260026024526009604452606484fd5b506009821162001200565b50346200094e57806003193601126200094e5760209060c95490506c1fffffffffffffffffffffffff6040519160701c168152f35b50346200094e57620012c93662008bde565b620012d36200b6cf565b620012de826200b67e565b6001821080156200139e575b620013825760020160ff815460d81c16808311156200136b575080547fffffff00ffffffffffffffffffffffffffffffffffffffffffffffffffffffff1660e083901b60ff60e01b161790556040805192835260208301919091527fb0459c2e01b889e7e78bb7d1400cb3049a1d98ef3d6949439b173c5ffba92dd191a180f35b630ba8360160e41b85526004526024829052604484fd5b60648483630c8f0a6960e41b8252600452600160245281604452fd5b5060648211620012ea565b50346200094e5760603660031901126200094e57600435906024356044356001600160401b038111620014a357620013e6903690600401620091a3565b93909333845260dc60205260ff604085205416156200149057620014096200bbf5565b62001481577f8197894e93a93f60bb4024782ca25f3402b91b549a53da47eae6287ce13d707393946200147b9162001441846200b67e565b5060046200144f866200b728565b01848852602052866040812055604051948594855260208501526060604085015260608401916200b12c565b0390a180f35b630b15863d60e41b8452600484fd5b631d37e03560e31b845233600452602484fd5b8280fd5b50346200094e5760203660031901126200094e5760043533825260e360205260ff60408320541615620015c057620014de6200bbf5565b6200109557620014ee816200b67e565b829060ff815460c01c166005811015620015ac57917fcf3fd822380bbbd58d2963ba6984f53ab47660d73e9515246b4865cbf28919ba93916004606094146200155a575b60ff6200154f915460c01c16604051938452602084019062008ae1565b15156040820152a180f35b905060ff60c01b1981541681557f2bf3500d8e3b78624f68716bdcfccb30df6b6ef393561a3ffa32e8d357ac7e43604061ffff600284015460a81c16815190815260016020820152a160019062001532565b634e487b7160e01b85526021600452602485fd5b636cfd9ee160e01b825233600452602482fd5b50346200094e5760203660031901126200094e57600435620015f46200bbf5565b620010955760407f25cb41632994165977216ca86070cf4f14c696e259419044e9d2de44c5955c5c9162001628336200c311565b600462001635826200b728565b62001640846200b67e565b5083875201602052848381205582519182526020820152a180f35b50346200094e5762001064620016713662008bde565b906200167c6200b6cf565b6200b237565b50346200094e57620016ac90620016993662008bde565b9290620016a56200adaf565b506200b67e565b9082815260128201602052604081209060405191620016cb8362008fdb565b549163ffffffff831681526020810163ffffffff8460201c1681526040820193620016fd60ff8260401c168662009f45565b60608301946001600160501b038260481c168652608084019463ffffffff8360981c16865260a085019164ffffffffff8460b81c16835260c086019360e01c845262001749896200cf26565b505050978815998a6200187c575b82516002811015620015ac5791620017ab8b63ffffffff9a999795938997958d8d80809d511691511661ffff875160401c169164ffffffffff8b51169385549660ff808960b81c169860b01c16966200cf71565b9a919890995116965116915192600284101562001868575051985163ffffffff16925164ffffffffff16935163ffffffff16946040519c620017ed8e62009014565b8d5260208d015260408c0152620018089060608c0162009f45565b6001600160401b03871660808b015260a08a015260c089015260e088015261010087015261012086015261014085015260401c61ffff16610160840152604051928362001855916200911f565b610180830152156101a08201526101c090f35b634e487b7160e01b81526021600452602490fd5b805463ffffffff16995062001757565b50346200094e577f6bf5f38f4e94f47ae7a4d6e56dbf388c856f890b5f0f2808b66914710b0266ca6040620018c13662008bde565b620018cb6200b6cf565b620018e181620018db846200b67e565b6200e8ce565b82519182526020820152a180f35b50346200094e57620019013662008c6c565b906200190c6200b6cf565b60c9546001600160701b0316818110620019975750916060917fe3bcf60a5994e7328c2ddfbbf2c18d6e57c1cc69502d1ee3900c1e1f08ca555d9362001952836200b67e565b6200195d826200c41c565b81831562001986576200197091620111f1565b604051928352602083015215156040820152a180f35b6200199191620111d5565b62001970565b62fae2d560e21b8552600452602452604483fd5b50346200094e5760203660031901126200094e57600435620019cc6200b6cf565b620019d7816200b67e565b805460ff8160c01c166005811015620015ac578062001a4657509160209162001a2b63ffffffff7f398693be005c0e64e1ef16ed7453155535d078a14ebb77360c1409b8e6f63c209560c81c1683620111b9565b600160c01b60ff60c01b19825416179055604051908152a180f35b8462000f9660449286630d76efe360e41b845260045262008ad2565b50346200094e5760203660031901126200094e576004356001600160401b03811162001aec5762001a9890369060040162008b6c565b9033835260da60205260ff6040842054161562001ad95762001ab96200bbf5565b62001aca579062001064916200b339565b630b15863d60e41b8352600483fd5b63a37849fb60e01b835233600452602483fd5b5080fd5b50346200094e57806003193601126200094e5760206001600160a01b0360655416604051908152f35b50346200094e5762001b2b3662008bde565b62001b356200b6cf565b62001b40826200b67e565b600281015461ffff8160c81c168084101562001b8857857f9c6091bfb36035e2973fb3ad5c07d8c5d74d0981770feea276a41c4221246f0e60408787620018e181896200e903565b6040516322b85af560e11b8152600481018690526024810185905260b89290921c61ffff908116604484015216606482015280608481015b0390fd5b50346200094e57806003193601126200094e57602060cd54604051908152f35b50346200094e5762001bf63662008c6c565b61016052610140526101205262001c0c6200b6cf565b62001c1a610120516200b67e565b9060ff825460c01c1660058110158062000fa65760028214158062002071575b620020525762000f645760030362002002575b906001600160501b0360038201541691600482015491600581015493815461010052829063ffffffff601184015416915b8215158062001ff5575b1562001fe95782855260128401602052604085209280865260d56020526040862090845462001d0462000af560ff6101005160b81c1660ff6101005160b01c1664ffffffffff8560b81c1661ffff8660881c1663ffffffff8760981c168d8860e01c9060ff8a60401c169063ffffffff6101005116906200cf71565b95889089908a891362001e1c575b9362001daa96959362001d9c9363ffffffff9362000bf197549b61ffff8d60881c16925f1462001db057917f4fa37f0ea2da4229663982f49120b61018ec1a6d0d2eea523dad9719a7dfef599391610140936001600160401b0360405194610120518652886020870152896101005116604087015262000ba06060870160ff8360401c1662008e24565b600561012051910162014c66565b62001c7e565b91610160927f04213fea4abae4cce19e63741cd5968e220f30dd7f5ffe9fc7b0913ed3994d0f94926001600160501b038a5416916001600160401b03604051956101205187528960208801528a6101005116604088015262000c676060880160ff8360401c1662008e24565b919050878b8d811562001fde5762001e399262000cc6916200942e565b915b82918883111562001faf5750600192610160511562001e7f57509362001daa96959362001d9c9363ffffffff9362000bf1975b939750935093509395965062001d12565b955050505050935062001edd919597507f8c6452308f4aa5da3dd7582bf4f08c41c0bd9378806d96ce939fbddad72bf92692949650604051918291868661012051859094939260609260808301968352602083015260408201520152565b0390a15b1562001f4c5790816001600160501b0360037f2a562f7b66b9d232c3f7a19384fbcff970c9fec0f42ac7ef9ea592fbcb848d209582806080971616831983830154161782820155015460501c169060405192610120518452602084015260408301526060820152a180f35b6003830154604080516101205181526020810194909452830182905260501c6001600160501b0316606083018190529162000e5791907fa9b78fd50db3a3e2b070cb8d415b5a3cd12f80614e74626415f2bcf20ae81d0c90806080810162000e39565b9362001daa97969463ffffffff9362000bf1979362001fd862000ee38862001d9c999e62009474565b62001e6e565b505050899162001e3b565b93955091935062001ee1565b5061014051811062001c88565b6001600160501b03600383016200203482825460501c1669ffffffffffffffffffff60501b19835416835585620111d5565b54166005830155600360c01b60ff60c01b1983541617825562001c4d565b6313295a4960e11b83526101205160045260448362000f968462008ad2565b505081600382141562001c3a565b50346200094e5760403660031901126200094e577fe38e0dbe12c2dcb6ba8e96202e2cdd922095935e5ca1105ddf9e86c7f79df766620020be62008bc7565b620020c862008c3c565b90620020d36200b6cf565b81156200211f576001600160a01b038116845260dd60205260408420805460ff191660011790555b604080516001600160a01b039092168252911515602082015290819081016200147b565b6001600160a01b038116845260dd60205260408420805460ff19169055620020fb565b50346200094e5760203660031901126200094e5760ff60406020926001600160a01b036200216f62008bc7565b16815260dc84522054166040519015158152f35b50346200094e5760203660031901126200094e5760ff60406020926001600160a01b03620021b062008bc7565b16815260e084522054166040519015158152f35b50346200094e5760203660031901126200094e5760ff60406020926001600160a01b03620021f162008bc7565b16815260db84522054166040519015158152f35b50346200094e5760203660031901126200094e57600435620022266200b6cf565b60018110801562002285575b62002269576020817fc6edc4969138bba547ff56e984b415e7a1ec1181d6199d6946c48e3a858906369260ce55604051908152a180f35b63034bd7dd60e31b8252600160045260fa602452604452606490fd5b5060fa811162002232565b50346200094e5760203660031901126200094e57600435620022b16200b6cf565b64e8d4a510008111620022f0576020817f0fface2454d594caf83c2c1b1f8da428b41a8585fcf72713ea6ce39cd6cba9fc9260cd55604051908152a180f35b6395d41f3f60e01b825260045264e8d4a51000602452604490fd5b50346200094e576200231d3662008cf6565b9092919233835260da60205260ff6040842054161562001ad957620023416200bbf5565b62001aca576103fc84116200238f5783835260d9602052604083209362002368856200c481565b6200237d575060096200106493940162010c47565b63b934a7fb60e01b8452600452602483fd5b63324f0d9160e21b83526004849052602483fd5b50346200094e5760403660031901126200094e57600435906001600160401b0382116200094e57366023830112156200094e5781600401356001600160401b03811162001aec573660248260071b8501011162001aec576200240462008c3c565b9033835260dc60205260ff604084205416156200243957620024256200bbf5565b62001aca576024620010649394016200b272565b631d37e03560e31b835233600452602483fd5b50346200094e5760203660031901126200094e577fa9a3e53f31ef1464015e1b64897b819880bcc9787e25987d6d4336f3613ade2660206001600160a01b036200249562008bc7565b6200249f6200b6cf565b16806001600160a01b031960ca54161760ca55604051908152a180f35b50346200094e5760203660031901126200094e57600435620024dd6200e259565b620024e76200bbf5565b620010955733825260df60205260ff6040832054166200267a5760ff60e154168062002662575b6200264f5760cd548110620026395733825260d660205260408220548062002623575060d75490600182018083116200260f5763ffffffff8111620026005790602093620025f39260d75583815260d585528360406001818420019283546bffffffffffffffffffffffff80193360601b16911617845533815260d68852205563ffffffff8085161663ffffffff198254161790557f7325fb14450d3e5eb288c620b4ff1d6b43a41b33b4a4f143ae88cd4c12f99ea360405180620025ea863383602090939291936001600160a01b0360408201951681520152565b0390a16200ec79565b6001609755604051908152f35b634e5bb58160e01b8452600484fd5b634e487b7160e01b84526011600452602484fd5b630c8c12bd60e31b835233600452602452604482fd5b630cfe73bb60e41b825233600452602452604490fd5b636f8bf18b60e11b825233600452602482fd5b5033825260e060205260ff604083205416156200250e565b6371fa9c9960e01b825233600452602482fd5b50346200094e57806003193601126200094e576020620026ac6200bbf5565b6040519015158152f35b50346200094e5760403660031901126200094e577f42d42feead688fc3d6ed9ec2f9d2082ee29949efea1263eb51fb2f61f1f35c55620026f562008bc7565b620026ff62008c3c565b906200270a6200b6cf565b811562002755576001600160a01b038116845260e360205260408420805460ff19166001179055604080516001600160a01b039092168252911515602082015290819081016200147b565b6001600160a01b038116845260e360205260408420805460ff19169055620020fb565b50346200094e5760203660031901126200094e576200279662008bc7565b6001600160a01b0382549160ff8360081c16159283809462002a29575b801562002a10575b620027c69062009350565b60ff198116600117855583620029fe575b501690816001600160a01b031960cb54161760cb5560405163313ce56760e01b8152602081600481865afa8015620029f3578490620029ab575b60ff91501691600683036200298f576305f5e10060cd55600160d7819055606460ce5564e8d4a5100060d35560e1805460ff1916909117905560c980547ffffffff8001fffffffffffffffffffffffffffffffffffffffffffffffffffff167b0140000000000000000000000000000000000000000000000000000017905583547f7b1f94d30e47df15616bc31716546ce84737fcf471dff8cd336c68fb810d7e6f9161010091620028d49060081c60ff16620028ce8162010bd4565b62010bd4565b620028df336200e723565b8554946200290360ff8760081c16620028f88162010bd4565b620028ce8162010bd4565b600160975560cd5460ce5460d354906200291c6200c345565b9260ff60e154169460405196338852602088015260408701526060860152608085015260a084015260c0830152151560e0820152a16200295a575080f35b61ff00191681557f7f26b83ff96e1f2b6a682f133852f6798a09c465da95921460cefb3847402498602060405160018152a180f35b630f30f42960e01b845260045260248290526006604452606483fd5b506020813d602011620029ea575b81620029c86020938362009085565b81010312620029e6575160ff81168103620029e65760ff9062002811565b8380fd5b3d9150620029b9565b6040513d86823e3d90fd5b61ffff19166101011784555f620027d7565b50303b158015620027bb575060ff8116600114620027bb565b50600160ff821610620027b3565b50346200094e5760203660031901126200094e5733815260da60205260ff6040822054161562002ae55762002a6b6200bbf5565b62000fba5762002a7d6004356200b67e565b60ff815460c01c16600581101562000fa65760041462002a9b575080f35b604061ffff60027f2bf3500d8e3b78624f68716bdcfccb30df6b6ef393561a3ffa32e8d357ac7e439360ff60c01b198154168155015460a81c16815190815260016020820152a180f35b63a37849fb60e01b815233600452602490fd5b50346200094e5762002b0a3662008bde565b62002b179291926200b6cf565b62002b22836200b67e565b63ffffffff815460c81c1662002b3f57926200106492936200b798565b632f74f1cf60e21b83526004849052602483fd5b50346200094e57806003193601126200094e5762002b706200b6cf565b8060cf558060d0558060d1558060d2557f4a1c1830c45941cc05cf110c5d7424a3e493f0e42be2522c05ab26c0221062cf6060604051838152836020820152836040820152a180f35b50346200094e5762002bcb3662008dc9565b9033845260da60205260ff6040852054161562002c865790918215159190845b82811062002bf7578580f35b806001600160a01b0362002c1962002c1360019487876200b1d3565b6200b1e4565b16875260e060205262002c3b86604089209060ff801983541691151516179055565b6001600160a01b0362002c5462002c138387876200b1d3565b167f33e0bf3ce98fac4118d5a0a8fe49e83b6acdfdef32871c9eca20e1528d7701ba6020604051888152a20162002beb565b63a37849fb60e01b845233600452602484fd5b50346200094e5760203660031901126200094e5760043562002cba6200b6cf565b6309c3d8f0808211620011a0575060c954612710613fff920460d51b9160d51b19161760c9557f4151e59ddd8ffe35ce0b539f837d353ed0ff884e058b715910c7f4688a5da7366020620011966200c345565b50346200094e5760803660031901126200094e5733815260dc60205260ff6040822054161562000fc95762002d416200bbf5565b62000fba5762002d536004356200b67e565b62002d7261ffff600283015460a81c1660ff835460c01c16906200c369565b506064358015158103620014a35762001064916044359060243590620107b3565b50346200094e5760403660031901126200094e576004356001600160401b03811162001aec573660238201121562001aec578060040135906001600160401b038211620014a357602481019036602460c0850283010111620029e65762002df962008c3c565b9162002e046200bbf5565b620030405762002e14336200c311565b9182865260d560205260ff604087205460a01c1662002e338162008aef565b806200302657508415620030125781359262002e4f846200b67e565b9060ff825460c01c169260ff600184015460d01c1690338a5260de60205260ff60408b205416948a5b8a8110156200300e578062002fc3575b62002e958a838b6200c39d565b62002fba57896040890135801562002faf57858062002fa6575b62002f4e578a8a60a08101359261ffff841162002ef257918160019695938c8c608062002eeb989601359460206060860135950135926200ed9e565b0162002e78565b5050509062002f3657907f95d41f3f44becfa47a91cf04138709af8e760c9060dcf6091505be37dce141886040600193815190815261ffff6020820152a162002eeb565b6395d41f3f60e01b8d5260045261ffff60245260448cfd5b5062002f8e57604080518a8152336020820152600192917f4cd1188857d86056fa3ff56966c92f1f952217fe7328696137d42b1043a5d91c91a162002eeb565b63099a231160e31b8c5260048990523360245260448cfd5b50881562002eaf565b505060019062002eeb565b60019062002eeb565b60c08102830160240197508735808a0362002fe0575b5062002e88565b9850925050925062002ff2866200b67e565b9260ff845460c01c1660ff600186015460d01c16925f62002fd9565b8b80f35b634e487b7160e01b86526032600452602486fd5b63e0860e5f60e01b87526024908790620010908162008aef565b630b15863d60e41b8552600485fd5b50346200094e5760203660031901126200094e576200306d6200e259565b620030776200bbf5565b62000fba57620030896004356200ec79565b600160975580f35b50346200094e57620030a33662008bde565b9033835260da60205260ff6040842054161562001ad957620030c46200bbf5565b62001aca579062001064916200b237565b50346200094e57620030e73662008bde565b620030f16200b6cf565b614e208111620031735781604091620018e16200312f7f29246c8aee392e4f61a964c88192adac4afc12ed286fcbd7698783763467475f956200b67e565b80547fffffffffffffffffffffffff0000ffffffffffffffffffffffffffffffffffff16609084901b73ffff00000000000000000000000000000000000016179055565b60649291634dcc027160e11b8352600452602452614e20604452fd5b50346200094e57806003193601126200094e5760209060c95490506001600160701b0360405191168152f35b50346200094e5760203660031901126200094e57600435620031dc6200b6cf565b620031e7816200b67e565b60ff815460c01c1660058110156200325957600181036200323d57507fc5ed7f880900879a894e28cc520c997b23650b24b94faf0b7a4e9621b09dec8b9160209160ff60c01b198154169055604051908152a180f35b8362000f9660449285637edd2a1d60e01b845260045262008ad2565b634e487b7160e01b84526021600452602484fd5b50346200094e5760803660031901126200094e576044356001600160401b03811162001aec57620032a390369060040162008cc3565b90620032ae62008c5c565b9233815260dc60205260ff6040822054161562000fc957620032cf6200bbf5565b62000fba576020620026ac8585856024356004356200b1f9565b50346200094e57620032fb3662008dc9565b9033845260da60205260ff6040852054161562002c865790918215159190845b82811062003327578580f35b806001600160a01b036200334362002c1360019487876200b1d3565b16875260df6020526200336586604089209060ff801983541691151516179055565b6001600160a01b036200337e62002c138387876200b1d3565b167f78ba4d4e021eac2ff3a6a2337dc61ca2b49986705a2438b5764b9c18bd1c25fd6020604051888152a2016200331b565b50346200094e57620033c23662008bde565b9190620033ce6200b6cf565b620033d9816200b67e565b60018410801562003498575b6200347c5760020160ff815460d81c168085101562003465575080547fffff00ffffffffffffffffffffffffffffffffffffffffffffffffffffffffff1660e885901b60ff60e81b1617905560408051918252602082018490527fbe36b3b0b7a3a58d54c694996c6aadba93761ca8210af4d6b72115c02aa210e491a180f35b63291eed9d60e01b84526004859052602452604483fd5b60648385630c8f0a6960e41b8252600452600160245281604452fd5b5060648411620033e5565b50346200094e5760203660031901126200094e5760ff60406020926001600160a01b03620034d062008bc7565b16815260de84522054166040519015158152f35b50346200094e5760403660031901126200094e577f6259c67b83c17d274bef178edcf79755337c12fdc6de65b955b5ab3f95e82e056200352362008bc7565b6200352d62008c3c565b90620035386200b6cf565b811562003583576001600160a01b038116845260db60205260408420805460ff19166001179055604080516001600160a01b039092168252911515602082015290819081016200147b565b6001600160a01b038116845260db60205260408420805460ff19169055620020fb565b50346200094e5762001064620035bc3662008bde565b90620035c76200b6cf565b6200995f565b50346200094e5760203660031901126200094e5760ff60406020926001600160a01b03620035fa62008bc7565b16815260dd84522054166040519015158152f35b50346200094e57620036203662008bde565b6200362a6200b6cf565b62003635826200b67e565b60ff815460c01c166005811015620015ac5760018103620036b1575091818360409360047f7101921841f3f86b1db94836f0b095d276833a7b6669c5d7628161978ae7e686960155780200000000000000000000000000000000000000000000000060ff60c01b1982541617905582519182526020820152a180f35b8462000f9660449286634d3d766360e01b845260045262008ad2565b50346200094e57806003193601126200094e576020620036ec6200c558565b604051908152f35b50346200094e5760a03660031901126200094e576200371262008bb3565b906200371d62008c5c565b608435908115158203620014a35733835260db60205260ff6040842054161562003775576200374b6200bbf5565b62001aca5762001064929363ffffffff620037686004356200b67e565b911690602435906200dcc1565b636dfc4d6160e11b835233600452602483fd5b50346200094e5760403660031901126200094e57600435620037a962008c3c565b620037b36200b6cf565b620037be826200b67e565b90815460ff8160c01c1693620037d585826200eb3c565b5082158095819662003972575b5062003872575b5050156200386a57825b600581101562003259579161ffff6002837f2bf3500d8e3b78624f68716bdcfccb30df6b6ef393561a3ffa32e8d357ac7e439560ff60c01b1978ff000000000000000000000000000000000000000000000000604097549260c01b169116178155015460a81c16908251918252156020820152a180f35b6004620037f3565b600284015460f01c60ff166200394c576001600160a01b0360ca5416801580156200393f575b6200391f575063ffffffff8260401c16156200390d57505b63ffffffff8160c81c1615620038c8575b80620037e9565b63ffffffff60c81b197cffffffff00000000000000000000000000000000000000000000000000620038fa436200ec28565b91505060c81b1691161782555f620038c1565b630c5eed9d60e11b8652600452602485fd5b6006850154631744ee4f60e31b8852600492909252602452604452606485fd5b5060068501541562003898565b63ffffffff821615620039605750620038b0565b63136618cd60e01b8652600452602485fd5b905060058110156200398657155f620037e2565b634e487b7160e01b87526021600452602487fd5b50346200094e57620039ac3662008bde565b620039b66200b6cf565b620039c1826200b67e565b620186a0821162003a4c5780547cffffffffffffffffffffffffffffffffffffffffffffffffffffffffff1660e883901b7fffffff0000000000000000000000000000000000000000000000000000000000161790556040805192835260208301919091527f95e1172237a02916c6d5aba284d04aa4e02e876b0c666387d62f03d0cd77719a91a180f35b6395d41f3f60e01b84526004829052620186a0602452604484fd5b50346200094e5760203660031901126200094e576103c060405162003a8c8162008ff7565b60608152606060208201528260408201528260608201528260808201528260a08201528260c08201528260e08201528261010082015282610120820152826101408201528261016082015282610180820152826101a0820152826101c0820152826101e08201528261020082015282610220820152826102408201528261026082015282610280820152826102a0820152826102c0820152826102e08201528261030082015282610320820152826103408201528261036082015282610380820152826103a0820152015262003b646004356200b67e565b805461ffff600683015462003cc360ff60018601549463ffffffff6003880154966001600160501b0360028a01549860098b01549762003bc660086040519d8e62003baf8162008ff7565b62003bbd600783016200920e565b9052016200920e565b60208d0152868660b01c1660408d0152868660b81c1660608d015260808c0152888560901c1660a08c0152838360d81c1660c08c01528260f81c60e08c0152888560a01c166101008c01528181166101208c015260501c166101408a01528183166101608a0152818360201c166101808a01528181166101a08a015260201c166101c088015263ffffffff8160401c166101e088015263ffffffff8160601c1661020088015264ffffffffff861661022088015264ffffffffff8660281c1661024088015263ffffffff8160c81c166102608801528060801c60010b610280880152848660981c166102a088015260c01c166102c08601620092ba565b63ffffffff81166102e085015262ffffff8160781c1661030085015262ffffff8160901c1661032085015262ffffff8160481c1661034085015262ffffff8160601c1661036085015260201c1661038083015260ff8160f01c1615156103a083015260f81c6103c08201526040518091602082526103c062003d6f62003d5883516103e0602087015261040086019062008aae565b6020840151858203601f1901604087015262008aae565b916040810151606085015260608101516080850152608081015160a085015260a081015160c085015260c081015160e085015260e08101516101008501526101008101516101208501526101208101516101408501526101408101516101608501526101608101516101808501526101808101516101a08501526101a08101516101c08501526101c08101516101e08501526101e081015161020085015261020081015161022085015261022081015161024085015261024081015161026085015261026081015161028085015261028081015160010b6102a08501526102a08101516102c085015262003e6e6102c08201516102e086019062008ae1565b6102e08101516103008501526103008101516103208501526103208101516103408501526103408101516103608501526103608101516103808501526103808101516103a08501526103a081015115158285015201516103e08301520390f35b50346200094e5762003ee03662008bde565b919062ffffff8311620009a857602092600c62003f016200098b936200b67e565b016200ea19565b50346200094e577f672c0a156ee23d5a79ee89b233d6d30458115eabf152fb294cb8a894eadeeb11604062003f3d3662008bde565b62003f476200b6cf565b620018e18162003f57846200b67e565b6200e946565b346200484d576101403660031901126200484d576004356001600160401b0381116200484d5762003f93903690600401620091a3565b6024356001600160401b0381116200484d5762003fb5903690600401620091a3565b909160443592606435926084359060a4359061010435610124359162003fda6200b6cf565b62003fe46200e259565b60508711620048165760108111620047de576103fc8911620047cb57885f5260d960205260405f209662004018886200c481565b620047b85760066200402b8688620099e8565b116200478d57600788019a6001600160401b038211620046d057620040518c54620091d3565b601f811162004759575b505f90601f8311600114620046f0576200408d92915f9183620046e4575b50508160011b915f199060031b1c19161790565b8a555b60088701956001600160401b038211620046d057620040b08754620091d3565b601f811162004690575b505f90601f83116001146200462757620040eb92915f91836200461b5750508160011b915f199060031b1c19161790565b85555b60028601805461ffff60a81b191660a88a901b61ffff60a81b161781559360ff60c01b198754168755600681116200460457865460068511620045ec577fffffffffffffffff0000ffffffffffffffffffffffffffffffffffffffffffff76ff0000000000000000000000000000000000000000000077ff00000000000000000000000000000000000000000000008760b81b169360b01b169116171786556200419b60c435876200e6c1565b620041a960e435876200e8ce565b81811015620045d75790620041c3620041ca92876200e903565b856200e86d565b620041d5816200ad27565b80620f42400290620f42408204036200458d57620041f490856200e946565b81547fffff000000ffffffffffffffffffffffffffffffffffffffffffffffffffffff167d555f5a000000000000000000000000000000000000000000000000000000178255600a840180546009860192919015620045b7575b5063feffffff808711620045a15750815463ffffffff871663ffffffff1990911617825584546001860180547affffffffffffffffffffffffffffffffffffffffffffffffffffff167f09000000640000000000000000000000000000000000000000000000000000001781557fffffffffffffffffffff00000000ffffffffffffffffffffffffffffffffffff909116743c138800000000000000000000000000000000000017865583547427100000000000000000000000000000000000000061ffff60981b1990911617845561d8ef9261ffff906200433185826200e9ba565b805468ff000000000000000019166802000000000000000017905586547cffffffffffffffffffffffffffffffffffffffffffffffffffffffffff16610c3560ec1b17875581547a010061a80061a80061a801731800823500823500000000000000007fffffffffff00000000000000000000000000000000000000ffffffffffffffff90911617825560d854620043dd90620043ce9062009ad2565b978860d855549554936200ad27565b9182620f42400292620f42408404036200458d5754956040519a8b9a8b5260208b016103e090526103e08b0162004414916200b14c565b8a810360408c015262004427916200b14c565b976200443e60608b0160ff60c089901c1662008ae1565b60808a01528460b01c60ff1660a08a01528460b81c60ff1660c08a0152808360781c1660e08a0152808360881c166101008a0152808360b81c166101208a01528260c81c166101408901526101608801526101808701605a90526101a08701605f905260e81c60ff166101c08701526101e0860161138890526102008601606490526102208601600990526102408601603c9052610260860161271090526102808601526102a085016002905260e81c6102c08501528060401c62ffffff166102e08501528060581c62ffffff166103008501528060d01c60ff1615156103208501528060701c62ffffff166103408501528060881c62ffffff166103608501528060a01c62ffffff1661038085015260b81c62ffffff166103a08401526103c0830152037fd78b2274f0f8c5fb36f3464d4fc273e80ba45dde960a535eeacf3c1ae42c4e3c91a16001609755005b634e487b7160e01b5f52601160045260245ffd5b866395d41f3f60e01b5f5260045260245260445ffd5b5f1990555f8052600b850160205260405f2060018154179055886200424e565b6322e659c160e11b5f5260045260245260445ffd5b846395d41f3f60e01b5f52600452600660245260445ffd5b6395d41f3f60e01b5f52600452600660245260445ffd5b013590508c8062004079565b601f19831691885f5260205f20925f5b8181106200467757509084600195949392106200465d575b505050811b018555620040ee565b01355f19600384901b60f8161c191690558b80806200464f565b9193602060018192878701358155019501920162004637565b620046be90885f5260205f20601f850160051c81019160208610620046c5575b601f0160051c01906200ad36565b8b620040ba565b9091508190620046b0565b634e487b7160e01b5f52604160045260245ffd5b013590508d8062004079565b601f198316918d5f5260205f20925f5b81811062004740575090846001959493921062004726575b505050811b018a5562004090565b01355f19600384901b60f8161c191690558c808062004718565b9193602060018192878701358155019501920162004700565b62004786908d5f5260205f20601f850160051c81019160208610620046c557601f0160051c01906200ad36565b8c6200405b565b60848a86886040519263bc42e62760e01b845260048401526006602484015260448301526064820152fd5b8963c401953760e01b5f5260045260245ffd5b8863324f0d9160e21b5f5260045260245ffd5b604051631ffb247760e11b8152606060048201529081906200480560648301828a6200b12c565b906024830152601060448301520390fd5b60405163ab94bf3960e01b81526060600482015280886200483c60648301828f6200b12c565b906024830152605060448301520390fd5b5f80fd5b346200484d576200486d620048663662008e09565b916200ae09565b610c4051610c6051919290604051926080840194608085528351809652602060a0860194015f965b808810620048b757505084955060208501526040840152151560608301520390f35b9094602061018082620048ce6001948a516200911f565b0196019701969062004895565b346200484d5760403660031901126200484d576004356024356001600160401b0381116200484d5762004913903690600401620090fe565b335f5260db60205260ff60405f205416156200495f57620049336200bbf5565b620049505781620049486200494e936200b67e565b6200e076565b005b630b15863d60e41b5f5260045ffd5b636dfc4d6160e11b5f523360045260245ffd5b346200484d575f3660031901126200484d5760206001600160a01b0360335416604051908152f35b346200484d5760203660031901126200484d57620049ba6004356200b728565b8054908160f01c90620049cd8262009a79565b91600263ffffffff5f9560b01c169201915b8015158062004a49575b1562004a39575f528160205263ffffffff60405f2062004a2d62004a0d8762009ad2565b9662004a198362009ae1565b62004a25828962009527565b528662009527565b505460201c16620049df565b6040518062000763868262008d2d565b50818510620049e9565b346200484d5762004a643662008bde565b62004a6e6200b6cf565b62004a79826200b67e565b600281015461ffff8160c81c16808410801562004b0b575b62004ad4577f258cfea0edc89c1ba4ce7d75bd475712ab2a06ce19794e2193cbd64f182a3f786040868662004ac781886200e86d565b82519182526020820152a1005b60405163be5707cb60e01b8152600481018690526024810185905261ffff918216604482015260b89290921c166064820152608490fd5b5061ffff8260b81c1684111562004a91565b346200484d5760203660031901126200484d575f8080806004354381101562004b6b575b50906200076391604051948594859094939260609260808301968352602083015260408201520152565b935050505060cf549060d1549160d25460d054908484115f1462004c2b57505050905061217b81018082116200458d579061085f81018091116200458d576103e862004bbd60ce5460cc54906200942e565b0460d3548082115f1462004c2357505b61217b810461217b81029181159282810461217b148417156200458d5762004bf59162009474565b61085f82029282840461085f1417156200458d57620007639262004c1991620099e8565b925b909162004b41565b905062004bcd565b80841162004c41575b6200076392935062004c1b565b620007639262004c618362004c5b62004c68948862009474565b6200942e565b90620099e8565b9283925062004c34565b346200484d575f3660031901126200484d5760c060cc5460c9546001600160701b03906c1fffffffffffffffffffffffff6001600160a01b0360cb5416916001600160a01b0360ca5416936040519586528116602086015260701c16604084015260066060840152608083015260a0820152f35b346200484d5760203660031901126200484d5760043562004d066200b6cf565b60c9546001600160701b031680821162004da8575060cc5480821162004d93577ffbebce9e66eea6596d62b805af61b4b1ea406128e73ffb928faa091b17d524f960208362004d55816200e401565b62004d60816200c41c565b62004d6e8160cc5462009474565b60cc5562004d8a816001600160a01b0360cb541633906200e5b7565b604051908152a1005b6303dc938760e61b5f5260045260245260445ffd5b62fae2d560e21b5f5260045260245260445ffd5b346200484d5760403660031901126200484d577f184fbff1cd7a3d3af1fd538263d79328e135402c70c68de9b795ee4fcc0440bc62004dfa62008bc7565b62004e0462008c3c565b9062004e0f6200b6cf565b811562004e5b576001600160a01b0381165f5260da60205260405f20600160ff198254161790555b604080516001600160a01b039092168252911515602082015290819081015b0390a1005b6001600160a01b0381165f5260da60205260405f2060ff19815416905562004e37565b346200484d5760403660031901126200484d577ffe982a540a46b78ba39fe94b2fec322414acda6ca69e165520017d474e0dee48606062004ebe62008bc7565b62004ec862008c3c565b62004ed26200b6cf565b62004edd826200c311565b811562004f23576001600160a01b0383165f5260de60205260405f20600160ff198254161790555b6001600160a01b0360405193168352602083015215156040820152a1005b6001600160a01b0383165f5260de60205260405f2060ff19815416905562004f05565b346200484d57604062004f6f62004f6962004f613662008bde565b91906200b67e565b6200e779565b82519160050b82526020820152f35b346200484d5762004f8f3662008bde565b90335f5260dd60205260ff60405f205416156200500e5762004fb06200bbf5565b6200495057614e20821162004ff357807f29246c8aee392e4f61a964c88192adac4afc12ed286fcbd7698783763467475f9262004ac76200312f6040946200b67e565b634dcc027160e11b5f52600452602452614e2060445260645ffd5b6338095ba560e21b5f523360045260245ffd5b346200484d5760203660031901126200484d57600435620050416200b6cf565b6200504c816200b67e565b90600282015464ffffffffff8116159081159162005241575b50801562005212575b620052005761ffff600983015460201c1680620051ea577fc1c33d1bd4abb6d1a8ed08f6a49cdf51c1db8b81ce6810a713fcd0291cc63f97602083856001600160501b036003820181815416806200519d575b505460501c1690816200514f575b5050805f5260d982525f60116040822082815582600182015582600282015582600382015582600482015582600582015582600682015562005114600782016200ad4e565b62005122600882016200ad4e565b82600982015582600a82015582600c82015501556200514360d8546200ada2565b60d855604051908152a1005b816200517f7f6cbcbbf194e245478b88cdee7b07dd6402cf492bcef0df03eae198637a072474936040936200d7cb565b6200518a816200b86a565b81519084825285820152a18380620050cf565b604081620051cd7f9adf439943034ba500551cd8e7417ea8cafa00933026f4e8e3612c01524d637793876200b83b565b620051d8816200b86a565b81519087825288820152a186620050c1565b9063e47393c360e01b5f5260045260245260445ffd5b631bb9ae6f60e11b5f5260045260245ffd5b5060ff825460c01c1660058110156200522d5715156200506e565b634e487b7160e01b5f52602160045260245ffd5b64ffffffffff915060281c1615158362005065565b346200484d575f3660031901126200484d57336001600160a01b03606554160362005286576200494e336200e723565b60405162461bcd60e51b815260206004820152602960248201527f4f776e61626c6532537465703a2063616c6c6572206973206e6f74207468652060448201527f6e6577206f776e657200000000000000000000000000000000000000000000006064820152608490fd5b346200484d5760203660031901126200484d576200530e62008c4c565b620053186200bbf5565b620049505762005328336200c311565b90815f5260d560205260405f209182549260ff8460a01c16936200534c8562008aef565b84620053d8577f743a9ef374d6b3c905b8fd725a33cc63980a202108bfd3cbf65e94a23640a02e94507fffffffffffffffffffff00ffffffffffffffffffffffffffffffffffffffffff75ff00000000000000000000000000000000000000000085151560a81b16911617905562004e5660405192839283909291602090604083019483521515910152565b63e0860e5f60e01b5f5284620053ee8162008aef565b60045260245ffd5b346200484d57620054073662008e09565b620054116200b6cf565b60098110801562005566575b6200554a576200542d816200ad27565b80831180156200553c575b6200550657509162004e567fca21b8a8b8d11b0faf46a19341a9e5fa3d668a48778efaff9fbec48fa21e5df093620054e9600162005476856200b67e565b0180547affffffffffffffffffffffffffffffffffffffffffffffffffffff1660d887901b7effffffff000000000000000000000000000000000000000000000000000000161760f884901b7fff0000000000000000000000000000000000000000000000000000000000000016179055565b604051938493846040919493926060820195825260208201520152565b905063ffffffff8110156200552f57915b6377b084bf60e11b5f5260045260245260445260645ffd5b5063ffffffff9162005517565b5063ffffffff831162005438565b633361596f60e11b5f526004526009602452602460445260645ffd5b50602481116200541d565b346200484d5760203660031901126200484d576004356001600160401b0381116200484d57366023820112156200484d5780600401356001600160401b0381116200484d573660248260091b840101116200484d57335f5260dc60205260ff60405f20541615620055f957620055e66200bbf5565b620049505760246200494e92016200aadf565b631d37e03560e31b5f523360045260245ffd5b346200484d576200562d620056213662008bde565b9190620016a562009ef2565b90805f526012820160205260405f2091604051926200564c8462008fdb565b5463ffffffff81168452602084019163ffffffff8260201c16835260408501946200567e60ff8460401c168762009f45565b606081016001600160501b038460481c168152608082019463ffffffff8560981c16865260a083019464ffffffffff8160b81c16865260c084019060e01c8152620056c9856200cf26565b5050509586159788620057cd575b8a519460028610156200522d57620057248963ffffffff998a98898851168a87511661ffff875160401c169164ffffffffff8a51169385549660ff808960b81c169860b01c16966200cf71565b999197909851169551169b5160028110156200522d576101a09c63ffffffff64ffffffffff816001600160401b03620057899651169651169651169651169660206040519e8f90620057768262008fbe565b8152015260408d015260608c0162009f45565b60808a015260a089015260c088015260e0870152610100860152610120850152610140840152620057be604051809462008e32565b61016083015215610180820152f35b865463ffffffff169750620056d7565b346200484d575f3660031901126200484d57620057f96200b6cf565b6001600160a01b0319606554166065555f6001600160a01b036033546001600160a01b03198116603355167f8be0079c531659141344cd1fd0a4f28419497f9722a3daafe3b4186f6b6457e08280a3005b346200484d577f8e37539629486a88c6a6083eb90030fb61cb856d56d96f53a326fda0d399ef3260406200587e3662008bde565b620058886200b6cf565b62004ac78162005898846200b67e565b6200e6c1565b346200484d5760403660031901126200484d57600435620058be62008c3c565b620058c86200b6cf565b620058d3826200b67e565b916002830180549360ff8560f01c1680620059d5575b62005963575b507f8ac110193a47d8207dd88897368f2031dd31bfea6bcfd9a2b3ea6759e81c4e14937fff00ffffffffffffffffffffffffffffffffffffffffffffffffffffffffffff60ff60f01b85151560f01b16911617905562004e5660405192839283909291602090604083019483521515910152565b6001600160a01b0360ca541680158015620059c8575b620059a957505460401c63ffffffff1615620059965784620058ef565b50630c5eed9d60e11b5f5260045260245ffd5b60068492015491631744ee4f60e31b5f5260045260245260445260645ffd5b5060068201541562005979565b508315620058e9565b346200484d5760c0620059ff6002620059f73662008bde565b92906200b67e565b015461ffff8160b81c169164ffffffffff8260501c168261ffff62005a4160ff849660d81c16948560ff8560e01c1697889264ffffffffff8716908b6200e692565b9160405196875260c81c16602086015260408501526060840152608083015260a0820152f35b346200484d5760203660031901126200484d57606062005a896004356200b67e565b60ff815460c01c1690600560048201549101549062005aac604051809462008ae1565b60208301526040820152f35b346200484d5762005acf6009620059f73662008bde565b0162ffffff821162005af55760409162005ae9916200cfeb565b82519182526020820152f35b5063c6ebaaa160e01b5f5260045262ffffff60245260445ffd5b346200484d5760203660031901126200484d5760043562005b2f6200bbf5565b620049505762005b3f336200c311565b90815f5260d560205260405f209160ff835460a01c1662005b608162008aef565b6002811462005be6575062004e566001600160501b038462005ba4857f2687926b167b6633deaaa80c3d106be87c0530fbc9ecba972ef8da4a3f2c489b976200e2d1565b5062005bb185826200e59e565b62005bbc856200b86a565b5416604051938493849160409194936001600160501b039160608501968552602085015216910152565b63e0860e5f60e01b5f52620053ee8162008aef565b346200484d5760203660031901126200484d5760043562005c1b6200e259565b62005c256200bbf5565b620049505762005c35336200c311565b90815f5260d560205260405f209160ff835460a01c1662005c568162008aef565b8062005be6575062005c6982846200e2d1565b5060cc5480831162005cee575062005ce46001600160501b037f8a087568cf2efa04e1e6c72c7f61b68a1ac013d6a33bd6e978e1ba2b4efc04d49462005caf856200e401565b62005cbb85826200e59e565b62005cc98560cc5462009474565b60cc5562005bbc85336001600160a01b0360cb54166200e5b7565b0390a16001609755005b90506303dc938760e61b5f5260045260245260445ffd5b346200484d5762005d163662008e09565b9162005d216200b6cf565b62005d2c816200b67e565b62005d388484620099e8565b90620186a0821162005e3a57620186a0841162005e205760010180546affffff00000000000000001916604085901b6affffff000000000000000016178155620186a0851162005e065780546dffffff00000000000000000000001916605886901b6dffffff000000000000000000000016179055620186a09081039081116200458d577f61c468e821b1662263e339e465b2b8aa3c36b504f804ffac4a19ad8eae3df8139362004e5691604051948594859094939260609260808301968352602083015260408201520152565b846395d41f3f60e01b5f52600452620186a060245260445ffd5b836395d41f3f60e01b5f52600452620186a060245260445ffd5b6084838686604051926334af053b60e21b8452600484015260248301525f60448301526064820152fd5b346200484d5760203660031901126200484d577f4837c28a17fa53b7af0fe87d3e7cf2a681119d768391e182ed4dfd33497e288f602062005ea462008c4c565b62005eae6200b6cf565b151560ff1960e1541660ff82161760e155604051908152a1005b346200484d5762005edd620056213662008bde565b9061ffff811162006068575f5260100160205260405f206040519062005f038262008fbe565b5463ffffffff811682528060201c60ff169062005f208262008aef565b81602084015260408301928160281c62ffffff168452606081018260401c64ffffffffff168152608082018360681c61ffff16815260a083018460781c63ffffffff16815260c08401908560981c61ffff16825260e08501928660a81c61ffff1684526101008601948760b81c61ffff1686526101208701968860c81c61ffff16885261014081019860d81c61ffff1689525163ffffffff169962005fc58a62008aef565b5162ffffff16905164ffffffffff16915161ffff16925163ffffffff16935161ffff16945161ffff16955161ffff16965161ffff16975161ffff16986040519a620060108c62008fbe565b8b526200601d8162008aef565b60208b015260408a01526060890152608088015260a087015260c086015260e08501526101008401526101208301526101408201526040519081620060629162008ec9565b61016090f35b630c8f0a6960e41b5f526004525f60245261ffff60445260645ffd5b346200484d5760203660031901126200484d576004356001600160401b0381116200484d57620060b990369060040162008cc3565b335f5260db60205260ff60405f205416156200495f57620060d96200bbf5565b62004950576200494e916200a991565b346200484d575f3660031901126200484d57602060ff60e154166040519015158152f35b346200484d576200611e3662008bde565b90620061296200b6cf565b62006134816200b67e565b6001600160501b03600382015460501c1683811062006189577f6cbcbbf194e245478b88cdee7b07dd6402cf492bcef0df03eae198637a072474604084866200617e81876200d7cb565b62004ac7816200b86a565b839062fae2d560e21b5f5260045260245260445ffd5b346200484d5760203660031901126200484d577fb405a09f729f41978995eba596767f10784a912a3e8d56a978e5e167c1b23d7d6020620061df62008c4c565b620061e96200b6cf565b60c95481156200621c576001905b600160ff620062056200bbeb565b9316831b921b19161760c9556040519015158152a1005b5f90620061f7565b346200484d5760a03660031901126200484d576200624162008bb3565b60643561ffff811681036200484d576084359060028210156200484d57335f5260dc60205260ff60405f20541615620055f9576200627e6200bbf5565b62004950576200494e926024356004356200a5ad565b346200484d5760403660031901126200484d57620062b162008b9f565b335f5260db60205260ff60405f205416156200495f57620062d16200bbf5565b62004950576200494e9063ffffffff620062ed6004356200b67e565b9116906200ba30565b346200484d5760203660031901126200484d577f06d9a2e5d1f47e8b66c517104114f36514593b09c9b90cb622a6883e595d4bcd6020600435620063396200b6cf565b62006344816200b86a565b620063528160cc54620099e8565b60cc5562004d8a816001600160a01b0360cb5416309033906200d0c8565b346200484d575f3660031901126200484d576001600160a01b037f0000000000000000000000000000000000000000000000000000000000000000163003620063dd5760206040517f360894a13ba1a3210667c828492db98dca3e2076cc3735a920a3ca505d382bbc8152f35b60405162461bcd60e51b815260206004820152603860248201527f555550535570677261646561626c653a206d757374206e6f742062652063616c60448201527f6c6564207468726f7567682064656c656761746563616c6c00000000000000006064820152608490fd5b346200484d57620064593662008eaa565b620064669391936200b6cf565b62006471826200b67e565b6200648882620064828787620099e8565b620099e8565b90620186a082116200661057620186a0851162005e065760010180547fffffffffffffffffffffffff000000ffffffffffffffffffffffffffffffffff16608886901b73ffffff000000000000000000000000000000000016178155620186a08611620065f65780547fffffffffffffffffff000000ffffffffffffffffffffffffffffffffffffffff1660a087901b76ffffff000000000000000000000000000000000000000016178155620186a08311620065dc5780547fffffffffffff000000ffffffffffffffffffffffffffffffffffffffffffffff79ffffff0000000000000000000000000000000000000000000000808660b81b16169116179055620186a00390620186a082116200458d577f58735d184c71d18d22f8f2eb43be3e299cad7d465faac909163477072a58f9e99460a0946040519485526020850152604084015260608301526080820152a1005b826395d41f3f60e01b5f52600452620186a060245260445ffd5b856395d41f3f60e01b5f52600452620186a060245260445ffd5b5050604051631121702960e01b815260048101929092526024820192909252604481018390526064810191909152608490fd5b346200484d5760203660031901126200484d575f610100604051620066688162008fa1565b8281528260208201528260408201528260608201528260808201528260a08201528260c08201528260e082015201526001620066a66004356200b67e565b015462ffffff8160401c1662ffffff8260581c1691620066c78383620099e8565b620186a00392620186a084116200458d5762ffffff8260881c1662ffffff8360a01c1662ffffff8460b81c16916200670583620064828484620099e8565b620186a00393620186a085116200458d576101209760405191620067298362008fa1565b888352602083019081526040830191825260ff610100606085019462ffffff8b60701c1686526080810196875260a0810197885260c0810198895260e08101998a52019860d01c16151588526040519889525160208901525160408801525160608701525160808601525160a08501525160c08401525160e0830152511515610100820152f35b60403660031901126200484d57620067c762008bc7565b6024356001600160401b0381116200484d57620067e9903690600401620090fe565b620068576001600160a01b037f000000000000000000000000000000000000000000000000000000000000000016620068258130141562009b54565b6001600160a01b037f360894a13ba1a3210667c828492db98dca3e2076cc3735a920a3ca505d382bbc54161462009bc7565b620068616200b6cf565b7f4910fdfa16fed3260ed0e7147f7cc6da11a60208b5b9406d12a635614ffd91435460ff16156200689857506200494e9062012031565b6040516352d1902d60e01b81526001600160a01b03831690602081600481855afa5f918162006a59575b50620069245760405162461bcd60e51b815260206004820152602e60248201527f45524331393637557067726164653a206e657720696d706c656d656e7461746960448201526d6f6e206973206e6f74205555505360901b6064820152608490fd5b7f360894a13ba1a3210667c828492db98dca3e2076cc3735a920a3ca505d382bbc0362006a0257620069568362012031565b7fbc7cd75a20ee27fd9adebab32041f755214dbc6bffa90cc0225b39da2e5c2d3b5f80a2805115801590620069f9575b6200698d57005b6200494e915f8060405193620069a560608662009085565b602785527f416464726573733a206c6f772d6c6576656c2064656c65676174652063616c6c6020860152660819985a5b195960ca1b6040860152602081519101845af4620069f262016883565b9162019f02565b50600162006986565b60405162461bcd60e51b815260206004820152602960248201527f45524331393637557067726164653a20756e737570706f727465642070726f786044820152681a58589b195555525160ba1b6064820152608490fd5b9091506020813d60201162006a8a575b8162006a786020938362009085565b810103126200484d57519085620068c2565b3d915062006a69565b346200484d576101e03660031901126200484d5762006ab16200949a565b5062006abc6200bbf5565b620049505762006acc336200c311565b805f5260d560205260405f209060ff825460a01c1662006aec8162008aef565b8015158062006c2f575b62005be657506024359062006b0b826200b67e565b906044359360078510156200484d5760e435801515908181036200484d57506101043594851515958681036200484d57506101243590811515978883036200484d5760409862006c1d987f02d2bf39d2355aaa5486487e934403fd3ba3f88c73ab71938cee11931fddeb7b95610220955062006ba75a948d519687528a60208801526004358e880152606435606088015260808701906200aad1565b60843560a086015260a43560c086015260c43560e08601526101008501526101208401526101408301526101443561016083015261016435610180830152610184356101a08301526101a4356101c08301526101c4356101e0830152610200820152a161ffff600284015460781c16926200bef6565b60208251918051835201516020820152f35b5060443560078110156200484d576004141562006af6565b346200484d5760203660031901126200484d5760043562006c676200b6cf565b64e8d4a510008110801562006cd2575b62006cad576020817f2407f52a609c844e44dbad3e5a8ec9347e6aa702684e124256f81ef7504b9d1b9260d355604051908152a1005b63747693eb60e11b5f5264e8d4a51000600452655af3107a400060245260445260645ffd5b50655af3107a4000811162006c77565b346200484d5762006d0162006cf73662008eaa565b929190916200a28a565b9060405190604082019260408352815180945260206060840192015f945b80861062006d3557505082935060208301520390f35b909260206101608262006d4c600194885162008ec9565b0194019501949062006d1f565b346200484d5762006d6a3662008c91565b90335f5260da60205260ff60405f2054161562006e0f5762006d8b6200bbf5565b620049505762006d9b8262008aef565b811562006e00577f287a1a0be47186fe812cf10628edc8c56638095124099fea05c3e3f59e3a0dc69162006dd16040926200c311565b90815f5260d560205262006de881845f20620099f6565b825191825262006df88162008aef565b6020820152a1005b633f068f8760e11b5f5260045ffd5b63a37849fb60e01b5f523360045260245ffd5b346200484d5762006e3e62006e373662008e09565b9162009f52565b610c4051610c6051919290604051926080840194608085528351809652602060a0860194015f965b80881062006e8857505084955060208501526040840152151560608301520390f35b909460206101608262006e9f6001948a5162008e32565b0196019701969062006e66565b346200484d5762006ebd3662008bde565b9062006ec86200b6cf565b62006ed3816200b67e565b620186a08311620065dc57600101805470ffffff00000000000000000000000000001916607084901b70ffffff0000000000000000000000000000161790556040805191825260208201929092527f82af0435eb6aa1e7cd302eaf1f32e10e8d7bb8e96d1f724a6006fbaa4571890f9190a1005b346200484d5762006f583662008dc9565b90335f5260dc60205260ff60405f20541615620055f95762006f796200bbf5565b62004950576200494e9262009dd7565b346200484d5760203660031901126200484d57602061ffff600262006fb06004356200b67e565b015460781c16604051908152f35b346200484d5760203660031901126200484d576001600160a01b0362006fe362008bc7565b165f5260df602052602060ff60405f2054166040519015158152f35b346200484d575f3660031901126200484d576020620036ec6200c57e565b346200484d5760203660031901126200484d5760406009620070416004356200b67e565b015460ff82519161ffff8160301c168352831c166020820152f35b346200484d5760403660031901126200484d576004356001600160401b0381116200484d57366023820112156200484d578060040135906001600160401b0382116200484d573660246101e08402830101116200484d57620070bd62008c3c565b620070c76200bbf5565b620049505762000763926024620070df930162009c72565b6040519182918262008bf5565b346200484d5760203660031901126200484d576200710c6004356200b67e565b600a810154906120206040519162007125828462009085565b61010083526020830191601f1901368337600b81015f5b6101008110620071a1575050600961ffff91015460201c166040519260608401948452606060208501525180945260808301915f945b8086106200718857505082935060408301520390f35b9092602080600192865181520194019501949062007172565b806001915f528260205260405f2054620071bc828862009527565b52016200713c565b346200484d5760203660031901126200484d57620071e162008bc7565b6200721d6001600160a01b037f000000000000000000000000000000000000000000000000000000000000000016620068258130141562009b54565b620072276200b6cf565b60405190602062007239818462009085565b5f8352808301601f1982013682377f4910fdfa16fed3260ed0e7147f7cc6da11a60208b5b9406d12a635614ffd91435460ff1615620072805750506200494e915062012031565b6001600160a01b03839293166040516352d1902d60e01b81528481600481855afa5f918162007434575b506200730c5760405162461bcd60e51b815260048101869052602e60248201527f45524331393637557067726164653a206e657720696d706c656d656e7461746960448201526d6f6e206973206e6f74205555505360901b6064820152608490fd5b7f360894a13ba1a3210667c828492db98dca3e2076cc3735a920a3ca505d382bbc03620073dd576200733e8362012031565b7fbc7cd75a20ee27fd9adebab32041f755214dbc6bffa90cc0225b39da2e5c2d3b5f80a2835115801590620073d5575b6200737557005b5f80916200494e957f416464726573733a206c6f772d6c6576656c2064656c65676174652063616c6c60405196620073af60608962009085565b60278852870152660819985a5b195960ca1b60408701525190845af4620069f262016883565b505f6200736e565b60405162461bcd60e51b815260048101859052602960248201527f45524331393637557067726164653a20756e737570706f727465642070726f786044820152681a58589b195555525160ba1b6064820152608490fd5b9091508581813d831162007461575b6200744f818362009085565b810103126200484d57519087620072aa565b503d62007443565b346200484d5760403660031901126200484d577ffff8b0b240abf69d0ca9160bd7dcc49339068496d45e0bf7aab7468fc6a6c2c7600435620074aa62008c3c565b90620074b56200b6cf565b6001620074c2826200b67e565b0180547fffffffffff00ffffffffffffffffffffffffffffffffffffffffffffffffffff7aff000000000000000000000000000000000000000000000000000085151560d01b16911617905562004e5660405192839283909291602090604083019483521515910152565b346200484d576200753e3662008bde565b620075486200b6cf565b62007553826200b67e565b60018210801562007629575b6200760c5760020160ff815460e01c1680831015620075f65781547fffffffff00ffffffffffffffffffffffffffffffffffffffffffffffffffffff1660d884901b7bff0000000000000000000000000000000000000000000000000000001617825560408051858152602081018590527ff4b59dd9ee04b23a163fa42f622d424f19a1cc0f76d4455f900106cef0e3c5129190a1005b82630ba8360160e41b5f5260045260245260445ffd5b50630c8f0a6960e41b5f526004526001602452606460445260645ffd5b50606482116200755f565b346200484d5760203660031901126200484d57600435620076546200b6cf565b6309c3d8f0808211620076a7575060c95460e391612710613fff9104831b921b19161760c9557fcd3426b08e2946f33fe401b723f71049867976631425553ecf95848fc4b088a9602062004d8a6200c558565b90630c8f0a6960e41b5f526004525f60245260445260645ffd5b346200484d57620076de620076d63662008bde565b91906200b728565b905f526003810160205260405f20549061ffff8260401c1690620077028262009a79565b91600263ffffffff5f95169201915b801515806200774b575b1562004a39575f528160205263ffffffff60405f206200773f62004a0d8762009ad2565b505460201c1662007711565b508185106200771b565b346200484d5760403660031901126200484d576200777262008bc7565b7f8b91d2cd88f6e870c2beaa65e6299f6dee33511ff403ab0ffb32f926e3a9a28360206001600160a01b03620077a762008c3c565b93620077b26200b6cf565b1692835f5260d48252620077d58160405f209060ff801983541691151516179055565b6040519015158152a2005b346200484d57620077f13662008bde565b620077fb6200b6cf565b60c9546001600160701b031681811062004da857506200781b826200b728565b9160ff835460a01c166200782f8162008aef565b6002811462005be6575062004e566001600160501b037f85b48f5618e9d5b21320fb47ad01cfbf4f739a3e7f7950a445c97099d578911e9462007872856200c41c565b62005bbc85826200c53f565b346200484d576200788f3662008cf6565b90335f5260da60205260ff60405f2054161562006e0f57620078b06200bbf5565b62004950576103fc8311620078fd57825f5260d960205260405f2092620078d7846200c481565b620078eb575060096200494e93016200c4a8565b63b934a7fb60e01b5f5260045260245ffd5b8263324f0d9160e21b5f5260045260245ffd5b346200484d5760203660031901126200484d57600435620079306200b6cf565b60c9546001600160701b031681811062004da8577f3926c691232881614240a3ec84f5910abdac662ecb616cf8ab9b9fe44d932bc860208362007973816200c41c565b62004d8a816200c434565b346200484d5760203660031901126200484d5760406011620079a26004356200b67e565b015463ffffffff825191818116835260201c166020820152f35b346200484d577f287a1a0be47186fe812cf10628edc8c56638095124099fea05c3e3f59e3a0dc6604062006dd1620079f43662008c91565b919062007a006200b6cf565b6200c311565b346200484d5762007a173662008c6c565b909162007a236200bbf5565b620049505762007a33336200c311565b62007a3e816200b728565b9060ff825460a01c1662007a528162008aef565b8062005be6575062007a64836200b67e565b62007a7760ff825460c01c16856200c369565b506002810154606462007ab864ffffffffff808416818560281c168082115f1462007c7657505b169260ff64ffffffffff8260501c169160e81c166200942e565b04908181101562007c5d5750506001600160501b03861162007c3f57601290825f520160205260405f209164ffffffffff835460b81c161562007c2857607842018042116200458d5763ffffffff16956040519660608801948886106001600160401b03871117620046d0577fd990ce6190d58ffb8c06ec564b7ebdac6a21afe5b067513aba6cbf478ccac6e9986101009864ffffffffff97604052838252602082016001600160501b0386168152600460408401921515978884528b5f520160205263ffffffff8060405f209451161663ffffffff1984541617835551906dffffffffffffffffffff000000006eff000000000000000000000000000084549251151560701b169260201b16906effffffffffffffffffffff000000001916171790555493604051968752602087015260408601526060850152608084015262007c0d60a0840160ff8360401c1662008e24565b63ffffffff8160981c1660c084015260b81c1660e0820152a1005b50826334a4033d60e11b5f5260045260245260445ffd5b856395d41f3f60e01b5f526004526001600160501b0360245260445ffd5b8563a086029960e01b5f5260045260245260445260645ffd5b905062007a9e565b346200484d575f3660031901126200484d576020620036ec6200c345565b346200484d5762007cad3662008bde565b9062007cb86200b6cf565b613a98821162007d1457807f70df7db68793145153f083606826dfc0e51ef634e3d99f5a8ff74d7fd27405e69262004ac762007cf66040946200b67e565b600201805461ffff60981b1916609884901b61ffff60981b16179055565b631b71514f60e11b5f52600452602452613a9860445260645ffd5b346200484d5760203660031901126200484d576200076362007d6562007d5462008bc7565b62007d5e620092c7565b506200c311565b62007dce600562007d76836200b728565b805460ff8160a01c166001600160501b03600184015460601c926040519762007d9f8962008f85565b8852818116602089015260501c16604087015262007dbd8162008aef565b60608601526080850152016200931c565b60a08201526040519182918262008afa565b346200484d5760203660031901126200484d57602061ffff600262007e076004356200b67e565b015460881c16604051908152f35b346200484d5762007e263662008bde565b335f5260da60205260ff60405f2054161562006e0f5762007e466200bbf5565b62004950576200494e916200995f565b346200484d5760403660031901126200484d577f44f632293c2bd117a0d277a1057b0a5495dfbd57d2e3636bb80f0912ee6d0ba962007e9462008bc7565b62007e9e62008c3c565b9062007ea96200b6cf565b811562007ef4576001600160a01b0381165f5260dc60205260405f20600160ff19825416179055604080516001600160a01b0390921682529115156020820152908190810162004e56565b6001600160a01b0381165f5260dc60205260405f2060ff19815416905562004e37565b346200484d5760203660031901126200484d576004356001600160401b0381116200484d57366023820112156200484d578060040135906001600160401b0382116200484d573660246102c08402830101116200484d57335f5260da60205260ff60405f2054161562006e0f5762007f8e6200bbf5565b620049505762000763916024620070df92016200953c565b346200484d575f3660031901126200484d5760d7545f1981019081116200458d57602090604051908152f35b346200484d5762007fe33662008bde565b62007fed6200b6cf565b61012c80821162008079577fd947284a0ec09f0204c4d87a28d7f12ae5979a8c58b1456b5aa2c5066f9732956040848462008028826200b67e565b80547fffffffffffffffffffff0000ffffffffffffffffffffffffffffffffffffffff1660a083901b75ffff00000000000000000000000000000000000000001617905582519182526020820152a1005b916335d09a8f60e21b5f5260045260245260445260645ffd5b346200484d575f3660031901126200484d57602060405161217b8152f35b346200484d5760203660031901126200484d576001600160a01b03620080d562008bc7565b165f5260da602052602060ff60405f2054166040519015158152f35b346200484d5760403660031901126200484d576200494e6200811262008b9f565b6200811c6200b6cf565b63ffffffff6200812e6004356200b67e565b9116906200b893565b346200484d5760203660031901126200484d57600435620081576200b6cf565b62008162816200b67e565b60ff815460c01c1660058110156200522d5760028103620081c2577fd92eee87539b24ad02a6f03980106354cd078a3eb9c2c4257685215063c61ecd602084845f6004820155600160c01b60ff60c01b19825416179055604051908152a1005b6313295a4960e11b5f526004839052620081dc9062008ad2565b60445ffd5b346200484d5760403660031901126200484d576004356001600160401b0381116200484d576200821690369060040162008b6c565b906024356001600160401b0381116200484d576200823990369060040162008b6c565b91620082446200b6cf565b6101025f5460ff8160081c161580620084a9575b620082639062009350565b61ffff1916175f556103fe84116200849057617fc09360405162008288868262009085565b853682375f5b8281106200841c575050505060058211620084045760405192620082b3818562009085565b3684375f5b828110620082f65761ff00195f54165f557f7f26b83ff96e1f2b6a682f133852f6798a09c465da95921460cefb3847402498602060405160028152a1005b62008303818484620093df565b35602062008313838686620093df565b013562008321828762009404565b51620083f15790600192918362008339838962009404565b5262008345826200b67e565b9160038301926001600160501b03845416808411620083a457506001600160501b037f5ea05cf9dabb3f18355e9f9abd6e540958c25d71644ade08c1c957e06e96e9899462005bb18562008399946200b83b565b0390a15b01620082b8565b6040805193845260208401949094526001600160501b0316928201929092527f19a55a94f55603626b8e33b7a9d56532132220840b0a2b1d2c7c42e0dbfd5ce2925060609150a16200839d565b5063610f141960e11b5f5260045260245ffd5b50639db463fd60e01b5f52600452600560245260445ffd5b62008429818486620093df565b3562008435816200b67e565b9062008442818562009404565b516200847e576001929181846200845e62008477948862009404565b5260206200846e85898b620093df565b0135916200b798565b016200828e565b63134b3b9960e31b5f5260045260245ffd5b836314891e3160e21b5f526004526103fe60245260445ffd5b50600260ff82161062008258565b346200484d5760203660031901126200484d5762000763600435620084db620092c7565b5062007dce600562007d76836200b728565b346200484d5760403660031901126200484d57600435602435620085106200b6cf565b6200851b826200b67e565b60ff815460c01c1660058110156200522d57806200857f57506001600160a01b0360ca54168015620059a9577f9c03c6796385c736172929a88c5f8c4fc7c287d6df80c75f290d4f18ca9ece726040858580600687015582519182526020820152a1005b630d76efe360e41b5f526004849052620081dc9062008ad2565b346200484d5760203660031901126200484d57600435620085b96200b6cf565b60ff620085c6826200b67e565b5460c01c1660058110156200522d57600281036200860b577f5fa123d2cd3b174872bde6224d3ecc37811a5b365b5c481672f7ff0cb5bfd6c4602083604051908152a1005b620081dc916313295a4960e11b5f5260045262008ad2565b346200484d5760203660031901126200484d57620086418162008f68565b606081526020810160609052604081015f9052606081015f9052608081015f905260a081015f905260c081015f905260e081015f905261010081015f905261012081015f905261014081015f905261016081015f905261018081015f90526101a081015f90526101c081015f90526101e081015f905261020081015f905261022081015f905261024081015f905261026081015f905261028081015f90526102a081015f90526102c081015f90526102e081015f905261030081015f905261032081015f905261034081015f905261036081015f905261038081015f90526103a0015f905260043562008734906200b67e565b8054600682015460018301549160038401549260028501549360098601549360405196620087628862008f68565b62008770600782016200920e565b885260080162008780906200920e565b60208801528360b01c60ff1660408801528360b81c60ff16606088015260808701528260901c61ffff1660a08701528160d81c63ffffffff1660c08701528160f81c60e08701528260a01c61ffff166101008701526001600160501b03811661012087015260501c6001600160501b031661014086015263ffffffff82166101608601528160201c63ffffffff1661018086015263ffffffff81166101a086015260201c63ffffffff166101c08501528060401c63ffffffff166101e08501528060601c63ffffffff1661020085015264ffffffffff83166102208501528260281c64ffffffffff166102408501528060c81c63ffffffff166102608501528060801c60010b6102808501528260981c61ffff166102a085015260c01c60ff166102c0840190620088b191620092ba565b63ffffffff81166102e08401528060781c62ffffff166103008401528060901c62ffffff166103208401528060481c62ffffff166103408401528060601c62ffffff1661036084015260201c61ffff1661038083015260f01c60ff1615156103a08201526040518091602082528051602083016103c090526103e08301620089399162008aae565b6020820151838203601f1901604085015262008956919062008aae565b906040810151606084015260608101516080840152608081015160a084015260a081015160c084015260c081015160e084015260e08101516101008401526101008101516101208401526101208101516101408401526101408101516101608401526101608101516101808401526101808101516101a08401526101a08101516101c08401526101c08101516101e08401526101e081015161020084015261020081015161022084015261022081015161024084015261024081015161026084015261026081015161028084015261028081015160010b6102a08401526102a08101516102c08401526102c08101516102e0840162008a559162008ae1565b6102e08101516103008401526103008101516103208401526103208101516103408401526103408101516103608401526103608101516103808401526103808101516103a08401526103a0015115156103c08301520390f35b805180835260209291819084018484015e5f828201840152601f01601f1916010190565b60058110156200522d57602452565b9060058210156200522d5752565b600411156200522d57565b919091610100606060a06101208401958051855260208101516020860152604081015160408601528281015162008b318162008aef565b838601526001600160a01b0360808201511660808601520151805160a0850152602081015160c0850152604081015160e08501520151910152565b9181601f840112156200484d578235916001600160401b0383116200484d576020808501948460061b0101116200484d57565b6024359063ffffffff821682036200484d57565b6044359063ffffffff821682036200484d57565b600435906001600160a01b03821682036200484d57565b60409060031901126200484d576004359060243590565b60206040818301928281528451809452019201905f5b81811062008c195750505090565b825180518552602090810151818601526040909401939092019160010162008c0b565b6024359081151582036200484d57565b6004359081151582036200484d57565b6064359081151582036200484d57565b60609060031901126200484d57600435906024359060443580151581036200484d5790565b60409060031901126200484d576004356001600160a01b03811681036200484d579060243560048110156200484d5790565b9181601f840112156200484d578235916001600160401b0383116200484d576020808501948460051b0101116200484d57565b9060406003198301126200484d5760043591602435906001600160401b0382116200484d5762008d299160040162008cc3565b9091565b60206040818301928281528451809452019201905f5b81811062008d515750505090565b909192602060c06001926001600160501b0360a0885163ffffffff815116845263ffffffff86820151168685015263ffffffff6040820151166040850152606081015162008d9f8162008aef565b606085015260808181015164ffffffffff169085015201511660a082015201940192910162008d43565b60406003198201126200484d57600435906001600160401b0382116200484d5762008df79160040162008cc3565b909160243580151581036200484d5790565b60609060031901126200484d57600435906024359060443590565b9060028210156200522d5752565b610140809180518452602081015160208501526040810151604085015262008e636060820151606086019062008e24565b6080810151608085015260a081015160a085015260c081015160c085015260e081015160e08501526101008101516101008501526101208101516101208501520151910152565b60809060031901126200484d5760043590602435906044359060643590565b61ffff610140809263ffffffff8151168552602081015162008eeb8162008aef565b602086015262ffffff604082015116604086015264ffffffffff606082015116606086015282608082015116608086015263ffffffff60a08201511660a08601528260c08201511660c08601528260e08201511660e086015282610100820151166101008601528261012082015116610120860152015116910152565b6103c081019081106001600160401b03821117620046d057604052565b60c081019081106001600160401b03821117620046d057604052565b61012081019081106001600160401b03821117620046d057604052565b61016081019081106001600160401b03821117620046d057604052565b60e081019081106001600160401b03821117620046d057604052565b6103e081019081106001600160401b03821117620046d057604052565b61018081019081106001600160401b03821117620046d057604052565b608081019081106001600160401b03821117620046d057604052565b604081019081106001600160401b03821117620046d057604052565b60a081019081106001600160401b03821117620046d057604052565b90601f801991011681019081106001600160401b03821117620046d057604052565b6001600160401b038111620046d057601f01601f191660200190565b929192620090d182620090a7565b91620090e1604051938462009085565b8294818452818301116200484d578281602093845f960137010152565b9080601f830112156200484d578160206200911c93359101620090c3565b90565b6101608091805184526020810151602085015260408101516040850152620091506060820151606086019062008e24565b6080810151608085015260a081015160a085015260c081015160c085015260e081015160e08501526101008101516101008501526101208101516101208501526101408101516101408501520151910152565b9181601f840112156200484d578235916001600160401b0383116200484d57602083818601950101116200484d57565b90600182811c9216801562009203575b6020831014620091ef57565b634e487b7160e01b5f52602260045260245ffd5b91607f1691620091e3565b9060405191825f8254926200922384620091d3565b80845293600181169081156200929657506001146200924e575b506200924c9250038362009085565b565b90505f9291925260205f20905f915b818310620092795750509060206200924c928201015f6200923d565b60209193508060019154838589010152019101909184926200925d565b9050602092506200924c94915060ff191682840152151560051b8201015f6200923d565b60058210156200522d5752565b60405190620092d68262008f85565b815f81525f60208201525f60408201525f60608201525f608082015260a060405191620093038362009031565b5f83525f60208401525f60408401525f60608401520152565b906040516200932b8162009031565b6060600382948054845260018101546020850152600281015460408501520154910152565b156200935857565b60405162461bcd60e51b815260206004820152602e60248201527f496e697469616c697a61626c653a20636f6e747261637420697320616c72656160448201527f647920696e697469616c697a65640000000000000000000000000000000000006064820152608490fd5b15620093cb57565b634e487b7160e01b5f52600160045260245ffd5b9190811015620093f05760061b0190565b634e487b7160e01b5f52603260045260245ffd5b906103fe811015620093f05760051b0190565b906030820291808304603014901517156200458d57565b818102929181159184041417156200458d57565b6102fc198101919082116200458d57565b6101fc198101919082116200458d57565b60fc198101919082116200458d57565b919082039182116200458d57565b6001600160401b038111620046d05760051b60200190565b60405190620094a9826200904d565b5f6020838281520152565b90620094c08262009482565b620094cf604051918262009085565b8281528092620094e2601f199162009482565b01905f5b828110620094f357505050565b60209060405162009504816200904d565b5f81525f8382015282828501015201620094e6565b3580151581036200484d5790565b8051821015620093f05760209160051b010190565b916200954882620094b4565b80511562009959578215620093f0578391604085016060860135956200956e876200b67e565b925f5b87811015620099235780620098e8575b8635906200959185838c6200bc0b565b815f5260d560205260405f2085620095ad6102208b0162009519565b6102408b0135949080156200988157856200984a5763ffffffff600185015460401c165f63ffffffff8281873516031660030b13156200980f57505b851515908162009783575b845460ff8160a01c16620096088162008aef565b806200973b575060a81c60ff1615620097085715620096f5577f4b33653917eefdb992cac4fb999fcecfc80848487b46a9f1fbe97ef541aafa195f80a1620096528335856200bebd565b15620096bd575050506102608801359160068310156200484d5760807fd3b7d0aa2cb3540e154ebb47122cf86e0db24117323b827d28da43422fcd57d89160019460405191825260208201526102808b013560408201526102a08b01356060820152a15b0162009571565b6001945090620096d5929160208c0135928a6200bff1565b620096e1828962009527565b52620096ee818862009527565b50620096b6565b620097028335856200be65565b62009652565b5050505050600191507fcb7f793535461714e08fcb65e21b3379d2aedbf9c04354ade356a824dcefe9f55f80a1620096b6565b9350505050600194507fe0860e5ff8578b025fc8a7f42c449c575b7a19600e8d2b3fd6ab0ae6e2e08403925060209150604051906200977a8162008aef565b8152a1620096b6565b6200979963ffffffff60098d015416886200bd15565b620098005761018084013580151580620097f6575b620097ba5750620095f4565b92505050600194507f9f38a7d29e6c9e707bfe5fee47b29748083dc31546de0135d48ed99db5e190f0925060209150604051908152a1620096b6565b50438110620097ae565b505050505060019150620096b6565b915050600194507f47313d3b2b870c5a3200f25c5f8d5ce9ea5d073955f16e6f70104ddca4be5fdc925060209150604051908152a1620096b6565b505050507f2b022c762977afd239365173c87fc0b706c64f8a7b328ca79b3465468eba835a6020600193604051908152a1620096b6565b63ffffffff600185015460201c165f63ffffffff8281873516031660030b1315620098ad5750620095e9565b915050600194507f6be50b396ca4962b3810cd9e65b8160cd24180a1e7adbc2c795e8dd090891284925060209150604051908152a1620096b6565b6102c08102830196506040870193506060870135808a036200990c575b5062009581565b985093506200991b886200b67e565b935f62009905565b5095505050509250507fc2813e86d911b51775079b03b9fcab443ec450bc1634cf75dd578874a0af7add60205a604051908152a1565b92509050565b6040907fa04001d82f77cdc968e0f2d5a478c76bb47ca32033001fe324c0f1bf89446ecd926200999a8162009994846200b728565b6200bebd565b82519182526020820152a1565b8115620099b2570490565b634e487b7160e01b5f52601260045260245ffd5b60010190816001116200458d57565b62ffffff01908162ffffff116200458d57565b919082018092116200458d57565b9062009a028162008aef565b7fffffffffffffffffffffff00ffffffffffffffffffffffffffffffffffffffff74ff000000000000000000000000000000000000000083549260a01b169116179055565b6040519062009a568262008f85565b5f60a0838281528260208201528260408201528260608201528260808201520152565b9062009a858262009482565b62009a94604051918262009085565b828152809262009aa7601f199162009482565b01905f5b82811062009ab857505050565b60209062009ac562009a47565b8282850101520162009aab565b5f1981146200458d5760010190565b9060405162009af08162008f85565b60a06001600160501b0382945463ffffffff8116845263ffffffff8160201c16602085015263ffffffff8160401c16604085015260ff8160601c1662009b368162008aef565b606085015264ffffffffff8160681c16608085015260901c16910152565b1562009b5c57565b60405162461bcd60e51b815260206004820152602c60248201527f46756e6374696f6e206d7573742062652063616c6c6564207468726f7567682060448201527f64656c656761746563616c6c00000000000000000000000000000000000000006064820152608490fd5b1562009bcf57565b60405162461bcd60e51b815260206004820152602c60248201527f46756e6374696f6e206d7573742062652063616c6c6564207468726f7567682060448201527f6163746976652070726f787900000000000000000000000000000000000000006064820152608490fd5b9062009c468262009482565b62009c55604051918262009085565b828152809262009c68601f199162009482565b0190602036910137565b9291909162009c81336200c311565b93845f5260d560205260405f209460ff865460a01c1662009ca28162008aef565b8062005be6575062009cb485620094b4565b9586511562009dce578515620093f05782602081013562009cd5816200b67e565b9161ffff600284015460781c16965f5b8a81101562009d96578b8a8a8362009d3a575b92809262009d1f62009d32936001968e8e8e8e62009d198f8486916200bc0b565b6200c134565b62009d2b838362009527565b5262009527565b500162009ce5565b5050506101e08102830197508b8a60208a013580870362009d5e575b508a62009cf8565b955095508699509087818a938762009d7781996200b67e565b600281015460781c61ffff169e50939b50929893945092915062009d56565b50985050505050505050507fc2813e86d911b51775079b03b9fcab443ec450bc1634cf75dd578874a0af7add60205a604051908152a1565b50919350505050565b929091821562009eec5736849003605e1901938035858112156200484d5781019283359562009e06876200b67e565b9260ff845460c01c16925f5b8881101562009ee0578062009e97575b62009e2f87868c6200c39d565b62009e8e576040880135601e19893603018112156200484d578801908135916001600160401b0383116200484d57602001918060051b360383136200484d578862009e85916001948e60208e0135908c6200c626565b505b0162009e12565b60019062009e87565b96508660051b820135838112156200484d578201968735808b0362009ebe575b5062009e22565b99509350935062009ecf886200b67e565b9360ff855460c01c16935f62009eb7565b50975050505050505050565b50915050565b6040519062009f018262008fbe565b5f610140838281528260208201528260408201528260608201528260808201528260a08201528260c08201528260e082015282610100820152826101208201520152565b60028210156200522d5752565b9192905f610c60525f610c405262009f6b5f936200b67e565b906011820154610be05262009f80826200cf26565b50505080610c6052158015610c40526200a278575b806200a271575063ffffffff610be05116935b84156200a26657801515806200a25a575b5f610c2052156200a24b57610c2052925b62009fd8610c205162009482565b62009fe7604051918262009085565b610c20518152601f1962009ffe610c205162009482565b015f5b8181106200a22b57505080948054925b610c205186106200a023575b50505050565b805f526012820160205260405f2090604051916200a0418362008fdb565b5463ffffffff8116835263ffffffff8160201c1660208401526200a06f60ff8260401c166040850162009f45565b6001600160501b038160481c16606084015263ffffffff8160981c16608084015264ffffffffff8160b81c1660a084015260e01c60c0830152604082015160028110156200522d576200a1079063ffffffff60c08501511663ffffffff6080860151169161ffff606087015160401c1660ff8a60b81c169360ff8b60b01c169364ffffffffff60a08a01511693610c60518b6200cf71565b9163ffffffff85511663ffffffff602087015116610c8052604086015160028110156200522d576001600160401b0360608801511663ffffffff608089015116906200a1a164ffffffffff60a08b0151169363ffffffff60c08c01511695604051610c00526200a17a610c005162008fbe565b8a610c0051526020610c00510152610c80516040610c005101526060610c00510162009f45565b6080610c0051015260a0610c0051015260c0610c0051015260e0610c00510152610100610c00510152610120610c00510152610140610c005101526200a2046200a1eb8862009ad2565b97610c00516200a1fc828862009527565b528562009527565b5063ffffffff610be05160201c16146200a225575163ffffffff166200a011565b6200a01d565b6020906200a23b97949762009ef2565b828286010152019592956200a001565b50611388610c20529262009fca565b50611388811062009fb9565b50606093505f925050565b9362009fa8565b63ffffffff825416610c605262009f95565b9390925f92606085156200a5a1576200a2a3876200b67e565b916200a2b387600985016200cfeb565b610c80529182156200a5945750806200a58c57505b91801515806200a580575b156200a5745791955b6200a2e78362009482565b916200a2f7604051938462009085565b838352601f196200a3088562009482565b015f5b8181106200a55457505082975b848710806200a54a575b156200a50d578088915f526010830160205260405f20604051906200a3478262008fbe565b5463ffffffff8116825260ff8160201c169160208101926200a3698162008aef565b835262ffffff8260281c1660408201918183526060810164ffffffffff8560401c1681526080820161ffff8660681c16815260a083019063ffffffff8760781c16825260c084019261ffff8860981c16845260e085019461ffff8960a81c16865261010081019661ffff8a60b81c16885261012082019c8d61ffff8c60c81c16905261ffff61014084019b60d81c168b5281036200a51757505163ffffffff169851966200a4178862008aef565b5162ffffff16905164ffffffffff16915161ffff16925163ffffffff16935161ffff16945161ffff16955161ffff16968b5161ffff16985161ffff1699604051610c6052610c60516200a46a9062008fbe565b610c6051526200a47a8162008aef565b610c605160200152610c605160400152610c605160600152610c605160800152610c605160a00152610c605160c00152610c605160e00152610c60516101000152610c60516101200152610c60516101400152876200a4d99062009ad2565b97610c60516200a4ea828862009527565b526200a4f7908662009527565b50610c8051146200a50d575161ffff166200a318565b5050505050909150565b94505050505060849250899150868f604051936324bfc58760e01b85526004850152602484015260448301526064820152fd5b508015156200a322565b6020906200a5649a969a62009ef2565b828288010152019894986200a30b565b5061138891956200a2dc565b5061138881106200a2d3565b90506200a2c8565b9597505050505091509190565b94505050925050905f90565b9291936200a5bb846200b67e565b906200a5cf60ff835460c01c16866200c369565b506200a5db836200b728565b9260ff845460a01c166200a5ef8162008aef565b8062005be657506004840196865f528760205260405f209263ffffffff84541680156200a968578042116200a9165750825f526012850160205260405f209664ffffffffff885460b81c16156200a8d05760ff885460401c1660028310156200522d5760028110156200522d578281036200a893575061ffff906200a68363ffffffff8060098a015416951694856200bd82565b5016926001841080156200a87e575b6200a847576200a6a2866200cf26565b92949290919085156200a80c575050508015806200a802575b80156200a7ec575b6200a78a57506200a7386200a6f564ffffffffff8a5460b81c1688549060ff808360b81c169260b01c16908662012bb9565b946200a731600289015460ff8160e01c169060ff8160d81c169064ffffffffff8160501c169061ffff64ffffffffff82169160b81c166200e5f6565b9062012c10565b936064810290808204606414901517156200458d576200a77d986200a75f868c9362014b27565b9654986001600160501b0360ff8b60701c169a60201c16986200d22f565b5f526020525f6040812055565b91945094507fd70dcea04756ab23b8663cb4528ddd657c55ea6dbc95b4481b62b25d028633ab965060a095506200a7d4919250604051948886526020860152604085019062008e24565b60608301526080820152a15f526020525f6040812055565b506001811480156200a6c357508284106200a6c3565b508284116200a6bb565b60028a0154604051631f466abb60e21b815260a89190911c61ffff166004820152602481019390935260448301919091526064820152608490fd5b6084898561ffff60028a015460b81c1690604051926321b82b4d60e01b845260048401526024830152600160448301526064820152fd5b5061ffff600287015460b81c1684116200a692565b604051633ea2c45d60e21b8152600481018b90526024810186905260849162000f96906200a8c5604484018762008e24565b606483019062008e24565b5050509150507f6948067a0ba575890268b9a7eaf592a5832287e4402201145ce0768a9d9533fc9250604080925051908482526020820152a15f526020525f6040812055565b604080518a8152602081019590955284015250504260608201527fb4cbbb4a79087ef85485ec777721c815de25aac9940c011694a831a77d30aa86945060809350915050a15f526020525f6040812055565b838963e2fd5a3560e01b5f5260045260245260445ffd5b3563ffffffff811681036200484d5790565b909182156200aacc575f5b8381101562009eec578060051b83013560de19843603018112156200484d578301906020820135916200a9cf836200b67e565b92604082013560038110156200484d57600181036200aa1557505060019263ffffffff6200aa0460606200aa0c94016200a97f565b16906200ba85565b505b016200a99c565b909190806200aa78575060c081013590601e19813603018212156200484d5701928335936001600160401b0385116200484d576020019184360383136200484d576200aa6a6200aa71936001963691620090c3565b916200e17d565b506200aa0e565b6001949192506002146200aa8f575b50506200aa0e565b816200aaa260606200aac494016200a97f565b91608063ffffffff6200aab860a0850162009519565b9416920135906200d86a565b5f806200aa87565b915050565b9060078210156200522d5752565b9181156200aacc578260208401906040850135946200aafe866200b67e565b935f5b868110156200acf257806200acb7575b8335906200ab2186838b6200bc0b565b60408601359160078310156200484d575f6002841415806200aca9575b80156200ac92575b6200ac3a575060019250805f5260d56020528660405f209163ffffffff8584015460201c16928235935f63ffffffff82818816031660030b13156200ac03575060ff815460a01c16936200ab9a8562008aef565b84156200abc3576200abba94506200abb390826200be65565b8a6200c23f565b505b016200ab01565b5050505060207fe0860e5ff8578b025fc8a7f42c449c575b7a19600e8d2b3fd6ab0ae6e2e0840391604051906200abfa8162008aef565b8152a16200abbc565b9150507f6be50b396ca4962b3810cd9e65b8160cd24180a1e7adbc2c795e8dd090891284925060209150604051908152a16200abbc565b90506200484d577fcbb789ca59a70c9d9ac308b2f773480d433619886320ba81e8e871690fc220c360406001936200ac766101208a0162009519565b6200ac84835180936200aad1565b15156020820152a16200abbc565b506200aca2610120890162009519565b156200ab46565b50505f60038414156200ab3e565b600981901b8301602081019550935060408401358089036200acdb575b506200ab11565b975094506200acea876200b67e565b945f6200acd4565b50955050505050507fc2813e86d911b51775079b03b9fcab443ec450bc1634cf75dd578874a0af7add60205a604051908152a1565b604d81116200458d57600a0a90565b8181106200ad42575050565b5f81556001016200ad36565b6200ad5a8154620091d3565b90816200ad65575050565b81601f5f93116001146200ad77575055565b818352602083206200ad9591601f0160051c8101906001016200ad36565b8082528160208120915555565b80156200458d575f190190565b604051906200adbe8262009014565b5f610160838281528260208201528260408201528260608201528260808201528260a08201528260c08201528260e08201528261010082015282610120820152826101408201520152565b9192905f610c60525f610c40526200ae225f936200b67e565b906011820154610be0526200ae37826200cf26565b50505080610c6052158015610c40526200b11a575b806200b113575063ffffffff610be05116935b84156200a26657801515806200b107575b5f610c2052156200b0f857610c2052925b6200ae8f610c205162009482565b6200ae9e604051918262009085565b610c20518152601f196200aeb5610c205162009482565b015f5b8181106200b0d857505080948054925b610c205186106200aed95750505050565b805f526012820160205260405f2090604051916200aef78362008fdb565b5463ffffffff8116835263ffffffff8160201c1660208401526200af2560ff8260401c166040850162009f45565b6001600160501b038160481c16606084015263ffffffff8160981c16608084015264ffffffffff8160b81c1660a084015260e01c60c0830152604082015160028110156200522d576200afbd9063ffffffff60c08501511663ffffffff6080860151169161ffff606087015160401c1660ff8a60b81c169360ff8b60b01c169364ffffffffff60a08a01511693610c60518b6200cf71565b63ffffffff8593929351169263ffffffff602087015116610c805260408601519260028410156200522d5761ffff9460608801519463ffffffff60808a0151166200b05664ffffffffff60a08c0151169263ffffffff60c08d01511694604051610c00526200b02f610c005162009014565b8b610c0051526020610c00510152610c80516040610c005101526060610c00510162009f45565b6001600160401b0387166080610c0051015260a0610c0051015260c0610c0051015260e0610c00510152610100610c00510152610120610c00510152610140610c0051015260401c16610160610c005101526200b0b76200a1eb8862009ad2565b5063ffffffff610be05160201c16146200a225575163ffffffff166200aec8565b6020906200b0e89794976200adaf565b828286010152019592956200aeb8565b50611388610c2052926200ae81565b5061138881106200ae70565b936200ae5f565b63ffffffff825416610c60526200ae4c565b908060209392818452848401375f828201840152601f01601f1916010190565b5f92918154916200b15d83620091d3565b80835292600181169081156200b1b657506001146200b17b57505050565b5f9081526020812093945091925b8383106200b19b575060209250010190565b6001816020929493945483858701015201910191906200b189565b915050602093945060ff929192191683830152151560051b010190565b9190811015620093f05760051b0190565b356001600160a01b03811681036200484d5790565b939291906200b208856200b67e565b946200b21d8560ff885460c01c16836200c39d565b6200b22d576200911c956200cb16565b5050505050505f90565b6040907fc0541f32f5c37f170acf579ae2de8be00385c7ab848fb4b1f19340fd41d58844926200999a816200b26c846200b728565b6200be65565b909182156200b334578135826200b289826200b67e565b9160ff835460c01c16915f5b878110156200b32a57806200b2eb575b6001906200b2b58786866200c39d565b6200b2e5576200b2de876200b2cd60608b0162009519565b60408b013560208c01358a62010b1b565b016200b295565b6200b2de565b95508560071b81019586358084036200b306575b506200b2a5565b9250925092506200b317816200b67e565b92600160ff855460c01c1693906200b2ff565b5050505050505050565b505050565b81156200b67a57808135926200b34f846200b67e565b93600985019260ff865460c01c1660058110156200522d5715925f5b8181106200b37d575050505050505050565b806200b623575b6001906020840135801580156200b617575b6200b61057805f526007880160205260405f209063ffffffff825416156200b608578154918b63ffffffff841691825f5260d56020528960405f20958d6200b3e763ffffffff8360781c1662010c99565b9182156200b5ff575b82156200b5e1575b82156200b4c9575b5050156200b48d577f3669d8cc87cc659246c535cf34b73f019e2da2a48e04d14093701e877fb6eac69561ffff60026200b482956200b4456200b452968a9662010cd7565b015460a81c169062010def565b6200b45e848d62011181565b6040519384938b859094939260609260808301968352602083015260408201520152565b0390a15b016200b36b565b505050507fa2f88eaf96334c482f1071c105643f009253e044dc7767b94cd01f787c7d92ad91506040908151908882526020820152a16200b486565b9091505f915461ffff8160301c1661ffff8260201c16116200b4f0575b50508d5f6200b400565b60ff8160401c166200b50860ff8460201c166201155e565b156200b5795762ffffff808360781c169260901c1691801515806200b56f575b6200b53b575b505050505b5f806200b4e6565b62ffffff93945082916200b5586200b55e9462004c619362009474565b62014b27565b9160281c1611155f8080806200b52e565b508215156200b528565b62ffffff808360481c169260601c16821515806200b5d7575b6200b5a2575b505050506200b533565b62ffffff93945082916200b5586200b5bf926200b5c69562009474565b9062009474565b9160281c1610155f8080806200b598565b508015156200b592565b915060ff885460a01c166200b5f68162008aef565b1515916200b3f8565b8e92506200b3f0565b50506200b486565b506200b486565b5061ffff81116200b396565b91506200b632828288620093df565b9182358085036200b645575b506200b384565b93509350935094506200b658816200b67e565b94600986019360ff875460c01c1660058110156200522d57159360016200b63e565b5050565b906103fc82116200b6bc57815f5260d960205260405f20916200b6a1836200c481565b156200b6aa5750565b63264fcda560e11b5f5260045260245ffd5b5063324f0d9160e21b5f5260045260245ffd5b6001600160a01b036033541633036200b6e457565b606460405162461bcd60e51b815260206004820152602060248201527f4f776e61626c653a2063616c6c6572206973206e6f7420746865206f776e65726044820152fd5b906001821080156200b78a575b6200b76a57815f5260d560205260405f2091600183015460601c156200b7585750565b6305b58f2560e51b5f5260045260245ffd5b50630c8f0a6960e41b5f52600452600160245263ffffffff60445260645ffd5b5063ffffffff82116200b735565b919091600482116200b81f5760020180547effffffffffffffffffffffffffffffffffffffffffffffffffffffffffffff1660f883901b7fff00000000000000000000000000000000000000000000000000000000000000161790557fadcb9d4361f4e7a9b24f7e64233ca46ad439a4a73c432dc31165fbdefd6f8377916040916200999a565b5090631c20e8bf60e31b5f52600452602452600460445260645ffd5b6001600160501b036200b8576003829301938285541662011577565b16166001600160501b0319825416179055565b6200b88260c954916001600160701b0383166201160c565b906001600160701b0319161760c955565b90915f926002830192835461ffff8160a81c169582549160ff8360c01c1660058110156200522d57600381036200b8d75788633534376760e21b5f5260045260245ffd5b96979596949593946002146200ba1d5760f01c60ff16159081806200ba09575b6200b9fe576200b914600163ffffffff600988015416886200bdce565b6200b9f557506200b991575b5050805467ffffffffffffffff191663ffffffff8316174260201b63ffffffff60201b161790557f65ec400f2e8b22c7064f99991d01828c6a55acaa066b3fdba3bf5a491b1a6a4c905b92546040805160a89290921c61ffff1682526020820194909452600193819081015b0390a1565b61ffff63ffffffff8260401c169160901c16906200b9b1828287620156ce565b156200b9be57506200b920565b6040516307311a2960e31b815261ffff93909316600484015260248301949094526044820193909352606481019290925250608490fd5b96505050505050565b505f96505050505050565b506200ba17600186620116ce565b6200b8f7565b8363aa5493c360e01b5f5260045260245ffd5b91905f926002810193845461ffff8160a81c169160ff8454926200ba5a828560c01c16866200eb3c565b5060f01c16159081806200ba09576200b9fe576200b914600163ffffffff600988015416886200bdce565b91905f926002810193845461ffff8160a81c169060ff8454916200baaf828460c01c16856200eb3c565b5060f01c161580806200bbc6575b6200b9fe576200bad95f63ffffffff600988015416886200bdce565b6200bbbc576200bb35575b5050815467ffffffffffffffff191663ffffffff8416174260201b63ffffffff60201b1617909155507f65ec400f2e8b22c7064f99991d01828c6a55acaa066b3fdba3bf5a491b1a6a4c906200b96a565b61ffff63ffffffff8260401c169160901c16906200bb55828288620156ce565b156200bb6257506200bae4565b6200bbb692939697507f3988d14888f50c39e6b838927480e13c79fd6c5cfdfb08a1b02febe997a3571e959450604051948594859094939260609261ffff6080840197168352602083015260408201520152565b0390a190565b5091955050505050565b506200bbd35f86620116ce565b6200babd565b60e35b600e81018091116200458d5790565b6200bbdc6200bbd9565b60018060c9546200bc056200bbeb565b1c161490565b6040830135929160078410156200484d576101c0837f02d2bf39d2355aaa5486487e934403fd3ba3f88c73ab71938cee11931fddeb7b956200bc5360e0610220970162009519565b6200bc62610100840162009519565b906200bca06200bc76610120860162009519565b935a97604051998a5260208a0152853560408a0152606086013560608a015260808901906200aad1565b608084013560a088015260a084013560c088015260c084013560e08801521515610100870152151561012086015215156101408501526101408101356101608501526101608101356101808501526101808101356101a08501526101a08101358285015201356101e0830152610200820152a1565b91906200bd2d6200bd2682620099c6565b91620099d5565b8382119384156200bd76575b50836200bd44575050565b7f9c6cd57b23ccacf841857c1eb7892bef39f27d0c1197bb0bf7646c90dc7fb8709160409182519182526020820152a1565b81945011925f6200bd39565b91906200bd936200bd2682620099c6565b908381119384156200bdc3575b846200bdab57505050565b630caa980960e21b5f5260045260245260445260645ffd5b82811194506200bda0565b9291926200bde76200bde083620099c6565b92620099d5565b908083119485156200be5a575b856200be005750505050565b6200be4057507f9c6cd57b23ccacf841857c1eb7892bef39f27d0c1197bb0bf7646c90dc7fb8709160409182519182526020820152a15f8080806200a01d565b8290630caa980960e21b5f5260045260245260445260645ffd5b82821195506200bdf4565b9190916001600160401b0383116200be9f57600101805467ffffffff00000000191660209390931b63ffffffff60201b1692909217909155565b826395d41f3f60e01b5f526004526001600160401b0360245260445ffd5b9190916001600160401b0383116200be9f57600101805463ffffffff60401b191660409390931b63ffffffff60401b1692909217909155565b9291906040516200bf07816200904d565b5f81525f6020820152806200bf206001600488620117b2565b156200bfcd57506044359060078210156200484d57600482146200bfd65760ff835460a01c166200bf518162008aef565b8062005be657506200bf79600161ffff600289015460a81c1660ff895460c01c16906200c39d565b6200bfcd57600582146200bfb557506006146200bfa3575060019160045f926200911c9562011ca1565b600192506004906200911c9462011b52565b94916200911c945060019391506101a435926201134c565b94505050505090565b946200911c9450600193925060643591506024359062011a4a565b9391939290925f936040516200c007816200904d565b5f81525f6020820152806200c01e5f8686620117b2565b156200c0c6575060408401359060078210156200484d57600482146200c1145760ff835460a01c166200c0518162008aef565b806200c0d157506200c0788761ffff600287015460a81c1660ff875460c01c16906200c39d565b6200c0c657600582146200c0ae57506006146200c0a05750906200911c946001939262011ca1565b906200911c95935062011b52565b9692936200911c9695506101a091500135926201134c565b965050505050505090565b945096505050507fe0860e5ff8578b025fc8a7f42c449c575b7a19600e8d2b3fd6ab0ae6e2e08403925060209150604051906200c10e8162008aef565b8152a190565b9693929150506200911c94505f9350602060608301359201359062011a4a565b9094939291946040516200c148816200904d565b5f81525f6020820152806200c15f878686620117b2565b156200c0c6575060408401359060078210156200484d57600482146200c2215760ff835460a01c166200c1928162008aef565b806200c1e057506200c1b98761ffff600287015460a81c1660ff875460c01c16906200c39d565b6200c0c657600582146200c0ae57506006146200c0a05750906200911c945f939262011ca1565b96955096505050505062005be65760207fe0860e5ff8578b025fc8a7f42c449c575b7a19600e8d2b3fd6ab0ae6e2e0840391604051906200c10e8162008aef565b9693929150506200911c949350602060608301359201359062011a4a565b9291906040516200c250816200904d565b5f81525f6020820152806200c2675f8688620117b2565b156200bfcd575060408401359060078210156200484d57600482146200c2f5576200c2a75f61ffff600289015460a81c1660ff895460c01c16906200c39d565b6200bfcd57600582146200c2de57506006146200c2d057505f80926001926200911c9562011ca1565b915f926200911c9462011b52565b94915f9391506101a06200911c950135926201134c565b946200911c945f94935060608101359250602001359062011a4a565b6001600160a01b031690815f5260d660205260405f20549182156200c3335750565b6303a0e27760e01b5f5260045260245ffd5b60c954613fff9060d51c1661271081029080820461271014901517156200458d5790565b91905f9260058210156200522d57600482036200c384575050565b63a532a27d60e01b5f52600452620081dc915062008ad2565b909291925f9360058210156200522d57600482036200c3bb57505050565b90919293506200c404577fa532a27d068a9d4b869c6cc37b1c8edd12d861261edcad20311cfc140d1190bc916200c3fe6040928351928352602083019062008ae1565ba1600190565b620081dc9163a532a27d60e01b5f5260045262008ad2565b6200b88260c954916001600160701b03831662011577565b7fffffffffffe0000000000000000000000000ffffffffffffffffffffffffffff6200c47660c954926c1fffffffffffffffffffffffff8460701c166201160c565b60701b91161760c955565b6002015461ffff8160b81c16151590816200c49a575090565b61ffff915060c81c16151590565b91909181156200b3345763ffffffff915f5b8181106200c4c9575050505050565b6200c4d68183876200b1d3565b356001811080156200c532575b6200c528576200c4f890600781069062009474565b938085146200c51d5750600190845f52600684016020525f60408120555b016200c4ba565b93506001906200c516565b506001906200c516565b508062ffffff106200c4e3565b906001600160501b036200b8578192828554166201160c565b60c95460e35b90613fff911c1661271081029080820461271014901517156200458d5790565b60c9546200c55e6200bbd9565b916080936200c5b091979695929760a085019885526020850152604084019062008e24565b60608201520152565b9493916200c5db93918652602086015215156040850152606084019062008e24565b608082015260c060a08201528260c08201527f07ffffffffffffffffffffffffffffffffffffffffffffffffffffffffffffff83116200484d5760e09260051b809284830137010190565b9295935f9681156200cabf57835f526012850160205260405f209664ffffffffff885460b81c16156200ca68576200c65f81876200d112565b9788156200ca5c5780549160ff8360401c1660028110156200522d57808460ff6200c6e160016200c6ba8e8615610c80528054858160b01c1695869160b81c1696879264ffffffffff8260b81c169a8b9260e01c91620120fe565b9363ffffffff6001600160401b038b60481c169a60981c16938588868d610c805162012160565b9687156200c98e57505050610c80515f146200c98457848c11155b156200c91a5750995f9a5b868c106200c846575b839495969798999a9b5064ffffffffff6200c7329293945460b81c1662009474565b806200c7b75750506200c78d57927faad1caf83451874ebc06a35849e4a295d8bfa856d05d1fbac2876702c7d5074394926200c7849260ff6200924c9998965460401c165f604051978897886200c5b9565b0390a1620128cb565b9060ff62001bc09493925460401c165f60405197889763155a395f60e31b8952600489016200c5b9565b839b5081965084819596505f93506001928a8a6200c7d8978e9f9e620125b2565b156200c7fc575050506200c7ef92939450620125c9565b6200924c600192620128cb565b6200c83560e49560ff8a5460401c1690604051966350e5550560e11b8852600488015260248701525f6044870152606486019062008e24565b608484015260a483015260c4820152fd5b6200c8538c88886200b1d3565b3590815f5260128b0160205260405f209164ffffffffff835460b81c16156200c90e57825460ff8160401c1660028110156200522d5715610c8051146200c901578c88866200c8bf948e64ffffffffff5f9660b81c168881101587146200c8f85750879889956201239b565b156200c8ed57906200c8d19162009474565b9a8b156200c8e5576001905b019a6200c707565b508a6200c710565b9b600191506200c8dd565b9889956201239b565b50509b600191506200c8dd565b509b600191506200c8dd565b9b999a969798505092505091506200c96357906200bbb6917fb2f4de9c8b5c718fbc129fd73f1f19ba5c646e821e39464c1c0bdb4014b4ed6e959697604051958695866200c58b565b9062001bc09187604051958695632cbd37a760e21b8752600487016200c58b565b848c10156200c6fc565b97509750989a9c9b50509597509150506200ca09576040805195865260208601969096529484019490945263ffffffff909316606083015264ffffffffff909216608082015260a08101919091527f2e92846d5b5d5dd9cf60dd19064afe4a911e6751cdad455cb26a600db66e963c908060c081016200bbb6565b62001bc094959650604051968796632e92846d60e01b8852600488019260a09463ffffffff9164ffffffffff94999897939960c087019a8752602087015260408601521660608401521660808201520152565b50959650505050505050565b9394505050929493506200caa9577f6948067a0ba575890268b9a7eaf592a5832287e4402201145ce0768a9d9533fc9160409182519182526020820152a190565b906334a4033d60e11b5f5260045260245260445ffd5b50509391509193506200cb00577f64846a095feab375f007bd15ab65eefdf07957e365b3c7ee4711cd9dbdecabe79160409182519182526020820152a15f90565b906364846a0960e01b5f5260045260245260445ffd5b9295935f9681156200cabf576012850196845f528760205260405f2064ffffffffff815460b81c16156200cee4576200cb5082886200d112565b9182156200ced757815460ff8160401c1660028110156200522d57808a911592825460ff808260b01c169160b81c16906200cbc85f6200cba4848464ffffffffff8860b81c16809a8a8a60e01c91620120fe565b9363ffffffff6001600160401b038760481c169660981c1693858986898d62012160565b9283156200ce5a57505050835f146200ce51578087115b156200cde5575050905f905b8782106200cd16575b505082939495969798999a5064ffffffffff6200cc1792935460b81c1662009474565b806200cc9457506200cc6957927faad1caf83451874ebc06a35849e4a295d8bfa856d05d1fbac2876702c7d5074394926200c7849260ff6200924c9998965460401c166001604051978897886200c5b9565b9060ff62001bc09493925460401c16600160405197889763155a395f60e31b8952600489016200c5b9565b889a508095508294505f9150838089896001966200ccb5989b9c9d620125b2565b156200ccca57505050906200c7ef91620125c9565b60e49460ff6200cd04925460401c1690604051956350e5550560e11b87526004870152602486015260016044860152606485019062008e24565b60848301528060a483015260c4820152fd5b90916200cd258389896200b1d3565b3590815f528d60205260405f209164ffffffffff835460b81c16156200cdd957825460ff8160401c169160028310156200522d578c8f93928b931588146200cdc9576200cd929460019490939092839260b81c64ffffffffff168881106200c8f85750879889956201239b565b156200cdbe57906200cda49162009474565b9182156200cdb8576001905b01906200cbeb565b6200cbf4565b92600191506200cdb0565b505050505092600191506200cdb0565b5092600191506200cdb0565b97509c9a9b505050925050929394506200ce3057906200bbb6917f2d77916ace43e6acd02840c860e1e53ff9192b11b1e4dd447dddbcd4b5a4a5c3959697604051958695866200c58b565b9062001bc091876040519586956316bbc8b560e11b8752600487016200c58b565b8087106200cbdf565b995099509a9c9e9d505050969850509150506200ca09576040805195865260208601969096529484019490945263ffffffff909316606083015264ffffffffff909216608082015260a08101919091527f2e92846d5b5d5dd9cf60dd19064afe4a911e6751cdad455cb26a600db66e963c908060c081016200bbb6565b5096975050505050505050565b509394505050929493506200caa9577f6948067a0ba575890268b9a7eaf592a5832287e4402201145ce0768a9d9533fc9160409182519182526020820152a190565b5f9142915463ffffffff8160201c169161ffff8260a01c16915f8442116200cf5c575b156200cf525750565b63ffffffff169450565b50826200cf6a854262009474565b116200cf49565b936200cfbb8784976200cfaa936200cfc9979660026200cfc2979c9f9e6200cf9e906200cfd09f620128ff565b97909943908d62012a05565b50509a015460f81c9b868962016706565b996200942e565b926200d82a565b91620164c2565b916200cfdd83826200d1e8565b9290916200924c8262012a6a565b6006906200cffe60078406809462009474565b5f520160205260405f209080155f146200d0265750549061ffff808360081c169260181c1690565b600181036200d0435750549061ffff808360281c169260381c1690565b600281036200d0605750549061ffff808360481c169260581c1690565b600381036200d07d5750549061ffff808360681c169260781c1690565b600481036200d09a5750549061ffff808360881c169260981c1690565b6005036200d0b557549061ffff808360a81c169260b81c1690565b549061ffff808360c81c169260d81c1690565b9091926001600160a01b036200924c9481604051956323b872dd60e01b60208801521660248601521660448401526064830152606482526200d10c60848362009085565b62012ab0565b91906200d11f836200cf26565b919295909386156200d133575b5050505050565b6200d19157600201546040805160a89290921c61ffff16825260208201949094529283019190915260608201527f7d19aaecec937dccd460f6ff611aadbc7bfa5ef672ef8fb6cfaf12ea804ed4a090608090a15f808080806200d12c565b60020154604051631f466abb60e21b815260a89190911c61ffff166004820152602481019390935260448301919091526064820152608490fd5b9060018201915f6001841291129080158216911516176200458d57565b9190915f83820193841291129080158216911516176200458d57565b905f1982019182136001166200458d57565b81810392915f1380158285131691841216176200458d57565b9490929693959199988a549063ffffffff8260981c169a8b916200d2a26200d28d8a549460ff8660b81c16908c8a60ff8960b01c16928a64ffffffffff8160b81c169361ffff8260881c169360ff8360e01c9360401c16916200cf71565b50506001600160401b038660481c166200d1e8565b808d12156200d77f578c6200d2b7916200d216565b91816200d6ff575050965b604883901c6001600160401b0316610c808190525f908e908a11156200d6cd5750506200d2f3610c80518962009474565b9b6200d30c60ff8460b81c1660ff8560b01c16620099e8565b600603600681116200458d576200d3276200d338916200ad27565b64ffffffffff8660b81c166200942e565b9c819d600260ff8760401c1610156200522d575f9e60ff8760401c16155f146200d6ad576200d36c6200d373928462014b27565b906200d1e8565b9d8e5b13156200d6415750506200d3968c63ffffffff600984015416906200bd15565b6200d632578b9a8d925f610c805260019d6200d3f7918f916200d3eb925b156200d623575f905b60ff808460b81c169360b01c169164ffffffffff8a60b81c16918a60e01c8d60ff8d60401c16908b6200cf71565b5050610c80516200d1e8565b908082126200d545575b505094889488946200d48861018099956001600160501b036200d4ef9f9d9663ffffffff9f9b63ffffffff989e7fa97e56d50498d7b8acf31641413f46438d6d7d3f6e6acf04c6e7995cab8b66b29f6200d45b9262012c72565b6200d4678a886200c53f565b54955416986040519a8b5260208b015260ff60408b019160401c1662008e24565b606088015260808701526001600160401b038160481c1660a0870152610c805160c087015260981c1660e085015286610100850152610120840152610140830152610160820152a1845463ffffffff60981b1916911660981b63ffffffff60981b16178355565b156200d536576200924c906200d509610c80518262012d88565b805469ffffffffffffffffffff60481b19811670ffffffffffffffff000000000000000000909116179055565b610c80516200924c9162012d88565b909192505f82138015906200d5ae575b6200d563578d92916200d401565b9897509899505050505050507fa3cd1f19e02df00e3aa13cca19961f43eeedbfb5f34c064e278a6e2554a45088955060809450604051938452602084015260408301526060820152a1565b5060018301548060f81c6009811080156200d618575b6200554a576200d5d4906200ad27565b826200d5e657505081155b156200d555565b828411156200d608578263ffffffff818603935b60d81c16029102106200d5df565b8263ffffffff858203936200d5fa565b50602481116200d5c4565b61ffff8860881c16906200d3bd565b50505050505050505050505050565b9650965050509590507f5af9ac97cf247d243434484869b838e2197714f1588e5d33e67505161e00368799506200d6aa96975060e098949150604051978852602088015260408701526060860152608085015260a084015260ff60c084019160401c1662008e24565ba1565b506200d6be6200d6c5918362014b27565b836200d216565b9d8e6200d376565b926200d3eb6200d3f791839f9e938f906200d6f58e6001600160401b038b60481c1662009474565b610c80526200d3b4565b82829a9392116200d713575b50506200d2c2565b98909198156200d7275750965f806200d70b565b9750979a505050505050507f2d1899850ba9b9c9b74657311b57a098fafc67bacd47c2572b10b1d48158646595506200b98c929350604051948594859094939260609260808301968352602083015260408201520152565b50999a5050505050505050507f2d1899850ba9b9c9b74657311b57a098fafc67bacd47c2572b10b1d481586465945060809350604051928352602083015260408201525f6060820152a1565b906001600160501b036200d7ee60036200924c94019282845460501c1662011577565b825469ffffffffffffffffffff60501b1916911660501b69ffffffffffffffffffff60501b16179055565b600160ff1b81146200458d575f0390565b81810292915f8212600160ff1b8214166200458d5781840514901517156200458d57565b8115620099b257600160ff1b81145f198314166200458d570590565b929190925f91600282015461ffff8160a81c169583549463ffffffff8660c81c166200d897818a620111b9565b6200d8aa5f60ff8960c01c168b6200eb9d565b6200dcb6576200d8ba436200ec28565b9391929098608f43018043116200458d5785116200dc68576013890191848452826020526040842054916200d8ef8c62012dfa565b9c15809d819e6200dc5b575b506200dbc75760ff8960f01c16158080916200dbb4575b6200dba3576200d92e8663ffffffff60098f0154168d6200bdce565b6200dba3576200dae0575b5061ffff8860981c166200d94d816200d819565b8890828213156200dac3575050975b6200d968898b6200d82a565b9060f81c600503600581116200daaf57906200d9886200d98f926200ad27565b906200d84e565b60050b99849187116200da36575b50927f9c0e05c2bbc786a75afe5fed63ff9274f7c690af8ea4e843e07f2a525295c1049c9a989694926040928b6101009e9c9a9896019a8b9165ffffffffffff806200d9f46200d9ed8562009417565b9462012dfa565b9416831b921b191617179382526020522055604051978852602088015260408701526060860152608085015260a084015260050b60c08301521560e0820152a1565b5f19870191508682116200da9b57926040928b7f9c0e05c2bbc786a75afe5fed63ff9274f7c690af8ea4e843e07f2a525295c1049f9d9b9997956101009f9d9b9997946200da84916200e779565b509396989a509b9d509250929496989a9c6200d99d565b634e487b7160e01b85526011600452602485fd5b634e487b7160e01b86526011600452602486fd5b80919a925089126200dad7575b506200d95c565b98505f6200dad0565b61ffff63ffffffff8260401c169160901c16906200db0082828d620156ce565b156200db0d57506200d939565b9a509a5050505094989750505050506200db6d577f2030ce993f9f888e4d2a20dcbf75ead5d3de6742ef5fa8e75a47849a41a4af579392916200b98c91604051948594859094939260609260808301968352602083015260408201520152565b9062001bc091604051948594632030ce9960e01b8652600486019094939260609260808301968352602083015260408201520152565b505050505050505050505050505050565b506200dbc1868d620116ce565b6200d912565b505050509450945096955050506200dc25577fdd8c0c9dcb3ad98da85346fa23e456a8128ec3fc478eaacb4990e450880308cc9392916200b98c91604051948594859094939260609260808301968352602083015260408201520152565b9062001bc09160405194859463dd8c0c9d60e01b8652600486019094939260609260808301968352602083015260408201520152565b9050831615155f6200d8fb565b5050604080519a8b524360208c01528a0192909252507fe0a0c6a40b4bf56f73bec44f57f213f583e95a0be298411ea97afbe135c07d82979650869550506060850193506200b98c92505050565b505050505050505050565b600281015481549560a882901c61ffff16959460c888901c63ffffffff16949092916200dcef8689620111b9565b6200dd028160ff8b60c01c168a6200eb9d565b6200dcb6576200dd12436200ec28565b929097608f43018043116200458d5784116200e00d576013880191835f528260205260405f20549c8d6200dd468c62012dfa565b9c159c8d91826200e000575b50506200dfa25760ff8860f01c16158080916200df8f575b6200dba3576200dd868363ffffffff60098e0154168c6200bdce565b6200dba3576200df03575b505061ffff8660981c166200dda6816200d819565b8690828213156200dee6575050955b6200ddc187896200d82a565b9060f81c60050390600582116200458d576200d9886200dde1926200ad27565b60050b975f9185116200de87575b50907f9c0e05c2bbc786a75afe5fed63ff9274f7c690af8ea4e843e07f2a525295c1049b886101009c9b9a9998979695949301986200de396200de328262009417565b9162012dfa565b9165ffffffffffff808c16831b921b19161717915f5260205260405f2055604051978852602088015260408701526060860152608085015260a084015260050b60c08301521560e0820152a1565b9a99989796959493929190505f1983019b838d116200458d57876200ded17f9c0e05c2bbc786a75afe5fed63ff9274f7c690af8ea4e843e07f2a525295c1049e6101009e6200e779565b50929394959697985098999a9b509b6200ddef565b809198925087126200defa575b506200ddb5565b96505f6200def3565b61ffff63ffffffff8260401c169160901c16916200df2383838c620156ce565b156200df3057506200dd91565b99509950995050505050505094506200db6d577f2030ce993f9f888e4d2a20dcbf75ead5d3de6742ef5fa8e75a47849a41a4af579392916200b98c91604051948594859094939260609260808301968352602083015260408201520152565b506200df9c838c620116ce565b6200dd6a565b509750505095965097505050506200dc25577fdd8c0c9dcb3ad98da85346fa23e456a8128ec3fc478eaacb4990e450880308cc9392916200b98c91604051948594859094939260609260808301968352602083015260408201520152565b16151590505f8f6200dd52565b50975050975050505050506200e05d57604080519182524360208301528101919091527fe0a0c6a40b4bf56f73bec44f57f213f583e95a0be298411ea97afbe135c07d829080606081016200b98c565b63382831a960e21b5f526004524360245260445260645ffd5b90929160ff600283015460f01c166200e14b5760016200e09891858462012fae565b9490929091156200e13857805463ffffffff60401b1916604084901b63ffffffff60401b161781557f5e3f1c81da4dcfcb835cba6457aa389114f5d309917179746b46ac03953f56b29291905b80546fffffffff0000000000000000000000008760601b16906fffffffff00000000000000000000000019161790556200b98c600195604051938493846040919493926060820195825260208201520152565b5063a8c2945f60e01b5f5260045260245ffd5b50509060207f36f8ddb481e1d66678af53feb8d0fdddc463c11ce08cda4e93ac2065d26634dd91604051908152a15f90565b9291905f9160ff600286015460f01c166200e225575f6200e1a091838762012fae565b9590939091156200e1f35750805463ffffffff60401b1916604084901b63ffffffff60401b161781557f5e3f1c81da4dcfcb835cba6457aa389114f5d309917179746b46ac03953f56b29291906200e0e5565b9450507fa8c2945f7db53a36d192551c9b4c3ea4cbc53140f60d0dc8b1a8b58499958cdf9150602090604051908152a1565b507f36f8ddb481e1d66678af53feb8d0fdddc463c11ce08cda4e93ac2065d26634dd92935060209150604051908152a15f90565b6002609754146200e26b576002609755565b60405162461bcd60e51b815260206004820152601f60248201527f5265656e7472616e637947756172643a207265656e7472616e742063616c6c006044820152606490fd5b906001600160501b03809116911603906001600160501b0382116200458d57565b9190915f9054906001600160501b038083169260501c168083116200e319575b5080841193846200e30157505050565b632e14f96160e21b5f5260045260245260445260645ffd5b6001600160501b0391506200e32f90836200e2b0565b165f6200e2f1565b9290925f9054936001600160501b038086169560501c168086116200e3e1575b5081811193846200e36b575b505050909150565b6200e3c6576040805191825260208201929092526001600160501b039094169084015290917fb853e5846ad52919c794f709695100094681c458cd1864d5217c6c897b6858b19080606081015b0390a181905f80806200e363565b849250632e14f96160e21b5f5260045260245260445260645ffd5b6001600160501b039192506200e3f890866200e2b0565b16905f6200e357565b335f5260d460205260ff60405f2054166200e59b5760d1544311156200e5535761217b43018043116200458d578060d1556103e86200e44660ce5460cc54906200942e565b0460d3548082115f146200e54b57505b61217b8104918260d05561085f43018043116200458d5760d25561217b830283159084810461217b148217156200458d576200e493908462009474565b9361085f81029181830461085f1417156200458d576200e4d96200e4f9927fbed1e76d359c53e2dbafd4561fa97daac567d51974f6317c2f583ef17cddaa9d96620099e8565b60cf55604051938493846040919493926060820195825260208201520152565b0390a15b60cf548082116200e51957906200e5149162009474565b60cf55565b60d05460d1546040516356cb4a3d60e01b81526004810194909452602484019290925260448301526064820152608490fd5b90506200e456565b60d2548043116200e566575b506200e4fd565b6200e5846200e57a6200e58d924362009474565b60d054906200942e565b60cf54620099e8565b60cf554360d2555f6200e55f565b50565b906001600160501b036200b85781928285541662011577565b60405163a9059cbb60e01b60208201526001600160a01b039290921660248301526044808301939093529181526200924c916200d10c60648362009085565b939291906064810292818404606414821517156200458d57826200e61a916200942e565b938484106200e68a57826200e62f916200942e565b938484106200e67a575081116200e6495750505050600190565b6064810290808204606414901517156200458d576200e668926201358a565b818111156200e675575090565b905090565b90506200e66893915084620134c3565b505050505090565b949392916200e6a191620099e8565b6064810292818404606414821517156200458d57826200e61a916200942e565b9061271081116200e6fc576002909101805470ffff000000000000000000000000000000191660789290921b61ffff60781b16919091179055565b61ffff600283015460a81c16630dbcc17f60e31b5f5260045260245261271060445260645ffd5b6001600160a01b0319606554166065556001600160a01b0380603354921691826001600160a01b0319821617603355167f8be0079c531659141344cd1fd0a4f28419497f9722a3daafe3b4186f6b6457e05f80a3565b63ffffffff815460c81c16918281106200e864579091906200e79b90620135c3565b9391939290929383926013829101915f52816020526200e7c060405f20549562012dfa565b8516156200e7e657505050906200e7de65ffffffffffff9262009417565b1c1660050b91565b9194939092858511156200e85a57806200e8435750506200e80d60059161a7679062009474565b9050600491815f528060205260405f2054935b61217a1981019081116200458d57946200e83a8462012dfa565b9290926200e7c0565b909392905f1981019081116200458d57926200e820565b505f959350505050565b5050505f905f90565b9190916001831080156200e8c2575b6200e8a457600201805461ffff60c81b191660c89390931b61ffff60c81b1692909217909155565b82630c8f0a6960e41b5f52600452600160245261271060445260645ffd5b5061271083116200e87c565b9061271081116200e6fc5790600261ffff6200924c931691019061ffff60881b1961ffff60881b83549260881b169116179055565b9190916001831080156200e93a575b6200e8a457600201805461ffff60b81b191660b89390931b61ffff60b81b1692909217909155565b5061271083116200e912565b6001821080156200e9ab575b6200e98a57600201906effffffffff0000000000000000000082549160501b16906effffffffff000000000000000000001916179055565b50630c8f0a6960e41b5f52600452600160245264ffffffffff60445260645ffd5b5064ffffffffff82116200e952565b906103e8811080156200ea0d575b6200e9ee5767ffff00000000000082549160301b169067ffff0000000000001916179055565b61ffff9063d24aa9ff60e01b5f526004526103e860245260445260645ffd5b5061ffff81116200e9c8565b908060081c9060ff811660ff81036200eb0c575b5060101c9060ff811660ff81036200eaaa575b505060ff81036200ea53575b50505f1990565b6200ea60908254620135ff565b60018101156200ea4c57806002915f52600183016020526200ea8660405f205462013625565b9060081b1791825f52016020526200eaa260405f205462013625565b9060081b1790565b6200eac490835f526001850160205260405f2054620135ff565b9060018201156200ea4057600292507effffffffffffffffffffffffffffffffffffffffffffffffffffffffffff00161791825f52016020526200eaa260405f205462013625565b6200eb2690835f526002850160205260405f2054620135ff565b60018101156200ea2d579250905060ff19161790565b5f9291600581101590816200522d57600181149182156200eb8f575b82156200eb7c575b50506200eb6a5750565b633892657f60e01b5f5260045260245ffd5b9091506200522d576003145f806200eb60565b506002811491505f6200eb58565b9092915f93600581101590816200522d57600181149182156200ec1a575b82156200ec07575b50506200ebce575050565b909192506200eb6a5760207f3892657f1733e6fad09eddb45222f85d706fcdf18040658aae5eb4bd9ba497e691604051908152a1600190565b9091506200522d576003145f806200ebc3565b506002811491505f6200ebbb565b6200ec3390620135c3565b92908290600481036200ec645750506200ec525f9261a76790620099e8565b925b61217b81018091116200458d5790565b6200ec729194935062009ad2565b916200ec54565b906200ec85336200c311565b91825f5260d560205260405f209260ff845460a01c166200eca68162008aef565b8062005be657506200ecc8826001600160a01b0360cb5416309033906200d0c8565b6200ecd482856200c53f565b60cc546200ece38382620099e8565b906001600160501b0382116200ed43575060cc5592546040805194855260208501929092526001600160501b031690830152907f84b5adc99a7d46a960b87da6e4882021bab65d63c6d02c9bcfc52f02e710b1e39080606081016200b98c565b8390632242001360e21b5f526004526024526001600160501b0360445260645ffd5b9390979695926200ed8b9060c0969360e087019a87526020870152604086019062008e24565b6060840152608083015260a08201520152565b9794959697610b4052610a20526108e052610b0052610b00515f526012610b40510160205260405f206109005264ffffffffff610900515460b81c16156201075557816200ee4f917fa77d65693716101939aad03e17516ac9015bd4d1d7baab6959d9395fc609dc4960e0604051610a20518152610b005160208201526108e05160408201528360608201528760808201528860a08201528960c0820152a1610b005161090051610b405162013768565b6109605261098092909252919591939192156201074c576001610b405101936200ee858762ffffff875460701c16848462013b1e565b9087806201073e575b8062010730575b801562010703575b156201066f5750505081620105c2575b5050906200ef6b9160ff610900515460401c16610940525f610a80525f610ac0525f610a00526109005154906200eeff610980516001600160401b038460481c1664ffffffffff8560b81c1662016aef565b6200ef0d819692966200d819565b610a80526200ef5c60ff8560401c1694610b4051549060ff808360b81c169260b01c1690610980519061ffff8160881c169063ffffffff8160981c169060e01c8a61096051610b40516200cf71565b6109c0526109a052906200d1e8565b915f83126201056a57506200f06b826001600160501b03926200ef926200f09f956200d819565b610ae0525f610a405254610b20526200f02f620186a06200efbf62ffffff610b205160881c16846200d82a565b0591620186a06200efdc62ffffff610b205160a01c16836200d82a565b05610a60819052610ac052610b2051620186a0906200f0049060b81c62ffffff16836200d82a565b05610aa0819052610a60516200f02891906200f0229086906200d1e8565b6200d1e8565b906200d216565b610a40526200f045610aa051610ae0516200d1e8565b610ae05285158062010561575b6201052a575b826003610b4051015460501c16620182c4565b166003610b4051019069ffffffffffffffffffff60501b1969ffffffffffffffffffff60501b83549260501b169116179055565b6200f0ad610ae05162016b10565b5f610ae051125f146201049b576200f0cd90610b0051610b405162012c72565b610b00515f5260d560205260405f206200f0eb610ac0518262016b20565b610a005260c9546200f10b6001600160701b03610a4051908316620182c4565b906001600160701b0319161760c95560ff610900515460401c169260028410156200522d576200f1d49362010483576200f14c61098051610b405162016b9d565b1562010458576200f185906200f16c610b00516011610b40510162014b5a565b600561ffff6002610b4051015460a81c16910162014c66565b6200a7316002610b40510154845f14620104465764ffffffffff8116905b60ff8160e01c169160ff8260d81c169164ffffffffff808260501c1692169061ffff610980519160b81c166200e692565b6109e0525f61088052156201043a575f610880525b5f6108a0526108e0515f5260d560205260405f20610860526001600160501b03610860515416610920526108e0515f526012610b40510160205260405f20610840526200f2416109805161088051610840516201830c565b6200f24f6108805162014ee2565b8062010432575b620103eb575b6200f2678162008aef565b806200fb4a57506200f296905f6109e0516109805161096051610960516108805161086051610b40516201839c565b909183156200f5e4575b5050505b6001600160501b03610860515416610920518110156108a05150805f146200f5ce576200f2d5610920518362009474565b905b6001600160ff1b0382116200f5ae57156200f59c57915b600781036200f56957507f8bb45343b586b0a2e25de387c177d53762fbbb2da1e8324cdcb3157dd401249a9160e09160405191610a205183526108e05160208401526200f33e6108805162008aef565b61088051604084015261096051606084015261098051608084015260a083015260c0820152a16108e0515f908152610b405160120160205260409020805460b81c64ffffffffff16156200f4de57806001600160401b03807ff14b2e916a38315c52d00796f7301d83d24a889ea889ef230a501c9dcb524d20935460481c16916200f3cd610aa0518262016bc8565b54604080516108e051610a2051825260208201529081019390935260481c166060820152608090a15b6200f40c6108e051610b0051610a205162012734565b7f6fc9c0ea1c0531654320ba06740c802447dbdef7c26cf749c4f12553cdd958a96101c061090051546001600160401b0360405191610a20518352610b005160208401526200f462604084016109405162008e24565b6109605160608401526109605160808401526109805160a084015264ffffffffff8160b81c1660c08401526109a05160e08401526109c051610100840152610a805161012084015260481c16610140820152610ac051610160820152610a00516101808201525f6101a0820152a16200924c610b4051620128cb565b506108e0515f5260d56020527f66c4fd8d726a62e549cbf66bc9a8e005cb6e30b73e027b3d86c4df1388d2b16f60405f206200f5406001600160501b03825416916200f535610aa0516108e051610b405162012c72565b610aa0519062016b20565b604080516108e051610a205182526020820152908101929092526060820152608090a16200f3f6565b62001bc090604051918291633e3906a760e21b83526109805161096051610880516108e051610a20516004880162013eb4565b6200f5a7906200d819565b916200f2ee565b8263e69a04b360e01b6108a051526004526109205160245260446108a051fd5b6200f5dd826109205162009474565b906200f2d7565b829350916200f5f49192620099e8565b906200f6036108805162008aef565b610880516200fb41575f905b61ffff6002610b4051015460a81c165f60c06040516200f62f8162008fdb565b8281528260208201528260408201528260608201528260808201528260a082015201526001600160401b0384116200fb235764ffffffffff61098051116200fb04575f6108a052604051906200f6858262008fdb565b5f82525f60208301526200f69d846040840162009f45565b6001600160501b038516606083015263ffffffff6109605116608083015264ffffffffff610980511660a083015263ffffffff431660c08301526108e0515f526012610b40510160205264ffffffffff60405f205460b81c166200faeb5750610b40516011015460201c63ffffffff16806200fa9b57506200f7296108e0516011610b40510162017b73565b6108e0515f526012610b40510160205260405f2063ffffffff808351161663ffffffff198254161781556200f78363ffffffff602084015116829063ffffffff60201b82549160201b169063ffffffff60201b1916179055565b60408201519160028310156200522d5760c063ffffffff916200f7ab6200f87095856201a053565b6060810151845469ffffffffffffffffffff60481b191660489190911b69ffffffffffffffffffff60481b161784556080810151845463ffffffff60981b191690841660981b63ffffffff60981b1617845560a0810151845464ffffffffff60b81b191660b89190911b64ffffffffff60b81b16178455015182547bffffffffffffffffffffffffffffffffffffffffffffffffffffffff16911660e01b7fffffffff0000000000000000000000000000000000000000000000000000000016179055565b6200f8856108e0516011610b40510162017b97565b6005610860510161ffff6002610b4051015460a81c1660fc8111155f146200f9f0576001901b81541790555b6200f8cb6200f8c18285620099e8565b610860516200e59e565b6200f8da83610b4051620111d5565b6200f9036200f8fb6200f8f583610b40515460e81c6200942e565b62014af9565b809262009474565b906200f90f826200b86a565b6200f91e81610b4051620111f1565b60028310156200522d577f04cc3d2fc73a9dca30eba1d05eca80b1b1216350243580027046f434fed4db189461016094846200f9d8576200f96661098051610b40516201a0a2565b6200f99461ffff6002610b4051015460a81c16956040519687526108e0516020880152604087019062008e24565b6109e0516060860152608085015260a08401526109605160c08401526109805160e08401526101008301526101208201525f610140820152a160075f80806200f2a0565b6200f9ea61098051610b40516201a081565b6200f966565b6101fc81116200fa25576200fa0760019162009464565b1b60066108605101908154179055600160fd1b81541790556200f8b1565b6102fc81116200fa5a576200fa3c60019162009453565b1b60076108605101908154179055600160fe1b81541790556200f8b1565b6103fc8111156200fa6e575b50506200f8b1565b6200fa7b60019162009442565b1b60086108605101908154179055600160ff1b81541790555f806200fa66565b63ffffffff81116200fad1578060208301525f526012610b4051016020526200facb6108e05160405f2062017b73565b6200f729565b6395d41f3f60e01b5f5260045263ffffffff60245260445ffd5b633f1ed2e160e21b5f526004526108e05160245260445ffd5b6395d41f3f60e01b5f526109805160045264ffffffffff60245260445ffd5b836395d41f3f60e01b5f526004526001600160401b0360245260445ffd5b6001906200f60f565b6200fb558162008aef565b600181036200fe7d57506200fb87815f6109e0516109805161096051610960516108605161084051610b405162018ab7565b610b80516108c052610ba051610bc051610c005195969294939092909187600a81036200fc205761ffff6002610b4051015460a81c166003610b405101549062001bc06200fbd86108c05162016b10565b60405163063c641b60e41b815261ffff90931660048401526001600160501b03808516602485015260509490941c909316604483015260648201929092529081906084820190565b156200fc35575b505050505050505b6200f2a4565b6200fc4a919293949597506108605162016b20565b506200fc596108c05162016b10565b5f6108c051125f146200fe68576200fc79906108e051610b405162012c72565b6200fc906200f8f587610b40515460e81c6200942e565b6200fc9c818862009474565b906200fca8826200b86a565b6200fcb781610b4051620111f1565b6200fcd46108405154956001600160401b038760481c166200d1e8565b935f85126200fe5957600260ff8760401c1610156200522d5764ffffffffff867f99a74f70c224396b9ba5fcd5a6e5f480db23e7a25a2b16a8c133ec2efb3e646c986200fd4b60ff6101e09a60401c16156109805161096051868660b81c1661ffff8760881c1663ffffffff8860981c166201a837565b99925095909260ff8560401c16155f146200fe41576200fd7261098051610b40516201a0a2565b6200fda68b888c8761ffff6002610b4051015460a81c1693439460ff8c60401c16906108e051906011610b4051016201a6a8565b61ffff6002610b4051015460a81c169a6040519b8c526108e05160208d01526200fdda60408d0160ff8860401c1662008e24565b6109e05160608d01526001600160401b038660481c1660808d015260a08c015260c08b015260e08a015261010089015261012088015260b81c166101408601526101608501526101808401526101a08301526101c0820152a16007915f808080806200fc27565b6200fe5361098051610b40516201a081565b6200fd72565b63b42b26c760e01b5f5260045ffd5b6200fe7790610b4051620111d5565b6200fc79565b6003906200fe8b8162008aef565b0362010148576200febd905f6109e051610980516109605161096051610960516108605161084051610b4051620187b3565b61082093909352610b8051939490939092909187600a81036200ff045761ffff6002610b4051015460a81c166003610b405101549062001bc06200fbd86108205162016b10565b156200ff1757505050505050506200f2a4565b6200ff5a919293949597506200ff306108205162016b10565b5f61082051125f1462010133576200ff50906108e051610b405162012c72565b6108605162016b20565b506200ff726200f8f587610b40515460e81c6200942e565b6200ff7e818862009474565b916200ff8a836200b86a565b6200ff9982610b4051620111f1565b61084051549560ff8760401c169460028610156200522d5764ffffffffff6101c0977f01a0596385c75b269e896ca6468a2be2edc8b2b5459f4e25ca0a75944390a10c9988155f146201010a57506200ffff82610840515460b81c16610b405162016b9d565b6201000e83610b40516201a081565b61084051549062010020818d620099e8565b6201005b61ffff6002610b4051015460a81c168b155f146201010157866001915b84439361096051926108e051906011610b4051016201a449565b610b40516002015460a81c61ffff1699620100f6576201009160015b6040519b8c526108e05160208d015260408c019062008e24565b6109e05160608b01526001600160401b038360481c1660808b015260a08a015260c08901526109605160e089015260b81c166101008701526101208601526101408501526101608401526101808301526101a0820152a16007915f808080806200fc27565b620100915f62010077565b865f9162010041565b826201011e9160b81c16610b405162016b57565b6201012d83610b40516201a0a2565b6201000e565b6201014290610b4051620111d5565b6200ff50565b506201016b6109e05161098051610960516109605161084051610b4051620186b6565b6107e0949094525061080085905291929091600a8503620101e057610b4051600281015460039091015460405163063c641b60e41b81526107e05160a89390931c61ffff1660048201526001600160501b03808316602483015260509290921c90911660448201526064810191909152608490fd5b6108005115620101f6575b506200fc2f92505050565b9091929350620102116107e0516108e051610b405162012c72565b620102236107e051610860516200c53f565b60ff610840515460401c169160028310156200522d5782620103d3576201025161098051610b405162016b9d565b84156201030357509060c0917f599b5f439ed4daf1f28ae8638e5439d3982e8001fb26dd8f70021b38672eb26f93620102946108e0516011610b40510162014b5a565b620102b461ffff6002610b4051015460a81c166005610860510162014c66565b620102e261ffff6002610b4051015460a81c16936040519485526108e0516020860152604085019062008e24565b610960516060840152608083015260a0820152a15b6007905f8080620101eb565b907fcd4a9f7ae1cc250eaa0be6bdb30d07efaf0faafb4ff0e76d8fe09a8373e43f859364ffffffffff61012094620103446108405154956108405162018237565b62010356610980516108405162016c5e565b8161ffff6002610b4051015460a81c16956201038b6108405154936040519889526108e05160208a0152604089019062008e24565b6001600160401b038160481c1660608801526001600160401b038360481c16608088015260b81c1660a086015260b81c1660c084015260e0830152610100820152a1620102f7565b620103e561098051610b405162016b57565b62010251565b610980515f03610980516200458d576201042b9062010425610b4051546109e0519260ff808360b81c169260b01c16906109605162012bb9565b62012c31565b506200f25c565b505f6200f256565b6001610880526200f1e9565b64ffffffffff8160281c16906200f1a3565b506201046b610a80516109005162016bc8565b6201047d610980516109005162016c5e565b6200f185565b6201049561098051610b405162016b57565b6200f14c565b80620104a9575b506200f0cd565b620104b890610b4051620111d5565b7fbee5185c13c42cac0d82b6c115c77d5e8dc2b2888c013d169e068e634f57f58e60e061ffff6002610b4051015460a81c16604051908152610b0051602082015261096051604082015261098051606082015260016080820152600160a0820152610ae05160c0820152a15f620104a2565b6201053c610a6051610ae0516200d1e8565b610ae05262010552610a6051610a80516200d1e8565b610a80525f610ac0526200f058565b5060016200f052565b60c49083620105a961ffff6002610b4051015460a81c169260405193630c62a44b60e11b85526004850152610b00516024850152604484019062008e24565b61098051606483015261096051608483015260a4820152fd5b84156201066257816109605111155b6200eead579350935050506201062c577f1f008bb4cf7968d3043531816710a52872a7cd65b725fdf40176bbe0ff8215979060ff610900515460401c166200b98c6040519283926109605190610b0051610a2051866200c58b565b60ff610900515460401c1662001bc06040519283926307c022ed60e21b84526109605190610b0051610a2051600487016200c58b565b81610960511015620105d1565b95509550969550915050620106cb576200b98c7f244c695d1e05b510329d2a418fcf7f40a78e7e06283e8422153ba676d7dc8f9d939460ff610900515460401c16926040519485946109605190610b0051610a2051886200ed65565b62001bc08460ff610900515460401c169260405194859463244c695d60e01b86526109605190610b0051610a2051600489016200ed65565b5087158062010722575b80156200ee9d5750826109605111156200ee9d565b50610960518211156201070d565b50816109605111156200ee95565b50610960518311156200ee8e565b50505050505050565b509250505062010796577f6948067a0ba575890268b9a7eaf592a5832287e4402201145ce0768a9d9533fc60408051610a20518152610b00516020820152a1565b6334a4033d60e11b5f52610a2051600452610b005160245260445ffd5b9290620107c260018462013ee7565b6200a01d57805f526012840160205260405f209264ffffffffff845460b81c161562010af9576001620107f89183868862013768565b939594969196156200dcb6578515967f02d2bf39d2355aaa5486487e934403fd3ba3f88c73ab71938cee11931fddeb7b61022061ffff60028d015460a81c168a5f1462010af15760035b6201086b5a916040519384528b60208501525f60408501525f606085015260808401906200aad1565b8560a08301528760c08301525f60e08301525f6101008301525f61012083015260016101408301526103e86101608301525f6101808301525f6101a08301525f6101c08301525f6101e0830152610200820152a1620108cd8885848d62013f6d565b6107605194818111620108f1575b50505050505050505050506200924c90620128cb565b90620108fd9162009474565b9384891562010adf57620109119162014b27565b965b60ff8a5460401c16988162010ad4575b811562010aba575b5062010a6c57505062010943908286868a8c62013ba8565b9593989250939590988760028d015460a81c61ffff16906201096591620125c9565b604051838152836020820152836040820152846060820152608081015f90528960a08201528a60c082015260e07f5be6b2e974d9a72428e5cb9cf915a5f991d1c862db8cafc9a121bb99b091cb7491a160028c015460a81c61ffff169a54976040519b8c5260208c015260408b01620109de9162008e24565b60608a0152608089015260a08801528360b81c64ffffffffff1660c088015260e087015261010086015261012085015260481c6001600160401b03166101408401526101608301526101808201526101a08101600190526101c07f6fc9c0ea1c0531654320ba06740c802447dbdef7c26cf749c4f12553cdd958a991a15f80808080808080808080620108db565b925092505060c49362010aa98661ffff60028b015460a81c16956040519663fbe5086f60e01b885260048801526024870152604486019062008e24565b6064840152608483015260a4820152fd5b90508062010aca575b5f6201092b565b5086821062010ac3565b888411915062010923565b62010aea91620099a7565b9662010913565b600262010842565b5061ffff600285015460a81c166334a4033d60e11b5f5260045260245260445ffd5b9392919262010b2b818562013ee7565b6200d12c57815f526012850160205260405f209364ffffffffff855460b81c161562010b605790620107f89183868862013768565b50915092915062010bb357600201546040805160a89290921c61ffff16825260208201929092527f6948067a0ba575890268b9a7eaf592a5832287e4402201145ce0768a9d9533fc91819081016200b98c565b600261ffff91015460a81c166334a4033d60e11b5f5260045260245260445ffd5b1562010bdc57565b60405162461bcd60e51b815260206004820152602b60248201527f496e697469616c697a61626c653a20636f6e7472616374206973206e6f74206960448201527f6e697469616c697a696e670000000000000000000000000000000000000000006064820152608490fd5b909180156200b334575f5b81811062010c605750505050565b8062010c7060019284876200b1d3565b358061ffff1062010c92575f52600784016020525f60408120555b0162010c52565b5062010c8b565b905f91801515908162010ccc575b811562010cbd575b5062010cb757565b60019150565b63ffffffff9150115f62010caf565b438110915062010ca7565b90805461ffff8160681c16908115801562010cf3575050505050565b61271083029283046127101417156200458d5760c95460701c6c1fffffffffffffffffffffffff169081831162010d8d575050916080918361ffff62010d5a7f829714cd4c1b45d8cb7fc185e9a89690df638ae20633056021e186ef6ce2e0bf9662014d67565b9262010d66836200b86a565b5460a81c16604051938452602084015260408301526060820152a15b5f808080806200d12c565b60a093509161ffff7ff662aa6b6412ffe2a4e433dace098e96260a08fdaefdb023773e41f999b7c4ec9593604051945f8652602086015260a81c16604084015260608301526080820152a162010d82565b61ffff1680156200458d575f190190565b5f93918315620111605761ffff948585166303ff00008360101b1617906002840192825f528360205260405f209687549063ffffffff8216156201113a5750855460b01c63ffffffff16840362011101575062010e5763ffffffff885460201c168662014db7565b63ffffffff875460201c1680620110e2575b505b845460d01c63ffffffff168303620110a65762010e9363ffffffff885460401c168662014e55565b63ffffffff875460401c168062011087575b505b6003850191815f528260205262010eed62010ecc60405f209a8b5460401c1662010dde565b8a5469ffff0000000000000000191660409190911b61ffff60401b16178a55565b875462010f0060ff8260601c1662014ee2565b156201106857505062010f216001600160501b03885460901c168662014f47565b965b885463ffffffff81168514808062011055575b1562010fbc575050506200924c959697505f526020525f60408120555b5f526020525f604081205562010f6d815460f01c62010dde565b81547dffffffffffffffffffffffffffffffffffffffffffffffffffffffffffff1660f09190911b7fffff00000000000000000000000000000000000000000000000000000000000016179055565b9193509150156201101657505460201c63ffffffff16956303fcffff80881162011000575063ffffffff6200924c9596971663ffffffff1982541617905562010f53565b876395d41f3f60e01b5f5260045260245260445ffd5b968263ffffffff6200924c97989960201c161462011037575b505062010f53565b63ffffffff6201104d925460401c169062014eb2565b5f806201102f565b508563ffffffff8360201c161462010f36565b64ffffffffff620110819160689a939a1c168a62014f0a565b62010f23565b5f528360205260405f2063ffffffff60201b1981541690555f62010ea5565b8654602081811c63ffffffff165f9081529086905260409020805463ffffffff60401b191663ffffffff60401b90921691909117905562010ea7565b5f528360205260405f2063ffffffff60401b1981541690555f62010e69565b604081811c63ffffffff165f908152602087905220805467ffffffff00000000191663ffffffff60201b90921691909117905562010e6b565b905063ffffffff60018701541691638d5bba0f60e01b5f5260045260245260445260645ffd5b63ffffffff600183015416906369bc91ef60e11b5f5260045260245260445ffd5b906200924c91815f5260078101602052620111b360405f20620111ab60ff825460201c166201155e565b908362014fa9565b62015514565b9015620111c35750565b6364d572b360e01b5f5260045260245ffd5b6001600160501b036200b857600382930193828554166201160c565b906001600160501b036200d7ee60036200924c94019282845460501c166201160c565b929061ffff600285015460a81c169362011231600184846200e337565b6200d12c57835f526012810160205260405f209064ffffffffff825460b81c16156201133557916001600160501b036001600160401b038593620112a78560a09997620112a17f577ed0a8f65f2feb5a407660b0a3009c2ee155a17d0e34947c58ecdd6c8b37719c9a886200e59e565b620111d5565b6201130f83825460481c61ffff60401b76ffffffffffffffffffffffffffffff0000000000000000620112dd8a8885166201164e565b9216161716829069ffffffffffffffffffff60481b1969ffffffffffffffffffff60481b83549260481b169116179055565b5460481c16915416926040519485526020850152604084015260608301526080820152a1565b84866334a4033d60e11b5f5260045260245260445ffd5b9392919261ffff600286015460a81c16946201136a8285856200e337565b6201141757845f526012810160205260405f209164ffffffffff835460b81c1615620113db5750916001600160501b036001600160401b038593620112a78560a09997620112a17f577ed0a8f65f2feb5a407660b0a3009c2ee155a17d0e34947c58ecdd6c8b37719c9a886200e59e565b93505050506200caa9577f6948067a0ba575890268b9a7eaf592a5832287e4402201145ce0768a9d9533fc9160409182519182526020820152a1565b505050505050565b908060081c9060ff81168062011500575b5060101c9060ff8116806201149e575b5050806201144f5750505f1990565b6201145c908254620155a6565b60018101156200ea4c57806002915f52600183016020526201148260405f2054620155cc565b9060081b1791825f52016020526200eaa260405f2054620155cc565b620114b890835f526001850160205260405f2054620155a6565b9060018201156201144057600292507effffffffffffffffffffffffffffffffffffffffffffffffffffffffffff00161791825f52016020526200eaa260405f2054620155cc565b6201151a90835f526002850160205260405f2054620155a6565b600181011562011430579250905060ff19161790565b6201153b8162008aef565b600281149081156201154b575090565b600391506201155a8162008aef565b1490565b620115698162008aef565b80159081156201154b575090565b9190828111620115b857808303926001600160501b03841162011598575050565b63733cc1d960e11b5f526004526024526001600160501b0360445260645ffd5b9050637509da4360e11b5f5260045260245260445ffd5b9190828111620115b8578083039264ffffffffff8411620115ee575050565b63733cc1d960e11b5f5260045260245264ffffffffff60445260645ffd5b91906201161a8184620099e8565b926001600160501b0384116201162e575050565b632242001360e21b5f526004526024526001600160501b0360445260645ffd5b91906201165c8184620099e8565b926001600160401b03841162011670575050565b632242001360e21b5f526004526024526001600160401b0360445260645ffd5b91906201169e8184620099e8565b9264ffffffffff8411620116b0575050565b632242001360e21b5f5260045260245264ffffffffff60445260645ffd5b91825461ffff63ffffffff8260601c169160a01c16905f938142116201179b575b84620116fd57505050909150565b6201175f576200e3b861ffff60027fa8ea47e93f284c6600be84b692d51af848f0cc9115e2c7d7d4048983348f9b2d959697015460a81c16926040519384934291859094939260609261ffff6080840197168352602083015260408201520152565b600285015460405163a8ea47e960e01b815260a89190911c61ffff16600482015260248101919091524260448201526064810191909152608490fd5b935081620117aa824262009474565b1193620116ef565b91905f926101808201358015158062011a40575b620119f65750604082013560078110156200484d57600681036201188c5750620117f583606084013562015766565b62011886578260808301358062011862575b50905060a08201358062011844575b505060c0013590816201182c575b505050600190565b620118379162015700565b6200911c57808062011824565b90620118509162013ee7565b6201185d57815f62011816565b505090565b63ffffffff60096201187894015416906200bdce565b6201185d575f828162011807565b50505090565b60058103620118e45750506101a0013515620118a9575050600190565b620118d5577f1fccd51f56ecc3a71d5e32721dbf2bb0690bf050c6147a84fd5f83717d8c5d225f80a190565b631fccd51f60e01b5f5260045ffd5b600403620119085750906060620118fd92013562015766565b6200911c5750600190565b8263ffffffff6009620119239301541660808401356200bdce565b6201185d57620119388260a083013562013ee7565b6201185d576201194c610100820162009519565b1580620119df575b620119c4575b6101c001359061ffff82116201197257505050600190565b620119ac5760407f95d41f3f44becfa47a91cf04138709af8e760c9060dcf6091505be37dce1418891815190815261ffff6020820152a190565b6395d41f3f60e01b5f5260045261ffff60245260445ffd5b620119d48260c083013562015700565b156201195a57505090565b50620119ef610120820162009519565b1562011954565b9350505062011a2e5760207f9f38a7d29e6c9e707bfe5fee47b29748083dc31546de0135d48ed99db5e190f091604051908152a15f90565b634f9c53e960e11b5f5260045260245ffd5b50438110620117c6565b9192835f526010830160205260405f209463ffffffff8654161562011b005762011a7f9063ffffffff875416838786620157d3565b1562011a8c575050505050565b62011ae484600962011adc60609762011ac8867fe9805f82cb3729e97b234bb6bb4f90ea971e2c274201ff71818ebde153e1b0a69b8962015855565b9790965f5260d560205260405f2062010def565b950162011181565b60405192835260208301526040820152a15f808080806200d12c565b925050925062011b3c577f69b92a906c4fe940cd3de572076c4a5181ddced80218575cc4959b1d8f6a6e3f9160409182519182526020820152a1565b9063069b92a960e41b5f5260045260245260445ffd5b949290939160405162011b65816200904d565b5f81525f6020820152809561ffff600289015460a81c16606084013590815f5260108a0160205260405f209363ffffffff8554161562011c5e5750835462011bb78863ffffffff8316898686620157d3565b62011c515760ff62011bcd9160201c1662011530565b62011be15750506200924c959697620159ce565b949850949250505093929362011c36576200bbb67fe03d6e5b9ada2bee571a0faed84b4da12ba5afc5c10f1c29d8fbbb6dcd7519d8939495604051938493846040919493926060820195825260208201520152565b84925063e03d6e5b60e01b5f5260045260245260445260645ffd5b5050505050505050915090565b985096985094935050505062011b3c577f69b92a906c4fe940cd3de572076c4a5181ddced80218575cc4959b1d8f6a6e3f9160409182519182526020820152a190565b94939192906040519362011cb5856200904d565b5f85525f60208601528460408201359560078710156200484d5762011cda8762008aef565b60a08301359162011ceb8862011530565b62011ef2575b50610120830162011d028162009519565b801562011edc575b62011e04575062011d1b8762011530565b62011de5575b5060405162011d30816200904d565b5f81525f602082015297600981019163ffffffff8354169662011d596080860135988962009474565b96829862011d6a60e0880162009519565b1562011db5575b5050508662011d87575b50505050505050505090565b62011d9b99508862011daa575b5062018201565b5f808080808080808062011d7b565b861497505f62011d94565b62011ddb9399506101c0870135908b8b6101408a0135926101608b0135928c8a620181c4565b955f808062011d71565b62011df38883868c620162d2565b62011d215797505050505050505090565b9583985062011e3d9199949561010093986101c062011e45960135908b8b610140820135926080610160840135930135908c8c620181c4565b960162009519565b8062011ed2575b62011eac57505062011e5e9062009519565b8062011ea2575b62011e6f57505090565b7f59468f520017226c0116472def96f905dbeff518444091b355de591a2161cdbe9160409182519182526020820152a190565b5081151562011e65565b9061ffff60028693015460a81c1663578f7fed60e01b5f5260045260245260445260645ffd5b5084151562011e4c565b5062011eec610100850162009519565b62011d0a565b845f5260128a0160205260405f209064ffffffffff825460b81c1615158062012017575b62011f8857505460b81c64ffffffffff168083111562011cf1579795509750945050505062011f72577f604559a5e01ca154dad1c02a9ef408530f8fa41f3506e6a57f7d2ac727e148229160409182519182526020820152a190565b9063604559a560e01b5f5260045260245260445ffd5b995096979550505050505062011fe6577f189a4ff828fb1a93c81a2248c39ac499b67bf632ade3d5f89935821e8d1ec9989160ff60409254831c169062011fd28351809362008e24565b62011fdd8162008aef565b6020820152a190565b5463031349ff60e31b5f5260401c60ff1660028110156200522d576004526201200f8162008aef565b60245260445ffd5b506201202b8960ff845460401c16620162b2565b62011f16565b803b1562012093576001600160a01b03166001600160a01b03197f360894a13ba1a3210667c828492db98dca3e2076cc3735a920a3ca505d382bbc5416177f360894a13ba1a3210667c828492db98dca3e2076cc3735a920a3ca505d382bbc55565b60405162461bcd60e51b815260206004820152602d60248201527f455243313936373a206e657720696d706c656d656e746174696f6e206973206e60448201527f6f74206120636f6e7472616374000000000000000000000000000000000000006064820152608490fd5b92916201213c90620121356201212c62012120620121499960029699620128ff565b91909343908962012a05565b5050956200942e565b936200d82a565b92015460f81c92620164c2565b906200924c8262012a6a565b8115620099b2570790565b949362012180906201217a62012187949998935f6200d216565b6200d216565b93620099e8565b60060390600682116200458d57620121a3620121aa926200ad27565b906200942e565b92620121c3620121bb85846200d84e565b948362012155565b620121fd575b505015620121ec57620121dc916200d1e8565b5f8112620121e75790565b505f90565b620121f7916200d216565b620121dc565b808062012251575b15620122235750509062012219906200d1cb565b905b5f80620121c9565b15908162012246575b50156201221b57906201223f906200d204565b906201221b565b5f9150125f6201222c565b505f821362012205565b95946201217a6201227394989362012180936200d216565b60060390600682116200458d57620121a36201228f926200ad27565b90620122a8620122a083836200d84e565b928262012155565b620122c1575b509015620121ec57620121dc916200d1e8565b5f1215620122de57620122d4906200d1cb565b905b905f620122ae565b90620122d6565b9291949395620123016201230892976201217a5f995f6200d216565b94620099e8565b60060390600682116200458d57620121a362012324926200ad27565b916201233d6201233584836200d84e565b938262012155565b62012375575b5015620123635762012355916200d1e8565b905b8082126200e675575090565b6201236e916200d216565b9062012357565b93505f80941262012388575b5f62012343565b9062012394906200d204565b9062012381565b90929496939196620123b15f8883878662016558565b9794809a939a999294999791976201255957508a809c9d505f5260d560205260405f209861ffff600283015460a81c169d620123f18c85549f8562012c72565b620123fd8c8c6200c53f565b60ff845460401c169560028710156200522d578d9287620125475762012424838662016b9d565b156201252657505060116201243a920162014b5a565b620124498c60058a0162014c66565b5496546001600160501b0316986040519b8c5260208c0152151560408b015260608a01620124779162008e24565b8760981c63ffffffff1660808a015260a089015260c088015260e08701526101008601528360481c6001600160401b03166101208601528060481c6001600160401b03166101408601528360b81c64ffffffffff1661016086015260b81c64ffffffffff166101808501526101a08401526101c083015260881c61ffff166101e08201526102007fc93231d3a87dd7f9a93be23749816504b65b558dee3bb33ca82eab4867669faf91a1600190565b6201254193506201253a9192508462018237565b8262016c5e565b62012449565b62012553838662016b57565b62012424565b9850995050505050505050600a9193501462012576575050505f90565b6084935060036001600160501b039101546040519363063c641b60e41b85526004850152818116602485015260501c1660448301526064820152fd5b9197949093929596620123b1908883878662016558565b90805f5260d560205260405f2092825f526003840160205260405f20549061ffff8260401c1680156201272c57620126048196959662009c3a565b9363ffffffff5f94169660028701975b8015158062012722575b156201265d5761ffff9562012642620126378262009ad2565b978316918962009527565b525f528760205263ffffffff60405f205460201c1662012614565b509350939195509362012670836200b67e565b600981019260105f9201915b8781106201268e575050505050505050565b807fb52688454dfd5028443d05c10bc78a9ca263b7c7645d2e8bfef428d0e8b3b047620126be6001938562009527565b51805f5285602052620126d560405f208a62010cd7565b620126e2818a8962010def565b90620126ef818a62011181565b620127186040519283928d8d859094939260609260808301968352602083015260408201520152565b0390a1016201267c565b508386106201261e565b509350505050565b90929192805f5260d560205260405f2092825f526003840160205260405f20549161ffff8360401c16908115620128c257620127738297969762009c3a565b9463ffffffff5f95169760028101985b80151580620128b8575b15620127cc5761ffff96620127b1620127a68262009ad2565b988316918a62009527565b525f528860205263ffffffff60405f205460201c1662012783565b50929691959397509350620127e1846200b67e565b600981019360105f9201915b8881106201280057505050505050505050565b807fb52688454dfd5028443d05c10bc78a9ca263b7c7645d2e8bfef428d0e8b3b04789896201289a8a8a620128778b620128708c876201284360019d8f62009527565b519586948593845f5260205260405f209080155f14620128a457506201286a908362010cd7565b62010def565b9362011181565b604051948594859094939260609260808301968352602083015260408201520152565b0390a101620127ed565b620128b0918462015855565b505062010def565b508487106201278d565b50509350505050565b6002015464ffffffffff8082169160281c1690818103620128ea575050565b6395626a2760e01b5f5260045260245260445ffd5b90915f5f9280155f1462012986575050620f4240925b80620129245750620f42409150565b60018103620129365750620186a09150565b600281036201294757506127109150565b600381036201295857506103e89150565b6004810362012968575060649150565b60058103620129785750600a9150565b6006036200924c5760019150565b600181036201299d575050620186a0925b62012915565b60028103620129b25750506127109262012915565b60038103620129c75750506103e89262012915565b60048103620129db57505060649262012915565b60058103620129ef575050600a9262012915565b9093906005190162012997576001935062012915565b9091925f9280851062012a44579362012a2583949562012a30946200e779565b93909184956200e779565b80940362012a3c575050565b0360050b9350565b849061ffff600285015460a81c16635d00a16960e01b5f5260045260245260445260645ffd5b5f81121562012aa1576001600160401b0362012a86826200d819565b1162012a8f5750565b635a13746d60e01b5f5260045260245ffd5b6001600160401b038162012a86565b906001600160a01b0362012b1092165f806040519362012ad260408662009085565b602085527f5361666545524332303a206c6f772d6c6576656c2063616c6c206661696c6564602086015260208151910182855af1620069f262016883565b805190811591821562012b93575b50501562012b2857565b60405162461bcd60e51b815260206004820152602a60248201527f5361666545524332303a204552433230206f7065726174696f6e20646964206e60448201527f6f742073756363656564000000000000000000000000000000000000000000006064820152608490fd5b81925090602091810103126200484d576020015180151581036200484d575f8062012b1e565b91909262012bc88183620099e8565b916006831162012bfb575050600603600681116200458d576200911c9262012bf462004c5b926200ad27565b926200942e565b632f0a93cd60e21b5f5260045260245260445ffd5b9060018210158062012c27575b156200e675575090565b5080821062012c1d565b906064820291808304606414901517156200458d576200911c9162014b27565b906001600160501b03809116911601906001600160501b0382116200458d57565b6003810180546001600160501b038116959493919086851162012c9f575050506200924c9293506200b83b565b6001600160501b0390605095929493951c166001600160501b0362012cc5828962012c51565b16821162012d3e57506002606094939262012d067f24600c3aa8cc38cbdf9648ea5ebfea6227de49651807d1a2a58fe70ea24953cc979861ffff9462009474565b845469ffffffffffffffffffff191690945562012d2484826200d7cb565b015460a81c169160405192835260208301526040820152a1565b6002830154604051635b80bdb960e11b815260a89190911c61ffff1660048201526001600160501b0380891660248301529091166044820152606481019190915280608481010390fd5b9190916001600160401b0383116200be9f576001600160501b036200924c929361ffff60401b76ffffffffffffffffffffffffffffff0000000000000000845460481c1616171669ffffffffffffffffffff60481b1969ffffffffffffffffffff60481b83549260481b169116179055565b60f0018060f0116200458d576001901b90565b81601f820112156200484d5780519062012e2782620090a7565b9262012e37604051948562009085565b828452602083830101116200484d57815f9260208093018386015e8301015290565b906020828203126200484d5781516001600160401b0381116200484d576200911c920162012e0d565b909162012e9c6200911c9360408452604084019062008aae565b91602081840391015262008aae565b519063ffffffff821682036200484d57565b519077ffffffffffffffffffffffffffffffffffffffffffffffff821682036200484d57565b51908160170b82036200484d57565b90816101209103126200484d5762012fa56101006040519262012f158462008fa1565b8051845262012f276020820162012eab565b602085015262012f3a6040820162012eab565b604085015262012f4d6060820162012ebd565b606085015262012f606080820162012ebd565b608085015262012f7360a0820162012eab565b60a085015262012f8660c0820162012ee3565b60c085015262012f9960e0820162012ee3565b60e08501520162012ee3565b61010082015290565b91905f905f5f908451850191608086602085019403126200484d5782603f870112156200484d5760609260405162012fe7858262009085565b60808801908282116200484d5760208901905b828210620134b257505051906001600160401b0382116200484d576020620130259289010162012e0d565b805115620093f05761ff0080602083015160f01c161690805160011015620093f0576021015160f81c17600381036201345657506020956040516201306b888262009085565b5f815289156201342d575f90620130a7926001600160a01b0360ca54169083604051809681958294637bf41d7760e11b84526004840162012e82565b03925af190811562013422575f91620133fb575b50935b8451620130d388808801928801018262012ef2565b5160068a0154908181036201338c57505063ffffffff6040620130fc8a89518a01018462012ef2565b015116974289116201331b5789549563ffffffff87821c16808b1115620132b457505060c0620131328289518a01018462012ef2565b0151968760170b5f811262013256575063ffffffff9260a092826201315b935101019062012ef2565b015116906201317261ffff8660a01c1642620099e8565b808310620131e0575050505050620131ce9177ffffffffffffffffffffffffffffffffffffffffffffffff620131b260ff620131ba9460b01c1662016a6a565b9116620099a7565b9463ffffffff60098596015416866200bdce565b620131da575050600192565b93909150565b9450945094955096909795506201323c576040805192835263ffffffff9093166020830152918101919091527f7f93aebf261535cb0331009511ba8896f348b68b1e0d448196c002a6bfcbdb7a9080606081015b0390a1929190565b9250637f93aebf60e01b5f5260045260245260445260645ffd5b97505094505094955096909795506201329d57916040917f4d8c851d919cf102ec02f76a35ca2f0b9e8ca3e9cd36ecc7128c03c7048e247a938351928352820152a1929190565b5090634d8c851d60e01b5f5260045260245260445ffd5b959c9a50979895509299919550506201330157907fac23cd4bf85c84f3aa74c4752cbc1abc6ca3871a6e6b676f56bd64f992b700ae949392916040519384528301526040820152a1929190565b508263ac23cd4b60e01b5f5260045260245260445260645ffd5b50509495935096915096945062013372576040805192835263ffffffff909116602083015242908201527f560f753ea20ff5d3b404893dc8502570dec81bbc02626784a8f3d635f9c21b2990806060810162013234565b90632b07ba9f60e11b5f526004526024524260445260645ffd5b95509697505093509690979550620133e157604080519283526020830193909352918101919091527fe9ab5ccfbd8b803e0bd519630f62d1a32b22e517a5bfcd78e8c860b36c98386b90806060810162013234565b925063e9ab5ccf60e01b5f5260045260245260445260645ffd5b6201341b91503d805f833e62013412818362009085565b81019062012e59565b5f620130bb565b6040513d5f823e3d90fd5b620134399186620168b7565b9015620134475793620130be565b50965096945050509050929190565b9650505050939150506201349c577f09c9ec7d8ebb7546d7aa7fae159f14736cab80420326900e4b1ce60942f331d89160409182519182526020820152a15f905f905f90565b906309c9ec7d60e01b5f5260045260245260445ffd5b815181526020918201910162012ffa565b92620134f36201351893620134ec8694620134e581620134e58860646200d216565b946200d216565b906200d82a565b620134ff82826200d84e565b915f8212918262013574575b505062013569576200d1e8565b8160648293125f14620135455713158062013539575b6200911c90620093c3565b5060648113156201352e565b6200911c916064131590816201355d575b50620093c3565b90508213155f62013556565b6200f022906200d204565b62013580925062012155565b15155f806201350b565b91620134f3606492620134ec620135ad95620134e581620134e58860016200d216565b80600113158062013539576200911c90620093c3565b9061a767620135d961217b918406809462009474565b92049061217b82029180830461217b14811517156200458d576200911c909284620099e8565b600182018092116200458d57811c90816201361b5750505f1990565b62004c616200911c925b905f916fffffffffffffffffffffffffffffffff81161562013733575b6001600160401b038116156201371c575b63ffffffff81161562013705575b61ffff811615620136ee575b60ff811615620136d7575b600f811615620136c0575b6003811615620136a9575b600116156201369957565b90600181018091116200458d5790565b91600281018091116200458d579160021c6201368e565b91600481018091116200458d579160041c62013683565b91600881018091116200458d579160081c62013678565b91601081018091116200458d579160101c6201366d565b91602081018091116200458d579160201c62013661565b91604081018091116200458d579160401c62013653565b60809250821c62013642565b916080936200c5b091979695929761ffff60a08601991685526020850152604084019062008e24565b92939091935f5f93549164ffffffffff8360b81c1681115f1462013b17575064ffffffffff8260b81c16915b82968654620137bb60ff8260b81c1660ff8360b01c168763ffffffff8760981c1662012bb9565b90620137d560028a01549261ffff8460c81c169062012c31565b98620137e288826200d112565b96871562013b005750620138149060ff8360b81c16908c60ff8560b01c16918860e01c9060ff8a60401c1690620120fe565b92620138388b6001600160401b038760481c1664ffffffffff8860b81c1662016aef565b929050600260ff8760401c1610156200522d578b9a8660401c60ff16159c8d91878460b81c60ff16928560b01c60ff1692888c60981c63ffffffff169162013880976201225b565b998a1562013a42578c8062013a38575b801562013a24575b6201399d5750808c868d60ff80620138c69660b81c169460b01c16928763ffffffff8c60981c1691620122e5565b978815620138da5750505050505050600195565b9b969798999a9b62013951576040805160a89490941c61ffff168452602084019190915282015260989290921c63ffffffff1660608301526080820188905260a08201527f2e92846d5b5d5dd9cf60dd19064afe4a911e6751cdad455cb26a600db66e963c908060c081015b0390a1959493929190565b604051632e92846d60e01b815260a89390931c61ffff1660048401526024830152604482015260989290921c63ffffffff1660648301526084820188905260a48201528060c481010390fd5b999a9b9c9798925050919250620139f3579162013946888760ff947f2822c66c89ce366f8d2961ecb44375cdaf6fd59a220e83b68f12498108778f849661ffff60405197889760401c169260a81c16866201373f565b60408051630a08b19b60e21b815293849362001bc0938b938a93901c60ff169160a81c61ffff16600487016201373f565b508c1580156201389857508a891062013898565b508a891162013890565b999a9b9c9798905062013ab4576040805160a89490941c61ffff168452602084019190915282015260989290921c63ffffffff1660608301526080820188905260a08201527f0df65f0bfef22299d2332a74323c24d136c79b82d668afc82cfe8dfb0d75a2f2908060c0810162013946565b604051630df65f0b60e01b815260a89390931c61ffff1660048401526024830152604482015260989290921c63ffffffff1660648301526084820188905260a48201528060c481010390fd5b5f9c8d9c50909a508b995089985095505050505050565b9162013794565b90929190821562013b905783811062013b885762013b4f916200f8f5915b85851562013b7c57620121a39162009474565b901562013b6257906200911c91620099e8565b8082111562013b76576200911c9162009474565b50505f90565b90620121a39162009474565b505050505f90565b80841062013b885762013b4f916200f8f59162013b3c565b9562013c3291949295965f9580549762013bda866001600160401b038b60481c1664ffffffffff8c60b81c1662016aef565b96909262013be8886200d819565b9b62013c2860ff8d60401c169c8d858d8a54938b60ff808760b81c169660b01c169461ffff8360881c169363ffffffff8460981c169360e01c926200cf71565b9991909a6200d1e8565b9b5f8d1262013e79575062013c478c6200d819565b8c60018801548060401c62ffffff1662013c6290836200d82a565b5f610c8052620186a09005610c8052610c80515060581c62ffffff1662013c89916200d82a565b620186a090059a8b9d8c610c805162013ca2916200d1e8565b62013cad916200d216565b9b87158062013e71575b62013e4d575b5062013ce3600389016001600160501b036200d7ee610c805182845460501c16620182c4565b62013cee8262016b10565b915f81121562013dcb57505062013d089150848762012c72565b825f5260d560205260405f209362013d218c8662016b20565b9962013d3a60c954916001600160701b038316620182c4565b906001600160701b0319161760c95560ff825460401c1660028110156200522d5762013db95762013d6c838762016b9d565b1562013d9d57505061ffff60028462013d8f60059460116200924c980162014b5a565b015460a81c16910162014c66565b915091506200924c925062013db38a8262016bc8565b62016c5e565b62013dc5838762016b57565b62013d6c565b8262013ddc575b5050505062013d08565b7fbee5185c13c42cac0d82b6c115c77d5e8dc2b2888c013d169e068e634f57f58e9362013e0c60e0948b620111d5565b61ffff60028b015460a81c16926040519384528860208501526040840152866060840152151560808301525f60a083015260c0820152a15f80808062013dd2565b909d5062013e608162013e67936200d1e8565b9e6200d1e8565b9c5f9c5f62013cbd565b508362013cb7565b848d8c8662010aa960c49561ffff60028e015460a81c169560405196630c62a44b60e11b885260048801526024870152604486019062008e24565b9260a094919796959260c08501988552602085015262013ed48162008aef565b6040840152606083015260808201520152565b600181109291831562013f5c575b8362013eff575050565b62013f3c57507f36bcd027a371ec05acd4f563a155f51be204511b55fb95d0451703d02e3ca185604080516001815264ffffffffff6020820152a1565b630793b30360e11b5f52600452600160245264ffffffffff60445260645ffd5b92508064ffffffffff109262013ef5565b6106a0819052610660919091526107e08390525f610760526103e89262013f979160090162017b26565b9061072052610840525f610740525f61074052806107a05260026106a05101546106c0525b8015158062014aec575b1562014aa4576106605115158062014aad575b62014aa457505f6106e0525f610780525f610700525f6106e052620140086107205160096106a051016200cfeb565b50610680526107a05161078052610700525b6107805115158062014a97575b8062014a8a575b15620149a357610680515f5260106106a0510160205260405f20805463ffffffff81165f5260d560205260405f206108005260ff610800515460a01c16620140768162008aef565b15620141215750620141185f620140d16001828561ffff7f86ad99b48b2565c9720e33335db58e8c7468d6af03a5e6238b20d4a562f5b8b4975460c81c166106805261ffff6106c05160a81c169060096106a051016201a0bc565b6040969492969591955196879661ffff6106c05160a81c168893909796959260c0959260e08601998652602086015260408501526060840152608083015260a08201520152565b0390a16201401a565b6201413563ffffffff8260781c1662010c99565b15620141905750620141185f620140d16001828561ffff7fb95e250f9f017dcb1bb1806916771df0c04a269e5f46d5db7519382a0f7bb477975460c81c166106805261ffff6106c05160a81c169060096106a051016201a0bc565b63ffffffff8116620141f15750620141185f620140d16001828561ffff7f52d5291dc7b477ebda965d0693c67e6ccec5b3667b530305685465384756d3fd975460c81c166106805261ffff6106c05160a81c169060096106a051016201a0bc565b5f6201420360ff8360201c1662011530565b6201494b575b15620142645750620141185f620140d16001828561ffff7fae6369c6e529c86dd87431d10e0db70657c834daa75356e1efd7c0ac79f934b7975460c81c166106805261ffff6106c05160a81c169060096106a051016201a0bc565b9064ffffffffff8260401c1680610820526201428660ff8460201c1662011530565b62014910575b61078051811180156107c052620149025762014349815b60026106a0510154906201430c620142fe64ffffffffff841664ffffffffff8560281c168082115f14620148fa57505b60ff8560e01c169060ff8660d81c169064ffffffffff8760501c16908661ffff8960b81c166200e692565b61ffff8860981c1662012c10565b9061ffff808860d81c169360881c1691610820519061084051906108405190610840519060ff8c60201c169063ffffffff8d166106a05162016c9b565b61098051929593909286916006198101620147b957506107c051156201474857620143866201437c87610840516200942e565b6106e051620099e8565b6106e05262014399866107805162009474565b610780525b620143ac610700516200ada2565b610700526107c05115620144cc5750505091610120939185936201440e6201440763ffffffff7ff5f5aef063f495816b6982c44c70c97c8fbec2fa24b73487e6542ce02143121499168461ffff6106c05160a81c1662015855565b956200d1e8565b9261ffff835460c81c1661068052620144626201444161ffff8860a81c1661ffff6106c05160a81c166108005162010def565b936201445460ff825460201c166201155e565b9060096106a0510162014fa9565b6201447b61ffff8760a81c1660096106a0510162015514565b61ffff60405196816106c05160a81c16885263ffffffff8116602089015260a81c166040870152610840516060870152608086015260a085015260c084015260e0830152610100820152a16201401a565b909491955060ff845460201c165f5f9061ffff8a60a81c16156201471a5761ffff8a60a81c166303ff00006106c05160981c16175f526002610800510160205260405f209283549063ffffffff821615620146e257917ff5f5aef063f495816b6982c44c70c97c8fbec2fa24b73487e6542ce0214312149b99979593916201455b6101209c9a98969462014ee2565b156201466b575050508062014583836001600160501b036201458d945460901c1692620193f1565b6108005162014f47565b506201459d81610800516201945b565b936001600160501b036108005154168511945b94620145bf575b50506201447b565b7f6d6191eb9e6651b10a6b278ab4d021e3c8b8810a0290234d29d74556915d5dcf91929450806201461560015f64ffffffffff610140955460401c169361ffff6106c05160a81c169060096106a051016201a0bc565b97916040959195949394519561ffff6106c05160a81c1687526020870152604086015261084051606086015260808501528660a085015260c08401525f60e08401526101008301528a820152a1915f80620145b7565b8590620146d6620146dc9394999561ffff6106c05160a81c165f526003610800510160205264ffffffffff620146ab858260405f209660681c16620115cf565b825471ffffffffff000000000000000000000000001916911660681b64ffffffffff60681b16179055565b62014f0a565b620145b0565b8b61ffff63ffffffff60016108005101541691638d5bba0f60e01b5f52816106c05160a81c1660045260a81c1660245260445260645ffd5b63ffffffff6001610800510154166369bc91ef60e11b5f5261ffff6106c05160a81c1660045260245260445ffd5b9450620147606201437c61078051610840516200942e565b6106e052620147a964ffffffffff620147836107805182885460401c16620115cf565b86546cffffffffff00000000000000001916911660401b64ffffffffff60401b16178555565b61078051945f610780526201439e565b975050505050909150600d8314620148b4577f1c304023b27262393dcde9fe67af613bc45ee4f8c452b031dc393d074031157b926101809282549061ffff8260c81c16610680526107c0515f14620148a55761ffff90925b6201483760015f60ff8660201c1697856106c05160a81c169060096106a051016201a0bc565b95939692979160409991995199856106c05160a81c168b5260208b015260408a0152620148648162008aef565b606089015261084051608089015260a088015260d81c1660c086015260e08501526101008401525f610120840152610140830152610160820152a16201401a565b5061ffff610780519262014811565b60846106a0515461ffff60405191631f466abb60e21b8352816106c05160a81c16600484015263ffffffff8160201c16602484015242604484015260a01c166064820152fd5b9050620142d3565b6201434961078051620142a3565b63ffffffff83165f5260126106a0510160205264ffffffffff60405f205460b81c1681811062014942575b506201428c565b90505f6201493b565b5063ffffffff81165f5260126106a0510160205260405f2064ffffffffff815460b81c1615151590811562014982575b5062014209565b6201499c915060ff808460201c16915460401c16620162b2565b5f6201497b565b6107005161078051620149bd6106e05161076051620099e8565b61076052610780516107a0510362014a74575b610700511562014a0757610780511562013fbc57620149f96107e05160096106a0510162017b26565b610840526107205262013fbc565b9190507fb492fac0bb9e8c8d824bf2a4c19ec1efd3e98e987de34e127bc17eb2b5c0605e5f80a15b6107405162014a3a57565b6106a05161074051600191909101805467ffffffffffffffff191663ffffffff92909216919091174260201b63ffffffff60201b16179055565b6108405161074052610780516107a052620149d0565b506107005115156201402e565b5061068051151562014027565b91905062014a2f565b506107e0518062014adc575b8062013fd957506107e05115801562013fd9575061084051610660511162013fd9565b5061084051610660511062014ab9565b5061084051151562013fc6565b5f908062014b05575090565b5f198101915081116200458d57620186a09004600181018091116200458d5790565b908162014b345750505f90565b5f1982019182116200458d5762014b4b91620099a7565b600181018091116200458d5790565b906001820191815f528260205260405f2064ffffffffff815460b81c1662014b825750505050565b549063ffffffff808360201c16921663ffffffff82541684145f1462014c4a5762014bae818362017b73565b8062014c2b575b815460201c63ffffffff16840362014c0e57508162014bd49162017b97565b8062014bf2575b505b5f526020525f60408120555f8080806200a01d565b5f528160205260405f2063ffffffff1981541690555f62014bdb565b62014c259291505f528360205260405f2062017b97565b62014bdd565b805f528460205260405f2063ffffffff60201b19815416905562014bb5565b825f528460205262014c608160405f2062017b73565b62014bb5565b9060fc811162014c7c576001901b198154169055565b6101fc811162014cd15762014c9360019162009464565b1b1960018201908154168091551562014ca95750565b7fdfffffffffffffffffffffffffffffffffffffffffffffffffffffffffffffff8154169055565b6102fc811162014d265762014ce860019162009453565b1b1960028201908154168091551562014cfe5750565b7fbfffffffffffffffffffffffffffffffffffffffffffffffffffffffffffffff8154169055565b6103fc81111562014d35575050565b62014d4260019162009442565b1b1960038201908154168091551562014d585750565b6001600160ff1b038154169055565b9062014d8960c954926c1fffffffffffffffffffffffff8460701c1662011577565b917fffffffffffe0000000000000000000000000ffffffffffffffffffffffffffff8360701b91161760c955565b906303fcffff80821162014e1057507fffffffffffff00000000ffffffffffffffffffffffffffffffffffffffffffff79ffffffff0000000000000000000000000000000000000000000083549260b01b169116179055565b906395d41f3f60e01b5f5260045260245260445ffd5b906303fcffff80821162014e105750815463ffffffff60401b191660409190911b63ffffffff60401b16179055565b906303fcffff80821162014e1057507fffff00000000ffffffffffffffffffffffffffffffffffffffffffffffffffff7dffffffff000000000000000000000000000000000000000000000000000083549260d01b169116179055565b906303fcffff80821162014e105750815467ffffffff00000000191660209190911b63ffffffff60201b16179055565b62014eed8162008aef565b801590811562014efb575090565b600191506201155a8162008aef565b64ffffffffff62014f266200924c9382845460581c16620115cf565b825464ffffffffff60581b1916911660581b64ffffffffff60581b16179055565b805460501c6001600160501b031692918084111562014fa157808403935b6001600160501b03851162011598575050805469ffffffffffffffffffff60501b1916605084901b69ffffffffffffffffffff60501b16179055565b5f9362014f65565b9080548060281c9062ffffff821694859262014fc684876200cfeb565b9061ffff8560a81c16809114918262015509575b505062015334575b50505050805461ffff8160b81c1690811580809162015324575b15620150e957505050506006906201501960078406809462009474565b5f520160205260405f2090600160ff1983541617825580155f14620150475750805464ffffffff0019169055565b60018103620150635750805468ffffffff000000000019169055565b6002810362015083575080546cffffffff00000000000000000019169055565b60038103620150a75750805470ffffffff0000000000000000000000000019169055565b60048103620150c15750805463ffffffff60881b19169055565b600503620150d957805463ffffffff60a81b19169055565b805463ffffffff60c81b19169055565b92949215620152725750508261ffff91826007955460c81c1662015111868306809362009474565b5f526006850160205260405f2091600160ff1984541617835580155f14620151685750815462ffff00191660089190911b62ffff00161790555b5460c81c165f520160205260405f2061ffff60b81b198154169055565b60018103620151965750815466ffff0000000000191660289190911b66ffff0000000000161790556201514b565b60028103620151cc575081546affff000000000000000000191660489190911b6affff000000000000000000161790556201514b565b6003810362015200575081546effff00000000000000000000000000191660689190911b61ffff60681b161790556201514b565b600481036201522a5750815461ffff60881b191660889190911b61ffff60881b161790556201514b565b6005036201525257815461ffff60a81b191660a89190911b61ffff60a81b161790556201514b565b815461ffff60c81b191660c89190911b61ffff60c81b161790556201514b565b60c81c61ffff1680620152b8575050826201529b61ffff92836007965460b81c16908562017bec565b5460b81c165f520160205260405f2061ffff60c81b198154169055565b6200924c94919250620152f390600761ffff9501935f528360205260405f209061ffff60c81b1961ffff60c81b83549260c81b169116179055565b5490828260c81c165f5260205260b81c1660405f209061ffff60b81b1961ffff60b81b83549260b81b169116179055565b5061ffff8260c81c161562014ffc565b600386019260058701918160301c9261ffff841691825f5281602052600160ff60405f205492161b1916915f526020528060405f205515620154bb575b5050156201541e57835462ffffff8160781c1683145f14620153e75750906201539a916201141f565b5f198103620153d5575081547fffffffffffffffffffffff000000000000ffffffffffffffffffffffffffffff1682555b825f808062014fe2565b620153e1908362018648565b620153cb565b60901c62ffffff168214620153ff575b5050620153cb565b62015416916201540f916200ea19565b83620185f7565b825f620153f7565b835462ffffff8160481c1683145f146201548d5750906201543f916201141f565b5f19811480156201547a575b156201546e575081546effffffffffff00000000000000000019168255620153cb565b620153e19083620185c2565b5062ffffff835460781c1681146201544b565b60601c62ffffff168214620154a4575050620153cb565b6201541691620154b4916200ea19565b836201856e565b60ff9060381c16906004870190825f5281602052600160ff60405f205492161b191690825f526020528060405f205515620154f8575b8062015371565b6001901b1982541682555f620154f1565b1490505f8062014fda565b5f828152600782016020526040902063ffffffff60781b90558115620155975762015567826200924c9360081c90815f5260028401602052600160ff60405f2092161b1981541690556001830162018689565b6201557a61ffff825460201c1662010dde565b65ffff0000000082549160201b169065ffff000000001916179055565b6302f9530760e61b5f5260045ffd5b906101000361010081116200458d575f19901c1680620155c657505f1990565b6200911c905b905f916fffffffffffffffffffffffffffffffff8111620156c2575b6001600160401b038111620156ab575b63ffffffff811162015694575b61ffff81116201567d575b60ff811162015666575b600f81116201564f575b6003811162015638575b6001106201369957565b91600281018091116200458d579160021c6201562e565b91600481018091116200458d579160041c62015624565b91600881018091116200458d579160081c6201561a565b91601081018091116200458d579160101c62015610565b91602081018091116200458d579160201c62015605565b91604081018091116200458d579160401c620155f8565b60809250821c620155e8565b919080620156dc5750501590565b80620186a092938181115f14620156f75703925b0291021090565b900392620156f0565b9190916201570e8162010c99565b928362015719575050565b620157505760407f8ecb05e775f8b004d0796e497a6b28cfe97a6f8acd115327138350b5a08347ed918151908152436020820152a1565b638ecb05e760e01b5f526004524360245260445ffd5b61ffff811192918362015777575050565b620157b75760607fe99e76b7075a2c30a8d971cb3f247cba3e1995e4d12ff31053b190b2f71dcc7b916040519081525f602082015261ffff6040820152a1565b63e99e76b760e01b5f526004525f60245261ffff60445260645ffd5b91909294935f958203620157e75750505050565b9091929394506201583b57604080519283526020830193909352918101919091527f0ff65eacbb5b956c92957d3a4c76260d051566a34945c41b4e621bc895918ee790606090a16001905f8080806200a01d565b92506303fd97ab60e21b5f5260045260245260445260645ffd5b9291905f93825f5260d560205260405f2092825461ffff8160681c16908115801562015890575b5050505050506001600160501b0390541690565b612710839495969993029384046127101417156200458d5760c95460701c6c1fffffffffffffffffffffffff168084116201595957505050917e106621f9f74b437219c51c8fded1d9faa8056f77fd0f3631d2ab8967a4d75d916201594984620159036001600160501b03979662014d67565b906201591081886200c53f565b61ffff819a5460a81c16604051958695869160809361ffff91979695929760a08501988552602085015216604083015260608201520152565b0390a15b905f808080806201587c565b620159c59192985061ffff937ff662aa6b6412ffe2a4e433dace098e96260a08fdaefdb023773e41f999b7c4ec956001600160501b03989760405196879660a81c1691869160809361ffff91979695929760a08501988552602085015216604083015260608201520152565b0390a16201594d565b94939294610c0052610b2052610b0052610b80525f5f610ba0525f610ba0526002610c00510154610c4052610b005154610c605263ffffffff610c605160781c16610ae05260c08301359062015a27610ae05162010c99565b156201629557506001610ba0528015620161e557610ba05190610ae0525b5f9264ffffffffff610c605160401c16610ac05260a081013580151580620161d7575b620161a3575b5063ffffffff6009610c005101541662ffffff610c605160281c16610b4052610b4051155f146201618b5760805f925b83610c805201359182151590816201617f575b5062016156575b5050156200b67a5762015b0660ff610c405160e01c1660ff610c405160d81c1664ffffffffff610c405160501c1664ffffffffff610c405116610ac05161ffff610c405160b81c166200e692565b91801562016142575b80610c2052156201612c575b62015b2f60ff610c605160201c166201155e565b610be0525f91610c205162015e52575b5050610ba05162015e33575b62015b7e62ffffff610b405116610b00519067ffffff000000000082549160281b169067ffffff00000000001916179055565b62015bb364ffffffffff610ac05116610b00519064ffffffffff60401b82549160401b169064ffffffffff60401b1916179055565b62015bfd63ffffffff610ae05116610b0051907fffffffffffffffffffffffffff00000000ffffffffffffffffffffffffffffff63ffffffff60781b83549260781b169116179055565b610ba05162015dec575b610c20511562015db15760ff610b00515460201c1661ffff610c605160a81c161562015d835761ffff610c605160a81c166303ff0000610c405160981c16175f526002610b20510160205260405f209081549063ffffffff82161562015d475762015c729062014ee2565b1562015d1c578262015cc87fbf5d27a683d1ce858f6095fde2cc9837ba595c533e97576c5ff3de4376ccbf3c9460c09462015cc16001600160501b0362015cd29660901c16610b205162014f47565b50620193f1565b610b20516201945b565b61ffff610b00515460a81c16906001600160501b03610b2051541690604051928352610c80516020840152610ac0516040840152610ae0516060840152608083015260a0820152a1565b63086415b760e01b5f5261ffff610c405160a81c1660045261ffff610c605160a81c1660245260445ffd5b63ffffffff6001610b2051015416638d5bba0f60e01b5f5261ffff610c405160a81c1660045261ffff610c605160a81c1660245260445260645ffd5b63ffffffff6001610b20510154166369bc91ef60e11b5f5261ffff610c405160a81c1660045260245260445ffd5b507fbf5d27a683d1ce858f6095fde2cc9837ba595c533e97576c5ff3de4376ccbf3c60c06001600160501b03610b20515460501c1662015cd2565b610b005180547fffffffffff00000000ffffffffffffffffffffffffffffffffffffffffffffff168155610be051610c005162015e2d92906009016201906e565b62015c07565b62015e4c610be051610b00516009610c00510162014fa9565b62015b4b565b62015e9e91925062015e6f9061ffff610c605160981c1662012c10565b61ffff610c405160881c1690610ac05190610c80519060ff610c605160201c1690610b8051610c005162017d7d565b919593949092610b6052610bc0525092809362015ee683610b605186610bc051610ac051610b4051610c8051610be05160ff610c605160201c16610b8051610c005162017f92565b156200d12c5761ffff610c605160a81c166303ff0000610c405160981c16175f526002610b20510160205260405f205463ffffffff811615620160fa576001600160501b039060901c1691610b205154916001600160501b038360501c169380851015620160e6575b505f93806001600160501b03851611620160c7575b508015620160bf5762015f7791620099e8565b925b8383106201604b575b5050106200b67a57600a610bc0511462015f9e575b8062015b3f565b6101207fb971bdbd8f44fbf3ba501ee287c2533eb61b09097d638c664566aac00bbb3e65916003610c00510154906001600160501b036040519261ffff610c405160a81c168452610b805160208501526201600260ff610c605160201c1662008aef565b60ff610c605160201c166040850152610c80516060850152610ac051608085015281811660a085015260501c1660c083015260e0820152610b6051610100820152a15f62015f97565b6201609c5760408051848152602081018490526001600160501b0392909216908201527fb853e5846ad52919c794f709695100094681c458cd1864d5217c6c897b6858b190606090a15f8062015f82565b906001600160501b0392632e14f96160e21b5f526004526024521660445260645ffd5b509262015f79565b620160de9194506001600160501b03841662009474565b925f62015f64565b620160f2919462009474565b925f62015f4f565b638d5bba0f60e01b5f5261ffff610c405160a81c1660045261ffff610c605160a81c16602452610b805160445260645ffd5b61ffff610c605160981c1615610c205262015b1b565b5061ffff610c605160981c16821062015b0f565b6001610ba081905294508492506201616f908262009474565b610b4052610c80525f8062015ab8565b90508214155f62015ab1565b60806201619c82610b4051620099e8565b9262015a9e565b91509250610ba051610ba05115620161ca575b610ba0526001928391610ac0525f62015a6e565b50610ac0518111620161b6565b50610ac05181141562015a68565b50905062016251577fef9c486e607431362e32f87055ecc54107d0bde504cfbca8d6a59a6108b99ead604051806200b98c610ae051610b805161ffff610c605160a81c1661ffff610c405160a81c16859094939260609260808301968352602083015260408201520152565b6040516377ce243760e11b8152610ae051610b8051610c6051610c405161ffff60a891821c8116600487015291901c16602484015260448301526064820152608490fd5b9080620162a4575b5062015a45565b610ae0525060015f6201629d565b60028110156200522d57600290620162ca8362008aef565b159114141590565b939190805f5260d5602052600360405f20019061ffff600287015460a81c1691825f5260205260405f205464ffffffffff8160581c16968715620164b557601290835f520160205260ff60405f209160501c1690549260ff8460401c169260028410156200522d57831583151503620163ed575050505060b81c64ffffffffff169380851115620163e45762016369908562009474565b905b818111938415946201637f57505050909150565b620163c9576200e3b87f1b7ba008cbebdd0330e64275c62765a671adbce08d86e7b894f0601a886b78cf939495604051938493846040919493926060820195825260208201520152565b84925063036f740160e31b5f5260045260245260445260645ffd5b505f906201636b565b9295979691945092506201646157505091620164506060927f04d93c80531ebbd61ebd9906714391b8431ec4437abe44969d252210244128de945f146201645557620164455f5b604051948552602085019062008e24565b604083019062008e24565ba15f90565b62016445600162016434565b83620164a162000f96928760a4965f14620164ac575f915b60405196634298a83160e01b8852600488015260248701526044860152606485019062008e24565b608483019062008e24565b60019162016479565b5050505050915050600190565b919092600601806006116200458d57620164e062016515916200ad27565b6200b5585f841293845f146201655157620164fb906200d819565b955b6201650e8362000cc6838a6200942e565b966200942e565b9160028110156200522d576201653b57156201652f575090565b6200911c91506200d819565b156201654d576200911c91506200d819565b5090565b95620164fd565b9293620165c691955f96549162016587876001600160401b038560481c1664ffffffffff8660b81c1662016aef565b9490938596859989549260ff808560b81c169460b01c169261ffff8260881c16918c63ffffffff8260981c169260ff8360e01c9360401c16916200cf71565b9491959085620165d88298846200d1e8565b94156201661a5750505050505f5b6001600160501b036201660760038398015482808260501c16911662012c51565b168111620166125750565b600a97509450565b5f85126201662c5750505050620165e6565b600c9b509299505f98509096509450925050565b94909192945f9560028110156200522d5715958615620166e657948060101b908082046201000014901517156200458d57935b8060101b908082046201000014901517156200daaf57620166b79262004c5b640f4240000095938362004c5b94891198895f14620166db579062004c5b9162009474565b049215620166d357905b50156200911c576200911c906200d819565b1590620166c1565b62004c5b9162009474565b508460101b948086046201000014901517156200458d575f949362016673565b94959390919260028110156200522d5715958615620167e3578015620167b9575f1982019182116200458d578160101b918083046201000014901517156200458d576201675391620099e8565b935b8260101b928084046201000014901517156200458d57640f424000009362004c5b62004c5b92856201679896891198895f14620166db579062004c5b9162009474565b049115620167b2575b156200911c576200911c906200d819565b15620167a1565b508060101b9080820462010000149015176201675357634e487b7160e01b5f52601160045260245ffd5b8160101b918083046201000014901517156200458d576201680491620099e8565b9362016755565b5f60443d106200911c576040513d600319016004823e8051913d60248401116001600160401b038411176201687d57828201928351916001600160401b03831162016875573d840160031901858401602001116201687557506200911c9291016020019062009085565b949350505050565b92915050565b3d15620168b2573d906201689782620090a7565b91620168a7604051938462009085565b82523d5f602084013e565b606090565b92919092620168f05f80936060966001600160a01b0360ca54169083604051809681958294637bf41d7760e11b84526004840162012e82565b03925af15f918162016a4a575b5062016a4057505f60033d1162016a2f575b806308c379a014620169d757634e487b711462016979575b7f7d7f9345462f0c85c00b5c2083a2ddd2d72fb70e98d0ebed71562cba6feef687906201695362016883565b9062016972604051928392835260406020840152604083019062008aae565b0390a19190565b5f8060233d11620169c5575b62016991575062016927565b7fe526d22a15e94c788050d8c0ca8cddc836ce3580e3dbe7ac64afb9229c7d633e9160409182519182526020820152a19190565b5050602060045f3e5f51600162016985565b50620169e26201680b565b80620169ef575062016927565b7fd83687e05ff302f677e5adcaeee1a4cb3c6473e57b9000d71f2c42ff6ada466c9162016972604051928392835260406020840152604083019062008aae565b5060045f803e5f5160e01c6201690f565b9293505050600191565b62016a629192503d805f833e62013412818362009085565b905f620168fd565b6006810362016a7d575064e8d4a5100090565b6005810362016a9157506509184e72a00090565b6004810362016aa55750655af3107a400090565b6003810362016aba575066038d7ea4c6800090565b6002810362016acf5750662386f26fc1000090565b60011462016ae357670de0b6b3a764000090565b67016345785d8a000090565b8281149392841562016b0057505090565b62000cc6906200911c936200942e565b5f811262016b1b5790565b5f0390565b919062016b38906001600160501b03845416620182c4565b825469ffffffffffffffffffff19166001600160501b03821617909255565b9064ffffffffff62016b7860026200924c94019282845460281c16620115cf565b825469ffffffffff00000000001916911660281b69ffffffffff000000000016179055565b64ffffffffff62016bb760028293019382855416620115cf565b161664ffffffffff19825416179055565b90815460481c6001600160401b038116915f62016be58262016b10565b91131562016c4b5762016bf98184620099e8565b925b6001600160401b03841162011670575050825469ffffffffffffffffffff60481b19166001600160501b0390921661ffff60401b919091161760481b69ffffffffffffffffffff60481b16179055565b62016c57818462009474565b9262016bfb565b64ffffffffff62016c7a6200924c9382845460b81c16620115cf565b825464ffffffffff60b81b1916911660b81b64ffffffffff60b81b16179055565b9a989693929a999599979497610b4052610b2052610b0052610a6052610ae052610ac052610a20525f610880525f6109a0525f610980525f610960525f610aa0525f610880525f6109a0525f610980525f610960525f610b20515f5260d560205260405f20610a80526001600160501b03610a8051541694610b20515f526012610b40510160205260405f209162016d38610ac05189856201830c565b62016d438962014ee2565b8062017b16575b62017ad3575b62016d5b8162008aef565b806201728a57505050509062016d8d91610a205191610b005190610ac05190610a605189610a8051610b40516201839c565b610a40849052610880839052929590918390871562016e2c575b505050505b610a8051546001600160501b03169280841080159062016e195762016dd2828662009474565b915b6001600160ff1b03831162016dfd57501562016dee579291565b62016df9906200d819565b9291565b8563e69a04b360e01b610aa051526004526024526044610aa051fd5b62016e25858362009474565b9162016dd4565b839497509262016e3e919293620099e8565b9162016e4a8162008aef565b62017281575f905b61ffff6002610b4051015460a81c166108a0525f60c060405162016e768162008fdb565b8281528260208201528260408201528260608201528260808201528260a082015201526001600160401b0383116200be9f5764ffffffffff610ac0511162017262575f610aa05260405162016ecb8162008fdb565b5f81525f602082015262016ee3836040830162009f45565b6001600160501b038416606082015263ffffffff610a605116608082015264ffffffffff610ac0511660a082015263ffffffff431660c0820152610b20515f526012610b40510160205264ffffffffff60405f205460b81c166201724557610b40516011015460201c63ffffffff16806201720f575062016f6e610b20516011610b40510162017b73565b610b20515f526012610b40510160205260405f2063ffffffff808351161663ffffffff1982541617815562016fc863ffffffff602084015116829063ffffffff60201b82549160201b169063ffffffff60201b1916179055565b60408201519160028310156200522d5760c063ffffffff916200f7ab62016ff095856201a053565b62017005610b20516011610b40510162017b97565b6005610a80510161ffff6002610b4051015460a81c1660fc8111155f1462017164576001901b81541790555b6201704b620170418285620099e8565b610a80516200e59e565b6201705a83610b4051620111d5565b620170756200f8fb6200f8f583610b40515460e81c6200942e565b9062017081826200b86a565b6201709081610b4051620111f1565b60028310156200522d577f04cc3d2fc73a9dca30eba1d05eca80b1b1216350243580027046f434fed4db189461016094846201714c57620170d8610ac051610b40516201a0a2565b6201710661ffff6002610b4051015460a81c1695604051968752610b20516020880152604087019062008e24565b610b00516060860152608085015260a0840152610a605160c0840152610ac05160e08401526101008301526101208201525f610140820152a16007925f80808062016da7565b6201715e610ac051610b40516201a081565b620170d8565b6101fc811162017199576201717b60019162009464565b1b6006610a805101908154179055600160fd1b815417905562017031565b6102fc8111620171ce57620171b060019162009453565b1b6007610a805101908154179055600160fe1b815417905562017031565b6103fc811115620171e2575b505062017031565b620171ef60019162009442565b1b6008610a805101908154179055600160ff1b81541790555f80620171da565b63ffffffff81116200fad1578060208301525f526012610b4051016020526201723f610b205160405f2062017b73565b62016f6e565b633f1ed2e160e21b5f526108a051600452610b205160245260445ffd5b6395d41f3f60e01b5f52610ac05160045264ffffffffff60245260445ffd5b60019062016e52565b9091929597506201729b8162008aef565b60018103620175685750505090620172d4915f6109c052610a205191610b005190610ac05190610a6051610a805188610b405162018ab7565b610b80516109e052610c005161094052610a00849052610ba051610bc0516109c086905291959294919291600a03620173315761ffff6002610b4051015460a81c166003610b405101549062001bc06200fbd86109e05162016b10565b610a00511562017355575b50505050509161094051610880526109c0519262016dac565b6201736490610a805162016b20565b50620173736109e05162016b10565b5f6109e051125f1462017553576201739390610b2051610b405162012c72565b620173aa6200f8f586610b40515460e81c6200942e565b620173b6818762009474565b91620173c2836200b86a565b620173d182610b4051620111f1565b54620173eb6001600160401b038260481c1694856200d1e8565b905f82126200fe595760ff8160401c169460028610156200522d577f99a74f70c224396b9ba5fcd5a6e5f480db23e7a25a2b16a8c133ec2efb3e646c976101e0976201746264ffffffffff8560b81c1694891590610ac0519087610a60519163ffffffff61ffff8260881c169160981c166201a837565b61086052969094909150896201753b5762017484610ac051610b40516201a0a2565b620174da61ffff6002610b405101620174ba8d8b84845460a81c168b8943946108605193610b2051906011610b4051016201a6a8565b5460a81c169a6040519b8c52610b205160208d015260408c019062008e24565b610b005160608b015260808a015260a089015260c088015260e0870152610a20516101008701526101208601526101408501526101608401526101808301526101a0820152610860516101c0820152a160076109c0525f808080806201733c565b6201754d610ac051610b40516201a081565b62017484565b6201756290610b4051620111d5565b62017393565b949694600390620175798162008aef565b036201783f575090620175ae92915f61090052610a205192610b005191610ac05191610a6051610a80518b610b4051620187b3565b610920939093526108e0879052610b80516109008890529599939690929190600a03620175ff5761ffff6002610b4051015460a81c166003610b405101549062001bc06200fbd86109205162016b10565b6108e0511562017620575b5050505050509261088052610900519262016dac565b6201765d90620176336109205162016b10565b5f61092051125f146201782a576201765390610b2051610b405162012c72565b610a805162016b20565b50620176756200f8f587610b40515460e81c6200942e565b9062017682828862009474565b926201768e846200b86a565b6201769d83610b4051620111f1565b84549660ff8860401c169560028710156200522d578c886201771b6101c09a64ffffffffff947f01a0596385c75b269e896ca6468a2be2edc8b2b5459f4e25ca0a75944390a10c9d8c155f146201780157506201770486825460b81c16610b405162016b9d565b6201771387610b40516201a081565b5493620099e8565b61ffff6002610b4051016201775882825460a81c168d155f14620177f857886001915b864393610a605192610b2051906011610b4051016201a449565b5460a81c1699620177ed576201778460015b6040519b8c52610b205160208d015260408c019062008e24565b610b005160608b01526001600160401b038360481c1660808b015260a08a015260c0890152610a605160e089015260b81c166101008701526101208601526101408501526101608401526101808301526101a0820152a16007610900525f80808080806201760a565b620177845f6201776a565b885f916201773e565b86620178159160b81c16610b405162016b57565b6201782487610b40516201a0a2565b62017713565b6201783990610b4051620111d5565b62017653565b95926201785e919250610b005190610ac051908486610b4051620186b6565b6108c094909452509395919490939186600a8103620178d157610b4051600281015460039091015460405163063c641b60e41b81526108c05160a89390931c61ffff1660048201526001600160501b03808316602483015260509290921c90911660448201526064810191909152608490fd5b15620178f0575b5050505050610960526108c0516109a0529262016dac565b909192939495506201790d6108c051610b2051610b405162012c72565b6201791f6108c051610a80516200c53f565b60ff815460401c169360028510156200522d578462017abb576201794a610ac051610b405162016b9d565b8615620179f4575050907f599b5f439ed4daf1f28ae8638e5439d3982e8001fb26dd8f70021b38672eb26f9360c093926201798f610b20516011610b40510162014b5a565b620179d561ffff6002610b405101620179b582825460a81c166005610a80510162014c66565b5460a81c1694604051958652610b20516020870152604086019062008e24565b6060840152608083015260a0820152a15b6007905f80808080620178d8565b819392506101209464ffffffffff809262017a347fcd4a9f7ae1cc250eaa0be6bdb30d07efaf0faafb4ff0e76d8fe09a8373e43f85999554918862018237565b62017a43610ac0518862016c5e565b62017a7361ffff6002610b4051015460a81c16975493604051988952610b205160208a0152604089019062008e24565b6001600160401b038160481c1660608801526001600160401b038360481c16608088015260b81c1660a086015260b81c1660c084015260e0830152610100820152a1620179e6565b62017acd610ac051610b405162016b57565b6201794a565b62017b0c62017ae9610ac051610ae05162009474565b62010425610b405154610b00519260ff808360b81c169260b01c16908b62012bb9565b6109805262016d50565b50610ac051610ae0511162016d4a565b91901562017b5d5763ffffffff62ffffff80845460601c165b1692541682155f1462017b5157505f90565b6200911c9083620099e8565b63ffffffff62ffffff80845460781c1662017b3f565b9063ffffffff81116200fad157815463ffffffff191663ffffffff91909116179055565b91909163ffffffff831162017bd15763ffffffff6200924c92931663ffffffff60201b82549160201b169063ffffffff60201b1916179055565b826395d41f3f60e01b5f5260045263ffffffff60245260445ffd5b60069062017bff60078406809462009474565b5f520160205260405f2090600160ff1983541617825580155f1462017c43575061ffff6200924c921664ffff00000082549160181b169064ffff0000001916179055565b6001810362017c79575061ffff6200924c921668ffff0000000000000082549160381b169068ffff000000000000001916179055565b6002810362017cb7575061ffff6200924c92166cffff000000000000000000000082549160581b16906cffff00000000000000000000001916179055565b6003810362017ce5575061ffff6200924c921661ffff60781b82549160781b169061ffff60781b1916179055565b6004810362017d13575061ffff6200924c921661ffff60981b1961ffff60981b83549260981b169116179055565b60050362017d3f5761ffff6200924c921661ffff60b81b1961ffff60b81b83549260b81b169116179055565b61ffff6200924c92167fffffff0000ffffffffffffffffffffffffffffffffffffffffffffffffffffff61ffff60d81b83549260d81b169116179055565b9395929490955f955f955f5f988a5f5260d560205260405f209a5f526012830160205260405f209162017db28786856201830c565b62017dbd8162008aef565b8062017de357505050509062017dd79697988392620184ff565b92959194859392909150565b909192945062017df38162008aef565b6001810362017e205750505097829162017e0f97989962018eb9565b969995988997969095509350505050565b60039192939599505f9b9894969a979b5062017e3c8162008aef565b0362017f6f5750509662017ebc9160ff8883899a9b8a5f98549564ffffffffff8760b81c169889976001600160401b0362017ead8454948a8660b01c16809b819760b81c169c8d98899361ffff8860881c169163ffffffff8960981c16918960e01c9160ff8b60401c16916200cf71565b939193505060481c166200d1e8565b5f81131562017f565762017ed09062016b10565b9c62017ee962017efa9a8f9762017ef0985b5062009474565b9062019fd7565b509a909962019fa1565b50509262017f0d876201217a886200d819565b905f8212918262017f34575b50501562017f2d57506005945b9192939495565b9462017f26565b6001600160501b0391925062017f4a9062016b10565b915416105f8062017f19565b505f9c62017ee962017efa9a8f9762017ef09862017ee2565b9794509794505093809162017f8495620186b6565b925092949593505090929395565b939498919295969997909961ffff600286015460a81c1697811515806201812a575b620180c357505062017fd79288925f9262017fce6200c558565b928d8b62018f19565b620180b85782600962017fef9201968886896201a153565b909682989262018010575b50505050505050506201800c57600190565b5f90565b5463ffffffff1681620180a65750505f945b6201806d575050604080519384529315156020840152507fc0ed4041bfe51a7b847f46f096b9d2495866089371037e3efd436bd858f46edd92919050a15f8080808080808062017ffa565b9160c4949186936040519563beb3942960e01b8752600487015260248601526044850152151560648401526084830152151560a4820152fd5b620180b191620099e8565b9462018022565b505050505050505f90565b9798945099985050509192506201810857505050505060207f18a118a5bb122057e420b1bcf7903a57ebc749be0d1981d112c6e257e7bd5e8891604051908152a15f90565b91859162001bc0936040519687966321b303f960e11b88526004880162013eb4565b50600a82141562017fb4565b9499939597909a9891929661ffff600287015460a81c169881151580620181b8575b620181725750509162017fd79391899362017fce6200c558565b989995509a99505050929350506201810857505050505060207f18a118a5bb122057e420b1bcf7903a57ebc749be0d1981d112c6e257e7bd5e8891604051908152a15f90565b50600a82141562018158565b61084052610800526102c05261068052610700526106c0526105c0919091526107e0929092525f6104a052620181fa916201a9b1565b6104a05190565b906201823097949693959291610c2052610c4052610c6052610ba052610c0052610b80525f610b60526201c749565b610b605190565b90815460481c6001600160401b03811691828111620115b857808303926001600160401b038411620182a4575050825469ffffffffffffffffffff60481b19166001600160501b0390921661ffff60401b919091161760481b69ffffffffffffffffffff60481b16179055565b63733cc1d960e11b5f526004526024526001600160401b0360445260645ffd5b91905f620182d28262016b10565b911315620182f9576201161a8184620099e8565b6001600160501b0384116201162e575050565b62018305818462009474565b92620182e6565b9190916201831a8362011530565b156201832857505050600290565b5464ffffffffff8160b81c169283155f146201834657505050505f90565b62018351906201155e565b15620183915760ff5f915b60401c1660028210156200522d5760028110156200522d570362018381575050600190565b116201838c57600290565b600390565b60ff6001916201835c565b939895919796909498620183b08962011530565b620184ea5784928a9492620183db9260ff999897548a8160b01c169a8b9160b81c169d8e9262019fd7565b9a919490928398620183ee879c6201155e565b15620184e1575f905b5f94620184055f986200cf26565b5050509182155f146201849e5750505050505050600d985b8297838b158062018494575b6201846f575b5050508862018465575050506001600160501b039054166201845783620064828688620099e8565b116201845f57565b60019450565b9196509450925050565b6201847a926201a02b565b156201848a575b5f80836201842f565b600e985062018481565b505f811362018429565b959e95620184bc9594939291620184b591620128ff565b9062016640565b5f8112620184cc575b506201841d565b620184d99193506200d819565b915f620184c5565b600190620183f7565b505050505050925050506006905f905f905f90565b9794919593909692505f97620185165f9762011530565b6201855a57906201853a94939291549160ff808460b81c169360b01c169162019fd7565b509190620184578362006482866001600160501b038599541694620099e8565b5050505050925050506006905f905f905f90565b9062ffffff8111620185a9576effffff00000000000000000000000082549160601b16906effffff0000000000000000000000001916179055565b6395d41f3f60e01b5f5260045262ffffff60245260445ffd5b9062ffffff8111620185a9576bffffff00000000000000000082549160481b16906bffffff0000000000000000001916179055565b9062ffffff8111620185a9577fffffffffffffffffffffff000000ffffffffffffffffffffffffffffffffffff74ffffff00000000000000000000000000000000000083549260901b169116179055565b9062ffffff8111620185a95771ffffff00000000000000000000000000000082549160781b169071ffffff0000000000000000000000000000001916179055565b906001811b905f52600182016020525f1960405f2054145f14620186af57198154169055565b8154179055565b93949290955f965490620186e2876001600160401b038460481c1664ffffffffff8560b81c1662016aef565b95909460ff87996201872988968b54838d868360b01c1696879360b81c16978461ffff8a9660881c169263ffffffff8260981c169260ff8360e01c9360401c16916200cf71565b98919a9099899a6201873d819d846200d1e8565b9a5f8c1262018795575050505090620187599493929162019fa1565b505092836001600160501b036201877e6003849a015482808260501c16911662012c51565b1682116201878a575050565b600a99509096509250565b9c509c509c509c50505050505092505050600c94935f9392915f9190565b9895949698610c8052610c6052610c4052610c2052610c0052610be052610bc0525f610ba0525f610b60525f610b8052610c60515462018839610c8051549260ff8460b81c169060ff8560b01c169064ffffffffff8560b81c169061ffff8660881c169063ffffffff8760981c16908760e01c9060ff8960401c1690610c80516200cf71565b92919093836201885786936001600160401b038660481c166200d1e8565b915f83131562018aaa57620188b189620188718562016b10565b995b8a610ba0526201889164ffffffffff8960b81c16610be05162009474565b610b805260ff8460b81c1660ff8560b01c16610b8051610c005162019fd7565b999193909889620188d9869d60ff8760b81c1660ff8860b01c16610be051610c005162019fa1565b50509889610b6052600260ff8260401c1610156200522d5760401c60ff1662018aa35760015b5f905f9662018911610c80516200cf26565b5050509081155f1462018a4a5750505050600d985b859c8a158062018a40575b62018a17575b5089620189f45750505050505050620189556201895c91876200d216565b876200d1e8565b926201896d856201217a866200d819565b925f841280620189d3575b15620189845750600597565b975f8512806201899c575b6201899657565b600a9850565b50620189a88562016b10565b6001600160501b03620189cb6003610c8051015482808260501c16911662012c51565b16106201898f565b50620189df8462016b10565b6001600160501b03610c405154161062018978565b610ba094909452610b6093909352969b939a5091985096505f9550859493509150565b62018a289087610bc051916201a02b565b1562018a36575b5f62018937565b600e995062018a2f565b505f871362018931565b9062018a6b8260ff959e958062018a7e969560b81c169160b01c16620128ff565b929091610b805193610c20519362016640565b5f811262018a8e575b5062018926565b62018a9b9196506200d819565b945f62018a87565b5f620188ff565b620188b1895f9962018873565b9562018b128162018b559a9b979496959962018b649499610c80525f610c00525f610bc0525f610ba0525f610b80525f610bc0525f610ba0525f610b8052610c8051549660ff8860b81c16908760ff8a60b01c169162019fd7565b509990918a9883610c005254610c60526201042560ff8760b81c1660ff8860b01c1664ffffffffff610c605160b81c1663ffffffff610c605160981c1662012bb9565b610c4052610c405190620099e8565b610be0525f610b605262018ba860ff8360b81c1660ff8460b01c1664ffffffffff610c605160b81c16610c605160e01c60ff610c605160401c16610c8051620120fe565b95600260ff610c605160401c1610156200522d5762018bf99160ff610c605160401c16159164ffffffffff610c605160b81c1661ffff610c605160881c1663ffffffff610c605160981c166201a837565b999293915f610c20525f610c2052815f9b62018c18610c80516200cf26565b5050509283155f1462018e655750505050600d610c20525b610c2051610b6052610c2051158062018e5b575b62018db5575b50505050859484610b605197610b60511562018c665750505050565b9062018c9962018c8262018ce89493610be09b979b516200d1e8565b6001600160401b03610c605160481c16906200d216565b610bc05262018cab610bc0516200d819565b610ba0525f81121562018d8b5762018cc790610ba0516200d1e8565b610ba0525b62018cda610ba0516200d819565b610b8052610ba0516200d216565b610ba0525f610ba05112908162018d68575b501562018d1057506003935b5f8080806200a01d565b935f610b8051128062018d2e575b1562018d0657600a945062018d06565b5062018d3d610b805162016b10565b6001600160501b0362018d606003610c8051015482808260501c16911662012c51565b161062018d1e565b90506001600160501b0362018d80610ba05162016b10565b915416105f62018cfa565b5f811362018d9b575b5062018ccc565b62018daa90610bc0516200d1e8565b610bc0525f62018d94565b6001600160401b03610c605160481c16610c405181115f1462018e5357610c405162018de19162009474565b808b131562018e4a5762018df6908b6200d216565b915b5f831362018e08575b5062018c4a565b62018e2c9462018e269260ff808460b81c169360b01c169162012bb9565b6201a02b565b1562018e3e575b5f8080808062018e01565b600e610b605262018e33565b505f9162018df8565b505f62018de1565b505f8a1362018c44565b62018e949362018e8260ff8860b81c1660ff8960b01c16620128ff565b610c605160401c60ff16929162016706565b5f811262018ea4575b5062018c30565b62018eb1919a506200d819565b985f62018e9d565b9490506001600160501b0395925062018ee893979691975f95549160ff808460b81c169360b01c169162019fd7565b50929094541662018efa8386620099e8565b1162018f10575b92915f915f915f915f915f9190565b50600362018f01565b505062018f2e90969596949291939462014ee2565b92831562018fcd579062018f4291620099e8565b915b15908162018fc4575b501562018fb9575f93845b62018f6257505050565b9193909290911562018f8557505063587d2a9760e01b5f5260045260245260445ffd5b916040907f587d2a97a31a5894b097ff75ad27cad3e726d27474d08c959bcb5e51c5244d0a929482519182526020820152a1565b818110938462018f58565b90505f62018f4d565b509162018f44565b9390949296959162018fe79062014ee2565b96871562019066579062018ffb91620099e8565b955b1590816201905d575b501562019052575f94855b6201901c5750505050565b9062001bc091604051948594635e7f12af60e11b8652600486019094939260609260808301968352602083015260408201520152565b808510948562019011565b90505f62019006565b509562018ffd565b908054928360281c62ffffff8116946201908986866200cfeb565b90620193835750916006939161ffff8094600388019060ff8160381c169060301c916001821b81541790555f526004880160205260405f20600160ff83161b8154179055165f5260058601602052600160ff60405f2092161b81541790555f146201931657835462ffffff808260781c169160901c16908015806201930d575b15620192de5750506201911d858562018648565b620191298585620185f7565b5460a81c16916201913f60078506809562009474565b5f520160205260405f2091600160ff1984541617835580155f14620191865750815464ffffffff00191662ffff00600883901b161760189190911b64ffff00000016179055565b60018103620191c35750815468ffffffff0000000000191666ffff0000000000602883901b161760389190911b68ffff0000000000000016179055565b600281036201920c575081546cffffffff00000000000000000019166affff000000000000000000604883901b161760589190911b6cffff000000000000000000000016179055565b600381036201924b5750815470ffffffff00000000000000000000000000191661ffff60681b606883901b161760789190911b61ffff60781b16179055565b60048103620192805750815463ffffffff60881b191661ffff60881b608883901b161760989190911b61ffff60981b16179055565b600503620192b357815463ffffffff60a81b191661ffff60a81b60a883901b161760b89190911b61ffff60b81b16179055565b815463ffffffff60c81b191661ffff60c81b60c883901b161760d89190911b61ffff60d81b16179055565b861115620192f95750620192f3858562018648565b62019129565b8510156201912957620192f38585620185f7565b50811562019109565b835462ffffff808260481c169160601c16908015806201937a575b1562019351575050620193458585620185c2565b620192f385856201856e565b861115620193665750620192f38585620185c2565b851015620192f357620192f385856201856e565b50811562019331565b61ffff93506200924c9694925080620193ca85620193e59481945f5260078a0160205260a81c1660405f209061ffff60c81b1961ffff60c81b83549260c81b169116179055565b835461ffff60b81b1916911660b81b61ffff60b81b16178255565b5460a81c169162017bec565b9190916001600160501b0383116201943d576001600160501b036200924c92931669ffffffffffffffffffff60901b1969ffffffffffffffffffff60901b83549260901b169116179055565b826395d41f3f60e01b5f526004526001600160501b0360245260445ffd5b91906201947a6200924c916001600160501b03855460501c166201160c565b835469ffffffffffffffffffff60501b1916605082901b69ffffffffffffffffffff60501b1617909355565b61ffff1661ffff81146200458d5760010190565b929094935f95831562019ee157620194d28362014ee2565b93620194de8462008aef565b8315801562019ecb575b61ffff938483166303ff00008560101b16175f526002880160205263ffffffff6201951660405f2062009ae1565b511662019ea557861562019e9d575f955b871562019e96575f5b6201953a62009a47565b506303fcffff808887166303ff00008960101b16171162019e7257506001600160501b03881162019e545764ffffffffff811162019e39576201957d8262011530565b1562019e1b578762019df6575b6001600160501b0360405198620195a18a62008f85565b8887166303ff00008960101b16178a525f60208b01525f60408b015260608a0193620195cd8162008aef565b845264ffffffffff60808b01931683521660a08901528963ffffffff815460d01c16155f146201989e5762019766936201974987946001600160501b0360a06201982b9d6201971c64ffffffffff8f9899819f9d9a60809f908f6303ff00008d84620196458260029716848660101b16178662014db7565b6201965a828216848660101b16178662014e55565b169160101b16175f520160205260405f209663ffffffff808651161663ffffffff19895416178855620196b263ffffffff602087015116899063ffffffff60201b82549160201b169063ffffffff60201b1916179055565b604085810151895463ffffffff60401b1916911b63ffffffff60401b1617885551620196de8162008aef565b620196e98162008aef565b8754915165ffffffffffff60601b1990921660609190911b60ff60601b1617911660681b64ffffffffff60681b16178555565b0151825469ffffffffffffffffffff60901b1916911660901b69ffffffffffffffffffff60901b16179055565b8a156201989757505f925b166303ff00008560101b16176201a3ab565b905f5260038701602052620197e460405f209463ffffffff808451161663ffffffff19875416178655620197bf63ffffffff602085015116879063ffffffff60201b82549160201b169063ffffffff60201b1916179055565b604083810151875469ffff000000000000000019169216901b61ffff60401b16178555565b606081015184546aff00000000000000000000191690151560501b60ff60501b161784550151825464ffffffffff60581b1916911660581b64ffffffffff60581b16179055565b62019846575b6200924c905b62010f6d815460f01c620194a6565b91506200924c620198655f6001600160501b03855460501c166201160c565b835469ffffffffffffffffffff60501b1916605082901b69ffffffffffffffffffff60501b1617845592905062019831565b9262019754565b60039098919697980195875f528660205260405f20805463ffffffff8116155f1462019a8a575050938864ffffffffff979462019995620199cc956001600160501b038f8b9762019a219f9e9b8e6201971c9160809f8f9560a0966303ff00008d60029463ffffffff855460d01c165f528585016020526201992d828216848660101b161760405f2062014eb2565b63ffffffff855460d01c1660408b0152169160101b16175f520160205260405f209663ffffffff808651161663ffffffff19895416178855620196b263ffffffff602087015116899063ffffffff60201b82549160201b169063ffffffff60201b1916179055565b620199af8d8386166303ff00008a60101b16179062014e55565b8b1562019a8357505f925b166303ff00008660101b16176201a3ab565b915f52602052620197e460405f209463ffffffff808451161663ffffffff19875416178655620197bf63ffffffff602085015116879063ffffffff60201b82549160201b169063ffffffff60201b1916179055565b62019a32575b6200924c9062019837565b91506200924c62019a515f6001600160501b03855460501c166201160c565b835469ffffffffffffffffffff60501b1916605082901b69ffffffffffffffffffff60501b1617845592905062019a27565b92620199ba565b6020919b9698509262019beb8b9f9b9562019bba8f63ffffffff96600262019c089b9f9d99928e62019af2898e8e8e64ffffffffff998f1c16805f528787018f526040805f209401528c8f8f908554821c16910152166303ff00008460101b16179062014eb2565b8a8a8a0151168062019dcc575b5060101b6303ff0000168b8d16175f908152910188526040902086518154888a015167ffffffff00000000198c1992909216928c169290921716908a1660201b63ffffffff60201b1617815593604087810151865463ffffffff60401b1916908b1690911b63ffffffff60401b161785555162019b7c8162008aef565b62019b878162008aef565b8454915165ffffffffffff60601b1990921660609190911b60ff60601b1617911660681b64ffffffffff60681b16178255565b60a0830151815469ffffffffffffffffffff60901b191660909190911b69ffffffffffffffffffff60901b16179055565b0151161562019dad575b166303ff00008460101b16178762014eb2565b1562019c9157505050509062019c8b6200924c9262019c7062019c395f6001600160501b03865460501c166201160c565b845469ffffffffffffffffffff60501b1916605082901b69ffffffffffffffffffff60501b16178555965b825460401c16620194a6565b61ffff60401b82549160401b169061ffff60401b1916179055565b62019837565b849793975460ff8160501c169083151582151514158062019d99575b62019d295750505062019c8b9262019d2364ffffffffff62019d02879562019cf562019c70966200924c9b9a9060ff60501b825491151560501b169060ff60501b1916179055565b82875460581c1662011690565b855464ffffffffff60581b1916911660581b64ffffffffff60581b16178455565b62019c64565b90620164a160a49464ffffffffff62000f969463ffffffff60018d015416945f1462019d90575f925b1562019d87575f945b60405197634298a83160e01b89526004890152602488015260581c166044860152606485019062008e24565b60019462019d5b565b60019262019d52565b5064ffffffffff8160581c16151562019cad565b62019dc68282166303ff00008760101b16178b62014e55565b62019bf5565b5f528282018a5262019def8d8d166303ff00008360101b161760405f2062014e26565b5f62019aff565b63a9c0cecd60e01b5f52878262019e0d8162008aef565b60045260245260445260645ffd5b80156201958a5763a9c0cecd60e01b5f52878262019e0d8162008aef565b6395d41f3f60e01b5f5260045264ffffffffff60245260445ffd5b876395d41f3f60e01b5f526004526001600160501b0360245260445ffd5b866303ff000089886395d41f3f60e01b5f52169160101b161760045260245260445ffd5b8162019530565b5f9562019527565b505063ffffffff6001870154169163feefcc0b60e01b5f5260045260245260445260645ffd5b5062019ed78462008aef565b60028414620194e8565b63ffffffff600186015416906369bc91ef60e11b5f5260045260245260445ffd5b9192901562019f67575081511562019f18575090565b3b1562019f225790565b60405162461bcd60e51b815260206004820152601d60248201527f416464726573733a2063616c6c20746f206e6f6e2d636f6e74726163740000006044820152606490fd5b82519091501562019f7b5750805190602001fd5b60405162461bcd60e51b81526020600482015290819062001bc090602483019062008aae565b9062019fb293929195949562012bb9565b916064830290838204606414841517156200458d5762019fd29162014b27565b915f91565b9062019fe99392919695949662012bb9565b906064820290828204606414831517156200458d576201a0099162014b27565b925f90806201a016575091565b6201a02891506200f8f590836200942e565b91565b909161271083029280840461271014901517156200458d576201a04e916200942e565b101590565b9060028110156200522d5768ff000000000000000082549160401b169068ff00000000000000001916179055565b9064ffffffffff62016b7860026200924c94019282845460281c1662011690565b64ffffffffff62016bb76002829301938285541662011690565b945f9485949080156201a14a575b156201a12757506200924c63ffffffff9495966201a0e9848662010cd7565b835490620111b36201a11461ffff8460a81c16809981951698895f5260d560205260405f2062010def565b95620111ab60ff825460201c166201155e565b6200924c955063ffffffff94506201a14190838562015855565b9590966201a0e9565b5080156201a0ca565b9293919082156201a3545762ffffff80855460601c165b16906201a1798487846201a93c565b156201a347576201a18b82866200cfeb565b50915f5b6103e88110806201a33d575b156201a32957835f526007870160205260405f209363ffffffff855416156201a31357506201a1ca9062009ad2565b83546201a1e063ffffffff8260781c1662010c99565b156201a30257867fb95e250f9f017dcb1bb1806916771df0c04a269e5f46d5db7519382a0f7bb47760e08a6201a25f61ffff6201a29f9660c81c16996201a2298c828c62015855565b929093826201a2568d82549063ffffffff82165f5260d560205261ffff60405f209260a81c169162010def565b98159162014fa9565b549161ffff8360a81c169563ffffffff604051948c865216602085015286604085015260608401528b608084015260a083015260c0820152a18862015514565b836201a18f5792505083156201a2f15762ffffff80865460601c165b166201a2c98588836201a93c565b156201a2e3576201a2db81876200cfeb565b50926201a18f565b955050505050505f915f9190565b62ffffff80865460781c166201a2bb565b5050955050505050506001915f9190565b8363cf25731d60e01b5f5260045260245260445ffd5b935094505093506103e89150101591151592565b508315156201a19b565b5093505050505f915f9190565b62ffffff80855460781c166201a16a565b906201a371826201a962565b91939091845f1981146201a3a457509082916200924c935f5260018201602052600160405f20911b815417905562018689565b9450505050565b9190915f60806040516201a3bf8162009069565b82815282602082015282604082015282606082015201526303fcffff80821162014e10575064ffffffffff82116201a42d576040519264ffffffffff929163ffffffff166201a40e8562009069565b8085526020850152600160408501521515606084015216608082015290565b506395d41f3f60e01b5f5260045264ffffffffff60245260445ffd5b90959796949392916001820191815f528260205260405f209764ffffffffff895460b81c16156201a691575090816201a49e9493925463ffffffff8160201c168084036201a5ce575b5050505050856201a053565b6001600160401b0381116201a5b157835469ffffffffffffffffffff60481b191660489190911b69ffffffffffffffffffff60481b161783556201a5029063ffffffff905b845463ffffffff60981b1916911660981b63ffffffff60981b16178355565b64ffffffffff84116201a5955763ffffffff906201a54964ffffffffff6200924c959616849064ffffffffff60b81b1964ffffffffff60b81b83549260b81b169116179055565b82547bffffffffffffffffffffffffffffffffffffffffffffffffffffffff16911660e01b7fffffffff0000000000000000000000000000000000000000000000000000000016179055565b836395d41f3f60e01b5f5260045264ffffffffff60245260445ffd5b6395d41f3f60e01b5f526004526001600160401b0360245260445ffd5b6201a640946201a62f928c5463ffffffff808216921687145f146201a64b57506201a5fa818662017b73565b5f528060205260405f2063ffffffff60201b1981541690555b815f526020526201a6288460405f2062017b73565b8a62017b97565b885463ffffffff1916895562017b97565b5f808080806201a492565b63ffffffff9060201c165f52816020526201a66a8160405f2062017b73565b5f52806020526201a68b8c63ffffffff60405f20915460201c169062017b97565b6201a613565b90506334a4033d60e11b5f5260045260245260445ffd5b909698979592916001820191815f528260205260405f209864ffffffffff8a5460b81c16156201a691575090816201a6fc9493925463ffffffff8160201c168084036201a774575b5050505050866201a053565b6001600160401b0382116201a7565761ffff8111620119ac57845469ffffffffffffffffffff60481b191660409190911b90911760481b69ffffffffffffffffffff60481b161783556201a5029063ffffffff906201a4e3565b506395d41f3f60e01b5f526004526001600160401b0360245260445ffd5b6201a7e6946201a7d5928d5463ffffffff808216921687145f146201a7f157506201a7a0818662017b73565b5f528060205260405f2063ffffffff60201b1981541690555b815f526020526201a7ce8460405f2062017b73565b8b62017b97565b895463ffffffff19168a5562017b97565b5f808080806201a6f0565b63ffffffff9060201c165f52816020526201a8108160405f2062017b73565b5f52806020526201a8318d63ffffffff60405f20915460201c169062017b97565b6201a7b9565b9091939295949561ffff83116201a923576201a8548486620099e8565b9487806201a919575b156201a8fa575f1983019283116200458d576201a8989462012bf4826201a88e62004c61946200648297986200942e565b60101c966200942e565b916201a8cc6201a8a9838562014b27565b936201a8b68482620099a7565b95156201a8ee576200b5bf84865b96976200942e565b8060101b908082046201000014901517156200458d57826200911c91620099a7565b6200b5bf84876201a8c4565b6201a8989462012bf4826201a88e62004c61946200648297986200942e565b508315156201a85d565b826395d41f3f60e01b5f5260045261ffff60245260445ffd5b909291925f93826201a94d57505050565b9293509091156201a95d57101590565b111590565b805480156201a9a6576201a97860019162013625565b91825f52016020526201a99d60405f2054196201a997811515620093c3565b62013625565b808260081b1792565b505f19915f91508190565b906201a9c06102c0516201155e565b610720525f6106e05261271081116201c72f576106e0525b610840516002015464ffffffffff166102e0525f6102a08190526104605280158181156201c722575b506201c718575b6201aa1d610720516009610840510162017b26565b61066091909152610820525f61022052610700516107c08190526104605261084051600201546107a0525b610460511515806201c70b575b156201c6c557610680511515610680516201c6cc575b6201c6c5575f610760525f610780525f610740525f610760526201aa9961066051600961084051016200cfeb565b50610620526107c05161078052610740525b610780511515806201c6b8575b806201c6ab575b156201b48d57610620515f526010610840510160205260405f206106a0526106a0515463ffffffff81165f5260d560205260405f206102005260ff610200515460a01c166201ab0e8162008aef565b156201abc0575061ffff6106a0515460c81c16610620527f86ad99b48b2565c9720e33335db58e8c7468d6af03a5e6238b20d4a562f5b8b46201abb76201ab726107e0516108005161ffff6107a05160a81c166106a051600961084051016201a0bc565b60408051610800516107a05160a81c61ffff1682526020820194909452908101939093526060830152608082015260a081019290925260c082015290819060e0820190565b0390a16201aaab565b6201abd463ffffffff8260781c1662010c99565b156201ac38575061ffff6106a0515460c81c16610620527fb95e250f9f017dcb1bb1806916771df0c04a269e5f46d5db7519382a0f7bb4776201abb76201ab726107e0516108005161ffff6107a05160a81c166106a051600961084051016201a0bc565b6108005163ffffffff8216036201aca7575061ffff6106a0515460c81c16610620527f52d5291dc7b477ebda965d0693c67e6ccec5b3667b530305685465384756d3fd6201abb76201ab726107e0516108005161ffff6107a05160a81c166106a051600961084051016201a0bc565b5f6201acb960ff8360201c1662011530565b6201b435575b156201ad23575061ffff6106a0515460c81c16610620527fae6369c6e529c86dd87431d10e0db70657c834daa75356e1efd7c0ac79f934b76201abb76201ab726107e0516108005161ffff6107a05160a81c166106a051600961084051016201a0bc565b64ffffffffff8160401c166102805261028051610600526201ad4b60ff8260201c1662011530565b6201b3f5575b61078051610280511180156105e0526201b3e7576201ae13610280515b6002610840510154906201add66201adc864ffffffffff841664ffffffffff8560281c168082115f14620148fa575060ff8560e01c169060ff8660d81c169064ffffffffff8760501c16908661ffff8960b81c166200e692565b61ffff8660981c1662012c10565b9061ffff808660d81c169360881c1691610600519061082051906108205190610820519060ff8a60201c169063ffffffff8b166108405162016c9b565b61024052610980516101e09190915291819060061981016201b29f57506105e051156201b22c576201ae5a6201ae5061028051610820516200942e565b61076051620099e8565b6107605261028051926201ae75610280516107805162009474565b610780525b6201ae88610740516200ada2565b610740526105e051156201afbd57505091610120916201aeee7ff5f5aef063f495816b6982c44c70c97c8fbec2fa24b73487e6542ce021431214946201aee363ffffffff85166106a05161ffff6107a05160a81c1662015855565b6101e052906200d1e8565b9061ffff6106a0515460c81c16610620526201af2061ffff8460a81c1661ffff6107a05160a81c166102005162010def565b906201af4b6201af3a60ff6106a0515460201c166201155e565b6106a0516009610840510162014fa9565b6201af6461ffff8560a81c166009610840510162015514565b61ffff60405194816107a05160a81c16865263ffffffff8116602087015260a81c16604085015261082051606085015260808401526102405160a084015260c083015260e08201526101e051610100820152a16201aaab565b91509160ff6106a0515460201c166101c0525f6101a0525f6101a0525f61ffff8560a81c16156201b1fe5761ffff8560a81c166303ff00006107a05160981c16175f526002610200510160205260405f209081546101805263ffffffff6101805116156201b1c657917ff5f5aef063f495816b6982c44c70c97c8fbec2fa24b73487e6542ce02143121495939161012095936201b05d6101c05162014ee2565b156201b17e5750806201b083846001600160501b036201b08d945460901c1692620193f1565b6102005162014f47565b506201b09d82610200516201945b565b6101a0526001600160501b036102005154166101a05111915b6101a051926201b0c8575b506201af64565b9091507f6d6191eb9e6651b10a6b278ab4d021e3c8b8810a0290234d29d74556915d5dcf61014064ffffffffff6106a0515460401c166201b1266107e0516108005161ffff6107a05160a81c166106a051600961084051016201a0bc565b97916040959195949394519561ffff6107a05160a81c1687526020870152604086015261082051606086015260808501528660a085015260c08401526108005160e084015261010083015288820152a1905f6201b0c1565b9290826201b1c09161ffff6107a05160a81c165f5260036102005101602052620146d660405f209164ffffffffff620146ab85826101805160681c16620115cf565b6201b0b6565b8561ffff63ffffffff60016102005101541691638d5bba0f60e01b5f52816107a05160a81c1660045260a81c1660245260445260645ffd5b63ffffffff6001610200510154166369bc91ef60e11b5f5261ffff6107a05160a81c1660045260245260445ffd5b6201b2426201ae5061078051610820516200942e565b610760526201b28f64ffffffffff6201b26861078051826106a0515460401c16620115cf565b166106a0519064ffffffffff60401b82549160401b169064ffffffffff60401b1916179055565b61078051925f610780526201ae7a565b9350505050600d81146201b3a1576101807f1c304023b27262393dcde9fe67af613bc45ee4f8c452b031dc393d074031157b916106a0515461ffff8160c81c16610620526105e0515f146201b3965761028051905b61ffff60ff8260201c16936201b3256107e05161080051846107a05160a81c166106a051600961084051016201a0bc565b95939692979160409991995199856107a05160a81c168b5260208b015260408a01526201b3528162008aef565b606089015261082051608089015260a088015260d81c1660c086015260e085015261010084015261080051610120840152610140830152610160820152a16201aaab565b61078051906201b2f4565b6084610840515461ffff60405191631f466abb60e21b8352816107a05160a81c16600484015263ffffffff8160201c16602484015242604484015260a01c166064820152fd5b6201ae13610780516201ad6e565b63ffffffff81165f526012610840510160205264ffffffffff60405f205460b81c166102805181106201b42a575b506201ad51565b610280525f6201b423565b5063ffffffff81165f526012610840510160205260405f2064ffffffffff815460b81c161515159081156201b46c575b506201acbf565b6201b486915060ff808460201c16915460401c16620162b2565b5f6201b465565b6107405161078051610460526201b4ab610760516102a051620099e8565b6102a052610780516107c051036201c695575b61074051156201b4f55761078051156201aa48576201b4e7610720516009610840510162017b26565b61082052610660526201aa48565b507fb492fac0bb9e8c8d824bf2a4c19ec1efd3e98e987de34e127bc17eb2b5c0605e5f80a15b610220516201c657575b610460516104a0526104605161070051116201b54a575b6200924c61084051620128cb565b6201b55c610460516107005162009474565b610520526201b572610520516102a051620099a7565b6201b584610520516102a05162014b27565b610580526201b5966102c0516201155e565b5f61056052156201c64c5761058051610560525b610800515f526012610840510160205260ff60405f205460401c1660028110156200522d575f6104c0526201c63d576104c0525b6201b6406201b63660026108405101546201b5fc6102c05162014ee2565b156201c6355761052051905b60ff8160e01c169160ff8260d81c169164ffffffffff8160501c169161ffff6102e0519260b81c166200e692565b6106c05162012c10565b610420525f6102608190526103e081905261030081905261054081905261080051815260d560209081526040808320610640819052546001600160501b031661040052610840516012019091528120610500819052610520516102c0519293926201b6ab926201830c565b6201b6b96102c05162014ee2565b806201c62d575b6201c5ec575b6201b6d18162008aef565b806201bd2b57506201b7066105c0516106e051610420516105205161058051610560516102c05161064051610840516201839c565b909492916105a05293909380610300526105a0516102605284156201b8cd575b50505b6001600160501b0361064051541690610400518210156105405150805f146201b8b7576201b75b610400518462009474565b905b6001600160ff1b0382116201b89757156201b88557905b6201b7ab61ffff600261084051015460a81c16916103e051906201b7976200c57e565b90610260516102c051610800518762018fd5565b50600785036201b83057507f5be6b2e974d9a72428e5cb9cf915a5f991d1c862db8cafc9a121bb99b091cb749293506201b82760405192839261030051610520516104c05161058051610560518893909796959260c0959260e08601998652602086015260408501526060840152608083015260a08201520152565b0390a16201b53c565b61010490856040519163b29d194960e01b835260048301526108005160248301526105605160448301526105805160648301526104c05160848301526105205160a48301526104605160c483015260e4820152fd5b6201b890906200d819565b906201b774565b8363e69a04b360e01b610540515260045261040051602452604461054051fd5b6201b8c6836104005162009474565b906201b75d565b909193506201b8e0826105a051620099e8565b906201b8ef6102c05162008aef565b6102c0516201bd22575f905b61ffff600261084051015460a81c165f60c06040516201b91b8162008fdb565b8281528260208201528260408201528260608201528260808201528260a082015201526001600160401b0384116200fb235764ffffffffff61052051116201bd03575f61054052604051906201b9718262008fdb565b5f82525f60208301526201b989846040840162009f45565b6001600160501b038516606083015263ffffffff6105605116608083015264ffffffffff610520511660a083015263ffffffff431660c0830152610800515f526012610840510160205264ffffffffff60405f205460b81c166201bcea5750610840516011015460201c63ffffffff16806201bcb457506201ba15610800516011610840510162017b73565b610800515f526012610840510160205260405f2063ffffffff808351161663ffffffff198254161781556201ba6f63ffffffff602084015116829063ffffffff60201b82549160201b169063ffffffff60201b1916179055565b60408201519160028310156200522d5760c063ffffffff916200f7ab6201ba9795856201a053565b6201baac610800516011610840510162017b97565b6005610640510161ffff600261084051015460a81c1660fc8111155f146201bc09576001901b81541790555b6201baf26201bae88285620099e8565b610640516200e59e565b6201bb018361084051620111d5565b6201bb1c6200f8fb6200f8f583610840515460e81c6200942e565b906201bb28826200b86a565b6201bb378161084051620111f1565b60028310156200522d577f04cc3d2fc73a9dca30eba1d05eca80b1b1216350243580027046f434fed4db189461016094846201bbf1576201bb7f61052051610840516201a0a2565b6201bbad61ffff600261084051015460a81c1695604051968752610800516020880152604087019062008e24565b610420516060860152608085015260a08401526105605160c08401526105205160e08401526101008301526101208201525f610140820152a16007915f806201b726565b6201bc0361052051610840516201a081565b6201bb7f565b6101fc81116201bc3e576201bc2060019162009464565b1b60066106405101908154179055600160fd1b81541790556201bad8565b6102fc81116201bc73576201bc5560019162009453565b1b60076106405101908154179055600160fe1b81541790556201bad8565b6103fc8111156201bc87575b50506201bad8565b6201bc9460019162009442565b1b60086106405101908154179055600160ff1b81541790555f806201bc7f565b63ffffffff81116200fad1578060208301525f52601261084051016020526201bce46108005160405f2062017b73565b6201ba15565b633f1ed2e160e21b5f526004526108005160245260445ffd5b6395d41f3f60e01b5f526105205160045264ffffffffff60245260445ffd5b6001906201b8fb565b6201bd368162008aef565b600181036201c02357505f610480526201bd736105c0516106e0516104205161052051610580516105605161064051610500516108405162018ab7565b610b805161044052610c00516104e052610ba051610bc0516104808690529194919291600a81036201bdc95761ffff600261084051015460a81c1660036108405101549062001bc06200fbd86104405162016b10565b156201bdeb575b50505050610300526104e0516102605261048051916201b729565b6201bdfa906106405162016b20565b506201be096104405162016b10565b5f61044051125f146201c00e576201be2990610800516108405162012c72565b6201be406200f8f585610840515460e81c6200942e565b906201be4d828662009474565b6201be58816200b86a565b6201be678361084051620111f1565b6201be846105005154946001600160401b038660481c166200d1e8565b925f84126200fe5957600260ff8660401c1610156200522d577f99a74f70c224396b9ba5fcd5a6e5f480db23e7a25a2b16a8c133ec2efb3e646c9564ffffffffff866201befb60ff6101e09960401c16156105205161056051858560b81c1661ffff8660881c1663ffffffff8760981c166201a837565b989192509460ff8460401c16155f146201bff6576201bf2161052051610840516201a0a2565b6201bf558a878b8661ffff600261084051015460a81c1693439460ff8b60401c16906108005190601161084051016201a6a8565b61ffff600261084051015460a81c16996040519a8b526108005160208c01526201bf8960408c0160ff8760401c1662008e24565b6104205160608c01526001600160401b038560481c1660808c015260a08b015260c08a015260e08901526105c05161010089015261012088015260b81c166101408601526101608501526101808401526101a08301526101c0820152a16007610480525f8080806201bdd0565b6201c00861052051610840516201a081565b6201bf21565b6201c01d9061084051620111d5565b6201be29565b6003906201c0318162008aef565b036201c33f575f6103a0526201c06e6105c0516106e05161042051610520516104c0516105805161056051610640516105005161084051620187b3565b92610380979591949796929652610360526103c0529092610b805192610b605150610ba05150806103a052600a81145f146201c0ce5761ffff600261084051015460a81c1660036108405101549062001bc06200fbd86103805162016b10565b156201c0f0575b50505050610300526103c051610260526103a051916201b729565b6201c12d906201c1036103805162016b10565b5f61038051125f146201c32a576201c12390610800516108405162012c72565b6106405162016b20565b506201c1456200f8f585610840515460e81c6200942e565b6201c151818662009474565b906201c15d826200b86a565b6201c16c8161084051620111f1565b610500515492600260ff8560401c1610156200522d577f01a0596385c75b269e896ca6468a2be2edc8b2b5459f4e25ca0a75944390a10c956101c09560ff8660401c16155f146201c2fc576201c1d464ffffffffff610500515460b81c166108405162016b9d565b6201c1e381610840516201a081565b64ffffffffff61050051546201c200610360516103c051620099e8565b6201c24161ffff600261084051015460a81c1660ff8b60401c16155f146201c2f357856001915b84439361056051926108005190601161084051016201a449565b610840516002015460a81c61ffff169860401c60ff166201c2e8576201c27d60015b6040519a8b526108005160208c015260408b019062008e24565b6104205160608a01526001600160401b038260481c1660808a015260a08901526103605160c08901526105605160e089015260b81c166101008701526101208601526101408501526101608401526101808301526101a0820152a160076103a0525f8080806201c0d5565b6201c27d5f6201c263565b855f916201c227565b6201c31564ffffffffff8760b81c166108405162016b57565b6201c32481610840516201a0a2565b6201c1e3565b6201c3399061084051620111d5565b6201c123565b90506201c3636104205161052051610580516104c0516105005161084051620186b6565b610340949094525061032085905293949391929091600a86036201c3db5761084051600281015460039091015460405163063c641b60e41b81526103405160a89390931c61ffff1660048201526001600160501b03808316602483015260509290921c90911660448201526064810191909152608490fd5b61032051156201c3f7575b5050506103e052610340516201b729565b90919294506201c41261034051610800516108405162012c72565b6201c42461034051610640516200c53f565b60ff610500515460401c169160028310156200522d57826201c5d4576201c452610520516108405162016b9d565b85156201c50457509060c0917f599b5f439ed4daf1f28ae8638e5439d3982e8001fb26dd8f70021b38672eb26f936201c495610800516011610840510162014b5a565b6201c4b561ffff600261084051015460a81c166005610640510162014c66565b6201c4e361ffff600261084051015460a81c1693604051948552610800516020860152604085019062008e24565b6104c0516060840152608083015260a0820152a15b6007915f80806201c3e6565b907fcd4a9f7ae1cc250eaa0be6bdb30d07efaf0faafb4ff0e76d8fe09a8373e43f859364ffffffffff610120946201c5456105005154956105005162018237565b6201c557610520516105005162016c5e565b8161ffff600261084051015460a81c16956201c58c6105005154936040519889526108005160208a0152604089019062008e24565b6001600160401b038160481c1660608801526001600160401b038360481c16608088015260b81c1660a086015260b81c1660c084015260e0830152610100820152a16201c4f8565b6201c5e6610520516108405162016b57565b6201c452565b610520515f03610520516200458d576201c62690620104256108405154610420519260ff808360b81c169260b01c16906105805162012bb9565b506201b6c6565b505f6201b6c0565b5f906201b608565b50610580516104c0526201b5de565b80610560526201b5aa565b6108405161022051600191909101805467ffffffffffffffff191663ffffffff92909216919091174260201b63ffffffff60201b161790556201b525565b6108205161022052610780516107c0526201b4be565b506107405115156201aabf565b506106205115156201aab8565b506201b51b565b5061072051806201c6fb575b806201aa6b5750610720511580156201aa6b57506108205161068051116201aa6b565b506108205161068051106201c6d8565b506108205115156201aa55565b506103e86201aa08565b6103e89150115f6201aa01565b5061ffff600261084051015460781c166106e0526201a9d8565b6201c83b9291604051916201c75e836200904d565b5f83525f602084015282610b60526201c77a610c00516201155e565b610c80526201c7f96002610c2051015461ffff6201c7d56201c7c660ff8460e01c1660ff8560d81c1664ffffffffff8660501c1664ffffffffff8716610ba051878960b81c166200e692565b610160610c6051013562012c10565b9160881c1690610ba051906080610c6051013590610c00519086610c205162017d7d565b9194909793610be09a939a52610b405295929795610b80519087610be051610b4051610ba0518a6080610c60510135610c8051610c00518d610c205162018136565b156201dbc4575060c954610bc0819052613fff610b2081905260d59190911c1661271080820282900414901517156200458d57612710610b2051610bc05160d51c1602906201c88d610c005162014ee2565b6201dba0575b806201db8e575b50815f5260d560205260405f2090815460f01c5f610ae05261ffff610ae052610ae051146201db0657906201c8d491610b8051916200e337565b6201d9f057610ae0516002610c2051015460a81c165f610aa0525f610ac0525f610aa0525f610ac052815f5260d560205260405f20610b0052610b0051546001600160501b038160501c166001600160501b03821611806201dad1575b156201d9f85750506201c957612710610b2051610bc05160d51c1602610b00516200e59e565b6201c971612710610b2051610bc05160d51c16026200c434565b6201c98b612710610b2051610bc05160d51c16026200d819565b610ac0526001610aa0525b6001600160501b03610b00515416610a8052610aa051156201d9f057610ae0516002610c2051015460a81c16916201c9cd6200949a565b506201c9df6001610c4051016201a365565b610a608190525f19146201d9dd576201ca2a6201ca08610ae051610c40515460201c16620194a6565b610c40519065ffff0000000082549160201b169065ffff000000001916179055565b6201ca3462009ef2565b506001821080156201d9cf575b6200b76a57801580156201d9c2575b6201d9a9576001610ba0511080156201d997575b6201d97357610b2051610bc05160d51c8116116201d94f5763ffffffff60c0610c60510135116201d92d57612710610160610c60510135116201d90c57610ae0516101c0610c60510135116201d8ea576201ccb66040516201cac68162008fbe565b63ffffffff841681526201cadd610c005162008aef565b610c0051602082015262ffffff8316604082015264ffffffffff610ba051166060820152610b2051610bc05160d51c16608082015263ffffffff60c0610c605101351660a0820152610ae051610160610c605101351660c0820152610ae051610a60511660e08201525f6101008201525f610120820152610ae0516101c0610c6051013516610140820152610a60515f526007610c40510160205260405f209063ffffffff808251161663ffffffff1983541617825560208101516201cba38162008aef565b6201cbae8162008aef565b82546040838101516060850151610ae051608087015160a088015160c089015160e08a01516101008b01516101208c0151610140909c015161ffff60d81b90871660d81b169b861660c81b61ffff60c81b1690861660b81b61ffff60b81b1691861660a81b61ffff60a81b1692861660981b61ffff60981b1660789490941b63ffffffff60781b169490951660681b61ffff60681b169590971b64ffffffffff60401b1660289690961b67ffffff00000000001660209990991b64ff00000000167fffffff00000000000000000000000000000000000000000000000000ffffffff909816979097179790971793909317919091179190911793909317919091171717179055565b610a60515f526007610c4051016020526201ccdc610c805160405f20610c40516201906e565b604051926201cceb846200904d565b8352610a6051602084015282610b6052610a6051156201d88b57505f815f5260d560205260405f20906201cd22610c005162014ee2565b156201d82e57506002610c205101549560208401515f9781156201d804576201cd4e610c005162014ee2565b916201cd5d610c005162008aef565b610c00511580156201d7e8575b610ae05182166303ff0000609885901c16175f908152600287016020526040902063ffffffff906201cd9c9062009ae1565b51166201d7ba5783156201d7b357845b84156201d7ab575f905b6201cdc062009a47565b506303fcffff80610ae05186166303ff000063ffff00006cffffffffffffffffffffff00008a60981c16161617116201d76f57506001600160501b0381116201d7525764ffffffffff82116201a42d576201ce1e610c005162011530565b156201d73d57806201d712576001600160501b03905b64ffffffffff604051936201ce498562008f85565b610ae05187166303ff000063ffff00006cffffffffffffffffffffff00008b60981c1616161785525f60208601525f60408601526201ce8b610c005162008aef565b610c005160608601521660808401521660a0820152865460d01c63ffffffff166201d20d5760a0999896936201d05a60209997947f5d5d31f82cb7d7cf1b09787031cd282c6accc62145d50de980d298bb340a9aba9d9e97946201d0396201d0eb956201cf1e610ae05185166303ff000063ffff00006cffffffffffffffffffffff00008a60981c161616178b62014db7565b610ae0516201cf3c9085166303ff0000609889901c16178b62014e55565b610ae05184166303ff000063ffff00006cffffffffffffffffffffff00008960981c161616175f5260028a018e528f6001600160501b039060405f209263ffffffff808251161663ffffffff19855416178455602063ffffffff6201cfc09183015116859063ffffffff60201b82549160201b169063ffffffff60201b1916179055565b604081810151855463ffffffff60401b1916911b63ffffffff60401b1617845560608101516201cff08162008aef565b6201cffb8162008aef565b8454608083015165ffffffffffff60601b1990911660609290921b60ff60601b169190911760689190911b64ffffffffff60681b161784556201971c565b85156201d205575f915b610ae051166303ff0000609886901c16176201a3ab565b90610ae0519060a81c165f5260038501895264ffffffffff608060405f209263ffffffff808251161663ffffffff198554161784556201d0be63ffffffff8d83015116859063ffffffff60201b82549160201b169063ffffffff60201b1916179055565b610ae051604082810151865469ffff000000000000000019169216901b61ffff60401b16178455620197e4565b6201d1ea575b506201d1069062010f6d815460f01c620194a6565b935b600a610b4051146201d143575b5050015190604051918252610ba05160208301526040820152610ac0516060820152610a80516080820152a1565b7fb971bdbd8f44fbf3ba501ee287c2533eb61b09097d638c664566aac00bbb3e6591610120916001600160501b03610ae0516002610c2051015460a81c16926003610c2051015490604051948552888501526201d1a3610c005162008aef565b610c005160408501526080610c605101356060850152610ba05160808501528181168a85015260501c1660c0830152610be05160e0830152610100820152a15f806201d115565b8192506201d1fd906201d106926201945b565b91906201d0f1565b5f916201d043565b610ae0518460a81c165f526003870160205260405f20805463ffffffff8116155f146201d39a57505086936201d05a60209997947f5d5d31f82cb7d7cf1b09787031cd282c6accc62145d50de980d298bb340a9aba9d9e97946201d34f6201d36d9560a09f9e9c63ffffffff905460d01c165f5260028a018e526201d2bb610ae05185166303ff000063ffff00006cffffffffffffffffffffff00008a60981c1616161760405f2062014eb2565b63ffffffff8a5460d01c166040820152610ae05184166303ff000063ffff00006cffffffffffffffffffffff00008960981c161616175f5260028a018e528f6001600160501b039060405f209263ffffffff808251161663ffffffff19855416178455602063ffffffff6201cfc09183015116859063ffffffff60201b82549160201b169063ffffffff60201b1916179055565b610ae0516201d0399083166303ff0000609887901c16178962014e55565b6201d37f575b506201d1069062019837565b8192506201d392906201d106926201945b565b91906201d373565b60206201d502938a9f98959796939a6002906201d40463ffffffff8096861c16805f52838301865260405f20906040860152868154871c16868601528a6303ff000063ffff00006cffffffffffffffffffffff0000610ae0518c169360981c161616179062014eb2565b848484015116806201d6d0575b50610ae05186166303ff000060988b901c16175f9081529101835260409020815181548385015163ffffffff60201b90871660201b1691861686199091161767ffffffff0000000019161781556201d4e090604083810151825463ffffffff60401b191690871690911b63ffffffff60401b1617815560608301516201d4978162008aef565b6201d4a28162008aef565b8154608085015165ffffffffffff60601b1990911660609290921b60ff60601b169190911760689190911b64ffffffffff60681b1617815562019bba565b015116156201d6ac575b610ae051166303ff0000609885901c16178762014eb2565b156201d560575050509160a09493916201d1068862019c8b6201d54a6020977f5d5d31f82cb7d7cf1b09787031cd282c6accc62145d50de980d298bb340a9aba9b9c6201945b565b935b62019c70610ae051825460401c16620194a6565b9091938093505460ff8160501c16908315158215151415806201d698575b6201d61f57505050916201d1067f5d5d31f82cb7d7cf1b09787031cd282c6accc62145d50de980d298bb340a9aba979862019c8b846201d5dc60a09a9997602099979060ff60501b825491151560501b169060ff60501b1916179055565b6201d61964ffffffffff6201d5f85f82855460581c1662011690565b835464ffffffffff60581b1916911660581b64ffffffffff60581b16178255565b6201d54c565b90620164a160a49464ffffffffff62000f969463ffffffff8f6001015416945f146201d68f575f925b156201d686575f945b60405197634298a83160e01b8952610ae0519060a81c166004890152602488015260581c166044860152606485019062008e24565b6001946201d651565b6001926201d648565b5064ffffffffff8160581c1615156201d57e565b610ae0516201d6ca9082166303ff0000609887901c16178e62014e55565b6201d4ea565b5f5281810184526201d70b610ae05187166303ff000063ffff00006cffffffffffffffffffffff00008d60981c1616161760405f2062014e26565b5f6201d411565b63a9c0cecd60e01b5f52610c00516201d72b9062008aef565b610c005160045260245260445260645ffd5b816201d712576001600160501b03906201ce34565b6395d41f3f60e01b5f526004526001600160501b0360245260445ffd5b856303ff000063ffff00006cffffffffffffffffffffff0000886395d41f3f60e01b5f52610ae051169360981c1616161760045260245260445ffd5b5f906201cdb6565b5f6201cdac565b5063ffffffff6001860154169163feefcc0b60e01b5f52610ae0519060a81c1660045260245260445260645ffd5b506201d7f7610c005162008aef565b6002610c0051146201cd6a565b63ffffffff600185015416906369bc91ef60e11b5f52610ae0519060a81c1660045260245260445ffd5b92907f5d5d31f82cb7d7cf1b09787031cd282c6accc62145d50de980d298bb340a9aba9596509160a0946201d884602094610ae0516002610c2051015460a81c16610ba05191610c0051918888015191620194ba565b506201d108565b60c49250610ae0516002610c2051015460a81c169160405192635f4d015360e01b8452600484015260248301526201d8c6610c005162008aef565b610c005160448301526064820152610ba0516084820152610c8051151560a4820152fd5b6395d41f3f60e01b5f526101c0610c60510135600452610ae05160245260445ffd5b6395d41f3f60e01b5f52610160610c6051013560045261271060245260445ffd5b6395d41f3f60e01b5f5260c0610c6051013560045263ffffffff60245260445ffd5b6395d41f3f60e01b5f908152610b2051610bc05160d51c8116600452602452604490fd5b630c8f0a6960e41b5f52610ba051600452600160245264ffffffffff60445260645ffd5b5064ffffffffff610ba051116201ca64565b63c6ebaaa160e01b5f5260045262ffffff60245260445ffd5b5062ffffff81116201ca50565b5063ffffffff82116201ca41565b826313d2887b60e01b5f5260045260245ffd5b509192505050565b610b80516201da775760408051610b2051610bc051948252602082018690526001600160501b038085169383019390935260509390931c909116606082015260d59290921c166127100260808201527fe45a99fff28c6d15925d1e2d85178b939f8809e353ffdd55bc03edb410aa24de908060a081010390a16201c996565b60405163e45a99ff60e01b8152610b2051610bc051600483019490945260248201949094526001600160501b03828116604483015260509290921c909116606482015261271060d59290921c90921602608482015260a490fd5b50612710610b2051610bc05160d51c16026001600160501b036201dafd818460501c168285166200e2b0565b1610156201c931565b50509293505050610b80516201db69577fbd608c77710b601b3c0b0f34d13295beb58c48631119b910d8d6067ad650d5b890610ae0516002610c2051015460a81c166200b98c604051928392836020909392919361ffff60408201951681520152565b610ae0516002610c2051015460a81c1663bd608c7760e01b5f5260045260245260445ffd5b6201db9991620099e8565b5f6201c89a565b90506201dbbd86612710610b2051610bc05160d51c1602620099e8565b906201c893565b94955050505050610b605256fea26469706673582212208e9d539ce67e53cc80d887db50fcb740c27f89e3fbe1a1ac9c5428e983b749a764736f6c634300081e0033",
    "linkReferences": {}
  },
  "methodIdentifiers": {
    "acceptOwnership()": "79ba5097",
    "addContract(string,string,uint256,uint256,uint256,uint256,uint256,uint256,uint256,uint256)": "92f54b3a",
    "addressBlocked(address)": "3bf45a2f",
    "adminCancelOrders((uint256,uint256)[])": "e548bb57",
    "allowOrderForwarding(bool)": "7962f910",
    "autoDeleverage((uint256,uint256,uint256[])[],bool)": "43559bbf",
    "buyLiquidations((uint256,uint256,uint256,uint256,uint256,uint256)[],bool)": "bbac6c95",
    "cancelDecreaseCollateralRequest(uint256)": "ebcf1656",
    "clearInitUnwindContract(uint256)": "075367f6",
    "clearOrderSlots(uint256,uint256[])": "d541abc1",
    "clearPrepareUnwindContract(uint256)": "b5cd004e",
    "clearPricePointerSlots(uint256,uint256[])": "20c801d2",
    "createAccount(uint256)": "cab13915",
    "declineDecreaseCollateralRequest(uint256,uint256,string)": "ecdff22e",
    "decreasePositionCollateral(uint256,uint256,uint32,uint16,uint8)": "5495086a",
    "depositCollateral(uint256)": "bad4a01f",
    "depositToProtocol(uint256)": "54056119",
    "execFwdPositionOps((uint256,uint256,(uint256,uint256,uint8,uint256,uint256,uint256,uint256,bool,bool,bool,uint256,uint256,uint256,uint256,uint256),bool,uint256,uint8,uint256,uint256)[])": "0f6795d9",
    "execFznAccountPosOps((uint256,(uint256,uint256,uint8,uint256,uint256,uint256,uint256,bool,bool,bool,uint256,uint256,uint256,uint256,uint256))[])": "768f6855",
    "execOrder((uint256,uint256,uint8,uint256,uint256,uint256,uint256,bool,bool,bool,uint256,uint256,uint256,uint256,uint256))": "4d8dc985",
    "execOrders((uint256,uint256,uint8,uint256,uint256,uint256,uint256,bool,bool,bool,uint256,uint256,uint256,uint256,uint256)[],bool)": "39435dac",
    "execPerpOps((uint256,uint256,uint8,uint32,int256,bool,bytes)[])": "5bf9264c",
    "forceClose(uint256,uint256,uint256[],bool)": "b216d0d2",
    "forceResetWithdrawRateLimit()": "bed97b71",
    "getAccountByAddr(address)": "12e8eb2c",
    "getAccountById(uint256)": "05aca141",
    "getExchangeInfo()": "8bc5b3c5",
    "getFundingInterval()": "0d3e87a7",
    "getFundingSumAtBlock(uint256,uint256)": "7dd7e759",
    "getLiquidationInfo(uint256)": "50ef5c35",
    "getMakerFee(uint256)": "1275d14c",
    "getMarginFractions(uint256,uint256)": "6825e9e5",
    "getMinAccountOpenCNS()": "dec92b69",
    "getMinimumPostCNS()": "9fffdfe2",
    "getMinimumSettleCNS()": "3a63dabe",
    "getNextPriceAboveWithOrders(uint256,uint256)": "9b170bd1",
    "getNextPriceBelowWithOrders(uint256,uint256)": "fb455f6b",
    "getOrder(uint256,uint256)": "5e1a3573",
    "getOrderIdIndex(uint256)": "38ecd885",
    "getOrderLocks(uint256)": "8c1c2cef",
    "getOrdersAtPriceLevel(uint256,uint256,uint256,uint256)": "4d3282b4",
    "getOwner()": "893d20e8",
    "getPermissionedCancelParams(uint256)": "396d7e47",
    "getPerpOrderLocks(uint256,uint256)": "2709b746",
    "getPerpetualInfo(uint256)": "00092cce",
    "getPerpetualInfoV2(uint256)": "9b335b9e",
    "getPosition(uint256,uint256)": "751de421",
    "getPositionIds(uint256)": "1973c619",
    "getPositionV2(uint256,uint256)": "ea3196ec",
    "getPositions(uint256,uint256,uint256)": "4a9a4158",
    "getPositionsV2(uint256,uint256,uint256)": "92e19126",
    "getPriceLevelOrderIds(uint256,uint256)": "653a6bd7",
    "getProtocolBalanceCNS()": "b5fcf762",
    "getRecycleBalanceCNS()": "edb1314e",
    "getRecycleFeeCNS()": "16a483ea",
    "getTakerFee(uint256)": "4119f930",
    "getUnwindInfo(uint256)": "6728641b",
    "getVolumeAtBookPrice(uint256,uint256)": "fe37fe12",
    "getWithdrawAllowanceData(uint256)": "8bcf1b27",
    "increasePositionCollateral(uint256,uint256)": "f769f0d3",
    "initUnwindContract(uint256,uint256)": "a5e9c411",
    "initialize(address)": "c4d66de8",
    "initializeV2((uint256,uint256)[],(uint256,uint256)[])": "065db330",
    "isAdministrator(address)": "0a2eb301",
    "isHalted()": "c7ff1584",
    "isLiquidationBuyer(address)": "ae0d4442",
    "isPositionAdministrator(address)": "dbfbf7e8",
    "isPriceAdministrator(address)": "d8b44268",
    "isToleranceAdministrator(address)": "a87041d1",
    "liquidation((uint256,uint256,uint256,bool))": "bbf979ac",
    "liquidations((uint256,uint256,uint256,bool)[],bool)": "d3b8c49d",
    "numberOfAccounts()": "0f03e4c3",
    "owner()": "8da5cb5b",
    "pauseContract(uint256)": "c2852f38",
    "pauseContractByMonitor(uint256)": "ec4cba83",
    "pendingOwner()": "e30c3978",
    "prepareUnwindContract(uint256)": "e5631c9e",
    "proxiableUUID()": "52d1902d",
    "removeContract(uint256)": "7cca3b06",
    "renounceOwnership()": "715018a6",
    "requestDecreasePositionCollateral(uint256,uint256,bool)": "171a5b81",
    "setAddressBlockStatus(address[],bool)": "b1082486",
    "setAddressWhitelisted(address[],bool)": "be70473d",
    "setAdministrator(address,bool)": "87c95058",
    "setBuyToLiquidateBuyerRestriction(uint256,bool)": "32b9203b",
    "setBuyToLiquidateParams(uint256,uint256,uint256,uint256)": "5180d5a8",
    "setBuyToLiquidatePriceThreshold(uint256,uint256)": "45c8c924",
    "setContractPaused(uint256,bool)": "9e430eda",
    "setDcpBorrowThreshold(uint256,uint256)": "af37c07d",
    "setExchangeHalted(bool)": "58087a74",
    "setFeeParams(uint256,uint256)": "9d2ec188",
    "setFreezeStatus(address,uint8)": "182b01f2",
    "setFrozen(address,uint8)": "4b8344fb",
    "setFundingClampPct(uint256,uint256)": "16a06593",
    "setFundingSum(uint256,int256,uint32,bool,bool)": "9fc8afd7",
    "setFundingSumScalingExp(uint256,uint256)": "c0a44efc",
    "setIgnOracle(uint256,bool)": "69752159",
    "setInitialMarginFraction(uint256,uint256)": "e2e1cb57",
    "setLastForwardedDescId(uint256,uint256)": "ba53027d",
    "setLastForwardedDescIdAsOwner(uint256,uint256)": "eaadbbef",
    "setLastTriggeredDescId(uint256,uint256)": "1217be67",
    "setLastTriggeredDescIdAsOwner(uint256,uint256)": "a971b6d4",
    "setLinkDsVerifier(address)": "d360dd31",
    "setLiquidationBuyer(address,bool)": "7ddbdc2a",
    "setLiquidationParams(uint256,uint256,uint256)": "60ad17fd",
    "setMaintenanceMarginFraction(uint256,uint256)": "8c031164",
    "setMakerFee(uint256,uint256)": "e74e2c9b",
    "setMarginTol(uint256,uint256,uint256)": "79609c11",
    "setMaxOpenInterest(uint256,uint256)": "9a6d7630",
    "setMinAccountOpenAmount(uint256)": "d6f34bd6",
    "setMinPost(uint256)": "279289e9",
    "setMinSettle(uint256)": "f28b98f3",
    "setMinWithdrawLimit(uint256)": "4d574c56",
    "setMonitorAdministrator(address,bool)": "c6efcd43",
    "setOverCollatDescentThreshold(uint256,uint256)": "ed6760fe",
    "setPermissionedCancelParams(uint256,uint256,uint256)": "efb62904",
    "setPerpLinkDsFeedId(uint256,bytes32)": "03cfe83c",
    "setPositionAdministrator(address,bool)": "12014156",
    "setPriceAdministrator(address,bool)": "a9bd5cee",
    "setPriceMaxAge(uint256,uint256)": "0e517f41",
    "setPriceTolPer100K(uint256,uint256)": "7d45678e",
    "setPriceTolPer100KByOwner(uint256,uint256)": "b839a8c4",
    "setRecycleFee(uint256)": "be0783f5",
    "setTakerFee(uint256,uint256)": "6debf8fa",
    "setThousandthsTvlWRLS(uint256)": "d780ece8",
    "setToleranceAdministrator(address,bool)": "dd0a3e2b",
    "setUnityDescentThreshold(uint256,uint256)": "2f32509b",
    "setWhitelistingEnabled(bool)": "5f40c1f7",
    "setWithdrawBypass(address,bool)": "252c3594",
    "transferOwnership(address)": "f2fde38b",
    "triggerUnwindContract(uint256)": "0189a2b7",
    "unwindContract(uint256,uint256,bool)": "fb05acb7",
    "unwindContractByOwner(uint256,uint256,bool)": "ddac1cde",
    "updateMarkPricePNS(uint256,uint32)": "541b04e9",
    "updateMarkPricePNSByOwner(uint256,uint32)": "0a039fbd",
    "updateOraclePrice(uint256,bytes)": "8f3ffc85",
    "upgradeTo(address)": "3659cfe6",
    "upgradeToAndCall(address,bytes)": "4f1ef286",
    "whitelisted(address)": "d936547e",
    "whitelistingEnabled()": "5b0c29eb",
    "withdrawCollateral(uint256)": "6112fe2e",
    "withdrawFromProtocol(uint256)": "8a924640",
    "xferAcctToProtocol(uint256)": "61bd6f44",
    "xferPerpInsToProtocol(uint256,uint256)": "586d92ca",
    "xferProtocolToAcct(uint256,uint256)": "229c2492",
    "xferProtocolToPerp(uint256,uint256,bool)": "e68073c3",
    "xferProtocolToRecycleBal(uint256)": "1df87ade"
  },
  "id": 14
}