{
  "abi": [
    {
      "type": "constructor",
      "inputs": [],
      "stateMutability": "nonpayable"
    },
    {
      "type": "function",
      "name": "acceptOwnership",
      "inputs": [],
      "outputs": [],
      "stateMutability": "nonpayable"
    },
    {
      "type": "function",
      "name": "addContract",
      "inputs": [
        {
          "name": "name",
          "type": "string",
          "internalType": "string"
        },
        {
          "name": "symbol",
          "type": "string",
          "internalType": "string"
        },
        {
          "name": "perpId",
          "type": "uint256",
          "internalType": "uint256"
        },
        {
          "name": "basePricePNS",
          "type": "uint256",
          "internalType": "uint256"
        },
        {
          "name": "priceDecimals",
          "type": "uint256",
          "internalType": "uint256"
        },
        {
          "name": "lotDecimals",
          "type": "uint256",
          "internalType": "uint256"
        },
        {
          "name": "takerFeePer100K",
          "type": "uint256",
          "internalType": "uint256"
        },
        {
          "name": "makerFeePer100K",
          "type": "uint256",
          "internalType": "uint256"
        },
        {
          "name": "initMarginFracHdths",
          "type": "uint256",
          "internalType": "uint256"
        },
        {
          "name": "maintMarginFracHdths",
          "type": "uint256",
          "internalType": "uint256"
        }
      ],
      "outputs": [],
      "stateMutability": "nonpayable"
    },
    {
      "type": "function",
      "name": "addressBlocked",
      "inputs": [
        {
          "name": "",
          "type": "address",
          "internalType": "address"
        }
      ],
      "outputs": [
        {
          "name": "",
          "type": "bool",
          "internalType": "bool"
        }
      ],
      "stateMutability": "view"
    },
    {
      "type": "function",
      "name": "adminCancelOrders",
      "inputs": [
        {
          "name": "signatures",
          "type": "tuple[]",
          "internalType": "struct OrderSignature[]",
          "components": [
            {
              "name": "perpId",
              "type": "uint256",
              "internalType": "uint256"
            },
            {
              "name": "orderId",
              "type": "uint256",
              "internalType": "uint256"
            }
          ]
        }
      ],
      "outputs": [],
      "stateMutability": "nonpayable"
    },
    {
      "type": "function",
      "name": "allowOrderForwarding",
      "inputs": [
        {
          "name": "allow",
          "type": "bool",
          "internalType": "bool"
        }
      ],
      "outputs": [],
      "stateMutability": "nonpayable"
    },
    {
      "type": "function",
      "name": "autoDeleverage",
      "inputs": [
        {
          "name": "adlDescs",
          "type": "tuple[]",
          "internalType": "struct AdlDesc[]",
          "components": [
            {
              "name": "perpId",
              "type": "uint256",
              "internalType": "uint256"
            },
            {
              "name": "posAccountId",
              "type": "uint256",
              "internalType": "uint256"
            },
            {
              "name": "sortedPositionIds",
              "type": "uint256[]",
              "internalType": "uint256[]"
            }
          ]
        },
        {
          "name": "revertOnFail",
          "type": "bool",
          "internalType": "bool"
        }
      ],
      "outputs": [],
      "stateMutability": "nonpayable"
    },
    {
      "type": "function",
      "name": "buyLiquidations",
      "inputs": [
        {
          "name": "liquidationDescs",
          "type": "tuple[]",
          "internalType": "struct BuyToLiquidateDesc[]",
          "components": [
            {
              "name": "perpId",
              "type": "uint256",
              "internalType": "uint256"
            },
            {
              "name": "posAccountId",
              "type": "uint256",
              "internalType": "uint256"
            },
            {
              "name": "lotLNS",
              "type": "uint256",
              "internalType": "uint256"
            },
            {
              "name": "leverageHdths",
              "type": "uint256",
              "internalType": "uint256"
            },
            {
              "name": "limitPricePNS",
              "type": "uint256",
              "internalType": "uint256"
            }
          ]
        },
        {
          "name": "revertOnFail",
          "type": "bool",
          "internalType": "bool"
        }
      ],
      "outputs": [],
      "stateMutability": "nonpayable"
    },
    {
      "type": "function",
      "name": "cancelDecreaseCollateralRequest",
      "inputs": [
        {
          "name": "perpId",
          "type": "uint256",
          "internalType": "uint256"
        }
      ],
      "outputs": [],
      "stateMutability": "nonpayable"
    },
    {
      "type": "function",
      "name": "clearInitUnwindContract",
      "inputs": [
        {
          "name": "perpId",
          "type": "uint256",
          "internalType": "uint256"
        }
      ],
      "outputs": [],
      "stateMutability": "nonpayable"
    },
    {
      "type": "function",
      "name": "clearOrderSlots",
      "inputs": [
        {
          "name": "perpId",
          "type": "uint256",
          "internalType": "uint256"
        },
        {
          "name": "orderIds",
          "type": "uint256[]",
          "internalType": "uint256[]"
        }
      ],
      "outputs": [],
      "stateMutability": "nonpayable"
    },
    {
      "type": "function",
      "name": "clearPrepareUnwindContract",
      "inputs": [
        {
          "name": "perpId",
          "type": "uint256",
          "internalType": "uint256"
        }
      ],
      "outputs": [],
      "stateMutability": "nonpayable"
    },
    {
      "type": "function",
      "name": "clearPricePointerSlots",
      "inputs": [
        {
          "name": "perpId",
          "type": "uint256",
          "internalType": "uint256"
        },
        {
          "name": "pricesONS",
          "type": "uint256[]",
          "internalType": "uint256[]"
        }
      ],
      "outputs": [],
      "stateMutability": "nonpayable"
    },
    {
      "type": "function",
      "name": "createAccount",
      "inputs": [
        {
          "name": "amountCNS",
          "type": "uint256",
          "internalType": "uint256"
        }
      ],
      "outputs": [
        {
          "name": "accountId",
          "type": "uint256",
          "internalType": "uint256"
        }
      ],
      "stateMutability": "nonpayable"
    },
    {
      "type": "function",
      "name": "declineDecreaseCollateralRequest",
      "inputs": [
        {
          "name": "perpId",
          "type": "uint256",
          "internalType": "uint256"
        },
        {
          "name": "accountId",
          "type": "uint256",
          "internalType": "uint256"
        },
        {
          "name": "reason",
          "type": "string",
          "internalType": "string"
        }
      ],
      "outputs": [],
      "stateMutability": "nonpayable"
    },
    {
      "type": "function",
      "name": "decreasePositionCollateral",
      "inputs": [
        {
          "name": "perpId",
          "type": "uint256",
          "internalType": "uint256"
        },
        {
          "name": "accountId",
          "type": "uint256",
          "internalType": "uint256"
        },
        {
          "name": "impactAdjPricePNS",
          "type": "uint32",
          "internalType": "uint32"
        },
        {
          "name": "borrowMarginFracHdths",
          "type": "uint16",
          "internalType": "uint16"
        },
        {
          "name": "positionType",
          "type": "uint8",
          "internalType": "enum PositionEnum"
        }
      ],
      "outputs": [],
      "stateMutability": "nonpayable"
    },
    {
      "type": "function",
      "name": "depositCollateral",
      "inputs": [
        {
          "name": "amountCNS",
          "type": "uint256",
          "internalType": "uint256"
        }
      ],
      "outputs": [],
      "stateMutability": "nonpayable"
    },
    {
      "type": "function",
      "name": "depositToProtocol",
      "inputs": [
        {
          "name": "amountCNS",
          "type": "uint256",
          "internalType": "uint256"
        }
      ],
      "outputs": [],
      "stateMutability": "nonpayable"
    },
    {
      "type": "function",
      "name": "execFwdPositionOps",
      "inputs": [
        {
          "name": "forwardedOrders",
          "type": "tuple[]",
          "internalType": "struct FwdOrderDesc[]",
          "components": [
            {
              "name": "accountId",
              "type": "uint256",
              "internalType": "uint256"
            },
            {
              "name": "feePer100K",
              "type": "uint256",
              "internalType": "uint256"
            },
            {
              "name": "orderDesc",
              "type": "tuple",
              "internalType": "struct OrderDesc",
              "components": [
                {
                  "name": "orderDescId",
                  "type": "uint256",
                  "internalType": "uint256"
                },
                {
                  "name": "perpId",
                  "type": "uint256",
                  "internalType": "uint256"
                },
                {
                  "name": "orderType",
                  "type": "uint8",
                  "internalType": "enum OrderDescEnum"
                },
                {
                  "name": "orderId",
                  "type": "uint256",
                  "internalType": "uint256"
                },
                {
                  "name": "pricePNS",
                  "type": "uint256",
                  "internalType": "uint256"
                },
                {
                  "name": "lotLNS",
                  "type": "uint256",
                  "internalType": "uint256"
                },
                {
                  "name": "expiryBlock",
                  "type": "uint256",
                  "internalType": "uint256"
                },
                {
                  "name": "postOnly",
                  "type": "bool",
                  "internalType": "bool"
                },
                {
                  "name": "fillOrKill",
                  "type": "bool",
                  "internalType": "bool"
                },
                {
                  "name": "immediateOrCancel",
                  "type": "bool",
                  "internalType": "bool"
                },
                {
                  "name": "maxMatches",
                  "type": "uint256",
                  "internalType": "uint256"
                },
                {
                  "name": "leverageHdths",
                  "type": "uint256",
                  "internalType": "uint256"
                },
                {
                  "name": "lastExecutionBlock",
                  "type": "uint256",
                  "internalType": "uint256"
                },
                {
                  "name": "amountCNS",
                  "type": "uint256",
                  "internalType": "uint256"
                }
              ]
            }
          ]
        }
      ],
      "outputs": [
        {
          "name": "signatures",
          "type": "tuple[]",
          "internalType": "struct OrderSignature[]",
          "components": [
            {
              "name": "perpId",
              "type": "uint256",
              "internalType": "uint256"
            },
            {
              "name": "orderId",
              "type": "uint256",
              "internalType": "uint256"
            }
          ]
        }
      ],
      "stateMutability": "nonpayable"
    },
    {
      "type": "function",
      "name": "execFznAccountPosOps",
      "inputs": [
        {
          "name": "fznAccountCloseOrders",
          "type": "tuple[]",
          "internalType": "struct FznOrderDesc[]",
          "components": [
            {
              "name": "accountId",
              "type": "uint256",
              "internalType": "uint256"
            },
            {
              "name": "orderDesc",
              "type": "tuple",
              "internalType": "struct OrderDesc",
              "components": [
                {
                  "name": "orderDescId",
                  "type": "uint256",
                  "internalType": "uint256"
                },
                {
                  "name": "perpId",
                  "type": "uint256",
                  "internalType": "uint256"
                },
                {
                  "name": "orderType",
                  "type": "uint8",
                  "internalType": "enum OrderDescEnum"
                },
                {
                  "name": "orderId",
                  "type": "uint256",
                  "internalType": "uint256"
                },
                {
                  "name": "pricePNS",
                  "type": "uint256",
                  "internalType": "uint256"
                },
                {
                  "name": "lotLNS",
                  "type": "uint256",
                  "internalType": "uint256"
                },
                {
                  "name": "expiryBlock",
                  "type": "uint256",
                  "internalType": "uint256"
                },
                {
                  "name": "postOnly",
                  "type": "bool",
                  "internalType": "bool"
                },
                {
                  "name": "fillOrKill",
                  "type": "bool",
                  "internalType": "bool"
                },
                {
                  "name": "immediateOrCancel",
                  "type": "bool",
                  "internalType": "bool"
                },
                {
                  "name": "maxMatches",
                  "type": "uint256",
                  "internalType": "uint256"
                },
                {
                  "name": "leverageHdths",
                  "type": "uint256",
                  "internalType": "uint256"
                },
                {
                  "name": "lastExecutionBlock",
                  "type": "uint256",
                  "internalType": "uint256"
                },
                {
                  "name": "amountCNS",
                  "type": "uint256",
                  "internalType": "uint256"
                }
              ]
            }
          ]
        }
      ],
      "outputs": [],
      "stateMutability": "nonpayable"
    },
    {
      "type": "function",
      "name": "execOrder",
      "inputs": [
        {
          "name": "orderDesc",
          "type": "tuple",
          "internalType": "struct OrderDesc",
          "components": [
            {
              "name": "orderDescId",
              "type": "uint256",
              "internalType": "uint256"
            },
            {
              "name": "perpId",
              "type": "uint256",
              "internalType": "uint256"
            },
            {
              "name": "orderType",
              "type": "uint8",
              "internalType": "enum OrderDescEnum"
            },
            {
              "name": "orderId",
              "type": "uint256",
              "internalType": "uint256"
            },
            {
              "name": "pricePNS",
              "type": "uint256",
              "internalType": "uint256"
            },
            {
              "name": "lotLNS",
              "type": "uint256",
              "internalType": "uint256"
            },
            {
              "name": "expiryBlock",
              "type": "uint256",
              "internalType": "uint256"
            },
            {
              "name": "postOnly",
              "type": "bool",
              "internalType": "bool"
            },
            {
              "name": "fillOrKill",
              "type": "bool",
              "internalType": "bool"
            },
            {
              "name": "immediateOrCancel",
              "type": "bool",
              "internalType": "bool"
            },
            {
              "name": "maxMatches",
              "type": "uint256",
              "internalType": "uint256"
            },
            {
              "name": "leverageHdths",
              "type": "uint256",
              "internalType": "uint256"
            },
            {
              "name": "lastExecutionBlock",
              "type": "uint256",
              "internalType": "uint256"
            },
            {
              "name": "amountCNS",
              "type": "uint256",
              "internalType": "uint256"
            }
          ]
        }
      ],
      "outputs": [
        {
          "name": "signature",
          "type": "tuple",
          "internalType": "struct OrderSignature",
          "components": [
            {
              "name": "perpId",
              "type": "uint256",
              "internalType": "uint256"
            },
            {
              "name": "orderId",
              "type": "uint256",
              "internalType": "uint256"
            }
          ]
        }
      ],
      "stateMutability": "nonpayable"
    },
    {
      "type": "function",
      "name": "execOrders",
      "inputs": [
        {
          "name": "orderDescs",
          "type": "tuple[]",
          "internalType": "struct OrderDesc[]",
          "components": [
            {
              "name": "orderDescId",
              "type": "uint256",
              "internalType": "uint256"
            },
            {
              "name": "perpId",
              "type": "uint256",
              "internalType": "uint256"
            },
            {
              "name": "orderType",
              "type": "uint8",
              "internalType": "enum OrderDescEnum"
            },
            {
              "name": "orderId",
              "type": "uint256",
              "internalType": "uint256"
            },
            {
              "name": "pricePNS",
              "type": "uint256",
              "internalType": "uint256"
            },
            {
              "name": "lotLNS",
              "type": "uint256",
              "internalType": "uint256"
            },
            {
              "name": "expiryBlock",
              "type": "uint256",
              "internalType": "uint256"
            },
            {
              "name": "postOnly",
              "type": "bool",
              "internalType": "bool"
            },
            {
              "name": "fillOrKill",
              "type": "bool",
              "internalType": "bool"
            },
            {
              "name": "immediateOrCancel",
              "type": "bool",
              "internalType": "bool"
            },
            {
              "name": "maxMatches",
              "type": "uint256",
              "internalType": "uint256"
            },
            {
              "name": "leverageHdths",
              "type": "uint256",
              "internalType": "uint256"
            },
            {
              "name": "lastExecutionBlock",
              "type": "uint256",
              "internalType": "uint256"
            },
            {
              "name": "amountCNS",
              "type": "uint256",
              "internalType": "uint256"
            }
          ]
        },
        {
          "name": "revertOnFail",
          "type": "bool",
          "internalType": "bool"
        }
      ],
      "outputs": [
        {
          "name": "signatures",
          "type": "tuple[]",
          "internalType": "struct OrderSignature[]",
          "components": [
            {
              "name": "perpId",
              "type": "uint256",
              "internalType": "uint256"
            },
            {
              "name": "orderId",
              "type": "uint256",
              "internalType": "uint256"
            }
          ]
        }
      ],
      "stateMutability": "nonpayable"
    },
    {
      "type": "function",
      "name": "execPerpOps",
      "inputs": [
        {
          "name": "operations",
          "type": "tuple[]",
          "internalType": "struct OpDesc[]",
          "components": [
            {
              "name": "opDescId",
              "type": "uint256",
              "internalType": "uint256"
            },
            {
              "name": "perpId",
              "type": "uint256",
              "internalType": "uint256"
            },
            {
              "name": "opType",
              "type": "uint8",
              "internalType": "enum OpDescEnum"
            },
            {
              "name": "pricePNS",
              "type": "uint32",
              "internalType": "uint32"
            },
            {
              "name": "fundingRatePct100k",
              "type": "int256",
              "internalType": "int256"
            },
            {
              "name": "allowOverwrite",
              "type": "bool",
              "internalType": "bool"
            },
            {
              "name": "unverifiedReport",
              "type": "bytes",
              "internalType": "bytes"
            }
          ]
        }
      ],
      "outputs": [],
      "stateMutability": "nonpayable"
    },
    {
      "type": "function",
      "name": "forceClose",
      "inputs": [
        {
          "name": "perpId",
          "type": "uint256",
          "internalType": "uint256"
        },
        {
          "name": "posAccountId",
          "type": "uint256",
          "internalType": "uint256"
        },
        {
          "name": "sortedPositionIds",
          "type": "uint256[]",
          "internalType": "uint256[]"
        },
        {
          "name": "revertOnFail",
          "type": "bool",
          "internalType": "bool"
        }
      ],
      "outputs": [
        {
          "name": "success",
          "type": "bool",
          "internalType": "bool"
        }
      ],
      "stateMutability": "nonpayable"
    },
    {
      "type": "function",
      "name": "forceResetWithdrawRateLimit",
      "inputs": [],
      "outputs": [],
      "stateMutability": "nonpayable"
    },
    {
      "type": "function",
      "name": "getAccountByAddr",
      "inputs": [
        {
          "name": "accountAddress",
          "type": "address",
          "internalType": "address"
        }
      ],
      "outputs": [
        {
          "name": "accountInfo",
          "type": "tuple",
          "internalType": "struct AccountInfo",
          "components": [
            {
              "name": "accountId",
              "type": "uint256",
              "internalType": "uint256"
            },
            {
              "name": "balanceCNS",
              "type": "uint256",
              "internalType": "uint256"
            },
            {
              "name": "lockedBalanceCNS",
              "type": "uint256",
              "internalType": "uint256"
            },
            {
              "name": "frozen",
              "type": "uint8",
              "internalType": "enum FreezeStatusEnum"
            },
            {
              "name": "accountAddr",
              "type": "address",
              "internalType": "address"
            },
            {
              "name": "positions",
              "type": "tuple",
              "internalType": "struct PositionBitMap",
              "components": [
                {
                  "name": "bank1",
                  "type": "uint256",
                  "internalType": "uint256"
                },
                {
                  "name": "bank2",
                  "type": "uint256",
                  "internalType": "uint256"
                },
                {
                  "name": "bank3",
                  "type": "uint256",
                  "internalType": "uint256"
                },
                {
                  "name": "bank4",
                  "type": "uint256",
                  "internalType": "uint256"
                }
              ]
            }
          ]
        }
      ],
      "stateMutability": "view"
    },
    {
      "type": "function",
      "name": "getAccountById",
      "inputs": [
        {
          "name": "accountId",
          "type": "uint256",
          "internalType": "uint256"
        }
      ],
      "outputs": [
        {
          "name": "accountInfo",
          "type": "tuple",
          "internalType": "struct AccountInfo",
          "components": [
            {
              "name": "accountId",
              "type": "uint256",
              "internalType": "uint256"
            },
            {
              "name": "balanceCNS",
              "type": "uint256",
              "internalType": "uint256"
            },
            {
              "name": "lockedBalanceCNS",
              "type": "uint256",
              "internalType": "uint256"
            },
            {
              "name": "frozen",
              "type": "uint8",
              "internalType": "enum FreezeStatusEnum"
            },
            {
              "name": "accountAddr",
              "type": "address",
              "internalType": "address"
            },
            {
              "name": "positions",
              "type": "tuple",
              "internalType": "struct PositionBitMap",
              "components": [
                {
                  "name": "bank1",
                  "type": "uint256",
                  "internalType": "uint256"
                },
                {
                  "name": "bank2",
                  "type": "uint256",
                  "internalType": "uint256"
                },
                {
                  "name": "bank3",
                  "type": "uint256",
                  "internalType": "uint256"
                },
                {
                  "name": "bank4",
                  "type": "uint256",
                  "internalType": "uint256"
                }
              ]
            }
          ]
        }
      ],
      "stateMutability": "view"
    },
    {
      "type": "function",
      "name": "getExchangeInfo",
      "inputs": [],
      "outputs": [
        {
          "name": "balanceCNS",
          "type": "uint256",
          "internalType": "uint256"
        },
        {
          "name": "protocolBalanceCNS",
          "type": "uint256",
          "internalType": "uint256"
        },
        {
          "name": "recycleBalanceCNS",
          "type": "uint256",
          "internalType": "uint256"
        },
        {
          "name": "collateralDecimals",
          "type": "uint256",
          "internalType": "uint256"
        },
        {
          "name": "collateralToken",
          "type": "address",
          "internalType": "address"
        },
        {
          "name": "verifierProxy",
          "type": "address",
          "internalType": "address"
        }
      ],
      "stateMutability": "view"
    },
    {
      "type": "function",
      "name": "getFundingInterval",
      "inputs": [],
      "outputs": [
        {
          "name": "fundingInterval",
          "type": "uint256",
          "internalType": "uint256"
        }
      ],
      "stateMutability": "pure"
    },
    {
      "type": "function",
      "name": "getFundingSumAtBlock",
      "inputs": [
        {
          "name": "perpId",
          "type": "uint256",
          "internalType": "uint256"
        },
        {
          "name": "blockNumber",
          "type": "uint256",
          "internalType": "uint256"
        }
      ],
      "outputs": [
        {
          "name": "fundingSumPNS",
          "type": "int48",
          "internalType": "int48"
        },
        {
          "name": "fundingEventBlock",
          "type": "uint256",
          "internalType": "uint256"
        }
      ],
      "stateMutability": "view"
    },
    {
      "type": "function",
      "name": "getLiquidationInfo",
      "inputs": [
        {
          "name": "perpId",
          "type": "uint256",
          "internalType": "uint256"
        }
      ],
      "outputs": [
        {
          "name": "liquidationInfo",
          "type": "tuple",
          "internalType": "struct LiquidationInfo",
          "components": [
            {
              "name": "liqInsAmtPer100K",
              "type": "uint256",
              "internalType": "uint256"
            },
            {
              "name": "liqUserAmtPer100K",
              "type": "uint256",
              "internalType": "uint256"
            },
            {
              "name": "liqProtocolAmtPer100K",
              "type": "uint256",
              "internalType": "uint256"
            },
            {
              "name": "btlPriceThreshPer100K",
              "type": "uint256",
              "internalType": "uint256"
            },
            {
              "name": "btlInsAmtPer100K",
              "type": "uint256",
              "internalType": "uint256"
            },
            {
              "name": "btlUserAmtPer100K",
              "type": "uint256",
              "internalType": "uint256"
            },
            {
              "name": "btlBuyerAmtPer100K",
              "type": "uint256",
              "internalType": "uint256"
            },
            {
              "name": "btlProtocolAmtPer100K",
              "type": "uint256",
              "internalType": "uint256"
            },
            {
              "name": "btlRestrictBuyers",
              "type": "bool",
              "internalType": "bool"
            }
          ]
        }
      ],
      "stateMutability": "view"
    },
    {
      "type": "function",
      "name": "getMakerFee",
      "inputs": [
        {
          "name": "perpId",
          "type": "uint256",
          "internalType": "uint256"
        }
      ],
      "outputs": [
        {
          "name": "",
          "type": "uint256",
          "internalType": "uint256"
        }
      ],
      "stateMutability": "view"
    },
    {
      "type": "function",
      "name": "getMarginFractions",
      "inputs": [
        {
          "name": "perpId",
          "type": "uint256",
          "internalType": "uint256"
        },
        {
          "name": "lotLNS",
          "type": "uint256",
          "internalType": "uint256"
        }
      ],
      "outputs": [
        {
          "name": "perpInitMarginFracHdths",
          "type": "uint256",
          "internalType": "uint256"
        },
        {
          "name": "perpMaintMarginFracHdths",
          "type": "uint256",
          "internalType": "uint256"
        },
        {
          "name": "dynamicInitMarginFracHdths",
          "type": "uint256",
          "internalType": "uint256"
        },
        {
          "name": "oiMaxLNS",
          "type": "uint256",
          "internalType": "uint256"
        },
        {
          "name": "unityDescentThreshHdths",
          "type": "uint256",
          "internalType": "uint256"
        },
        {
          "name": "overColDescentThreshHdths",
          "type": "uint256",
          "internalType": "uint256"
        }
      ],
      "stateMutability": "view"
    },
    {
      "type": "function",
      "name": "getMinAccountOpenCNS",
      "inputs": [],
      "outputs": [
        {
          "name": "minAccountOpenCNS",
          "type": "uint256",
          "internalType": "uint256"
        }
      ],
      "stateMutability": "view"
    },
    {
      "type": "function",
      "name": "getMinimumPostCNS",
      "inputs": [],
      "outputs": [
        {
          "name": "minimumPostCNS",
          "type": "uint256",
          "internalType": "uint256"
        }
      ],
      "stateMutability": "view"
    },
    {
      "type": "function",
      "name": "getMinimumSettleCNS",
      "inputs": [],
      "outputs": [
        {
          "name": "minimumSettleCNS",
          "type": "uint256",
          "internalType": "uint256"
        }
      ],
      "stateMutability": "view"
    },
    {
      "type": "function",
      "name": "getNextPriceBelowWithOrders",
      "inputs": [
        {
          "name": "perpId",
          "type": "uint256",
          "internalType": "uint256"
        },
        {
          "name": "priceONS",
          "type": "uint256",
          "internalType": "uint256"
        }
      ],
      "outputs": [
        {
          "name": "priceBelowONS",
          "type": "uint256",
          "internalType": "uint256"
        }
      ],
      "stateMutability": "view"
    },
    {
      "type": "function",
      "name": "getOrder",
      "inputs": [
        {
          "name": "perpId",
          "type": "uint256",
          "internalType": "uint256"
        },
        {
          "name": "orderId",
          "type": "uint256",
          "internalType": "uint256"
        }
      ],
      "outputs": [
        {
          "name": "order",
          "type": "tuple",
          "internalType": "struct Order",
          "components": [
            {
              "name": "accountId",
              "type": "uint32",
              "internalType": "uint32"
            },
            {
              "name": "orderType",
              "type": "uint8",
              "internalType": "enum OrderEnum"
            },
            {
              "name": "priceONS",
              "type": "uint24",
              "internalType": "uint24"
            },
            {
              "name": "lotLNS",
              "type": "uint40",
              "internalType": "uint40"
            },
            {
              "name": "recycleFeeRaw",
              "type": "uint16",
              "internalType": "uint16"
            },
            {
              "name": "expiryBlock",
              "type": "uint32",
              "internalType": "uint32"
            },
            {
              "name": "leverageHdths",
              "type": "uint16",
              "internalType": "uint16"
            },
            {
              "name": "orderId",
              "type": "uint16",
              "internalType": "uint16"
            },
            {
              "name": "prevOrderId",
              "type": "uint16",
              "internalType": "uint16"
            },
            {
              "name": "nextOrderId",
              "type": "uint16",
              "internalType": "uint16"
            }
          ]
        }
      ],
      "stateMutability": "view"
    },
    {
      "type": "function",
      "name": "getOrderIdIndex",
      "inputs": [
        {
          "name": "perpId",
          "type": "uint256",
          "internalType": "uint256"
        }
      ],
      "outputs": [
        {
          "name": "root",
          "type": "uint256",
          "internalType": "uint256"
        },
        {
          "name": "leaves",
          "type": "uint256[]",
          "internalType": "uint256[]"
        },
        {
          "name": "numOrders",
          "type": "uint256",
          "internalType": "uint256"
        }
      ],
      "stateMutability": "view"
    },
    {
      "type": "function",
      "name": "getOrderLocks",
      "inputs": [
        {
          "name": "accountId",
          "type": "uint256",
          "internalType": "uint256"
        }
      ],
      "outputs": [
        {
          "name": "orderLocks",
          "type": "tuple[]",
          "internalType": "struct OrderLock[]",
          "components": [
            {
              "name": "orderLockId",
              "type": "uint32",
              "internalType": "uint32"
            },
            {
              "name": "nextOrderLockId",
              "type": "uint32",
              "internalType": "uint32"
            },
            {
              "name": "prevOrderLockId",
              "type": "uint32",
              "internalType": "uint32"
            },
            {
              "name": "orderType",
              "type": "uint8",
              "internalType": "enum OrderEnum"
            },
            {
              "name": "lotLNS",
              "type": "uint40",
              "internalType": "uint40"
            },
            {
              "name": "amountCNS",
              "type": "uint80",
              "internalType": "uint80"
            }
          ]
        }
      ],
      "stateMutability": "view"
    },
    {
      "type": "function",
      "name": "getOrdersAtPriceLevel",
      "inputs": [
        {
          "name": "perpId",
          "type": "uint256",
          "internalType": "uint256"
        },
        {
          "name": "priceONS",
          "type": "uint256",
          "internalType": "uint256"
        },
        {
          "name": "pageStartOrderId",
          "type": "uint256",
          "internalType": "uint256"
        },
        {
          "name": "ordersPerPage",
          "type": "uint256",
          "internalType": "uint256"
        }
      ],
      "outputs": [
        {
          "name": "ordersAtPriceLevel",
          "type": "tuple[]",
          "internalType": "struct Order[]",
          "components": [
            {
              "name": "accountId",
              "type": "uint32",
              "internalType": "uint32"
            },
            {
              "name": "orderType",
              "type": "uint8",
              "internalType": "enum OrderEnum"
            },
            {
              "name": "priceONS",
              "type": "uint24",
              "internalType": "uint24"
            },
            {
              "name": "lotLNS",
              "type": "uint40",
              "internalType": "uint40"
            },
            {
              "name": "recycleFeeRaw",
              "type": "uint16",
              "internalType": "uint16"
            },
            {
              "name": "expiryBlock",
              "type": "uint32",
              "internalType": "uint32"
            },
            {
              "name": "leverageHdths",
              "type": "uint16",
              "internalType": "uint16"
            },
            {
              "name": "orderId",
              "type": "uint16",
              "internalType": "uint16"
            },
            {
              "name": "prevOrderId",
              "type": "uint16",
              "internalType": "uint16"
            },
            {
              "name": "nextOrderId",
              "type": "uint16",
              "internalType": "uint16"
            }
          ]
        },
        {
          "name": "numOrders",
          "type": "uint256",
          "internalType": "uint256"
        }
      ],
      "stateMutability": "view"
    },
    {
      "type": "function",
      "name": "getOwner",
      "inputs": [],
      "outputs": [
        {
          "name": "",
          "type": "address",
          "internalType": "address"
        }
      ],
      "stateMutability": "view"
    },
    {
      "type": "function",
      "name": "getPermissionedCancelParams",
      "inputs": [
        {
          "name": "perpId",
          "type": "uint256",
          "internalType": "uint256"
        }
      ],
      "outputs": [
        {
          "name": "permCancelMinOrders",
          "type": "uint256",
          "internalType": "uint256"
        },
        {
          "name": "permCancelSegment",
          "type": "uint256",
          "internalType": "uint256"
        }
      ],
      "stateMutability": "view"
    },
    {
      "type": "function",
      "name": "getPerpOrderLocks",
      "inputs": [
        {
          "name": "accountId",
          "type": "uint256",
          "internalType": "uint256"
        },
        {
          "name": "perpId",
          "type": "uint256",
          "internalType": "uint256"
        }
      ],
      "outputs": [
        {
          "name": "perpOrderLocks",
          "type": "tuple[]",
          "internalType": "struct OrderLock[]",
          "components": [
            {
              "name": "orderLockId",
              "type": "uint32",
              "internalType": "uint32"
            },
            {
              "name": "nextOrderLockId",
              "type": "uint32",
              "internalType": "uint32"
            },
            {
              "name": "prevOrderLockId",
              "type": "uint32",
              "internalType": "uint32"
            },
            {
              "name": "orderType",
              "type": "uint8",
              "internalType": "enum OrderEnum"
            },
            {
              "name": "lotLNS",
              "type": "uint40",
              "internalType": "uint40"
            },
            {
              "name": "amountCNS",
              "type": "uint80",
              "internalType": "uint80"
            }
          ]
        }
      ],
      "stateMutability": "view"
    },
    {
      "type": "function",
      "name": "getPerpetualInfo",
      "inputs": [
        {
          "name": "perpId",
          "type": "uint256",
          "internalType": "uint256"
        }
      ],
      "outputs": [
        {
          "name": "perpetualInfo",
          "type": "tuple",
          "internalType": "struct PerpetualInfo",
          "components": [
            {
              "name": "name",
              "type": "string",
              "internalType": "string"
            },
            {
              "name": "symbol",
              "type": "string",
              "internalType": "string"
            },
            {
              "name": "priceDecimals",
              "type": "uint256",
              "internalType": "uint256"
            },
            {
              "name": "lotDecimals",
              "type": "uint256",
              "internalType": "uint256"
            },
            {
              "name": "linkFeedId",
              "type": "bytes32",
              "internalType": "bytes32"
            },
            {
              "name": "priceTolPer100K",
              "type": "uint256",
              "internalType": "uint256"
            },
            {
              "name": "marginTol",
              "type": "uint256",
              "internalType": "uint256"
            },
            {
              "name": "marginTolDecimals",
              "type": "uint256",
              "internalType": "uint256"
            },
            {
              "name": "refPriceMaxAgeSec",
              "type": "uint256",
              "internalType": "uint256"
            },
            {
              "name": "positionBalanceCNS",
              "type": "uint256",
              "internalType": "uint256"
            },
            {
              "name": "insuranceBalanceCNS",
              "type": "uint256",
              "internalType": "uint256"
            },
            {
              "name": "markPNS",
              "type": "uint256",
              "internalType": "uint256"
            },
            {
              "name": "markTimestamp",
              "type": "uint256",
              "internalType": "uint256"
            },
            {
              "name": "lastPNS",
              "type": "uint256",
              "internalType": "uint256"
            },
            {
              "name": "lastTimestamp",
              "type": "uint256",
              "internalType": "uint256"
            },
            {
              "name": "oraclePNS",
              "type": "uint256",
              "internalType": "uint256"
            },
            {
              "name": "oracleTimestampSec",
              "type": "uint256",
              "internalType": "uint256"
            },
            {
              "name": "longOpenInterestLNS",
              "type": "uint256",
              "internalType": "uint256"
            },
            {
              "name": "shortOpenInterestLNS",
              "type": "uint256",
              "internalType": "uint256"
            },
            {
              "name": "fundingStartBlock",
              "type": "uint256",
              "internalType": "uint256"
            },
            {
              "name": "fundingRatePct100k",
              "type": "int16",
              "internalType": "int16"
            },
            {
              "name": "absFundingClampPctPer100K",
              "type": "uint256",
              "internalType": "uint256"
            },
            {
              "name": "status",
              "type": "uint8",
              "internalType": "enum PerpStatusEnum"
            },
            {
              "name": "basePricePNS",
              "type": "uint256",
              "internalType": "uint256"
            },
            {
              "name": "maxBidPriceONS",
              "type": "uint256",
              "internalType": "uint256"
            },
            {
              "name": "minBidPriceONS",
              "type": "uint256",
              "internalType": "uint256"
            },
            {
              "name": "maxAskPriceONS",
              "type": "uint256",
              "internalType": "uint256"
            },
            {
              "name": "minAskPriceONS",
              "type": "uint256",
              "internalType": "uint256"
            },
            {
              "name": "numOrders",
              "type": "uint256",
              "internalType": "uint256"
            },
            {
              "name": "ignOracle",
              "type": "bool",
              "internalType": "bool"
            }
          ]
        }
      ],
      "stateMutability": "view"
    },
    {
      "type": "function",
      "name": "getPosition",
      "inputs": [
        {
          "name": "perpId",
          "type": "uint256",
          "internalType": "uint256"
        },
        {
          "name": "accountId",
          "type": "uint256",
          "internalType": "uint256"
        }
      ],
      "outputs": [
        {
          "name": "positionInfo",
          "type": "tuple",
          "internalType": "struct PositionInfo",
          "components": [
            {
              "name": "accountId",
              "type": "uint256",
              "internalType": "uint256"
            },
            {
              "name": "nextNodeId",
              "type": "uint256",
              "internalType": "uint256"
            },
            {
              "name": "prevNodeId",
              "type": "uint256",
              "internalType": "uint256"
            },
            {
              "name": "positionType",
              "type": "uint8",
              "internalType": "enum PositionEnum"
            },
            {
              "name": "depositCNS",
              "type": "uint256",
              "internalType": "uint256"
            },
            {
              "name": "pricePNS",
              "type": "uint256",
              "internalType": "uint256"
            },
            {
              "name": "lotLNS",
              "type": "uint256",
              "internalType": "uint256"
            },
            {
              "name": "entryBlock",
              "type": "uint256",
              "internalType": "uint256"
            },
            {
              "name": "pnlCNS",
              "type": "int256",
              "internalType": "int256"
            },
            {
              "name": "deltaPnlCNS",
              "type": "int256",
              "internalType": "int256"
            },
            {
              "name": "premiumPnlCNS",
              "type": "int256",
              "internalType": "int256"
            }
          ]
        },
        {
          "name": "markPricePNS",
          "type": "uint256",
          "internalType": "uint256"
        },
        {
          "name": "markPriceValid",
          "type": "bool",
          "internalType": "bool"
        }
      ],
      "stateMutability": "view"
    },
    {
      "type": "function",
      "name": "getPositionIds",
      "inputs": [
        {
          "name": "perpId",
          "type": "uint256",
          "internalType": "uint256"
        }
      ],
      "outputs": [
        {
          "name": "startNodeId",
          "type": "uint256",
          "internalType": "uint256"
        },
        {
          "name": "endNodeId",
          "type": "uint256",
          "internalType": "uint256"
        }
      ],
      "stateMutability": "view"
    },
    {
      "type": "function",
      "name": "getPositions",
      "inputs": [
        {
          "name": "perpId",
          "type": "uint256",
          "internalType": "uint256"
        },
        {
          "name": "pageStartPositionId",
          "type": "uint256",
          "internalType": "uint256"
        },
        {
          "name": "positionsPerPage",
          "type": "uint256",
          "internalType": "uint256"
        }
      ],
      "outputs": [
        {
          "name": "positions",
          "type": "tuple[]",
          "internalType": "struct PositionInfo[]",
          "components": [
            {
              "name": "accountId",
              "type": "uint256",
              "internalType": "uint256"
            },
            {
              "name": "nextNodeId",
              "type": "uint256",
              "internalType": "uint256"
            },
            {
              "name": "prevNodeId",
              "type": "uint256",
              "internalType": "uint256"
            },
            {
              "name": "positionType",
              "type": "uint8",
              "internalType": "enum PositionEnum"
            },
            {
              "name": "depositCNS",
              "type": "uint256",
              "internalType": "uint256"
            },
            {
              "name": "pricePNS",
              "type": "uint256",
              "internalType": "uint256"
            },
            {
              "name": "lotLNS",
              "type": "uint256",
              "internalType": "uint256"
            },
            {
              "name": "entryBlock",
              "type": "uint256",
              "internalType": "uint256"
            },
            {
              "name": "pnlCNS",
              "type": "int256",
              "internalType": "int256"
            },
            {
              "name": "deltaPnlCNS",
              "type": "int256",
              "internalType": "int256"
            },
            {
              "name": "premiumPnlCNS",
              "type": "int256",
              "internalType": "int256"
            }
          ]
        },
        {
          "name": "numPositions",
          "type": "uint256",
          "internalType": "uint256"
        },
        {
          "name": "markPricePNS",
          "type": "uint256",
          "internalType": "uint256"
        },
        {
          "name": "markPriceValid",
          "type": "bool",
          "internalType": "bool"
        }
      ],
      "stateMutability": "view"
    },
    {
      "type": "function",
      "name": "getPriceLevelOrderIds",
      "inputs": [
        {
          "name": "perpId",
          "type": "uint256",
          "internalType": "uint256"
        },
        {
          "name": "priceONS",
          "type": "uint256",
          "internalType": "uint256"
        }
      ],
      "outputs": [
        {
          "name": "startOrderId",
          "type": "uint256",
          "internalType": "uint256"
        },
        {
          "name": "endOrderId",
          "type": "uint256",
          "internalType": "uint256"
        }
      ],
      "stateMutability": "view"
    },
    {
      "type": "function",
      "name": "getProtocolBalanceCNS",
      "inputs": [],
      "outputs": [
        {
          "name": "protocolBalanceCNS",
          "type": "uint256",
          "internalType": "uint256"
        }
      ],
      "stateMutability": "view"
    },
    {
      "type": "function",
      "name": "getRecycleBalanceCNS",
      "inputs": [],
      "outputs": [
        {
          "name": "recycleBalanceCNS",
          "type": "uint256",
          "internalType": "uint256"
        }
      ],
      "stateMutability": "view"
    },
    {
      "type": "function",
      "name": "getRecycleFeeCNS",
      "inputs": [],
      "outputs": [
        {
          "name": "recycleFeeCNS",
          "type": "uint256",
          "internalType": "uint256"
        }
      ],
      "stateMutability": "view"
    },
    {
      "type": "function",
      "name": "getTakerFee",
      "inputs": [
        {
          "name": "perpId",
          "type": "uint256",
          "internalType": "uint256"
        }
      ],
      "outputs": [
        {
          "name": "",
          "type": "uint256",
          "internalType": "uint256"
        }
      ],
      "stateMutability": "view"
    },
    {
      "type": "function",
      "name": "getUnwindInfo",
      "inputs": [
        {
          "name": "perpId",
          "type": "uint256",
          "internalType": "uint256"
        }
      ],
      "outputs": [
        {
          "name": "status",
          "type": "uint8",
          "internalType": "enum PerpStatusEnum"
        },
        {
          "name": "unwindSumPositiveFmvCNS",
          "type": "uint256",
          "internalType": "uint256"
        },
        {
          "name": "unwindInitPosBalCNS",
          "type": "uint256",
          "internalType": "uint256"
        }
      ],
      "stateMutability": "view"
    },
    {
      "type": "function",
      "name": "getVolumeAtBookPrice",
      "inputs": [
        {
          "name": "perpId",
          "type": "uint256",
          "internalType": "uint256"
        },
        {
          "name": "priceONS",
          "type": "uint256",
          "internalType": "uint256"
        }
      ],
      "outputs": [
        {
          "name": "bids",
          "type": "uint256",
          "internalType": "uint256"
        },
        {
          "name": "expBids",
          "type": "uint256",
          "internalType": "uint256"
        },
        {
          "name": "asks",
          "type": "uint256",
          "internalType": "uint256"
        },
        {
          "name": "expAsks",
          "type": "uint256",
          "internalType": "uint256"
        }
      ],
      "stateMutability": "view"
    },
    {
      "type": "function",
      "name": "getWithdrawAllowanceData",
      "inputs": [
        {
          "name": "blockNumber",
          "type": "uint256",
          "internalType": "uint256"
        }
      ],
      "outputs": [
        {
          "name": "allowanceCNS",
          "type": "uint256",
          "internalType": "uint256"
        },
        {
          "name": "expiryBlock",
          "type": "uint256",
          "internalType": "uint256"
        },
        {
          "name": "lastAllowanceBlock",
          "type": "uint256",
          "internalType": "uint256"
        },
        {
          "name": "cnsPerBlock",
          "type": "uint256",
          "internalType": "uint256"
        }
      ],
      "stateMutability": "view"
    },
    {
      "type": "function",
      "name": "increasePositionCollateral",
      "inputs": [
        {
          "name": "perpId",
          "type": "uint256",
          "internalType": "uint256"
        },
        {
          "name": "amountCNS",
          "type": "uint256",
          "internalType": "uint256"
        }
      ],
      "outputs": [],
      "stateMutability": "nonpayable"
    },
    {
      "type": "function",
      "name": "initUnwindContract",
      "inputs": [
        {
          "name": "perpId",
          "type": "uint256",
          "internalType": "uint256"
        },
        {
          "name": "sumPositiveFmvCNS",
          "type": "uint256",
          "internalType": "uint256"
        }
      ],
      "outputs": [],
      "stateMutability": "nonpayable"
    },
    {
      "type": "function",
      "name": "initialize",
      "inputs": [
        {
          "name": "collateralToken",
          "type": "address",
          "internalType": "address"
        }
      ],
      "outputs": [],
      "stateMutability": "nonpayable"
    },
    {
      "type": "function",
      "name": "isAdministrator",
      "inputs": [
        {
          "name": "anAddress",
          "type": "address",
          "internalType": "address"
        }
      ],
      "outputs": [
        {
          "name": "",
          "type": "bool",
          "internalType": "bool"
        }
      ],
      "stateMutability": "view"
    },
    {
      "type": "function",
      "name": "isHalted",
      "inputs": [],
      "outputs": [
        {
          "name": "halted",
          "type": "bool",
          "internalType": "bool"
        }
      ],
      "stateMutability": "view"
    },
    {
      "type": "function",
      "name": "isLiquidationBuyer",
      "inputs": [
        {
          "name": "anAddress",
          "type": "address",
          "internalType": "address"
        }
      ],
      "outputs": [
        {
          "name": "",
          "type": "bool",
          "internalType": "bool"
        }
      ],
      "stateMutability": "view"
    },
    {
      "type": "function",
      "name": "isPositionAdministrator",
      "inputs": [
        {
          "name": "anAddress",
          "type": "address",
          "internalType": "address"
        }
      ],
      "outputs": [
        {
          "name": "",
          "type": "bool",
          "internalType": "bool"
        }
      ],
      "stateMutability": "view"
    },
    {
      "type": "function",
      "name": "isPriceAdministrator",
      "inputs": [
        {
          "name": "anAddress",
          "type": "address",
          "internalType": "address"
        }
      ],
      "outputs": [
        {
          "name": "",
          "type": "bool",
          "internalType": "bool"
        }
      ],
      "stateMutability": "view"
    },
    {
      "type": "function",
      "name": "isToleranceAdministrator",
      "inputs": [
        {
          "name": "anAddress",
          "type": "address",
          "internalType": "address"
        }
      ],
      "outputs": [
        {
          "name": "",
          "type": "bool",
          "internalType": "bool"
        }
      ],
      "stateMutability": "view"
    },
    {
      "type": "function",
      "name": "liquidation",
      "inputs": [
        {
          "name": "liquidationDesc",
          "type": "tuple",
          "internalType": "struct LiquidationDesc",
          "components": [
            {
              "name": "perpId",
              "type": "uint256",
              "internalType": "uint256"
            },
            {
              "name": "posAccountId",
              "type": "uint256",
              "internalType": "uint256"
            },
            {
              "name": "lotLNS",
              "type": "uint256",
              "internalType": "uint256"
            },
            {
              "name": "userProceedsToPosition",
              "type": "bool",
              "internalType": "bool"
            }
          ]
        }
      ],
      "outputs": [],
      "stateMutability": "nonpayable"
    },
    {
      "type": "function",
      "name": "liquidations",
      "inputs": [
        {
          "name": "liquidationDescs",
          "type": "tuple[]",
          "internalType": "struct LiquidationDesc[]",
          "components": [
            {
              "name": "perpId",
              "type": "uint256",
              "internalType": "uint256"
            },
            {
              "name": "posAccountId",
              "type": "uint256",
              "internalType": "uint256"
            },
            {
              "name": "lotLNS",
              "type": "uint256",
              "internalType": "uint256"
            },
            {
              "name": "userProceedsToPosition",
              "type": "bool",
              "internalType": "bool"
            }
          ]
        },
        {
          "name": "revertOnFail",
          "type": "bool",
          "internalType": "bool"
        }
      ],
      "outputs": [],
      "stateMutability": "nonpayable"
    },
    {
      "type": "function",
      "name": "numberOfAccounts",
      "inputs": [],
      "outputs": [
        {
          "name": "numAccounts",
          "type": "uint256",
          "internalType": "uint256"
        }
      ],
      "stateMutability": "view"
    },
    {
      "type": "function",
      "name": "owner",
      "inputs": [],
      "outputs": [
        {
          "name": "",
          "type": "address",
          "internalType": "address"
        }
      ],
      "stateMutability": "view"
    },
    {
      "type": "function",
      "name": "pauseContract",
      "inputs": [
        {
          "name": "perpId",
          "type": "uint256",
          "internalType": "uint256"
        }
      ],
      "outputs": [],
      "stateMutability": "nonpayable"
    },
    {
      "type": "function",
      "name": "pendingOwner",
      "inputs": [],
      "outputs": [
        {
          "name": "",
          "type": "address",
          "internalType": "address"
        }
      ],
      "stateMutability": "view"
    },
    {
      "type": "function",
      "name": "prepareUnwindContract",
      "inputs": [
        {
          "name": "perpId",
          "type": "uint256",
          "internalType": "uint256"
        }
      ],
      "outputs": [],
      "stateMutability": "nonpayable"
    },
    {
      "type": "function",
      "name": "proxiableUUID",
      "inputs": [],
      "outputs": [
        {
          "name": "",
          "type": "bytes32",
          "internalType": "bytes32"
        }
      ],
      "stateMutability": "view"
    },
    {
      "type": "function",
      "name": "removeContract",
      "inputs": [
        {
          "name": "perpId",
          "type": "uint256",
          "internalType": "uint256"
        }
      ],
      "outputs": [],
      "stateMutability": "nonpayable"
    },
    {
      "type": "function",
      "name": "renounceOwnership",
      "inputs": [],
      "outputs": [],
      "stateMutability": "nonpayable"
    },
    {
      "type": "function",
      "name": "requestDecreasePositionCollateral",
      "inputs": [
        {
          "name": "perpId",
          "type": "uint256",
          "internalType": "uint256"
        },
        {
          "name": "amountCNS",
          "type": "uint256",
          "internalType": "uint256"
        },
        {
          "name": "clampToMaximum",
          "type": "bool",
          "internalType": "bool"
        }
      ],
      "outputs": [],
      "stateMutability": "nonpayable"
    },
    {
      "type": "function",
      "name": "setAddressBlockStatus",
      "inputs": [
        {
          "name": "addresses",
          "type": "address[]",
          "internalType": "address[]"
        },
        {
          "name": "blocked",
          "type": "bool",
          "internalType": "bool"
        }
      ],
      "outputs": [],
      "stateMutability": "nonpayable"
    },
    {
      "type": "function",
      "name": "setAddressWhitelisted",
      "inputs": [
        {
          "name": "addresses",
          "type": "address[]",
          "internalType": "address[]"
        },
        {
          "name": "whitelisted_",
          "type": "bool",
          "internalType": "bool"
        }
      ],
      "outputs": [],
      "stateMutability": "nonpayable"
    },
    {
      "type": "function",
      "name": "setAdministrator",
      "inputs": [
        {
          "name": "administrator",
          "type": "address",
          "internalType": "address"
        },
        {
          "name": "add",
          "type": "bool",
          "internalType": "bool"
        }
      ],
      "outputs": [],
      "stateMutability": "nonpayable"
    },
    {
      "type": "function",
      "name": "setBuyToLiquidateBuyerRestriction",
      "inputs": [
        {
          "name": "perpId",
          "type": "uint256",
          "internalType": "uint256"
        },
        {
          "name": "restrictBuyers",
          "type": "bool",
          "internalType": "bool"
        }
      ],
      "outputs": [],
      "stateMutability": "nonpayable"
    },
    {
      "type": "function",
      "name": "setBuyToLiquidateParams",
      "inputs": [
        {
          "name": "perpId",
          "type": "uint256",
          "internalType": "uint256"
        },
        {
          "name": "insAmtPer100K",
          "type": "uint256",
          "internalType": "uint256"
        },
        {
          "name": "userAmtPer100K",
          "type": "uint256",
          "internalType": "uint256"
        },
        {
          "name": "buyerAmtPer100K",
          "type": "uint256",
          "internalType": "uint256"
        }
      ],
      "outputs": [],
      "stateMutability": "nonpayable"
    },
    {
      "type": "function",
      "name": "setBuyToLiquidatePriceThreshold",
      "inputs": [
        {
          "name": "perpId",
          "type": "uint256",
          "internalType": "uint256"
        },
        {
          "name": "thresholdPer100K",
          "type": "uint256",
          "internalType": "uint256"
        }
      ],
      "outputs": [],
      "stateMutability": "nonpayable"
    },
    {
      "type": "function",
      "name": "setContractPaused",
      "inputs": [
        {
          "name": "perpId",
          "type": "uint256",
          "internalType": "uint256"
        },
        {
          "name": "paused",
          "type": "bool",
          "internalType": "bool"
        }
      ],
      "outputs": [],
      "stateMutability": "nonpayable"
    },
    {
      "type": "function",
      "name": "setDcpBorrowThreshold",
      "inputs": [
        {
          "name": "perpId",
          "type": "uint256",
          "internalType": "uint256"
        },
        {
          "name": "threshHdths",
          "type": "uint256",
          "internalType": "uint256"
        }
      ],
      "outputs": [],
      "stateMutability": "nonpayable"
    },
    {
      "type": "function",
      "name": "setExchangeHalted",
      "inputs": [
        {
          "name": "halted",
          "type": "bool",
          "internalType": "bool"
        }
      ],
      "outputs": [],
      "stateMutability": "nonpayable"
    },
    {
      "type": "function",
      "name": "setFeeParams",
      "inputs": [
        {
          "name": "perpId",
          "type": "uint256",
          "internalType": "uint256"
        },
        {
          "name": "insAmtPer100K",
          "type": "uint256",
          "internalType": "uint256"
        }
      ],
      "outputs": [],
      "stateMutability": "nonpayable"
    },
    {
      "type": "function",
      "name": "setFreezeStatus",
      "inputs": [
        {
          "name": "account",
          "type": "address",
          "internalType": "address"
        },
        {
          "name": "status",
          "type": "uint8",
          "internalType": "enum FreezeStatusEnum"
        }
      ],
      "outputs": [],
      "stateMutability": "nonpayable"
    },
    {
      "type": "function",
      "name": "setFrozen",
      "inputs": [
        {
          "name": "account",
          "type": "address",
          "internalType": "address"
        },
        {
          "name": "status",
          "type": "uint8",
          "internalType": "enum FreezeStatusEnum"
        }
      ],
      "outputs": [],
      "stateMutability": "nonpayable"
    },
    {
      "type": "function",
      "name": "setFundingClampPct",
      "inputs": [
        {
          "name": "perpId",
          "type": "uint256",
          "internalType": "uint256"
        },
        {
          "name": "absFundingClampPctPer100K",
          "type": "uint256",
          "internalType": "uint256"
        }
      ],
      "outputs": [],
      "stateMutability": "nonpayable"
    },
    {
      "type": "function",
      "name": "setFundingSum",
      "inputs": [
        {
          "name": "perpId",
          "type": "uint256",
          "internalType": "uint256"
        },
        {
          "name": "fundingRatePct100k",
          "type": "int256",
          "internalType": "int256"
        },
        {
          "name": "pricePNS",
          "type": "uint32",
          "internalType": "uint32"
        },
        {
          "name": "allowOverwrite",
          "type": "bool",
          "internalType": "bool"
        },
        {
          "name": "revertOnFail",
          "type": "bool",
          "internalType": "bool"
        }
      ],
      "outputs": [],
      "stateMutability": "nonpayable"
    },
    {
      "type": "function",
      "name": "setIgnOracle",
      "inputs": [
        {
          "name": "perpId",
          "type": "uint256",
          "internalType": "uint256"
        },
        {
          "name": "ignOracle",
          "type": "bool",
          "internalType": "bool"
        }
      ],
      "outputs": [],
      "stateMutability": "nonpayable"
    },
    {
      "type": "function",
      "name": "setInitialMarginFraction",
      "inputs": [
        {
          "name": "perpId",
          "type": "uint256",
          "internalType": "uint256"
        },
        {
          "name": "initMarginFracHdths",
          "type": "uint256",
          "internalType": "uint256"
        }
      ],
      "outputs": [],
      "stateMutability": "nonpayable"
    },
    {
      "type": "function",
      "name": "setLastForwardedDescId",
      "inputs": [
        {
          "name": "accountId",
          "type": "uint256",
          "internalType": "uint256"
        },
        {
          "name": "newDescId",
          "type": "uint256",
          "internalType": "uint256"
        }
      ],
      "outputs": [],
      "stateMutability": "nonpayable"
    },
    {
      "type": "function",
      "name": "setLastForwardedDescIdAsOwner",
      "inputs": [
        {
          "name": "accountId",
          "type": "uint256",
          "internalType": "uint256"
        },
        {
          "name": "newDescId",
          "type": "uint256",
          "internalType": "uint256"
        }
      ],
      "outputs": [],
      "stateMutability": "nonpayable"
    },
    {
      "type": "function",
      "name": "setLinkDsVerifier",
      "inputs": [
        {
          "name": "verifierProxy",
          "type": "address",
          "internalType": "address"
        }
      ],
      "outputs": [],
      "stateMutability": "nonpayable"
    },
    {
      "type": "function",
      "name": "setLiquidationBuyer",
      "inputs": [
        {
          "name": "liquidationBuyer",
          "type": "address",
          "internalType": "address"
        },
        {
          "name": "add",
          "type": "bool",
          "internalType": "bool"
        }
      ],
      "outputs": [],
      "stateMutability": "nonpayable"
    },
    {
      "type": "function",
      "name": "setLiquidationParams",
      "inputs": [
        {
          "name": "perpId",
          "type": "uint256",
          "internalType": "uint256"
        },
        {
          "name": "insAmtPer100K",
          "type": "uint256",
          "internalType": "uint256"
        },
        {
          "name": "userAmtPer100K",
          "type": "uint256",
          "internalType": "uint256"
        }
      ],
      "outputs": [],
      "stateMutability": "nonpayable"
    },
    {
      "type": "function",
      "name": "setMaintenanceMarginFraction",
      "inputs": [
        {
          "name": "perpId",
          "type": "uint256",
          "internalType": "uint256"
        },
        {
          "name": "maintMarginFracHdths",
          "type": "uint256",
          "internalType": "uint256"
        }
      ],
      "outputs": [],
      "stateMutability": "nonpayable"
    },
    {
      "type": "function",
      "name": "setMakerFee",
      "inputs": [
        {
          "name": "perpId",
          "type": "uint256",
          "internalType": "uint256"
        },
        {
          "name": "makerFeePer100K",
          "type": "uint256",
          "internalType": "uint256"
        }
      ],
      "outputs": [],
      "stateMutability": "nonpayable"
    },
    {
      "type": "function",
      "name": "setMarginTol",
      "inputs": [
        {
          "name": "perpId",
          "type": "uint256",
          "internalType": "uint256"
        },
        {
          "name": "tolerance",
          "type": "uint256",
          "internalType": "uint256"
        },
        {
          "name": "decimals",
          "type": "uint256",
          "internalType": "uint256"
        }
      ],
      "outputs": [],
      "stateMutability": "nonpayable"
    },
    {
      "type": "function",
      "name": "setMaxOpenInterest",
      "inputs": [
        {
          "name": "perpId",
          "type": "uint256",
          "internalType": "uint256"
        },
        {
          "name": "maxOpenInterestLNS",
          "type": "uint256",
          "internalType": "uint256"
        }
      ],
      "outputs": [],
      "stateMutability": "nonpayable"
    },
    {
      "type": "function",
      "name": "setMinAccountOpenAmount",
      "inputs": [
        {
          "name": "amountCNS",
          "type": "uint256",
          "internalType": "uint256"
        }
      ],
      "outputs": [],
      "stateMutability": "nonpayable"
    },
    {
      "type": "function",
      "name": "setMinPost",
      "inputs": [
        {
          "name": "minPostCNS",
          "type": "uint256",
          "internalType": "uint256"
        }
      ],
      "outputs": [],
      "stateMutability": "nonpayable"
    },
    {
      "type": "function",
      "name": "setMinSettle",
      "inputs": [
        {
          "name": "minSettleCNS",
          "type": "uint256",
          "internalType": "uint256"
        }
      ],
      "outputs": [],
      "stateMutability": "nonpayable"
    },
    {
      "type": "function",
      "name": "setMinWithdrawLimit",
      "inputs": [
        {
          "name": "limitCNS",
          "type": "uint256",
          "internalType": "uint256"
        }
      ],
      "outputs": [],
      "stateMutability": "nonpayable"
    },
    {
      "type": "function",
      "name": "setOverCollatDescentThreshold",
      "inputs": [
        {
          "name": "perpId",
          "type": "uint256",
          "internalType": "uint256"
        },
        {
          "name": "threshHdths",
          "type": "uint256",
          "internalType": "uint256"
        }
      ],
      "outputs": [],
      "stateMutability": "nonpayable"
    },
    {
      "type": "function",
      "name": "setPermissionedCancelParams",
      "inputs": [
        {
          "name": "perpId",
          "type": "uint256",
          "internalType": "uint256"
        },
        {
          "name": "permCancelMinOrders",
          "type": "uint256",
          "internalType": "uint256"
        },
        {
          "name": "permCancelSegment",
          "type": "uint256",
          "internalType": "uint256"
        }
      ],
      "outputs": [],
      "stateMutability": "nonpayable"
    },
    {
      "type": "function",
      "name": "setPerpLinkDsFeedId",
      "inputs": [
        {
          "name": "perpId",
          "type": "uint256",
          "internalType": "uint256"
        },
        {
          "name": "feedId",
          "type": "bytes32",
          "internalType": "bytes32"
        }
      ],
      "outputs": [],
      "stateMutability": "nonpayable"
    },
    {
      "type": "function",
      "name": "setPositionAdministrator",
      "inputs": [
        {
          "name": "positionAdministrator",
          "type": "address",
          "internalType": "address"
        },
        {
          "name": "add",
          "type": "bool",
          "internalType": "bool"
        }
      ],
      "outputs": [],
      "stateMutability": "nonpayable"
    },
    {
      "type": "function",
      "name": "setPriceAdministrator",
      "inputs": [
        {
          "name": "priceAdministrator",
          "type": "address",
          "internalType": "address"
        },
        {
          "name": "add",
          "type": "bool",
          "internalType": "bool"
        }
      ],
      "outputs": [],
      "stateMutability": "nonpayable"
    },
    {
      "type": "function",
      "name": "setPriceMaxAge",
      "inputs": [
        {
          "name": "perpId",
          "type": "uint256",
          "internalType": "uint256"
        },
        {
          "name": "maxAgeSec",
          "type": "uint256",
          "internalType": "uint256"
        }
      ],
      "outputs": [],
      "stateMutability": "nonpayable"
    },
    {
      "type": "function",
      "name": "setPriceTolPer100K",
      "inputs": [
        {
          "name": "perpId",
          "type": "uint256",
          "internalType": "uint256"
        },
        {
          "name": "tolerancePer100K",
          "type": "uint256",
          "internalType": "uint256"
        }
      ],
      "outputs": [],
      "stateMutability": "nonpayable"
    },
    {
      "type": "function",
      "name": "setPriceTolPer100KByOwner",
      "inputs": [
        {
          "name": "perpId",
          "type": "uint256",
          "internalType": "uint256"
        },
        {
          "name": "tolerancePer100K",
          "type": "uint256",
          "internalType": "uint256"
        }
      ],
      "outputs": [],
      "stateMutability": "nonpayable"
    },
    {
      "type": "function",
      "name": "setRecycleFee",
      "inputs": [
        {
          "name": "recycleFeeCNS",
          "type": "uint256",
          "internalType": "uint256"
        }
      ],
      "outputs": [],
      "stateMutability": "nonpayable"
    },
    {
      "type": "function",
      "name": "setTakerFee",
      "inputs": [
        {
          "name": "perpId",
          "type": "uint256",
          "internalType": "uint256"
        },
        {
          "name": "takerFeePer100K",
          "type": "uint256",
          "internalType": "uint256"
        }
      ],
      "outputs": [],
      "stateMutability": "nonpayable"
    },
    {
      "type": "function",
      "name": "setThousandthsTvlWRLS",
      "inputs": [
        {
          "name": "thousandthsTvl",
          "type": "uint256",
          "internalType": "uint256"
        }
      ],
      "outputs": [],
      "stateMutability": "nonpayable"
    },
    {
      "type": "function",
      "name": "setToleranceAdministrator",
      "inputs": [
        {
          "name": "toleranceAdministrator",
          "type": "address",
          "internalType": "address"
        },
        {
          "name": "add",
          "type": "bool",
          "internalType": "bool"
        }
      ],
      "outputs": [],
      "stateMutability": "nonpayable"
    },
    {
      "type": "function",
      "name": "setUnityDescentThreshold",
      "inputs": [
        {
          "name": "perpId",
          "type": "uint256",
          "internalType": "uint256"
        },
        {
          "name": "threshHdths",
          "type": "uint256",
          "internalType": "uint256"
        }
      ],
      "outputs": [],
      "stateMutability": "nonpayable"
    },
    {
      "type": "function",
      "name": "setWhitelistingEnabled",
      "inputs": [
        {
          "name": "enabled",
          "type": "bool",
          "internalType": "bool"
        }
      ],
      "outputs": [],
      "stateMutability": "nonpayable"
    },
    {
      "type": "function",
      "name": "setWithdrawBypass",
      "inputs": [
        {
          "name": "addr",
          "type": "address",
          "internalType": "address"
        },
        {
          "name": "enabled",
          "type": "bool",
          "internalType": "bool"
        }
      ],
      "outputs": [],
      "stateMutability": "nonpayable"
    },
    {
      "type": "function",
      "name": "transferOwnership",
      "inputs": [
        {
          "name": "newOwner",
          "type": "address",
          "internalType": "address"
        }
      ],
      "outputs": [],
      "stateMutability": "nonpayable"
    },
    {
      "type": "function",
      "name": "triggerUnwindContract",
      "inputs": [
        {
          "name": "perpId",
          "type": "uint256",
          "internalType": "uint256"
        }
      ],
      "outputs": [],
      "stateMutability": "nonpayable"
    },
    {
      "type": "function",
      "name": "unwindContract",
      "inputs": [
        {
          "name": "perpId",
          "type": "uint256",
          "internalType": "uint256"
        },
        {
          "name": "maxPosToUnwind",
          "type": "uint256",
          "internalType": "uint256"
        },
        {
          "name": "allowWithoutPayment",
          "type": "bool",
          "internalType": "bool"
        }
      ],
      "outputs": [],
      "stateMutability": "nonpayable"
    },
    {
      "type": "function",
      "name": "unwindContractByOwner",
      "inputs": [
        {
          "name": "perpId",
          "type": "uint256",
          "internalType": "uint256"
        },
        {
          "name": "maxPosToUnwind",
          "type": "uint256",
          "internalType": "uint256"
        },
        {
          "name": "allowWithoutPayment",
          "type": "bool",
          "internalType": "bool"
        }
      ],
      "outputs": [],
      "stateMutability": "nonpayable"
    },
    {
      "type": "function",
      "name": "updateMarkPricePNS",
      "inputs": [
        {
          "name": "perpId",
          "type": "uint256",
          "internalType": "uint256"
        },
        {
          "name": "markPricePNS",
          "type": "uint32",
          "internalType": "uint32"
        }
      ],
      "outputs": [],
      "stateMutability": "nonpayable"
    },
    {
      "type": "function",
      "name": "updateMarkPricePNSByOwner",
      "inputs": [
        {
          "name": "perpId",
          "type": "uint256",
          "internalType": "uint256"
        },
        {
          "name": "markPricePNS",
          "type": "uint32",
          "internalType": "uint32"
        }
      ],
      "outputs": [],
      "stateMutability": "nonpayable"
    },
    {
      "type": "function",
      "name": "updateOraclePrice",
      "inputs": [
        {
          "name": "perpId",
          "type": "uint256",
          "internalType": "uint256"
        },
        {
          "name": "unverifiedReport",
          "type": "bytes",
          "internalType": "bytes"
        }
      ],
      "outputs": [],
      "stateMutability": "nonpayable"
    },
    {
      "type": "function",
      "name": "upgradeTo",
      "inputs": [
        {
          "name": "newImplementation",
          "type": "address",
          "internalType": "address"
        }
      ],
      "outputs": [],
      "stateMutability": "nonpayable"
    },
    {
      "type": "function",
      "name": "upgradeToAndCall",
      "inputs": [
        {
          "name": "newImplementation",
          "type": "address",
          "internalType": "address"
        },
        {
          "name": "data",
          "type": "bytes",
          "internalType": "bytes"
        }
      ],
      "outputs": [],
      "stateMutability": "payable"
    },
    {
      "type": "function",
      "name": "whitelisted",
      "inputs": [
        {
          "name": "",
          "type": "address",
          "internalType": "address"
        }
      ],
      "outputs": [
        {
          "name": "",
          "type": "bool",
          "internalType": "bool"
        }
      ],
      "stateMutability": "view"
    },
    {
      "type": "function",
      "name": "whitelistingEnabled",
      "inputs": [],
      "outputs": [
        {
          "name": "",
          "type": "bool",
          "internalType": "bool"
        }
      ],
      "stateMutability": "view"
    },
    {
      "type": "function",
      "name": "withdrawCollateral",
      "inputs": [
        {
          "name": "amountCNS",
          "type": "uint256",
          "internalType": "uint256"
        }
      ],
      "outputs": [],
      "stateMutability": "nonpayable"
    },
    {
      "type": "function",
      "name": "withdrawFromProtocol",
      "inputs": [
        {
          "name": "amountCNS",
          "type": "uint256",
          "internalType": "uint256"
        }
      ],
      "outputs": [],
      "stateMutability": "nonpayable"
    },
    {
      "type": "function",
      "name": "xferAcctToProtocol",
      "inputs": [
        {
          "name": "amountCNS",
          "type": "uint256",
          "internalType": "uint256"
        }
      ],
      "outputs": [],
      "stateMutability": "nonpayable"
    },
    {
      "type": "function",
      "name": "xferPerpInsToProtocol",
      "inputs": [
        {
          "name": "perpId",
          "type": "uint256",
          "internalType": "uint256"
        },
        {
          "name": "amountCNS",
          "type": "uint256",
          "internalType": "uint256"
        }
      ],
      "outputs": [],
      "stateMutability": "nonpayable"
    },
    {
      "type": "function",
      "name": "xferProtocolToAcct",
      "inputs": [
        {
          "name": "accountId",
          "type": "uint256",
          "internalType": "uint256"
        },
        {
          "name": "amountCNS",
          "type": "uint256",
          "internalType": "uint256"
        }
      ],
      "outputs": [],
      "stateMutability": "nonpayable"
    },
    {
      "type": "function",
      "name": "xferProtocolToPerp",
      "inputs": [
        {
          "name": "perpId",
          "type": "uint256",
          "internalType": "uint256"
        },
        {
          "name": "amountCNS",
          "type": "uint256",
          "internalType": "uint256"
        },
        {
          "name": "insurance",
          "type": "bool",
          "internalType": "bool"
        }
      ],
      "outputs": [],
      "stateMutability": "nonpayable"
    },
    {
      "type": "function",
      "name": "xferProtocolToRecycleBal",
      "inputs": [
        {
          "name": "amountCNS",
          "type": "uint256",
          "internalType": "uint256"
        }
      ],
      "outputs": [],
      "stateMutability": "nonpayable"
    },
    {
      "type": "event",
      "name": "AccountCreated",
      "inputs": [
        {
          "name": "account",
          "type": "address",
          "indexed": false,
          "internalType": "address"
        },
        {
          "name": "id",
          "type": "uint256",
          "indexed": false,
          "internalType": "uint256"
        }
      ],
      "anonymous": false
    },
    {
      "type": "event",
      "name": "AccountFreeze",
      "inputs": [
        {
          "name": "accountId",
          "type": "uint256",
          "indexed": false,
          "internalType": "uint256"
        },
        {
          "name": "status",
          "type": "uint8",
          "indexed": false,
          "internalType": "enum FreezeStatusEnum"
        }
      ],
      "anonymous": false
    },
    {
      "type": "event",
      "name": "AccountFrozen",
      "inputs": [
        {
          "name": "status",
          "type": "uint8",
          "indexed": false,
          "internalType": "enum FreezeStatusEnum"
        }
      ],
      "anonymous": false
    },
    {
      "type": "event",
      "name": "AccountLiquidationCredit",
      "inputs": [
        {
          "name": "perpId",
          "type": "uint256",
          "indexed": false,
          "internalType": "uint256"
        },
        {
          "name": "accountId",
          "type": "uint256",
          "indexed": false,
          "internalType": "uint256"
        },
        {
          "name": "startBalanceCNS",
          "type": "uint256",
          "indexed": false,
          "internalType": "uint256"
        },
        {
          "name": "endBalanceCNS",
          "type": "uint256",
          "indexed": false,
          "internalType": "uint256"
        }
      ],
      "anonymous": false
    },
    {
      "type": "event",
      "name": "AdminChanged",
      "inputs": [
        {
          "name": "previousAdmin",
          "type": "address",
          "indexed": false,
          "internalType": "address"
        },
        {
          "name": "newAdmin",
          "type": "address",
          "indexed": false,
          "internalType": "address"
        }
      ],
      "anonymous": false
    },
    {
      "type": "event",
      "name": "AdministratorUpdated",
      "inputs": [
        {
          "name": "administrator",
          "type": "address",
          "indexed": false,
          "internalType": "address"
        },
        {
          "name": "added",
          "type": "bool",
          "indexed": false,
          "internalType": "bool"
        }
      ],
      "anonymous": false
    },
    {
      "type": "event",
      "name": "AmountExceedsAvailableBalance",
      "inputs": [
        {
          "name": "amountCNS",
          "type": "uint256",
          "indexed": false,
          "internalType": "uint256"
        },
        {
          "name": "availableBalanceCNS",
          "type": "uint256",
          "indexed": false,
          "internalType": "uint256"
        },
        {
          "name": "balanceCNS",
          "type": "uint256",
          "indexed": false,
          "internalType": "uint256"
        }
      ],
      "anonymous": false
    },
    {
      "type": "event",
      "name": "BankruptcyPricePreventsDeleverage",
      "inputs": [
        {
          "name": "perpId",
          "type": "uint256",
          "indexed": false,
          "internalType": "uint256"
        },
        {
          "name": "accountId",
          "type": "uint256",
          "indexed": false,
          "internalType": "uint256"
        },
        {
          "name": "positionType",
          "type": "uint8",
          "indexed": false,
          "internalType": "enum PositionEnum"
        },
        {
          "name": "bankruptcyPricePNS",
          "type": "uint256",
          "indexed": false,
          "internalType": "uint256"
        },
        {
          "name": "markPricePNS",
          "type": "uint256",
          "indexed": false,
          "internalType": "uint256"
        }
      ],
      "anonymous": false
    },
    {
      "type": "event",
      "name": "BeaconUpgraded",
      "inputs": [
        {
          "name": "beacon",
          "type": "address",
          "indexed": true,
          "internalType": "address"
        }
      ],
      "anonymous": false
    },
    {
      "type": "event",
      "name": "BlockStatusChanged",
      "inputs": [
        {
          "name": "addr",
          "type": "address",
          "indexed": true,
          "internalType": "address"
        },
        {
          "name": "blocked",
          "type": "bool",
          "indexed": false,
          "internalType": "bool"
        }
      ],
      "anonymous": false
    },
    {
      "type": "event",
      "name": "BorrowMarginNotMetAfterDecCollateral",
      "inputs": [
        {
          "name": "perpId",
          "type": "uint256",
          "indexed": false,
          "internalType": "uint256"
        },
        {
          "name": "accountId",
          "type": "uint256",
          "indexed": false,
          "internalType": "uint256"
        },
        {
          "name": "bmrCNS",
          "type": "int256",
          "indexed": false,
          "internalType": "int256"
        },
        {
          "name": "fmvAfterCNS",
          "type": "int256",
          "indexed": false,
          "internalType": "int256"
        }
      ],
      "anonymous": false
    },
    {
      "type": "event",
      "name": "BuyToLiquidateBuyerRestricted",
      "inputs": [
        {
          "name": "perpId",
          "type": "uint256",
          "indexed": false,
          "internalType": "uint256"
        },
        {
          "name": "buyer",
          "type": "address",
          "indexed": false,
          "internalType": "address"
        }
      ],
      "anonymous": false
    },
    {
      "type": "event",
      "name": "BuyToLiquidateParamsUpdated",
      "inputs": [
        {
          "name": "perpId",
          "type": "uint256",
          "indexed": false,
          "internalType": "uint256"
        },
        {
          "name": "insAmtPer100K",
          "type": "uint256",
          "indexed": false,
          "internalType": "uint256"
        },
        {
          "name": "userAmtPer100K",
          "type": "uint256",
          "indexed": false,
          "internalType": "uint256"
        },
        {
          "name": "buyerAmtPer100K",
          "type": "uint256",
          "indexed": false,
          "internalType": "uint256"
        },
        {
          "name": "protAmtPer100K",
          "type": "uint256",
          "indexed": false,
          "internalType": "uint256"
        }
      ],
      "anonymous": false
    },
    {
      "type": "event",
      "name": "BuyToLiquidateRestrictionUpdated",
      "inputs": [
        {
          "name": "perpId",
          "type": "uint256",
          "indexed": false,
          "internalType": "uint256"
        },
        {
          "name": "restrictBuyers",
          "type": "bool",
          "indexed": false,
          "internalType": "bool"
        }
      ],
      "anonymous": false
    },
    {
      "type": "event",
      "name": "BuyToLiquidateSlippageExceeded",
      "inputs": [
        {
          "name": "perpId",
          "type": "uint256",
          "indexed": false,
          "internalType": "uint256"
        },
        {
          "name": "posAccountId",
          "type": "uint256",
          "indexed": false,
          "internalType": "uint256"
        },
        {
          "name": "positionType",
          "type": "uint8",
          "indexed": false,
          "internalType": "enum PositionEnum"
        },
        {
          "name": "markPricePNS",
          "type": "uint256",
          "indexed": false,
          "internalType": "uint256"
        },
        {
          "name": "limitPricePNS",
          "type": "uint256",
          "indexed": false,
          "internalType": "uint256"
        }
      ],
      "anonymous": false
    },
    {
      "type": "event",
      "name": "BuyToLiquidateThresholdUpdated",
      "inputs": [
        {
          "name": "perpId",
          "type": "uint256",
          "indexed": false,
          "internalType": "uint256"
        },
        {
          "name": "thresholdPer100K",
          "type": "uint256",
          "indexed": false,
          "internalType": "uint256"
        }
      ],
      "anonymous": false
    },
    {
      "type": "event",
      "name": "CancelExistingInvalidCloseOrders",
      "inputs": [
        {
          "name": "lockedLotLNS",
          "type": "uint256",
          "indexed": false,
          "internalType": "uint256"
        },
        {
          "name": "lockedPositionType",
          "type": "uint8",
          "indexed": false,
          "internalType": "enum PositionEnum"
        },
        {
          "name": "newPositionType",
          "type": "uint8",
          "indexed": false,
          "internalType": "enum PositionEnum"
        }
      ],
      "anonymous": false
    },
    {
      "type": "event",
      "name": "CannotAdjustEntryPriceToDecCollateral",
      "inputs": [
        {
          "name": "perpId",
          "type": "uint256",
          "indexed": false,
          "internalType": "uint256"
        },
        {
          "name": "accountId",
          "type": "uint256",
          "indexed": false,
          "internalType": "uint256"
        },
        {
          "name": "amountCNS",
          "type": "uint256",
          "indexed": false,
          "internalType": "uint256"
        },
        {
          "name": "adjustmentAmountCNS",
          "type": "uint256",
          "indexed": false,
          "internalType": "uint256"
        },
        {
          "name": "entryPricePNS",
          "type": "uint256",
          "indexed": false,
          "internalType": "uint256"
        },
        {
          "name": "adjustedEntryPricePNS",
          "type": "int256",
          "indexed": false,
          "internalType": "int256"
        },
        {
          "name": "positionType",
          "type": "uint8",
          "indexed": false,
          "internalType": "enum PositionEnum"
        }
      ],
      "anonymous": false
    },
    {
      "type": "event",
      "name": "CantBuyToLiquidate",
      "inputs": [
        {
          "name": "perpId",
          "type": "uint256",
          "indexed": false,
          "internalType": "uint256"
        },
        {
          "name": "posAccountId",
          "type": "uint256",
          "indexed": false,
          "internalType": "uint256"
        },
        {
          "name": "positionType",
          "type": "uint8",
          "indexed": false,
          "internalType": "enum PositionEnum"
        },
        {
          "name": "markPricePNS",
          "type": "uint256",
          "indexed": false,
          "internalType": "uint256"
        },
        {
          "name": "bsLiqPricePNS",
          "type": "uint256",
          "indexed": false,
          "internalType": "uint256"
        },
        {
          "name": "liqPricePNS",
          "type": "uint256",
          "indexed": false,
          "internalType": "uint256"
        },
        {
          "name": "bkptPricePNS",
          "type": "uint256",
          "indexed": false,
          "internalType": "uint256"
        }
      ],
      "anonymous": false
    },
    {
      "type": "event",
      "name": "CantChangeCloseOrder",
      "inputs": [
        {
          "name": "perpId",
          "type": "uint256",
          "indexed": false,
          "internalType": "uint256"
        },
        {
          "name": "orderId",
          "type": "uint256",
          "indexed": false,
          "internalType": "uint256"
        },
        {
          "name": "accountId",
          "type": "uint256",
          "indexed": false,
          "internalType": "uint256"
        }
      ],
      "anonymous": false
    },
    {
      "type": "event",
      "name": "CantDeleverageAgainstOpposingPositions",
      "inputs": [
        {
          "name": "perpId",
          "type": "uint256",
          "indexed": false,
          "internalType": "uint256"
        },
        {
          "name": "accountId",
          "type": "uint256",
          "indexed": false,
          "internalType": "uint256"
        },
        {
          "name": "forceClose",
          "type": "bool",
          "indexed": false,
          "internalType": "bool"
        },
        {
          "name": "positionType",
          "type": "uint8",
          "indexed": false,
          "internalType": "enum PositionEnum"
        },
        {
          "name": "deleveragePricePNS",
          "type": "uint256",
          "indexed": false,
          "internalType": "uint256"
        },
        {
          "name": "sortedPositionIds",
          "type": "uint256[]",
          "indexed": false,
          "internalType": "uint256[]"
        }
      ],
      "anonymous": false
    },
    {
      "type": "event",
      "name": "CantLiquidatePosAboveMMR",
      "inputs": [
        {
          "name": "perpId",
          "type": "uint256",
          "indexed": false,
          "internalType": "uint256"
        },
        {
          "name": "posAccountId",
          "type": "uint256",
          "indexed": false,
          "internalType": "uint256"
        },
        {
          "name": "positionType",
          "type": "uint8",
          "indexed": false,
          "internalType": "enum PositionEnum"
        },
        {
          "name": "markPricePNS",
          "type": "uint256",
          "indexed": false,
          "internalType": "uint256"
        },
        {
          "name": "liqPricePNS",
          "type": "uint256",
          "indexed": false,
          "internalType": "uint256"
        }
      ],
      "anonymous": false
    },
    {
      "type": "event",
      "name": "ChangeExpiredOrderNeedsNewExpiry",
      "inputs": [
        {
          "name": "perpId",
          "type": "uint256",
          "indexed": false,
          "internalType": "uint256"
        },
        {
          "name": "orderId",
          "type": "uint256",
          "indexed": false,
          "internalType": "uint256"
        },
        {
          "name": "accountId",
          "type": "uint256",
          "indexed": false,
          "internalType": "uint256"
        },
        {
          "name": "expiryBlock",
          "type": "uint256",
          "indexed": false,
          "internalType": "uint256"
        }
      ],
      "anonymous": false
    },
    {
      "type": "event",
      "name": "ClearingExpiredOrder",
      "inputs": [
        {
          "name": "perpId",
          "type": "uint256",
          "indexed": false,
          "internalType": "uint256"
        },
        {
          "name": "accountId",
          "type": "uint256",
          "indexed": false,
          "internalType": "uint256"
        },
        {
          "name": "orderId",
          "type": "uint256",
          "indexed": false,
          "internalType": "uint256"
        },
        {
          "name": "lockedBalanceCNS",
          "type": "uint256",
          "indexed": false,
          "internalType": "uint256"
        },
        {
          "name": "recyclerAccountId",
          "type": "uint256",
          "indexed": false,
          "internalType": "uint256"
        },
        {
          "name": "recyclerAmountCNS",
          "type": "int256",
          "indexed": false,
          "internalType": "int256"
        },
        {
          "name": "recyclerBalanceCNS",
          "type": "uint256",
          "indexed": false,
          "internalType": "uint256"
        }
      ],
      "anonymous": false
    },
    {
      "type": "event",
      "name": "ClearingFrozenAccountOrder",
      "inputs": [
        {
          "name": "perpId",
          "type": "uint256",
          "indexed": false,
          "internalType": "uint256"
        },
        {
          "name": "accountId",
          "type": "uint256",
          "indexed": false,
          "internalType": "uint256"
        },
        {
          "name": "orderId",
          "type": "uint256",
          "indexed": false,
          "internalType": "uint256"
        },
        {
          "name": "lockedBalanceCNS",
          "type": "uint256",
          "indexed": false,
          "internalType": "uint256"
        },
        {
          "name": "recyclerAccountId",
          "type": "uint256",
          "indexed": false,
          "internalType": "uint256"
        },
        {
          "name": "recyclerAmountCNS",
          "type": "int256",
          "indexed": false,
          "internalType": "int256"
        },
        {
          "name": "recyclerBalanceCNS",
          "type": "uint256",
          "indexed": false,
          "internalType": "uint256"
        }
      ],
      "anonymous": false
    },
    {
      "type": "event",
      "name": "ClearingInvalidCloseOrder",
      "inputs": [
        {
          "name": "perpId",
          "type": "uint256",
          "indexed": false,
          "internalType": "uint256"
        },
        {
          "name": "accountId",
          "type": "uint256",
          "indexed": false,
          "internalType": "uint256"
        },
        {
          "name": "orderId",
          "type": "uint256",
          "indexed": false,
          "internalType": "uint256"
        },
        {
          "name": "lockedBalanceCNS",
          "type": "uint256",
          "indexed": false,
          "internalType": "uint256"
        },
        {
          "name": "recyclerAccountId",
          "type": "uint256",
          "indexed": false,
          "internalType": "uint256"
        },
        {
          "name": "recyclerAmountCNS",
          "type": "int256",
          "indexed": false,
          "internalType": "int256"
        },
        {
          "name": "recyclerBalanceCNS",
          "type": "uint256",
          "indexed": false,
          "internalType": "uint256"
        }
      ],
      "anonymous": false
    },
    {
      "type": "event",
      "name": "ClearingSelfMatchingOrder",
      "inputs": [
        {
          "name": "perpId",
          "type": "uint256",
          "indexed": false,
          "internalType": "uint256"
        },
        {
          "name": "accountId",
          "type": "uint256",
          "indexed": false,
          "internalType": "uint256"
        },
        {
          "name": "orderId",
          "type": "uint256",
          "indexed": false,
          "internalType": "uint256"
        },
        {
          "name": "lockedBalanceCNS",
          "type": "uint256",
          "indexed": false,
          "internalType": "uint256"
        },
        {
          "name": "recyclerAccountId",
          "type": "uint256",
          "indexed": false,
          "internalType": "uint256"
        },
        {
          "name": "recyclerAmountCNS",
          "type": "int256",
          "indexed": false,
          "internalType": "int256"
        },
        {
          "name": "recyclerBalanceCNS",
          "type": "uint256",
          "indexed": false,
          "internalType": "uint256"
        }
      ],
      "anonymous": false
    },
    {
      "type": "event",
      "name": "CloseOrderExceedsPosition",
      "inputs": [
        {
          "name": "posLotLNS",
          "type": "uint256",
          "indexed": false,
          "internalType": "uint256"
        },
        {
          "name": "orderLotLNS",
          "type": "uint256",
          "indexed": false,
          "internalType": "uint256"
        }
      ],
      "anonymous": false
    },
    {
      "type": "event",
      "name": "CloseOrderPositionMismatch",
      "inputs": [
        {
          "name": "positionType",
          "type": "uint8",
          "indexed": false,
          "internalType": "enum PositionEnum"
        },
        {
          "name": "orderType",
          "type": "uint8",
          "indexed": false,
          "internalType": "enum OrderEnum"
        }
      ],
      "anonymous": false
    },
    {
      "type": "event",
      "name": "CollateralDecreaseDeclined",
      "inputs": [
        {
          "name": "perpId",
          "type": "uint256",
          "indexed": false,
          "internalType": "uint256"
        },
        {
          "name": "accountId",
          "type": "uint256",
          "indexed": false,
          "internalType": "uint256"
        },
        {
          "name": "reason",
          "type": "string",
          "indexed": false,
          "internalType": "string"
        }
      ],
      "anonymous": false
    },
    {
      "type": "event",
      "name": "CollateralDecreaseRequestCancelled",
      "inputs": [
        {
          "name": "perpId",
          "type": "uint256",
          "indexed": false,
          "internalType": "uint256"
        },
        {
          "name": "accountId",
          "type": "uint256",
          "indexed": false,
          "internalType": "uint256"
        }
      ],
      "anonymous": false
    },
    {
      "type": "event",
      "name": "CollateralDecreaseRequestExpired",
      "inputs": [
        {
          "name": "perpId",
          "type": "uint256",
          "indexed": false,
          "internalType": "uint256"
        },
        {
          "name": "accountId",
          "type": "uint256",
          "indexed": false,
          "internalType": "uint256"
        },
        {
          "name": "expiryTS",
          "type": "uint256",
          "indexed": false,
          "internalType": "uint256"
        },
        {
          "name": "blockTS",
          "type": "uint256",
          "indexed": false,
          "internalType": "uint256"
        }
      ],
      "anonymous": false
    },
    {
      "type": "event",
      "name": "CollateralDecreaseRequested",
      "inputs": [
        {
          "name": "perpId",
          "type": "uint256",
          "indexed": false,
          "internalType": "uint256"
        },
        {
          "name": "accountId",
          "type": "uint256",
          "indexed": false,
          "internalType": "uint256"
        },
        {
          "name": "expiryTS",
          "type": "uint256",
          "indexed": false,
          "internalType": "uint256"
        },
        {
          "name": "amountCNS",
          "type": "uint256",
          "indexed": false,
          "internalType": "uint256"
        },
        {
          "name": "clampToMaximum",
          "type": "bool",
          "indexed": false,
          "internalType": "bool"
        },
        {
          "name": "positionType",
          "type": "uint8",
          "indexed": false,
          "internalType": "enum PositionEnum"
        },
        {
          "name": "entryPricePNS",
          "type": "uint256",
          "indexed": false,
          "internalType": "uint256"
        },
        {
          "name": "lotLNS",
          "type": "uint256",
          "indexed": false,
          "internalType": "uint256"
        }
      ],
      "anonymous": false
    },
    {
      "type": "event",
      "name": "CollateralDeposit",
      "inputs": [
        {
          "name": "accountId",
          "type": "uint256",
          "indexed": false,
          "internalType": "uint256"
        },
        {
          "name": "amountCNS",
          "type": "uint256",
          "indexed": false,
          "internalType": "uint256"
        },
        {
          "name": "balanceCNS",
          "type": "uint256",
          "indexed": false,
          "internalType": "uint256"
        }
      ],
      "anonymous": false
    },
    {
      "type": "event",
      "name": "CollateralWithdrawal",
      "inputs": [
        {
          "name": "accountId",
          "type": "uint256",
          "indexed": false,
          "internalType": "uint256"
        },
        {
          "name": "amountCNS",
          "type": "uint256",
          "indexed": false,
          "internalType": "uint256"
        },
        {
          "name": "balanceCNS",
          "type": "uint256",
          "indexed": false,
          "internalType": "uint256"
        }
      ],
      "anonymous": false
    },
    {
      "type": "event",
      "name": "ContractAdded",
      "inputs": [
        {
          "name": "perpId",
          "type": "uint256",
          "indexed": false,
          "internalType": "uint256"
        },
        {
          "name": "name",
          "type": "string",
          "indexed": false,
          "internalType": "string"
        },
        {
          "name": "symbol",
          "type": "string",
          "indexed": false,
          "internalType": "string"
        },
        {
          "name": "status",
          "type": "uint8",
          "indexed": false,
          "internalType": "enum PerpStatusEnum"
        },
        {
          "name": "basePricePNS",
          "type": "uint256",
          "indexed": false,
          "internalType": "uint256"
        },
        {
          "name": "priceDecimals",
          "type": "uint256",
          "indexed": false,
          "internalType": "uint256"
        },
        {
          "name": "lotDecimals",
          "type": "uint256",
          "indexed": false,
          "internalType": "uint256"
        },
        {
          "name": "takerFeePer100K",
          "type": "uint256",
          "indexed": false,
          "internalType": "uint256"
        },
        {
          "name": "makerFeePer100K",
          "type": "uint256",
          "indexed": false,
          "internalType": "uint256"
        },
        {
          "name": "initMarginFracHdths",
          "type": "uint256",
          "indexed": false,
          "internalType": "uint256"
        },
        {
          "name": "maintMarginFracHdths",
          "type": "uint256",
          "indexed": false,
          "internalType": "uint256"
        },
        {
          "name": "maxOpenInterestLNS",
          "type": "uint256",
          "indexed": false,
          "internalType": "uint256"
        },
        {
          "name": "unityDescentThreshHdths",
          "type": "uint256",
          "indexed": false,
          "internalType": "uint256"
        },
        {
          "name": "overColDescentThreshHdths",
          "type": "uint256",
          "indexed": false,
          "internalType": "uint256"
        },
        {
          "name": "dcpBorrowThreshHdths",
          "type": "uint256",
          "indexed": false,
          "internalType": "uint256"
        },
        {
          "name": "priceTolPer100K",
          "type": "uint256",
          "indexed": false,
          "internalType": "uint256"
        },
        {
          "name": "marginTol",
          "type": "uint256",
          "indexed": false,
          "internalType": "uint256"
        },
        {
          "name": "marginTolDecimals",
          "type": "uint256",
          "indexed": false,
          "internalType": "uint256"
        },
        {
          "name": "refPriceMaxAgeSec",
          "type": "uint256",
          "indexed": false,
          "internalType": "uint256"
        },
        {
          "name": "absFundingClampPctPer100K",
          "type": "uint256",
          "indexed": false,
          "internalType": "uint256"
        },
        {
          "name": "permCancelMinOrders",
          "type": "uint256",
          "indexed": false,
          "internalType": "uint256"
        },
        {
          "name": "permCancelSegment",
          "type": "uint256",
          "indexed": false,
          "internalType": "uint256"
        },
        {
          "name": "insAmtPer100K",
          "type": "uint256",
          "indexed": false,
          "internalType": "uint256"
        },
        {
          "name": "liqInsAmtPer100K",
          "type": "uint256",
          "indexed": false,
          "internalType": "uint256"
        },
        {
          "name": "liqUserAmtPer100K",
          "type": "uint256",
          "indexed": false,
          "internalType": "uint256"
        },
        {
          "name": "btlRestrictBuyers",
          "type": "bool",
          "indexed": false,
          "internalType": "bool"
        },
        {
          "name": "btlPriceThreshPer100K",
          "type": "uint256",
          "indexed": false,
          "internalType": "uint256"
        },
        {
          "name": "btlInsAmtPer100K",
          "type": "uint256",
          "indexed": false,
          "internalType": "uint256"
        },
        {
          "name": "btlUserAmtPer100K",
          "type": "uint256",
          "indexed": false,
          "internalType": "uint256"
        },
        {
          "name": "btlBuyerAmtPer100K",
          "type": "uint256",
          "indexed": false,
          "internalType": "uint256"
        },
        {
          "name": "numPerpetuals",
          "type": "uint256",
          "indexed": false,
          "internalType": "uint256"
        }
      ],
      "anonymous": false
    },
    {
      "type": "event",
      "name": "ContractIsPaused",
      "inputs": [
        {
          "name": "perpId",
          "type": "uint256",
          "indexed": false,
          "internalType": "uint256"
        }
      ],
      "anonymous": false
    },
    {
      "type": "event",
      "name": "ContractLinkFeedUpdated",
      "inputs": [
        {
          "name": "perpId",
          "type": "uint256",
          "indexed": false,
          "internalType": "uint256"
        },
        {
          "name": "feedId",
          "type": "bytes32",
          "indexed": false,
          "internalType": "bytes32"
        }
      ],
      "anonymous": false
    },
    {
      "type": "event",
      "name": "ContractPaused",
      "inputs": [
        {
          "name": "perpId",
          "type": "uint256",
          "indexed": false,
          "internalType": "uint256"
        },
        {
          "name": "paused",
          "type": "bool",
          "indexed": false,
          "internalType": "bool"
        }
      ],
      "anonymous": false
    },
    {
      "type": "event",
      "name": "ContractRemoved",
      "inputs": [
        {
          "name": "perpId",
          "type": "uint256",
          "indexed": false,
          "internalType": "uint256"
        }
      ],
      "anonymous": false
    },
    {
      "type": "event",
      "name": "CrossesBook",
      "inputs": [
        {
          "name": "minAskOrMaxBidPNS",
          "type": "uint256",
          "indexed": false,
          "internalType": "uint256"
        },
        {
          "name": "maxOrdersChecked",
          "type": "bool",
          "indexed": false,
          "internalType": "bool"
        }
      ],
      "anonymous": false
    },
    {
      "type": "event",
      "name": "DcpBorrowThreshUpdated",
      "inputs": [
        {
          "name": "perpId",
          "type": "uint256",
          "indexed": false,
          "internalType": "uint256"
        },
        {
          "name": "threshHdths",
          "type": "uint256",
          "indexed": false,
          "internalType": "uint256"
        }
      ],
      "anonymous": false
    },
    {
      "type": "event",
      "name": "DecreaseCollateralBeyondMarkPrice",
      "inputs": [
        {
          "name": "perpId",
          "type": "uint256",
          "indexed": false,
          "internalType": "uint256"
        },
        {
          "name": "accountId",
          "type": "uint256",
          "indexed": false,
          "internalType": "uint256"
        },
        {
          "name": "positionType",
          "type": "uint8",
          "indexed": false,
          "internalType": "enum PositionEnum"
        },
        {
          "name": "impactAdjPricePNS",
          "type": "uint256",
          "indexed": false,
          "internalType": "uint256"
        },
        {
          "name": "markPricePNS",
          "type": "uint256",
          "indexed": false,
          "internalType": "uint256"
        }
      ],
      "anonymous": false
    },
    {
      "type": "event",
      "name": "DeleveragePositionListEmpty",
      "inputs": [
        {
          "name": "perpId",
          "type": "uint256",
          "indexed": false,
          "internalType": "uint256"
        },
        {
          "name": "accountId",
          "type": "uint256",
          "indexed": false,
          "internalType": "uint256"
        }
      ],
      "anonymous": false
    },
    {
      "type": "event",
      "name": "ExceedsLastExecutionBlock",
      "inputs": [
        {
          "name": "lastExecutionBlock",
          "type": "uint256",
          "indexed": false,
          "internalType": "uint256"
        }
      ],
      "anonymous": false
    },
    {
      "type": "event",
      "name": "ExchangeHalted",
      "inputs": [
        {
          "name": "halted",
          "type": "bool",
          "indexed": false,
          "internalType": "bool"
        }
      ],
      "anonymous": false
    },
    {
      "type": "event",
      "name": "ExchangeInitialized",
      "inputs": [
        {
          "name": "sender",
          "type": "address",
          "indexed": false,
          "internalType": "address"
        },
        {
          "name": "collateralToken",
          "type": "address",
          "indexed": false,
          "internalType": "address"
        },
        {
          "name": "collateralDecimals",
          "type": "uint256",
          "indexed": false,
          "internalType": "uint256"
        },
        {
          "name": "minAccountOpenCNS",
          "type": "uint256",
          "indexed": false,
          "internalType": "uint256"
        },
        {
          "name": "wrlsThousandthsTvl",
          "type": "uint256",
          "indexed": false,
          "internalType": "uint256"
        },
        {
          "name": "wrlsMinWithdrawLimitCNS",
          "type": "uint256",
          "indexed": false,
          "internalType": "uint256"
        },
        {
          "name": "recycleFeeCNS",
          "type": "uint256",
          "indexed": false,
          "internalType": "uint256"
        },
        {
          "name": "whitelistingEnabled",
          "type": "bool",
          "indexed": false,
          "internalType": "bool"
        }
      ],
      "anonymous": false
    },
    {
      "type": "event",
      "name": "FeeParamsUpdated",
      "inputs": [
        {
          "name": "perpId",
          "type": "uint256",
          "indexed": false,
          "internalType": "uint256"
        },
        {
          "name": "insAmtPer100K",
          "type": "uint256",
          "indexed": false,
          "internalType": "uint256"
        }
      ],
      "anonymous": false
    },
    {
      "type": "event",
      "name": "FundingClampPctUpdated",
      "inputs": [
        {
          "name": "perpId",
          "type": "uint256",
          "indexed": false,
          "internalType": "uint256"
        },
        {
          "name": "clampPctPer100k",
          "type": "uint256",
          "indexed": false,
          "internalType": "uint256"
        }
      ],
      "anonymous": false
    },
    {
      "type": "event",
      "name": "FundingEventCompleted",
      "inputs": [
        {
          "name": "perpId",
          "type": "uint256",
          "indexed": false,
          "internalType": "uint256"
        },
        {
          "name": "fundingEventBlock",
          "type": "uint256",
          "indexed": false,
          "internalType": "uint256"
        },
        {
          "name": "specifiedRatePct100k",
          "type": "int256",
          "indexed": false,
          "internalType": "int256"
        },
        {
          "name": "actualRatePct100k",
          "type": "int256",
          "indexed": false,
          "internalType": "int256"
        },
        {
          "name": "fundingPricePNS",
          "type": "uint256",
          "indexed": false,
          "internalType": "uint256"
        },
        {
          "name": "fundingPaymentPNS",
          "type": "int48",
          "indexed": false,
          "internalType": "int48"
        },
        {
          "name": "fundingSumPNS",
          "type": "int48",
          "indexed": false,
          "internalType": "int48"
        },
        {
          "name": "allowOverwrite",
          "type": "bool",
          "indexed": false,
          "internalType": "bool"
        }
      ],
      "anonymous": false
    },
    {
      "type": "event",
      "name": "FundingEventSetTooEarly",
      "inputs": [
        {
          "name": "perpId",
          "type": "uint256",
          "indexed": false,
          "internalType": "uint256"
        },
        {
          "name": "blockNumber",
          "type": "uint256",
          "indexed": false,
          "internalType": "uint256"
        },
        {
          "name": "fundingEventBlock",
          "type": "uint256",
          "indexed": false,
          "internalType": "uint256"
        }
      ],
      "anonymous": false
    },
    {
      "type": "event",
      "name": "FundingPriceExceedsTol",
      "inputs": [
        {
          "name": "perpId",
          "type": "uint256",
          "indexed": false,
          "internalType": "uint256"
        },
        {
          "name": "fundingPricePNS",
          "type": "uint256",
          "indexed": false,
          "internalType": "uint256"
        },
        {
          "name": "oraclePNS",
          "type": "uint256",
          "indexed": false,
          "internalType": "uint256"
        },
        {
          "name": "tolerancePer100k",
          "type": "uint256",
          "indexed": false,
          "internalType": "uint256"
        }
      ],
      "anonymous": false
    },
    {
      "type": "event",
      "name": "FundingSumAlreadySet",
      "inputs": [
        {
          "name": "perpId",
          "type": "uint256",
          "indexed": false,
          "internalType": "uint256"
        },
        {
          "name": "fundingEventBlock",
          "type": "uint256",
          "indexed": false,
          "internalType": "uint256"
        },
        {
          "name": "storageIndex",
          "type": "uint256",
          "indexed": false,
          "internalType": "uint256"
        },
        {
          "name": "fundingSumOffset",
          "type": "uint256",
          "indexed": false,
          "internalType": "uint256"
        }
      ],
      "anonymous": false
    },
    {
      "type": "event",
      "name": "IgnoreOracleUpdated",
      "inputs": [
        {
          "name": "perpId",
          "type": "uint256",
          "indexed": false,
          "internalType": "uint256"
        },
        {
          "name": "ignOracle",
          "type": "bool",
          "indexed": false,
          "internalType": "bool"
        }
      ],
      "anonymous": false
    },
    {
      "type": "event",
      "name": "ImmediateOrCancelExecuted",
      "inputs": [
        {
          "name": "unmatchedLotLNS",
          "type": "uint256",
          "indexed": false,
          "internalType": "uint256"
        },
        {
          "name": "totalLotLNS",
          "type": "uint256",
          "indexed": false,
          "internalType": "uint256"
        }
      ],
      "anonymous": false
    },
    {
      "type": "event",
      "name": "IncreasePositionCollateral",
      "inputs": [
        {
          "name": "perpId",
          "type": "uint256",
          "indexed": false,
          "internalType": "uint256"
        },
        {
          "name": "accountId",
          "type": "uint256",
          "indexed": false,
          "internalType": "uint256"
        },
        {
          "name": "positionDepositCNS",
          "type": "uint256",
          "indexed": false,
          "internalType": "uint256"
        },
        {
          "name": "amountCNS",
          "type": "uint256",
          "indexed": false,
          "internalType": "uint256"
        },
        {
          "name": "balanceCNS",
          "type": "uint256",
          "indexed": false,
          "internalType": "uint256"
        }
      ],
      "anonymous": false
    },
    {
      "type": "event",
      "name": "InitialMarginFractionUpdated",
      "inputs": [
        {
          "name": "perpId",
          "type": "uint256",
          "indexed": false,
          "internalType": "uint256"
        },
        {
          "name": "initMarginFracHdths",
          "type": "uint256",
          "indexed": false,
          "internalType": "uint256"
        }
      ],
      "anonymous": false
    },
    {
      "type": "event",
      "name": "Initialized",
      "inputs": [
        {
          "name": "version",
          "type": "uint8",
          "indexed": false,
          "internalType": "uint8"
        }
      ],
      "anonymous": false
    },
    {
      "type": "event",
      "name": "InsolventPositionCannotBeForcedClose",
      "inputs": [
        {
          "name": "perpId",
          "type": "uint256",
          "indexed": false,
          "internalType": "uint256"
        },
        {
          "name": "posAccountId",
          "type": "uint256",
          "indexed": false,
          "internalType": "uint256"
        },
        {
          "name": "positionType",
          "type": "uint8",
          "indexed": false,
          "internalType": "enum PositionEnum"
        },
        {
          "name": "bankruptcyPricePNS",
          "type": "uint256",
          "indexed": false,
          "internalType": "uint256"
        },
        {
          "name": "markPricePNS",
          "type": "uint256",
          "indexed": false,
          "internalType": "uint256"
        }
      ],
      "anonymous": false
    },
    {
      "type": "event",
      "name": "InsufficientFundsToDecCollateral",
      "inputs": [
        {
          "name": "perpId",
          "type": "uint256",
          "indexed": false,
          "internalType": "uint256"
        },
        {
          "name": "accountId",
          "type": "uint256",
          "indexed": false,
          "internalType": "uint256"
        },
        {
          "name": "amountCNS",
          "type": "uint256",
          "indexed": false,
          "internalType": "uint256"
        },
        {
          "name": "withdrawMaxCNS",
          "type": "uint256",
          "indexed": false,
          "internalType": "uint256"
        }
      ],
      "anonymous": false
    },
    {
      "type": "event",
      "name": "InsuficientFundsForRecycleFee",
      "inputs": [
        {
          "name": "perpId",
          "type": "uint256",
          "indexed": false,
          "internalType": "uint256"
        },
        {
          "name": "accountId",
          "type": "uint256",
          "indexed": false,
          "internalType": "uint256"
        },
        {
          "name": "balanceCNS",
          "type": "uint256",
          "indexed": false,
          "internalType": "uint256"
        },
        {
          "name": "lockedCNS",
          "type": "uint256",
          "indexed": false,
          "internalType": "uint256"
        },
        {
          "name": "recycleFeeCNS",
          "type": "uint256",
          "indexed": false,
          "internalType": "uint256"
        }
      ],
      "anonymous": false
    },
    {
      "type": "event",
      "name": "InsurancePaymentForSettlement",
      "inputs": [
        {
          "name": "perpId",
          "type": "uint256",
          "indexed": false,
          "internalType": "uint256"
        },
        {
          "name": "accountId",
          "type": "uint256",
          "indexed": false,
          "internalType": "uint256"
        },
        {
          "name": "insPaymentCNS",
          "type": "uint256",
          "indexed": false,
          "internalType": "uint256"
        }
      ],
      "anonymous": false
    },
    {
      "type": "event",
      "name": "InvalidAccountFrozenOrder",
      "inputs": [
        {
          "name": "orderType",
          "type": "uint8",
          "indexed": false,
          "internalType": "enum OrderDescEnum"
        },
        {
          "name": "immediateOrCancel",
          "type": "bool",
          "indexed": false,
          "internalType": "bool"
        }
      ],
      "anonymous": false
    },
    {
      "type": "event",
      "name": "InvalidBankruptcyPrice",
      "inputs": [
        {
          "name": "perpId",
          "type": "uint256",
          "indexed": false,
          "internalType": "uint256"
        },
        {
          "name": "accountId",
          "type": "uint256",
          "indexed": false,
          "internalType": "uint256"
        },
        {
          "name": "depositCNS",
          "type": "uint256",
          "indexed": false,
          "internalType": "uint256"
        },
        {
          "name": "posPricePNS",
          "type": "uint256",
          "indexed": false,
          "internalType": "uint256"
        },
        {
          "name": "liqLotLNS",
          "type": "uint256",
          "indexed": false,
          "internalType": "uint256"
        },
        {
          "name": "premiumPnlCNS",
          "type": "int256",
          "indexed": false,
          "internalType": "int256"
        }
      ],
      "anonymous": false
    },
    {
      "type": "event",
      "name": "InvalidExpiryBlock",
      "inputs": [
        {
          "name": "expiryBlock",
          "type": "uint256",
          "indexed": false,
          "internalType": "uint256"
        },
        {
          "name": "blockNumber",
          "type": "uint256",
          "indexed": false,
          "internalType": "uint256"
        }
      ],
      "anonymous": false
    },
    {
      "type": "event",
      "name": "InvalidLinkReportForContract",
      "inputs": [
        {
          "name": "perpId",
          "type": "uint256",
          "indexed": false,
          "internalType": "uint256"
        },
        {
          "name": "perpFeedId",
          "type": "bytes32",
          "indexed": false,
          "internalType": "bytes32"
        },
        {
          "name": "reportFeedId",
          "type": "bytes32",
          "indexed": false,
          "internalType": "bytes32"
        }
      ],
      "anonymous": false
    },
    {
      "type": "event",
      "name": "InvalidLinkReportVersion",
      "inputs": [
        {
          "name": "perpId",
          "type": "uint256",
          "indexed": false,
          "internalType": "uint256"
        },
        {
          "name": "reportVersion",
          "type": "uint256",
          "indexed": false,
          "internalType": "uint256"
        }
      ],
      "anonymous": false
    },
    {
      "type": "event",
      "name": "InvalidLiquidationPrice",
      "inputs": [
        {
          "name": "perpId",
          "type": "uint256",
          "indexed": false,
          "internalType": "uint256"
        },
        {
          "name": "accountId",
          "type": "uint256",
          "indexed": false,
          "internalType": "uint256"
        },
        {
          "name": "depositCNS",
          "type": "uint256",
          "indexed": false,
          "internalType": "uint256"
        },
        {
          "name": "posPricePNS",
          "type": "uint256",
          "indexed": false,
          "internalType": "uint256"
        },
        {
          "name": "liqLotLNS",
          "type": "uint256",
          "indexed": false,
          "internalType": "uint256"
        },
        {
          "name": "premiumPnlCNS",
          "type": "int256",
          "indexed": false,
          "internalType": "int256"
        }
      ],
      "anonymous": false
    },
    {
      "type": "event",
      "name": "InvalidOrderId",
      "inputs": [
        {
          "name": "orderId",
          "type": "uint256",
          "indexed": false,
          "internalType": "uint256"
        },
        {
          "name": "min",
          "type": "uint256",
          "indexed": false,
          "internalType": "uint256"
        },
        {
          "name": "max",
          "type": "uint256",
          "indexed": false,
          "internalType": "uint256"
        }
      ],
      "anonymous": false
    },
    {
      "type": "event",
      "name": "LastForwardedDescIdReset",
      "inputs": [
        {
          "name": "accountId",
          "type": "uint256",
          "indexed": false,
          "internalType": "uint256"
        },
        {
          "name": "newDescId",
          "type": "uint256",
          "indexed": false,
          "internalType": "uint256"
        }
      ],
      "anonymous": false
    },
    {
      "type": "event",
      "name": "LinkDatastreamConfigured",
      "inputs": [
        {
          "name": "verifierProxy",
          "type": "address",
          "indexed": false,
          "internalType": "address"
        }
      ],
      "anonymous": false
    },
    {
      "type": "event",
      "name": "LinkDsError",
      "inputs": [
        {
          "name": "perpId",
          "type": "uint256",
          "indexed": false,
          "internalType": "uint256"
        },
        {
          "name": "reason",
          "type": "string",
          "indexed": false,
          "internalType": "string"
        }
      ],
      "anonymous": false
    },
    {
      "type": "event",
      "name": "LinkDsError",
      "inputs": [
        {
          "name": "perpId",
          "type": "uint256",
          "indexed": false,
          "internalType": "uint256"
        },
        {
          "name": "lowLevelData",
          "type": "bytes",
          "indexed": false,
          "internalType": "bytes"
        }
      ],
      "anonymous": false
    },
    {
      "type": "event",
      "name": "LinkDsPanic",
      "inputs": [
        {
          "name": "perpId",
          "type": "uint256",
          "indexed": false,
          "internalType": "uint256"
        },
        {
          "name": "errorCode",
          "type": "uint256",
          "indexed": false,
          "internalType": "uint256"
        }
      ],
      "anonymous": false
    },
    {
      "type": "event",
      "name": "LinkPriceUpdated",
      "inputs": [
        {
          "name": "perpId",
          "type": "uint256",
          "indexed": false,
          "internalType": "uint256"
        },
        {
          "name": "oraclePricePNS",
          "type": "uint256",
          "indexed": false,
          "internalType": "uint256"
        },
        {
          "name": "timestamp",
          "type": "uint256",
          "indexed": false,
          "internalType": "uint256"
        }
      ],
      "anonymous": false
    },
    {
      "type": "event",
      "name": "LiquidationBuyerUpdated",
      "inputs": [
        {
          "name": "liquidationBuyer",
          "type": "address",
          "indexed": false,
          "internalType": "address"
        },
        {
          "name": "accountId",
          "type": "uint256",
          "indexed": false,
          "internalType": "uint256"
        },
        {
          "name": "added",
          "type": "bool",
          "indexed": false,
          "internalType": "bool"
        }
      ],
      "anonymous": false
    },
    {
      "type": "event",
      "name": "LiquidationParamsUpdated",
      "inputs": [
        {
          "name": "perpId",
          "type": "uint256",
          "indexed": false,
          "internalType": "uint256"
        },
        {
          "name": "insAmtPer100K",
          "type": "uint256",
          "indexed": false,
          "internalType": "uint256"
        },
        {
          "name": "liqAmtPer100K",
          "type": "uint256",
          "indexed": false,
          "internalType": "uint256"
        },
        {
          "name": "userAmtPer100K",
          "type": "uint256",
          "indexed": false,
          "internalType": "uint256"
        }
      ],
      "anonymous": false
    },
    {
      "type": "event",
      "name": "LotOutOfRange",
      "inputs": [
        {
          "name": "minLotLNS",
          "type": "uint256",
          "indexed": false,
          "internalType": "uint256"
        },
        {
          "name": "maxLotLNS",
          "type": "uint256",
          "indexed": false,
          "internalType": "uint256"
        }
      ],
      "anonymous": false
    },
    {
      "type": "event",
      "name": "MaintenanceMarginFractionUpdated",
      "inputs": [
        {
          "name": "perpId",
          "type": "uint256",
          "indexed": false,
          "internalType": "uint256"
        },
        {
          "name": "maintMarginFracHdths",
          "type": "uint256",
          "indexed": false,
          "internalType": "uint256"
        }
      ],
      "anonymous": false
    },
    {
      "type": "event",
      "name": "MakerFeeUpdated",
      "inputs": [
        {
          "name": "perpId",
          "type": "uint256",
          "indexed": false,
          "internalType": "uint256"
        },
        {
          "name": "makerFeePer100K",
          "type": "uint256",
          "indexed": false,
          "internalType": "uint256"
        }
      ],
      "anonymous": false
    },
    {
      "type": "event",
      "name": "MakerOrderFilled",
      "inputs": [
        {
          "name": "perpId",
          "type": "uint256",
          "indexed": false,
          "internalType": "uint256"
        },
        {
          "name": "accountId",
          "type": "uint256",
          "indexed": false,
          "internalType": "uint256"
        },
        {
          "name": "orderId",
          "type": "uint256",
          "indexed": false,
          "internalType": "uint256"
        },
        {
          "name": "pricePNS",
          "type": "uint256",
          "indexed": false,
          "internalType": "uint256"
        },
        {
          "name": "lotLNS",
          "type": "uint256",
          "indexed": false,
          "internalType": "uint256"
        },
        {
          "name": "feeCNS",
          "type": "uint256",
          "indexed": false,
          "internalType": "uint256"
        },
        {
          "name": "lockedBalanceCNS",
          "type": "uint256",
          "indexed": false,
          "internalType": "uint256"
        },
        {
          "name": "amountCNS",
          "type": "int256",
          "indexed": false,
          "internalType": "int256"
        },
        {
          "name": "balanceCNS",
          "type": "uint256",
          "indexed": false,
          "internalType": "uint256"
        }
      ],
      "anonymous": false
    },
    {
      "type": "event",
      "name": "MakerOrderSettlementFailed",
      "inputs": [
        {
          "name": "perpId",
          "type": "uint256",
          "indexed": false,
          "internalType": "uint256"
        },
        {
          "name": "accountId",
          "type": "uint256",
          "indexed": false,
          "internalType": "uint256"
        },
        {
          "name": "orderId",
          "type": "uint256",
          "indexed": false,
          "internalType": "uint256"
        },
        {
          "name": "orderType",
          "type": "uint8",
          "indexed": false,
          "internalType": "enum OrderEnum"
        },
        {
          "name": "pricePNS",
          "type": "uint256",
          "indexed": false,
          "internalType": "uint256"
        },
        {
          "name": "lotLNS",
          "type": "uint256",
          "indexed": false,
          "internalType": "uint256"
        },
        {
          "name": "reason",
          "type": "uint256",
          "indexed": false,
          "internalType": "uint256"
        },
        {
          "name": "lockedBalanceCNS",
          "type": "uint256",
          "indexed": false,
          "internalType": "uint256"
        },
        {
          "name": "recyclerAccountId",
          "type": "uint256",
          "indexed": false,
          "internalType": "uint256"
        },
        {
          "name": "recyclerAmountCNS",
          "type": "int256",
          "indexed": false,
          "internalType": "int256"
        },
        {
          "name": "recyclerBalanceCNS",
          "type": "uint256",
          "indexed": false,
          "internalType": "uint256"
        }
      ],
      "anonymous": false
    },
    {
      "type": "event",
      "name": "MarginTolUpdated",
      "inputs": [
        {
          "name": "perpId",
          "type": "uint256",
          "indexed": false,
          "internalType": "uint256"
        },
        {
          "name": "tolerance",
          "type": "uint256",
          "indexed": false,
          "internalType": "uint256"
        },
        {
          "name": "decimals",
          "type": "uint256",
          "indexed": false,
          "internalType": "uint256"
        }
      ],
      "anonymous": false
    },
    {
      "type": "event",
      "name": "MarkExceedsTol",
      "inputs": [
        {
          "name": "perpId",
          "type": "uint256",
          "indexed": false,
          "internalType": "uint256"
        },
        {
          "name": "markPNS",
          "type": "uint256",
          "indexed": false,
          "internalType": "uint256"
        },
        {
          "name": "spotOraclePricePNS",
          "type": "uint256",
          "indexed": false,
          "internalType": "uint256"
        },
        {
          "name": "tolerancePer100k",
          "type": "uint256",
          "indexed": false,
          "internalType": "uint256"
        }
      ],
      "anonymous": false
    },
    {
      "type": "event",
      "name": "MarkPriceAgeExceedsMax",
      "inputs": [
        {
          "name": "perpId",
          "type": "uint256",
          "indexed": false,
          "internalType": "uint256"
        },
        {
          "name": "markTimestamp",
          "type": "uint256",
          "indexed": false,
          "internalType": "uint256"
        },
        {
          "name": "timestamp",
          "type": "uint256",
          "indexed": false,
          "internalType": "uint256"
        },
        {
          "name": "maxAgeSec",
          "type": "uint256",
          "indexed": false,
          "internalType": "uint256"
        }
      ],
      "anonymous": false
    },
    {
      "type": "event",
      "name": "MarkUpdated",
      "inputs": [
        {
          "name": "perpId",
          "type": "uint256",
          "indexed": false,
          "internalType": "uint256"
        },
        {
          "name": "pricePNS",
          "type": "uint256",
          "indexed": false,
          "internalType": "uint256"
        }
      ],
      "anonymous": false
    },
    {
      "type": "event",
      "name": "MaxMatchesReached",
      "inputs": [],
      "anonymous": false
    },
    {
      "type": "event",
      "name": "MaxOpenInterestUpdated",
      "inputs": [
        {
          "name": "perpId",
          "type": "uint256",
          "indexed": false,
          "internalType": "uint256"
        },
        {
          "name": "maxOpenInterestLNS",
          "type": "uint256",
          "indexed": false,
          "internalType": "uint256"
        }
      ],
      "anonymous": false
    },
    {
      "type": "event",
      "name": "MaximumAccountOrders",
      "inputs": [
        {
          "name": "perpId",
          "type": "uint256",
          "indexed": false,
          "internalType": "uint256"
        },
        {
          "name": "accountId",
          "type": "uint256",
          "indexed": false,
          "internalType": "uint256"
        }
      ],
      "anonymous": false
    },
    {
      "type": "event",
      "name": "MinAccountOpenAmountUpdated",
      "inputs": [
        {
          "name": "minAccountOpenCNS",
          "type": "uint256",
          "indexed": false,
          "internalType": "uint256"
        }
      ],
      "anonymous": false
    },
    {
      "type": "event",
      "name": "MinPostUpdated",
      "inputs": [
        {
          "name": "minPostCNS",
          "type": "uint256",
          "indexed": false,
          "internalType": "uint256"
        }
      ],
      "anonymous": false
    },
    {
      "type": "event",
      "name": "MinSettleUpdated",
      "inputs": [
        {
          "name": "minSettleCNS",
          "type": "uint256",
          "indexed": false,
          "internalType": "uint256"
        }
      ],
      "anonymous": false
    },
    {
      "type": "event",
      "name": "OracleAgeExceedsMax",
      "inputs": [
        {
          "name": "perpId",
          "type": "uint256",
          "indexed": false,
          "internalType": "uint256"
        },
        {
          "name": "oracleTimestamp",
          "type": "uint256",
          "indexed": false,
          "internalType": "uint256"
        },
        {
          "name": "timestamp",
          "type": "uint256",
          "indexed": false,
          "internalType": "uint256"
        },
        {
          "name": "maxAgeSec",
          "type": "uint256",
          "indexed": false,
          "internalType": "uint256"
        }
      ],
      "anonymous": false
    },
    {
      "type": "event",
      "name": "OracleDisabled",
      "inputs": [
        {
          "name": "perpId",
          "type": "uint256",
          "indexed": false,
          "internalType": "uint256"
        }
      ],
      "anonymous": false
    },
    {
      "type": "event",
      "name": "OrderBatchCompleted",
      "inputs": [
        {
          "name": "gasLeft",
          "type": "uint256",
          "indexed": false,
          "internalType": "uint256"
        }
      ],
      "anonymous": false
    },
    {
      "type": "event",
      "name": "OrderCancelled",
      "inputs": [
        {
          "name": "lockedBalanceCNS",
          "type": "uint256",
          "indexed": false,
          "internalType": "uint256"
        },
        {
          "name": "amountCNS",
          "type": "int256",
          "indexed": false,
          "internalType": "int256"
        },
        {
          "name": "balanceCNS",
          "type": "uint256",
          "indexed": false,
          "internalType": "uint256"
        }
      ],
      "anonymous": false
    },
    {
      "type": "event",
      "name": "OrderCancelledByAdmin",
      "inputs": [
        {
          "name": "perpId",
          "type": "uint256",
          "indexed": false,
          "internalType": "uint256"
        },
        {
          "name": "accountId",
          "type": "uint256",
          "indexed": false,
          "internalType": "uint256"
        },
        {
          "name": "orderId",
          "type": "uint256",
          "indexed": false,
          "internalType": "uint256"
        },
        {
          "name": "lockedBalanceCNS",
          "type": "uint256",
          "indexed": false,
          "internalType": "uint256"
        }
      ],
      "anonymous": false
    },
    {
      "type": "event",
      "name": "OrderCancelledByLiquidator",
      "inputs": [
        {
          "name": "perpId",
          "type": "uint256",
          "indexed": false,
          "internalType": "uint256"
        },
        {
          "name": "accountId",
          "type": "uint256",
          "indexed": false,
          "internalType": "uint256"
        },
        {
          "name": "orderId",
          "type": "uint256",
          "indexed": false,
          "internalType": "uint256"
        },
        {
          "name": "lockedBalanceCNS",
          "type": "uint256",
          "indexed": false,
          "internalType": "uint256"
        }
      ],
      "anonymous": false
    },
    {
      "type": "event",
      "name": "OrderChanged",
      "inputs": [
        {
          "name": "orderId",
          "type": "uint256",
          "indexed": false,
          "internalType": "uint256"
        },
        {
          "name": "pricePNS",
          "type": "uint256",
          "indexed": false,
          "internalType": "uint256"
        },
        {
          "name": "lotLNS",
          "type": "uint256",
          "indexed": false,
          "internalType": "uint256"
        },
        {
          "name": "expiryBlock",
          "type": "uint256",
          "indexed": false,
          "internalType": "uint256"
        },
        {
          "name": "lockedBalanceCNS",
          "type": "uint256",
          "indexed": false,
          "internalType": "uint256"
        },
        {
          "name": "balanceCNS",
          "type": "uint256",
          "indexed": false,
          "internalType": "uint256"
        }
      ],
      "anonymous": false
    },
    {
      "type": "event",
      "name": "OrderDescIdTooLow",
      "inputs": [
        {
          "name": "lastOrderDescId",
          "type": "uint256",
          "indexed": false,
          "internalType": "uint256"
        }
      ],
      "anonymous": false
    },
    {
      "type": "event",
      "name": "OrderDoesNotExist",
      "inputs": [
        {
          "name": "perpId",
          "type": "uint256",
          "indexed": false,
          "internalType": "uint256"
        },
        {
          "name": "orderId",
          "type": "uint256",
          "indexed": false,
          "internalType": "uint256"
        }
      ],
      "anonymous": false
    },
    {
      "type": "event",
      "name": "OrderForwardingNotAllowed",
      "inputs": [],
      "anonymous": false
    },
    {
      "type": "event",
      "name": "OrderForwardingUpdated",
      "inputs": [
        {
          "name": "accountId",
          "type": "uint256",
          "indexed": false,
          "internalType": "uint256"
        },
        {
          "name": "allowed",
          "type": "bool",
          "indexed": false,
          "internalType": "bool"
        }
      ],
      "anonymous": false
    },
    {
      "type": "event",
      "name": "OrderPlaced",
      "inputs": [
        {
          "name": "orderId",
          "type": "uint256",
          "indexed": false,
          "internalType": "uint256"
        },
        {
          "name": "lotLNS",
          "type": "uint256",
          "indexed": false,
          "internalType": "uint256"
        },
        {
          "name": "lockedBalanceCNS",
          "type": "uint256",
          "indexed": false,
          "internalType": "uint256"
        },
        {
          "name": "amountCNS",
          "type": "int256",
          "indexed": false,
          "internalType": "int256"
        },
        {
          "name": "balanceCNS",
          "type": "uint256",
          "indexed": false,
          "internalType": "uint256"
        }
      ],
      "anonymous": false
    },
    {
      "type": "event",
      "name": "OrderPostFailed",
      "inputs": [
        {
          "name": "reason",
          "type": "uint256",
          "indexed": false,
          "internalType": "uint256"
        }
      ],
      "anonymous": false
    },
    {
      "type": "event",
      "name": "OrderRequest",
      "inputs": [
        {
          "name": "perpId",
          "type": "uint256",
          "indexed": false,
          "internalType": "uint256"
        },
        {
          "name": "accountId",
          "type": "uint256",
          "indexed": false,
          "internalType": "uint256"
        },
        {
          "name": "orderDescId",
          "type": "uint256",
          "indexed": false,
          "internalType": "uint256"
        },
        {
          "name": "orderId",
          "type": "uint256",
          "indexed": false,
          "internalType": "uint256"
        },
        {
          "name": "orderType",
          "type": "uint8",
          "indexed": false,
          "internalType": "enum OrderDescEnum"
        },
        {
          "name": "pricePNS",
          "type": "uint256",
          "indexed": false,
          "internalType": "uint256"
        },
        {
          "name": "lotLNS",
          "type": "uint256",
          "indexed": false,
          "internalType": "uint256"
        },
        {
          "name": "expiryBlock",
          "type": "uint256",
          "indexed": false,
          "internalType": "uint256"
        },
        {
          "name": "postOnly",
          "type": "bool",
          "indexed": false,
          "internalType": "bool"
        },
        {
          "name": "fillOrKill",
          "type": "bool",
          "indexed": false,
          "internalType": "bool"
        },
        {
          "name": "immediateOrCancel",
          "type": "bool",
          "indexed": false,
          "internalType": "bool"
        },
        {
          "name": "maxMatches",
          "type": "uint256",
          "indexed": false,
          "internalType": "uint256"
        },
        {
          "name": "leverageHdths",
          "type": "uint256",
          "indexed": false,
          "internalType": "uint256"
        },
        {
          "name": "lastExecutionBlock",
          "type": "uint256",
          "indexed": false,
          "internalType": "uint256"
        },
        {
          "name": "amountCNS",
          "type": "uint256",
          "indexed": false,
          "internalType": "uint256"
        },
        {
          "name": "gasLeft",
          "type": "uint256",
          "indexed": false,
          "internalType": "uint256"
        }
      ],
      "anonymous": false
    },
    {
      "type": "event",
      "name": "OrderSettlementImpliesInsolvent",
      "inputs": [
        {
          "name": "perpId",
          "type": "uint256",
          "indexed": false,
          "internalType": "uint256"
        },
        {
          "name": "accountId",
          "type": "uint256",
          "indexed": false,
          "internalType": "uint256"
        },
        {
          "name": "orderType",
          "type": "uint8",
          "indexed": false,
          "internalType": "enum OrderEnum"
        },
        {
          "name": "pricePNS",
          "type": "uint256",
          "indexed": false,
          "internalType": "uint256"
        },
        {
          "name": "lotLNS",
          "type": "uint256",
          "indexed": false,
          "internalType": "uint256"
        },
        {
          "name": "perpPositionBalCNS",
          "type": "uint256",
          "indexed": false,
          "internalType": "uint256"
        },
        {
          "name": "perpInsuranceBalCNS",
          "type": "uint256",
          "indexed": false,
          "internalType": "uint256"
        },
        {
          "name": "addedPosCollatReqCNS",
          "type": "uint256",
          "indexed": false,
          "internalType": "uint256"
        },
        {
          "name": "requestedAmountCNS",
          "type": "uint256",
          "indexed": false,
          "internalType": "uint256"
        }
      ],
      "anonymous": false
    },
    {
      "type": "event",
      "name": "OrderSizeExceedsAvailableSize",
      "inputs": [
        {
          "name": "orderLotLNS",
          "type": "uint256",
          "indexed": false,
          "internalType": "uint256"
        },
        {
          "name": "availableLotLNS",
          "type": "uint256",
          "indexed": false,
          "internalType": "uint256"
        },
        {
          "name": "positionLotLNS",
          "type": "uint256",
          "indexed": false,
          "internalType": "uint256"
        }
      ],
      "anonymous": false
    },
    {
      "type": "event",
      "name": "OverCollatDescentThreshUpdated",
      "inputs": [
        {
          "name": "perpId",
          "type": "uint256",
          "indexed": false,
          "internalType": "uint256"
        },
        {
          "name": "threshHdths",
          "type": "uint256",
          "indexed": false,
          "internalType": "uint256"
        }
      ],
      "anonymous": false
    },
    {
      "type": "event",
      "name": "OwnershipTransferStarted",
      "inputs": [
        {
          "name": "previousOwner",
          "type": "address",
          "indexed": true,
          "internalType": "address"
        },
        {
          "name": "newOwner",
          "type": "address",
          "indexed": true,
          "internalType": "address"
        }
      ],
      "anonymous": false
    },
    {
      "type": "event",
      "name": "OwnershipTransferred",
      "inputs": [
        {
          "name": "previousOwner",
          "type": "address",
          "indexed": true,
          "internalType": "address"
        },
        {
          "name": "newOwner",
          "type": "address",
          "indexed": true,
          "internalType": "address"
        }
      ],
      "anonymous": false
    },
    {
      "type": "event",
      "name": "PermissonedCancelParamsUpdated",
      "inputs": [
        {
          "name": "cancelMinOrders",
          "type": "uint256",
          "indexed": false,
          "internalType": "uint256"
        },
        {
          "name": "cancelSegment",
          "type": "uint256",
          "indexed": false,
          "internalType": "uint256"
        }
      ],
      "anonymous": false
    },
    {
      "type": "event",
      "name": "PerpPositionBalCreditPositiveSevere",
      "inputs": [
        {
          "name": "perpId",
          "type": "uint256",
          "indexed": false,
          "internalType": "uint256"
        },
        {
          "name": "accountId",
          "type": "uint256",
          "indexed": false,
          "internalType": "uint256"
        },
        {
          "name": "realizedPricePNS",
          "type": "uint256",
          "indexed": false,
          "internalType": "uint256"
        },
        {
          "name": "lotLNS",
          "type": "uint256",
          "indexed": false,
          "internalType": "uint256"
        },
        {
          "name": "userProceedsToPosition",
          "type": "bool",
          "indexed": false,
          "internalType": "bool"
        },
        {
          "name": "buyToLiquidate",
          "type": "bool",
          "indexed": false,
          "internalType": "bool"
        },
        {
          "name": "creditPerpBalCNS",
          "type": "int256",
          "indexed": false,
          "internalType": "int256"
        }
      ],
      "anonymous": false
    },
    {
      "type": "event",
      "name": "PositionAdministratorUpdated",
      "inputs": [
        {
          "name": "positionAdministrator",
          "type": "address",
          "indexed": false,
          "internalType": "address"
        },
        {
          "name": "added",
          "type": "bool",
          "indexed": false,
          "internalType": "bool"
        }
      ],
      "anonymous": false
    },
    {
      "type": "event",
      "name": "PositionClosed",
      "inputs": [
        {
          "name": "perpId",
          "type": "uint256",
          "indexed": false,
          "internalType": "uint256"
        },
        {
          "name": "accountId",
          "type": "uint256",
          "indexed": false,
          "internalType": "uint256"
        },
        {
          "name": "positionType",
          "type": "uint8",
          "indexed": false,
          "internalType": "enum PositionEnum"
        },
        {
          "name": "pricePNS",
          "type": "uint256",
          "indexed": false,
          "internalType": "uint256"
        },
        {
          "name": "deltaPnlCNS",
          "type": "int256",
          "indexed": false,
          "internalType": "int256"
        },
        {
          "name": "fundingCNS",
          "type": "int256",
          "indexed": false,
          "internalType": "int256"
        }
      ],
      "anonymous": false
    },
    {
      "type": "event",
      "name": "PositionCollateralDecreased",
      "inputs": [
        {
          "name": "perpId",
          "type": "uint256",
          "indexed": false,
          "internalType": "uint256"
        },
        {
          "name": "accountId",
          "type": "uint256",
          "indexed": false,
          "internalType": "uint256"
        },
        {
          "name": "positionType",
          "type": "uint8",
          "indexed": false,
          "internalType": "enum PositionEnum"
        },
        {
          "name": "markPricePNS",
          "type": "uint256",
          "indexed": false,
          "internalType": "uint256"
        },
        {
          "name": "impactAdjPricePNS",
          "type": "uint256",
          "indexed": false,
          "internalType": "uint256"
        },
        {
          "name": "startDepositCNS",
          "type": "uint256",
          "indexed": false,
          "internalType": "uint256"
        },
        {
          "name": "endDepositCNS",
          "type": "uint256",
          "indexed": false,
          "internalType": "uint256"
        },
        {
          "name": "startEntryPricePNS",
          "type": "uint256",
          "indexed": false,
          "internalType": "uint256"
        },
        {
          "name": "endEntryPricePNS",
          "type": "uint256",
          "indexed": false,
          "internalType": "uint256"
        },
        {
          "name": "effBmfHdths",
          "type": "uint256",
          "indexed": false,
          "internalType": "uint256"
        },
        {
          "name": "decreaseCNS",
          "type": "uint256",
          "indexed": false,
          "internalType": "uint256"
        },
        {
          "name": "balanceCNS",
          "type": "uint256",
          "indexed": false,
          "internalType": "uint256"
        }
      ],
      "anonymous": false
    },
    {
      "type": "event",
      "name": "PositionDecreased",
      "inputs": [
        {
          "name": "perpId",
          "type": "uint256",
          "indexed": false,
          "internalType": "uint256"
        },
        {
          "name": "accountId",
          "type": "uint256",
          "indexed": false,
          "internalType": "uint256"
        },
        {
          "name": "positionType",
          "type": "uint8",
          "indexed": false,
          "internalType": "enum PositionEnum"
        },
        {
          "name": "startDepositCNS",
          "type": "uint256",
          "indexed": false,
          "internalType": "uint256"
        },
        {
          "name": "endDepositCNS",
          "type": "uint256",
          "indexed": false,
          "internalType": "uint256"
        },
        {
          "name": "startLotLNS",
          "type": "uint256",
          "indexed": false,
          "internalType": "uint256"
        },
        {
          "name": "endLotLNS",
          "type": "uint256",
          "indexed": false,
          "internalType": "uint256"
        },
        {
          "name": "deltaPnlCNS",
          "type": "int256",
          "indexed": false,
          "internalType": "int256"
        },
        {
          "name": "fundingCNS",
          "type": "int256",
          "indexed": false,
          "internalType": "int256"
        }
      ],
      "anonymous": false
    },
    {
      "type": "event",
      "name": "PositionDeleveraged",
      "inputs": [
        {
          "name": "perpId",
          "type": "uint256",
          "indexed": false,
          "internalType": "uint256"
        },
        {
          "name": "accountId",
          "type": "uint256",
          "indexed": false,
          "internalType": "uint256"
        },
        {
          "name": "forceClose",
          "type": "bool",
          "indexed": false,
          "internalType": "bool"
        },
        {
          "name": "positionType",
          "type": "uint8",
          "indexed": false,
          "internalType": "enum PositionEnum"
        },
        {
          "name": "entryPricePNS",
          "type": "uint256",
          "indexed": false,
          "internalType": "uint256"
        },
        {
          "name": "markPricePNS",
          "type": "uint256",
          "indexed": false,
          "internalType": "uint256"
        },
        {
          "name": "deleveragePricePNS",
          "type": "uint256",
          "indexed": false,
          "internalType": "uint256"
        },
        {
          "name": "deltaPnlCNS",
          "type": "int256",
          "indexed": false,
          "internalType": "int256"
        },
        {
          "name": "fundingCNS",
          "type": "int256",
          "indexed": false,
          "internalType": "int256"
        },
        {
          "name": "startDepositCNS",
          "type": "uint256",
          "indexed": false,
          "internalType": "uint256"
        },
        {
          "name": "endDepositCNS",
          "type": "uint256",
          "indexed": false,
          "internalType": "uint256"
        },
        {
          "name": "startLotLNS",
          "type": "uint256",
          "indexed": false,
          "internalType": "uint256"
        },
        {
          "name": "endLotLNS",
          "type": "uint256",
          "indexed": false,
          "internalType": "uint256"
        },
        {
          "name": "amountCNS",
          "type": "uint256",
          "indexed": false,
          "internalType": "uint256"
        },
        {
          "name": "balanceCNS",
          "type": "uint256",
          "indexed": false,
          "internalType": "uint256"
        }
      ],
      "anonymous": false
    },
    {
      "type": "event",
      "name": "PositionDoesNotExist",
      "inputs": [
        {
          "name": "perpId",
          "type": "uint256",
          "indexed": false,
          "internalType": "uint256"
        },
        {
          "name": "accountId",
          "type": "uint256",
          "indexed": false,
          "internalType": "uint256"
        }
      ],
      "anonymous": false
    },
    {
      "type": "event",
      "name": "PositionIncreased",
      "inputs": [
        {
          "name": "perpId",
          "type": "uint256",
          "indexed": false,
          "internalType": "uint256"
        },
        {
          "name": "accountId",
          "type": "uint256",
          "indexed": false,
          "internalType": "uint256"
        },
        {
          "name": "positionType",
          "type": "uint8",
          "indexed": false,
          "internalType": "enum PositionEnum"
        },
        {
          "name": "leverageHdths",
          "type": "uint256",
          "indexed": false,
          "internalType": "uint256"
        },
        {
          "name": "startDepositCNS",
          "type": "uint256",
          "indexed": false,
          "internalType": "uint256"
        },
        {
          "name": "endDepositCNS",
          "type": "uint256",
          "indexed": false,
          "internalType": "uint256"
        },
        {
          "name": "pricePNS",
          "type": "uint256",
          "indexed": false,
          "internalType": "uint256"
        },
        {
          "name": "startLotLNS",
          "type": "uint256",
          "indexed": false,
          "internalType": "uint256"
        },
        {
          "name": "endLotLNS",
          "type": "uint256",
          "indexed": false,
          "internalType": "uint256"
        },
        {
          "name": "insFeeCNS",
          "type": "uint256",
          "indexed": false,
          "internalType": "uint256"
        },
        {
          "name": "protFeeCNS",
          "type": "uint256",
          "indexed": false,
          "internalType": "uint256"
        }
      ],
      "anonymous": false
    },
    {
      "type": "event",
      "name": "PositionInverted",
      "inputs": [
        {
          "name": "perpId",
          "type": "uint256",
          "indexed": false,
          "internalType": "uint256"
        },
        {
          "name": "accountId",
          "type": "uint256",
          "indexed": false,
          "internalType": "uint256"
        },
        {
          "name": "positionType",
          "type": "uint8",
          "indexed": false,
          "internalType": "enum PositionEnum"
        },
        {
          "name": "leverageHdths",
          "type": "uint256",
          "indexed": false,
          "internalType": "uint256"
        },
        {
          "name": "startDepositCNS",
          "type": "uint256",
          "indexed": false,
          "internalType": "uint256"
        },
        {
          "name": "endDepositCNS",
          "type": "uint256",
          "indexed": false,
          "internalType": "uint256"
        },
        {
          "name": "pricePNS",
          "type": "uint256",
          "indexed": false,
          "internalType": "uint256"
        },
        {
          "name": "startLotLNS",
          "type": "uint256",
          "indexed": false,
          "internalType": "uint256"
        },
        {
          "name": "endLotLNS",
          "type": "uint256",
          "indexed": false,
          "internalType": "uint256"
        },
        {
          "name": "deltaPnlCNS",
          "type": "int256",
          "indexed": false,
          "internalType": "int256"
        },
        {
          "name": "fundingCNS",
          "type": "int256",
          "indexed": false,
          "internalType": "int256"
        },
        {
          "name": "insFeeCNS",
          "type": "uint256",
          "indexed": false,
          "internalType": "uint256"
        },
        {
          "name": "protFeeCNS",
          "type": "uint256",
          "indexed": false,
          "internalType": "uint256"
        }
      ],
      "anonymous": false
    },
    {
      "type": "event",
      "name": "PositionLiquidated",
      "inputs": [
        {
          "name": "perpId",
          "type": "uint256",
          "indexed": false,
          "internalType": "uint256"
        },
        {
          "name": "posAccountId",
          "type": "uint256",
          "indexed": false,
          "internalType": "uint256"
        },
        {
          "name": "positionType",
          "type": "uint8",
          "indexed": false,
          "internalType": "enum PositionEnum"
        },
        {
          "name": "markPricePNS",
          "type": "uint256",
          "indexed": false,
          "internalType": "uint256"
        },
        {
          "name": "liqPricePNS",
          "type": "uint256",
          "indexed": false,
          "internalType": "uint256"
        },
        {
          "name": "liqLotLNS",
          "type": "uint256",
          "indexed": false,
          "internalType": "uint256"
        },
        {
          "name": "posLotLNS",
          "type": "uint256",
          "indexed": false,
          "internalType": "uint256"
        },
        {
          "name": "deltaPnlCNS",
          "type": "int256",
          "indexed": false,
          "internalType": "int256"
        },
        {
          "name": "fundingCNS",
          "type": "int256",
          "indexed": false,
          "internalType": "int256"
        },
        {
          "name": "posAmountCNS",
          "type": "int256",
          "indexed": false,
          "internalType": "int256"
        },
        {
          "name": "posDepositCNS",
          "type": "uint256",
          "indexed": false,
          "internalType": "uint256"
        },
        {
          "name": "accAmountCNS",
          "type": "int256",
          "indexed": false,
          "internalType": "int256"
        },
        {
          "name": "accBalanceCNS",
          "type": "uint256",
          "indexed": false,
          "internalType": "uint256"
        },
        {
          "name": "onOrderBook",
          "type": "bool",
          "indexed": false,
          "internalType": "bool"
        }
      ],
      "anonymous": false
    },
    {
      "type": "event",
      "name": "PositionLiquidationCredit",
      "inputs": [
        {
          "name": "perpId",
          "type": "uint256",
          "indexed": false,
          "internalType": "uint256"
        },
        {
          "name": "accountId",
          "type": "uint256",
          "indexed": false,
          "internalType": "uint256"
        },
        {
          "name": "startDepositCNS",
          "type": "uint256",
          "indexed": false,
          "internalType": "uint256"
        },
        {
          "name": "endDepositCNS",
          "type": "uint256",
          "indexed": false,
          "internalType": "uint256"
        }
      ],
      "anonymous": false
    },
    {
      "type": "event",
      "name": "PositionOpened",
      "inputs": [
        {
          "name": "perpId",
          "type": "uint256",
          "indexed": false,
          "internalType": "uint256"
        },
        {
          "name": "accountId",
          "type": "uint256",
          "indexed": false,
          "internalType": "uint256"
        },
        {
          "name": "positionType",
          "type": "uint8",
          "indexed": false,
          "internalType": "enum PositionEnum"
        },
        {
          "name": "leverageHdths",
          "type": "uint256",
          "indexed": false,
          "internalType": "uint256"
        },
        {
          "name": "depositCNS",
          "type": "uint256",
          "indexed": false,
          "internalType": "uint256"
        },
        {
          "name": "pricePNS",
          "type": "uint256",
          "indexed": false,
          "internalType": "uint256"
        },
        {
          "name": "lotLNS",
          "type": "uint256",
          "indexed": false,
          "internalType": "uint256"
        },
        {
          "name": "insFeeCNS",
          "type": "uint256",
          "indexed": false,
          "internalType": "uint256"
        },
        {
          "name": "protFeeCNS",
          "type": "uint256",
          "indexed": false,
          "internalType": "uint256"
        }
      ],
      "anonymous": false
    },
    {
      "type": "event",
      "name": "PositionUnwound",
      "inputs": [
        {
          "name": "perpId",
          "type": "uint256",
          "indexed": false,
          "internalType": "uint256"
        },
        {
          "name": "accountId",
          "type": "uint256",
          "indexed": false,
          "internalType": "uint256"
        },
        {
          "name": "markPricePNS",
          "type": "uint256",
          "indexed": false,
          "internalType": "uint256"
        },
        {
          "name": "positionType",
          "type": "uint8",
          "indexed": false,
          "internalType": "enum PositionEnum"
        },
        {
          "name": "pricePNS",
          "type": "uint256",
          "indexed": false,
          "internalType": "uint256"
        },
        {
          "name": "lotLNS",
          "type": "uint256",
          "indexed": false,
          "internalType": "uint256"
        },
        {
          "name": "depositCNS",
          "type": "uint256",
          "indexed": false,
          "internalType": "uint256"
        },
        {
          "name": "positionFmvCNS",
          "type": "int256",
          "indexed": false,
          "internalType": "int256"
        },
        {
          "name": "paymentCNS",
          "type": "uint256",
          "indexed": false,
          "internalType": "uint256"
        },
        {
          "name": "balanceCNS",
          "type": "uint256",
          "indexed": false,
          "internalType": "uint256"
        }
      ],
      "anonymous": false
    },
    {
      "type": "event",
      "name": "PositionUnwoundWithoutPayment",
      "inputs": [
        {
          "name": "perpId",
          "type": "uint256",
          "indexed": false,
          "internalType": "uint256"
        },
        {
          "name": "accountId",
          "type": "uint256",
          "indexed": false,
          "internalType": "uint256"
        },
        {
          "name": "markPricePNS",
          "type": "uint256",
          "indexed": false,
          "internalType": "uint256"
        },
        {
          "name": "positionType",
          "type": "uint8",
          "indexed": false,
          "internalType": "enum PositionEnum"
        },
        {
          "name": "pricePNS",
          "type": "uint256",
          "indexed": false,
          "internalType": "uint256"
        },
        {
          "name": "lotLNS",
          "type": "uint256",
          "indexed": false,
          "internalType": "uint256"
        },
        {
          "name": "depositCNS",
          "type": "uint256",
          "indexed": false,
          "internalType": "uint256"
        },
        {
          "name": "positionFmvCNS",
          "type": "int256",
          "indexed": false,
          "internalType": "int256"
        },
        {
          "name": "amountOwedCNS",
          "type": "uint256",
          "indexed": false,
          "internalType": "uint256"
        }
      ],
      "anonymous": false
    },
    {
      "type": "event",
      "name": "PostOrderUnderMinimum",
      "inputs": [
        {
          "name": "orderAmountCNS",
          "type": "uint256",
          "indexed": false,
          "internalType": "uint256"
        },
        {
          "name": "minAmountCNS",
          "type": "uint256",
          "indexed": false,
          "internalType": "uint256"
        }
      ],
      "anonymous": false
    },
    {
      "type": "event",
      "name": "PriceAdministratorUpdated",
      "inputs": [
        {
          "name": "priceAdministrator",
          "type": "address",
          "indexed": false,
          "internalType": "address"
        },
        {
          "name": "added",
          "type": "bool",
          "indexed": false,
          "internalType": "bool"
        }
      ],
      "anonymous": false
    },
    {
      "type": "event",
      "name": "PriceMaxAgeUpdated",
      "inputs": [
        {
          "name": "perpId",
          "type": "uint256",
          "indexed": false,
          "internalType": "uint256"
        },
        {
          "name": "maxAgeSec",
          "type": "uint256",
          "indexed": false,
          "internalType": "uint256"
        }
      ],
      "anonymous": false
    },
    {
      "type": "event",
      "name": "PriceOutOfRange",
      "inputs": [
        {
          "name": "minPricePNS",
          "type": "uint256",
          "indexed": false,
          "internalType": "uint256"
        },
        {
          "name": "maxPricePNS",
          "type": "uint256",
          "indexed": false,
          "internalType": "uint256"
        }
      ],
      "anonymous": false
    },
    {
      "type": "event",
      "name": "PriceTolUpdated",
      "inputs": [
        {
          "name": "perpId",
          "type": "uint256",
          "indexed": false,
          "internalType": "uint256"
        },
        {
          "name": "tolPer100k",
          "type": "uint256",
          "indexed": false,
          "internalType": "uint256"
        }
      ],
      "anonymous": false
    },
    {
      "type": "event",
      "name": "ProtocolBalanceDeposit",
      "inputs": [
        {
          "name": "amountCNS",
          "type": "uint256",
          "indexed": false,
          "internalType": "uint256"
        }
      ],
      "anonymous": false
    },
    {
      "type": "event",
      "name": "ProtocolBalanceWithdraw",
      "inputs": [
        {
          "name": "amountCNS",
          "type": "uint256",
          "indexed": false,
          "internalType": "uint256"
        }
      ],
      "anonymous": false
    },
    {
      "type": "event",
      "name": "RecycleBalanceInsufficientSevere",
      "inputs": [
        {
          "name": "accountId",
          "type": "uint256",
          "indexed": false,
          "internalType": "uint256"
        },
        {
          "name": "orderId",
          "type": "uint256",
          "indexed": false,
          "internalType": "uint256"
        },
        {
          "name": "recycleFeeCNS",
          "type": "uint256",
          "indexed": false,
          "internalType": "uint256"
        },
        {
          "name": "recycleBalanceCNS",
          "type": "uint256",
          "indexed": false,
          "internalType": "uint256"
        }
      ],
      "anonymous": false
    },
    {
      "type": "event",
      "name": "RecycleFeeUpdated",
      "inputs": [
        {
          "name": "recycleFeeCNS",
          "type": "uint256",
          "indexed": false,
          "internalType": "uint256"
        }
      ],
      "anonymous": false
    },
    {
      "type": "event",
      "name": "RecyleFeeToProtocol",
      "inputs": [
        {
          "name": "orderId",
          "type": "uint256",
          "indexed": false,
          "internalType": "uint256"
        },
        {
          "name": "recycleFeeCNS",
          "type": "uint256",
          "indexed": false,
          "internalType": "uint256"
        },
        {
          "name": "recycleBalanceCNS",
          "type": "uint256",
          "indexed": false,
          "internalType": "uint256"
        }
      ],
      "anonymous": false
    },
    {
      "type": "event",
      "name": "ReportAgeExceedsLastUpdate",
      "inputs": [
        {
          "name": "perpId",
          "type": "uint256",
          "indexed": false,
          "internalType": "uint256"
        },
        {
          "name": "lastUpdateTimestamp",
          "type": "uint256",
          "indexed": false,
          "internalType": "uint256"
        },
        {
          "name": "reportValidFromTimestamp",
          "type": "uint256",
          "indexed": false,
          "internalType": "uint256"
        }
      ],
      "anonymous": false
    },
    {
      "type": "event",
      "name": "ReportExpiresTooSoon",
      "inputs": [
        {
          "name": "perpId",
          "type": "uint256",
          "indexed": false,
          "internalType": "uint256"
        },
        {
          "name": "expiresAt",
          "type": "uint256",
          "indexed": false,
          "internalType": "uint256"
        },
        {
          "name": "minRequired",
          "type": "uint256",
          "indexed": false,
          "internalType": "uint256"
        }
      ],
      "anonymous": false
    },
    {
      "type": "event",
      "name": "ReportFromFuture",
      "inputs": [
        {
          "name": "perpId",
          "type": "uint256",
          "indexed": false,
          "internalType": "uint256"
        },
        {
          "name": "reportTimestamp",
          "type": "uint256",
          "indexed": false,
          "internalType": "uint256"
        },
        {
          "name": "blockTimestamp",
          "type": "uint256",
          "indexed": false,
          "internalType": "uint256"
        }
      ],
      "anonymous": false
    },
    {
      "type": "event",
      "name": "ReportPriceIsNegative",
      "inputs": [
        {
          "name": "perpId",
          "type": "uint256",
          "indexed": false,
          "internalType": "uint256"
        },
        {
          "name": "reportPrice",
          "type": "int256",
          "indexed": false,
          "internalType": "int256"
        }
      ],
      "anonymous": false
    },
    {
      "type": "event",
      "name": "TakerFeeUpdated",
      "inputs": [
        {
          "name": "perpId",
          "type": "uint256",
          "indexed": false,
          "internalType": "uint256"
        },
        {
          "name": "takerFeePer100K",
          "type": "uint256",
          "indexed": false,
          "internalType": "uint256"
        }
      ],
      "anonymous": false
    },
    {
      "type": "event",
      "name": "TakerOrderFilled",
      "inputs": [
        {
          "name": "entryPricePNS",
          "type": "uint256",
          "indexed": false,
          "internalType": "uint256"
        },
        {
          "name": "collatPricePNS",
          "type": "uint256",
          "indexed": false,
          "internalType": "uint256"
        },
        {
          "name": "pnlPricePNS",
          "type": "uint256",
          "indexed": false,
          "internalType": "uint256"
        },
        {
          "name": "lotLNS",
          "type": "uint256",
          "indexed": false,
          "internalType": "uint256"
        },
        {
          "name": "feeCNS",
          "type": "uint256",
          "indexed": false,
          "internalType": "uint256"
        },
        {
          "name": "amountCNS",
          "type": "int256",
          "indexed": false,
          "internalType": "int256"
        },
        {
          "name": "balanceCNS",
          "type": "uint256",
          "indexed": false,
          "internalType": "uint256"
        }
      ],
      "anonymous": false
    },
    {
      "type": "event",
      "name": "ToleranceAdministratorUpdated",
      "inputs": [
        {
          "name": "toleranceAdministrator",
          "type": "address",
          "indexed": false,
          "internalType": "address"
        },
        {
          "name": "added",
          "type": "bool",
          "indexed": false,
          "internalType": "bool"
        }
      ],
      "anonymous": false
    },
    {
      "type": "event",
      "name": "TransferAccountToProtocol",
      "inputs": [
        {
          "name": "accountId",
          "type": "uint256",
          "indexed": false,
          "internalType": "uint256"
        },
        {
          "name": "amountCNS",
          "type": "uint256",
          "indexed": false,
          "internalType": "uint256"
        },
        {
          "name": "balanceCNS",
          "type": "uint256",
          "indexed": false,
          "internalType": "uint256"
        }
      ],
      "anonymous": false
    },
    {
      "type": "event",
      "name": "TransferPerpInsToProtocol",
      "inputs": [
        {
          "name": "perpId",
          "type": "uint256",
          "indexed": false,
          "internalType": "uint256"
        },
        {
          "name": "amountCNS",
          "type": "uint256",
          "indexed": false,
          "internalType": "uint256"
        }
      ],
      "anonymous": false
    },
    {
      "type": "event",
      "name": "TransferPerpPosToProtocol",
      "inputs": [
        {
          "name": "perpId",
          "type": "uint256",
          "indexed": false,
          "internalType": "uint256"
        },
        {
          "name": "amountCNS",
          "type": "uint256",
          "indexed": false,
          "internalType": "uint256"
        }
      ],
      "anonymous": false
    },
    {
      "type": "event",
      "name": "TransferProtocolToAccount",
      "inputs": [
        {
          "name": "accountId",
          "type": "uint256",
          "indexed": false,
          "internalType": "uint256"
        },
        {
          "name": "amountCNS",
          "type": "uint256",
          "indexed": false,
          "internalType": "uint256"
        },
        {
          "name": "balanceCNS",
          "type": "uint256",
          "indexed": false,
          "internalType": "uint256"
        }
      ],
      "anonymous": false
    },
    {
      "type": "event",
      "name": "TransferProtocolToPerp",
      "inputs": [
        {
          "name": "perpId",
          "type": "uint256",
          "indexed": false,
          "internalType": "uint256"
        },
        {
          "name": "amountCNS",
          "type": "uint256",
          "indexed": false,
          "internalType": "uint256"
        },
        {
          "name": "toInsuranceFund",
          "type": "bool",
          "indexed": false,
          "internalType": "bool"
        }
      ],
      "anonymous": false
    },
    {
      "type": "event",
      "name": "TransferProtocolToRecycleBal",
      "inputs": [
        {
          "name": "amountCNS",
          "type": "uint256",
          "indexed": false,
          "internalType": "uint256"
        }
      ],
      "anonymous": false
    },
    {
      "type": "event",
      "name": "UnableToCancelOrder",
      "inputs": [
        {
          "name": "perpId",
          "type": "uint256",
          "indexed": false,
          "internalType": "uint256"
        },
        {
          "name": "orderId",
          "type": "uint256",
          "indexed": false,
          "internalType": "uint256"
        }
      ],
      "anonymous": false
    },
    {
      "type": "event",
      "name": "UnityDescentThreshUpdated",
      "inputs": [
        {
          "name": "perpId",
          "type": "uint256",
          "indexed": false,
          "internalType": "uint256"
        },
        {
          "name": "threshHdths",
          "type": "uint256",
          "indexed": false,
          "internalType": "uint256"
        }
      ],
      "anonymous": false
    },
    {
      "type": "event",
      "name": "UnspecifiedCollateral",
      "inputs": [],
      "anonymous": false
    },
    {
      "type": "event",
      "name": "UnwindCompleted",
      "inputs": [
        {
          "name": "perpId",
          "type": "uint256",
          "indexed": false,
          "internalType": "uint256"
        },
        {
          "name": "positionsUnwound",
          "type": "uint256",
          "indexed": false,
          "internalType": "uint256"
        },
        {
          "name": "perpPositionBalanceCNS",
          "type": "uint256",
          "indexed": false,
          "internalType": "uint256"
        },
        {
          "name": "insuranceBalanceCNS",
          "type": "uint256",
          "indexed": false,
          "internalType": "uint256"
        }
      ],
      "anonymous": false
    },
    {
      "type": "event",
      "name": "UnwindContractTrigger",
      "inputs": [
        {
          "name": "perpId",
          "type": "uint256",
          "indexed": false,
          "internalType": "uint256"
        }
      ],
      "anonymous": false
    },
    {
      "type": "event",
      "name": "UnwindInitializationCleared",
      "inputs": [
        {
          "name": "perpId",
          "type": "uint256",
          "indexed": false,
          "internalType": "uint256"
        }
      ],
      "anonymous": false
    },
    {
      "type": "event",
      "name": "UnwindInitialized",
      "inputs": [
        {
          "name": "perpId",
          "type": "uint256",
          "indexed": false,
          "internalType": "uint256"
        },
        {
          "name": "sumPositiveFmvCNS",
          "type": "uint256",
          "indexed": false,
          "internalType": "uint256"
        }
      ],
      "anonymous": false
    },
    {
      "type": "event",
      "name": "UnwindInsufficientBalance",
      "inputs": [
        {
          "name": "perpId",
          "type": "uint256",
          "indexed": false,
          "internalType": "uint256"
        },
        {
          "name": "accountId",
          "type": "uint256",
          "indexed": false,
          "internalType": "uint256"
        },
        {
          "name": "perpPositionBalanceCNS",
          "type": "uint256",
          "indexed": false,
          "internalType": "uint256"
        },
        {
          "name": "paymentCNS",
          "type": "uint256",
          "indexed": false,
          "internalType": "uint256"
        }
      ],
      "anonymous": false
    },
    {
      "type": "event",
      "name": "UnwindIterationCompleted",
      "inputs": [
        {
          "name": "perpId",
          "type": "uint256",
          "indexed": false,
          "internalType": "uint256"
        },
        {
          "name": "positionsUnwound",
          "type": "uint256",
          "indexed": false,
          "internalType": "uint256"
        },
        {
          "name": "perpPositionBalanceCNS",
          "type": "uint256",
          "indexed": false,
          "internalType": "uint256"
        },
        {
          "name": "insuranceBalanceCNS",
          "type": "uint256",
          "indexed": false,
          "internalType": "uint256"
        }
      ],
      "anonymous": false
    },
    {
      "type": "event",
      "name": "UnwindPrepared",
      "inputs": [
        {
          "name": "perpId",
          "type": "uint256",
          "indexed": false,
          "internalType": "uint256"
        }
      ],
      "anonymous": false
    },
    {
      "type": "event",
      "name": "UnwindProcessInProgress",
      "inputs": [
        {
          "name": "perpId",
          "type": "uint256",
          "indexed": false,
          "internalType": "uint256"
        }
      ],
      "anonymous": false
    },
    {
      "type": "event",
      "name": "UpdateOracleFailed",
      "inputs": [
        {
          "name": "perpId",
          "type": "uint256",
          "indexed": false,
          "internalType": "uint256"
        }
      ],
      "anonymous": false
    },
    {
      "type": "event",
      "name": "Upgraded",
      "inputs": [
        {
          "name": "implementation",
          "type": "address",
          "indexed": true,
          "internalType": "address"
        }
      ],
      "anonymous": false
    },
    {
      "type": "event",
      "name": "WRLSMinWithdrawLimitUpdated",
      "inputs": [
        {
          "name": "limitCNS",
          "type": "uint256",
          "indexed": false,
          "internalType": "uint256"
        }
      ],
      "anonymous": false
    },
    {
      "type": "event",
      "name": "WRLSThousandthsTvlUpdated",
      "inputs": [
        {
          "name": "thousandthsTvl",
          "type": "uint256",
          "indexed": false,
          "internalType": "uint256"
        }
      ],
      "anonymous": false
    },
    {
      "type": "event",
      "name": "WhitelistAddress",
      "inputs": [
        {
          "name": "addr",
          "type": "address",
          "indexed": true,
          "internalType": "address"
        },
        {
          "name": "whitelisted",
          "type": "bool",
          "indexed": false,
          "internalType": "bool"
        }
      ],
      "anonymous": false
    },
    {
      "type": "event",
      "name": "WhitelistingEnabledChanged",
      "inputs": [
        {
          "name": "enabled",
          "type": "bool",
          "indexed": false,
          "internalType": "bool"
        }
      ],
      "anonymous": false
    },
    {
      "type": "event",
      "name": "WithdrawRateLimitBypassSet",
      "inputs": [
        {
          "name": "addr",
          "type": "address",
          "indexed": true,
          "internalType": "address"
        },
        {
          "name": "enabled",
          "type": "bool",
          "indexed": false,
          "internalType": "bool"
        }
      ],
      "anonymous": false
    },
    {
      "type": "event",
      "name": "WithdrawRateLimitForceReset",
      "inputs": [
        {
          "name": "newExpiryBlock",
          "type": "uint256",
          "indexed": false,
          "internalType": "uint256"
        },
        {
          "name": "newLimitCNS",
          "type": "uint256",
          "indexed": false,
          "internalType": "uint256"
        },
        {
          "name": "perBlockCNS",
          "type": "uint256",
          "indexed": false,
          "internalType": "uint256"
        }
      ],
      "anonymous": false
    },
    {
      "type": "event",
      "name": "WithdrawRateLimitReset",
      "inputs": [
        {
          "name": "newExpiryBlock",
          "type": "uint256",
          "indexed": false,
          "internalType": "uint256"
        },
        {
          "name": "newLimitCNS",
          "type": "uint256",
          "indexed": false,
          "internalType": "uint256"
        },
        {
          "name": "perBlockCNS",
          "type": "uint256",
          "indexed": false,
          "internalType": "uint256"
        }
      ],
      "anonymous": false
    },
    {
      "type": "event",
      "name": "WrongAccountForOrder",
      "inputs": [
        {
          "name": "perpId",
          "type": "uint256",
          "indexed": false,
          "internalType": "uint256"
        },
        {
          "name": "orderId",
          "type": "uint256",
          "indexed": false,
          "internalType": "uint256"
        },
        {
          "name": "accountId",
          "type": "uint256",
          "indexed": false,
          "internalType": "uint256"
        }
      ],
      "anonymous": false
    }
  ],
  "bytecode": {
    "object": "0x60a080604052346100dc57306080525f549060ff8260081c1661008a575060ff80821603610050575b6040516201ada59081620000e1823960805181818161582201528181615c8d01526164410152f35b60ff90811916175f557f7f26b83ff96e1f2b6a682f133852f6798a09c465da95921460cefb3847402498602060405160ff8152a15f610028565b62461bcd60e51b815260206004820152602760248201527f496e697469616c697a61626c653a20636f6e747261637420697320696e697469604482015266616c697a696e6760c81b6064820152608490fd5b5f80fdfe61084080604052600436101562000014575f80fd5b5f905f3560e01c908162092cce14620076f7575080630189a2b7146200765757806303cfe83c14620075b457806305aca141146200757e5780630697afae14620074f5578063075367f614620074cb5780630a039fbd14620074855780630a2eb30114620074445780630d3e87a714620074265780630e517f4114620073665780630f03e4c3146200733a5780631201415614620072795780631275d14c146200724457806312e8eb2c146200719357806316a06593146200710057806316a483ea14620070e2578063171a5b811462006e79578063182b01f21462006e2f5780631973c6191462006df15780631df87ade1462006d835780631eebd35e1462006b6257806320c801d21462006ad0578063229c24921462006a32578063252c359414620069a75780632709b7461462006913578063279289e914620068865780632f32509b146200677f57806332b9203b14620066bb5780633659cfe6146200641657806338ecd885146200633e578063396d7e4714620062ff5780633a63dabe14620062e15780633bf45a2f14620062a05780634119f930146200626b57806343559bbf146200622957806345c8c924146200618e5780634a9a415814620061045780634b8344fb146200603b5780634d3282b41462005fc45780634d574c561462005f295780634f1ef2861462005c4657806350ef5c351462005ad95780635180d5a814620058de57806352d1902d146200580657806354056119146200578c578063541b04e9146200572a5780635495086a14620056a757806358087a741462005622578063586d92ca14620055905780635b0c29eb146200556c5780635bf9264c14620055075780635e1a357314620054945780635f40c1f7146200543057806360ad17fd14620052d15780636112fe2e14620051c757806361bd6f4414620050f0578063653a6bd714620050995780636728641b14620050485780636825e9e51462004fbf578063697521591462004e7f5780636b69ebbe1462004cc05780636debf8fa1462004c6c578063715018a61462004bff578063751de4211462004a3f57806379609c1114620048c75780637962f91014620047c257806379ba509714620047275780637cca3b0614620044f25780637d45678e146200444f5780637dd7e75914620044175780637ddbdc2a146200434f57806387c95058146200428d578063893d20e81462003e435780638a92464014620041b75780638bc5b3c514620041435780638bcf1b271462003fee5780638c0311641462003f245780638c1c2cef1462003e6b5780638da5cb5b1462003e435780638f3ffc851462003dac57806392f54b3a14620034c35780639a6d7630146200346e5780639d2ec18814620033a15780639e430eda146200318f5780639fc8afd714620030fb5780639fffdfe214620030d4578063a5e9c4111462002fe5578063a87041d11462002fa4578063a9bd5cee1462002ee2578063abce7b201462002e53578063ae0d44421462002e12578063af3176da1462002d7f578063af37c07d1462002c8c578063b10824861462002bc5578063b216d0d21462002b49578063b5cd004e1462002a91578063b5fcf7621462002a65578063b839a8c414620029ab578063ba53027d1462002967578063bad4a01f1462002925578063bbf979ac146200288c578063be0783f51462002818578063be70473d1462002738578063bed97b7114620026d2578063c2852f381462002602578063c4d66de814620022dd578063c7ff158414620022b4578063cab1391514620020e3578063d360dd311462002073578063d3b8c49d1462001fca578063d541abc11462001f32578063d6f34bd61462001eb7578063d780ece81462001e2c578063d8b442681462001deb578063d936547e1462001daa578063dbfbf7e81462001d69578063dd0a3e2b1462001ca6578063ddac1cde1462001838578063dec92b691462001818578063e2e1cb57146200176d578063e30c39781462001744578063e548bb571462001693578063e5631c9e14620015b5578063e68073c314620014f9578063e74e2c9b1462001496578063eaadbbef146200146f578063ebcf165614620013f3578063ecdff22e14620012eb578063ed6760fe14620011f9578063edb1314e14620011c4578063efb6290414620010fc578063f28b98f3146200105c578063f2fde38b1462000fe6578063f769f0d31462000f2d578063fb05acb7146200094a578063fb455f6b14620008d95763fe37fe12146200068b575f80fd5b34620008d6576200069c3662007c3d565b919081809381620006bd620006b2829562009e85565b92600984016200d12c565b508060108401915b620006ef5760408051888152602081018a90529081018690526060810187905280608081015b0390f35b825280602052604082205461ffff8160c81c169663ffffffff82169182855260d560205260ff604086205460a01c16620007298162007b81565b620008cb5764ffffffffff8160401c169260ff8260201c16906200074d826200faa3565b620007dc575b5063ffffffff6200076862000773926200fad1565b9260781c166200f243565b620007a85715620007925787916200078b916200861a565b96620006c5565b96948591620007a1916200861a565b94620006c5565b9798909715620007c6578891620007bf916200861a565b97620006c5565b97958691620007d5916200861a565b95620006c5565b86526012870160205260408620620007f48262007b81565b60028214905464ffffffffff8160b81c169182151591826200083c575b5050156200082f57808511156200075357935063ffffffff62000753565b50505096809150620006c5565b90915081806200089c575b821562000859575b50505f8062000811565b159150816200086c575b505f806200084f565b60ff915060401c16600281101562000888576001145f62000863565b634e487b7160e01b88526021600452602488fd5b915060ff8160401c166002811015620008b757159162000847565b634e487b7160e01b8a52602160045260248afd5b5096809150620006c5565b80fd5b5034620008d657620008eb3662007c3d565b919062ffffff83116200093057602092600c6200090c620009139362009e85565b016200f989565b905f19821462000927575b50604051908152f35b90505f6200091e565b5060449163c6ebaaa160e01b825260045262ffffff602452fd5b5034620008d6576200095c3662007c84565b60a09291925260c05233825260dc60205260ff6040832054161562000f1a576200098562009fbb565b62000f0b576200099760c05162009e85565b9160ff835460c01c1660058110158062000ef75760028214158062000ee9575b62000ed45762000ec05760030362000e70575b6001600160501b036003840154166004840154608052600584015463ffffffff855416839163ffffffff601188015416925b8315158062000e66575b1562000e595783865260128801602052604086209380875260d5602052604087209084865462000a7462000a5f8d64ffffffffff8460b81c169063ffffffff8560981c16908560e01c908760ff8860401c16916200ce92565b50506001600160501b038360481c166200d42c565b8a918280831362000bea575b9362000b389363ffffffff9362000b45979362000b4b9a99975f1462000b5157917f2ce44e296cf9f36d06b56fb77dfebb744f984a66a7a32a9c1982adde5719a10893916001600160501b03610120946040519460c0518652886020870152604086015262000af96060860160ff8360401c1662007e3c565b888160981c16608086015264ffffffffff8160b81c1660a086015260481c1660c084015260e0830152610100820152a15b9854169760118d0162012bd1565b600560c051910162012cdd565b6200871c565b620009fc565b610140927f8e75a224410b0b5b54b88738c69eb996a4225e1720432903a1b03693c3fcb6f894926001600160501b03808b5416936040519560c0518752896020880152604087015262000bae6060870160ff8360401c1662007e3c565b898160981c16608087015264ffffffffff8160b81c1660a087015260481c1660c085015260e0840152610100830152610120820152a162000b2a565b608051909450919250901562000e525762000c1360805162000c0d848a62008585565b620085d9565b80938b82115f1462000e14575060019060a0511562000c595750938862000b4b97969462000b389463ffffffff9462000b45985b9397999a509397509350935062000a80565b969a9b9d9c50505050509450507f8c6452308f4aa5da3dd7582bf4f08c41c0bd9378806d96ce939fbddad72bf926925062000cb79150604051918291878660c051859094939260609260808301968352602083015260408201520152565b0390a15b1562000d3757600392909201805469ffffffffffffffffffff19166001600160501b0383811691909117918290556040805160c0518152602081019590955284019290925260501c1660608201527f2a562f7b66b9d232c3f7a19384fbcff970c9fec0f42ac7ef9ea592fbcb848d209080608081015b0390a180f35b60038301546040805160c05181526020810193909352820183905260501c6001600160501b0316606082018190529162000db1917fa9b78fd50db3a3e2b070cb8d415b5a3cd12f80614e74626415f2bcf20ae81d0c9080608081015b0390a160038401805469ffffffffffffffffffff191690556200d209565b8062000dea575b50600581018290556004810182905560028101805469ffffffffffffffffffff19169055805460ff60c01b1916905580f35b60038201805469ffffffffffffffffffff60501b1916905562000e0d906200d209565b5f62000db8565b919294909a62000e2a8c8b9299989699620085cb565b9b62000e3790866200c45c565b62000b4b9762000b459662000b389563ffffffff9562000c47565b8a62000c13565b9394969550505062000cbb565b5086811062000a06565b6001600160501b036003840162000ea282825460501c1669ffffffffffffffffffff60501b198354168355866200f76f565b54166005840155600360c01b60ff60c01b19845416178355620009ca565b634e487b7160e01b82526021600452602482fd5b631750b76d60e11b835260c051600452602483fd5b5050816003821415620009b7565b634e487b7160e01b83526021600452602483fd5b630b15863d60e41b8252600482fd5b631d37e03560e31b825233600452602482fd5b5034620008d65762000f3f3662007c3d565b62000f4c92919262009fbb565b62000f0b5762000f5c336200a911565b80835260d56020526040832060ff815460a01c1662000f7b8162007b81565b8062000fc7575062000fa162000f918662009e85565b9560ff875460c01c16906200a969565b50821562000fb85762000fb593946200f7ae565b80f35b631fccd51f60e01b8452600484fd5b63e0860e5f60e01b8552602490859062000fe18162007b81565b600452fd5b5034620008d6576020366003190112620008d6576001600160a01b036200100c62007c26565b6200101662009ed6565b16806001600160a01b031960655416176065556001600160a01b03603354167f38d16b8cac22d99fc7c124b9cd0de2d3fa1faef420bfe791d8c362d765e227008380a380f35b5034620008d6576020366003190112620008d6576004356200107d62009ed6565b6309c3d8f0808211620010e2575060c9546200109862009f9f565b91612710613fff9104831b921b19161760c9557f8ad800de6b48db2a4430821a66e9ea34dee8c66fea63f8a83559bf91279cf77c6020620010d86200c4ae565b604051908152a180f35b60649291630c8f0a6960e41b835260045281602452604452fd5b5034620008d657620011296009620011143662007e21565b92916200112394919462009ed6565b62009e85565b016200113683826200eb1e565b600282108015620011b9575b6200119b5791604091837fbb5907b6810f0c2966db8e0939fbf4a19724f4e58e2bfd1d15195fdf8b4908a2945468ff000000000000000083861b169068ff0000000000000000191617905582519182526020820152a180f35b630c8f0a6960e41b8452600482905260026024526009604452606484fd5b506009821162001142565b5034620008d65780600319360112620008d65760209060c95490506c1fffffffffffffffffffffffff6040519160701c168152f35b5034620008d6576200120b3662007c3d565b6200121562009ed6565b620012208262009e85565b600182108015620012e0575b620012c45760020160ff815460d81c1680831115620012ad575080547fffffff00ffffffffffffffffffffffffffffffffffffffffffffffffffffffff1660e083901b60ff60e01b161790556040805192835260208301919091527fb0459c2e01b889e7e78bb7d1400cb3049a1d98ef3d6949439b173c5ffba92dd191a180f35b630ba8360160e41b85526004526024829052604484fd5b60648483630c8f0a6960e41b8252600452600160245281604452fd5b50606482116200122c565b5034620008d6576060366003190112620008d657600435906024356044356001600160401b038111620013ef576200132890369060040162008128565b33845260dc60205260ff60408520541615620013dc576200134862009fbb565b620013cd576103fc8511620013b9577f8197894e93a93f60bb4024782ca25f3402b91b549a53da47eae6287ce13d707393949162000d319160046200138d8662009f2f565b0184885260205286604081205560405194859485526020850152606060408501526060840191620095b8565b63324f0d9160e21b84526004859052602484fd5b630b15863d60e41b8452600484fd5b631d37e03560e31b845233600452602484fd5b8280fd5b5034620008d6576020366003190112620008d6576004356200141462009fbb565b62000f0b5760407f25cb41632994165977216ca86070cf4f14c696e259419044e9d2de44c5955c5c9162001448336200a911565b6004620014558262009f2f565b01828652602052848381205582519182526020820152a180f35b5034620008d65762000fb5620014853662007c3d565b906200149062009ed6565b62009a5a565b5034620008d6577f6bf5f38f4e94f47ae7a4d6e56dbf388c856f890b5f0f2808b66914710b0266ca6040620014cb3662007c3d565b620014d562009ed6565b620014eb81620014e58462009e85565b6200ea32565b82519182526020820152a180f35b5034620008d6576200150b3662007c84565b906200151662009ed6565b60c9546001600160701b0316818110620015a15750916060917fe3bcf60a5994e7328c2ddfbbf2c18d6e57c1cc69502d1ee3900c1e1f08ca555d936200155c8362009e85565b62001567826200aa24565b81831562001590576200157a916200f78b565b604051928352602083015215156040820152a180f35b6200159b916200f76f565b6200157a565b62fae2d560e21b8552600452602452604483fd5b5034620008d6576020366003190112620008d657600435620015d662009ed6565b620015e18162009e85565b805460ff8160c01c1660058110156200167f57600181146200166b576200165757916020916200163c63ffffffff7f398693be005c0e64e1ef16ed7453155535d078a14ebb77360c1409b8e6f63c209560c81c16836200f753565b600160c01b60ff60c01b19825416179055604051908152a180f35b631512f56d60e31b84526004839052602484fd5b631676040360e01b85526004849052602485fd5b634e487b7160e01b85526021600452602485fd5b5034620008d6576020366003190112620008d6576004356001600160401b03811162001740573660238201121562001740578060040135906001600160401b038211620013ef573660248360061b83010111620013ef5733835260da60205260ff604084205416156200172d576200170a62009fbb565b6200171e5790602462000fb5920162009b56565b630b15863d60e41b8352600483fd5b63a37849fb60e01b835233600452602483fd5b5080fd5b5034620008d65780600319360112620008d65760206001600160a01b0360655416604051908152f35b5034620008d6576200177f3662007c3d565b6200178962009ed6565b620017948262009e85565b600281015461ffff8160c81c1680841015620017dc57857f9c6091bfb36035e2973fb3ad5c07d8c5d74d0981770feea276a41c4221246f0e60408787620014eb81896200ea67565b6040516322b85af560e11b8152600481018690526024810185905260b89290921c61ffff908116604484015216606482015280608481015b0390fd5b5034620008d65780600319360112620008d657602060cd54604051908152f35b5034620008d6576200184a3662007c84565b61010092919252610120526200185f62009ed6565b6200186d6101205162009e85565b9160ff835460c01c1660058110158062000ef75760028214158062001c98575b62001c825762000ec05760030362001c32575b6001600160501b03600384015416600484015460e052600584015463ffffffff855416839163ffffffff601188015416925b8315158062001c28575b1562001c1b5783865260128801602052604086209380875260d560205260408720908486546200193562000a5f8d64ffffffffff8460b81c169063ffffffff8560981c16908560e01c908760ff8860401c16916200ce92565b8a918280831362001a2b575b93620019b99363ffffffff9362000b459793620019c79a99975f14620019cd57917f2ce44e296cf9f36d06b56fb77dfebb744f984a66a7a32a9c1982adde5719a10893916001600160501b03610120946040519486518652886020870152604086015262000af96060860160ff8360401c1662007e3c565b600561012051910162012cdd565b620018d2565b610140927f8e75a224410b0b5b54b88738c69eb996a4225e1720432903a1b03693c3fcb6f894926001600160501b03808b54169360405195610120518752896020880152604087015262000bae6060870160ff8360401c1662007e3c565b60e051909450919250901562001c145762001a4e60e05162000c0d848a62008585565b80938b82115f1462001bd65750600190610100511562001a9557509388620019c7979694620019b99463ffffffff9462000b45985b9397999a509397509350935062001941565b969a9b9d9c50505050509450507f8c6452308f4aa5da3dd7582bf4f08c41c0bd9378806d96ce939fbddad72bf926925062001af49150604051918291878661012051859094939260609260808301968352602083015260408201520152565b0390a15b1562001b7457600392909201805469ffffffffffffffffffff19166001600160501b03838116919091179182905560408051610120518152602081019590955284019290925260501c1660608201527f2a562f7b66b9d232c3f7a19384fbcff970c9fec0f42ac7ef9ea592fbcb848d2090806080810162000d31565b6003830154604080516101205181526020810193909352820183905260501c6001600160501b0316606082018190529162000db1917fa9b78fd50db3a3e2b070cb8d415b5a3cd12f80614e74626415f2bcf20ae81d0c90806080810162000d93565b919294909a62001bec8c8b9299989699620085cb565b9b62001bf990866200c45c565b620019c79762000b4596620019b99563ffffffff9562001a83565b8a62001a4e565b9394969550505062001af8565b50868110620018dc565b6001600160501b036003840162001c6482825460501c1669ffffffffffffffffffff60501b198354168355866200f76f565b54166005840155600360c01b60ff60c01b19845416178355620018a0565b631750b76d60e11b835261012051600452602483fd5b50508160038214156200188d565b5034620008d6576040366003190112620008d6577fe38e0dbe12c2dcb6ba8e96202e2cdd922095935e5ca1105ddf9e86c7f79df76662001ce562007c26565b62001cef62007c54565b9062001cfa62009ed6565b811562001d46576001600160a01b038116845260dd60205260408420805460ff191660011790555b604080516001600160a01b0390921682529115156020820152908190810162000d31565b6001600160a01b038116845260dd60205260408420805460ff1916905562001d22565b5034620008d6576020366003190112620008d65760ff60406020926001600160a01b0362001d9662007c26565b16815260dc84522054166040519015158152f35b5034620008d6576020366003190112620008d65760ff60406020926001600160a01b0362001dd762007c26565b16815260e084522054166040519015158152f35b5034620008d6576020366003190112620008d65760ff60406020926001600160a01b0362001e1862007c26565b16815260db84522054166040519015158152f35b5034620008d6576020366003190112620008d65760043562001e4d62009ed6565b60018110801562001eac575b62001e90576020817fc6edc4969138bba547ff56e984b415e7a1ec1181d6199d6946c48e3a858906369260ce55604051908152a180f35b63034bd7dd60e31b8252600160045260fa602452604452606490fd5b5060fa811162001e59565b5034620008d6576020366003190112620008d65760043562001ed862009ed6565b64e8d4a51000811162001f17576020817f0fface2454d594caf83c2c1b1f8da428b41a8585fcf72713ea6ce39cd6cba9fc9260cd55604051908152a180f35b6395d41f3f60e01b825260045264e8d4a51000602452604490fd5b5034620008d65762001f443662007d0e565b9092919233835260da60205260ff604084205416156200172d5762001f6862009fbb565b6200171e576103fc841162001fb65783835260d9602052604083209362001f8f856200c39e565b62001fa45750600962000fb59394016200f1f1565b63b934a7fb60e01b8452600452602483fd5b63324f0d9160e21b83526004849052602483fd5b5034620008d6576040366003190112620008d657600435906001600160401b038211620008d65736602383011215620008d65781600401356001600160401b03811162001740573660248260071b8501011162001740576200202b62007c54565b9033835260dc60205260ff6040842054161562002060576200204c62009fbb565b6200171e57602462000fb593940162009aa2565b631d37e03560e31b835233600452602483fd5b5034620008d6576020366003190112620008d6577fa9a3e53f31ef1464015e1b64897b819880bcc9787e25987d6d4336f3613ade2660206001600160a01b03620020bc62007c26565b620020c662009ed6565b16806001600160a01b031960ca54161760ca55604051908152a180f35b5034620008d6576020366003190112620008d657600435620021046200e3a1565b6200210e62009fbb565b62000f0b5733825260df60205260ff604083205416620022a15760ff60e154168062002289575b620022765760cd548110620022605733825260d66020526040822054806200224a575060d7549060018201808311620022365763ffffffff81116200222757906020936200221a9260d75583815260d585528360406001818420019283546bffffffffffffffffffffffff80193360601b16911617845533815260d68852205563ffffffff8085161663ffffffff198254161790557f7325fb14450d3e5eb288c620b4ff1d6b43a41b33b4a4f143ae88cd4c12f99ea36040518062002211863383602090939291936001600160a01b0360408201951681520152565b0390a16200ec78565b6001609755604051908152f35b634e5bb58160e01b8452600484fd5b634e487b7160e01b84526011600452602484fd5b630c8c12bd60e31b835233600452602452604482fd5b630cfe73bb60e41b825233600452602452604490fd5b636f8bf18b60e11b825233600452602482fd5b5033825260e060205260ff6040832054161562002135565b6371fa9c9960e01b825233600452602482fd5b5034620008d65780600319360112620008d6576020620022d362009fbb565b6040519015158152f35b5034620008d6576020366003190112620008d657620022fb62007c26565b815460ff8160081c161591828093620025f4575b8015620025db575b15620025705760ff19821660011784556001600160a01b0391836200255e575b501690816001600160a01b031960cb54161760cb5560405163313ce56760e01b8152602081600481865afa8015620025535784906200250b575b60ff9150169160068303620024ef576305f5e10060cd55600160d7819055606460ce5564e8d4a5100060d35560e1805460ff1916909117905560c980547ffffffff8001fffffffffffffffffffffffffffffffffffffffffffffffffffff167b0140000000000000000000000000000000000000000000000000000017905583547f7b1f94d30e47df15616bc31716546ce84737fcf471dff8cd336c68fb810d7e6f9161010091620024349060081c60ff166200242e816200f17e565b6200f17e565b6200243f336200e86b565b8554946200246360ff8760081c1662002458816200f17e565b6200242e816200f17e565b600160975560cd5460ce5460d354906200247c6200a945565b9260ff60e154169460405196338852602088015260408701526060860152608085015260a084015260c0830152151560e0820152a1620024ba575080f35b61ff00191681557f7f26b83ff96e1f2b6a682f133852f6798a09c465da95921460cefb3847402498602060405160018152a180f35b630f30f42960e01b845260045260248290526006604452606483fd5b506020813d6020116200254a575b8162002528602093836200808e565b8101031262002546575160ff81168103620025465760ff9062002371565b8380fd5b3d915062002519565b6040513d86823e3d90fd5b61ffff19166101011784555f62002337565b60405162461bcd60e51b815260206004820152602e60248201527f496e697469616c697a61626c653a20636f6e747261637420697320616c72656160448201527f647920696e697469616c697a65640000000000000000000000000000000000006064820152608490fd5b50303b158015620023175750600160ff83161462002317565b50600160ff8316106200230f565b5034620008d6576020366003190112620008d65733815260da60205260ff60408220541615620026bf576200263662009fbb565b620026b0576200264860043562009e85565b60ff815460c01c16600581101562000ef75760041462002666575080f35b604061ffff60027f2bf3500d8e3b78624f68716bdcfccb30df6b6ef393561a3ffa32e8d357ac7e439360ff60c01b198154168155015460a81c16815190815260016020820152a180f35b630b15863d60e41b8152600490fd5b63a37849fb60e01b815233600452602490fd5b5034620008d65780600319360112620008d657620026ef62009ed6565b8060cf558060d0558060d1558060d2557f4a1c1830c45941cc05cf110c5d7424a3e493f0e42be2522c05ab26c0221062cf6060604051838152836020820152836040820152a180f35b5034620008d6576200274a3662007de1565b9033845260da60205260ff60408520541615620028055790918215159190845b82811062002776578580f35b806001600160a01b0362002798620027926001948787620099f6565b62009a07565b16875260e0602052620027ba86604089209060ff801983541691151516179055565b6001600160a01b03620027d362002792838787620099f6565b167f33e0bf3ce98fac4118d5a0a8fe49e83b6acdfdef32871c9eca20e1528d7701ba6020604051888152a2016200276a565b63a37849fb60e01b845233600452602484fd5b5034620008d6576020366003190112620008d6576004356200283962009ed6565b6309c3d8f0808211620010e2575060c954612710613fff920460d51b9160d51b19161760c9557f4151e59ddd8ffe35ce0b539f837d353ed0ff884e058b715910c7f4688a5da7366020620010d86200a945565b5034620008d6576080366003190112620008d65733815260dc60205260ff604082205416156200291257620028c062009fbb565b620026b057620028d260043562009e85565b620028f161ffff600283015460a81c1660ff835460c01c16906200a969565b506064358015158103620013ef5762000fb59160443590602435906200ed64565b631d37e03560e31b815233600452602490fd5b5034620008d6576020366003190112620008d657620029436200e3a1565b6200294d62009fbb565b620026b0576200295f6004356200ec78565b600160975580f35b5034620008d657620029793662007c3d565b9033835260da60205260ff604084205416156200172d576200299a62009fbb565b6200171e579062000fb59162009a5a565b5034620008d657620029bd3662007c3d565b620029c762009ed6565b614e20811162002a495781604091620014eb62002a057f29246c8aee392e4f61a964c88192adac4afc12ed286fcbd7698783763467475f9562009e85565b80547fffffffffffffffffffffffff0000ffffffffffffffffffffffffffffffffffff16609084901b73ffff00000000000000000000000000000000000016179055565b60649291634dcc027160e11b8352600452602452614e20604452fd5b5034620008d65780600319360112620008d65760209060c95490506001600160701b0360405191168152f35b5034620008d6576020366003190112620008d65760043562002ab262009ed6565b62002abd8162009e85565b60ff815460c01c16600581101562002b35576002811462002b215760011462002ae4578280f35b7fd92eee87539b24ad02a6f03980106354cd078a3eb9c2c4257685215063c61ecd9160209160ff60c01b198154169055604051908152a15f808280f35b63aa5493c360e01b84526004839052602484fd5b634e487b7160e01b84526021600452602484fd5b5034620008d6576080366003190112620008d6576044356001600160401b038111620017405762002b7f90369060040162007cdb565b9062002b8a62007c74565b9233815260dc60205260ff60408220541615620029125762002bab62009fbb565b620026b0576020620022d385858560243560043562009a1c565b5034620008d65762002bd73662007de1565b9033845260da60205260ff60408520541615620028055790918215159190845b82811062002c03578580f35b806001600160a01b0362002c1f620027926001948787620099f6565b16875260df60205262002c4186604089209060ff801983541691151516179055565b6001600160a01b0362002c5a62002792838787620099f6565b167f78ba4d4e021eac2ff3a6a2337dc61ca2b49986705a2438b5764b9c18bd1c25fd6020604051888152a20162002bf7565b5034620008d65762002c9e3662007c3d565b919062002caa62009ed6565b62002cb58162009e85565b60018410801562002d74575b62002d585760020160ff815460d81c168085101562002d41575080547fffff00ffffffffffffffffffffffffffffffffffffffffffffffffffffffffff1660e885901b60ff60e81b1617905560408051918252602082018490527fbe36b3b0b7a3a58d54c694996c6aadba93761ca8210af4d6b72115c02aa210e491a180f35b63291eed9d60e01b84526004859052602452604483fd5b60648385630c8f0a6960e41b8252600452600160245281604452fd5b506064841162002cc1565b5034620008d6576040366003190112620008d6576004356001600160401b03811162001740573660238201121562001740578060040135906001600160401b038211620013ef573660246101c0840283010111620013ef5762002de162007c54565b9262002dec62009fbb565b620026b057620006eb62002e0585856024860162009891565b6040519182918262008158565b5034620008d6576020366003190112620008d65760ff60406020926001600160a01b0362002e3f62007c26565b16815260de84522054166040519015158152f35b5034620008d6576020366003190112620008d6576004356001600160401b03811162001740573660238201121562001740578060040135916001600160401b038311620008d6573660248460091b84010111620008d65733815260da60205260ff60408220541615620026bf5762002eca62009fbb565b620026b057620006eb62002e058460248501620096c4565b5034620008d6576040366003190112620008d6577f6259c67b83c17d274bef178edcf79755337c12fdc6de65b955b5ab3f95e82e0562002f2162007c26565b62002f2b62007c54565b9062002f3662009ed6565b811562002f81576001600160a01b038116845260db60205260408420805460ff19166001179055604080516001600160a01b0390921682529115156020820152908190810162000d31565b6001600160a01b038116845260db60205260408420805460ff1916905562001d22565b5034620008d6576020366003190112620008d65760ff60406020926001600160a01b0362002fd162007c26565b16815260dd84522054166040519015158152f35b5034620008d65762002ff73662007c3d565b6200300162009ed6565b6200300c8262009e85565b60ff815460c01c1660058110156200167f5760038114620030c05760028114620030ac575f1901620030985791818360409360047f7101921841f3f86b1db94836f0b095d276833a7b6669c5d7628161978ae7e686960155780200000000000000000000000000000000000000000000000060ff60c01b1982541617905582519182526020820152a180f35b633f6d6f9960e01b84526004839052602484fd5b63aa5493c360e01b85526004849052602485fd5b633534376760e21b85526004849052602485fd5b5034620008d65780600319360112620008d6576020620030f36200c488565b604051908152f35b5034620008d65760a0366003190112620008d6576200311962007c12565b906200312462007c74565b608435908115158203620013ef5733835260db60205260ff604084205416156200317c576200315262009fbb565b6200171e5762000fb5929363ffffffff6200316f60043562009e85565b911690602435906200de26565b636dfc4d6160e11b835233600452602483fd5b5034620008d6576040366003190112620008d657600435620031b062007c54565b620031ba62009ed6565b620031c58262009e85565b90815460ff8160c01c1693620031dc85826200eb7d565b5082158095819662003379575b5062003279575b5050156200327157825b600581101562002b35579161ffff6002837f2bf3500d8e3b78624f68716bdcfccb30df6b6ef393561a3ffa32e8d357ac7e439560ff60c01b1978ff000000000000000000000000000000000000000000000000604097549260c01b169116178155015460a81c16908251918252156020820152a180f35b6004620031fa565b600284015460f01c60ff1662003353576001600160a01b0360ca54168015801562003346575b62003326575063ffffffff8260401c16156200331457505b63ffffffff8160c81c1615620032cf575b80620031f0565b63ffffffff60c81b197cffffffff0000000000000000000000000000000000000000000000000062003301436200ec27565b91505060c81b1691161782555f620032c8565b630c5eed9d60e11b8652600452602485fd5b6006850154631744ee4f60e31b8852600492909252602452604452606485fd5b506006850154156200329f565b63ffffffff821615620033675750620032b7565b63136618cd60e01b8652600452602485fd5b905060058110156200338d57155f620031e9565b634e487b7160e01b87526021600452602487fd5b5034620008d657620033b33662007c3d565b620033bd62009ed6565b620033c88262009e85565b620186a08211620034535780547cffffffffffffffffffffffffffffffffffffffffffffffffffffffffff1660e883901b7fffffff0000000000000000000000000000000000000000000000000000000000161790556040805192835260208301919091527f95e1172237a02916c6d5aba284d04aa4e02e876b0c666387d62f03d0cd77719a91a180f35b6395d41f3f60e01b84526004829052620186a0602452604484fd5b5034620008d6577f672c0a156ee23d5a79ee89b233d6d30458115eabf152fb294cb8a894eadeeb116040620034a33662007c3d565b620034ad62009ed6565b620014eb81620034bd8462009e85565b6200eaaa565b3462003da85761014036600319011262003da8576004356001600160401b03811162003da857620034f990369060040162008128565b6024356001600160401b03811162003da8576200351b90369060040162008128565b909160443592606435926084359060a435906101043561012435916200354062009ed6565b6200354a6200e3a1565b6050871162003d71576010811162003d39576103fc891162003d2657885f5260d960205260405f20966200357e886200c39e565b62003d135760066200359186886200861a565b1162003ce857600788019a6001600160401b03821162003c2b57620035b78c546200819f565b601f811162003cb4575b505f90601f831160011462003c4b57620035f392915f918362003c3f575b50508160011b915f199060031b1c19161790565b8a555b60088701956001600160401b03821162003c2b576200361687546200819f565b601f811162003beb575b505f90601f831160011462003b82576200365192915f918362003b765750508160011b915f199060031b1c19161790565b85555b60028601805461ffff60a81b191660a88a901b61ffff60a81b16178155936006811162003b5f5786546006851162003b47577fffffffffffffffff0000ffffffffffffffffffffffffffffffffffffffffffff76ff0000000000000000000000000000000000000000000077ff00000000000000000000000000000000000000000000008760b81b169360b01b16911617178655620036f660c435876200e809565b6200370460e435876200ea32565b8181101562003b3257906200371e6200372592876200ea67565b856200e9d1565b620037308162009530565b80620f42400290620f424082040362003ae8576200374f90856200eaaa565b81547fffff000000ffffffffffffffffffffffffffffffffffffffffffffffffffffff167d555f5a000000000000000000000000000000000000000000000000000000178255600a84018054600986019291901562003b12575b5063feffffff80871162003afc5750815463ffffffff871663ffffffff1990911617825584546001860180547affffffffffffffffffffffffffffffffffffffffffffffffffffff167f09000000640000000000000000000000000000000000000000000000000000001781557fffffffffffffffffffff00000000ffffffffffffffffffffffffffffffffffff909116743c138800000000000000000000000000000000000017865583547427100000000000000000000000000000000000000061ffff60981b1990911617845561d8ef9261ffff906200388c85826200eb1e565b805468ff000000000000000019166802000000000000000017905586547cffffffffffffffffffffffffffffffffffffffffffffffffffffffffff16610c3560ec1b17875581547a010061a80061a80061a801731800823500823500000000000000007fffffffffff00000000000000000000000000000000000000ffffffffffffffff90911617825560d854620039389062003929906200871c565b978860d8555495549362009530565b9182620f42400292620f424084040362003ae85754956040519a8b9a8b5260208b016103e090526103e08b016200396f91620095d8565b8a810360408c01526200398291620095d8565b976200399960608b0160ff60c089901c1662007b73565b60808a01528460b01c60ff1660a08a01528460b81c60ff1660c08a0152808360781c1660e08a0152808360881c166101008a0152808360b81c166101208a01528260c81c166101408901526101608801526101808701605a90526101a08701605f905260e81c60ff166101c08701526101e0860161138890526102008601606490526102208601600990526102408601603c9052610260860161271090526102808601526102a085016002905260e81c6102c08501528060401c62ffffff166102e08501528060581c62ffffff166103008501528060d01c60ff1615156103208501528060701c62ffffff166103408501528060881c62ffffff166103608501528060a01c62ffffff1661038085015260b81c62ffffff166103a08401526103c0830152037fd78b2274f0f8c5fb36f3464d4fc273e80ba45dde960a535eeacf3c1ae42c4e3c91a16001609755005b634e487b7160e01b5f52601160045260245ffd5b866395d41f3f60e01b5f5260045260245260445ffd5b5f1990555f8052600b850160205260405f206001815417905588620037a9565b6322e659c160e11b5f5260045260245260445ffd5b846395d41f3f60e01b5f52600452600660245260445ffd5b6395d41f3f60e01b5f52600452600660245260445ffd5b013590508c80620035df565b601f19831691885f5260205f20925f5b81811062003bd2575090846001959493921062003bb8575b505050811b01855562003654565b01355f19600384901b60f8161c191690558b808062003baa565b9193602060018192878701358155019501920162003b92565b62003c1990885f5260205f20601f850160051c8101916020861062003c20575b601f0160051c01906200953f565b8b62003620565b909150819062003c0b565b634e487b7160e01b5f52604160045260245ffd5b013590508d80620035df565b601f198316918d5f5260205f20925f5b81811062003c9b575090846001959493921062003c81575b505050811b018a55620035f6565b01355f19600384901b60f8161c191690558c808062003c73565b9193602060018192878701358155019501920162003c5b565b62003ce1908d5f5260205f20601f850160051c8101916020861062003c2057601f0160051c01906200953f565b8c620035c1565b60848a86886040519263bc42e62760e01b845260048401526006602484015260448301526064820152fd5b8963c401953760e01b5f5260045260245ffd5b8863324f0d9160e21b5f5260045260245ffd5b604051631ffb247760e11b81526060600482015290819062003d6060648301828a620095b8565b906024830152601060448301520390fd5b60405163ab94bf3960e01b815260606004820152808862003d9760648301828f620095b8565b906024830152605060448301520390fd5b5f80fd5b3462003da857604036600319011262003da8576004356024356001600160401b03811162003da85762003de490369060040162008107565b335f5260db60205260ff60405f2054161562003e305762003e0462009fbb565b62003e21578162003e1962003e1f9362009e85565b6200e1be565b005b630b15863d60e41b5f5260045ffd5b636dfc4d6160e11b5f523360045260245ffd5b3462003da8575f36600319011262003da85760206001600160a01b0360335416604051908152f35b3462003da857602036600319011262003da85762003e8b60043562009f2f565b8054908160f01c9062003e9e82620086c3565b91600263ffffffff5f9560b01c169201915b8015158062003f1a575b1562003f0a575f528160205263ffffffff60405f2062003efe62003ede876200871c565b9662003eea8362008740565b62003ef682896200872b565b52866200872b565b505460201c1662003eb0565b60405180620006eb868262007d45565b5081851062003eba565b3462003da85762003f353662007c3d565b62003f3f62009ed6565b62003f4a8262009e85565b600281015461ffff8160c81c16808410801562003fdc575b62003fa5577f258cfea0edc89c1ba4ce7d75bd475712ab2a06ce19794e2193cbd64f182a3f786040868662003f9881886200e9d1565b82519182526020820152a1005b60405163be5707cb60e01b8152600481018690526024810185905261ffff918216604482015260b89290921c166064820152608490fd5b5061ffff8260b81c1684111562003f62565b3462003da857602036600319011262003da8575f808080600435438110156200403c575b5090620006eb91604051948594859094939260609260808301968352602083015260408201520152565b935050505060cf549060d1549160d25460d054908484115f14620040fc57505050905061217b810180821162003ae8579061085f810180911162003ae8576103e86200408e60ce5460cc549062008585565b0460d3548082115f14620040f457505b61217b810461217b81029181159282810461217b1484171562003ae857620040c691620085cb565b61085f82029282840461085f14171562003ae857620006eb92620040ea916200861a565b925b909162004012565b90506200409e565b80841162004112575b620006eb929350620040ec565b620006eb9262004132836200412c620041399488620085cb565b62008585565b906200861a565b9283925062004105565b3462003da8575f36600319011262003da85760c060cc5460c9546001600160701b03906c1fffffffffffffffffffffffff6001600160a01b0360cb5416916001600160a01b0360ca5416936040519586528116602086015260701c16604084015260066060840152608083015260a0820152f35b3462003da857602036600319011262003da857600435620041d762009ed6565b60c9546001600160701b031680821162004279575060cc5480821162004264577ffbebce9e66eea6596d62b805af61b4b1ea406128e73ffb928faa091b17d524f960208362004226816200e549565b62004231816200aa24565b6200423f8160cc54620085cb565b60cc556200425b816001600160a01b0360cb541633906200e6ff565b604051908152a1005b6303dc938760e61b5f5260045260245260445ffd5b62fae2d560e21b5f5260045260245260445ffd5b3462003da857604036600319011262003da8577f184fbff1cd7a3d3af1fd538263d79328e135402c70c68de9b795ee4fcc0440bc620042cb62007c26565b620042d562007c54565b90620042e062009ed6565b81156200432c576001600160a01b0381165f5260da60205260405f20600160ff198254161790555b604080516001600160a01b039092168252911515602082015290819081015b0390a1005b6001600160a01b0381165f5260da60205260405f2060ff19815416905562004308565b3462003da857604036600319011262003da8577ffe982a540a46b78ba39fe94b2fec322414acda6ca69e165520017d474e0dee4860606200438f62007c26565b6200439962007c54565b620043a362009ed6565b620043ae826200a911565b8115620043f4576001600160a01b0383165f5260de60205260405f20600160ff198254161790555b6001600160a01b0360405193168352602083015215156040820152a1005b6001600160a01b0383165f5260de60205260405f2060ff198154169055620043d6565b3462003da8576040620044406200443a620044323662007c3d565b919062009e85565b6200e8dd565b82519160050b82526020820152f35b3462003da857620044603662007c3d565b90335f5260dd60205260ff60405f20541615620044df576200448162009fbb565b62003e2157614e208211620044c457807f29246c8aee392e4f61a964c88192adac4afc12ed286fcbd7698783763467475f9262003f9862002a0560409462009e85565b634dcc027160e11b5f52600452602452614e2060445260645ffd5b6338095ba560e21b5f523360045260245ffd5b3462003da857602036600319011262003da8576004356200451262009ed6565b6200451d8162009e85565b90600282015464ffffffffff8116159081159162004712575b508015620046e3575b620046d15761ffff600983015460201c1680620046bb577fc1c33d1bd4abb6d1a8ed08f6a49cdf51c1db8b81ce6810a713fcd0291cc63f97602083856001600160501b036003820181815416806200466e575b505460501c16908162004620575b5050805f5260d982525f601160408220828155826001820155826002820155826003820155826004820155826005820155826006820155620045e56007820162009557565b620045f36008820162009557565b82600982015582600a82015582600c82015501556200461460d854620095ab565b60d855604051908152a1005b81620046507f6cbcbbf194e245478b88cdee7b07dd6402cf492bcef0df03eae198637a072474936040936200d966565b6200465b816200d209565b81519084825285820152a18380620045a0565b6040816200469e7f9adf439943034ba500551cd8e7417ea8cafa00933026f4e8e3612c01524d637793876200e8c1565b620046a9816200d209565b81519087825288820152a18662004592565b9063e47393c360e01b5f5260045260245260445ffd5b631bb9ae6f60e11b5f5260045260245ffd5b5060ff825460c01c166005811015620046fe5715156200453f565b634e487b7160e01b5f52602160045260245ffd5b64ffffffffff915060281c1615158362004536565b3462003da8575f36600319011262003da857336001600160a01b036065541603620047575762003e1f336200e86b565b60405162461bcd60e51b815260206004820152602960248201527f4f776e61626c6532537465703a2063616c6c6572206973206e6f74207468652060448201527f6e6577206f776e657200000000000000000000000000000000000000000000006064820152608490fd5b3462003da857602036600319011262003da857620047df62007c64565b620047e962009fbb565b62003e2157620047f9336200a911565b90815f5260d560205260405f209182549260ff8460a01c16936200481d8562007b81565b84620048a9577f743a9ef374d6b3c905b8fd725a33cc63980a202108bfd3cbf65e94a23640a02e94507fffffffffffffffffffff00ffffffffffffffffffffffffffffffffffffffffff75ff00000000000000000000000000000000000000000085151560a81b1691161790556200432760405192839283909291602090604083019483521515910152565b63e0860e5f60e01b5f5284620048bf8162007b81565b60045260245ffd5b3462003da857620048d83662007e21565b620048e262009ed6565b60098110801562004a34575b62004a1857620048fe8162009530565b808311801562004a0a575b620049d4575091620043277fca21b8a8b8d11b0faf46a19341a9e5fa3d668a48778efaff9fbec48fa21e5df0936001620049438462009e85565b0180547affffffffffffffffffffffffffffffffffffffffffffffffffffff1660d886901b7effffffff000000000000000000000000000000000000000000000000000000161760f883901b7fff0000000000000000000000000000000000000000000000000000000000000016179055604080519384526020840194909452928201929092529081906060820190565b905063ffffffff811015620049fd57915b6377b084bf60e11b5f5260045260245260445260645ffd5b5063ffffffff91620049e5565b5063ffffffff831162004909565b633361596f60e11b5f526004526009602452602460445260645ffd5b5060248111620048ee565b3462003da85762004a6762004a543662007c3d565b919062004a60620089de565b5062009e85565b90805f526012820160205260405f20916040519262004a868462007fe4565b5463ffffffff81168452602084019163ffffffff8260201c168352604085019462004ab860ff8460401c168762008a31565b60608101916001600160501b038460481c168352608082019463ffffffff8560981c16865260a083019464ffffffffff8160b81c16865260c084019060e01c815262004b04836200ce47565b505050958615978862004bef575b8a51966002881015620046fe5762004b4663ffffffff989689978887511689865116918d64ffffffffff895116946200ce92565b999197909851169551169b516002811015620046fe576101a09c63ffffffff64ffffffffff816001600160501b0362004bab9651169651169651169651169660206040519e8f9062004b988262008000565b8152015260408d015260608c0162008a31565b60808a015260a089015260c088015260e087015261010086015261012085015261014084015262004be0604051809462007e4a565b61016083015215610180820152f35b845463ffffffff16975062004b12565b3462003da8575f36600319011262003da85762004c1b62009ed6565b6001600160a01b0319606554166065555f6001600160a01b036033546001600160a01b03198116603355167f8be0079c531659141344cd1fd0a4f28419497f9722a3daafe3b4186f6b6457e08280a3005b3462003da8577f8e37539629486a88c6a6083eb90030fb61cb856d56d96f53a326fda0d399ef32604062004ca03662007c3d565b62004caa62009ed6565b62003f988162004cba8462009e85565b6200e809565b3462003da8576101c036600319011262003da85762004cde62009516565b5062004ce962009fbb565b62003e215762004cf9336200a911565b805f5260d560205260405f209060ff825460a01c1662004d198162007b81565b8015158062004e67575b62004e5257506024359062004d388262009e85565b9060443593600785101562003da85760e4358015159081810362003da8575061010435948515159586810362003da8575061012435908115159788830362003da85760409862004e40987f16356f6546077582bb45c3a709f88eb52c14ea7c474380c2fe70bbf61519b3c595610200955062004dd45a948d519687528a60208801526004358e880152606435606088015260808701906200831d565b60843560a086015260a43560c086015260c43560e08601526101008501526101208401526101408301526101443561016083015261016435610180830152610184356101a08301526101a4356101c08301526101e0820152a161ffff600284015460781c16926200a129565b60208251918051835201516020820152f35b63e0860e5f60e01b5f52620048bf8162007b81565b50604435600781101562003da8576004141562004d23565b3462003da857604036600319011262003da85760043562004e9f62007c54565b62004ea962009ed6565b62004eb48262009e85565b916002830180549360ff8560f01c168062004fb6575b62004f44575b507f8ac110193a47d8207dd88897368f2031dd31bfea6bcfd9a2b3ea6759e81c4e14937fff00ffffffffffffffffffffffffffffffffffffffffffffffffffffffffffff60ff60f01b85151560f01b1691161790556200432760405192839283909291602090604083019483521515910152565b6001600160a01b0360ca54168015801562004fa9575b62004f8a57505460401c63ffffffff161562004f77578462004ed0565b50630c5eed9d60e11b5f5260045260245ffd5b60068492015491631744ee4f60e31b5f5260045260245260445260645ffd5b5060068201541562004f5a565b50831562004eca565b3462003da85760c062004fe0600262004fd83662007c3d565b929062009e85565b015461ffff8160b81c169164ffffffffff8260501c168261ffff6200502260ff849660d81c16948560ff8560e01c1697889264ffffffffff8716908b6200e7da565b9160405196875260c81c16602086015260408501526060840152608083015260a0820152f35b3462003da857602036600319011262003da85760606200506a60043562009e85565b60ff815460c01c169060056004820154910154906200508d604051809462007b73565b60208301526040820152f35b3462003da857620050b0600962004fd83662007c3d565b0162ffffff8211620050d657604091620050ca916200d12c565b82519182526020820152f35b5063c6ebaaa160e01b5f5260045262ffffff60245260445ffd5b3462003da857602036600319011262003da8576004356200511062009fbb565b62003e215762005120336200a911565b90815f5260d560205260405f209160ff835460a01c16620051418162007b81565b6002811462004e525750620043276001600160501b038462005185857f2687926b167b6633deaaa80c3d106be87c0530fbc9ecba972ef8da4a3f2c489b976200e419565b506200519285826200e6e6565b6200519d856200d209565b5416604051938493849160409194936001600160501b039160608501968552602085015216910152565b3462003da857602036600319011262003da857600435620051e76200e3a1565b620051f162009fbb565b62003e215762005201336200a911565b90815f5260d560205260405f209160ff835460a01c16620052228162007b81565b8062004e5257506200523582846200e419565b5060cc54808311620052ba5750620052b06001600160501b037f8a087568cf2efa04e1e6c72c7f61b68a1ac013d6a33bd6e978e1ba2b4efc04d4946200527b856200e549565b6200528785826200e6e6565b620052958560cc54620085cb565b60cc556200519d85336001600160a01b0360cb54166200e6ff565b0390a16001609755005b90506303dc938760e61b5f5260045260245260445ffd5b3462003da857620052e23662007e21565b91620052ed62009ed6565b620052f88162009e85565b6200530484846200861a565b90620186a082116200540657620186a08411620053ec5760010180546affffff00000000000000001916604085901b6affffff000000000000000016178155620186a08511620053d25780546dffffff00000000000000000000001916605886901b6dffffff000000000000000000000016179055620186a090810390811162003ae8577f61c468e821b1662263e339e465b2b8aa3c36b504f804ffac4a19ad8eae3df813936200432791604051948594859094939260609260808301968352602083015260408201520152565b846395d41f3f60e01b5f52600452620186a060245260445ffd5b836395d41f3f60e01b5f52600452620186a060245260445ffd5b6084838686604051926334af053b60e21b8452600484015260248301525f60448301526064820152fd5b3462003da857602036600319011262003da8577f4837c28a17fa53b7af0fe87d3e7cf2a681119d768391e182ed4dfd33497e288f60206200547062007c64565b6200547a62009ed6565b151560ff1960e1541660ff82161760e155604051908152a1005b3462003da857620054b5620054a93662007c3d565b919062004a6062008d53565b61ffff8211620054ea576010915f5201602052610140620054d960405f2062008d9f565b620054e8604051809262007ee1565bf35b50630c8f0a6960e41b5f526004525f60245261ffff60445260645ffd5b3462003da857602036600319011262003da8576004356001600160401b03811162003da8576200553c90369060040162007cdb565b335f5260db60205260ff60405f2054161562003e30576200555c62009fbb565b62003e215762003e1f91620093db565b3462003da8575f36600319011262003da857602060ff60e154166040519015158152f35b3462003da857620055a13662007c3d565b90620055ac62009ed6565b620055b78162009e85565b6001600160501b03600382015460501c168381106200560c577f6cbcbbf194e245478b88cdee7b07dd6402cf492bcef0df03eae198637a072474604084866200560181876200d966565b62003f98816200d209565b839062fae2d560e21b5f5260045260245260445ffd5b3462003da857602036600319011262003da8577fb405a09f729f41978995eba596767f10784a912a3e8d56a978e5e167c1b23d7d60206200566262007c64565b6200566c62009ed6565b60c95481156200569f576001905b600160ff6200568862009fb1565b9316831b921b19161760c9556040519015158152a1005b5f906200567a565b3462003da85760a036600319011262003da857620056c462007c12565b60643561ffff8116810362003da85760843590600282101562003da857335f5260dc60205260ff60405f2054161562005717576200570162009fbb565b62003e215762003e1f9260243560043562008ff5565b631d37e03560e31b5f523360045260245ffd5b3462003da857604036600319011262003da8576200574762007bfe565b335f5260db60205260ff60405f2054161562003e30576200576762009fbb565b62003e215762003e1f9063ffffffff6200578360043562009e85565b9116906200a768565b3462003da857602036600319011262003da8577f06d9a2e5d1f47e8b66c517104114f36514593b09c9b90cb622a6883e595d4bcd6020600435620057cf62009ed6565b620057da816200d209565b620057e88160cc546200861a565b60cc556200425b816001600160a01b0360cb5416309033906200d221565b3462003da8575f36600319011262003da8576001600160a01b037f0000000000000000000000000000000000000000000000000000000000000000163003620058735760206040517f360894a13ba1a3210667c828492db98dca3e2076cc3735a920a3ca505d382bbc8152f35b60405162461bcd60e51b815260206004820152603860248201527f555550535570677261646561626c653a206d757374206e6f742062652063616c60448201527f6c6564207468726f7567682064656c656761746563616c6c00000000000000006064820152608490fd5b3462003da857620058ef3662007ec2565b620058fc93919362009ed6565b620059078262009e85565b6200591e826200591887876200861a565b6200861a565b90620186a0821162005aa657620186a08511620053d25760010180547fffffffffffffffffffffffff000000ffffffffffffffffffffffffffffffffff16608886901b73ffffff000000000000000000000000000000000016178155620186a0861162005a8c5780547fffffffffffffffffff000000ffffffffffffffffffffffffffffffffffffffff1660a087901b76ffffff000000000000000000000000000000000000000016178155620186a0831162005a725780547fffffffffffff000000ffffffffffffffffffffffffffffffffffffffffffffff79ffffff0000000000000000000000000000000000000000000000808660b81b16169116179055620186a00390620186a0821162003ae8577f58735d184c71d18d22f8f2eb43be3e299cad7d465faac909163477072a58f9e99460a0946040519485526020850152604084015260608301526080820152a1005b826395d41f3f60e01b5f52600452620186a060245260445ffd5b856395d41f3f60e01b5f52600452620186a060245260445ffd5b5050604051631121702960e01b815260048101929092526024820192909252604481018390526064810191909152608490fd5b3462003da857602036600319011262003da8575f61010060405162005afe8162007fc7565b8281528260208201528260408201528260608201528260808201528260a08201528260c08201528260e08201520152600162005b3c60043562009e85565b015462ffffff8160401c1662ffffff8260581c169162005b5d83836200861a565b620186a00392620186a0841162003ae85762ffffff8260881c1662ffffff8360a01c1662ffffff8460b81c169162005b9b836200591884846200861a565b620186a00393620186a0851162003ae857610120976040519162005bbf8362007fc7565b888352602083019081526040830191825260ff610100606085019462ffffff8b60701c1686526080810196875260a0810197885260c0810198895260e08101998a52019860d01c16151588526040519889525160208901525160408801525160608701525160808601525160a08501525160c08401525160e0830152511515610100820152f35b604036600319011262003da85762005c5d62007c26565b6024356001600160401b03811162003da85762005c7f90369060040162008107565b62005ced6001600160a01b037f00000000000000000000000000000000000000000000000000000000000000001662005cbb81301415620087b3565b6001600160a01b037f360894a13ba1a3210667c828492db98dca3e2076cc3735a920a3ca505d382bbc54161462008826565b62005cf762009ed6565b7f4910fdfa16fed3260ed0e7147f7cc6da11a60208b5b9406d12a635614ffd91435460ff161562005d2e575062003e1f9062010fbf565b6040516352d1902d60e01b81526001600160a01b03831690602081600481855afa5f918162005eef575b5062005dba5760405162461bcd60e51b815260206004820152602e60248201527f45524331393637557067726164653a206e657720696d706c656d656e7461746960448201526d6f6e206973206e6f74205555505360901b6064820152608490fd5b7f360894a13ba1a3210667c828492db98dca3e2076cc3735a920a3ca505d382bbc0362005e985762005dec8362010fbf565b7fbc7cd75a20ee27fd9adebab32041f755214dbc6bffa90cc0225b39da2e5c2d3b5f80a280511580159062005e8f575b62005e2357005b62003e1f915f806040519362005e3b6060866200808e565b602785527f416464726573733a206c6f772d6c6576656c2064656c65676174652063616c6c6020860152660819985a5b195960ca1b6040860152602081519101845af462005e8862015423565b916201916c565b50600162005e1c565b60405162461bcd60e51b815260206004820152602960248201527f45524331393637557067726164653a20756e737570706f727465642070726f786044820152681a58589b195555525160ba1b6064820152608490fd5b9091506020813d60201162005f20575b8162005f0e602093836200808e565b8101031262003da85751908562005d58565b3d915062005eff565b3462003da857602036600319011262003da85760043562005f4962009ed6565b64e8d4a510008110801562005fb4575b62005f8f576020817f2407f52a609c844e44dbad3e5a8ec9347e6aa702684e124256f81ef7504b9d1b9260d355604051908152a1005b63747693eb60e11b5f5264e8d4a51000600452655af3107a400060245260445260645ffd5b50655af3107a4000811162005f59565b3462003da85762005fe362005fd93662007ec2565b9291909162008e3a565b9060405190604082019260408352815180945260206060840192015f945b8086106200601757505082935060208301520390f35b90926020610140826200602e600194885162007ee1565b0194019501949062006001565b3462003da8576200604c3662007ca9565b90335f5260da60205260ff60405f20541615620060f1576200606d62009fbb565b62003e21576200607d8262007b81565b8115620060e2577f287a1a0be47186fe812cf10628edc8c56638095124099fea05c3e3f59e3a0dc691620060b36040926200a911565b90815f5260d5602052620060ca81845f2062008628565b8251918252620060da8162007b81565b6020820152a1005b633f068f8760e11b5f5260045ffd5b63a37849fb60e01b5f523360045260245ffd5b3462003da85762006120620061193662007e21565b9162008a3e565b6107c0516107e051919290604051926080840194608085528351809652602060a0860194015f965b8088106200616a57505084955060208501526040840152151560608301520390f35b9094602061016082620061816001948a5162007e4a565b0196019701969062006148565b3462003da8576200619f3662007c3d565b90620061aa62009ed6565b620061b58162009e85565b620186a0831162005a7257600101805470ffffff00000000000000000000000000001916607084901b70ffffff0000000000000000000000000000161790556040805191825260208201929092527f82af0435eb6aa1e7cd302eaf1f32e10e8d7bb8e96d1f724a6006fbaa4571890f9190a1005b3462003da8576200623a3662007de1565b90335f5260dc60205260ff60405f2054161562005717576200625b62009fbb565b62003e215762003e1f92620088d1565b3462003da857602036600319011262003da857602061ffff60026200629260043562009e85565b015460781c16604051908152f35b3462003da857602036600319011262003da8576001600160a01b03620062c562007c26565b165f5260df602052602060ff60405f2054166040519015158152f35b3462003da8575f36600319011262003da8576020620030f36200c4ae565b3462003da857602036600319011262003da857604060096200632360043562009e85565b015460ff82519161ffff8160301c168352831c166020820152f35b3462003da857602036600319011262003da8576200635e60043562009e85565b600a81015490612020604051916200637782846200808e565b61010083526020830191601f1901368337600b81015f5b6101008110620063f3575050600961ffff91015460201c166040519260608401948452606060208501525180945260808301915f945b808610620063da57505082935060408301520390f35b90926020806001928651815201940195019490620063c4565b806001915f528260205260405f20546200640e82886200872b565b52016200638e565b3462003da857602036600319011262003da8576200643362007c26565b6200646f6001600160a01b037f00000000000000000000000000000000000000000000000000000000000000001662005cbb81301415620087b3565b6200647962009ed6565b6040519060206200648b81846200808e565b5f8352808301601f1982013682377f4910fdfa16fed3260ed0e7147f7cc6da11a60208b5b9406d12a635614ffd91435460ff1615620064d257505062003e1f915062010fbf565b6001600160a01b03839293166040516352d1902d60e01b81528481600481855afa5f918162006686575b506200655e5760405162461bcd60e51b815260048101869052602e60248201527f45524331393637557067726164653a206e657720696d706c656d656e7461746960448201526d6f6e206973206e6f74205555505360901b6064820152608490fd5b7f360894a13ba1a3210667c828492db98dca3e2076cc3735a920a3ca505d382bbc036200662f57620065908362010fbf565b7fbc7cd75a20ee27fd9adebab32041f755214dbc6bffa90cc0225b39da2e5c2d3b5f80a283511580159062006627575b620065c757005b5f809162003e1f957f416464726573733a206c6f772d6c6576656c2064656c65676174652063616c6c60405196620066016060896200808e565b60278852870152660819985a5b195960ca1b60408701525190845af462005e8862015423565b505f620065c0565b60405162461bcd60e51b815260048101859052602960248201527f45524331393637557067726164653a20756e737570706f727465642070726f786044820152681a58589b195555525160ba1b6064820152608490fd5b9091508581813d8311620066b3575b620066a181836200808e565b8101031262003da857519087620064fc565b503d62006695565b3462003da857604036600319011262003da8577ffff8b0b240abf69d0ca9160bd7dcc49339068496d45e0bf7aab7468fc6a6c2c7600435620066fc62007c54565b906200670762009ed6565b6001620067148262009e85565b0180547fffffffffff00ffffffffffffffffffffffffffffffffffffffffffffffffffff7aff000000000000000000000000000000000000000000000000000085151560d01b1691161790556200432760405192839283909291602090604083019483521515910152565b3462003da857620067903662007c3d565b6200679a62009ed6565b620067a58262009e85565b6001821080156200687b575b6200685e5760020160ff815460e01c1680831015620068485781547fffffffff00ffffffffffffffffffffffffffffffffffffffffffffffffffffff1660d884901b7bff0000000000000000000000000000000000000000000000000000001617825560408051858152602081018590527ff4b59dd9ee04b23a163fa42f622d424f19a1cc0f76d4455f900106cef0e3c5129190a1005b82630ba8360160e41b5f5260045260245260445ffd5b50630c8f0a6960e41b5f526004526001602452606460445260645ffd5b5060648211620067b1565b3462003da857602036600319011262003da857600435620068a662009ed6565b6309c3d8f0808211620068f9575060c95460e391612710613fff9104831b921b19161760c9557fcd3426b08e2946f33fe401b723f71049867976631425553ecf95848fc4b088a960206200425b6200c488565b90630c8f0a6960e41b5f526004525f60245260445260645ffd5b3462003da85762006930620069283662007c3d565b919062009f2f565b905f526003810160205260405f20549061ffff8260401c16906200695482620086c3565b91600263ffffffff5f95169201915b801515806200699d575b1562003f0a575f528160205263ffffffff60405f206200699162003ede876200871c565b505460201c1662006963565b508185106200696d565b3462003da857604036600319011262003da857620069c462007c26565b7f8b91d2cd88f6e870c2beaa65e6299f6dee33511ff403ab0ffb32f926e3a9a28360206001600160a01b03620069f962007c54565b9362006a0462009ed6565b1692835f5260d4825262006a278160405f209060ff801983541691151516179055565b6040519015158152a2005b3462003da85762006a433662007c3d565b62006a4d62009ed6565b60c9546001600160701b031681811062004279575062006a6d8262009f2f565b9160ff835460a01c1662006a818162007b81565b6002811462004e525750620043276001600160501b037f85b48f5618e9d5b21320fb47ad01cfbf4f739a3e7f7950a445c97099d578911e9462006ac4856200aa24565b6200519d85826200c45c565b3462003da85762006ae13662007d0e565b90335f5260da60205260ff60405f20541615620060f15762006b0262009fbb565b62003e21576103fc831162006b4f57825f5260d960205260405f209262006b29846200c39e565b62006b3d5750600962003e1f93016200c3c5565b63b934a7fb60e01b5f5260045260245ffd5b8263324f0d9160e21b5f5260045260245ffd5b3462003da857604036600319011262003da8576004356001600160401b03811162003da8573660238201121562003da85780600401356001600160401b03811162003da8576024820136602460a084028501011162003da85762006bc562007c54565b9062006bd062009fbb565b62003e215762006be0336200a911565b93845f5260d560205260ff60405f205460a01c1662006bff8162007b81565b8062004e525750831562006d6f5781359462006c1b8662009e85565b9060ff825460c01c169260ff600184015460d01c1690335f5260de60205260ff60405f205416945f5b8981101562003e1f578062006d24575b62006c6189838d6200a99d565b62006d1b57888b896040810135801562006d0e57878062006d05575b62006cad57918162006ca6938b8b6080600199989601359460206060860135950135926200ab01565b0162006c44565b50505062006cee576001907f4cd1188857d86056fa3ff56966c92f1f952217fe7328696137d42b1043a5d91c60408d8151908152336020820152a162006ca6565b8a63099a231160e31b5f526004523360245260445ffd5b508a1562006c7d565b5050505060019062006ca6565b60019062006ca6565b60a08102830160240197508735808c0362006d41575b5062006c54565b9a50925050925062006d538862009e85565b9260ff845460c01c1660ff600186015460d01c16928b62006d3a565b634e487b7160e01b5f52603260045260245ffd5b3462003da857602036600319011262003da85760043562006da362009ed6565b60c9546001600160701b031681811062004279577f3926c691232881614240a3ec84f5910abdac662ecb616cf8ab9b9fe44d932bc860208362006de6816200aa24565b6200425b816200aa4d565b3462003da857602036600319011262003da8576040601162006e1560043562009e85565b015463ffffffff825191818116835260201c166020820152f35b3462003da8577f287a1a0be47186fe812cf10628edc8c56638095124099fea05c3e3f59e3a0dc66040620060b362006e673662007ca9565b919062006e7362009ed6565b6200a911565b3462003da85762006e8a3662007c84565b9162006e9562009fbb565b62003e215762006ea5336200a911565b9162006eb18362009f2f565b9260ff845460a01c1662006ec58162007b81565b8062004e52575062006ed78362009e85565b62006eea60ff825460c01c16856200a969565b506002810154606462006f2b64ffffffffff808416818560281c168082115f14620070da57505b169260ff64ffffffffff8260501c169160e81c1662008585565b049081811015620070c15750506001600160501b038311620070a357601290825f520160205260405f209364ffffffffff855460b81c16156200708c57607842019283421162003ae8577fd990ce6190d58ffb8c06ec564b7ebdac6a21afe5b067513aba6cbf478ccac6e9966101009663ffffffff64ffffffffff9616916040519062006fb88262007fab565b838252602082016001600160501b0386168152600460408401921515978884528b5f520160205263ffffffff8060405f209451161663ffffffff1984541617835551906dffffffffffffffffffff000000006eff000000000000000000000000000084549251151560701b169260201b16906effffffffffffffffffffff00000000191617179055549360405196875260208701526040860152606085015260808401526200707160a0840160ff8360401c1662007e3c565b63ffffffff8160981c1660c084015260b81c1660e0820152a1005b50826334a4033d60e11b5f5260045260245260445ffd5b826395d41f3f60e01b5f526004526001600160501b0360245260445ffd5b8563a086029960e01b5f5260045260245260445260645ffd5b905062006f11565b3462003da8575f36600319011262003da8576020620030f36200a945565b3462003da857620071113662007c3d565b906200711c62009ed6565b613a9882116200717857807f70df7db68793145153f083606826dfc0e51ef634e3d99f5a8ff74d7fd27405e69262003f986200715a60409462009e85565b600201805461ffff60981b1916609884901b61ffff60981b16179055565b631b71514f60e11b5f52600452602452613a9860445260645ffd5b3462003da857602036600319011262003da857620006eb620071c9620071b862007c26565b620071c262008286565b506200a911565b620072326005620071da8362009f2f565b805460ff8160a01c166001600160501b03600184015460601c9260405197620072038962007f8f565b8852818116602089015260501c166040870152620072218162007b81565b6060860152608085015201620082db565b60a08201526040519182918262007b8c565b3462003da857602036600319011262003da857602061ffff60026200726b60043562009e85565b015460881c16604051908152f35b3462003da857604036600319011262003da8577f44f632293c2bd117a0d277a1057b0a5495dfbd57d2e3636bb80f0912ee6d0ba9620072b762007c26565b620072c162007c54565b90620072cc62009ed6565b811562007317576001600160a01b0381165f5260dc60205260405f20600160ff19825416179055604080516001600160a01b0390921682529115156020820152908190810162004327565b6001600160a01b0381165f5260dc60205260405f2060ff19815416905562004308565b3462003da8575f36600319011262003da85760d7545f19810190811162003ae857602090604051908152f35b3462003da857620073773662007c3d565b6200738162009ed6565b61012c8082116200740d577fd947284a0ec09f0204c4d87a28d7f12ae5979a8c58b1456b5aa2c5066f97329560408484620073bc8262009e85565b80547fffffffffffffffffffff0000ffffffffffffffffffffffffffffffffffffffff1660a083901b75ffff00000000000000000000000000000000000000001617905582519182526020820152a1005b916335d09a8f60e21b5f5260045260245260445260645ffd5b3462003da8575f36600319011262003da857602060405161217b8152f35b3462003da857602036600319011262003da8576001600160a01b036200746962007c26565b165f5260da602052602060ff60405f2054166040519015158152f35b3462003da857604036600319011262003da85762003e1f620074a662007bfe565b620074b062009ed6565b63ffffffff620074c260043562009e85565b9116906200a5cb565b3462003da857602036600319011262003da857620074e862009ed6565b62003e1f6004356200a544565b3462003da857602036600319011262003da8576004356001600160401b03811162003da8573660238201121562003da85780600401356001600160401b03811162003da8573660246101e083028401011162003da857335f5260dc60205260ff60405f2054161562005717576200756b62009fbb565b62003e2157602462003e1f92016200832b565b3462003da857602036600319011262003da857620006eb600435620075a262008286565b50620072326005620071da8362009f2f565b3462003da857604036600319011262003da857600435602435620075d762009ed6565b620075e28262009e85565b60ff815460c01c166005811015620046fe5762007644576001600160a01b0360ca5416801562004f8a577f9c03c6796385c736172929a88c5f8c4fc7c287d6df80c75f290d4f18ca9ece726040858580600687015582519182526020820152a1005b82631512f56d60e31b5f5260045260245ffd5b3462003da857602036600319011262003da8576004356200767762009ed6565b60ff620076848262009e85565b5460c01c166005811015620046fe5760038114620076e45760011901620076d25760207f5fa123d2cd3b174872bde6224d3ecc37811a5b365b5c481672f7ff0cb5bfd6c491604051908152a1005b631750b76d60e11b5f5260045260245ffd5b50633534376760e21b5f5260045260245ffd5b3462003da857602036600319011262003da8576103a0816200771a5f9362007f72565b60608152606060208201528260408201528260608201528260808201528260a08201528260c08201528260e08201528261010082015282610120820152826101408201528261016082015282610180820152826101a0820152826101c0820152826101e08201528261020082015282610220820152826102408201528261026082015282610280820152826102a0820152826102c0820152826102e082015282610300820152826103208201528261034082015282610360820152826103808201520152620077eb60043562009e85565b805460068201549060018301549063ffffffff6003850154926001600160501b036002870154946009880154966200784460086040519a6200782d8c62007f72565b6200783b60078201620081da565b8c5201620081da565b60208a015260ff8660b01c1660408a015260ff8660b81c1660608a0152608089015261ffff8560901c1660a0890152838360d81c1660c08901528260f81c60e089015261ffff8560a01c1661010089015281811661012089015260501c16610140870152818316610160870152818360201c166101808701528181166101a087015260201c166101c085015263ffffffff8160401c166101e085015263ffffffff8160601c1661020085015264ffffffffff821661022085015264ffffffffff8260281c1661024085015263ffffffff8160c81c166102608501528060801c60010b61028085015261ffff8260981c166102a0850152600560ff8260c01c161015620046fe5760ff928361ffff9260c01c166102c086015263ffffffff81166102e086015262ffffff8160781c1661030086015262ffffff8160901c1661032086015262ffffff8160481c1661034086015262ffffff8160601c1661036086015260201c1661038084015260f01c1615156103a08201526040518091602082526103a0620079fc620079e583516103c060208701526103e086019062007b4f565b6020840151858203601f1901604087015262007b4f565b916040810151606085015260608101516080850152608081015160a085015260a081015160c085015260c081015160e085015260e08101516101008501526101008101516101208501526101208101516101408501526101408101516101608501526101608101516101808501526101808101516101a08501526101a08101516101c08501526101c08101516101e08501526101e081015161020085015261020081015161022085015261022081015161024085015261024081015161026085015261026081015161028085015261028081015160010b6102a08501526102a08101516102c085015262007afb6102c08201516102e086019062007b73565b6102e081015161030085015261030081015161032085015261032081015161034085015261034081015161036085015261036081015161038085015261038081015182850152015115156103c08301520390f35b805180835260209291819084018484015e5f828201840152601f01601f1916010190565b906005821015620046fe5752565b60041115620046fe57565b919091610100606060a06101208401958051855260208101516020860152604081015160408601528281015162007bc38162007b81565b838601526001600160a01b0360808201511660808601520151805160a0850152602081015160c0850152604081015160e08501520151910152565b6024359063ffffffff8216820362003da857565b6044359063ffffffff8216820362003da857565b600435906001600160a01b038216820362003da857565b604090600319011262003da8576004359060243590565b60243590811515820362003da857565b60043590811515820362003da857565b60643590811515820362003da857565b606090600319011262003da8576004359060243590604435801515810362003da85790565b604090600319011262003da8576004356001600160a01b038116810362003da85790602435600481101562003da85790565b9181601f8401121562003da8578235916001600160401b03831162003da8576020808501948460051b01011162003da857565b90604060031983011262003da85760043591602435906001600160401b03821162003da85762007d419160040162007cdb565b9091565b60206040818301928281528451809452019201905f5b81811062007d695750505090565b909192602060c06001926001600160501b0360a0885163ffffffff815116845263ffffffff86820151168685015263ffffffff6040820151166040850152606081015162007db78162007b81565b606085015260808181015164ffffffffff169085015201511660a082015201940192910162007d5b565b604060031982011262003da857600435906001600160401b03821162003da85762007e0f9160040162007cdb565b9091602435801515810362003da85790565b606090600319011262003da857600435906024359060443590565b906002821015620046fe5752565b610140809180518452602081015160208501526040810151604085015262007e7b6060820151606086019062007e3c565b6080810151608085015260a081015160a085015260c081015160c085015260e081015160e08501526101008101516101008501526101208101516101208501520151910152565b608090600319011262003da85760043590602435906044359060643590565b61ffff610120809263ffffffff8151168552602081015162007f038162007b81565b602086015262ffffff604082015116604086015264ffffffffff606082015116606086015282608082015116608086015263ffffffff60a08201511660a08601528260c08201511660c08601528260e08201511660e08601528261010082015116610100860152015116910152565b6103c081019081106001600160401b0382111762003c2b57604052565b60c081019081106001600160401b0382111762003c2b57604052565b606081019081106001600160401b0382111762003c2b57604052565b61012081019081106001600160401b0382111762003c2b57604052565b60e081019081106001600160401b0382111762003c2b57604052565b61016081019081106001600160401b0382111762003c2b57604052565b608081019081106001600160401b0382111762003c2b57604052565b61014081019081106001600160401b0382111762003c2b57604052565b604081019081106001600160401b0382111762003c2b57604052565b60a081019081106001600160401b0382111762003c2b57604052565b90601f801991011681019081106001600160401b0382111762003c2b57604052565b6001600160401b03811162003c2b57601f01601f191660200190565b929192620080da82620080b0565b91620080ea60405193846200808e565b82948184528183011162003da8578281602093845f960137010152565b9080601f8301121562003da8578160206200812593359101620080cc565b90565b9181601f8401121562003da8578235916001600160401b03831162003da8576020838186019501011162003da857565b60206040818301928281528451809452019201905f5b8181106200817c5750505090565b82518051855260209081015181860152604090940193909201916001016200816e565b90600182811c92168015620081cf575b6020831014620081bb57565b634e487b7160e01b5f52602260045260245ffd5b91607f1691620081af565b9060405191825f825492620081ef846200819f565b80845293600181169081156200826257506001146200821a575b5062008218925003836200808e565b565b90505f9291925260205f20905f915b8183106200824557505090602062008218928201015f62008209565b602091935080600191548385890101520191019091849262008229565b9050602092506200821894915060ff191682840152151560051b8201015f62008209565b60405190620082958262007f8f565b815f81525f60208201525f60408201525f60608201525f608082015260a060405191620082c2836200801d565b5f83525f60208401525f60408401525f60608401520152565b90604051620082ea816200801d565b6060600382948054845260018101546020850152600281015460408501520154910152565b35801515810362003da85790565b906007821015620046fe5752565b91811562008569578260208401906040850135946200834a8662009e85565b935f5b86811015620085345780620084f9575b8335906200836d86838b62009fd1565b604086013591600783101562003da8575f600284141580620084eb575b8015620084d4575b6200847c575060019250805f5260d56020528660405f20916001600160401b038584015460201c16928235938481101562008445575060ff815460a01c1693620083dc8562007b81565b84156200840557620083fc9450620083f590826200a0cf565b8a6200a224565b505b016200834d565b5050505060207fe0860e5ff8578b025fc8a7f42c449c575b7a19600e8d2b3fd6ab0ae6e2e0840391604051906200843c8162007b81565b8152a1620083fe565b9150507f6be50b396ca4962b3810cd9e65b8160cd24180a1e7adbc2c795e8dd090891284925060209150604051908152a1620083fe565b905062003da8577fcbb789ca59a70c9d9ac308b2f773480d433619886320ba81e8e871690fc220c36040600193620084b86101208a016200830f565b620084c6835180936200831d565b15156020820152a1620083fe565b50620084e461012089016200830f565b1562008392565b50505f60038414156200838a565b6101e081028301602081019550935060408401358089036200851d575b506200835d565b975094506200852c8762009e85565b945f62008516565b50955050505050507fc2813e86d911b51775079b03b9fcab443ec450bc1634cf75dd578874a0af7add60205a604051908152a1565b915050565b9060308202918083046030149015171562003ae857565b8181029291811591840414171562003ae857565b6102fc1981019190821162003ae857565b6101fc1981019190821162003ae857565b60fc1981019190821162003ae857565b9190820391821162003ae857565b8115620085e4570490565b634e487b7160e01b5f52601260045260245ffd5b600101908160011162003ae857565b62ffffff01908162ffffff1162003ae857565b9190820180921162003ae857565b90620086348162007b81565b7fffffffffffffffffffffff00ffffffffffffffffffffffffffffffffffffffff74ff000000000000000000000000000000000000000083549260a01b169116179055565b6001600160401b03811162003c2b5760051b60200190565b60405190620086a08262007f8f565b5f60a0838281528260208201528260408201528260608201528260808201520152565b90620086cf8262008679565b620086de60405191826200808e565b8281528092620086f1601f199162008679565b01905f5b8281106200870257505050565b6020906200870f62008691565b82828501015201620086f5565b5f19811462003ae85760010190565b805182101562006d6f5760209160051b010190565b906040516200874f8162007f8f565b60a06001600160501b0382945463ffffffff8116845263ffffffff8160201c16602085015263ffffffff8160401c16604085015260ff8160601c16620087958162007b81565b606085015264ffffffffff8160681c16608085015260901c16910152565b15620087bb57565b60405162461bcd60e51b815260206004820152602c60248201527f46756e6374696f6e206d7573742062652063616c6c6564207468726f7567682060448201527f64656c656761746563616c6c00000000000000000000000000000000000000006064820152608490fd5b156200882e57565b60405162461bcd60e51b815260206004820152602c60248201527f46756e6374696f6e206d7573742062652063616c6c6564207468726f7567682060448201527f6163746976652070726f787900000000000000000000000000000000000000006064820152608490fd5b90620088a58262008679565b620088b460405191826200808e565b8281528092620088c7601f199162008679565b0190602036910137565b9290918215620089d85736849003605e19019184358381121562003da857850192833595620089008762009e85565b925f5b87811015620089cd57806200898f575b620089278660ff875460c01c168b6200a99d565b62008986576040870135601e198836030181121562003da8578701908135916001600160401b03831162003da857602001918060051b3603831362003da857876200897d916001948d60208d0135908b6200c528565b505b0162008903565b6001906200897f565b95508560051b8201358381121562003da8578201958635808a03620089b6575b5062008913565b98509350620089c58862009e85565b935f620089af565b509650505050505050565b50915050565b60405190620089ed8262008000565b5f610140838281528260208201528260408201528260608201528260808201528260a08201528260c08201528260e082015282610100820152826101208201520152565b6002821015620046fe5752565b9192905f6107e0525f6107c05262008a575f9362009e85565b6108005260116108005101549062008a72610800516200ce47565b505050806107e0521580156107c05262008d3e575b8062008d37575063ffffffff8116935b841562008d2c578015158062008d20575b5f610780521562008d1257610780525b62008ac66107805162008679565b62008ad560405191826200808e565b610780518152601f1962008aec6107805162008679565b015f5b81811062008cf857505080945b61078051851062008b0c57505050565b805f526012610800510160205260405f20906040519162008b2d8362007fe4565b5463ffffffff81168352602083019063ffffffff8160201c16825262008b5d60ff8260401c166040860162008a31565b6001600160501b038160481c16606085015263ffffffff8160981c16608085015264ffffffffff8160b81c1660a085015260e01c60c084015260408301516002811015620046fe5762008bdc9063ffffffff60c08601511663ffffffff6080870151169064ffffffffff60a088015116926107e051610800516200ce92565b9263ffffffff808794939451169151166108205260408601516002811015620046fe576001600160501b0360608801511663ffffffff6080890151169062008c7264ffffffffff60a08b0151169363ffffffff60c08c015116956040516107a05262008c4b6107a05162008000565b8a6107a0515260206107a05101526108205160406107a051015260606107a0510162008a31565b60806107a051015260a06107a051015260c06107a051015260e06107a05101526101006107a05101526101206107a05101526101406107a051015262008cd562008cbc876200871c565b966107a05162008ccd82876200872b565b52846200872b565b5063ffffffff8460201c161462008cf3575163ffffffff1662008afc565b505050565b60209062008d05620089de565b8282860101520162008aef565b506113886107805262008ab8565b50611388811062008aa8565b50606093505f925050565b9362008a97565b63ffffffff6108005154166107e05262008a87565b6040519062008d628262008039565b5f610120838281528260208201528260408201528260608201528260808201528260a08201528260c08201528260e0820152826101008201520152565b9060405162008dae8162008039565b61012061ffff82945463ffffffff8116845260ff8160201c1662008dd28162007b81565b602085015262ffffff8160281c16604085015264ffffffffff8160401c166060850152818160681c16608085015263ffffffff8160781c1660a0850152818160981c1660c0850152818160a81c1660e0850152818160b81c1661010085015260c81c16910152565b919390936060935f861562008fea5762008e548562009e85565b9562008e6488600989016200d12c565b949091821562008fdc57508062008fd457505b918015158062008fc8575b1562008fbc57919490945b62008e988362008679565b9562008ea860405197886200808e565b838752601f1962008eb98562008679565b015f5b81811062008f985750506010879801915b8482108062008f8e575b1562008f8257805f528260205262008ef260405f2062008d9f565b9162ffffff6040840151168b810362008f5857508894939291879162008f32908462008f2a8262008f23816200871c565b9a6200872b565b528b6200872b565b501462008f4c5761012001519192909161ffff1662008ecd565b50505094955050509050565b85608491848e604051936324bfc58760e01b85526004850152602484015260448301526064820152fd5b50969750505050509050565b5080151562008ed7565b60209062008faa969395949662008d53565b82828c01015201949293919462008ebc565b50936113889162008e8d565b50611388811062008e82565b905062008e77565b965050509550505091509190565b505050925050905f90565b929193620090038462009e85565b906200901760ff835460c01c16866200a969565b50620090238362009f2f565b9260ff845460a01c16620090378162007b81565b8062004e5257506004840196865f528760205260405f209263ffffffff8454168015620093b257804211620093605750825f526012850160205260405f209664ffffffffff885460b81c16156200931a5760ff885460401c166002831015620046fe576002811015620046fe57828103620092db575061ffff90620090cb63ffffffff8060098a015416951694856200d26b565b501692600184108015620092c6575b6200928f57620090ea866200ce47565b929492909190851562009254575050508015806200924a575b801562009234575b620091d25750620091806200913d64ffffffffff8a5460b81c1688549060ff808360b81c169260b01c169086620115f8565b9462009179600289015460ff8160e01c169060ff8160d81c169064ffffffffff8160501c169061ffff64ffffffffff82169160b81c166200e73e565b906201164f565b9360648102908082046064149015171562003ae857620091c598620091a7868c9362012b9e565b9654986001600160501b0360ff8b60701c169a60201c16986200d473565b5f526020525f6040812055565b91945094507fd70dcea04756ab23b8663cb4528ddd657c55ea6dbc95b4481b62b25d028633ab965060a095506200921c919250604051948886526020860152604085019062007e3c565b60608301526080820152a15f526020525f6040812055565b506001811480156200910b57508284106200910b565b5082841162009103565b60028a0154604051631f466abb60e21b815260a89190911c61ffff166004820152602481019390935260448301919091526064820152608490fd5b6084898561ffff60028a015460b81c1690604051926321b82b4d60e01b845260048401526024830152600160448301526064820152fd5b5061ffff600287015460b81c168411620090da565b604051633ea2c45d60e21b8152600481018b90526024810186905260849162009318906200930d604484018762007e3c565b606483019062007e3c565bfd5b5050509150507f6948067a0ba575890268b9a7eaf592a5832287e4402201145ce0768a9d9533fc9250604080925051908482526020820152a15f526020525f6040812055565b604080518a8152602081019590955284015250504260608201527fb4cbbb4a79087ef85485ec777721c815de25aac9940c011694a831a77d30aa86945060809350915050a15f526020525f6040812055565b838963e2fd5a3560e01b5f5260045260245260445ffd5b3563ffffffff8116810362003da85790565b9091821562008569575f5b83811015620089d8578060051b83013560de198436030181121562003da857830190602082013591620094198362009e85565b926040820135600381101562003da857600181036200945f57505060019263ffffffff6200944e6060620094569401620093c9565b16906200a7bd565b505b01620093e6565b90919080620094c2575060c081013590601e198136030182121562003da85701928335936001600160401b03851162003da85760200191843603831362003da857620094b4620094bb936001963691620080cc565b916200e2c5565b5062009458565b600194919250600214620094d9575b505062009458565b81620094ec60606200950e9401620093c9565b91608063ffffffff6200950260a085016200830f565b9416920135906200da05565b5f80620094d1565b60405190620095258262008056565b5f6020838281520152565b604d811162003ae857600a0a90565b8181106200954b575050565b5f81556001016200953f565b6200956381546200819f565b90816200956e575050565b81601f5f931160011462009580575055565b818352602083206200959e91601f0160051c8101906001016200953f565b8082528160208120915555565b801562003ae8575f190190565b908060209392818452848401375f828201840152601f01601f1916010190565b5f9291815491620095e9836200819f565b80835292600181169081156200964257506001146200960757505050565b5f9081526020812093945091925b83831062009627575060209250010190565b60018160209294939454838587010152019101919062009615565b915050602093945060ff929192191683830152151560051b010190565b906200966b8262008679565b6200967a60405191826200808e565b82815280926200968d601f199162008679565b01905f5b8281106200969e57505050565b602090604051620096af8162008056565b5f81525f838201528282850101520162009691565b620096cf826200965f565b928351156200856957821562006d6f57819060408301606084013593620096f68562009e85565b925f5b8781101562008534578062009854575b60019086356200971b86828b62009fd1565b805f5260d560205260405f20866001600160401b038583015460201c1692813593848110156200981d5750825460ff8160a01c166200975a8162007b81565b80620097da575060a81c60ff1615620097ac576200977d6200978a94846200a0cf565b60208b0135928a6200a2f6565b62009796828c6200872b565b52620097a3818b6200872b565b505b01620096f9565b505050507fcb7f793535461714e08fcb65e21b3379d2aedbf9c04354ade356a824dcefe9f55f80a1620097a5565b925050507fe0860e5ff8578b025fc8a7f42c449c575b7a19600e8d2b3fd6ab0ae6e2e0840392506020915060405190620098148162007b81565b8152a1620097a5565b9150507f6be50b396ca4962b3810cd9e65b8160cd24180a1e7adbc2c795e8dd090891284925060209150604051908152a1620097a5565b600981901b83019550604086019350606086013580880362009878575b5062009709565b965093506001620098898762009e85565b949062009871565b92919091620098a0336200a911565b93845f5260d560205260405f209460ff865460a01c16620098c18162007b81565b8062004e525750620098d3856200965f565b95865115620099ed57851562006d6f57826020810135620098f48162009e85565b9161ffff600284015460781c16965f5b8a811015620099b5578b8a8a8362009959575b9280926200993e62009951936001968e8e8e8e620099388f84869162009fd1565b6200a439565b6200994a83836200872b565b526200872b565b500162009904565b5050506101c08102830197508b8a60208a01358087036200997d575b508a62009917565b955095508699509087818a938762009996819962009e85565b600281015460781c61ffff169e50939b50929893945092915062009975565b50985050505050505050507fc2813e86d911b51775079b03b9fcab443ec450bc1634cf75dd578874a0af7add60205a604051908152a1565b50919350505050565b919081101562006d6f5760051b0190565b356001600160a01b038116810362003da85790565b9392919062009a2b8562009e85565b9462009a408560ff885460c01c16836200a99d565b62009a505762008125956200ca2b565b5050505050505f90565b6040907fc0541f32f5c37f170acf579ae2de8be00385c7ab848fb4b1f19340fd41d588449262009a958162009a8f8462009f2f565b6200a0cf565b82519182526020820152a1565b9091821562008cf35781803562009ab98162009e85565b915f5b8681101562009b4d578062009b19575b60019062009ae38660ff875460c01c16866200a99d565b62009b135762009b0c8662009afb60608a016200830f565b60408a013560208b0135896200f0c5565b0162009abc565b62009b0c565b94508460071b810194853580840362009b34575b5062009acc565b92509250600162009b458362009e85565b939062009b2d565b50505050505050565b811562009e81578092813562009b6c8162009e85565b94600986019360ff875460c01c166005811015620046fe5715935f5b87811015620089cd578062009e3e575b6001908760208601358015801562009e32575b62009e2a57805f526007820160205260405f2063ffffffff8154161562009e215780548d63ffffffff821692835f5260d560205260405f209262009bf863ffffffff8260781c166200f243565b90811562009e18575b811562009dfa575b811562009ce3575b501562009ca7578462009c718162009c9c9561ffff60027f3669d8cc87cc659246c535cf34b73f019e2da2a48e04d14093701e877fb6eac69b9762009c6462009c5e62009c789962008d9f565b6200f281565b015460a81c16906200f389565b926200f71b565b6040519384938c859094939260609260808301968352602083015260408201520152565b0390a15b0162009b88565b505050507fa2f88eaf96334c482f1071c105643f009253e044dc7767b94cd01f787c7d92ad91506040908151908982526020820152a162009ca0565b90505f90875461ffff8160301c1661ffff8260201c161162009d09575b50505f62009c11565b60ff8160401c1662009d2160ff8460201c166200fad1565b1562009d925762ffffff808360781c169260901c16918015158062009d88575b62009d54575b505050505b5f8062009d00565b62ffffff939450829162009d7162009d77946200413293620085cb565b62012b9e565b9160281c1611155f80808062009d47565b5082151562009d41565b62ffffff808360481c169260601c168215158062009df0575b62009dbb575b5050505062009d4c565b62ffffff939450829162009d7162009dd89262009ddf95620085cb565b90620085cb565b9160281c1610155f80808062009db1565b5080151562009dab565b905060ff845460a01c1662009e0f8162007b81565b15159062009c09565b8e915062009c01565b50505062009ca0565b505062009ca0565b5061ffff811162009bab565b600681901b830193508335851462009b985794509450955062009e618262009e85565b95600987019460ff885460c01c166005811015620046fe57159462009b98565b5050565b906103fc821162009ec357815f5260d960205260405f209162009ea8836200c39e565b1562009eb15750565b63264fcda560e11b5f5260045260245ffd5b5063324f0d9160e21b5f5260045260245ffd5b6001600160a01b0360335416330362009eeb57565b606460405162461bcd60e51b815260206004820152602060248201527f4f776e61626c653a2063616c6c6572206973206e6f7420746865206f776e65726044820152fd5b9060018210801562009f91575b62009f7157815f5260d560205260405f2091600183015460601c1562009f5f5750565b6305b58f2560e51b5f5260045260245ffd5b50630c8f0a6960e41b5f52600452600160245263ffffffff60445260645ffd5b5063ffffffff821162009f3c565b60e35b600e810180911162003ae85790565b62009fa262009f9f565b60018060c95462009fcb62009fb1565b1c161490565b60408301359291600784101562003da8576101a0837f16356f6546077582bb45c3a709f88eb52c14ea7c474380c2fe70bbf61519b3c5956200a01960e061020097016200830f565b6200a02861010084016200830f565b906200a0666200a03c61012086016200830f565b935a97604051998a5260208a0152853560408a0152606086013560608a015260808901906200831d565b608084013560a088015260a084013560c088015260c084013560e08801521515610100870152151561012086015215156101408501526101408101356101608501526101608101356101808501526101808101358285015201356101c08301526101e0820152a1565b6001600160401b0382116200a10b57600101906bffffffffffffffff0000000082549160201b16906bffffffffffffffff000000001916179055565b506395d41f3f60e01b5f526004526001600160401b0360245260445ffd5b9291906040516200a13a8162008056565b5f81525f6020820152806200a15360016004886200faea565b156200a200575060443590600782101562003da857600482146200a2095760ff835460a01c166200a1848162007b81565b8062004e5257506200a1ac600161ffff600289015460a81c1660ff895460c01c16906200a99d565b6200a20057600582146200a1e857506006146200a1d6575060019160045f9262008125956200ff70565b6001925060049062008125946200fe21565b949162008125945060019391506101a435926200f8c5565b94505050505090565b9462008125945060019392506064359150602435906200fd10565b9291906040516200a2358162008056565b5f81525f6020820152806200a24c5f86886200faea565b156200a2005750604084013590600782101562003da857600482146200a2da576200a28c5f61ffff600289015460a81c1660ff895460c01c16906200a99d565b6200a20057600582146200a2c357506006146200a2b557505f809260019262008125956200ff70565b915f9262008125946200fe21565b94915f9391506101a062008125950135926200f8c5565b9462008125945f9493506060810135925060200135906200fd10565b9391939290925f936040516200a30c8162008056565b5f81525f6020820152806200a3235f86866200faea565b156200a3cb5750604084013590600782101562003da857600482146200a4195760ff835460a01c166200a3568162007b81565b806200a3d657506200a37d8761ffff600287015460a81c1660ff875460c01c16906200a99d565b6200a3cb57600582146200a3b357506006146200a3a55750906200812594600193926200ff70565b90620081259593506200fe21565b969293620081259695506101a091500135926200f8c5565b965050505050505090565b945096505050507fe0860e5ff8578b025fc8a7f42c449c575b7a19600e8d2b3fd6ab0ae6e2e08403925060209150604051906200a4138162007b81565b8152a190565b9693929150506200812594505f935060206060830135920135906200fd10565b9094939291946040516200a44d8162008056565b5f81525f6020820152806200a4648786866200faea565b156200a3cb5750604084013590600782101562003da857600482146200a5265760ff835460a01c166200a4978162007b81565b806200a4e557506200a4be8761ffff600287015460a81c1660ff875460c01c16906200a99d565b6200a3cb57600582146200a3b357506006146200a3a557509062008125945f93926200ff70565b96955096505050505062004e525760207fe0860e5ff8578b025fc8a7f42c449c575b7a19600e8d2b3fd6ab0ae6e2e0840391604051906200a4138162007b81565b9693929150506200812594935060206060830135920135906200fd10565b6200a54f8162009e85565b60ff815460c01c166005811015620046fe57600381146200a5b8576001190162009e81577fd92eee87539b24ad02a6f03980106354cd078a3eb9c2c4257685215063c61ecd91815f60046020940155600160c01b60ff60c01b19825416179055604051908152a1565b82633534376760e21b5f5260045260245ffd5b90915f926002830192835461ffff8160a81c169582549160ff8360c01c166005811015620046fe57600381036200a60f5788633534376760e21b5f5260045260245ffd5b96979596949593946002146200a7555760f01c60ff16159081806200a741575b6200a736576200a64c600163ffffffff600988015416886200d2be565b6200a72d57506200a6c9575b5050805467ffffffffffffffff191663ffffffff8316174260201b63ffffffff60201b161790557f65ec400f2e8b22c7064f99991d01828c6a55acaa066b3fdba3bf5a491b1a6a4c905b92546040805160a89290921c61ffff1682526020820194909452600193819081015b0390a1565b61ffff63ffffffff8260401c169160901c16906200a6e982828762014339565b156200a6f657506200a658565b6040516307311a2960e31b815261ffff93909316600484015260248301949094526044820193909352606481019290925250608490fd5b96505050505050565b505f96505050505050565b506200a74f600186620102f2565b6200a62f565b8363aa5493c360e01b5f5260045260245ffd5b91905f926002810193845461ffff8160a81c169160ff8454926200a792828560c01c16866200eb7d565b5060f01c16159081806200a741576200a736576200a64c600163ffffffff600988015416886200d2be565b91905f926002810193845461ffff8160a81c169060ff8454916200a7e7828460c01c16856200eb7d565b5060f01c161580806200a8fe575b6200a736576200a8115f63ffffffff600988015416886200d2be565b6200a8f4576200a86d575b5050815467ffffffffffffffff191663ffffffff8416174260201b63ffffffff60201b1617909155507f65ec400f2e8b22c7064f99991d01828c6a55acaa066b3fdba3bf5a491b1a6a4c906200a6a2565b61ffff63ffffffff8260401c169160901c16906200a88d82828862014339565b156200a89a57506200a81c565b6200a8ee92939697507f3988d14888f50c39e6b838927480e13c79fd6c5cfdfb08a1b02febe997a3571e959450604051948594859094939260609261ffff6080840197168352602083015260408201520152565b0390a190565b5091955050505050565b506200a90b5f86620102f2565b6200a7f5565b6001600160a01b031690815f5260d660205260405f20549182156200a9335750565b6303a0e27760e01b5f5260045260245ffd5b60c954613fff9060d51c16612710810290808204612710149015171562003ae85790565b906005811015620046fe5780156200a98a576200812591600191906200ebbd565b506316c94c5160e11b5f5260045260245ffd5b91905f926005821015620046fe5781156200a9d6575b83156200a9c1575b50505090565b6200a9cd93506200ebbd565b5f80806200a9bb565b9250816200aa11577f2d9298a2800f5fd1e25aee8b166aa673704bf4d5e1e346bd5cabc5413b5056666020604051858152a16001926200a9b3565b826316c94c5160e11b5f5260045260245ffd5b6200aa3c60c954916001600160701b038316620103d6565b906001600160701b0319161760c955565b7fffffffffffe0000000000000000000000000ffffffffffffffffffffffffffff6200aa8f60c954926c1fffffffffffffffffffffffff8460701c166201046b565b60701b91161760c955565b9390979695926200aac09060c0969360e087019a87526020870152604086019062007e3c565b6060840152608083015260a08201520152565b916080936200aaf891979695929760a085019885526020850152604084019062007e3c565b60608201520152565b9695966107a05261078052610640526107c0526107c0515f5260126107a0510160205260405f206106205264ffffffffff610620515460b81c16156200c34157826200ab59916107c051610620516107a05162010514565b610680526106a09290925291949192156200c3395760016107a05101926200ab8d8662ffffff865460701c168484620108c9565b9086806200c32b575b806200c31d575b80156200c2f0575b156200c25d57505050846200c1b2575b506200ac5692935060ff610620515460401c166106e0525f610720525f6107e0525f610760526106205154906200ac076106a0516001600160501b038460481c1664ffffffffff8560b81c166201436b565b6200ac15819692966200d9b4565b610720526200ac4760ff8560401c16946106a0519063ffffffff8160981c169060e01c87610680516107a0516200ce92565b610700526106c052906200d42c565b915f83126200c15a57506001600160501b036200ad2f6200ad63926200ac7c856200d9b4565b6108205254936200acf5620186a06200ac9e62ffffff8860881c16846200d9c5565b0591620186a06200acd062ffffff826200acbe828c60a01c16866200d9c5565b05998a6107e05260b81c16836200d9c5565b056108008190526200acee906200ace8858a6200d42c565b6200d42c565b906200d45a565b946200ad0861080051610820516200d42c565b610820528715806200c151575b6200c11f575b508260036107a051015460501c166201785a565b1660036107a051019069ffffffffffffffffffff60501b1969ffffffffffffffffffff60501b83549260501b169116179055565b6200ad71610820516201438c565b5f61082051125f146200c090576200ad91906107c0516107a051620116b1565b6107c0515f5260d560205260405f20906200adb06107e051836201439c565b610760526200adcc60c954916001600160701b0383166201785a565b906001600160701b0319161760c95560ff610620515460401c16926002841015620046fe576200ae95936200c078576200ae0d6106a0516107a05162014419565b156200c04d576200ae46906200ae2d6107c05160116107a0510162012bd1565b600561ffff60026107a051015460a81c16910162012cdd565b6200917960026107a0510154845f146200c03b5764ffffffffff8116905b60ff8160e01c169160ff8260d81c169164ffffffffff808260501c1692169061ffff6106a0519160b81c166200e7da565b90156200c033575f5b610640515f5260d560205260405f206105e0526001600160501b036105e0515416610640515f5260126107a0510160205260405f20610740526200aeea6106a0518361074051620178a2565b6200aef58362012f59565b806200c02b575b6200bfe7575b6200af0d8162007b81565b806200b75457506200af315f846106a05161068051866105e0516107a05162017932565b9194909185156200b209575b5050505b6105e051546001600160501b0316908082108015906200b1f6576200af678284620085cb565b915b6001600160ff1b0383116200b1e05750156200b1cf575b5050600782036200b19f575050610640515f9081526107a05160120160205260409020805460b81c64ffffffffff16156200b11457806001600160501b03807ff14b2e916a38315c52d00796f7301d83d24a889ea889ef230a501c9dcb524d20935460481c16916200aff6610800518262014444565b54604080516106405161078051825260208201529081019390935260481c166001600160501b0316606082015280608081010390a15b6200b042610640516107c0516107805162010dee565b7f6fc9c0ea1c0531654320ba06740c802447dbdef7c26cf749c4f12553cdd958a96101c061062051546001600160501b03604051916107805183526107c05160208401526200b098604084016106e05162007e3c565b6106805160608401526106805160808401526106a05160a084015264ffffffffff8160b81c1660c08401526106c05160e0840152610700516101008401526107205161012084015260481c166101408201526107e051610160820152610760516101808201525f6101a0820152a1620082186107a05162010f8b565b50610640515f5260d56020527f66c4fd8d726a62e549cbf66bc9a8e005cb6e30b73e027b3d86c4df1388d2b16f60405f206200b1766001600160501b03825416916200b16b61080051610640516107a051620116b1565b61080051906201439c565b60408051610640516107805182526020820152908101929092526060820152608090a16200b02c565b62001814604051928392633e3906a760e21b84526106a05190610680519061064051610780516004880162010c4d565b6200b1da906200d9b4565b6200af80565b8363e69a04b360e01b5f5260045260245260445ffd5b6200b2028383620085cb565b916200af69565b90919294506200b2198462007b81565b836200b74b575f905b61ffff60026107a051015460a81c165f60c06040516200b2428162007fe4565b8281528260208201528260408201528260608201528260808201528260a082015201526001600160501b0385116200b72d5764ffffffffff6106a051116200b70e57604051906200b2938262007fe4565b5f82525f60208301526200b2ab846040840162008a31565b6001600160501b038616606083015263ffffffff6106805116608083015264ffffffffff6106a0511660a083015263ffffffff431660c0830152610640515f5260126107a0510160205264ffffffffff60405f205460b81c166200b6f557506107a0516011015460201c63ffffffff16806200b6a557506200b3376106405160116107a05101620156dc565b610640515f5260126107a0510160205260405f2063ffffffff808351161663ffffffff198254161781556200b39163ffffffff602084015116829063ffffffff60201b82549160201b169063ffffffff60201b1916179055565b6040820151916002831015620046fe5760c063ffffffff916200b3b96200b48a958562019103565b6060810151845472ffffffffffffffffffff000000000000000000191660489190911b72ffffffffffffffffffff000000000000000000161784556080810151845463ffffffff60981b191690841660981b63ffffffff60981b1617845560a0810151845464ffffffffff60b81b191660b89190911b64ffffffffff60b81b16178455015182547bffffffffffffffffffffffffffffffffffffffffffffffffffffffff16911660e01b7fffffffff0000000000000000000000000000000000000000000000000000000016179055565b6200b49f6106405160116107a0510162015700565b60056105e0510161ffff60026107a051015460a81c1660fc8111155f146200b5fa576001901b81541790555b6200b4e56200b4db82866200861a565b6105e0516200e6e6565b6200b4f4846107a0516200f76f565b6200b51d6200b5156200b50f836107a0515460e81c62008585565b62012b70565b8092620085cb565b906200b529826200d209565b6200b538816107a0516200f78b565b6002831015620046fe577fc05bb1266b937b53a6bd9fe3b60b86031f9d7a0d7000daf856c5f7147bc107399461012094846200b5e2576200b5806106a0516107a05162019152565b6200b5ae61ffff60026107a051015460a81c1695604051968752610640516020880152604087019062007e3c565b606085015260808401526106805160a08401526106a05160c084015260e0830152610100820152a16007915f80806200af3d565b6200b5f46106a0516107a05162019131565b6200b580565b6101fc81116200b62f576200b611600191620085bb565b1b60066105e05101908154179055600160fd1b81541790556200b4cb565b6102fc81116200b664576200b646600191620085aa565b1b60076105e05101908154179055600160fe1b81541790556200b4cb565b6103fc8111156200b678575b50506200b4cb565b6200b68560019162008599565b1b60086105e05101908154179055600160ff1b81541790555f806200b670565b63ffffffff81116200b6db578060208301525f5260126107a051016020526200b6d56106405160405f20620156dc565b6200b337565b6395d41f3f60e01b5f5260045263ffffffff60245260445ffd5b633f1ed2e160e21b5f526004526106405160245260445ffd5b6395d41f3f60e01b5f526106a05160045264ffffffffff60245260445ffd5b846395d41f3f60e01b5f526004526001600160501b0360245260445ffd5b6001906200b222565b9092906200b7628162007b81565b600181036200ba9c57506200b78c5f826106a051610680516105e051610740516107a05162017eeb565b6106609190915293949293929085600a81036200b8155761ffff60026107a051015460a81c1660036107a051015490620018146200b7cd610660516201438c565b60405163063c641b60e41b815261ffff90931660048401526001600160501b03808516602485015260509490941c909316604483015260648201929092529081906084820190565b156200b828575b5050505050916200af41565b6200b83b91929395506105e0516201439c565b506200b84a610660516201438c565b5f61066051125f146200ba87576200b86a90610640516107a051620116b1565b6200b8816200b50f856107a0515460e81c62008585565b906200b88e8286620085cb565b6200b899816200d209565b6200b8a8836107a0516200f78b565b6200b8c56107405154946001600160501b038660481c166200d42c565b925f84126200ba7857600260ff8660401c161015620046fe57846101609464ffffffffff7f58afee63719a71ec5980dd0733045eb88626c2fe5c0e2bdcb2624d9bb2cc76039760b81c166200b94a6200b93e6200b92c8363ffffffff8760981c1662008585565b620041326106a0516106805162008585565b916106a051906200861a565b60ff8460401c16155f146200ba67576200b9649162012b9e565b60ff8360401c16155f146200ba4f576200b9856106a0516107a05162019152565b64ffffffffff610740515460b81c16916001600160501b036200b9ac6106a051856200861a565b946200b9df61ffff60026107a051015460a81c16878686439360ff8760401c1690610640519060116107a05101620196d1565b61ffff60026107a051015460a81c1698604051998a526106405160208b01526200ba1360408b0160ff8460401c1662007e3c565b60608a015260481c16608088015260a087015260c086015260e0850152610100840152610120830152610140820152a16007915f80806200b81c565b6200ba616106a0516107a05162019131565b6200b985565b6200ba7291620085d9565b6200b964565b63b42b26c760e01b5f5260045ffd5b6200ba96906107a0516200f76f565b6200b86a565b6003906200baaa8162007b81565b036200bd4c576200bad45f826106a05161068051610680516105e051610740516107a05162017d3c565b610600939093529798969792969295509193509087600a81036200bb1c5761ffff60026107a051015460a81c1660036107a051015490620018146200b7cd610600516201438c565b156200bb31575b50505050505050916200af41565b6200bb74919293949597506200bb4a610600516201438c565b5f61060051125f146200bd37576200bb6a90610640516107a051620116b1565b6105e0516201439c565b506200bb8c6200b50f876107a0515460e81c62008585565b6200bb988188620085cb565b916200bba4836200d209565b6200bbb3826107a0516200f78b565b61074051549560ff8760401c16946002861015620046fe5764ffffffffff6101a0977fbd161e0db83f06eaeba6c96e96b5472806bda5334e76d6fe2c8653d32ec2b6569988155f146200bd0e57506200bc1982610740515460b81c166107a05162014419565b6200bc28836107a05162019131565b6107405154906200bc698c8561ffff60026107a051015460a81c168c155f146200bd06576001925b43936106805192610640519060116107a05101620196d1565b6107a0516002015460a81c61ffff16986200bcfb576200bc9f60015b6040519a8b526106405160208c015260408b019062007e3c565b60608901526001600160501b038160481c1660808901528a60a08901526106805160c089015260b81c1660e0870152610100860152610120850152610140840152610160830152610180820152a16007915f808080806200bb23565b6200bc9f5f6200bc85565b5f926200bc50565b826200bd229160b81c166107a051620143d3565b6200bd31836107a05162019152565b6200bc28565b6200bd46906107a0516200f76f565b6200bb6a565b6200bd6b906106a0516106805161068051610740516107a05162017c52565b6105c094909452509192909184600a81036200bddb576107a051600281015460039091015460405163063c641b60e41b81526105c05160a89390931c61ffff1660048201526001600160501b03808316602483015260509290921c90911660448201526064810191909152608490fd5b156200bdf2575b505050506105c05150916200af41565b90919293506200be0d6105c051610640516107a051620116b1565b6200be1f6105c0516105e0516200c45c565b60ff610740515460401c16916002831015620046fe57826200bfcf576200be4d6106a0516107a05162014419565b84156200beff57509060c0917f599b5f439ed4daf1f28ae8638e5439d3982e8001fb26dd8f70021b38672eb26f936200be906106405160116107a0510162012bd1565b6200beb061ffff60026107a051015460a81c1660056105e0510162012cdd565b6200bede61ffff60026107a051015460a81c1693604051948552610640516020860152604085019062007e3c565b610680516060840152608083015260a0820152a15b6007905f80806200bde2565b907fcd4a9f7ae1cc250eaa0be6bdb30d07efaf0faafb4ff0e76d8fe09a8373e43f859364ffffffffff610120946200bf4061074051549561074051620179d2565b6200bf526106a0516107405162014499565b8161ffff60026107a051015460a81c16956200bf876107405154936040519889526106405160208a0152604089019062007e3c565b6001600160501b038160481c1660608801526001600160501b038360481c16608088015260b81c1660a086015260b81c1660c084015260e0830152610100820152a16200bef3565b6200bfe16106a0516107a051620143d3565b6200be4d565b6106a0515f036106a05162003ae857846200c01e6200c024926107a051549060ff808360b81c169260b01c169061068051620115f8565b62011670565b506200af02565b505f6200aefc565b60016200ae9e565b64ffffffffff8160281c16906200ae64565b506200c060610720516106205162014444565b6200c0726106a0516106205162014499565b6200ae46565b6200c08a6106a0516107a051620143d3565b6200ae0d565b806200c09e575b506200ad91565b6200c0ad906107a0516200f76f565b7fbee5185c13c42cac0d82b6c115c77d5e8dc2b2888c013d169e068e634f57f58e60e061ffff60026107a051015460a81c166040519081526107c05160208201526106805160408201526106a051606082015260016080820152600160a08201526108205160c0820152a15f6200c097565b806200c1336200c14192610820516200d42c565b61082052610720516200d42c565b610720525f6107e0525f6200ad1b565b5060016200ad15565b60c490836200c19961ffff60026107a051015460a81c169260405193630c62a44b60e11b855260048501526107c0516024850152604484019062007e3c565b6106a051606483015261068051608483015260a4820152fd5b83156200c25057846106805111155b6200abb557925050506200c21a577f1f008bb4cf7968d3043531816710a52872a7cd65b725fdf40176bbe0ff8215979060ff610620515460401c166200a6c460405192839261068051906107c05161078051866200aad3565b60ff610620515460401c16620018146040519283926307c022ed60e21b845261068051906107c05161078051600487016200aad3565b846106805110156200c1c1565b9450945095945090506200c2b8576200a6c47f244c695d1e05b510329d2a418fcf7f40a78e7e06283e8422153ba676d7dc8f9d939460ff610620515460401c169260405194859461068051906107c05161078051886200aa9a565b620018148460ff610620515460401c169260405194859463244c695d60e01b865261068051906107c05161078051600489016200aa9a565b508615806200c30f575b80156200aba55750826106805111156200aba5565b50610680518211156200c2fa565b50816106805111156200ab9d565b50610680518311156200ab96565b505050505050565b505090506200c381577f6948067a0ba575890268b9a7eaf592a5832287e4402201145ce0768a9d9533fc604080516107805181526107c0516020820152a1565b6334a4033d60e11b5f52610780516004526107c05160245260445ffd5b6002015461ffff8160b81c16151590816200c3b7575090565b61ffff915060c81c16151590565b919091811562008cf35763ffffffff915f5b8181106200c3e6575050505050565b6200c3f3818387620099f6565b356001811080156200c44f575b6200c445576200c415906007810690620085cb565b938085146200c43a5750600190845f52600684016020525f60408120555b016200c3d7565b93506001906200c433565b506001906200c433565b508062ffffff106200c400565b906001600160501b036200c4758192828554166201046b565b16166001600160501b0319825416179055565b60c95460e35b90613fff911c16612710810290808204612710149015171562003ae85790565b60c9546200c48e62009f9f565b9493916200c4dd93918652602086015215156040850152606084019062007e3c565b608082015260c060a08201528260c08201527f07ffffffffffffffffffffffffffffffffffffffffffffffffffffffffffffff831162003da85760e09260051b809284830137010190565b9295935f9681156200c9d457835f526012850160205260405f209664ffffffffff885460b81c16156200c97d576200c56181876200d356565b9788156200c9715780549160ff8360401c166002811015620046fe578089946001600160501b036200c5b88e84156108205263ffffffff8460981c16809964ffffffffff8660b81c169788938760e01c926200ce92565b9391505060481c16956200c5e460018d5460ff808260b81c169160b01c168588868d6108205162011097565b9687156200c89157505050610820515f146200c88757848c11155b156200c81d5750995f9a5b868c106200c749575b839495969798999a9b5064ffffffffff6200c6359293945460b81c16620085cb565b806200c6ba5750506200c69057927faad1caf83451874ebc06a35849e4a295d8bfa856d05d1fbac2876702c7d5074394926200c6879260ff620082189998965460401c165f604051978897886200c4bb565b0390a162010f8b565b9060ff620018149493925460401c165f60405197889763155a395f60e31b8952600489016200c4bb565b839b5081965084819596505f93506001928a8a6200c6db978e9f9e620114d8565b156200c6ff575050506200c6f29293945062010c80565b6200821860019262010f8b565b6200c73860e49560ff8a5460401c1690604051966350e5550560e11b8852600488015260248701525f6044870152606486019062007e3c565b608484015260a483015260c4820152fd5b6200c7568c8888620099f6565b3590815f5260128b0160205260405f209164ffffffffff835460b81c16156200c81157825460ff8160401c166002811015620046fe571561082051146200c804578c88866200c7c2948e64ffffffffff5f9660b81c168881101587146200c7fb575087988995620112cb565b156200c7f057906200c7d491620085cb565b9a8b156200c7e8576001905b019a6200c60a565b508a6200c613565b9b600191506200c7e0565b988995620112cb565b50509b600191506200c7e0565b509b600191506200c7e0565b9b999a969798505092505091506200c86657906200a8ee917fb2f4de9c8b5c718fbc129fd73f1f19ba5c646e821e39464c1c0bdb4014b4ed6e959697604051958695866200aad3565b90620018149187604051958695632cbd37a760e21b8752600487016200aad3565b848c10156200c5ff565b97509750989a9c9b50509597509150506200c915576040805195865260208601969096526001600160501b03169484019490945263ffffffff909316606083015264ffffffffff909216608082015260a08101919091527f2e92846d5b5d5dd9cf60dd19064afe4a911e6751cdad455cb26a600db66e963c908060c081016200a8ee565b6200181494959650604051968796632e92846d60e01b8852600488019260a0946001600160501b0363ffffffff9264ffffffffff959a9998949a60c088019b885260208801521660408601521660608401521660808201520152565b50959650505050505050565b9394505050929493506200c9be577f6948067a0ba575890268b9a7eaf592a5832287e4402201145ce0768a9d9533fc9160409182519182526020820152a190565b906334a4033d60e11b5f5260045260245260445ffd5b50509391509193506200ca15577f64846a095feab375f007bd15ab65eefdf07957e365b3c7ee4711cd9dbdecabe79160409182519182526020820152a15f90565b906364846a0960e01b5f5260045260245260445ffd5b9295935f9681156200c9d4576012850196845f528760205260405f2064ffffffffff815460b81c16156200ce05576200ca6582886200d356565b9182156200cdf857815460ff8160401c16906002821015620046fe578115918a63ffffffff8360981c1692836200cae05f6001600160501b036200cabe8c64ffffffffff8760b81c16998a918a8960e01c918b6200ce92565b9691505060481c16945460ff808260b81c169160b01c16858986898d62011097565b9283156200cd7257505050835f146200cd69578087115b156200ccfd575050905f905b8782106200cc2e575b505082939495969798999a5064ffffffffff6200cb2f92935460b81c16620085cb565b806200cbac57506200cb8157927faad1caf83451874ebc06a35849e4a295d8bfa856d05d1fbac2876702c7d5074394926200c6879260ff620082189998965460401c166001604051978897886200c4bb565b9060ff620018149493925460401c16600160405197889763155a395f60e31b8952600489016200c4bb565b889a508095508294505f9150838089896001966200cbcd989b9c9d620114d8565b156200cbe257505050906200c6f29162010c80565b60e49460ff6200cc1c925460401c1690604051956350e5550560e11b87526004870152602486015260016044860152606485019062007e3c565b60848301528060a483015260c4820152fd5b90916200cc3d838989620099f6565b3590815f528d60205260405f209164ffffffffff835460b81c16156200ccf157825460ff8160401c16916002831015620046fe578c8f93928b931588146200cce1576200ccaa9460019490939092839260b81c64ffffffffff168881106200c7fb575087988995620112cb565b156200ccd657906200ccbc91620085cb565b9182156200ccd0576001905b01906200cb03565b6200cb0c565b92600191506200ccc8565b505050505092600191506200ccc8565b5092600191506200ccc8565b97509c9a9b505050925050929394506200cd4857906200a8ee917f2d77916ace43e6acd02840c860e1e53ff9192b11b1e4dd447dddbcd4b5a4a5c3959697604051958695866200aad3565b906200181491876040519586956316bbc8b560e11b8752600487016200aad3565b8087106200caf7565b995099509a9c9e9d505050969850509150506200c915576040805195865260208601969096526001600160501b03169484019490945263ffffffff909316606083015264ffffffffff909216608082015260a08101919091527f2e92846d5b5d5dd9cf60dd19064afe4a911e6751cdad455cb26a600db66e963c908060c081016200a8ee565b5096975050505050505050565b509394505050929493506200c9be577f6948067a0ba575890268b9a7eaf592a5832287e4402201145ce0768a9d9533fc9160409182519182526020820152a190565b5f9142915463ffffffff8160201c169161ffff8260a01c16915f8442116200ce7d575b156200ce735750565b63ffffffff169450565b50826200ce8b8542620085cb565b116200ce6a565b805460ff60b882901c811698979693915f91829160b01c16806200d0ad575050620f4240985b806200d02e575050620f4240915b5f958043106200d00957906200ceee6200cee38b9493836200e8dd565b91909243906200e8dd565b9091036200cff8575b5050916200cf1a826200cf136200cf2194620f42409662008585565b9562008585565b9662008585565b918281871196875f146200cfe0576200cf3f926200412c91620085cb565b04905b6002831015620046fe576200412c6200cf8e92620f4240941596875f146200cfd9575b156200cfd2576200cf76906200d9b4565b975b5f86129586156200412c576200412c906200d9b4565b0491156200cfc157156200cfaf57905b6200cfaa82846200d42c565b929190565b6200cfba906200d9b4565b906200cf9e565b156200cfba576200cfba906200d9b4565b976200cf78565b156200cf65565b6200412c906200cff093620085cb565b04906200cf42565b0360050b95506200cf1a826200cef7565b61ffff600283015460a81c16635d00a16960e01b5f526004526024524360445260645ffd5b600181036200d045575050620186a0915b6200cec6565b600281036200d05a575050612710916200cec6565b600381036200d06f5750506103e8916200cec6565b600481036200d0835750506064916200cec6565b600581036200d097575050600a916200cec6565b909290600519016200d03f57600192506200cec6565b600181036200d0c4575050620186a0985b6200ceb8565b600281036200d0d9575050612710986200ceb8565b600381036200d0ee5750506103e8986200ceb8565b600481036200d1025750506064986200ceb8565b600581036200d116575050600a986200ceb8565b909990600519016200d0be57600199506200ceb8565b6006906200d13f600784068094620085cb565b5f520160205260405f209080155f146200d1675750549061ffff808360081c169260181c1690565b600181036200d1845750549061ffff808360281c169260381c1690565b600281036200d1a15750549061ffff808360481c169260581c1690565b600381036200d1be5750549061ffff808360681c169260781c1690565b600481036200d1db5750549061ffff808360881c169260981c1690565b6005036200d1f657549061ffff808360a81c169260b81c1690565b549061ffff808360c81c169260d81c1690565b6200aa3c60c954916001600160701b0383166201046b565b9091926001600160a01b03620082189481604051956323b872dd60e01b60208801521660248601521660448401526064830152606482526200d2656084836200808e565b620114ef565b91906200d2836200d27c82620085f8565b9162008607565b908381119384156200d2b3575b846200d29b57505050565b630caa980960e21b5f5260045260245260445260645ffd5b82811194506200d290565b9291926200d2d76200d2d083620085f8565b9262008607565b908083119485156200d34b575b856200d2f1575b50505050565b6200d33157507f9c6cd57b23ccacf841857c1eb7892bef39f27d0c1197bb0bf7646c90dc7fb8709160409182519182526020820152a15f8080806200d2eb565b8290630caa980960e21b5f5260045260245260445260645ffd5b82821195506200d2e4565b91906200d363836200ce47565b919295909386156200d377575b5050505050565b6200d3d557600201546040805160a89290921c61ffff16825260208201949094529283019190915260608201527f7d19aaecec937dccd460f6ff611aadbc7bfa5ef672ef8fb6cfaf12ea804ed4a090608090a15f808080806200d370565b60020154604051631f466abb60e21b815260a89190911c61ffff166004820152602481019390935260448301919091526064820152608490fd5b9060018201915f60018412911290801582169115161762003ae857565b9190915f838201938412911290801582169115161762003ae857565b905f19820191821360011662003ae857565b81810392915f13801582851316918412161762003ae857565b98999692959197939490998854998a958660401c60ff16928760981c63ffffffff169a8860b81c64ffffffffff16918c838b60e01c916200d4b792898c8a6200ce92565b50509960481c6001600160501b0316996200d4d3908b6200d42c565b808512156200d91757846200d4e8916200d45a565b91816200d895575050975b8b8982808211156200d87657506200d50d929150620085cb565b9a6200d527845460ff808260b81c169160b01c166200861a565b6006036006811162003ae8576200d5426200d5499162009530565b8362008585565b816002871015620046fe578d91876200d857576200d56c906200d5739362012b9e565b906200d42c565b9b5b5f8d13156200d7f15750508a63ffffffff6009850154166200d59b6200d27c82620085f8565b8282119283156200d7e5575b50826200d7ad575b50506200d79d576200d5cf6200d5d8918c5f9f5b60e01c878a886200ce92565b50508d6200d42c565b908082126200d6cc575b50509363ffffffff620082189c81999589956200d6628a968f6200d6c69f9d906200d63b7fa97e56d50498d7b8acf31641413f46438d6d7d3f6e6acf04c6e7995cab8b66b29e6001600160501b03936101809f620116b1565b6200d6478a886200c45c565b54955416986040519a8b5260208b015260408a019062007e3c565b606088015260808701526001600160501b038160481c1660a08701528c60c087015260981c1660e085015286610100850152610120840152610140830152610160820152a1835463ffffffff60981b1916911660981b63ffffffff60981b16178255565b620117d5565b5f82138015906200d728575b156200d5e257989a5098505050505050507fa3cd1f19e02df00e3aa13cca19961f43eeedbfb5f34c064e278a6e2554a45088955060809450604051938452602084015260408301526060820152a1565b5060018301548060f81c6009811080156200d792575b62004a18576200d74e9062009530565b826200d76057505081155b156200d6d8565b828411156200d782578263ffffffff818603935b60d81c16029102106200d759565b8263ffffffff858203936200d774565b50602481116200d73e565b5050505050505050505050505050565b7f9c6cd57b23ccacf841857c1eb7892bef39f27d0c1197bb0bf7646c90dc7fb8709160409182519182526020820152a15f806200d5af565b81935011915f6200d5a7565b9750979550505050959750507f5af9ac97cf247d243434484869b838e2197714f1588e5d33e67505161e003687985060e097506200d8549593604051978852602088015260408701526060860152608085015260a084015260c083019062007e3c565ba1565b6200d86891506200d86f9262012b9e565b826200d45a565b9b6200d575565b6200d5cf93506200d5d89492916200d88e91620085cb565b9f6200d5c3565b82829b9392116200d8a9575b50506200d4f3565b99909199156200d8bd5750975f806200d8a1565b999d50999b5050505050505050507f2d1899850ba9b9c9b74657311b57a098fafc67bacd47c2572b10b1d48158646595506200a6c49250604051948594859094939260609260808301968352602083015260408201520152565b509b505050505050505050509092507f2d1899850ba9b9c9b74657311b57a098fafc67bacd47c2572b10b1d481586465945060809350604051928352602083015260408201525f6060820152a1565b906001600160501b036200d98960036200821894019282845460501c16620103d6565b825469ffffffffffffffffffff60501b1916911660501b69ffffffffffffffffffff60501b16179055565b600160ff1b811462003ae8575f0390565b81810292915f8212600160ff1b82141662003ae857818405149015171562003ae857565b8115620085e457600160ff1b81145f1983141662003ae8570590565b929190925f91600282015461ffff8160a81c169583549463ffffffff8660c81c16926200da33848a6200f753565b6200da465f60ff8960c01c168b6200ebbd565b6200de1b576200da56436200ec27565b9391929098608f430180431162003ae85785116200ddcd576013890191848452826020526040842054916200da8b8c6201182d565b9c15809d819e6200ddc0575b506200dd2c5760ff8260f01c16158080916200dd19575b6200dd08576200daca8663ffffffff60098f0154168d6200d2be565b6200dd08576200dc45575b5060981c61ffff166200dae8816200d9b4565b8790828213156200dc28575050965b620186a06200db07898b6200d9c5565b0560050b99849187116200dbaf575b50927f9c0e05c2bbc786a75afe5fed63ff9274f7c690af8ea4e843e07f2a525295c1049c9a989694926040928b6101009e9c9a9896019a8b9165ffffffffffff806200db6d6200db66856200856e565b946201182d565b9416831b921b191617179382526020522055604051978852602088015260408701526060860152608085015260a084015260050b60c08301521560e0820152a1565b5f19870191508682116200dc1457926040928b7f9c0e05c2bbc786a75afe5fed63ff9274f7c690af8ea4e843e07f2a525295c1049f9d9b9997956101009f9d9b9997946200dbfd916200e8dd565b509396989a509b9d509250929496989a9c6200db16565b634e487b7160e01b85526011600452602485fd5b809199925088126200dc3c575b506200daf7565b97505f6200dc35565b61ffff63ffffffff8260401c169160901c16906200dc6582828d62014339565b156200dc7257506200dad5565b9a509a5050505094989750505050506200dcd2577f2030ce993f9f888e4d2a20dcbf75ead5d3de6742ef5fa8e75a47849a41a4af579392916200a6c491604051948594859094939260609260808301968352602083015260408201520152565b906200181491604051948594632030ce9960e01b8652600486019094939260609260808301968352602083015260408201520152565b505050505050505050505050505050565b506200dd26868d620102f2565b6200daae565b505050509450945096955050506200dd8a577fdd8c0c9dcb3ad98da85346fa23e456a8128ec3fc478eaacb4990e450880308cc9392916200a6c491604051948594859094939260609260808301968352602083015260408201520152565b90620018149160405194859463dd8c0c9d60e01b8652600486019094939260609260808301968352602083015260408201520152565b9050831615155f6200da97565b5050604080519a8b524360208c01528a0192909252507fe0a0c6a40b4bf56f73bec44f57f213f583e95a0be298411ea97afbe135c07d82979650869550506060850193506200a6c492505050565b505050505050505050565b600281015481549560a882901c61ffff169594919360c888901c63ffffffff16916200de5383896200f753565b6200de668160ff8b60c01c168a6200ebbd565b6200de1b576200de76436200ec27565b929097608f430180431162003ae85784116200e155576013880191835f528260205260405f20549c8d6200deaa8c6201182d565b9c159c8d91826200e148575b50506200e0ea5760ff8360f01c16158080916200e0d7575b6200dd08576200deea8363ffffffff60098e0154168c6200d2be565b6200dd08576200e04b575b505060981c61ffff166200df09816200d9b4565b8590828213156200e02e575050945b620186a06200df2887896200d9c5565b0560050b975f9185116200dfcf575b50907f9c0e05c2bbc786a75afe5fed63ff9274f7c690af8ea4e843e07f2a525295c1049b886101009c9b9a9998979695949301986200df816200df7a826200856e565b916201182d565b9165ffffffffffff808c16831b921b19161717915f5260205260405f2055604051978852602088015260408701526060860152608085015260a084015260050b60c08301521560e0820152a1565b9a99989796959493929190505f1983019b838d1162003ae857876200e0197f9c0e05c2bbc786a75afe5fed63ff9274f7c690af8ea4e843e07f2a525295c1049e6101009e6200e8dd565b50929394959697985098999a9b509b6200df37565b809197925086126200e042575b506200df18565b95505f6200e03b565b61ffff63ffffffff8260401c169160901c16916200e06b83838c62014339565b156200e07857506200def5565b99509950995050505050505094506200dcd2577f2030ce993f9f888e4d2a20dcbf75ead5d3de6742ef5fa8e75a47849a41a4af579392916200a6c491604051948594859094939260609260808301968352602083015260408201520152565b506200e0e4838c620102f2565b6200dece565b509750505095965097505050506200dd8a577fdd8c0c9dcb3ad98da85346fa23e456a8128ec3fc478eaacb4990e450880308cc9392916200a6c491604051948594859094939260609260808301968352602083015260408201520152565b16151590505f8f6200deb6565b50975050975050505050506200e1a557604080519182524360208301528101919091527fe0a0c6a40b4bf56f73bec44f57f213f583e95a0be298411ea97afbe135c07d829080606081016200a6c4565b63382831a960e21b5f526004524360245260445260645ffd5b90929160ff600283015460f01c166200e2935760016200e1e0918584620119e1565b9490929091156200e28057805463ffffffff60401b1916604084901b63ffffffff60401b161781557f5e3f1c81da4dcfcb835cba6457aa389114f5d309917179746b46ac03953f56b29291905b80546fffffffff0000000000000000000000008760601b16906fffffffff00000000000000000000000019161790556200a6c4600195604051938493846040919493926060820195825260208201520152565b5063a8c2945f60e01b5f5260045260245ffd5b50509060207f36f8ddb481e1d66678af53feb8d0fdddc463c11ce08cda4e93ac2065d26634dd91604051908152a15f90565b9291905f9160ff600286015460f01c166200e36d575f6200e2e8918387620119e1565b9590939091156200e33b5750805463ffffffff60401b1916604084901b63ffffffff60401b161781557f5e3f1c81da4dcfcb835cba6457aa389114f5d309917179746b46ac03953f56b29291906200e22d565b9450507fa8c2945f7db53a36d192551c9b4c3ea4cbc53140f60d0dc8b1a8b58499958cdf9150602090604051908152a1565b507f36f8ddb481e1d66678af53feb8d0fdddc463c11ce08cda4e93ac2065d26634dd92935060209150604051908152a15f90565b6002609754146200e3b3576002609755565b60405162461bcd60e51b815260206004820152601f60248201527f5265656e7472616e637947756172643a207265656e7472616e742063616c6c006044820152606490fd5b906001600160501b03809116911603906001600160501b03821162003ae857565b9190915f9054906001600160501b038083169260501c168083116200e461575b5080841193846200e44957505050565b632e14f96160e21b5f5260045260245260445260645ffd5b6001600160501b0391506200e47790836200e3f8565b165f6200e439565b9290925f9054936001600160501b038086169560501c168086116200e529575b5081811193846200e4b3575b505050909150565b6200e50e576040805191825260208201929092526001600160501b039094169084015290917fb853e5846ad52919c794f709695100094681c458cd1864d5217c6c897b6858b19080606081015b0390a181905f80806200e4ab565b849250632e14f96160e21b5f5260045260245260445260645ffd5b6001600160501b039192506200e54090866200e3f8565b16905f6200e49f565b335f5260d460205260ff60405f2054166200e6e35760d1544311156200e69b5761217b430180431162003ae8578060d1556103e86200e58e60ce5460cc549062008585565b0460d3548082115f146200e69357505b61217b8104918260d05561085f430180431162003ae85760d25561217b830283159084810461217b1482171562003ae8576200e5db9084620085cb565b9361085f81029181830461085f14171562003ae8576200e6216200e641927fbed1e76d359c53e2dbafd4561fa97daac567d51974f6317c2f583ef17cddaa9d966200861a565b60cf55604051938493846040919493926060820195825260208201520152565b0390a15b60cf548082116200e66157906200e65c91620085cb565b60cf55565b60d05460d1546040516356cb4a3d60e01b81526004810194909452602484019290925260448301526064820152608490fd5b90506200e59e565b60d2548043116200e6ae575b506200e645565b6200e6cc6200e6c26200e6d59243620085cb565b60d0549062008585565b60cf546200861a565b60cf554360d2555f6200e6a7565b50565b906001600160501b036200c475819282855416620103d6565b60405163a9059cbb60e01b60208201526001600160a01b0392909216602483015260448083019390935291815262008218916200d2656064836200808e565b9392919060648102928184046064148215171562003ae857826200e7629162008585565b938484106200e7d257826200e7779162008585565b938484106200e7c2575081116200e7915750505050600190565b60648102908082046064149015171562003ae8576200e7b09262011fcf565b818111156200e7bd575090565b905090565b90506200e7b09391508462011f08565b505050505090565b949392916200e7e9916200861a565b60648102928184046064148215171562003ae857826200e7629162008585565b9061271081116200e844576002909101805470ffff000000000000000000000000000000191660789290921b61ffff60781b16919091179055565b61ffff600283015460a81c16630dbcc17f60e31b5f5260045260245261271060445260645ffd5b6001600160a01b0319606554166065556001600160a01b0380603354921691826001600160a01b0319821617603355167f8be0079c531659141344cd1fd0a4f28419497f9722a3daafe3b4186f6b6457e05f80a3565b6001600160501b036200c47560038293019382855416620103d6565b63ffffffff815460c81c16918281106200e9c8579091906200e8ff9062012008565b9391939290929383926013829101915f52816020526200e92460405f2054956201182d565b8516156200e94a57505050906200e94265ffffffffffff926200856e565b1c1660050b91565b9194939092858511156200e9be57806200e9a75750506200e97160059161a76790620085cb565b9050600491815f528060205260405f2054935b61217a19810190811162003ae857946200e99e846201182d565b9290926200e924565b909392905f19810190811162003ae857926200e984565b505f959350505050565b5050505f905f90565b9190916001831080156200ea26575b6200ea0857600201805461ffff60c81b191660c89390931b61ffff60c81b1692909217909155565b82630c8f0a6960e41b5f52600452600160245261271060445260645ffd5b5061271083116200e9e0565b9061271081116200e8445790600261ffff62008218931691019061ffff60881b1961ffff60881b83549260881b169116179055565b9190916001831080156200ea9e575b6200ea0857600201805461ffff60b81b191660b89390931b61ffff60b81b1692909217909155565b5061271083116200ea76565b6001821080156200eb0f575b6200eaee57600201906effffffffff0000000000000000000082549160501b16906effffffffff000000000000000000001916179055565b50630c8f0a6960e41b5f52600452600160245264ffffffffff60445260645ffd5b5064ffffffffff82116200eab6565b906103e8811080156200eb71575b6200eb525767ffff00000000000082549160301b169067ffff0000000000001916179055565b61ffff9063d24aa9ff60e01b5f526004526103e860245260445260645ffd5b5061ffff81116200eb2c565b5f92916005811015620046fe5780151590816200ebb0575b506200eb9e5750565b633892657f60e01b5f5260045260245ffd5b6004915014155f6200eb95565b9092915f936005811015620046fe5780151590816200ec1a575b506200ebe1575050565b909192506200eb9e5760207f3892657f1733e6fad09eddb45222f85d706fcdf18040658aae5eb4bd9ba497e691604051908152a1600190565b6004915014155f6200ebd7565b6200ec329062012008565b92908290600481036200ec635750506200ec515f9261a767906200861a565b925b61217b810180911162003ae85790565b6200ec71919493506200871c565b916200ec53565b906200ec84336200a911565b91825f5260d560205260405f209260ff845460a01c166200eca58162007b81565b8062004e5257506200ecc7826001600160a01b0360cb5416309033906200d221565b6200ecd382856200c45c565b60cc546200ece283826200861a565b906001600160501b0382116200ed42575060cc5592546040805194855260208501929092526001600160501b031690830152907f84b5adc99a7d46a960b87da6e4882021bab65d63c6d02c9bcfc52f02e710b1e39080606081016200a6c4565b8390632242001360e21b5f526004526024526001600160501b0360445260645ffd5b92906200ed7360018462012044565b6200d2eb57805f526012840160205260405f209264ffffffffff845460b81c16156200f0a35760016200eda99183868862010514565b939594969196156200de1b578515967f16356f6546077582bb45c3a709f88eb52c14ea7c474380c2fe70bbf61519b3c561020061ffff60028d015460a81c168a5f146200f09b5760035b6200ee1c5a916040519384528b60208501525f60408501525f606085015260808401906200831d565b8560a08301528760c08301525f60e08301525f6101008301525f61012083015260016101408301526103e86101608301525f6101808301525f6101a08301525f6101c08301526101e0820152a16200ee778885848d620120ca565b61058051948181116200ee9b575b5050505050505050505050620082189062010f8b565b906200eea791620085cb565b938489156200f089576200eebb9162012b9e565b965b60ff8a5460401c1698816200f07e575b81156200f064575b506200f0165750506200eeed908286868a8c6201095a565b9593989250939590988760028d015460a81c61ffff16906200ef0f9162010c80565b604051838152836020820152836040820152846060820152608081015f90528960a08201528a60c082015260e07f5be6b2e974d9a72428e5cb9cf915a5f991d1c862db8cafc9a121bb99b091cb7491a160028c015460a81c61ffff169a54976040519b8c5260208c015260408b016200ef889162007e3c565b60608a0152608089015260a08801528360b81c64ffffffffff1660c088015260e087015261010086015261012085015260481c6001600160501b03166101408401526101608301526101808201526101a08101600190526101c07f6fc9c0ea1c0531654320ba06740c802447dbdef7c26cf749c4f12553cdd958a991a15f808080808080808080806200ee85565b925092505060c4936200f0538661ffff60028b015460a81c16956040519663fbe5086f60e01b885260048801526024870152604486019062007e3c565b6064840152608483015260a4820152fd5b9050806200f074575b5f6200eed5565b508682106200f06d565b88841191506200eecd565b6200f09491620085d9565b966200eebd565b60026200edf3565b5061ffff600285015460a81c166334a4033d60e11b5f5260045260245260445ffd5b939291926200f0d5818562012044565b6200d37057815f526012850160205260405f209364ffffffffff855460b81c16156200f10a57906200eda99183868862010514565b5091509291506200f15d57600201546040805160a89290921c61ffff16825260208201929092527f6948067a0ba575890268b9a7eaf592a5832287e4402201145ce0768a9d9533fc91819081016200a6c4565b600261ffff91015460a81c166334a4033d60e11b5f5260045260245260445ffd5b156200f18657565b60405162461bcd60e51b815260206004820152602b60248201527f496e697469616c697a61626c653a20636f6e7472616374206973206e6f74206960448201527f6e697469616c697a696e670000000000000000000000000000000000000000006064820152608490fd5b9091801562008cf3575f5b8181106200f20a5750505050565b806200f21a6001928487620099f6565b358061ffff106200f23c575f52600784016020525f60408120555b016200f1fc565b506200f235565b905f9180151590816200f276575b81156200f267575b506200f26157565b60019150565b63ffffffff9150115f6200f259565b43811091506200f251565b61ffff608082015116801580156200f29857505050565b612710820291820461271014171562003ae85760c95460701c6c1fffffffffffffffffffffffff168082116200f33057507ff27eb3c55bcb1712997bc5da0cc066ae68b38a72fcfe141b1feb2ee0113debd9916200a6c461ffff60e06200f2ff8562012dde565b936200f30b866200d209565b015116916040519384938460409194939261ffff606083019616825260208201520152565b9060809161ffff60e07f5d8e434afef436d0cbafab1ae9386b8f70c885ee513868335f9474f61202d3469501511691604051925f8452602084015260408301526060820152a1565b61ffff16801562003ae8575f190190565b5f939183156200f6fa5761ffff948585166303ff00008360101b1617906002840192825f528360205260405f209687549063ffffffff8216156200f6d45750855460b01c63ffffffff1684036200f69b57506200f3f163ffffffff885460201c168662012e2e565b63ffffffff875460201c16806200f67c575b505b845460d01c63ffffffff1683036200f640576200f42d63ffffffff885460401c168662012ecc565b63ffffffff875460401c16806200f621575b505b6003850191815f52826020526200f4876200f46660405f209a8b5460401c166200f378565b8a5469ffff0000000000000000191660409190911b61ffff60401b16178a55565b87546200f49a60ff8260601c1662012f59565b156200f6025750506200f4bb6001600160501b03885460901c168662012fbe565b965b885463ffffffff8116851480806200f5ef575b156200f5565750505062008218959697505f526020525f60408120555b5f526020525f60408120556200f507815460f01c6200f378565b81547dffffffffffffffffffffffffffffffffffffffffffffffffffffffffffff1660f09190911b7fffff00000000000000000000000000000000000000000000000000000000000016179055565b9193509150156200f5b057505460201c63ffffffff16956303fcffff8088116200f59a575063ffffffff620082189596971663ffffffff198254161790556200f4ed565b876395d41f3f60e01b5f5260045260245260445ffd5b968263ffffffff6200821897989960201c16146200f5d1575b50506200f4ed565b63ffffffff6200f5e7925460401c169062012f29565b5f806200f5c9565b508563ffffffff8360201c16146200f4d0565b64ffffffffff6200f61b9160689a939a1c168a62012f81565b6200f4bd565b5f528360205260405f2063ffffffff60201b1981541690555f6200f43f565b8654602081811c63ffffffff165f9081529086905260409020805463ffffffff60401b191663ffffffff60401b9092169190911790556200f441565b5f528360205260405f2063ffffffff60401b1981541690555f6200f403565b604081811c63ffffffff165f908152602087905220805467ffffffff00000000191663ffffffff60201b9092169190911790556200f405565b905063ffffffff60018701541691638d5bba0f60e01b5f5260045260245260445260645ffd5b63ffffffff600183015416906369bc91ef60e11b5f5260045260245260445ffd5b906200821891815f52600781016020526200f74d60405f206200f74560ff825460201c166200fad1565b908362013020565b6201358b565b90156200f75d5750565b6364d572b360e01b5f5260045260245ffd5b6001600160501b036200c475600382930193828554166201046b565b906001600160501b036200d98960036200821894019282845460501c166201046b565b929061ffff600285015460a81c16936200f7cb600184846200e47f565b6200d37057835f526012810160205260405f209064ffffffffff825460b81c16156200f8ae57916001600160501b038085936200f83a8560a099976200f8347f577ed0a8f65f2feb5a407660b0a3009c2ee155a17d0e34947c58ecdd6c8b37719c9a886200e6e6565b6200f76f565b6200f888826200f8518782855460481c166201046b565b835472ffffffffffffffffffff0000000000000000001916911660481b72ffffffffffffffffffff00000000000000000016178255565b5460481c16915416926040519485526020850152604084015260608301526080820152a1565b84866334a4033d60e11b5f5260045260245260445ffd5b9392919261ffff600286015460a81c16946200f8e38285856200e47f565b6200c33957845f526012810160205260405f209164ffffffffff835460b81c16156200f94d5750916001600160501b038085936200f83a8560a099976200f8347f577ed0a8f65f2feb5a407660b0a3009c2ee155a17d0e34947c58ecdd6c8b37719c9a886200e6e6565b93505050506200c9be577f6948067a0ba575890268b9a7eaf592a5832287e4402201145ce0768a9d9533fc9160409182519182526020820152a1565b908060081c9060ff8116806200fa73575b5060101c9060ff8116806200fa11575b5050806200f9ba575b50505f1990565b6200f9c790825462013642565b60018101156200f9b357806002915f52600183016020526200f9ed60405f205462013668565b9060081b1791825f52016020526200fa0960405f205462013668565b9060081b1790565b6200fa2b90835f526001850160205260405f205462013642565b9060018201156200f9aa57600292507effffffffffffffffffffffffffffffffffffffffffffffffffffffffffff00161791825f52016020526200fa0960405f205462013668565b6200fa8d90835f526002850160205260405f205462013642565b60018101156200f99a579250905060ff19161790565b6200faae8162007b81565b600281149081156200fabe575090565b600391506200facd8162007b81565b1490565b6200fadc8162007b81565b80159081156200fabe575090565b91905f92610180820135801515806200fd06575b6200fcbc57506040820135600781101562003da857600681036200fbbe57506200fb2d836060840135620137e0565b6200a9bb57826080830135806200fb9a575b50905060a0820135806200fb7c575b505060c0013590816200fb64575b505050600190565b6200fb6f916201377a565b620081255780806200fb5c565b906200fb889162012044565b6200fb9557815f6200fb4e565b505090565b63ffffffff60096200fbb094015416906200d2be565b6200fb95575f82816200fb3f565b919291600581036200fc1a575050906101a00135156200fbdf575050600190565b6200fc0b577f1fccd51f56ecc3a71d5e32721dbf2bb0690bf050c6147a84fd5f83717d8c5d225f80a190565b631fccd51f60e01b5f5260045ffd5b6004036200fc3d575060606200fc32920135620137e0565b620081255750600190565b8163ffffffff60096200fc589301541660808501356200d2be565b6200fb95576200fc6d8160a084013562012044565b6200fb95576200fc8161010083016200830f565b15806200fca5575b6200fc9657505050600190565b60c06200fb6f9201356201377a565b506200fcb561012083016200830f565b156200fc89565b935050506200fcf45760207f9f38a7d29e6c9e707bfe5fee47b29748083dc31546de0135d48ed99db5e190f091604051908152a15f90565b634f9c53e960e11b5f5260045260245ffd5b504381106200fafe565b9192835f526010830160205260405f209463ffffffff865416156200fdcf576200fd459063ffffffff8754168387866201384d565b156200fd52575050505050565b6200fdb38460096200fdab6060976200fd97866200fd917fe9805f82cb3729e97b234bb6bb4f90ea971e2c274201ff71818ebde153e1b0a69c62008d9f565b620138cf565b9790965f5260d560205260405f206200f389565b95016200f71b565b60405192835260208301526040820152a15f808080806200d370565b92505092506200fe0b577f69b92a906c4fe940cd3de572076c4a5181ddced80218575cc4959b1d8f6a6e3f9160409182519182526020820152a1565b9063069b92a960e41b5f5260045260245260445ffd5b94929093916040516200fe348162008056565b5f81525f6020820152809561ffff600289015460a81c16606084013590815f5260108a0160205260405f209363ffffffff855416156200ff2d575083546200fe868863ffffffff83168986866201384d565b6200ff205760ff6200fe9c9160201c166200faa3565b6200feb057505062008218959697620139c1565b94985094925050509392936200ff05576200a8ee7fe03d6e5b9ada2bee571a0faed84b4da12ba5afc5c10f1c29d8fbbb6dcd7519d8939495604051938493846040919493926060820195825260208201520152565b84925063e03d6e5b60e01b5f5260045260245260445260645ffd5b5050505050505050915090565b98509698509493505050506200fe0b577f69b92a906c4fe940cd3de572076c4a5181ddced80218575cc4959b1d8f6a6e3f9160409182519182526020820152a190565b9493919290604051936200ff848562008056565b5f85525f602086015284604082013595600787101562003da8576200ffa98762007b81565b60a0830135916200ffba886200faa3565b620101b3575b5061012083016200ffd1816200830f565b80156201019d575b620100cc57506200ffea876200faa3565b620100ad575b506040516200ffff8162008056565b5f81525f602082015297600981019163ffffffff835416966201002860808601359889620085cb565b9682986201003960e088016200830f565b1562010084575b5050508662010056575b50505050505050505090565b6201006a99508862010079575b5062017824565b5f80808080808080806201004a565b861497505f62010063565b620100a3939950610140870135908a610160890135918d8b8962015c17565b955f808062010040565b620100bb8883868c62014149565b6200fff05797505050505050505090565b95839850620100fe919994958398856101009561014062010106980135926080610160840135930135908b8b62015c17565b96016200830f565b8062010193575b6201016d5750506201011f906200830f565b8062010163575b6201013057505090565b7f59468f520017226c0116472def96f905dbeff518444091b355de591a2161cdbe9160409182519182526020820152a190565b5081151562010126565b9061ffff60028693015460a81c1663578f7fed60e01b5f5260045260245260445260645ffd5b508415156201010d565b50620101ad61010085016200830f565b6200ffd9565b845f5260128a0160205260405f209064ffffffffff825460b81c16151580620102d8575b6201024957505460b81c64ffffffffff16808311156200ffc0579795509750945050505062010233577f604559a5e01ca154dad1c02a9ef408530f8fa41f3506e6a57f7d2ac727e148229160409182519182526020820152a190565b9063604559a560e01b5f5260045260245260445ffd5b9950969795505050505050620102a7577f189a4ff828fb1a93c81a2248c39ac499b67bf632ade3d5f89935821e8d1ec9989160ff60409254831c1690620102938351809362007e3c565b6201029e8162007b81565b6020820152a190565b5463031349ff60e31b5f5260401c60ff166002811015620046fe57600452620102d08162007b81565b60245260445ffd5b50620102ec8960ff845460401c1662014129565b620101d7565b91825461ffff63ffffffff8260601c169160a01c16905f93814211620103bf575b846201032157505050909150565b62010383576200e50061ffff60027fa8ea47e93f284c6600be84b692d51af848f0cc9115e2c7d7d4048983348f9b2d959697015460a81c16926040519384934291859094939260609261ffff6080840197168352602083015260408201520152565b600285015460405163a8ea47e960e01b815260a89190911c61ffff16600482015260248101919091524260448201526064810191909152608490fd5b935081620103ce8242620085cb565b119362010313565b91908281116201041757808303926001600160501b038411620103f7575050565b63733cc1d960e11b5f526004526024526001600160501b0360445260645ffd5b9050637509da4360e11b5f5260045260245260445ffd5b919082811162010417578083039264ffffffffff84116201044d575050565b63733cc1d960e11b5f5260045260245264ffffffffff60445260645ffd5b91906201047981846200861a565b926001600160501b0384116201048d575050565b632242001360e21b5f526004526024526001600160501b0360445260645ffd5b9190620104bb81846200861a565b9264ffffffffff8411620104cd575050565b632242001360e21b5f5260045260245264ffffffffff60445260645ffd5b916080936200aaf891979695929761ffff60a08601991685526020850152604084019062007e3c565b92939091935f5f93549164ffffffffff8360b81c1681115f14620108c2575064ffffffffff8260b81c16915b829686546201056760ff8260b81c1660ff8360b01c168763ffffffff8760981c16620115f8565b906201058160028a01549261ffff8460c81c169062011670565b986201058e88826200d356565b968715620108ab57508a620105bc9163ffffffff8760981c16908760e01c908a60ff8a60401c16916200ce92565b94915050620105e38b6001600160501b038760481c1664ffffffffff8860b81c166201436b565b929050600260ff8760401c161015620046fe578b9a8660401c60ff16159c8d91878460b81c60ff16928560b01c60ff1692888c60981c63ffffffff16916201062b976201118b565b998a15620107ed578c80620107e3575b8015620107cf575b620107485750808c868d60ff80620106719660b81c169460b01c16928763ffffffff8c60981c169162011215565b978815620106855750505050505050600195565b9b969798999a9b620106fc576040805160a89490941c61ffff168452602084019190915282015260989290921c63ffffffff1660608301526080820188905260a08201527f2e92846d5b5d5dd9cf60dd19064afe4a911e6751cdad455cb26a600db66e963c908060c081015b0390a1959493929190565b604051632e92846d60e01b815260a89390931c61ffff1660048401526024830152604482015260989290921c63ffffffff1660648301526084820188905260a48201528060c481010390fd5b999a9b9c97989250509192506201079e5791620106f1888760ff947f2822c66c89ce366f8d2961ecb44375cdaf6fd59a220e83b68f12498108778f849661ffff60405197889760401c169260a81c1686620104eb565b60408051630a08b19b60e21b815293849362001814938b938a93901c60ff169160a81c61ffff1660048701620104eb565b508c1580156201064357508a891062010643565b508a89116201063b565b999a9b9c979890506201085f576040805160a89490941c61ffff168452602084019190915282015260989290921c63ffffffff1660608301526080820188905260a08201527f0df65f0bfef22299d2332a74323c24d136c79b82d668afc82cfe8dfb0d75a2f2908060c08101620106f1565b604051630df65f0b60e01b815260a89390931c61ffff1660048401526024830152604482015260989290921c63ffffffff1660648301526084820188905260a48201528060c481010390fd5b5f9c8d9c50909a508b995089985095505050505050565b9162010540565b90929190821562010942578381106201093a5762010901916200b50f915b8585156201092e57620108fa91620085cb565b9062008585565b901562010914579062008125916200861a565b8082111562010928576200812591620085cb565b50505f90565b90620108fa91620085cb565b505050505f90565b8084106201093a5762010901916200b50f91620108e7565b95620109cb9192949684965f968554996201098e818c64ffffffffff6001600160501b038260481c169160b81c166201436b565b979093620109c183620109a18b6200d9b4565b9e60ff8160401c169e8f63ffffffff8360981c169260e01c918b6200ce92565b9991909a6200d42c565b9b5f8d1262010c125750620109e08c6200d9b4565b8c60018801548060401c62ffffff16620109fb90836200d9c5565b5f61082052620186a0900561082052610820515060581c62ffffff1662010a22916200d9c5565b620186a090059a8b9d8c6108205162010a3b916200d42c565b62010a46916200d45a565b9b87158062010c0a575b62010be6575b5062010a7c600389016001600160501b036200d9896108205182845460501c166201785a565b62010a87826201438c565b915f81121562010b6457505062010aa191508487620116b1565b825f5260d560205260405f209362010aba8c866201439c565b9962010ad360c954916001600160701b0383166201785a565b906001600160701b0319161760c95560ff825460401c166002811015620046fe5762010b525762010b05838762014419565b1562010b3657505061ffff60028462010b28600594601162008218980162012bd1565b015460a81c16910162012cdd565b9150915062008218925062010b4c8a8262014444565b62014499565b62010b5e8387620143d3565b62010b05565b8262010b75575b5050505062010aa1565b7fbee5185c13c42cac0d82b6c115c77d5e8dc2b2888c013d169e068e634f57f58e9362010ba560e0948b6200f76f565b61ffff60028b015460a81c16926040519384528860208501526040840152866060840152151560808301525f60a083015260c0820152a15f80808062010b6b565b909d5062010bf98162010c00936200d42c565b9e6200d42c565b9c5f9c5f62010a56565b508362010a50565b848d8c866200f05360c49561ffff60028e015460a81c169560405196630c62a44b60e11b885260048801526024870152604486019062007e3c565b9260a094919796959260c08501988552602085015262010c6d8162007b81565b6040840152606083015260808201520152565b90805f5260d560205260405f2092825f526003840160205260405f20549061ffff8260401c16801562010de65762010cbb8196959662008899565b9363ffffffff5f94169660028701975b8015158062010ddc575b1562010d145761ffff9562010cf962010cee826200871c565b97831691896200872b565b525f528760205263ffffffff60405f205460201c1662010ccb565b509350939195509362010d278362009e85565b600981019260105f9201915b87811062010d45575050505050505050565b807fb52688454dfd5028443d05c10bc78a9ca263b7c7645d2e8bfef428d0e8b3b04762010d75600193856200872b565b51805f528560205262010d8f62009c5e60405f2062008d9f565b62010d9c818a896200f389565b9062010da9818a6200f71b565b62010dd26040519283928d8d859094939260609260808301968352602083015260408201520152565b0390a10162010d33565b5083861062010cd5565b509350505050565b90929192805f5260d560205260405f2092825f526003840160205260405f20549161ffff8360401c1690811562010f825762010e2d8297969762008899565b9463ffffffff5f95169760028101985b8015158062010f78575b1562010e865761ffff9662010e6b62010e60826200871c565b988316918a6200872b565b525f528860205263ffffffff60405f205460201c1662010e3d565b5092969195939750935062010e9b8462009e85565b600981019360105f9201915b88811062010eba57505050505050505050565b807fb52688454dfd5028443d05c10bc78a9ca263b7c7645d2e8bfef428d0e8b3b047898962010f578a8a62010f348b62010f2d8c8762010efd60019d8f6200872b565b519586948593845f5260205260405f209080155f1462010f61575062009c5e62010f279162008d9f565b6200f389565b936200f71b565b604051948594859094939260609260808301968352602083015260408201520152565b0390a10162010ea7565b6200fd9162010f709262008d9f565b50506200f389565b5084871062010e47565b50509350505050565b6002015464ffffffffff8082169160281c169081810362010faa575050565b6395626a2760e01b5f5260045260245260445ffd5b803b1562011021576001600160a01b03166001600160a01b03197f360894a13ba1a3210667c828492db98dca3e2076cc3735a920a3ca505d382bbc5416177f360894a13ba1a3210667c828492db98dca3e2076cc3735a920a3ca505d382bbc55565b60405162461bcd60e51b815260206004820152602d60248201527f455243313936373a206e657720696d706c656d656e746174696f6e206973206e60448201527f6f74206120636f6e7472616374000000000000000000000000000000000000006064820152608490fd5b8115620085e4570790565b9493620110b790620110b1620110be949998935f6200d45a565b6200d45a565b936200861a565b600603906006821162003ae857620108fa620110da9262009530565b92620110f3620110eb85846200d9e9565b94836201108c565b6201112d575b5050156201111c576201110c916200d42c565b5f8112620111175790565b505f90565b62011127916200d45a565b6201110c565b808062011181575b15620111535750509062011149906200d40f565b905b5f80620110f9565b15908162011176575b50156201114b57906201116f906200d448565b906201114b565b5f9150125f6201115c565b505f821362011135565b9594620110b1620111a3949893620110b7936200d45a565b600603906006821162003ae857620108fa620111bf9262009530565b90620111d8620111d083836200d9e9565b92826201108c565b620111f1575b5090156201111c576201110c916200d42c565b5f12156201120e5762011204906200d40f565b905b905f620111de565b9062011206565b929194939562011231620112389297620110b15f995f6200d45a565b946200861a565b600603906006821162003ae857620108fa620112549262009530565b916201126d6201126584836200d9e9565b93826201108c565b620112a5575b5015620112935762011285916200d42c565b905b8082126200e7bd575090565b6201129e916200d45a565b9062011287565b93505f809412620112b8575b5f62011273565b90620112c4906200d448565b90620112b1565b90929496939196620112e15f88838786620152de565b9794809a939a999294999791976201147f57508a809c9d505f9b999a9b5260d560205260405f209961ffff600283015460a81c169d620113258d85549c85620116b1565b620113318d8d6200c45c565b60ff845460401c16956002871015620046fe578e92876201146d5762011358838662014419565b156201144c57505060116201136e920162012bd1565b6201137d8c60058b0162012cdd565b5497546001600160501b0316996040519b8c5260208c0152151560408b015260608a01620113ab9162007e3c565b8460981c63ffffffff1660808a015260a089015260c088015260e08701526101008601528060481c6001600160501b03166101208601528160481c6001600160501b031661014086015260b81c64ffffffffff1661016085015260b81c64ffffffffff166101808401526101a08301526101c08201526101e07f3b1e497992fc37fbf896b38202d19417ad54402fa8d8aed214d20f27c34bcabc91a1600190565b6201146793506201146091925084620179d2565b8262014499565b6201137d565b620114798386620143d3565b62011358565b9850995050505050505050600a919350146201149c575050505f90565b6084935060036001600160501b039101546040519363063c641b60e41b85526004850152818116602485015260501c1660448301526064820152fd5b9197949093929596620112e19088838786620152de565b906001600160a01b036201154f92165f8060405193620115116040866200808e565b602085527f5361666545524332303a206c6f772d6c6576656c2063616c6c206661696c6564602086015260208151910182855af162005e8862015423565b8051908115918215620115d2575b5050156201156757565b60405162461bcd60e51b815260206004820152602a60248201527f5361666545524332303a204552433230206f7065726174696f6e20646964206e60448201527f6f742073756363656564000000000000000000000000000000000000000000006064820152608490fd5b819250906020918101031262003da85760200151801515810362003da8575f806201155d565b9190926201160781836200861a565b91600683116201163a5750506006036006811162003ae8576200812592620116336200412c9262009530565b9262008585565b632f0a93cd60e21b5f5260045260245260445ffd5b9060018210158062011666575b156200e7bd575090565b508082106201165c565b9060648202918083046064149015171562003ae857620081259162012b9e565b906001600160501b03809116911601906001600160501b03821162003ae857565b6003810180546001600160501b0381169594939190868511620116de57505050620082189293506200e8c1565b6001600160501b0390605095929493951c166001600160501b0362011704828962011690565b1682116201178b575060026200a6c492620117457f24600c3aa8cc38cbdf9648ea5ebfea6227de49651807d1a2a58fe70ea24953cc979861ffff94620085cb565b855469ffffffffffffffffffff19169095556201176385826200d966565b015460a81c16916040519384938460409194939261ffff606083019616825260208201520152565b6002830154604051635b80bdb960e11b815260a89190911c61ffff1660048201526001600160501b0380891660248301529091166044820152606481019190915280608481010390fd5b9190916001600160501b038311620070a3576001600160501b036200821892931672ffffffffffffffffffff0000000000000000001972ffffffffffffffffffff00000000000000000083549260481b169116179055565b60f0018060f01162003ae8576001901b90565b81601f8201121562003da8578051906201185a82620080b0565b926201186a60405194856200808e565b8284526020838301011162003da857815f9260208093018386015e8301015290565b9060208282031262003da85781516001600160401b03811162003da85762008125920162011840565b9091620118cf620081259360408452604084019062007b4f565b91602081840391015262007b4f565b519063ffffffff8216820362003da857565b519077ffffffffffffffffffffffffffffffffffffffffffffffff8216820362003da857565b51908160170b820362003da857565b908161012091031262003da857620119d861010060405192620119488462007fc7565b805184526201195a60208201620118de565b60208501526201196d60408201620118de565b60408501526201198060608201620118f0565b60608501526201199360808201620118f0565b6080850152620119a660a08201620118de565b60a0850152620119b960c0820162011916565b60c0850152620119cc60e0820162011916565b60e08501520162011916565b61010082015290565b915f905f905f91815182016080836020830192031262003da85780603f8401121562003da85760405162011a158162007fab565b608084019082821162003da85760208501905b82821062011edb57505051906001600160401b03821162003da857602062011a539285010162011840565b80511562006d6f5761ff0080602083015160f01c16169080516001101562006d6f576021015160f81c176003810362011e81575060209160405162011a9984826200808e565b5f8152881562011e59575f9062011ad5926001600160a01b0360ca54169083604051809681958294637bf41d7760e11b845260048401620118b5565b03925af190811562011e4e575f9162011e27575b50925b83519562011b0284808701988701018862011925565b5160068901549081810362011db957505063ffffffff604062011b2b8688518901018a62011925565b0151169642881162011d495788549463ffffffff8660601c16808a111562011ce3575060c062011b618289518a01018462011925565b0151968760170b5f811262011c85575063ffffffff9260a0928262011b8a935101019062011925565b0151169062011ba161ffff8660a01c16426200861a565b80831062011c0f57505050505062011bfd9177ffffffffffffffffffffffffffffffffffffffffffffffff62011be160ff62011be99460b01c166201560a565b9116620085d9565b9463ffffffff60098596015416866200d2be565b62011c09575050600192565b93909150565b94509450949550969097955062011c6b576040805192835263ffffffff9093166020830152918101919091527f7f93aebf261535cb0331009511ba8896f348b68b1e0d448196c002a6bfcbdb7a9080606081015b0390a1929190565b9250637f93aebf60e01b5f5260045260245260445260645ffd5b975050945050949550969097955062011ccc57916040917f4d8c851d919cf102ec02f76a35ca2f0b9e8ca3e9cd36ecc7128c03c7048e247a938351928352820152a1929190565b5090634d8c851d60e01b5f5260045260245260445ffd5b9550939a985050949593509662011d2f57917fac23cd4bf85c84f3aa74c4752cbc1abc6ca3871a6e6b676f56bd64f992b700ae93916060936040519384528301526040820152a1929190565b508263ac23cd4b60e01b5f5260045260245260445260645ffd5b509495935096915096945062011d9f576040805192835263ffffffff909116602083015242908201527f560f753ea20ff5d3b404893dc8502570dec81bbc02626784a8f3d635f9c21b2990806060810162011c63565b90632b07ba9f60e11b5f526004526024524260445260645ffd5b94509596509350969097955062011e0d57604080519283526020830193909352918101919091527fe9ab5ccfbd8b803e0bd519630f62d1a32b22e517a5bfcd78e8c860b36c98386b90806060810162011c63565b925063e9ab5ccf60e01b5f5260045260245260445260645ffd5b62011e4791503d805f833e62011e3e81836200808e565b8101906201188c565b5f62011ae9565b6040513d5f823e3d90fd5b62011e65918762015457565b901562011e73579262011aec565b509694505093509050929190565b9550505050509162011ec5577f09c9ec7d8ebb7546d7aa7fae159f14736cab80420326900e4b1ce60942f331d89160409182519182526020820152a15f905f905f90565b906309c9ec7d60e01b5f5260045260245260445ffd5b815181526020918201910162011a28565b1562011ef457565b634e487b7160e01b5f52600160045260245ffd5b9262011f3862011f5d9362011f31869462011f2a8162011f2a8860646200d45a565b946200d45a565b906200d9c5565b62011f4482826200d9e9565b915f8212918262011fb9575b505062011fae576200d42c565b8160648293125f1462011f8a5713158062011f7e575b620081259062011eec565b50606481131562011f73565b620081259160641315908162011fa2575b5062011eec565b90508213155f62011f9b565b6200ace8906200d448565b62011fc592506201108c565b15155f8062011f50565b9162011f3860649262011f3162011ff29562011f2a8162011f2a8860016200d45a565b80600113158062011f7e57620081259062011eec565b9061a7676201201e61217b9184068094620085cb565b92049061217b82029180830461217b148115171562003ae857620081259092846200861a565b6001811092918315620120b9575b836201205c575050565b6201209957507f36bcd027a371ec05acd4f563a155f51be204511b55fb95d0451703d02e3ca185604080516001815264ffffffffff6020820152a1565b630793b30360e11b5f52600452600160245264ffffffffff60445260645ffd5b92508064ffffffffff109262012052565b6105008190526105c08490525f6105805290926103e891620120f091906009016201568f565b610660525f610560526105a0839052915b8015158062012b63575b1562012b1f578315158062012b2a575b62012b1f57505f610520525f610640525f610540525f610520526201214782600961050051016200d12c565b506104e0526105a05161064052610540525b6106405115158062012b12575b8062012b05575b1562012a13576104e0515f526010610500510160205260405f20805463ffffffff81165f5260d560205260405f206106005260ff610600515460a01c16620121b58162007b81565b156201225957505f8161ffff7f86ad99b48b2565c9720e33335db58e8c7468d6af03a5e6238b20d4a562f5b8b4935460c81c166104e052620122506201221560018461ffff600261050051015460a81c168095600961050051016201920b565b9096916040949394519788978893909796959260c0959260e08601998652602086015260408501526060840152608083015260a08201520152565b0390a162012159565b6201226d63ffffffff8260781c166200f243565b15620122cd57505f8161ffff7fb95e250f9f017dcb1bb1806916771df0c04a269e5f46d5db7519382a0f7bb477935460c81c166104e052620122506201221560018461ffff600261050051015460a81c168095600961050051016201920b565b63ffffffff81166201233357505f8161ffff7f52d5291dc7b477ebda965d0693c67e6ccec5b3667b530305685465384756d3fd935460c81c166104e052620122506201221560018461ffff600261050051015460a81c168095600961050051016201920b565b5f6201234560ff8360201c166200faa3565b620129bb575b15620123ab57505f8161ffff7fae6369c6e529c86dd87431d10e0db70657c834daa75356e1efd7c0ac79f934b7935460c81c166104e052620122506201221560018461ffff600261050051015460a81c168095600961050051016201920b565b9064ffffffffff8260401c168061062052620123cd60ff8460201c166200faa3565b62012980575b61064051811180156105e052620129725762012485815b60026105005101549061ffff620124526201244664ffffffffff851664ffffffffff8660281c168082115f146201296a57505b60ff8660e01c169060ff8760d81c169064ffffffffff8860501c169087878a60b81c166200e7da565b828960981c166201164f565b9260881c1691610620519061066051906106605190610660519060ff8b60201c169063ffffffff8c1661050051620144d6565b506107e05193969487925060061981016201282d57506105e05115620127bc57620124c2620124b8876106605162008585565b610520516200861a565b61052052620124d58661064051620085cb565b610640525b620124e861054051620095ab565b610540526105e051156201260a575050509161012093918593620125436201253c63ffffffff7ff5f5aef063f495816b6982c44c70c97c8fbec2fa24b73487e6542ce02143121499166200fd918562008d9f565b956200d42c565b9261ffff835460c81c166104e0526201259b6201257a61ffff8860a81c1661ffff600261050051015460a81c16610600516200f389565b936201258d60ff825460201c166200fad1565b906009610500510162013020565b620125b461ffff8760a81c16600961050051016201358b565b61ffff80600261050051015460a81c169660405197885263ffffffff8116602089015260a81c166040870152610660516060870152608086015260a085015260c084015260e0830152610100820152a162012159565b90949391955060ff6002610500510154925460201c165f9061ffff8960a81c1615620127905761ffff8960a81c166303ff00008560981c16175f526002610600510160205260405f209384549163ffffffff8316156201275b57967ff5f5aef063f495816b6982c44c70c97c8fbec2fa24b73487e6542ce0214312149a98969492819694926201269e6101209c9a62012f59565b15620126e75750505050620126d582620126cb836001600160501b03620126e0965460901c16926201858b565b6106005162012fbe565b5061060051620185d7565b91620125b4565b6201275594509461ffff6201274f9293949660a81c165f526003610600510160205264ffffffffff62012724858260405f209660681c166201042e565b825471ffffffffff000000000000000000000000001916911660681b64ffffffffff60681b16179055565b62012f81565b620126e0565b5061ffff8a8163ffffffff60016106005101541693638d5bba0f60e01b5f5260a81c1660045260a81c1660245260445260645ffd5b8361ffff63ffffffff600161060051015416916369bc91ef60e11b5f5260a81c1660045260245260445ffd5b9450620127d4620124b8610640516106605162008585565b610520526201281d64ffffffffff620127f76106405182885460401c166201042e565b86546cffffffffff00000000000000001916911660401b64ffffffffff60401b16178555565b61064051945f61064052620124da565b9650505050509250600d82146201291e5782610160927f72777d4856cf973d1b0f65b47f675f18842c122c2a529a294343fd22a6c1354794549061ffff8260c81c166104e05261ffff600261050051015460a81c1693846105e0515f1462012907575f60019160ff620128ae94965b60201c1696600961050051016201920b565b9493959296919060405198895260208901526040880152620128d08162007b81565b606087015261066051608087015260a086015260c085015260e08401525f610100840152610120830152610140820152a162012159565b620128ae91505f60019160ff61064051966201289c565b608461ffff600261050051015460a81c1661ffff610500515460405192631f466abb60e21b8452600484015263ffffffff8160201c16602484015242604484015260a01c166064820152fd5b90506201241d565b6201248561064051620123ea565b63ffffffff83165f526012610500510160205264ffffffffff60405f205460b81c16818110620129b2575b50620123d3565b90505f620129ab565b5063ffffffff81165f526012610500510160205260405f2064ffffffffff815460b81c16151515908115620129f2575b506201234b565b62012a0c915060ff808460201c16915460401c1662014129565b5f620129eb565b6105405191610640519062012a2f61052051610580516200861a565b61058052610640516105a0510362012aef575b610540511562012a80576106405162012a5e575b929062012101565b915062012a756105c051600961050051016201568f565b610660529162012a56565b50929150507fb492fac0bb9e8c8d824bf2a4c19ec1efd3e98e987de34e127bc17eb2b5c0605e5f80a15b6105605162012ab557565b6105005161056051600191909101805467ffffffffffffffff191663ffffffff92909216919091174260201b63ffffffff60201b16179055565b6106605161056052610640516105a05262012a42565b506105405115156201216d565b506104e051151562012166565b939250505062012aaa565b506105c0518062012b56575b806201211b57506105c0511580156201211b57506106605184116201211b565b5061066051841062012b36565b506106605115156201210b565b5f908062012b7c575090565b5f1981019150811162003ae857620186a090046001810180911162003ae85790565b908162012bab5750505f90565b5f19820191821162003ae85762012bc291620085d9565b6001810180911162003ae85790565b906001820191815f528260205260405f2064ffffffffff815460b81c1662012bf95750505050565b549063ffffffff808360201c16921663ffffffff82541684145f1462012cc15762012c258183620156dc565b8062012ca2575b815460201c63ffffffff16840362012c8557508162012c4b9162015700565b8062012c69575b505b5f526020525f60408120555f8080806200d2eb565b5f528160205260405f2063ffffffff1981541690555f62012c52565b62012c9c9291505f528360205260405f2062015700565b62012c54565b805f528460205260405f2063ffffffff60201b19815416905562012c2c565b825f528460205262012cd78160405f20620156dc565b62012c2c565b9060fc811162012cf3576001901b198154169055565b6101fc811162012d485762012d0a600191620085bb565b1b1960018201908154168091551562012d205750565b7fdfffffffffffffffffffffffffffffffffffffffffffffffffffffffffffffff8154169055565b6102fc811162012d9d5762012d5f600191620085aa565b1b1960028201908154168091551562012d755750565b7fbfffffffffffffffffffffffffffffffffffffffffffffffffffffffffffffff8154169055565b6103fc81111562012dac575050565b62012db960019162008599565b1b1960038201908154168091551562012dcf5750565b6001600160ff1b038154169055565b9062012e0060c954926c1fffffffffffffffffffffffff8460701c16620103d6565b917fffffffffffe0000000000000000000000000ffffffffffffffffffffffffffff8360701b91161760c955565b906303fcffff80821162012e8757507fffffffffffff00000000ffffffffffffffffffffffffffffffffffffffffffff79ffffffff0000000000000000000000000000000000000000000083549260b01b169116179055565b906395d41f3f60e01b5f5260045260245260445ffd5b906303fcffff80821162012e875750815463ffffffff60401b191660409190911b63ffffffff60401b16179055565b906303fcffff80821162012e8757507fffff00000000ffffffffffffffffffffffffffffffffffffffffffffffffffff7dffffffff000000000000000000000000000000000000000000000000000083549260d01b169116179055565b906303fcffff80821162012e875750815467ffffffff00000000191660209190911b63ffffffff60201b16179055565b62012f648162007b81565b801590811562012f72575090565b600191506200facd8162007b81565b64ffffffffff62012f9d620082189382845460581c166201042e565b825464ffffffffff60581b1916911660581b64ffffffffff60581b16179055565b805460501c6001600160501b03169291808411156201301857808403935b6001600160501b038511620103f7575050805469ffffffffffffffffffff60501b1916605084901b69ffffffffffffffffffff60501b16179055565b5f9362012fdc565b9080548060281c9062ffffff82169485926201303d84876200d12c565b9061ffff8560a81c16809114918262013580575b5050620133ab575b50505050805461ffff8160b81c169081158080916201339b575b1562013160575050505060069062013090600784068094620085cb565b5f520160205260405f2090600160ff1983541617825580155f14620130be5750805464ffffffff0019169055565b60018103620130da5750805468ffffffff000000000019169055565b60028103620130fa575080546cffffffff00000000000000000019169055565b600381036201311e5750805470ffffffff0000000000000000000000000019169055565b60048103620131385750805463ffffffff60881b19169055565b6005036201315057805463ffffffff60a81b19169055565b805463ffffffff60c81b19169055565b92949215620132e95750508261ffff91826007955460c81c16620131888683068093620085cb565b5f526006850160205260405f2091600160ff1984541617835580155f14620131df5750815462ffff00191660089190911b62ffff00161790555b5460c81c165f520160205260405f2061ffff60b81b198154169055565b600181036201320d5750815466ffff0000000000191660289190911b66ffff000000000016179055620131c2565b6002810362013243575081546affff000000000000000000191660489190911b6affff00000000000000000016179055620131c2565b6003810362013277575081546effff00000000000000000000000000191660689190911b61ffff60681b16179055620131c2565b60048103620132a15750815461ffff60881b191660889190911b61ffff60881b16179055620131c2565b600503620132c957815461ffff60a81b191660a89190911b61ffff60a81b16179055620131c2565b815461ffff60c81b191660c89190911b61ffff60c81b16179055620131c2565b60c81c61ffff16806201332f575050826201331261ffff92836007965460b81c16908562015755565b5460b81c165f520160205260405f2061ffff60c81b198154169055565b62008218949192506201336a90600761ffff9501935f528360205260405f209061ffff60c81b1961ffff60c81b83549260c81b169116179055565b5490828260c81c165f5260205260b81c1660405f209061ffff60b81b1961ffff60b81b83549260b81b169116179055565b5061ffff8260c81c161562013073565b600386019260058701918160301c9261ffff841691825f5281602052600160ff60405f205492161b1916915f526020528060405f20551562013532575b5050156201349557835462ffffff8160781c1683145f146201345e57509062013411916200f989565b5f1981036201344c575081547fffffffffffffffffffffff000000000000ffffffffffffffffffffffffffffff1682555b825f808062013059565b62013458908362017be4565b62013442565b60901c62ffffff16821462013476575b505062013442565b6201348d916201348691620179f0565b8362017b93565b825f6201346e565b835462ffffff8160481c1683145f1462013504575090620134b6916200f989565b5f1981148015620134f1575b15620134e5575081546effffffffffff0000000000000000001916825562013442565b62013458908362017b5e565b5062ffffff835460781c168114620134c2565b60601c62ffffff1682146201351b57505062013442565b6201348d916201352b91620179f0565b8362017b0a565b60ff9060381c16906004870190825f5281602052600160ff60405f205492161b191690825f526020528060405f2055156201356f575b80620133e8565b6001901b1982541682555f62013568565b1490505f8062013051565b5f828152600782016020526040902080547fffffffffff0000000000000000000000000000000000000000000000000000001663ffffffff60781b179055811562013633576201360382620082189360081c90815f5260028401602052600160ff60405f2092161b1981541690556001830162017c25565b6201361661ffff825460201c166200f378565b65ffff0000000082549160201b169065ffff000000001916179055565b6302f9530760e61b5f5260045ffd5b9061010003610100811162003ae8575f19901c16806201366257505f1990565b62008125905b905f916fffffffffffffffffffffffffffffffff81116201376e575b6001600160401b03811162013757575b63ffffffff811162013740575b61ffff811162013729575b60ff811162013712575b600f8111620136fb575b60038111620136e4575b600110620136d457565b906001810180911162003ae85790565b916002810180911162003ae8579160021c620136ca565b916004810180911162003ae8579160041c620136c0565b916008810180911162003ae8579160081c620136b6565b916010810180911162003ae8579160101c620136ac565b916020810180911162003ae8579160201c620136a1565b916040810180911162003ae8579160401c62013694565b60809250821c62013684565b91909162013788816200f243565b928362013793575050565b620137ca5760407f8ecb05e775f8b004d0796e497a6b28cfe97a6f8acd115327138350b5a08347ed918151908152436020820152a1565b638ecb05e760e01b5f526004524360245260445ffd5b61ffff8111929183620137f1575050565b620138315760607fe99e76b7075a2c30a8d971cb3f247cba3e1995e4d12ff31053b190b2f71dcc7b916040519081525f602082015261ffff6040820152a1565b63e99e76b760e01b5f526004525f60245261ffff60445260645ffd5b91909294935f958203620138615750505050565b909192939450620138b557604080519283526020830193909352918101919091527f0ff65eacbb5b956c92957d3a4c76260d051566a34945c41b4e621bc895918ee790606090a16001905f8080806200d2eb565b92506303fd97ab60e21b5f5260045260245260445260645ffd5b91905f92815f5260d560205260405f209161ffff608083015116918215801562013906575b505050506001600160501b0390541690565b612710849597940294850461271014171562003ae85760c95460701c6c1fffffffffffffffffffffffff16908185116201396b575050505080620139526001600160501b039262012dde565b506201395f81856200c45c565b925b905f8080620138f4565b916080916001600160501b039561ffff60e07f5d8e434afef436d0cbafab1ae9386b8f70c885ee513868335f9474f61202d346969a979a015116604051938452602084015260408301526060820152a162013961565b6107c0819052610760919091526002015461080052805461082081905260c083013592919060781c63ffffffff165f80620139fc836200f243565b156201410a57505060019084156201405557508093955b5f9564ffffffffff6108205160401c169560a0860135801515806201404a575b62014022575b5063ffffffff60096107c05101541662ffffff6108205160281c166107805261078051155f146201400c575f905b60808298013591821515908162014000575b5062013fda575b50501562013fd05762013acb60ff6108005160e01c1660ff6108005160d81c1664ffffffffff6108005160501c1664ffffffffff61080051168a61ffff6108005160b81c166200e7da565b96801562013fbc575b806107e0521562013fa6575b62013af460ff6108205160201c166200fad1565b6107a0525f966107e05162013dab575b5050508062013d8f575b610780518254604086901b64ffffffffff60401b1660289290921b67ffffff0000000000167fffffffffffffffffffffffffff00000000ffff0000000000000000ffffffffff9091161717607887901b63ffffffff60781b1617825562013d4a575b6107e0511562013d095760ff815460201c169461ffff6108205160a81c161562013cdb5761ffff6108205160a81c166303ff00006108005160981c16175f526002610760510160205260405f2080549663ffffffff88161562013c9f5762013bd89062012f59565b1562013c745762013c3b8662013c3160c09861ffff9462013c2a6001600160501b037fbf5d27a683d1ce858f6095fde2cc9837ba595c533e97576c5ff3de4376ccbf3c9d60901c166107605162012fbe565b506201858b565b61076051620185d7565b925b5460a81c16936001600160501b0361076051541693604051958652602086015260408501526060840152608083015260a0820152a1565b63086415b760e01b5f5261ffff6108005160a81c1660045261ffff6108205160a81c1660245260445ffd5b63ffffffff600161076051015416638d5bba0f60e01b5f5261ffff6108005160a81c1660045261ffff6108205160a81c1660245260445260645ffd5b63ffffffff6001610760510154166369bc91ef60e11b5f5261ffff6108005160a81c1660045260245260445ffd5b60c093507fbf5d27a683d1ce858f6095fde2cc9837ba595c533e97576c5ff3de4376ccbf3c9461ffff6001600160501b03610760515460501c169262013c3d565b80547fffffffffff00000000ffffffffffffffffffffffffffffffffffffffffffffff1681556107a0516107c05162013d899190839060090162018208565b62013b70565b62013da56107a0518360096107c0510162013020565b62013b0e565b62013e19975062013df062013dcc849261ffff6108205160981c166201164f565b888861ffff6108005160881c169260ff6108205160201c1690876107c051620158e6565b5095939b92819592919c8c610780518d6107a05160ff6108205160201c168a6107c051620159e5565b1562013f9a5761ffff6108205160a81c166303ff00006108005160981c16175f526002610760510160205260405f20549063ffffffff82161562013f6c57506001600160501b039060901c16906107605154926001600160501b038460501c16928084101562013f58575b506001600160501b035f94169280841162013f42575b50801562013f3a5762013ead916200861a565b905b818310938462013ecc575b505050506200c339575f808062013b04565b62013f20576040805192835260208301939093526001600160501b0316918101919091527fb853e5846ad52919c794f709695100094681c458cd1864d5217c6c897b6858b190606090a15f80808062013eba565b9250632e14f96160e21b5f5260045260245260445260645ffd5b509062013eaf565b62013f5091945083620085cb565b925f62013e9a565b62013f649193620085cb565b915f62013e84565b638d5bba0f60e01b5f5261ffff6108005160a81c1660045261ffff6108205160a81c1660245260445260645ffd5b50505050505050505050565b61ffff6108205160981c16156107e05262013ae0565b5061ffff6108205160981c16871062013ad4565b5050505050505050565b96509750509150600191829662013ff3849682620085cb565b61078052945f8062013a80565b90508214155f62013a79565b6201401b81610780516200861a565b9062013a67565b969197505082919291156201403f575b5090600195865f62013a39565b905084115f62014032565b508781141562013a33565b959350505050620140c057907fef9c486e607431362e32f87055ecc54107d0bde504cfbca8d6a59a6108b99ead916200a6c460405192839261ffff6108205160a81c1661ffff6108005160a81c16859094939260609260808301968352602083015260408201520152565b620018146040519283926377ce243760e11b845261ffff6108205160a81c1661ffff6108005160a81c16600486019094939260609260808301968352602083015260408201520152565b91969094806201411c575b5062013a13565b9650600194505f62014115565b6002811015620046fe57600290620141418362007b81565b159114141590565b939190805f5260d5602052600360405f20019061ffff600287015460a81c1691825f5260205260405f205464ffffffffff8160581c169687156201432c57601290835f520160205260ff60405f209160501c1690549260ff8460401c16926002841015620046fe5783158315150362014264575050505060b81c64ffffffffff1693808511156201425b57620141e09085620085cb565b905b81811193841594620141f657505050909150565b62014240576200e5007f1b7ba008cbebdd0330e64275c62765a671adbce08d86e7b894f0601a886b78cf939495604051938493846040919493926060820195825260208201520152565b84925063036f740160e31b5f5260045260245260445260645ffd5b505f90620141e2565b929597969194509250620142d857505091620142c76060927f04d93c80531ebbd61ebd9906714391b8431ec4437abe44969d252210244128de945f14620142cc57620142bc5f5b604051948552602085019062007e3c565b604083019062007e3c565ba15f90565b620142bc6001620142ab565b836201431862009318928760a4965f1462014323575f915b60405196634298a83160e01b8852600488015260248701526044860152606485019062007e3c565b608483019062007e3c565b600191620142f0565b5050505050915050600190565b919080620143475750501590565b80620186a092938181115f14620143625703925b0291021090565b9003926201435b565b828114939284156201437c57505090565b62000c0d90620081259362008585565b5f8112620143975790565b5f0390565b9190620143b4906001600160501b038454166201785a565b825469ffffffffffffffffffff19166001600160501b03821617909255565b9064ffffffffff620143f460026200821894019282845460281c166201042e565b825469ffffffffff00000000001916911660281b69ffffffffff000000000016179055565b64ffffffffff62014433600282930193828554166201042e565b161664ffffffffff19825416179055565b6001600160501b0362014462620082189382845460481c166201785a565b825472ffffffffffffffffffff0000000000000000001916911660481b72ffffffffffffffffffff00000000000000000016179055565b64ffffffffff620144b5620082189382845460b81c166201042e565b825464ffffffffff60b81b1916911660b81b64ffffffffff60b81b16179055565b999796989493929961082052610800526107a052610740525f610680525f6107e0525f925f610680525f935f975f6107e052610800515f5260d560205260405f206107c0526001600160501b036107c051541661078052610800515f526012610820510160205260405f206106e0528662014556818c6106e051620178a2565b91620145628c62012f59565b80620152d4575b62015295575b50506201457c8162007b81565b8062014a8f5750505090620145a091846107a05191896107c0516108205162017932565b9093916107605292836107e0528093610760519761076051156201464b575b505050505b6001600160501b036107c05154169361078051851015805f146201463557620145f16107805187620085cb565b905b6001600160ff1b0382116201461b57156201460c579493565b62014617906200d9b4565b9493565b8663e69a04b360e01b5f526004526107805160245260445ffd5b620146448661078051620085cb565b90620145f3565b9091929397506201465c8162007b81565b62014a86575f905b61ffff600261082051015460a81c165f60c0604051620146848162007fe4565b8281528260208201528260408201528260608201528260808201528260a082015201526001600160501b03841162014a685764ffffffffff851162014a4c5760405190620146d28262007fe4565b5f82525f6020830152620146ea846040840162008a31565b6001600160501b038516606083015263ffffffff6107405116608083015264ffffffffff861660a083015263ffffffff431660c0830152610800515f526012610820510160205264ffffffffff60405f205460b81c1662014a335750610820516011015460201c63ffffffff1680620149fd5750620147736108005160116108205101620156dc565b610800515f526012610820510160205260405f2063ffffffff808351161663ffffffff19825416178155620147cd63ffffffff602084015116829063ffffffff60201b82549160201b169063ffffffff60201b1916179055565b6040820151916002831015620046fe5760c063ffffffff916200b3b9620147f5958562019103565b6201480a610800516011610820510162015700565b60056107c0510161ffff600261082051015460a81c1660fc8111155f1462014952576001901b81541790555b620148506201484682856200861a565b6107c0516200e6e6565b6201485f83610820516200f76f565b6201487a6200b5156200b50f83610820515460e81c62008585565b9062014886826200d209565b6201489581610820516200f78b565b6002831015620046fe577fc05bb1266b937b53a6bd9fe3b60b86031f9d7a0d7000daf856c5f7147bc107399461012094846201493d57620148da826108205162019152565b6201490861ffff600261082051015460a81c1695604051968752610800516020880152604087019062007e3c565b6107a051606086015260808501526107405160a085015260c084015260e0830152610100820152a16007935f808080620145bf565b6201494c826108205162019131565b620148da565b6101fc8111620149875762014969600191620085bb565b1b60066107c05101908154179055600160fd1b815417905562014836565b6102fc8111620149bc576201499e600191620085aa565b1b60076107c05101908154179055600160fe1b815417905562014836565b6103fc811115620149d0575b505062014836565b620149dd60019162008599565b1b60086107c05101908154179055600160ff1b81541790555f80620149c8565b63ffffffff81116200b6db578060208301525f526012610820510160205262014a2d6108005160405f20620156dc565b62014773565b633f1ed2e160e21b5f526004526108005160245260445ffd5b846395d41f3f60e01b5f5260045264ffffffffff60245260445ffd5b836395d41f3f60e01b5f526004526001600160501b0360245260445ffd5b60019062014664565b90919594985062014aa08162007b81565b6001810362014d5d57505062014aca929350836107a051916107c0516106e0516108205162017eeb565b6107209190915261070085905293949293929190600a860362014b115761ffff600261082051015460a81c16600361082051015490620018146200b7cd610720516201438c565b610700511562014b2b575b5050506107e0529093620145c4565b62014b3e91929395506107c0516201439c565b5062014b4d610720516201438c565b5f61072051125f1462014d485762014b6d906108005161082051620116b1565b62014b846200b50f85610820515460e81c62008585565b9162014b918386620085cb565b62014b9c816200d209565b62014bab84610820516200f78b565b6106e051549362014bca6001600160501b038660481c1694856200d42c565b935f85126200ba785760ff8660401c16936002851015620046fe577f58afee63719a71ec5980dd0733045eb88626c2fe5c0e2bdcb2624d9bb2cc7603966101609663ffffffff62014c4e8462014c4762014c388b159664ffffffffff8160b81c1695869160981c1662008585565b62004132836107405162008585565b926200861a565b831562014d365762014c609162012b9e565b915b1562014d215762014c77836108205162019152565b62014c9264ffffffffff6106e0515460b81c1693846200861a565b9362014ce561ffff6002610820510162014cc58b89888886865460a81c16934394610800519060116108205101620196d1565b5460a81c1698604051998a526108005160208b015260408a019062007e3c565b6107a0516060890152608088015260a087015260c086015260e0850152610100840152610120830152610140820152a16007915f808062014b1c565b62014d30836108205162019131565b62014c77565b62014d4191620085d9565b9162014c62565b62014d5790610820516200f76f565b62014b6d565b9294939260039062014d6f8162007b81565b036201501257509062014d959392916107a051926107c0516106e0516108205162017d3c565b6106c0939093526106a089905292955092935091600a870362014ddc5761ffff600261082051015460a81c16600361082051015490620018146200b7cd6106c0516201438c565b6106a0511562014df7575b505050506107e0529093620145c4565b62014e3991929394965062014e0f6106c0516201438c565b5f6106c051125f1462014ffd5762014e2f906108005161082051620116b1565b6107c0516201439c565b5062014e516200b50f86610820515460e81c62008585565b62014e5d8187620085cb565b9062014e69826200d209565b62014e7881610820516200f78b565b6106e051549360ff8560401c16936002851015620046fe577fbd161e0db83f06eaeba6c96e96b5472806bda5334e76d6fe2c8653d32ec2b656966101a0968662014fcf575062014eda64ffffffffff6106e0515460b81c166108205162014419565b62014ee9816108205162019131565b64ffffffffff6106e0515461ffff6002610820510162014f318d8684845460a81c168d155f1462014fc7576001925b43936107405192610800519060116108205101620196d1565b5460a81c169762014fbc5762014f5d60015b604051998a526108005160208b015260408a019062007e3c565b6107a05160608901526001600160501b038160481c1660808901528a60a08901526107405160c089015260b81c1660e0870152610100860152610120850152610140840152610160830152610180820152a16007915f80808062014de7565b62014f5d5f62014f43565b5f9262014f18565b64ffffffffff62014fe89160b81c1661082051620143d3565b62014ff7816108205162019152565b62014ee9565b6201500c90610820516200f76f565b62014e2f565b93506201503191929550826107a05191876106e0516108205162017c52565b958097949a929395915096600a81145f146201509a5761082051600281015460039091015460405163063c641b60e41b815260a89290921c61ffff1660048301526001600160501b03808216602484015260509190911c166044820152606481018c9052608490fd5b15620150b2575b5050505050936106805293620145c4565b90919293949550620150cc896108005161082051620116b1565b620150db896107c0516200c45c565b60ff6106e0515460401c16936002851015620046fe5784620152805762015106816108205162014419565b8615620151b0575050907f599b5f439ed4daf1f28ae8638e5439d3982e8001fb26dd8f70021b38672eb26f9360c093926201514b610800516011610820510162012bd1565b6201519161ffff600261082051016201517182825460a81c1660056107c0510162012cdd565b5460a81c1694604051958652610800516020870152604086019062007e3c565b6060840152608083015260a0820152a15b6007905f80808080620150a1565b7fcd4a9f7ae1cc250eaa0be6bdb30d07efaf0faafb4ff0e76d8fe09a8373e43f859591939250610120946201520364ffffffffff92620151f96106e05154976106e051620179d2565b6106e05162014499565b8161ffff600261082051015460a81c1695620152386106e05154936040519889526108005160208a0152604089019062007e3c565b6001600160501b038160481c1660608801526001600160501b038360481c16608088015260b81c1660a086015260b81c1660c084015260e0830152610100820152a1620151a2565b6201528f8161082051620143d3565b62015106565b620152cb92975090620152a891620085cb565b6200c01e61082051546107a0519260ff808360b81c169260b01c169088620115f8565b94865f6201456f565b5081811162014569565b926201533191955f9654956201530c836001600160501b038960481c1664ffffffffff8a60b81c166201436b565b9490938596859963ffffffff8160981c169160ff8260e01c9260401c16908b6200ce92565b9491959085620153438298846200d42c565b9415620153855750505050505f5b6001600160501b036201537260038398015482808260501c16911662011690565b1681116201537d5750565b600a97509450565b5f851262015397575050505062015351565b600c9b509299505f98509096509450925050565b5f60443d1062008125576040513d600319016004823e8051913d60248401116001600160401b038411176201541d57828201928351916001600160401b03831162015415573d8401600319018584016020011162015415575062008125929101602001906200808e565b949350505050565b92915050565b3d1562015452573d906201543782620080b0565b916201544760405193846200808e565b82523d5f602084013e565b606090565b92919092620154905f80936060966001600160a01b0360ca54169083604051809681958294637bf41d7760e11b845260048401620118b5565b03925af15f9181620155ea575b50620155e057505f60033d11620155cf575b806308c379a0146201557757634e487b711462015519575b7f7d7f9345462f0c85c00b5c2083a2ddd2d72fb70e98d0ebed71562cba6feef68790620154f362015423565b9062015512604051928392835260406020840152604083019062007b4f565b0390a19190565b5f8060233d1162015565575b620155315750620154c7565b7fe526d22a15e94c788050d8c0ca8cddc836ce3580e3dbe7ac64afb9229c7d633e9160409182519182526020820152a19190565b5050602060045f3e5f51600162015525565b5062015582620153ab565b806201558f5750620154c7565b7fd83687e05ff302f677e5adcaeee1a4cb3c6473e57b9000d71f2c42ff6ada466c9162015512604051928392835260406020840152604083019062007b4f565b5060045f803e5f5160e01c620154af565b9293505050600191565b620156029192503d805f833e62011e3e81836200808e565b905f6201549d565b600681036201561d575064e8d4a5100090565b600581036201563157506509184e72a00090565b60048103620156455750655af3107a400090565b600381036201565a575066038d7ea4c6800090565b600281036201566f5750662386f26fc1000090565b6001146201568357670de0b6b3a764000090565b67016345785d8a000090565b919015620156c65763ffffffff62ffffff80845460601c165b1692541682155f14620156ba57505f90565b6200812590836200861a565b63ffffffff62ffffff80845460781c16620156a8565b9063ffffffff81116200b6db57815463ffffffff191663ffffffff91909116179055565b91909163ffffffff83116201573a5763ffffffff6200821892931663ffffffff60201b82549160201b169063ffffffff60201b1916179055565b826395d41f3f60e01b5f5260045263ffffffff60245260445ffd5b60069062015768600784068094620085cb565b5f520160205260405f2090600160ff1983541617825580155f14620157ac575061ffff62008218921664ffff00000082549160181b169064ffff0000001916179055565b60018103620157e2575061ffff62008218921668ffff0000000000000082549160381b169068ffff000000000000001916179055565b6002810362015820575061ffff6200821892166cffff000000000000000000000082549160581b16906cffff00000000000000000000001916179055565b600381036201584e575061ffff62008218921661ffff60781b82549160781b169061ffff60781b1916179055565b600481036201587c575061ffff62008218921661ffff60981b1961ffff60981b83549260981b169116179055565b600503620158a85761ffff62008218921661ffff60b81b1961ffff60b81b83549260b81b169116179055565b61ffff6200821892167fffffff0000ffffffffffffffffffffffffffffffffffffffffffffffffffffff61ffff60d81b83549260d81b169116179055565b939592959490945f965f965f965f99825f5260d560205260405f20925f526012820160205260405f20906201591d878684620178a2565b99620159298b62007b81565b8a62015947575050506201593e975062017932565b91949093849291565b919450919294959697986201595c8162007b81565b600181036201598857505050906201597996959493929162017eeb565b94979396879594909350915050565b60039192939b9a506201599b8162007b81565b03620159c5575050908291620159b2979862017d3c565b5050505090509490919293949192939495565b975097620159d7965083925062017c52565b925092949593505090929395565b939498919295969997909961ffff600286015460a81c16978115158062015b7d575b62015b1657505062015a2a9288925f9262015a216200c488565b928d8b620180b3565b62015b0b5782600962015a42920196888689620193d8565b909682989262015a63575b505050505050505062015a5f57600190565b5f90565b5463ffffffff168162015af95750505f945b62015ac0575050604080519384529315156020840152507fc0ed4041bfe51a7b847f46f096b9d2495866089371037e3efd436bd858f46edd92919050a15f8080808080808062015a4d565b9160c4949186936040519563beb3942960e01b8752600487015260248601526044850152151560648401526084830152151560a4820152fd5b62015b04916200861a565b9462015a75565b505050505050505f90565b97989450999850505091925062015b5b57505050505060207f18a118a5bb122057e420b1bcf7903a57ebc749be0d1981d112c6e257e7bd5e8891604051908152a15f90565b91859162001814936040519687966321b303f960e11b88526004880162010c4d565b50600a82141562015a07565b9499939597909a9891929661ffff600287015460a81c16988115158062015c0b575b62015bc55750509162015a2a9391899362015a216200c488565b989995509a995050509293505062015b5b57505050505060207f18a118a5bb122057e420b1bcf7903a57ebc749be0d1981d112c6e257e7bd5e8891604051908152a15f90565b50600a82141562015bab565b97959761062052610600526104205261056052610460526103e0526105e05262015c44610420516200fad1565b610480525f6101e05261271081116201780a576101e0525b610620516002015464ffffffffff16610380525f610400819052610180528015818115620177fd575b50620177f3575b62015ca161048051600961062051016201568f565b610660919091526105c0525f6101c052610460516103c0819052610180525b61018051151580620177e6575b15620177a05761056051151561056051620177a7575b620177a0575f6105a0525f610640525f610580525f6105a05262015d1161066051600961062051016200d12c565b506102e0526103c05161064052610580525b6106405115158062017793575b8062017786575b15620165e7576102e0515f526010610620510160205260405f2061044052610440515463ffffffff81165f5260d560205260405f206101a05260ff6101a0515460a01c1662015d868162007b81565b1562015e39575061ffff610440515460c81c166102e0527f86ad99b48b2565c9720e33335db58e8c7468d6af03a5e6238b20d4a562f5b8b462015e3061ffff600261062051015460a81c1662015def6105e051610600518361044051600961062051016201920b565b6040969492969591955196879661060051938893909796959260c0959260e08601998652602086015260408501526060840152608083015260a08201520152565b0390a162015d23565b62015e4d63ffffffff8260781c166200f243565b1562015eb6575061ffff610440515460c81c166102e0527fb95e250f9f017dcb1bb1806916771df0c04a269e5f46d5db7519382a0f7bb47762015e3061ffff600261062051015460a81c1662015def6105e051610600518361044051600961062051016201920b565b6106005163ffffffff82160362015f2a575061ffff610440515460c81c166102e0527f52d5291dc7b477ebda965d0693c67e6ccec5b3667b530305685465384756d3fd62015e3061ffff600261062051015460a81c1662015def6105e051610600518361044051600961062051016201920b565b5f62015f3c60ff8360201c166200faa3565b6201658f575b1562015fab575061ffff610440515460c81c166102e0527fae6369c6e529c86dd87431d10e0db70657c834daa75356e1efd7c0ac79f934b762015e3061ffff600261062051015460a81c1662015def6105e051610600518361044051600961062051016201920b565b64ffffffffff8160401c168062015fc860ff8460201c166200faa3565b62016551575b61064051821180156103a0526201607191906201654757825b60026106205101549161ffff620160436201244664ffffffffff861664ffffffffff8760281c168082115f146201653f57505b60ff8760e01c169060ff8860d81c169064ffffffffff8960501c169088878b60b81c166200e7da565b9360881c16926105c051906105c051906105c0519060ff8a60201c169063ffffffff8b1661062051620144d6565b5061016052506107e0519193919284906006198101620163ff57506103a051156201638a57620160b3620160a9846105c05162008585565b6105a0516200861a565b6105a052620160c68361064051620085cb565b610640525b620160d961058051620095ab565b610580526103a051156201620557505091839161012093620161356201612e63ffffffff7ff5f5aef063f495816b6982c44c70c97c8fbec2fa24b73487e6542ce02143121498166200fd916104405162008d9f565b946200d42c565b9161ffff610440515460c81c166102e0526201616b61ffff8660a81c1661ffff600261062051015460a81c166101a0516200f389565b91620161966201618560ff610440515460201c166200fad1565b610440516009610620510162013020565b620161af61ffff8760a81c16600961062051016201358b565b61ffff80600261062051015460a81c169660405197885263ffffffff8116602089015260a81c1660408701526105c0516060870152608086015260a085015260c084015260e0830152610100820152a162015d23565b92909350600261062051015460ff610440515460201c16905f9161ffff8860a81c16156201635e5761ffff8860a81c166303ff00008360981c16175f5260026101a0510160205260405f209182549163ffffffff8316156201632957958094927ff5f5aef063f495816b6982c44c70c97c8fbec2fa24b73487e6542ce0214312149a989694926201629a6101209b9962012f59565b15620162eb57505050620162d19150620162c76001600160501b03825460901c169161016051906201858b565b6101a05162012fbe565b50620162e4610160516101a051620185d7565b91620161af565b620163239361ffff6201274f9260a81c165f5260036101a0510160205264ffffffffff62012724858260405f209660681c166201042e565b620162e4565b5061ffff898163ffffffff60016101a05101541693638d5bba0f60e01b5f5260a81c1660045260a81c1660245260445260645ffd5b5061ffff63ffffffff60016101a051015416916369bc91ef60e11b5f5260a81c1660045260245260445ffd5b9150620163a2620160a9610640516105c05162008585565b6105a052620163ef64ffffffffff620163c86106405182610440515460401c166201042e565b16610440519064ffffffffff60401b82549160401b169064ffffffffff60401b1916179055565b61064051915f61064052620160cb565b94505050925050600d8114620164f3577f72777d4856cf973d1b0f65b47f675f18842c122c2a529a294343fd22a6c135479161016091610440515461ffff8160c81c166102e05261ffff600261062051015460a81c16926103a0515f14620164e55760ff90915b60201c1691620164896105e051610600518661044051600961062051016201920b565b9493959296919060405198895260208901526040880152620164ab8162007b81565b60608701526105c051608087015260a086015260c085015260e084015261060051610100840152610120830152610140820152a162015d23565b5060ff610640519162016466565b608461ffff600261062051015460a81c1661ffff610620515460405192631f466abb60e21b8452600484015263ffffffff8160201c16602484015242604484015260a01c166064820152fd5b90506201601a565b6106405162015fe7565b63ffffffff83165f526012610620510160205264ffffffffff60405f205460b81c1682811062016583575b5062015fce565b9150620160716201657c565b5063ffffffff81165f526012610620510160205260405f2064ffffffffff815460b81c16151515908115620165c6575b5062015f42565b620165e0915060ff808460201c16915460401c1662014129565b5f620165bf565b610580516106405161018052620166056105a051610400516200861a565b61040052610640516103c0510362017770575b61058051156201664f57610640511562015cc0576201664161048051600961062051016201568f565b6105c0526106605262015cc0565b507fb492fac0bb9e8c8d824bf2a4c19ec1efd3e98e987de34e127bc17eb2b5c0605e5f80a15b6101c05162017732575b6101805190610180516104605111620166a1575b620082186106205162010f8b565b620166b36101805161046051620085cb565b61054052620166c96105405161040051620085d9565b620166db610540516104005162012b9e565b61052052620166ed610420516200fad1565b5f6105005215620177275761052051610500525b610600515f526012610620510160205260ff60405f205460401c166002811015620046fe575f6104c05262017718576104c0525b620167976201678d6002610620510154620167536104205162012f59565b15620177105761054051905b60ff8160e01c169160ff8260d81c169164ffffffffff8160501c169161ffff610380519260b81c166200e7da565b6103e0516201164f565b5f610300525f610140525f905f610300525f915f61014052610600515f5260d560205260405f20610240526001600160501b036102405154166104e052610600515f526012610620510160205260405f206104a0526201680261054051610420516104a051620178a2565b620168106104205162012f59565b8062017708575b620176ca575b620168288162007b81565b8062016e3a57505090620168546101e05183610540516105205161042051610240516106205162017932565b919382610140528192851562016a00575b5050505b6001600160501b03610240515416926104e051841015805f14620169ea57620168966104e05186620085cb565b905b6001600160ff1b038211620169d057620168e4919015620169be57935b61ffff600261062051015460a81c1693620168cf6200c4ae565b9061030051906104205161060051886201816f565b506007810362016969575050907f5be6b2e974d9a72428e5cb9cf915a5f991d1c862db8cafc9a121bb99b091cb74916201696060405192839261014051610540516104c05161052051610500518893909796959260c0959260e08601998652602086015260408501526060840152608083015260a08201520152565b0390a162016693565b61010492506040519163b29d194960e01b835260048301526106005160248301526105005160448301526105205160648301526104c05160848301526105405160a48301526101805160c483015260e4820152fd5b620169c9906200d9b4565b93620168b5565b8563e69a04b360e01b5f526004526104e05160245260445ffd5b620169f9856104e051620085cb565b9062016898565b909192945062016a136104205162007b81565b6104205162016e31575f905b61ffff600261062051015460a81c165f60c060405162016a3f8162007fe4565b8281528260208201528260408201528260608201528260808201528260a082015201526001600160501b0385116200b72d5764ffffffffff610540511162016e12576040519062016a908262007fe4565b5f82525f602083015262016aa8846040840162008a31565b6001600160501b038616606083015263ffffffff6105005116608083015264ffffffffff610540511660a083015263ffffffff431660c0830152610600515f526012610620510160205264ffffffffff60405f205460b81c1662016df95750610620516011015460201c63ffffffff168062016dc3575062016b346106005160116106205101620156dc565b610600515f526012610620510160205260405f2063ffffffff808351161663ffffffff1982541617815562016b8e63ffffffff602084015116829063ffffffff60201b82549160201b169063ffffffff60201b1916179055565b6040820151916002831015620046fe5760c063ffffffff916200b3b962016bb6958562019103565b62016bcb610600516011610620510162015700565b6005610240510161ffff600261062051015460a81c1660fc8111155f1462016d18576001901b81541790555b62016c1162016c0782866200861a565b610240516200e6e6565b62016c2084610620516200f76f565b62016c3b6200b5156200b50f83610620515460e81c62008585565b9062016c47826200d209565b62016c5681610620516200f78b565b6002831015620046fe577fc05bb1266b937b53a6bd9fe3b60b86031f9d7a0d7000daf856c5f7147bc1073994610120948462016d005762016c9e610540516106205162019152565b62016ccc61ffff600261062051015460a81c1695604051968752610600516020880152604087019062007e3c565b606085015260808401526105005160a08401526105405160c084015260e0830152610100820152a16007915f808062016865565b62016d12610540516106205162019131565b62016c9e565b6101fc811162016d4d5762016d2f600191620085bb565b1b60066102405101908154179055600160fd1b815417905562016bf7565b6102fc811162016d825762016d64600191620085aa565b1b60076102405101908154179055600160fe1b815417905562016bf7565b6103fc81111562016d96575b505062016bf7565b62016da360019162008599565b1b60086102405101908154179055600160ff1b81541790555f8062016d8e565b63ffffffff81116200b6db578060208301525f526012610620510160205262016df36106005160405f20620156dc565b62016b34565b633f1ed2e160e21b5f526004526106005160245260445ffd5b6395d41f3f60e01b5f526105405160045264ffffffffff60245260445ffd5b60019062016a1f565b62016e458162007b81565b60018103620171485750509062016e746101e051836105405161052051610240516104a0516106205162017eeb565b929693906103609592955261034052610320529193906103205194600a61032051145f1462016ec75761ffff600261062051015460a81c16600361062051015490620018146200b7cd610360516201438c565b610320511562016ee3575b505050610140526103405162016869565b62016ef69192939550610240516201439c565b5062016f05610360516201438c565b5f61036051125f14620171335762016f25906106005161062051620116b1565b62016f3c6200b50f85610620515460e81c62008585565b9062016f498286620085cb565b62016f54816200d209565b62016f6383610620516200f78b565b62016f806104a05154946001600160501b038660481c166200d42c565b925f84126200ba7857600260ff8660401c161015620046fe57846101609464ffffffffff7f58afee63719a71ec5980dd0733045eb88626c2fe5c0e2bdcb2624d9bb2cc76039760b81c166201700562016ff962016fe78363ffffffff8760981c1662008585565b62004132610540516105005162008585565b9161054051906200861a565b60ff8460401c16155f1462017122576201701f9162012b9e565b60ff8360401c16155f146201710a5762017040610540516106205162019152565b64ffffffffff6104a0515460b81c16916001600160501b036201706761054051856200861a565b946201709a61ffff600261062051015460a81c16878686439360ff8760401c1690610600519060116106205101620196d1565b61ffff600261062051015460a81c1698604051998a526106005160208b0152620170ce60408b0160ff8460401c1662007e3c565b60608a015260481c16608088015260a087015260c086015260e0850152610100840152610120830152610140820152a16007915f808062016ed2565b6201711c610540516106205162019131565b62017040565b6201712d91620085d9565b6201701f565b6201714290610620516200f76f565b62016f25565b600390620171568162007b81565b036201742157505f61026052620171896101e0518261054051610520516104c051610240516104a0516106205162017d3c565b610280939093526102c0979097526102a088905261026088905291979596929450925090600a03620171df5761ffff600261062051015460a81c16600361062051015490620018146200b7cd610280516201438c565b6102a0511562017203575b5050505050610140526102c05190610260519162016869565b620172409062017216610280516201438c565b5f61028051125f146201740c5762017236906106005161062051620116b1565b610240516201439c565b50620172586200b50f86610620515460e81c62008585565b620172648187620085cb565b9162017270836200d209565b6201727f82610620516200f78b565b6104a051549560ff8760401c16946002861015620046fe5764ffffffffff6101a0977fbd161e0db83f06eaeba6c96e96b5472806bda5334e76d6fe2c8653d32ec2b6569988155f14620173e35750620172e5826104a0515460b81c166106205162014419565b620172f4836106205162019131565b6104a05154906201733861ffff600261062051015460a81c168a155f14620173db578560015b439261050051916102c05191610600519060116106205101620196d1565b610620516002015460a81c61ffff1698620173d0576201736e60015b6040519a8b526106005160208c015260408b019062007e3c565b60608901526001600160501b038160481c1660808901526102c05160a08901526105005160c089015260b81c1660e0870152610100860152610120850152610140840152610160830152610180820152a16007610260525f80808080620171ea565b6201736e5f62017354565b855f6201731a565b82620173f79160b81c1661062051620143d3565b62017406836106205162019152565b620172f4565b6201741b90610620516200f76f565b62017236565b9150620174429061054051610520516104c0516104a0516106205162017c52565b610220949094525061020085905291929091600a8503620174b75761062051600281015460039091015460405163063c641b60e41b81526102205160a89390931c61ffff1660048201526001600160501b03808316602483015260509290921c90911660448201526064810191909152608490fd5b6102005115620174d5575b5050509061022051610300529162016869565b9091929350620174f0610220516106005161062051620116b1565b6201750261022051610240516200c45c565b60ff6104a0515460401c16916002831015620046fe5782620176b25762017530610540516106205162014419565b8415620175e257509060c0917f599b5f439ed4daf1f28ae8638e5439d3982e8001fb26dd8f70021b38672eb26f9362017573610600516011610620510162012bd1565b6201759361ffff600261062051015460a81c166005610240510162012cdd565b620175c161ffff600261062051015460a81c1693604051948552610600516020860152604085019062007e3c565b6104c0516060840152608083015260a0820152a15b6007905f8080620174c2565b907fcd4a9f7ae1cc250eaa0be6bdb30d07efaf0faafb4ff0e76d8fe09a8373e43f859364ffffffffff61012094620176236104a05154956104a051620179d2565b62017635610540516104a05162014499565b8161ffff600261062051015460a81c16956201766a6104a05154936040519889526106005160208a0152604089019062007e3c565b6001600160501b038160481c1660608801526001600160501b038360481c16608088015260b81c1660a086015260b81c1660c084015260e0830152610100820152a1620175d6565b620176c46105405161062051620143d3565b62017530565b610540515f036105405162003ae857836200c01e620177019261062051549060ff808360b81c169260b01c169061052051620115f8565b506201681d565b505f62016817565b5f906201675f565b50610520516104c05262016735565b806105005262016701565b610620516101c051600191909101805467ffffffffffffffff191663ffffffff92909216919091174260201b63ffffffff60201b161790556201667f565b6105c0516101c052610640516103c05262016618565b5061058051151562015d37565b506102e051151562015d30565b5062016675565b506104805180620177d6575b8062015ce357506104805115801562015ce357506105c051610560511162015ce3565b506105c0516105605110620177b3565b506105c051151562015ccd565b506103e862015c8c565b6103e89150115f62015c85565b5061ffff600261062051015460781c166101e05262015c5c565b9062017853979496939592916107c0526107e05261080052610740526107a052610720525f610700526201994a565b6107005190565b91905f62017868826201438c565b9113156201788f576201047981846200861a565b6001600160501b0384116201048d575050565b6201789b8184620085cb565b926201787c565b919091620178b0836200faa3565b15620178be57505050600290565b5464ffffffffff8160b81c169283155f14620178dc57505050505f90565b620178e7906200fad1565b15620179275760ff5f915b60401c166002821015620046fe576002811015620046fe570362017917575050600190565b116201792257600290565b600390565b60ff600191620178f2565b959196939094925f965f98620179495f916200faa3565b620179c05762017959826200ce47565b50505015620179b25750620179829596979850549160ff808460b81c169360b01c1691620190b1565b9190826001600160501b03829554166201799d82846200861a565b11620179a7575050565b600195509093509150565b600d99985096505050505050565b50600698505f97508796505050505050565b6001600160501b0362014462620082189382845460481c16620103d6565b908060081c9060ff811660ff810362017ada575b5060101c9060ff811660ff810362017a78575b505060ff810362017a295750505f1990565b62017a36908254620192a8565b60018101156200f9b357806002915f526001830160205262017a5c60405f2054620192ce565b9060081b1791825f52016020526200fa0960405f2054620192ce565b62017a9290835f526001850160205260405f2054620192a8565b90600182011562017a1757600292507effffffffffffffffffffffffffffffffffffffffffffffffffffffffffff00161791825f52016020526200fa0960405f2054620192ce565b62017af490835f526002850160205260405f2054620192a8565b600181011562017a04579250905060ff19161790565b9062ffffff811162017b45576effffff00000000000000000000000082549160601b16906effffff0000000000000000000000001916179055565b6395d41f3f60e01b5f5260045262ffffff60245260445ffd5b9062ffffff811162017b45576bffffff00000000000000000082549160481b16906bffffff0000000000000000001916179055565b9062ffffff811162017b45577fffffffffffffffffffffff000000ffffffffffffffffffffffffffffffffffff74ffffff00000000000000000000000000000000000083549260901b169116179055565b9062ffffff811162017b455771ffffff00000000000000000000000000000082549160781b169071ffffff0000000000000000000000000000001916179055565b906001811b905f52600182016020525f1960405f2054145f1462017c4b57198154169055565b8154179055565b9391949290955f96549062017c7f846001600160501b038460481c1664ffffffffff8560b81c166201436b565b95909462017ca981889a889663ffffffff8160981c169160ff8260e01c9260401c16908d6200ce92565b9691989097879862017cbd819b846200d42c565b985f8a1262017d2357505050509062017ce8929189549160ff808460b81c169360b01c16916201907e565b5092836001600160501b0362017d0c6003849a015482808260501c16911662011690565b16821162017d18575050565b600a99509096509250565b600c9e50929c505f9b5099509097508996509450505050565b9795919097969294965f98549062017d7964ffffffffff8360b81c16809863ffffffff8560981c16908560e01c9060ff8760401c1690866200ce92565b999192909862017d988b946001600160501b038c9760481c166200d42c565b995f8b131562017ee45762017dad8b6201438c565b809c62017dba856200ce47565b5050501562017ec25750505062017dd2908c620085cb565b9781549089888360b01c60ff169a8b9460b81c60ff16809562017df69486620190b1565b989092899a849f62017e08946201907e565b50809a62017e1790836200d45a565b978062017e248a6200d9b4565b9062017e30916200d45a565b975f8912908162017ea2575b5062017e94575050505f8612908162017e5e575b5062017e5857565b600a9a50565b90506001600160501b0362017e8b600362017e79896201438c565b93015482808260501c16911662011690565b16105f62017e50565b60059e50919c509950965050565b90506001600160501b0362017eb78a6201438c565b915416105f62017e3c565b600d9f505f9e50909c508d9b508b9a508a995089985088975090955093505050565b5f62017dad565b5f9791969592949362017efe826200ce47565b5050509788156201809b5754938460981c63ffffffff16978560b81c64ffffffffff16998a8a8860e01c8960401c60ff1662017f3b94896200ce92565b9a91509a838654918260b01c60ff1693849360b81c60ff169462017f61928692620115f8565b9062017f6d9162011670565b9862017f7995620190b1565b94859482809a5f935f8212946001600160501b039362017fab9362017fb79762018083575b506200ace891926200861a565b9160481c16906200d45a565b9662017fc3886200d9b4565b5f8212156201806e579062017fd8916200d42c565b945b62017ff18162017fea886200d9b4565b976200d45a565b965f881290816201804e575b50620180425750505f841290816201801e575b506201801857565b600a9650565b90506001600160501b0362018039600362017e79876201438c565b16105f62018010565b60039950909750925050565b90506001600160501b0362018063896201438c565b915416105f62017ffd565b9597906201807c916200d42c565b9662017fda565b6200ace8925062018094906200d9b4565b9162017f9e565b50600d98505f97508796508695508594508493505050565b5050620180c890969596949291939462012f59565b928315620181675790620180dc916200861a565b915b1590816201815e575b501562018153575f93845b620180fc57505050565b919390929091156201811f57505063587d2a9760e01b5f5260045260245260445ffd5b916040907f587d2a97a31a5894b097ff75ad27cad3e726d27474d08c959bcb5e51c5244d0a929482519182526020820152a1565b8181109384620180f2565b90505f620180e7565b5091620180de565b93909492969591620181819062012f59565b96871562018200579062018195916200861a565b955b159081620181f7575b5015620181ec575f94855b620181b65750505050565b906200181491604051948594635e7f12af60e11b8652600486019094939260609260808301968352602083015260408201520152565b8085109485620181ab565b90505f620181a0565b509562018197565b908054928360281c62ffffff8116946201822386866200d12c565b906201851d5750916006939161ffff8094600388019060ff8160381c169060301c916001821b81541790555f526004880160205260405f20600160ff83161b8154179055165f5260058601602052600160ff60405f2092161b81541790555f14620184b057835462ffffff808260781c169160901c1690801580620184a7575b1562018478575050620182b7858562017be4565b620182c3858562017b93565b5460a81c1691620182d9600785068095620085cb565b5f520160205260405f2091600160ff1984541617835580155f14620183205750815464ffffffff00191662ffff00600883901b161760189190911b64ffff00000016179055565b600181036201835d5750815468ffffffff0000000000191666ffff0000000000602883901b161760389190911b68ffff0000000000000016179055565b60028103620183a6575081546cffffffff00000000000000000019166affff000000000000000000604883901b161760589190911b6cffff000000000000000000000016179055565b60038103620183e55750815470ffffffff00000000000000000000000000191661ffff60681b606883901b161760789190911b61ffff60781b16179055565b600481036201841a5750815463ffffffff60881b191661ffff60881b608883901b161760989190911b61ffff60981b16179055565b6005036201844d57815463ffffffff60a81b191661ffff60a81b60a883901b161760b89190911b61ffff60b81b16179055565b815463ffffffff60c81b191661ffff60c81b60c883901b161760d89190911b61ffff60d81b16179055565b8611156201849357506201848d858562017be4565b620182c3565b851015620182c3576201848d858562017b93565b508115620182a3565b835462ffffff808260481c169160601c169080158062018514575b15620184eb575050620184df858562017b5e565b6201848d858562017b0a565b8611156201850057506201848d858562017b5e565b8510156201848d576201848d858562017b0a565b508115620184cb565b61ffff935062008218969492508062018564856201857f9481945f5260078a0160205260a81c1660405f209061ffff60c81b1961ffff60c81b83549260c81b169116179055565b835461ffff60b81b1916911660b81b61ffff60b81b16178255565b5460a81c169162015755565b9190916001600160501b038311620070a3576001600160501b036200821892931669ffffffffffffffffffff60901b1969ffffffffffffffffffff60901b83549260901b169116179055565b9190620185f662008218916001600160501b03855460501c166201046b565b835469ffffffffffffffffffff60501b1916605082901b69ffffffffffffffffffff60501b1617909355565b61ffff1661ffff811462003ae85760010190565b929094935f9583156201905d576201864e8362012f59565b936201865a8462007b81565b8315801562019047575b61ffff938483166303ff00008560101b16175f526002880160205263ffffffff6201869260405f2062008740565b51166201902157861562019019575f955b871562019012575f5b620186b662008691565b506303fcffff808887166303ff00008960101b16171162018fee57506001600160501b03881162018fd05764ffffffffff811162018fb557620186f9826200faa3565b1562018f97578762018f72575b6001600160501b03604051986201871d8a62007f8f565b8887166303ff00008960101b16178a525f60208b01525f60408b015260608a0193620187498162007b81565b845264ffffffffff60808b01931683521660a08901528963ffffffff815460d01c16155f1462018a1a57620188e293620188c587946001600160501b0360a0620189a79d6201889864ffffffffff8f9899819f9d9a60809f908f6303ff00008d84620187c18260029716848660101b16178662012e2e565b620187d6828216848660101b16178662012ecc565b169160101b16175f520160205260405f209663ffffffff808651161663ffffffff198954161788556201882e63ffffffff602087015116899063ffffffff60201b82549160201b169063ffffffff60201b1916179055565b604085810151895463ffffffff60401b1916911b63ffffffff60401b16178855516201885a8162007b81565b620188658162007b81565b8754915165ffffffffffff60601b1990921660609190911b60ff60601b1617911660681b64ffffffffff60681b16178555565b0151825469ffffffffffffffffffff60901b1916911660901b69ffffffffffffffffffff60901b16179055565b8a1562018a1357505f925b166303ff00008560101b161762019633565b905f52600387016020526201896060405f209463ffffffff808451161663ffffffff198754161786556201893b63ffffffff602085015116879063ffffffff60201b82549160201b169063ffffffff60201b1916179055565b604083810151875469ffff000000000000000019169216901b61ffff60401b16178555565b606081015184546aff00000000000000000000191690151560501b60ff60501b161784550151825464ffffffffff60581b1916911660581b64ffffffffff60581b16179055565b620189c2575b62008218905b6200f507815460f01c62018622565b915062008218620189e15f6001600160501b03855460501c166201046b565b835469ffffffffffffffffffff60501b1916605082901b69ffffffffffffffffffff60501b16178455929050620189ad565b92620188d0565b60039098919697980195875f528660205260405f20805463ffffffff8116155f1462018c06575050938864ffffffffff979462018b1162018b48956001600160501b038f8b9762018b9d9f9e9b8e620188989160809f8f9560a0966303ff00008d60029463ffffffff855460d01c165f5285850160205262018aa9828216848660101b161760405f2062012f29565b63ffffffff855460d01c1660408b0152169160101b16175f520160205260405f209663ffffffff808651161663ffffffff198954161788556201882e63ffffffff602087015116899063ffffffff60201b82549160201b169063ffffffff60201b1916179055565b62018b2b8d8386166303ff00008a60101b16179062012ecc565b8b1562018bff57505f925b166303ff00008660101b161762019633565b915f526020526201896060405f209463ffffffff808451161663ffffffff198754161786556201893b63ffffffff602085015116879063ffffffff60201b82549160201b169063ffffffff60201b1916179055565b62018bae575b6200821890620189b3565b91506200821862018bcd5f6001600160501b03855460501c166201046b565b835469ffffffffffffffffffff60501b1916605082901b69ffffffffffffffffffff60501b1617845592905062018ba3565b9262018b36565b6020919b9698509262018d678b9f9b9562018d368f63ffffffff96600262018d849b9f9d99928e62018c6e898e8e8e64ffffffffff998f1c16805f528787018f526040805f209401528c8f8f908554821c16910152166303ff00008460101b16179062012f29565b8a8a8a0151168062018f48575b5060101b6303ff0000168b8d16175f908152910188526040902086518154888a015167ffffffff00000000198c1992909216928c169290921716908a1660201b63ffffffff60201b1617815593604087810151865463ffffffff60401b1916908b1690911b63ffffffff60401b161785555162018cf88162007b81565b62018d038162007b81565b8454915165ffffffffffff60601b1990921660609190911b60ff60601b1617911660681b64ffffffffff60681b16178255565b60a0830151815469ffffffffffffffffffff60901b191660909190911b69ffffffffffffffffffff60901b16179055565b0151161562018f29575b166303ff00008460101b16178762012f29565b1562018e0d57505050509062018e07620082189262018dec62018db55f6001600160501b03865460501c166201046b565b845469ffffffffffffffffffff60501b1916605082901b69ffffffffffffffffffff60501b16178555965b825460401c1662018622565b61ffff60401b82549160401b169061ffff60401b1916179055565b620189b3565b849793975460ff8160501c169083151582151514158062018f15575b62018ea55750505062018e079262018e9f64ffffffffff62018e7e879562018e7162018dec96620082189b9a9060ff60501b825491151560501b169060ff60501b1916179055565b82875460581c16620104ad565b855464ffffffffff60581b1916911660581b64ffffffffff60581b16178455565b62018de0565b906201431860a49464ffffffffff620093189463ffffffff60018d015416945f1462018f0c575f925b1562018f03575f945b60405197634298a83160e01b89526004890152602488015260581c166044860152606485019062007e3c565b60019462018ed7565b60019262018ece565b5064ffffffffff8160581c16151562018e29565b62018f428282166303ff00008760101b16178b62012ecc565b62018d71565b5f528282018a5262018f6b8d8d166303ff00008360101b161760405f2062012e9d565b5f62018c7b565b63a9c0cecd60e01b5f52878262018f898162007b81565b60045260245260445260645ffd5b8015620187065763a9c0cecd60e01b5f52878262018f898162007b81565b6395d41f3f60e01b5f5260045264ffffffffff60245260445ffd5b876395d41f3f60e01b5f526004526001600160501b0360245260445ffd5b866303ff000089886395d41f3f60e01b5f52169160101b161760045260245260445ffd5b81620186ac565b5f95620186a3565b505063ffffffff6001870154169163feefcc0b60e01b5f5260045260245260445260645ffd5b50620190538462007b81565b6002841462018664565b63ffffffff600186015416906369bc91ef60e11b5f5260045260245260445ffd5b906201908c939291620115f8565b9060648202918083046064149015171562003ae857620190ac9162012b9e565b905f90565b90620190c393929196959496620115f8565b9060648202908282046064148315171562003ae857620190e39162012b9e565b925f9181620190f157505090565b620081259250906200b50f9162008585565b906002811015620046fe5768ff000000000000000082549160401b169068ff00000000000000001916179055565b9064ffffffffff620143f460026200821894019282845460281c16620104ad565b64ffffffffff6201443360028293019382855416620104ad565b91929015620191d1575081511562019182575090565b3b156201918c5790565b60405162461bcd60e51b815260206004820152601d60248201527f416464726573733a2063616c6c20746f206e6f6e2d636f6e74726163740000006044820152606490fd5b825190915015620191e55750805190602001fd5b60405162461bcd60e51b8152602060048201529081906200181490602483019062007b4f565b945f9485949080156201929f575b156201927957506200821863ffffffff9495966201923b62009c5e8562008d9f565b8354906200f74d6201926661ffff8460a81c16809981951698895f5260d560205260405f206200f389565b956200f74560ff825460201c166200fad1565b62008218955063ffffffff945062019296906200fd918462008d9f565b9590966201923b565b50801562019219565b6001820180921162003ae857811c9081620192c45750505f1990565b6200413262008125925b905f916fffffffffffffffffffffffffffffffff811615620193cc575b6001600160401b03811615620193b5575b63ffffffff8116156201939e575b61ffff81161562019387575b60ff81161562019370575b600f81161562019359575b600381161562019342575b60011615620136d457565b916002810180911162003ae8579160021c62019337565b916004810180911162003ae8579160041c6201932c565b916008810180911162003ae8579160081c62019321565b916010810180911162003ae8579160101c62019316565b916020810180911162003ae8579160201c6201930a565b916040810180911162003ae8579160401c620192fc565b60809250821c620192eb565b929391908215620195dc5762ffffff80855460601c165b1690620193fe848784620198d5565b15620195cf576201941082866200d12c565b50915f5b6103e8811080620195c5575b15620195b157835f526007870160205260405f209363ffffffff855416156201959b57506201944f906200871c565b83546201946563ffffffff8260781c166200f243565b156201958a57867fb95e250f9f017dcb1bb1806916771df0c04a269e5f46d5db7519382a0f7bb47760e08a620194e761ffff620195279660c81c1699620194b18c6200fd918362008d9f565b92909382620194de8d82549063ffffffff82165f5260d560205261ffff60405f209260a81c16916200f389565b98159162013020565b549161ffff8360a81c169563ffffffff604051948c865216602085015286604085015260608401528b608084015260a083015260c0820152a1886201358b565b8362019414579250508315620195795762ffffff80865460601c165b1662019551858883620198d5565b156201956b576201956381876200d12c565b509262019414565b955050505050505f915f9190565b62ffffff80865460781c1662019543565b5050955050505050506001915f9190565b8363cf25731d60e01b5f5260045260245260445ffd5b935094505093506103e89150101591151592565b5083151562019420565b5093505050505f915f9190565b62ffffff80855460781c16620193ef565b90620195f982620198fb565b91939091845f1981146201962c575090829162008218935f5260018201602052600160405f20911b815417905562017c25565b9450505050565b9190915f6080604051620196478162008072565b82815282602082015282604082015282606082015201526303fcffff80821162012e87575064ffffffffff8211620196b5576040519264ffffffffff929163ffffffff16620196968562008072565b8085526020850152600160408501521515606084015216608082015290565b506395d41f3f60e01b5f5260045264ffffffffff60245260445ffd5b90959796949392916001820191815f528260205260405f209764ffffffffff895460b81c1615620198be57506201975a95936201973b9363ffffffff9693838b620197349554938a8560201c169081850362019809575b50509250505062019103565b86620117d5565b845463ffffffff60981b1916911660981b63ffffffff60981b16178355565b64ffffffffff8411620197ed5763ffffffff90620197a164ffffffffff62008218959616849064ffffffffff60b81b1964ffffffffff60b81b83549260b81b169116179055565b82547bffffffffffffffffffffffffffffffffffffffffffffffffffffffff16911660e01b7fffffffff0000000000000000000000000000000000000000000000000000000016179055565b836395d41f3f60e01b5f5260045264ffffffffff60245260445ffd5b6201987495836201986794548e808216931688145f1462019880575050620198328186620156dc565b5f528060205260405f2063ffffffff60201b1981541690555b815f52602052620198608460405f20620156dc565b8d62015700565b88198c54168c5562015700565b5f80808b818062019728565b918e620198b89360201c165f5283602052620198a08160405f20620156dc565b5f52826020528d60405f20915460201c169062015700565b6201984b565b90506334a4033d60e11b5f5260045260245260445ffd5b909291925f9382620198e657505050565b929350909115620198f657101590565b111590565b805480156201993f5762019911600191620192ce565b91825f52016020526201993660405f2054196201993081151562011eec565b620192ce565b808260081b1792565b505f19915f91508190565b62019a3c9291604051916201995f8362008056565b5f83525f602084015282610700526201997b6107a0516200fad1565b61082052620199fa60026107c051015461ffff620199d6620199c760ff8460e01c1660ff8560d81c1664ffffffffff8660501c1664ffffffffff871661074051878960b81c166200e7da565b6101606108005101356201164f565b9160881c169061074051906080610800510135906107a05190866107c051620158e6565b91949097936107809a939a526106e05295929795610720519087610780516106e051610740518a6080610800510135610820516107a0518d6107c05162015b89565b156201ad62575060c954610760819052613fff6106c081905260d59190911c16612710808202829004149015171562003ae8576127106106c0516107605160d51c16029062019a8e6107a05162012f59565b6201ad3e575b806201ad2c575b50815f5260d560205260405f2090815460f01c5f6106805261ffff6106805261068051146201aca4579062019ad59161072051916200e47f565b6201ab8e576106805160026107c051015460a81c165f610640525f610660525f610640525f61066052815f5260d560205260405f206106a0526106a051546001600160501b038160501c166001600160501b03821611806201ac6f575b156201ab9657505062019b586127106106c0516107605160d51c16026106a0516200e6e6565b62019b726127106106c0516107605160d51c16026200aa4d565b62019b8c6127106106c0516107605160d51c16026200d9b4565b610660526001610640525b6001600160501b036106a05154166106205261064051156201ab8e576106805160026107c051015460a81c169162019bce62009516565b5062019be060016107e05101620195ed565b6106008190525f19146201ab7b5762019c2b62019c09610680516107e0515460201c1662018622565b6107e0519065ffff0000000082549160201b169065ffff000000001916179055565b62019c3562008d53565b506001821080156201ab6d575b62009f7157801580156201ab60575b6201ab47576001610740511080156201ab35575b6201ab11576106c0516107605160d51c8116116201aaed5763ffffffff60c0610800510135116201aacb57612710610160610800510135116201aaaa5762019e7660405162019cb48162008039565b63ffffffff8416815262019ccb6107a05162007b81565b6107a051602082015262ffffff8316604082015264ffffffffff610740511660608201526106c0516107605160d51c16608082015263ffffffff60c06108005101351660a0820152610680516101606108005101351660c082015261068051610600511660e08201525f6101008201525f610120820152610600515f5260076107e0510160205260405f209063ffffffff808251161663ffffffff19835416178255602081015162019d7d8162007b81565b62019d888162007b81565b8254604083810151606085015161068051608087015160a088015160c089015160e08a01516101008b0151610120909b015161ffff60c81b90861660c81b169a851660b81b61ffff60b81b1690851660a81b61ffff60a81b1691851660981b61ffff60981b1660789390931b63ffffffff60781b169390941660681b61ffff60681b169490961b64ffffffffff60401b1660289590951b67ffffff00000000001660209890981b64ff00000000167fffffffffff0000000000000000000000000000000000000000000000ffffffff9097169690961796909617929092171793909317919091171717179055565b610600515f5260076107e0510160205262019e9c6108205160405f206107e05162018208565b6040519262019eab8462008056565b8352610600516020840152826107005261060051156201aa4b57505f815f5260d560205260405f209062019ee26107a05162012f59565b156201a9ee575060026107c05101549560208401515f9781156201a9c45762019f0e6107a05162012f59565b9162019f1d6107a05162007b81565b6107a0511580156201a9a8575b6106805182166303ff0000609885901c16175f908152600287016020526040902063ffffffff9062019f5c9062008740565b51166201a97a5783156201a97357845b84156201a96b575f905b62019f8062008691565b506303fcffff806106805186166303ff000063ffff00006cffffffffffffffffffffff00008a60981c16161617116201a92f57506001600160501b0381116201a9125764ffffffffff8211620196b55762019fde6107a0516200faa3565b156201a8fd57806201a8d2576001600160501b03905b64ffffffffff604051936201a0098562007f8f565b6106805187166303ff000063ffff00006cffffffffffffffffffffff00008b60981c1616161785525f60208601525f60408601526201a04b6107a05162007b81565b6107a05160608601521660808401521660a0820152865460d01c63ffffffff166201a3cd5760a0999896936201a21a60209997947f5d5d31f82cb7d7cf1b09787031cd282c6accc62145d50de980d298bb340a9aba9d9e97946201a1f96201a2ab956201a0de6106805185166303ff000063ffff00006cffffffffffffffffffffff00008a60981c161616178b62012e2e565b610680516201a0fc9085166303ff0000609889901c16178b62012ecc565b6106805184166303ff000063ffff00006cffffffffffffffffffffff00008960981c161616175f5260028a018e528f6001600160501b039060405f209263ffffffff808251161663ffffffff19855416178455602063ffffffff6201a1809183015116859063ffffffff60201b82549160201b169063ffffffff60201b1916179055565b604081810151855463ffffffff60401b1916911b63ffffffff60401b1617845560608101516201a1b08162007b81565b6201a1bb8162007b81565b8454608083015165ffffffffffff60601b1990911660609290921b60ff60601b169190911760689190911b64ffffffffff60681b1617845562018898565b85156201a3c5575f915b61068051166303ff0000609886901c161762019633565b90610680519060a81c165f5260038501895264ffffffffff608060405f209263ffffffff808251161663ffffffff198554161784556201a27e63ffffffff8d83015116859063ffffffff60201b82549160201b169063ffffffff60201b1916179055565b61068051604082810151865469ffff000000000000000019169216901b61ffff60401b1617845562018960565b6201a3aa575b506201a2c6906200f507815460f01c62018622565b935b600a6106e051146201a303575b50500151906040519182526107405160208301526040820152610660516060820152610620516080820152a1565b7fb971bdbd8f44fbf3ba501ee287c2533eb61b09097d638c664566aac00bbb3e6591610120916001600160501b036106805160026107c051015460a81c169260036107c051015490604051948552888501526201a3636107a05162007b81565b6107a0516040850152608061080051013560608501526107405160808501528181168a85015260501c1660c08301526107805160e0830152610100820152a15f806201a2d5565b8192506201a3bd906201a2c692620185d7565b91906201a2b1565b5f916201a203565b610680518460a81c165f526003870160205260405f20805463ffffffff8116155f146201a55a57505086936201a21a60209997947f5d5d31f82cb7d7cf1b09787031cd282c6accc62145d50de980d298bb340a9aba9d9e97946201a50f6201a52d9560a09f9e9c63ffffffff905460d01c165f5260028a018e526201a47b6106805185166303ff000063ffff00006cffffffffffffffffffffff00008a60981c1616161760405f2062012f29565b63ffffffff8a5460d01c1660408201526106805184166303ff000063ffff00006cffffffffffffffffffffff00008960981c161616175f5260028a018e528f6001600160501b039060405f209263ffffffff808251161663ffffffff19855416178455602063ffffffff6201a1809183015116859063ffffffff60201b82549160201b169063ffffffff60201b1916179055565b610680516201a1f99083166303ff0000609887901c16178962012ecc565b6201a53f575b506201a2c690620189b3565b8192506201a552906201a2c692620185d7565b91906201a533565b60206201a6c2938a9f98959796939a6002906201a5c463ffffffff8096861c16805f52838301865260405f20906040860152868154871c16868601528a6303ff000063ffff00006cffffffffffffffffffffff0000610680518c169360981c161616179062012f29565b848484015116806201a890575b506106805186166303ff000060988b901c16175f9081529101835260409020815181548385015163ffffffff60201b90871660201b1691861686199091161767ffffffff0000000019161781556201a6a090604083810151825463ffffffff60401b191690871690911b63ffffffff60401b1617815560608301516201a6578162007b81565b6201a6628162007b81565b8154608085015165ffffffffffff60601b1990911660609290921b60ff60601b169190911760689190911b64ffffffffff60681b1617815562018d36565b015116156201a86c575b61068051166303ff0000609885901c16178762012f29565b156201a720575050509160a09493916201a2c68862018e076201a70a6020977f5d5d31f82cb7d7cf1b09787031cd282c6accc62145d50de980d298bb340a9aba9b9c620185d7565b935b62018dec61068051825460401c1662018622565b9091938093505460ff8160501c16908315158215151415806201a858575b6201a7df57505050916201a2c67f5d5d31f82cb7d7cf1b09787031cd282c6accc62145d50de980d298bb340a9aba979862018e07846201a79c60a09a9997602099979060ff60501b825491151560501b169060ff60501b1916179055565b6201a7d964ffffffffff6201a7b85f82855460581c16620104ad565b835464ffffffffff60581b1916911660581b64ffffffffff60581b16178255565b6201a70c565b906201431860a49464ffffffffff620093189463ffffffff8f6001015416945f146201a84f575f925b156201a846575f945b60405197634298a83160e01b8952610680519060a81c166004890152602488015260581c166044860152606485019062007e3c565b6001946201a811565b6001926201a808565b5064ffffffffff8160581c1615156201a73e565b610680516201a88a9082166303ff0000609887901c16178e62012ecc565b6201a6aa565b5f5281810184526201a8cb6106805187166303ff000063ffff00006cffffffffffffffffffffff00008d60981c1616161760405f2062012e9d565b5f6201a5d1565b63a9c0cecd60e01b5f526107a0516201a8eb9062007b81565b6107a05160045260245260445260645ffd5b816201a8d2576001600160501b039062019ff4565b6395d41f3f60e01b5f526004526001600160501b0360245260445ffd5b856303ff000063ffff00006cffffffffffffffffffffff0000886395d41f3f60e01b5f5261068051169360981c1616161760045260245260445ffd5b5f9062019f76565b5f62019f6c565b5063ffffffff6001860154169163feefcc0b60e01b5f52610680519060a81c1660045260245260445260645ffd5b506201a9b76107a05162007b81565b60026107a0511462019f2a565b63ffffffff600185015416906369bc91ef60e11b5f52610680519060a81c1660045260245260445ffd5b92907f5d5d31f82cb7d7cf1b09787031cd282c6accc62145d50de980d298bb340a9aba9596509160a0946201aa446020946106805160026107c051015460a81c1661074051916107a05191888801519162018636565b506201a2c8565b60c492506106805160026107c051015460a81c169160405192635f4d015360e01b8452600484015260248301526201aa866107a05162007b81565b6107a0516044830152606482015261074051608482015261082051151560a4820152fd5b6395d41f3f60e01b5f5261016061080051013560045261271060245260445ffd5b6395d41f3f60e01b5f5260c061080051013560045263ffffffff60245260445ffd5b6395d41f3f60e01b5f9081526106c0516107605160d51c8116600452602452604490fd5b630c8f0a6960e41b5f5261074051600452600160245264ffffffffff60445260645ffd5b5064ffffffffff610740511162019c65565b63c6ebaaa160e01b5f5260045262ffffff60245260445ffd5b5062ffffff811162019c51565b5063ffffffff821162019c42565b826313d2887b60e01b5f5260045260245ffd5b509192505050565b610720516201ac1557604080516106c05161076051948252602082018690526001600160501b038085169383019390935260509390931c909116606082015260d59290921c166127100260808201527fe45a99fff28c6d15925d1e2d85178b939f8809e353ffdd55bc03edb410aa24de908060a081010390a162019b97565b60405163e45a99ff60e01b81526106c05161076051600483019490945260248201949094526001600160501b03828116604483015260509290921c909116606482015261271060d59290921c90921602608482015260a490fd5b506127106106c0516107605160d51c16026001600160501b036201ac9b818460501c168285166200e3f8565b16101562019b32565b50509293505050610720516201ad07577fbd608c77710b601b3c0b0f34d13295beb58c48631119b910d8d6067ad650d5b8906106805160026107c051015460a81c166200a6c4604051928392836020909392919361ffff60408201951681520152565b6106805160026107c051015460a81c1663bd608c7760e01b5f5260045260245260445ffd5b6201ad37916200861a565b5f62019a9b565b90506201ad5b866127106106c0516107605160d51c16026200861a565b9062019a94565b949550505050506107005256fea26469706673582212207468bd5bb019e63c87eb563adf3ddee6013562033cbffcb08f1c589874e5637164736f6c634300081e0033",
    "linkReferences": {}
  },
  "methodIdentifiers": {
    "acceptOwnership()": "79ba5097",
    "addContract(string,string,uint256,uint256,uint256,uint256,uint256,uint256,uint256,uint256)": "92f54b3a",
    "addressBlocked(address)": "3bf45a2f",
    "adminCancelOrders((uint256,uint256)[])": "e548bb57",
    "allowOrderForwarding(bool)": "7962f910",
    "autoDeleverage((uint256,uint256,uint256[])[],bool)": "43559bbf",
    "buyLiquidations((uint256,uint256,uint256,uint256,uint256)[],bool)": "1eebd35e",
    "cancelDecreaseCollateralRequest(uint256)": "ebcf1656",
    "clearInitUnwindContract(uint256)": "075367f6",
    "clearOrderSlots(uint256,uint256[])": "d541abc1",
    "clearPrepareUnwindContract(uint256)": "b5cd004e",
    "clearPricePointerSlots(uint256,uint256[])": "20c801d2",
    "createAccount(uint256)": "cab13915",
    "declineDecreaseCollateralRequest(uint256,uint256,string)": "ecdff22e",
    "decreasePositionCollateral(uint256,uint256,uint32,uint16,uint8)": "5495086a",
    "depositCollateral(uint256)": "bad4a01f",
    "depositToProtocol(uint256)": "54056119",
    "execFwdPositionOps((uint256,uint256,(uint256,uint256,uint8,uint256,uint256,uint256,uint256,bool,bool,bool,uint256,uint256,uint256,uint256))[])": "abce7b20",
    "execFznAccountPosOps((uint256,(uint256,uint256,uint8,uint256,uint256,uint256,uint256,bool,bool,bool,uint256,uint256,uint256,uint256))[])": "0697afae",
    "execOrder((uint256,uint256,uint8,uint256,uint256,uint256,uint256,bool,bool,bool,uint256,uint256,uint256,uint256))": "6b69ebbe",
    "execOrders((uint256,uint256,uint8,uint256,uint256,uint256,uint256,bool,bool,bool,uint256,uint256,uint256,uint256)[],bool)": "af3176da",
    "execPerpOps((uint256,uint256,uint8,uint32,int256,bool,bytes)[])": "5bf9264c",
    "forceClose(uint256,uint256,uint256[],bool)": "b216d0d2",
    "forceResetWithdrawRateLimit()": "bed97b71",
    "getAccountByAddr(address)": "12e8eb2c",
    "getAccountById(uint256)": "05aca141",
    "getExchangeInfo()": "8bc5b3c5",
    "getFundingInterval()": "0d3e87a7",
    "getFundingSumAtBlock(uint256,uint256)": "7dd7e759",
    "getLiquidationInfo(uint256)": "50ef5c35",
    "getMakerFee(uint256)": "1275d14c",
    "getMarginFractions(uint256,uint256)": "6825e9e5",
    "getMinAccountOpenCNS()": "dec92b69",
    "getMinimumPostCNS()": "9fffdfe2",
    "getMinimumSettleCNS()": "3a63dabe",
    "getNextPriceBelowWithOrders(uint256,uint256)": "fb455f6b",
    "getOrder(uint256,uint256)": "5e1a3573",
    "getOrderIdIndex(uint256)": "38ecd885",
    "getOrderLocks(uint256)": "8c1c2cef",
    "getOrdersAtPriceLevel(uint256,uint256,uint256,uint256)": "4d3282b4",
    "getOwner()": "893d20e8",
    "getPermissionedCancelParams(uint256)": "396d7e47",
    "getPerpOrderLocks(uint256,uint256)": "2709b746",
    "getPerpetualInfo(uint256)": "00092cce",
    "getPosition(uint256,uint256)": "751de421",
    "getPositionIds(uint256)": "1973c619",
    "getPositions(uint256,uint256,uint256)": "4a9a4158",
    "getPriceLevelOrderIds(uint256,uint256)": "653a6bd7",
    "getProtocolBalanceCNS()": "b5fcf762",
    "getRecycleBalanceCNS()": "edb1314e",
    "getRecycleFeeCNS()": "16a483ea",
    "getTakerFee(uint256)": "4119f930",
    "getUnwindInfo(uint256)": "6728641b",
    "getVolumeAtBookPrice(uint256,uint256)": "fe37fe12",
    "getWithdrawAllowanceData(uint256)": "8bcf1b27",
    "increasePositionCollateral(uint256,uint256)": "f769f0d3",
    "initUnwindContract(uint256,uint256)": "a5e9c411",
    "initialize(address)": "c4d66de8",
    "isAdministrator(address)": "0a2eb301",
    "isHalted()": "c7ff1584",
    "isLiquidationBuyer(address)": "ae0d4442",
    "isPositionAdministrator(address)": "dbfbf7e8",
    "isPriceAdministrator(address)": "d8b44268",
    "isToleranceAdministrator(address)": "a87041d1",
    "liquidation((uint256,uint256,uint256,bool))": "bbf979ac",
    "liquidations((uint256,uint256,uint256,bool)[],bool)": "d3b8c49d",
    "numberOfAccounts()": "0f03e4c3",
    "owner()": "8da5cb5b",
    "pauseContract(uint256)": "c2852f38",
    "pendingOwner()": "e30c3978",
    "prepareUnwindContract(uint256)": "e5631c9e",
    "proxiableUUID()": "52d1902d",
    "removeContract(uint256)": "7cca3b06",
    "renounceOwnership()": "715018a6",
    "requestDecreasePositionCollateral(uint256,uint256,bool)": "171a5b81",
    "setAddressBlockStatus(address[],bool)": "b1082486",
    "setAddressWhitelisted(address[],bool)": "be70473d",
    "setAdministrator(address,bool)": "87c95058",
    "setBuyToLiquidateBuyerRestriction(uint256,bool)": "32b9203b",
    "setBuyToLiquidateParams(uint256,uint256,uint256,uint256)": "5180d5a8",
    "setBuyToLiquidatePriceThreshold(uint256,uint256)": "45c8c924",
    "setContractPaused(uint256,bool)": "9e430eda",
    "setDcpBorrowThreshold(uint256,uint256)": "af37c07d",
    "setExchangeHalted(bool)": "58087a74",
    "setFeeParams(uint256,uint256)": "9d2ec188",
    "setFreezeStatus(address,uint8)": "182b01f2",
    "setFrozen(address,uint8)": "4b8344fb",
    "setFundingClampPct(uint256,uint256)": "16a06593",
    "setFundingSum(uint256,int256,uint32,bool,bool)": "9fc8afd7",
    "setIgnOracle(uint256,bool)": "69752159",
    "setInitialMarginFraction(uint256,uint256)": "e2e1cb57",
    "setLastForwardedDescId(uint256,uint256)": "ba53027d",
    "setLastForwardedDescIdAsOwner(uint256,uint256)": "eaadbbef",
    "setLinkDsVerifier(address)": "d360dd31",
    "setLiquidationBuyer(address,bool)": "7ddbdc2a",
    "setLiquidationParams(uint256,uint256,uint256)": "60ad17fd",
    "setMaintenanceMarginFraction(uint256,uint256)": "8c031164",
    "setMakerFee(uint256,uint256)": "e74e2c9b",
    "setMarginTol(uint256,uint256,uint256)": "79609c11",
    "setMaxOpenInterest(uint256,uint256)": "9a6d7630",
    "setMinAccountOpenAmount(uint256)": "d6f34bd6",
    "setMinPost(uint256)": "279289e9",
    "setMinSettle(uint256)": "f28b98f3",
    "setMinWithdrawLimit(uint256)": "4d574c56",
    "setOverCollatDescentThreshold(uint256,uint256)": "ed6760fe",
    "setPermissionedCancelParams(uint256,uint256,uint256)": "efb62904",
    "setPerpLinkDsFeedId(uint256,bytes32)": "03cfe83c",
    "setPositionAdministrator(address,bool)": "12014156",
    "setPriceAdministrator(address,bool)": "a9bd5cee",
    "setPriceMaxAge(uint256,uint256)": "0e517f41",
    "setPriceTolPer100K(uint256,uint256)": "7d45678e",
    "setPriceTolPer100KByOwner(uint256,uint256)": "b839a8c4",
    "setRecycleFee(uint256)": "be0783f5",
    "setTakerFee(uint256,uint256)": "6debf8fa",
    "setThousandthsTvlWRLS(uint256)": "d780ece8",
    "setToleranceAdministrator(address,bool)": "dd0a3e2b",
    "setUnityDescentThreshold(uint256,uint256)": "2f32509b",
    "setWhitelistingEnabled(bool)": "5f40c1f7",
    "setWithdrawBypass(address,bool)": "252c3594",
    "transferOwnership(address)": "f2fde38b",
    "triggerUnwindContract(uint256)": "0189a2b7",
    "unwindContract(uint256,uint256,bool)": "fb05acb7",
    "unwindContractByOwner(uint256,uint256,bool)": "ddac1cde",
    "updateMarkPricePNS(uint256,uint32)": "541b04e9",
    "updateMarkPricePNSByOwner(uint256,uint32)": "0a039fbd",
    "updateOraclePrice(uint256,bytes)": "8f3ffc85",
    "upgradeTo(address)": "3659cfe6",
    "upgradeToAndCall(address,bytes)": "4f1ef286",
    "whitelisted(address)": "d936547e",
    "whitelistingEnabled()": "5b0c29eb",
    "withdrawCollateral(uint256)": "6112fe2e",
    "withdrawFromProtocol(uint256)": "8a924640",
    "xferAcctToProtocol(uint256)": "61bd6f44",
    "xferPerpInsToProtocol(uint256,uint256)": "586d92ca",
    "xferProtocolToAcct(uint256,uint256)": "229c2492",
    "xferProtocolToPerp(uint256,uint256,bool)": "e68073c3",
    "xferProtocolToRecycleBal(uint256)": "1df87ade"
  },
  "id": 14
}