{
  "abi": [
    {
      "type": "constructor",
      "inputs": [],
      "stateMutability": "nonpayable"
    },
    {
      "type": "function",
      "name": "acceptOwnership",
      "inputs": [],
      "outputs": [],
      "stateMutability": "nonpayable"
    },
    {
      "type": "function",
      "name": "addContract",
      "inputs": [
        {
          "name": "name",
          "type": "string",
          "internalType": "string"
        },
        {
          "name": "symbol",
          "type": "string",
          "internalType": "string"
        },
        {
          "name": "perpId",
          "type": "uint256",
          "internalType": "uint256"
        },
        {
          "name": "basePricePNS",
          "type": "uint256",
          "internalType": "uint256"
        },
        {
          "name": "priceDecimals",
          "type": "uint256",
          "internalType": "uint256"
        },
        {
          "name": "lotDecimals",
          "type": "uint256",
          "internalType": "uint256"
        },
        {
          "name": "takerFeePer100K",
          "type": "uint256",
          "internalType": "uint256"
        },
        {
          "name": "makerFeePer100K",
          "type": "uint256",
          "internalType": "uint256"
        },
        {
          "name": "initMarginFracHdths",
          "type": "uint256",
          "internalType": "uint256"
        },
        {
          "name": "maintMarginFracHdths",
          "type": "uint256",
          "internalType": "uint256"
        }
      ],
      "outputs": [],
      "stateMutability": "nonpayable"
    },
    {
      "type": "function",
      "name": "addressBlocked",
      "inputs": [
        {
          "name": "",
          "type": "address",
          "internalType": "address"
        }
      ],
      "outputs": [
        {
          "name": "",
          "type": "bool",
          "internalType": "bool"
        }
      ],
      "stateMutability": "view"
    },
    {
      "type": "function",
      "name": "adminCancelOrders",
      "inputs": [
        {
          "name": "signatures",
          "type": "tuple[]",
          "internalType": "struct OrderSignature[]",
          "components": [
            {
              "name": "perpId",
              "type": "uint256",
              "internalType": "uint256"
            },
            {
              "name": "orderId",
              "type": "uint256",
              "internalType": "uint256"
            }
          ]
        }
      ],
      "outputs": [],
      "stateMutability": "nonpayable"
    },
    {
      "type": "function",
      "name": "allowOrderForwarding",
      "inputs": [
        {
          "name": "allow",
          "type": "bool",
          "internalType": "bool"
        }
      ],
      "outputs": [],
      "stateMutability": "nonpayable"
    },
    {
      "type": "function",
      "name": "autoDeleverage",
      "inputs": [
        {
          "name": "adlDescs",
          "type": "tuple[]",
          "internalType": "struct AdlDesc[]",
          "components": [
            {
              "name": "perpId",
              "type": "uint256",
              "internalType": "uint256"
            },
            {
              "name": "posAccountId",
              "type": "uint256",
              "internalType": "uint256"
            },
            {
              "name": "sortedPositionIds",
              "type": "uint256[]",
              "internalType": "uint256[]"
            }
          ]
        },
        {
          "name": "revertOnFail",
          "type": "bool",
          "internalType": "bool"
        }
      ],
      "outputs": [],
      "stateMutability": "nonpayable"
    },
    {
      "type": "function",
      "name": "buyLiquidations",
      "inputs": [
        {
          "name": "liquidationDescs",
          "type": "tuple[]",
          "internalType": "struct BuyToLiquidateDesc[]",
          "components": [
            {
              "name": "perpId",
              "type": "uint256",
              "internalType": "uint256"
            },
            {
              "name": "posAccountId",
              "type": "uint256",
              "internalType": "uint256"
            },
            {
              "name": "lotLNS",
              "type": "uint256",
              "internalType": "uint256"
            },
            {
              "name": "leverageHdths",
              "type": "uint256",
              "internalType": "uint256"
            },
            {
              "name": "limitPricePNS",
              "type": "uint256",
              "internalType": "uint256"
            },
            {
              "name": "maxSlippageBps",
              "type": "uint256",
              "internalType": "uint256"
            }
          ]
        },
        {
          "name": "revertOnFail",
          "type": "bool",
          "internalType": "bool"
        }
      ],
      "outputs": [],
      "stateMutability": "nonpayable"
    },
    {
      "type": "function",
      "name": "cancelDecreaseCollateralRequest",
      "inputs": [
        {
          "name": "perpId",
          "type": "uint256",
          "internalType": "uint256"
        }
      ],
      "outputs": [],
      "stateMutability": "nonpayable"
    },
    {
      "type": "function",
      "name": "clearInitUnwindContract",
      "inputs": [
        {
          "name": "perpId",
          "type": "uint256",
          "internalType": "uint256"
        }
      ],
      "outputs": [],
      "stateMutability": "nonpayable"
    },
    {
      "type": "function",
      "name": "clearOrderSlots",
      "inputs": [
        {
          "name": "perpId",
          "type": "uint256",
          "internalType": "uint256"
        },
        {
          "name": "orderIds",
          "type": "uint256[]",
          "internalType": "uint256[]"
        }
      ],
      "outputs": [],
      "stateMutability": "nonpayable"
    },
    {
      "type": "function",
      "name": "clearPrepareUnwindContract",
      "inputs": [
        {
          "name": "perpId",
          "type": "uint256",
          "internalType": "uint256"
        }
      ],
      "outputs": [],
      "stateMutability": "nonpayable"
    },
    {
      "type": "function",
      "name": "clearPricePointerSlots",
      "inputs": [
        {
          "name": "perpId",
          "type": "uint256",
          "internalType": "uint256"
        },
        {
          "name": "pricesONS",
          "type": "uint256[]",
          "internalType": "uint256[]"
        }
      ],
      "outputs": [],
      "stateMutability": "nonpayable"
    },
    {
      "type": "function",
      "name": "createAccount",
      "inputs": [
        {
          "name": "amountCNS",
          "type": "uint256",
          "internalType": "uint256"
        }
      ],
      "outputs": [
        {
          "name": "accountId",
          "type": "uint256",
          "internalType": "uint256"
        }
      ],
      "stateMutability": "nonpayable"
    },
    {
      "type": "function",
      "name": "declineDecreaseCollateralRequest",
      "inputs": [
        {
          "name": "perpId",
          "type": "uint256",
          "internalType": "uint256"
        },
        {
          "name": "accountId",
          "type": "uint256",
          "internalType": "uint256"
        },
        {
          "name": "reason",
          "type": "string",
          "internalType": "string"
        }
      ],
      "outputs": [],
      "stateMutability": "nonpayable"
    },
    {
      "type": "function",
      "name": "decreasePositionCollateral",
      "inputs": [
        {
          "name": "perpId",
          "type": "uint256",
          "internalType": "uint256"
        },
        {
          "name": "accountId",
          "type": "uint256",
          "internalType": "uint256"
        },
        {
          "name": "impactAdjPricePNS",
          "type": "uint32",
          "internalType": "uint32"
        },
        {
          "name": "borrowMarginFracHdths",
          "type": "uint16",
          "internalType": "uint16"
        },
        {
          "name": "positionType",
          "type": "uint8",
          "internalType": "enum PositionEnum"
        }
      ],
      "outputs": [],
      "stateMutability": "nonpayable"
    },
    {
      "type": "function",
      "name": "depositCollateral",
      "inputs": [
        {
          "name": "amountCNS",
          "type": "uint256",
          "internalType": "uint256"
        }
      ],
      "outputs": [],
      "stateMutability": "nonpayable"
    },
    {
      "type": "function",
      "name": "depositToProtocol",
      "inputs": [
        {
          "name": "amountCNS",
          "type": "uint256",
          "internalType": "uint256"
        }
      ],
      "outputs": [],
      "stateMutability": "nonpayable"
    },
    {
      "type": "function",
      "name": "execFwdPositionOps",
      "inputs": [
        {
          "name": "forwardedOrders",
          "type": "tuple[]",
          "internalType": "struct FwdOrderDesc[]",
          "components": [
            {
              "name": "accountId",
              "type": "uint256",
              "internalType": "uint256"
            },
            {
              "name": "feePer100K",
              "type": "uint256",
              "internalType": "uint256"
            },
            {
              "name": "orderDesc",
              "type": "tuple",
              "internalType": "struct OrderDesc",
              "components": [
                {
                  "name": "orderDescId",
                  "type": "uint256",
                  "internalType": "uint256"
                },
                {
                  "name": "perpId",
                  "type": "uint256",
                  "internalType": "uint256"
                },
                {
                  "name": "orderType",
                  "type": "uint8",
                  "internalType": "enum OrderDescEnum"
                },
                {
                  "name": "orderId",
                  "type": "uint256",
                  "internalType": "uint256"
                },
                {
                  "name": "pricePNS",
                  "type": "uint256",
                  "internalType": "uint256"
                },
                {
                  "name": "lotLNS",
                  "type": "uint256",
                  "internalType": "uint256"
                },
                {
                  "name": "expiryBlock",
                  "type": "uint256",
                  "internalType": "uint256"
                },
                {
                  "name": "postOnly",
                  "type": "bool",
                  "internalType": "bool"
                },
                {
                  "name": "fillOrKill",
                  "type": "bool",
                  "internalType": "bool"
                },
                {
                  "name": "immediateOrCancel",
                  "type": "bool",
                  "internalType": "bool"
                },
                {
                  "name": "maxMatches",
                  "type": "uint256",
                  "internalType": "uint256"
                },
                {
                  "name": "leverageHdths",
                  "type": "uint256",
                  "internalType": "uint256"
                },
                {
                  "name": "lastExecutionBlock",
                  "type": "uint256",
                  "internalType": "uint256"
                },
                {
                  "name": "amountCNS",
                  "type": "uint256",
                  "internalType": "uint256"
                },
                {
                  "name": "maxSlippageBps",
                  "type": "uint256",
                  "internalType": "uint256"
                }
              ]
            },
            {
              "name": "execTriggerOrder",
              "type": "bool",
              "internalType": "bool"
            },
            {
              "name": "triggerPricePNS",
              "type": "uint256",
              "internalType": "uint256"
            },
            {
              "name": "triggerPriceCondition",
              "type": "uint8",
              "internalType": "enum TriggerPriceConditionEnum"
            },
            {
              "name": "triggerRequestId",
              "type": "uint256",
              "internalType": "uint256"
            },
            {
              "name": "triggerPositionId",
              "type": "uint256",
              "internalType": "uint256"
            }
          ]
        }
      ],
      "outputs": [
        {
          "name": "signatures",
          "type": "tuple[]",
          "internalType": "struct OrderSignature[]",
          "components": [
            {
              "name": "perpId",
              "type": "uint256",
              "internalType": "uint256"
            },
            {
              "name": "orderId",
              "type": "uint256",
              "internalType": "uint256"
            }
          ]
        }
      ],
      "stateMutability": "nonpayable"
    },
    {
      "type": "function",
      "name": "execFznAccountPosOps",
      "inputs": [
        {
          "name": "fznAccountCloseOrders",
          "type": "tuple[]",
          "internalType": "struct FznOrderDesc[]",
          "components": [
            {
              "name": "accountId",
              "type": "uint256",
              "internalType": "uint256"
            },
            {
              "name": "orderDesc",
              "type": "tuple",
              "internalType": "struct OrderDesc",
              "components": [
                {
                  "name": "orderDescId",
                  "type": "uint256",
                  "internalType": "uint256"
                },
                {
                  "name": "perpId",
                  "type": "uint256",
                  "internalType": "uint256"
                },
                {
                  "name": "orderType",
                  "type": "uint8",
                  "internalType": "enum OrderDescEnum"
                },
                {
                  "name": "orderId",
                  "type": "uint256",
                  "internalType": "uint256"
                },
                {
                  "name": "pricePNS",
                  "type": "uint256",
                  "internalType": "uint256"
                },
                {
                  "name": "lotLNS",
                  "type": "uint256",
                  "internalType": "uint256"
                },
                {
                  "name": "expiryBlock",
                  "type": "uint256",
                  "internalType": "uint256"
                },
                {
                  "name": "postOnly",
                  "type": "bool",
                  "internalType": "bool"
                },
                {
                  "name": "fillOrKill",
                  "type": "bool",
                  "internalType": "bool"
                },
                {
                  "name": "immediateOrCancel",
                  "type": "bool",
                  "internalType": "bool"
                },
                {
                  "name": "maxMatches",
                  "type": "uint256",
                  "internalType": "uint256"
                },
                {
                  "name": "leverageHdths",
                  "type": "uint256",
                  "internalType": "uint256"
                },
                {
                  "name": "lastExecutionBlock",
                  "type": "uint256",
                  "internalType": "uint256"
                },
                {
                  "name": "amountCNS",
                  "type": "uint256",
                  "internalType": "uint256"
                },
                {
                  "name": "maxSlippageBps",
                  "type": "uint256",
                  "internalType": "uint256"
                }
              ]
            }
          ]
        }
      ],
      "outputs": [],
      "stateMutability": "nonpayable"
    },
    {
      "type": "function",
      "name": "execOrder",
      "inputs": [
        {
          "name": "orderDesc",
          "type": "tuple",
          "internalType": "struct OrderDesc",
          "components": [
            {
              "name": "orderDescId",
              "type": "uint256",
              "internalType": "uint256"
            },
            {
              "name": "perpId",
              "type": "uint256",
              "internalType": "uint256"
            },
            {
              "name": "orderType",
              "type": "uint8",
              "internalType": "enum OrderDescEnum"
            },
            {
              "name": "orderId",
              "type": "uint256",
              "internalType": "uint256"
            },
            {
              "name": "pricePNS",
              "type": "uint256",
              "internalType": "uint256"
            },
            {
              "name": "lotLNS",
              "type": "uint256",
              "internalType": "uint256"
            },
            {
              "name": "expiryBlock",
              "type": "uint256",
              "internalType": "uint256"
            },
            {
              "name": "postOnly",
              "type": "bool",
              "internalType": "bool"
            },
            {
              "name": "fillOrKill",
              "type": "bool",
              "internalType": "bool"
            },
            {
              "name": "immediateOrCancel",
              "type": "bool",
              "internalType": "bool"
            },
            {
              "name": "maxMatches",
              "type": "uint256",
              "internalType": "uint256"
            },
            {
              "name": "leverageHdths",
              "type": "uint256",
              "internalType": "uint256"
            },
            {
              "name": "lastExecutionBlock",
              "type": "uint256",
              "internalType": "uint256"
            },
            {
              "name": "amountCNS",
              "type": "uint256",
              "internalType": "uint256"
            },
            {
              "name": "maxSlippageBps",
              "type": "uint256",
              "internalType": "uint256"
            }
          ]
        }
      ],
      "outputs": [
        {
          "name": "signature",
          "type": "tuple",
          "internalType": "struct OrderSignature",
          "components": [
            {
              "name": "perpId",
              "type": "uint256",
              "internalType": "uint256"
            },
            {
              "name": "orderId",
              "type": "uint256",
              "internalType": "uint256"
            }
          ]
        }
      ],
      "stateMutability": "nonpayable"
    },
    {
      "type": "function",
      "name": "execOrders",
      "inputs": [
        {
          "name": "orderDescs",
          "type": "tuple[]",
          "internalType": "struct OrderDesc[]",
          "components": [
            {
              "name": "orderDescId",
              "type": "uint256",
              "internalType": "uint256"
            },
            {
              "name": "perpId",
              "type": "uint256",
              "internalType": "uint256"
            },
            {
              "name": "orderType",
              "type": "uint8",
              "internalType": "enum OrderDescEnum"
            },
            {
              "name": "orderId",
              "type": "uint256",
              "internalType": "uint256"
            },
            {
              "name": "pricePNS",
              "type": "uint256",
              "internalType": "uint256"
            },
            {
              "name": "lotLNS",
              "type": "uint256",
              "internalType": "uint256"
            },
            {
              "name": "expiryBlock",
              "type": "uint256",
              "internalType": "uint256"
            },
            {
              "name": "postOnly",
              "type": "bool",
              "internalType": "bool"
            },
            {
              "name": "fillOrKill",
              "type": "bool",
              "internalType": "bool"
            },
            {
              "name": "immediateOrCancel",
              "type": "bool",
              "internalType": "bool"
            },
            {
              "name": "maxMatches",
              "type": "uint256",
              "internalType": "uint256"
            },
            {
              "name": "leverageHdths",
              "type": "uint256",
              "internalType": "uint256"
            },
            {
              "name": "lastExecutionBlock",
              "type": "uint256",
              "internalType": "uint256"
            },
            {
              "name": "amountCNS",
              "type": "uint256",
              "internalType": "uint256"
            },
            {
              "name": "maxSlippageBps",
              "type": "uint256",
              "internalType": "uint256"
            }
          ]
        },
        {
          "name": "revertOnFail",
          "type": "bool",
          "internalType": "bool"
        }
      ],
      "outputs": [
        {
          "name": "signatures",
          "type": "tuple[]",
          "internalType": "struct OrderSignature[]",
          "components": [
            {
              "name": "perpId",
              "type": "uint256",
              "internalType": "uint256"
            },
            {
              "name": "orderId",
              "type": "uint256",
              "internalType": "uint256"
            }
          ]
        }
      ],
      "stateMutability": "nonpayable"
    },
    {
      "type": "function",
      "name": "execPerpOps",
      "inputs": [
        {
          "name": "operations",
          "type": "tuple[]",
          "internalType": "struct OpDesc[]",
          "components": [
            {
              "name": "opDescId",
              "type": "uint256",
              "internalType": "uint256"
            },
            {
              "name": "perpId",
              "type": "uint256",
              "internalType": "uint256"
            },
            {
              "name": "opType",
              "type": "uint8",
              "internalType": "enum OpDescEnum"
            },
            {
              "name": "pricePNS",
              "type": "uint32",
              "internalType": "uint32"
            },
            {
              "name": "fundingRatePct100k",
              "type": "int256",
              "internalType": "int256"
            },
            {
              "name": "allowOverwrite",
              "type": "bool",
              "internalType": "bool"
            },
            {
              "name": "unverifiedReport",
              "type": "bytes",
              "internalType": "bytes"
            }
          ]
        }
      ],
      "outputs": [],
      "stateMutability": "nonpayable"
    },
    {
      "type": "function",
      "name": "forceClose",
      "inputs": [
        {
          "name": "perpId",
          "type": "uint256",
          "internalType": "uint256"
        },
        {
          "name": "posAccountId",
          "type": "uint256",
          "internalType": "uint256"
        },
        {
          "name": "sortedPositionIds",
          "type": "uint256[]",
          "internalType": "uint256[]"
        },
        {
          "name": "revertOnFail",
          "type": "bool",
          "internalType": "bool"
        }
      ],
      "outputs": [
        {
          "name": "success",
          "type": "bool",
          "internalType": "bool"
        }
      ],
      "stateMutability": "nonpayable"
    },
    {
      "type": "function",
      "name": "forceResetWithdrawRateLimit",
      "inputs": [],
      "outputs": [],
      "stateMutability": "nonpayable"
    },
    {
      "type": "function",
      "name": "getAccountByAddr",
      "inputs": [
        {
          "name": "accountAddress",
          "type": "address",
          "internalType": "address"
        }
      ],
      "outputs": [
        {
          "name": "accountInfo",
          "type": "tuple",
          "internalType": "struct AccountInfo",
          "components": [
            {
              "name": "accountId",
              "type": "uint256",
              "internalType": "uint256"
            },
            {
              "name": "balanceCNS",
              "type": "uint256",
              "internalType": "uint256"
            },
            {
              "name": "lockedBalanceCNS",
              "type": "uint256",
              "internalType": "uint256"
            },
            {
              "name": "frozen",
              "type": "uint8",
              "internalType": "enum FreezeStatusEnum"
            },
            {
              "name": "accountAddr",
              "type": "address",
              "internalType": "address"
            },
            {
              "name": "positions",
              "type": "tuple",
              "internalType": "struct PositionBitMap",
              "components": [
                {
                  "name": "bank1",
                  "type": "uint256",
                  "internalType": "uint256"
                },
                {
                  "name": "bank2",
                  "type": "uint256",
                  "internalType": "uint256"
                },
                {
                  "name": "bank3",
                  "type": "uint256",
                  "internalType": "uint256"
                },
                {
                  "name": "bank4",
                  "type": "uint256",
                  "internalType": "uint256"
                }
              ]
            }
          ]
        }
      ],
      "stateMutability": "view"
    },
    {
      "type": "function",
      "name": "getAccountById",
      "inputs": [
        {
          "name": "accountId",
          "type": "uint256",
          "internalType": "uint256"
        }
      ],
      "outputs": [
        {
          "name": "accountInfo",
          "type": "tuple",
          "internalType": "struct AccountInfo",
          "components": [
            {
              "name": "accountId",
              "type": "uint256",
              "internalType": "uint256"
            },
            {
              "name": "balanceCNS",
              "type": "uint256",
              "internalType": "uint256"
            },
            {
              "name": "lockedBalanceCNS",
              "type": "uint256",
              "internalType": "uint256"
            },
            {
              "name": "frozen",
              "type": "uint8",
              "internalType": "enum FreezeStatusEnum"
            },
            {
              "name": "accountAddr",
              "type": "address",
              "internalType": "address"
            },
            {
              "name": "positions",
              "type": "tuple",
              "internalType": "struct PositionBitMap",
              "components": [
                {
                  "name": "bank1",
                  "type": "uint256",
                  "internalType": "uint256"
                },
                {
                  "name": "bank2",
                  "type": "uint256",
                  "internalType": "uint256"
                },
                {
                  "name": "bank3",
                  "type": "uint256",
                  "internalType": "uint256"
                },
                {
                  "name": "bank4",
                  "type": "uint256",
                  "internalType": "uint256"
                }
              ]
            }
          ]
        }
      ],
      "stateMutability": "view"
    },
    {
      "type": "function",
      "name": "getExchangeInfo",
      "inputs": [],
      "outputs": [
        {
          "name": "balanceCNS",
          "type": "uint256",
          "internalType": "uint256"
        },
        {
          "name": "protocolBalanceCNS",
          "type": "uint256",
          "internalType": "uint256"
        },
        {
          "name": "recycleBalanceCNS",
          "type": "uint256",
          "internalType": "uint256"
        },
        {
          "name": "collateralDecimals",
          "type": "uint256",
          "internalType": "uint256"
        },
        {
          "name": "collateralToken",
          "type": "address",
          "internalType": "address"
        },
        {
          "name": "verifierProxy",
          "type": "address",
          "internalType": "address"
        }
      ],
      "stateMutability": "view"
    },
    {
      "type": "function",
      "name": "getFundingInterval",
      "inputs": [],
      "outputs": [
        {
          "name": "fundingInterval",
          "type": "uint256",
          "internalType": "uint256"
        }
      ],
      "stateMutability": "pure"
    },
    {
      "type": "function",
      "name": "getFundingSumAtBlock",
      "inputs": [
        {
          "name": "perpId",
          "type": "uint256",
          "internalType": "uint256"
        },
        {
          "name": "blockNumber",
          "type": "uint256",
          "internalType": "uint256"
        }
      ],
      "outputs": [
        {
          "name": "fundingSumPNS",
          "type": "int48",
          "internalType": "int48"
        },
        {
          "name": "fundingEventBlock",
          "type": "uint256",
          "internalType": "uint256"
        }
      ],
      "stateMutability": "view"
    },
    {
      "type": "function",
      "name": "getLiquidationInfo",
      "inputs": [
        {
          "name": "perpId",
          "type": "uint256",
          "internalType": "uint256"
        }
      ],
      "outputs": [
        {
          "name": "liquidationInfo",
          "type": "tuple",
          "internalType": "struct LiquidationInfo",
          "components": [
            {
              "name": "liqInsAmtPer100K",
              "type": "uint256",
              "internalType": "uint256"
            },
            {
              "name": "liqUserAmtPer100K",
              "type": "uint256",
              "internalType": "uint256"
            },
            {
              "name": "liqProtocolAmtPer100K",
              "type": "uint256",
              "internalType": "uint256"
            },
            {
              "name": "btlPriceThreshPer100K",
              "type": "uint256",
              "internalType": "uint256"
            },
            {
              "name": "btlInsAmtPer100K",
              "type": "uint256",
              "internalType": "uint256"
            },
            {
              "name": "btlUserAmtPer100K",
              "type": "uint256",
              "internalType": "uint256"
            },
            {
              "name": "btlBuyerAmtPer100K",
              "type": "uint256",
              "internalType": "uint256"
            },
            {
              "name": "btlProtocolAmtPer100K",
              "type": "uint256",
              "internalType": "uint256"
            },
            {
              "name": "btlRestrictBuyers",
              "type": "bool",
              "internalType": "bool"
            }
          ]
        }
      ],
      "stateMutability": "view"
    },
    {
      "type": "function",
      "name": "getMakerFee",
      "inputs": [
        {
          "name": "perpId",
          "type": "uint256",
          "internalType": "uint256"
        }
      ],
      "outputs": [
        {
          "name": "",
          "type": "uint256",
          "internalType": "uint256"
        }
      ],
      "stateMutability": "view"
    },
    {
      "type": "function",
      "name": "getMarginFractions",
      "inputs": [
        {
          "name": "perpId",
          "type": "uint256",
          "internalType": "uint256"
        },
        {
          "name": "lotLNS",
          "type": "uint256",
          "internalType": "uint256"
        }
      ],
      "outputs": [
        {
          "name": "perpInitMarginFracHdths",
          "type": "uint256",
          "internalType": "uint256"
        },
        {
          "name": "perpMaintMarginFracHdths",
          "type": "uint256",
          "internalType": "uint256"
        },
        {
          "name": "dynamicInitMarginFracHdths",
          "type": "uint256",
          "internalType": "uint256"
        },
        {
          "name": "oiMaxLNS",
          "type": "uint256",
          "internalType": "uint256"
        },
        {
          "name": "unityDescentThreshHdths",
          "type": "uint256",
          "internalType": "uint256"
        },
        {
          "name": "overColDescentThreshHdths",
          "type": "uint256",
          "internalType": "uint256"
        }
      ],
      "stateMutability": "view"
    },
    {
      "type": "function",
      "name": "getMinAccountOpenCNS",
      "inputs": [],
      "outputs": [
        {
          "name": "minAccountOpenCNS",
          "type": "uint256",
          "internalType": "uint256"
        }
      ],
      "stateMutability": "view"
    },
    {
      "type": "function",
      "name": "getMinimumPostCNS",
      "inputs": [],
      "outputs": [
        {
          "name": "minimumPostCNS",
          "type": "uint256",
          "internalType": "uint256"
        }
      ],
      "stateMutability": "view"
    },
    {
      "type": "function",
      "name": "getMinimumSettleCNS",
      "inputs": [],
      "outputs": [
        {
          "name": "minimumSettleCNS",
          "type": "uint256",
          "internalType": "uint256"
        }
      ],
      "stateMutability": "view"
    },
    {
      "type": "function",
      "name": "getNextPriceAboveWithOrders",
      "inputs": [
        {
          "name": "perpId",
          "type": "uint256",
          "internalType": "uint256"
        },
        {
          "name": "priceONS",
          "type": "uint256",
          "internalType": "uint256"
        }
      ],
      "outputs": [
        {
          "name": "priceAboveONS",
          "type": "uint256",
          "internalType": "uint256"
        }
      ],
      "stateMutability": "view"
    },
    {
      "type": "function",
      "name": "getNextPriceBelowWithOrders",
      "inputs": [
        {
          "name": "perpId",
          "type": "uint256",
          "internalType": "uint256"
        },
        {
          "name": "priceONS",
          "type": "uint256",
          "internalType": "uint256"
        }
      ],
      "outputs": [
        {
          "name": "priceBelowONS",
          "type": "uint256",
          "internalType": "uint256"
        }
      ],
      "stateMutability": "view"
    },
    {
      "type": "function",
      "name": "getOrder",
      "inputs": [
        {
          "name": "perpId",
          "type": "uint256",
          "internalType": "uint256"
        },
        {
          "name": "orderId",
          "type": "uint256",
          "internalType": "uint256"
        }
      ],
      "outputs": [
        {
          "name": "order",
          "type": "tuple",
          "internalType": "struct Order",
          "components": [
            {
              "name": "accountId",
              "type": "uint32",
              "internalType": "uint32"
            },
            {
              "name": "orderType",
              "type": "uint8",
              "internalType": "enum OrderEnum"
            },
            {
              "name": "priceONS",
              "type": "uint24",
              "internalType": "uint24"
            },
            {
              "name": "lotLNS",
              "type": "uint40",
              "internalType": "uint40"
            },
            {
              "name": "recycleFeeRaw",
              "type": "uint16",
              "internalType": "uint16"
            },
            {
              "name": "expiryBlock",
              "type": "uint32",
              "internalType": "uint32"
            },
            {
              "name": "leverageHdths",
              "type": "uint16",
              "internalType": "uint16"
            },
            {
              "name": "orderId",
              "type": "uint16",
              "internalType": "uint16"
            },
            {
              "name": "prevOrderId",
              "type": "uint16",
              "internalType": "uint16"
            },
            {
              "name": "nextOrderId",
              "type": "uint16",
              "internalType": "uint16"
            },
            {
              "name": "maxSlippageBps",
              "type": "uint16",
              "internalType": "uint16"
            }
          ]
        }
      ],
      "stateMutability": "view"
    },
    {
      "type": "function",
      "name": "getOrderIdIndex",
      "inputs": [
        {
          "name": "perpId",
          "type": "uint256",
          "internalType": "uint256"
        }
      ],
      "outputs": [
        {
          "name": "root",
          "type": "uint256",
          "internalType": "uint256"
        },
        {
          "name": "leaves",
          "type": "uint256[]",
          "internalType": "uint256[]"
        },
        {
          "name": "numOrders",
          "type": "uint256",
          "internalType": "uint256"
        }
      ],
      "stateMutability": "view"
    },
    {
      "type": "function",
      "name": "getOrderLocks",
      "inputs": [
        {
          "name": "accountId",
          "type": "uint256",
          "internalType": "uint256"
        }
      ],
      "outputs": [
        {
          "name": "orderLocks",
          "type": "tuple[]",
          "internalType": "struct OrderLock[]",
          "components": [
            {
              "name": "orderLockId",
              "type": "uint32",
              "internalType": "uint32"
            },
            {
              "name": "nextOrderLockId",
              "type": "uint32",
              "internalType": "uint32"
            },
            {
              "name": "prevOrderLockId",
              "type": "uint32",
              "internalType": "uint32"
            },
            {
              "name": "orderType",
              "type": "uint8",
              "internalType": "enum OrderEnum"
            },
            {
              "name": "lotLNS",
              "type": "uint40",
              "internalType": "uint40"
            },
            {
              "name": "amountCNS",
              "type": "uint80",
              "internalType": "uint80"
            }
          ]
        }
      ],
      "stateMutability": "view"
    },
    {
      "type": "function",
      "name": "getOrdersAtPriceLevel",
      "inputs": [
        {
          "name": "perpId",
          "type": "uint256",
          "internalType": "uint256"
        },
        {
          "name": "priceONS",
          "type": "uint256",
          "internalType": "uint256"
        },
        {
          "name": "pageStartOrderId",
          "type": "uint256",
          "internalType": "uint256"
        },
        {
          "name": "ordersPerPage",
          "type": "uint256",
          "internalType": "uint256"
        }
      ],
      "outputs": [
        {
          "name": "ordersAtPriceLevel",
          "type": "tuple[]",
          "internalType": "struct Order[]",
          "components": [
            {
              "name": "accountId",
              "type": "uint32",
              "internalType": "uint32"
            },
            {
              "name": "orderType",
              "type": "uint8",
              "internalType": "enum OrderEnum"
            },
            {
              "name": "priceONS",
              "type": "uint24",
              "internalType": "uint24"
            },
            {
              "name": "lotLNS",
              "type": "uint40",
              "internalType": "uint40"
            },
            {
              "name": "recycleFeeRaw",
              "type": "uint16",
              "internalType": "uint16"
            },
            {
              "name": "expiryBlock",
              "type": "uint32",
              "internalType": "uint32"
            },
            {
              "name": "leverageHdths",
              "type": "uint16",
              "internalType": "uint16"
            },
            {
              "name": "orderId",
              "type": "uint16",
              "internalType": "uint16"
            },
            {
              "name": "prevOrderId",
              "type": "uint16",
              "internalType": "uint16"
            },
            {
              "name": "nextOrderId",
              "type": "uint16",
              "internalType": "uint16"
            },
            {
              "name": "maxSlippageBps",
              "type": "uint16",
              "internalType": "uint16"
            }
          ]
        },
        {
          "name": "numOrders",
          "type": "uint256",
          "internalType": "uint256"
        }
      ],
      "stateMutability": "view"
    },
    {
      "type": "function",
      "name": "getOwner",
      "inputs": [],
      "outputs": [
        {
          "name": "",
          "type": "address",
          "internalType": "address"
        }
      ],
      "stateMutability": "view"
    },
    {
      "type": "function",
      "name": "getPermissionedCancelParams",
      "inputs": [
        {
          "name": "perpId",
          "type": "uint256",
          "internalType": "uint256"
        }
      ],
      "outputs": [
        {
          "name": "permCancelMinOrders",
          "type": "uint256",
          "internalType": "uint256"
        },
        {
          "name": "permCancelSegment",
          "type": "uint256",
          "internalType": "uint256"
        }
      ],
      "stateMutability": "view"
    },
    {
      "type": "function",
      "name": "getPerpOrderLocks",
      "inputs": [
        {
          "name": "accountId",
          "type": "uint256",
          "internalType": "uint256"
        },
        {
          "name": "perpId",
          "type": "uint256",
          "internalType": "uint256"
        }
      ],
      "outputs": [
        {
          "name": "perpOrderLocks",
          "type": "tuple[]",
          "internalType": "struct OrderLock[]",
          "components": [
            {
              "name": "orderLockId",
              "type": "uint32",
              "internalType": "uint32"
            },
            {
              "name": "nextOrderLockId",
              "type": "uint32",
              "internalType": "uint32"
            },
            {
              "name": "prevOrderLockId",
              "type": "uint32",
              "internalType": "uint32"
            },
            {
              "name": "orderType",
              "type": "uint8",
              "internalType": "enum OrderEnum"
            },
            {
              "name": "lotLNS",
              "type": "uint40",
              "internalType": "uint40"
            },
            {
              "name": "amountCNS",
              "type": "uint80",
              "internalType": "uint80"
            }
          ]
        }
      ],
      "stateMutability": "view"
    },
    {
      "type": "function",
      "name": "getPerpetualInfo",
      "inputs": [
        {
          "name": "perpId",
          "type": "uint256",
          "internalType": "uint256"
        }
      ],
      "outputs": [
        {
          "name": "perpetualInfo",
          "type": "tuple",
          "internalType": "struct PerpetualInfo",
          "components": [
            {
              "name": "name",
              "type": "string",
              "internalType": "string"
            },
            {
              "name": "symbol",
              "type": "string",
              "internalType": "string"
            },
            {
              "name": "priceDecimals",
              "type": "uint256",
              "internalType": "uint256"
            },
            {
              "name": "lotDecimals",
              "type": "uint256",
              "internalType": "uint256"
            },
            {
              "name": "linkFeedId",
              "type": "bytes32",
              "internalType": "bytes32"
            },
            {
              "name": "priceTolPer100K",
              "type": "uint256",
              "internalType": "uint256"
            },
            {
              "name": "marginTol",
              "type": "uint256",
              "internalType": "uint256"
            },
            {
              "name": "marginTolDecimals",
              "type": "uint256",
              "internalType": "uint256"
            },
            {
              "name": "refPriceMaxAgeSec",
              "type": "uint256",
              "internalType": "uint256"
            },
            {
              "name": "positionBalanceCNS",
              "type": "uint256",
              "internalType": "uint256"
            },
            {
              "name": "insuranceBalanceCNS",
              "type": "uint256",
              "internalType": "uint256"
            },
            {
              "name": "markPNS",
              "type": "uint256",
              "internalType": "uint256"
            },
            {
              "name": "markTimestamp",
              "type": "uint256",
              "internalType": "uint256"
            },
            {
              "name": "lastPNS",
              "type": "uint256",
              "internalType": "uint256"
            },
            {
              "name": "lastTimestamp",
              "type": "uint256",
              "internalType": "uint256"
            },
            {
              "name": "oraclePNS",
              "type": "uint256",
              "internalType": "uint256"
            },
            {
              "name": "oracleTimestampSec",
              "type": "uint256",
              "internalType": "uint256"
            },
            {
              "name": "longOpenInterestLNS",
              "type": "uint256",
              "internalType": "uint256"
            },
            {
              "name": "shortOpenInterestLNS",
              "type": "uint256",
              "internalType": "uint256"
            },
            {
              "name": "fundingStartBlock",
              "type": "uint256",
              "internalType": "uint256"
            },
            {
              "name": "fundingRatePct100k",
              "type": "int16",
              "internalType": "int16"
            },
            {
              "name": "absFundingClampPctPer100K",
              "type": "uint256",
              "internalType": "uint256"
            },
            {
              "name": "status",
              "type": "uint8",
              "internalType": "enum PerpStatusEnum"
            },
            {
              "name": "basePricePNS",
              "type": "uint256",
              "internalType": "uint256"
            },
            {
              "name": "maxBidPriceONS",
              "type": "uint256",
              "internalType": "uint256"
            },
            {
              "name": "minBidPriceONS",
              "type": "uint256",
              "internalType": "uint256"
            },
            {
              "name": "maxAskPriceONS",
              "type": "uint256",
              "internalType": "uint256"
            },
            {
              "name": "minAskPriceONS",
              "type": "uint256",
              "internalType": "uint256"
            },
            {
              "name": "numOrders",
              "type": "uint256",
              "internalType": "uint256"
            },
            {
              "name": "ignOracle",
              "type": "bool",
              "internalType": "bool"
            }
          ]
        }
      ],
      "stateMutability": "view"
    },
    {
      "type": "function",
      "name": "getPosition",
      "inputs": [
        {
          "name": "perpId",
          "type": "uint256",
          "internalType": "uint256"
        },
        {
          "name": "accountId",
          "type": "uint256",
          "internalType": "uint256"
        }
      ],
      "outputs": [
        {
          "name": "positionInfo",
          "type": "tuple",
          "internalType": "struct PositionInfo",
          "components": [
            {
              "name": "accountId",
              "type": "uint256",
              "internalType": "uint256"
            },
            {
              "name": "nextNodeId",
              "type": "uint256",
              "internalType": "uint256"
            },
            {
              "name": "prevNodeId",
              "type": "uint256",
              "internalType": "uint256"
            },
            {
              "name": "positionType",
              "type": "uint8",
              "internalType": "enum PositionEnum"
            },
            {
              "name": "depositCNS",
              "type": "uint256",
              "internalType": "uint256"
            },
            {
              "name": "pricePNS",
              "type": "uint256",
              "internalType": "uint256"
            },
            {
              "name": "lotLNS",
              "type": "uint256",
              "internalType": "uint256"
            },
            {
              "name": "entryBlock",
              "type": "uint256",
              "internalType": "uint256"
            },
            {
              "name": "pnlCNS",
              "type": "int256",
              "internalType": "int256"
            },
            {
              "name": "deltaPnlCNS",
              "type": "int256",
              "internalType": "int256"
            },
            {
              "name": "premiumPnlCNS",
              "type": "int256",
              "internalType": "int256"
            }
          ]
        },
        {
          "name": "markPricePNS",
          "type": "uint256",
          "internalType": "uint256"
        },
        {
          "name": "markPriceValid",
          "type": "bool",
          "internalType": "bool"
        }
      ],
      "stateMutability": "view"
    },
    {
      "type": "function",
      "name": "getPositionIds",
      "inputs": [
        {
          "name": "perpId",
          "type": "uint256",
          "internalType": "uint256"
        }
      ],
      "outputs": [
        {
          "name": "startNodeId",
          "type": "uint256",
          "internalType": "uint256"
        },
        {
          "name": "endNodeId",
          "type": "uint256",
          "internalType": "uint256"
        }
      ],
      "stateMutability": "view"
    },
    {
      "type": "function",
      "name": "getPositions",
      "inputs": [
        {
          "name": "perpId",
          "type": "uint256",
          "internalType": "uint256"
        },
        {
          "name": "pageStartPositionId",
          "type": "uint256",
          "internalType": "uint256"
        },
        {
          "name": "positionsPerPage",
          "type": "uint256",
          "internalType": "uint256"
        }
      ],
      "outputs": [
        {
          "name": "positions",
          "type": "tuple[]",
          "internalType": "struct PositionInfo[]",
          "components": [
            {
              "name": "accountId",
              "type": "uint256",
              "internalType": "uint256"
            },
            {
              "name": "nextNodeId",
              "type": "uint256",
              "internalType": "uint256"
            },
            {
              "name": "prevNodeId",
              "type": "uint256",
              "internalType": "uint256"
            },
            {
              "name": "positionType",
              "type": "uint8",
              "internalType": "enum PositionEnum"
            },
            {
              "name": "depositCNS",
              "type": "uint256",
              "internalType": "uint256"
            },
            {
              "name": "pricePNS",
              "type": "uint256",
              "internalType": "uint256"
            },
            {
              "name": "lotLNS",
              "type": "uint256",
              "internalType": "uint256"
            },
            {
              "name": "entryBlock",
              "type": "uint256",
              "internalType": "uint256"
            },
            {
              "name": "pnlCNS",
              "type": "int256",
              "internalType": "int256"
            },
            {
              "name": "deltaPnlCNS",
              "type": "int256",
              "internalType": "int256"
            },
            {
              "name": "premiumPnlCNS",
              "type": "int256",
              "internalType": "int256"
            }
          ]
        },
        {
          "name": "numPositions",
          "type": "uint256",
          "internalType": "uint256"
        },
        {
          "name": "markPricePNS",
          "type": "uint256",
          "internalType": "uint256"
        },
        {
          "name": "markPriceValid",
          "type": "bool",
          "internalType": "bool"
        }
      ],
      "stateMutability": "view"
    },
    {
      "type": "function",
      "name": "getPriceLevelOrderIds",
      "inputs": [
        {
          "name": "perpId",
          "type": "uint256",
          "internalType": "uint256"
        },
        {
          "name": "priceONS",
          "type": "uint256",
          "internalType": "uint256"
        }
      ],
      "outputs": [
        {
          "name": "startOrderId",
          "type": "uint256",
          "internalType": "uint256"
        },
        {
          "name": "endOrderId",
          "type": "uint256",
          "internalType": "uint256"
        }
      ],
      "stateMutability": "view"
    },
    {
      "type": "function",
      "name": "getProtocolBalanceCNS",
      "inputs": [],
      "outputs": [
        {
          "name": "protocolBalanceCNS",
          "type": "uint256",
          "internalType": "uint256"
        }
      ],
      "stateMutability": "view"
    },
    {
      "type": "function",
      "name": "getRecycleBalanceCNS",
      "inputs": [],
      "outputs": [
        {
          "name": "recycleBalanceCNS",
          "type": "uint256",
          "internalType": "uint256"
        }
      ],
      "stateMutability": "view"
    },
    {
      "type": "function",
      "name": "getRecycleFeeCNS",
      "inputs": [],
      "outputs": [
        {
          "name": "recycleFeeCNS",
          "type": "uint256",
          "internalType": "uint256"
        }
      ],
      "stateMutability": "view"
    },
    {
      "type": "function",
      "name": "getTakerFee",
      "inputs": [
        {
          "name": "perpId",
          "type": "uint256",
          "internalType": "uint256"
        }
      ],
      "outputs": [
        {
          "name": "",
          "type": "uint256",
          "internalType": "uint256"
        }
      ],
      "stateMutability": "view"
    },
    {
      "type": "function",
      "name": "getUnwindInfo",
      "inputs": [
        {
          "name": "perpId",
          "type": "uint256",
          "internalType": "uint256"
        }
      ],
      "outputs": [
        {
          "name": "status",
          "type": "uint8",
          "internalType": "enum PerpStatusEnum"
        },
        {
          "name": "unwindSumPositiveFmvCNS",
          "type": "uint256",
          "internalType": "uint256"
        },
        {
          "name": "unwindInitPosBalCNS",
          "type": "uint256",
          "internalType": "uint256"
        }
      ],
      "stateMutability": "view"
    },
    {
      "type": "function",
      "name": "getVolumeAtBookPrice",
      "inputs": [
        {
          "name": "perpId",
          "type": "uint256",
          "internalType": "uint256"
        },
        {
          "name": "priceONS",
          "type": "uint256",
          "internalType": "uint256"
        }
      ],
      "outputs": [
        {
          "name": "bids",
          "type": "uint256",
          "internalType": "uint256"
        },
        {
          "name": "expBids",
          "type": "uint256",
          "internalType": "uint256"
        },
        {
          "name": "asks",
          "type": "uint256",
          "internalType": "uint256"
        },
        {
          "name": "expAsks",
          "type": "uint256",
          "internalType": "uint256"
        }
      ],
      "stateMutability": "view"
    },
    {
      "type": "function",
      "name": "getWithdrawAllowanceData",
      "inputs": [
        {
          "name": "blockNumber",
          "type": "uint256",
          "internalType": "uint256"
        }
      ],
      "outputs": [
        {
          "name": "allowanceCNS",
          "type": "uint256",
          "internalType": "uint256"
        },
        {
          "name": "expiryBlock",
          "type": "uint256",
          "internalType": "uint256"
        },
        {
          "name": "lastAllowanceBlock",
          "type": "uint256",
          "internalType": "uint256"
        },
        {
          "name": "cnsPerBlock",
          "type": "uint256",
          "internalType": "uint256"
        }
      ],
      "stateMutability": "view"
    },
    {
      "type": "function",
      "name": "increasePositionCollateral",
      "inputs": [
        {
          "name": "perpId",
          "type": "uint256",
          "internalType": "uint256"
        },
        {
          "name": "amountCNS",
          "type": "uint256",
          "internalType": "uint256"
        }
      ],
      "outputs": [],
      "stateMutability": "nonpayable"
    },
    {
      "type": "function",
      "name": "initUnwindContract",
      "inputs": [
        {
          "name": "perpId",
          "type": "uint256",
          "internalType": "uint256"
        },
        {
          "name": "sumPositiveFmvCNS",
          "type": "uint256",
          "internalType": "uint256"
        }
      ],
      "outputs": [],
      "stateMutability": "nonpayable"
    },
    {
      "type": "function",
      "name": "initialize",
      "inputs": [
        {
          "name": "collateralToken",
          "type": "address",
          "internalType": "address"
        }
      ],
      "outputs": [],
      "stateMutability": "nonpayable"
    },
    {
      "type": "function",
      "name": "isAdministrator",
      "inputs": [
        {
          "name": "anAddress",
          "type": "address",
          "internalType": "address"
        }
      ],
      "outputs": [
        {
          "name": "",
          "type": "bool",
          "internalType": "bool"
        }
      ],
      "stateMutability": "view"
    },
    {
      "type": "function",
      "name": "isHalted",
      "inputs": [],
      "outputs": [
        {
          "name": "halted",
          "type": "bool",
          "internalType": "bool"
        }
      ],
      "stateMutability": "view"
    },
    {
      "type": "function",
      "name": "isLiquidationBuyer",
      "inputs": [
        {
          "name": "anAddress",
          "type": "address",
          "internalType": "address"
        }
      ],
      "outputs": [
        {
          "name": "",
          "type": "bool",
          "internalType": "bool"
        }
      ],
      "stateMutability": "view"
    },
    {
      "type": "function",
      "name": "isPositionAdministrator",
      "inputs": [
        {
          "name": "anAddress",
          "type": "address",
          "internalType": "address"
        }
      ],
      "outputs": [
        {
          "name": "",
          "type": "bool",
          "internalType": "bool"
        }
      ],
      "stateMutability": "view"
    },
    {
      "type": "function",
      "name": "isPriceAdministrator",
      "inputs": [
        {
          "name": "anAddress",
          "type": "address",
          "internalType": "address"
        }
      ],
      "outputs": [
        {
          "name": "",
          "type": "bool",
          "internalType": "bool"
        }
      ],
      "stateMutability": "view"
    },
    {
      "type": "function",
      "name": "isToleranceAdministrator",
      "inputs": [
        {
          "name": "anAddress",
          "type": "address",
          "internalType": "address"
        }
      ],
      "outputs": [
        {
          "name": "",
          "type": "bool",
          "internalType": "bool"
        }
      ],
      "stateMutability": "view"
    },
    {
      "type": "function",
      "name": "liquidation",
      "inputs": [
        {
          "name": "liquidationDesc",
          "type": "tuple",
          "internalType": "struct LiquidationDesc",
          "components": [
            {
              "name": "perpId",
              "type": "uint256",
              "internalType": "uint256"
            },
            {
              "name": "posAccountId",
              "type": "uint256",
              "internalType": "uint256"
            },
            {
              "name": "lotLNS",
              "type": "uint256",
              "internalType": "uint256"
            },
            {
              "name": "userProceedsToPosition",
              "type": "bool",
              "internalType": "bool"
            }
          ]
        }
      ],
      "outputs": [],
      "stateMutability": "nonpayable"
    },
    {
      "type": "function",
      "name": "liquidations",
      "inputs": [
        {
          "name": "liquidationDescs",
          "type": "tuple[]",
          "internalType": "struct LiquidationDesc[]",
          "components": [
            {
              "name": "perpId",
              "type": "uint256",
              "internalType": "uint256"
            },
            {
              "name": "posAccountId",
              "type": "uint256",
              "internalType": "uint256"
            },
            {
              "name": "lotLNS",
              "type": "uint256",
              "internalType": "uint256"
            },
            {
              "name": "userProceedsToPosition",
              "type": "bool",
              "internalType": "bool"
            }
          ]
        },
        {
          "name": "revertOnFail",
          "type": "bool",
          "internalType": "bool"
        }
      ],
      "outputs": [],
      "stateMutability": "nonpayable"
    },
    {
      "type": "function",
      "name": "numberOfAccounts",
      "inputs": [],
      "outputs": [
        {
          "name": "numAccounts",
          "type": "uint256",
          "internalType": "uint256"
        }
      ],
      "stateMutability": "view"
    },
    {
      "type": "function",
      "name": "owner",
      "inputs": [],
      "outputs": [
        {
          "name": "",
          "type": "address",
          "internalType": "address"
        }
      ],
      "stateMutability": "view"
    },
    {
      "type": "function",
      "name": "pauseContract",
      "inputs": [
        {
          "name": "perpId",
          "type": "uint256",
          "internalType": "uint256"
        }
      ],
      "outputs": [],
      "stateMutability": "nonpayable"
    },
    {
      "type": "function",
      "name": "pendingOwner",
      "inputs": [],
      "outputs": [
        {
          "name": "",
          "type": "address",
          "internalType": "address"
        }
      ],
      "stateMutability": "view"
    },
    {
      "type": "function",
      "name": "prepareUnwindContract",
      "inputs": [
        {
          "name": "perpId",
          "type": "uint256",
          "internalType": "uint256"
        }
      ],
      "outputs": [],
      "stateMutability": "nonpayable"
    },
    {
      "type": "function",
      "name": "proxiableUUID",
      "inputs": [],
      "outputs": [
        {
          "name": "",
          "type": "bytes32",
          "internalType": "bytes32"
        }
      ],
      "stateMutability": "view"
    },
    {
      "type": "function",
      "name": "removeContract",
      "inputs": [
        {
          "name": "perpId",
          "type": "uint256",
          "internalType": "uint256"
        }
      ],
      "outputs": [],
      "stateMutability": "nonpayable"
    },
    {
      "type": "function",
      "name": "renounceOwnership",
      "inputs": [],
      "outputs": [],
      "stateMutability": "nonpayable"
    },
    {
      "type": "function",
      "name": "requestDecreasePositionCollateral",
      "inputs": [
        {
          "name": "perpId",
          "type": "uint256",
          "internalType": "uint256"
        },
        {
          "name": "amountCNS",
          "type": "uint256",
          "internalType": "uint256"
        },
        {
          "name": "clampToMaximum",
          "type": "bool",
          "internalType": "bool"
        }
      ],
      "outputs": [],
      "stateMutability": "nonpayable"
    },
    {
      "type": "function",
      "name": "setAddressBlockStatus",
      "inputs": [
        {
          "name": "addresses",
          "type": "address[]",
          "internalType": "address[]"
        },
        {
          "name": "blocked",
          "type": "bool",
          "internalType": "bool"
        }
      ],
      "outputs": [],
      "stateMutability": "nonpayable"
    },
    {
      "type": "function",
      "name": "setAddressWhitelisted",
      "inputs": [
        {
          "name": "addresses",
          "type": "address[]",
          "internalType": "address[]"
        },
        {
          "name": "whitelisted_",
          "type": "bool",
          "internalType": "bool"
        }
      ],
      "outputs": [],
      "stateMutability": "nonpayable"
    },
    {
      "type": "function",
      "name": "setAdministrator",
      "inputs": [
        {
          "name": "administrator",
          "type": "address",
          "internalType": "address"
        },
        {
          "name": "add",
          "type": "bool",
          "internalType": "bool"
        }
      ],
      "outputs": [],
      "stateMutability": "nonpayable"
    },
    {
      "type": "function",
      "name": "setBuyToLiquidateBuyerRestriction",
      "inputs": [
        {
          "name": "perpId",
          "type": "uint256",
          "internalType": "uint256"
        },
        {
          "name": "restrictBuyers",
          "type": "bool",
          "internalType": "bool"
        }
      ],
      "outputs": [],
      "stateMutability": "nonpayable"
    },
    {
      "type": "function",
      "name": "setBuyToLiquidateParams",
      "inputs": [
        {
          "name": "perpId",
          "type": "uint256",
          "internalType": "uint256"
        },
        {
          "name": "insAmtPer100K",
          "type": "uint256",
          "internalType": "uint256"
        },
        {
          "name": "userAmtPer100K",
          "type": "uint256",
          "internalType": "uint256"
        },
        {
          "name": "buyerAmtPer100K",
          "type": "uint256",
          "internalType": "uint256"
        }
      ],
      "outputs": [],
      "stateMutability": "nonpayable"
    },
    {
      "type": "function",
      "name": "setBuyToLiquidatePriceThreshold",
      "inputs": [
        {
          "name": "perpId",
          "type": "uint256",
          "internalType": "uint256"
        },
        {
          "name": "thresholdPer100K",
          "type": "uint256",
          "internalType": "uint256"
        }
      ],
      "outputs": [],
      "stateMutability": "nonpayable"
    },
    {
      "type": "function",
      "name": "setContractPaused",
      "inputs": [
        {
          "name": "perpId",
          "type": "uint256",
          "internalType": "uint256"
        },
        {
          "name": "paused",
          "type": "bool",
          "internalType": "bool"
        }
      ],
      "outputs": [],
      "stateMutability": "nonpayable"
    },
    {
      "type": "function",
      "name": "setDcpBorrowThreshold",
      "inputs": [
        {
          "name": "perpId",
          "type": "uint256",
          "internalType": "uint256"
        },
        {
          "name": "threshHdths",
          "type": "uint256",
          "internalType": "uint256"
        }
      ],
      "outputs": [],
      "stateMutability": "nonpayable"
    },
    {
      "type": "function",
      "name": "setExchangeHalted",
      "inputs": [
        {
          "name": "halted",
          "type": "bool",
          "internalType": "bool"
        }
      ],
      "outputs": [],
      "stateMutability": "nonpayable"
    },
    {
      "type": "function",
      "name": "setFeeParams",
      "inputs": [
        {
          "name": "perpId",
          "type": "uint256",
          "internalType": "uint256"
        },
        {
          "name": "insAmtPer100K",
          "type": "uint256",
          "internalType": "uint256"
        }
      ],
      "outputs": [],
      "stateMutability": "nonpayable"
    },
    {
      "type": "function",
      "name": "setFreezeStatus",
      "inputs": [
        {
          "name": "account",
          "type": "address",
          "internalType": "address"
        },
        {
          "name": "status",
          "type": "uint8",
          "internalType": "enum FreezeStatusEnum"
        }
      ],
      "outputs": [],
      "stateMutability": "nonpayable"
    },
    {
      "type": "function",
      "name": "setFrozen",
      "inputs": [
        {
          "name": "account",
          "type": "address",
          "internalType": "address"
        },
        {
          "name": "status",
          "type": "uint8",
          "internalType": "enum FreezeStatusEnum"
        }
      ],
      "outputs": [],
      "stateMutability": "nonpayable"
    },
    {
      "type": "function",
      "name": "setFundingClampPct",
      "inputs": [
        {
          "name": "perpId",
          "type": "uint256",
          "internalType": "uint256"
        },
        {
          "name": "absFundingClampPctPer100K",
          "type": "uint256",
          "internalType": "uint256"
        }
      ],
      "outputs": [],
      "stateMutability": "nonpayable"
    },
    {
      "type": "function",
      "name": "setFundingSum",
      "inputs": [
        {
          "name": "perpId",
          "type": "uint256",
          "internalType": "uint256"
        },
        {
          "name": "fundingRatePct100k",
          "type": "int256",
          "internalType": "int256"
        },
        {
          "name": "pricePNS",
          "type": "uint32",
          "internalType": "uint32"
        },
        {
          "name": "allowOverwrite",
          "type": "bool",
          "internalType": "bool"
        },
        {
          "name": "revertOnFail",
          "type": "bool",
          "internalType": "bool"
        }
      ],
      "outputs": [],
      "stateMutability": "nonpayable"
    },
    {
      "type": "function",
      "name": "setIgnOracle",
      "inputs": [
        {
          "name": "perpId",
          "type": "uint256",
          "internalType": "uint256"
        },
        {
          "name": "ignOracle",
          "type": "bool",
          "internalType": "bool"
        }
      ],
      "outputs": [],
      "stateMutability": "nonpayable"
    },
    {
      "type": "function",
      "name": "setInitialMarginFraction",
      "inputs": [
        {
          "name": "perpId",
          "type": "uint256",
          "internalType": "uint256"
        },
        {
          "name": "initMarginFracHdths",
          "type": "uint256",
          "internalType": "uint256"
        }
      ],
      "outputs": [],
      "stateMutability": "nonpayable"
    },
    {
      "type": "function",
      "name": "setLastForwardedDescId",
      "inputs": [
        {
          "name": "accountId",
          "type": "uint256",
          "internalType": "uint256"
        },
        {
          "name": "newDescId",
          "type": "uint256",
          "internalType": "uint256"
        }
      ],
      "outputs": [],
      "stateMutability": "nonpayable"
    },
    {
      "type": "function",
      "name": "setLastForwardedDescIdAsOwner",
      "inputs": [
        {
          "name": "accountId",
          "type": "uint256",
          "internalType": "uint256"
        },
        {
          "name": "newDescId",
          "type": "uint256",
          "internalType": "uint256"
        }
      ],
      "outputs": [],
      "stateMutability": "nonpayable"
    },
    {
      "type": "function",
      "name": "setLastTriggeredDescId",
      "inputs": [
        {
          "name": "accountId",
          "type": "uint256",
          "internalType": "uint256"
        },
        {
          "name": "newDescId",
          "type": "uint256",
          "internalType": "uint256"
        }
      ],
      "outputs": [],
      "stateMutability": "nonpayable"
    },
    {
      "type": "function",
      "name": "setLastTriggeredDescIdAsOwner",
      "inputs": [
        {
          "name": "accountId",
          "type": "uint256",
          "internalType": "uint256"
        },
        {
          "name": "newDescId",
          "type": "uint256",
          "internalType": "uint256"
        }
      ],
      "outputs": [],
      "stateMutability": "nonpayable"
    },
    {
      "type": "function",
      "name": "setLinkDsVerifier",
      "inputs": [
        {
          "name": "verifierProxy",
          "type": "address",
          "internalType": "address"
        }
      ],
      "outputs": [],
      "stateMutability": "nonpayable"
    },
    {
      "type": "function",
      "name": "setLiquidationBuyer",
      "inputs": [
        {
          "name": "liquidationBuyer",
          "type": "address",
          "internalType": "address"
        },
        {
          "name": "add",
          "type": "bool",
          "internalType": "bool"
        }
      ],
      "outputs": [],
      "stateMutability": "nonpayable"
    },
    {
      "type": "function",
      "name": "setLiquidationParams",
      "inputs": [
        {
          "name": "perpId",
          "type": "uint256",
          "internalType": "uint256"
        },
        {
          "name": "insAmtPer100K",
          "type": "uint256",
          "internalType": "uint256"
        },
        {
          "name": "userAmtPer100K",
          "type": "uint256",
          "internalType": "uint256"
        }
      ],
      "outputs": [],
      "stateMutability": "nonpayable"
    },
    {
      "type": "function",
      "name": "setMaintenanceMarginFraction",
      "inputs": [
        {
          "name": "perpId",
          "type": "uint256",
          "internalType": "uint256"
        },
        {
          "name": "maintMarginFracHdths",
          "type": "uint256",
          "internalType": "uint256"
        }
      ],
      "outputs": [],
      "stateMutability": "nonpayable"
    },
    {
      "type": "function",
      "name": "setMakerFee",
      "inputs": [
        {
          "name": "perpId",
          "type": "uint256",
          "internalType": "uint256"
        },
        {
          "name": "makerFeePer100K",
          "type": "uint256",
          "internalType": "uint256"
        }
      ],
      "outputs": [],
      "stateMutability": "nonpayable"
    },
    {
      "type": "function",
      "name": "setMarginTol",
      "inputs": [
        {
          "name": "perpId",
          "type": "uint256",
          "internalType": "uint256"
        },
        {
          "name": "tolerance",
          "type": "uint256",
          "internalType": "uint256"
        },
        {
          "name": "decimals",
          "type": "uint256",
          "internalType": "uint256"
        }
      ],
      "outputs": [],
      "stateMutability": "nonpayable"
    },
    {
      "type": "function",
      "name": "setMaxOpenInterest",
      "inputs": [
        {
          "name": "perpId",
          "type": "uint256",
          "internalType": "uint256"
        },
        {
          "name": "maxOpenInterestLNS",
          "type": "uint256",
          "internalType": "uint256"
        }
      ],
      "outputs": [],
      "stateMutability": "nonpayable"
    },
    {
      "type": "function",
      "name": "setMinAccountOpenAmount",
      "inputs": [
        {
          "name": "amountCNS",
          "type": "uint256",
          "internalType": "uint256"
        }
      ],
      "outputs": [],
      "stateMutability": "nonpayable"
    },
    {
      "type": "function",
      "name": "setMinPost",
      "inputs": [
        {
          "name": "minPostCNS",
          "type": "uint256",
          "internalType": "uint256"
        }
      ],
      "outputs": [],
      "stateMutability": "nonpayable"
    },
    {
      "type": "function",
      "name": "setMinSettle",
      "inputs": [
        {
          "name": "minSettleCNS",
          "type": "uint256",
          "internalType": "uint256"
        }
      ],
      "outputs": [],
      "stateMutability": "nonpayable"
    },
    {
      "type": "function",
      "name": "setMinWithdrawLimit",
      "inputs": [
        {
          "name": "limitCNS",
          "type": "uint256",
          "internalType": "uint256"
        }
      ],
      "outputs": [],
      "stateMutability": "nonpayable"
    },
    {
      "type": "function",
      "name": "setOverCollatDescentThreshold",
      "inputs": [
        {
          "name": "perpId",
          "type": "uint256",
          "internalType": "uint256"
        },
        {
          "name": "threshHdths",
          "type": "uint256",
          "internalType": "uint256"
        }
      ],
      "outputs": [],
      "stateMutability": "nonpayable"
    },
    {
      "type": "function",
      "name": "setPermissionedCancelParams",
      "inputs": [
        {
          "name": "perpId",
          "type": "uint256",
          "internalType": "uint256"
        },
        {
          "name": "permCancelMinOrders",
          "type": "uint256",
          "internalType": "uint256"
        },
        {
          "name": "permCancelSegment",
          "type": "uint256",
          "internalType": "uint256"
        }
      ],
      "outputs": [],
      "stateMutability": "nonpayable"
    },
    {
      "type": "function",
      "name": "setPerpLinkDsFeedId",
      "inputs": [
        {
          "name": "perpId",
          "type": "uint256",
          "internalType": "uint256"
        },
        {
          "name": "feedId",
          "type": "bytes32",
          "internalType": "bytes32"
        }
      ],
      "outputs": [],
      "stateMutability": "nonpayable"
    },
    {
      "type": "function",
      "name": "setPositionAdministrator",
      "inputs": [
        {
          "name": "positionAdministrator",
          "type": "address",
          "internalType": "address"
        },
        {
          "name": "add",
          "type": "bool",
          "internalType": "bool"
        }
      ],
      "outputs": [],
      "stateMutability": "nonpayable"
    },
    {
      "type": "function",
      "name": "setPriceAdministrator",
      "inputs": [
        {
          "name": "priceAdministrator",
          "type": "address",
          "internalType": "address"
        },
        {
          "name": "add",
          "type": "bool",
          "internalType": "bool"
        }
      ],
      "outputs": [],
      "stateMutability": "nonpayable"
    },
    {
      "type": "function",
      "name": "setPriceMaxAge",
      "inputs": [
        {
          "name": "perpId",
          "type": "uint256",
          "internalType": "uint256"
        },
        {
          "name": "maxAgeSec",
          "type": "uint256",
          "internalType": "uint256"
        }
      ],
      "outputs": [],
      "stateMutability": "nonpayable"
    },
    {
      "type": "function",
      "name": "setPriceTolPer100K",
      "inputs": [
        {
          "name": "perpId",
          "type": "uint256",
          "internalType": "uint256"
        },
        {
          "name": "tolerancePer100K",
          "type": "uint256",
          "internalType": "uint256"
        }
      ],
      "outputs": [],
      "stateMutability": "nonpayable"
    },
    {
      "type": "function",
      "name": "setPriceTolPer100KByOwner",
      "inputs": [
        {
          "name": "perpId",
          "type": "uint256",
          "internalType": "uint256"
        },
        {
          "name": "tolerancePer100K",
          "type": "uint256",
          "internalType": "uint256"
        }
      ],
      "outputs": [],
      "stateMutability": "nonpayable"
    },
    {
      "type": "function",
      "name": "setRecycleFee",
      "inputs": [
        {
          "name": "recycleFeeCNS",
          "type": "uint256",
          "internalType": "uint256"
        }
      ],
      "outputs": [],
      "stateMutability": "nonpayable"
    },
    {
      "type": "function",
      "name": "setTakerFee",
      "inputs": [
        {
          "name": "perpId",
          "type": "uint256",
          "internalType": "uint256"
        },
        {
          "name": "takerFeePer100K",
          "type": "uint256",
          "internalType": "uint256"
        }
      ],
      "outputs": [],
      "stateMutability": "nonpayable"
    },
    {
      "type": "function",
      "name": "setThousandthsTvlWRLS",
      "inputs": [
        {
          "name": "thousandthsTvl",
          "type": "uint256",
          "internalType": "uint256"
        }
      ],
      "outputs": [],
      "stateMutability": "nonpayable"
    },
    {
      "type": "function",
      "name": "setToleranceAdministrator",
      "inputs": [
        {
          "name": "toleranceAdministrator",
          "type": "address",
          "internalType": "address"
        },
        {
          "name": "add",
          "type": "bool",
          "internalType": "bool"
        }
      ],
      "outputs": [],
      "stateMutability": "nonpayable"
    },
    {
      "type": "function",
      "name": "setUnityDescentThreshold",
      "inputs": [
        {
          "name": "perpId",
          "type": "uint256",
          "internalType": "uint256"
        },
        {
          "name": "threshHdths",
          "type": "uint256",
          "internalType": "uint256"
        }
      ],
      "outputs": [],
      "stateMutability": "nonpayable"
    },
    {
      "type": "function",
      "name": "setWhitelistingEnabled",
      "inputs": [
        {
          "name": "enabled",
          "type": "bool",
          "internalType": "bool"
        }
      ],
      "outputs": [],
      "stateMutability": "nonpayable"
    },
    {
      "type": "function",
      "name": "setWithdrawBypass",
      "inputs": [
        {
          "name": "addr",
          "type": "address",
          "internalType": "address"
        },
        {
          "name": "enabled",
          "type": "bool",
          "internalType": "bool"
        }
      ],
      "outputs": [],
      "stateMutability": "nonpayable"
    },
    {
      "type": "function",
      "name": "transferOwnership",
      "inputs": [
        {
          "name": "newOwner",
          "type": "address",
          "internalType": "address"
        }
      ],
      "outputs": [],
      "stateMutability": "nonpayable"
    },
    {
      "type": "function",
      "name": "triggerUnwindContract",
      "inputs": [
        {
          "name": "perpId",
          "type": "uint256",
          "internalType": "uint256"
        }
      ],
      "outputs": [],
      "stateMutability": "nonpayable"
    },
    {
      "type": "function",
      "name": "unwindContract",
      "inputs": [
        {
          "name": "perpId",
          "type": "uint256",
          "internalType": "uint256"
        },
        {
          "name": "maxPosToUnwind",
          "type": "uint256",
          "internalType": "uint256"
        },
        {
          "name": "allowWithoutPayment",
          "type": "bool",
          "internalType": "bool"
        }
      ],
      "outputs": [],
      "stateMutability": "nonpayable"
    },
    {
      "type": "function",
      "name": "unwindContractByOwner",
      "inputs": [
        {
          "name": "perpId",
          "type": "uint256",
          "internalType": "uint256"
        },
        {
          "name": "maxPosToUnwind",
          "type": "uint256",
          "internalType": "uint256"
        },
        {
          "name": "allowWithoutPayment",
          "type": "bool",
          "internalType": "bool"
        }
      ],
      "outputs": [],
      "stateMutability": "nonpayable"
    },
    {
      "type": "function",
      "name": "updateMarkPricePNS",
      "inputs": [
        {
          "name": "perpId",
          "type": "uint256",
          "internalType": "uint256"
        },
        {
          "name": "markPricePNS",
          "type": "uint32",
          "internalType": "uint32"
        }
      ],
      "outputs": [],
      "stateMutability": "nonpayable"
    },
    {
      "type": "function",
      "name": "updateMarkPricePNSByOwner",
      "inputs": [
        {
          "name": "perpId",
          "type": "uint256",
          "internalType": "uint256"
        },
        {
          "name": "markPricePNS",
          "type": "uint32",
          "internalType": "uint32"
        }
      ],
      "outputs": [],
      "stateMutability": "nonpayable"
    },
    {
      "type": "function",
      "name": "updateOraclePrice",
      "inputs": [
        {
          "name": "perpId",
          "type": "uint256",
          "internalType": "uint256"
        },
        {
          "name": "unverifiedReport",
          "type": "bytes",
          "internalType": "bytes"
        }
      ],
      "outputs": [],
      "stateMutability": "nonpayable"
    },
    {
      "type": "function",
      "name": "upgradeTo",
      "inputs": [
        {
          "name": "newImplementation",
          "type": "address",
          "internalType": "address"
        }
      ],
      "outputs": [],
      "stateMutability": "nonpayable"
    },
    {
      "type": "function",
      "name": "upgradeToAndCall",
      "inputs": [
        {
          "name": "newImplementation",
          "type": "address",
          "internalType": "address"
        },
        {
          "name": "data",
          "type": "bytes",
          "internalType": "bytes"
        }
      ],
      "outputs": [],
      "stateMutability": "payable"
    },
    {
      "type": "function",
      "name": "whitelisted",
      "inputs": [
        {
          "name": "",
          "type": "address",
          "internalType": "address"
        }
      ],
      "outputs": [
        {
          "name": "",
          "type": "bool",
          "internalType": "bool"
        }
      ],
      "stateMutability": "view"
    },
    {
      "type": "function",
      "name": "whitelistingEnabled",
      "inputs": [],
      "outputs": [
        {
          "name": "",
          "type": "bool",
          "internalType": "bool"
        }
      ],
      "stateMutability": "view"
    },
    {
      "type": "function",
      "name": "withdrawCollateral",
      "inputs": [
        {
          "name": "amountCNS",
          "type": "uint256",
          "internalType": "uint256"
        }
      ],
      "outputs": [],
      "stateMutability": "nonpayable"
    },
    {
      "type": "function",
      "name": "withdrawFromProtocol",
      "inputs": [
        {
          "name": "amountCNS",
          "type": "uint256",
          "internalType": "uint256"
        }
      ],
      "outputs": [],
      "stateMutability": "nonpayable"
    },
    {
      "type": "function",
      "name": "xferAcctToProtocol",
      "inputs": [
        {
          "name": "amountCNS",
          "type": "uint256",
          "internalType": "uint256"
        }
      ],
      "outputs": [],
      "stateMutability": "nonpayable"
    },
    {
      "type": "function",
      "name": "xferPerpInsToProtocol",
      "inputs": [
        {
          "name": "perpId",
          "type": "uint256",
          "internalType": "uint256"
        },
        {
          "name": "amountCNS",
          "type": "uint256",
          "internalType": "uint256"
        }
      ],
      "outputs": [],
      "stateMutability": "nonpayable"
    },
    {
      "type": "function",
      "name": "xferProtocolToAcct",
      "inputs": [
        {
          "name": "accountId",
          "type": "uint256",
          "internalType": "uint256"
        },
        {
          "name": "amountCNS",
          "type": "uint256",
          "internalType": "uint256"
        }
      ],
      "outputs": [],
      "stateMutability": "nonpayable"
    },
    {
      "type": "function",
      "name": "xferProtocolToPerp",
      "inputs": [
        {
          "name": "perpId",
          "type": "uint256",
          "internalType": "uint256"
        },
        {
          "name": "amountCNS",
          "type": "uint256",
          "internalType": "uint256"
        },
        {
          "name": "insurance",
          "type": "bool",
          "internalType": "bool"
        }
      ],
      "outputs": [],
      "stateMutability": "nonpayable"
    },
    {
      "type": "function",
      "name": "xferProtocolToRecycleBal",
      "inputs": [
        {
          "name": "amountCNS",
          "type": "uint256",
          "internalType": "uint256"
        }
      ],
      "outputs": [],
      "stateMutability": "nonpayable"
    },
    {
      "type": "event",
      "name": "AccountCreated",
      "inputs": [
        {
          "name": "account",
          "type": "address",
          "indexed": false,
          "internalType": "address"
        },
        {
          "name": "id",
          "type": "uint256",
          "indexed": false,
          "internalType": "uint256"
        }
      ],
      "anonymous": false
    },
    {
      "type": "event",
      "name": "AccountFreeze",
      "inputs": [
        {
          "name": "accountId",
          "type": "uint256",
          "indexed": false,
          "internalType": "uint256"
        },
        {
          "name": "status",
          "type": "uint8",
          "indexed": false,
          "internalType": "enum FreezeStatusEnum"
        }
      ],
      "anonymous": false
    },
    {
      "type": "event",
      "name": "AccountFrozen",
      "inputs": [
        {
          "name": "status",
          "type": "uint8",
          "indexed": false,
          "internalType": "enum FreezeStatusEnum"
        }
      ],
      "anonymous": false
    },
    {
      "type": "event",
      "name": "AccountLiquidationCredit",
      "inputs": [
        {
          "name": "perpId",
          "type": "uint256",
          "indexed": false,
          "internalType": "uint256"
        },
        {
          "name": "accountId",
          "type": "uint256",
          "indexed": false,
          "internalType": "uint256"
        },
        {
          "name": "startBalanceCNS",
          "type": "uint256",
          "indexed": false,
          "internalType": "uint256"
        },
        {
          "name": "endBalanceCNS",
          "type": "uint256",
          "indexed": false,
          "internalType": "uint256"
        }
      ],
      "anonymous": false
    },
    {
      "type": "event",
      "name": "AdminChanged",
      "inputs": [
        {
          "name": "previousAdmin",
          "type": "address",
          "indexed": false,
          "internalType": "address"
        },
        {
          "name": "newAdmin",
          "type": "address",
          "indexed": false,
          "internalType": "address"
        }
      ],
      "anonymous": false
    },
    {
      "type": "event",
      "name": "AdministratorUpdated",
      "inputs": [
        {
          "name": "administrator",
          "type": "address",
          "indexed": false,
          "internalType": "address"
        },
        {
          "name": "added",
          "type": "bool",
          "indexed": false,
          "internalType": "bool"
        }
      ],
      "anonymous": false
    },
    {
      "type": "event",
      "name": "AmountExceedsAvailableBalance",
      "inputs": [
        {
          "name": "amountCNS",
          "type": "uint256",
          "indexed": false,
          "internalType": "uint256"
        },
        {
          "name": "availableBalanceCNS",
          "type": "uint256",
          "indexed": false,
          "internalType": "uint256"
        },
        {
          "name": "balanceCNS",
          "type": "uint256",
          "indexed": false,
          "internalType": "uint256"
        }
      ],
      "anonymous": false
    },
    {
      "type": "event",
      "name": "BankruptcyPricePreventsDeleverage",
      "inputs": [
        {
          "name": "perpId",
          "type": "uint256",
          "indexed": false,
          "internalType": "uint256"
        },
        {
          "name": "accountId",
          "type": "uint256",
          "indexed": false,
          "internalType": "uint256"
        },
        {
          "name": "positionType",
          "type": "uint8",
          "indexed": false,
          "internalType": "enum PositionEnum"
        },
        {
          "name": "bankruptcyPricePNS",
          "type": "uint256",
          "indexed": false,
          "internalType": "uint256"
        },
        {
          "name": "markPricePNS",
          "type": "uint256",
          "indexed": false,
          "internalType": "uint256"
        }
      ],
      "anonymous": false
    },
    {
      "type": "event",
      "name": "BeaconUpgraded",
      "inputs": [
        {
          "name": "beacon",
          "type": "address",
          "indexed": true,
          "internalType": "address"
        }
      ],
      "anonymous": false
    },
    {
      "type": "event",
      "name": "BlockStatusChanged",
      "inputs": [
        {
          "name": "addr",
          "type": "address",
          "indexed": true,
          "internalType": "address"
        },
        {
          "name": "blocked",
          "type": "bool",
          "indexed": false,
          "internalType": "bool"
        }
      ],
      "anonymous": false
    },
    {
      "type": "event",
      "name": "BorrowMarginNotMetAfterDecCollateral",
      "inputs": [
        {
          "name": "perpId",
          "type": "uint256",
          "indexed": false,
          "internalType": "uint256"
        },
        {
          "name": "accountId",
          "type": "uint256",
          "indexed": false,
          "internalType": "uint256"
        },
        {
          "name": "bmrCNS",
          "type": "int256",
          "indexed": false,
          "internalType": "int256"
        },
        {
          "name": "fmvAfterCNS",
          "type": "int256",
          "indexed": false,
          "internalType": "int256"
        }
      ],
      "anonymous": false
    },
    {
      "type": "event",
      "name": "BuyToLiquidateBuyerRestricted",
      "inputs": [
        {
          "name": "perpId",
          "type": "uint256",
          "indexed": false,
          "internalType": "uint256"
        },
        {
          "name": "buyer",
          "type": "address",
          "indexed": false,
          "internalType": "address"
        }
      ],
      "anonymous": false
    },
    {
      "type": "event",
      "name": "BuyToLiquidateParamsUpdated",
      "inputs": [
        {
          "name": "perpId",
          "type": "uint256",
          "indexed": false,
          "internalType": "uint256"
        },
        {
          "name": "insAmtPer100K",
          "type": "uint256",
          "indexed": false,
          "internalType": "uint256"
        },
        {
          "name": "userAmtPer100K",
          "type": "uint256",
          "indexed": false,
          "internalType": "uint256"
        },
        {
          "name": "buyerAmtPer100K",
          "type": "uint256",
          "indexed": false,
          "internalType": "uint256"
        },
        {
          "name": "protAmtPer100K",
          "type": "uint256",
          "indexed": false,
          "internalType": "uint256"
        }
      ],
      "anonymous": false
    },
    {
      "type": "event",
      "name": "BuyToLiquidateRestrictionUpdated",
      "inputs": [
        {
          "name": "perpId",
          "type": "uint256",
          "indexed": false,
          "internalType": "uint256"
        },
        {
          "name": "restrictBuyers",
          "type": "bool",
          "indexed": false,
          "internalType": "bool"
        }
      ],
      "anonymous": false
    },
    {
      "type": "event",
      "name": "BuyToLiquidateSlippageExceeded",
      "inputs": [
        {
          "name": "perpId",
          "type": "uint256",
          "indexed": false,
          "internalType": "uint256"
        },
        {
          "name": "posAccountId",
          "type": "uint256",
          "indexed": false,
          "internalType": "uint256"
        },
        {
          "name": "positionType",
          "type": "uint8",
          "indexed": false,
          "internalType": "enum PositionEnum"
        },
        {
          "name": "markPricePNS",
          "type": "uint256",
          "indexed": false,
          "internalType": "uint256"
        },
        {
          "name": "limitPricePNS",
          "type": "uint256",
          "indexed": false,
          "internalType": "uint256"
        }
      ],
      "anonymous": false
    },
    {
      "type": "event",
      "name": "BuyToLiquidateThresholdUpdated",
      "inputs": [
        {
          "name": "perpId",
          "type": "uint256",
          "indexed": false,
          "internalType": "uint256"
        },
        {
          "name": "thresholdPer100K",
          "type": "uint256",
          "indexed": false,
          "internalType": "uint256"
        }
      ],
      "anonymous": false
    },
    {
      "type": "event",
      "name": "CancelExistingInvalidCloseOrders",
      "inputs": [
        {
          "name": "lockedLotLNS",
          "type": "uint256",
          "indexed": false,
          "internalType": "uint256"
        },
        {
          "name": "lockedPositionType",
          "type": "uint8",
          "indexed": false,
          "internalType": "enum PositionEnum"
        },
        {
          "name": "newPositionType",
          "type": "uint8",
          "indexed": false,
          "internalType": "enum PositionEnum"
        }
      ],
      "anonymous": false
    },
    {
      "type": "event",
      "name": "CannotAdjustEntryPriceToDecCollateral",
      "inputs": [
        {
          "name": "perpId",
          "type": "uint256",
          "indexed": false,
          "internalType": "uint256"
        },
        {
          "name": "accountId",
          "type": "uint256",
          "indexed": false,
          "internalType": "uint256"
        },
        {
          "name": "amountCNS",
          "type": "uint256",
          "indexed": false,
          "internalType": "uint256"
        },
        {
          "name": "adjustmentAmountCNS",
          "type": "uint256",
          "indexed": false,
          "internalType": "uint256"
        },
        {
          "name": "entryPricePNS",
          "type": "uint256",
          "indexed": false,
          "internalType": "uint256"
        },
        {
          "name": "adjustedEntryPricePNS",
          "type": "int256",
          "indexed": false,
          "internalType": "int256"
        },
        {
          "name": "positionType",
          "type": "uint8",
          "indexed": false,
          "internalType": "enum PositionEnum"
        }
      ],
      "anonymous": false
    },
    {
      "type": "event",
      "name": "CantBuyToLiquidate",
      "inputs": [
        {
          "name": "perpId",
          "type": "uint256",
          "indexed": false,
          "internalType": "uint256"
        },
        {
          "name": "posAccountId",
          "type": "uint256",
          "indexed": false,
          "internalType": "uint256"
        },
        {
          "name": "positionType",
          "type": "uint8",
          "indexed": false,
          "internalType": "enum PositionEnum"
        },
        {
          "name": "markPricePNS",
          "type": "uint256",
          "indexed": false,
          "internalType": "uint256"
        },
        {
          "name": "bsLiqPricePNS",
          "type": "uint256",
          "indexed": false,
          "internalType": "uint256"
        },
        {
          "name": "liqPricePNS",
          "type": "uint256",
          "indexed": false,
          "internalType": "uint256"
        },
        {
          "name": "bkptPricePNS",
          "type": "uint256",
          "indexed": false,
          "internalType": "uint256"
        }
      ],
      "anonymous": false
    },
    {
      "type": "event",
      "name": "CantChangeCloseOrder",
      "inputs": [
        {
          "name": "perpId",
          "type": "uint256",
          "indexed": false,
          "internalType": "uint256"
        },
        {
          "name": "orderId",
          "type": "uint256",
          "indexed": false,
          "internalType": "uint256"
        },
        {
          "name": "accountId",
          "type": "uint256",
          "indexed": false,
          "internalType": "uint256"
        }
      ],
      "anonymous": false
    },
    {
      "type": "event",
      "name": "CantDeleverageAgainstOpposingPositions",
      "inputs": [
        {
          "name": "perpId",
          "type": "uint256",
          "indexed": false,
          "internalType": "uint256"
        },
        {
          "name": "accountId",
          "type": "uint256",
          "indexed": false,
          "internalType": "uint256"
        },
        {
          "name": "forceClose",
          "type": "bool",
          "indexed": false,
          "internalType": "bool"
        },
        {
          "name": "positionType",
          "type": "uint8",
          "indexed": false,
          "internalType": "enum PositionEnum"
        },
        {
          "name": "deleveragePricePNS",
          "type": "uint256",
          "indexed": false,
          "internalType": "uint256"
        },
        {
          "name": "sortedPositionIds",
          "type": "uint256[]",
          "indexed": false,
          "internalType": "uint256[]"
        }
      ],
      "anonymous": false
    },
    {
      "type": "event",
      "name": "CantLiquidatePosAboveMMR",
      "inputs": [
        {
          "name": "perpId",
          "type": "uint256",
          "indexed": false,
          "internalType": "uint256"
        },
        {
          "name": "posAccountId",
          "type": "uint256",
          "indexed": false,
          "internalType": "uint256"
        },
        {
          "name": "positionType",
          "type": "uint8",
          "indexed": false,
          "internalType": "enum PositionEnum"
        },
        {
          "name": "markPricePNS",
          "type": "uint256",
          "indexed": false,
          "internalType": "uint256"
        },
        {
          "name": "liqPricePNS",
          "type": "uint256",
          "indexed": false,
          "internalType": "uint256"
        }
      ],
      "anonymous": false
    },
    {
      "type": "event",
      "name": "ChangeExpiredOrderNeedsNewExpiry",
      "inputs": [
        {
          "name": "perpId",
          "type": "uint256",
          "indexed": false,
          "internalType": "uint256"
        },
        {
          "name": "orderId",
          "type": "uint256",
          "indexed": false,
          "internalType": "uint256"
        },
        {
          "name": "accountId",
          "type": "uint256",
          "indexed": false,
          "internalType": "uint256"
        },
        {
          "name": "expiryBlock",
          "type": "uint256",
          "indexed": false,
          "internalType": "uint256"
        }
      ],
      "anonymous": false
    },
    {
      "type": "event",
      "name": "ClearingExpiredOrder",
      "inputs": [
        {
          "name": "perpId",
          "type": "uint256",
          "indexed": false,
          "internalType": "uint256"
        },
        {
          "name": "accountId",
          "type": "uint256",
          "indexed": false,
          "internalType": "uint256"
        },
        {
          "name": "orderId",
          "type": "uint256",
          "indexed": false,
          "internalType": "uint256"
        },
        {
          "name": "lockedBalanceCNS",
          "type": "uint256",
          "indexed": false,
          "internalType": "uint256"
        },
        {
          "name": "recyclerAccountId",
          "type": "uint256",
          "indexed": false,
          "internalType": "uint256"
        },
        {
          "name": "recyclerAmountCNS",
          "type": "int256",
          "indexed": false,
          "internalType": "int256"
        },
        {
          "name": "recyclerBalanceCNS",
          "type": "uint256",
          "indexed": false,
          "internalType": "uint256"
        }
      ],
      "anonymous": false
    },
    {
      "type": "event",
      "name": "ClearingFrozenAccountOrder",
      "inputs": [
        {
          "name": "perpId",
          "type": "uint256",
          "indexed": false,
          "internalType": "uint256"
        },
        {
          "name": "accountId",
          "type": "uint256",
          "indexed": false,
          "internalType": "uint256"
        },
        {
          "name": "orderId",
          "type": "uint256",
          "indexed": false,
          "internalType": "uint256"
        },
        {
          "name": "lockedBalanceCNS",
          "type": "uint256",
          "indexed": false,
          "internalType": "uint256"
        },
        {
          "name": "recyclerAccountId",
          "type": "uint256",
          "indexed": false,
          "internalType": "uint256"
        },
        {
          "name": "recyclerAmountCNS",
          "type": "int256",
          "indexed": false,
          "internalType": "int256"
        },
        {
          "name": "recyclerBalanceCNS",
          "type": "uint256",
          "indexed": false,
          "internalType": "uint256"
        }
      ],
      "anonymous": false
    },
    {
      "type": "event",
      "name": "ClearingInvalidCloseOrder",
      "inputs": [
        {
          "name": "perpId",
          "type": "uint256",
          "indexed": false,
          "internalType": "uint256"
        },
        {
          "name": "accountId",
          "type": "uint256",
          "indexed": false,
          "internalType": "uint256"
        },
        {
          "name": "orderId",
          "type": "uint256",
          "indexed": false,
          "internalType": "uint256"
        },
        {
          "name": "lockedBalanceCNS",
          "type": "uint256",
          "indexed": false,
          "internalType": "uint256"
        },
        {
          "name": "recyclerAccountId",
          "type": "uint256",
          "indexed": false,
          "internalType": "uint256"
        },
        {
          "name": "recyclerAmountCNS",
          "type": "int256",
          "indexed": false,
          "internalType": "int256"
        },
        {
          "name": "recyclerBalanceCNS",
          "type": "uint256",
          "indexed": false,
          "internalType": "uint256"
        }
      ],
      "anonymous": false
    },
    {
      "type": "event",
      "name": "ClearingRemainingOrderLockBeyondBalance",
      "inputs": [
        {
          "name": "perpId",
          "type": "uint256",
          "indexed": false,
          "internalType": "uint256"
        },
        {
          "name": "accountId",
          "type": "uint256",
          "indexed": false,
          "internalType": "uint256"
        },
        {
          "name": "orderId",
          "type": "uint256",
          "indexed": false,
          "internalType": "uint256"
        },
        {
          "name": "pricePNS",
          "type": "uint256",
          "indexed": false,
          "internalType": "uint256"
        },
        {
          "name": "remainingLotLNS",
          "type": "uint256",
          "indexed": false,
          "internalType": "uint256"
        },
        {
          "name": "lockedBalanceCNS",
          "type": "uint256",
          "indexed": false,
          "internalType": "uint256"
        },
        {
          "name": "excessiveLockedBalCNS",
          "type": "uint256",
          "indexed": false,
          "internalType": "uint256"
        },
        {
          "name": "recyclerAccountId",
          "type": "uint256",
          "indexed": false,
          "internalType": "uint256"
        },
        {
          "name": "recyclerAmountCNS",
          "type": "int256",
          "indexed": false,
          "internalType": "int256"
        },
        {
          "name": "recyclerBalanceCNS",
          "type": "uint256",
          "indexed": false,
          "internalType": "uint256"
        }
      ],
      "anonymous": false
    },
    {
      "type": "event",
      "name": "ClearingSelfMatchingOrder",
      "inputs": [
        {
          "name": "perpId",
          "type": "uint256",
          "indexed": false,
          "internalType": "uint256"
        },
        {
          "name": "accountId",
          "type": "uint256",
          "indexed": false,
          "internalType": "uint256"
        },
        {
          "name": "orderId",
          "type": "uint256",
          "indexed": false,
          "internalType": "uint256"
        },
        {
          "name": "lockedBalanceCNS",
          "type": "uint256",
          "indexed": false,
          "internalType": "uint256"
        },
        {
          "name": "recyclerAccountId",
          "type": "uint256",
          "indexed": false,
          "internalType": "uint256"
        },
        {
          "name": "recyclerAmountCNS",
          "type": "int256",
          "indexed": false,
          "internalType": "int256"
        },
        {
          "name": "recyclerBalanceCNS",
          "type": "uint256",
          "indexed": false,
          "internalType": "uint256"
        }
      ],
      "anonymous": false
    },
    {
      "type": "event",
      "name": "CloseOrderExceedsPosition",
      "inputs": [
        {
          "name": "posLotLNS",
          "type": "uint256",
          "indexed": false,
          "internalType": "uint256"
        },
        {
          "name": "orderLotLNS",
          "type": "uint256",
          "indexed": false,
          "internalType": "uint256"
        }
      ],
      "anonymous": false
    },
    {
      "type": "event",
      "name": "CloseOrderPositionMismatch",
      "inputs": [
        {
          "name": "positionType",
          "type": "uint8",
          "indexed": false,
          "internalType": "enum PositionEnum"
        },
        {
          "name": "orderType",
          "type": "uint8",
          "indexed": false,
          "internalType": "enum OrderEnum"
        }
      ],
      "anonymous": false
    },
    {
      "type": "event",
      "name": "CollateralDecreaseDeclined",
      "inputs": [
        {
          "name": "perpId",
          "type": "uint256",
          "indexed": false,
          "internalType": "uint256"
        },
        {
          "name": "accountId",
          "type": "uint256",
          "indexed": false,
          "internalType": "uint256"
        },
        {
          "name": "reason",
          "type": "string",
          "indexed": false,
          "internalType": "string"
        }
      ],
      "anonymous": false
    },
    {
      "type": "event",
      "name": "CollateralDecreaseRequestCancelled",
      "inputs": [
        {
          "name": "perpId",
          "type": "uint256",
          "indexed": false,
          "internalType": "uint256"
        },
        {
          "name": "accountId",
          "type": "uint256",
          "indexed": false,
          "internalType": "uint256"
        }
      ],
      "anonymous": false
    },
    {
      "type": "event",
      "name": "CollateralDecreaseRequestExpired",
      "inputs": [
        {
          "name": "perpId",
          "type": "uint256",
          "indexed": false,
          "internalType": "uint256"
        },
        {
          "name": "accountId",
          "type": "uint256",
          "indexed": false,
          "internalType": "uint256"
        },
        {
          "name": "expiryTS",
          "type": "uint256",
          "indexed": false,
          "internalType": "uint256"
        },
        {
          "name": "blockTS",
          "type": "uint256",
          "indexed": false,
          "internalType": "uint256"
        }
      ],
      "anonymous": false
    },
    {
      "type": "event",
      "name": "CollateralDecreaseRequested",
      "inputs": [
        {
          "name": "perpId",
          "type": "uint256",
          "indexed": false,
          "internalType": "uint256"
        },
        {
          "name": "accountId",
          "type": "uint256",
          "indexed": false,
          "internalType": "uint256"
        },
        {
          "name": "expiryTS",
          "type": "uint256",
          "indexed": false,
          "internalType": "uint256"
        },
        {
          "name": "amountCNS",
          "type": "uint256",
          "indexed": false,
          "internalType": "uint256"
        },
        {
          "name": "clampToMaximum",
          "type": "bool",
          "indexed": false,
          "internalType": "bool"
        },
        {
          "name": "positionType",
          "type": "uint8",
          "indexed": false,
          "internalType": "enum PositionEnum"
        },
        {
          "name": "entryPricePNS",
          "type": "uint256",
          "indexed": false,
          "internalType": "uint256"
        },
        {
          "name": "lotLNS",
          "type": "uint256",
          "indexed": false,
          "internalType": "uint256"
        }
      ],
      "anonymous": false
    },
    {
      "type": "event",
      "name": "CollateralDeposit",
      "inputs": [
        {
          "name": "accountId",
          "type": "uint256",
          "indexed": false,
          "internalType": "uint256"
        },
        {
          "name": "amountCNS",
          "type": "uint256",
          "indexed": false,
          "internalType": "uint256"
        },
        {
          "name": "balanceCNS",
          "type": "uint256",
          "indexed": false,
          "internalType": "uint256"
        }
      ],
      "anonymous": false
    },
    {
      "type": "event",
      "name": "CollateralWithdrawal",
      "inputs": [
        {
          "name": "accountId",
          "type": "uint256",
          "indexed": false,
          "internalType": "uint256"
        },
        {
          "name": "amountCNS",
          "type": "uint256",
          "indexed": false,
          "internalType": "uint256"
        },
        {
          "name": "balanceCNS",
          "type": "uint256",
          "indexed": false,
          "internalType": "uint256"
        }
      ],
      "anonymous": false
    },
    {
      "type": "event",
      "name": "ContractAdded",
      "inputs": [
        {
          "name": "perpId",
          "type": "uint256",
          "indexed": false,
          "internalType": "uint256"
        },
        {
          "name": "name",
          "type": "string",
          "indexed": false,
          "internalType": "string"
        },
        {
          "name": "symbol",
          "type": "string",
          "indexed": false,
          "internalType": "string"
        },
        {
          "name": "status",
          "type": "uint8",
          "indexed": false,
          "internalType": "enum PerpStatusEnum"
        },
        {
          "name": "basePricePNS",
          "type": "uint256",
          "indexed": false,
          "internalType": "uint256"
        },
        {
          "name": "priceDecimals",
          "type": "uint256",
          "indexed": false,
          "internalType": "uint256"
        },
        {
          "name": "lotDecimals",
          "type": "uint256",
          "indexed": false,
          "internalType": "uint256"
        },
        {
          "name": "takerFeePer100K",
          "type": "uint256",
          "indexed": false,
          "internalType": "uint256"
        },
        {
          "name": "makerFeePer100K",
          "type": "uint256",
          "indexed": false,
          "internalType": "uint256"
        },
        {
          "name": "initMarginFracHdths",
          "type": "uint256",
          "indexed": false,
          "internalType": "uint256"
        },
        {
          "name": "maintMarginFracHdths",
          "type": "uint256",
          "indexed": false,
          "internalType": "uint256"
        },
        {
          "name": "maxOpenInterestLNS",
          "type": "uint256",
          "indexed": false,
          "internalType": "uint256"
        },
        {
          "name": "unityDescentThreshHdths",
          "type": "uint256",
          "indexed": false,
          "internalType": "uint256"
        },
        {
          "name": "overColDescentThreshHdths",
          "type": "uint256",
          "indexed": false,
          "internalType": "uint256"
        },
        {
          "name": "dcpBorrowThreshHdths",
          "type": "uint256",
          "indexed": false,
          "internalType": "uint256"
        },
        {
          "name": "priceTolPer100K",
          "type": "uint256",
          "indexed": false,
          "internalType": "uint256"
        },
        {
          "name": "marginTol",
          "type": "uint256",
          "indexed": false,
          "internalType": "uint256"
        },
        {
          "name": "marginTolDecimals",
          "type": "uint256",
          "indexed": false,
          "internalType": "uint256"
        },
        {
          "name": "refPriceMaxAgeSec",
          "type": "uint256",
          "indexed": false,
          "internalType": "uint256"
        },
        {
          "name": "absFundingClampPctPer100K",
          "type": "uint256",
          "indexed": false,
          "internalType": "uint256"
        },
        {
          "name": "permCancelMinOrders",
          "type": "uint256",
          "indexed": false,
          "internalType": "uint256"
        },
        {
          "name": "permCancelSegment",
          "type": "uint256",
          "indexed": false,
          "internalType": "uint256"
        },
        {
          "name": "insAmtPer100K",
          "type": "uint256",
          "indexed": false,
          "internalType": "uint256"
        },
        {
          "name": "liqInsAmtPer100K",
          "type": "uint256",
          "indexed": false,
          "internalType": "uint256"
        },
        {
          "name": "liqUserAmtPer100K",
          "type": "uint256",
          "indexed": false,
          "internalType": "uint256"
        },
        {
          "name": "btlRestrictBuyers",
          "type": "bool",
          "indexed": false,
          "internalType": "bool"
        },
        {
          "name": "btlPriceThreshPer100K",
          "type": "uint256",
          "indexed": false,
          "internalType": "uint256"
        },
        {
          "name": "btlInsAmtPer100K",
          "type": "uint256",
          "indexed": false,
          "internalType": "uint256"
        },
        {
          "name": "btlUserAmtPer100K",
          "type": "uint256",
          "indexed": false,
          "internalType": "uint256"
        },
        {
          "name": "btlBuyerAmtPer100K",
          "type": "uint256",
          "indexed": false,
          "internalType": "uint256"
        },
        {
          "name": "numPerpetuals",
          "type": "uint256",
          "indexed": false,
          "internalType": "uint256"
        }
      ],
      "anonymous": false
    },
    {
      "type": "event",
      "name": "ContractLinkFeedUpdated",
      "inputs": [
        {
          "name": "perpId",
          "type": "uint256",
          "indexed": false,
          "internalType": "uint256"
        },
        {
          "name": "feedId",
          "type": "bytes32",
          "indexed": false,
          "internalType": "bytes32"
        }
      ],
      "anonymous": false
    },
    {
      "type": "event",
      "name": "ContractNotOperational",
      "inputs": [
        {
          "name": "perpId",
          "type": "uint256",
          "indexed": false,
          "internalType": "uint256"
        },
        {
          "name": "status",
          "type": "uint8",
          "indexed": false,
          "internalType": "enum PerpStatusEnum"
        }
      ],
      "anonymous": false
    },
    {
      "type": "event",
      "name": "ContractPaused",
      "inputs": [
        {
          "name": "perpId",
          "type": "uint256",
          "indexed": false,
          "internalType": "uint256"
        },
        {
          "name": "paused",
          "type": "bool",
          "indexed": false,
          "internalType": "bool"
        }
      ],
      "anonymous": false
    },
    {
      "type": "event",
      "name": "ContractRemoved",
      "inputs": [
        {
          "name": "perpId",
          "type": "uint256",
          "indexed": false,
          "internalType": "uint256"
        }
      ],
      "anonymous": false
    },
    {
      "type": "event",
      "name": "CrossesBook",
      "inputs": [
        {
          "name": "minAskOrMaxBidPNS",
          "type": "uint256",
          "indexed": false,
          "internalType": "uint256"
        },
        {
          "name": "maxOrdersChecked",
          "type": "bool",
          "indexed": false,
          "internalType": "bool"
        }
      ],
      "anonymous": false
    },
    {
      "type": "event",
      "name": "DcpBorrowThreshUpdated",
      "inputs": [
        {
          "name": "perpId",
          "type": "uint256",
          "indexed": false,
          "internalType": "uint256"
        },
        {
          "name": "threshHdths",
          "type": "uint256",
          "indexed": false,
          "internalType": "uint256"
        }
      ],
      "anonymous": false
    },
    {
      "type": "event",
      "name": "DecreaseCollateralBeyondMarkPrice",
      "inputs": [
        {
          "name": "perpId",
          "type": "uint256",
          "indexed": false,
          "internalType": "uint256"
        },
        {
          "name": "accountId",
          "type": "uint256",
          "indexed": false,
          "internalType": "uint256"
        },
        {
          "name": "positionType",
          "type": "uint8",
          "indexed": false,
          "internalType": "enum PositionEnum"
        },
        {
          "name": "impactAdjPricePNS",
          "type": "uint256",
          "indexed": false,
          "internalType": "uint256"
        },
        {
          "name": "markPricePNS",
          "type": "uint256",
          "indexed": false,
          "internalType": "uint256"
        }
      ],
      "anonymous": false
    },
    {
      "type": "event",
      "name": "DeleveragePositionListEmpty",
      "inputs": [
        {
          "name": "perpId",
          "type": "uint256",
          "indexed": false,
          "internalType": "uint256"
        },
        {
          "name": "accountId",
          "type": "uint256",
          "indexed": false,
          "internalType": "uint256"
        }
      ],
      "anonymous": false
    },
    {
      "type": "event",
      "name": "ExceedsLastExecutionBlock",
      "inputs": [
        {
          "name": "lastExecutionBlock",
          "type": "uint256",
          "indexed": false,
          "internalType": "uint256"
        }
      ],
      "anonymous": false
    },
    {
      "type": "event",
      "name": "ExchangeHalted",
      "inputs": [
        {
          "name": "halted",
          "type": "bool",
          "indexed": false,
          "internalType": "bool"
        }
      ],
      "anonymous": false
    },
    {
      "type": "event",
      "name": "ExchangeInitialized",
      "inputs": [
        {
          "name": "sender",
          "type": "address",
          "indexed": false,
          "internalType": "address"
        },
        {
          "name": "collateralToken",
          "type": "address",
          "indexed": false,
          "internalType": "address"
        },
        {
          "name": "collateralDecimals",
          "type": "uint256",
          "indexed": false,
          "internalType": "uint256"
        },
        {
          "name": "minAccountOpenCNS",
          "type": "uint256",
          "indexed": false,
          "internalType": "uint256"
        },
        {
          "name": "wrlsThousandthsTvl",
          "type": "uint256",
          "indexed": false,
          "internalType": "uint256"
        },
        {
          "name": "wrlsMinWithdrawLimitCNS",
          "type": "uint256",
          "indexed": false,
          "internalType": "uint256"
        },
        {
          "name": "recycleFeeCNS",
          "type": "uint256",
          "indexed": false,
          "internalType": "uint256"
        },
        {
          "name": "whitelistingEnabled",
          "type": "bool",
          "indexed": false,
          "internalType": "bool"
        }
      ],
      "anonymous": false
    },
    {
      "type": "event",
      "name": "FeeParamsUpdated",
      "inputs": [
        {
          "name": "perpId",
          "type": "uint256",
          "indexed": false,
          "internalType": "uint256"
        },
        {
          "name": "insAmtPer100K",
          "type": "uint256",
          "indexed": false,
          "internalType": "uint256"
        }
      ],
      "anonymous": false
    },
    {
      "type": "event",
      "name": "FundingClampPctUpdated",
      "inputs": [
        {
          "name": "perpId",
          "type": "uint256",
          "indexed": false,
          "internalType": "uint256"
        },
        {
          "name": "clampPctPer100k",
          "type": "uint256",
          "indexed": false,
          "internalType": "uint256"
        }
      ],
      "anonymous": false
    },
    {
      "type": "event",
      "name": "FundingEventCompleted",
      "inputs": [
        {
          "name": "perpId",
          "type": "uint256",
          "indexed": false,
          "internalType": "uint256"
        },
        {
          "name": "fundingEventBlock",
          "type": "uint256",
          "indexed": false,
          "internalType": "uint256"
        },
        {
          "name": "specifiedRatePct100k",
          "type": "int256",
          "indexed": false,
          "internalType": "int256"
        },
        {
          "name": "actualRatePct100k",
          "type": "int256",
          "indexed": false,
          "internalType": "int256"
        },
        {
          "name": "fundingPricePNS",
          "type": "uint256",
          "indexed": false,
          "internalType": "uint256"
        },
        {
          "name": "fundingPaymentPNS",
          "type": "int48",
          "indexed": false,
          "internalType": "int48"
        },
        {
          "name": "fundingSumPNS",
          "type": "int48",
          "indexed": false,
          "internalType": "int48"
        },
        {
          "name": "allowOverwrite",
          "type": "bool",
          "indexed": false,
          "internalType": "bool"
        }
      ],
      "anonymous": false
    },
    {
      "type": "event",
      "name": "FundingEventSetTooEarly",
      "inputs": [
        {
          "name": "perpId",
          "type": "uint256",
          "indexed": false,
          "internalType": "uint256"
        },
        {
          "name": "blockNumber",
          "type": "uint256",
          "indexed": false,
          "internalType": "uint256"
        },
        {
          "name": "fundingEventBlock",
          "type": "uint256",
          "indexed": false,
          "internalType": "uint256"
        }
      ],
      "anonymous": false
    },
    {
      "type": "event",
      "name": "FundingPriceExceedsTol",
      "inputs": [
        {
          "name": "perpId",
          "type": "uint256",
          "indexed": false,
          "internalType": "uint256"
        },
        {
          "name": "fundingPricePNS",
          "type": "uint256",
          "indexed": false,
          "internalType": "uint256"
        },
        {
          "name": "oraclePNS",
          "type": "uint256",
          "indexed": false,
          "internalType": "uint256"
        },
        {
          "name": "tolerancePer100k",
          "type": "uint256",
          "indexed": false,
          "internalType": "uint256"
        }
      ],
      "anonymous": false
    },
    {
      "type": "event",
      "name": "FundingSumAlreadySet",
      "inputs": [
        {
          "name": "perpId",
          "type": "uint256",
          "indexed": false,
          "internalType": "uint256"
        },
        {
          "name": "fundingEventBlock",
          "type": "uint256",
          "indexed": false,
          "internalType": "uint256"
        },
        {
          "name": "storageIndex",
          "type": "uint256",
          "indexed": false,
          "internalType": "uint256"
        },
        {
          "name": "fundingSumOffset",
          "type": "uint256",
          "indexed": false,
          "internalType": "uint256"
        }
      ],
      "anonymous": false
    },
    {
      "type": "event",
      "name": "IgnoreOracleUpdated",
      "inputs": [
        {
          "name": "perpId",
          "type": "uint256",
          "indexed": false,
          "internalType": "uint256"
        },
        {
          "name": "ignOracle",
          "type": "bool",
          "indexed": false,
          "internalType": "bool"
        }
      ],
      "anonymous": false
    },
    {
      "type": "event",
      "name": "ImmediateOrCancelExecuted",
      "inputs": [
        {
          "name": "unmatchedLotLNS",
          "type": "uint256",
          "indexed": false,
          "internalType": "uint256"
        },
        {
          "name": "totalLotLNS",
          "type": "uint256",
          "indexed": false,
          "internalType": "uint256"
        }
      ],
      "anonymous": false
    },
    {
      "type": "event",
      "name": "IncreasePositionCollateral",
      "inputs": [
        {
          "name": "perpId",
          "type": "uint256",
          "indexed": false,
          "internalType": "uint256"
        },
        {
          "name": "accountId",
          "type": "uint256",
          "indexed": false,
          "internalType": "uint256"
        },
        {
          "name": "positionDepositCNS",
          "type": "uint256",
          "indexed": false,
          "internalType": "uint256"
        },
        {
          "name": "amountCNS",
          "type": "uint256",
          "indexed": false,
          "internalType": "uint256"
        },
        {
          "name": "balanceCNS",
          "type": "uint256",
          "indexed": false,
          "internalType": "uint256"
        }
      ],
      "anonymous": false
    },
    {
      "type": "event",
      "name": "InitialMarginFractionUpdated",
      "inputs": [
        {
          "name": "perpId",
          "type": "uint256",
          "indexed": false,
          "internalType": "uint256"
        },
        {
          "name": "initMarginFracHdths",
          "type": "uint256",
          "indexed": false,
          "internalType": "uint256"
        }
      ],
      "anonymous": false
    },
    {
      "type": "event",
      "name": "Initialized",
      "inputs": [
        {
          "name": "version",
          "type": "uint8",
          "indexed": false,
          "internalType": "uint8"
        }
      ],
      "anonymous": false
    },
    {
      "type": "event",
      "name": "InsolventPositionCannotBeForcedClose",
      "inputs": [
        {
          "name": "perpId",
          "type": "uint256",
          "indexed": false,
          "internalType": "uint256"
        },
        {
          "name": "posAccountId",
          "type": "uint256",
          "indexed": false,
          "internalType": "uint256"
        },
        {
          "name": "positionType",
          "type": "uint8",
          "indexed": false,
          "internalType": "enum PositionEnum"
        },
        {
          "name": "bankruptcyPricePNS",
          "type": "uint256",
          "indexed": false,
          "internalType": "uint256"
        },
        {
          "name": "markPricePNS",
          "type": "uint256",
          "indexed": false,
          "internalType": "uint256"
        }
      ],
      "anonymous": false
    },
    {
      "type": "event",
      "name": "InsufficientFundsToDecCollateral",
      "inputs": [
        {
          "name": "perpId",
          "type": "uint256",
          "indexed": false,
          "internalType": "uint256"
        },
        {
          "name": "accountId",
          "type": "uint256",
          "indexed": false,
          "internalType": "uint256"
        },
        {
          "name": "amountCNS",
          "type": "uint256",
          "indexed": false,
          "internalType": "uint256"
        },
        {
          "name": "withdrawMaxCNS",
          "type": "uint256",
          "indexed": false,
          "internalType": "uint256"
        }
      ],
      "anonymous": false
    },
    {
      "type": "event",
      "name": "InsuficientFundsForRecycleFee",
      "inputs": [
        {
          "name": "perpId",
          "type": "uint256",
          "indexed": false,
          "internalType": "uint256"
        },
        {
          "name": "accountId",
          "type": "uint256",
          "indexed": false,
          "internalType": "uint256"
        },
        {
          "name": "balanceCNS",
          "type": "uint256",
          "indexed": false,
          "internalType": "uint256"
        },
        {
          "name": "lockedCNS",
          "type": "uint256",
          "indexed": false,
          "internalType": "uint256"
        },
        {
          "name": "recycleFeeCNS",
          "type": "uint256",
          "indexed": false,
          "internalType": "uint256"
        }
      ],
      "anonymous": false
    },
    {
      "type": "event",
      "name": "InsurancePaymentForSettlement",
      "inputs": [
        {
          "name": "perpId",
          "type": "uint256",
          "indexed": false,
          "internalType": "uint256"
        },
        {
          "name": "accountId",
          "type": "uint256",
          "indexed": false,
          "internalType": "uint256"
        },
        {
          "name": "insPaymentCNS",
          "type": "uint256",
          "indexed": false,
          "internalType": "uint256"
        }
      ],
      "anonymous": false
    },
    {
      "type": "event",
      "name": "InvalidAccountFrozenOrder",
      "inputs": [
        {
          "name": "orderType",
          "type": "uint8",
          "indexed": false,
          "internalType": "enum OrderDescEnum"
        },
        {
          "name": "immediateOrCancel",
          "type": "bool",
          "indexed": false,
          "internalType": "bool"
        }
      ],
      "anonymous": false
    },
    {
      "type": "event",
      "name": "InvalidBankruptcyPrice",
      "inputs": [
        {
          "name": "perpId",
          "type": "uint256",
          "indexed": false,
          "internalType": "uint256"
        },
        {
          "name": "accountId",
          "type": "uint256",
          "indexed": false,
          "internalType": "uint256"
        },
        {
          "name": "depositCNS",
          "type": "uint256",
          "indexed": false,
          "internalType": "uint256"
        },
        {
          "name": "posPricePNS",
          "type": "uint256",
          "indexed": false,
          "internalType": "uint256"
        },
        {
          "name": "liqLotLNS",
          "type": "uint256",
          "indexed": false,
          "internalType": "uint256"
        },
        {
          "name": "premiumPnlCNS",
          "type": "int256",
          "indexed": false,
          "internalType": "int256"
        }
      ],
      "anonymous": false
    },
    {
      "type": "event",
      "name": "InvalidExpiryBlock",
      "inputs": [
        {
          "name": "expiryBlock",
          "type": "uint256",
          "indexed": false,
          "internalType": "uint256"
        },
        {
          "name": "blockNumber",
          "type": "uint256",
          "indexed": false,
          "internalType": "uint256"
        }
      ],
      "anonymous": false
    },
    {
      "type": "event",
      "name": "InvalidLinkReportForContract",
      "inputs": [
        {
          "name": "perpId",
          "type": "uint256",
          "indexed": false,
          "internalType": "uint256"
        },
        {
          "name": "perpFeedId",
          "type": "bytes32",
          "indexed": false,
          "internalType": "bytes32"
        },
        {
          "name": "reportFeedId",
          "type": "bytes32",
          "indexed": false,
          "internalType": "bytes32"
        }
      ],
      "anonymous": false
    },
    {
      "type": "event",
      "name": "InvalidLinkReportVersion",
      "inputs": [
        {
          "name": "perpId",
          "type": "uint256",
          "indexed": false,
          "internalType": "uint256"
        },
        {
          "name": "reportVersion",
          "type": "uint256",
          "indexed": false,
          "internalType": "uint256"
        }
      ],
      "anonymous": false
    },
    {
      "type": "event",
      "name": "InvalidLiquidationPrice",
      "inputs": [
        {
          "name": "perpId",
          "type": "uint256",
          "indexed": false,
          "internalType": "uint256"
        },
        {
          "name": "accountId",
          "type": "uint256",
          "indexed": false,
          "internalType": "uint256"
        },
        {
          "name": "depositCNS",
          "type": "uint256",
          "indexed": false,
          "internalType": "uint256"
        },
        {
          "name": "posPricePNS",
          "type": "uint256",
          "indexed": false,
          "internalType": "uint256"
        },
        {
          "name": "liqLotLNS",
          "type": "uint256",
          "indexed": false,
          "internalType": "uint256"
        },
        {
          "name": "premiumPnlCNS",
          "type": "int256",
          "indexed": false,
          "internalType": "int256"
        }
      ],
      "anonymous": false
    },
    {
      "type": "event",
      "name": "InvalidOrderId",
      "inputs": [
        {
          "name": "orderId",
          "type": "uint256",
          "indexed": false,
          "internalType": "uint256"
        },
        {
          "name": "min",
          "type": "uint256",
          "indexed": false,
          "internalType": "uint256"
        },
        {
          "name": "max",
          "type": "uint256",
          "indexed": false,
          "internalType": "uint256"
        }
      ],
      "anonymous": false
    },
    {
      "type": "event",
      "name": "LastForwardedDescIdReset",
      "inputs": [
        {
          "name": "accountId",
          "type": "uint256",
          "indexed": false,
          "internalType": "uint256"
        },
        {
          "name": "newDescId",
          "type": "uint256",
          "indexed": false,
          "internalType": "uint256"
        }
      ],
      "anonymous": false
    },
    {
      "type": "event",
      "name": "LastTriggeredDescIdReset",
      "inputs": [
        {
          "name": "accountId",
          "type": "uint256",
          "indexed": false,
          "internalType": "uint256"
        },
        {
          "name": "newDescId",
          "type": "uint256",
          "indexed": false,
          "internalType": "uint256"
        }
      ],
      "anonymous": false
    },
    {
      "type": "event",
      "name": "LinkDatastreamConfigured",
      "inputs": [
        {
          "name": "verifierProxy",
          "type": "address",
          "indexed": false,
          "internalType": "address"
        }
      ],
      "anonymous": false
    },
    {
      "type": "event",
      "name": "LinkDsError",
      "inputs": [
        {
          "name": "perpId",
          "type": "uint256",
          "indexed": false,
          "internalType": "uint256"
        },
        {
          "name": "reason",
          "type": "string",
          "indexed": false,
          "internalType": "string"
        }
      ],
      "anonymous": false
    },
    {
      "type": "event",
      "name": "LinkDsError",
      "inputs": [
        {
          "name": "perpId",
          "type": "uint256",
          "indexed": false,
          "internalType": "uint256"
        },
        {
          "name": "lowLevelData",
          "type": "bytes",
          "indexed": false,
          "internalType": "bytes"
        }
      ],
      "anonymous": false
    },
    {
      "type": "event",
      "name": "LinkDsPanic",
      "inputs": [
        {
          "name": "perpId",
          "type": "uint256",
          "indexed": false,
          "internalType": "uint256"
        },
        {
          "name": "errorCode",
          "type": "uint256",
          "indexed": false,
          "internalType": "uint256"
        }
      ],
      "anonymous": false
    },
    {
      "type": "event",
      "name": "LinkPriceUpdated",
      "inputs": [
        {
          "name": "perpId",
          "type": "uint256",
          "indexed": false,
          "internalType": "uint256"
        },
        {
          "name": "oraclePricePNS",
          "type": "uint256",
          "indexed": false,
          "internalType": "uint256"
        },
        {
          "name": "timestamp",
          "type": "uint256",
          "indexed": false,
          "internalType": "uint256"
        }
      ],
      "anonymous": false
    },
    {
      "type": "event",
      "name": "LiquidationBuyerUpdated",
      "inputs": [
        {
          "name": "liquidationBuyer",
          "type": "address",
          "indexed": false,
          "internalType": "address"
        },
        {
          "name": "accountId",
          "type": "uint256",
          "indexed": false,
          "internalType": "uint256"
        },
        {
          "name": "added",
          "type": "bool",
          "indexed": false,
          "internalType": "bool"
        }
      ],
      "anonymous": false
    },
    {
      "type": "event",
      "name": "LiquidationParamsUpdated",
      "inputs": [
        {
          "name": "perpId",
          "type": "uint256",
          "indexed": false,
          "internalType": "uint256"
        },
        {
          "name": "insAmtPer100K",
          "type": "uint256",
          "indexed": false,
          "internalType": "uint256"
        },
        {
          "name": "liqAmtPer100K",
          "type": "uint256",
          "indexed": false,
          "internalType": "uint256"
        },
        {
          "name": "userAmtPer100K",
          "type": "uint256",
          "indexed": false,
          "internalType": "uint256"
        }
      ],
      "anonymous": false
    },
    {
      "type": "event",
      "name": "LotOutOfRange",
      "inputs": [
        {
          "name": "minLotLNS",
          "type": "uint256",
          "indexed": false,
          "internalType": "uint256"
        },
        {
          "name": "maxLotLNS",
          "type": "uint256",
          "indexed": false,
          "internalType": "uint256"
        }
      ],
      "anonymous": false
    },
    {
      "type": "event",
      "name": "MaintenanceMarginFractionUpdated",
      "inputs": [
        {
          "name": "perpId",
          "type": "uint256",
          "indexed": false,
          "internalType": "uint256"
        },
        {
          "name": "maintMarginFracHdths",
          "type": "uint256",
          "indexed": false,
          "internalType": "uint256"
        }
      ],
      "anonymous": false
    },
    {
      "type": "event",
      "name": "MakerFeeUpdated",
      "inputs": [
        {
          "name": "perpId",
          "type": "uint256",
          "indexed": false,
          "internalType": "uint256"
        },
        {
          "name": "makerFeePer100K",
          "type": "uint256",
          "indexed": false,
          "internalType": "uint256"
        }
      ],
      "anonymous": false
    },
    {
      "type": "event",
      "name": "MakerOrderFilled",
      "inputs": [
        {
          "name": "perpId",
          "type": "uint256",
          "indexed": false,
          "internalType": "uint256"
        },
        {
          "name": "accountId",
          "type": "uint256",
          "indexed": false,
          "internalType": "uint256"
        },
        {
          "name": "orderId",
          "type": "uint256",
          "indexed": false,
          "internalType": "uint256"
        },
        {
          "name": "pricePNS",
          "type": "uint256",
          "indexed": false,
          "internalType": "uint256"
        },
        {
          "name": "lotLNS",
          "type": "uint256",
          "indexed": false,
          "internalType": "uint256"
        },
        {
          "name": "feeCNS",
          "type": "uint256",
          "indexed": false,
          "internalType": "uint256"
        },
        {
          "name": "lockedBalanceCNS",
          "type": "uint256",
          "indexed": false,
          "internalType": "uint256"
        },
        {
          "name": "amountCNS",
          "type": "int256",
          "indexed": false,
          "internalType": "int256"
        },
        {
          "name": "balanceCNS",
          "type": "uint256",
          "indexed": false,
          "internalType": "uint256"
        }
      ],
      "anonymous": false
    },
    {
      "type": "event",
      "name": "MakerOrderSettlementFailed",
      "inputs": [
        {
          "name": "perpId",
          "type": "uint256",
          "indexed": false,
          "internalType": "uint256"
        },
        {
          "name": "accountId",
          "type": "uint256",
          "indexed": false,
          "internalType": "uint256"
        },
        {
          "name": "orderId",
          "type": "uint256",
          "indexed": false,
          "internalType": "uint256"
        },
        {
          "name": "orderType",
          "type": "uint8",
          "indexed": false,
          "internalType": "enum OrderEnum"
        },
        {
          "name": "pricePNS",
          "type": "uint256",
          "indexed": false,
          "internalType": "uint256"
        },
        {
          "name": "lotLNS",
          "type": "uint256",
          "indexed": false,
          "internalType": "uint256"
        },
        {
          "name": "maxSlippageBps",
          "type": "uint256",
          "indexed": false,
          "internalType": "uint256"
        },
        {
          "name": "reason",
          "type": "uint256",
          "indexed": false,
          "internalType": "uint256"
        },
        {
          "name": "lockedBalanceCNS",
          "type": "uint256",
          "indexed": false,
          "internalType": "uint256"
        },
        {
          "name": "recyclerAccountId",
          "type": "uint256",
          "indexed": false,
          "internalType": "uint256"
        },
        {
          "name": "recyclerAmountCNS",
          "type": "int256",
          "indexed": false,
          "internalType": "int256"
        },
        {
          "name": "recyclerBalanceCNS",
          "type": "uint256",
          "indexed": false,
          "internalType": "uint256"
        }
      ],
      "anonymous": false
    },
    {
      "type": "event",
      "name": "MarginTolUpdated",
      "inputs": [
        {
          "name": "perpId",
          "type": "uint256",
          "indexed": false,
          "internalType": "uint256"
        },
        {
          "name": "tolerance",
          "type": "uint256",
          "indexed": false,
          "internalType": "uint256"
        },
        {
          "name": "decimals",
          "type": "uint256",
          "indexed": false,
          "internalType": "uint256"
        }
      ],
      "anonymous": false
    },
    {
      "type": "event",
      "name": "MarkExceedsTol",
      "inputs": [
        {
          "name": "perpId",
          "type": "uint256",
          "indexed": false,
          "internalType": "uint256"
        },
        {
          "name": "markPNS",
          "type": "uint256",
          "indexed": false,
          "internalType": "uint256"
        },
        {
          "name": "spotOraclePricePNS",
          "type": "uint256",
          "indexed": false,
          "internalType": "uint256"
        },
        {
          "name": "tolerancePer100k",
          "type": "uint256",
          "indexed": false,
          "internalType": "uint256"
        }
      ],
      "anonymous": false
    },
    {
      "type": "event",
      "name": "MarkPriceAgeExceedsMax",
      "inputs": [
        {
          "name": "perpId",
          "type": "uint256",
          "indexed": false,
          "internalType": "uint256"
        },
        {
          "name": "markTimestamp",
          "type": "uint256",
          "indexed": false,
          "internalType": "uint256"
        },
        {
          "name": "timestamp",
          "type": "uint256",
          "indexed": false,
          "internalType": "uint256"
        },
        {
          "name": "maxAgeSec",
          "type": "uint256",
          "indexed": false,
          "internalType": "uint256"
        }
      ],
      "anonymous": false
    },
    {
      "type": "event",
      "name": "MarkUpdated",
      "inputs": [
        {
          "name": "perpId",
          "type": "uint256",
          "indexed": false,
          "internalType": "uint256"
        },
        {
          "name": "pricePNS",
          "type": "uint256",
          "indexed": false,
          "internalType": "uint256"
        }
      ],
      "anonymous": false
    },
    {
      "type": "event",
      "name": "MaxMatchesReached",
      "inputs": [],
      "anonymous": false
    },
    {
      "type": "event",
      "name": "MaxOpenInterestUpdated",
      "inputs": [
        {
          "name": "perpId",
          "type": "uint256",
          "indexed": false,
          "internalType": "uint256"
        },
        {
          "name": "maxOpenInterestLNS",
          "type": "uint256",
          "indexed": false,
          "internalType": "uint256"
        }
      ],
      "anonymous": false
    },
    {
      "type": "event",
      "name": "MaximumAccountOrders",
      "inputs": [
        {
          "name": "perpId",
          "type": "uint256",
          "indexed": false,
          "internalType": "uint256"
        },
        {
          "name": "accountId",
          "type": "uint256",
          "indexed": false,
          "internalType": "uint256"
        }
      ],
      "anonymous": false
    },
    {
      "type": "event",
      "name": "MinAccountOpenAmountUpdated",
      "inputs": [
        {
          "name": "minAccountOpenCNS",
          "type": "uint256",
          "indexed": false,
          "internalType": "uint256"
        }
      ],
      "anonymous": false
    },
    {
      "type": "event",
      "name": "MinPostUpdated",
      "inputs": [
        {
          "name": "minPostCNS",
          "type": "uint256",
          "indexed": false,
          "internalType": "uint256"
        }
      ],
      "anonymous": false
    },
    {
      "type": "event",
      "name": "MinSettleUpdated",
      "inputs": [
        {
          "name": "minSettleCNS",
          "type": "uint256",
          "indexed": false,
          "internalType": "uint256"
        }
      ],
      "anonymous": false
    },
    {
      "type": "event",
      "name": "OracleAgeExceedsMax",
      "inputs": [
        {
          "name": "perpId",
          "type": "uint256",
          "indexed": false,
          "internalType": "uint256"
        },
        {
          "name": "oracleTimestamp",
          "type": "uint256",
          "indexed": false,
          "internalType": "uint256"
        },
        {
          "name": "timestamp",
          "type": "uint256",
          "indexed": false,
          "internalType": "uint256"
        },
        {
          "name": "maxAgeSec",
          "type": "uint256",
          "indexed": false,
          "internalType": "uint256"
        }
      ],
      "anonymous": false
    },
    {
      "type": "event",
      "name": "OracleDisabled",
      "inputs": [
        {
          "name": "perpId",
          "type": "uint256",
          "indexed": false,
          "internalType": "uint256"
        }
      ],
      "anonymous": false
    },
    {
      "type": "event",
      "name": "OrderBatchCompleted",
      "inputs": [
        {
          "name": "gasLeft",
          "type": "uint256",
          "indexed": false,
          "internalType": "uint256"
        }
      ],
      "anonymous": false
    },
    {
      "type": "event",
      "name": "OrderCancelled",
      "inputs": [
        {
          "name": "lockedBalanceCNS",
          "type": "uint256",
          "indexed": false,
          "internalType": "uint256"
        },
        {
          "name": "amountCNS",
          "type": "int256",
          "indexed": false,
          "internalType": "int256"
        },
        {
          "name": "balanceCNS",
          "type": "uint256",
          "indexed": false,
          "internalType": "uint256"
        }
      ],
      "anonymous": false
    },
    {
      "type": "event",
      "name": "OrderCancelledByAdmin",
      "inputs": [
        {
          "name": "perpId",
          "type": "uint256",
          "indexed": false,
          "internalType": "uint256"
        },
        {
          "name": "accountId",
          "type": "uint256",
          "indexed": false,
          "internalType": "uint256"
        },
        {
          "name": "orderId",
          "type": "uint256",
          "indexed": false,
          "internalType": "uint256"
        },
        {
          "name": "lockedBalanceCNS",
          "type": "uint256",
          "indexed": false,
          "internalType": "uint256"
        }
      ],
      "anonymous": false
    },
    {
      "type": "event",
      "name": "OrderCancelledByLiquidator",
      "inputs": [
        {
          "name": "perpId",
          "type": "uint256",
          "indexed": false,
          "internalType": "uint256"
        },
        {
          "name": "accountId",
          "type": "uint256",
          "indexed": false,
          "internalType": "uint256"
        },
        {
          "name": "orderId",
          "type": "uint256",
          "indexed": false,
          "internalType": "uint256"
        },
        {
          "name": "lockedBalanceCNS",
          "type": "uint256",
          "indexed": false,
          "internalType": "uint256"
        }
      ],
      "anonymous": false
    },
    {
      "type": "event",
      "name": "OrderChanged",
      "inputs": [
        {
          "name": "orderId",
          "type": "uint256",
          "indexed": false,
          "internalType": "uint256"
        },
        {
          "name": "pricePNS",
          "type": "uint256",
          "indexed": false,
          "internalType": "uint256"
        },
        {
          "name": "lotLNS",
          "type": "uint256",
          "indexed": false,
          "internalType": "uint256"
        },
        {
          "name": "expiryBlock",
          "type": "uint256",
          "indexed": false,
          "internalType": "uint256"
        },
        {
          "name": "lockedBalanceCNS",
          "type": "uint256",
          "indexed": false,
          "internalType": "uint256"
        },
        {
          "name": "balanceCNS",
          "type": "uint256",
          "indexed": false,
          "internalType": "uint256"
        }
      ],
      "anonymous": false
    },
    {
      "type": "event",
      "name": "OrderDescIdTooLow",
      "inputs": [
        {
          "name": "lastOrderDescId",
          "type": "uint256",
          "indexed": false,
          "internalType": "uint256"
        }
      ],
      "anonymous": false
    },
    {
      "type": "event",
      "name": "OrderDoesNotExist",
      "inputs": [
        {
          "name": "perpId",
          "type": "uint256",
          "indexed": false,
          "internalType": "uint256"
        },
        {
          "name": "orderId",
          "type": "uint256",
          "indexed": false,
          "internalType": "uint256"
        }
      ],
      "anonymous": false
    },
    {
      "type": "event",
      "name": "OrderForwardingNotAllowed",
      "inputs": [],
      "anonymous": false
    },
    {
      "type": "event",
      "name": "OrderForwardingUpdated",
      "inputs": [
        {
          "name": "accountId",
          "type": "uint256",
          "indexed": false,
          "internalType": "uint256"
        },
        {
          "name": "allowed",
          "type": "bool",
          "indexed": false,
          "internalType": "bool"
        }
      ],
      "anonymous": false
    },
    {
      "type": "event",
      "name": "OrderPlaced",
      "inputs": [
        {
          "name": "orderId",
          "type": "uint256",
          "indexed": false,
          "internalType": "uint256"
        },
        {
          "name": "lotLNS",
          "type": "uint256",
          "indexed": false,
          "internalType": "uint256"
        },
        {
          "name": "lockedBalanceCNS",
          "type": "uint256",
          "indexed": false,
          "internalType": "uint256"
        },
        {
          "name": "amountCNS",
          "type": "int256",
          "indexed": false,
          "internalType": "int256"
        },
        {
          "name": "balanceCNS",
          "type": "uint256",
          "indexed": false,
          "internalType": "uint256"
        }
      ],
      "anonymous": false
    },
    {
      "type": "event",
      "name": "OrderPostFailed",
      "inputs": [
        {
          "name": "reason",
          "type": "uint256",
          "indexed": false,
          "internalType": "uint256"
        }
      ],
      "anonymous": false
    },
    {
      "type": "event",
      "name": "OrderRequest",
      "inputs": [
        {
          "name": "perpId",
          "type": "uint256",
          "indexed": false,
          "internalType": "uint256"
        },
        {
          "name": "accountId",
          "type": "uint256",
          "indexed": false,
          "internalType": "uint256"
        },
        {
          "name": "orderDescId",
          "type": "uint256",
          "indexed": false,
          "internalType": "uint256"
        },
        {
          "name": "orderId",
          "type": "uint256",
          "indexed": false,
          "internalType": "uint256"
        },
        {
          "name": "orderType",
          "type": "uint8",
          "indexed": false,
          "internalType": "enum OrderDescEnum"
        },
        {
          "name": "pricePNS",
          "type": "uint256",
          "indexed": false,
          "internalType": "uint256"
        },
        {
          "name": "lotLNS",
          "type": "uint256",
          "indexed": false,
          "internalType": "uint256"
        },
        {
          "name": "expiryBlock",
          "type": "uint256",
          "indexed": false,
          "internalType": "uint256"
        },
        {
          "name": "postOnly",
          "type": "bool",
          "indexed": false,
          "internalType": "bool"
        },
        {
          "name": "fillOrKill",
          "type": "bool",
          "indexed": false,
          "internalType": "bool"
        },
        {
          "name": "immediateOrCancel",
          "type": "bool",
          "indexed": false,
          "internalType": "bool"
        },
        {
          "name": "maxMatches",
          "type": "uint256",
          "indexed": false,
          "internalType": "uint256"
        },
        {
          "name": "leverageHdths",
          "type": "uint256",
          "indexed": false,
          "internalType": "uint256"
        },
        {
          "name": "lastExecutionBlock",
          "type": "uint256",
          "indexed": false,
          "internalType": "uint256"
        },
        {
          "name": "amountCNS",
          "type": "uint256",
          "indexed": false,
          "internalType": "uint256"
        },
        {
          "name": "maxSlippageBps",
          "type": "uint256",
          "indexed": false,
          "internalType": "uint256"
        },
        {
          "name": "gasLeft",
          "type": "uint256",
          "indexed": false,
          "internalType": "uint256"
        }
      ],
      "anonymous": false
    },
    {
      "type": "event",
      "name": "OrderSettlementImpliesInsolvent",
      "inputs": [
        {
          "name": "perpId",
          "type": "uint256",
          "indexed": false,
          "internalType": "uint256"
        },
        {
          "name": "accountId",
          "type": "uint256",
          "indexed": false,
          "internalType": "uint256"
        },
        {
          "name": "orderType",
          "type": "uint8",
          "indexed": false,
          "internalType": "enum OrderEnum"
        },
        {
          "name": "pricePNS",
          "type": "uint256",
          "indexed": false,
          "internalType": "uint256"
        },
        {
          "name": "lotLNS",
          "type": "uint256",
          "indexed": false,
          "internalType": "uint256"
        },
        {
          "name": "perpPositionBalCNS",
          "type": "uint256",
          "indexed": false,
          "internalType": "uint256"
        },
        {
          "name": "perpInsuranceBalCNS",
          "type": "uint256",
          "indexed": false,
          "internalType": "uint256"
        },
        {
          "name": "addedPosCollatReqCNS",
          "type": "uint256",
          "indexed": false,
          "internalType": "uint256"
        },
        {
          "name": "requestedAmountCNS",
          "type": "uint256",
          "indexed": false,
          "internalType": "uint256"
        }
      ],
      "anonymous": false
    },
    {
      "type": "event",
      "name": "OrderSizeExceedsAvailableSize",
      "inputs": [
        {
          "name": "orderLotLNS",
          "type": "uint256",
          "indexed": false,
          "internalType": "uint256"
        },
        {
          "name": "availableLotLNS",
          "type": "uint256",
          "indexed": false,
          "internalType": "uint256"
        },
        {
          "name": "positionLotLNS",
          "type": "uint256",
          "indexed": false,
          "internalType": "uint256"
        }
      ],
      "anonymous": false
    },
    {
      "type": "event",
      "name": "OverCollatDescentThreshUpdated",
      "inputs": [
        {
          "name": "perpId",
          "type": "uint256",
          "indexed": false,
          "internalType": "uint256"
        },
        {
          "name": "threshHdths",
          "type": "uint256",
          "indexed": false,
          "internalType": "uint256"
        }
      ],
      "anonymous": false
    },
    {
      "type": "event",
      "name": "OwnershipTransferStarted",
      "inputs": [
        {
          "name": "previousOwner",
          "type": "address",
          "indexed": true,
          "internalType": "address"
        },
        {
          "name": "newOwner",
          "type": "address",
          "indexed": true,
          "internalType": "address"
        }
      ],
      "anonymous": false
    },
    {
      "type": "event",
      "name": "OwnershipTransferred",
      "inputs": [
        {
          "name": "previousOwner",
          "type": "address",
          "indexed": true,
          "internalType": "address"
        },
        {
          "name": "newOwner",
          "type": "address",
          "indexed": true,
          "internalType": "address"
        }
      ],
      "anonymous": false
    },
    {
      "type": "event",
      "name": "PermissonedCancelParamsUpdated",
      "inputs": [
        {
          "name": "cancelMinOrders",
          "type": "uint256",
          "indexed": false,
          "internalType": "uint256"
        },
        {
          "name": "cancelSegment",
          "type": "uint256",
          "indexed": false,
          "internalType": "uint256"
        }
      ],
      "anonymous": false
    },
    {
      "type": "event",
      "name": "PerpPositionBalCreditPositiveSevere",
      "inputs": [
        {
          "name": "perpId",
          "type": "uint256",
          "indexed": false,
          "internalType": "uint256"
        },
        {
          "name": "accountId",
          "type": "uint256",
          "indexed": false,
          "internalType": "uint256"
        },
        {
          "name": "realizedPricePNS",
          "type": "uint256",
          "indexed": false,
          "internalType": "uint256"
        },
        {
          "name": "lotLNS",
          "type": "uint256",
          "indexed": false,
          "internalType": "uint256"
        },
        {
          "name": "userProceedsToPosition",
          "type": "bool",
          "indexed": false,
          "internalType": "bool"
        },
        {
          "name": "buyToLiquidate",
          "type": "bool",
          "indexed": false,
          "internalType": "bool"
        },
        {
          "name": "creditPerpBalCNS",
          "type": "int256",
          "indexed": false,
          "internalType": "int256"
        }
      ],
      "anonymous": false
    },
    {
      "type": "event",
      "name": "PositionAdministratorUpdated",
      "inputs": [
        {
          "name": "positionAdministrator",
          "type": "address",
          "indexed": false,
          "internalType": "address"
        },
        {
          "name": "added",
          "type": "bool",
          "indexed": false,
          "internalType": "bool"
        }
      ],
      "anonymous": false
    },
    {
      "type": "event",
      "name": "PositionClosed",
      "inputs": [
        {
          "name": "perpId",
          "type": "uint256",
          "indexed": false,
          "internalType": "uint256"
        },
        {
          "name": "accountId",
          "type": "uint256",
          "indexed": false,
          "internalType": "uint256"
        },
        {
          "name": "positionType",
          "type": "uint8",
          "indexed": false,
          "internalType": "enum PositionEnum"
        },
        {
          "name": "pricePNS",
          "type": "uint256",
          "indexed": false,
          "internalType": "uint256"
        },
        {
          "name": "deltaPnlCNS",
          "type": "int256",
          "indexed": false,
          "internalType": "int256"
        },
        {
          "name": "fundingCNS",
          "type": "int256",
          "indexed": false,
          "internalType": "int256"
        }
      ],
      "anonymous": false
    },
    {
      "type": "event",
      "name": "PositionCollateralDecreased",
      "inputs": [
        {
          "name": "perpId",
          "type": "uint256",
          "indexed": false,
          "internalType": "uint256"
        },
        {
          "name": "accountId",
          "type": "uint256",
          "indexed": false,
          "internalType": "uint256"
        },
        {
          "name": "positionType",
          "type": "uint8",
          "indexed": false,
          "internalType": "enum PositionEnum"
        },
        {
          "name": "markPricePNS",
          "type": "uint256",
          "indexed": false,
          "internalType": "uint256"
        },
        {
          "name": "impactAdjPricePNS",
          "type": "uint256",
          "indexed": false,
          "internalType": "uint256"
        },
        {
          "name": "startDepositCNS",
          "type": "uint256",
          "indexed": false,
          "internalType": "uint256"
        },
        {
          "name": "endDepositCNS",
          "type": "uint256",
          "indexed": false,
          "internalType": "uint256"
        },
        {
          "name": "startEntryPricePNS",
          "type": "uint256",
          "indexed": false,
          "internalType": "uint256"
        },
        {
          "name": "endEntryPricePNS",
          "type": "uint256",
          "indexed": false,
          "internalType": "uint256"
        },
        {
          "name": "effBmfHdths",
          "type": "uint256",
          "indexed": false,
          "internalType": "uint256"
        },
        {
          "name": "decreaseCNS",
          "type": "uint256",
          "indexed": false,
          "internalType": "uint256"
        },
        {
          "name": "balanceCNS",
          "type": "uint256",
          "indexed": false,
          "internalType": "uint256"
        }
      ],
      "anonymous": false
    },
    {
      "type": "event",
      "name": "PositionDecreased",
      "inputs": [
        {
          "name": "perpId",
          "type": "uint256",
          "indexed": false,
          "internalType": "uint256"
        },
        {
          "name": "accountId",
          "type": "uint256",
          "indexed": false,
          "internalType": "uint256"
        },
        {
          "name": "positionType",
          "type": "uint8",
          "indexed": false,
          "internalType": "enum PositionEnum"
        },
        {
          "name": "startDepositCNS",
          "type": "uint256",
          "indexed": false,
          "internalType": "uint256"
        },
        {
          "name": "endDepositCNS",
          "type": "uint256",
          "indexed": false,
          "internalType": "uint256"
        },
        {
          "name": "startLotLNS",
          "type": "uint256",
          "indexed": false,
          "internalType": "uint256"
        },
        {
          "name": "endLotLNS",
          "type": "uint256",
          "indexed": false,
          "internalType": "uint256"
        },
        {
          "name": "deltaPnlCNS",
          "type": "int256",
          "indexed": false,
          "internalType": "int256"
        },
        {
          "name": "fundingCNS",
          "type": "int256",
          "indexed": false,
          "internalType": "int256"
        }
      ],
      "anonymous": false
    },
    {
      "type": "event",
      "name": "PositionDeleveraged",
      "inputs": [
        {
          "name": "perpId",
          "type": "uint256",
          "indexed": false,
          "internalType": "uint256"
        },
        {
          "name": "accountId",
          "type": "uint256",
          "indexed": false,
          "internalType": "uint256"
        },
        {
          "name": "forceClose",
          "type": "bool",
          "indexed": false,
          "internalType": "bool"
        },
        {
          "name": "positionType",
          "type": "uint8",
          "indexed": false,
          "internalType": "enum PositionEnum"
        },
        {
          "name": "entryPricePNS",
          "type": "uint256",
          "indexed": false,
          "internalType": "uint256"
        },
        {
          "name": "markPricePNS",
          "type": "uint256",
          "indexed": false,
          "internalType": "uint256"
        },
        {
          "name": "deleveragePricePNS",
          "type": "uint256",
          "indexed": false,
          "internalType": "uint256"
        },
        {
          "name": "deltaPnlCNS",
          "type": "int256",
          "indexed": false,
          "internalType": "int256"
        },
        {
          "name": "fundingCNS",
          "type": "int256",
          "indexed": false,
          "internalType": "int256"
        },
        {
          "name": "startDepositCNS",
          "type": "uint256",
          "indexed": false,
          "internalType": "uint256"
        },
        {
          "name": "endDepositCNS",
          "type": "uint256",
          "indexed": false,
          "internalType": "uint256"
        },
        {
          "name": "startLotLNS",
          "type": "uint256",
          "indexed": false,
          "internalType": "uint256"
        },
        {
          "name": "endLotLNS",
          "type": "uint256",
          "indexed": false,
          "internalType": "uint256"
        },
        {
          "name": "amountCNS",
          "type": "uint256",
          "indexed": false,
          "internalType": "uint256"
        },
        {
          "name": "balanceCNS",
          "type": "uint256",
          "indexed": false,
          "internalType": "uint256"
        }
      ],
      "anonymous": false
    },
    {
      "type": "event",
      "name": "PositionDoesNotExist",
      "inputs": [
        {
          "name": "perpId",
          "type": "uint256",
          "indexed": false,
          "internalType": "uint256"
        },
        {
          "name": "accountId",
          "type": "uint256",
          "indexed": false,
          "internalType": "uint256"
        }
      ],
      "anonymous": false
    },
    {
      "type": "event",
      "name": "PositionIncreased",
      "inputs": [
        {
          "name": "perpId",
          "type": "uint256",
          "indexed": false,
          "internalType": "uint256"
        },
        {
          "name": "accountId",
          "type": "uint256",
          "indexed": false,
          "internalType": "uint256"
        },
        {
          "name": "positionType",
          "type": "uint8",
          "indexed": false,
          "internalType": "enum PositionEnum"
        },
        {
          "name": "leverageHdths",
          "type": "uint256",
          "indexed": false,
          "internalType": "uint256"
        },
        {
          "name": "startDepositCNS",
          "type": "uint256",
          "indexed": false,
          "internalType": "uint256"
        },
        {
          "name": "endDepositCNS",
          "type": "uint256",
          "indexed": false,
          "internalType": "uint256"
        },
        {
          "name": "pnlCollateralizedCNS",
          "type": "int256",
          "indexed": false,
          "internalType": "int256"
        },
        {
          "name": "premiumPnlSettledCNS",
          "type": "int256",
          "indexed": false,
          "internalType": "int256"
        },
        {
          "name": "maxSlippageBps",
          "type": "uint256",
          "indexed": false,
          "internalType": "uint256"
        },
        {
          "name": "pricePNS",
          "type": "uint256",
          "indexed": false,
          "internalType": "uint256"
        },
        {
          "name": "startLotLNS",
          "type": "uint256",
          "indexed": false,
          "internalType": "uint256"
        },
        {
          "name": "endLotLNS",
          "type": "uint256",
          "indexed": false,
          "internalType": "uint256"
        },
        {
          "name": "insFeeCNS",
          "type": "uint256",
          "indexed": false,
          "internalType": "uint256"
        },
        {
          "name": "protFeeCNS",
          "type": "uint256",
          "indexed": false,
          "internalType": "uint256"
        }
      ],
      "anonymous": false
    },
    {
      "type": "event",
      "name": "PositionInverted",
      "inputs": [
        {
          "name": "perpId",
          "type": "uint256",
          "indexed": false,
          "internalType": "uint256"
        },
        {
          "name": "accountId",
          "type": "uint256",
          "indexed": false,
          "internalType": "uint256"
        },
        {
          "name": "positionType",
          "type": "uint8",
          "indexed": false,
          "internalType": "enum PositionEnum"
        },
        {
          "name": "leverageHdths",
          "type": "uint256",
          "indexed": false,
          "internalType": "uint256"
        },
        {
          "name": "startDepositCNS",
          "type": "uint256",
          "indexed": false,
          "internalType": "uint256"
        },
        {
          "name": "endDepositCNS",
          "type": "uint256",
          "indexed": false,
          "internalType": "uint256"
        },
        {
          "name": "pnlCollateralizedCNS",
          "type": "int256",
          "indexed": false,
          "internalType": "int256"
        },
        {
          "name": "pricePNS",
          "type": "uint256",
          "indexed": false,
          "internalType": "uint256"
        },
        {
          "name": "startLotLNS",
          "type": "uint256",
          "indexed": false,
          "internalType": "uint256"
        },
        {
          "name": "endLotLNS",
          "type": "uint256",
          "indexed": false,
          "internalType": "uint256"
        },
        {
          "name": "deltaPnlCNS",
          "type": "int256",
          "indexed": false,
          "internalType": "int256"
        },
        {
          "name": "fundingCNS",
          "type": "int256",
          "indexed": false,
          "internalType": "int256"
        },
        {
          "name": "insFeeCNS",
          "type": "uint256",
          "indexed": false,
          "internalType": "uint256"
        },
        {
          "name": "protFeeCNS",
          "type": "uint256",
          "indexed": false,
          "internalType": "uint256"
        }
      ],
      "anonymous": false
    },
    {
      "type": "event",
      "name": "PositionLiquidated",
      "inputs": [
        {
          "name": "perpId",
          "type": "uint256",
          "indexed": false,
          "internalType": "uint256"
        },
        {
          "name": "posAccountId",
          "type": "uint256",
          "indexed": false,
          "internalType": "uint256"
        },
        {
          "name": "positionType",
          "type": "uint8",
          "indexed": false,
          "internalType": "enum PositionEnum"
        },
        {
          "name": "markPricePNS",
          "type": "uint256",
          "indexed": false,
          "internalType": "uint256"
        },
        {
          "name": "liqPricePNS",
          "type": "uint256",
          "indexed": false,
          "internalType": "uint256"
        },
        {
          "name": "liqLotLNS",
          "type": "uint256",
          "indexed": false,
          "internalType": "uint256"
        },
        {
          "name": "posLotLNS",
          "type": "uint256",
          "indexed": false,
          "internalType": "uint256"
        },
        {
          "name": "deltaPnlCNS",
          "type": "int256",
          "indexed": false,
          "internalType": "int256"
        },
        {
          "name": "fundingCNS",
          "type": "int256",
          "indexed": false,
          "internalType": "int256"
        },
        {
          "name": "posAmountCNS",
          "type": "int256",
          "indexed": false,
          "internalType": "int256"
        },
        {
          "name": "posDepositCNS",
          "type": "uint256",
          "indexed": false,
          "internalType": "uint256"
        },
        {
          "name": "accAmountCNS",
          "type": "int256",
          "indexed": false,
          "internalType": "int256"
        },
        {
          "name": "accBalanceCNS",
          "type": "uint256",
          "indexed": false,
          "internalType": "uint256"
        },
        {
          "name": "onOrderBook",
          "type": "bool",
          "indexed": false,
          "internalType": "bool"
        }
      ],
      "anonymous": false
    },
    {
      "type": "event",
      "name": "PositionLiquidationCredit",
      "inputs": [
        {
          "name": "perpId",
          "type": "uint256",
          "indexed": false,
          "internalType": "uint256"
        },
        {
          "name": "accountId",
          "type": "uint256",
          "indexed": false,
          "internalType": "uint256"
        },
        {
          "name": "startDepositCNS",
          "type": "uint256",
          "indexed": false,
          "internalType": "uint256"
        },
        {
          "name": "endDepositCNS",
          "type": "uint256",
          "indexed": false,
          "internalType": "uint256"
        }
      ],
      "anonymous": false
    },
    {
      "type": "event",
      "name": "PositionOpened",
      "inputs": [
        {
          "name": "perpId",
          "type": "uint256",
          "indexed": false,
          "internalType": "uint256"
        },
        {
          "name": "accountId",
          "type": "uint256",
          "indexed": false,
          "internalType": "uint256"
        },
        {
          "name": "positionType",
          "type": "uint8",
          "indexed": false,
          "internalType": "enum PositionEnum"
        },
        {
          "name": "leverageHdths",
          "type": "uint256",
          "indexed": false,
          "internalType": "uint256"
        },
        {
          "name": "depositCNS",
          "type": "uint256",
          "indexed": false,
          "internalType": "uint256"
        },
        {
          "name": "pnlCollateralizedCNS",
          "type": "int256",
          "indexed": false,
          "internalType": "int256"
        },
        {
          "name": "pricePNS",
          "type": "uint256",
          "indexed": false,
          "internalType": "uint256"
        },
        {
          "name": "lotLNS",
          "type": "uint256",
          "indexed": false,
          "internalType": "uint256"
        },
        {
          "name": "insFeeCNS",
          "type": "uint256",
          "indexed": false,
          "internalType": "uint256"
        },
        {
          "name": "protFeeCNS",
          "type": "uint256",
          "indexed": false,
          "internalType": "uint256"
        }
      ],
      "anonymous": false
    },
    {
      "type": "event",
      "name": "PositionUnwound",
      "inputs": [
        {
          "name": "perpId",
          "type": "uint256",
          "indexed": false,
          "internalType": "uint256"
        },
        {
          "name": "accountId",
          "type": "uint256",
          "indexed": false,
          "internalType": "uint256"
        },
        {
          "name": "markPricePNS",
          "type": "uint256",
          "indexed": false,
          "internalType": "uint256"
        },
        {
          "name": "positionType",
          "type": "uint8",
          "indexed": false,
          "internalType": "enum PositionEnum"
        },
        {
          "name": "pricePNS",
          "type": "uint256",
          "indexed": false,
          "internalType": "uint256"
        },
        {
          "name": "lotLNS",
          "type": "uint256",
          "indexed": false,
          "internalType": "uint256"
        },
        {
          "name": "depositCNS",
          "type": "uint256",
          "indexed": false,
          "internalType": "uint256"
        },
        {
          "name": "positionFmvCNS",
          "type": "int256",
          "indexed": false,
          "internalType": "int256"
        },
        {
          "name": "paymentCNS",
          "type": "uint256",
          "indexed": false,
          "internalType": "uint256"
        },
        {
          "name": "balanceCNS",
          "type": "uint256",
          "indexed": false,
          "internalType": "uint256"
        }
      ],
      "anonymous": false
    },
    {
      "type": "event",
      "name": "PositionUnwoundWithoutPayment",
      "inputs": [
        {
          "name": "perpId",
          "type": "uint256",
          "indexed": false,
          "internalType": "uint256"
        },
        {
          "name": "accountId",
          "type": "uint256",
          "indexed": false,
          "internalType": "uint256"
        },
        {
          "name": "markPricePNS",
          "type": "uint256",
          "indexed": false,
          "internalType": "uint256"
        },
        {
          "name": "positionType",
          "type": "uint8",
          "indexed": false,
          "internalType": "enum PositionEnum"
        },
        {
          "name": "pricePNS",
          "type": "uint256",
          "indexed": false,
          "internalType": "uint256"
        },
        {
          "name": "lotLNS",
          "type": "uint256",
          "indexed": false,
          "internalType": "uint256"
        },
        {
          "name": "depositCNS",
          "type": "uint256",
          "indexed": false,
          "internalType": "uint256"
        },
        {
          "name": "positionFmvCNS",
          "type": "int256",
          "indexed": false,
          "internalType": "int256"
        },
        {
          "name": "amountOwedCNS",
          "type": "uint256",
          "indexed": false,
          "internalType": "uint256"
        }
      ],
      "anonymous": false
    },
    {
      "type": "event",
      "name": "PostOrderUnderMinimum",
      "inputs": [
        {
          "name": "orderAmountCNS",
          "type": "uint256",
          "indexed": false,
          "internalType": "uint256"
        },
        {
          "name": "minAmountCNS",
          "type": "uint256",
          "indexed": false,
          "internalType": "uint256"
        }
      ],
      "anonymous": false
    },
    {
      "type": "event",
      "name": "PriceAdministratorUpdated",
      "inputs": [
        {
          "name": "priceAdministrator",
          "type": "address",
          "indexed": false,
          "internalType": "address"
        },
        {
          "name": "added",
          "type": "bool",
          "indexed": false,
          "internalType": "bool"
        }
      ],
      "anonymous": false
    },
    {
      "type": "event",
      "name": "PriceMaxAgeUpdated",
      "inputs": [
        {
          "name": "perpId",
          "type": "uint256",
          "indexed": false,
          "internalType": "uint256"
        },
        {
          "name": "maxAgeSec",
          "type": "uint256",
          "indexed": false,
          "internalType": "uint256"
        }
      ],
      "anonymous": false
    },
    {
      "type": "event",
      "name": "PriceOutOfRange",
      "inputs": [
        {
          "name": "minPricePNS",
          "type": "uint256",
          "indexed": false,
          "internalType": "uint256"
        },
        {
          "name": "maxPricePNS",
          "type": "uint256",
          "indexed": false,
          "internalType": "uint256"
        }
      ],
      "anonymous": false
    },
    {
      "type": "event",
      "name": "PriceSetDuringTriggerExec",
      "inputs": [
        {
          "name": "triggerPricePNS",
          "type": "uint256",
          "indexed": false,
          "internalType": "uint256"
        }
      ],
      "anonymous": false
    },
    {
      "type": "event",
      "name": "PriceTolUpdated",
      "inputs": [
        {
          "name": "perpId",
          "type": "uint256",
          "indexed": false,
          "internalType": "uint256"
        },
        {
          "name": "tolPer100k",
          "type": "uint256",
          "indexed": false,
          "internalType": "uint256"
        }
      ],
      "anonymous": false
    },
    {
      "type": "event",
      "name": "ProtocolBalanceDeposit",
      "inputs": [
        {
          "name": "amountCNS",
          "type": "uint256",
          "indexed": false,
          "internalType": "uint256"
        }
      ],
      "anonymous": false
    },
    {
      "type": "event",
      "name": "ProtocolBalanceWithdraw",
      "inputs": [
        {
          "name": "amountCNS",
          "type": "uint256",
          "indexed": false,
          "internalType": "uint256"
        }
      ],
      "anonymous": false
    },
    {
      "type": "event",
      "name": "RecycleBalanceInsufficientSevere",
      "inputs": [
        {
          "name": "accountId",
          "type": "uint256",
          "indexed": false,
          "internalType": "uint256"
        },
        {
          "name": "perpId",
          "type": "uint256",
          "indexed": false,
          "internalType": "uint256"
        },
        {
          "name": "orderId",
          "type": "uint256",
          "indexed": false,
          "internalType": "uint256"
        },
        {
          "name": "recycleFeeCNS",
          "type": "uint256",
          "indexed": false,
          "internalType": "uint256"
        },
        {
          "name": "recycleBalanceCNS",
          "type": "uint256",
          "indexed": false,
          "internalType": "uint256"
        }
      ],
      "anonymous": false
    },
    {
      "type": "event",
      "name": "RecycleFeeToAccount",
      "inputs": [
        {
          "name": "accountId",
          "type": "uint256",
          "indexed": false,
          "internalType": "uint256"
        },
        {
          "name": "perpId",
          "type": "uint256",
          "indexed": false,
          "internalType": "uint256"
        },
        {
          "name": "orderId",
          "type": "uint256",
          "indexed": false,
          "internalType": "uint256"
        },
        {
          "name": "recycleFeeCNS",
          "type": "uint256",
          "indexed": false,
          "internalType": "uint256"
        },
        {
          "name": "recycleBalanceCNS",
          "type": "uint256",
          "indexed": false,
          "internalType": "uint256"
        }
      ],
      "anonymous": false
    },
    {
      "type": "event",
      "name": "RecycleFeeToProtocol",
      "inputs": [
        {
          "name": "perpId",
          "type": "uint256",
          "indexed": false,
          "internalType": "uint256"
        },
        {
          "name": "orderId",
          "type": "uint256",
          "indexed": false,
          "internalType": "uint256"
        },
        {
          "name": "recycleFeeCNS",
          "type": "uint256",
          "indexed": false,
          "internalType": "uint256"
        },
        {
          "name": "recycleBalanceCNS",
          "type": "uint256",
          "indexed": false,
          "internalType": "uint256"
        }
      ],
      "anonymous": false
    },
    {
      "type": "event",
      "name": "RecycleFeeUpdated",
      "inputs": [
        {
          "name": "recycleFeeCNS",
          "type": "uint256",
          "indexed": false,
          "internalType": "uint256"
        }
      ],
      "anonymous": false
    },
    {
      "type": "event",
      "name": "ReportAgeExceedsLastUpdate",
      "inputs": [
        {
          "name": "perpId",
          "type": "uint256",
          "indexed": false,
          "internalType": "uint256"
        },
        {
          "name": "lastUpdateTimestamp",
          "type": "uint256",
          "indexed": false,
          "internalType": "uint256"
        },
        {
          "name": "reportValidFromTimestamp",
          "type": "uint256",
          "indexed": false,
          "internalType": "uint256"
        }
      ],
      "anonymous": false
    },
    {
      "type": "event",
      "name": "ReportExpiresTooSoon",
      "inputs": [
        {
          "name": "perpId",
          "type": "uint256",
          "indexed": false,
          "internalType": "uint256"
        },
        {
          "name": "expiresAt",
          "type": "uint256",
          "indexed": false,
          "internalType": "uint256"
        },
        {
          "name": "minRequired",
          "type": "uint256",
          "indexed": false,
          "internalType": "uint256"
        }
      ],
      "anonymous": false
    },
    {
      "type": "event",
      "name": "ReportFromFuture",
      "inputs": [
        {
          "name": "perpId",
          "type": "uint256",
          "indexed": false,
          "internalType": "uint256"
        },
        {
          "name": "reportTimestamp",
          "type": "uint256",
          "indexed": false,
          "internalType": "uint256"
        },
        {
          "name": "blockTimestamp",
          "type": "uint256",
          "indexed": false,
          "internalType": "uint256"
        }
      ],
      "anonymous": false
    },
    {
      "type": "event",
      "name": "ReportPriceIsNegative",
      "inputs": [
        {
          "name": "perpId",
          "type": "uint256",
          "indexed": false,
          "internalType": "uint256"
        },
        {
          "name": "reportPrice",
          "type": "int256",
          "indexed": false,
          "internalType": "int256"
        }
      ],
      "anonymous": false
    },
    {
      "type": "event",
      "name": "TakerFeeUpdated",
      "inputs": [
        {
          "name": "perpId",
          "type": "uint256",
          "indexed": false,
          "internalType": "uint256"
        },
        {
          "name": "takerFeePer100K",
          "type": "uint256",
          "indexed": false,
          "internalType": "uint256"
        }
      ],
      "anonymous": false
    },
    {
      "type": "event",
      "name": "TakerOrderFilled",
      "inputs": [
        {
          "name": "entryPricePNS",
          "type": "uint256",
          "indexed": false,
          "internalType": "uint256"
        },
        {
          "name": "collatPricePNS",
          "type": "uint256",
          "indexed": false,
          "internalType": "uint256"
        },
        {
          "name": "pnlPricePNS",
          "type": "uint256",
          "indexed": false,
          "internalType": "uint256"
        },
        {
          "name": "lotLNS",
          "type": "uint256",
          "indexed": false,
          "internalType": "uint256"
        },
        {
          "name": "feeCNS",
          "type": "uint256",
          "indexed": false,
          "internalType": "uint256"
        },
        {
          "name": "amountCNS",
          "type": "int256",
          "indexed": false,
          "internalType": "int256"
        },
        {
          "name": "balanceCNS",
          "type": "uint256",
          "indexed": false,
          "internalType": "uint256"
        }
      ],
      "anonymous": false
    },
    {
      "type": "event",
      "name": "ToleranceAdministratorUpdated",
      "inputs": [
        {
          "name": "toleranceAdministrator",
          "type": "address",
          "indexed": false,
          "internalType": "address"
        },
        {
          "name": "added",
          "type": "bool",
          "indexed": false,
          "internalType": "bool"
        }
      ],
      "anonymous": false
    },
    {
      "type": "event",
      "name": "TransferAccountToProtocol",
      "inputs": [
        {
          "name": "accountId",
          "type": "uint256",
          "indexed": false,
          "internalType": "uint256"
        },
        {
          "name": "amountCNS",
          "type": "uint256",
          "indexed": false,
          "internalType": "uint256"
        },
        {
          "name": "balanceCNS",
          "type": "uint256",
          "indexed": false,
          "internalType": "uint256"
        }
      ],
      "anonymous": false
    },
    {
      "type": "event",
      "name": "TransferPerpInsToProtocol",
      "inputs": [
        {
          "name": "perpId",
          "type": "uint256",
          "indexed": false,
          "internalType": "uint256"
        },
        {
          "name": "amountCNS",
          "type": "uint256",
          "indexed": false,
          "internalType": "uint256"
        }
      ],
      "anonymous": false
    },
    {
      "type": "event",
      "name": "TransferPerpPosToProtocol",
      "inputs": [
        {
          "name": "perpId",
          "type": "uint256",
          "indexed": false,
          "internalType": "uint256"
        },
        {
          "name": "amountCNS",
          "type": "uint256",
          "indexed": false,
          "internalType": "uint256"
        }
      ],
      "anonymous": false
    },
    {
      "type": "event",
      "name": "TransferProtocolToAccount",
      "inputs": [
        {
          "name": "accountId",
          "type": "uint256",
          "indexed": false,
          "internalType": "uint256"
        },
        {
          "name": "amountCNS",
          "type": "uint256",
          "indexed": false,
          "internalType": "uint256"
        },
        {
          "name": "balanceCNS",
          "type": "uint256",
          "indexed": false,
          "internalType": "uint256"
        }
      ],
      "anonymous": false
    },
    {
      "type": "event",
      "name": "TransferProtocolToPerp",
      "inputs": [
        {
          "name": "perpId",
          "type": "uint256",
          "indexed": false,
          "internalType": "uint256"
        },
        {
          "name": "amountCNS",
          "type": "uint256",
          "indexed": false,
          "internalType": "uint256"
        },
        {
          "name": "toInsuranceFund",
          "type": "bool",
          "indexed": false,
          "internalType": "bool"
        }
      ],
      "anonymous": false
    },
    {
      "type": "event",
      "name": "TransferProtocolToRecycleBal",
      "inputs": [
        {
          "name": "amountCNS",
          "type": "uint256",
          "indexed": false,
          "internalType": "uint256"
        }
      ],
      "anonymous": false
    },
    {
      "type": "event",
      "name": "TriggerDescIdTooLow",
      "inputs": [
        {
          "name": "lastTriggerDescId",
          "type": "uint256",
          "indexed": false,
          "internalType": "uint256"
        }
      ],
      "anonymous": false
    },
    {
      "type": "event",
      "name": "TriggerOrderExecution",
      "inputs": [],
      "anonymous": false
    },
    {
      "type": "event",
      "name": "TriggerOrderRequest",
      "inputs": [
        {
          "name": "triggerPricePNS",
          "type": "uint256",
          "indexed": false,
          "internalType": "uint256"
        },
        {
          "name": "triggerPriceCondition",
          "type": "uint8",
          "indexed": false,
          "internalType": "enum TriggerPriceConditionEnum"
        },
        {
          "name": "triggerRequestId",
          "type": "uint256",
          "indexed": false,
          "internalType": "uint256"
        },
        {
          "name": "triggerPositionId",
          "type": "uint256",
          "indexed": false,
          "internalType": "uint256"
        }
      ],
      "anonymous": false
    },
    {
      "type": "event",
      "name": "UnableToCancelOrder",
      "inputs": [
        {
          "name": "perpId",
          "type": "uint256",
          "indexed": false,
          "internalType": "uint256"
        },
        {
          "name": "orderId",
          "type": "uint256",
          "indexed": false,
          "internalType": "uint256"
        }
      ],
      "anonymous": false
    },
    {
      "type": "event",
      "name": "UnityDescentThreshUpdated",
      "inputs": [
        {
          "name": "perpId",
          "type": "uint256",
          "indexed": false,
          "internalType": "uint256"
        },
        {
          "name": "threshHdths",
          "type": "uint256",
          "indexed": false,
          "internalType": "uint256"
        }
      ],
      "anonymous": false
    },
    {
      "type": "event",
      "name": "UnspecifiedCollateral",
      "inputs": [],
      "anonymous": false
    },
    {
      "type": "event",
      "name": "UnwindCompleted",
      "inputs": [
        {
          "name": "perpId",
          "type": "uint256",
          "indexed": false,
          "internalType": "uint256"
        },
        {
          "name": "positionsUnwound",
          "type": "uint256",
          "indexed": false,
          "internalType": "uint256"
        },
        {
          "name": "perpPositionBalanceCNS",
          "type": "uint256",
          "indexed": false,
          "internalType": "uint256"
        },
        {
          "name": "insuranceBalanceCNS",
          "type": "uint256",
          "indexed": false,
          "internalType": "uint256"
        }
      ],
      "anonymous": false
    },
    {
      "type": "event",
      "name": "UnwindContractTrigger",
      "inputs": [
        {
          "name": "perpId",
          "type": "uint256",
          "indexed": false,
          "internalType": "uint256"
        }
      ],
      "anonymous": false
    },
    {
      "type": "event",
      "name": "UnwindInitializationCleared",
      "inputs": [
        {
          "name": "perpId",
          "type": "uint256",
          "indexed": false,
          "internalType": "uint256"
        }
      ],
      "anonymous": false
    },
    {
      "type": "event",
      "name": "UnwindInitialized",
      "inputs": [
        {
          "name": "perpId",
          "type": "uint256",
          "indexed": false,
          "internalType": "uint256"
        },
        {
          "name": "sumPositiveFmvCNS",
          "type": "uint256",
          "indexed": false,
          "internalType": "uint256"
        }
      ],
      "anonymous": false
    },
    {
      "type": "event",
      "name": "UnwindInsufficientBalance",
      "inputs": [
        {
          "name": "perpId",
          "type": "uint256",
          "indexed": false,
          "internalType": "uint256"
        },
        {
          "name": "accountId",
          "type": "uint256",
          "indexed": false,
          "internalType": "uint256"
        },
        {
          "name": "perpPositionBalanceCNS",
          "type": "uint256",
          "indexed": false,
          "internalType": "uint256"
        },
        {
          "name": "paymentCNS",
          "type": "uint256",
          "indexed": false,
          "internalType": "uint256"
        }
      ],
      "anonymous": false
    },
    {
      "type": "event",
      "name": "UnwindIterationCompleted",
      "inputs": [
        {
          "name": "perpId",
          "type": "uint256",
          "indexed": false,
          "internalType": "uint256"
        },
        {
          "name": "positionsUnwound",
          "type": "uint256",
          "indexed": false,
          "internalType": "uint256"
        },
        {
          "name": "perpPositionBalanceCNS",
          "type": "uint256",
          "indexed": false,
          "internalType": "uint256"
        },
        {
          "name": "insuranceBalanceCNS",
          "type": "uint256",
          "indexed": false,
          "internalType": "uint256"
        }
      ],
      "anonymous": false
    },
    {
      "type": "event",
      "name": "UnwindPreparationCleared",
      "inputs": [
        {
          "name": "perpId",
          "type": "uint256",
          "indexed": false,
          "internalType": "uint256"
        }
      ],
      "anonymous": false
    },
    {
      "type": "event",
      "name": "UnwindPrepared",
      "inputs": [
        {
          "name": "perpId",
          "type": "uint256",
          "indexed": false,
          "internalType": "uint256"
        }
      ],
      "anonymous": false
    },
    {
      "type": "event",
      "name": "UnwindProcessInProgress",
      "inputs": [
        {
          "name": "perpId",
          "type": "uint256",
          "indexed": false,
          "internalType": "uint256"
        }
      ],
      "anonymous": false
    },
    {
      "type": "event",
      "name": "UpdateOracleFailed",
      "inputs": [
        {
          "name": "perpId",
          "type": "uint256",
          "indexed": false,
          "internalType": "uint256"
        }
      ],
      "anonymous": false
    },
    {
      "type": "event",
      "name": "Upgraded",
      "inputs": [
        {
          "name": "implementation",
          "type": "address",
          "indexed": true,
          "internalType": "address"
        }
      ],
      "anonymous": false
    },
    {
      "type": "event",
      "name": "ValueExceedsMaximum",
      "inputs": [
        {
          "name": "value",
          "type": "uint256",
          "indexed": false,
          "internalType": "uint256"
        },
        {
          "name": "maximum",
          "type": "uint256",
          "indexed": false,
          "internalType": "uint256"
        }
      ],
      "anonymous": false
    },
    {
      "type": "event",
      "name": "WRLSMinWithdrawLimitUpdated",
      "inputs": [
        {
          "name": "limitCNS",
          "type": "uint256",
          "indexed": false,
          "internalType": "uint256"
        }
      ],
      "anonymous": false
    },
    {
      "type": "event",
      "name": "WRLSThousandthsTvlUpdated",
      "inputs": [
        {
          "name": "thousandthsTvl",
          "type": "uint256",
          "indexed": false,
          "internalType": "uint256"
        }
      ],
      "anonymous": false
    },
    {
      "type": "event",
      "name": "WhitelistAddress",
      "inputs": [
        {
          "name": "addr",
          "type": "address",
          "indexed": true,
          "internalType": "address"
        },
        {
          "name": "whitelisted",
          "type": "bool",
          "indexed": false,
          "internalType": "bool"
        }
      ],
      "anonymous": false
    },
    {
      "type": "event",
      "name": "WhitelistingEnabledChanged",
      "inputs": [
        {
          "name": "enabled",
          "type": "bool",
          "indexed": false,
          "internalType": "bool"
        }
      ],
      "anonymous": false
    },
    {
      "type": "event",
      "name": "WithdrawRateLimitBypassSet",
      "inputs": [
        {
          "name": "addr",
          "type": "address",
          "indexed": true,
          "internalType": "address"
        },
        {
          "name": "enabled",
          "type": "bool",
          "indexed": false,
          "internalType": "bool"
        }
      ],
      "anonymous": false
    },
    {
      "type": "event",
      "name": "WithdrawRateLimitForceReset",
      "inputs": [
        {
          "name": "newExpiryBlock",
          "type": "uint256",
          "indexed": false,
          "internalType": "uint256"
        },
        {
          "name": "newLimitCNS",
          "type": "uint256",
          "indexed": false,
          "internalType": "uint256"
        },
        {
          "name": "perBlockCNS",
          "type": "uint256",
          "indexed": false,
          "internalType": "uint256"
        }
      ],
      "anonymous": false
    },
    {
      "type": "event",
      "name": "WithdrawRateLimitReset",
      "inputs": [
        {
          "name": "newExpiryBlock",
          "type": "uint256",
          "indexed": false,
          "internalType": "uint256"
        },
        {
          "name": "newLimitCNS",
          "type": "uint256",
          "indexed": false,
          "internalType": "uint256"
        },
        {
          "name": "perBlockCNS",
          "type": "uint256",
          "indexed": false,
          "internalType": "uint256"
        }
      ],
      "anonymous": false
    },
    {
      "type": "event",
      "name": "WrongAccountForOrder",
      "inputs": [
        {
          "name": "perpId",
          "type": "uint256",
          "indexed": false,
          "internalType": "uint256"
        },
        {
          "name": "orderId",
          "type": "uint256",
          "indexed": false,
          "internalType": "uint256"
        },
        {
          "name": "accountId",
          "type": "uint256",
          "indexed": false,
          "internalType": "uint256"
        }
      ],
      "anonymous": false
    }
  ],
  "bytecode": {
    "object": "0x60a080604052346100dc57306080525f549060ff8260081c1661008a575060ff80821603610050575b6040516201c2459081620000e182396080518181816159b401528181615e20015261681a0152f35b60ff90811916175f557f7f26b83ff96e1f2b6a682f133852f6798a09c465da95921460cefb3847402498602060405160ff8152a15f610028565b62461bcd60e51b815260206004820152602760248201527f496e697469616c697a61626c653a20636f6e747261637420697320696e697469604482015266616c697a696e6760c81b6064820152608490fd5b5f80fdfe610cc080604052600436101562000014575f80fd5b5f905f3560e01c908162092cce146200796e575080630189a2b714620078e457806303cfe83c146200783857806305aca1411462007802578063075367f614620077585780630a039fbd14620077125780630a2eb30114620076d15780630d3e87a714620076b35780630e517f4114620075f35780630f03e4c314620075c75780630f6795d914620075365780631201415614620074755780631217be6714620074345780631275d14c14620073ff57806312e8eb2c146200734e57806316a0659314620072bb57806316a483ea146200729d578063171a5b811462007031578063182b01f21462006fe75780631973c6191462006fa95780631df87ade1462006f3b57806320c801d21462006ea9578063229c24921462006e0b578063252c35941462006d805780632709b7461462006cec578063279289e91462006c5f5780632f32509b1462006b5857806332b9203b1462006a945780633659cfe614620067ef57806338ecd885146200671757806339435dac1462006685578063396d7e4714620066465780633a63dabe14620066285780633bf45a2f14620065e75780634119f93014620065b257806343559bbf146200657057806345c8c92414620064d55780634a9a4158146200644b5780634b8344fb14620063825780634d3282b4146200630b5780634d574c5614620062705780634d8dc98514620060bc5780634f1ef2861462005dd857806350ef5c351462005c6b5780635180d5a81462005a7057806352d1902d146200599857806354056119146200591e578063541b04e914620058bc5780635495086a146200584c57806358087a7414620057c7578063586d92ca14620057355780635b0c29eb14620057115780635bf9264c14620056ab5780635e1a357314620055ab5780635f40c1f7146200554757806360ad17fd14620053e85780636112fe2e14620052de57806361bd6f4414620051f2578063653a6bd7146200519b5780636728641b146200514a5780636825e9e514620050c1578063697521591462004f815780636debf8fa1462004f2d578063715018a61462004ec0578063751de4211462004cea578063768f68551462004c4d57806379609c111462004ad55780637962f91014620049d057806379ba509714620049355780637cca3b0614620047005780637d45678e146200465d5780637dd7e75914620046255780637ddbdc2a146200455d57806387c95058146200449b578063893d20e814620040515780638a92464014620043c55780638bc5b3c514620043515780638bcf1b2714620041fc5780638c03116414620041325780638c1c2cef14620040795780638da5cb5b14620040515780638f3ffc851462003fb957806392f54b3a14620036c15780639a6d7630146200366c5780639b170bd114620036325780639d2ec18814620035655780639e430eda14620033535780639fc8afd714620032bf5780639fffdfe21462003298578063a5e9c41114620031d9578063a87041d11462003198578063a971b6d41462003171578063a9bd5cee14620030af578063ae0d4442146200306e578063af37c07d1462002f7b578063b10824861462002eb4578063b216d0d21462002e37578063b5cd004e1462002d85578063b5fcf7621462002d59578063b839a8c41462002c9f578063ba53027d1462002c5b578063bad4a01f1462002c19578063bbac6c95146200295b578063bbf979ac14620028c2578063be0783f5146200284e578063be70473d146200276e578063bed97b711462002708578063c2852f381462002638578063c4d66de81462002313578063c7ff158414620022ea578063cab139151462002119578063d360dd3114620020a9578063d3b8c49d1462001ffe578063d541abc11462001f66578063d6f34bd61462001eeb578063d780ece81462001e60578063d8b442681462001e1f578063d936547e1462001dde578063dbfbf7e81462001d9d578063dd0a3e2b1462001cda578063ddac1cde1462001856578063dec92b691462001836578063e2e1cb57146200178b578063e30c39781462001762578063e548bb5714620016af578063e5631c9e14620015e4578063e68073c31462001528578063e74e2c9b14620014c5578063eaadbbef146200149e578063ebcf16561462001422578063ecdff22e1462001319578063ed6760fe1462001227578063edb1314e14620011f2578063efb62904146200112a578063f28b98f3146200108a578063f2fde38b1462001014578063f769f0d31462000f5b578063fb05acb71462000948578063fb455f6b14620008d75763fe37fe1214620006af575f80fd5b34620008d457620006c03662007ec3565b919081809381620006e1620006d682956200a3c9565b92600984016200bd3b565b508060108401915b620007135760408051888152602081018a90529081018690526060810187905280608081015b0390f35b825280602052604082205461ffff8160c81c169663ffffffff82169182855260d560205260ff604086205460a01c166200074d8162007e07565b620008c95764ffffffffff8160401c169260ff8260201c1690620007718262010178565b62000800575b5063ffffffff6200078c6200079792620101a6565b9260781c166200f911565b620007cc5715620007b6578791620007af9162008b84565b96620006e9565b96948591620007c59162008b84565b94620006e9565b9798909715620007ea578891620007e39162008b84565b97620006e9565b97958691620007f99162008b84565b95620006e9565b86526012870160205260408620620008188262007e07565b60028214905464ffffffffff8160b81c1691821515918262000860575b5050156200085357808511156200077757935063ffffffff62000777565b50505096809150620006e9565b9091508180620008ad575b82156200087d575b50505f8062000835565b1591508162000890575b505f8062000873565b6001915060401c60ff16620008a5816200810c565b145f62000887565b915060ff8160401c16620008c1816200810c565b15916200086b565b5096809150620006e9565b80fd5b5034620008d457620008e93662007ec3565b919062ffffff83116200092e57602092600c6200090a62000911936200a3c9565b0162010067565b905f19821462000925575b50604051908152f35b90505f6200091c565b5060449163c6ebaaa160e01b825260045262ffffff602452fd5b5034620008d4576200095a3662007f51565b60a09291925260c05233825260dc60205260ff6040832054161562000f4857620009836200a845565b62000f39576200099560c0516200a3c9565b9160ff835460c01c1660058110158062000f255760028214158062000f17575b62000ef75762000ee35760030362000e93575b6001600160501b03600384015416600484015460805260058401548454839163ffffffff601188015416925b8315158062000e89575b1562000e7c5783865260128801602052604086209380875260d5602052604087209084865462000a8362000a6e8d60ff8560b81c169060ff8660b01c169064ffffffffff8660b81c169063ffffffff8760981c16908760e01c9060ff8960401c169063ffffffff8b16906200bcbe565b50506001600160501b038360481c166200bf50565b8a918280831362000c0d575b9362000b519363ffffffff9362000b5e979362000b649a99975f1462000b6a57917f2ce44e296cf9f36d06b56fb77dfebb744f984a66a7a32a9c1982adde5719a10893916001600160501b0361012094886040519560c051875289602088015216604086015262000b0660ff8260401c166200810c565b60ff8160401c166060860152888160981c16608086015264ffffffffff8160b81c1660a086015260481c1660c084015260e0830152610100820152a15b9854169760118d0162013741565b600560c05191016201384d565b62008c6e565b620009f4565b610140927f8e75a224410b0b5b54b88738c69eb996a4225e1720432903a1b03693c3fcb6f894926001600160501b03808b541693896040519660c05188528a602089015216604087015262000bc560ff8260401c166200810c565b60ff8160401c166060870152898160981c16608087015264ffffffffff8160b81c1660a087015260481c1660c085015260e0840152610100830152610120820152a162000b43565b608051909450919250901562000e755762000c3660805162000c30848a620085aa565b62008b43565b80938b82115f1462000e37575060019060a0511562000c7c5750938862000b6497969462000b519463ffffffff9462000b5e985b9397999a509397509350935062000a8f565b969a9b9d9c50505050509450507f8c6452308f4aa5da3dd7582bf4f08c41c0bd9378806d96ce939fbddad72bf926925062000cda9150604051918291878660c051859094939260609260808301968352602083015260408201520152565b0390a15b1562000d5a57600392909201805469ffffffffffffffffffff19166001600160501b0383811691909117918290556040805160c0518152602081019590955284019290925260501c1660608201527f2a562f7b66b9d232c3f7a19384fbcff970c9fec0f42ac7ef9ea592fbcb848d209080608081015b0390a180f35b60038301546040805160c05181526020810193909352820183905260501c6001600160501b0316606082018190529162000dd4917fa9b78fd50db3a3e2b070cb8d415b5a3cd12f80614e74626415f2bcf20ae81d0c9080608081015b0390a160038401805469ffffffffffffffffffff191690556200be18565b8062000e0d575b50600581018290556004810182905560028101805469ffffffffffffffffffff19169055805460ff60c01b1916905580f35b60038201805469ffffffffffffffffffff60501b1916905562000e30906200be18565b5f62000ddb565b919294909a62000e4d8c8b9299989699620085f0565b9b62000e5a90866200b1a4565b62000b649762000b5e9662000b519563ffffffff9562000c6a565b8a62000c36565b9394969550505062000cde565b50868110620009fe565b6001600160501b036003840162000ec582825460501c1669ffffffffffffffffffff60501b198354168355866200fe4d565b54166005840155600360c01b60ff60c01b19845416178355620009c8565b634e487b7160e01b82526021600452602482fd5b6313295a4960e11b835260c05160045260448362000f158462007dea565bfd5b5050816003821415620009b5565b634e487b7160e01b83526021600452602483fd5b630b15863d60e41b8252600482fd5b631d37e03560e31b825233600452602482fd5b5034620008d45762000f6d3662007ec3565b62000f7a9291926200a845565b62000f395762000f8a336200af65565b80835260d56020526040832060ff815460a01c1662000fa98162007e07565b8062000ff5575062000fcf62000fbf866200a3c9565b9560ff875460c01c16906200afbd565b50821562000fe65762000fe393946200fe8c565b80f35b631fccd51f60e01b8452600484fd5b63e0860e5f60e01b855260249085906200100f8162007e07565b600452fd5b5034620008d4576020366003190112620008d4576001600160a01b036200103a62007eac565b620010446200a41a565b16806001600160a01b031960655416176065556001600160a01b03603354167f38d16b8cac22d99fc7c124b9cd0de2d3fa1faef420bfe791d8c362d765e227008380a380f35b5034620008d4576020366003190112620008d457600435620010ab6200a41a565b6309c3d8f080821162001110575060c954620010c66200a829565b91612710613fff9104831b921b19161760c9557f8ad800de6b48db2a4430821a66e9ea34dee8c66fea63f8a83559bf91279cf77c6020620011066200b1f6565b604051908152a180f35b60649291630c8f0a6960e41b835260045281602452604452fd5b5034620008d4576200115760096200114236620080f1565b9291620011519491946200a41a565b6200a3c9565b016200116483826200d63d565b600282108015620011e7575b620011c95791604091837fbb5907b6810f0c2966db8e0939fbf4a19724f4e58e2bfd1d15195fdf8b4908a2945468ff000000000000000083861b169068ff0000000000000000191617905582519182526020820152a180f35b630c8f0a6960e41b8452600482905260026024526009604452606484fd5b506009821162001170565b5034620008d45780600319360112620008d45760209060c95490506c1fffffffffffffffffffffffff6040519160701c168152f35b5034620008d457620012393662007ec3565b620012436200a41a565b6200124e826200a3c9565b6001821080156200130e575b620012f25760020160ff815460d81c1680831115620012db575080547fffffff00ffffffffffffffffffffffffffffffffffffffffffffffffffffffff1660e083901b60ff60e01b161790556040805192835260208301919091527fb0459c2e01b889e7e78bb7d1400cb3049a1d98ef3d6949439b173c5ffba92dd191a180f35b630ba8360160e41b85526004526024829052604484fd5b60648483630c8f0a6960e41b8252600452600160245281604452fd5b50606482116200125a565b5034620008d4576060366003190112620008d4576004359060243560443567ffffffffffffffff81116200141e5762001357903690600401620083f2565b33845260dc60205260ff604085205416156200140b57620013776200a845565b620013fc576103fc8511620013e8577f8197894e93a93f60bb4024782ca25f3402b91b549a53da47eae6287ce13d707393949162000d54916004620013bc866200a473565b018488526020528660408120556040519485948552602085015260606040850152606084019162009e87565b63324f0d9160e21b84526004859052602484fd5b630b15863d60e41b8452600484fd5b631d37e03560e31b845233600452602484fd5b8280fd5b5034620008d4576020366003190112620008d457600435620014436200a845565b62000f395760407f25cb41632994165977216ca86070cf4f14c696e259419044e9d2de44c5955c5c9162001477336200af65565b600462001484826200a473565b01828652602052848381205582519182526020820152a180f35b5034620008d45762000fe3620014b43662007ec3565b90620014bf6200a41a565b62009f92565b5034620008d4577f6bf5f38f4e94f47ae7a4d6e56dbf388c856f890b5f0f2808b66914710b0266ca6040620014fa3662007ec3565b620015046200a41a565b6200151a8162001514846200a3c9565b6200d551565b82519182526020820152a180f35b5034620008d4576200153a3662007f51565b90620015456200a41a565b60c9546001600160701b0316818110620015d05750916060917fe3bcf60a5994e7328c2ddfbbf2c18d6e57c1cc69502d1ee3900c1e1f08ca555d936200158b836200a3c9565b62001596826200b070565b818315620015bf57620015a9916200fe69565b604051928352602083015215156040820152a180f35b620015ca916200fe4d565b620015a9565b62fae2d560e21b8552600452602452604483fd5b5034620008d4576020366003190112620008d457600435620016056200a41a565b62001610816200a3c9565b805460ff8160c01c1660058110156200169b57806200167f5750916020916200166463ffffffff7f398693be005c0e64e1ef16ed7453155535d078a14ebb77360c1409b8e6f63c209560c81c16836200fe31565b600160c01b60ff60c01b19825416179055604051908152a180f35b8462000f1560449286630d76efe360e41b845260045262007dea565b634e487b7160e01b85526021600452602485fd5b5034620008d4576020366003190112620008d45760043567ffffffffffffffff81116200175e57366023820112156200175e5780600401359067ffffffffffffffff82116200141e573660248360061b830101116200141e5733835260da60205260ff604084205416156200174b57620017286200a845565b6200173c5790602462000fe392016200a094565b630b15863d60e41b8352600483fd5b63a37849fb60e01b835233600452602483fd5b5080fd5b5034620008d45780600319360112620008d45760206001600160a01b0360655416604051908152f35b5034620008d4576200179d3662007ec3565b620017a76200a41a565b620017b2826200a3c9565b600281015461ffff8160c81c1680841015620017fa57857f9c6091bfb36035e2973fb3ad5c07d8c5d74d0981770feea276a41c4221246f0e604087876200151a81896200d586565b6040516322b85af560e11b8152600481018690526024810185905260b89290921c61ffff908116604484015216606482015280608481015b0390fd5b5034620008d45780600319360112620008d457602060cd54604051908152f35b5034620008d457620018683662007f51565b61010092919252610120526200187d6200a41a565b6200188b610120516200a3c9565b9160ff835460c01c1660058110158062000f255760028214158062001ccc575b62001cad5762000ee35760030362001c5d575b6001600160501b03600384015416600484015460e05260058401548454839163ffffffff601188015416925b8315158062001c53575b1562001c465783865260128801602052604086209380875260d560205260408720908486546200196462000a6e8d60ff8560b81c169060ff8660b01c169064ffffffffff8660b81c169063ffffffff8760981c16908760e01c9060ff8960401c169063ffffffff8b16906200bcbe565b8a918280831362001a56575b93620019e69363ffffffff9362000b5e9793620019f49a99975f14620019fa57917f2ce44e296cf9f36d06b56fb77dfebb744f984a66a7a32a9c1982adde5719a10893916001600160501b036101209488604051958751875289602088015216604086015262000b0660ff8260401c166200810c565b60056101205191016201384d565b620018ea565b610140927f8e75a224410b0b5b54b88738c69eb996a4225e1720432903a1b03693c3fcb6f894926001600160501b03808b54169389604051966101205188528a602089015216604087015262000bc560ff8260401c166200810c565b60e051909450919250901562001c3f5762001a7960e05162000c30848a620085aa565b80938b82115f1462001c015750600190610100511562001ac057509388620019f4979694620019e69463ffffffff9462000b5e985b9397999a509397509350935062001970565b969a9b9d9c50505050509450507f8c6452308f4aa5da3dd7582bf4f08c41c0bd9378806d96ce939fbddad72bf926925062001b1f9150604051918291878661012051859094939260609260808301968352602083015260408201520152565b0390a15b1562001b9f57600392909201805469ffffffffffffffffffff19166001600160501b03838116919091179182905560408051610120518152602081019590955284019290925260501c1660608201527f2a562f7b66b9d232c3f7a19384fbcff970c9fec0f42ac7ef9ea592fbcb848d2090806080810162000d54565b6003830154604080516101205181526020810193909352820183905260501c6001600160501b0316606082018190529162000dd4917fa9b78fd50db3a3e2b070cb8d415b5a3cd12f80614e74626415f2bcf20ae81d0c90806080810162000db6565b919294909a62001c178c8b9299989699620085f0565b9b62001c2490866200b1a4565b620019f49762000b5e96620019e69563ffffffff9562001aae565b8a62001a79565b9394969550505062001b23565b50868110620018f4565b6001600160501b036003840162001c8f82825460501c1669ffffffffffffffffffff60501b198354168355866200fe4d565b54166005840155600360c01b60ff60c01b19845416178355620018be565b6313295a4960e11b83526101205160045260448362000f158462007dea565b5050816003821415620018ab565b5034620008d4576040366003190112620008d4577fe38e0dbe12c2dcb6ba8e96202e2cdd922095935e5ca1105ddf9e86c7f79df76662001d1962007eac565b62001d2362007f21565b9062001d2e6200a41a565b811562001d7a576001600160a01b038116845260dd60205260408420805460ff191660011790555b604080516001600160a01b0390921682529115156020820152908190810162000d54565b6001600160a01b038116845260dd60205260408420805460ff1916905562001d56565b5034620008d4576020366003190112620008d45760ff60406020926001600160a01b0362001dca62007eac565b16815260dc84522054166040519015158152f35b5034620008d4576020366003190112620008d45760ff60406020926001600160a01b0362001e0b62007eac565b16815260e084522054166040519015158152f35b5034620008d4576020366003190112620008d45760ff60406020926001600160a01b0362001e4c62007eac565b16815260db84522054166040519015158152f35b5034620008d4576020366003190112620008d45760043562001e816200a41a565b60018110801562001ee0575b62001ec4576020817fc6edc4969138bba547ff56e984b415e7a1ec1181d6199d6946c48e3a858906369260ce55604051908152a180f35b63034bd7dd60e31b8252600160045260fa602452604452606490fd5b5060fa811162001e8d565b5034620008d4576020366003190112620008d45760043562001f0c6200a41a565b64e8d4a51000811162001f4b576020817f0fface2454d594caf83c2c1b1f8da428b41a8585fcf72713ea6ce39cd6cba9fc9260cd55604051908152a180f35b6395d41f3f60e01b825260045264e8d4a51000602452604490fd5b5034620008d45762001f783662007fdc565b9092919233835260da60205260ff604084205416156200174b5762001f9c6200a845565b6200173c576103fc841162001fea5783835260d9602052604083209362001fc3856200b0e6565b62001fd85750600962000fe39394016200f8bf565b63b934a7fb60e01b8452600452602483fd5b63324f0d9160e21b83526004849052602483fd5b5034620008d4576040366003190112620008d4576004359067ffffffffffffffff8211620008d45736602383011215620008d457816004013567ffffffffffffffff81116200175e573660248260071b850101116200175e576200206162007f21565b9033835260dc60205260ff604084205416156200209657620020826200a845565b6200173c57602462000fe393940162009fcd565b631d37e03560e31b835233600452602483fd5b5034620008d4576020366003190112620008d4577fa9a3e53f31ef1464015e1b64897b819880bcc9787e25987d6d4336f3613ade2660206001600160a01b03620020f262007eac565b620020fc6200a41a565b16806001600160a01b031960ca54161760ca55604051908152a180f35b5034620008d4576020366003190112620008d4576004356200213a6200cec0565b620021446200a845565b62000f395733825260df60205260ff604083205416620022d75760ff60e1541680620022bf575b620022ac5760cd548110620022965733825260d660205260408220548062002280575060d75490600182018083116200226c5763ffffffff81116200225d5790602093620022509260d75583815260d585528360406001818420019283546bffffffffffffffffffffffff80193360601b16911617845533815260d68852205563ffffffff8085161663ffffffff198254161790557f7325fb14450d3e5eb288c620b4ff1d6b43a41b33b4a4f143ae88cd4c12f99ea36040518062002247863383602090939291936001600160a01b0360408201951681520152565b0390a16200d8fc565b6001609755604051908152f35b634e5bb58160e01b8452600484fd5b634e487b7160e01b84526011600452602484fd5b630c8c12bd60e31b835233600452602452604482fd5b630cfe73bb60e41b825233600452602452604490fd5b636f8bf18b60e11b825233600452602482fd5b5033825260e060205260ff604083205416156200216b565b6371fa9c9960e01b825233600452602482fd5b5034620008d45780600319360112620008d4576020620023096200a845565b6040519015158152f35b5034620008d4576020366003190112620008d4576200233162007eac565b815460ff8160081c1615918280936200262a575b801562002611575b15620025a65760ff19821660011784556001600160a01b03918362002594575b501690816001600160a01b031960cb54161760cb5560405163313ce56760e01b8152602081600481865afa80156200258957849062002541575b60ff915016916006830362002525576305f5e10060cd55600160d7819055606460ce5564e8d4a5100060d35560e1805460ff1916909117905560c980547ffffffff8001fffffffffffffffffffffffffffffffffffffffffffffffffffff167b0140000000000000000000000000000000000000000000000000000017905583547f7b1f94d30e47df15616bc31716546ce84737fcf471dff8cd336c68fb810d7e6f91610100916200246a9060081c60ff1662002464816200f84c565b6200f84c565b62002475336200d38a565b8554946200249960ff8760081c166200248e816200f84c565b62002464816200f84c565b600160975560cd5460ce5460d35490620024b26200af99565b9260ff60e154169460405196338852602088015260408701526060860152608085015260a084015260c0830152151560e0820152a1620024f0575080f35b61ff00191681557f7f26b83ff96e1f2b6a682f133852f6798a09c465da95921460cefb3847402498602060405160018152a180f35b630f30f42960e01b845260045260248290526006604452606483fd5b506020813d60201162002580575b816200255e6020938362008356565b810103126200257c575160ff811681036200257c5760ff90620023a7565b8380fd5b3d91506200254f565b6040513d86823e3d90fd5b61ffff19166101011784555f6200236d565b60405162461bcd60e51b815260206004820152602e60248201527f496e697469616c697a61626c653a20636f6e747261637420697320616c72656160448201527f647920696e697469616c697a65640000000000000000000000000000000000006064820152608490fd5b50303b1580156200234d5750600160ff8316146200234d565b50600160ff83161062002345565b5034620008d4576020366003190112620008d45733815260da60205260ff60408220541615620026f5576200266c6200a845565b620026e6576200267e6004356200a3c9565b60ff815460c01c16600581101562000f25576004146200269c575080f35b604061ffff60027f2bf3500d8e3b78624f68716bdcfccb30df6b6ef393561a3ffa32e8d357ac7e439360ff60c01b198154168155015460a81c16815190815260016020820152a180f35b630b15863d60e41b8152600490fd5b63a37849fb60e01b815233600452602490fd5b5034620008d45780600319360112620008d457620027256200a41a565b8060cf558060d0558060d1558060d2557f4a1c1830c45941cc05cf110c5d7424a3e493f0e42be2522c05ab26c0221062cf6060604051838152836020820152836040820152a180f35b5034620008d4576200278036620080b0565b9033845260da60205260ff604085205416156200283b5790918215159190845b828110620027ac578580f35b806001600160a01b03620027ce620027c8600194878762009f2e565b62009f3f565b16875260e0602052620027f086604089209060ff801983541691151516179055565b6001600160a01b0362002809620027c883878762009f2e565b167f33e0bf3ce98fac4118d5a0a8fe49e83b6acdfdef32871c9eca20e1528d7701ba6020604051888152a201620027a0565b63a37849fb60e01b845233600452602484fd5b5034620008d4576020366003190112620008d4576004356200286f6200a41a565b6309c3d8f080821162001110575060c954612710613fff920460d51b9160d51b19161760c9557f4151e59ddd8ffe35ce0b539f837d353ed0ff884e058b715910c7f4688a5da7366020620011066200af99565b5034620008d4576080366003190112620008d45733815260dc60205260ff604082205416156200294857620028f66200a845565b620026e657620029086004356200a3c9565b6200292761ffff600283015460a81c1660ff835460c01c16906200afbd565b5060643580151581036200141e5762000fe39160443590602435906200f3dc565b631d37e03560e31b815233600452602490fd5b5034620008d4576040366003190112620008d45760043567ffffffffffffffff81116200175e57366023820112156200175e5780600401359067ffffffffffffffff82116200141e57602481019036602460c08502830101116200257c57620029c362007f21565b91620029ce6200a845565b62002c0a57620029de336200af65565b9182865260d560205260ff604087205460a01c16620029fd8162007e07565b8062002bf05750841562002bdc5781359262002a19846200a3c9565b9060ff825460c01c169260ff600184015460d01c1690338a5260de60205260ff60408b205416948a5b8a81101562002bd8578062002b8d575b62002a5f8a838b6200aff1565b62002b8457896040890135801562002b7957858062002b70575b62002b18578a8a60a08101359261ffff841162002abc57918160019695938c8c608062002ab5989601359460206060860135950135926200da21565b0162002a42565b5050509062002b0057907f95d41f3f44becfa47a91cf04138709af8e760c9060dcf6091505be37dce141886040600193815190815261ffff6020820152a162002ab5565b6395d41f3f60e01b8d5260045261ffff60245260448cfd5b5062002b5857604080518a8152336020820152600192917f4cd1188857d86056fa3ff56966c92f1f952217fe7328696137d42b1043a5d91c91a162002ab5565b63099a231160e31b8c5260048990523360245260448cfd5b50881562002a79565b505060019062002ab5565b60019062002ab5565b60c08102830160240197508735808a0362002baa575b5062002a52565b9850925050925062002bbc866200a3c9565b9260ff845460c01c1660ff600186015460d01c16925f62002ba3565b8b80f35b634e487b7160e01b86526032600452602486fd5b63e0860e5f60e01b875260249087906200100f8162007e07565b630b15863d60e41b8552600485fd5b5034620008d4576020366003190112620008d45762002c376200cec0565b62002c416200a845565b620026e65762002c536004356200d8fc565b600160975580f35b5034620008d45762002c6d3662007ec3565b9033835260da60205260ff604084205416156200174b5762002c8e6200a845565b6200173c579062000fe39162009f92565b5034620008d45762002cb13662007ec3565b62002cbb6200a41a565b614e20811162002d3d57816040916200151a62002cf97f29246c8aee392e4f61a964c88192adac4afc12ed286fcbd7698783763467475f956200a3c9565b80547fffffffffffffffffffffffff0000ffffffffffffffffffffffffffffffffffff16609084901b73ffff00000000000000000000000000000000000016179055565b60649291634dcc027160e11b8352600452602452614e20604452fd5b5034620008d45780600319360112620008d45760209060c95490506001600160701b0360405191168152f35b5034620008d4576020366003190112620008d45760043562002da66200a41a565b62002db1816200a3c9565b60ff815460c01c16600581101562002e23576001810362002e0757507fc5ed7f880900879a894e28cc520c997b23650b24b94faf0b7a4e9621b09dec8b9160209160ff60c01b198154169055604051908152a180f35b8362000f1560449285637edd2a1d60e01b845260045262007dea565b634e487b7160e01b84526021600452602484fd5b5034620008d4576080366003190112620008d45760443567ffffffffffffffff81116200175e5762002e6e90369060040162007fa8565b9062002e7962007f41565b9233815260dc60205260ff60408220541615620029485762002e9a6200a845565b620026e65760206200230985858560243560043562009f54565b5034620008d45762002ec636620080b0565b9033845260da60205260ff604085205416156200283b5790918215159190845b82811062002ef2578580f35b806001600160a01b0362002f0e620027c8600194878762009f2e565b16875260df60205262002f3086604089209060ff801983541691151516179055565b6001600160a01b0362002f49620027c883878762009f2e565b167f78ba4d4e021eac2ff3a6a2337dc61ca2b49986705a2438b5764b9c18bd1c25fd6020604051888152a20162002ee6565b5034620008d45762002f8d3662007ec3565b919062002f996200a41a565b62002fa4816200a3c9565b60018410801562003063575b620030475760020160ff815460d81c168085101562003030575080547fffff00ffffffffffffffffffffffffffffffffffffffffffffffffffffffffff1660e885901b60ff60e81b1617905560408051918252602082018490527fbe36b3b0b7a3a58d54c694996c6aadba93761ca8210af4d6b72115c02aa210e491a180f35b63291eed9d60e01b84526004859052602452604483fd5b60648385630c8f0a6960e41b8252600452600160245281604452fd5b506064841162002fb0565b5034620008d4576020366003190112620008d45760ff60406020926001600160a01b036200309b62007eac565b16815260de84522054166040519015158152f35b5034620008d4576040366003190112620008d4577f6259c67b83c17d274bef178edcf79755337c12fdc6de65b955b5ab3f95e82e05620030ee62007eac565b620030f862007f21565b90620031036200a41a565b81156200314e576001600160a01b038116845260db60205260408420805460ff19166001179055604080516001600160a01b0390921682529115156020820152908190810162000d54565b6001600160a01b038116845260db60205260408420805460ff1916905562001d56565b5034620008d45762000fe3620031873662007ec3565b90620031926200a41a565b62008afb565b5034620008d4576020366003190112620008d45760ff60406020926001600160a01b03620031c562007eac565b16815260dd84522054166040519015158152f35b5034620008d457620031eb3662007ec3565b620031f56200a41a565b62003200826200a3c9565b60ff815460c01c1660058110156200169b57600181036200327c575091818360409360047f7101921841f3f86b1db94836f0b095d276833a7b6669c5d7628161978ae7e686960155780200000000000000000000000000000000000000000000000060ff60c01b1982541617905582519182526020820152a180f35b8462000f1560449286634d3d766360e01b845260045262007dea565b5034620008d45780600319360112620008d4576020620032b76200b1d0565b604051908152f35b5034620008d45760a0366003190112620008d457620032dd62007e98565b90620032e862007f41565b6084359081151582036200141e5733835260db60205260ff604084205416156200334057620033166200a845565b6200173c5762000fe3929363ffffffff620033336004356200a3c9565b911690602435906200c945565b636dfc4d6160e11b835233600452602483fd5b5034620008d4576040366003190112620008d4576004356200337462007f21565b6200337e6200a41a565b62003389826200a3c9565b90815460ff8160c01c1693620033a085826200d7bf565b508215809581966200353d575b506200343d575b5050156200343557825b600581101562002e23579161ffff6002837f2bf3500d8e3b78624f68716bdcfccb30df6b6ef393561a3ffa32e8d357ac7e439560ff60c01b1978ff000000000000000000000000000000000000000000000000604097549260c01b169116178155015460a81c16908251918252156020820152a180f35b6004620033be565b600284015460f01c60ff1662003517576001600160a01b0360ca5416801580156200350a575b620034ea575063ffffffff8260401c1615620034d857505b63ffffffff8160c81c161562003493575b80620033b4565b63ffffffff60c81b197cffffffff00000000000000000000000000000000000000000000000000620034c5436200d8ab565b91505060c81b1691161782555f6200348c565b630c5eed9d60e11b8652600452602485fd5b6006850154631744ee4f60e31b8852600492909252602452604452606485fd5b5060068501541562003463565b63ffffffff8216156200352b57506200347b565b63136618cd60e01b8652600452602485fd5b905060058110156200355157155f620033ad565b634e487b7160e01b87526021600452602487fd5b5034620008d457620035773662007ec3565b620035816200a41a565b6200358c826200a3c9565b620186a08211620036175780547cffffffffffffffffffffffffffffffffffffffffffffffffffffffffff1660e883901b7fffffff0000000000000000000000000000000000000000000000000000000000161790556040805192835260208301919091527f95e1172237a02916c6d5aba284d04aa4e02e876b0c666387d62f03d0cd77719a91a180f35b6395d41f3f60e01b84526004829052620186a0602452604484fd5b5034620008d457620036443662007ec3565b919062ffffff83116200092e57602092600c6200366562000911936200a3c9565b016200d69c565b5034620008d4577f672c0a156ee23d5a79ee89b233d6d30458115eabf152fb294cb8a894eadeeb116040620036a13662007ec3565b620036ab6200a41a565b6200151a81620036bb846200a3c9565b6200d5c9565b3462003fb55761014036600319011262003fb55760043567ffffffffffffffff811162003fb557620036f8903690600401620083f2565b60243567ffffffffffffffff811162003fb5576200371b903690600401620083f2565b909160443592606435926084359060a43590610104356101243591620037406200a41a565b6200374a6200cec0565b6050871162003f7e576010811162003f46576103fc891162003f3357885f5260d960205260405f20966200377e886200b0e6565b62003f2057600662003791868862008b84565b1162003ef557600788019a67ffffffffffffffff821162003e3857620037b88c5462008423565b601f811162003ec1575b505f90601f831160011462003e5857620037f492915f918362003e4c575b50508160011b915f199060031b1c19161790565b8a555b600887019567ffffffffffffffff821162003e385762003818875462008423565b601f811162003df8575b505f90601f831160011462003d8f576200385392915f918362003d835750508160011b915f199060031b1c19161790565b85555b60028601805461ffff60a81b191660a88a901b61ffff60a81b161781559360ff60c01b1987541687556006811162003d6c5786546006851162003d54577fffffffffffffffff0000ffffffffffffffffffffffffffffffffffffffffffff76ff0000000000000000000000000000000000000000000077ff00000000000000000000000000000000000000000000008760b81b169360b01b169116171786556200390360c435876200d328565b6200391160e435876200d551565b8181101562003d3f57906200392b6200393292876200d586565b856200d4f0565b6200393d8162009dff565b80620f42400290620f424082040362003cf5576200395c90856200d5c9565b81547fffff000000ffffffffffffffffffffffffffffffffffffffffffffffffffffff167d555f5a000000000000000000000000000000000000000000000000000000178255600a84018054600986019291901562003d1f575b5063feffffff80871162003d095750815463ffffffff871663ffffffff1990911617825584546001860180547affffffffffffffffffffffffffffffffffffffffffffffffffffff167f09000000640000000000000000000000000000000000000000000000000000001781557fffffffffffffffffffff00000000ffffffffffffffffffffffffffffffffffff909116743c138800000000000000000000000000000000000017865583547427100000000000000000000000000000000000000061ffff60981b1990911617845561d8ef9261ffff9062003a9985826200d63d565b805468ff000000000000000019166802000000000000000017905586547cffffffffffffffffffffffffffffffffffffffffffffffffffffffffff16610c3560ec1b17875581547a010061a80061a80061a801731800823500823500000000000000007fffffffffff00000000000000000000000000000000000000ffffffffffffffff90911617825560d85462003b459062003b369062008c6e565b978860d8555495549362009dff565b9182620f42400292620f424084040362003cf55754956040519a8b9a8b5260208b016103e090526103e08b0162003b7c9162009ea7565b8a810360408c015262003b8f9162009ea7565b9762003ba660608b0160ff60c089901c1662007df9565b60808a01528460b01c60ff1660a08a01528460b81c60ff1660c08a0152808360781c1660e08a0152808360881c166101008a0152808360b81c166101208a01528260c81c166101408901526101608801526101808701605a90526101a08701605f905260e81c60ff166101c08701526101e0860161138890526102008601606490526102208601600990526102408601603c9052610260860161271090526102808601526102a085016002905260e81c6102c08501528060401c62ffffff166102e08501528060581c62ffffff166103008501528060d01c60ff1615156103208501528060701c62ffffff166103408501528060881c62ffffff166103608501528060a01c62ffffff1661038085015260b81c62ffffff166103a08401526103c0830152037fd78b2274f0f8c5fb36f3464d4fc273e80ba45dde960a535eeacf3c1ae42c4e3c91a16001609755005b634e487b7160e01b5f52601160045260245ffd5b866395d41f3f60e01b5f5260045260245260445ffd5b5f1990555f8052600b850160205260405f206001815417905588620039b6565b6322e659c160e11b5f5260045260245260445ffd5b846395d41f3f60e01b5f52600452600660245260445ffd5b6395d41f3f60e01b5f52600452600660245260445ffd5b013590508c80620037e0565b601f19831691885f5260205f20925f5b81811062003ddf575090846001959493921062003dc5575b505050811b01855562003856565b01355f19600384901b60f8161c191690558b808062003db7565b9193602060018192878701358155019501920162003d9f565b62003e2690885f5260205f20601f850160051c8101916020861062003e2d575b601f0160051c019062009e0e565b8b62003822565b909150819062003e18565b634e487b7160e01b5f52604160045260245ffd5b013590508d80620037e0565b601f198316918d5f5260205f20925f5b81811062003ea8575090846001959493921062003e8e575b505050811b018a55620037f7565b01355f19600384901b60f8161c191690558c808062003e80565b9193602060018192878701358155019501920162003e68565b62003eee908d5f5260205f20601f850160051c8101916020861062003e2d57601f0160051c019062009e0e565b8c620037c2565b60848a86886040519263bc42e62760e01b845260048401526006602484015260448301526064820152fd5b8963c401953760e01b5f5260045260245ffd5b8863324f0d9160e21b5f5260045260245ffd5b604051631ffb247760e11b81526060600482015290819062003f6d60648301828a62009e87565b906024830152601060448301520390fd5b60405163ab94bf3960e01b815260606004820152808862003fa460648301828f62009e87565b906024830152605060448301520390fd5b5f80fd5b3462003fb557604036600319011262003fb55760043560243567ffffffffffffffff811162003fb55762003ff2903690600401620083d1565b335f5260db60205260ff60405f205416156200403e57620040126200a845565b6200402f5781620040276200402d936200a3c9565b6200ccdd565b005b630b15863d60e41b5f5260045ffd5b636dfc4d6160e11b5f523360045260245ffd5b3462003fb5575f36600319011262003fb55760206001600160a01b0360335416604051908152f35b3462003fb557602036600319011262003fb557620040996004356200a473565b8054908160f01c90620040ac8262008c15565b91600263ffffffff5f9560b01c169201915b8015158062004128575b1562004118575f528160205263ffffffff60405f206200410c620040ec8762008c6e565b96620040f88362008c7d565b620041048289620086a4565b5286620086a4565b505460201c16620040be565b604051806200070f868262008014565b50818510620040c8565b3462003fb557620041433662007ec3565b6200414d6200a41a565b62004158826200a3c9565b600281015461ffff8160c81c168084108015620041ea575b620041b3577f258cfea0edc89c1ba4ce7d75bd475712ab2a06ce19794e2193cbd64f182a3f7860408686620041a681886200d4f0565b82519182526020820152a1005b60405163be5707cb60e01b8152600481018690526024810185905261ffff918216604482015260b89290921c166064820152608490fd5b5061ffff8260b81c1684111562004170565b3462003fb557602036600319011262003fb5575f808080600435438110156200424a575b50906200070f91604051948594859094939260609260808301968352602083015260408201520152565b935050505060cf549060d1549160d25460d054908484115f146200430a57505050905061217b810180821162003cf5579061085f810180911162003cf5576103e86200429c60ce5460cc5490620085aa565b0460d3548082115f146200430257505b61217b810461217b81029181159282810461217b1484171562003cf557620042d491620085f0565b61085f82029282840461085f14171562003cf5576200070f92620042f89162008b84565b925b909162004220565b9050620042ac565b80841162004320575b6200070f929350620042fa565b6200070f9262004340836200433a620043479488620085f0565b620085aa565b9062008b84565b9283925062004313565b3462003fb5575f36600319011262003fb55760c060cc5460c9546001600160701b03906c1fffffffffffffffffffffffff6001600160a01b0360cb5416916001600160a01b0360ca5416936040519586528116602086015260701c16604084015260066060840152608083015260a0820152f35b3462003fb557602036600319011262003fb557600435620043e56200a41a565b60c9546001600160701b031680821162004487575060cc5480821162004472577ffbebce9e66eea6596d62b805af61b4b1ea406128e73ffb928faa091b17d524f960208362004434816200d068565b6200443f816200b070565b6200444d8160cc54620085f0565b60cc5562004469816001600160a01b0360cb541633906200d21e565b604051908152a1005b6303dc938760e61b5f5260045260245260445ffd5b62fae2d560e21b5f5260045260245260445ffd5b3462003fb557604036600319011262003fb5577f184fbff1cd7a3d3af1fd538263d79328e135402c70c68de9b795ee4fcc0440bc620044d962007eac565b620044e362007f21565b90620044ee6200a41a565b81156200453a576001600160a01b0381165f5260da60205260405f20600160ff198254161790555b604080516001600160a01b039092168252911515602082015290819081015b0390a1005b6001600160a01b0381165f5260da60205260405f2060ff19815416905562004516565b3462003fb557604036600319011262003fb5577ffe982a540a46b78ba39fe94b2fec322414acda6ca69e165520017d474e0dee4860606200459d62007eac565b620045a762007f21565b620045b16200a41a565b620045bc826200af65565b811562004602576001600160a01b0383165f5260de60205260405f20600160ff198254161790555b6001600160a01b0360405193168352602083015215156040820152a1005b6001600160a01b0383165f5260de60205260405f2060ff198154169055620045e4565b3462003fb55760406200464e62004648620046403662007ec3565b91906200a3c9565b6200d3fc565b82519160050b82526020820152f35b3462003fb5576200466e3662007ec3565b90335f5260dd60205260ff60405f20541615620046ed576200468f6200a845565b6200402f57614e208211620046d257807f29246c8aee392e4f61a964c88192adac4afc12ed286fcbd7698783763467475f92620041a662002cf96040946200a3c9565b634dcc027160e11b5f52600452602452614e2060445260645ffd5b6338095ba560e21b5f523360045260245ffd5b3462003fb557602036600319011262003fb557600435620047206200a41a565b6200472b816200a3c9565b90600282015464ffffffffff8116159081159162004920575b508015620048f1575b620048df5761ffff600983015460201c1680620048c9577fc1c33d1bd4abb6d1a8ed08f6a49cdf51c1db8b81ce6810a713fcd0291cc63f97602083856001600160501b036003820181815416806200487c575b505460501c1690816200482e575b5050805f5260d982525f601160408220828155826001820155826002820155826003820155826004820155826005820155826006820155620047f36007820162009e26565b620048016008820162009e26565b82600982015582600a82015582600c82015501556200482260d85462009e7a565b60d855604051908152a1005b816200485e7f6cbcbbf194e245478b88cdee7b07dd6402cf492bcef0df03eae198637a072474936040936200c490565b62004869816200be18565b81519084825285820152a18380620047ae565b604081620048ac7f9adf439943034ba500551cd8e7417ea8cafa00933026f4e8e3612c01524d637793876200d3e0565b620048b7816200be18565b81519087825288820152a186620047a0565b9063e47393c360e01b5f5260045260245260445ffd5b631bb9ae6f60e11b5f5260045260245ffd5b5060ff825460c01c1660058110156200490c5715156200474d565b634e487b7160e01b5f52602160045260245ffd5b64ffffffffff915060281c1615158362004744565b3462003fb5575f36600319011262003fb557336001600160a01b03606554160362004965576200402d336200d38a565b60405162461bcd60e51b815260206004820152602960248201527f4f776e61626c6532537465703a2063616c6c6572206973206e6f74207468652060448201527f6e6577206f776e657200000000000000000000000000000000000000000000006064820152608490fd5b3462003fb557602036600319011262003fb557620049ed62007f31565b620049f76200a845565b6200402f5762004a07336200af65565b90815f5260d560205260405f209182549260ff8460a01c169362004a2b8562007e07565b8462004ab7577f743a9ef374d6b3c905b8fd725a33cc63980a202108bfd3cbf65e94a23640a02e94507fffffffffffffffffffff00ffffffffffffffffffffffffffffffffffffffffff75ff00000000000000000000000000000000000000000085151560a81b1691161790556200453560405192839283909291602090604083019483521515910152565b63e0860e5f60e01b5f528462004acd8162007e07565b60045260245ffd5b3462003fb55762004ae636620080f1565b62004af06200a41a565b60098110801562004c42575b62004c265762004b0c8162009dff565b808311801562004c18575b62004be2575091620045357fca21b8a8b8d11b0faf46a19341a9e5fa3d668a48778efaff9fbec48fa21e5df093600162004b51846200a3c9565b0180547affffffffffffffffffffffffffffffffffffffffffffffffffffff1660d886901b7effffffff000000000000000000000000000000000000000000000000000000161760f883901b7fff0000000000000000000000000000000000000000000000000000000000000016179055604080519384526020840194909452928201929092529081906060820190565b905063ffffffff81101562004c0b57915b6377b084bf60e11b5f5260045260245260445260645ffd5b5063ffffffff9162004bf3565b5063ffffffff831162004b17565b633361596f60e11b5f526004526009602452602460445260645ffd5b506024811162004afc565b3462003fb557602036600319011262003fb55760043567ffffffffffffffff811162003fb5573660238201121562003fb557806004013567ffffffffffffffff811162003fb5573660248260091b8401011162003fb557335f5260dc60205260ff60405f2054161562004cd75762004cc46200a845565b6200402f5760246200402d920162009bb7565b631d37e03560e31b5f523360045260245ffd5b3462003fb55762004d1262004cff3662007ec3565b919062004d0b6200908f565b506200a3c9565b815f526012810160205260405f20916040519262004d3084620082e2565b549263ffffffff84168152602081019163ffffffff8560201c16835260ff8560401c1694604083019562004d64816200810c565b865260608301956001600160501b038260481c1687526080840163ffffffff8360981c16815260a085019164ffffffffff8460b81c16835260c086019360e01c845262004db1886200bc73565b505050968715988962004eb0575b926101a09a83869363ffffffff64ffffffffff8162004e509f9e9d9b9862004e218f839f9c8c859f8c8888806001600160501b0399519562004e01876200810c565b51169251169251169284549560ff808860b81c169760b01c16956200bcbe565b9f919d909e511695511695519662004e39886200810c565b5116965116965116965116966040519d8e620082c4565b8d5260208d015260408c015262004e67816200810c565b60608b015260808a015260a089015260c088015260e087015261010086015261012085015261014084015262004ea1604051809462008117565b61016083015215610180820152f35b805463ffffffff16985062004dbf565b3462003fb5575f36600319011262003fb55762004edc6200a41a565b6001600160a01b0319606554166065555f6001600160a01b036033546001600160a01b03198116603355167f8be0079c531659141344cd1fd0a4f28419497f9722a3daafe3b4186f6b6457e08280a3005b3462003fb5577f8e37539629486a88c6a6083eb90030fb61cb856d56d96f53a326fda0d399ef32604062004f613662007ec3565b62004f6b6200a41a565b620041a68162004f7b846200a3c9565b6200d328565b3462003fb557604036600319011262003fb55760043562004fa162007f21565b62004fab6200a41a565b62004fb6826200a3c9565b916002830180549360ff8560f01c1680620050b8575b62005046575b507f8ac110193a47d8207dd88897368f2031dd31bfea6bcfd9a2b3ea6759e81c4e14937fff00ffffffffffffffffffffffffffffffffffffffffffffffffffffffffffff60ff60f01b85151560f01b1691161790556200453560405192839283909291602090604083019483521515910152565b6001600160a01b0360ca541680158015620050ab575b6200508c57505460401c63ffffffff161562005079578462004fd2565b50630c5eed9d60e11b5f5260045260245ffd5b60068492015491631744ee4f60e31b5f5260045260245260445260645ffd5b506006820154156200505c565b50831562004fcc565b3462003fb55760c0620050e26002620050da3662007ec3565b92906200a3c9565b015461ffff8160b81c169164ffffffffff8260501c168261ffff6200512460ff849660d81c16948560ff8560e01c1697889264ffffffffff8716908b6200d2f9565b9160405196875260c81c16602086015260408501526060840152608083015260a0820152f35b3462003fb557602036600319011262003fb55760606200516c6004356200a3c9565b60ff815460c01c169060056004820154910154906200518f604051809462007df9565b60208301526040820152f35b3462003fb557620051b26009620050da3662007ec3565b0162ffffff8211620051d857604091620051cc916200bd3b565b82519182526020820152f35b5063c6ebaaa160e01b5f5260045262ffffff60245260445ffd5b3462003fb557602036600319011262003fb557600435620052126200a845565b6200402f5762005222336200af65565b90815f5260d560205260405f209160ff835460a01c16620052438162007e07565b60028114620052c95750620045356001600160501b038462005287857f2687926b167b6633deaaa80c3d106be87c0530fbc9ecba972ef8da4a3f2c489b976200cf38565b506200529485826200d205565b6200529f856200be18565b5416604051938493849160409194936001600160501b039160608501968552602085015216910152565b63e0860e5f60e01b5f5262004acd8162007e07565b3462003fb557602036600319011262003fb557600435620052fe6200cec0565b620053086200a845565b6200402f5762005318336200af65565b90815f5260d560205260405f209160ff835460a01c16620053398162007e07565b80620052c957506200534c82846200cf38565b5060cc54808311620053d15750620053c76001600160501b037f8a087568cf2efa04e1e6c72c7f61b68a1ac013d6a33bd6e978e1ba2b4efc04d49462005392856200d068565b6200539e85826200d205565b620053ac8560cc54620085f0565b60cc556200529f85336001600160a01b0360cb54166200d21e565b0390a16001609755005b90506303dc938760e61b5f5260045260245260445ffd5b3462003fb557620053f936620080f1565b91620054046200a41a565b6200540f816200a3c9565b6200541b848462008b84565b90620186a082116200551d57620186a08411620055035760010180546affffff00000000000000001916604085901b6affffff000000000000000016178155620186a08511620054e95780546dffffff00000000000000000000001916605886901b6dffffff000000000000000000000016179055620186a090810390811162003cf5577f61c468e821b1662263e339e465b2b8aa3c36b504f804ffac4a19ad8eae3df813936200453591604051948594859094939260609260808301968352602083015260408201520152565b846395d41f3f60e01b5f52600452620186a060245260445ffd5b836395d41f3f60e01b5f52600452620186a060245260445ffd5b6084838686604051926334af053b60e21b8452600484015260248301525f60448301526064820152fd5b3462003fb557602036600319011262003fb5577f4837c28a17fa53b7af0fe87d3e7cf2a681119d768391e182ed4dfd33497e288f60206200558762007f31565b620055916200a41a565b151560ff1960e1541660ff82161760e155604051908152a1005b3462003fb557620055c062004cff3662007ec3565b61ffff82116200568e576010915f520160205261016060405f2061ffff60405191620055ec83620082c4565b5463ffffffff8116835260ff8160201c16620056088162007e07565b602084015262ffffff8160281c16604084015264ffffffffff8160401c166060840152818160681c16608084015263ffffffff8160781c1660a0840152818160981c1660c0840152818160a81c1660e0840152818160b81c16610100840152818160c81c1661012084015260d81c166101408201526200568c6040518092620081af565bf35b50630c8f0a6960e41b5f526004525f60245261ffff60445260645ffd5b3462003fb557602036600319011262003fb55760043567ffffffffffffffff811162003fb557620056e190369060040162007fa8565b335f5260db60205260ff60405f205416156200403e57620057016200a845565b6200402f576200402d9162009a68565b3462003fb5575f36600319011262003fb557602060ff60e154166040519015158152f35b3462003fb557620057463662007ec3565b90620057516200a41a565b6200575c816200a3c9565b6001600160501b03600382015460501c16838110620057b1577f6cbcbbf194e245478b88cdee7b07dd6402cf492bcef0df03eae198637a07247460408486620057a681876200c490565b620041a6816200be18565b839062fae2d560e21b5f5260045260245260445ffd5b3462003fb557602036600319011262003fb5577fb405a09f729f41978995eba596767f10784a912a3e8d56a978e5e167c1b23d7d60206200580762007f31565b620058116200a41a565b60c954811562005844576001905b600160ff6200582d6200a83b565b9316831b921b19161760c9556040519015158152a1005b5f906200581f565b3462003fb55760a036600319011262003fb5576200586962007e98565b60643561ffff8116810362003fb55760843590600282101562003fb557335f5260dc60205260ff60405f2054161562004cd757620058a66200a845565b6200402f576200402d9260243560043562009668565b3462003fb557604036600319011262003fb557620058d962007e84565b335f5260db60205260ff60405f205416156200403e57620058f96200a845565b6200402f576200402d9063ffffffff620059156004356200a3c9565b9116906200a680565b3462003fb557602036600319011262003fb5577f06d9a2e5d1f47e8b66c517104114f36514593b09c9b90cb622a6883e595d4bcd6020600435620059616200a41a565b6200596c816200be18565b6200597a8160cc5462008b84565b60cc5562004469816001600160a01b0360cb5416309033906200be30565b3462003fb5575f36600319011262003fb5576001600160a01b037f000000000000000000000000000000000000000000000000000000000000000016300362005a055760206040517f360894a13ba1a3210667c828492db98dca3e2076cc3735a920a3ca505d382bbc8152f35b60405162461bcd60e51b815260206004820152603860248201527f555550535570677261646561626c653a206d757374206e6f742062652063616c60448201527f6c6564207468726f7567682064656c656761746563616c6c00000000000000006064820152608490fd5b3462003fb55762005a813662008190565b62005a8e9391936200a41a565b62005a99826200a3c9565b62005ab08262005aaa878762008b84565b62008b84565b90620186a0821162005c3857620186a08511620054e95760010180547fffffffffffffffffffffffff000000ffffffffffffffffffffffffffffffffff16608886901b73ffffff000000000000000000000000000000000016178155620186a0861162005c1e5780547fffffffffffffffffff000000ffffffffffffffffffffffffffffffffffffffff1660a087901b76ffffff000000000000000000000000000000000000000016178155620186a0831162005c045780547fffffffffffff000000ffffffffffffffffffffffffffffffffffffffffffffff79ffffff0000000000000000000000000000000000000000000000808660b81b16169116179055620186a00390620186a0821162003cf5577f58735d184c71d18d22f8f2eb43be3e299cad7d465faac909163477072a58f9e99460a0946040519485526020850152604084015260608301526080820152a1005b826395d41f3f60e01b5f52600452620186a060245260445ffd5b856395d41f3f60e01b5f52600452620186a060245260445ffd5b5050604051631121702960e01b815260048101929092526024820192909252604481018390526064810191909152608490fd5b3462003fb557602036600319011262003fb5575f61010060405162005c9081620082a6565b8281528260208201528260408201528260608201528260808201528260a08201528260c08201528260e08201520152600162005cce6004356200a3c9565b015462ffffff8160401c1662ffffff8260581c169162005cef838362008b84565b620186a00392620186a0841162003cf55762ffffff8260881c1662ffffff8360a01c1662ffffff8460b81c169162005d2d8362005aaa848462008b84565b620186a00393620186a0851162003cf557610120976040519162005d5183620082a6565b888352602083019081526040830191825260ff610100606085019462ffffff8b60701c1686526080810196875260a0810197885260c0810198895260e08101998a52019860d01c16151588526040519889525160208901525160408801525160608701525160808601525160a08501525160c08401525160e0830152511515610100820152f35b604036600319011262003fb55762005def62007eac565b60243567ffffffffffffffff811162003fb55762005e12903690600401620083d1565b62005e806001600160a01b037f00000000000000000000000000000000000000000000000000000000000000001662005e4e8130141562008cf0565b6001600160a01b037f360894a13ba1a3210667c828492db98dca3e2076cc3735a920a3ca505d382bbc54161462008d63565b62005e8a6200a41a565b7f4910fdfa16fed3260ed0e7147f7cc6da11a60208b5b9406d12a635614ffd91435460ff161562005ec157506200402d9062010c4c565b6040516352d1902d60e01b81526001600160a01b03831690602081600481855afa5f918162006082575b5062005f4d5760405162461bcd60e51b815260206004820152602e60248201527f45524331393637557067726164653a206e657720696d706c656d656e7461746960448201526d6f6e206973206e6f74205555505360901b6064820152608490fd5b7f360894a13ba1a3210667c828492db98dca3e2076cc3735a920a3ca505d382bbc036200602b5762005f7f8362010c4c565b7fbc7cd75a20ee27fd9adebab32041f755214dbc6bffa90cc0225b39da2e5c2d3b5f80a280511580159062006022575b62005fb657005b6200402d915f806040519362005fce60608662008356565b602785527f416464726573733a206c6f772d6c6576656c2064656c65676174652063616c6c6020860152660819985a5b195960ca1b6040860152602081519101845af46200601b620152a5565b916201a586565b50600162005faf565b60405162461bcd60e51b815260206004820152602960248201527f45524331393637557067726164653a20756e737570706f727465642070726f786044820152681a58589b195555525160ba1b6064820152608490fd5b9091506020813d602011620060b3575b81620060a16020938362008356565b8101031262003fb55751908562005eeb565b3d915062006092565b3462003fb5576101e036600319011262003fb557620060da62008617565b50620060e56200a845565b6200402f57620060f5336200af65565b805f5260d560205260405f209060ff825460a01c16620061158162007e07565b8015158062006258575b620052c957506024359062006134826200a3c9565b9060443593600785101562003fb55760e4358015159081810362003fb5575061010435948515159586810362003fb5575061012435908115159788830362003fb55760409862006246987f02d2bf39d2355aaa5486487e934403fd3ba3f88c73ab71938cee11931fddeb7b956102209550620061d05a948d519687528a60208801526004358e8801526064356060880152608087019062009ba9565b60843560a086015260a43560c086015260c43560e08601526101008501526101208401526101408301526101443561016083015261016435610180830152610184356101a08301526101a4356101c08301526101c4356101e0830152610200820152a161ffff600284015460781c16926200ab4a565b60208251918051835201516020820152f35b50604435600781101562003fb557600414156200611f565b3462003fb557602036600319011262003fb557600435620062906200a41a565b64e8d4a5100081108015620062fb575b620062d6576020817f2407f52a609c844e44dbad3e5a8ec9347e6aa702684e124256f81ef7504b9d1b9260d355604051908152a1005b63747693eb60e11b5f5264e8d4a51000600452655af3107a400060245260445260645ffd5b50655af3107a40008111620062a0565b3462003fb5576200632a620063203662008190565b929190916200942a565b9060405190604082019260408352815180945260206060840192015f945b8086106200635e57505082935060208301520390f35b9092602061016082620063756001948851620081af565b0194019501949062006348565b3462003fb557620063933662007f76565b90335f5260da60205260ff60405f205416156200643857620063b46200a845565b6200402f57620063c48262007e07565b811562006429577f287a1a0be47186fe812cf10628edc8c56638095124099fea05c3e3f59e3a0dc691620063fa6040926200af65565b90815f5260d56020526200641181845f2062008b92565b8251918252620064218162007e07565b6020820152a1005b633f068f8760e11b5f5260045ffd5b63a37849fb60e01b5f523360045260245ffd5b3462003fb557620064676200646036620080f1565b91620090e2565b610c4051610c6051919290604051926080840194608085528351809652602060a0860194015f965b808810620064b157505084955060208501526040840152151560608301520390f35b9094602061016082620064c86001948a5162008117565b019601970196906200648f565b3462003fb557620064e63662007ec3565b90620064f16200a41a565b620064fc816200a3c9565b620186a0831162005c0457600101805470ffffff00000000000000000000000000001916607084901b70ffffff0000000000000000000000000000161790556040805191825260208201929092527f82af0435eb6aa1e7cd302eaf1f32e10e8d7bb8e96d1f724a6006fbaa4571890f9190a1005b3462003fb5576200658136620080b0565b90335f5260dc60205260ff60405f2054161562004cd757620065a26200a845565b6200402f576200402d9262008f73565b3462003fb557602036600319011262003fb557602061ffff6002620065d96004356200a3c9565b015460781c16604051908152f35b3462003fb557602036600319011262003fb5576001600160a01b036200660c62007eac565b165f5260df602052602060ff60405f2054166040519015158152f35b3462003fb5575f36600319011262003fb5576020620032b76200b1f6565b3462003fb557602036600319011262003fb557604060096200666a6004356200a3c9565b015460ff82519161ffff8160301c168352831c166020820152f35b3462003fb557604036600319011262003fb55760043567ffffffffffffffff811162003fb5573660238201121562003fb55780600401359067ffffffffffffffff821162003fb5573660246101e084028301011162003fb557620066e862007f21565b620066f26200a845565b6200402f576200070f9260246200670a930162008e0e565b6040519182918262007eda565b3462003fb557602036600319011262003fb557620067376004356200a3c9565b600a810154906120206040519162006750828462008356565b61010083526020830191601f1901368337600b81015f5b6101008110620067cc575050600961ffff91015460201c166040519260608401948452606060208501525180945260808301915f945b808610620067b357505082935060408301520390f35b909260208060019286518152019401950194906200679d565b806001915f528260205260405f2054620067e78288620086a4565b520162006767565b3462003fb557602036600319011262003fb5576200680c62007eac565b620068486001600160a01b037f00000000000000000000000000000000000000000000000000000000000000001662005e4e8130141562008cf0565b620068526200a41a565b60405190602062006864818462008356565b5f8352808301601f1982013682377f4910fdfa16fed3260ed0e7147f7cc6da11a60208b5b9406d12a635614ffd91435460ff1615620068ab5750506200402d915062010c4c565b6001600160a01b03839293166040516352d1902d60e01b81528481600481855afa5f918162006a5f575b50620069375760405162461bcd60e51b815260048101869052602e60248201527f45524331393637557067726164653a206e657720696d706c656d656e7461746960448201526d6f6e206973206e6f74205555505360901b6064820152608490fd5b7f360894a13ba1a3210667c828492db98dca3e2076cc3735a920a3ca505d382bbc0362006a0857620069698362010c4c565b7fbc7cd75a20ee27fd9adebab32041f755214dbc6bffa90cc0225b39da2e5c2d3b5f80a283511580159062006a00575b620069a057005b5f80916200402d957f416464726573733a206c6f772d6c6576656c2064656c65676174652063616c6c60405196620069da60608962008356565b60278852870152660819985a5b195960ca1b60408701525190845af46200601b620152a5565b505f62006999565b60405162461bcd60e51b815260048101859052602960248201527f45524331393637557067726164653a20756e737570706f727465642070726f786044820152681a58589b195555525160ba1b6064820152608490fd5b9091508581813d831162006a8c575b62006a7a818362008356565b8101031262003fb557519087620068d5565b503d62006a6e565b3462003fb557604036600319011262003fb5577ffff8b0b240abf69d0ca9160bd7dcc49339068496d45e0bf7aab7468fc6a6c2c760043562006ad562007f21565b9062006ae06200a41a565b600162006aed826200a3c9565b0180547fffffffffff00ffffffffffffffffffffffffffffffffffffffffffffffffffff7aff000000000000000000000000000000000000000000000000000085151560d01b1691161790556200453560405192839283909291602090604083019483521515910152565b3462003fb55762006b693662007ec3565b62006b736200a41a565b62006b7e826200a3c9565b60018210801562006c54575b62006c375760020160ff815460e01c168083101562006c215781547fffffffff00ffffffffffffffffffffffffffffffffffffffffffffffffffffff1660d884901b7bff0000000000000000000000000000000000000000000000000000001617825560408051858152602081018590527ff4b59dd9ee04b23a163fa42f622d424f19a1cc0f76d4455f900106cef0e3c5129190a1005b82630ba8360160e41b5f5260045260245260445ffd5b50630c8f0a6960e41b5f526004526001602452606460445260645ffd5b506064821162006b8a565b3462003fb557602036600319011262003fb55760043562006c7f6200a41a565b6309c3d8f080821162006cd2575060c95460e391612710613fff9104831b921b19161760c9557fcd3426b08e2946f33fe401b723f71049867976631425553ecf95848fc4b088a96020620044696200b1d0565b90630c8f0a6960e41b5f526004525f60245260445260645ffd5b3462003fb55762006d0962006d013662007ec3565b91906200a473565b905f526003810160205260405f20549061ffff8260401c169062006d2d8262008c15565b91600263ffffffff5f95169201915b8015158062006d76575b1562004118575f528160205263ffffffff60405f2062006d6a620040ec8762008c6e565b505460201c1662006d3c565b5081851062006d46565b3462003fb557604036600319011262003fb55762006d9d62007eac565b7f8b91d2cd88f6e870c2beaa65e6299f6dee33511ff403ab0ffb32f926e3a9a28360206001600160a01b0362006dd262007f21565b9362006ddd6200a41a565b1692835f5260d4825262006e008160405f209060ff801983541691151516179055565b6040519015158152a2005b3462003fb55762006e1c3662007ec3565b62006e266200a41a565b60c9546001600160701b031681811062004487575062006e46826200a473565b9160ff835460a01c1662006e5a8162007e07565b60028114620052c95750620045356001600160501b037f85b48f5618e9d5b21320fb47ad01cfbf4f739a3e7f7950a445c97099d578911e9462006e9d856200b070565b6200529f85826200b1a4565b3462003fb55762006eba3662007fdc565b90335f5260da60205260ff60405f20541615620064385762006edb6200a845565b6200402f576103fc831162006f2857825f5260d960205260405f209262006f02846200b0e6565b62006f16575060096200402d93016200b10d565b63b934a7fb60e01b5f5260045260245ffd5b8263324f0d9160e21b5f5260045260245ffd5b3462003fb557602036600319011262003fb55760043562006f5b6200a41a565b60c9546001600160701b031681811062004487577f3926c691232881614240a3ec84f5910abdac662ecb616cf8ab9b9fe44d932bc860208362006f9e816200b070565b62004469816200b099565b3462003fb557602036600319011262003fb5576040601162006fcd6004356200a3c9565b015463ffffffff825191818116835260201c166020820152f35b3462003fb5577f287a1a0be47186fe812cf10628edc8c56638095124099fea05c3e3f59e3a0dc66040620063fa6200701f3662007f76565b91906200702b6200a41a565b6200af65565b3462003fb557620070423662007f51565b90916200704e6200a845565b6200402f576200705e336200af65565b916200706a836200a473565b9060ff825460a01c166200707e8162007e07565b80620052c9575062007090836200a3c9565b620070a360ff825460c01c16856200afbd565b5060028101546064620070e464ffffffffff808416818560281c168082115f146200729557505b169260ff64ffffffffff8260501c169160e81c16620085aa565b0490818110156200727c5750506001600160501b0386116200725e57601290855f520160205260405f209364ffffffffff855460b81c16156200724857607842019283421162003cf5577fd990ce6190d58ffb8c06ec564b7ebdac6a21afe5b067513aba6cbf478ccac6e9966101009663ffffffff64ffffffffff96169460405190620071718262008289565b868252602082016001600160501b0385168152600460408401921515968784528b5f520160205263ffffffff8060405f209451161663ffffffff1984541617835551906dffffffffffffffffffff000000006eff000000000000000000000000000084549251151560701b169260201b16906effffffffffffffffffffff00000000191617179055549360ff8560401c1693604051978852602088015260408701526060860152608085015262007228816200810c565b60a084015263ffffffff8160981c1660c084015260b81c1660e0820152a1005b836334a4033d60e11b5f5260045260245260445ffd5b856395d41f3f60e01b5f526004526001600160501b0360245260445ffd5b8563a086029960e01b5f5260045260245260445260645ffd5b9050620070ca565b3462003fb5575f36600319011262003fb5576020620032b76200af99565b3462003fb557620072cc3662007ec3565b90620072d76200a41a565b613a9882116200733357807f70df7db68793145153f083606826dfc0e51ef634e3d99f5a8ff74d7fd27405e692620041a6620073156040946200a3c9565b600201805461ffff60981b1916609884901b61ffff60981b16179055565b631b71514f60e11b5f52600452602452613a9860445260645ffd5b3462003fb557602036600319011262003fb5576200070f620073846200737362007eac565b6200737d6200850a565b506200af65565b620073ed600562007395836200a473565b805460ff8160a01c166001600160501b03600184015460601c9260405197620073be896200826c565b8852818116602089015260501c166040870152620073dc8162007e07565b60608601526080850152016200855f565b60a08201526040519182918262007e12565b3462003fb557602036600319011262003fb557602061ffff6002620074266004356200a3c9565b015460881c16604051908152f35b3462003fb557620074453662007ec3565b335f5260da60205260ff60405f205416156200643857620074656200a845565b6200402f576200402d9162008afb565b3462003fb557604036600319011262003fb5577f44f632293c2bd117a0d277a1057b0a5495dfbd57d2e3636bb80f0912ee6d0ba9620074b362007eac565b620074bd62007f21565b90620074c86200a41a565b811562007513576001600160a01b0381165f5260dc60205260405f20600160ff19825416179055604080516001600160a01b0390921682529115156020820152908190810162004535565b6001600160a01b0381165f5260dc60205260405f2060ff19815416905562004516565b3462003fb557602036600319011262003fb55760043567ffffffffffffffff811162003fb5573660238201121562003fb55780600401359067ffffffffffffffff821162003fb5573660246102c084028301011162003fb557335f5260da60205260ff60405f205416156200643857620075af6200a845565b6200402f576200070f9160246200670a9201620086cd565b3462003fb5575f36600319011262003fb55760d7545f19810190811162003cf557602090604051908152f35b3462003fb557620076043662007ec3565b6200760e6200a41a565b61012c8082116200769a577fd947284a0ec09f0204c4d87a28d7f12ae5979a8c58b1456b5aa2c5066f9732956040848462007649826200a3c9565b80547fffffffffffffffffffff0000ffffffffffffffffffffffffffffffffffffffff1660a083901b75ffff00000000000000000000000000000000000000001617905582519182526020820152a1005b916335d09a8f60e21b5f5260045260245260445260645ffd5b3462003fb5575f36600319011262003fb557602060405161217b8152f35b3462003fb557602036600319011262003fb5576001600160a01b03620076f662007eac565b165f5260da602052602060ff60405f2054166040519015158152f35b3462003fb557604036600319011262003fb5576200402d6200773362007e84565b6200773d6200a41a565b63ffffffff6200774f6004356200a3c9565b9116906200a4e3565b3462003fb557602036600319011262003fb557600435620077786200a41a565b62007783816200a3c9565b60ff815460c01c1660058110156200490c5760028103620077e3577fd92eee87539b24ad02a6f03980106354cd078a3eb9c2c4257685215063c61ecd602084845f6004820155600160c01b60ff60c01b19825416179055604051908152a1005b6313295a4960e11b5f526004839052620077fd9062007dea565b60445ffd5b3462003fb557602036600319011262003fb5576200070f600435620078266200850a565b50620073ed600562007395836200a473565b3462003fb557604036600319011262003fb5576004356024356200785b6200a41a565b62007866826200a3c9565b60ff815460c01c1660058110156200490c5780620078ca57506001600160a01b0360ca541680156200508c577f9c03c6796385c736172929a88c5f8c4fc7c287d6df80c75f290d4f18ca9ece726040858580600687015582519182526020820152a1005b630d76efe360e41b5f526004849052620077fd9062007dea565b3462003fb557602036600319011262003fb557600435620079046200a41a565b60ff62007911826200a3c9565b5460c01c1660058110156200490c576002810362007956577f5fa123d2cd3b174872bde6224d3ecc37811a5b365b5c481672f7ff0cb5bfd6c4602083604051908152a1005b620077fd916313295a4960e11b5f5260045262007dea565b3462003fb557602036600319011262003fb5576103a081620079915f936200824e565b60608152606060208201528260408201528260608201528260808201528260a08201528260c08201528260e08201528261010082015282610120820152826101408201528261016082015282610180820152826101a0820152826101c0820152826101e08201528261020082015282610220820152826102408201528261026082015282610280820152826102a0820152826102c0820152826102e08201528261030082015282610320820152826103408201528261036082015282610380820152015262007a626004356200a3c9565b805460068201549060018301549063ffffffff6003850154926001600160501b0360028701549460098801549662007abb60086040519a62007aa48c6200824e565b62007ab2600782016200845e565b8c52016200845e565b60208a015260ff8660b01c1660408a015260ff8660b81c1660608a0152608089015261ffff8560901c1660a0890152838360d81c1660c08901528260f81c60e089015261ffff8560a01c1661010089015281811661012089015260501c16610140870152818316610160870152818360201c166101808701528181166101a087015260201c166101c085015263ffffffff8160401c166101e085015263ffffffff8160601c1661020085015264ffffffffff821661022085015264ffffffffff8260281c1661024085015263ffffffff8160c81c166102608501528060801c60010b61028085015261ffff8260981c166102a0850152600560ff8260c01c1610156200490c5760ff928361ffff9260c01c166102c086015263ffffffff81166102e086015262ffffff8160781c1661030086015262ffffff8160901c1661032086015262ffffff8160481c1661034086015262ffffff8160601c1661036086015260201c1661038084015260f01c1615156103a08201526040518091602082526103a062007c7362007c5c83516103c060208701526103e086019062007dc6565b6020840151858203601f1901604087015262007dc6565b916040810151606085015260608101516080850152608081015160a085015260a081015160c085015260c081015160e085015260e08101516101008501526101008101516101208501526101208101516101408501526101408101516101608501526101608101516101808501526101808101516101a08501526101a08101516101c08501526101c08101516101e08501526101e081015161020085015261020081015161022085015261022081015161024085015261024081015161026085015261026081015161028085015261028081015160010b6102a08501526102a08101516102c085015262007d726102c08201516102e086019062007df9565b6102e081015161030085015261030081015161032085015261032081015161034085015261034081015161036085015261036081015161038085015261038081015182850152015115156103c08301520390f35b805180835260209291819084018484015e5f828201840152601f01601f1916010190565b60058110156200490c57602452565b9060058210156200490c5752565b600411156200490c57565b919091610100606060a06101208401958051855260208101516020860152604081015160408601528281015162007e498162007e07565b838601526001600160a01b0360808201511660808601520151805160a0850152602081015160c0850152604081015160e08501520151910152565b6024359063ffffffff8216820362003fb557565b6044359063ffffffff8216820362003fb557565b600435906001600160a01b038216820362003fb557565b604090600319011262003fb5576004359060243590565b60206040818301928281528451809452019201905f5b81811062007efe5750505090565b825180518552602090810151818601526040909401939092019160010162007ef0565b60243590811515820362003fb557565b60043590811515820362003fb557565b60643590811515820362003fb557565b606090600319011262003fb5576004359060243590604435801515810362003fb55790565b604090600319011262003fb5576004356001600160a01b038116810362003fb55790602435600481101562003fb55790565b9181601f8401121562003fb55782359167ffffffffffffffff831162003fb5576020808501948460051b01011162003fb557565b90604060031983011262003fb557600435916024359067ffffffffffffffff821162003fb557620080109160040162007fa8565b9091565b60206040818301928281528451809452019201905f5b818110620080385750505090565b909192602060c06001926001600160501b0360a0885163ffffffff815116845263ffffffff86820151168685015263ffffffff60408201511660408501526060810151620080868162007e07565b606085015260808181015164ffffffffff169085015201511660a08201520194019291016200802a565b604060031982011262003fb5576004359067ffffffffffffffff821162003fb557620080df9160040162007fa8565b9091602435801515810362003fb55790565b606090600319011262003fb557600435906024359060443590565b600211156200490c57565b6101408091805184526020810151602085015260408101516040850152606081015162008144816200810c565b60608501526080810151608085015260a081015160a085015260c081015160c085015260e081015160e08501526101008101516101008501526101208101516101208501520151910152565b608090600319011262003fb55760043590602435906044359060643590565b61ffff610140809263ffffffff81511685526020810151620081d18162007e07565b602086015262ffffff604082015116604086015264ffffffffff606082015116606086015282608082015116608086015263ffffffff60a08201511660a08601528260c08201511660c08601528260e08201511660e086015282610100820151166101008601528261012082015116610120860152015116910152565b6103c0810190811067ffffffffffffffff82111762003e3857604052565b60c0810190811067ffffffffffffffff82111762003e3857604052565b6060810190811067ffffffffffffffff82111762003e3857604052565b610120810190811067ffffffffffffffff82111762003e3857604052565b610160810190811067ffffffffffffffff82111762003e3857604052565b60e0810190811067ffffffffffffffff82111762003e3857604052565b6080810190811067ffffffffffffffff82111762003e3857604052565b6040810190811067ffffffffffffffff82111762003e3857604052565b60a0810190811067ffffffffffffffff82111762003e3857604052565b90601f8019910116810190811067ffffffffffffffff82111762003e3857604052565b67ffffffffffffffff811162003e3857601f01601f191660200190565b929192620083a48262008379565b91620083b4604051938462008356565b82948184528183011162003fb5578281602093845f960137010152565b9080601f8301121562003fb557816020620083ef9335910162008396565b90565b9181601f8401121562003fb55782359167ffffffffffffffff831162003fb5576020838186019501011162003fb557565b90600182811c9216801562008453575b60208310146200843f57565b634e487b7160e01b5f52602260045260245ffd5b91607f169162008433565b9060405191825f825492620084738462008423565b8084529360018116908115620084e657506001146200849e575b506200849c9250038362008356565b565b90505f9291925260205f20905f915b818310620084c95750509060206200849c928201015f6200848d565b6020919350806001915483858901015201910190918492620084ad565b9050602092506200849c94915060ff191682840152151560051b8201015f6200848d565b6040519062008519826200826c565b815f81525f60208201525f60408201525f60608201525f608082015260a0604051916200854683620082ff565b5f83525f60208401525f60408401525f60608401520152565b906040516200856e81620082ff565b6060600382948054845260018101546020850152600281015460408501520154910152565b9060308202918083046030149015171562003cf557565b8181029291811591840414171562003cf557565b6102fc1981019190821162003cf557565b6101fc1981019190821162003cf557565b60fc1981019190821162003cf557565b9190820391821162003cf557565b67ffffffffffffffff811162003e385760051b60200190565b6040519062008626826200831c565b5f6020838281520152565b906200863d82620085fe565b6200864c604051918262008356565b82815280926200865f601f1991620085fe565b01905f5b8281106200867057505050565b60209060405162008681816200831c565b5f81525f838201528282850101520162008663565b35801515810362003fb55790565b8051821015620086b95760209160051b010190565b634e487b7160e01b5f52603260045260245ffd5b91620086d98262008631565b80511562008af5578215620086b957839160408501606086013595620086ff876200a3c9565b925f5b8781101562008abf578062008a84575b8635906200872285838c6200a85b565b815f5260d560205260405f20856200873e6102208b0162008696565b6102408b01359490801562008a1d5785620089e65763ffffffff600185015460401c165f63ffffffff8281873516031660030b1315620089ab57505b85151590816200891f575b845460ff8160a01c16620087998162007e07565b80620088d7575060a81c60ff1615620088a4571562008891577f4b33653917eefdb992cac4fb999fcecfc80848487b46a9f1fbe97ef541aafa195f80a1620087e38335856200ab10565b15620088595750505061026088013591600283101562003fb55760807fd3b7d0aa2cb3540e154ebb47122cf86e0db24117323b827d28da43422fcd57d89160019460405191825262008835816200810c565b60208201526102808b013560408201526102a08b01356060820152a15b0162008702565b600194509062008871929160208c0135928a6200ac45565b6200887d8289620086a4565b526200888a8188620086a4565b5062008852565b6200889e8335856200aab6565b620087e3565b5050505050600191507fcb7f793535461714e08fcb65e21b3379d2aedbf9c04354ade356a824dcefe9f55f80a162008852565b9350505050600194507fe0860e5ff8578b025fc8a7f42c449c575b7a19600e8d2b3fd6ab0ae6e2e0840392506020915060405190620089168162007e07565b8152a162008852565b6200893563ffffffff60098d015416886200a965565b6200899c576101808401358015158062008992575b62008956575062008785565b92505050600194507f9f38a7d29e6c9e707bfe5fee47b29748083dc31546de0135d48ed99db5e190f0925060209150604051908152a162008852565b504381106200894a565b50505050506001915062008852565b915050600194507f47313d3b2b870c5a3200f25c5f8d5ce9ea5d073955f16e6f70104ddca4be5fdc925060209150604051908152a162008852565b505050507f2b022c762977afd239365173c87fc0b706c64f8a7b328ca79b3465468eba835a6020600193604051908152a162008852565b63ffffffff600185015460201c165f63ffffffff8281873516031660030b131562008a4957506200877a565b915050600194507f6be50b396ca4962b3810cd9e65b8160cd24180a1e7adbc2c795e8dd090891284925060209150604051908152a162008852565b6102c08102830196506040870193506060870135808a0362008aa8575b5062008712565b9850935062008ab7886200a3c9565b935f62008aa1565b5095505050509250507fc2813e86d911b51775079b03b9fcab443ec450bc1634cf75dd578874a0af7add60205a604051908152a1565b92509050565b6040907fa04001d82f77cdc968e0f2d5a478c76bb47ca32033001fe324c0f1bf89446ecd9262008b368162008b30846200a473565b6200ab10565b82519182526020820152a1565b811562008b4e570490565b634e487b7160e01b5f52601260045260245ffd5b600101908160011162003cf557565b62ffffff01908162ffffff1162003cf557565b9190820180921162003cf557565b9062008b9e8162007e07565b7fffffffffffffffffffffff00ffffffffffffffffffffffffffffffffffffffff74ff000000000000000000000000000000000000000083549260a01b169116179055565b6040519062008bf2826200826c565b5f60a0838281528260208201528260408201528260608201528260808201520152565b9062008c2182620085fe565b62008c30604051918262008356565b828152809262008c43601f1991620085fe565b01905f5b82811062008c5457505050565b60209062008c6162008be3565b8282850101520162008c47565b5f19811462003cf55760010190565b9060405162008c8c816200826c565b60a06001600160501b0382945463ffffffff8116845263ffffffff8160201c16602085015263ffffffff8160401c16604085015260ff8160601c1662008cd28162007e07565b606085015264ffffffffff8160681c16608085015260901c16910152565b1562008cf857565b60405162461bcd60e51b815260206004820152602c60248201527f46756e6374696f6e206d7573742062652063616c6c6564207468726f7567682060448201527f64656c656761746563616c6c00000000000000000000000000000000000000006064820152608490fd5b1562008d6b57565b60405162461bcd60e51b815260206004820152602c60248201527f46756e6374696f6e206d7573742062652063616c6c6564207468726f7567682060448201527f6163746976652070726f787900000000000000000000000000000000000000006064820152608490fd5b9062008de282620085fe565b62008df1604051918262008356565b828152809262008e04601f1991620085fe565b0190602036910137565b9291909162008e1d336200af65565b93845f5260d560205260405f209460ff865460a01c1662008e3e8162007e07565b80620052c9575062008e508562008631565b9586511562008f6a578515620086b95782602081013562008e71816200a3c9565b9161ffff600284015460781c16965f5b8a81101562008f32578b8a8a8362008ed6575b92809262008ebb62008ece936001968e8e8e8e62008eb58f8486916200a85b565b6200ad88565b62008ec78383620086a4565b52620086a4565b500162008e81565b5050506101e08102830197508b8a60208a013580870362008efa575b508a62008e94565b955095508699509087818a938762008f1381996200a3c9565b600281015460781c61ffff169e50939b50929893945092915062008ef2565b50985050505050505050507fc2813e86d911b51775079b03b9fcab443ec450bc1634cf75dd578874a0af7add60205a604051908152a1565b50919350505050565b9290918215620090895736849003605e19019380358581121562003fb55781019283359562008fa2876200a3c9565b9260ff845460c01c16925f5b888110156200907d578062009034575b62008fcb87868c6200aff1565b6200902b576040880135601e198936030181121562003fb55788019081359167ffffffffffffffff831162003fb557602001918060051b3603831362003fb5578862009022916001948e60208e0135908c6200b29f565b505b0162008fae565b60019062009024565b96508660051b8201358381121562003fb5578201968735808b036200905b575b5062008fbe565b9950935093506200906c886200a3c9565b9360ff855460c01c16935f62009054565b50975050505050505050565b50915050565b604051906200909e82620082c4565b5f610140838281528260208201528260408201528260608201528260808201528260a08201528260c08201528260e082015282610100820152826101208201520152565b9190925f610c60525f610c4052620090fb5f936200a3c9565b610c20526011610c205101549362009116610c20516200bc73565b50505080610c6052158015610c405262009415575b806200940e575063ffffffff8416915b8215620094025780151580620093f6575b5f610bc05215620093e557610bc0529290925b6200916d610bc051620085fe565b916200917d604051938462008356565b610bc0518352601f1962009194610bc051620085fe565b015f5b818110620093c55750508294610c205154610c00525b610bc0518510620091bf575b50509050565b805f526012610c20510160205260405f209060405191620091e083620082e2565b5463ffffffff8116835263ffffffff8160201c166020840152620092a860ff8260401c166200920f816200810c565b8060408601526001600160501b038360481c16606086015260808501610ca05263ffffffff8360981c16610ca0515260a085019264ffffffffff8160b81c16845260e01c60c086015262009263816200810c565b63ffffffff60c08601511663ffffffff610ca05151169160ff610c005160b81c169260ff610c005160b01c169264ffffffffff87511692610c6051610c20516200bcbe565b9263ffffffff8693929351169063ffffffff602088015116610c8052604087015190620092d5826200810c565b6001600160501b0360608901511664ffffffffff63ffffffff610ca05151169251169263ffffffff60c08b01511694604051610be05262009319610be051620082c4565b89610be051526020610be0510152610c80516040610be05101526200933e816200810c565b6060610be05101526080610be051015260a0610be051015260c0610be051015260e0610be0510152610100610be0510152610120610be0510152610140610be0510152620093a1620093908762008c6e565b96610be051620041048289620086a4565b5063ffffffff8360201c1614620093bf575163ffffffff16620091ad565b620091b9565b602090620093d59793976200908f565b8282880101520195919562009197565b50611388610bc0529290926200915f565b5061138881106200914c565b50606093505f92509050565b916200913b565b63ffffffff610c20515416610c60526200912b565b91939092936060945f85156200965d5762009445856200a3c9565b96620094558760098a016200bd3b565b94909182156200964f5750806200964757505b91801515806200963b575b156200962f5791905b6200948783620085fe565b9062009497604051928362008356565b838252601f19620094a885620085fe565b015f5b8181106200960d5750506010829901905b8481108062009603575b15620095f857835f528160205260405f209360405194620094e786620082c4565b549163ffffffff8316865260ff8360201c16620095048162007e07565b602087015262ffffff8360281c1680604088015264ffffffffff8460401c16606088015261ffff8460681c16608088015263ffffffff8460781c1660a088015261ffff8460981c1660c088015261ffff8460a81c1660e088015261ffff8460b81c1661010088015261ffff610120880194818160c81c16865260d81c166101408801528b8103620095ce575090620095b082620095a38a949162008c6e565b97620041048289620086a4565b5014620095c3575161ffff1692620094bc565b505050945050509050565b8a608491848e604051936324bfc58760e01b85526004850152602484015260448301526064820152fd5b975050505050509050565b50831515620094c6565b6020906200961e969395966200908f565b8282870101520194939194620094ab565b5061138891906200947c565b50611388811062009473565b905062009468565b965050509550505091509190565b505f94509192505050565b92919362009676846200a3c9565b906200968a60ff835460c01c16866200afbd565b5062009696836200a473565b9260ff845460a01c16620096aa8162007e07565b80620052c957506004840196865f528760205260405f209263ffffffff845416801562009a3f57804211620099ed5750825f526012850160205260405f209664ffffffffff885460b81c1615620099a75760ff885460401c166200970e836200810c565b62009719816200810c565b82810362009966575061ffff906200974063ffffffff8060098a015416951694856200a9d2565b50169260018410801562009951575b6200991a576200975f866200bc73565b9294929091908515620098df575050506200977a816200810c565b801580620098d5575b8015620098b4575b62009852575062009800620097bd64ffffffffff8a5460b81c1688549060ff808360b81c169260b01c1690866201174e565b94620097f9600289015460ff8160e01c169060ff8160d81c169064ffffffffff8160501c169061ffff64ffffffffff82169160b81c166200d25d565b906201179e565b9360648102908082046064149015171562003cf557620098459862009827868c936201370e565b9654986001600160501b0360ff8b60701c169a60201c16986200bf97565b5f526020525f6040812055565b929350945092507fd70dcea04756ab23b8663cb4528ddd657c55ea6dbc95b4481b62b25d028633ab955060a0945060405193878552602085015262009897816200810c565b604084015260608301526080820152a15f526020525f6040812055565b50620098c0816200810c565b6001811480156200978b57508284106200978b565b5082841162009783565b60028a0154604051631f466abb60e21b815260a89190911c61ffff166004820152602481019390935260448301919091526064820152608490fd5b6084898561ffff60028a015460b81c1690604051926321b82b4d60e01b845260048401526024830152600160448301526064820152fd5b5061ffff600287015460b81c1684116200974f565b604051633ea2c45d60e21b8152600481018b9052602481018690526084918462009990816200810c565b6044830152620099a0816200810c565b6064820152fd5b5050509150507f6948067a0ba575890268b9a7eaf592a5832287e4402201145ce0768a9d9533fc9250604080925051908482526020820152a15f526020525f6040812055565b604080518a8152602081019590955284015250504260608201527fb4cbbb4a79087ef85485ec777721c815de25aac9940c011694a831a77d30aa86945060809350915050a15f526020525f6040812055565b838963e2fd5a3560e01b5f5260045260245260445ffd5b3563ffffffff8116810362003fb55790565b9091821562009ba4575f5b8381101562009089578060051b83013560de198436030181121562003fb55783019060208201359162009aa6836200a3c9565b926040820135600381101562003fb5576001810362009aec57505060019263ffffffff62009adb606062009ae3940162009a56565b16906200a6d5565b505b0162009a73565b9091908062009b50575060c081013590601e198136030182121562003fb557019283359367ffffffffffffffff851162003fb55760200191843603831362003fb55762009b4262009b4993600196369162008396565b916200cde4565b5062009ae5565b60019491925060021462009b67575b505062009ae5565b8162009b7a606062009b9c940162009a56565b91608063ffffffff62009b9060a0850162008696565b9416920135906200c52f565b5f8062009b5f565b915050565b9060078210156200490c5752565b91811562009ba45782602084019060408501359462009bd6866200a3c9565b935f5b8681101562009dca578062009d8f575b83359062009bf986838b6200a85b565b604086013591600783101562003fb5575f60028414158062009d81575b801562009d6a575b62009d12575060019250805f5260d56020528660405f209163ffffffff8584015460201c16928235935f63ffffffff82818816031660030b131562009cdb575060ff815460a01c169362009c728562007e07565b841562009c9b5762009c92945062009c8b90826200aab6565b8a6200ae93565b505b0162009bd9565b5050505060207fe0860e5ff8578b025fc8a7f42c449c575b7a19600e8d2b3fd6ab0ae6e2e08403916040519062009cd28162007e07565b8152a162009c94565b9150507f6be50b396ca4962b3810cd9e65b8160cd24180a1e7adbc2c795e8dd090891284925060209150604051908152a162009c94565b905062003fb5577fcbb789ca59a70c9d9ac308b2f773480d433619886320ba81e8e871690fc220c3604060019362009d4e6101208a0162008696565b62009d5c8351809362009ba9565b15156020820152a162009c94565b5062009d7a610120890162008696565b1562009c1e565b50505f600384141562009c16565b600981901b83016020810195509350604084013580890362009db3575b5062009be9565b9750945062009dc2876200a3c9565b945f62009dac565b50955050505050507fc2813e86d911b51775079b03b9fcab443ec450bc1634cf75dd578874a0af7add60205a604051908152a1565b604d811162003cf557600a0a90565b81811062009e1a575050565b5f815560010162009e0e565b62009e32815462008423565b908162009e3d575050565b81601f5f931160011462009e4f575055565b8183526020832062009e6d91601f0160051c81019060010162009e0e565b8082528160208120915555565b801562003cf5575f190190565b908060209392818452848401375f828201840152601f01601f1916010190565b5f929181549162009eb88362008423565b808352926001811690811562009f11575060011462009ed657505050565b5f9081526020812093945091925b83831062009ef6575060209250010190565b60018160209294939454838587010152019101919062009ee4565b915050602093945060ff929192191683830152151560051b010190565b9190811015620086b95760051b0190565b356001600160a01b038116810362003fb55790565b9392919062009f63856200a3c9565b9462009f788560ff885460c01c16836200aff1565b62009f8857620083ef956200b7e7565b5050505050505f90565b6040907fc0541f32f5c37f170acf579ae2de8be00385c7ab848fb4b1f19340fd41d588449262008b368162009fc7846200a473565b6200aab6565b909182156200a08f5781358262009fe4826200a3c9565b9160ff835460c01c16915f5b878110156200a08557806200a046575b6001906200a0108786866200aff1565b6200a040576200a039876200a02860608b0162008696565b60408b013560208c01358a6200f79c565b0162009ff0565b6200a039565b95508560071b81019586358084036200a061575b506200a000565b9250925092506200a072816200a3c9565b92600160ff855460c01c1693906200a05a565b5050505050505050565b505050565b81156200a3c557809281356200a0aa816200a3c9565b94600986019360ff875460c01c1660058110156200490c5715935f5b878110156200a3ba57806200a377575b600190876020860135801580156200a36b575b6200a36357805f526007820160205260405f2063ffffffff815416156200a35a5780548d63ffffffff821692835f5260d56020528b8d60405f20946200a13863ffffffff8260781c166200f911565b9182156200a351575b5081156200a333575b81156200a21c575b50156200a1df576200a1a9866200a1d49561ffff60027f3669d8cc87cc659246c535cf34b73f019e2da2a48e04d14093701e877fb6eac69b976200a19c6200a1b09886986200f94f565b015460a81c16906200fa67565b926200fdf9565b6040519384938c859094939260609260808301968352602083015260408201520152565b0390a15b016200a0c6565b50505050507fa2f88eaf96334c482f1071c105643f009253e044dc7767b94cd01f787c7d92ad91506040908151908982526020820152a16200a1d8565b90505f90885461ffff8160301c1661ffff8260201c16116200a242575b50505f6200a152565b60ff8160401c166200a25a60ff8460201c16620101a6565b156200a2cb5762ffffff808360781c169260901c1691801515806200a2c1575b6200a28d575b505050505b5f806200a239565b62ffffff93945082916200a2aa6200a2b0946200434093620085f0565b6201370e565b9160281c1611155f8080806200a280565b508215156200a27a565b62ffffff808360481c169260601c16821515806200a329575b6200a2f4575b505050506200a285565b62ffffff93945082916200a2aa6200a311926200a31895620085f0565b90620085f0565b9160281c1610155f8080806200a2ea565b508015156200a2e4565b905060ff855460a01c166200a3488162007e07565b1515906200a14a565b91508f6200a141565b5050506200a1d8565b50506200a1d8565b5061ffff81116200a0e9565b600681901b83019350833585146200a0d6579450945095506200a39a826200a3c9565b95600987019460ff885460c01c1660058110156200490c5715946200a0d6565b509650505050505050565b5050565b906103fc82116200a40757815f5260d960205260405f20916200a3ec836200b0e6565b156200a3f55750565b63264fcda560e11b5f5260045260245ffd5b5063324f0d9160e21b5f5260045260245ffd5b6001600160a01b036033541633036200a42f57565b606460405162461bcd60e51b815260206004820152602060248201527f4f776e61626c653a2063616c6c6572206973206e6f7420746865206f776e65726044820152fd5b906001821080156200a4d5575b6200a4b557815f5260d560205260405f2091600183015460601c156200a4a35750565b6305b58f2560e51b5f5260045260245ffd5b50630c8f0a6960e41b5f52600452600160245263ffffffff60445260645ffd5b5063ffffffff82116200a480565b90915f926002830192835461ffff8160a81c169582549160ff8360c01c1660058110156200490c57600381036200a5275788633534376760e21b5f5260045260245ffd5b96979596949593946002146200a66d5760f01c60ff16159081806200a659575b6200a64e576200a564600163ffffffff600988015416886200aa1e565b6200a64557506200a5e1575b5050805467ffffffffffffffff191663ffffffff8316174260201b63ffffffff60201b161790557f65ec400f2e8b22c7064f99991d01828c6a55acaa066b3fdba3bf5a491b1a6a4c905b92546040805160a89290921c61ffff1682526020820194909452600193819081015b0390a1565b61ffff63ffffffff8260401c169160901c16906200a601828287620142b6565b156200a60e57506200a570565b6040516307311a2960e31b815261ffff93909316600484015260248301949094526044820193909352606481019290925250608490fd5b96505050505050565b505f96505050505050565b506200a667600186620101bf565b6200a547565b8363aa5493c360e01b5f5260045260245ffd5b91905f926002810193845461ffff8160a81c169160ff8454926200a6aa828560c01c16866200d7bf565b5060f01c16159081806200a659576200a64e576200a564600163ffffffff600988015416886200aa1e565b91905f926002810193845461ffff8160a81c169060ff8454916200a6ff828460c01c16856200d7bf565b5060f01c161580806200a816575b6200a64e576200a7295f63ffffffff600988015416886200aa1e565b6200a80c576200a785575b5050815467ffffffffffffffff191663ffffffff8416174260201b63ffffffff60201b1617909155507f65ec400f2e8b22c7064f99991d01828c6a55acaa066b3fdba3bf5a491b1a6a4c906200a5ba565b61ffff63ffffffff8260401c169160901c16906200a7a5828288620142b6565b156200a7b257506200a734565b6200a80692939697507f3988d14888f50c39e6b838927480e13c79fd6c5cfdfb08a1b02febe997a3571e959450604051948594859094939260609261ffff6080840197168352602083015260408201520152565b0390a190565b5091955050505050565b506200a8235f86620101bf565b6200a70d565b60e35b600e810180911162003cf55790565b6200a82c6200a829565b60018060c9546200a8556200a83b565b1c161490565b60408301359291600784101562003fb5576101c0837f02d2bf39d2355aaa5486487e934403fd3ba3f88c73ab71938cee11931fddeb7b956200a8a360e0610220970162008696565b6200a8b2610100840162008696565b906200a8f06200a8c6610120860162008696565b935a97604051998a5260208a0152853560408a0152606086013560608a0152608089019062009ba9565b608084013560a088015260a084013560c088015260c084013560e08801521515610100870152151561012086015215156101408501526101408101356101608501526101608101356101808501526101808101356101a08501526101a08101358285015201356101e0830152610200820152a1565b91906200a97d6200a9768262008b62565b9162008b71565b8382119384156200a9c6575b50836200a994575050565b7f9c6cd57b23ccacf841857c1eb7892bef39f27d0c1197bb0bf7646c90dc7fb8709160409182519182526020820152a1565b81945011925f6200a989565b91906200a9e36200a9768262008b62565b908381119384156200aa13575b846200a9fb57505050565b630caa980960e21b5f5260045260245260445260645ffd5b82811194506200a9f0565b9291926200aa376200aa308362008b62565b9262008b71565b908083119485156200aaab575b856200aa51575b50505050565b6200aa9157507f9c6cd57b23ccacf841857c1eb7892bef39f27d0c1197bb0bf7646c90dc7fb8709160409182519182526020820152a15f8080806200aa4b565b8290630caa980960e21b5f5260045260245260445260645ffd5b82821195506200aa44565b91909167ffffffffffffffff83116200aaf157600101805467ffffffff00000000191660209390931b63ffffffff60201b1692909217909155565b826395d41f3f60e01b5f5260045267ffffffffffffffff60245260445ffd5b91909167ffffffffffffffff83116200aaf157600101805463ffffffff60401b191660409390931b63ffffffff60401b1692909217909155565b9291906040516200ab5b816200831c565b5f81525f6020820152806200ab746001600488620102a3565b156200ac21575060443590600782101562003fb557600482146200ac2a5760ff835460a01c166200aba58162007e07565b80620052c957506200abcd600161ffff600289015460a81c1660ff895460c01c16906200aff1565b6200ac2157600582146200ac0957506006146200abf7575060019160045f92620083ef9562010792565b60019250600490620083ef9462010643565b9491620083ef945060019391506101a435926200ffa3565b94505050505090565b94620083ef945060019392506064359150602435906201053b565b9391939290925f936040516200ac5b816200831c565b5f81525f6020820152806200ac725f8686620102a3565b156200ad1a5750604084013590600782101562003fb557600482146200ad685760ff835460a01c166200aca58162007e07565b806200ad2557506200accc8761ffff600287015460a81c1660ff875460c01c16906200aff1565b6200ad1a57600582146200ad0257506006146200acf4575090620083ef946001939262010792565b90620083ef95935062010643565b969293620083ef9695506101a091500135926200ffa3565b965050505050505090565b945096505050507fe0860e5ff8578b025fc8a7f42c449c575b7a19600e8d2b3fd6ab0ae6e2e08403925060209150604051906200ad628162007e07565b8152a190565b969392915050620083ef94505f935060206060830135920135906201053b565b9094939291946040516200ad9c816200831c565b5f81525f6020820152806200adb3878686620102a3565b156200ad1a5750604084013590600782101562003fb557600482146200ae755760ff835460a01c166200ade68162007e07565b806200ae3457506200ae0d8761ffff600287015460a81c1660ff875460c01c16906200aff1565b6200ad1a57600582146200ad0257506006146200acf4575090620083ef945f939262010792565b969550965050505050620052c95760207fe0860e5ff8578b025fc8a7f42c449c575b7a19600e8d2b3fd6ab0ae6e2e0840391604051906200ad628162007e07565b969392915050620083ef94935060206060830135920135906201053b565b9291906040516200aea4816200831c565b5f81525f6020820152806200aebb5f8688620102a3565b156200ac215750604084013590600782101562003fb557600482146200af49576200aefb5f61ffff600289015460a81c1660ff895460c01c16906200aff1565b6200ac2157600582146200af3257506006146200af2457505f8092600192620083ef9562010792565b915f92620083ef9462010643565b94915f9391506101a0620083ef950135926200ffa3565b94620083ef945f9493506060810135925060200135906201053b565b6001600160a01b031690815f5260d660205260405f20549182156200af875750565b6303a0e27760e01b5f5260045260245ffd5b60c954613fff9060d51c16612710810290808204612710149015171562003cf55790565b91905f9260058210156200490c57600482036200afd8575050565b63a532a27d60e01b5f52600452620077fd915062007dea565b909291925f9360058210156200490c57600482036200b00f57505050565b90919293506200b058577fa532a27d068a9d4b869c6cc37b1c8edd12d861261edcad20311cfc140d1190bc916200b0526040928351928352602083019062007df9565ba1600190565b620077fd9163a532a27d60e01b5f5260045262007dea565b6200b08860c954916001600160701b03831662010b37565b906001600160701b0319161760c955565b7fffffffffffe0000000000000000000000000ffffffffffffffffffffffffffff6200b0db60c954926c1fffffffffffffffffffffffff8460701c1662010bcc565b60701b91161760c955565b6002015461ffff8160b81c16151590816200b0ff575090565b61ffff915060c81c16151590565b91909181156200a08f5763ffffffff915f5b8181106200b12e575050505050565b6200b13b81838762009f2e565b356001811080156200b197575b6200b18d576200b15d906007810690620085f0565b938085146200b1825750600190845f52600684016020525f60408120555b016200b11f565b93506001906200b17b565b506001906200b17b565b508062ffffff106200b148565b906001600160501b036200b1bd81928285541662010bcc565b16166001600160501b0319825416179055565b60c95460e35b90613fff911c16612710810290808204612710149015171562003cf55790565b60c9546200b1d66200a829565b908152602081019190915260a081019493926080926200b223816200810c565b604083015260608201520152565b949392919085526020850152151560408401526200b24f816200810c565b6060830152608082015260c060a08201528260c08201527f07ffffffffffffffffffffffffffffffffffffffffffffffffffffffffffffff831162003fb55760e09260051b809284830137010190565b939091929594955f9682156200b790576012860190855f528160205260405f209064ffffffffff825460b81c16156200b738576200b2de81896200be7a565b80156200b72d578254938460401c60ff16906200b2fb826200810c565b8a8215928154978860b01c60ff169860b81c60ff168160b81c64ffffffffff1680946200b329838d620114da565b9091438660e01c6200b33b92620115e0565b5050906200b34a9084620085aa565b916200b356916200c4ef565b6200b36291866201508d565b9283928160481c6001600160501b03169c8d9260981c63ffffffff16946200b38f94866001958d62010d24565b998a156200b64a57505050835f146200b64057878511155b156200b5d75750915f91905b8a8d89878d8d8189106200b4f7575b5050505050505050506200b3e29064ffffffffff855460b81c16620085f0565b806200b4675750506200b43d57927faad1caf83451874ebc06a35849e4a295d8bfa856d05d1fbac2876702c7d5074394926200b4349260ff6200849c9998965460401c165f604051978897886200b231565b0390a1620114a6565b9060ff620018329493925460401c165f60405197889763155a395f60e31b8952600489016200b231565b899b5084849597508196505f9350828a8a6200b489976001969c9d9e62011189565b156200b4ac5750505050906200b49f91620111a4565b6200849c600192620114a6565b9460ff60e4965460401c1690604051956350e5550560e11b8752600487015260248601525f60448601526200b4e1816200810c565b6064850152608484015260a483015260c4820152fd5b976200b50991819a9697989962009f2e565b35805f528760205260405f209564ffffffffff875460b81c16156200b5c757865460ff8160401c166200b53c816200810c565b1589146200b5b657916200b56f95939164ffffffffff5f969460b81c168881101587146200b5ad57508798899562010f5f565b156200b5a257906200b58191620085f0565b9283156200b596576001905b0191906200b3b3565b8a8d89878d8d6200b3c2565b93600191506200b58d565b98899562010f5f565b50505050505093600191506200b58d565b505050505093600191506200b58d565b9d9b505050509450919250506200b61f57906200a806917fb2f4de9c8b5c718fbc129fd73f1f19ba5c646e821e39464c1c0bdb4014b4ed6e959697604051958695866200b203565b90620018329187604051958695632cbd37a760e21b8752600487016200b203565b878510156200b3a7565b995099509a9b9c5050975050505090509796976200b6d1576040805195865260208601969096526001600160501b03169484019490945263ffffffff909316606083015264ffffffffff909216608082015260a08101919091527f2e92846d5b5d5dd9cf60dd19064afe4a911e6751cdad455cb26a600db66e963c908060c081016200a806565b6200183294959650604051968796632e92846d60e01b8852600488019260a0946001600160501b0363ffffffff9264ffffffffff959a9998949a60c088019b885260208801521660408601521660608401521660808201520152565b505050505050505050565b949650505050509392936200b77a577f6948067a0ba575890268b9a7eaf592a5832287e4402201145ce0768a9d9533fc9160409182519182526020820152a190565b906334a4033d60e11b5f5260045260245260445ffd5b93945050509293506200b7d1577f64846a095feab375f007bd15ab65eefdf07957e365b3c7ee4711cd9dbdecabe79160409182519182526020820152a15f90565b906364846a0960e01b5f5260045260245260445ffd5b9295935f9681156200bc32576012850196845f528760205260405f2064ffffffffff815460b81c16156200bbf0576200b82182886200be7a565b9182156200bbe35781548860ff8260401c166200b83e816200810c565b801592825460ff808260b01c169160b81c16906200b8cb5f6200b8a76200b88e6200b89f64ffffffffff8860b81c16996200b8986200b87e8989620114da565b94909243908c60e01c90620115e0565b5050938c620085aa565b926200c4ef565b90886201508d565b9363ffffffff6001600160501b038760481c169660981c1693858986898d62010d24565b9283156200bb5d57505050835f146200bb54578087115b156200bae8575050905f905b8782106200ba1a575b505082939495969798999a5064ffffffffff6200b91a92935460b81c16620085f0565b806200b99757506200b96c57927faad1caf83451874ebc06a35849e4a295d8bfa856d05d1fbac2876702c7d5074394926200b4349260ff6200849c9998965460401c166001604051978897886200b231565b9060ff620018329493925460401c16600160405197889763155a395f60e31b8952600489016200b231565b829a5083806200b9b79597508296505f935089896001968d9e9d62011189565b156200b9cd5750506200b49f92939450620111a4565b60e49360ff885460401c1690604051946350e5550560e11b865260048601526024850152600160448501526200ba03816200810c565b606484015260848301528060a483015260c4820152fd5b90916200ba2983898962009f2e565b3590815f528d6020528b8760405f209364ffffffffff855460b81c16156200bada578c855460ff8160401c166200ba60816200810c565b1588146200baca576200ba939460019490939092839260b81c64ffffffffff168881106200b5ad57508798899562010f5f565b156200babf57906200baa591620085f0565b9182156200bab9576001905b01906200b8ee565b6200b8f7565b92600191506200bab1565b505050505092600191506200bab1565b50505092600191506200bab1565b97509c9a9b505050925050929394506200bb3357906200a806917f2d77916ace43e6acd02840c860e1e53ff9192b11b1e4dd447dddbcd4b5a4a5c3959697604051958695866200b203565b906200183291876040519586956316bbc8b560e11b8752600487016200b203565b8087106200b8e2565b995099509a9c9e9d505050969850509150506200b6d1576040805195865260208601969096526001600160501b03169484019490945263ffffffff909316606083015264ffffffffff909216608082015260a08101919091527f2e92846d5b5d5dd9cf60dd19064afe4a911e6751cdad455cb26a600db66e963c908060c081016200a806565b5096975050505050505050565b509394505050929493506200b77a577f6948067a0ba575890268b9a7eaf592a5832287e4402201145ce0768a9d9533fc9160409182519182526020820152a190565b50509391509193506200b7d1577f64846a095feab375f007bd15ab65eefdf07957e365b3c7ee4711cd9dbdecabe79160409182519182526020820152a15f90565b5f9142915463ffffffff8160201c169161ffff8260a01c16915f8442116200bca9575b156200bc9f5750565b63ffffffff169450565b50826200bcb78542620085f0565b116200bc96565b91949385946200bd126200bcfb6200bd0b6200bd22976200bd046200bcee6200bd1b989f9e6200bd299e620114da565b94819a82944391620115e0565b50509f620085aa565b95620085aa565b92620085aa565b958692620151c6565b966200c4ef565b916201508d565b906200bd3682846200bf50565b929190565b6006906200bd4e600784068094620085f0565b5f520160205260405f209080155f146200bd765750549061ffff808360081c169260181c1690565b600181036200bd935750549061ffff808360281c169260381c1690565b600281036200bdb05750549061ffff808360481c169260581c1690565b600381036200bdcd5750549061ffff808360681c169260781c1690565b600481036200bdea5750549061ffff808360881c169260981c1690565b6005036200be0557549061ffff808360a81c169260b81c1690565b549061ffff808360c81c169260d81c1690565b6200b08860c954916001600160701b03831662010bcc565b9091926001600160a01b036200849c9481604051956323b872dd60e01b60208801521660248601521660448401526064830152606482526200be7460848362008356565b62011645565b91906200be87836200bc73565b919295909386156200be9b575b5050505050565b6200bef957600201546040805160a89290921c61ffff16825260208201949094529283019190915260608201527f7d19aaecec937dccd460f6ff611aadbc7bfa5ef672ef8fb6cfaf12ea804ed4a090608090a15f808080806200be94565b60020154604051631f466abb60e21b815260a89190911c61ffff166004820152602481019390935260448301919091526064820152608490fd5b9060018201915f60018412911290801582169115161762003cf557565b9190915f838201938412911290801582169115161762003cf557565b905f19820191821360011662003cf557565b81810392915f13801582851316918412161762003cf557565b996200bfea9997939692989495919a89549163ffffffff8360981c16996200bfff83549d8e8d60ff808360b81c169260b01c169064ffffffffff8960b81c16908960e01c60ff8b60401c168d8b6200bcbe565b50506001600160501b038660481c166200bf50565b808912156200c44357886200c014916200bf7e565b91816200c3c3575050955b604883901c6001600160501b0316808811156200c39b576200c0429088620085f0565b996200c05b8d60ff808260b81c169160b01c1662008b84565b6006036006811162003cf5576200c0766200c0879162009dff565b64ffffffffff8660b81c16620085aa565b816200c09960ff8760401c166200810c565b8c60ff8760401c16155f146200c37b576200c0c0926200c0b9916201370e565b906200bf50565b9a5b5f8c13156200c30a5750506200c0e48a63ffffffff600985015416906200a965565b6200c2fb576200c12a6200c1215f9d5b60ff808260b81c169160b01c168d64ffffffffff8860b81c16908860e01c60ff8a60401c168c8a6200bcbe565b50508d6200bf50565b908082126200c22a575b50509363ffffffff6200849c9c819995899560ff8a968f6200c2249f9d906200c18b7fa97e56d50498d7b8acf31641413f46438d6d7d3f6e6acf04c6e7995cab8b66b29e6001600160501b03936101809f62011800565b6200c1978a886200b1a4565b54955416986040519a8b5260208b01526200c1b7828260401c166200810c565b60401c166040890152606088015260808701526001600160501b038160481c1660a08701528c60c087015260981c1660e085015286610100850152610120840152610140830152610160820152a1835463ffffffff60981b1916911660981b63ffffffff60981b16178255565b62011916565b5f82138015906200c286575b156200c13457989a5098505050505050507fa3cd1f19e02df00e3aa13cca19961f43eeedbfb5f34c064e278a6e2554a45088955060809450604051938452602084015260408301526060820152a1565b5060018301548060f81c6009811080156200c2f0575b62004c26576200c2ac9062009dff565b826200c2be57505081155b156200c236565b828411156200c2e0578263ffffffff818603935b60d81c16029102106200c2b7565b8263ffffffff858203936200c2d2565b50602481116200c29c565b50505050505050505050505050565b96509694505050959750507f5af9ac97cf247d243434484869b838e2197714f1588e5d33e67505161e003687985060e0975060ff9593604051978852602088015260408701526060860152608085015260a08401526200c36f828260401c166200810c565b60401c1660c0820152a1565b6200c38d9150916200c394926201370e565b826200bf7e565b9a6200c0c2565b506200c12a6200c1216200c3bc896001600160501b038760481c16620085f0565b9d6200c0f4565b8282999392116200c3d7575b50506200c01f565b97909197156200c3eb5750955f806200c3cf565b979b509799505050505050507f2d1899850ba9b9c9b74657311b57a098fafc67bacd47c2572b10b1d48158646595506200a5dc9250604051948594859094939260609260808301968352602083015260408201520152565b509950505050505050509092507f2d1899850ba9b9c9b74657311b57a098fafc67bacd47c2572b10b1d481586465945060809350604051928352602083015260408201525f6060820152a1565b906001600160501b036200c4b360036200849c94019282845460501c1662010b37565b825469ffffffffffffffffffff60501b1916911660501b69ffffffffffffffffffff60501b16179055565b600160ff1b811462003cf5575f0390565b81810292915f8212600160ff1b82141662003cf557818405149015171562003cf557565b811562008b4e57600160ff1b81145f1983141662003cf5570590565b929190925f91600282015461ffff8160a81c169583549463ffffffff8660c81c16926200c55d848a6200fe31565b6200c5705f60ff8960c01c168b6200d820565b6200b72d576200c580436200d8ab565b9391929098608f430180431162003cf55785116200c8f7576013890191848452826020526040842054916200c5b58c6201198c565b9c15809d819e6200c8ea575b506200c8565760ff8260f01c16158080916200c843575b6200c832576200c5f48663ffffffff60098f0154168d6200aa1e565b6200c832576200c76f575b5060981c61ffff166200c612816200c4de565b8790828213156200c752575050965b620186a06200c631898b6200c4ef565b0560050b99849187116200c6d9575b50927f9c0e05c2bbc786a75afe5fed63ff9274f7c690af8ea4e843e07f2a525295c1049c9a989694926040928b6101009e9c9a9896019a8b9165ffffffffffff806200c6976200c6908562008593565b946201198c565b9416831b921b191617179382526020522055604051978852602088015260408701526060860152608085015260a084015260050b60c08301521560e0820152a1565b5f19870191508682116200c73e57926040928b7f9c0e05c2bbc786a75afe5fed63ff9274f7c690af8ea4e843e07f2a525295c1049f9d9b9997956101009f9d9b9997946200c727916200d3fc565b509396989a509b9d509250929496989a9c6200c640565b634e487b7160e01b85526011600452602485fd5b809199925088126200c766575b506200c621565b97505f6200c75f565b61ffff63ffffffff8260401c169160901c16906200c78f82828d620142b6565b156200c79c57506200c5ff565b9a509a5050505094989750505050506200c7fc577f2030ce993f9f888e4d2a20dcbf75ead5d3de6742ef5fa8e75a47849a41a4af579392916200a5dc91604051948594859094939260609260808301968352602083015260408201520152565b906200183291604051948594632030ce9960e01b8652600486019094939260609260808301968352602083015260408201520152565b505050505050505050505050505050565b506200c850868d620101bf565b6200c5d8565b505050509450945096955050506200c8b4577fdd8c0c9dcb3ad98da85346fa23e456a8128ec3fc478eaacb4990e450880308cc9392916200a5dc91604051948594859094939260609260808301968352602083015260408201520152565b90620018329160405194859463dd8c0c9d60e01b8652600486019094939260609260808301968352602083015260408201520152565b9050831615155f6200c5c1565b5050604080519a8b524360208c01528a0192909252507fe0a0c6a40b4bf56f73bec44f57f213f583e95a0be298411ea97afbe135c07d82979650869550506060850193506200a5dc92505050565b600281015481549560a882901c61ffff169594919360c888901c63ffffffff16916200c97283896200fe31565b6200c9858160ff8b60c01c168a6200d820565b6200b72d576200c995436200d8ab565b929097608f430180431162003cf55784116200cc74576013880191835f528260205260405f20549c8d6200c9c98c6201198c565b9c159c8d91826200cc67575b50506200cc095760ff8360f01c16158080916200cbf6575b6200c832576200ca098363ffffffff60098e0154168c6200aa1e565b6200c832576200cb6a575b505060981c61ffff166200ca28816200c4de565b8590828213156200cb4d575050945b620186a06200ca4787896200c4ef565b0560050b975f9185116200caee575b50907f9c0e05c2bbc786a75afe5fed63ff9274f7c690af8ea4e843e07f2a525295c1049b886101009c9b9a9998979695949301986200caa06200ca998262008593565b916201198c565b9165ffffffffffff808c16831b921b19161717915f5260205260405f2055604051978852602088015260408701526060860152608085015260a084015260050b60c08301521560e0820152a1565b9a99989796959493929190505f1983019b838d1162003cf557876200cb387f9c0e05c2bbc786a75afe5fed63ff9274f7c690af8ea4e843e07f2a525295c1049e6101009e6200d3fc565b50929394959697985098999a9b509b6200ca56565b809197925086126200cb61575b506200ca37565b95505f6200cb5a565b61ffff63ffffffff8260401c169160901c16916200cb8a83838c620142b6565b156200cb9757506200ca14565b99509950995050505050505094506200c7fc577f2030ce993f9f888e4d2a20dcbf75ead5d3de6742ef5fa8e75a47849a41a4af579392916200a5dc91604051948594859094939260609260808301968352602083015260408201520152565b506200cc03838c620101bf565b6200c9ed565b509750505095965097505050506200c8b4577fdd8c0c9dcb3ad98da85346fa23e456a8128ec3fc478eaacb4990e450880308cc9392916200a5dc91604051948594859094939260609260808301968352602083015260408201520152565b16151590505f8f6200c9d5565b50975050975050505050506200ccc457604080519182524360208301528101919091527fe0a0c6a40b4bf56f73bec44f57f213f583e95a0be298411ea97afbe135c07d829080606081016200a5dc565b63382831a960e21b5f526004524360245260445260645ffd5b90929160ff600283015460f01c166200cdb25760016200ccff91858462011b41565b9490929091156200cd9f57805463ffffffff60401b1916604084901b63ffffffff60401b161781557f5e3f1c81da4dcfcb835cba6457aa389114f5d309917179746b46ac03953f56b29291905b80546fffffffff0000000000000000000000008760601b16906fffffffff00000000000000000000000019161790556200a5dc600195604051938493846040919493926060820195825260208201520152565b5063a8c2945f60e01b5f5260045260245ffd5b50509060207f36f8ddb481e1d66678af53feb8d0fdddc463c11ce08cda4e93ac2065d26634dd91604051908152a15f90565b9291905f9160ff600286015460f01c166200ce8c575f6200ce0791838762011b41565b9590939091156200ce5a5750805463ffffffff60401b1916604084901b63ffffffff60401b161781557f5e3f1c81da4dcfcb835cba6457aa389114f5d309917179746b46ac03953f56b29291906200cd4c565b9450507fa8c2945f7db53a36d192551c9b4c3ea4cbc53140f60d0dc8b1a8b58499958cdf9150602090604051908152a1565b507f36f8ddb481e1d66678af53feb8d0fdddc463c11ce08cda4e93ac2065d26634dd92935060209150604051908152a15f90565b6002609754146200ced2576002609755565b60405162461bcd60e51b815260206004820152601f60248201527f5265656e7472616e637947756172643a207265656e7472616e742063616c6c006044820152606490fd5b906001600160501b03809116911603906001600160501b03821162003cf557565b9190915f9054906001600160501b038083169260501c168083116200cf80575b5080841193846200cf6857505050565b632e14f96160e21b5f5260045260245260445260645ffd5b6001600160501b0391506200cf9690836200cf17565b165f6200cf58565b9290925f9054936001600160501b038086169560501c168086116200d048575b5081811193846200cfd2575b505050909150565b6200d02d576040805191825260208201929092526001600160501b039094169084015290917fb853e5846ad52919c794f709695100094681c458cd1864d5217c6c897b6858b19080606081015b0390a181905f80806200cfca565b849250632e14f96160e21b5f5260045260245260445260645ffd5b6001600160501b039192506200d05f90866200cf17565b16905f6200cfbe565b335f5260d460205260ff60405f2054166200d2025760d1544311156200d1ba5761217b430180431162003cf5578060d1556103e86200d0ad60ce5460cc5490620085aa565b0460d3548082115f146200d1b257505b61217b8104918260d05561085f430180431162003cf55760d25561217b830283159084810461217b1482171562003cf5576200d0fa9084620085f0565b9361085f81029181830461085f14171562003cf5576200d1406200d160927fbed1e76d359c53e2dbafd4561fa97daac567d51974f6317c2f583ef17cddaa9d9662008b84565b60cf55604051938493846040919493926060820195825260208201520152565b0390a15b60cf548082116200d18057906200d17b91620085f0565b60cf55565b60d05460d1546040516356cb4a3d60e01b81526004810194909452602484019290925260448301526064820152608490fd5b90506200d0bd565b60d2548043116200d1cd575b506200d164565b6200d1eb6200d1e16200d1f49243620085f0565b60d05490620085aa565b60cf5462008b84565b60cf554360d2555f6200d1c6565b50565b906001600160501b036200b1bd81928285541662010b37565b60405163a9059cbb60e01b60208201526001600160a01b039290921660248301526044808301939093529181526200849c916200be7460648362008356565b9392919060648102928184046064148215171562003cf557826200d28191620085aa565b938484106200d2f157826200d29691620085aa565b938484106200d2e1575081116200d2b05750505050600190565b60648102908082046064149015171562003cf5576200d2cf9262012130565b818111156200d2dc575090565b905090565b90506200d2cf9391508462012069565b505050505090565b949392916200d3089162008b84565b60648102928184046064148215171562003cf557826200d28191620085aa565b9061271081116200d363576002909101805470ffff000000000000000000000000000000191660789290921b61ffff60781b16919091179055565b61ffff600283015460a81c16630dbcc17f60e31b5f5260045260245261271060445260645ffd5b6001600160a01b0319606554166065556001600160a01b0380603354921691826001600160a01b0319821617603355167f8be0079c531659141344cd1fd0a4f28419497f9722a3daafe3b4186f6b6457e05f80a3565b6001600160501b036200b1bd6003829301938285541662010b37565b63ffffffff815460c81c16918281106200d4e7579091906200d41e9062012169565b9391939290929383926013829101915f52816020526200d44360405f2054956201198c565b8516156200d46957505050906200d46165ffffffffffff9262008593565b1c1660050b91565b9194939092858511156200d4dd57806200d4c65750506200d49060059161a76790620085f0565b9050600491815f528060205260405f2054935b61217a19810190811162003cf557946200d4bd846201198c565b9290926200d443565b909392905f19810190811162003cf557926200d4a3565b505f959350505050565b5050505f905f90565b9190916001831080156200d545575b6200d52757600201805461ffff60c81b191660c89390931b61ffff60c81b1692909217909155565b82630c8f0a6960e41b5f52600452600160245261271060445260645ffd5b5061271083116200d4ff565b9061271081116200d3635790600261ffff6200849c931691019061ffff60881b1961ffff60881b83549260881b169116179055565b9190916001831080156200d5bd575b6200d52757600201805461ffff60b81b191660b89390931b61ffff60b81b1692909217909155565b5061271083116200d595565b6001821080156200d62e575b6200d60d57600201906effffffffff0000000000000000000082549160501b16906effffffffff000000000000000000001916179055565b50630c8f0a6960e41b5f52600452600160245264ffffffffff60445260645ffd5b5064ffffffffff82116200d5d5565b906103e8811080156200d690575b6200d6715767ffff00000000000082549160301b169067ffff0000000000001916179055565b61ffff9063d24aa9ff60e01b5f526004526103e860245260445260645ffd5b5061ffff81116200d64b565b908060081c9060ff811660ff81036200d78f575b5060101c9060ff811660ff81036200d72d575b505060ff81036200d6d6575b50505f1990565b6200d6e3908254620121a5565b60018101156200d6cf57806002915f52600183016020526200d70960405f2054620121cb565b9060081b1791825f52016020526200d72560405f2054620121cb565b9060081b1790565b6200d74790835f526001850160205260405f2054620121a5565b9060018201156200d6c357600292507effffffffffffffffffffffffffffffffffffffffffffffffffffffffffff00161791825f52016020526200d72560405f2054620121cb565b6200d7a990835f526002850160205260405f2054620121a5565b60018101156200d6b0579250905060ff19161790565b5f9291600581101590816200490c57600181149182156200d812575b82156200d7ff575b50506200d7ed5750565b633892657f60e01b5f5260045260245ffd5b9091506200490c576003145f806200d7e3565b506002811491505f6200d7db565b9092915f93600581101590816200490c57600181149182156200d89d575b82156200d88a575b50506200d851575050565b909192506200d7ed5760207f3892657f1733e6fad09eddb45222f85d706fcdf18040658aae5eb4bd9ba497e691604051908152a1600190565b9091506200490c576003145f806200d846565b506002811491505f6200d83e565b6200d8b69062012169565b92908290600481036200d8e75750506200d8d55f9261a7679062008b84565b925b61217b810180911162003cf55790565b6200d8f59194935062008c6e565b916200d8d7565b906200d908336200af65565b91825f5260d560205260405f209260ff845460a01c166200d9298162007e07565b80620052c957506200d94b826001600160a01b0360cb5416309033906200be30565b6200d95782856200b1a4565b60cc546200d966838262008b84565b906001600160501b0382116200d9c6575060cc5592546040805194855260208501929092526001600160501b031690830152907f84b5adc99a7d46a960b87da6e4882021bab65d63c6d02c9bcfc52f02e710b1e39080606081016200a5dc565b8390632242001360e21b5f526004526024526001600160501b0360445260645ffd5b93909796959260c0959260e0860199865260208601526200da09816200810c565b60408501526060840152608083015260a08201520152565b949394610ac052610a405261084052610a8052610ae052610a80515f526012610ac0510160205260405f20610860528364ffffffffff610860515460b81c16156200f37f576200da7d91610a805161086051610ac0516201230b565b6108a0526108c092909252919592909190156200f377576200dab18662ffffff6001610ac051015460701c168484620126f6565b9086806200f369575b806200f35b575b80156200f32e575b156200f29d57505050816200f1f2575b505060ff610860515460401c16610880525f610a00525f610a20525f610920526200db8b61086051546200db286108c0516001600160501b038360481c1664ffffffffff8460b81c1662015511565b6200db36819492946200c4de565b610a00526200db7c60ff8460401c1693610ac051549060ff808360b81c169260b01c16906108c0519063ffffffff8160981c169060e01c886108a051610ac0516200bcbe565b6109c05261098052906200bf50565b905f82126200f19a5750806200dba56200dc4c926200c4de565b610a60525f610940526001610ac0510154610aa052620186a06200dbd562ffffff610aa05160881c16836200c4ef565b0561096052610aa051620186a0906200dbf79060a01c62ffffff16836200c4ef565b056109a0819052610a2052610aa051620186a0906200dc1f9060b81c62ffffff16836200c4ef565b056109e0819052610960516109a0516200dc4592916200dc3f916200bf50565b6200bf50565b906200bf7e565b610940526200dc626109e051610a60516200bf50565b610a60528015806200f191575b6200f15a575b6200dcd06001600160501b036200dc9c61096051826003610ac051015460501c1662018a1a565b166003610ac051019069ffffffffffffffffffff60501b1969ffffffffffffffffffff60501b83549260501b169116179055565b6200dcde610a605162015532565b5f610a6051125f146200f0cb576200dcfe90610a8051610ac05162011800565b610a80515f5260d560205260405f20906200dd1d610a20518362015542565b6109205260c9546200dd3d6001600160701b036109405190831662018a1a565b906001600160701b0319161760c95560ff610860515460401c166200dd62816200810c565b6200f0b3576200dd796108c051610ac051620155bf565b156200f088576200ddb2906200dd99610a80516011610ac0510162013741565b600561ffff6002610ac051015460a81c1691016201384d565b6200de0f6200de056002610ac0510154845f146200f0765764ffffffffff8116905b60ff8160e01c169160ff8260d81c169164ffffffffff808260501c1692169061ffff6108c0519160b81c166200d2f9565b610ae0516201179e565b5f6108005291156200f06a575f610800525b610840515f5260d560205260405f20610900526001600160501b036109005154166107e052610840515f526012610ac0510160205260405f206108e0526200de746108c051610800516108e05162018a62565b6200de826108005162013ac9565b806200f062575b6200f01e575b6200de9a8162007e07565b806200e73757506200dec6905f836108c0516108a0516108a0516108005161090051610ac05162018af4565b9092939184156200e1b2575b505050505b6001600160501b036109005154166107e051811015805f146200e19c576200df036107e05183620085f0565b905b6001600160ff1b0382116200e18257156200e171575b5050600781036200e13e5750610840515f908152610ac05160120160205260409020805460b81c64ffffffffff16156200e0b357806001600160501b03807ff14b2e916a38315c52d00796f7301d83d24a889ea889ef230a501c9dcb524d20935460481c16916200df906109e05182620155ea565b546040805161084051610a4051825260208201529081019390935260481c166001600160501b0316606082015280608081010390a15b6200dfdc61084051610a8051610a40516201130f565b7f6fc9c0ea1c0531654320ba06740c802447dbdef7c26cf749c4f12553cdd958a96101c061086051546001600160501b0360405191610a40518352610a805160208401526200e02e610880516200810c565b6108805160408401526108a05160608401526108a05160808401526108c05160a084015264ffffffffff8160b81c1660c08401526109805160e08401526109c051610100840152610a005161012084015260481c16610140820152610a2051610160820152610920516101808201525f6101a0820152a16200849c610ac051620114a6565b50610840515f5260d56020527f66c4fd8d726a62e549cbf66bc9a8e005cb6e30b73e027b3d86c4df1388d2b16f60405f206200e1156001600160501b03825416916200e10a6109e05161084051610ac05162011800565b6109e0519062015542565b6040805161084051610a405182526020820152908101929092526060820152608090a16200dfc6565b6200183290604051918291633e3906a760e21b83526108c0516108a0516108005161084051610a40516004880162012a83565b6200e17c906200c4de565b6200df1b565b8263e69a04b360e01b5f526004526107e05160245260445ffd5b6200e1ab826107e051620085f0565b906200df05565b839450926200e1c391929362008b84565b926200e1d26108005162007e07565b610800516200e72e575f935b61ffff6002610ac051015460a81c165f60c06040516200e1fe81620082e2565b8281528260208201528260408201528260608201528260808201528260a082015201526001600160501b0382116200e7105764ffffffffff6108c051116200e6f157604051906200e24f82620082e2565b5f82525f60208301526200e263876200810c565b8660408301526001600160501b038316606083015263ffffffff6108a05116608083015264ffffffffff6108c0511660a083015263ffffffff431660c0830152610840515f526012610ac0510160205264ffffffffff60405f205460b81c166200e6d85750610ac0516011015460201c63ffffffff16806200e6595750917fc0150ebb43a9c2478aa9c69d27078da071ceafb70e2d822d7d39a533e04187289593916200e45c61014096946200e323610840516011610ac05101620165c8565b610840515f908152610ac05160120160209081526040909120825181548484015167ffffffffffffffff1990911663ffffffff92831617931b63ffffffff60201b169290921781559160c0905b6200e38b60408201516200e384816200810c565b856201a75d565b6060810151845472ffffffffffffffffffff000000000000000000191660489190911b72ffffffffffffffffffff000000000000000000161784556080810151845463ffffffff60981b191690841660981b63ffffffff60981b1617845560a0810151845464ffffffffff60b81b191660b89190911b64ffffffffff60b81b16178455015182547bffffffffffffffffffffffffffffffffffffffffffffffffffffffff16911660e01b7fffffffff0000000000000000000000000000000000000000000000000000000016179055565b6200e471610840516011610ac05101620165ec565b6005610900510161ffff6002610ac051015460a81c1660fc8111155f146200e5ae576001901b81541790555b6200e4b76200e4ad848362008b84565b610900516200d205565b6200e4c681610ac0516200fe4d565b6200e4ef6200e4e76200e4e185610ac0515460e81c620085aa565b620136e0565b8094620085f0565b936200e4fb856200be18565b6200e50a84610ac0516200fe69565b6200e515866200810c565b856200e596576200e52d6108c051610ac0516201a7ad565b61ffff6002610ac051015460a81c16956040519687526108405160208801526200e557816200810c565b60408701526060860152608085015260a08401526108a05160c08401526108c05160e0840152610100830152610120820152a160075f8080806200ded2565b6200e5a86108c051610ac0516201a78c565b6200e52d565b6101fc81116200e5e3576200e5c5600191620085e0565b1b60066109005101908154179055600160fd1b81541790556200e49d565b6102fc81116200e618576200e5fa600191620085cf565b1b60076109005101908154179055600160fe1b81541790556200e49d565b6103fc8111156200e62c575b50506200e49d565b6200e639600191620085be565b1b60086109005101908154179055600160ff1b81541790555f806200e624565b63ffffffff81116200e6be57916200e45c82847fc0150ebb43a9c2478aa9c69d27078da071ceafb70e2d822d7d39a533e041872899979560206101409a989601525f526012610ac051016020526200e6b86108405160405f20620165c8565b6200e323565b6395d41f3f60e01b5f5260045263ffffffff60245260445ffd5b633f1ed2e160e21b5f526004526108405160245260445ffd5b6395d41f3f60e01b5f526108c05160045264ffffffffff60245260445ffd5b506395d41f3f60e01b5f526004526001600160501b0360245260445ffd5b6001936200e1de565b6200e7428162007e07565b600181036200ea9457506200e771815f846108c0516108a0516108a051610900516108e051610ac05162019183565b61070052610820526107c091909152610c40516106e05292949193909285600a81036200e80a5761ffff6002610ac051015460a81c166003610ac051015490620018326200e7c26108205162015532565b60405163063c641b60e41b815261ffff90931660048401526001600160501b03808516602485015260509490941c909316604483015260648201929092529081906084820190565b156200e81d575b50505050505b6200ded7565b6200e8319192939495506109005162015542565b506200e8406108205162015532565b5f61082051125f146200ea7f576200e8609061084051610ac05162011800565b6200e87a6200e4e161070051610ac0515460e81c620085aa565b6200e8898161070051620085f0565b916200e895836200be18565b6200e8a482610ac0516200fe69565b6108e05154610720526200e8cb6107c0516001600160501b036107205160481c166200bf50565b945f86126200ea70577f2a077a58d72570ce2b985a210c9ad672373eb9bcc337d1dc62b8b75dd644cf27966101c0966200e90e60ff6107205160401c166200810c565b60ff6107205160401c16156200e947816108c0516108a05164ffffffffff6107205160b81c1663ffffffff6107205160981c166201ad3c565b610740526106c05250156200ea58576200e9686108c051610ac0516201a7ad565b6200e9a561ffff6002610ac051015460a81c1643906107405190846106c0519160ff6107205160401c169061084051906011610ac051016201ab38565b61ffff6002610ac051015460a81c16966040519788526108405160208901526200e9d860ff6107205160401c166200810c565b60ff6107205160401c16604089015260608801526001600160501b036107205160481c16608088015260a087015260c086015260e08501526101008401526106c05161012084015264ffffffffff6107205160b81c16610140840152610740516101608401526101808301526101a0820152a160075f808080806200e811565b6200ea6a6108c051610ac0516201a78c565b6200e968565b63b42b26c760e01b5f5260045ffd5b6200ea8e90610ac0516200fe4d565b6200e860565b6003906200eaa28162007e07565b036200ed7b576200ead1905f836108c0516108a0516108a0516108a051610900516108e051610ac05162018ea2565b6107a093909352610b20516106a052610b405161064052610680949094529491929084600a81036200eb275761ffff6002610ac051015460a81c166003610ac051015490620018326200e7c26107a05162015532565b156200eb3c575b509293506200ded792505050565b6101c094506200eb9f7f01a0596385c75b269e896ca6468a2be2edc8b2b5459f4e25ca0a75944390a10c966200eb756107a05162015532565b5f6107a051125f146200ed66576200eb959061084051610ac05162011800565b6109005162015542565b506200ebba6200e4e16106a051610ac0515460e81c620085aa565b9164ffffffffff6200ebd0846106a051620085f0565b946200ebdc866200be18565b6200ebeb85610ac0516200fe69565b6108e051546106605260ff6106605160401c16966200ec0a886200810c565b876200ed37576200ec28836108e0515460b81c16610ac051620155bf565b6200ec3a61064051610ac0516201a78c565b6108e05154916200ec4f826106805162008b84565b906200ec8e61ffff6002610ac051015460a81c168b155f146200ed305760015b43918561064051926108a0519261084051906011610ac051016201ab38565b610ac0516002015460a81c61ffff16996200ed295760015b6040519a8b526108405160208c01526200ecc0816200810c565b60408b015260608a01526001600160501b038360481c1660808a015260a089015260c08801526108a05160e088015260b81c16610100860152610640516101208601526101408501526101608401526101808301526101a0820152a16007805f8080806200eb2e565b5f6200eca6565b5f6200ec6f565b6200ed4e836106605160b81c16610ac05162015579565b6200ed6061064051610ac0516201a7ad565b6200ec3a565b6200ed7590610ac0516200fe4d565b6200eb95565b506200ed9b906108c0516108a0516108a0516108e051610ac05162018dac565b610760949094525061078085905291929091600a85036200ee1057610ac051600281015460039091015460405163063c641b60e41b81526107605160a89390931c61ffff1660048201526001600160501b03808316602483015260509290921c90911660448201526064810191909152608490fd5b61078051156200ee26575b506200e81792505050565b90919293506200ee416107605161084051610ac05162011800565b6200ee5361076051610900516200b1a4565b60ff6108e0515460401c16916200ee6a836200810c565b826200f006576200ee826108c051610ac051620155bf565b84156200ef3557509060c0917f599b5f439ed4daf1f28ae8638e5439d3982e8001fb26dd8f70021b38672eb26f936200eec5610840516011610ac0510162013741565b6200eee561ffff6002610ac051015460a81c16600561090051016201384d565b61ffff6002610ac051015460a81c16926040519384526108405160208501526200ef0f816200810c565b60408401526108a0516060840152608083015260a0820152a15b6007905f80806200ee1b565b907fcd4a9f7ae1cc250eaa0be6bdb30d07efaf0faafb4ff0e76d8fe09a8373e43f859364ffffffffff610120946200ef766108e05154956108e051620189fc565b6200ef886108c0516108e0516201563f565b8161ffff6002610ac051015460a81c16956108e05154926040519788526108405160208901526200efb9816200810c565b60408801526001600160501b038160481c1660608801526001600160501b038360481c16608088015260b81c1660a086015260b81c1660c084015260e0830152610100820152a16200ef29565b6200f0186108c051610ac05162015579565b6200ee82565b6108c0515f036108c05162003cf557836200f0556200f05b92610ac051549060ff808360b81c169260b01c16906108a0516201174e565b620117bf565b506200de8f565b505f6200de89565b6001610800526200de21565b64ffffffffff8160281c16906200ddd4565b506200f09b610a005161086051620155ea565b6200f0ad6108c051610860516201563f565b6200ddb2565b6200f0c56108c051610ac05162015579565b6200dd79565b806200f0d9575b506200dcfe565b6200f0e890610ac0516200fe4d565b7fbee5185c13c42cac0d82b6c115c77d5e8dc2b2888c013d169e068e634f57f58e60e061ffff6002610ac051015460a81c16604051908152610a805160208201526108a05160408201526108c051606082015260016080820152600160a0820152610a605160c0820152a15f6200f0d2565b6200f16c6109a051610a60516200bf50565b610a60526200f1826109a051610a00516200bf50565b610a00525f610a20526200dc75565b5060016200dc6f565b60c49161ffff6002610ac051015460a81c169160405192630c62a44b60e11b84526004840152610a805160248401526200f1d4816200810c565b60448301526108c05160648301526108a051608483015260a4820152fd5b83156200f29057816108a05111155b6200dad957915091506200f25a577f1f008bb4cf7968d3043531816710a52872a7cd65b725fdf40176bbe0ff8215979060ff610860515460401c166200a5dc6040519283926108a05190610a8051610a4051866200b203565b60ff610860515460401c16620018326040519283926307c022ed60e21b84526108a05190610a8051610a4051600487016200b203565b816108a05110156200f201565b935093509493506200f2f6576200a5dc7f244c695d1e05b510329d2a418fcf7f40a78e7e06283e8422153ba676d7dc8f9d939460ff610860515460401c16926040519485946108a05190610a8051610a4051886200d9e8565b620018328460ff610860515460401c169260405194859463244c695d60e01b86526108a05190610a8051610a4051600489016200d9e8565b508615806200f34d575b80156200dac95750826108a05111156200dac9565b506108a0518211156200f338565b50816108a05111156200dac1565b506108a0518311156200daba565b505050505050565b505050506200f3bf577f6948067a0ba575890268b9a7eaf592a5832287e4402201145ce0768a9d9533fc60408051610a40518152610a80516020820152a1565b6334a4033d60e11b5f52610a4051600452610a805160245260445ffd5b6105c0526105a052906200f3f260018362012ab6565b6200a3c5576105a0515f5260126105c0510160205260405f209164ffffffffff835460b81c16156200f7745760016200f434916105a051856105c0516201230b565b959194156200f76b578315947f02d2bf39d2355aaa5486487e934403fd3ba3f88c73ab71938cee11931fddeb7b61022061ffff60026105c051015460a81c16885f146200f7635760035b6200f4aa5a916040519384526105a05160208501525f60408501525f6060850152608084019062009ba9565b8560a08301528760c08301525f60e08301525f6101008301525f61012083015260016101408301526103e86101608301525f6101808301525f6101a08301525f6101c08301525f6101e0830152610200820152a16200f50f8685846105c05162012b3c565b936106e051948082116200f536575b505050505050505050506200849c6105c051620114a6565b6200f54191620085f0565b938487156200f751576200f555916201370e565b945b60ff895460401c1696816200f746575b81156200f72c575b506200f6d95750509282826200f5be7f6fc9c0ea1c0531654320ba06740c802447dbdef7c26cf749c4f12553cdd958a998966001600160501b03956101c099976105a0518a6105c05162012780565b9195949096936105809a939a5261056052949397506200f5f06105a05161ffff60026105c051015460a81c16620111a4565b7f5be6b2e974d9a72428e5cb9cf915a5f991d1c862db8cafc9a121bb99b091cb7460e06040518481528460208201528460408201528560608201525f60808201526105805160a08201528a60c0820152a161ffff60026105c051015460a81c16985495604051998a526105a05160208b01526200f66d816200810c565b60408a01526060890152608088015260a087015264ffffffffff8360b81c1660c087015260e08601526101008501526105605161012085015260481c166101408301526105805161016083015261018082015260016101a0820152a15f8080808080808080806200f51e565b60c49186918661ffff60026105c051015460a81c16936040519463fbe5086f60e01b865260048601526105a05160248601526200f716816200810c565b60448501526064840152608483015260a4820152fd5b9050806200f73c575b5f6200f56f565b508482106200f735565b86841191506200f567565b6200f75c9162008b43565b946200f557565b60026200f47e565b50505050505050565b61ffff60026105c051015460a81c166334a4033d60e11b5f526004526105a05160245260445ffd5b6105c0526105a052916200f7b1818462012ab6565b6200a08f576105a0515f5260126105c0510160205260405f209264ffffffffff845460b81c16156200f7f257906200f434916105a051856105c0516201230b565b509150506200f774576105c05160020154604080516105a05160a89390931c61ffff16815260208101929092527f6948067a0ba575890268b9a7eaf592a5832287e4402201145ce0768a9d9533fc9190819081016200a5dc565b156200f85457565b60405162461bcd60e51b815260206004820152602b60248201527f496e697469616c697a61626c653a20636f6e7472616374206973206e6f74206960448201527f6e697469616c697a696e670000000000000000000000000000000000000000006064820152608490fd5b909180156200a08f575f5b8181106200f8d85750505050565b806200f8e8600192848762009f2e565b358061ffff106200f90a575f52600784016020525f60408120555b016200f8ca565b506200f903565b905f9180151590816200f944575b81156200f935575b506200f92f57565b60019150565b63ffffffff9150115f6200f927565b43811091506200f91f565b90805461ffff8160681c1690811580156200f96b575050505050565b612710830292830461271014171562003cf55760c95460701c6c1fffffffffffffffffffffffff16908183116200fa05575050916080918361ffff6200f9d27f829714cd4c1b45d8cb7fc185e9a89690df638ae20633056021e186ef6ce2e0bf966201394e565b926200f9de836200be18565b5460a81c16604051938452602084015260408301526060820152a15b5f808080806200be94565b60a093509161ffff7ff662aa6b6412ffe2a4e433dace098e96260a08fdaefdb023773e41f999b7c4ec9593604051945f8652602086015260a81c16604084015260608301526080820152a16200f9fa565b61ffff16801562003cf5575f190190565b5f939183156200fdd85761ffff948585166303ff00008360101b1617906002840192825f528360205260405f209687549063ffffffff8216156200fdb25750855460b01c63ffffffff1684036200fd7957506200facf63ffffffff885460201c16866201399e565b63ffffffff875460201c16806200fd5a575b505b845460d01c63ffffffff1683036200fd1e576200fb0b63ffffffff885460401c168662013a3c565b63ffffffff875460401c16806200fcff575b505b6003850191815f52826020526200fb656200fb4460405f209a8b5460401c166200fa56565b8a5469ffff0000000000000000191660409190911b61ffff60401b16178a55565b87546200fb7860ff8260601c1662013ac9565b156200fce05750506200fb996001600160501b03885460901c168662013b2e565b965b885463ffffffff8116851480806200fccd575b156200fc34575050506200849c959697505f526020525f60408120555b5f526020525f60408120556200fbe5815460f01c6200fa56565b81547dffffffffffffffffffffffffffffffffffffffffffffffffffffffffffff1660f09190911b7fffff00000000000000000000000000000000000000000000000000000000000016179055565b9193509150156200fc8e57505460201c63ffffffff16956303fcffff8088116200fc78575063ffffffff6200849c9596971663ffffffff198254161790556200fbcb565b876395d41f3f60e01b5f5260045260245260445ffd5b968263ffffffff6200849c97989960201c16146200fcaf575b50506200fbcb565b63ffffffff6200fcc5925460401c169062013a99565b5f806200fca7565b508563ffffffff8360201c16146200fbae565b64ffffffffff6200fcf99160689a939a1c168a62013af1565b6200fb9b565b5f528360205260405f2063ffffffff60201b1981541690555f6200fb1d565b8654602081811c63ffffffff165f9081529086905260409020805463ffffffff60401b191663ffffffff60401b9092169190911790556200fb1f565b5f528360205260405f2063ffffffff60401b1981541690555f6200fae1565b604081811c63ffffffff165f908152602087905220805467ffffffff00000000191663ffffffff60201b9092169190911790556200fae3565b905063ffffffff60018701541691638d5bba0f60e01b5f5260045260245260445260645ffd5b63ffffffff600183015416906369bc91ef60e11b5f5260045260245260445ffd5b906200849c91815f52600781016020526200fe2b60405f206200fe2360ff825460201c16620101a6565b908362013b90565b620140fb565b90156200fe3b5750565b6364d572b360e01b5f5260045260245ffd5b6001600160501b036200b1bd6003829301938285541662010bcc565b906001600160501b036200c4b360036200849c94019282845460501c1662010bcc565b929061ffff600285015460a81c16936200fea9600184846200cf9e565b6200be9457835f526012810160205260405f209064ffffffffff825460b81c16156200ff8c57916001600160501b038085936200ff188560a099976200ff127f577ed0a8f65f2feb5a407660b0a3009c2ee155a17d0e34947c58ecdd6c8b37719c9a886200d205565b6200fe4d565b6200ff66826200ff2f8782855460481c1662010bcc565b835472ffffffffffffffffffff0000000000000000001916911660481b72ffffffffffffffffffff00000000000000000016178255565b5460481c16915416926040519485526020850152604084015260608301526080820152a1565b84866334a4033d60e11b5f5260045260245260445ffd5b9392919261ffff600286015460a81c16946200ffc18285856200cf9e565b6200f37757845f526012810160205260405f209164ffffffffff835460b81c16156201002b5750916001600160501b038085936200ff188560a099976200ff127f577ed0a8f65f2feb5a407660b0a3009c2ee155a17d0e34947c58ecdd6c8b37719c9a886200d205565b93505050506200b77a577f6948067a0ba575890268b9a7eaf592a5832287e4402201145ce0768a9d9533fc9160409182519182526020820152a1565b908060081c9060ff81168062010148575b5060101c9060ff811680620100e6575b505080620100975750505f1990565b620100a49082546201418d565b60018101156200d6cf57806002915f5260018301602052620100ca60405f2054620141b3565b9060081b1791825f52016020526200d72560405f2054620141b3565b6201010090835f526001850160205260405f20546201418d565b9060018201156201008857600292507effffffffffffffffffffffffffffffffffffffffffffffffffffffffffff00161791825f52016020526200d72560405f2054620141b3565b6201016290835f526002850160205260405f20546201418d565b600181011562010078579250905060ff19161790565b620101838162007e07565b6002811490811562010193575090565b60039150620101a28162007e07565b1490565b620101b18162007e07565b801590811562010193575090565b91825461ffff63ffffffff8260601c169160a01c16905f938142116201028c575b84620101ee57505050909150565b62010250576200d01f61ffff60027fa8ea47e93f284c6600be84b692d51af848f0cc9115e2c7d7d4048983348f9b2d959697015460a81c16926040519384934291859094939260609261ffff6080840197168352602083015260408201520152565b600285015460405163a8ea47e960e01b815260a89190911c61ffff16600482015260248101919091524260448201526064810191909152608490fd5b9350816201029b8242620085f0565b1193620101e0565b91905f926101808201358015158062010531575b620104e757506040820135600781101562003fb557600681036201037d5750620102e68360608401356201434e565b62010377578260808301358062010353575b50905060a08201358062010335575b505060c0013590816201031d575b505050600190565b6201032891620142e8565b620083ef57808062010315565b90620103419162012ab6565b6201034e57815f62010307565b505090565b63ffffffff60096201036994015416906200aa1e565b6201034e575f8281620102f8565b50505090565b60058103620103d55750506101a00135156201039a575050600190565b620103c6577f1fccd51f56ecc3a71d5e32721dbf2bb0690bf050c6147a84fd5f83717d8c5d225f80a190565b631fccd51f60e01b5f5260045ffd5b600403620103f95750906060620103ee9201356201434e565b620083ef5750600190565b8263ffffffff6009620104149301541660808401356200aa1e565b6201034e57620104298260a083013562012ab6565b6201034e576201043d610100820162008696565b1580620104d0575b620104b5575b6101c001359061ffff82116201046357505050600190565b6201049d5760407f95d41f3f44becfa47a91cf04138709af8e760c9060dcf6091505be37dce1418891815190815261ffff6020820152a190565b6395d41f3f60e01b5f5260045261ffff60245260445ffd5b620104c58260c0830135620142e8565b156201044b57505090565b50620104e0610120820162008696565b1562010445565b935050506201051f5760207f9f38a7d29e6c9e707bfe5fee47b29748083dc31546de0135d48ed99db5e190f091604051908152a15f90565b634f9c53e960e11b5f5260045260245ffd5b50438110620102b7565b9192835f526010830160205260405f209463ffffffff86541615620105f157620105709063ffffffff875416838786620143bb565b156201057d575050505050565b620105d5846009620105cd606097620105b9867fe9805f82cb3729e97b234bb6bb4f90ea971e2c274201ff71818ebde153e1b0a69b896201443d565b9790965f5260d560205260405f206200fa67565b95016200fdf9565b60405192835260208301526040820152a15f808080806200be94565b92505092506201062d577f69b92a906c4fe940cd3de572076c4a5181ddced80218575cc4959b1d8f6a6e3f9160409182519182526020820152a1565b9063069b92a960e41b5f5260045260245260445ffd5b949290939160405162010656816200831c565b5f81525f6020820152809561ffff600289015460a81c16606084013590815f5260108a0160205260405f209363ffffffff855416156201074f57508354620106a88863ffffffff8316898686620143bb565b620107425760ff620106be9160201c1662010178565b620106d25750506200849c959697620145b6565b949850949250505093929362010727576200a8067fe03d6e5b9ada2bee571a0faed84b4da12ba5afc5c10f1c29d8fbbb6dcd7519d8939495604051938493846040919493926060820195825260208201520152565b84925063e03d6e5b60e01b5f5260045260245260445260645ffd5b5050505050505050915090565b98509698509493505050506201062d577f69b92a906c4fe940cd3de572076c4a5181ddced80218575cc4959b1d8f6a6e3f9160409182519182526020820152a190565b949391929060405193620107a6856200831c565b5f85525f602086015284604082013595600787101562003fb557620107cb8762007e07565b60a083013591620107dc8862010178565b620109e3575b506101208301620107f38162008696565b8015620109cd575b620108f557506201080c8762010178565b620108d6575b5060405162010821816200831c565b5f81525f602082015297600981019163ffffffff835416966201084a60808601359889620085f0565b9682986201085b60e0880162008696565b15620108a6575b5050508662010878575b50505050505050505090565b6201088c9950886201089b575b50620189c6565b5f80808080808080806201086c565b861497505f62010885565b620108cc9399506101c0870135908b8b6101408a0135926101608b0135928c8a62016c10565b955f808062010862565b620108e48883868c62014e9a565b620108125797505050505050505090565b958398506201092e9199949561010093986101c062010936960135908b8b610140820135926080610160840135930135908c8c62016c10565b960162008696565b80620109c3575b6201099d5750506201094f9062008696565b8062010993575b6201096057505090565b7f59468f520017226c0116472def96f905dbeff518444091b355de591a2161cdbe9160409182519182526020820152a190565b5081151562010956565b9061ffff60028693015460a81c1663578f7fed60e01b5f5260045260245260445260645ffd5b508415156201093d565b50620109dd610100850162008696565b620107fb565b845f5260128a0160205260405f209064ffffffffff825460b81c1615158062010b0b575b62010a7957505460b81c64ffffffffff1680831115620107e2579795509750945050505062010a63577f604559a5e01ca154dad1c02a9ef408530f8fa41f3506e6a57f7d2ac727e148229160409182519182526020820152a190565b9063604559a560e01b5f5260045260245260445ffd5b995096979550505050505062010ad9577f189a4ff828fb1a93c81a2248c39ac499b67bf632ade3d5f89935821e8d1ec9989160ff60409254831c169082519162010ac3816200810c565b825262010ad08162007e07565b6020820152a190565b5463031349ff60e31b5f5260401c60ff1662010af5816200810c565b60045262010b038162007e07565b60245260445ffd5b5060ff825460401c1662010b1f816200810c565b62010b2a8a62007e07565b1560028a14141562010a07565b919082811162010b7857808303926001600160501b03841162010b58575050565b63733cc1d960e11b5f526004526024526001600160501b0360445260645ffd5b9050637509da4360e11b5f5260045260245260445ffd5b919082811162010b78578083039264ffffffffff841162010bae575050565b63733cc1d960e11b5f5260045260245264ffffffffff60445260645ffd5b919062010bda818462008b84565b926001600160501b03841162010bee575050565b632242001360e21b5f526004526024526001600160501b0360445260645ffd5b919062010c1c818462008b84565b9264ffffffffff841162010c2e575050565b632242001360e21b5f5260045260245264ffffffffff60445260645ffd5b803b1562010cae576001600160a01b03166001600160a01b03197f360894a13ba1a3210667c828492db98dca3e2076cc3735a920a3ca505d382bbc5416177f360894a13ba1a3210667c828492db98dca3e2076cc3735a920a3ca505d382bbc55565b60405162461bcd60e51b815260206004820152602d60248201527f455243313936373a206e657720696d706c656d656e746174696f6e206973206e60448201527f6f74206120636f6e7472616374000000000000000000000000000000000000006064820152608490fd5b811562008b4e570790565b949362010d449062010d3e62010d4b949998935f6200bf7e565b6200bf7e565b9362008b84565b600603906006821162003cf55762010d6762010d6e9262009dff565b90620085aa565b9262010d8762010d7f85846200c513565b948362010d19565b62010dc1575b50501562010db05762010da0916200bf50565b5f811262010dab5790565b505f90565b62010dbb916200bf7e565b62010da0565b808062010e15575b1562010de75750509062010ddd906200bf33565b905b5f8062010d8d565b15908162010e0a575b501562010ddf579062010e03906200bf6c565b9062010ddf565b5f9150125f62010df0565b505f821362010dc9565b959462010d3e62010e3794989362010d44936200bf7e565b600603906006821162003cf55762010d6762010e539262009dff565b9062010e6c62010e6483836200c513565b928262010d19565b62010e85575b50901562010db05762010da0916200bf50565b5f121562010ea25762010e98906200bf33565b905b905f62010e72565b9062010e9a565b929194939562010ec562010ecc929762010d3e5f995f6200bf7e565b9462008b84565b600603906006821162003cf55762010d6762010ee89262009dff565b9162010f0162010ef984836200c513565b938262010d19565b62010f39575b501562010f275762010f19916200bf50565b905b8082126200d2dc575090565b62010f32916200bf7e565b9062010f1b565b93505f80941262010f4c575b5f62010f07565b9062010f58906200bf6c565b9062010f45565b93969592949094610c805262010f795f84838888620150e6565b9b94809a949a999399989298979197620111305750509487969464ffffffffff96946001600160501b036101e09c9b9a957f3b1e497992fc37fbf896b38202d19417ad54402fa8d8aed214d20f27c34bcabc9e958a98610c80515f5260d560205260405f209a61ffff600284015460a81c16610ca0526201100d84549a6201100681610c80518762011800565b8d6200b1a4565b60ff845460401c169e8f62011022816200810c565b6201111e57620110338385620155bf565b15620110ff575050610c80516201104d9160110162013741565b6201105f610ca05160058b016201384d565b54975416996040519b610ca0518d528c6020610c8051910152151560408d01526201108a816200810c565b60608c015263ffffffff8560981c1660808c015260a08b015260c08a015260e08901526101008801526001600160501b038160481c166101208801526001600160501b038360481c1661014088015260b81c1661016086015260b81c166101808401526101a08301526101c0820152a1600190565b620111189250620111119084620189fc565b826201563f565b6201105f565b6201112a838562015579565b62011033565b97509a5050965050505050600a919350146201114d575050505f90565b6084935060036001600160501b039101546040519363063c641b60e41b85526004850152818116602485015260501c1660448301526064820152fd5b9491929662010f799196949897610c805284838888620150e6565b90805f5260d560205260405f2092825f526003840160205260405f20549061ffff8260401c1680156201130757620111df8196959662008dd6565b9363ffffffff5f94169660028701975b80151580620112fd575b15620112385761ffff956201121d620112128262008c6e565b9783169189620086a4565b525f528760205263ffffffff60405f205460201c16620111ef565b50935093919550936201124b836200a3c9565b600981019260105f9201915b87811062011269575050505050505050565b807fb52688454dfd5028443d05c10bc78a9ca263b7c7645d2e8bfef428d0e8b3b0476201129960019385620086a4565b51805f5285602052620112b060405f208a6200f94f565b620112bd818a896200fa67565b90620112ca818a6200fdf9565b620112f36040519283928d8d859094939260609260808301968352602083015260408201520152565b0390a10162011257565b50838610620111f9565b509350505050565b90929192805f5260d560205260405f2092825f526003840160205260405f20549161ffff8360401c169081156201149d576201134e8297969762008dd6565b9463ffffffff5f95169760028101985b8015158062011493575b15620113a75761ffff966201138c620113818262008c6e565b988316918a620086a4565b525f528860205263ffffffff60405f205460201c166201135e565b50929691959397509350620113bc846200a3c9565b600981019360105f9201915b888110620113db57505050505050505050565b807fb52688454dfd5028443d05c10bc78a9ca263b7c7645d2e8bfef428d0e8b3b0478989620114758a8a620114528b6201144b8c876201141e60019d8f620086a4565b519586948593845f5260205260405f209080155f146201147f57506201144590836200f94f565b6200fa67565b936200fdf9565b604051948594859094939260609260808301968352602083015260408201520152565b0390a101620113c8565b6201148b91846201443d565b50506200fa67565b5084871062011368565b50509350505050565b6002015464ffffffffff8082169160281c1690818103620114c5575050565b6395626a2760e01b5f5260045260245260445ffd5b90915f5f9280155f1462011561575050620f4240925b80620114ff5750620f42409150565b60018103620115115750620186a09150565b600281036201152257506127109150565b600381036201153357506103e89150565b6004810362011543575060649150565b60058103620115535750600a9150565b6006036200849c5760019150565b6001810362011578575050620186a0925b620114f0565b600281036201158d57505061271092620114f0565b60038103620115a25750506103e892620114f0565b60048103620115b6575050606492620114f0565b60058103620115ca575050600a92620114f0565b90939060051901620115725760019350620114f0565b9091925f928085106201161f5793620116008394956201160b946200d3fc565b93909184956200d3fc565b80940362011617575050565b0360050b9350565b849061ffff600285015460a81c16635d00a16960e01b5f5260045260245260445260645ffd5b906001600160a01b03620116a592165f80604051936201166760408662008356565b602085527f5361666545524332303a206c6f772d6c6576656c2063616c6c206661696c6564602086015260208151910182855af16200601b620152a5565b805190811591821562011728575b505015620116bd57565b60405162461bcd60e51b815260206004820152602a60248201527f5361666545524332303a204552433230206f7065726174696f6e20646964206e60448201527f6f742073756363656564000000000000000000000000000000000000000000006064820152608490fd5b819250906020918101031262003fb55760200151801515810362003fb5575f80620116b3565b9190926201175d818362008b84565b9160068311620117895750506006036006811162003cf557620083ef926200bd0b6200433a9262009dff565b632f0a93cd60e21b5f5260045260245260445ffd5b90600182101580620117b5575b156200d2dc575090565b50808210620117ab565b9060648202918083046064149015171562003cf557620083ef916201370e565b906001600160501b03809116911601906001600160501b03821162003cf557565b6003810180546001600160501b03811695949391908685116201182d575050506200849c9293506200d3e0565b6001600160501b0390605095929493951c166001600160501b03620118538289620117df565b168211620118cc575060026060949392620118947f24600c3aa8cc38cbdf9648ea5ebfea6227de49651807d1a2a58fe70ea24953cc979861ffff94620085f0565b845469ffffffffffffffffffff1916909455620118b284826200c490565b015460a81c169160405192835260208301526040820152a1565b6002830154604051635b80bdb960e11b815260a89190911c61ffff1660048201526001600160501b0380891660248301529091166044820152606481019190915280608481010390fd5b9190916001600160501b0383116201196e576001600160501b036200849c92931672ffffffffffffffffffff0000000000000000001972ffffffffffffffffffff00000000000000000083549260481b169116179055565b826395d41f3f60e01b5f526004526001600160501b0360245260445ffd5b60f0018060f01162003cf5576001901b90565b81601f8201121562003fb557805190620119b98262008379565b92620119c9604051948562008356565b8284526020838301011162003fb557815f9260208093018386015e8301015290565b9060208282031262003fb557815167ffffffffffffffff811162003fb557620083ef92016201199f565b909162011a2f620083ef9360408452604084019062007dc6565b91602081840391015262007dc6565b519063ffffffff8216820362003fb557565b519077ffffffffffffffffffffffffffffffffffffffffffffffff8216820362003fb557565b51908160170b820362003fb557565b908161012091031262003fb55762011b386101006040519262011aa884620082a6565b8051845262011aba6020820162011a3e565b602085015262011acd6040820162011a3e565b604085015262011ae06060820162011a50565b606085015262011af36080820162011a50565b608085015262011b0660a0820162011a3e565b60a085015262011b1960c0820162011a76565b60c085015262011b2c60e0820162011a76565b60e08501520162011a76565b61010082015290565b915f905f905f91815182016080836020830192031262003fb55780603f8401121562003fb55760405162011b758162008289565b608084019082821162003fb55760208501905b8282106201203c575050519067ffffffffffffffff821162003fb557602062011bb4928501016201199f565b805115620086b95761ff0080602083015160f01c161690805160011015620086b9576021015160f81c176003810362011fe2575060209160405162011bfa848262008356565b5f8152881562011fba575f9062011c36926001600160a01b0360ca54169083604051809681958294637bf41d7760e11b84526004840162011a15565b03925af190811562011faf575f9162011f88575b50925b83519562011c6384808701988701018862011a85565b5160068901549081810362011f1a57505063ffffffff604062011c8c8688518901018a62011a85565b0151169642881162011eaa5788549463ffffffff8660601c16808a111562011e44575060c062011cc28289518a01018462011a85565b0151968760170b5f811262011de6575063ffffffff9260a0928262011ceb935101019062011a85565b0151169062011d0261ffff8660a01c164262008b84565b80831062011d7057505050505062011d5e9177ffffffffffffffffffffffffffffffffffffffffffffffff62011d4260ff62011d4a9460b01c166201548c565b911662008b43565b9463ffffffff60098596015416866200aa1e565b62011d6a575050600192565b93909150565b94509450949550969097955062011dcc576040805192835263ffffffff9093166020830152918101919091527f7f93aebf261535cb0331009511ba8896f348b68b1e0d448196c002a6bfcbdb7a9080606081015b0390a1929190565b9250637f93aebf60e01b5f5260045260245260445260645ffd5b975050945050949550969097955062011e2d57916040917f4d8c851d919cf102ec02f76a35ca2f0b9e8ca3e9cd36ecc7128c03c7048e247a938351928352820152a1929190565b5090634d8c851d60e01b5f5260045260245260445ffd5b9550939a985050949593509662011e9057917fac23cd4bf85c84f3aa74c4752cbc1abc6ca3871a6e6b676f56bd64f992b700ae93916060936040519384528301526040820152a1929190565b508263ac23cd4b60e01b5f5260045260245260445260645ffd5b509495935096915096945062011f00576040805192835263ffffffff909116602083015242908201527f560f753ea20ff5d3b404893dc8502570dec81bbc02626784a8f3d635f9c21b2990806060810162011dc4565b90632b07ba9f60e11b5f526004526024524260445260645ffd5b94509596509350969097955062011f6e57604080519283526020830193909352918101919091527fe9ab5ccfbd8b803e0bd519630f62d1a32b22e517a5bfcd78e8c860b36c98386b90806060810162011dc4565b925063e9ab5ccf60e01b5f5260045260245260445260645ffd5b62011fa891503d805f833e62011f9f818362008356565b810190620119eb565b5f62011c4a565b6040513d5f823e3d90fd5b62011fc69187620152d9565b901562011fd4579262011c4d565b509694505093509050929190565b9550505050509162012026577f09c9ec7d8ebb7546d7aa7fae159f14736cab80420326900e4b1ce60942f331d89160409182519182526020820152a15f905f905f90565b906309c9ec7d60e01b5f5260045260245260445ffd5b815181526020918201910162011b88565b156201205557565b634e487b7160e01b5f52600160045260245ffd5b9262012099620120be936201209286946201208b816201208b8860646200bf7e565b946200bf7e565b906200c4ef565b620120a582826200c513565b915f821291826201211a575b50506201210f576200bf50565b8160648293125f14620120eb57131580620120df575b620083ef906201204d565b506064811315620120d4565b620083ef9160641315908162012103575b506201204d565b90508213155f620120fc565b6200dc3f906200bf6c565b62012126925062010d19565b15155f80620120b1565b91620120996064926201209262012153956201208b816201208b8860016200bf7e565b806001131580620120df57620083ef906201204d565b9061a7676201217f61217b9184068094620085f0565b92049061217b82029180830461217b148115171562003cf557620083ef90928462008b84565b6001820180921162003cf557811c9081620121c15750505f1990565b62004340620083ef925b905f916fffffffffffffffffffffffffffffffff811615620122da575b67ffffffffffffffff811615620122c3575b63ffffffff811615620122ac575b61ffff81161562012295575b60ff8116156201227e575b600f81161562012267575b600381161562012250575b600116156201224057565b906001810180911162003cf55790565b916002810180911162003cf5579160021c62012235565b916004810180911162003cf5579160041c6201222a565b916008810180911162003cf5579160081c6201221f565b916010810180911162003cf5579160101c62012214565b916020810180911162003cf5579160201c62012208565b916040810180911162003cf5579160401c620121fa565b60809250821c620121e8565b9192608093969594919661ffff60a085019816845260208401526200b223816200810c565b93909192935f5f93549564ffffffffff8760b81c1681115f14620126ef575064ffffffffff8660b81c16955b86958354906201235f60ff8360b81c1660ff8460b01c168b63ffffffff8760981c166201174e565b906201237960028701549261ffff8460c81c1690620117bf565b906201238688886200be7a565b968715620126d9578a9b508460b81c60ff168560b01c60ff1690620123ab91620114da565b9091438860e01c620123bd92620115e0565b505090620123cc908d620085aa565b91620123d8916200c4ef565b8660401c60ff1691620123eb926201508d565b938560481c6001600160501b03168b8760b81c64ffffffffff1691620124119262015511565b9390508660401c60ff1662012426906200810c565b8660401c60ff16159c8d91878460b81c60ff16928560b01c60ff1692888c60981c63ffffffff1691620124599762010e1f565b998a156201261b578c8062012611575b8015620125fd575b620125765750808c868d60ff806201249f9660b81c169460b01c16928763ffffffff8c60981c169162010ea9565b978815620124b35750505050505050600195565b9b969798999a9b6201252a576040805160a89490941c61ffff168452602084019190915282015260989290921c63ffffffff1660608301526080820188905260a08201527f2e92846d5b5d5dd9cf60dd19064afe4a911e6751cdad455cb26a600db66e963c908060c081015b0390a1959493929190565b604051632e92846d60e01b815260a89390931c61ffff1660048401526024830152604482015260989290921c63ffffffff1660648301526084820188905260a48201528060c481010390fd5b999a9b9c9798925050919250620125cc57916201251f888760ff947f2822c66c89ce366f8d2961ecb44375cdaf6fd59a220e83b68f12498108778f849661ffff60405197889760401c169260a81c1686620122e6565b60408051630a08b19b60e21b815293849362001832938b938a93901c60ff169160a81c61ffff1660048701620122e6565b508c1580156201247157508a891062012471565b508a891162012469565b999a9b9c979890506201268d576040805160a89490941c61ffff168452602084019190915282015260989290921c63ffffffff1660608301526080820188905260a08201527f0df65f0bfef22299d2332a74323c24d136c79b82d668afc82cfe8dfb0d75a2f2908060c081016201251f565b604051630df65f0b60e01b815260a89390931c61ffff1660048401526024830152604482015260989290921c63ffffffff1660648301526084820188905260a48201528060c481010390fd5b505f9b8c9b9a508b995089985095505050505050565b9562012337565b9092919082156201276857838110620127605762012727916200e4e1915b858515620127545762010d6791620085f0565b90156201273a5790620083ef9162008b84565b808211156201274e57620083ef91620085f0565b50505f90565b9062010d6791620085f0565b505050505f90565b808410620127605762012727916200e4e19162012714565b95620128049192969594955f9584549888620127b5818c64ffffffffff6001600160501b038260481c169160b81c1662015511565b979093620127fa8a620127c88b6200c4de565b9e60ff8160401c169e8f918a549360ff808660b81c169560b01c169363ffffffff8360981c169260e01c918d6200bcbe565b9991909a6200bf50565b9b5f8d1262012a4c5750620128198c6200c4de565b8c60018801548060401c62ffffff166201283490836200c4ef565b5f610ca052620186a09005610ca052610ca0515060581c62ffffff166201285b916200c4ef565b620186a090059a8b9d8c610ca05162012874916200bf50565b6201287f916200bf7e565b9b87158062012a44575b62012a20575b50620128b5600389016001600160501b036200c4b3610ca05182845460501c1662018a1a565b620128c08262015532565b915f8112156201299e575050620128da9150848762011800565b825f5260d560205260405f2093620128f38c8662015542565b996201290c60c954916001600160701b03831662018a1a565b906001600160701b0319161760c95560ff825460401c166201292e816200810c565b6201298c576201293f8387620155bf565b156201297057505061ffff6002846201296260059460116200849c980162013741565b015460a81c1691016201384d565b915091506200849c9250620129868a82620155ea565b6201563f565b62012998838762015579565b6201293f565b82620129af575b50505050620128da565b7fbee5185c13c42cac0d82b6c115c77d5e8dc2b2888c013d169e068e634f57f58e93620129df60e0948b6200fe4d565b61ffff60028b015460a81c16926040519384528860208501526040840152866060840152151560808301525f60a083015260c0820152a15f808080620129a5565b909d5062012a338162012a3a936200bf50565b9e6200bf50565b9c5f9c5f6201288f565b508362012889565b848d8c8660c49461ffff60028d015460a81c169460405195630c62a44b60e11b8752600487015260248601526200f716816200810c565b9260a094919796959260c08501988552602085015262012aa38162007e07565b6040840152606083015260808201520152565b600181109291831562012b2b575b8362012ace575050565b62012b0b57507f36bcd027a371ec05acd4f563a155f51be204511b55fb95d0451703d02e3ca185604080516001815264ffffffffff6020820152a1565b630793b30360e11b5f52600452600160245264ffffffffff60445260645ffd5b92508064ffffffffff109262012ac4565b6106208190526105e0919091526107608390525f6106e0526103e89262012b66916009016201657b565b906106a0526107c0525f6106c0525f6106c05280610720526002610620510154610640525b80151580620136d3575b156201368b576105e05115158062013694575b6201368b57505f610660525f610700525f610680525f6106605262012bd76106a051600961062051016200bd3b565b50610600526107205161070052610680525b610700511515806201367e575b8062013671575b156201358a57610600515f526010610620510160205260405f20805463ffffffff81165f5260d560205260405f206107805260ff610780515460a01c1662012c458162007e07565b1562012cf0575062012ce75f62012ca06001828561ffff7f86ad99b48b2565c9720e33335db58e8c7468d6af03a5e6238b20d4a562f5b8b4975460c81c166106005261ffff6106405160a81c1690600961062051016201a7c7565b6040969492969591955196879661ffff6106405160a81c168893909796959260c0959260e08601998652602086015260408501526060840152608083015260a08201520152565b0390a162012be9565b62012d0463ffffffff8260781c166200f911565b1562012d5f575062012ce75f62012ca06001828561ffff7fb95e250f9f017dcb1bb1806916771df0c04a269e5f46d5db7519382a0f7bb477975460c81c166106005261ffff6106405160a81c1690600961062051016201a7c7565b63ffffffff811662012dc0575062012ce75f62012ca06001828561ffff7f52d5291dc7b477ebda965d0693c67e6ccec5b3667b530305685465384756d3fd975460c81c166106005261ffff6106405160a81c1690600961062051016201a7c7565b5f62012dd260ff8360201c1662010178565b6201351a575b1562012e33575062012ce75f62012ca06001828561ffff7fae6369c6e529c86dd87431d10e0db70657c834daa75356e1efd7c0ac79f934b7975460c81c166106005261ffff6106405160a81c1690600961062051016201a7c7565b9064ffffffffff8260401c16806107a05262012e5560ff8460201c1662010178565b620134df575b610700518111801561074052620134d15762012f18815b60026106205101549062012edb62012ecd64ffffffffff841664ffffffffff8560281c168082115f14620134c957505b60ff8560e01c169060ff8660d81c169064ffffffffff8760501c16908661ffff8960b81c166200d2f9565b61ffff8860981c166201179e565b9061ffff808860d81c169360881c16916107a051906107c051906107c051906107c0519060ff8c60201c169063ffffffff8d16610620516201567c565b610960519295939092869160061981016201338857506107405115620133175762012f5562012f4b876107c051620085aa565b6106605162008b84565b6106605262012f688661070051620085f0565b610700525b62012f7b6106805162009e7a565b6106805261074051156201309b57505050916101209391859362012fdd62012fd663ffffffff7ff5f5aef063f495816b6982c44c70c97c8fbec2fa24b73487e6542ce02143121499168461ffff6106405160a81c166201443d565b956200bf50565b9261ffff835460c81c1661060052620130316201301061ffff8860a81c1661ffff6106405160a81c16610780516200fa67565b936201302360ff825460201c16620101a6565b906009610620510162013b90565b6201304a61ffff8760a81c1660096106205101620140fb565b61ffff60405196816106405160a81c16885263ffffffff8116602089015260a81c1660408701526107c0516060870152608086015260a085015260c084015260e0830152610100820152a162012be9565b909491955060ff845460201c165f5f9061ffff8a60a81c1615620132e95761ffff8a60a81c166303ff00006106405160981c16175f526002610780510160205260405f209283549063ffffffff821615620132b157917ff5f5aef063f495816b6982c44c70c97c8fbec2fa24b73487e6542ce0214312149b99979593916201312a6101209c9a98969462013ac9565b156201323a575050508062013152836001600160501b036201315c945460901c169262019a2e565b6107805162013b2e565b506201316c816107805162019a7a565b936001600160501b036107805154168511945b946201318e575b50506201304a565b7f6d6191eb9e6651b10a6b278ab4d021e3c8b8810a0290234d29d74556915d5dcf9192945080620131e460015f64ffffffffff610140955460401c169361ffff6106405160a81c1690600961062051016201a7c7565b97916040959195949394519561ffff6106405160a81c168752602087015260408601526107c051606086015260808501528660a085015260c08401525f60e08401526101008301528a820152a1915f8062013186565b8590620132a5620132ab9394999561ffff6106405160a81c165f526003610780510160205264ffffffffff6201327a858260405f209660681c1662010b8f565b825471ffffffffff000000000000000000000000001916911660681b64ffffffffff60681b16179055565b62013af1565b6201317f565b8b61ffff63ffffffff60016107805101541691638d5bba0f60e01b5f52816106405160a81c1660045260a81c1660245260445260645ffd5b63ffffffff6001610780510154166369bc91ef60e11b5f5261ffff6106405160a81c1660045260245260445ffd5b94506201332f62012f4b610700516107c051620085aa565b610660526201337864ffffffffff620133526107005182885460401c1662010b8f565b86546cffffffffff00000000000000001916911660401b64ffffffffff60401b16178555565b61070051945f6107005262012f6d565b975050505050909150600d831462013483577f1c304023b27262393dcde9fe67af613bc45ee4f8c452b031dc393d074031157b926101809282549061ffff8260c81c1661060052610740515f14620134745761ffff90925b6201340660015f60ff8660201c1697856106405160a81c1690600961062051016201a7c7565b95939692979160409991995199856106405160a81c168b5260208b015260408a0152620134338162007e07565b60608901526107c051608089015260a088015260d81c1660c086015260e08501526101008401525f610120840152610140830152610160820152a162012be9565b5061ffff6107005192620133e0565b6084610620515461ffff60405191631f466abb60e21b8352816106405160a81c16600484015263ffffffff8160201c16602484015242604484015260a01c166064820152fd5b905062012ea2565b62012f186107005162012e72565b63ffffffff83165f526012610620510160205264ffffffffff60405f205460b81c1681811062013511575b5062012e5b565b90505f6201350a565b5063ffffffff81165f526012610620510160205260405f2064ffffffffff815460b81c1615151590811562013551575b5062012dd8565b60ff91505460401c1662013565816200810c565b6201357660ff8360201c1662007e07565b15600260ff8360201c161414155f6201354a565b6106805161070051620135a4610660516106e05162008b84565b6106e0526107005161072051036201365b575b6106805115620135ee57610700511562012b8b57620135e061076051600961062051016201657b565b6107c0526106a05262012b8b565b9190507fb492fac0bb9e8c8d824bf2a4c19ec1efd3e98e987de34e127bc17eb2b5c0605e5f80a15b6106c0516201362157565b610620516106c051600191909101805467ffffffffffffffff191663ffffffff92909216919091174260201b63ffffffff60201b16179055565b6107c0516106c0526107005161072052620135b7565b5061068051151562012bfd565b5061060051151562012bf6565b91905062013616565b506107605180620136c3575b8062012ba857506107605115801562012ba857506107c0516105e0511162012ba8565b506107c0516105e05110620136a0565b506107c051151562012b95565b5f9080620136ec575090565b5f1981019150811162003cf557620186a090046001810180911162003cf55790565b90816201371b5750505f90565b5f19820191821162003cf557620137329162008b43565b6001810180911162003cf55790565b906001820191815f528260205260405f2064ffffffffff815460b81c16620137695750505050565b549063ffffffff808360201c16921663ffffffff82541684145f146201383157620137958183620165c8565b8062013812575b815460201c63ffffffff168403620137f5575081620137bb91620165ec565b80620137d9575b505b5f526020525f60408120555f8080806200aa4b565b5f528160205260405f2063ffffffff1981541690555f620137c2565b6201380c9291505f528360205260405f20620165ec565b620137c4565b805f528460205260405f2063ffffffff60201b1981541690556201379c565b825f5284602052620138478160405f20620165c8565b6201379c565b9060fc811162013863576001901b198154169055565b6101fc8111620138b8576201387a600191620085e0565b1b19600182019081541680915515620138905750565b7fdfffffffffffffffffffffffffffffffffffffffffffffffffffffffffffffff8154169055565b6102fc81116201390d57620138cf600191620085cf565b1b19600282019081541680915515620138e55750565b7fbfffffffffffffffffffffffffffffffffffffffffffffffffffffffffffffff8154169055565b6103fc8111156201391c575050565b62013929600191620085be565b1b196003820190815416809155156201393f5750565b6001600160ff1b038154169055565b906201397060c954926c1fffffffffffffffffffffffff8460701c1662010b37565b917fffffffffffe0000000000000000000000000ffffffffffffffffffffffffffff8360701b91161760c955565b906303fcffff808211620139f757507fffffffffffff00000000ffffffffffffffffffffffffffffffffffffffffffff79ffffffff0000000000000000000000000000000000000000000083549260b01b169116179055565b906395d41f3f60e01b5f5260045260245260445ffd5b906303fcffff808211620139f75750815463ffffffff60401b191660409190911b63ffffffff60401b16179055565b906303fcffff808211620139f757507fffff00000000ffffffffffffffffffffffffffffffffffffffffffffffffffff7dffffffff000000000000000000000000000000000000000000000000000083549260d01b169116179055565b906303fcffff808211620139f75750815467ffffffff00000000191660209190911b63ffffffff60201b16179055565b62013ad48162007e07565b801590811562013ae2575090565b60019150620101a28162007e07565b64ffffffffff62013b0d6200849c9382845460581c1662010b8f565b825464ffffffffff60581b1916911660581b64ffffffffff60581b16179055565b805460501c6001600160501b031692918084111562013b8857808403935b6001600160501b03851162010b58575050805469ffffffffffffffffffff60501b1916605084901b69ffffffffffffffffffff60501b16179055565b5f9362013b4c565b9080548060281c9062ffffff821694859262013bad84876200bd3b565b9061ffff8560a81c168091149182620140f0575b505062013f1b575b50505050805461ffff8160b81c1690811580809162013f0b575b1562013cd0575050505060069062013c00600784068094620085f0565b5f520160205260405f2090600160ff1983541617825580155f1462013c2e5750805464ffffffff0019169055565b6001810362013c4a5750805468ffffffff000000000019169055565b6002810362013c6a575080546cffffffff00000000000000000019169055565b6003810362013c8e5750805470ffffffff0000000000000000000000000019169055565b6004810362013ca85750805463ffffffff60881b19169055565b60050362013cc057805463ffffffff60a81b19169055565b805463ffffffff60c81b19169055565b9294921562013e595750508261ffff91826007955460c81c1662013cf88683068093620085f0565b5f526006850160205260405f2091600160ff1984541617835580155f1462013d4f5750815462ffff00191660089190911b62ffff00161790555b5460c81c165f520160205260405f2061ffff60b81b198154169055565b6001810362013d7d5750815466ffff0000000000191660289190911b66ffff00000000001617905562013d32565b6002810362013db3575081546affff000000000000000000191660489190911b6affff0000000000000000001617905562013d32565b6003810362013de7575081546effff00000000000000000000000000191660689190911b61ffff60681b1617905562013d32565b6004810362013e115750815461ffff60881b191660889190911b61ffff60881b1617905562013d32565b60050362013e3957815461ffff60a81b191660a89190911b61ffff60a81b1617905562013d32565b815461ffff60c81b191660c89190911b61ffff60c81b1617905562013d32565b60c81c61ffff168062013e9f5750508262013e8261ffff92836007965460b81c16908562016641565b5460b81c165f520160205260405f2061ffff60c81b198154169055565b6200849c9491925062013eda90600761ffff9501935f528360205260405f209061ffff60c81b1961ffff60c81b83549260c81b169116179055565b5490828260c81c165f5260205260b81c1660405f209061ffff60b81b1961ffff60b81b83549260b81b169116179055565b5061ffff8260c81c161562013be3565b600386019260058701918160301c9261ffff841691825f5281602052600160ff60405f205492161b1916915f526020528060405f205515620140a2575b5050156201400557835462ffffff8160781c1683145f1462013fce57509062013f819162010067565b5f19810362013fbc575081547fffffffffffffffffffffff000000000000ffffffffffffffffffffffffffffff1682555b825f808062013bc9565b62013fc8908362018d3e565b62013fb2565b60901c62ffffff16821462013fe6575b505062013fb2565b62013ffd9162013ff6916200d69c565b8362018ced565b825f62013fde565b835462ffffff8160481c1683145f1462014074575090620140269162010067565b5f198114801562014061575b1562014055575081546effffffffffff0000000000000000001916825562013fb2565b62013fc8908362018cb8565b5062ffffff835460781c16811462014032565b60601c62ffffff1682146201408b57505062013fb2565b62013ffd916201409b916200d69c565b8362018c64565b60ff9060381c16906004870190825f5281602052600160ff60405f205492161b191690825f526020528060405f205515620140df575b8062013f58565b6001901b1982541682555f620140d8565b1490505f8062013bc1565b5f828152600782016020526040902063ffffffff60781b905581156201417e576201414e826200849c9360081c90815f5260028401602052600160ff60405f2092161b1981541690556001830162018d7f565b6201416161ffff825460201c166200fa56565b65ffff0000000082549160201b169065ffff000000001916179055565b6302f9530760e61b5f5260045ffd5b9061010003610100811162003cf5575f19901c1680620141ad57505f1990565b620083ef905b905f916fffffffffffffffffffffffffffffffff8111620142aa575b67ffffffffffffffff811162014293575b63ffffffff81116201427c575b61ffff811162014265575b60ff81116201424e575b600f811162014237575b6003811162014220575b6001106201224057565b916002810180911162003cf5579160021c62014216565b916004810180911162003cf5579160041c6201420c565b916008810180911162003cf5579160081c62014202565b916010810180911162003cf5579160101c620141f8565b916020810180911162003cf5579160201c620141ed565b916040810180911162003cf5579160401c620141e0565b60809250821c620141cf565b919080620142c45750501590565b80620186a092938181115f14620142df5703925b0291021090565b900392620142d8565b919091620142f6816200f911565b928362014301575050565b620143385760407f8ecb05e775f8b004d0796e497a6b28cfe97a6f8acd115327138350b5a08347ed918151908152436020820152a1565b638ecb05e760e01b5f526004524360245260445ffd5b61ffff81119291836201435f575050565b6201439f5760607fe99e76b7075a2c30a8d971cb3f247cba3e1995e4d12ff31053b190b2f71dcc7b916040519081525f602082015261ffff6040820152a1565b63e99e76b760e01b5f526004525f60245261ffff60445260645ffd5b91909294935f958203620143cf5750505050565b9091929394506201442357604080519283526020830193909352918101919091527f0ff65eacbb5b956c92957d3a4c76260d051566a34945c41b4e621bc895918ee790606090a16001905f8080806200aa4b565b92506303fd97ab60e21b5f5260045260245260445260645ffd5b9291905f93825f5260d560205260405f2092825461ffff8160681c16908115801562014478575b5050505050506001600160501b0390541690565b6127108394959699930293840461271014171562003cf55760c95460701c6c1fffffffffffffffffffffffff168084116201454157505050917e106621f9f74b437219c51c8fded1d9faa8056f77fd0f3631d2ab8967a4d75d916201453184620144eb6001600160501b0397966201394e565b90620144f881886200b1a4565b61ffff819a5460a81c16604051958695869160809361ffff91979695929760a08501988552602085015216604083015260608201520152565b0390a15b905f8080808062014464565b620145ad9192985061ffff937ff662aa6b6412ffe2a4e433dace098e96260a08fdaefdb023773e41f999b7c4ec956001600160501b03989760405196879660a81c1691869160809361ffff91979695929760a08501988552602085015216604083015260608201520152565b0390a162014535565b94939294610c2052610b4052610b2052610ba0525f5f610bc0525f610bc0526002610c20510154610c6052610b205154610c805263ffffffff610c805160781c16610b005260c0830135906201460f610b00516200f911565b1562014e7d57506001610bc052801562014dcd57610bc05190610b00525b5f9264ffffffffff610c805160401c16610ae05260a08101358015158062014dbf575b62014d8b575b5063ffffffff6009610c205101541662ffffff610c805160281c16610b6052610b6051155f1462014d735760805f925b83610ca052013591821515908162014d67575b5062014d3e575b5050156200a3c557620146ee60ff610c605160e01c1660ff610c605160d81c1664ffffffffff610c605160501c1664ffffffffff610c605116610ae05161ffff610c605160b81c166200d2f9565b91801562014d2a575b80610c40521562014d14575b6201471760ff610c805160201c16620101a6565b610c00525f91610c405162014a3a575b5050610bc05162014a1b575b6201476662ffffff610b605116610b20519067ffffff000000000082549160281b169067ffffff00000000001916179055565b6201479b64ffffffffff610ae05116610b20519064ffffffffff60401b82549160401b169064ffffffffff60401b1916179055565b620147e563ffffffff610b005116610b2051907fffffffffffffffffffffffffff00000000ffffffffffffffffffffffffffffff63ffffffff60781b83549260781b169116179055565b610bc051620149d4575b610c405115620149995760ff610b20515460201c1661ffff610c805160a81c16156201496b5761ffff610c805160a81c166303ff0000610c605160981c16175f526002610b40510160205260405f209081549063ffffffff8216156201492f576201485a9062013ac9565b15620149045782620148b07fbf5d27a683d1ce858f6095fde2cc9837ba595c533e97576c5ff3de4376ccbf3c9460c094620148a96001600160501b03620148ba9660901c16610b405162013b2e565b5062019a2e565b610b405162019a7a565b61ffff610b20515460a81c16906001600160501b03610b4051541690604051928352610ca0516020840152610ae0516040840152610b00516060840152608083015260a0820152a1565b63086415b760e01b5f5261ffff610c605160a81c1660045261ffff610c805160a81c1660245260445ffd5b63ffffffff6001610b4051015416638d5bba0f60e01b5f5261ffff610c605160a81c1660045261ffff610c805160a81c1660245260445260645ffd5b63ffffffff6001610b40510154166369bc91ef60e11b5f5261ffff610c605160a81c1660045260245260445ffd5b507fbf5d27a683d1ce858f6095fde2cc9837ba595c533e97576c5ff3de4376ccbf3c60c06001600160501b03610b40515460501c16620148ba565b610b205180547fffffffffff00000000ffffffffffffffffffffffffffffffffffffffffffffff168155610c0051610c205162014a159290600901620196ab565b620147ef565b62014a34610c0051610b20516009610c20510162013b90565b62014733565b62014a8691925062014a579061ffff610c805160981c166201179e565b61ffff610c605160881c1690610ae05190610ca0519060ff610c805160201c1690610ba051610c2051620167d2565b919593949092610b8052610be0525092809362014ace83610b805186610be051610ae051610b6051610ca051610c005160ff610c805160201c16610ba051610c2051620169de565b156200be945761ffff610c805160a81c166303ff0000610c605160981c16175f526002610b40510160205260405f205463ffffffff81161562014ce2576001600160501b039060901c1691610b405154916001600160501b038360501c16938085101562014cce575b505f93806001600160501b0385161162014caf575b50801562014ca75762014b5f9162008b84565b925b83831062014c33575b5050106200a3c557600a610be0511462014b86575b8062014727565b6101207fb971bdbd8f44fbf3ba501ee287c2533eb61b09097d638c664566aac00bbb3e65916003610c20510154906001600160501b036040519261ffff610c605160a81c168452610ba051602085015262014bea60ff610c805160201c1662007e07565b60ff610c805160201c166040850152610ca0516060850152610ae051608085015281811660a085015260501c1660c083015260e0820152610b8051610100820152a15f62014b7f565b62014c845760408051848152602081018490526001600160501b0392909216908201527fb853e5846ad52919c794f709695100094681c458cd1864d5217c6c897b6858b190606090a15f8062014b6a565b906001600160501b0392632e14f96160e21b5f526004526024521660445260645ffd5b509262014b61565b62014cc69194506001600160501b038416620085f0565b925f62014b4c565b62014cda9194620085f0565b925f62014b37565b638d5bba0f60e01b5f5261ffff610c605160a81c1660045261ffff610c805160a81c16602452610ba05160445260645ffd5b61ffff610c805160981c1615610c405262014703565b5061ffff610c805160981c168210620146f7565b6001610bc0819052945084925062014d579082620085f0565b610b6052610ca0525f80620146a0565b90508214155f62014699565b608062014d8482610b605162008b84565b9262014686565b91509250610bc051610bc0511562014db2575b610bc0526001928391610ae0525f62014656565b50610ae051811162014d9e565b50610ae05181141562014650565b50905062014e39577fef9c486e607431362e32f87055ecc54107d0bde504cfbca8d6a59a6108b99ead604051806200a5dc610b0051610ba05161ffff610c805160a81c1661ffff610c605160a81c16859094939260609260808301968352602083015260408201520152565b6040516377ce243760e11b8152610b0051610ba051610c8051610c605161ffff60a891821c8116600487015291901c16602484015260448301526064820152608490fd5b908062014e8c575b506201462d565b610b00525060015f62014e85565b939190805f5260d5602052600360405f20019061ffff600287015460a81c1691825f5260205260405f205464ffffffffff8160581c169687156201508057601290835f520160205260ff60405f209160501c1690549260ff8460401c169262014f03846200810c565b83158315150362014fb6575050505060b81c64ffffffffff16938085111562014fad5762014f329085620085f0565b905b8181119384159462014f4857505050909150565b62014f92576200d01f7f1b7ba008cbebdd0330e64275c62765a671adbce08d86e7b894f0601a886b78cf939495604051938493846040919493926060820195825260208201520152565b84925063036f740160e31b5f5260045260245260445260645ffd5b505f9062014f34565b92959796919450925062015028575050916060917f04d93c80531ebbd61ebd9906714391b8431ec4437abe44969d252210244128de935f1462015020575f5b60405192835262015006816200810c565b602083015262015016816200810c565b6040820152a15f90565b600162014ff5565b8460a49492935f1462015077575f915b60405194634298a83160e01b865260048601526024850152604484015262015060816200810c565b606483015262015070816200810c565b6084820152fd5b60019162015038565b5050505050915050600190565b9190620150af620f4240915f841293845f146200433a576200433a906200c4de565b0491620150bc816200810c565b620150d55715620150ca5790565b620083ef906200c4de565b15620083ef57620083ef906200c4de565b9293916201514c91955f96549362015116876001600160501b038760481c1664ffffffffff8860b81c1662015511565b9490938596859989549260ff808560b81c169460b01c169263ffffffff8160981c169160ff8260e01c9260401c16908d6200bcbe565b94919590856201515e8298846200bf50565b9415620151a05750505050505f5b6001600160501b036201518d60038398015482808260501c169116620117df565b168111620151985750565b600a97509450565b5f8512620151b257505050506201516c565b600c9b509299505f98509096509450925050565b620f4240919381841193845f146201521357620151e8926200433a91620085f0565b04915b620151f6816200810c565b6201520c5715620083ef57620083ef906200c4de565b15620150d5565b6200433a906201522393620085f0565b0491620151eb565b5f60443d10620083ef576040513d600319016004823e8051913d602484011167ffffffffffffffff8411176201529f578282019283519167ffffffffffffffff831162015297573d84016003190185840160200111620152975750620083ef9291016020019062008356565b949350505050565b92915050565b3d15620152d4573d90620152b98262008379565b91620152c9604051938462008356565b82523d5f602084013e565b606090565b92919092620153125f80936060966001600160a01b0360ca54169083604051809681958294637bf41d7760e11b84526004840162011a15565b03925af15f91816201546c575b506201546257505f60033d1162015451575b806308c379a014620153f957634e487b71146201539b575b7f7d7f9345462f0c85c00b5c2083a2ddd2d72fb70e98d0ebed71562cba6feef6879062015375620152a5565b9062015394604051928392835260406020840152604083019062007dc6565b0390a19190565b5f8060233d11620153e7575b620153b3575062015349565b7fe526d22a15e94c788050d8c0ca8cddc836ce3580e3dbe7ac64afb9229c7d633e9160409182519182526020820152a19190565b5050602060045f3e5f516001620153a7565b50620154046201522b565b8062015411575062015349565b7fd83687e05ff302f677e5adcaeee1a4cb3c6473e57b9000d71f2c42ff6ada466c9162015394604051928392835260406020840152604083019062007dc6565b5060045f803e5f5160e01c62015331565b9293505050600191565b620154849192503d805f833e62011f9f818362008356565b905f6201531f565b600681036201549f575064e8d4a5100090565b60058103620154b357506509184e72a00090565b60048103620154c75750655af3107a400090565b60038103620154dc575066038d7ea4c6800090565b60028103620154f15750662386f26fc1000090565b6001146201550557670de0b6b3a764000090565b67016345785d8a000090565b828114939284156201552257505090565b62000c3090620083ef93620085aa565b5f81126201553d5790565b5f0390565b91906201555a906001600160501b0384541662018a1a565b825469ffffffffffffffffffff19166001600160501b03821617909255565b9064ffffffffff6201559a60026200849c94019282845460281c1662010b8f565b825469ffffffffff00000000001916911660281b69ffffffffff000000000016179055565b64ffffffffff620155d96002829301938285541662010b8f565b161664ffffffffff19825416179055565b6001600160501b03620156086200849c9382845460481c1662018a1a565b825472ffffffffffffffffffff0000000000000000001916911660481b72ffffffffffffffffffff00000000000000000016179055565b64ffffffffff6201565b6200849c9382845460b81c1662010b8f565b825464ffffffffff60b81b1916911660b81b64ffffffffff60b81b16179055565b610ae0819052610ac0829052610aa092909252610a8093909352610a608790525f6107e0819052610a2081905261096081905261094081905292835260d5602090815260408085206109e0819052546001600160501b0316610a405260129092019052822061092081905290989796959294919392620156fe918a9062018a62565b906201570a8962013ac9565b806201656e575b6201652c575b50620157238162007e07565b8062015c775750505090620157509291610aa05190610a605190610a8051886109e051610ae05162018af4565b909392610a005292909383856107e052610a005195610a005115620157fc575b505050505b6001600160501b036109e051541691610a4051831015805f14620157e657620157a2610a405185620085f0565b905b6001600160ff1b038211620157cc5715620157bd579291565b620157c8906200c4de565b9291565b8463e69a04b360e01b5f52600452610a405160245260445ffd5b620157f584610a4051620085f0565b90620157a4565b83949650926201580e91929362008b84565b916201581a8162007e07565b62015c6e575f925b61ffff6002610ae051015460a81c165f60c06040516201584281620082e2565b8281528260208201528260408201528260608201528260808201528260a082015201526001600160501b03841162015c505764ffffffffff610a60511162015c3157604051906201589382620082e2565b5f82525f6020830152620158a7866200810c565b8560408301526001600160501b038516606083015263ffffffff610a805116608083015264ffffffffff610a60511660a083015263ffffffff431660c0830152610ac0515f526012610ae0510160205264ffffffffff60405f205460b81c1662015c185750610ae0516011015460201c63ffffffff168062015bb45750916101409391620159b87fc0150ebb43a9c2478aa9c69d27078da071ceafb70e2d822d7d39a533e0418728969462015966610ac0516011610ae05101620165c8565b610ac0515f908152610ae05160120160209081526040909120825181548484015167ffffffffffffffff1990911663ffffffff92831617931b63ffffffff60201b169290921781559160c0906200e370565b620159cd610ac0516011610ae05101620165ec565b60056109e0510161ffff6002610ae051015460a81c1660fc8111155f1462015b09576001901b81541790555b62015a1362015a09838562008b84565b6109e0516200d205565b62015a2283610ae0516200fe4d565b62015a4562015a3d6200e4e184610ae0515460e81c620085aa565b8093620085f0565b9262015a51846200be18565b62015a6083610ae0516200fe69565b62015a6b856200810c565b8462015af15762015a83610a6051610ae0516201a7ad565b61ffff6002610ae051015460a81c1694604051958652610ac051602087015262015aad816200810c565b6040860152610aa0516060860152608085015260a0840152610a805160c0840152610a605160e0840152610100830152610120820152a16007915f80808062015770565b62015b03610a6051610ae0516201a78c565b62015a83565b6101fc811162015b3e5762015b20600191620085e0565b1b60066109e05101908154179055600160fd1b8154179055620159f9565b6102fc811162015b735762015b55600191620085cf565b1b60076109e05101908154179055600160fe1b8154179055620159f9565b6103fc81111562015b87575b5050620159f9565b62015b94600191620085be565b1b60086109e05101908154179055600160ff1b81541790555f8062015b7f565b63ffffffff81116200e6be5791620159b88284610140979560207fc0150ebb43a9c2478aa9c69d27078da071ceafb70e2d822d7d39a533e04187289a989601525f526012610ae0510160205262015c12610ac05160405f20620165c8565b62015966565b633f1ed2e160e21b5f52600452610ac05160245260445ffd5b6395d41f3f60e01b5f52610a605160045264ffffffffff60245260445ffd5b836395d41f3f60e01b5f526004526001600160501b0360245260445ffd5b60019262015822565b90919295965062015c888162007e07565b6001810362015f92575050509062015cc19181935f6109a052610aa05190610a605190610a80516109e05161092051610ae05162019183565b9195906109c097939752610980529394919291610c405195610980516109a052600a61098051145f1462015d195761ffff6002610ae051015460a81c166003610ae051015490620018326200e7c26109c05162015532565b610980511562015d39575b5050505050906107e0526109a0519162015775565b62015d48906109e05162015542565b5062015d576109c05162015532565b5f6109c051125f1462015f7d5762015d7790610ac051610ae05162011800565b62015d8e6200e4e186610ae0515460e81c620085aa565b62015dd862015d9e8288620085f0565b9262015daa846200be18565b62015db983610ae0516200fe69565b6109205154610880526001600160501b036108805160481c166200bf50565b925f84126200ea70577f2a077a58d72570ce2b985a210c9ad672373eb9bcc337d1dc62b8b75dd644cf27956101c09562015e1b60ff6108805160401c166200810c565b60ff6108805160401c161562015e5481610a6051610a805164ffffffffff6108805160b81c1663ffffffff6108805160981c166201ad3c565b6108405261086052501562015f655762015e75610a6051610ae0516201a7ad565b61ffff6002610ae0510162015eb482825460a81c16439061084051908b610860519160ff6108805160401c1690610ac051906011610ae051016201ab38565b5460a81c1695604051968752610ac051602088015262015edd60ff6108805160401c166200810c565b60ff6108805160401c166040880152610aa05160608801526001600160501b036108805160481c16608088015260a087015260c086015260e08501526101008401526108605161012084015264ffffffffff6108805160b81c16610140840152610840516101608401526101808301526101a0820152a160076109a0525f8080808062015d24565b62015f77610a6051610ae0516201a78c565b62015e75565b62015f8c90610ae0516200fe4d565b62015d77565b9194909160039062015fa48162007e07565b036201628a5762015fd594505f6108c052610aa05191610a605191610a80516109e05161092051610ae05162018ea2565b61090093909352610b405161082052610800939093526108e0859052610b20516108c0869052939491929091600a03620160335761ffff6002610ae051015460a81c166003610ae051015490620018326200e7c26109005162015532565b6108e0511562016051575b505050906107e0526108c0519162015775565b7f01a0596385c75b269e896ca6468a2be2edc8b2b5459f4e25ca0a75944390a10c92620160b36101c093620160896109005162015532565b5f61090051125f146201627557620160a990610ac051610ae05162011800565b6109e05162015542565b50620160cb6200e4e186610ae0515460e81c620085aa565b620160d78187620085f0565b91620160e3836200be18565b620160f282610ae0516200fe69565b61092051549360ff8560401c16946201610b866200810c565b856201624457506201612f64ffffffffff610920515460b81c16610ae051620155bf565b6201614161082051610ae0516201a78c565b64ffffffffff61092051546201615b610800518c62008b84565b61ffff6002610ae051016201619b82825460a81c168b155f146201623d5760015b4391866108205192610a805192610ac051906011610ae051016201ab38565b5460a81c1697620162365760015b604051988952610ac05160208a0152620161c3816200810c565b6040890152610aa05160608901526001600160501b038260481c16608089015260a08801526108005160c0880152610a805160e088015260b81c16610100860152610820516101208601526101408501526101608401526101808301526101a0820152a160076108c0525f80806201603e565b5f620161a9565b5f6201617c565b64ffffffffff6201625d9160b81c16610ae05162015579565b6201626f61082051610ae0516201a7ad565b62016141565b6201628490610ae0516200fe4d565b620160a9565b909250620162ac9150610aa05190610a6051908461092051610ae05162018dac565b6108a09490945250939491939185600a81036201631d57610ae051600281015460039091015460405163063c641b60e41b81526108a05160a89390931c61ffff1660048201526001600160501b03808316602483015260509290921c90911660448201526064810191909152608490fd5b156201633b575b50505050610940526108a051610a20529162015775565b909192939450620163576108a051610ac051610ae05162011800565b620163696108a0516109e0516200b1a4565b60ff610920515460401c169362016380856200810c565b84620165145762016398610a6051610ae051620155bf565b8515620164415750917f599b5f439ed4daf1f28ae8638e5439d3982e8001fb26dd8f70021b38672eb26f939160c093620163dc610ac0516011610ae0510162013741565b61ffff6002610ae05101620163fe82825460a81c1660056109e051016201384d565b5460a81c1693604051948552610ac05160208601526201641e816200810c565b60408501526060840152608083015260a0820152a15b6007905f80808062016324565b9161012093915064ffffffffff7fcd4a9f7ae1cc250eaa0be6bdb30d07efaf0faafb4ff0e76d8fe09a8373e43f85956201648461092051549561092051620189fc565b62016496610a6051610920516201563f565b8161ffff6002610ae051015460a81c1695610920515492604051978852610ac0516020890152620164c7816200810c565b60408801526001600160501b038160481c1660608801526001600160501b038360481c16608088015260b81c1660a086015260b81c1660c084015260e0830152610100820152a162016434565b62016526610a6051610ae05162015579565b62016398565b620165406201656391610a605190620085f0565b6200f055610ae05154610aa0519260ff808360b81c169260b01c1690896201174e565b610960525f62015717565b50610a6051811162015711565b919015620165b25763ffffffff62ffffff80845460601c165b1692541682155f14620165a657505f90565b620083ef908362008b84565b63ffffffff62ffffff80845460781c1662016594565b9063ffffffff81116200e6be57815463ffffffff191663ffffffff91909116179055565b91909163ffffffff8311620166265763ffffffff6200849c92931663ffffffff60201b82549160201b169063ffffffff60201b1916179055565b826395d41f3f60e01b5f5260045263ffffffff60245260445ffd5b60069062016654600784068094620085f0565b5f520160205260405f2090600160ff1983541617825580155f1462016698575061ffff6200849c921664ffff00000082549160181b169064ffff0000001916179055565b60018103620166ce575061ffff6200849c921668ffff0000000000000082549160381b169068ffff000000000000001916179055565b600281036201670c575061ffff6200849c92166cffff000000000000000000000082549160581b16906cffff00000000000000000000001916179055565b600381036201673a575061ffff6200849c921661ffff60781b82549160781b169061ffff60781b1916179055565b6004810362016768575061ffff6200849c921661ffff60981b1961ffff60981b83549260981b169116179055565b600503620167945761ffff6200849c921661ffff60b81b1961ffff60b81b83549260b81b169116179055565b61ffff6200849c92167fffffff0000ffffffffffffffffffffffffffffffffffffffffffffffffffffff61ffff60d81b83549260d81b169116179055565b9395929490955f955f955f5f988a5f5260d560205260405f209a5f526012830160205260405f20916201680787868562018a62565b620168128162007e07565b80620168385750505050906201682c969798839262018bf5565b92959194859392909150565b9091929450620168488162007e07565b60018103620168755750505097829162016864979899620194f6565b969995988997969095509350505050565b60039192939599505f9b9894969a979b50620168918162007e07565b03620169bb57505096620169089160ff8883899a9b5f9754948b64ffffffffff8760b81c169889976001600160501b03620168f98554948a8660b01c16809b819760b81c169c8d98899363ffffffff8860981c16918860e01c9160ff8a60401c16916200bcbe565b939193505060481c166200bf50565b5f811315620169a2576201691c9062015532565b9c62016935620169469a8f976201693c985b50620085f0565b906201a65b565b509a90996201a625565b505092620169598762010d3e886200c4de565b905f8212918262016980575b5050156201697957506005945b9192939495565b9462016972565b6001600160501b03919250620169969062015532565b915416105f8062016965565b505f9c62016935620169469a8f976201693c986201692e565b97945097945050938091620169d09562018dac565b925092949593505090929395565b939498919295969997909961ffff600286015460a81c16978115158062016b76575b62016b0f57505062016a239288925f9262016a1a6200b1d0565b928d8b62019556565b62016b045782600962016a3b9201968886896201a85e565b909682989262016a5c575b505050505050505062016a5857600190565b5f90565b5463ffffffff168162016af25750505f945b62016ab9575050604080519384529315156020840152507fc0ed4041bfe51a7b847f46f096b9d2495866089371037e3efd436bd858f46edd92919050a15f8080808080808062016a46565b9160c4949186936040519563beb3942960e01b8752600487015260248601526044850152151560648401526084830152151560a4820152fd5b62016afd9162008b84565b9462016a6e565b505050505050505f90565b97989450999850505091925062016b5457505050505060207f18a118a5bb122057e420b1bcf7903a57ebc749be0d1981d112c6e257e7bd5e8891604051908152a15f90565b91859162001832936040519687966321b303f960e11b88526004880162012a83565b50600a82141562016a00565b9499939597909a9891929661ffff600287015460a81c16988115158062016c04575b62016bbe5750509162016a239391899362016a1a6200b1d0565b989995509a995050509293505062016b5457505050505060207f18a118a5bb122057e420b1bcf7903a57ebc749be0d1981d112c6e257e7bd5e8891604051908152a15f90565b50600a82141562016ba4565b989695986107805261074052610640526107605261066052610300526105a0526107a05262016c4261064051620101a6565b6106c0525f610560526127108111620189ac57610560525b610780516002015464ffffffffff16610320526106e08190525f6102e08190526104005280159081156201899f575b5062018992575b62016ca56106c051600961078051016201657b565b6101c0919091526107c0525f61062052610660516105e0819052610400526107805160020154610720525b6104005115158062018985575b1562018940576107605115156107605162018946575b62018940575f6106a0525f610680525f610700525f6106a05262016d216101c051600961078051016200bd3b565b506101e0526105e051610680526106e051610700525b6106805115158062018933575b8062018926575b1562017735576101e0515f526010610780510160205260405f2061020052610200515463ffffffff81165f5260d560205260405f206102405260ff610240515460a01c1662016d9a8162007e07565b1562016e4c575061ffff610200515460c81c166101e0527f86ad99b48b2565c9720e33335db58e8c7468d6af03a5e6238b20d4a562f5b8b462016e4362016dfe6107a0516107405161ffff6107205160a81c1661020051600961078051016201a7c7565b60408051610740516107205160a81c61ffff1682526020820194909452908101939093526060830152608082015260a081019290925260c082015290819060e0820190565b0390a162016d37565b62016e6063ffffffff8260781c166200f911565b1562016ec4575061ffff610200515460c81c166101e0527fb95e250f9f017dcb1bb1806916771df0c04a269e5f46d5db7519382a0f7bb47762016e4362016dfe6107a0516107405161ffff6107205160a81c1661020051600961078051016201a7c7565b6107405163ffffffff82160362016f33575061ffff610200515460c81c166101e0527f52d5291dc7b477ebda965d0693c67e6ccec5b3667b530305685465384756d3fd62016e4362016dfe6107a0516107405161ffff6107205160a81c1661020051600961078051016201a7c7565b5f62016f4560ff8360201c1662010178565b620176c5575b1562016faf575061ffff610200515460c81c166101e0527fae6369c6e529c86dd87431d10e0db70657c834daa75356e1efd7c0ac79f934b762016e4362016dfe6107a0516107405161ffff6107205160a81c1661020051600961078051016201a7c7565b64ffffffffff8160401c16806105c05262016fd060ff8360201c1662010178565b6201768a575b6106805181118015610580526201767c5762017092815b600261078051015490620170556201704764ffffffffff841664ffffffffff8560281c168082115f14620134c9575060ff8560e01c169060ff8660d81c169064ffffffffff8760501c16908661ffff8960b81c166200d2f9565b61ffff8760981c166201179e565b9061ffff808760d81c169360881c16916105c051906107c051906107c051906107c0519060ff8b60201c169063ffffffff8c16610780516201567c565b610220839052610960516101809290925293919290919060061981016201753457505f610260526105805115620174bd5780620170e5620170db620170f8936107c051620085aa565b6106a05162008b84565b6106a052806102605261068051620085f0565b610680525b6201710b6107005162009e7a565b610700526105805115620172425750508161012091620171736201716563ffffffff7ff5f5aef063f495816b6982c44c70c97c8fbec2fa24b73487e6542ce02143121496166102005161ffff6107205160a81c166201443d565b61018052610220516200bf50565b9061ffff610200515460c81c166101e052620171a561ffff8460a81c1661ffff6107205160a81c16610240516200fa67565b90620171d0620171bf60ff610200515460201c16620101a6565b610200516009610780510162013b90565b620171e961ffff8560a81c1660096107805101620140fb565b61ffff60405194816107205160a81c16865263ffffffff8116602087015260a81c1660408501526107c051606085015261026051608085015260a084015260c083015260e082015261018051610100820152a162016d37565b909160ff610200515460201c16610140525f610160525f610160525f61ffff8560a81c16156201748f5761ffff8560a81c166303ff00006107205160981c16175f526002610240510160205260405f209081546101a05263ffffffff6101a05116156201745757917ff5f5aef063f495816b6982c44c70c97c8fbec2fa24b73487e6542ce0214312149593916101209593620172e16101405162013ac9565b156201740257508062017307846001600160501b0362017311945460901c169262019a2e565b6102405162013b2e565b5062017321826102405162019a7a565b610160526001600160501b036102405154166101605111915b61016051926201734c575b50620171e9565b9091507f6d6191eb9e6651b10a6b278ab4d021e3c8b8810a0290234d29d74556915d5dcf61014064ffffffffff610200515460401c16620173aa6107a0516107405161ffff6107205160a81c1661020051600961078051016201a7c7565b97916040959195949394519561ffff6107205160a81c168752602087015260408601526107c051606086015260808501528660a085015260c08401526107405160e084015261010083015288820152a1905f62017345565b9290620174519061ffff6107205160a81c165f52600361024051016020526201744660405f209164ffffffffff6201327a61026051826101a05160681c1662010b8f565b610260519062013af1565b6201733a565b8561ffff63ffffffff60016102405101541691638d5bba0f60e01b5f52816107205160a81c1660045260a81c1660245260445260645ffd5b63ffffffff6001610240510154166369bc91ef60e11b5f5261ffff6107205160a81c1660045260245260445ffd5b50620174d4620170db610680516107c051620085aa565b6106a0526201752164ffffffffff620174fa6106805182610200515460401c1662010b8f565b16610200519064ffffffffff60401b82549160401b169064ffffffffff60401b1916179055565b61068051610260525f61068052620170fd565b945092505050600d821462017636577f1c304023b27262393dcde9fe67af613bc45ee4f8c452b031dc393d074031157b916101809161020051549061ffff8260c81c166101e052610580515f146201762a57905b61ffff60ff8260201c1693620175b96107a05161074051846107205160a81c1661020051600961078051016201a7c7565b95939692979160409991995199856107205160a81c168b5260208b015260408a0152620175e68162007e07565b60608901526107c051608089015260a088015260d81c1660c086015260e085015261010084015261074051610120840152610140830152610160820152a162016d37565b50610680519062017588565b6084610780515461ffff60405191631f466abb60e21b8352816107205160a81c16600484015263ffffffff8160201c16602484015242604484015260a01c166064820152fd5b620170926106805162016fed565b63ffffffff82165f526012610780510160205264ffffffffff60405f205460b81c16818110620176bc575b5062016fd6565b90505f620176b5565b5063ffffffff81165f526012610780510160205260405f2064ffffffffff815460b81c16151515908115620176fc575b5062016f4b565b60ff91505460401c1662017710816200810c565b6201772160ff8360201c1662007e07565b15600260ff8360201c161414155f620176f5565b610700516106e0526106805161040052620177576106a0516102e05162008b84565b6102e052610680516105e0510362018910575b6107005115620177a157610680511562016cd057620177936106c051600961078051016201657b565b6107c0526101c05262016cd0565b7fb492fac0bb9e8c8d824bf2a4c19ec1efd3e98e987de34e127bc17eb2b5c0605e5f80a15b61062051620188d2575b6104005190610400516106605111620177f2575b6200849c61078051620114a6565b620178046104005161066051620085f0565b6104e0526201781a6104e0516102e05162008b43565b6201782c6104e0516102e0516201370e565b610540526201783e61064051620101a6565b5f6105205215620188c75761054051610520525b610740515f526012610780510160205260ff60405f205460401c1662017878816200810c565b5f61048052620188b857610480525b620178e9620178df6002610780510154620178a56106405162013ac9565b15620188b0576104e051905b60ff8160e01c169160ff8260d81c169164ffffffffff8160501c169161ffff610320519260b81c166200d2f9565b610300516201179e565b610600525f610360525f5f5f915f61036052610740515f5260d560205260405f20610440526001600160501b0361044051541661050052610740515f526012610780510160205260405f206104a0526201794e6104e051610640516104a05162018a62565b6201795c6106405162013ac9565b80620188a8575b62018867575b620179748162007e07565b8062017fab575050620179aa6105a05161056051610600516104e051610540516105205161064051610440516107805162018af4565b80610360959493955284831562017b53575b5050505b6001600160501b036104405154169361050051851015805f1462017b3d57620179ed6105005187620085f0565b905b6001600160ff1b03821162017b235762017a379291901562017b1157945b61ffff600261078051015460a81c169462017a276200b1f6565b9161064051610740518862019612565b506007810362017abc575050907f5be6b2e974d9a72428e5cb9cf915a5f991d1c862db8cafc9a121bb99b091cb749162017ab3604051928392610360516104e0516104805161054051610520518893909796959260c0959260e08601998652602086015260408501526060840152608083015260a08201520152565b0390a1620177e4565b61010492506040519163b29d194960e01b835260048301526107405160248301526105205160448301526105405160648301526104805160848301526104e05160a48301526104005160c483015260e4820152fd5b62017b1c906200c4de565b9462017a0d565b8663e69a04b360e01b5f526004526105005160245260445ffd5b62017b4c8661050051620085f0565b90620179ef565b8293509162017b63919262008b84565b9062017b726106405162007e07565b6106405162017fa2575f925b61ffff600261078051015460a81c165f60c060405162017b9e81620082e2565b8281528260208201528260408201528260608201528260808201528260a082015201526001600160501b03841162015c505764ffffffffff6104e0511162017f83576040519062017bef82620082e2565b5f82525f602083015262017c03866200810c565b8560408301526001600160501b038516606083015263ffffffff6105205116608083015264ffffffffff6104e0511660a083015263ffffffff431660c0830152610740515f526012610780510160205264ffffffffff60405f205460b81c1662017f6a5750610780516011015460201c63ffffffff168062017f06575091610140939162017d147fc0150ebb43a9c2478aa9c69d27078da071ceafb70e2d822d7d39a533e0418728969462017cc26107405160116107805101620165c8565b610740515f9081526107805160120160209081526040909120825181548484015167ffffffffffffffff1990911663ffffffff92831617931b63ffffffff60201b169290921781559160c0906200e370565b62017d296107405160116107805101620165ec565b6005610440510161ffff600261078051015460a81c1660fc8111155f1462017e5b576001901b81541790555b62017d6f62017d65838562008b84565b610440516200d205565b62017d7e83610780516200fe4d565b62017d9962015a3d6200e4e184610780515460e81c620085aa565b9262017da5846200be18565b62017db483610780516200fe69565b62017dbf856200810c565b8462017e435762017dd76104e051610780516201a7ad565b61ffff600261078051015460a81c169460405195865261074051602087015262017e01816200810c565b6040860152610600516060860152608085015260a08401526105205160c08401526104e05160e0840152610100830152610120820152a160075f8080620179bc565b62017e556104e051610780516201a78c565b62017dd7565b6101fc811162017e905762017e72600191620085e0565b1b60066104405101908154179055600160fd1b815417905562017d55565b6102fc811162017ec55762017ea7600191620085cf565b1b60076104405101908154179055600160fe1b815417905562017d55565b6103fc81111562017ed9575b505062017d55565b62017ee6600191620085be565b1b60086104405101908154179055600160ff1b81541790555f8062017ed1565b63ffffffff81116200e6be579162017d148284610140979560207fc0150ebb43a9c2478aa9c69d27078da071ceafb70e2d822d7d39a533e04187289a989601525f526012610780510160205262017f646107405160405f20620165c8565b62017cc2565b633f1ed2e160e21b5f526004526107405160245260445ffd5b6395d41f3f60e01b5f526104e05160045264ffffffffff60245260445ffd5b60019262017b7e565b62017fb68162007e07565b60018103620182bf5750505f6104605262017ff46105a05161056051610600516104e0516105405161052051610440516104a0516107805162019183565b61042091909152610c40516104c05261046086905294600a81036201803d5761ffff600261078051015460a81c16600361078051015490620018326200e7c26104205162015532565b156201805b575b50505050610360526104c0519061046051620179c0565b6201806a906104405162015542565b50620180796104205162015532565b5f61042051125f14620182aa576201809990610740516107805162011800565b620180b06200e4e185610780515460e81c620085aa565b90620180fb620180c18387620085f0565b91620180cd836200be18565b620180dc84610780516200fe69565b6104a051546102c0526001600160501b036102c05160481c166200bf50565b915f83126200ea70577f2a077a58d72570ce2b985a210c9ad672373eb9bcc337d1dc62b8b75dd644cf27946101c0946201813e60ff6102c05160401c166200810c565b6201817660ff6102c05160401c16156104e0516105205164ffffffffff6102c05160b81c1663ffffffff6102c05160981c166201ad3c565b6102a0526102c0519093915060401c60ff1662018292576201819f6104e051610780516201a7ad565b620181d861ffff600261078051015460a81c16439085896102a0519260ff6102c05160401c16906107405190601161078051016201ab38565b61ffff600261078051015460a81c16956040519687526107405160208801526201820b60ff6102c05160401c166200810c565b60ff6102c05160401c1660408801526106005160608801526001600160501b036102c05160481c16608088015260a087015260c086015260e08501526105a05161010085015261012084015264ffffffffff6102c05160b81c166101408401526102a0516101608401526101808301526101a0820152a16007610460525f80808062018044565b620182a46104e051610780516201a78c565b6201819f565b620182b990610780516200fe4d565b62018099565b600390620182cd8162007e07565b03620185c157505f6103a0526201830b6105a05161056051610600516104e051610480516105405161052051610440516104a0516107805162018ea2565b61038093909352610b4051610280526103e0949094526103c0859052610b20516103a0869052949193909291600a03620183695761ffff600261078051015460a81c16600361078051015490620018326200e7c26103805162015532565b6103c051156201838b575b50505050610360526103e051906103a051620179c0565b7f01a0596385c75b269e896ca6468a2be2edc8b2b5459f4e25ca0a75944390a10c93620183ed6101c094620183c36103805162015532565b5f61038051125f14620185ac57620183e390610740516107805162011800565b6104405162015542565b50620184056200e4e187610780515460e81c620085aa565b90620184128288620085f0565b926201841e846200be18565b6201842d83610780516200fe69565b64ffffffffff6104a051549560ff8760401c16966201844c886200810c565b876201858057506201846b826104a0515460b81c1661078051620155bf565b6201847d61028051610780516201a78c565b6104a051549062018492816103e05162008b84565b620184d061ffff600261078051015460a81c168a155f14620185795760015b439184610280519261052051926107405190601161078051016201ab38565b610780516002015460a81c61ffff1698620185725760015b604051998a526107405160208b015262018502816200810c565b60408a01526106005160608a01526001600160501b038360481c1660808a015260a089015260c08801526105205160e088015260b81c16610100860152610280516101208601526101408501526101608401526101808301526101a0820152a160076103a0525f80808062018374565b5f620184e8565b5f620184b1565b82620185949160b81c166107805162015579565b620185a661028051610780516201a7ad565b6201847d565b620185bb90610780516200fe4d565b620183e3565b915050620185e6610600516104e05161054051610480516104a0516107805162018dac565b61034094909452509394939192909185600a8103620186595761078051600281015460039091015460405163063c641b60e41b81526103405160a89390931c61ffff1660048201526001600160501b03808316602483015260509290921c90911660448201526064810191909152608490fd5b156201866f575b505050916103405190620179c0565b90919294506201868a61034051610740516107805162011800565b6201869c61034051610440516200b1a4565b60ff6104a0515460401c1691620186b3836200810c565b826201884f57620186cb6104e05161078051620155bf565b85156201877e57509060c0917f599b5f439ed4daf1f28ae8638e5439d3982e8001fb26dd8f70021b38672eb26f936201870e610740516011610780510162013741565b6201872e61ffff600261078051015460a81c16600561044051016201384d565b61ffff600261078051015460a81c169260405193845261074051602085015262018758816200810c565b6040840152610480516060840152608083015260a0820152a15b6007915f808062018660565b907fcd4a9f7ae1cc250eaa0be6bdb30d07efaf0faafb4ff0e76d8fe09a8373e43f859364ffffffffff61012094620187bf6104a05154956104a051620189fc565b620187d16104e0516104a0516201563f565b8161ffff600261078051015460a81c16956104a051549260405197885261074051602089015262018802816200810c565b60408801526001600160501b038160481c1660608801526001600160501b038360481c16608088015260b81c1660a086015260b81c1660c084015260e0830152610100820152a162018772565b620188616104e0516107805162015579565b620186cb565b6104e0515f036104e05162003cf557620188a1906200f0556107805154610600519260ff808360b81c169260b01c1690610540516201174e565b5062017969565b505f62017963565b5f90620178b1565b50610540516104805262017887565b806105205262017852565b6107805161062051600191909101805467ffffffffffffffff191663ffffffff92909216919091174260201b63ffffffff60201b16179055620177d0565b6107c05161062052610680516105e0526201776a565b5061070051151562016d4b565b506101e051151562016d44565b620177c6565b506106c0518062018975575b8062016cf357506106c05115801562016cf357506107c051610760511162016cf3565b506107c051610760511062018952565b506107c051151562016cdd565b6103e86106e05262016c90565b6103e89150115f62016c89565b5061ffff600261078051015460781c166105605262016c5a565b90620189f597949693959291610c4052610c6052610c8052610bc052610c2052610ba0525f610b80526201adf6565b610b805190565b6001600160501b03620156086200849c9382845460481c1662010b37565b91905f62018a288262015532565b91131562018a4f5762010bda818462008b84565b6001600160501b03841162010bee575050565b62018a5b8184620085f0565b9262018a3c565b91909162018a708362010178565b1562018a7e57505050600290565b5464ffffffffff8160b81c169283155f1462018a9c57505050505f90565b62018aa790620101a6565b1562018ae95760ff5f915b60401c1662018ac1826200810c565b62018acc816200810c565b0362018ad9575050600190565b1162018ae457600290565b600390565b60ff60019162018ab2565b95989492919796909362018b088962010178565b62018be15762018b3360ff9a62018b549386938a548e8160b01c169e8f9160b81c169586926201a65b565b9b91959094859962018b46889d620101a6565b1562018bd8575f906201a6af565b9190988297838b158062018bce575b62018ba9575b5050508862018b9f575050506001600160501b0390541662018b918362005aaa868862008b84565b1162018b9957565b60019450565b9196509450925050565b62018bb4926201a735565b1562018bc4575b5f808362018b69565b600e985062018bbb565b505f811362018b63565b6001906201a6af565b50600698505f975087965086955050505050565b9794919593909692505f9762018c0c5f9762010178565b62018c50579062018c3094939291549160ff808460b81c169360b01c16916201a65b565b50919062018b918362005aaa866001600160501b03859954169462008b84565b5050505050925050506006905f905f905f90565b9062ffffff811162018c9f576effffff00000000000000000000000082549160601b16906effffff0000000000000000000000001916179055565b6395d41f3f60e01b5f5260045262ffffff60245260445ffd5b9062ffffff811162018c9f576bffffff00000000000000000082549160481b16906bffffff0000000000000000001916179055565b9062ffffff811162018c9f577fffffffffffffffffffffff000000ffffffffffffffffffffffffffffffffffff74ffffff00000000000000000000000000000000000083549260901b169116179055565b9062ffffff811162018c9f5771ffffff00000000000000000000000000000082549160781b169071ffffff0000000000000000000000000000001916179055565b906001811b905f52600182016020525f1960405f2054145f1462018da557198154169055565b8154179055565b9394929095915f96549262018dd9876001600160501b038660481c1664ffffffffff8760b81c1662015511565b95909460ff879962018e188a899783825491868360b01c1696879360b81c1697889463ffffffff8260981c169260ff8360e01c9360401c16916200bcbe565b98919a9099899a62018e2c819d846200bf50565b9a5f8c1262018e8457505050509062018e48949392916201a625565b505092836001600160501b0362018e6d6003849a015482808260501c169116620117df565b16821162018e79575050565b600a99509096509250565b9c509c509c509c50505050505092505050600c94935f9392915f9190565b989796959498610ca052610c8052610c6052610c4052610c2052610ba052610bc052610be052610b80525f610b60525f610b00525f610b40525f610b2052610c805154610c005262018f3d610ca051549160ff8360b81c169060ff8460b01c169064ffffffffff610c005160b81c169063ffffffff610c005160981c1690610c005160e01c9060ff610c005160401c1690610ca0516200bcbe565b92839291929162018f5f84916001600160501b03610c005160481c166200bf50565b5f8113156201917b5762018f738162015532565b945b85610b605262018f9664ffffffffff610c005160b81c16610ba051620085f0565b610b405262018fc2610bc051610be05160ff8760b81c1660ff8860b01c16610b4051610c20516201a65b565b9790919282610b205283996201904562018ff5610bc05160ff8b60b81c1660ff8c60b01c16610ba051610c20516201a625565b50509889610b00526201901160ff610c005160401c166200810c565b610c005160401c60ff16620191745760015b60ff808360b81c169260b01c1690610b405190610c405190610ca0516201a6af565b949098859b8a15806201916a575b62019141575b5089620191195750505050505050620190776201907e91866200bf7e565b866200bf50565b9262019092610b205162010d3e866200c4de565b925f841280620190f8575b15620190a95750600596565b965f851280620190c1575b620190bb57565b600a9750565b50620190cd8562015532565b6001600160501b03620190f06003610ca051015482808260501c169116620117df565b1610620190b4565b50620191048462015532565b6001600160501b03610c60515416106201909d565b610b6094909452610b0093909352610b209290925295999298509096505f9550859493509150565b620191529087610b8051916201a735565b1562019160575b5f62019059565b600e995062019159565b505f871362019053565b5f62019023565b5f9462018f75565b9185999294620192bd9997989695949294610ca0525f610c40525f97620192ea620191c88b5f9a5f9a610ca051549660ff8860b81c169160ff8960b01c16916201a65b565b509c909b8d988d610c405254610c80526201921d6201921563ffffffff610c805160981c16926200f05560ff8960b81c1660ff8a60b01c1664ffffffffff610c805160b81c16876201174e565b809e62008b84565b9e5f610c005262019287620192766201924360ff8960b81c1660ff8a60b01c16620114da565b91906200b8986201925f43610c805160e01c610ca051620115e0565b50509364ffffffffff610c805160b81c16620085aa565b9060ff610c805160401c166201508d565b976201929c60ff610c805160401c166200810c565b60ff610c805160401c16159264ffffffffff610c805160b81c16906201ad3c565b909291610c60529160ff8560b81c16908360ff8760b01c169160ff610c805160401c16610ca0516201a6af565b90610c20529a610c2051610c0052610c20511580620194ec575b62019450575b5050505087988298610c00519b610c00511562019328575050505050565b909196506201935a939850620193439297509a939a6200bf50565b6001600160501b03610c805160481c16906200bf7e565b9462019366866200c4de565b5f82121562019420576201938c916201937f916200bf50565b935b6201208b856200c4de565b935f8512908162019400575b5015620193ae57506003965f808080806200be94565b965f831280620193c9575b156200f9fa57600a97506200f9fa565b50620193d58362015532565b6001600160501b03620193f86003610ca051015482808260501c169116620117df565b1610620193b9565b90506001600160501b03620194158662015532565b915416105f62019398565b93905f811362019437575b506201938c9062019381565b62019448906201938c92976200bf50565b95906201942b565b610c805160481c6001600160501b03169080821115620194e3576201947591620085f0565b808c1315620194da576201948a908c6200bf7e565b905b5f8213156201930a5783620194b79160ff80620194bd9760b81c169260b01c1690610c60516201174e565b6201a735565b15620194ce575b5f8080806201930a565b600e610c0052620194c4565b505f906201948c565b50505f62019475565b505f8c1362019304565b9490506001600160501b039592506201952593979691975f95549160ff808460b81c169360b01c16916201a65b565b50929094541662019537838662008b84565b116201954d575b92915f915f915f915f915f9190565b5060036201953e565b50506201956b90969596949291939462013ac9565b9283156201960a57906201957f9162008b84565b915b15908162019601575b5015620195f6575f93845b6201959f57505050565b91939092909115620195c257505063587d2a9760e01b5f5260045260245260445ffd5b916040907f587d2a97a31a5894b097ff75ad27cad3e726d27474d08c959bcb5e51c5244d0a929482519182526020820152a1565b818110938462019595565b90505f6201958a565b509162019581565b93909492969591620196249062013ac9565b968715620196a35790620196389162008b84565b955b1590816201969a575b50156201968f575f94855b620196595750505050565b906200183291604051948594635e7f12af60e11b8652600486019094939260609260808301968352602083015260408201520152565b80851094856201964e565b90505f62019643565b50956201963a565b908054928360281c62ffffff811694620196c686866200bd3b565b90620199c05750916006939161ffff8094600388019060ff8160381c169060301c916001821b81541790555f526004880160205260405f20600160ff83161b8154179055165f5260058601602052600160ff60405f2092161b81541790555f146201995357835462ffffff808260781c169160901c16908015806201994a575b156201991b5750506201975a858562018d3e565b62019766858562018ced565b5460a81c16916201977c600785068095620085f0565b5f520160205260405f2091600160ff1984541617835580155f14620197c35750815464ffffffff00191662ffff00600883901b161760189190911b64ffff00000016179055565b60018103620198005750815468ffffffff0000000000191666ffff0000000000602883901b161760389190911b68ffff0000000000000016179055565b6002810362019849575081546cffffffff00000000000000000019166affff000000000000000000604883901b161760589190911b6cffff000000000000000000000016179055565b60038103620198885750815470ffffffff00000000000000000000000000191661ffff60681b606883901b161760789190911b61ffff60781b16179055565b60048103620198bd5750815463ffffffff60881b191661ffff60881b608883901b161760989190911b61ffff60981b16179055565b600503620198f057815463ffffffff60a81b191661ffff60a81b60a883901b161760b89190911b61ffff60b81b16179055565b815463ffffffff60c81b191661ffff60c81b60c883901b161760d89190911b61ffff60d81b16179055565b86111562019936575062019930858562018d3e565b62019766565b851015620197665762019930858562018ced565b50811562019746565b835462ffffff808260481c169160601c1690801580620199b7575b156201998e57505062019982858562018cb8565b62019930858562018c64565b861115620199a3575062019930858562018cb8565b851015620199305762019930858562018c64565b5081156201996e565b61ffff93506200849c969492508062019a078562019a229481945f5260078a0160205260a81c1660405f209061ffff60c81b1961ffff60c81b83549260c81b169116179055565b835461ffff60b81b1916911660b81b61ffff60b81b16178255565b5460a81c169162016641565b9190916001600160501b0383116201196e576001600160501b036200849c92931669ffffffffffffffffffff60901b1969ffffffffffffffffffff60901b83549260901b169116179055565b919062019a996200849c916001600160501b03855460501c1662010bcc565b835469ffffffffffffffffffff60501b1916605082901b69ffffffffffffffffffff60501b1617909355565b61ffff1661ffff811462003cf55760010190565b91909394925f9482156201a5655762019af28262013ac9565b9262019afe8362007e07565b82159788156201a54d575b61ffff938483166303ff00008560101b16175f526002870160205263ffffffff62019b3760405f2062008c7d565b51166201a5275785156201a520575f5b86156201a518575f905b62019b5b62008be3565b506303fcffff808887166303ff00008960101b1617116201a4f457506001600160501b0381116201a4d75764ffffffffff82116201a4bb5762019b9e8362010178565b156201a4a657806201a482576001600160501b03905b64ffffffffff6040519362019bc9856200826c565b8988166303ff00008a60101b161785525f60208601525f6040860152606085019562019bf58162007e07565b86521660808401521660a0820152875460d01c63ffffffff1662019ec057928798999a86869462019d6b62019d88956001600160501b0360a060809a62019e4d9e9f60029062019c6f64ffffffffff9f6303ff00008b8e62019c61828216848660101b1617876201399e565b169160101b16178262013a3c565b8c6303ff00008a8d169160101b16175f520160205260405f209363ffffffff808351161663ffffffff1986541617855562019ccf63ffffffff602084015116869063ffffffff60201b82549160201b169063ffffffff60201b1916179055565b604082810151865463ffffffff60401b1916911b63ffffffff60401b161785555162019cfb8162007e07565b62019d068162007e07565b8454828e015165ffffffffffff60601b1990911660609290921b60ff60601b1691909117908e1660681b64ffffffffff60681b161784555b0151825469ffffffffffffffffffff60901b1916911660901b69ffffffffffffffffffff60901b16179055565b8a1562019eb957505f925b166303ff00008560101b16176201aab6565b905f526003870160205262019e0660405f209463ffffffff808451161663ffffffff1987541617865562019de163ffffffff602085015116879063ffffffff60201b82549160201b169063ffffffff60201b1916179055565b604083810151875469ffff000000000000000019169216901b61ffff60401b16178555565b606081015184546aff00000000000000000000191690151560501b60ff60501b161784550151825464ffffffffff60581b1916911660581b64ffffffffff60581b16179055565b62019e68575b6200849c905b6200fbe5815460f01c62019ac5565b91506200849c62019e875f6001600160501b03855460501c1662010bcc565b835469ffffffffffffffffffff60501b1916605082901b69ffffffffffffffffffff60501b1617845592905062019e53565b9262019d76565b9291906003880193855f528460205260405f20805463ffffffff8116155f146201a11e5750509288999a9b87608096946201a0296201a060956001600160501b0360a06201a0b59e9f9a60028c64ffffffffff9f9d8e6303ff00008b8e63ffffffff62019f45955460d01c165f52868601602052169160101b161760405f2062013a99565b63ffffffff815460d01c1660408401528d6303ff00008a8d169160101b16175f520160205260405f209363ffffffff808351161663ffffffff1986541617855562019fb563ffffffff602084015116869063ffffffff60201b82549160201b169063ffffffff60201b1916179055565b604082810151865463ffffffff60401b1916911b63ffffffff60401b161785555162019fe18162007e07565b62019fec8162007e07565b8454828f015165ffffffffffff60601b1990911660609290921b60ff60601b1691909117908f1660681b64ffffffffff60681b1617845562019d3e565b6201a0438d8386166303ff00008a60101b16179062013a3c565b8b156201a11757505f925b166303ff00008660101b16176201aab6565b915f5260205262019e0660405f209463ffffffff808451161663ffffffff1987541617865562019de163ffffffff602085015116879063ffffffff60201b82549160201b169063ffffffff60201b1916179055565b6201a0c6575b6200849c9062019e59565b91506200849c6201a0e55f6001600160501b03855460501c1662010bcc565b835469ffffffffffffffffffff60501b1916605082901b69ffffffffffffffffffff60501b161784559290506201a0bb565b926201a04e565b6201a2979497965063ffffffff919995926201a27a8a9e9a9560028e6201a17787602097881c16805f52838301885260405f20906040880152888154891c16888801528d6303ff00008c8c169160101b16179062013a99565b868686015116806201a457575b508888166303ff00008d60101b16175f5201845260405f209085808551161686198354161782556201a1d6868686015116839063ffffffff60201b82549160201b169063ffffffff60201b1916179055565b604084810151835463ffffffff60401b191690881690911b63ffffffff60401b16178255516201a2068162007e07565b6201a2118162007e07565b8154608085015165ffffffffffff60601b1990911660609290921b60ff60601b169190911760689190911b64ffffffffff60681b1617815560a0830151815469ffffffffffffffffffff60901b191660909190911b69ffffffffffffffffffff60901b16179055565b015116156201a438575b166303ff00008460101b16178662013a99565b156201a322575050506200849c929394506201a31c906201a3016201a2ca5f6001600160501b03865460501c1662010bcc565b845469ffffffffffffffffffff60501b1916605082901b69ffffffffffffffffffff60501b16178555965b825460401c1662019ac5565b61ffff60401b82549160401b169061ffff60401b1916179055565b62019e59565b839692965460ff8160501c16908915158215151415806201a424575b6201a3bb5750505082916201a3b564ffffffffff6201a3946201a301946201a3876200849c9a9b9c6201a31c999060ff60501b825491151560501b169060ff60501b1916179055565b82875460581c1662010c0e565b855464ffffffffff60581b1916911660581b64ffffffffff60581b16178455565b6201a2f5565b60a4935064ffffffffff8a9163ffffffff60018a015416935f146201a41b575f925b156201a412575f935b60405195634298a83160e01b87526004870152602486015260581c16604484015262015060816200810c565b6001936201a3e6565b6001926201a3dd565b5064ffffffffff8160581c1615156201a33e565b6201a4518282166303ff00008760101b16178a62013a3c565b6201a284565b5f5281810186526201a47b8c6303ff00008b8b169160101b161760405f2062013a0d565b5f6201a184565b63a9c0cecd60e01b5f52826201a4988162007e07565b60045260245260445260645ffd5b816201a482576001600160501b039062019bb4565b506395d41f3f60e01b5f5260045264ffffffffff60245260445ffd5b6395d41f3f60e01b5f526004526001600160501b0360245260445ffd5b866303ff000089886395d41f3f60e01b5f52169160101b161760045260245260445ffd5b829062019b51565b5f62019b47565b505063ffffffff6001860154169163feefcc0b60e01b5f5260045260245260445260645ffd5b97506201a55a8362007e07565b600283149762019b09565b63ffffffff600185015416906369bc91ef60e11b5f5260045260245260445ffd5b919290156201a5eb57508151156201a59c575090565b3b156201a5a65790565b60405162461bcd60e51b815260206004820152601d60248201527f416464726573733a2063616c6c20746f206e6f6e2d636f6e74726163740000006044820152606490fd5b8251909150156201a5ff5750805190602001fd5b60405162461bcd60e51b8152602060048201529081906200183290602483019062007dc6565b906201a6369392919594956201174e565b9160648302908382046064148415171562003cf5576201a656916201370e565b915f91565b906201a66d939291969594966201174e565b9060648202908282046064148315171562003cf5576201a68d916201370e565b925f90806201a69a575091565b6201a6ac91506200e4e19083620085aa565b91565b94939291925f946201a6c25f976200bc73565b5050509182155f146201a6db5750505050505050600d91565b6201a70f6201a71d969594936201a6fe6201a716946201a708949c9a9c620114da565b93908092620085aa565b96620085aa565b93620085aa565b92620151c6565b5f81126201a7285750565b620083ef9192506200c4de565b9091612710830292808404612710149015171562003cf5576201a75891620085aa565b101590565b906201a769816200810c565b68ff000000000000000082549160401b169068ff00000000000000001916179055565b9064ffffffffff6201559a60026200849c94019282845460281c1662010c0e565b64ffffffffff620155d96002829301938285541662010c0e565b945f9485949080156201a855575b156201a83257506200849c63ffffffff9495966201a7f484866200f94f565b8354906200fe2b6201a81f61ffff8460a81c16809981951698895f5260d560205260405f206200fa67565b956200fe2360ff825460201c16620101a6565b6200849c955063ffffffff94506201a84c9083856201443d565b9590966201a7f4565b5080156201a7d5565b9293919082156201aa5f5762ffffff80855460601c165b16906201a8848487846201ad81565b156201aa52576201a89682866200bd3b565b50915f5b6103e88110806201aa48575b156201aa3457835f526007870160205260405f209363ffffffff855416156201aa1e57506201a8d59062008c6e565b83546201a8eb63ffffffff8260781c166200f911565b156201aa0d57867fb95e250f9f017dcb1bb1806916771df0c04a269e5f46d5db7519382a0f7bb47760e08a6201a96a61ffff6201a9aa9660c81c16996201a9348c828c6201443d565b929093826201a9618d82549063ffffffff82165f5260d560205261ffff60405f209260a81c16916200fa67565b98159162013b90565b549161ffff8360a81c169563ffffffff604051948c865216602085015286604085015260608401528b608084015260a083015260c0820152a188620140fb565b836201a89a5792505083156201a9fc5762ffffff80865460601c165b166201a9d48588836201ad81565b156201a9ee576201a9e681876200bd3b565b50926201a89a565b955050505050505f915f9190565b62ffffff80865460781c166201a9c6565b5050955050505050506001915f9190565b8363cf25731d60e01b5f5260045260245260445ffd5b935094505093506103e89150101591151592565b508315156201a8a6565b5093505050505f915f9190565b62ffffff80855460781c166201a875565b906201aa7c826201ada7565b91939091845f1981146201aaaf57509082916200849c935f5260018201602052600160405f20911b815417905562018d7f565b9450505050565b9190915f60806040516201aaca8162008339565b82815282602082015282604082015282606082015201526303fcffff808211620139f7575064ffffffffff82116201a4bb576040519264ffffffffff929163ffffffff166201ab198562008339565b8085526020850152600160408501521515606084015216608082015290565b90959796949392916001820191815f528260205260405f209764ffffffffff895460b81c16156201ad2557506201abc195936201aba29363ffffffff9693838b6201ab9b9554938a8560201c16908185036201ac70575b5050925050506201a75d565b8662011916565b845463ffffffff60981b1916911660981b63ffffffff60981b16178355565b64ffffffffff84116201ac545763ffffffff906201ac0864ffffffffff6200849c959616849064ffffffffff60b81b1964ffffffffff60b81b83549260b81b169116179055565b82547bffffffffffffffffffffffffffffffffffffffffffffffffffffffff16911660e01b7fffffffff0000000000000000000000000000000000000000000000000000000016179055565b836395d41f3f60e01b5f5260045264ffffffffff60245260445ffd5b6201acdb95836201acce94548e808216931688145f146201ace75750506201ac998186620165c8565b5f528060205260405f2063ffffffff60201b1981541690555b815f526020526201acc78460405f20620165c8565b8d620165ec565b88198c54168c55620165ec565b5f80808b81806201ab8f565b918e6201ad1f9360201c165f52836020526201ad078160405f20620165c8565b5f52826020528d60405f20915460201c1690620165ec565b6201acb2565b90506334a4033d60e11b5f5260045260245260445ffd5b9262004340906200bd0b6201ad5894936201a708838262008b84565b916201ad71826201ad6a81866201370e565b9462008b43565b90156201ad7d57508192565b9192565b909291925f93826201ad9257505050565b9293509091156201ada257101590565b111590565b805480156201adeb576201adbd600191620121cb565b91825f52016020526201ade260405f2054196201addc8115156201204d565b620121cb565b808260081b1792565b505f19915f91508190565b6201aee89291604051916201ae0b836200831c565b5f83525f602084015282610b80526201ae27610c2051620101a6565b610ca0526201aea66002610c4051015461ffff6201ae826201ae7360ff8460e01c1660ff8560d81c1664ffffffffff8660501c1664ffffffffff8716610bc051878960b81c166200d2f9565b610160610c805101356201179e565b9160881c1690610bc051906080610c8051013590610c20519086610c4051620167d2565b9194909793610c009a939a52610b605295929795610ba0519087610c0051610b6051610bc0518a6080610c80510135610ca051610c20518d610c405162016b82565b156201c202575060c954610be0819052613fff610b4081905260d59190911c16612710808202829004149015171562003cf557612710610b4051610be05160d51c1602906201af3a610c205162013ac9565b6201c1de575b806201c1cc575b50815f5260d560205260405f2090815460f01c5f610b005261ffff610b0052610b0051146201c14457906201af8191610ba051916200cf9e565b6201c02e57610b00516002610c4051015460a81c165f610ac0525f610ae0525f610ac0525f610ae052815f5260d560205260405f20610b2052610b2051546001600160501b038160501c166001600160501b03821611806201c10f575b156201c0365750506201b004612710610b4051610be05160d51c1602610b20516200d205565b6201b01e612710610b4051610be05160d51c16026200b099565b6201b038612710610b4051610be05160d51c16026200c4de565b610ae0526001610ac0525b6001600160501b03610b20515416610aa052610ac051156201c02e57610b00516002610c4051015460a81c16916201b07a62008617565b506201b08c6001610c6051016201aa70565b610a808190525f19146201c01b576201b0d76201b0b5610b0051610c60515460201c1662019ac5565b610c60519065ffff0000000082549160201b169065ffff000000001916179055565b6201b0e16200908f565b506001821080156201c00d575b6200a4b557801580156201c000575b6201bfe7576001610bc0511080156201bfd5575b6201bfb157610b4051610be05160d51c8116116201bf8d5763ffffffff60c0610c80510135116201bf6b57612710610160610c80510135116201bf4a57610b00516101c0610c80510135116201bf28576201b3636040516201b17381620082c4565b63ffffffff841681526201b18a610c205162007e07565b610c2051602082015262ffffff8316604082015264ffffffffff610bc051166060820152610b4051610be05160d51c16608082015263ffffffff60c0610c805101351660a0820152610b0051610160610c805101351660c0820152610b0051610a80511660e08201525f6101008201525f610120820152610b00516101c0610c8051013516610140820152610a80515f526007610c60510160205260405f209063ffffffff808251161663ffffffff1983541617825560208101516201b2508162007e07565b6201b25b8162007e07565b82546040838101516060850151610b0051608087015160a088015160c089015160e08a01516101008b01516101208c0151610140909c015161ffff60d81b90871660d81b169b861660c81b61ffff60c81b1690861660b81b61ffff60b81b1691861660a81b61ffff60a81b1692861660981b61ffff60981b1660789490941b63ffffffff60781b169490951660681b61ffff60681b169590971b64ffffffffff60401b1660289690961b67ffffff00000000001660209990991b64ff00000000167fffffff00000000000000000000000000000000000000000000000000ffffffff909816979097179790971793909317919091179190911793909317919091171717179055565b610a80515f526007610c6051016020526201b389610ca05160405f20610c6051620196ab565b604051926201b398846200831c565b8352610a8051602084015282610b8052610a8051156201bec957505f815f5260d560205260405f20906201b3cf610c205162013ac9565b156201be6c57506002610c405101549560208401515f9781156201be42576201b3fb610c205162013ac9565b916201b40a610c205162007e07565b610c20511580156201be26575b610b005182166303ff0000609885901c16175f908152600287016020526040902063ffffffff906201b4499062008c7d565b51166201bdf85783156201bdf157845b84156201bde9575f905b6201b46d62008be3565b506303fcffff80610b005186166303ff000063ffff00006cffffffffffffffffffffff00008a60981c16161617116201bdad57506001600160501b0381116201a4d75764ffffffffff82116201a4bb576201b4cb610c205162010178565b156201bd9857806201bd6d576001600160501b03905b64ffffffffff604051936201b4f6856200826c565b610b005187166303ff000063ffff00006cffffffffffffffffffffff00008b60981c1616161785525f60208601525f60408601526201b538610c205162007e07565b610c205160608601521660808401521660a0820152865460d01c63ffffffff166201b8ba5760a0999896936201b70760209997947f5d5d31f82cb7d7cf1b09787031cd282c6accc62145d50de980d298bb340a9aba9d9e97946201b6e66201b798956201b5cb610b005185166303ff000063ffff00006cffffffffffffffffffffff00008a60981c161616178b6201399e565b610b00516201b5e99085166303ff0000609889901c16178b62013a3c565b610b005184166303ff000063ffff00006cffffffffffffffffffffff00008960981c161616175f5260028a018e528f6001600160501b039060405f209263ffffffff808251161663ffffffff19855416178455602063ffffffff6201b66d9183015116859063ffffffff60201b82549160201b169063ffffffff60201b1916179055565b604081810151855463ffffffff60401b1916911b63ffffffff60401b1617845560608101516201b69d8162007e07565b6201b6a88162007e07565b8454608083015165ffffffffffff60601b1990911660609290921b60ff60601b169190911760689190911b64ffffffffff60681b1617845562019d3e565b85156201b8b2575f915b610b0051166303ff0000609886901c16176201aab6565b90610b00519060a81c165f5260038501895264ffffffffff608060405f209263ffffffff808251161663ffffffff198554161784556201b76b63ffffffff8d83015116859063ffffffff60201b82549160201b169063ffffffff60201b1916179055565b610b0051604082810151865469ffff000000000000000019169216901b61ffff60401b1617845562019e06565b6201b897575b506201b7b3906200fbe5815460f01c62019ac5565b935b600a610b6051146201b7f0575b5050015190604051918252610bc05160208301526040820152610ae0516060820152610aa0516080820152a1565b7fb971bdbd8f44fbf3ba501ee287c2533eb61b09097d638c664566aac00bbb3e6591610120916001600160501b03610b00516002610c4051015460a81c16926003610c4051015490604051948552888501526201b850610c205162007e07565b610c205160408501526080610c805101356060850152610bc05160808501528181168a85015260501c1660c0830152610c005160e0830152610100820152a15f806201b7c2565b8192506201b8aa906201b7b39262019a7a565b91906201b79e565b5f916201b6f0565b610b00518460a81c165f526003870160205260405f20805463ffffffff8116155f146201ba4757505086936201b70760209997947f5d5d31f82cb7d7cf1b09787031cd282c6accc62145d50de980d298bb340a9aba9d9e97946201b9fc6201ba1a9560a09f9e9c63ffffffff905460d01c165f5260028a018e526201b968610b005185166303ff000063ffff00006cffffffffffffffffffffff00008a60981c1616161760405f2062013a99565b63ffffffff8a5460d01c166040820152610b005184166303ff000063ffff00006cffffffffffffffffffffff00008960981c161616175f5260028a018e528f6001600160501b039060405f209263ffffffff808251161663ffffffff19855416178455602063ffffffff6201b66d9183015116859063ffffffff60201b82549160201b169063ffffffff60201b1916179055565b610b00516201b6e69083166303ff0000609887901c16178962013a3c565b6201ba2c575b506201b7b39062019e59565b8192506201ba3f906201b7b39262019a7a565b91906201ba20565b60206201bb66938a9f98959796939a6002906201bab163ffffffff8096861c16805f52838301865260405f20906040860152868154871c16868601528a6303ff000063ffff00006cffffffffffffffffffffff0000610b00518c169360981c161616179062013a99565b848484015116806201bd2b575b50610b005186166303ff000060988b901c16175f9081529101835260409020815181548385015163ffffffff60201b90871660201b1691861686199091161767ffffffff0000000019161781556201bb4490604083810151825463ffffffff60401b191690871690911b63ffffffff60401b1617815560608301516201a2068162007e07565b015116156201bd07575b610b0051166303ff0000609885901c16178762013a99565b156201bbc4575050509160a09493916201b7b3886201a31c6201bbae6020977f5d5d31f82cb7d7cf1b09787031cd282c6accc62145d50de980d298bb340a9aba9b9c62019a7a565b935b6201a301610b0051825460401c1662019ac5565b9091938093505460ff8160501c16908315158215151415806201bcf3575b6201bc8357505050916201b7b37f5d5d31f82cb7d7cf1b09787031cd282c6accc62145d50de980d298bb340a9aba97986201a31c846201bc4060a09a9997602099979060ff60501b825491151560501b169060ff60501b1916179055565b6201bc7d64ffffffffff6201bc5c5f82855460581c1662010c0e565b835464ffffffffff60581b1916911660581b64ffffffffff60581b16178255565b6201bbb0565b9264ffffffffff60a49463ffffffff60018e015416935f146201bcea575f925b156201bce1575f935b60405195634298a83160e01b8752610b00519060a81c166004870152602486015260581c16604484015262015060816200810c565b6001936201bcac565b6001926201bca3565b5064ffffffffff8160581c1615156201bbe2565b610b00516201bd259082166303ff0000609887901c16178e62013a3c565b6201bb4e565b5f5281810184526201bd66610b005187166303ff000063ffff00006cffffffffffffffffffffff00008d60981c1616161760405f2062013a0d565b5f6201babe565b63a9c0cecd60e01b5f52610c20516201bd869062007e07565b610c205160045260245260445260645ffd5b816201bd6d576001600160501b03906201b4e1565b856303ff000063ffff00006cffffffffffffffffffffff0000886395d41f3f60e01b5f52610b0051169360981c1616161760045260245260445ffd5b5f906201b463565b5f6201b459565b5063ffffffff6001860154169163feefcc0b60e01b5f52610b00519060a81c1660045260245260445260645ffd5b506201be35610c205162007e07565b6002610c2051146201b417565b63ffffffff600185015416906369bc91ef60e11b5f52610b00519060a81c1660045260245260445ffd5b92907f5d5d31f82cb7d7cf1b09787031cd282c6accc62145d50de980d298bb340a9aba9596509160a0946201bec2602094610b00516002610c4051015460a81c16610bc05191610c205191888801519162019ad9565b506201b7b5565b60c49250610b00516002610c4051015460a81c169160405192635f4d015360e01b8452600484015260248301526201bf04610c205162007e07565b610c205160448301526064820152610bc0516084820152610ca051151560a4820152fd5b6395d41f3f60e01b5f526101c0610c80510135600452610b005160245260445ffd5b6395d41f3f60e01b5f52610160610c8051013560045261271060245260445ffd5b6395d41f3f60e01b5f5260c0610c8051013560045263ffffffff60245260445ffd5b6395d41f3f60e01b5f908152610b4051610be05160d51c8116600452602452604490fd5b630c8f0a6960e41b5f52610bc051600452600160245264ffffffffff60445260645ffd5b5064ffffffffff610bc051116201b111565b63c6ebaaa160e01b5f5260045262ffffff60245260445ffd5b5062ffffff81116201b0fd565b5063ffffffff82116201b0ee565b826313d2887b60e01b5f5260045260245ffd5b509192505050565b610ba0516201c0b55760408051610b4051610be051948252602082018690526001600160501b038085169383019390935260509390931c909116606082015260d59290921c166127100260808201527fe45a99fff28c6d15925d1e2d85178b939f8809e353ffdd55bc03edb410aa24de908060a081010390a16201b043565b60405163e45a99ff60e01b8152610b4051610be051600483019490945260248201949094526001600160501b03828116604483015260509290921c909116606482015261271060d59290921c90921602608482015260a490fd5b50612710610b4051610be05160d51c16026001600160501b036201c13b818460501c168285166200cf17565b1610156201afde565b50509293505050610ba0516201c1a7577fbd608c77710b601b3c0b0f34d13295beb58c48631119b910d8d6067ad650d5b890610b00516002610c4051015460a81c166200a5dc604051928392836020909392919361ffff60408201951681520152565b610b00516002610c4051015460a81c1663bd608c7760e01b5f5260045260245260445ffd5b6201c1d79162008b84565b5f6201af47565b90506201c1fb86612710610b4051610be05160d51c160262008b84565b906201af40565b94955050505050610b805256fea26469706673582212208349bd66fb2ad4739bf5a212e4a2a568b15555c492be9903c07bc18e63da8d6b64736f6c634300081e0033",
    "linkReferences": {}
  },
  "methodIdentifiers": {
    "acceptOwnership()": "79ba5097",
    "addContract(string,string,uint256,uint256,uint256,uint256,uint256,uint256,uint256,uint256)": "92f54b3a",
    "addressBlocked(address)": "3bf45a2f",
    "adminCancelOrders((uint256,uint256)[])": "e548bb57",
    "allowOrderForwarding(bool)": "7962f910",
    "autoDeleverage((uint256,uint256,uint256[])[],bool)": "43559bbf",
    "buyLiquidations((uint256,uint256,uint256,uint256,uint256,uint256)[],bool)": "bbac6c95",
    "cancelDecreaseCollateralRequest(uint256)": "ebcf1656",
    "clearInitUnwindContract(uint256)": "075367f6",
    "clearOrderSlots(uint256,uint256[])": "d541abc1",
    "clearPrepareUnwindContract(uint256)": "b5cd004e",
    "clearPricePointerSlots(uint256,uint256[])": "20c801d2",
    "createAccount(uint256)": "cab13915",
    "declineDecreaseCollateralRequest(uint256,uint256,string)": "ecdff22e",
    "decreasePositionCollateral(uint256,uint256,uint32,uint16,uint8)": "5495086a",
    "depositCollateral(uint256)": "bad4a01f",
    "depositToProtocol(uint256)": "54056119",
    "execFwdPositionOps((uint256,uint256,(uint256,uint256,uint8,uint256,uint256,uint256,uint256,bool,bool,bool,uint256,uint256,uint256,uint256,uint256),bool,uint256,uint8,uint256,uint256)[])": "0f6795d9",
    "execFznAccountPosOps((uint256,(uint256,uint256,uint8,uint256,uint256,uint256,uint256,bool,bool,bool,uint256,uint256,uint256,uint256,uint256))[])": "768f6855",
    "execOrder((uint256,uint256,uint8,uint256,uint256,uint256,uint256,bool,bool,bool,uint256,uint256,uint256,uint256,uint256))": "4d8dc985",
    "execOrders((uint256,uint256,uint8,uint256,uint256,uint256,uint256,bool,bool,bool,uint256,uint256,uint256,uint256,uint256)[],bool)": "39435dac",
    "execPerpOps((uint256,uint256,uint8,uint32,int256,bool,bytes)[])": "5bf9264c",
    "forceClose(uint256,uint256,uint256[],bool)": "b216d0d2",
    "forceResetWithdrawRateLimit()": "bed97b71",
    "getAccountByAddr(address)": "12e8eb2c",
    "getAccountById(uint256)": "05aca141",
    "getExchangeInfo()": "8bc5b3c5",
    "getFundingInterval()": "0d3e87a7",
    "getFundingSumAtBlock(uint256,uint256)": "7dd7e759",
    "getLiquidationInfo(uint256)": "50ef5c35",
    "getMakerFee(uint256)": "1275d14c",
    "getMarginFractions(uint256,uint256)": "6825e9e5",
    "getMinAccountOpenCNS()": "dec92b69",
    "getMinimumPostCNS()": "9fffdfe2",
    "getMinimumSettleCNS()": "3a63dabe",
    "getNextPriceAboveWithOrders(uint256,uint256)": "9b170bd1",
    "getNextPriceBelowWithOrders(uint256,uint256)": "fb455f6b",
    "getOrder(uint256,uint256)": "5e1a3573",
    "getOrderIdIndex(uint256)": "38ecd885",
    "getOrderLocks(uint256)": "8c1c2cef",
    "getOrdersAtPriceLevel(uint256,uint256,uint256,uint256)": "4d3282b4",
    "getOwner()": "893d20e8",
    "getPermissionedCancelParams(uint256)": "396d7e47",
    "getPerpOrderLocks(uint256,uint256)": "2709b746",
    "getPerpetualInfo(uint256)": "00092cce",
    "getPosition(uint256,uint256)": "751de421",
    "getPositionIds(uint256)": "1973c619",
    "getPositions(uint256,uint256,uint256)": "4a9a4158",
    "getPriceLevelOrderIds(uint256,uint256)": "653a6bd7",
    "getProtocolBalanceCNS()": "b5fcf762",
    "getRecycleBalanceCNS()": "edb1314e",
    "getRecycleFeeCNS()": "16a483ea",
    "getTakerFee(uint256)": "4119f930",
    "getUnwindInfo(uint256)": "6728641b",
    "getVolumeAtBookPrice(uint256,uint256)": "fe37fe12",
    "getWithdrawAllowanceData(uint256)": "8bcf1b27",
    "increasePositionCollateral(uint256,uint256)": "f769f0d3",
    "initUnwindContract(uint256,uint256)": "a5e9c411",
    "initialize(address)": "c4d66de8",
    "isAdministrator(address)": "0a2eb301",
    "isHalted()": "c7ff1584",
    "isLiquidationBuyer(address)": "ae0d4442",
    "isPositionAdministrator(address)": "dbfbf7e8",
    "isPriceAdministrator(address)": "d8b44268",
    "isToleranceAdministrator(address)": "a87041d1",
    "liquidation((uint256,uint256,uint256,bool))": "bbf979ac",
    "liquidations((uint256,uint256,uint256,bool)[],bool)": "d3b8c49d",
    "numberOfAccounts()": "0f03e4c3",
    "owner()": "8da5cb5b",
    "pauseContract(uint256)": "c2852f38",
    "pendingOwner()": "e30c3978",
    "prepareUnwindContract(uint256)": "e5631c9e",
    "proxiableUUID()": "52d1902d",
    "removeContract(uint256)": "7cca3b06",
    "renounceOwnership()": "715018a6",
    "requestDecreasePositionCollateral(uint256,uint256,bool)": "171a5b81",
    "setAddressBlockStatus(address[],bool)": "b1082486",
    "setAddressWhitelisted(address[],bool)": "be70473d",
    "setAdministrator(address,bool)": "87c95058",
    "setBuyToLiquidateBuyerRestriction(uint256,bool)": "32b9203b",
    "setBuyToLiquidateParams(uint256,uint256,uint256,uint256)": "5180d5a8",
    "setBuyToLiquidatePriceThreshold(uint256,uint256)": "45c8c924",
    "setContractPaused(uint256,bool)": "9e430eda",
    "setDcpBorrowThreshold(uint256,uint256)": "af37c07d",
    "setExchangeHalted(bool)": "58087a74",
    "setFeeParams(uint256,uint256)": "9d2ec188",
    "setFreezeStatus(address,uint8)": "182b01f2",
    "setFrozen(address,uint8)": "4b8344fb",
    "setFundingClampPct(uint256,uint256)": "16a06593",
    "setFundingSum(uint256,int256,uint32,bool,bool)": "9fc8afd7",
    "setIgnOracle(uint256,bool)": "69752159",
    "setInitialMarginFraction(uint256,uint256)": "e2e1cb57",
    "setLastForwardedDescId(uint256,uint256)": "ba53027d",
    "setLastForwardedDescIdAsOwner(uint256,uint256)": "eaadbbef",
    "setLastTriggeredDescId(uint256,uint256)": "1217be67",
    "setLastTriggeredDescIdAsOwner(uint256,uint256)": "a971b6d4",
    "setLinkDsVerifier(address)": "d360dd31",
    "setLiquidationBuyer(address,bool)": "7ddbdc2a",
    "setLiquidationParams(uint256,uint256,uint256)": "60ad17fd",
    "setMaintenanceMarginFraction(uint256,uint256)": "8c031164",
    "setMakerFee(uint256,uint256)": "e74e2c9b",
    "setMarginTol(uint256,uint256,uint256)": "79609c11",
    "setMaxOpenInterest(uint256,uint256)": "9a6d7630",
    "setMinAccountOpenAmount(uint256)": "d6f34bd6",
    "setMinPost(uint256)": "279289e9",
    "setMinSettle(uint256)": "f28b98f3",
    "setMinWithdrawLimit(uint256)": "4d574c56",
    "setOverCollatDescentThreshold(uint256,uint256)": "ed6760fe",
    "setPermissionedCancelParams(uint256,uint256,uint256)": "efb62904",
    "setPerpLinkDsFeedId(uint256,bytes32)": "03cfe83c",
    "setPositionAdministrator(address,bool)": "12014156",
    "setPriceAdministrator(address,bool)": "a9bd5cee",
    "setPriceMaxAge(uint256,uint256)": "0e517f41",
    "setPriceTolPer100K(uint256,uint256)": "7d45678e",
    "setPriceTolPer100KByOwner(uint256,uint256)": "b839a8c4",
    "setRecycleFee(uint256)": "be0783f5",
    "setTakerFee(uint256,uint256)": "6debf8fa",
    "setThousandthsTvlWRLS(uint256)": "d780ece8",
    "setToleranceAdministrator(address,bool)": "dd0a3e2b",
    "setUnityDescentThreshold(uint256,uint256)": "2f32509b",
    "setWhitelistingEnabled(bool)": "5f40c1f7",
    "setWithdrawBypass(address,bool)": "252c3594",
    "transferOwnership(address)": "f2fde38b",
    "triggerUnwindContract(uint256)": "0189a2b7",
    "unwindContract(uint256,uint256,bool)": "fb05acb7",
    "unwindContractByOwner(uint256,uint256,bool)": "ddac1cde",
    "updateMarkPricePNS(uint256,uint32)": "541b04e9",
    "updateMarkPricePNSByOwner(uint256,uint32)": "0a039fbd",
    "updateOraclePrice(uint256,bytes)": "8f3ffc85",
    "upgradeTo(address)": "3659cfe6",
    "upgradeToAndCall(address,bytes)": "4f1ef286",
    "whitelisted(address)": "d936547e",
    "whitelistingEnabled()": "5b0c29eb",
    "withdrawCollateral(uint256)": "6112fe2e",
    "withdrawFromProtocol(uint256)": "8a924640",
    "xferAcctToProtocol(uint256)": "61bd6f44",
    "xferPerpInsToProtocol(uint256,uint256)": "586d92ca",
    "xferProtocolToAcct(uint256,uint256)": "229c2492",
    "xferProtocolToPerp(uint256,uint256,bool)": "e68073c3",
    "xferProtocolToRecycleBal(uint256)": "1df87ade"
  },
  "id": 14
}