{
  "abi": [
    {
      "type": "constructor",
      "inputs": [
        {
          "name": "collateralToken",
          "type": "address",
          "internalType": "address"
        },
        {
          "name": "fundingInterval",
          "type": "uint256",
          "internalType": "uint256"
        },
        {
          "name": "isTest",
          "type": "bool",
          "internalType": "bool"
        }
      ],
      "stateMutability": "nonpayable"
    },
    {
      "type": "function",
      "name": "acceptOwnership",
      "inputs": [],
      "outputs": [],
      "stateMutability": "nonpayable"
    },
    {
      "type": "function",
      "name": "addContract",
      "inputs": [
        {
          "name": "name",
          "type": "string",
          "internalType": "string"
        },
        {
          "name": "symbol",
          "type": "string",
          "internalType": "string"
        },
        {
          "name": "perpId",
          "type": "uint256",
          "internalType": "uint256"
        },
        {
          "name": "basePricePNS",
          "type": "uint256",
          "internalType": "uint256"
        },
        {
          "name": "priceDecimals",
          "type": "uint256",
          "internalType": "uint256"
        },
        {
          "name": "lotDecimals",
          "type": "uint256",
          "internalType": "uint256"
        },
        {
          "name": "takerFeePer100K",
          "type": "uint256",
          "internalType": "uint256"
        },
        {
          "name": "makerFeePer100K",
          "type": "uint256",
          "internalType": "uint256"
        },
        {
          "name": "initMarginFracHdths",
          "type": "uint256",
          "internalType": "uint256"
        },
        {
          "name": "maintMarginFracHdths",
          "type": "uint256",
          "internalType": "uint256"
        }
      ],
      "outputs": [],
      "stateMutability": "nonpayable"
    },
    {
      "type": "function",
      "name": "adminCancelOrders",
      "inputs": [
        {
          "name": "signatures",
          "type": "tuple[]",
          "internalType": "struct OrderSignature[]",
          "components": [
            {
              "name": "perpId",
              "type": "uint256",
              "internalType": "uint256"
            },
            {
              "name": "orderId",
              "type": "uint256",
              "internalType": "uint256"
            }
          ]
        }
      ],
      "outputs": [],
      "stateMutability": "nonpayable"
    },
    {
      "type": "function",
      "name": "allowOrderForwarding",
      "inputs": [
        {
          "name": "allow",
          "type": "bool",
          "internalType": "bool"
        }
      ],
      "outputs": [],
      "stateMutability": "nonpayable"
    },
    {
      "type": "function",
      "name": "autoDeleverage",
      "inputs": [
        {
          "name": "adlDescs",
          "type": "tuple[]",
          "internalType": "struct AdlDesc[]",
          "components": [
            {
              "name": "perpId",
              "type": "uint256",
              "internalType": "uint256"
            },
            {
              "name": "posAccountId",
              "type": "uint256",
              "internalType": "uint256"
            },
            {
              "name": "sortedPositionIds",
              "type": "uint256[]",
              "internalType": "uint256[]"
            }
          ]
        },
        {
          "name": "revertOnFail",
          "type": "bool",
          "internalType": "bool"
        }
      ],
      "outputs": [],
      "stateMutability": "nonpayable"
    },
    {
      "type": "function",
      "name": "clearInitUnwindContract",
      "inputs": [
        {
          "name": "perpId",
          "type": "uint256",
          "internalType": "uint256"
        }
      ],
      "outputs": [],
      "stateMutability": "nonpayable"
    },
    {
      "type": "function",
      "name": "clearOrderSlots",
      "inputs": [
        {
          "name": "perpId",
          "type": "uint256",
          "internalType": "uint256"
        },
        {
          "name": "orderIds",
          "type": "uint256[]",
          "internalType": "uint256[]"
        }
      ],
      "outputs": [],
      "stateMutability": "nonpayable"
    },
    {
      "type": "function",
      "name": "clearPricePointerSlots",
      "inputs": [
        {
          "name": "perpId",
          "type": "uint256",
          "internalType": "uint256"
        },
        {
          "name": "pricesONS",
          "type": "uint256[]",
          "internalType": "uint256[]"
        }
      ],
      "outputs": [],
      "stateMutability": "nonpayable"
    },
    {
      "type": "function",
      "name": "createAccount",
      "inputs": [
        {
          "name": "amountCNS",
          "type": "uint256",
          "internalType": "uint256"
        }
      ],
      "outputs": [
        {
          "name": "accountId",
          "type": "uint256",
          "internalType": "uint256"
        }
      ],
      "stateMutability": "nonpayable"
    },
    {
      "type": "function",
      "name": "depositCollateral",
      "inputs": [
        {
          "name": "amountCNS",
          "type": "uint256",
          "internalType": "uint256"
        }
      ],
      "outputs": [],
      "stateMutability": "nonpayable"
    },
    {
      "type": "function",
      "name": "depositToProtocol",
      "inputs": [
        {
          "name": "amountCNS",
          "type": "uint256",
          "internalType": "uint256"
        }
      ],
      "outputs": [],
      "stateMutability": "nonpayable"
    },
    {
      "type": "function",
      "name": "execFwdPositionOps",
      "inputs": [
        {
          "name": "forwardedOrders",
          "type": "tuple[]",
          "internalType": "struct FwdOrderDesc[]",
          "components": [
            {
              "name": "accountId",
              "type": "uint256",
              "internalType": "uint256"
            },
            {
              "name": "feePer100K",
              "type": "uint256",
              "internalType": "uint256"
            },
            {
              "name": "orderDesc",
              "type": "tuple",
              "internalType": "struct OrderDesc",
              "components": [
                {
                  "name": "orderDescId",
                  "type": "uint256",
                  "internalType": "uint256"
                },
                {
                  "name": "perpId",
                  "type": "uint256",
                  "internalType": "uint256"
                },
                {
                  "name": "orderType",
                  "type": "uint8",
                  "internalType": "enum OrderDescEnum"
                },
                {
                  "name": "orderId",
                  "type": "uint256",
                  "internalType": "uint256"
                },
                {
                  "name": "pricePNS",
                  "type": "uint256",
                  "internalType": "uint256"
                },
                {
                  "name": "lotLNS",
                  "type": "uint256",
                  "internalType": "uint256"
                },
                {
                  "name": "expiryBlock",
                  "type": "uint256",
                  "internalType": "uint256"
                },
                {
                  "name": "postOnly",
                  "type": "bool",
                  "internalType": "bool"
                },
                {
                  "name": "fillOrKill",
                  "type": "bool",
                  "internalType": "bool"
                },
                {
                  "name": "immediateOrCancel",
                  "type": "bool",
                  "internalType": "bool"
                },
                {
                  "name": "maxMatches",
                  "type": "uint256",
                  "internalType": "uint256"
                },
                {
                  "name": "leverageHdths",
                  "type": "uint256",
                  "internalType": "uint256"
                },
                {
                  "name": "lastExecutionBlock",
                  "type": "uint256",
                  "internalType": "uint256"
                },
                {
                  "name": "amountCNS",
                  "type": "uint256",
                  "internalType": "uint256"
                }
              ]
            }
          ]
        }
      ],
      "outputs": [
        {
          "name": "signatures",
          "type": "tuple[]",
          "internalType": "struct OrderSignature[]",
          "components": [
            {
              "name": "perpId",
              "type": "uint256",
              "internalType": "uint256"
            },
            {
              "name": "orderId",
              "type": "uint256",
              "internalType": "uint256"
            }
          ]
        }
      ],
      "stateMutability": "nonpayable"
    },
    {
      "type": "function",
      "name": "execFznAccountPosOps",
      "inputs": [
        {
          "name": "fznAccountCloseOrders",
          "type": "tuple[]",
          "internalType": "struct FznOrderDesc[]",
          "components": [
            {
              "name": "accountId",
              "type": "uint256",
              "internalType": "uint256"
            },
            {
              "name": "orderDesc",
              "type": "tuple",
              "internalType": "struct OrderDesc",
              "components": [
                {
                  "name": "orderDescId",
                  "type": "uint256",
                  "internalType": "uint256"
                },
                {
                  "name": "perpId",
                  "type": "uint256",
                  "internalType": "uint256"
                },
                {
                  "name": "orderType",
                  "type": "uint8",
                  "internalType": "enum OrderDescEnum"
                },
                {
                  "name": "orderId",
                  "type": "uint256",
                  "internalType": "uint256"
                },
                {
                  "name": "pricePNS",
                  "type": "uint256",
                  "internalType": "uint256"
                },
                {
                  "name": "lotLNS",
                  "type": "uint256",
                  "internalType": "uint256"
                },
                {
                  "name": "expiryBlock",
                  "type": "uint256",
                  "internalType": "uint256"
                },
                {
                  "name": "postOnly",
                  "type": "bool",
                  "internalType": "bool"
                },
                {
                  "name": "fillOrKill",
                  "type": "bool",
                  "internalType": "bool"
                },
                {
                  "name": "immediateOrCancel",
                  "type": "bool",
                  "internalType": "bool"
                },
                {
                  "name": "maxMatches",
                  "type": "uint256",
                  "internalType": "uint256"
                },
                {
                  "name": "leverageHdths",
                  "type": "uint256",
                  "internalType": "uint256"
                },
                {
                  "name": "lastExecutionBlock",
                  "type": "uint256",
                  "internalType": "uint256"
                },
                {
                  "name": "amountCNS",
                  "type": "uint256",
                  "internalType": "uint256"
                }
              ]
            }
          ]
        }
      ],
      "outputs": [],
      "stateMutability": "nonpayable"
    },
    {
      "type": "function",
      "name": "execOpsAndOrders",
      "inputs": [
        {
          "name": "operations",
          "type": "tuple[]",
          "internalType": "struct OpDesc[]",
          "components": [
            {
              "name": "opDescId",
              "type": "uint256",
              "internalType": "uint256"
            },
            {
              "name": "perpId",
              "type": "uint256",
              "internalType": "uint256"
            },
            {
              "name": "opType",
              "type": "uint8",
              "internalType": "enum OpDescEnum"
            },
            {
              "name": "indexPricePNS",
              "type": "uint32",
              "internalType": "uint32"
            },
            {
              "name": "fundingRatePct100k",
              "type": "int256",
              "internalType": "int256"
            },
            {
              "name": "allowOverwrite",
              "type": "bool",
              "internalType": "bool"
            },
            {
              "name": "unverifiedReport",
              "type": "bytes",
              "internalType": "bytes"
            }
          ]
        },
        {
          "name": "orderDescs",
          "type": "tuple[]",
          "internalType": "struct OrderDesc[]",
          "components": [
            {
              "name": "orderDescId",
              "type": "uint256",
              "internalType": "uint256"
            },
            {
              "name": "perpId",
              "type": "uint256",
              "internalType": "uint256"
            },
            {
              "name": "orderType",
              "type": "uint8",
              "internalType": "enum OrderDescEnum"
            },
            {
              "name": "orderId",
              "type": "uint256",
              "internalType": "uint256"
            },
            {
              "name": "pricePNS",
              "type": "uint256",
              "internalType": "uint256"
            },
            {
              "name": "lotLNS",
              "type": "uint256",
              "internalType": "uint256"
            },
            {
              "name": "expiryBlock",
              "type": "uint256",
              "internalType": "uint256"
            },
            {
              "name": "postOnly",
              "type": "bool",
              "internalType": "bool"
            },
            {
              "name": "fillOrKill",
              "type": "bool",
              "internalType": "bool"
            },
            {
              "name": "immediateOrCancel",
              "type": "bool",
              "internalType": "bool"
            },
            {
              "name": "maxMatches",
              "type": "uint256",
              "internalType": "uint256"
            },
            {
              "name": "leverageHdths",
              "type": "uint256",
              "internalType": "uint256"
            },
            {
              "name": "lastExecutionBlock",
              "type": "uint256",
              "internalType": "uint256"
            },
            {
              "name": "amountCNS",
              "type": "uint256",
              "internalType": "uint256"
            }
          ]
        },
        {
          "name": "revertOnFail",
          "type": "bool",
          "internalType": "bool"
        }
      ],
      "outputs": [
        {
          "name": "signatures",
          "type": "tuple[]",
          "internalType": "struct OrderSignature[]",
          "components": [
            {
              "name": "perpId",
              "type": "uint256",
              "internalType": "uint256"
            },
            {
              "name": "orderId",
              "type": "uint256",
              "internalType": "uint256"
            }
          ]
        }
      ],
      "stateMutability": "nonpayable"
    },
    {
      "type": "function",
      "name": "execOrder",
      "inputs": [
        {
          "name": "orderDesc",
          "type": "tuple",
          "internalType": "struct OrderDesc",
          "components": [
            {
              "name": "orderDescId",
              "type": "uint256",
              "internalType": "uint256"
            },
            {
              "name": "perpId",
              "type": "uint256",
              "internalType": "uint256"
            },
            {
              "name": "orderType",
              "type": "uint8",
              "internalType": "enum OrderDescEnum"
            },
            {
              "name": "orderId",
              "type": "uint256",
              "internalType": "uint256"
            },
            {
              "name": "pricePNS",
              "type": "uint256",
              "internalType": "uint256"
            },
            {
              "name": "lotLNS",
              "type": "uint256",
              "internalType": "uint256"
            },
            {
              "name": "expiryBlock",
              "type": "uint256",
              "internalType": "uint256"
            },
            {
              "name": "postOnly",
              "type": "bool",
              "internalType": "bool"
            },
            {
              "name": "fillOrKill",
              "type": "bool",
              "internalType": "bool"
            },
            {
              "name": "immediateOrCancel",
              "type": "bool",
              "internalType": "bool"
            },
            {
              "name": "maxMatches",
              "type": "uint256",
              "internalType": "uint256"
            },
            {
              "name": "leverageHdths",
              "type": "uint256",
              "internalType": "uint256"
            },
            {
              "name": "lastExecutionBlock",
              "type": "uint256",
              "internalType": "uint256"
            },
            {
              "name": "amountCNS",
              "type": "uint256",
              "internalType": "uint256"
            }
          ]
        }
      ],
      "outputs": [
        {
          "name": "signature",
          "type": "tuple",
          "internalType": "struct OrderSignature",
          "components": [
            {
              "name": "perpId",
              "type": "uint256",
              "internalType": "uint256"
            },
            {
              "name": "orderId",
              "type": "uint256",
              "internalType": "uint256"
            }
          ]
        }
      ],
      "stateMutability": "nonpayable"
    },
    {
      "type": "function",
      "name": "execPerpOps",
      "inputs": [
        {
          "name": "operations",
          "type": "tuple[]",
          "internalType": "struct OpDesc[]",
          "components": [
            {
              "name": "opDescId",
              "type": "uint256",
              "internalType": "uint256"
            },
            {
              "name": "perpId",
              "type": "uint256",
              "internalType": "uint256"
            },
            {
              "name": "opType",
              "type": "uint8",
              "internalType": "enum OpDescEnum"
            },
            {
              "name": "indexPricePNS",
              "type": "uint32",
              "internalType": "uint32"
            },
            {
              "name": "fundingRatePct100k",
              "type": "int256",
              "internalType": "int256"
            },
            {
              "name": "allowOverwrite",
              "type": "bool",
              "internalType": "bool"
            },
            {
              "name": "unverifiedReport",
              "type": "bytes",
              "internalType": "bytes"
            }
          ]
        }
      ],
      "outputs": [],
      "stateMutability": "nonpayable"
    },
    {
      "type": "function",
      "name": "forceClose",
      "inputs": [
        {
          "name": "perpId",
          "type": "uint256",
          "internalType": "uint256"
        },
        {
          "name": "posAccountId",
          "type": "uint256",
          "internalType": "uint256"
        },
        {
          "name": "sortedPositionIds",
          "type": "uint256[]",
          "internalType": "uint256[]"
        },
        {
          "name": "revertOnFail",
          "type": "bool",
          "internalType": "bool"
        }
      ],
      "outputs": [
        {
          "name": "success",
          "type": "bool",
          "internalType": "bool"
        }
      ],
      "stateMutability": "nonpayable"
    },
    {
      "type": "function",
      "name": "getAccountByAddr",
      "inputs": [
        {
          "name": "accountAddress",
          "type": "address",
          "internalType": "address"
        }
      ],
      "outputs": [
        {
          "name": "accountInfo",
          "type": "tuple",
          "internalType": "struct AccountInfo",
          "components": [
            {
              "name": "accountId",
              "type": "uint256",
              "internalType": "uint256"
            },
            {
              "name": "balanceCNS",
              "type": "uint256",
              "internalType": "uint256"
            },
            {
              "name": "lockedBalanceCNS",
              "type": "uint256",
              "internalType": "uint256"
            },
            {
              "name": "frozen",
              "type": "uint8",
              "internalType": "enum FreezeStatusEnum"
            },
            {
              "name": "accountAddr",
              "type": "address",
              "internalType": "address"
            },
            {
              "name": "positions",
              "type": "tuple",
              "internalType": "struct PositionBitMap",
              "components": [
                {
                  "name": "bank1",
                  "type": "uint256",
                  "internalType": "uint256"
                },
                {
                  "name": "bank2",
                  "type": "uint256",
                  "internalType": "uint256"
                },
                {
                  "name": "bank3",
                  "type": "uint256",
                  "internalType": "uint256"
                },
                {
                  "name": "bank4",
                  "type": "uint256",
                  "internalType": "uint256"
                }
              ]
            }
          ]
        }
      ],
      "stateMutability": "view"
    },
    {
      "type": "function",
      "name": "getAccountById",
      "inputs": [
        {
          "name": "accountId",
          "type": "uint256",
          "internalType": "uint256"
        }
      ],
      "outputs": [
        {
          "name": "accountInfo",
          "type": "tuple",
          "internalType": "struct AccountInfo",
          "components": [
            {
              "name": "accountId",
              "type": "uint256",
              "internalType": "uint256"
            },
            {
              "name": "balanceCNS",
              "type": "uint256",
              "internalType": "uint256"
            },
            {
              "name": "lockedBalanceCNS",
              "type": "uint256",
              "internalType": "uint256"
            },
            {
              "name": "frozen",
              "type": "uint8",
              "internalType": "enum FreezeStatusEnum"
            },
            {
              "name": "accountAddr",
              "type": "address",
              "internalType": "address"
            },
            {
              "name": "positions",
              "type": "tuple",
              "internalType": "struct PositionBitMap",
              "components": [
                {
                  "name": "bank1",
                  "type": "uint256",
                  "internalType": "uint256"
                },
                {
                  "name": "bank2",
                  "type": "uint256",
                  "internalType": "uint256"
                },
                {
                  "name": "bank3",
                  "type": "uint256",
                  "internalType": "uint256"
                },
                {
                  "name": "bank4",
                  "type": "uint256",
                  "internalType": "uint256"
                }
              ]
            }
          ]
        }
      ],
      "stateMutability": "view"
    },
    {
      "type": "function",
      "name": "getExchangeInfo",
      "inputs": [],
      "outputs": [
        {
          "name": "balanceCNS",
          "type": "uint256",
          "internalType": "uint256"
        },
        {
          "name": "protocolBalanceCNS",
          "type": "uint256",
          "internalType": "uint256"
        },
        {
          "name": "recycleBalanceCNS",
          "type": "uint256",
          "internalType": "uint256"
        },
        {
          "name": "collateralDecimals",
          "type": "uint256",
          "internalType": "uint256"
        },
        {
          "name": "verifierProxy",
          "type": "address",
          "internalType": "address"
        }
      ],
      "stateMutability": "view"
    },
    {
      "type": "function",
      "name": "getFundingClampPct",
      "inputs": [
        {
          "name": "perpId",
          "type": "uint256",
          "internalType": "uint256"
        }
      ],
      "outputs": [
        {
          "name": "maxAgeSec",
          "type": "uint256",
          "internalType": "uint256"
        }
      ],
      "stateMutability": "view"
    },
    {
      "type": "function",
      "name": "getFundingInterval",
      "inputs": [],
      "outputs": [
        {
          "name": "fundingInterval",
          "type": "uint256",
          "internalType": "uint256"
        }
      ],
      "stateMutability": "view"
    },
    {
      "type": "function",
      "name": "getIndexOracleMaxAge",
      "inputs": [
        {
          "name": "perpId",
          "type": "uint256",
          "internalType": "uint256"
        }
      ],
      "outputs": [
        {
          "name": "maxAgeSec",
          "type": "uint256",
          "internalType": "uint256"
        }
      ],
      "stateMutability": "view"
    },
    {
      "type": "function",
      "name": "getIndexOracleTolPer100k",
      "inputs": [
        {
          "name": "perpId",
          "type": "uint256",
          "internalType": "uint256"
        }
      ],
      "outputs": [
        {
          "name": "tolerancePer100k",
          "type": "uint256",
          "internalType": "uint256"
        }
      ],
      "stateMutability": "view"
    },
    {
      "type": "function",
      "name": "getMakerFee",
      "inputs": [
        {
          "name": "perpId",
          "type": "uint256",
          "internalType": "uint256"
        }
      ],
      "outputs": [
        {
          "name": "",
          "type": "uint256",
          "internalType": "uint256"
        }
      ],
      "stateMutability": "view"
    },
    {
      "type": "function",
      "name": "getMarginFractions",
      "inputs": [
        {
          "name": "perpId",
          "type": "uint256",
          "internalType": "uint256"
        },
        {
          "name": "lotLNS",
          "type": "uint256",
          "internalType": "uint256"
        }
      ],
      "outputs": [
        {
          "name": "perpInitMarginFracHdths",
          "type": "uint256",
          "internalType": "uint256"
        },
        {
          "name": "perpMaintMarginFracHdths",
          "type": "uint256",
          "internalType": "uint256"
        },
        {
          "name": "dynamicInitMarginFracHdths",
          "type": "uint256",
          "internalType": "uint256"
        },
        {
          "name": "oiMaxLNS",
          "type": "uint256",
          "internalType": "uint256"
        },
        {
          "name": "unityDescentThreshHdths",
          "type": "uint256",
          "internalType": "uint256"
        },
        {
          "name": "overColDescentThreshHdths",
          "type": "uint256",
          "internalType": "uint256"
        }
      ],
      "stateMutability": "view"
    },
    {
      "type": "function",
      "name": "getMinAccountOpenCNS",
      "inputs": [],
      "outputs": [
        {
          "name": "minAccountOpenCNS",
          "type": "uint256",
          "internalType": "uint256"
        }
      ],
      "stateMutability": "view"
    },
    {
      "type": "function",
      "name": "getMinimumPostCNS",
      "inputs": [],
      "outputs": [
        {
          "name": "minimumPostCNS",
          "type": "uint256",
          "internalType": "uint256"
        }
      ],
      "stateMutability": "view"
    },
    {
      "type": "function",
      "name": "getMinimumSettleCNS",
      "inputs": [],
      "outputs": [
        {
          "name": "minimumSettleCNS",
          "type": "uint256",
          "internalType": "uint256"
        }
      ],
      "stateMutability": "view"
    },
    {
      "type": "function",
      "name": "getNextPriceBelowWithOrders",
      "inputs": [
        {
          "name": "perpId",
          "type": "uint256",
          "internalType": "uint256"
        },
        {
          "name": "priceONS",
          "type": "uint256",
          "internalType": "uint256"
        }
      ],
      "outputs": [
        {
          "name": "priceBelowONS",
          "type": "uint256",
          "internalType": "uint256"
        }
      ],
      "stateMutability": "view"
    },
    {
      "type": "function",
      "name": "getOrder",
      "inputs": [
        {
          "name": "perpId",
          "type": "uint256",
          "internalType": "uint256"
        },
        {
          "name": "orderId",
          "type": "uint256",
          "internalType": "uint256"
        }
      ],
      "outputs": [
        {
          "name": "order",
          "type": "tuple",
          "internalType": "struct Order",
          "components": [
            {
              "name": "accountId",
              "type": "uint32",
              "internalType": "uint32"
            },
            {
              "name": "orderType",
              "type": "uint8",
              "internalType": "enum OrderEnum"
            },
            {
              "name": "priceONS",
              "type": "uint24",
              "internalType": "uint24"
            },
            {
              "name": "lotLNS",
              "type": "uint40",
              "internalType": "uint40"
            },
            {
              "name": "recycleFeeRaw",
              "type": "uint16",
              "internalType": "uint16"
            },
            {
              "name": "expiryBlock",
              "type": "uint32",
              "internalType": "uint32"
            },
            {
              "name": "leverageHdths",
              "type": "uint16",
              "internalType": "uint16"
            },
            {
              "name": "orderId",
              "type": "uint16",
              "internalType": "uint16"
            },
            {
              "name": "prevOrderId",
              "type": "uint16",
              "internalType": "uint16"
            },
            {
              "name": "nextOrderId",
              "type": "uint16",
              "internalType": "uint16"
            }
          ]
        }
      ],
      "stateMutability": "view"
    },
    {
      "type": "function",
      "name": "getOrderIdIndex",
      "inputs": [
        {
          "name": "perpId",
          "type": "uint256",
          "internalType": "uint256"
        }
      ],
      "outputs": [
        {
          "name": "root",
          "type": "uint256",
          "internalType": "uint256"
        },
        {
          "name": "leaves",
          "type": "uint256[]",
          "internalType": "uint256[]"
        },
        {
          "name": "numOrders",
          "type": "uint256",
          "internalType": "uint256"
        }
      ],
      "stateMutability": "view"
    },
    {
      "type": "function",
      "name": "getOrderLocks",
      "inputs": [
        {
          "name": "accountId",
          "type": "uint256",
          "internalType": "uint256"
        }
      ],
      "outputs": [
        {
          "name": "orderLocks",
          "type": "tuple[]",
          "internalType": "struct OrderLock[]",
          "components": [
            {
              "name": "orderLockId",
              "type": "uint32",
              "internalType": "uint32"
            },
            {
              "name": "nextOrderLockId",
              "type": "uint32",
              "internalType": "uint32"
            },
            {
              "name": "prevOrderLockId",
              "type": "uint32",
              "internalType": "uint32"
            },
            {
              "name": "orderType",
              "type": "uint8",
              "internalType": "enum OrderEnum"
            },
            {
              "name": "lotLNS",
              "type": "uint40",
              "internalType": "uint40"
            },
            {
              "name": "amountCNS",
              "type": "uint80",
              "internalType": "uint80"
            }
          ]
        }
      ],
      "stateMutability": "view"
    },
    {
      "type": "function",
      "name": "getOrdersAtPriceLevel",
      "inputs": [
        {
          "name": "perpId",
          "type": "uint256",
          "internalType": "uint256"
        },
        {
          "name": "priceONS",
          "type": "uint256",
          "internalType": "uint256"
        },
        {
          "name": "pageStartOrderId",
          "type": "uint256",
          "internalType": "uint256"
        },
        {
          "name": "ordersPerPage",
          "type": "uint256",
          "internalType": "uint256"
        }
      ],
      "outputs": [
        {
          "name": "ordersAtPriceLevel",
          "type": "tuple[]",
          "internalType": "struct Order[]",
          "components": [
            {
              "name": "accountId",
              "type": "uint32",
              "internalType": "uint32"
            },
            {
              "name": "orderType",
              "type": "uint8",
              "internalType": "enum OrderEnum"
            },
            {
              "name": "priceONS",
              "type": "uint24",
              "internalType": "uint24"
            },
            {
              "name": "lotLNS",
              "type": "uint40",
              "internalType": "uint40"
            },
            {
              "name": "recycleFeeRaw",
              "type": "uint16",
              "internalType": "uint16"
            },
            {
              "name": "expiryBlock",
              "type": "uint32",
              "internalType": "uint32"
            },
            {
              "name": "leverageHdths",
              "type": "uint16",
              "internalType": "uint16"
            },
            {
              "name": "orderId",
              "type": "uint16",
              "internalType": "uint16"
            },
            {
              "name": "prevOrderId",
              "type": "uint16",
              "internalType": "uint16"
            },
            {
              "name": "nextOrderId",
              "type": "uint16",
              "internalType": "uint16"
            }
          ]
        },
        {
          "name": "numOrders",
          "type": "uint256",
          "internalType": "uint256"
        }
      ],
      "stateMutability": "view"
    },
    {
      "type": "function",
      "name": "getOwner",
      "inputs": [],
      "outputs": [
        {
          "name": "",
          "type": "address",
          "internalType": "address"
        }
      ],
      "stateMutability": "view"
    },
    {
      "type": "function",
      "name": "getPermissionedCancelParams",
      "inputs": [
        {
          "name": "perpId",
          "type": "uint256",
          "internalType": "uint256"
        }
      ],
      "outputs": [
        {
          "name": "permCancelMinOrders",
          "type": "uint256",
          "internalType": "uint256"
        },
        {
          "name": "permCancelSegment",
          "type": "uint256",
          "internalType": "uint256"
        }
      ],
      "stateMutability": "view"
    },
    {
      "type": "function",
      "name": "getPerpOrderLocks",
      "inputs": [
        {
          "name": "accountId",
          "type": "uint256",
          "internalType": "uint256"
        },
        {
          "name": "perpId",
          "type": "uint256",
          "internalType": "uint256"
        }
      ],
      "outputs": [
        {
          "name": "perpOrderLocks",
          "type": "tuple[]",
          "internalType": "struct OrderLock[]",
          "components": [
            {
              "name": "orderLockId",
              "type": "uint32",
              "internalType": "uint32"
            },
            {
              "name": "nextOrderLockId",
              "type": "uint32",
              "internalType": "uint32"
            },
            {
              "name": "prevOrderLockId",
              "type": "uint32",
              "internalType": "uint32"
            },
            {
              "name": "orderType",
              "type": "uint8",
              "internalType": "enum OrderEnum"
            },
            {
              "name": "lotLNS",
              "type": "uint40",
              "internalType": "uint40"
            },
            {
              "name": "amountCNS",
              "type": "uint80",
              "internalType": "uint80"
            }
          ]
        }
      ],
      "stateMutability": "view"
    },
    {
      "type": "function",
      "name": "getPerpetualInfo",
      "inputs": [
        {
          "name": "perpId",
          "type": "uint256",
          "internalType": "uint256"
        }
      ],
      "outputs": [
        {
          "name": "perpetualInfo",
          "type": "tuple",
          "internalType": "struct PerpetualInfo",
          "components": [
            {
              "name": "name",
              "type": "string",
              "internalType": "string"
            },
            {
              "name": "symbol",
              "type": "string",
              "internalType": "string"
            },
            {
              "name": "priceDecimals",
              "type": "uint256",
              "internalType": "uint256"
            },
            {
              "name": "lotDecimals",
              "type": "uint256",
              "internalType": "uint256"
            },
            {
              "name": "linkFeedId",
              "type": "bytes32",
              "internalType": "bytes32"
            },
            {
              "name": "indexOracleTolPer100k",
              "type": "uint256",
              "internalType": "uint256"
            },
            {
              "name": "refPriceMaxAgeSec",
              "type": "uint256",
              "internalType": "uint256"
            },
            {
              "name": "positionBalanceCNS",
              "type": "uint256",
              "internalType": "uint256"
            },
            {
              "name": "insuranceBalanceCNS",
              "type": "uint256",
              "internalType": "uint256"
            },
            {
              "name": "indexPNS",
              "type": "uint256",
              "internalType": "uint256"
            },
            {
              "name": "indexTimestamp",
              "type": "uint256",
              "internalType": "uint256"
            },
            {
              "name": "markPNS",
              "type": "uint256",
              "internalType": "uint256"
            },
            {
              "name": "markTimestamp",
              "type": "uint256",
              "internalType": "uint256"
            },
            {
              "name": "oraclePNS",
              "type": "uint256",
              "internalType": "uint256"
            },
            {
              "name": "oracleTimestampSec",
              "type": "uint256",
              "internalType": "uint256"
            },
            {
              "name": "longOpenInterestLNS",
              "type": "uint256",
              "internalType": "uint256"
            },
            {
              "name": "shortOpenInterestLNS",
              "type": "uint256",
              "internalType": "uint256"
            },
            {
              "name": "fundingStartBlock",
              "type": "uint256",
              "internalType": "uint256"
            },
            {
              "name": "absFundingClampPctPer100K",
              "type": "uint256",
              "internalType": "uint256"
            },
            {
              "name": "paused",
              "type": "bool",
              "internalType": "bool"
            },
            {
              "name": "basePricePNS",
              "type": "uint256",
              "internalType": "uint256"
            },
            {
              "name": "maxBidPriceONS",
              "type": "uint256",
              "internalType": "uint256"
            },
            {
              "name": "minBidPriceONS",
              "type": "uint256",
              "internalType": "uint256"
            },
            {
              "name": "maxAskPriceONS",
              "type": "uint256",
              "internalType": "uint256"
            },
            {
              "name": "minAskPriceONS",
              "type": "uint256",
              "internalType": "uint256"
            },
            {
              "name": "numOrders",
              "type": "uint256",
              "internalType": "uint256"
            },
            {
              "name": "ignOracle",
              "type": "bool",
              "internalType": "bool"
            }
          ]
        }
      ],
      "stateMutability": "view"
    },
    {
      "type": "function",
      "name": "getPosition",
      "inputs": [
        {
          "name": "perpId",
          "type": "uint256",
          "internalType": "uint256"
        },
        {
          "name": "accountId",
          "type": "uint256",
          "internalType": "uint256"
        }
      ],
      "outputs": [
        {
          "name": "positionInfo",
          "type": "tuple",
          "internalType": "struct PositionInfo",
          "components": [
            {
              "name": "accountId",
              "type": "uint256",
              "internalType": "uint256"
            },
            {
              "name": "nextNodeId",
              "type": "uint256",
              "internalType": "uint256"
            },
            {
              "name": "prevNodeId",
              "type": "uint256",
              "internalType": "uint256"
            },
            {
              "name": "positionType",
              "type": "uint8",
              "internalType": "enum PositionEnum"
            },
            {
              "name": "depositCNS",
              "type": "uint256",
              "internalType": "uint256"
            },
            {
              "name": "pricePNS",
              "type": "uint256",
              "internalType": "uint256"
            },
            {
              "name": "lotLNS",
              "type": "uint256",
              "internalType": "uint256"
            },
            {
              "name": "entryBlock",
              "type": "uint256",
              "internalType": "uint256"
            },
            {
              "name": "pnlCNS",
              "type": "int256",
              "internalType": "int256"
            },
            {
              "name": "deltaPnlCNS",
              "type": "int256",
              "internalType": "int256"
            },
            {
              "name": "premiumPnlCNS",
              "type": "int256",
              "internalType": "int256"
            }
          ]
        }
      ],
      "stateMutability": "view"
    },
    {
      "type": "function",
      "name": "getPositionIds",
      "inputs": [
        {
          "name": "perpId",
          "type": "uint256",
          "internalType": "uint256"
        }
      ],
      "outputs": [
        {
          "name": "startNodeId",
          "type": "uint256",
          "internalType": "uint256"
        },
        {
          "name": "endNodeId",
          "type": "uint256",
          "internalType": "uint256"
        }
      ],
      "stateMutability": "view"
    },
    {
      "type": "function",
      "name": "getPositions",
      "inputs": [
        {
          "name": "perpId",
          "type": "uint256",
          "internalType": "uint256"
        },
        {
          "name": "pageStartPositionId",
          "type": "uint256",
          "internalType": "uint256"
        },
        {
          "name": "positionsPerPage",
          "type": "uint256",
          "internalType": "uint256"
        }
      ],
      "outputs": [
        {
          "name": "positions",
          "type": "tuple[]",
          "internalType": "struct PositionInfo[]",
          "components": [
            {
              "name": "accountId",
              "type": "uint256",
              "internalType": "uint256"
            },
            {
              "name": "nextNodeId",
              "type": "uint256",
              "internalType": "uint256"
            },
            {
              "name": "prevNodeId",
              "type": "uint256",
              "internalType": "uint256"
            },
            {
              "name": "positionType",
              "type": "uint8",
              "internalType": "enum PositionEnum"
            },
            {
              "name": "depositCNS",
              "type": "uint256",
              "internalType": "uint256"
            },
            {
              "name": "pricePNS",
              "type": "uint256",
              "internalType": "uint256"
            },
            {
              "name": "lotLNS",
              "type": "uint256",
              "internalType": "uint256"
            },
            {
              "name": "entryBlock",
              "type": "uint256",
              "internalType": "uint256"
            },
            {
              "name": "pnlCNS",
              "type": "int256",
              "internalType": "int256"
            },
            {
              "name": "deltaPnlCNS",
              "type": "int256",
              "internalType": "int256"
            },
            {
              "name": "premiumPnlCNS",
              "type": "int256",
              "internalType": "int256"
            }
          ]
        },
        {
          "name": "numPositions",
          "type": "uint256",
          "internalType": "uint256"
        }
      ],
      "stateMutability": "view"
    },
    {
      "type": "function",
      "name": "getPriceLevelOrderIds",
      "inputs": [
        {
          "name": "perpId",
          "type": "uint256",
          "internalType": "uint256"
        },
        {
          "name": "priceONS",
          "type": "uint256",
          "internalType": "uint256"
        }
      ],
      "outputs": [
        {
          "name": "startOrderId",
          "type": "uint256",
          "internalType": "uint256"
        },
        {
          "name": "endOrderId",
          "type": "uint256",
          "internalType": "uint256"
        }
      ],
      "stateMutability": "view"
    },
    {
      "type": "function",
      "name": "getProtocolBalanceCNS",
      "inputs": [],
      "outputs": [
        {
          "name": "protocolBalanceCNS",
          "type": "uint256",
          "internalType": "uint256"
        }
      ],
      "stateMutability": "view"
    },
    {
      "type": "function",
      "name": "getRecycleBalanceCNS",
      "inputs": [],
      "outputs": [
        {
          "name": "recycleBalanceCNS",
          "type": "uint256",
          "internalType": "uint256"
        }
      ],
      "stateMutability": "view"
    },
    {
      "type": "function",
      "name": "getRecycleFeeCNS",
      "inputs": [],
      "outputs": [
        {
          "name": "recycleFeeCNS",
          "type": "uint256",
          "internalType": "uint256"
        }
      ],
      "stateMutability": "view"
    },
    {
      "type": "function",
      "name": "getTakerFee",
      "inputs": [
        {
          "name": "perpId",
          "type": "uint256",
          "internalType": "uint256"
        }
      ],
      "outputs": [
        {
          "name": "",
          "type": "uint256",
          "internalType": "uint256"
        }
      ],
      "stateMutability": "view"
    },
    {
      "type": "function",
      "name": "getUnwindInfo",
      "inputs": [
        {
          "name": "perpId",
          "type": "uint256",
          "internalType": "uint256"
        }
      ],
      "outputs": [
        {
          "name": "unwindInitialized",
          "type": "bool",
          "internalType": "bool"
        },
        {
          "name": "unwindStarted",
          "type": "bool",
          "internalType": "bool"
        },
        {
          "name": "unwindSumPositiveFmvCNS",
          "type": "uint256",
          "internalType": "uint256"
        },
        {
          "name": "unwindInitPosBalCNS",
          "type": "uint256",
          "internalType": "uint256"
        }
      ],
      "stateMutability": "view"
    },
    {
      "type": "function",
      "name": "getVolumeAtBookPrice",
      "inputs": [
        {
          "name": "perpId",
          "type": "uint256",
          "internalType": "uint256"
        },
        {
          "name": "priceONS",
          "type": "uint256",
          "internalType": "uint256"
        }
      ],
      "outputs": [
        {
          "name": "bids",
          "type": "uint256",
          "internalType": "uint256"
        },
        {
          "name": "expBids",
          "type": "uint256",
          "internalType": "uint256"
        },
        {
          "name": "asks",
          "type": "uint256",
          "internalType": "uint256"
        },
        {
          "name": "expAsks",
          "type": "uint256",
          "internalType": "uint256"
        }
      ],
      "stateMutability": "view"
    },
    {
      "type": "function",
      "name": "getWithdrawAllowanceData",
      "inputs": [
        {
          "name": "blockNumber",
          "type": "uint256",
          "internalType": "uint256"
        }
      ],
      "outputs": [
        {
          "name": "allowanceCNS",
          "type": "uint256",
          "internalType": "uint256"
        },
        {
          "name": "expiryBlock",
          "type": "uint256",
          "internalType": "uint256"
        },
        {
          "name": "lastAllowanceBlock",
          "type": "uint256",
          "internalType": "uint256"
        },
        {
          "name": "cnsPerBlock",
          "type": "uint256",
          "internalType": "uint256"
        }
      ],
      "stateMutability": "view"
    },
    {
      "type": "function",
      "name": "increasePositionCollateral",
      "inputs": [
        {
          "name": "perpId",
          "type": "uint256",
          "internalType": "uint256"
        },
        {
          "name": "amountCNS",
          "type": "uint256",
          "internalType": "uint256"
        }
      ],
      "outputs": [],
      "stateMutability": "nonpayable"
    },
    {
      "type": "function",
      "name": "initUnwindContract",
      "inputs": [
        {
          "name": "perpId",
          "type": "uint256",
          "internalType": "uint256"
        },
        {
          "name": "sumPositiveFmvCNS",
          "type": "uint256",
          "internalType": "uint256"
        }
      ],
      "outputs": [],
      "stateMutability": "nonpayable"
    },
    {
      "type": "function",
      "name": "isAdministrator",
      "inputs": [
        {
          "name": "anAddress",
          "type": "address",
          "internalType": "address"
        }
      ],
      "outputs": [
        {
          "name": "",
          "type": "bool",
          "internalType": "bool"
        }
      ],
      "stateMutability": "view"
    },
    {
      "type": "function",
      "name": "isHalted",
      "inputs": [],
      "outputs": [
        {
          "name": "halted",
          "type": "bool",
          "internalType": "bool"
        }
      ],
      "stateMutability": "view"
    },
    {
      "type": "function",
      "name": "isPositionAdministrator",
      "inputs": [
        {
          "name": "anAddress",
          "type": "address",
          "internalType": "address"
        }
      ],
      "outputs": [
        {
          "name": "",
          "type": "bool",
          "internalType": "bool"
        }
      ],
      "stateMutability": "view"
    },
    {
      "type": "function",
      "name": "isPriceAdministrator",
      "inputs": [
        {
          "name": "anAddress",
          "type": "address",
          "internalType": "address"
        }
      ],
      "outputs": [
        {
          "name": "",
          "type": "bool",
          "internalType": "bool"
        }
      ],
      "stateMutability": "view"
    },
    {
      "type": "function",
      "name": "liquidation",
      "inputs": [
        {
          "name": "liquidationDesc",
          "type": "tuple",
          "internalType": "struct LiquidationDesc",
          "components": [
            {
              "name": "perpId",
              "type": "uint256",
              "internalType": "uint256"
            },
            {
              "name": "posAccountId",
              "type": "uint256",
              "internalType": "uint256"
            },
            {
              "name": "lotLNS",
              "type": "uint256",
              "internalType": "uint256"
            },
            {
              "name": "userProceedsToPosition",
              "type": "bool",
              "internalType": "bool"
            }
          ]
        }
      ],
      "outputs": [],
      "stateMutability": "nonpayable"
    },
    {
      "type": "function",
      "name": "liquidations",
      "inputs": [
        {
          "name": "liquidationDescs",
          "type": "tuple[]",
          "internalType": "struct LiquidationDesc[]",
          "components": [
            {
              "name": "perpId",
              "type": "uint256",
              "internalType": "uint256"
            },
            {
              "name": "posAccountId",
              "type": "uint256",
              "internalType": "uint256"
            },
            {
              "name": "lotLNS",
              "type": "uint256",
              "internalType": "uint256"
            },
            {
              "name": "userProceedsToPosition",
              "type": "bool",
              "internalType": "bool"
            }
          ]
        },
        {
          "name": "revertOnFail",
          "type": "bool",
          "internalType": "bool"
        }
      ],
      "outputs": [],
      "stateMutability": "nonpayable"
    },
    {
      "type": "function",
      "name": "numberOfAccounts",
      "inputs": [],
      "outputs": [
        {
          "name": "numAccounts",
          "type": "uint256",
          "internalType": "uint256"
        }
      ],
      "stateMutability": "view"
    },
    {
      "type": "function",
      "name": "owner",
      "inputs": [],
      "outputs": [
        {
          "name": "",
          "type": "address",
          "internalType": "address"
        }
      ],
      "stateMutability": "view"
    },
    {
      "type": "function",
      "name": "pauseContract",
      "inputs": [
        {
          "name": "perpId",
          "type": "uint256",
          "internalType": "uint256"
        }
      ],
      "outputs": [],
      "stateMutability": "nonpayable"
    },
    {
      "type": "function",
      "name": "pendingOwner",
      "inputs": [],
      "outputs": [
        {
          "name": "",
          "type": "address",
          "internalType": "address"
        }
      ],
      "stateMutability": "view"
    },
    {
      "type": "function",
      "name": "removeContract",
      "inputs": [
        {
          "name": "perpId",
          "type": "uint256",
          "internalType": "uint256"
        }
      ],
      "outputs": [],
      "stateMutability": "nonpayable"
    },
    {
      "type": "function",
      "name": "renounceOwnership",
      "inputs": [],
      "outputs": [],
      "stateMutability": "nonpayable"
    },
    {
      "type": "function",
      "name": "setAdministrator",
      "inputs": [
        {
          "name": "administrator",
          "type": "address",
          "internalType": "address"
        },
        {
          "name": "add",
          "type": "bool",
          "internalType": "bool"
        }
      ],
      "outputs": [],
      "stateMutability": "nonpayable"
    },
    {
      "type": "function",
      "name": "setContractPaused",
      "inputs": [
        {
          "name": "perpId",
          "type": "uint256",
          "internalType": "uint256"
        },
        {
          "name": "paused",
          "type": "bool",
          "internalType": "bool"
        }
      ],
      "outputs": [],
      "stateMutability": "nonpayable"
    },
    {
      "type": "function",
      "name": "setExchangeHalted",
      "inputs": [
        {
          "name": "halted",
          "type": "bool",
          "internalType": "bool"
        }
      ],
      "outputs": [],
      "stateMutability": "nonpayable"
    },
    {
      "type": "function",
      "name": "setFeeParams",
      "inputs": [
        {
          "name": "perpId",
          "type": "uint256",
          "internalType": "uint256"
        },
        {
          "name": "insAmtPer100K",
          "type": "uint256",
          "internalType": "uint256"
        }
      ],
      "outputs": [],
      "stateMutability": "nonpayable"
    },
    {
      "type": "function",
      "name": "setFreezeStatus",
      "inputs": [
        {
          "name": "account",
          "type": "address",
          "internalType": "address"
        },
        {
          "name": "status",
          "type": "uint8",
          "internalType": "enum FreezeStatusEnum"
        }
      ],
      "outputs": [],
      "stateMutability": "nonpayable"
    },
    {
      "type": "function",
      "name": "setFrozen",
      "inputs": [
        {
          "name": "account",
          "type": "address",
          "internalType": "address"
        },
        {
          "name": "status",
          "type": "uint8",
          "internalType": "enum FreezeStatusEnum"
        }
      ],
      "outputs": [],
      "stateMutability": "nonpayable"
    },
    {
      "type": "function",
      "name": "setFundingClampPct",
      "inputs": [
        {
          "name": "perpId",
          "type": "uint256",
          "internalType": "uint256"
        },
        {
          "name": "absFundingClampPctPer100K",
          "type": "uint256",
          "internalType": "uint256"
        }
      ],
      "outputs": [],
      "stateMutability": "nonpayable"
    },
    {
      "type": "function",
      "name": "setFundingSum",
      "inputs": [
        {
          "name": "perpId",
          "type": "uint256",
          "internalType": "uint256"
        },
        {
          "name": "fundingRatePct100k",
          "type": "int256",
          "internalType": "int256"
        },
        {
          "name": "indexPricePNS",
          "type": "uint32",
          "internalType": "uint32"
        },
        {
          "name": "allowOverwrite",
          "type": "bool",
          "internalType": "bool"
        },
        {
          "name": "revertOnFail",
          "type": "bool",
          "internalType": "bool"
        }
      ],
      "outputs": [],
      "stateMutability": "nonpayable"
    },
    {
      "type": "function",
      "name": "setIgnOracle",
      "inputs": [
        {
          "name": "perpId",
          "type": "uint256",
          "internalType": "uint256"
        },
        {
          "name": "ignOracle",
          "type": "bool",
          "internalType": "bool"
        }
      ],
      "outputs": [],
      "stateMutability": "nonpayable"
    },
    {
      "type": "function",
      "name": "setIndexOracleMaxAge",
      "inputs": [
        {
          "name": "perpId",
          "type": "uint256",
          "internalType": "uint256"
        },
        {
          "name": "maxAgeSec",
          "type": "uint256",
          "internalType": "uint256"
        }
      ],
      "outputs": [],
      "stateMutability": "nonpayable"
    },
    {
      "type": "function",
      "name": "setIndexOracleTolPer100k",
      "inputs": [
        {
          "name": "perpId",
          "type": "uint256",
          "internalType": "uint256"
        },
        {
          "name": "tolerancePer100k",
          "type": "uint256",
          "internalType": "uint256"
        }
      ],
      "outputs": [],
      "stateMutability": "nonpayable"
    },
    {
      "type": "function",
      "name": "setInitialMarginFraction",
      "inputs": [
        {
          "name": "perpId",
          "type": "uint256",
          "internalType": "uint256"
        },
        {
          "name": "initMarginFracHdths",
          "type": "uint256",
          "internalType": "uint256"
        }
      ],
      "outputs": [],
      "stateMutability": "nonpayable"
    },
    {
      "type": "function",
      "name": "setLinkDsVerifier",
      "inputs": [
        {
          "name": "verifierProxy",
          "type": "address",
          "internalType": "address"
        }
      ],
      "outputs": [],
      "stateMutability": "nonpayable"
    },
    {
      "type": "function",
      "name": "setLiquidationParams",
      "inputs": [
        {
          "name": "perpId",
          "type": "uint256",
          "internalType": "uint256"
        },
        {
          "name": "insAmtPer100K",
          "type": "uint256",
          "internalType": "uint256"
        },
        {
          "name": "userAmtPer100K",
          "type": "uint256",
          "internalType": "uint256"
        }
      ],
      "outputs": [],
      "stateMutability": "nonpayable"
    },
    {
      "type": "function",
      "name": "setMaintenanceMarginFraction",
      "inputs": [
        {
          "name": "perpId",
          "type": "uint256",
          "internalType": "uint256"
        },
        {
          "name": "maintMarginFracHdths",
          "type": "uint256",
          "internalType": "uint256"
        }
      ],
      "outputs": [],
      "stateMutability": "nonpayable"
    },
    {
      "type": "function",
      "name": "setMakerFee",
      "inputs": [
        {
          "name": "perpId",
          "type": "uint256",
          "internalType": "uint256"
        },
        {
          "name": "makerFeePer100K",
          "type": "uint256",
          "internalType": "uint256"
        }
      ],
      "outputs": [],
      "stateMutability": "nonpayable"
    },
    {
      "type": "function",
      "name": "setMaxOpenInterest",
      "inputs": [
        {
          "name": "perpId",
          "type": "uint256",
          "internalType": "uint256"
        },
        {
          "name": "maxOpenInterestLNS",
          "type": "uint256",
          "internalType": "uint256"
        }
      ],
      "outputs": [],
      "stateMutability": "nonpayable"
    },
    {
      "type": "function",
      "name": "setMinAccountOpenAmount",
      "inputs": [
        {
          "name": "amountCNS",
          "type": "uint256",
          "internalType": "uint256"
        }
      ],
      "outputs": [],
      "stateMutability": "nonpayable"
    },
    {
      "type": "function",
      "name": "setMinPost",
      "inputs": [
        {
          "name": "minPostCNS",
          "type": "uint256",
          "internalType": "uint256"
        }
      ],
      "outputs": [],
      "stateMutability": "nonpayable"
    },
    {
      "type": "function",
      "name": "setMinSettle",
      "inputs": [
        {
          "name": "minSettleCNS",
          "type": "uint256",
          "internalType": "uint256"
        }
      ],
      "outputs": [],
      "stateMutability": "nonpayable"
    },
    {
      "type": "function",
      "name": "setOverCollatDescentThreshold",
      "inputs": [
        {
          "name": "perpId",
          "type": "uint256",
          "internalType": "uint256"
        },
        {
          "name": "threshHdths",
          "type": "uint256",
          "internalType": "uint256"
        }
      ],
      "outputs": [],
      "stateMutability": "nonpayable"
    },
    {
      "type": "function",
      "name": "setPermissionedCancelParams",
      "inputs": [
        {
          "name": "perpId",
          "type": "uint256",
          "internalType": "uint256"
        },
        {
          "name": "permCancelMinOrders",
          "type": "uint256",
          "internalType": "uint256"
        },
        {
          "name": "permCancelSegment",
          "type": "uint256",
          "internalType": "uint256"
        }
      ],
      "outputs": [],
      "stateMutability": "nonpayable"
    },
    {
      "type": "function",
      "name": "setPerpLinkDsFeedId",
      "inputs": [
        {
          "name": "perpId",
          "type": "uint256",
          "internalType": "uint256"
        },
        {
          "name": "feedId",
          "type": "bytes32",
          "internalType": "bytes32"
        }
      ],
      "outputs": [],
      "stateMutability": "nonpayable"
    },
    {
      "type": "function",
      "name": "setPositionAdministrator",
      "inputs": [
        {
          "name": "positionAdministrator",
          "type": "address",
          "internalType": "address"
        },
        {
          "name": "add",
          "type": "bool",
          "internalType": "bool"
        }
      ],
      "outputs": [],
      "stateMutability": "nonpayable"
    },
    {
      "type": "function",
      "name": "setPriceAdministrator",
      "inputs": [
        {
          "name": "priceAdministrator",
          "type": "address",
          "internalType": "address"
        },
        {
          "name": "add",
          "type": "bool",
          "internalType": "bool"
        }
      ],
      "outputs": [],
      "stateMutability": "nonpayable"
    },
    {
      "type": "function",
      "name": "setRecycleFee",
      "inputs": [
        {
          "name": "recycleFeeCNS",
          "type": "uint256",
          "internalType": "uint256"
        }
      ],
      "outputs": [],
      "stateMutability": "nonpayable"
    },
    {
      "type": "function",
      "name": "setTakerFee",
      "inputs": [
        {
          "name": "perpId",
          "type": "uint256",
          "internalType": "uint256"
        },
        {
          "name": "takerFeePer100K",
          "type": "uint256",
          "internalType": "uint256"
        }
      ],
      "outputs": [],
      "stateMutability": "nonpayable"
    },
    {
      "type": "function",
      "name": "setThousandthsTvlWRLS",
      "inputs": [
        {
          "name": "thousandthsTvl",
          "type": "uint256",
          "internalType": "uint256"
        }
      ],
      "outputs": [],
      "stateMutability": "nonpayable"
    },
    {
      "type": "function",
      "name": "setUnityDescentThreshold",
      "inputs": [
        {
          "name": "perpId",
          "type": "uint256",
          "internalType": "uint256"
        },
        {
          "name": "threshHdths",
          "type": "uint256",
          "internalType": "uint256"
        }
      ],
      "outputs": [],
      "stateMutability": "nonpayable"
    },
    {
      "type": "function",
      "name": "transferOwnership",
      "inputs": [
        {
          "name": "newOwner",
          "type": "address",
          "internalType": "address"
        }
      ],
      "outputs": [],
      "stateMutability": "nonpayable"
    },
    {
      "type": "function",
      "name": "unwindContract",
      "inputs": [
        {
          "name": "perpId",
          "type": "uint256",
          "internalType": "uint256"
        },
        {
          "name": "maxPosToUnwind",
          "type": "uint256",
          "internalType": "uint256"
        },
        {
          "name": "allowWithoutPayment",
          "type": "bool",
          "internalType": "bool"
        }
      ],
      "outputs": [],
      "stateMutability": "nonpayable"
    },
    {
      "type": "function",
      "name": "updateIndexPricePNS",
      "inputs": [
        {
          "name": "perpId",
          "type": "uint256",
          "internalType": "uint256"
        },
        {
          "name": "indexPricePNS",
          "type": "uint256",
          "internalType": "uint256"
        }
      ],
      "outputs": [],
      "stateMutability": "nonpayable"
    },
    {
      "type": "function",
      "name": "updateOraclePrice",
      "inputs": [
        {
          "name": "perpId",
          "type": "uint256",
          "internalType": "uint256"
        },
        {
          "name": "unverifiedReport",
          "type": "bytes",
          "internalType": "bytes"
        }
      ],
      "outputs": [],
      "stateMutability": "nonpayable"
    },
    {
      "type": "function",
      "name": "withdrawCollateral",
      "inputs": [
        {
          "name": "amountCNS",
          "type": "uint256",
          "internalType": "uint256"
        }
      ],
      "outputs": [],
      "stateMutability": "nonpayable"
    },
    {
      "type": "function",
      "name": "withdrawFromProtocol",
      "inputs": [
        {
          "name": "amountCNS",
          "type": "uint256",
          "internalType": "uint256"
        }
      ],
      "outputs": [],
      "stateMutability": "nonpayable"
    },
    {
      "type": "function",
      "name": "xferAcctToProtocol",
      "inputs": [
        {
          "name": "amountCNS",
          "type": "uint256",
          "internalType": "uint256"
        }
      ],
      "outputs": [],
      "stateMutability": "nonpayable"
    },
    {
      "type": "function",
      "name": "xferPerpInsToProtocol",
      "inputs": [
        {
          "name": "perpId",
          "type": "uint256",
          "internalType": "uint256"
        },
        {
          "name": "amountCNS",
          "type": "uint256",
          "internalType": "uint256"
        }
      ],
      "outputs": [],
      "stateMutability": "nonpayable"
    },
    {
      "type": "function",
      "name": "xferProtocolToAcct",
      "inputs": [
        {
          "name": "accountId",
          "type": "uint256",
          "internalType": "uint256"
        },
        {
          "name": "amountCNS",
          "type": "uint256",
          "internalType": "uint256"
        }
      ],
      "outputs": [],
      "stateMutability": "nonpayable"
    },
    {
      "type": "function",
      "name": "xferProtocolToPerp",
      "inputs": [
        {
          "name": "perpId",
          "type": "uint256",
          "internalType": "uint256"
        },
        {
          "name": "amountCNS",
          "type": "uint256",
          "internalType": "uint256"
        },
        {
          "name": "insurance",
          "type": "bool",
          "internalType": "bool"
        }
      ],
      "outputs": [],
      "stateMutability": "nonpayable"
    },
    {
      "type": "function",
      "name": "xferProtocolToRecycleBal",
      "inputs": [
        {
          "name": "amountCNS",
          "type": "uint256",
          "internalType": "uint256"
        }
      ],
      "outputs": [],
      "stateMutability": "nonpayable"
    },
    {
      "type": "event",
      "name": "AccountCreated",
      "inputs": [
        {
          "name": "account",
          "type": "address",
          "indexed": false,
          "internalType": "address"
        },
        {
          "name": "id",
          "type": "uint256",
          "indexed": false,
          "internalType": "uint256"
        }
      ],
      "anonymous": false
    },
    {
      "type": "event",
      "name": "AccountFreeze",
      "inputs": [
        {
          "name": "accountId",
          "type": "uint256",
          "indexed": false,
          "internalType": "uint256"
        },
        {
          "name": "status",
          "type": "uint8",
          "indexed": false,
          "internalType": "enum FreezeStatusEnum"
        }
      ],
      "anonymous": false
    },
    {
      "type": "event",
      "name": "AccountFrozen",
      "inputs": [
        {
          "name": "status",
          "type": "uint8",
          "indexed": false,
          "internalType": "enum FreezeStatusEnum"
        }
      ],
      "anonymous": false
    },
    {
      "type": "event",
      "name": "AdministratorUpdated",
      "inputs": [
        {
          "name": "administator",
          "type": "address",
          "indexed": false,
          "internalType": "address"
        },
        {
          "name": "added",
          "type": "bool",
          "indexed": false,
          "internalType": "bool"
        }
      ],
      "anonymous": false
    },
    {
      "type": "event",
      "name": "AmountExceedsAvailableBalance",
      "inputs": [
        {
          "name": "amountCNS",
          "type": "uint256",
          "indexed": false,
          "internalType": "uint256"
        },
        {
          "name": "availableBalanceCNS",
          "type": "uint256",
          "indexed": false,
          "internalType": "uint256"
        },
        {
          "name": "balanceCNS",
          "type": "uint256",
          "indexed": false,
          "internalType": "uint256"
        }
      ],
      "anonymous": false
    },
    {
      "type": "event",
      "name": "BankruptcyPriceExceedsReferencePrice",
      "inputs": [
        {
          "name": "perpId",
          "type": "uint256",
          "indexed": false,
          "internalType": "uint256"
        },
        {
          "name": "accountId",
          "type": "uint256",
          "indexed": false,
          "internalType": "uint256"
        },
        {
          "name": "positionType",
          "type": "uint8",
          "indexed": false,
          "internalType": "enum PositionEnum"
        },
        {
          "name": "bankruptcyPricePNS",
          "type": "uint256",
          "indexed": false,
          "internalType": "uint256"
        },
        {
          "name": "refPricePNS",
          "type": "uint256",
          "indexed": false,
          "internalType": "uint256"
        },
        {
          "name": "refIsIndex",
          "type": "bool",
          "indexed": false,
          "internalType": "bool"
        }
      ],
      "anonymous": false
    },
    {
      "type": "event",
      "name": "CancelExistingInvalidCloseOrders",
      "inputs": [
        {
          "name": "lockedLotLNS",
          "type": "uint256",
          "indexed": false,
          "internalType": "uint256"
        },
        {
          "name": "lockedPositionType",
          "type": "uint8",
          "indexed": false,
          "internalType": "enum PositionEnum"
        },
        {
          "name": "newPositionType",
          "type": "uint8",
          "indexed": false,
          "internalType": "enum PositionEnum"
        }
      ],
      "anonymous": false
    },
    {
      "type": "event",
      "name": "CantChangeCloseOrder",
      "inputs": [
        {
          "name": "perpId",
          "type": "uint256",
          "indexed": false,
          "internalType": "uint256"
        },
        {
          "name": "orderId",
          "type": "uint256",
          "indexed": false,
          "internalType": "uint256"
        },
        {
          "name": "accountId",
          "type": "uint256",
          "indexed": false,
          "internalType": "uint256"
        }
      ],
      "anonymous": false
    },
    {
      "type": "event",
      "name": "CantDeleverageAgainstOpposingPositions",
      "inputs": [
        {
          "name": "perpId",
          "type": "uint256",
          "indexed": false,
          "internalType": "uint256"
        },
        {
          "name": "accountId",
          "type": "uint256",
          "indexed": false,
          "internalType": "uint256"
        },
        {
          "name": "forceClose",
          "type": "bool",
          "indexed": false,
          "internalType": "bool"
        },
        {
          "name": "positionType",
          "type": "uint8",
          "indexed": false,
          "internalType": "enum PositionEnum"
        },
        {
          "name": "deleveragePricePNS",
          "type": "uint256",
          "indexed": false,
          "internalType": "uint256"
        },
        {
          "name": "sortedPositionIds",
          "type": "uint256[]",
          "indexed": false,
          "internalType": "uint256[]"
        }
      ],
      "anonymous": false
    },
    {
      "type": "event",
      "name": "CantLiquidatePosAboveMMR",
      "inputs": [
        {
          "name": "perpId",
          "type": "uint256",
          "indexed": false,
          "internalType": "uint256"
        },
        {
          "name": "posAccountId",
          "type": "uint256",
          "indexed": false,
          "internalType": "uint256"
        },
        {
          "name": "positionType",
          "type": "uint8",
          "indexed": false,
          "internalType": "enum PositionEnum"
        },
        {
          "name": "refPricePNS",
          "type": "uint256",
          "indexed": false,
          "internalType": "uint256"
        },
        {
          "name": "refIsIndex",
          "type": "bool",
          "indexed": false,
          "internalType": "bool"
        },
        {
          "name": "liqPricePNS",
          "type": "uint256",
          "indexed": false,
          "internalType": "uint256"
        }
      ],
      "anonymous": false
    },
    {
      "type": "event",
      "name": "ChangeExpiredOrderNeedsNewExpiry",
      "inputs": [
        {
          "name": "perpId",
          "type": "uint256",
          "indexed": false,
          "internalType": "uint256"
        },
        {
          "name": "orderId",
          "type": "uint256",
          "indexed": false,
          "internalType": "uint256"
        },
        {
          "name": "accountId",
          "type": "uint256",
          "indexed": false,
          "internalType": "uint256"
        },
        {
          "name": "expiryBlock",
          "type": "uint256",
          "indexed": false,
          "internalType": "uint256"
        }
      ],
      "anonymous": false
    },
    {
      "type": "event",
      "name": "ClearingExpiredOrder",
      "inputs": [
        {
          "name": "perpId",
          "type": "uint256",
          "indexed": false,
          "internalType": "uint256"
        },
        {
          "name": "accountId",
          "type": "uint256",
          "indexed": false,
          "internalType": "uint256"
        },
        {
          "name": "orderId",
          "type": "uint256",
          "indexed": false,
          "internalType": "uint256"
        },
        {
          "name": "lockedBalanceCNS",
          "type": "uint256",
          "indexed": false,
          "internalType": "uint256"
        },
        {
          "name": "recyclerAccountId",
          "type": "uint256",
          "indexed": false,
          "internalType": "uint256"
        },
        {
          "name": "recyclerAmountCNS",
          "type": "int256",
          "indexed": false,
          "internalType": "int256"
        },
        {
          "name": "recyclerBalanceCNS",
          "type": "uint256",
          "indexed": false,
          "internalType": "uint256"
        }
      ],
      "anonymous": false
    },
    {
      "type": "event",
      "name": "ClearingFrozenAccountOrder",
      "inputs": [
        {
          "name": "perpId",
          "type": "uint256",
          "indexed": false,
          "internalType": "uint256"
        },
        {
          "name": "accountId",
          "type": "uint256",
          "indexed": false,
          "internalType": "uint256"
        },
        {
          "name": "orderId",
          "type": "uint256",
          "indexed": false,
          "internalType": "uint256"
        },
        {
          "name": "lockedBalanceCNS",
          "type": "uint256",
          "indexed": false,
          "internalType": "uint256"
        },
        {
          "name": "recyclerAccountId",
          "type": "uint256",
          "indexed": false,
          "internalType": "uint256"
        },
        {
          "name": "recyclerAmountCNS",
          "type": "int256",
          "indexed": false,
          "internalType": "int256"
        },
        {
          "name": "recyclerBalanceCNS",
          "type": "uint256",
          "indexed": false,
          "internalType": "uint256"
        }
      ],
      "anonymous": false
    },
    {
      "type": "event",
      "name": "ClearingInvalidCloseOrder",
      "inputs": [
        {
          "name": "perpId",
          "type": "uint256",
          "indexed": false,
          "internalType": "uint256"
        },
        {
          "name": "accountId",
          "type": "uint256",
          "indexed": false,
          "internalType": "uint256"
        },
        {
          "name": "orderId",
          "type": "uint256",
          "indexed": false,
          "internalType": "uint256"
        },
        {
          "name": "lockedBalanceCNS",
          "type": "uint256",
          "indexed": false,
          "internalType": "uint256"
        },
        {
          "name": "recyclerAccountId",
          "type": "uint256",
          "indexed": false,
          "internalType": "uint256"
        },
        {
          "name": "recyclerAmountCNS",
          "type": "int256",
          "indexed": false,
          "internalType": "int256"
        },
        {
          "name": "recyclerBalanceCNS",
          "type": "uint256",
          "indexed": false,
          "internalType": "uint256"
        }
      ],
      "anonymous": false
    },
    {
      "type": "event",
      "name": "ClearingSelfMatchingOrder",
      "inputs": [
        {
          "name": "perpId",
          "type": "uint256",
          "indexed": false,
          "internalType": "uint256"
        },
        {
          "name": "accountId",
          "type": "uint256",
          "indexed": false,
          "internalType": "uint256"
        },
        {
          "name": "orderId",
          "type": "uint256",
          "indexed": false,
          "internalType": "uint256"
        },
        {
          "name": "lockedBalanceCNS",
          "type": "uint256",
          "indexed": false,
          "internalType": "uint256"
        },
        {
          "name": "recyclerAccountId",
          "type": "uint256",
          "indexed": false,
          "internalType": "uint256"
        },
        {
          "name": "recyclerAmountCNS",
          "type": "int256",
          "indexed": false,
          "internalType": "int256"
        },
        {
          "name": "recyclerBalanceCNS",
          "type": "uint256",
          "indexed": false,
          "internalType": "uint256"
        }
      ],
      "anonymous": false
    },
    {
      "type": "event",
      "name": "CloseOrderExceedsPosition",
      "inputs": [
        {
          "name": "posLotLNS",
          "type": "uint256",
          "indexed": false,
          "internalType": "uint256"
        },
        {
          "name": "orderLotLNS",
          "type": "uint256",
          "indexed": false,
          "internalType": "uint256"
        }
      ],
      "anonymous": false
    },
    {
      "type": "event",
      "name": "CloseOrderPositionMismatch",
      "inputs": [
        {
          "name": "positionType",
          "type": "uint8",
          "indexed": false,
          "internalType": "enum PositionEnum"
        },
        {
          "name": "orderType",
          "type": "uint8",
          "indexed": false,
          "internalType": "enum OrderEnum"
        }
      ],
      "anonymous": false
    },
    {
      "type": "event",
      "name": "CollateralDeposit",
      "inputs": [
        {
          "name": "accountId",
          "type": "uint256",
          "indexed": false,
          "internalType": "uint256"
        },
        {
          "name": "amountCNS",
          "type": "uint256",
          "indexed": false,
          "internalType": "uint256"
        },
        {
          "name": "balanceCNS",
          "type": "uint256",
          "indexed": false,
          "internalType": "uint256"
        }
      ],
      "anonymous": false
    },
    {
      "type": "event",
      "name": "CollateralWithdrawal",
      "inputs": [
        {
          "name": "accountId",
          "type": "uint256",
          "indexed": false,
          "internalType": "uint256"
        },
        {
          "name": "amountCNS",
          "type": "uint256",
          "indexed": false,
          "internalType": "uint256"
        },
        {
          "name": "balanceCNS",
          "type": "uint256",
          "indexed": false,
          "internalType": "uint256"
        }
      ],
      "anonymous": false
    },
    {
      "type": "event",
      "name": "ContractAdded",
      "inputs": [
        {
          "name": "perpId",
          "type": "uint256",
          "indexed": false,
          "internalType": "uint256"
        },
        {
          "name": "name",
          "type": "string",
          "indexed": false,
          "internalType": "string"
        },
        {
          "name": "symbol",
          "type": "string",
          "indexed": false,
          "internalType": "string"
        },
        {
          "name": "paused",
          "type": "bool",
          "indexed": false,
          "internalType": "bool"
        },
        {
          "name": "basePricePNS",
          "type": "uint256",
          "indexed": false,
          "internalType": "uint256"
        },
        {
          "name": "priceDecimals",
          "type": "uint256",
          "indexed": false,
          "internalType": "uint256"
        },
        {
          "name": "lotDecimals",
          "type": "uint256",
          "indexed": false,
          "internalType": "uint256"
        },
        {
          "name": "takerFeePer100K",
          "type": "uint256",
          "indexed": false,
          "internalType": "uint256"
        },
        {
          "name": "makerFeePer100K",
          "type": "uint256",
          "indexed": false,
          "internalType": "uint256"
        },
        {
          "name": "initMarginFracHdths",
          "type": "uint256",
          "indexed": false,
          "internalType": "uint256"
        },
        {
          "name": "maintMarginFracHdths",
          "type": "uint256",
          "indexed": false,
          "internalType": "uint256"
        }
      ],
      "anonymous": false
    },
    {
      "type": "event",
      "name": "ContractIsPaused",
      "inputs": [],
      "anonymous": false
    },
    {
      "type": "event",
      "name": "ContractLinkFeedUpdated",
      "inputs": [
        {
          "name": "perpId",
          "type": "uint256",
          "indexed": false,
          "internalType": "uint256"
        },
        {
          "name": "feedId",
          "type": "bytes32",
          "indexed": false,
          "internalType": "bytes32"
        }
      ],
      "anonymous": false
    },
    {
      "type": "event",
      "name": "ContractPaused",
      "inputs": [
        {
          "name": "perpId",
          "type": "uint256",
          "indexed": false,
          "internalType": "uint256"
        },
        {
          "name": "paused",
          "type": "bool",
          "indexed": false,
          "internalType": "bool"
        }
      ],
      "anonymous": false
    },
    {
      "type": "event",
      "name": "ContractRemoved",
      "inputs": [
        {
          "name": "perpId",
          "type": "uint256",
          "indexed": false,
          "internalType": "uint256"
        }
      ],
      "anonymous": false
    },
    {
      "type": "event",
      "name": "CrossesBook",
      "inputs": [
        {
          "name": "minAskOrMaxBidPNS",
          "type": "uint256",
          "indexed": false,
          "internalType": "uint256"
        },
        {
          "name": "maxOrdersChecked",
          "type": "bool",
          "indexed": false,
          "internalType": "bool"
        }
      ],
      "anonymous": false
    },
    {
      "type": "event",
      "name": "DeleveragePositionListEmpty",
      "inputs": [
        {
          "name": "perpId",
          "type": "uint256",
          "indexed": false,
          "internalType": "uint256"
        },
        {
          "name": "accountId",
          "type": "uint256",
          "indexed": false,
          "internalType": "uint256"
        }
      ],
      "anonymous": false
    },
    {
      "type": "event",
      "name": "ExceedsLastExecutionBlock",
      "inputs": [
        {
          "name": "lastExecutionBlock",
          "type": "uint256",
          "indexed": false,
          "internalType": "uint256"
        }
      ],
      "anonymous": false
    },
    {
      "type": "event",
      "name": "ExchangeHalted",
      "inputs": [
        {
          "name": "halted",
          "type": "bool",
          "indexed": false,
          "internalType": "bool"
        }
      ],
      "anonymous": false
    },
    {
      "type": "event",
      "name": "FeeParamsUpdated",
      "inputs": [
        {
          "name": "perpId",
          "type": "uint256",
          "indexed": false,
          "internalType": "uint256"
        },
        {
          "name": "insAmtPer100K",
          "type": "uint256",
          "indexed": false,
          "internalType": "uint256"
        }
      ],
      "anonymous": false
    },
    {
      "type": "event",
      "name": "FundingClampPctUpdated",
      "inputs": [
        {
          "name": "perpId",
          "type": "uint256",
          "indexed": false,
          "internalType": "uint256"
        },
        {
          "name": "clampPctPer100k",
          "type": "uint256",
          "indexed": false,
          "internalType": "uint256"
        }
      ],
      "anonymous": false
    },
    {
      "type": "event",
      "name": "FundingEventCompleted",
      "inputs": [
        {
          "name": "perpId",
          "type": "uint256",
          "indexed": false,
          "internalType": "uint256"
        },
        {
          "name": "fundingEventBlock",
          "type": "uint256",
          "indexed": false,
          "internalType": "uint256"
        },
        {
          "name": "specifiedRatePct100k",
          "type": "int256",
          "indexed": false,
          "internalType": "int256"
        },
        {
          "name": "actualRatePct100k",
          "type": "int256",
          "indexed": false,
          "internalType": "int256"
        },
        {
          "name": "fundingPricePNS",
          "type": "uint256",
          "indexed": false,
          "internalType": "uint256"
        },
        {
          "name": "fundingPaymentPNS",
          "type": "int48",
          "indexed": false,
          "internalType": "int48"
        },
        {
          "name": "allowOverwrite",
          "type": "bool",
          "indexed": false,
          "internalType": "bool"
        }
      ],
      "anonymous": false
    },
    {
      "type": "event",
      "name": "FundingEventSetTooEarly",
      "inputs": [
        {
          "name": "perpId",
          "type": "uint256",
          "indexed": false,
          "internalType": "uint256"
        },
        {
          "name": "blockNumber",
          "type": "uint256",
          "indexed": false,
          "internalType": "uint256"
        },
        {
          "name": "fundingEventBlock",
          "type": "uint256",
          "indexed": false,
          "internalType": "uint256"
        }
      ],
      "anonymous": false
    },
    {
      "type": "event",
      "name": "FundingSumAlreadySet",
      "inputs": [
        {
          "name": "perpId",
          "type": "uint256",
          "indexed": false,
          "internalType": "uint256"
        },
        {
          "name": "fundingEventBlock",
          "type": "uint256",
          "indexed": false,
          "internalType": "uint256"
        },
        {
          "name": "storageIndex",
          "type": "uint256",
          "indexed": false,
          "internalType": "uint256"
        },
        {
          "name": "fundingSumOffset",
          "type": "uint256",
          "indexed": false,
          "internalType": "uint256"
        }
      ],
      "anonymous": false
    },
    {
      "type": "event",
      "name": "IgnoreOracleUpdated",
      "inputs": [
        {
          "name": "perpId",
          "type": "uint256",
          "indexed": false,
          "internalType": "uint256"
        },
        {
          "name": "ignOracle",
          "type": "bool",
          "indexed": false,
          "internalType": "bool"
        }
      ],
      "anonymous": false
    },
    {
      "type": "event",
      "name": "ImmediateOrCancelExecuted",
      "inputs": [
        {
          "name": "unmatchedLotLNS",
          "type": "uint256",
          "indexed": false,
          "internalType": "uint256"
        },
        {
          "name": "totalLotLNS",
          "type": "uint256",
          "indexed": false,
          "internalType": "uint256"
        }
      ],
      "anonymous": false
    },
    {
      "type": "event",
      "name": "IncreasePositionCollateral",
      "inputs": [
        {
          "name": "perpId",
          "type": "uint256",
          "indexed": false,
          "internalType": "uint256"
        },
        {
          "name": "accountId",
          "type": "uint256",
          "indexed": false,
          "internalType": "uint256"
        },
        {
          "name": "positionDepositCNS",
          "type": "uint256",
          "indexed": false,
          "internalType": "uint256"
        },
        {
          "name": "amountCNS",
          "type": "uint256",
          "indexed": false,
          "internalType": "uint256"
        },
        {
          "name": "balanceCNS",
          "type": "uint256",
          "indexed": false,
          "internalType": "uint256"
        }
      ],
      "anonymous": false
    },
    {
      "type": "event",
      "name": "IndexExceedsOracleTol",
      "inputs": [
        {
          "name": "perpId",
          "type": "uint256",
          "indexed": false,
          "internalType": "uint256"
        },
        {
          "name": "indexPNS",
          "type": "uint256",
          "indexed": false,
          "internalType": "uint256"
        },
        {
          "name": "oraclePNS",
          "type": "uint256",
          "indexed": false,
          "internalType": "uint256"
        },
        {
          "name": "tolerancePer100k",
          "type": "uint256",
          "indexed": false,
          "internalType": "uint256"
        }
      ],
      "anonymous": false
    },
    {
      "type": "event",
      "name": "IndexOracleTolUpdated",
      "inputs": [
        {
          "name": "perpId",
          "type": "uint256",
          "indexed": false,
          "internalType": "uint256"
        },
        {
          "name": "tolPer100k",
          "type": "uint256",
          "indexed": false,
          "internalType": "uint256"
        }
      ],
      "anonymous": false
    },
    {
      "type": "event",
      "name": "IndexUpdated",
      "inputs": [
        {
          "name": "perpId",
          "type": "uint256",
          "indexed": false,
          "internalType": "uint256"
        },
        {
          "name": "pricePNS",
          "type": "uint256",
          "indexed": false,
          "internalType": "uint256"
        }
      ],
      "anonymous": false
    },
    {
      "type": "event",
      "name": "InitialMarginFractionUpdated",
      "inputs": [
        {
          "name": "perpId",
          "type": "uint256",
          "indexed": false,
          "internalType": "uint256"
        },
        {
          "name": "initMarginFracHdths",
          "type": "uint256",
          "indexed": false,
          "internalType": "uint256"
        }
      ],
      "anonymous": false
    },
    {
      "type": "event",
      "name": "InsolventPositionCannotBeForcedClose",
      "inputs": [
        {
          "name": "perpId",
          "type": "uint256",
          "indexed": false,
          "internalType": "uint256"
        },
        {
          "name": "posAccountId",
          "type": "uint256",
          "indexed": false,
          "internalType": "uint256"
        },
        {
          "name": "positionType",
          "type": "uint8",
          "indexed": false,
          "internalType": "enum PositionEnum"
        },
        {
          "name": "bankruptcyPricePNS",
          "type": "uint256",
          "indexed": false,
          "internalType": "uint256"
        },
        {
          "name": "refPricePNS",
          "type": "uint256",
          "indexed": false,
          "internalType": "uint256"
        },
        {
          "name": "refIsIndex",
          "type": "bool",
          "indexed": false,
          "internalType": "bool"
        }
      ],
      "anonymous": false
    },
    {
      "type": "event",
      "name": "InsuficientFundsForRecycleFee",
      "inputs": [
        {
          "name": "perpId",
          "type": "uint256",
          "indexed": false,
          "internalType": "uint256"
        },
        {
          "name": "accountId",
          "type": "uint256",
          "indexed": false,
          "internalType": "uint256"
        },
        {
          "name": "balanceCNS",
          "type": "uint256",
          "indexed": false,
          "internalType": "uint256"
        },
        {
          "name": "lockedCNS",
          "type": "uint256",
          "indexed": false,
          "internalType": "uint256"
        },
        {
          "name": "recycleFeeCNS",
          "type": "uint256",
          "indexed": false,
          "internalType": "uint256"
        }
      ],
      "anonymous": false
    },
    {
      "type": "event",
      "name": "InsurancePaymentForSettlement",
      "inputs": [
        {
          "name": "perpId",
          "type": "uint256",
          "indexed": false,
          "internalType": "uint256"
        },
        {
          "name": "accountId",
          "type": "uint256",
          "indexed": false,
          "internalType": "uint256"
        },
        {
          "name": "insPaymentCNS",
          "type": "uint256",
          "indexed": false,
          "internalType": "uint256"
        }
      ],
      "anonymous": false
    },
    {
      "type": "event",
      "name": "InvalidAccountFrozenOrder",
      "inputs": [
        {
          "name": "orderType",
          "type": "uint8",
          "indexed": false,
          "internalType": "enum OrderDescEnum"
        },
        {
          "name": "immediateOrCancel",
          "type": "bool",
          "indexed": false,
          "internalType": "bool"
        }
      ],
      "anonymous": false
    },
    {
      "type": "event",
      "name": "InvalidBankruptcyPrice",
      "inputs": [
        {
          "name": "perpId",
          "type": "uint256",
          "indexed": false,
          "internalType": "uint256"
        },
        {
          "name": "accountId",
          "type": "uint256",
          "indexed": false,
          "internalType": "uint256"
        },
        {
          "name": "depositCNS",
          "type": "uint256",
          "indexed": false,
          "internalType": "uint256"
        },
        {
          "name": "posPricePNS",
          "type": "uint256",
          "indexed": false,
          "internalType": "uint256"
        },
        {
          "name": "liqLotLNS",
          "type": "uint256",
          "indexed": false,
          "internalType": "uint256"
        },
        {
          "name": "premiumPnlCNS",
          "type": "int256",
          "indexed": false,
          "internalType": "int256"
        }
      ],
      "anonymous": false
    },
    {
      "type": "event",
      "name": "InvalidExpiryBlock",
      "inputs": [
        {
          "name": "expiryBlock",
          "type": "uint256",
          "indexed": false,
          "internalType": "uint256"
        },
        {
          "name": "blockNumber",
          "type": "uint256",
          "indexed": false,
          "internalType": "uint256"
        }
      ],
      "anonymous": false
    },
    {
      "type": "event",
      "name": "InvalidLinkReportForContract",
      "inputs": [
        {
          "name": "perpId",
          "type": "uint256",
          "indexed": false,
          "internalType": "uint256"
        },
        {
          "name": "perpFeedId",
          "type": "bytes32",
          "indexed": false,
          "internalType": "bytes32"
        },
        {
          "name": "reportFeedId",
          "type": "bytes32",
          "indexed": false,
          "internalType": "bytes32"
        }
      ],
      "anonymous": false
    },
    {
      "type": "event",
      "name": "InvalidLinkReportVersion",
      "inputs": [
        {
          "name": "perpId",
          "type": "uint256",
          "indexed": false,
          "internalType": "uint256"
        },
        {
          "name": "reportVersion",
          "type": "uint256",
          "indexed": false,
          "internalType": "uint256"
        }
      ],
      "anonymous": false
    },
    {
      "type": "event",
      "name": "InvalidLiquidationPrice",
      "inputs": [
        {
          "name": "perpId",
          "type": "uint256",
          "indexed": false,
          "internalType": "uint256"
        },
        {
          "name": "accountId",
          "type": "uint256",
          "indexed": false,
          "internalType": "uint256"
        },
        {
          "name": "depositCNS",
          "type": "uint256",
          "indexed": false,
          "internalType": "uint256"
        },
        {
          "name": "posPricePNS",
          "type": "uint256",
          "indexed": false,
          "internalType": "uint256"
        },
        {
          "name": "liqLotLNS",
          "type": "uint256",
          "indexed": false,
          "internalType": "uint256"
        },
        {
          "name": "premiumPnlCNS",
          "type": "int256",
          "indexed": false,
          "internalType": "int256"
        }
      ],
      "anonymous": false
    },
    {
      "type": "event",
      "name": "InvalidOrderId",
      "inputs": [
        {
          "name": "orderId",
          "type": "uint256",
          "indexed": false,
          "internalType": "uint256"
        },
        {
          "name": "min",
          "type": "uint256",
          "indexed": false,
          "internalType": "uint256"
        },
        {
          "name": "max",
          "type": "uint256",
          "indexed": false,
          "internalType": "uint256"
        }
      ],
      "anonymous": false
    },
    {
      "type": "event",
      "name": "LinkDatastreamConfigured",
      "inputs": [
        {
          "name": "verifierProxy",
          "type": "address",
          "indexed": false,
          "internalType": "address"
        }
      ],
      "anonymous": false
    },
    {
      "type": "event",
      "name": "LinkDsError",
      "inputs": [
        {
          "name": "perpId",
          "type": "uint256",
          "indexed": false,
          "internalType": "uint256"
        },
        {
          "name": "reason",
          "type": "string",
          "indexed": false,
          "internalType": "string"
        }
      ],
      "anonymous": false
    },
    {
      "type": "event",
      "name": "LinkDsError",
      "inputs": [
        {
          "name": "perpId",
          "type": "uint256",
          "indexed": false,
          "internalType": "uint256"
        },
        {
          "name": "lowLevelData",
          "type": "bytes",
          "indexed": false,
          "internalType": "bytes"
        }
      ],
      "anonymous": false
    },
    {
      "type": "event",
      "name": "LinkDsPanic",
      "inputs": [
        {
          "name": "perpId",
          "type": "uint256",
          "indexed": false,
          "internalType": "uint256"
        },
        {
          "name": "errorCode",
          "type": "uint256",
          "indexed": false,
          "internalType": "uint256"
        }
      ],
      "anonymous": false
    },
    {
      "type": "event",
      "name": "LinkPriceUpdated",
      "inputs": [
        {
          "name": "perpId",
          "type": "uint256",
          "indexed": false,
          "internalType": "uint256"
        },
        {
          "name": "pricePNS",
          "type": "uint256",
          "indexed": false,
          "internalType": "uint256"
        },
        {
          "name": "timestamp",
          "type": "uint256",
          "indexed": false,
          "internalType": "uint256"
        }
      ],
      "anonymous": false
    },
    {
      "type": "event",
      "name": "LiquidationParamsUpdated",
      "inputs": [
        {
          "name": "perpId",
          "type": "uint256",
          "indexed": false,
          "internalType": "uint256"
        },
        {
          "name": "insAmtPer100K",
          "type": "uint256",
          "indexed": false,
          "internalType": "uint256"
        },
        {
          "name": "liqAmtPer100K",
          "type": "uint256",
          "indexed": false,
          "internalType": "uint256"
        },
        {
          "name": "userAmtPer100K",
          "type": "uint256",
          "indexed": false,
          "internalType": "uint256"
        }
      ],
      "anonymous": false
    },
    {
      "type": "event",
      "name": "LotOutOfRange",
      "inputs": [
        {
          "name": "minLotLNS",
          "type": "uint256",
          "indexed": false,
          "internalType": "uint256"
        },
        {
          "name": "maxLotLNS",
          "type": "uint256",
          "indexed": false,
          "internalType": "uint256"
        }
      ],
      "anonymous": false
    },
    {
      "type": "event",
      "name": "MaintenanceMarginFractionUpdated",
      "inputs": [
        {
          "name": "perpId",
          "type": "uint256",
          "indexed": false,
          "internalType": "uint256"
        },
        {
          "name": "maintMarginFracHdths",
          "type": "uint256",
          "indexed": false,
          "internalType": "uint256"
        }
      ],
      "anonymous": false
    },
    {
      "type": "event",
      "name": "MakerFeeUpdated",
      "inputs": [
        {
          "name": "perpId",
          "type": "uint256",
          "indexed": false,
          "internalType": "uint256"
        },
        {
          "name": "makerFeePer100K",
          "type": "uint256",
          "indexed": false,
          "internalType": "uint256"
        }
      ],
      "anonymous": false
    },
    {
      "type": "event",
      "name": "MakerOrderFilled",
      "inputs": [
        {
          "name": "perpId",
          "type": "uint256",
          "indexed": false,
          "internalType": "uint256"
        },
        {
          "name": "accountId",
          "type": "uint256",
          "indexed": false,
          "internalType": "uint256"
        },
        {
          "name": "orderId",
          "type": "uint256",
          "indexed": false,
          "internalType": "uint256"
        },
        {
          "name": "pricePNS",
          "type": "uint256",
          "indexed": false,
          "internalType": "uint256"
        },
        {
          "name": "lotLNS",
          "type": "uint256",
          "indexed": false,
          "internalType": "uint256"
        },
        {
          "name": "feeCNS",
          "type": "uint256",
          "indexed": false,
          "internalType": "uint256"
        },
        {
          "name": "lockedBalanceCNS",
          "type": "uint256",
          "indexed": false,
          "internalType": "uint256"
        },
        {
          "name": "amountCNS",
          "type": "int256",
          "indexed": false,
          "internalType": "int256"
        },
        {
          "name": "balanceCNS",
          "type": "uint256",
          "indexed": false,
          "internalType": "uint256"
        }
      ],
      "anonymous": false
    },
    {
      "type": "event",
      "name": "MakerOrderSettlementFailed",
      "inputs": [
        {
          "name": "perpId",
          "type": "uint256",
          "indexed": false,
          "internalType": "uint256"
        },
        {
          "name": "accountId",
          "type": "uint256",
          "indexed": false,
          "internalType": "uint256"
        },
        {
          "name": "orderId",
          "type": "uint256",
          "indexed": false,
          "internalType": "uint256"
        },
        {
          "name": "orderType",
          "type": "uint8",
          "indexed": false,
          "internalType": "enum OrderEnum"
        },
        {
          "name": "pricePNS",
          "type": "uint256",
          "indexed": false,
          "internalType": "uint256"
        },
        {
          "name": "lotLNS",
          "type": "uint256",
          "indexed": false,
          "internalType": "uint256"
        },
        {
          "name": "reason",
          "type": "uint256",
          "indexed": false,
          "internalType": "uint256"
        },
        {
          "name": "lockedBalanceCNS",
          "type": "uint256",
          "indexed": false,
          "internalType": "uint256"
        },
        {
          "name": "recyclerAccountId",
          "type": "uint256",
          "indexed": false,
          "internalType": "uint256"
        },
        {
          "name": "recyclerAmountCNS",
          "type": "int256",
          "indexed": false,
          "internalType": "int256"
        },
        {
          "name": "recyclerBalanceCNS",
          "type": "uint256",
          "indexed": false,
          "internalType": "uint256"
        }
      ],
      "anonymous": false
    },
    {
      "type": "event",
      "name": "MaxMatchesReached",
      "inputs": [],
      "anonymous": false
    },
    {
      "type": "event",
      "name": "MaxOpenInterestUpdated",
      "inputs": [
        {
          "name": "perpId",
          "type": "uint256",
          "indexed": false,
          "internalType": "uint256"
        },
        {
          "name": "maxOpenInterestLNS",
          "type": "uint256",
          "indexed": false,
          "internalType": "uint256"
        }
      ],
      "anonymous": false
    },
    {
      "type": "event",
      "name": "MaximumAccountOrders",
      "inputs": [
        {
          "name": "perpId",
          "type": "uint256",
          "indexed": false,
          "internalType": "uint256"
        },
        {
          "name": "accountId",
          "type": "uint256",
          "indexed": false,
          "internalType": "uint256"
        }
      ],
      "anonymous": false
    },
    {
      "type": "event",
      "name": "MinAccountOpenAmountUpdated",
      "inputs": [
        {
          "name": "minAccountOpenCNS",
          "type": "uint256",
          "indexed": false,
          "internalType": "uint256"
        }
      ],
      "anonymous": false
    },
    {
      "type": "event",
      "name": "MinPostUpdated",
      "inputs": [
        {
          "name": "minPostCNS",
          "type": "uint256",
          "indexed": false,
          "internalType": "uint256"
        }
      ],
      "anonymous": false
    },
    {
      "type": "event",
      "name": "MinSettleUpdated",
      "inputs": [
        {
          "name": "minSettleCNS",
          "type": "uint256",
          "indexed": false,
          "internalType": "uint256"
        }
      ],
      "anonymous": false
    },
    {
      "type": "event",
      "name": "OracleAgeExceedsMax",
      "inputs": [
        {
          "name": "perpId",
          "type": "uint256",
          "indexed": false,
          "internalType": "uint256"
        },
        {
          "name": "oracleTimestamp",
          "type": "uint256",
          "indexed": false,
          "internalType": "uint256"
        },
        {
          "name": "timestamp",
          "type": "uint256",
          "indexed": false,
          "internalType": "uint256"
        },
        {
          "name": "maxAgeSec",
          "type": "uint256",
          "indexed": false,
          "internalType": "uint256"
        }
      ],
      "anonymous": false
    },
    {
      "type": "event",
      "name": "OracleDisabled",
      "inputs": [
        {
          "name": "perpId",
          "type": "uint256",
          "indexed": false,
          "internalType": "uint256"
        }
      ],
      "anonymous": false
    },
    {
      "type": "event",
      "name": "OracleMaxAgeUpdated",
      "inputs": [
        {
          "name": "perpId",
          "type": "uint256",
          "indexed": false,
          "internalType": "uint256"
        },
        {
          "name": "maxAgeSec",
          "type": "uint256",
          "indexed": false,
          "internalType": "uint256"
        }
      ],
      "anonymous": false
    },
    {
      "type": "event",
      "name": "OrderBatchCompleted",
      "inputs": [
        {
          "name": "gasLeft",
          "type": "uint256",
          "indexed": false,
          "internalType": "uint256"
        }
      ],
      "anonymous": false
    },
    {
      "type": "event",
      "name": "OrderCancelled",
      "inputs": [
        {
          "name": "lockedBalanceCNS",
          "type": "uint256",
          "indexed": false,
          "internalType": "uint256"
        },
        {
          "name": "amountCNS",
          "type": "int256",
          "indexed": false,
          "internalType": "int256"
        },
        {
          "name": "balanceCNS",
          "type": "uint256",
          "indexed": false,
          "internalType": "uint256"
        }
      ],
      "anonymous": false
    },
    {
      "type": "event",
      "name": "OrderCancelledByAdmin",
      "inputs": [
        {
          "name": "perpId",
          "type": "uint256",
          "indexed": false,
          "internalType": "uint256"
        },
        {
          "name": "accountId",
          "type": "uint256",
          "indexed": false,
          "internalType": "uint256"
        },
        {
          "name": "orderId",
          "type": "uint256",
          "indexed": false,
          "internalType": "uint256"
        },
        {
          "name": "lockedBalanceCNS",
          "type": "uint256",
          "indexed": false,
          "internalType": "uint256"
        }
      ],
      "anonymous": false
    },
    {
      "type": "event",
      "name": "OrderCancelledByLiquidator",
      "inputs": [
        {
          "name": "perpId",
          "type": "uint256",
          "indexed": false,
          "internalType": "uint256"
        },
        {
          "name": "accountId",
          "type": "uint256",
          "indexed": false,
          "internalType": "uint256"
        },
        {
          "name": "orderId",
          "type": "uint256",
          "indexed": false,
          "internalType": "uint256"
        },
        {
          "name": "lockedBalanceCNS",
          "type": "uint256",
          "indexed": false,
          "internalType": "uint256"
        }
      ],
      "anonymous": false
    },
    {
      "type": "event",
      "name": "OrderChanged",
      "inputs": [
        {
          "name": "orderId",
          "type": "uint256",
          "indexed": false,
          "internalType": "uint256"
        },
        {
          "name": "pricePNS",
          "type": "uint256",
          "indexed": false,
          "internalType": "uint256"
        },
        {
          "name": "lotLNS",
          "type": "uint256",
          "indexed": false,
          "internalType": "uint256"
        },
        {
          "name": "expiryBlock",
          "type": "uint256",
          "indexed": false,
          "internalType": "uint256"
        },
        {
          "name": "lockedBalanceCNS",
          "type": "uint256",
          "indexed": false,
          "internalType": "uint256"
        },
        {
          "name": "balanceCNS",
          "type": "uint256",
          "indexed": false,
          "internalType": "uint256"
        }
      ],
      "anonymous": false
    },
    {
      "type": "event",
      "name": "OrderDescIdTooLow",
      "inputs": [
        {
          "name": "lastOrderDescId",
          "type": "uint256",
          "indexed": false,
          "internalType": "uint256"
        }
      ],
      "anonymous": false
    },
    {
      "type": "event",
      "name": "OrderDoesNotExist",
      "inputs": [
        {
          "name": "perpId",
          "type": "uint256",
          "indexed": false,
          "internalType": "uint256"
        },
        {
          "name": "orderId",
          "type": "uint256",
          "indexed": false,
          "internalType": "uint256"
        }
      ],
      "anonymous": false
    },
    {
      "type": "event",
      "name": "OrderForwardingNotAllowed",
      "inputs": [],
      "anonymous": false
    },
    {
      "type": "event",
      "name": "OrderForwardingUpdated",
      "inputs": [
        {
          "name": "accountId",
          "type": "uint256",
          "indexed": false,
          "internalType": "uint256"
        },
        {
          "name": "allowed",
          "type": "bool",
          "indexed": false,
          "internalType": "bool"
        }
      ],
      "anonymous": false
    },
    {
      "type": "event",
      "name": "OrderPlaced",
      "inputs": [
        {
          "name": "orderId",
          "type": "uint256",
          "indexed": false,
          "internalType": "uint256"
        },
        {
          "name": "lotLNS",
          "type": "uint256",
          "indexed": false,
          "internalType": "uint256"
        },
        {
          "name": "lockedBalanceCNS",
          "type": "uint256",
          "indexed": false,
          "internalType": "uint256"
        },
        {
          "name": "amountCNS",
          "type": "int256",
          "indexed": false,
          "internalType": "int256"
        },
        {
          "name": "balanceCNS",
          "type": "uint256",
          "indexed": false,
          "internalType": "uint256"
        }
      ],
      "anonymous": false
    },
    {
      "type": "event",
      "name": "OrderPostFailed",
      "inputs": [
        {
          "name": "reason",
          "type": "uint256",
          "indexed": false,
          "internalType": "uint256"
        }
      ],
      "anonymous": false
    },
    {
      "type": "event",
      "name": "OrderRequest",
      "inputs": [
        {
          "name": "perpId",
          "type": "uint256",
          "indexed": false,
          "internalType": "uint256"
        },
        {
          "name": "accountId",
          "type": "uint256",
          "indexed": false,
          "internalType": "uint256"
        },
        {
          "name": "orderDescId",
          "type": "uint256",
          "indexed": false,
          "internalType": "uint256"
        },
        {
          "name": "orderId",
          "type": "uint256",
          "indexed": false,
          "internalType": "uint256"
        },
        {
          "name": "orderType",
          "type": "uint8",
          "indexed": false,
          "internalType": "enum OrderDescEnum"
        },
        {
          "name": "pricePNS",
          "type": "uint256",
          "indexed": false,
          "internalType": "uint256"
        },
        {
          "name": "lotLNS",
          "type": "uint256",
          "indexed": false,
          "internalType": "uint256"
        },
        {
          "name": "expiryBlock",
          "type": "uint256",
          "indexed": false,
          "internalType": "uint256"
        },
        {
          "name": "postOnly",
          "type": "bool",
          "indexed": false,
          "internalType": "bool"
        },
        {
          "name": "fillOrKill",
          "type": "bool",
          "indexed": false,
          "internalType": "bool"
        },
        {
          "name": "immediateOrCancel",
          "type": "bool",
          "indexed": false,
          "internalType": "bool"
        },
        {
          "name": "maxMatches",
          "type": "uint256",
          "indexed": false,
          "internalType": "uint256"
        },
        {
          "name": "leverageHdths",
          "type": "uint256",
          "indexed": false,
          "internalType": "uint256"
        },
        {
          "name": "gasLeft",
          "type": "uint256",
          "indexed": false,
          "internalType": "uint256"
        }
      ],
      "anonymous": false
    },
    {
      "type": "event",
      "name": "OrderSettlementImpliesInsolvent",
      "inputs": [
        {
          "name": "perpId",
          "type": "uint256",
          "indexed": false,
          "internalType": "uint256"
        },
        {
          "name": "accountId",
          "type": "uint256",
          "indexed": false,
          "internalType": "uint256"
        },
        {
          "name": "orderType",
          "type": "uint8",
          "indexed": false,
          "internalType": "enum OrderEnum"
        },
        {
          "name": "pricePNS",
          "type": "uint256",
          "indexed": false,
          "internalType": "uint256"
        },
        {
          "name": "lotLNS",
          "type": "uint256",
          "indexed": false,
          "internalType": "uint256"
        },
        {
          "name": "perpPositionBalCNS",
          "type": "uint256",
          "indexed": false,
          "internalType": "uint256"
        },
        {
          "name": "perpInsuranceBalCNS",
          "type": "uint256",
          "indexed": false,
          "internalType": "uint256"
        },
        {
          "name": "addedPosCollatReqCNS",
          "type": "uint256",
          "indexed": false,
          "internalType": "uint256"
        },
        {
          "name": "requestedAmountCNS",
          "type": "uint256",
          "indexed": false,
          "internalType": "uint256"
        }
      ],
      "anonymous": false
    },
    {
      "type": "event",
      "name": "OrderSizeExceedsAvailableSize",
      "inputs": [
        {
          "name": "orderLotLNS",
          "type": "uint256",
          "indexed": false,
          "internalType": "uint256"
        },
        {
          "name": "availableLotLNS",
          "type": "uint256",
          "indexed": false,
          "internalType": "uint256"
        },
        {
          "name": "positionLotLNS",
          "type": "uint256",
          "indexed": false,
          "internalType": "uint256"
        }
      ],
      "anonymous": false
    },
    {
      "type": "event",
      "name": "OverCollatDescentThreshUpdated",
      "inputs": [
        {
          "name": "perpId",
          "type": "uint256",
          "indexed": false,
          "internalType": "uint256"
        },
        {
          "name": "threshHdths",
          "type": "uint256",
          "indexed": false,
          "internalType": "uint256"
        }
      ],
      "anonymous": false
    },
    {
      "type": "event",
      "name": "OwnershipTransferStarted",
      "inputs": [
        {
          "name": "previousOwner",
          "type": "address",
          "indexed": true,
          "internalType": "address"
        },
        {
          "name": "newOwner",
          "type": "address",
          "indexed": true,
          "internalType": "address"
        }
      ],
      "anonymous": false
    },
    {
      "type": "event",
      "name": "OwnershipTransferred",
      "inputs": [
        {
          "name": "previousOwner",
          "type": "address",
          "indexed": true,
          "internalType": "address"
        },
        {
          "name": "newOwner",
          "type": "address",
          "indexed": true,
          "internalType": "address"
        }
      ],
      "anonymous": false
    },
    {
      "type": "event",
      "name": "PermissonedCancelParamsUpdated",
      "inputs": [
        {
          "name": "cancelMinOrders",
          "type": "uint256",
          "indexed": false,
          "internalType": "uint256"
        },
        {
          "name": "cancelSegment",
          "type": "uint256",
          "indexed": false,
          "internalType": "uint256"
        }
      ],
      "anonymous": false
    },
    {
      "type": "event",
      "name": "PositionAdministratorUpdated",
      "inputs": [
        {
          "name": "positionAdministrator",
          "type": "address",
          "indexed": false,
          "internalType": "address"
        },
        {
          "name": "added",
          "type": "bool",
          "indexed": false,
          "internalType": "bool"
        }
      ],
      "anonymous": false
    },
    {
      "type": "event",
      "name": "PositionClosed",
      "inputs": [
        {
          "name": "perpId",
          "type": "uint256",
          "indexed": false,
          "internalType": "uint256"
        },
        {
          "name": "accountId",
          "type": "uint256",
          "indexed": false,
          "internalType": "uint256"
        },
        {
          "name": "positionType",
          "type": "uint8",
          "indexed": false,
          "internalType": "enum PositionEnum"
        },
        {
          "name": "pricePNS",
          "type": "uint256",
          "indexed": false,
          "internalType": "uint256"
        },
        {
          "name": "deltaPnlCNS",
          "type": "int256",
          "indexed": false,
          "internalType": "int256"
        },
        {
          "name": "fundingCNS",
          "type": "int256",
          "indexed": false,
          "internalType": "int256"
        }
      ],
      "anonymous": false
    },
    {
      "type": "event",
      "name": "PositionDecreased",
      "inputs": [
        {
          "name": "perpId",
          "type": "uint256",
          "indexed": false,
          "internalType": "uint256"
        },
        {
          "name": "accountId",
          "type": "uint256",
          "indexed": false,
          "internalType": "uint256"
        },
        {
          "name": "positionType",
          "type": "uint8",
          "indexed": false,
          "internalType": "enum PositionEnum"
        },
        {
          "name": "startDepositCNS",
          "type": "uint256",
          "indexed": false,
          "internalType": "uint256"
        },
        {
          "name": "endDepositCNS",
          "type": "uint256",
          "indexed": false,
          "internalType": "uint256"
        },
        {
          "name": "startLotLNS",
          "type": "uint256",
          "indexed": false,
          "internalType": "uint256"
        },
        {
          "name": "endLotLNS",
          "type": "uint256",
          "indexed": false,
          "internalType": "uint256"
        },
        {
          "name": "deltaPnlCNS",
          "type": "int256",
          "indexed": false,
          "internalType": "int256"
        },
        {
          "name": "fundingCNS",
          "type": "int256",
          "indexed": false,
          "internalType": "int256"
        }
      ],
      "anonymous": false
    },
    {
      "type": "event",
      "name": "PositionDeleveraged",
      "inputs": [
        {
          "name": "perpId",
          "type": "uint256",
          "indexed": false,
          "internalType": "uint256"
        },
        {
          "name": "accountId",
          "type": "uint256",
          "indexed": false,
          "internalType": "uint256"
        },
        {
          "name": "forceClose",
          "type": "bool",
          "indexed": false,
          "internalType": "bool"
        },
        {
          "name": "positionType",
          "type": "uint8",
          "indexed": false,
          "internalType": "enum PositionEnum"
        },
        {
          "name": "entryPricePNS",
          "type": "uint256",
          "indexed": false,
          "internalType": "uint256"
        },
        {
          "name": "refPricePNS",
          "type": "uint256",
          "indexed": false,
          "internalType": "uint256"
        },
        {
          "name": "refIsIndex",
          "type": "bool",
          "indexed": false,
          "internalType": "bool"
        },
        {
          "name": "deleveragePricePNS",
          "type": "uint256",
          "indexed": false,
          "internalType": "uint256"
        },
        {
          "name": "deltaPnlCNS",
          "type": "int256",
          "indexed": false,
          "internalType": "int256"
        },
        {
          "name": "fundingCNS",
          "type": "int256",
          "indexed": false,
          "internalType": "int256"
        },
        {
          "name": "startDepositCNS",
          "type": "uint256",
          "indexed": false,
          "internalType": "uint256"
        },
        {
          "name": "endDepositCNS",
          "type": "uint256",
          "indexed": false,
          "internalType": "uint256"
        },
        {
          "name": "startLotCNS",
          "type": "uint256",
          "indexed": false,
          "internalType": "uint256"
        },
        {
          "name": "endLotCNS",
          "type": "uint256",
          "indexed": false,
          "internalType": "uint256"
        },
        {
          "name": "amountCNS",
          "type": "uint256",
          "indexed": false,
          "internalType": "uint256"
        },
        {
          "name": "balanceCNS",
          "type": "uint256",
          "indexed": false,
          "internalType": "uint256"
        }
      ],
      "anonymous": false
    },
    {
      "type": "event",
      "name": "PositionDoesNotExist",
      "inputs": [
        {
          "name": "perpId",
          "type": "uint256",
          "indexed": false,
          "internalType": "uint256"
        },
        {
          "name": "accountId",
          "type": "uint256",
          "indexed": false,
          "internalType": "uint256"
        }
      ],
      "anonymous": false
    },
    {
      "type": "event",
      "name": "PositionIncreased",
      "inputs": [
        {
          "name": "perpId",
          "type": "uint256",
          "indexed": false,
          "internalType": "uint256"
        },
        {
          "name": "accountId",
          "type": "uint256",
          "indexed": false,
          "internalType": "uint256"
        },
        {
          "name": "positionType",
          "type": "uint8",
          "indexed": false,
          "internalType": "enum PositionEnum"
        },
        {
          "name": "leverageHdths",
          "type": "uint256",
          "indexed": false,
          "internalType": "uint256"
        },
        {
          "name": "startDepositCNS",
          "type": "uint256",
          "indexed": false,
          "internalType": "uint256"
        },
        {
          "name": "endDepositCNS",
          "type": "uint256",
          "indexed": false,
          "internalType": "uint256"
        },
        {
          "name": "pricePNS",
          "type": "uint256",
          "indexed": false,
          "internalType": "uint256"
        },
        {
          "name": "startLotLNS",
          "type": "uint256",
          "indexed": false,
          "internalType": "uint256"
        },
        {
          "name": "endLotLNS",
          "type": "uint256",
          "indexed": false,
          "internalType": "uint256"
        }
      ],
      "anonymous": false
    },
    {
      "type": "event",
      "name": "PositionInverted",
      "inputs": [
        {
          "name": "perpId",
          "type": "uint256",
          "indexed": false,
          "internalType": "uint256"
        },
        {
          "name": "accountId",
          "type": "uint256",
          "indexed": false,
          "internalType": "uint256"
        },
        {
          "name": "positionType",
          "type": "uint8",
          "indexed": false,
          "internalType": "enum PositionEnum"
        },
        {
          "name": "leverageHdths",
          "type": "uint256",
          "indexed": false,
          "internalType": "uint256"
        },
        {
          "name": "startDepositCNS",
          "type": "uint256",
          "indexed": false,
          "internalType": "uint256"
        },
        {
          "name": "endDepositCNS",
          "type": "uint256",
          "indexed": false,
          "internalType": "uint256"
        },
        {
          "name": "pricePNS",
          "type": "uint256",
          "indexed": false,
          "internalType": "uint256"
        },
        {
          "name": "startLotLNS",
          "type": "uint256",
          "indexed": false,
          "internalType": "uint256"
        },
        {
          "name": "endLotLNS",
          "type": "uint256",
          "indexed": false,
          "internalType": "uint256"
        },
        {
          "name": "deltaPnlCNS",
          "type": "int256",
          "indexed": false,
          "internalType": "int256"
        },
        {
          "name": "fundingCNS",
          "type": "int256",
          "indexed": false,
          "internalType": "int256"
        }
      ],
      "anonymous": false
    },
    {
      "type": "event",
      "name": "PositionLiquidated",
      "inputs": [
        {
          "name": "perpId",
          "type": "uint256",
          "indexed": false,
          "internalType": "uint256"
        },
        {
          "name": "posAccountId",
          "type": "uint256",
          "indexed": false,
          "internalType": "uint256"
        },
        {
          "name": "positionType",
          "type": "uint8",
          "indexed": false,
          "internalType": "enum PositionEnum"
        },
        {
          "name": "refPricePNS",
          "type": "uint256",
          "indexed": false,
          "internalType": "uint256"
        },
        {
          "name": "refIsIndex",
          "type": "bool",
          "indexed": false,
          "internalType": "bool"
        },
        {
          "name": "liqPricePNS",
          "type": "uint256",
          "indexed": false,
          "internalType": "uint256"
        },
        {
          "name": "liqLotLNS",
          "type": "uint256",
          "indexed": false,
          "internalType": "uint256"
        },
        {
          "name": "posLotLNS",
          "type": "uint256",
          "indexed": false,
          "internalType": "uint256"
        },
        {
          "name": "deltaPnlCNS",
          "type": "int256",
          "indexed": false,
          "internalType": "int256"
        },
        {
          "name": "fundingCNS",
          "type": "int256",
          "indexed": false,
          "internalType": "int256"
        },
        {
          "name": "posAmountCNS",
          "type": "int256",
          "indexed": false,
          "internalType": "int256"
        },
        {
          "name": "posDepositCNS",
          "type": "uint256",
          "indexed": false,
          "internalType": "uint256"
        },
        {
          "name": "accAmountCNS",
          "type": "int256",
          "indexed": false,
          "internalType": "int256"
        },
        {
          "name": "accBalanceCNS",
          "type": "uint256",
          "indexed": false,
          "internalType": "uint256"
        }
      ],
      "anonymous": false
    },
    {
      "type": "event",
      "name": "PositionOpened",
      "inputs": [
        {
          "name": "perpId",
          "type": "uint256",
          "indexed": false,
          "internalType": "uint256"
        },
        {
          "name": "accountId",
          "type": "uint256",
          "indexed": false,
          "internalType": "uint256"
        },
        {
          "name": "positionType",
          "type": "uint8",
          "indexed": false,
          "internalType": "enum PositionEnum"
        },
        {
          "name": "leverageHdths",
          "type": "uint256",
          "indexed": false,
          "internalType": "uint256"
        },
        {
          "name": "depositCNS",
          "type": "uint256",
          "indexed": false,
          "internalType": "uint256"
        },
        {
          "name": "pricePNS",
          "type": "uint256",
          "indexed": false,
          "internalType": "uint256"
        },
        {
          "name": "lotLNS",
          "type": "uint256",
          "indexed": false,
          "internalType": "uint256"
        }
      ],
      "anonymous": false
    },
    {
      "type": "event",
      "name": "PositionUnwound",
      "inputs": [
        {
          "name": "perpId",
          "type": "uint256",
          "indexed": false,
          "internalType": "uint256"
        },
        {
          "name": "accountId",
          "type": "uint256",
          "indexed": false,
          "internalType": "uint256"
        },
        {
          "name": "refPricePNS",
          "type": "uint256",
          "indexed": false,
          "internalType": "uint256"
        },
        {
          "name": "positionType",
          "type": "uint8",
          "indexed": false,
          "internalType": "enum PositionEnum"
        },
        {
          "name": "pricePNS",
          "type": "uint256",
          "indexed": false,
          "internalType": "uint256"
        },
        {
          "name": "lotLNS",
          "type": "uint256",
          "indexed": false,
          "internalType": "uint256"
        },
        {
          "name": "depositCNS",
          "type": "uint256",
          "indexed": false,
          "internalType": "uint256"
        },
        {
          "name": "positionFmvCNS",
          "type": "int256",
          "indexed": false,
          "internalType": "int256"
        },
        {
          "name": "paymentCNS",
          "type": "uint256",
          "indexed": false,
          "internalType": "uint256"
        },
        {
          "name": "balanceCNS",
          "type": "uint256",
          "indexed": false,
          "internalType": "uint256"
        }
      ],
      "anonymous": false
    },
    {
      "type": "event",
      "name": "PositionUnwoundWithoutPayment",
      "inputs": [
        {
          "name": "perpId",
          "type": "uint256",
          "indexed": false,
          "internalType": "uint256"
        },
        {
          "name": "accountId",
          "type": "uint256",
          "indexed": false,
          "internalType": "uint256"
        },
        {
          "name": "refPricePNS",
          "type": "uint256",
          "indexed": false,
          "internalType": "uint256"
        },
        {
          "name": "positionType",
          "type": "uint8",
          "indexed": false,
          "internalType": "enum PositionEnum"
        },
        {
          "name": "pricePNS",
          "type": "uint256",
          "indexed": false,
          "internalType": "uint256"
        },
        {
          "name": "lotLNS",
          "type": "uint256",
          "indexed": false,
          "internalType": "uint256"
        },
        {
          "name": "depositCNS",
          "type": "uint256",
          "indexed": false,
          "internalType": "uint256"
        },
        {
          "name": "positionFmvCNS",
          "type": "int256",
          "indexed": false,
          "internalType": "int256"
        },
        {
          "name": "amountOwedCNS",
          "type": "uint256",
          "indexed": false,
          "internalType": "uint256"
        }
      ],
      "anonymous": false
    },
    {
      "type": "event",
      "name": "PostOrderUnderMinimum",
      "inputs": [
        {
          "name": "orderAmountCNS",
          "type": "uint256",
          "indexed": false,
          "internalType": "uint256"
        },
        {
          "name": "minAmountCNS",
          "type": "uint256",
          "indexed": false,
          "internalType": "uint256"
        }
      ],
      "anonymous": false
    },
    {
      "type": "event",
      "name": "PriceAdministratorUpdated",
      "inputs": [
        {
          "name": "priceAdministrator",
          "type": "address",
          "indexed": false,
          "internalType": "address"
        },
        {
          "name": "added",
          "type": "bool",
          "indexed": false,
          "internalType": "bool"
        }
      ],
      "anonymous": false
    },
    {
      "type": "event",
      "name": "PriceOutOfRange",
      "inputs": [
        {
          "name": "minPricePNS",
          "type": "uint256",
          "indexed": false,
          "internalType": "uint256"
        },
        {
          "name": "maxPricePNS",
          "type": "uint256",
          "indexed": false,
          "internalType": "uint256"
        }
      ],
      "anonymous": false
    },
    {
      "type": "event",
      "name": "ProtocolBalanceDeposit",
      "inputs": [
        {
          "name": "amountCNS",
          "type": "uint256",
          "indexed": false,
          "internalType": "uint256"
        }
      ],
      "anonymous": false
    },
    {
      "type": "event",
      "name": "ProtocolBalanceWithdraw",
      "inputs": [
        {
          "name": "amountCNS",
          "type": "uint256",
          "indexed": false,
          "internalType": "uint256"
        }
      ],
      "anonymous": false
    },
    {
      "type": "event",
      "name": "RecycleBalanceInsufficientSevere",
      "inputs": [
        {
          "name": "accountId",
          "type": "uint256",
          "indexed": false,
          "internalType": "uint256"
        },
        {
          "name": "orderId",
          "type": "uint256",
          "indexed": false,
          "internalType": "uint256"
        },
        {
          "name": "recycleFeeCNS",
          "type": "uint256",
          "indexed": false,
          "internalType": "uint256"
        },
        {
          "name": "recycleBalanceCNS",
          "type": "uint256",
          "indexed": false,
          "internalType": "uint256"
        }
      ],
      "anonymous": false
    },
    {
      "type": "event",
      "name": "RecycleFeeUpdated",
      "inputs": [
        {
          "name": "recycleFeeCNS",
          "type": "uint256",
          "indexed": false,
          "internalType": "uint256"
        }
      ],
      "anonymous": false
    },
    {
      "type": "event",
      "name": "ReferencePriceAgesExceedMax",
      "inputs": [
        {
          "name": "perpId",
          "type": "uint256",
          "indexed": false,
          "internalType": "uint256"
        },
        {
          "name": "indexTimestamp",
          "type": "uint256",
          "indexed": false,
          "internalType": "uint256"
        },
        {
          "name": "oracleTimestamp",
          "type": "uint256",
          "indexed": false,
          "internalType": "uint256"
        },
        {
          "name": "timestamp",
          "type": "uint256",
          "indexed": false,
          "internalType": "uint256"
        },
        {
          "name": "maxAgeSec",
          "type": "uint256",
          "indexed": false,
          "internalType": "uint256"
        }
      ],
      "anonymous": false
    },
    {
      "type": "event",
      "name": "ReportAgeExceedsLastUpdate",
      "inputs": [
        {
          "name": "perpId",
          "type": "uint256",
          "indexed": false,
          "internalType": "uint256"
        },
        {
          "name": "lastUpdateTimestamp",
          "type": "uint256",
          "indexed": false,
          "internalType": "uint256"
        },
        {
          "name": "reportValidFromTimestamp",
          "type": "uint256",
          "indexed": false,
          "internalType": "uint256"
        }
      ],
      "anonymous": false
    },
    {
      "type": "event",
      "name": "ReportPriceIsNegative",
      "inputs": [
        {
          "name": "perpId",
          "type": "uint256",
          "indexed": false,
          "internalType": "uint256"
        },
        {
          "name": "reportPrice",
          "type": "int256",
          "indexed": false,
          "internalType": "int256"
        }
      ],
      "anonymous": false
    },
    {
      "type": "event",
      "name": "TakerFeeUpdated",
      "inputs": [
        {
          "name": "perpId",
          "type": "uint256",
          "indexed": false,
          "internalType": "uint256"
        },
        {
          "name": "takerFeePer100K",
          "type": "uint256",
          "indexed": false,
          "internalType": "uint256"
        }
      ],
      "anonymous": false
    },
    {
      "type": "event",
      "name": "TakerOrderFilled",
      "inputs": [
        {
          "name": "pricePNS",
          "type": "uint256",
          "indexed": false,
          "internalType": "uint256"
        },
        {
          "name": "lotLNS",
          "type": "uint256",
          "indexed": false,
          "internalType": "uint256"
        },
        {
          "name": "feeCNS",
          "type": "uint256",
          "indexed": false,
          "internalType": "uint256"
        },
        {
          "name": "amountCNS",
          "type": "int256",
          "indexed": false,
          "internalType": "int256"
        },
        {
          "name": "balanceCNS",
          "type": "uint256",
          "indexed": false,
          "internalType": "uint256"
        }
      ],
      "anonymous": false
    },
    {
      "type": "event",
      "name": "TransferAccountToProtocol",
      "inputs": [
        {
          "name": "accountId",
          "type": "uint256",
          "indexed": false,
          "internalType": "uint256"
        },
        {
          "name": "amountCNS",
          "type": "uint256",
          "indexed": false,
          "internalType": "uint256"
        },
        {
          "name": "balanceCNS",
          "type": "uint256",
          "indexed": false,
          "internalType": "uint256"
        }
      ],
      "anonymous": false
    },
    {
      "type": "event",
      "name": "TransferPerpInsToProtocol",
      "inputs": [
        {
          "name": "perpId",
          "type": "uint256",
          "indexed": false,
          "internalType": "uint256"
        },
        {
          "name": "amountCNS",
          "type": "uint256",
          "indexed": false,
          "internalType": "uint256"
        }
      ],
      "anonymous": false
    },
    {
      "type": "event",
      "name": "TransferProtocolToAccount",
      "inputs": [
        {
          "name": "accountId",
          "type": "uint256",
          "indexed": false,
          "internalType": "uint256"
        },
        {
          "name": "amountCNS",
          "type": "uint256",
          "indexed": false,
          "internalType": "uint256"
        },
        {
          "name": "balanceCNS",
          "type": "uint256",
          "indexed": false,
          "internalType": "uint256"
        }
      ],
      "anonymous": false
    },
    {
      "type": "event",
      "name": "TransferProtocolToPerp",
      "inputs": [
        {
          "name": "perpId",
          "type": "uint256",
          "indexed": false,
          "internalType": "uint256"
        },
        {
          "name": "amountCNS",
          "type": "uint256",
          "indexed": false,
          "internalType": "uint256"
        },
        {
          "name": "toInsuranceFund",
          "type": "bool",
          "indexed": false,
          "internalType": "bool"
        }
      ],
      "anonymous": false
    },
    {
      "type": "event",
      "name": "TransferProtocolToRecycleBal",
      "inputs": [
        {
          "name": "amountCNS",
          "type": "uint256",
          "indexed": false,
          "internalType": "uint256"
        }
      ],
      "anonymous": false
    },
    {
      "type": "event",
      "name": "UnableToCancelOrder",
      "inputs": [
        {
          "name": "perpId",
          "type": "uint256",
          "indexed": false,
          "internalType": "uint256"
        },
        {
          "name": "orderId",
          "type": "uint256",
          "indexed": false,
          "internalType": "uint256"
        }
      ],
      "anonymous": false
    },
    {
      "type": "event",
      "name": "UnityDescentThreshUpdated",
      "inputs": [
        {
          "name": "perpId",
          "type": "uint256",
          "indexed": false,
          "internalType": "uint256"
        },
        {
          "name": "threshHdths",
          "type": "uint256",
          "indexed": false,
          "internalType": "uint256"
        }
      ],
      "anonymous": false
    },
    {
      "type": "event",
      "name": "UnspecifiedCollateral",
      "inputs": [],
      "anonymous": false
    },
    {
      "type": "event",
      "name": "UnsupportedOperation",
      "inputs": [
        {
          "name": "perpId",
          "type": "uint256",
          "indexed": false,
          "internalType": "uint256"
        },
        {
          "name": "opType",
          "type": "uint8",
          "indexed": false,
          "internalType": "enum OpDescEnum"
        }
      ],
      "anonymous": false
    },
    {
      "type": "event",
      "name": "UnwindCompleted",
      "inputs": [
        {
          "name": "perpId",
          "type": "uint256",
          "indexed": false,
          "internalType": "uint256"
        },
        {
          "name": "positionsUnwound",
          "type": "uint256",
          "indexed": false,
          "internalType": "uint256"
        },
        {
          "name": "perpPositionBalanceCNS",
          "type": "uint256",
          "indexed": false,
          "internalType": "uint256"
        }
      ],
      "anonymous": false
    },
    {
      "type": "event",
      "name": "UnwindInitializationCleared",
      "inputs": [
        {
          "name": "perpId",
          "type": "uint256",
          "indexed": false,
          "internalType": "uint256"
        }
      ],
      "anonymous": false
    },
    {
      "type": "event",
      "name": "UnwindInitialized",
      "inputs": [
        {
          "name": "perpId",
          "type": "uint256",
          "indexed": false,
          "internalType": "uint256"
        },
        {
          "name": "sumPositiveFmvCNS",
          "type": "uint256",
          "indexed": false,
          "internalType": "uint256"
        }
      ],
      "anonymous": false
    },
    {
      "type": "event",
      "name": "UnwindInsufficientBalance",
      "inputs": [
        {
          "name": "perpId",
          "type": "uint256",
          "indexed": false,
          "internalType": "uint256"
        },
        {
          "name": "accountId",
          "type": "uint256",
          "indexed": false,
          "internalType": "uint256"
        },
        {
          "name": "perpPositionBalanceCNS",
          "type": "uint256",
          "indexed": false,
          "internalType": "uint256"
        },
        {
          "name": "paymentCNS",
          "type": "uint256",
          "indexed": false,
          "internalType": "uint256"
        }
      ],
      "anonymous": false
    },
    {
      "type": "event",
      "name": "UnwindIterationCompleted",
      "inputs": [
        {
          "name": "perpId",
          "type": "uint256",
          "indexed": false,
          "internalType": "uint256"
        },
        {
          "name": "positionsUnwound",
          "type": "uint256",
          "indexed": false,
          "internalType": "uint256"
        },
        {
          "name": "perpPositionBalanceCNS",
          "type": "uint256",
          "indexed": false,
          "internalType": "uint256"
        }
      ],
      "anonymous": false
    },
    {
      "type": "event",
      "name": "UpdateOracleFailed",
      "inputs": [
        {
          "name": "perpId",
          "type": "uint256",
          "indexed": false,
          "internalType": "uint256"
        }
      ],
      "anonymous": false
    },
    {
      "type": "event",
      "name": "WRLSThousandthsTvlUpdated",
      "inputs": [
        {
          "name": "thousandthsTvl",
          "type": "uint256",
          "indexed": false,
          "internalType": "uint256"
        }
      ],
      "anonymous": false
    },
    {
      "type": "event",
      "name": "WithdrawRateLimitReset",
      "inputs": [
        {
          "name": "newExpiryBlock",
          "type": "uint256",
          "indexed": false,
          "internalType": "uint256"
        },
        {
          "name": "newLimitCNS",
          "type": "uint256",
          "indexed": false,
          "internalType": "uint256"
        },
        {
          "name": "perBlockCNS",
          "type": "uint256",
          "indexed": false,
          "internalType": "uint256"
        }
      ],
      "anonymous": false
    },
    {
      "type": "event",
      "name": "WrongAccountForOrder",
      "inputs": [],
      "anonymous": false
    }
  ],
  "bytecode": {
    "object": "0x60e080604052346101d0576060816201504f80380380916100208285610226565b8339810103126101d05780516001600160a01b03811691908290036101d05760406020820151910151908115918215036101d057600180546001600160a01b03199081169091555f805433928116831782556001600160a01b0316907f8be0079c531659141344cd1fd0a4f28419497f9722a3daafe3b4186f6b6457e09080a36001600255818061021a575b6102025780608052806005029060058204036101ee5760a052156101e757608f5b60c052600580546001600160a01b0319168217905560405163313ce56760e01b8152602081600481855afa80156101dc575f9061019b575b60ff9150169060068203610181576305f5e1006007556001600f55606460085560038054613fff60d51b1916600560d61b17905560405162014df190816200025e8239608051818181614d4601528181619743015261c435015260a051818181619719015261c3fa015260c0518181816181ec01526187610152f35b630f30f42960e01b5f52600452602452600660445260645ffd5b506020813d6020116101d4575b816101b560209383610226565b810103126101d0575160ff811681036101d05760ff90610105565b5f80fd5b3d91506101a8565b6040513d5f823e3d90fd5b603c6100cd565b634e487b7160e01b5f52601160045260245ffd5b63bc32901360e01b5f5260045261217b60245260445ffd5b5061217b8114156100ac565b601f909101601f19168101906001600160401b0382119082101761024957604052565b634e487b7160e01b5f52604160045260245ffdfe61054080604052600436101562000014575f80fd5b5f905f3560e01c908162092cce1462004fe157508062e5796b1462004f4e57806303cfe83c1462004e9557806305aca1411462004e5f5780630697afae1462004dd4578063075367f61462004daa5780630a2eb3011462004d695780630d3e87a71462004d2d5780630f03e4c31462004d01578063120141561462004c405780631275d14c1462004c0b57806312e8eb2c1462004b5a578063156352e61462004aac57806316a065931462004a1957806316a483ea14620049fb578063182b01f214620049a15780631973c61914620049635780631df87ade14620048f557806320c801d214620048b3578063229c249214620048155780632709b7461462004781578063279289e914620046f45780632f32509b146200460557806338ecd885146200452d578063396d7e4714620044ee5780633a63dabe14620044d05780634119f930146200449b57806343559bbf14620044175780634a9a415814620043a35780634b8344fb14620042da5780634d3282b414620042595780635405611914620041df57806358087a74146200415a578063586d92ca14620040cb5780635bf9264c1462003f685780635e1a35731462003ef75780635fb78a021462003ec257806360ad17fd1462003d8a5780636112fe2e1462003c8057806361bd6f441462003ba9578063653a6bd71462003b4a5780636728641b1462003af55780636825e9e51462003a6957806369752159146200392c5780636b69ebbe14620037a25780636debf8fa146200374e578063715018a614620036e3578063751de421146200353b5780637962f910146200343657806379ba509714620033545780637cca3b0614620032085780637e33fb80146200317757806387c9505814620030b5578063893d20e81462002ca25780638a9246401462002fdf5780638bc5b3c51462002f7c5780638bcf1b271462002e4b5780638c0311641462002d825780638c1c2cef1462002cc95780638da5cb5b1462002ca25780638f3ffc851462002c2157806392f54b3a14620024d35780639a6d7630146200247e5780639d2ec18814620023bd5780639e430eda14620021485780639fc8afd714620020c85780639fffdfe214620020a1578063a5e9c4111462001feb578063a9bd5cee1462001f28578063abce7b201462001e8a578063b216d0d21462001e01578063b5fcf7621462001dd5578063bad4a01f1462001d93578063bbf979ac1462001d1a578063be0783f51462001ca6578063c2852f381462001bcd578063c7ff15841462001ba4578063cab139151462001a38578063d360dd3114620019c8578063d3b8c49d146200186c578063d541abc11462001812578063d6f34bd61462001797578063d780ece8146200170c578063d8b4426814620016cb578063d952a5941462001695578063dbfbf7e81462001654578063dec92b691462001634578063e2e1cb57146200158a578063e30c39781462001561578063e548bb571462001161578063e68073c314620010a5578063e74e2c9b1462001042578063ebc950f71462000fce578063ec41ec331462000f98578063ed6760fe1462000ec1578063edb1314e1462000e8c578063efb629041462000dc4578063f28b98f31462000d24578063f2fde38b1462000caf578063f769f0d31462000bfa578063fb05acb714620006a9578063fb455f6b14620006385763fe37fe1214620004f2575f80fd5b3462000635576200050336620053d5565b90829183600f8192620005266200051b849662006d46565b916008830162007fdd565b50910190805b6200056157505050906200055d91604051948594859094939260609260808301968352602083015260408201520152565b0390f35b8252806020526040822054946200057e60ff8760201c166200a6e5565b6200059263ffffffff8860781c1662009e6c565b620005e75715620005c457620005b761ffff9164ffffffffff8860401c169062006992565b955b60c81c16806200052c565b9492620005e061ffff9164ffffffffff8660401c169062006992565b93620005b9565b959690951562000612576200060b61ffff9164ffffffffff8960401c169062006992565b96620005b9565b95936200062e61ffff9164ffffffffff8760401c169062006992565b94620005b9565b80fd5b503462000635576200064a36620053d5565b919062ffffff83116200068f57602092600b6200066b620006729362006d46565b016200a5cb565b905f19821462000686575b50604051908152f35b90505f6200067d565b5060449163c6ebaaa160e01b825260045262ffffff602452fd5b50346200063557620006bb36620058fa565b60a09291925260c052620006ce62006d97565b620006db60c05162006d46565b916001830191825460f81c1562000be557835460ff8160f01c161562000bd0578060f81c1562000b77575b50916001600160501b03845460301c1690600385015460805263ffffffff6004860154915416839163ffffffff601088015416925b8315158062000b6d575b1562000b6057838652601188016020526040862093808752600d6020526040872090848654620007b36200079e8d64ffffffffff8460b81c169063ffffffff8560981c16908560e01c908760ff8860401c169162007e4b565b50506001600160501b038360481c166200a5af565b8a918280831362000929575b93620008779363ffffffff936200088497936200088a9a99975f146200089057917f2ce44e296cf9f36d06b56fb77dfebb744f984a66a7a32a9c1982adde5719a10893916001600160501b03610120946040519460c05186528860208701526040860152620008386060860160ff8360401c166200564c565b888160981c16608086015264ffffffffff8160b81c1660a086015260481c1660c084015260e0830152610100820152a15b9854169760108d016200dbf2565b600460c05191016200dd42565b6200624e565b6200073b565b610140927f8e75a224410b0b5b54b88738c69eb996a4225e1720432903a1b03693c3fcb6f894926001600160501b03808b5416936040519560c05187528960208801526040870152620008ed6060870160ff8360401c166200564c565b898160981c16608087015264ffffffffff8160b81c1660a087015260481c1660c085015260e0840152610100830152610120820152a162000869565b608051909450919250901562000b5957620009526080516200094c848a620069ca565b6200781a565b80938b82115f1462000b1b575060019060a0511562000998575093886200088a979694620008779463ffffffff9462000884985b9397999a5093975093509350620007bf565b969a9b9d9c50505050509450507f8c6452308f4aa5da3dd7582bf4f08c41c0bd9378806d96ce939fbddad72bf9269250620009f69150604051918291878660c051859094939260609260808301968352602083015260408201520152565b0390a15b1562000a725782546fffffffffffffffffffff0000000000001916603083901b6fffffffffffffffffffff00000000000016179092556040805160c051815260208101939093528201527fbdbd36cd24c97780cb0f5652a6498a852056dcb4863f8714110142e501b251449080606081015b0390a180f35b6040805160c0518152602081019290925281018290526002929162000ad4917fefeda965577e696236292c2f584176f4a4f16d597d0a0818a3836f146b071ce990606090a182546fffffffffffffffffffff00000000000019168355620080ba565b80547dffffffffffffffffffffffffffffffffffffffffffffffffffffffffffff168155600481018390556003810183905501805469ffffffffffffffffffff1916905580f35b919294909a62000b318c8b929998969962005cef565b9b62000b3e9086620077ee565b6200088a976200088496620008779563ffffffff9562000986565b8a62000952565b93949695505050620009fa565b5086811062000745565b6001600160501b0362000ba39169ffffffffffffffffffff60801b19875416875560801c16856200a38f565b8354603081901c6001600160501b031660048601556001600160f81b0316600160f81b1784555f62000706565b631750b76d60e11b835260c051600452602483fd5b631512f56d60e31b825260c051600452602482fd5b5034620006355762000c0c36620053d5565b62000c1992919262006e63565b62000ca05762000c2933620074fd565b808352600d602052604083209360ff855460a01c1662000c4981620053ec565b8062000c81575062000c5b9062006d46565b93821562000c725762000c6f93946200a3fc565b80f35b631fccd51f60e01b8452600484fd5b63e0860e5f60e01b8552602490859062000c9b81620053ec565b600452fd5b630b15863d60e41b8252600482fd5b50346200063557602036600319011262000635576001600160a01b0362000cd562005469565b62000cdf62006d97565b16806001600160a01b031960015416176001556001600160a01b038254167f38d16b8cac22d99fc7c124b9cd0de2d3fa1faef420bfe791d8c362d765e227008380a380f35b503462000635576020366003190112620006355760043562000d4562006d97565b6309c3d8f080821162000daa575060035462000d6062006e47565b91612710613fff9104831b921b1916176003557f8ad800de6b48db2a4430821a66e9ea34dee8c66fea63f8a83559bf91279cf77c602062000da06200785f565b604051908152a180f35b60649291630c8f0a6960e41b835260045281602452604452fd5b5034620006355762000df1600862000ddc3662005631565b929162000deb94919462006d97565b62006d46565b0162000dfe838262009694565b60028210801562000e81575b62000e635791604091837fbb5907b6810f0c2966db8e0939fbf4a19724f4e58e2bfd1d15195fdf8b4908a2945468ff000000000000000083861b169068ff0000000000000000191617905582519182526020820152a180f35b630c8f0a6960e41b8452600482905260026024526009604452606484fd5b506009821162000e0a565b5034620006355780600319360112620006355760209060035490506c1fffffffffffffffffffffffff6040519160701c168152f35b5034620006355762000ed336620053d5565b62000edd62006d97565b62000ee88262006d46565b60018210801562000f8d575b62000f715760010160ff815460e81c168083111562000f5a5750805460ff60f01b191660f083901b60ff60f01b161790556040805192835260208301919091527fb0459c2e01b889e7e78bb7d1400cb3049a1d98ef3d6949439b173c5ffba92dd191a180f35b630ba8360160e41b85526004526024829052604484fd5b60648483630c8f0a6960e41b8252600452600160245281604452fd5b506064821162000ef4565b5034620006355760203660031901126200063557602061ffff600262000fc060043562006d46565b015460881c16604051908152f35b5034620006355762000fe036620053d5565b90338352601360205260ff604084205416156200102f576200100162006e63565b620010205790620010166200101c9262006d46565b62008e23565b5080f35b630b15863d60e41b8352600483fd5b636dfc4d6160e11b835233600452602483fd5b503462000635577f6bf5f38f4e94f47ae7a4d6e56dbf388c856f890b5f0f2808b66914710b0266ca60406200107736620053d5565b6200108162006d97565b6200109781620010918462006d46565b6200958a565b82519182526020820152a180f35b50346200063557620010b736620058fa565b90620010c262006d97565b6003546001600160701b03168181106200114d5750916060917fe3bcf60a5994e7328c2ddfbbf2c18d6e57c1cc69502d1ee3900c1e1f08ca555d93620011088362006d46565b620011138262007751565b8183156200113c5762001126916200a3de565b604051928352602083015215156040820152a180f35b62001147916200a38f565b62001126565b62fae2d560e21b8552600452602452604483fd5b50346200063557602036600319011262000635576004359067ffffffffffffffff8211620006355736602383011215620006355781600401359067ffffffffffffffff82116200063557602483013660248460061b860101116200155d57338252601260205260ff604083205416156200154a57620011df62006e63565b62000ca057821562001536578035620011f88162006d46565b6008810193600182015460f81c93815b87811015620015325780620014f4575b60019087602084013580158015620014e8575b620014e057808652600782016020526040862063ffffffff81541615620014d75780548863ffffffff821692838a52600d60205260408a20926200127863ffffffff8260781c1662009e6c565b908115620014ce575b8115620014b0575b811562001363575b5015620013275784620012f1816200131c9561ffff60027f3669d8cc87cc659246c535cf34b73f019e2da2a48e04d14093701e877fb6eac69b97620012e4620012de620012f8996200673c565b62009eaa565b015460781c169062009f64565b926200a350565b6040519384938c859094939260609260808301968352602083015260408201520152565b0390a15b0162001208565b505050507fa2f88eaf96334c482f1071c105643f009253e044dc7767b94cd01f787c7d92ad91506040908151908982526020820152a162001320565b90508a9087549061ffff8260301c1661ffff8360201c16116200138a575b50505f62001291565b60ff8260401c1690620013a360ff8260201c166200a6e5565b15620014315762ffffff808460781c169360901c16918315158062001427575b620013d6575b505050505b5f8062001381565b839450620013fa6200140191620013f48562ffffff95969762005cef565b6200d3f9565b8562005cef565b9160281c16109182156200141c575b50505f808080620013c9565b1490505f8062001410565b50821515620013c3565b62ffffff808460481c169360601c169183151580620014a6575b6200145b575b50505050620013ce565b8394506200147962001480916200094c8562ffffff95969762005cef565b8462006992565b9160281c16119182156200149b575b50505f80808062001451565b1490505f806200148f565b508215156200144b565b905060ff845460a01c16620014c581620053ec565b15159062001289565b8e915062001281565b50505062001320565b505062001320565b5061ffff81116200122b565b600681901b890160240191508135851462001218579450945090506200151a8262006d46565b90600882019460018084015460f81c95905062001218565b8280f35b634e487b7160e01b82526032600452602482fd5b63a37849fb60e01b825233600452602482fd5b5080fd5b5034620006355780600319360112620006355760206001600160a01b0360015416604051908152f35b503462000635576200159c36620053d5565b620015a662006d97565b620015b18262006d46565b600281015461ffff8160e81c16808411620015f857857f9c6091bfb36035e2973fb3ad5c07d8c5d74d0981770feea276a41c4221246f0e60408787620010978189620095bf565b6040516322b85af560e11b8152600481018690526024810185905260d89290921c61ffff908116604484015216606482015280608481015b0390fd5b503462000635578060031936011262000635576020600754604051908152f35b503462000635576020366003190112620006355760ff60406020926001600160a01b036200168162005469565b168152601484522054166040519015158152f35b5034620006355760203660031901126200063557602061ffff6002620016bd60043562006d46565b015460a81c16604051908152f35b503462000635576020366003190112620006355760ff60406020926001600160a01b03620016f862005469565b168152601384522054166040519015158152f35b50346200063557602036600319011262000635576004356200172d62006d97565b6001811080156200178c575b62001770576020817fc6edc4969138bba547ff56e984b415e7a1ec1181d6199d6946c48e3a8589063692600855604051908152a180f35b63034bd7dd60e31b8252600160045260fa602452604452606490fd5b5060fa811162001739565b5034620006355760203660031901126200063557600435620017b862006d97565b64e8d4a510008111620017f7576020817f0fface2454d594caf83c2c1b1f8da428b41a8585fcf72713ea6ce39cd6cba9fc92600755604051908152a180f35b6395d41f3f60e01b825260045264e8d4a51000602452604490fd5b5034620006355762001824366200555d565b90929192338352601260205260ff6040842054161562001859576200184862006e63565b620010205762000c6f929362006ca3565b63a37849fb60e01b835233600452602483fd5b503462000635576040366003190112620006355760043567ffffffffffffffff81116200155d57366023820112156200155d5780600401359067ffffffffffffffff8211620019c45760248101903660248460071b83010111620019c057620018d462005480565b91338552601460205260ff60408620541615620019ad57620018f562006e63565b6200199e5783156200198a5780356200190e8162006d46565b92865b868110156200198657806200194f575b6001906200194887620019376060880162005a8f565b604088013560208901358a62009dc2565b0162001911565b925060248360071b8201019283358084036200196d575b5062001921565b9250935060016200197e8362006d46565b949062001966565b8780f35b634e487b7160e01b85526032600452602485fd5b630b15863d60e41b8552600485fd5b631d37e03560e31b855233600452602485fd5b8380fd5b8280fd5b50346200063557602036600319011262000635577fa9a3e53f31ef1464015e1b64897b819880bcc9787e25987d6d4336f3613ade2660206001600160a01b0362001a1162005469565b62001a1b62006d97565b16806001600160a01b03196004541617600455604051908152a180f35b503462000635576020366003190112620006355760043562001a5962008ffc565b62001a6362006e63565b62000ca057600754811062001b8e57338252600e60205260408220548062001b785750600f54906001820180831162001b645763ffffffff811162001b55579060209362001b4892600f55838152600d85528360406001818420019283546bffffffffffffffffffffffff80193360601b169116178455338152600e8852205563ffffffff8085161663ffffffff198254161790557f7325fb14450d3e5eb288c620b4ff1d6b43a41b33b4a4f143ae88cd4c12f99ea36040518062001b3f863383602090939291936001600160a01b0360408201951681520152565b0390a162009783565b6001600255604051908152f35b634e5bb58160e01b8452600484fd5b634e487b7160e01b84526011600452602484fd5b630c8c12bd60e31b835233600452602452604482fd5b630cfe73bb60e41b825233600452602452604490fd5b50346200063557806003193601126200063557602062001bc362006e63565b6040519015158152f35b5034620006355760203660031901126200063557338152601260205260ff6040822054161562001c935762001c0162006e63565b62001c845762001c1360043562006d46565b600181019081549160018360f81c15150362001c2d578380f35b600260409261ffff927f2bf3500d8e3b78624f68716bdcfccb30df6b6ef393561a3ffa32e8d357ac7e43956001600160f81b03600160f81b9116179055015460781c16815190815260016020820152a15f80808380f35b630b15863d60e41b8152600490fd5b63a37849fb60e01b815233600452602490fd5b503462000635576020366003190112620006355760043562001cc762006d97565b6309c3d8f080821162000daa5750600354612710613fff920460d51b9160d51b1916176003557f4151e59ddd8ffe35ce0b539f837d353ed0ff884e058b715910c7f4688a5da736602062000da06200772d565b5034620006355760803660031901126200063557338152601460205260ff6040822054161562001d805762001d4e62006e63565b62001c845762001d6060043562006d46565b6064358015158103620019c45762000c6f9160443590602435906200986f565b631d37e03560e31b815233600452602490fd5b503462000635576020366003190112620006355762001db162008ffc565b62001dbb62006e63565b62001c845762001dcd60043562009783565b600160025580f35b5034620006355780600319360112620006355760209060035490506001600160701b0360405191168152f35b503462000635576080366003190112620006355760043560443567ffffffffffffffff8111620019c45762001e3b903690600401620054b0565b9162001e46620054a0565b93338152601460205260ff6040822054161562001d805762001e6762006e63565b62001c8457602062001bc38686866024358762001e848162006d46565b6200790f565b503462000635576020366003190112620006355760043567ffffffffffffffff81116200155d57366023820112156200155d5780600401359167ffffffffffffffff831162000635573660248460091b840101116200063557338152601260205260ff6040822054161562001c935762001f0362006e63565b62001c84576200055d62001f1b846024850162006ad5565b60405191829182620054e4565b50346200063557604036600319011262000635577f6259c67b83c17d274bef178edcf79755337c12fdc6de65b955b5ab3f95e82e0562001f6762005469565b62001f7162005480565b9062001f7c62006d97565b811562001fc8576001600160a01b0381168452601360205260408420805460ff191660011790555b604080516001600160a01b0390921682529115156020820152908190810162000a6c565b6001600160a01b0381168452601360205260408420805460ff1916905562001fa4565b5034620006355762001ffd36620053d5565b6200200762006d97565b620020128262006d46565b600181015460f81c156200208d57805460ff8160f01c1662002079576003820183905560ff60f01b1916600160f01b1790556040805192835260208301919091527f7101921841f3f86b1db94836f0b095d276833a7b6669c5d7628161978ae7e68691a180f35b633e626edf60e01b85526004849052602485fd5b631512f56d60e31b84526004839052602484fd5b503462000635578060031936011262000635576020620020c062007839565b604051908152f35b5034620006355760a036600319011262000635576044359063ffffffff82168092036200063557620020f9620054a0565b608435908115158203620019c457338352601360205260ff604084205416156200102f576200212762006e63565b620010205762000c6f92936024356200214260043562006d46565b62008746565b50346200063557604036600319011262000635576004356200216962005480565b6200217362006d97565b6200217d62006e63565b62001020576200218d8262006d46565b90801592838094620023aa575b62002221575b506001820180546001600160f81b031691151560f81b7fff00000000000000000000000000000000000000000000000000000000000000169190911790557f2bf3500d8e3b78624f68716bdcfccb30df6b6ef393561a3ffa32e8d357ac7e439160409161ffff906002905b015460781c16908251918252156020820152a180f35b82549060ff8260f01c166200239857600284015460f81c62002339576001600160a01b0360045416801580156200232c575b6200230c575063ffffffff600185015460801c1615620022fa575060026040936200220b7f2bf3500d8e3b78624f68716bdcfccb30df6b6ef393561a3ffa32e8d357ac7e43969463ffffffff61ffff955b60d01c1615620022bc575b94965050935050620021a0565b620022f463ffffffff620022d043620096f3565b875463ffffffff60d01b1916931660d01b63ffffffff60d01b169290921786555050565b620022af565b630c5eed9d60e11b8652600452602485fd5b6005850154631744ee4f60e31b8852600492909252602452604452606485fd5b5060058501541562002253565b63ffffffff6001850154161562002386575060026040936200220b7f2bf3500d8e3b78624f68716bdcfccb30df6b6ef393561a3ffa32e8d357ac7e43969463ffffffff61ffff95620022a4565b6305885aa560e01b8652600452602485fd5b633e626edf60e01b8652600452602485fd5b5060018084015460f81c1515146200219a565b50346200063557620023cf36620053d5565b620023d962006d97565b620023e48262006d46565b620186a082116200245757600101805462ffffff60c01b191660c083901b7affffff000000000000000000000000000000000000000000000000161790556040805192835260208301919091527f95e1172237a02916c6d5aba284d04aa4e02e876b0c666387d62f03d0cd77719a91a180f35b60020154630dbcc17f60e31b845260781c61ffff16600452602452620186a0604452606482fd5b503462000635577f672c0a156ee23d5a79ee89b233d6d30458115eabf152fb294cb8a894eadeeb116040620024b336620053d5565b620024bd62006d97565b6200109781620024cd8462006d46565b62009620565b3462002c1d5761014036600319011262002c1d5760043567ffffffffffffffff811162002c1d576200250a903690600401620058c9565b9060243567ffffffffffffffff811162002c1d576200252e903690600401620058c9565b9290604435916064359160843560a435610104359761012435906200255262006d97565b6200255c62008ffc565b6050861162002bce576010811162002b7f576103fc881162002b6c57875f52601160205260405f20956200259087620077c7565b62002b59576006620025a3858762006992565b1162002b2e57600687019967ffffffffffffffff821162002a7157620025ca8b546200591f565b601f811162002afa575b505f90601f831160011462002a91576200260692915f918362002a85575b50508160011b915f199060031b1c19161790565b89555b600786019467ffffffffffffffff821162002a71576200262a86546200591f565b601f811162002a31575b505f90601f8311600114620029c8576200266592915f9183620029bc5750508160011b915f199060031b1c19161790565b84555b60028501805470ffff0000000000000000000000000000001916607889901b61ffff60781b1617815598600186019384549060068111620029a557600685116200298d5760d81b7bff000000000000000000000000000000000000000000000000000000167effff0000ffffffffffffffffffffffffffffffffffffffffffffffffffffff9091161760e084901b60ff60e01b1617600160f81b1784556200271360c43587620094d3565b6200272160e435876200958a565b81811162002978576200274c92916200273f620027469288620095bf565b866200952f565b62006a3f565b80620f42400290620f424082040362002964576200276b908462009620565b805461ffff60e81b1916612fad60e91b178155600983018054600885019491901562002944575b5063feffffff8086116200292e5750835463ffffffff191663ffffffff86161784558754762710003c138800000000000000000000000000000000007fffffffffffffffffff000000000000ffffffffffffffffffffffffffffffffff9091161788557f0b2efc0af76436c4033a79c6ea9b6120b41fd2abd5fdb32a0bca3b28fb1f4dd29761ffff9460ff939192620028d292916200283461d8ef8262009694565b805468ff0000000000000000191668020000000000000000179055815462ffffff60c01b191679c350000000000000000000000000000000000000000000000000178255805464823500823565ffffffffffff199091161790556010546200289c906200624e565b60105554915493620028c3604051998a998a5261016060208b01526101608a019062006a4e565b9088820360408a015262006a4e565b948160f81c151560608801526080870152818160d81c1660a087015260e01c1660c0850152818160b81c1660e0850152818160c81c16610100850152818160d81c1661012085015260e81c166101408301520390a16001600255005b856395d41f3f60e01b5f5260045260245260445ffd5b5f1990555f8052600a810160205260405f20600181541790558862002792565b634e487b7160e01b5f52601160045260245ffd5b6320f9238560e11b5f5260045260245260445ffd5b846395d41f3f60e01b5f52600452600660245260445ffd5b6395d41f3f60e01b5f52600452600660245260445ffd5b013590508c80620025f2565b601f19831691875f5260205f20925f5b81811062002a185750908460019594939210620029fe575b505050811b01845562002668565b01355f19600384901b60f8161c191690558b8080620029f0565b91936020600181928787013581550195019201620029d8565b62002a5f90875f5260205f20601f850160051c8101916020861062002a66575b601f0160051c0190620069b2565b8b62002634565b909150819062002a51565b634e487b7160e01b5f52604160045260245ffd5b013590508d80620025f2565b601f198316918c5f5260205f20925f5b81811062002ae1575090846001959493921062002ac7575b505050811b01895562002609565b01355f19600384901b60f8161c191690558c808062002ab9565b9193602060018192878701358155019501920162002aa1565b62002b27908c5f5260205f20601f850160051c8101916020861062002a6657601f0160051c0190620069b2565b8c620025d4565b60848985876040519263bc42e62760e01b845260048401526006602484015260448301526064820152fd5b8863c401953760e01b5f5260045260245ffd5b8763324f0d9160e21b5f5260045260245ffd5b60808582604051938492631ffb247760e11b84526060600485015281606485015260848401375f8360048385010101526004601f19601f83011683010190602483015260106044830152030190fd5b60405163ab94bf3960e01b8152606060048201526064810187905260808188808d60848401375f8360048385010101526004601f19601f83011683010190602483015260506044830152030190fd5b5f80fd5b3462002c1d57604036600319011262002c1d5760043560243567ffffffffffffffff811162002c1d573660238201121562002c1d5762002c6c9036906024816004013591016200588e565b62002c7662006e63565b62002c93578162002c8b62002c919362006d46565b62007643565b005b630b15863d60e41b5f5260045ffd5b3462002c1d575f36600319011262002c1d5760206001600160a01b035f5416604051908152f35b3462002c1d57602036600319011262002c1d5762002ce960043562006def565b8054908160f01c9062002cfc82620061f5565b91600263ffffffff5f9560b01c169201915b8015158062002d78575b1562002d68575f528160205263ffffffff60405f2062002d5c62002d3c876200624e565b9662002d48836200625d565b62002d54828962005e03565b528662005e03565b505460201c1662002d0e565b604051806200055d868262005595565b5081851062002d18565b3462002c1d5762002d9336620053d5565b62002d9d62006d97565b62002da88262006d46565b600281015461ffff8160e81c16808410801562002e3a575b62002e03577f258cfea0edc89c1ba4ce7d75bd475712ab2a06ce19794e2193cbd64f182a3f786040868662002df681886200952f565b82519182526020820152a1005b60405163be5707cb60e01b8152600481018690526024810185905261ffff918216604482015260d89290921c166064820152608490fd5b5061ffff8260d81c16841062002dc0565b3462002c1d57602036600319011262002c1d575f8080806004354381101562002e99575b50906200055d91604051948594859094939260609260808301968352602083015260408201520152565b9350505050600b54600c54600a548284115f1462002f495750505061217b81018082116200296457906103e862002ed660085460065490620069ca565b0464e8d4a5100081111562002f3c575b61217b810461217b81029181159282810461217b14841715620029645762002f0e9162005cef565b61085f82029282840461085f14171562002964576200055d9262002f329162006992565b925b909162002e6f565b5064e8d4a5100062002ee6565b62002f7582939462002f6e8362002f686200055d966009549462005cef565b620069ca565b9062006992565b9262002f34565b3462002c1d575f36600319011262002c1d5760a06006546003546001600160701b03906c1fffffffffffffffffffffffff906001600160a01b0360045416926040519485528116602085015260701c166040830152600660608301526080820152f35b3462002c1d57602036600319011262002c1d5760043562002fff62006d97565b6003546001600160701b0316808211620030a157506006548082116200308c577ffbebce9e66eea6596d62b805af61b4b1ea406128e73ffb928faa091b17d524f96020836200304e81620091a2565b620030598162007751565b620030678160065462005cef565b60065562003083816001600160a01b0360055416339062009345565b604051908152a1005b6303dc938760e61b5f5260045260245260445ffd5b62fae2d560e21b5f5260045260245260445ffd5b3462002c1d57604036600319011262002c1d577f184fbff1cd7a3d3af1fd538263d79328e135402c70c68de9b795ee4fcc0440bc620030f362005469565b620030fd62005480565b906200310862006d97565b811562003154576001600160a01b0381165f52601260205260405f20600160ff198254161790555b604080516001600160a01b039092168252911515602082015290819081015b0390a1005b6001600160a01b0381165f52601260205260405f2060ff19815416905562003130565b3462002c1d576200318836620053d5565b6200319262006d97565b61012c808211620031ef577fdc69c1ebd7f21dc66c736c87fb4de0dd6824633b099f73165f3b2b7bce2203416040848462002df6620031d18362006d46565b600201805461ffff60981b1916609884901b61ffff60981b16179055565b9163f0a719ef60e01b5f5260045260245260445260645ffd5b3462002c1d57602036600319011262002c1d576004356200322862006d97565b620032338162006d46565b600281015464ffffffffff811615908115916200333f575b5080156200332f575b6200331c576008015460201c61ffff168062003306577fc1c33d1bd4abb6d1a8ed08f6a49cdf51c1db8b81ce6810a713fcd0291cc63f97602083805f52601182525f601060408220828155826001820155826002820155826003820155826004820155826005820155620032cb60068201620069de565b620032d960078201620069de565b82600882015582600982015582600b8201550155620032fa60105462006a32565b601055604051908152a1005b9063e47393c360e01b5f5260045260245260445ffd5b50631bb9ae6f60e11b5f5260045260245ffd5b50600181015460f81c1562003254565b64ffffffffff915060281c161515836200324b565b3462002c1d575f36600319011262002c1d57336001600160a01b036001541603620033cb576001600160a01b0319600154166001555f54336001600160a01b03198216175f556001600160a01b033391167f8be0079c531659141344cd1fd0a4f28419497f9722a3daafe3b4186f6b6457e05f80a3005b60405162461bcd60e51b815260206004820152602960248201527f4f776e61626c6532537465703a2063616c6c6572206973206e6f74207468652060448201527f6e6577206f776e657200000000000000000000000000000000000000000000006064820152608490fd5b3462002c1d57602036600319011262002c1d576200345362005490565b6200345d62006e63565b62002c93576200346d33620074fd565b90815f52600d60205260405f209182549260ff8460a01c16936200349185620053ec565b846200351d577f743a9ef374d6b3c905b8fd725a33cc63980a202108bfd3cbf65e94a23640a02e94507fffffffffffffffffffff00ffffffffffffffffffffffffffffffffffffffffff75ff00000000000000000000000000000000000000000085151560a81b1691161790556200314f60405192839283909291602090604083019483521515910152565b63e0860e5f60e01b5f52846200353381620053ec565b60045260245ffd5b3462002c1d57620035636200355036620053d5565b91906200355c620063bb565b5062006d46565b90805f526011820160205260405f20916040519262003582846200579e565b549263ffffffff84168152602081019363ffffffff8160201c1685526040820194620035b560ff8360401c16876200640e565b60608301916001600160501b038160481c1683526080840163ffffffff8260981c16815260a085019064ffffffffff8360b81c16825260c086019260e01c835263ffffffff6001880154169489516002811015620036cf5763ffffffff988997620036349289885116908a8751169264ffffffffff8951169462007e4b565b9991979098511695511699516002811015620036cf576101609a63ffffffff64ffffffffff816001600160501b0362003698965116965116965116965116966040519b620036828d620057bb565b8c5260208c015260408b015260608a016200640e565b608088015260a087015260c086015260e0850152610100840152610120830152610140820152620036cd60405180926200565a565bf35b634e487b7160e01b5f52602160045260245ffd5b3462002c1d575f36600319011262002c1d57620036ff62006d97565b6001600160a01b0319600154166001555f6001600160a01b0381546001600160a01b031981168355167f8be0079c531659141344cd1fd0a4f28419497f9722a3daafe3b4186f6b6457e08280a3005b3462002c1d577f8e37539629486a88c6a6083eb90030fb61cb856d56d96f53a326fda0d399ef3260406200378236620053d5565b6200378c62006d97565b62002df6816200379c8462006d46565b620094d3565b3462002c1d576101c036600319011262002c1d57620037c062005d84565b50620037cb62006e63565b62002c9357620037db33620074fd565b805f52600d60205260405f209060ff825460a01c16620037fb81620053ec565b8062003917575060243590620038118262006d46565b9060443593600785101562002c1d5760e4358015159081810362002c1d575061010435948515159586810362002c1d575061012435908115159788830362002c1d5760409862003905987fb5197c172faba5dd033bce9dda5c7f7a28a1451f539d3b287a0964c3b9283fa6956101c09550620038ad5a948d519687528a60208801526004358e8801526064356060880152608087019062005a9d565b60843560a086015260a43560c086015260c43560e086015261010085015261012084015261014083015261014435610160830152610164356101808301526101a0820152a161ffff600284015460b81c169262006fbb565b60208251918051835201516020820152f35b63e0860e5f60e01b5f526200353381620053ec565b3462002c1d57604036600319011262002c1d576004356200394c62005480565b6200395662006d97565b620039618262006d46565b6002810190815460f81c8062003a60575b620039eb575b5080546001600160f81b031682151560f81b7fff00000000000000000000000000000000000000000000000000000000000000161790557f8ac110193a47d8207dd88897368f2031dd31bfea6bcfd9a2b3ea6759e81c4e149160408051918252911515602082015290819081016200314f565b6001600160a01b03600454168015801562003a53575b62003a3457506001015460801c63ffffffff161562003a21578362003978565b82630c5eed9d60e11b5f5260045260245ffd5b60058592015491631744ee4f60e31b5f5260045260245260445260645ffd5b5060058201541562003a01565b50821562003972565b3462002c1d5760c062003a8c600160ff62003a8436620053d5565b939062006d46565b600281015461ffff62003acf818360d81c169664ffffffffff8460501c169687950154868160e81c1696879160f01c1697889264ffffffffff8716908b62009384565b9160405196875260e81c16602086015260408501526060840152608083015260a0820152f35b3462002c1d57602036600319011262002c1d57608062003b1760043562006d46565b80549060046003820154910154906040519260ff8160f01c161515845260f81c1515602084015260408301526060820152f35b3462002c1d5762003b69600862003b6136620053d5565b929062006d46565b0162ffffff821162003b8f5760409162003b839162007fdd565b82519182526020820152f35b5063c6ebaaa160e01b5f5260045262ffffff60245260445ffd5b3462002c1d57602036600319011262002c1d5760043562003bc962006e63565b62002c935762003bd933620074fd565b90815f52600d60205260405f209160ff835460a01c1662003bfa81620053ec565b600281146200391757506200314f6001600160501b038462003c3e857f2687926b167b6633deaaa80c3d106be87c0530fbc9ecba972ef8da4a3f2c489b9762009072565b5062003c4b85826200932c565b62003c5685620080ba565b5416604051938493849160409194936001600160501b039160608501968552602085015216910152565b3462002c1d57602036600319011262002c1d5760043562003ca062008ffc565b62003caa62006e63565b62002c935762003cba33620074fd565b90815f52600d60205260405f209160ff835460a01c1662003cdb81620053ec565b8062003917575062003cee828462009072565b5060065480831162003d73575062003d696001600160501b037f8a087568cf2efa04e1e6c72c7f61b68a1ac013d6a33bd6e978e1ba2b4efc04d49462003d3485620091a2565b62003d4085826200932c565b62003d4e8560065462005cef565b60065562003c5685336001600160a01b036005541662009345565b0390a16001600255005b90506303dc938760e61b5f5260045260245260445ffd5b3462002c1d5762003d9b3662005631565b9162003da662006d97565b62003db18162006d46565b62003dbd848462006992565b90620186a0821162003e9857620186a0841162003e7e57805462ffffff191662ffffff8516178155620186a0851162003e6457805465ffffff0000001916601886901b65ffffff00000016179055620186a090810390811162002964577f61c468e821b1662263e339e465b2b8aa3c36b504f804ffac4a19ad8eae3df813936200314f91604051948594859094939260609260808301968352602083015260408201520152565b846395d41f3f60e01b5f52600452620186a060245260445ffd5b836395d41f3f60e01b5f52600452620186a060245260445ffd5b6084838686604051926334af053b60e21b8452600484015260248301525f60448301526064820152fd5b3462002c1d57602036600319011262002c1d57602061ffff600262003ee960043562006d46565b015460981c16604051908152f35b3462002c1d5762003f1862003f0c36620053d5565b91906200355c620066f0565b61ffff821162003f4b57600f915f520160205261014062003f3c60405f206200673c565b620036cd6040518092620056d2565b50630c8f0a6960e41b5f526004525f60245261ffff60445260645ffd5b3462002c1d57602036600319011262002c1d5760043567ffffffffffffffff811162002c1d5762003f9e903690600401620054b0565b335f52601360205260ff60405f20541615620040b85762003fbe62006e63565b62002c93575f5b81811062003fcf57005b62003fdc81838562005cfd565b9060208201359162003fee8362006d46565b604082013593600385101562002c1d576001948086036200403357505063ffffffff6200402260606200402a9401620069a0565b169062008c05565b505b0162003fc5565b806200406857506200405a620040528460c06200406196019062005d35565b36916200588e565b9162007531565b506200402c565b60029150146200407b575b50506200402c565b816200408e6060620040b09401620069a0565b91608063ffffffff620040a460a0850162005a8f565b941692013590620081d1565b848062004073565b636dfc4d6160e11b5f523360045260245ffd5b3462002c1d57620040dc36620053d5565b90620040e762006d97565b620040f28162006d46565b6001600160501b03815460801c1683811062004144577f6cbcbbf194e245478b88cdee7b07dd6402cf492bcef0df03eae198637a072474604084866200413981876200811c565b62002df681620080ba565b839062fae2d560e21b5f5260045260245260445ffd5b3462002c1d57602036600319011262002c1d577fb405a09f729f41978995eba596767f10784a912a3e8d56a978e5e167c1b23d7d60206200419a62005490565b620041a462006d97565b6003548115620041d7576001905b600160ff620041c062006e59565b9316831b921b1916176003556040519015158152a1005b5f90620041b2565b3462002c1d57602036600319011262002c1d577f06d9a2e5d1f47e8b66c517104114f36514593b09c9b90cb622a6883e595d4bcd60206004356200422262006d97565b6200422d81620080ba565b6200423b8160065462006992565b60065562003083816001600160a01b036005541630903390620080d2565b3462002c1d57608036600319011262002c1d5762004282606435604435602435600435620067d7565b9060405190604082019260408352815180945260206060840192015f945b808610620042b657505082935060208301520390f35b9092602061014082620042cd6001948851620056d2565b01940195019490620042a0565b3462002c1d57620042eb366200552b565b90335f52601260205260ff60405f2054161562004390576200430c62006e63565b62002c93576200431c82620053ec565b811562004381577f287a1a0be47186fe812cf10628edc8c56638095124099fea05c3e3f59e3a0dc69162004352604092620074fd565b90815f52600d6020526200436981845f206200605b565b82519182526200437981620053ec565b6020820152a1005b633f068f8760e11b5f5260045ffd5b63a37849fb60e01b5f523360045260245ffd5b3462002c1d57620043bf620043b83662005631565b916200641b565b9060405190604082019260408352815180945260206060840192015f945b808610620043f357505082935060208301520390f35b90926020610160826200440a60019488516200565a565b01940195019490620043dd565b3462002c1d57604036600319011262002c1d5760043567ffffffffffffffff811162002c1d576200444d903690600401620054b0565b6200445762005480565b90335f52601460205260ff60405f2054161562004488576200447862006e63565b62002c935762002c9192620062d0565b631d37e03560e31b5f523360045260245ffd5b3462002c1d57602036600319011262002c1d57602061ffff6002620044c260043562006d46565b015460b81c16604051908152f35b3462002c1d575f36600319011262002c1d576020620020c06200785f565b3462002c1d57602036600319011262002c1d57604060086200451260043562006d46565b015460ff82519161ffff8160301c168352831c166020820152f35b3462002c1d57602036600319011262002c1d576200454d60043562006d46565b600981015490612020604051916200456682846200584e565b61010083526020830191601f1901368337600a81015f5b6101008110620045e2575050600861ffff91015460201c166040519260608401948452606060208501525180945260808301915f945b808610620045c957505082935060408301520390f35b90926020806001928651815201940195019490620045b3565b806001915f528260205260405f2054620045fd828862005e03565b52016200457d565b3462002c1d576200461636620053d5565b6200462062006d97565b6200462b8262006d46565b600182108015620046e9575b620046cc5760010160ff815460f01c1680831015620046b65781547fffff00ffffffffffffffffffffffffffffffffffffffffffffffffffffffffff1660e884901b60ff60e81b1617825560408051858152602081018590527ff4b59dd9ee04b23a163fa42f622d424f19a1cc0f76d4455f900106cef0e3c5129190a1005b82630ba8360160e41b5f5260045260245260445ffd5b50630c8f0a6960e41b5f526004526001602452606460445260645ffd5b506064821162004637565b3462002c1d57602036600319011262002c1d576004356200471462006d97565b6309c3d8f080821162004767575060035460e391612710613fff9104831b921b1916176003557fcd3426b08e2946f33fe401b723f71049867976631425553ecf95848fc4b088a960206200308362007839565b90630c8f0a6960e41b5f526004525f60245260445260645ffd5b3462002c1d576200479e6200479636620053d5565b919062006def565b905f526003810160205260405f20549061ffff8260401c1690620047c282620061f5565b91600263ffffffff5f95169201915b801515806200480b575b1562002d68575f528160205263ffffffff60405f20620047ff62002d3c876200624e565b505460201c16620047d1565b50818510620047db565b3462002c1d576200482636620053d5565b6200483062006d97565b6003546001600160701b0316818110620030a15750620048508262006def565b9160ff835460a01c166200486481620053ec565b600281146200391757506200314f6001600160501b037f85b48f5618e9d5b21320fb47ad01cfbf4f739a3e7f7950a445c97099d578911e94620048a78562007751565b62003c568582620077ee565b3462002c1d57620048c4366200555d565b90335f52601260205260ff60405f205416156200439057620048e562006e63565b62002c935762002c9192620060bd565b3462002c1d57602036600319011262002c1d576004356200491562006d97565b6003546001600160701b0316818110620030a1577f3926c691232881614240a3ec84f5910abdac662ecb616cf8ab9b9fe44d932bc8602083620049588162007751565b62003083816200777a565b3462002c1d57602036600319011262002c1d57604060106200498760043562006d46565b015463ffffffff825191818116835260201c166020820152f35b3462002c1d57620049b2366200552b565b90620049bd62006d97565b620049c762006e63565b62002c93577f287a1a0be47186fe812cf10628edc8c56638095124099fea05c3e3f59e3a0dc69162004352604092620074fd565b3462002c1d575f36600319011262002c1d576020620020c06200772d565b3462002c1d5762004a2a36620053d5565b9062004a3562006d97565b613a98821162004a9157807f70df7db68793145153f083606826dfc0e51ef634e3d99f5a8ff74d7fd27405e69262002df662004a7360409462006d46565b600201805461ffff60a81b191660a884901b61ffff60a81b16179055565b631b71514f60e11b5f52600452602452613a9860445260645ffd5b3462002c1d57606036600319011262002c1d5760043567ffffffffffffffff811162002c1d5762004ae2903690600401620054b0565b906024359067ffffffffffffffff821162002c1d573660238301121562002c1d57816004013567ffffffffffffffff811162002c1d573660246101c083028501011162002c1d5760443591821515830362002c1d5762004b4162006e63565b62002c93576200055d94602462001f1b95019162005e18565b3462002c1d57602036600319011262002c1d576200055d62004b9062004b7f62005469565b62004b8962005a06565b50620074fd565b62004bf9600462004ba18362006def565b805460ff8160a01c166001600160501b03600184015460601c926040519762004bca8962005781565b8852818116602089015260501c16604087015262004be881620053ec565b606086015260808501520162005a5b565b60a082015260405191829182620053f7565b3462002c1d57602036600319011262002c1d57602061ffff600262004c3260043562006d46565b015460c81c16604051908152f35b3462002c1d57604036600319011262002c1d577f44f632293c2bd117a0d277a1057b0a5495dfbd57d2e3636bb80f0912ee6d0ba962004c7e62005469565b62004c8862005480565b9062004c9362006d97565b811562004cde576001600160a01b0381165f52601460205260405f20600160ff19825416179055604080516001600160a01b039092168252911515602082015290819081016200314f565b6001600160a01b0381165f52601460205260405f2060ff19815416905562003130565b3462002c1d575f36600319011262002c1d57600f545f1981019081116200296457602090604051908152f35b3462002c1d575f36600319011262002c1d5760206040517f00000000000000000000000000000000000000000000000000000000000000008152f35b3462002c1d57602036600319011262002c1d576001600160a01b0362004d8e62005469565b165f526012602052602060ff60405f2054166040519015158152f35b3462002c1d57602036600319011262002c1d5762004dc762006d97565b62002c916004356200748a565b3462002c1d57602036600319011262002c1d5760043567ffffffffffffffff811162002c1d573660238201121562002c1d57806004013567ffffffffffffffff811162002c1d573660246101e083028401011162002c1d57335f52601460205260ff60405f20541615620044885762004e4c62006e63565b62002c9357602462002c91920162005aab565b3462002c1d57602036600319011262002c1d576200055d60043562004e8362005a06565b5062004bf9600462004ba18362006def565b3462002c1d57604036600319011262002c1d5760043560243562004eb862006d97565b62004ec38262006d46565b600181015460f81c1562004f3b576001600160a01b0360045416801562004f1c577f9c03c6796385c736172929a88c5f8c4fc7c287d6df80c75f290d4f18ca9ece726040858580600587015582519182526020820152a1005b60058492015491631744ee4f60e31b5f5260045260245260445260645ffd5b82631512f56d60e31b5f5260045260245ffd5b3462002c1d5762004f5f36620053d5565b9062004f6a62006d97565b612710821162004fc657807f215599a29dd5e20675e33333839fc6ac135ff26973299cae6afb896440bcc05d9262002df662004fa860409462006d46565b600201805461ffff60881b1916608884901b61ffff60881b16179055565b63b9c67ed560e01b5f5260045260245261271060445260645ffd5b3462002c1d57602036600319011262002c1d5761034081620050045f9362005763565b60608152606060208201528260408201528260608201528260808201528260a08201528260c08201528260e08201528261010082015282610120820152826101408201528261016082015282610180820152826101a0820152826101c0820152826101e08201528261020082015282610220820152826102408201528261026082015282610280820152826102a0820152826102c0820152826102e082015282610300820152826103208201520152620050c060043562006d46565b600181015461ffff600583015460028401549263ffffffff85546008870154936200510c600760405199620050f58b62005763565b62005103600682016200595a565b8b52016200595a565b602089015260ff8460d81c16604089015260ff8460e01c1660608901526080880152848660881c1660a0880152848660981c1660c08801526001600160501b038160301c1660e08801526001600160501b038160801c16610100880152818316610120880152818360201c16610140880152818360401c16610160880152818360601c16610180880152818360801c166101a0880152818360a01c166101c088015264ffffffffff86166101e088015264ffffffffff8660281c1661020088015260d01c16610220860152828460a81c1661024086015260f81c151561026085015263ffffffff811661028085015262ffffff8160781c166102a085015262ffffff8160901c166102c085015262ffffff8160481c166102e085015262ffffff8160601c1661030085015260201c1661032083015260f81c15156103408201526040518091602082526103406200528d6200527683516103606020870152610380860190620053b1565b6020840151858203601f19016040870152620053b1565b916040810151606085015260608101516080850152608081015160a085015260a081015160c085015260c081015160e085015260e08101516101008501526101008101516101208501526101208101516101408501526101408101516101608501526101608101516101808501526101808101516101a08501526101a08101516101c08501526101c08101516101e08501526101e081015161020085015261020081015161022085015261022081015161024085015261024081015161026085015261026081015115156102808501526102808101516102a08501526102a08101516102c08501526102c08101516102e08501526102e081015161030085015261030081015161032085015261032081015182850152015115156103608301520390f35b805180835260209291819084018484015e5f828201840152601f01601f1916010190565b604090600319011262002c1d576004359060243590565b60041115620036cf57565b919091610100606060a0610120840195805185526020810151602086015260408101516040860152828101516200542e81620053ec565b838601526001600160a01b0360808201511660808601520151805160a0850152602081015160c0850152604081015160e08501520151910152565b600435906001600160a01b038216820362002c1d57565b60243590811515820362002c1d57565b60043590811515820362002c1d57565b60643590811515820362002c1d57565b9181601f8401121562002c1d5782359167ffffffffffffffff831162002c1d576020808501948460051b01011162002c1d57565b60206040818301928281528451809452019201905f5b818110620055085750505090565b8251805185526020908101518186015260409094019390920191600101620054fa565b604090600319011262002c1d576004356001600160a01b038116810362002c1d5790602435600481101562002c1d5790565b90604060031983011262002c1d57600435916024359067ffffffffffffffff821162002c1d576200559191600401620054b0565b9091565b60206040818301928281528451809452019201905f5b818110620055b95750505090565b909192602060c06001926001600160501b0360a0885163ffffffff815116845263ffffffff86820151168685015263ffffffff604082015116604085015260608101516200560781620053ec565b606085015260808181015164ffffffffff169085015201511660a0820152019401929101620055ab565b606090600319011262002c1d57600435906024359060443590565b906002821015620036cf5752565b61014080918051845260208101516020850152604081015160408501526200568b606082015160608601906200564c565b6080810151608085015260a081015160a085015260c081015160c085015260e081015160e08501526101008101516101008501526101208101516101208501520151910152565b61ffff610120809263ffffffff81511685526020810151620056f481620053ec565b602086015262ffffff604082015116604086015264ffffffffff606082015116606086015282608082015116608086015263ffffffff60a08201511660a08601528260c08201511660c08601528260e08201511660e08601528261010082015116610100860152015116910152565b610360810190811067ffffffffffffffff82111762002a7157604052565b60c0810190811067ffffffffffffffff82111762002a7157604052565b60e0810190811067ffffffffffffffff82111762002a7157604052565b610160810190811067ffffffffffffffff82111762002a7157604052565b6080810190811067ffffffffffffffff82111762002a7157604052565b6040810190811067ffffffffffffffff82111762002a7157604052565b610140810190811067ffffffffffffffff82111762002a7157604052565b60a0810190811067ffffffffffffffff82111762002a7157604052565b90601f8019910116810190811067ffffffffffffffff82111762002a7157604052565b67ffffffffffffffff811162002a7157601f01601f191660200190565b9291926200589c8262005871565b91620058ac60405193846200584e565b82948184528183011162002c1d578281602093845f960137010152565b9181601f8401121562002c1d5782359167ffffffffffffffff831162002c1d576020838186019501011162002c1d57565b606090600319011262002c1d576004359060243590604435801515810362002c1d5790565b90600182811c921680156200594f575b60208310146200593b57565b634e487b7160e01b5f52602260045260245ffd5b91607f16916200592f565b9060405191825f8254926200596f846200591f565b8084529360018116908115620059e257506001146200599a575b5062005998925003836200584e565b565b90505f9291925260205f20905f915b818310620059c557505090602062005998928201015f62005989565b6020919350806001915483858901015201910190918492620059a9565b9050602092506200599894915060ff191682840152151560051b8201015f62005989565b6040519062005a158262005781565b815f81525f60208201525f60408201525f60608201525f608082015260a06040519162005a4283620057d9565b5f83525f60208401525f60408401525f60608401520152565b9060405162005a6a81620057d9565b6060600382948054845260018101546020850152600281015460408501520154910152565b35801515810362002c1d5790565b906007821015620036cf5752565b91811562005cea5782602084019060408501359462005aca8662006d46565b935f5b8681101562005cb5578062005c7a575b83359062005aed86838b62006e79565b604086013591600783101562002c1d575f60028414158062005c6c575b801562005c55575b62005bfd575060019250805f52600d6020528660405f209167ffffffffffffffff8584015460201c16928235938481101562005bc6575060ff815460a01c169362005b5d85620053ec565b841562005b865762005b7d945062005b76908262006f5f565b8a620070f3565b505b0162005acd565b5050505060207fe0860e5ff8578b025fc8a7f42c449c575b7a19600e8d2b3fd6ab0ae6e2e08403916040519062005bbd81620053ec565b8152a162005b7f565b9150507f6be50b396ca4962b3810cd9e65b8160cd24180a1e7adbc2c795e8dd090891284925060209150604051908152a162005b7f565b905062002c1d577fcbb789ca59a70c9d9ac308b2f773480d433619886320ba81e8e871690fc220c3604060019362005c396101208a0162005a8f565b62005c478351809362005a9d565b15156020820152a162005b7f565b5062005c65610120890162005a8f565b1562005b12565b50505f600384141562005b0a565b6101e0810283016020810195509350604084013580890362005c9e575b5062005add565b9750945062005cad8762006d46565b945f62005c97565b50955050505050507fc2813e86d911b51775079b03b9fcab443ec450bc1634cf75dd578874a0af7add60205a604051908152a1565b915050565b919082039182116200296457565b919081101562005d215760051b8101359060de198136030182121562002c1d570190565b634e487b7160e01b5f52603260045260245ffd5b903590601e198136030182121562002c1d570180359067ffffffffffffffff821162002c1d5760200191813603831362002c1d57565b67ffffffffffffffff811162002a715760051b60200190565b6040519062005d9382620057f6565b5f6020838281520152565b9062005daa8262005d6b565b62005db960405191826200584e565b828152809262005dcc601f199162005d6b565b01905f5b82811062005ddd57505050565b60209060405162005dee81620057f6565b5f81525f838201528282850101520162005dd0565b805182101562005d215760209160051b010190565b909491949392935f5b81811062005f8d5750505062005e3733620074fd565b93845f52600d60205260405f209460ff865460a01c1662005e5881620053ec565b8062003917575062005e6a8562005d9e565b9586511562005f8457851562005d215782602081013562005e8b8162006d46565b9161ffff600284015460b81c16965f5b8a81101562005f4c578b8a8a8362005ef0575b92809262005ed562005ee8936001968e8e8e8e62005ecf8f84869162006e79565b620071e4565b62005ee1838362005e03565b5262005e03565b500162005e9b565b5050506101c08102830197508b8a60208a013580870362005f14575b508a62005eae565b955095508699509087818a938762005f2d819962006d46565b600281015460b81c61ffff169e50939b50929893945092915062005f0c565b50985050505050505050507fc2813e86d911b51775079b03b9fcab443ec450bc1634cf75dd578874a0af7add60205a604051908152a1565b50919350505050565b62005f9a81838562005cfd565b90602082013562005fab8162006d46565b92604081013560038110801562002c1d575f8a8362005fed57505050509262005fe4916200405a620040528660c0600198019062005d35565b505b0162005e21565b9193509195506200603c5762002c1d5760405191825215620036cf5760408160019460207f74df229c3b7e119176af42fd67d1f14e8e08bdff875d3977a74ad26da66a89c0940152a162005fe6565b508390631d37c8a760e21b5f5260449260045215620036cf576024525ffd5b906200606781620053ec565b7fffffffffffffffffffffff00ffffffffffffffffffffffffffffffffffffffff74ff000000000000000000000000000000000000000083549260a01b169116179055565b919081101562005d215760051b0190565b916103fc8311620061b057825f52601160205260405f2092620060e084620077c7565b6200619e5750801562006199579091600e01905f5b818110620061035750505050565b80620061136001928487620060ac565b3582811080156200618c575b62006185576200613963ffffffff91600781069062005cef565b146200617f5763ffffffff5f90815260208590526040902080547fffffff00000000000000000000000000000000000000000000000000000000001690555b01620060f5565b62006178565b5062006178565b508062ffffff106200611f565b505050565b63b934a7fb60e01b5f5260045260245ffd5b8263324f0d9160e21b5f5260045260245ffd5b60405190620061d28262005781565b5f60a0838281528260208201528260408201528260608201528260808201520152565b90620062018262005d6b565b6200621060405191826200584e565b828152809262006223601f199162005d6b565b01905f5b8281106200623457505050565b60209062006241620061c3565b8282850101520162006227565b5f198114620029645760010190565b906040516200626c8162005781565b60a06001600160501b0382945463ffffffff8116845263ffffffff8160201c16602085015263ffffffff8160401c16604085015260ff8160601c16620062b281620053ec565b606085015264ffffffffff8160681c16608085015260901c16910152565b9290918215620063b55736849003605e19019184358381121562002c1d57850192833595620062ff8762006d46565b925f5b87811015620063aa57806200636c575b6040870135601e198836030181121562002c1d5787019081359167ffffffffffffffff831162002c1d57602001918060051b3603831362002c1d578762006364916001948d60208d0135908b62007e2c565b500162006302565b95508560051b8201358381121562002c1d578201958635808a0362006393575b5062006312565b98509350620063a28862006d46565b935f6200638c565b509650505050505050565b50915050565b60405190620063ca82620057bb565b5f610140838281528260208201528260408201528260608201528260808201528260a08201528260c08201528260e082015282610100820152826101208201520152565b6002821015620036cf5752565b9192906200642a5f9362006d46565b6104e0819052601001549080620066e9575063ffffffff8116935b8415620066de5780151580620066d2575b5f6104805215620066c457610480525b620064746104805162005d6b565b6200648360405191826200584e565b610480518152601f196200649a6104805162005d6b565b015f5b818110620066aa575050809463ffffffff60016104e0510154166104c0525b610480518510620064cc57505050565b805f5260116104e0510160205260405f209060405191620064ed836200579e565b5463ffffffff811683526020830163ffffffff8260201c16815260408401610520526200652460ff8360401c16610520516200640e565b6001600160501b038260481c166060850152608084019063ffffffff8360981c16825260a085019064ffffffffff8460b81c16825260c086019360e01c845261052051516002811015620036cf57620065a09063ffffffff86511663ffffffff8651169064ffffffffff865116926104c0516104e05162007e4b565b959193909463ffffffff808a51169451166105005261052051516002811015620036cf57620066299063ffffffff64ffffffffff816001600160501b0360608f015116955116955116955116956040516104a052620066026104a051620057bb565b8a6104a0515260206104a05101526105005160406104a051015260606104a051016200640e565b60806104a051015260a06104a051015260c06104a051015260e06104a05101526101006104a05101526101206104a05101526101406104a05101526200668c62006673876200624e565b966104a05162006684828762005e03565b528462005e03565b5063ffffffff8460201c161462006199575163ffffffff16620064bc565b602090620066b7620063bb565b828286010152016200649d565b506113886104805262006466565b50611388811062006456565b50606093505f925050565b9362006445565b60405190620066ff8262005813565b5f610120838281528260208201528260408201528260608201528260808201528260a08201528260c08201528260e0820152826101008201520152565b906040516200674b8162005813565b61012061ffff82945463ffffffff8116845260ff8160201c166200676f81620053ec565b602085015262ffffff8160281c16604085015264ffffffffff8160401c166060850152818160681c16608085015263ffffffff8160781c1660a0850152818160981c1660c0850152818160a81c1660e0850152818160b81c1661010085015260c81c16910152565b919390936060935f86156200698757620067f18562006d46565b9562006801886008890162007fdd565b9490918215620069795750806200697157505b918015158062006965575b156200695957919490945b620068358362005d6b565b956200684560405197886200584e565b838752601f19620068568562005d6b565b015f5b81811062006935575050600f879801915b848210806200692b575b156200691f57805f52826020526200688f60405f206200673c565b9162ffffff6040840151168b8103620068f5575088949392918791620068cf9084620068c782620068c0816200624e565b9a62005e03565b528b62005e03565b5014620068e95761012001519192909161ffff166200686a565b50505094955050509050565b85608491848e604051936324bfc58760e01b85526004850152602484015260448301526064820152fd5b50969750505050509050565b5080151562006874565b602090620069479693959496620066f0565b82828c01015201949293919462006859565b5093611388916200682a565b5061138881106200681f565b905062006814565b965050509550505091509190565b505050925050905f90565b919082018092116200296457565b3563ffffffff8116810362002c1d5790565b818110620069be575050565b5f8155600101620069b2565b818102929181159184041417156200296457565b620069ea81546200591f565b9081620069f5575050565b81601f5f931160011462006a07575055565b8183526020832062006a2591601f0160051c810190600101620069b2565b8082528160208120915555565b801562002964575f190190565b604d81116200296457600a0a90565b5f929181549162006a5f836200591f565b808352926001811690811562006ab8575060011462006a7d57505050565b5f9081526020812093945091925b83831062006a9d575060209250010190565b60018160209294939454838587010152019101919062006a8b565b915050602093945060ff929192191683830152151560051b010190565b62006ae08262005d9e565b9283511562005cea57821562005d215781906040830160608401359362006b078562006d46565b925f5b8781101562005cb5578062006c66575b600190863562006b2c86828b62006e79565b805f52600d60205260405f208667ffffffffffffffff8583015460201c16928135938481101562006c2f5750825460ff8160a01c1662006b6c81620053ec565b8062006bec575060a81c60ff161562006bbe5762006b8f62006b9c948462006f5f565b60208b0135928a62007343565b62006ba8828c62005e03565b5262006bb5818b62005e03565b505b0162006b0a565b505050507fcb7f793535461714e08fcb65e21b3379d2aedbf9c04354ade356a824dcefe9f55f80a162006bb7565b925050507fe0860e5ff8578b025fc8a7f42c449c575b7a19600e8d2b3fd6ab0ae6e2e084039250602091506040519062006c2681620053ec565b8152a162006bb7565b9150507f6be50b396ca4962b3810cd9e65b8160cd24180a1e7adbc2c795e8dd090891284925060209150604051908152a162006bb7565b600981901b83019550604086019350606086013580880362006c8a575b5062006b1a565b96509350600162006c9b8762006d46565b949062006c83565b916103fc8311620061b057825f52601160205260405f209262006cc684620077c7565b6200619e5750801562006199579091600f01905f5b81811062006ce95750505050565b8062006cf96001928487620060ac565b358061ffff1062006d3f575f90815260208590526040902080547fffffffffff0000000000000000000000000000000000000000000000000000001690555b0162006cdb565b5062006d38565b906103fc821162006d8457815f52601160205260405f209162006d6983620077c7565b1562006d725750565b63264fcda560e11b5f5260045260245ffd5b5063324f0d9160e21b5f5260045260245ffd5b6001600160a01b035f5416330362006dab57565b606460405162461bcd60e51b815260206004820152602060248201527f4f776e61626c653a2063616c6c6572206973206e6f7420746865206f776e65726044820152fd5b9063ffffffff821162006e2c57815f52600d60205260405f2091600183015460601c1562006e1a5750565b6305b58f2560e51b5f5260045260245ffd5b506395d41f3f60e01b5f5260045263ffffffff60245260445ffd5b60e35b600e8101809111620029645790565b62006e4a62006e47565b60018060035462006e7362006e59565b1c161490565b60408301359291600784101562002c1d57610160837fb5197c172faba5dd033bce9dda5c7f7a28a1451f539d3b287a0964c3b9283fa69562006ec160e06101c0970162005a8f565b62006ed0610100840162005a8f565b9062006f0e62006ee4610120860162005a8f565b935a97604051998a5260208a0152853560408a0152606086013560608a0152608089019062005a9d565b608084013560a088015260a084013560c088015260c084013560e08801521515610100870152151561012086015215156101408501526101408101358285015201356101808301526101a0820152a1565b67ffffffffffffffff821162006f9c57600101906bffffffffffffffff0000000082549160201b16906bffffffffffffffff000000001916179055565b506395d41f3f60e01b5f5260045267ffffffffffffffff60245260445ffd5b92919060405162006fcc81620057f6565b5f81525f60208201528062006fe560016004886200a711565b15620070ea575060443590600782101562002c1d5760048214620070cf5760ff835460a01c166200701681620053ec565b80620039175750600186015460f81c6200707c576005821462007064575060061462007052575060019160045f926200704f956200abba565b90565b600192506004906200704f946200aa5e565b94916200704f945060019391506101a435926200a4e3565b9493505050506001620070b157507f6d39fcd0871e5b20154576c163e4fd8bcb184bce26f8ac32b3569fe3c592b01f5f80a190565b600261ffff91015460781c166316c94c5160e11b5f5260045260245ffd5b946200704f945060019392506064359150602435906200a93d565b94505050505090565b6040515f9392906200710581620057f6565b5f81525f6020820152806200711c5f88866200a711565b15620071da5750604086013590600782101562002c1d5760048214620071bc57600184015460f81c6200718e57600582146200717857506006146200716c57506200704f9360019284926200abba565b6200704f94916200aa5e565b956200704f95949291506101a00135926200a4e3565b955050505050507f6d39fcd0871e5b20154576c163e4fd8bcb184bce26f8ac32b3569fe3c592b01f5f80a190565b959150506200704f93505f929160206060830135920135906200a93d565b9550505050505090565b909493929194604051620071f881620057f6565b5f81525f6020820152806200720f8786866200a711565b15620073385750604084013590600782101562002c1d57600482146200731a5760ff835460a01c166200724281620053ec565b80620072d35750600184015460f81c6200729e5760058214620072865750600614620072785750906200704f945f93926200abba565b906200704f9593506200aa5e565b9692936200704f9695506101a091500135926200a4e3565b9650505092915050620070b157507f6d39fcd0871e5b20154576c163e4fd8bcb184bce26f8ac32b3569fe3c592b01f5f80a190565b969550965050505050620039175760207fe0860e5ff8578b025fc8a7f42c449c575b7a19600e8d2b3fd6ab0ae6e2e0840391604051906200731481620053ec565b8152a190565b9693929150506200704f94935060206060830135920135906200a93d565b965050505050505090565b9391939290925f936040516200735981620057f6565b5f81525f602082015280620073705f86866200a711565b15620073385750604084013590600782101562002c1d57600482146200746a5760ff835460a01c16620073a381620053ec565b806200742d5750600184015460f81c620073da5760058214620072865750600614620072785750906200704f94600193926200abba565b9650505091505081620074105750507f6d39fcd0871e5b20154576c163e4fd8bcb184bce26f8ac32b3569fe3c592b01f5f80a190565b600201546316c94c5160e11b825260781c61ffff16600452602490fd5b945096505050507fe0860e5ff8578b025fc8a7f42c449c575b7a19600e8d2b3fd6ab0ae6e2e08403925060209150604051906200731481620053ec565b9693929150506200704f94505f935060206060830135920135906200a93d565b620074958162006d46565b805460ff8160f01c161562006199578060f81c620074ea575f600383015560ff60f01b191690556040519081527fd92eee87539b24ad02a6f03980106354cd078a3eb9c2c4257685215063c61ecd90602090a1565b82633534376760e21b5f5260045260245ffd5b6001600160a01b031690815f52600e60205260405f20549182156200751f5750565b6303a0e27760e01b5f5260045260245ffd5b9291905f91600285015460f81c6200760f575f620075519183876200b154565b959093909115620075dd57509060017f5e3f1c81da4dcfcb835cba6457aa389114f5d309917179746b46ac03953f56b2939201805463ffffffff60a01b8760a01b169067ffffffffffffffff60801b1963ffffffff60801b8660801b16911617179055620075d8600195604051938493846040919493926060820195825260208201520152565b0390a1565b9450507fa8c2945f7db53a36d192551c9b4c3ea4cbc53140f60d0dc8b1a8b58499958cdf9150602090604051908152a1565b507f36f8ddb481e1d66678af53feb8d0fdddc463c11ce08cda4e93ac2065d26634dd92935060209150604051908152a15f90565b909291600282015460f81c620076fb576001620076629185846200b154565b949092909115620076e8579060017f5e3f1c81da4dcfcb835cba6457aa389114f5d309917179746b46ac03953f56b2939201805463ffffffff60a01b8760a01b169067ffffffffffffffff60801b1963ffffffff60801b8660801b16911617179055620075d8600195604051938493846040919493926060820195825260208201520152565b5063a8c2945f60e01b5f5260045260245ffd5b50509060207f36f8ddb481e1d66678af53feb8d0fdddc463c11ce08cda4e93ac2065d26634dd91604051908152a15f90565b600354613fff9060d51c166127108102908082046127101490151715620029645790565b62007769600354916001600160701b0383166200b819565b906001600160701b03191617600355565b7fffffffffffe0000000000000000000000000ffffffffffffffffffffffffffff620077bc600354926c1fffffffffffffffffffffffff8460701c166200b8ae565b60701b911617600355565b6002015461ffff8160d81c1615159081620077e0575090565b61ffff915060e81c16151590565b906001600160501b03620078078192828554166200b8ae565b16166001600160501b0319825416179055565b811562007825570490565b634e487b7160e01b5f52601260045260245ffd5b60035460e35b90613fff911c166127108102908082046127101490151715620029645790565b6003546200783f62006e47565b949160a09491979693620078919160c08801998852602088015260408701906200564c565b606085015260808401521515910152565b949391620078c49391865260208601521515604085015260608401906200564c565b608082015260c060a08201528260c08201527f07ffffffffffffffffffffffffffffffffffffffffffffffffffffffffffffff831162002c1d5760e09260051b809284830137010190565b9295935f96811562007dd557835f526011850160205260405f209664ffffffffff885460b81c161562007d7e576200794881876200b92e565b999192909962007d7157815460ff8160401c166002811015620036cf57808a91156104e05263ffffffff8360981c169264ffffffffff8160b81c1693620079cc60016001600160501b03620079a688858d898960e01c918c62007e4b565b9691505060481c1695015460ff808260e01c169160d81c16848885896104e0516200baac565b93841562007c90575050506104e0515f1462007c87578186115b1562007c15575050995f9a5b868c1062007b3f575b839495969798999a9b5064ffffffffff62007a1d9293945460b81c1662005cef565b8062007aa457505062007a7957927faad1caf83451874ebc06a35849e4a295d8bfa856d05d1fbac2876702c7d50743949262007a709260ff620059989998965460401c16600160405197889788620078a2565b0390a16200bfa3565b9060ff620016309493925460401c16600160405197889763155a395f60e31b895260048901620078a2565b839b5081965084809650600193505f9282968b8b8e9f9e9862007ac7996200bdef565b1562007aeb5750505062007ade929394506200be0f565b620059986001926200bfa3565b62007b266101049560ff8a5460401c169060405196634b04a99560e01b8852600488015260248701526001604487015260648601906200564c565b60848401528060a484015260c4830152151560e4820152fd5b62007b4c8c8888620060ac565b3590815f5260118b0160205260405f209164ffffffffff835460b81c161562007c0957825460ff8160401c166002811015620036cf57156104e0511462007bfc578c88868162007bba958f64ffffffffff60019760b81c16898110155f1462007bf3575088998a966200bbbc565b1562007be8579062007bcc9162005cef565b9a8b1562007be0576001905b019a620079f2565b508a620079fb565b9b6001915062007bd8565b998a966200bbbc565b50509b6001915062007bd8565b509b6001915062007bd8565b95509550509194965050979693959762007c6757917fb83a69585ca162073fd697b3fcff0ddc60c661ba689b5ee1f4eb20a8bf69ca939594939162007c6193604051968796876200786c565b0390a190565b6040516317074d2b60e31b8152965086956200163095600488016200786c565b818610620079e6565b98509850999b9d9c50505095975091505062007d15576040805195865260208601969096526001600160501b03169484019490945263ffffffff909316606083015264ffffffffff909216608082015260a08101919091527f2e92846d5b5d5dd9cf60dd19064afe4a911e6751cdad455cb26a600db66e963c908060c0810162007c61565b6200163094959650604051968796632e92846d60e01b8852600488019260a0946001600160501b0363ffffffff9264ffffffffff959a9998949a60c088019b885260208801521660408601521660608401521660808201520152565b5096975050505050505050565b93945050509294935062007dbf577f6948067a0ba575890268b9a7eaf592a5832287e4402201145ce0768a9d9533fc9160409182519182526020820152a190565b906334a4033d60e11b5f5260045260245260445ffd5b505093915091935062007e16577f64846a095feab375f007bd15ab65eefdf07957e365b3c7ee4711cd9dbdecabe79160409182519182526020820152a15f90565b906364846a0960e01b5f5260045260245260445ffd5b6104e0525f6104a05262007e44949392919062012c7b565b6104a05190565b9594939062007e6b600188015460ff808260e01c169160d81c166200bfd7565b9190975f9580431062007fb8579062007e9662007e8b8b9493836200c34e565b91909243906200c34e565b90910362007fa7575b50509162007ec28262007ebb62007ec994620f424096620069ca565b95620069ca565b96620069ca565b918281871196875f1462007f8f5762007ee79262002f689162005cef565b04905b6002831015620036cf5762002f6862007f3692620f4240941596875f1462007f88575b1562007f815762007f1e9062008165565b975b5f861295861562002f685762002f689062008165565b04911562007f74571562007f625762007f4f9062008165565b905b62007f5d82846200a5af565b929190565b62007f6d9062008165565b9062007f51565b1562007f6d579062007f51565b9762007f20565b1562007f0d565b62002f689062007f9f9362005cef565b049062007eea565b0360050b955062007ec28262007e9f565b61ffff600283015460781c16635d00a16960e01b5f526004526024524360445260645ffd5b60069062007ff060078406809462005cef565b5f520160205260405f209080155f14620080185750549061ffff808360081c169260181c1690565b60018103620080355750549061ffff808360281c169260381c1690565b60028103620080525750549061ffff808360481c169260581c1690565b600381036200806f5750549061ffff808360681c169260781c1690565b600481036200808c5750549061ffff808360881c169260981c1690565b600503620080a757549061ffff808360a81c169260b81c1690565b549061ffff808360c81c169260d81c1690565b62007769600354916001600160701b0383166200b8ae565b9091926001600160a01b03620059989481604051956323b872dd60e01b6020880152166024860152166044840152606483015260648252620081166084836200584e565b6200c0dd565b6001600160501b036200813a620059989382845460801c166200b819565b825469ffffffffffffffffffff60801b1916911660801b69ffffffffffffffffffff60801b16179055565b600160ff1b811462002964575f0390565b90620f4240820291808305620f424014901517156200296457565b81810292915f8212600160ff1b821416620029645781840514901517156200296457565b81156200782557600160ff1b81145f1983141662002964570590565b9092915f620081e043620096f3565b969195909287620082127f00000000000000000000000000000000000000000000000000000000000000004362006992565b10620086ef5760128601918782528260205260408220549762008235866200c1e4565b9115988980620086e3575b6200863c578360028a019586548b8160f81c15938462008558575b63ffffffff600862008271930154168d6200c232565b62008548578d926200847f575b60a81c61ffff16620082908162008165565b89908282131562008462575050985b620186a0620082af8b8d62008191565b0560050b9b879363ffffffff825460d01c16809111908162008457575b50620083d6575b509386938c7f58e15abc35ea6fefa6c63736bf2fa0fc1fa3a3814914960652f30b31c1a6428c9f9d9b99969460e09f9d9b999460409661ffff9a96508890600181145f146200836e5750509165ffffffffffff929183926030965b8a526020520116831b921b191617179120555460781c1695604051968752602087015260408601526060850152608084015260a08301521560c0820152a1565b600281036200838e5750509165ffffffffffff929183926060966200832e565b60038103620083ae5750509165ffffffffffff929183926090966200832e565b909590600414620083cc575b9165ffffffffffff939184936200832e565b60c09550620083ba565b9092505f198e01908e82116200844357938c7f58e15abc35ea6fefa6c63736bf2fa0fc1fa3a3814914960652f30b31c1a6428c9f9d9b9996929460e09f9d9b9996946200842a60409761ffff9b976200c34e565b5096509498509296999b509c9e509396989a9c620082d3565b634e487b7160e01b88526011600452602488fd5b905015155f620082cc565b80919b92508a1262008476575b506200829f565b99505f6200846f565b90915063ffffffff60018c015460801c1680620084a78c61ffff8560881c169384916200c2d1565b15620084b8575050908c916200827e565b9b509b509b50505050509250505062008518576040805160789590951c61ffff168552602085019190915283015260608201527ff71a4d7f2ea04c3d80693520178cdbbb75ce28db34d34ca05eb08282ce7f3f37908060808101620075d8565b60405163f71a4d7f60e01b815260789490941c61ffff166004850152602484015260448301526064820152608490fd5b5050505050505050505050505050565b63ffffffff600183015460a01c1680421162008576575b506200825b565b91505061ffff8260981c1690816200858f824262005cef565b1015620085a05750878d916200856f565b9c509e9d509b505050505050935050505062008609576040805160789390931c61ffff168352602083019190915242908201526060810192909252907fa8ea47e93f284c6600be84b692d51af848f0cc9115e2c7d7d4048983348f9b2d908060808101620075d8565b60405163a8ea47e960e01b815260789290921c61ffff166004830152602482015242604482015260648101839052608490fd5b509699989750509293505050620086a857620075d89061ffff60027fdd8c0c9dcb3ad98da85346fa23e456a8128ec3fc478eaacb4990e450880308cc9697015460781c1692604051948594859094939260609261ffff6080840197168352602083015260408201520152565b600285015460405163dd8c0c9d60e01b815260789190911c61ffff166004820152602481019390935260448301919091526064820152608490fd5b50828116151562008240565b50505050600291909101546040805160789290921c61ffff168252436020830152810193909352507fe0a0c6a40b4bf56f73bec44f57f213f583e95a0be298411ea97afbe135c07d829190508060608101620075d8565b929190936200875543620096f3565b969192909487620087877f00000000000000000000000000000000000000000000000000000000000000004362006992565b1062008b88576012870193805f528460205260405f2054620087a9886200c1e4565b921598898062008b7c575b62008b105760028101948554908160f81c158062008a65575b620087e48263ffffffff6008870154168d6200c232565b6200854857620089d1575b5060a81c61ffff16620088028162008165565b879082821315620089b4575050965b620186a062008821898b62008191565b0560050b995f928d63ffffffff825460d01c168091119081620089a9575b5062008944575b50928a60e09c9a98969361ffff96937f58e15abc35ea6fefa6c63736bf2fa0fc1fa3a3814914960652f30b31c1a6428c9f9d9b99965f90600181145f14620088dc5750509165ffffffffffff929183926030965b5f526020520116831b921b1916171760405f20555460781c1695604051968752602087015260408601526060850152608084015260a08301521560c0820152a1565b60028103620088fc5750509165ffffffffffff929183926060966200889a565b600381036200891c5750509165ffffffffffff929183926090966200889a565b9095906004146200893a575b9165ffffffffffff939184936200889a565b60c0955062008928565b94919b99979592509b999795925f198b018b811162002964577f58e15abc35ea6fefa6c63736bf2fa0fc1fa3a3814914960652f30b31c1a6428c9d60e09d620089928c9361ffff996200c34e565b5095989a9c9e50939650919497999b9d5062008846565b905015155f6200883f565b80919992508812620089c8575b5062008811565b97505f620089c1565b63ffffffff600184015460801c168091620089f78c61ffff8660881c169485916200c2d1565b1562008a05575050620087ef565b99509a509a509a5050505050505062008518576040805160789590951c61ffff168552602085019190915283015260608201527ff71a4d7f2ea04c3d80693520178cdbbb75ce28db34d34ca05eb08282ce7f3f37908060808101620075d8565b63ffffffff600185015460a01c1680421162008a83575b50620087cd565b61ffff8460981c16908162008a99824262005cef565b101562008aa7575062008a7c565b9c509e9d5050985099505050505050505062008609576040805160789390931c61ffff168352602083019190915242908201526060810192909252907fa8ea47e93f284c6600be84b692d51af848f0cc9115e2c7d7d4048983348f9b2d908060808101620075d8565b9a9998505095945050915050620086a857620075d89061ffff60027fdd8c0c9dcb3ad98da85346fa23e456a8128ec3fc478eaacb4990e450880308cc9697015460781c1692604051948594859094939260609261ffff6080840197168352602083015260408201520152565b508382161515620087b4565b50935050505062008be057600201546040805160789290921c61ffff1682524360208301528101919091527fe0a0c6a40b4bf56f73bec44f57f213f583e95a0be298411ea97afbe135c07d82908060608101620075d8565b600261ffff91015460781c1663382831a960e21b5f526004524360245260445260645ffd5b91905f925f60ff825460f01c1662008e055760028201948554908160f81c1580809162008d6a575b62008d615762008c498263ffffffff600888015416886200c232565b62008d575762008cc9575b505050600101805467ffffffffffffffff191663ffffffff8316174260201b63ffffffff60201b161790557fc1756e760256c59a9c24ebaf7412f526bb6455cc4b44b0d4a99ce2200c7772a5905b92546040805160789290921c61ffff168252602082019490945260019381908101620075d8565b63ffffffff600185015460801c1661ffff8360881c169162008ced8383896200c2d1565b1562008cfb57505062008c54565b9194509295965093909362008518576040805160789590951c61ffff168552602085019190915283015260608201527ff71a4d7f2ea04c3d80693520178cdbbb75ce28db34d34ca05eb08282ce7f3f3790806080810162007c61565b5091955050505050565b50955050505050565b5063ffffffff600186015460a01c1661ffff8460981c16905f9181421162008dee575b8262008d9c575b505062008c2d565b6040805161ffff607889901c1681526020810193909352429083015260608201525f93507fa8ea47e93f284c6600be84b692d51af848f0cc9115e2c7d7d4048983348f9b2d90608090a15f8062008d94565b80925062008dfd824262005cef565b119162008d8d565b61ffff600283015460781c16633e626edf60e01b5f5260045260245ffd5b91905f9260ff815460f01c1662008fde57600281019384548060f81c1580809162008f63575b62008f595762008e66600163ffffffff600887015416876200c232565b62008f505762008ec3575b5050600101805467ffffffffffffffff191663ffffffff8316174260201b63ffffffff60201b161790557fc1756e760256c59a9c24ebaf7412f526bb6455cc4b44b0d4a99ce2200c7772a59062008ca2565b63ffffffff600184015460801c1661ffff8260881c169062008ee78282886200c2d1565b1562008ef557505062008e71565b92959650925092600162008518576040805160789590951c61ffff168552602085019190915283015260608201527ff71a4d7f2ea04c3d80693520178cdbbb75ce28db34d34ca05eb08282ce7f3f3790806080810162007c61565b50909450505050565b505f955050505050565b5063ffffffff600185015460a01c1661ffff8360981c16905f9181421162008fc7575b8262008f9457505062008e49565b60405163a8ea47e960e01b815261ffff607887901c16600482015260248101929092524260448301526064820152608490fd5b80925062008fd6824262005cef565b119162008f86565b600261ffff91015460781c16633e626edf60e01b5f5260045260245ffd5b60028054146200900c5760028055565b60405162461bcd60e51b815260206004820152601f60248201527f5265656e7472616e637947756172643a207265656e7472616e742063616c6c006044820152606490fd5b906001600160501b03809116911603906001600160501b0382116200296457565b9190915f9054906001600160501b038083169260501c16808311620090ba575b508084119384620090a257505050565b632e14f96160e21b5f5260045260245260445260645ffd5b6001600160501b039150620090d0908362009051565b165f62009092565b9290925f9054936001600160501b038086169560501c1680861162009182575b5081811193846200910c575b505050909150565b62009167576040805191825260208201929092526001600160501b039094169084015290917fb853e5846ad52919c794f709695100094681c458cd1864d5217c6c897b6858b19080606081015b0390a181905f808062009104565b849250632e14f96160e21b5f5260045260245260445260645ffd5b6001600160501b0391925062009199908662009051565b16905f620090f8565b600b54431115620092e45761217b4301804311620029645780600b556103e8620091d260085460065490620069ca565b0464e8d4a51000811115620092d7575b61217b81049182600a5561085f43018043116200296457600c5561217b830283159084810461217b1482171562002964576200921f908462005cef565b9361085f81029181830461085f14171562002964576200926562009285927fbed1e76d359c53e2dbafd4561fa97daac567d51974f6317c2f583ef17cddaa9d9662006992565b600955604051938493846040919493926060820195825260208201520152565b0390a15b600954808211620092a55790620092a09162005cef565b600955565b600a54600b546040516356cb4a3d60e01b81526004810194909452602484019290925260448301526064820152608490fd5b5064e8d4a51000620091e2565b600c54804311620092f7575b5062009289565b620093156200930b6200931e924362005cef565b600a5490620069ca565b60095462006992565b60095543600c555f620092f0565b906001600160501b03620078078192828554166200b819565b60405163a9059cbb60e01b60208201526001600160a01b039290921660248301526044808301939093529181526200599891620081166064836200584e565b91620093939195949562006992565b90606482029482860460641483151715620029645783620093b491620069ca565b93848610620094ca5783620093c991620069ca565b938486106200945b5750508111620093e357505050600190565b606481029080820460641490151715620029645762009438926200942c6200943292620094256064956200941e816200941e8960016200ba93565b946200ba93565b9062008191565b620081b5565b6200a5af565b8060011315806200944f575b6200704f906200c3dc565b50606481131562009444565b81959193506200943292506200948694620094256200942c926200941e816200941e8960646200ba93565b8160648293125f14620094a6571315806200944f576200704f906200c3dc565b6200704f91606413159081620094be575b506200c3dc565b90508213155f620094b7565b50935050505090565b906127108111620095085790600261ffff62005998931691019061ffff60b81b1961ffff60b81b83549260b81b169116179055565b61ffff600283015460781c16630dbcc17f60e31b5f5260045260245261271060445260645ffd5b6001821080156200957e575b62009560576002019061ffff60e81b1982549161ffff60e81b9060e81b169116179055565b50630c8f0a6960e41b5f52600452600160245261271060445260645ffd5b5061271082116200953b565b906127108111620095085790600261ffff62005998931691019061ffff60c81b1961ffff60c81b83549260c81b169116179055565b91909160018310801562009614575b620095f657600201805461ffff60d81b191660d89390931b61ffff60d81b1692909217909155565b82630c8f0a6960e41b5f52600452600160245261271060445260645ffd5b506127108311620095ce565b60018210801562009685575b6200966457600201906effffffffff0000000000000000000082549160501b16906effffffffff000000000000000000001916179055565b50630c8f0a6960e41b5f52600452600160245264ffffffffff60445260645ffd5b5064ffffffffff82116200962c565b906103e881108015620096e7575b620096c85767ffff00000000000082549160301b169067ffff0000000000001916179055565b61ffff9063d24aa9ff60e01b5f526004526103e860245260445260645ffd5b5061ffff8111620096a2565b620096fe906200c3f8565b9290829060048103620097695750506200704f6200973f5f937f00000000000000000000000000000000000000000000000000000000000000009062006992565b935b7f00000000000000000000000000000000000000000000000000000000000000009062006992565b6200704f919493506200977c906200624e565b9262009741565b906200978f33620074fd565b91825f52600d60205260405f209260ff845460a01c16620097b081620053ec565b80620039175750620097d2826001600160a01b036005541630903390620080d2565b620097de8285620077ee565b600654620097ed838262006992565b906001600160501b0382116200984d575060065592546040805194855260208501929092526001600160501b031690830152907f84b5adc99a7d46a960b87da6e4882021bab65d63c6d02c9bcfc52f02e710b1e3908060608101620075d8565b8390632242001360e21b5f526004526024526001600160501b0360445260645ffd5b9193929093845f526011830160205260405f209064ffffffffff825460b81c161562009da0576001620098a5918784876200c55a565b95969490969291921562009d93578015620098c38186868d6200c963565b6102a05190808711620098e9575b5050505050505050505050620059989192506200bfa3565b620098fa90879d9c9a9b9d62005cef565b821562009d80576200990c916200d3f9565b80945b8362009d75575b831562009d54575b50505062009d06575062009994949596979883549262009956816001600160501b038660481c1664ffffffffff8760b81c166200f0f4565b620099648199929962008165565b926200998a8160ff8960401c16988d8a8a63ffffffff8460981c169360e01c9262007e4b565b949190936200a5af565b965f88131562009cb957508a8a9b9c9d9e620099b4899c9a9b9c62008165565b908254620186a0620099cc8c62ffffff841662008191565b0591620186a0620099e68d62ffffff8560181c1662008191565b059062009a01829d620099fa86856200a5af565b906200ba93565b9d15908162009cb0575b5062009c75575b5062009a3062009a5b926001600160501b03809360801c16620105b5565b845469ffffffffffffffffffff60801b1916911660801b69ffffffffffffffffffff60801b16178355565b865f62009a68836200f115565b92121562009c635762009a7b926200f125565b845f52600d60205260405f209562009a9488886200f261565b9862009aad600354916001600160701b038316620105b5565b906001600160701b0319161760035560ff8a5460401c169a60028c1015620036cf57620059989e61ffff8f7fc56e3b8f4c1402837b3ddfc13d0892ef7262ea76711e0dd79947c96a5de294069f906101c09f9b8f88908c6001600160501b039f95600296155f1462009c515762009b2584876200f2de565b1562009bf15750505062009b559062009b428d601085016200dbf2565b6004858585015460781c1691016200dd42565b0162009b688a83835460781c166200be0f565b5460781c169b54976040519c8d5260208d015262009b9060408d0160ff8a60401c166200564c565b60608c0152151560808b015260a08a015260c089015264ffffffffff8460b81c1660e089015261010088015261012087015261014086015260481c166101608401526101808301526101a0820152a182915f808080808080808080620098d1565b8f62009c4b945062009c0e62009c459282855460481c16620105b5565b835472ffffffffffffffffffff0000000000000000001916911660481b72ffffffffffffffffffff00000000000000000016178255565b6200f309565b62009b55565b62009c5d84876200f298565b62009b25565b5062009c6f916200a38f565b62009a7b565b6001600160501b03919b5062009ca28162009c9b62009a309362009a5b969c976200a5af565b956200a5af565b5f9c90999350915062009a12565b90505f62009a0b565b878760c49362009cf58f9461ffff60028c97015460781c169560405196630c62a44b60e11b88526004880152602487015260448601906200564c565b6064840152608483015260a4820152fd5b839060a49262009d488c60ff61ffff60028c015460781c16955460401c169060405195631630083560e21b87526004870152602486015260448501906200564c565b60648301526084820152fd5b919250908262009d6a575b50505f83816200991e565b109050825f62009d5f565b818111935062009916565b62009d8b916200781a565b80946200990f565b5050505050505050509050565b8561ffff600286015460781c166334a4033d60e11b5f5260045260245260445ffd5b9291909493855f526011840160205260405f209164ffffffffff835460b81c161562009df75790620098a5918784876200c55a565b5091505092919262009e4b57600201546040805160789290921c61ffff16825260208201929092527f6948067a0ba575890268b9a7eaf592a5832287e4402201145ce0768a9d9533fc9181908101620075d8565b600261ffff91015460781c166334a4033d60e11b5f5260045260245260445ffd5b905f91801515908162009e9f575b811562009e90575b5062009e8a57565b60019150565b63ffffffff9150115f62009e82565b438110915062009e7a565b61ffff608082015116908115801562009ec257505050565b6127108302928304612710141715620029645760035460701c6c1fffffffffffffffffffffffff169081831162009f0b5750508062009f0562005998926200d42c565b620080ba565b9160809161ffff60e07f5d8e434afef436d0cbafab1ae9386b8f70c885ee513868335f9474f61202d3469501511691604051925f8452602084015260408301526060820152a1565b61ffff16801562002964575f190190565b929091925f84156200a32e5761ffff908186166303ff00008660101b16179460028401865f528060205260405f209283549863ffffffff8a16156200a308575062009fb560ff8a60601c166200d46e565b925f9063ffffffff885460b01c168a145f146200a2d35762009fe263ffffffff875460201c16896200d496565b63ffffffff865460201c16806200a2b4575b505b875460d01c63ffffffff168a036200a273576200a01e63ffffffff875460401c16896200d523565b63ffffffff865460401c16806200a254575b505b6003880191815f528260205260405f20968b88548163ffffffff8216148080916200a241575b156200a1b75750505050505f526020525f60408120556001925b156200a18357506200a0a46001600160501b036200599897989960901c166001600160501b03875460501c166200b819565b855469ffffffffffffffffffff60501b1916605082901b69ffffffffffffffffffff60501b16178655975b5f526020525f6040812055156200a141575b50506200a0f2815460f01c62009f53565b81547dffffffffffffffffffffffffffffffffffffffffffffffffffffffffffff1660f09190911b7fffff00000000000000000000000000000000000000000000000000000000000016179055565b6200a1566200a17b92825460401c1662009f53565b69ffff000000000000000082549160401b169069ffff00000000000000001916179055565b5f806200a0e1565b979662005998969783156200a19a575b506200a0cf565b64ffffffffff6200a1b09160681c16856200d582565b5f6200a193565b9398955091935091156200a20d5750505460201c63ffffffff166303fcffff8082116200a1f7575063ffffffff1663ffffffff198654161785556200a072565b906395d41f3f60e01b5f5260045260245260445ffd5b60201c63ffffffff16146200a224575b506200a072565b63ffffffff6200a23a915460401c16866200d552565b5f6200a21d565b508263ffffffff8360201c16146200a058565b5f528360205260405f2063ffffffff60201b1981541690555f6200a030565b8554602081811c63ffffffff165f908152908690526040902080546bffffffff0000000000000000191663ffffffff60401b9092169190911790556200a032565b5f528360205260405f2063ffffffff60401b1981541690555f62009ff4565b60408b811c63ffffffff165f908152602086905220805467ffffffff00000000191663ffffffff60201b8d1617905562009ff6565b839063ffffffff60018901541691638d5bba0f60e01b5f5260045260245260445260645ffd5b8363ffffffff600184015416906369bc91ef60e11b5f5260045260245260445ffd5b62005998915f526007810160205261ffff60405f206200a3836200a37b60ff835460201c166200a6e5565b82856200d5cf565b5460a81c16906200db3b565b6001600160501b036200a3ad620059989382845460301c166200b8ae565b82546fffffffffffffffffffff0000000000001916911660301b6fffffffffffffffffffff00000000000016179055565b6001600160501b036200813a620059989382845460801c166200b8ae565b929061ffff600285015460781c16936200a41960018484620090d8565b6200a4dc57835f526011810160205260405f209064ffffffffff825460b81c16156200a4c557916001600160501b038085936200a4888560a099976200a4827f577ed0a8f65f2feb5a407660b0a3009c2ee155a17d0e34947c58ecdd6c8b37719c9a886200932c565b6200a38f565b6200a49f8262009c0e8782855460481c166200b8ae565b5460481c16915416926040519485526020850152604084015260608301526080820152a1565b84866334a4033d60e11b5f5260045260245260445ffd5b5050505050565b9392919261ffff600286015460781c16946200a501828585620090d8565b6200a5a757845f526011810160205260405f209164ffffffffff835460b81c16156200a56b5750916001600160501b038085936200a4888560a099976200a4827f577ed0a8f65f2feb5a407660b0a3009c2ee155a17d0e34947c58ecdd6c8b37719c9a886200932c565b935050505062007dbf577f6948067a0ba575890268b9a7eaf592a5832287e4402201145ce0768a9d9533fc9160409182519182526020820152a1565b505050505050565b9190915f83820193841291129080158216911516176200296457565b908060081c9060ff8116806200a6b5575b5060101c9060ff8116806200a653575b5050806200a5fc575b50505f1990565b6200a6099082546200de4e565b60018101156200a5f557806002915f52600183016020526200a62f60405f20546200de74565b9060081b1791825f52016020526200a64b60405f20546200de74565b9060081b1790565b6200a66d90835f526001850160205260405f20546200de4e565b9060018201156200a5ec57600292507effffffffffffffffffffffffffffffffffffffffffffffffffffffffffff00161791825f52016020526200a64b60405f20546200de74565b6200a6cf90835f526002850160205260405f20546200de4e565b60018101156200a5dc579250905060ff19161790565b6200a6f081620053ec565b80159081156200a6fe575090565b600391506200a70d81620053ec565b1490565b91905f92610180820135801515806200a933575b6200a8e957506040820135600781101562002c1d57600681036200a7eb57506200a7548360608401356200e073565b6200a7e557826080830135806200a7c1575b50905060a0820135806200a7a3575b505060c0013590816200a78b575b505050600190565b6200a796916200e00d565b6200704f5780806200a783565b906200a7af916200df87565b6200a7bc57815f6200a775565b505090565b63ffffffff60086200a7d794015416906200c232565b6200a7bc575f82816200a766565b50505090565b919291600581036200a847575050906101a00135156200a80c575050600190565b6200a838577f1fccd51f56ecc3a71d5e32721dbf2bb0690bf050c6147a84fd5f83717d8c5d225f80a190565b631fccd51f60e01b5f5260045ffd5b6004036200a86a575060606200a85f9201356200e073565b6200704f5750600190565b8163ffffffff60086200a8859301541660808501356200c232565b6200a7bc576200a89a8160a08401356200df87565b6200a7bc576200a8ae610100830162005a8f565b15806200a8d2575b6200a8c357505050600190565b60c06200a7969201356200e00d565b506200a8e2610120830162005a8f565b156200a8b6565b935050506200a9215760207f9f38a7d29e6c9e707bfe5fee47b29748083dc31546de0135d48ed99db5e190f091604051908152a15f90565b634f9c53e960e11b5f5260045260245ffd5b504381106200a725565b91909293815f52600f830160205260405f209363ffffffff855416156200aa0b57906200a97591868463ffffffff885416926200e0e0565b156200a982575b50505050565b836200a9f06200a9c07fe9805f82cb3729e97b234bb6bb4f90ea971e2c274201ff71818ebde153e1b0a6966200a9ba6060976200673c565b6200e14b565b9390925f52600d60205260086200a9e88260405f2061ffff60028a015460781c169062009f64565b95016200a350565b60405192835260208301526040820152a15f8080806200a97c565b9450915091506200aa48577f69b92a906c4fe940cd3de572076c4a5181ddced80218575cc4959b1d8f6a6e3f9160409182519182526020820152a1565b9063069b92a960e41b5f5260045260245260445ffd5b94929093916040516200aa7181620057f6565b5f81525f6020820152809561ffff600289015460781c1697606084013598895f52600f820160205260405f209363ffffffff855416156200ab77575083546200aac48863ffffffff8316898e866200e0e0565b6200ab6a5760ff6200aada9160201c166200e23c565b6200aaf2575b506200aaef969798506200e257565b50565b866200ab4f576200aaef9798997fe03d6e5b9ada2bee571a0faed84b4da12ba5afc5c10f1c29d8fbbb6dcd7519d8916200ab4388604051938493846040919493926060820195825260208201520152565b0390a18897966200aae0565b89869163e03d6e5b60e01b5f5260045260245260445260645ffd5b5050505050505050915090565b98509698959450505050506200aa48577f69b92a906c4fe940cd3de572076c4a5181ddced80218575cc4959b1d8f6a6e3f9160409182519182526020820152a190565b9493919290604051936200abce85620057f6565b5f85525f602086015284604082013595600787101562002c1d576200abf387620053ec565b60a0830135916200ac04886200e23c565b6200adfd575b5061012083016200ac1b8162005a8f565b80156200ade7575b6200ad1657506200ac34876200e23c565b6200acf7575b506040516200ac4981620057f6565b5f81525f602082015297600881019163ffffffff835416966200ac726080860135988962005cef565b9682986200ac8360e0880162005a8f565b156200acce575b505050866200aca0575b50505050505050505090565b6200acb49950886200acc3575b506201052a565b5f80808080808080806200ac94565b861497505f6200acad565b6200aced939950610140870135908a610160890135918d8b896200f8bb565b955f80806200ac8a565b6200ad058883868c6200ea90565b6200ac3a5797505050505050505090565b958398506200ad4891999495839885610100956101406200ad50980135926080610160840135930135908b8b6200f8bb565b960162005a8f565b806200addd575b6200adb75750506200ad699062005a8f565b806200adad575b6200ad7a57505090565b7f59468f520017226c0116472def96f905dbeff518444091b355de591a2161cdbe9160409182519182526020820152a190565b508115156200ad70565b9061ffff60028693015460781c1663578f7fed60e01b5f5260045260245260445260645ffd5b508415156200ad57565b506200adf7610100850162005a8f565b6200ac23565b845f5260118a0160205260405f209064ffffffffff825460b81c161515806200af22575b6200ae9357505460b81c64ffffffffff16808311156200ac0a57979550975094505050506200ae7d577f604559a5e01ca154dad1c02a9ef408530f8fa41f3506e6a57f7d2ac727e148229160409182519182526020820152a190565b9063604559a560e01b5f5260045260245260445ffd5b99509697955050505050506200aef1577f189a4ff828fb1a93c81a2248c39ac499b67bf632ade3d5f89935821e8d1ec9989160ff60409254831c16906200aedd835180936200564c565b6200aee881620053ec565b6020820152a190565b5463031349ff60e31b5f5260401c60ff166002811015620036cf576004526200af1a81620053ec565b60245260445ffd5b506200af368960ff845460401c166200ea70565b6200ae21565b81601f8201121562002c1d578051906200af568262005871565b926200af6660405194856200584e565b8284526020838301011162002c1d57815f9260208093018386015e8301015290565b51906001600160a01b038216820362002c1d57565b919082604091031262002c1d576040516200afb881620057f6565b60208082946200afc8816200af88565b84520151910152565b9081602091031262002c1d5751801515810362002c1d5790565b9060208282031262002c1d57815167ffffffffffffffff811162002c1d576200704f92016200af3c565b90916200b02f6200704f93604084526040840190620053b1565b916020818403910152620053b1565b519063ffffffff8216820362002c1d57565b519077ffffffffffffffffffffffffffffffffffffffffffffffff8216820362002c1d57565b51908160170b820362002c1d57565b908161012091031262002c1d5760405190610120820182811067ffffffffffffffff82111762002a71576200b14b9161010091604052805184526200b0cd602082016200b03e565b60208501526200b0e0604082016200b03e565b60408501526200b0f3606082016200b050565b60608501526200b106608082016200b050565b60808501526200b11960a082016200b03e565b60a08501526200b12c60c082016200b076565b60c08501526200b13f60e082016200b076565b60e0850152016200b076565b61010082015290565b91905f905f5f93805181016080826020830192031262002c1d5780603f8301121562002c1d576040516060810181811067ffffffffffffffff82111762002a7157604052608083019082821162002c1d5760208401905b8282106200b808575050519067ffffffffffffffff821162002c1d5760206200b1d7928401016200af3c565b80511562005d215761ff0080602083015160f01c161681516001101562005d2157602182015160f81c17600381036200b7ac5750600460206001600160a01b03825416604051928380926338416b5b60e01b82525afa80156200b5e2575f906200b75c575b6001600160a01b0316905080156200b7415760405163ea4b861b60e01b815290602082600481845afa9182156200b5e2575f926200b6ef575b5060a06200b2b06001600160a01b039394604051948592839263701ed58d60e11b8452306004850152606060248501526064840190620053b1565b96169586604483015203815f855af19182156200b5e2575f926200b695575b50602060049160405192838092633aa5ac0760e01b82525afa9081156200b5e2575f916200b648575b5060209182015160405163095ea7b360e01b81526001600160a01b0390921660048301526024820152908180604481015b03815f865af180156200b5e2576200b614575b50604051906020820152602081526200b3576040826200584e565b87156200b5ed575f906200b390926001600160a01b03600454169083604051809681958294637bf41d7760e11b8452600484016200b015565b03925af19081156200b5e2575f916200b5bb575b50905b8151946200b3be602080850197850101876200b085565b516005880154908181036200b55157505063ffffffff60406200b3e860208651870101896200b085565b0151169560018801549363ffffffff8560a01c16808911156200b4ea575060c0916020826200b41b93510101906200b085565b0151938460170b5f81126200b48f57505050506200b47d9177ffffffffffffffffffffffffffffffffffffffffffffffff6200b46160ff6200b4699460d81c166200eee3565b91166200781a565b9463ffffffff60088596015416866200c232565b6200b489575050600192565b93909150565b94509495509691509694506200b4d4577f4d8c851d919cf102ec02f76a35ca2f0b9e8ca3e9cd36ecc7128c03c7048e247a9160409182519182526020820152a1929190565b90634d8c851d60e01b5f5260045260245260445ffd5b945050509690979550939192936200b53857916060917fac23cd4bf85c84f3aa74c4752cbc1abc6ca3871a6e6b676f56bd64f992b700ae9360405192835260208301526040820152a1929190565b8263ac23cd4b60e01b5f5260045260245260445260645ffd5b935094955096909795506200b5a157604080519283526020830193909352918101919091527fe9ab5ccfbd8b803e0bd519630f62d1a32b22e517a5bfcd78e8c860b36c98386b90606090a1929190565b925063e9ab5ccf60e01b5f5260045260245260445260645ffd5b6200b5db91503d805f833e6200b5d281836200584e565b8101906200afeb565b5f6200b3a4565b6040513d5f823e3d90fd5b6200b5f991846200ed30565b90156200b60757906200b3a7565b5095935050909250929190565b6200b63a9060203d6020116200b640575b6200b63181836200584e565b8101906200afd1565b6200b33c565b503d6200b625565b90506020813d6020116200b68c575b816200b666602093836200584e565b8101031262002c1d576200b3299160206200b68281936200af88565b925050916200b2f8565b3d91506200b657565b90915060a03d60a0116200b6e7575b6200b6b081836200584e565b810160a08282031262002c1d57816200b6dd8260406200b6d56020956004976200af9d565b93016200af9d565b509291506200b2cf565b503d6200b6a4565b91506020823d6020116200b738575b816200b70d602093836200584e565b8101031262002c1d5760a06200b2b06200b72f6001600160a01b03946200af88565b9350506200b275565b3d91506200b6fe565b50506040516200b7536020826200584e565b5f81526200b357565b506020813d6020116200b7a3575b816200b779602093836200584e565b8101031262002c1d57516001600160a01b038116810362002c1d576001600160a01b03906200b23c565b3d91506200b76a565b9650505050939150506200b7f2577f09c9ec7d8ebb7546d7aa7fae159f14736cab80420326900e4b1ce60942f331d89160409182519182526020820152a15f905f905f90565b906309c9ec7d60e01b5f5260045260245260445ffd5b81518152602091820191016200b1ab565b91908281116200b85a57808303926001600160501b0384116200b83a575050565b63733cc1d960e11b5f526004526024526001600160501b0360445260645ffd5b9050637509da4360e11b5f5260045260245260445ffd5b91908281116200b85a578083039264ffffffffff84116200b890575050565b63733cc1d960e11b5f5260045260245264ffffffffff60445260645ffd5b91906200b8bc818462006992565b926001600160501b0384116200b8d0575050565b632242001360e21b5f526004526024526001600160501b0360445260645ffd5b91906200b8fe818462006992565b9264ffffffffff84116200b910575050565b632242001360e21b5f5260045260245264ffffffffff60445260645ffd5b5f925f9160018101549463ffffffff8660201c1690600263ffffffff8860a01c1693015461ffff8160981c16915f968442116200ba7c575b876200ba2a57505063ffffffff86979816976001975b6200b988575050505050565b6200b9eb576040805160789290921c61ffff16825260208201939093529182019290925242606082015260808101919091527f462f6162298dca9e5d41e18bce420c615636b3469c2581b67264561d926944f89060a090a15f808080806200a4dc565b604051632317b0b160e11b815260789190911c61ffff16600482015260248101929092526044820192909252426064820152608481019190915260a490fd5b9790988260f81c156200ba40575b50866200b97c565b96505f968542116200ba65575b876200ba385760801c63ffffffff169850866200ba38565b9650826200ba74864262005cef565b11966200ba4d565b9650826200ba8b854262005cef565b11966200b966565b81810392915f1380158285131691841216176200296457565b9495916200bacd6200bac66200bad493959694896200bfd7565b92620069ca565b94620069ca565b9081156200bb6a576200bafb6200942c916200baf56200bb01955f6200ba93565b6200ba93565b62008176565b82156200bb58576200bb13916200a5af565b915b5f83126200bb51576006036006811162002964576200bb349062006a3f565b90156200bb46576200704f916200d3f9565b6200704f916200781a565b5050505f90565b6200bb63916200ba93565b916200bb15565b5050505050505f90565b95969262007ebb6200bac66200bb909394959796978a6200bfd7565b9182156200bbb1576200bb01936200baf56200bafb926200942c946200ba93565b505050505050505f90565b97929493919597969096610520526200bbdc5f828a8a610520516200ef89565b909398949c91610500529291979b806200bd9457508a5493895f52600d60205260405f20966200bc118a8c610520516200f125565b6200bc1d8a89620077ee565b60ff8d5460401c169860028a1015620036cf576001600160501b037fd703c4a5a6df297a33d23db6017052526cadd6a581a903e554fc97dcd35a0ea39f9e6102009f64ffffffffff9c9a8f918e9c155f146200bd7f576200bc8282610520516200f2de565b156200bd5d57506200bc9b90601061052051016200dbf2565b6200bcb861ffff600261052051015460781c1660048d016200dd42565b549954169b60206040519e8f9081520152151560408d01526200bce560608d0160ff8860401c166200564c565b63ffffffff8660981c1660808d015260a08c0152151560c08b015260e08a01526101008901526101208801526001600160501b038160481c166101408801526001600160501b038360481c1661016088015260b81c1661018086015260b81c166101a08401526101c08301526101e0820152a1600190565b6200bd7991506200bd72610500518462010560565b826200f309565b6200bcb8565b6200bd8e82610520516200f298565b6200bc82565b9850505050505050509250600a919350146200bdb05750505f90565b608492506001600160501b0361052051546040519363063c641b60e41b85526004850152818160301c16602485015260801c1660448301526064820152fd5b976200bbdc9198999493969997929761052052828a8a610520516200ef89565b90805f52600d60205260405f2092825f526003840160205260405f20549061ffff8260401c1680156200bf9b579394936200be4a8162005d6b565b936200be5a60405195866200584e565b818552601f196200be6b8362005d6b565b0136602087013760028601965f9463ffffffff165b801515806200bf91575b156200bec95761ffff956200beae6200bea3826200624e565b978316918962005e03565b525f528760205263ffffffff60405f205460201c166200be80565b50935093919550936200bedc8362006d46565b6008810192600f5f9201915b8781106200befa575050505050505050565b807fb52688454dfd5028443d05c10bc78a9ca263b7c7645d2e8bfef428d0e8b3b0476200bf2a6001938562005e03565b51805f52856020526200bf44620012de60405f206200673c565b6200bf51818a8962009f64565b906200bf5e818a6200a350565b6200bf876040519283928d8d859094939260609260808301968352602083015260408201520152565b0390a1016200bee8565b508386106200be8a565b509350505050565b6002015464ffffffffff8082169160281c16908181036200bfc2575050565b6395626a2760e01b5f5260045260245260445ffd5b90915f5f9280155f146200c05e575050620f4240925b806200bffc5750620f42409150565b600181036200c00e5750620186a09150565b600281036200c01f57506127109150565b600381036200c03057506103e89150565b600481036200c040575060649150565b600581036200c0505750600a9150565b600603620059985760019150565b600181036200c075575050620186a0925b6200bfed565b600281036200c08a575050612710926200bfed565b600381036200c09f5750506103e8926200bfed565b600481036200c0b35750506064926200bfed565b600581036200c0c7575050600a926200bfed565b909390600519016200c06f57600193506200bfed565b906001600160a01b036200c14492165f80604051936200c0ff6040866200584e565b602085527f5361666545524332303a206c6f772d6c6576656c2063616c6c206661696c6564602086015260208151910182855af16200c13d6200ecfc565b916201142e565b80519081159182156200c1c7575b5050156200c15c57565b60405162461bcd60e51b815260206004820152602a60248201527f5361666545524332303a204552433230206f7065726174696f6e20646964206e60448201527f6f742073756363656564000000000000000000000000000000000000000000006064820152608490fd5b6200c1dc92506020809183010191016200afd1565b5f806200c152565b600181036200c1f65750600160f11b90565b600281036200c2085750600160f21b90565b600381036200c21a5750600160f31b90565b6004036200c22a57600160f41b90565b600160f01b90565b929192816001019182600111620029645762ffffff01908162ffffff1162002964578083119485156200c2c6575b856200c26c5750505050565b6200c2ac57507f9c6cd57b23ccacf841857c1eb7892bef39f27d0c1197bb0bf7646c90dc7fb8709160409182519182526020820152a15f8080806200a97c565b8290630caa980960e21b5f5260045260245260445260645ffd5b82821195506200c260565b8115929183806200c345575b156200c2ec5750505050600190565b5f925f941592836200c301575b505050501090565b9193509193508281115f146200c33857620186a08382035b0293156200c32f5750025b905f8080806200c2f9565b9150026200c324565b620186a08184036200c319565b5081156200c2dd565b9063ffffffff825460d01c1681106200c3d4576012916200c37665ffffffffffff926200c3f8565b5f928352949092016020526040902054905f1981016200c39c575060301c5b1660050b91565b600281036200c3b0575060601c5b6200c395565b600381036200c3c3575060901c6200c395565b6004036200c3aa5760c01c6200c395565b50505f905f90565b156200c3e457565b634e487b7160e01b5f52600160045260245ffd5b7f0000000000000000000000000000000000000000000000000000000000000000801562007825576200c42f908206809262005cef565b915f5f927f000000000000000000000000000000000000000000000000000000000000000090818110156200c46e575b50506200704f90928462006992565b915080935060011b906001600160ff1b03841684036200296457818110156200c4a25750506200704f60015b905f6200c45f565b909280600302916003830482036200296457828110156200c4cc575050506200704f60026200c49a565b908092945060021b917f3fffffffffffffffffffffffffffffffffffffffffffffffffffffffffffffff81160362002964578111156200c51357506200704f60036200c49a565b91506200704f60046200c49a565b926200c54a9060a095929897969361ffff60c087019a168652602086015260408501906200564c565b6060830152151560808201520152565b939091935f5f93549464ffffffffff8660b81c16908181115f146200c95a5750905b81956001840154976200c5b56200c5a46200274660ff8c60e01c1660ff8d60d81c1662006992565b8563ffffffff8560981c166200f057565b916200c5cf60028701549361ffff8560e81c16906200f087565b906200c5dc88886200b92e565b9891909788829a6200c93d575050508a6200c6109163ffffffff8460981c16908460e01c908b60ff8760401c169162007e4b565b9c915050600260ff8360401c161015620036cf576200c6658c938c60ff8560401c16159e8f9160ff8660e01c169360ff8760d81c169363ffffffff8960981c16916001600160501b038a60481c16916200bb74565b998a156200c85b578c806200c851575b80156200c83d575b6200c7b35750808c848d60ff806200c6b89660e01c169460d81c169263ffffffff8760981c16906001600160501b038860481c16906200baac565b9788156200c6cb57505050505050600196565b9b95969798999a9b6200c756576040805160789590951c61ffff1685526020850193909352604881901c6001600160501b03169284019290925260989190911c63ffffffff1660608301526080820189905260a08201527f2e92846d5b5d5dd9cf60dd19064afe4a911e6751cdad455cb26a600db66e963c908060c081015b0390a196959493929190565b604051632e92846d60e01b815260789490941c61ffff1660048501526024840192909252604882901c6001600160501b0316604484015260989190911c63ffffffff1660648301526084820189905260a48201528060c481010390fd5b999a9b9c9697989194939250506200c80b57916200c74a89878960ff957f1ae2d36bf92917b7a1d46b202b08d846857974213d6d8801cfb7ce7112a727fa9761ffff60405198899860401c169260781c16876200c521565b88868860ff9594620016309461ffff604051988998631ae2d36b60e01b8a5260401c169260781c16600488016200c521565b508c1580156200c67d57508a89106200c67d565b508a89116200c675565b999a9b9c96979890506200c8e0576040805160789590951c61ffff1685526020850193909352604881901c6001600160501b03169284019290925260989190911c63ffffffff1660608301526080820189905260a08201527f0df65f0bfef22299d2332a74323c24d136c79b82d668afc82cfe8dfb0d75a2f2908060c081016200c74a565b604051630df65f0b60e01b815260789490941c61ffff1660048501526024840192909252604882901c6001600160501b0316604484015260989190911c63ffffffff1660648301526084820189905260a48201528060c481010390fd5b9c509c509c99505050505050505050505f935f93925f925f929190565b9050906200c57c565b6102208190526102e08490525f6102a05290926103e8916200c98991906008016200f0a7565b610360525f610280526102c0839052915b801515806200d3be575b156200d37a57831515806200d385575b6200d37a57505f610240525f610320525f610260525f610240526200c9e0826008610220510162007fdd565b50610200526102c05161032052610260525b610320511515806200d36d575b806200d360575b156200d24257610200515f52600f610220510160205260405f20805463ffffffff81165f52600d60205260405f206103005260ff610300515460a01c166200ca4e81620053ec565b156200caf257505f8161ffff7f86ad99b48b2565c9720e33335db58e8c7468d6af03a5e6238b20d4a562f5b8b4935460c81c16610200526200cae96200caae60018461ffff600261022051015460781c16809560086102205101620123b2565b9096916040949394519788978893909796959260c0959260e08601998652602086015260408501526060840152608083015260a08201520152565b0390a16200c9f2565b6200cb0663ffffffff8260781c1662009e6c565b156200cb6657505f8161ffff7fb95e250f9f017dcb1bb1806916771df0c04a269e5f46d5db7519382a0f7bb477935460c81c16610200526200cae96200caae60018461ffff600261022051015460781c16809560086102205101620123b2565b63ffffffff81166200cbcc57505f8161ffff7f52d5291dc7b477ebda965d0693c67e6ccec5b3667b530305685465384756d3fd935460c81c16610200526200cae96200caae60018461ffff600261022051015460781c16809560086102205101620123b2565b5f6200cbde60ff8360201c166200e23c565b6200d1ea575b156200cc4457505f8161ffff7fae6369c6e529c86dd87431d10e0db70657c834daa75356e1efd7c0ac79f934b7935460c81c16610200526200cae96200caae60018461ffff600261022051015460781c16809560086102205101620123b2565b9064ffffffffff8260401c166200cc6160ff8460201c166200e23c565b6200d1af575b6103205181118015610340526200d1a1576200ccf7815b60026102205101549061ffff6200ccd36200ccc7600161022051015460ff808260f01c169160e81c1664ffffffffff8760501c1664ffffffffff881687878a60d81c1662009384565b828960981c166200f550565b9260c81c1691610360519060ff8860201c169063ffffffff891661022051620114cd565b949795889350905060061981016200d0ba575061034051156200d044576200cd316200cd278761036051620069ca565b6102405162006992565b610240526200cd44866103205162005cef565b610320525b6200cd576102605162006a32565b6102605261034051156200ce725750505091610120939185936200cdab62009c9b63ffffffff7ff5f5aef063f495816b6982c44c70c97c8fbec2fa24b73487e6542ce02143121499166200a9ba856200673c565b9261ffff835460c81c16610200526200ce036200cde261ffff8860a81c1661ffff600261022051015460781c166103005162009f64565b936200cdf560ff825460201c166200a6e5565b90600861022051016200d5cf565b6200ce1c61ffff8760a81c16600861022051016200db3b565b61ffff80600261022051015460781c169660405197885263ffffffff8116602089015260a81c166040870152610360516060870152608086015260a085015260c084015260e0830152610100820152a16200c9f2565b90949391955060ff6002610220510154925460201c165f9061ffff8960a81c16156200d0185761ffff8960a81c166303ff00008560681c16175f526002610300510160205260405f209384549163ffffffff8316156200cfe357967ff5f5aef063f495816b6982c44c70c97c8fbec2fa24b73487e6542ce0214312149a98969492819694926200cf066101209c9a6200d46e565b156200cf6f57505050506200cf5e826001600160501b036200cf3384826200cf68975460901c1662012826565b825469ffffffffffffffffffff60901b1916911660901b69ffffffffffffffffffff60901b16179055565b61030051620113b0565b916200ce1c565b6200cfdd94509461ffff6200cfd79293949660781c165f526003610300510160205264ffffffffff6200cfac858260405f209660681c166200b871565b825471ffffffffff000000000000000000000000001916911660681b64ffffffffff60681b16179055565b6200d582565b6200cf68565b5061ffff8a8163ffffffff60016103005101541693638d5bba0f60e01b5f5260781c1660045260a81c1660245260445260645ffd5b8361ffff63ffffffff600161030051015416916369bc91ef60e11b5f5260781c1660045260245260445ffd5b94506200d05c6200cd276103205161036051620069ca565b610240526200d0aa64ffffffffff6200d07f6103205182885460401c166200b871565b86546cffffffffff00000000000000001916911660401b6cffffffffff000000000000000016178555565b61032051945f610320526200cd49565b93505050507f72777d4856cf973d1b0f65b47f675f18842c122c2a529a294343fd22a6c135479450610160935081549061ffff8260c81c166102005261ffff600261022051015460781c169384610340515f146200d18a575f60019160ff6200d13194965b60201c169660086102205101620123b2565b94939592969190604051988952602089015260408801526200d15381620053ec565b606087015261036051608087015260a086015260c085015260e08401525f610100840152610120830152610140820152a16200c9f2565b6200d13191505f60019160ff61032051966200d11f565b6200ccf7610320516200cc7e565b63ffffffff83165f526011610220510160205264ffffffffff60405f205460b81c168181106200d1e1575b506200cc67565b90505f6200d1da565b5063ffffffff81165f526011610220510160205260405f2064ffffffffff815460b81c161515159081156200d221575b506200cbe4565b6200d23b915060ff808460201c16915460401c166200ea70565b5f6200d21a565b610260519161032051906200d25e610240516102a05162006992565b6102a052610320516102c051036200d34a575b61026051156200d2af57610320516200d28d575b92906200c99a565b91506200d2a46102e051600861022051016200f0a7565b61036052916200d285565b50929150507fb492fac0bb9e8c8d824bf2a4c19ec1efd3e98e987de34e127bc17eb2b5c0605e5f80a15b610280516200d2e457565b600161022051016200d31a63ffffffff6102805116829063ffffffff60401b82549160401b169063ffffffff60401b1916179055565b80546fffffffff00000000000000000000000019164260601b6fffffffff00000000000000000000000016179055565b6103605161028052610320516102c0526200d271565b506102605115156200ca06565b506102005115156200c9ff565b93925050506200d2d9565b506102e051806200d3b1575b806200c9b457506102e0511580156200c9b457506103605184116200c9b4565b506103605184106200d391565b506103605115156200c9a4565b5f90806200d3d7575090565b5f198101915081116200296457620186a0900460018101809111620029645790565b90816200d4065750505f90565b5f19820191821162002964576200d41d916200781a565b60018101809111620029645790565b7fffffffffffe0000000000000000000000000ffffffffffffffffffffffffffff620077bc600354926c1fffffffffffffffffffffffff8460701c166200b819565b6200d47981620053ec565b80159081156200d487575090565b600191506200a70d81620053ec565b906303fcffff8082116200a1f757507fffffffffffff00000000ffffffffffffffffffffffffffffffffffffffffffff79ffffffff0000000000000000000000000000000000000000000083549260b01b169116179055565b906303fcffff8082116200a1f7575081546bffffffff0000000000000000191660409190911b63ffffffff60401b16179055565b906303fcffff8082116200a1f75750815463ffffffff60d01b191660d09190911b63ffffffff60d01b16179055565b906303fcffff8082116200a1f75750815467ffffffff00000000191660209190911b63ffffffff60201b16179055565b64ffffffffff6200d59e620059989382845460581c166200b871565b82546fffffffffff00000000000000000000001916911660581b6fffffffffff000000000000000000000016179055565b9080548060281c9062ffffff82169485926200d5ec848762007fdd565b9061ffff8560a81c1680911491826200db30575b50506200d95a575b50505050805461ffff8160b81c169081158080916200d94a575b156200d70f57505050506006906200d63f60078406809462005cef565b5f520160205260405f2090600160ff1983541617825580155f146200d66d5750805464ffffffff0019169055565b600181036200d6895750805468ffffffff000000000019169055565b600281036200d6a9575080546cffffffff00000000000000000019169055565b600381036200d6cd5750805470ffffffff0000000000000000000000000019169055565b600481036200d6e75750805463ffffffff60881b19169055565b6005036200d6ff57805463ffffffff60a81b19169055565b805463ffffffff60c81b19169055565b929492156200d8985750508261ffff91826007955460c81c166200d737868306809362005cef565b5f526006850160205260405f2091600160ff1984541617835580155f146200d78e5750815462ffff00191660089190911b62ffff00161790555b5460c81c165f520160205260405f2061ffff60b81b198154169055565b600181036200d7bc5750815466ffff0000000000191660289190911b66ffff0000000000161790556200d771565b600281036200d7f2575081546affff000000000000000000191660489190911b6affff000000000000000000161790556200d771565b600381036200d826575081546effff00000000000000000000000000191660689190911b61ffff60681b161790556200d771565b600481036200d8505750815461ffff60881b191660889190911b61ffff60881b161790556200d771565b6005036200d87857815461ffff60a81b191660a89190911b61ffff60a81b161790556200d771565b815461ffff60c81b191660c89190911b61ffff60c81b161790556200d771565b60c81c61ffff16806200d8de575050826200d8c161ffff92836007965460b81c1690856200f346565b5460b81c165f520160205260405f2061ffff60c81b198154169055565b62005998949192506200d91990600761ffff9501935f528360205260405f209061ffff60c81b1961ffff60c81b83549260c81b169116179055565b5490828260c81c165f5260205260b81c1660405f209061ffff60b81b1961ffff60b81b83549260b81b169116179055565b5061ffff8260c81c16156200d622565b6003860192600587018160301c9261ffff841690815f5282602052600160ff60405f2092161b1981541690555f5260205260405f2054156200dae1575b5050156200da4457835462ffffff8160781c1683145f146200da0d5750906200d9c0916200a5cb565b5f1981036200d9fb575081547fffffffffffffffffffffff000000000000ffffffffffffffffffffffffffffff1682555b825f80806200d608565b6200da079083620107f1565b6200d9f1565b60901c62ffffff1682146200da25575b50506200d9f1565b6200da3c916200da3591620105fd565b83620107a0565b825f6200da1d565b835462ffffff8160481c1683145f146200dab35750906200da65916200a5cb565b5f19811480156200daa0575b156200da94575081546effffffffffff000000000000000000191682556200d9f1565b6200da0790836201076b565b5062ffffff835460781c1681146200da71565b60601c62ffffff1682146200daca5750506200d9f1565b6200da3c916200dada91620105fd565b8362010717565b60ff9060381c16906004870190825f5281602052600160ff60405f2092161b198154169055815f5260205260405f2054156200db1f575b806200d997565b6001901b1982541682555f6200db18565b1490505f806200d600565b5f828152600782016020526040902080547fffffffffff0000000000000000000000000000000000000000000000000000001663ffffffff60781b17905581156200dbe3576200dbb382620059989360081c90815f5260028401602052600160ff60405f2092161b1981541690556001830162010832565b6200dbc661ffff825460201c1662009f53565b65ffff0000000082549160201b169065ffff000000001916179055565b6302f9530760e61b5f5260045ffd5b906001820191815f528260205260405f209064ffffffffff825460b81c166200dc1b5750505050565b805463ffffffff1683036200dd11576200dc3d63ffffffff835416826200f4bd565b63ffffffff825416806200dcf2575b505b805460201c63ffffffff1683036200dcb857906200dc7963ffffffff9283835460201c16906200f4fb565b5460201c16806200dc9c575b505b5f526020525f60408120555f8080806200a97c565b5f528160205260405f2063ffffffff1981541690555f6200dc85565b505463ffffffff81165f908152602084905260409020805467ffffffff00000000191663ffffffff60201b9092169190911790556200dc87565b5f528360205260405f2063ffffffff60201b1981541690555f6200dc4c565b815463ffffffff8160201c165f528460205263ffffffff8060405f2092161663ffffffff198254161790556200dc4e565b9060fc81116200dd58576001901b198154169055565b6101fc81116200ddae5760fb19810190811162002964576001808301911b19815416809155156200dd865750565b7fdfffffffffffffffffffffffffffffffffffffffffffffffffffffffffffffff8154169055565b6102fc81116200de06576101fb1981019081116200296457600160028301911b19815416809155156200ddde5750565b7fbfffffffffffffffffffffffffffffffffffffffffffffffffffffffffffffff8154169055565b6103fc8111156200de15575050565b6102fb1981019081116200296457600160028301911b1981541690556003810154156200de3f5750565b6001600160ff1b038154169055565b9061010003610100811162002964575f19901c16806200de6e57505f1990565b6200704f905b905f916fffffffffffffffffffffffffffffffff81116200df7b575b67ffffffffffffffff81116200df64575b63ffffffff81116200df4d575b61ffff81116200df36575b60ff81116200df1f575b600f81116200df08575b600381116200def1575b6001106200dee157565b9060018101809111620029645790565b916002810180911162002964579160021c6200ded7565b916004810180911162002964579160041c6200decd565b916008810180911162002964579160081c6200dec3565b916010810180911162002964579160101c6200deb9565b916020810180911162002964579160201c6200deae565b916040810180911162002964579160401c6200dea1565b60809250821c6200de90565b60018110929183156200dffc575b836200df9f575050565b6200dfdc57507f36bcd027a371ec05acd4f563a155f51be204511b55fb95d0451703d02e3ca185604080516001815264ffffffffff6020820152a1565b630793b30360e11b5f52600452600160245264ffffffffff60445260645ffd5b92508064ffffffffff10926200df95565b9190916200e01b8162009e6c565b92836200e026575050565b6200e05d5760407f8ecb05e775f8b004d0796e497a6b28cfe97a6f8acd115327138350b5a08347ed918151908152436020820152a1565b638ecb05e760e01b5f526004524360245260445ffd5b61ffff81119291836200e084575050565b6200e0c45760607fe99e76b7075a2c30a8d971cb3f247cba3e1995e4d12ff31053b190b2f71dcc7b916040519081525f602082015261ffff6040820152a1565b63e99e76b760e01b5f526004525f60245261ffff60445260645ffd5b90919294935f9584036200e0f45750505050565b9091929394506200e133575050507fd4c307936a68788d79a4dbca49cc3521ff20fa2e5984a45ab8ea332e9d1796b55f80a16001905f8080806200a97c565b6303fd97ab60e21b5f5260045260245260445260645ffd5b91905f92815f52600d60205260405f209161ffff60808301511691821580156200e182575b505050506001600160501b0390541690565b6127108495979402948504612710141715620029645760035460701c6c1fffffffffffffffffffffffff16908185116200e1e65750505050806200e1ce6001600160501b03926200d42c565b6200e1da8185620077ee565b925b905f80806200e170565b916080916001600160501b039561ffff60e07f5d8e434afef436d0cbafab1ae9386b8f70c885ee513868335f9474f61202d346969a979a015116604051938452602084015260408301526060820152a16200e1dc565b6200e24781620053ec565b600281149081156200a6fe575090565b61048052610420526040519094936200e27082620057f6565b5f82525f602083015281905f5f610440525f6104405260026104805101549388546104c05263ffffffff6104c05160781c169060c087013592821515806200ea65575b156200ea44575060016104405282156200e9955750506104405190925b5f9264ffffffffff6104c05160401c169760a0880135801515806200e98a575b6200e957575b5061048051600801546104c05160281c62ffffff16949063ffffffff16856200e945575f5b99608001358015158b816200e939575b506200e913575b5050156200e9065790888893928861ffff6104c05160981c16976200e387600161048051015460ff808260f01c169160e81c1664ffffffffff8560501c1664ffffffffff86168861ffff8860d81c1662009384565b90806104a052156200e8f9575b6200e3a860ff6104c05160201c166200a6e5565b610460525f986104a0516200e701575b505050505050505062ffffff6200e3f491610440516200e6e5575b895467ffffff00000000001916911660281b67ffffff000000000016178855565b865463ffffffff60781b607884901b167fffffffffffffffffffffffffff00000000ffff0000000000ffffffffffffffff9091166cffffffffff0000000000000000604088901b1617178755610440516200e6a0575b6104a051156200e65d5760ff875460201c1661ffff6104c05160a81c16156200e6315761ffff6104c05160a81c166303ff00008560681c16175f526002610420510160205260405f209081549063ffffffff8216156200e5f7576200e4af906200d46e565b156200e5cf576001600160501b036200e4d09160901c1661042051620113b0565b506001600160501b0382116200e5b1579161ffff6200e553836200e54960c098966001600160501b037fbf5d27a683d1ce858f6095fde2cc9837ba595c533e97576c5ff3de4376ccbf3c9b99971669ffffffffffffffffffff60901b1969ffffffffffffffffffff60901b83549260901b169116179055565b61042051620113fb565b925b81604051916200e56583620057f6565b60781c168152816104c05160a81c166020820152985460a81c16936001600160501b0361042051541693604051958652602086015260408501526060840152608083015260a0820152a1565b506395d41f3f60e01b5f526004526001600160501b0360245260445ffd5b61ffff8563086415b760e01b5f5260781c1660045261ffff6104c05160a81c1660245260445ffd5b8561ffff63ffffffff60016104205101541691638d5bba0f60e01b5f5260781c1660045261ffff6104c05160a81c1660245260445260645ffd5b8361ffff63ffffffff600161042051015416916369bc91ef60e11b5f5260781c1660045260245260445ffd5b50917fbf5d27a683d1ce858f6095fde2cc9837ba595c533e97576c5ff3de4376ccbf3c939160c09361ffff6001600160501b03610420515460501c16926200e555565b86547fffffffffff00000000ffffffffffffffffffffffffffffffffffffffffffffff16875561046051610480516200e6df919089906008016201102d565b6200e44a565b6200e6fb610460518b600861048051016200d5cf565b6200e3d3565b879950918486979861ffff6200e7206200e73c956200e760976200f550565b9360c81c169260ff6104c05160201c169087610480516200f576565b50979390968b889493949d6104605160ff6104c05160201c168a610480516200f676565b156200e8ea5761ffff6104c05160a81c166303ff00008a60681c16175f526002610420510160205260405f20549063ffffffff8216156200e8bf57506001600160501b039060901c16906104205154926001600160501b038460501c16928084116200e8ab575b506001600160501b035f9416928084116200e895575b5080156200e88d576200e7f09162006992565b905b8183111593846200e81f575b505050506200e815578080888188818b966200e3b8565b9750505050505050565b6200e873576040805192835260208301939093526001600160501b0316918101919091527fb853e5846ad52919c794f709695100094681c458cd1864d5217c6c897b6858b190606090a15f8080806200e7fe565b9250632e14f96160e21b5f5260045260245260445260645ffd5b50906200e7f2565b6200e8a39194508362005cef565b925f6200e7dd565b6200e8b7919362005cef565b915f6200e7c7565b61ffff8a638d5bba0f60e01b5f5260781c1660045261ffff6104c05160a81c1660245260445260645ffd5b50929a50505050505050505050565b8881106104a0526200e394565b5090985050505050505050565b60016104408190529a508a975095506200e92f91508562005cef565b93975f806200e332565b90508114155f6200e32b565b6200e951818762006992565b6200e31b565b935097909350610440519061044051156200e97f575b50610440526001928392975f6200e2f6565b905082115f6200e96d565b50898114156200e2f0565b96955097505090506200e9fe5762007c617fef9c486e607431362e32f87055ecc54107d0bde504cfbca8d6a59a6108b99ead93949560405193849361ffff806104c05160a81c169160781c16859094939260609260808301968352602083015260408201520152565b62001630856040519384936377ce243760e11b855261ffff806104c05160a81c169160781c16600486019094939260609260808301968352602083015260408201520152565b928091509491946200ea58575b506200e2d0565b9350600191505f6200ea51565b50438311156200e2b3565b6002811015620036cf576002906200ea8883620053ec565b159114141590565b939190805f52600d602052600360405f20019061ffff600287015460781c1691825f5260205260405f205464ffffffffff8160581c169687156200ec7557601190835f520160205260ff60405f209160501c1690549260ff8460401c16926002841015620036cf578315831515036200ebab575050505060b81c64ffffffffff1693808511156200eba2576200eb27908562005cef565b905b818111938415946200eb3d57505050909150565b6200eb8757620091597f1b7ba008cbebdd0330e64275c62765a671adbce08d86e7b894f0601a886b78cf939495604051938493846040919493926060820195825260208201520152565b84925063036f740160e31b5f5260045260245260445260645ffd5b505f906200eb29565b9295979691945092506200ec1f575050916200ec0e6060927f04d93c80531ebbd61ebd9906714391b8431ec4437abe44969d252210244128de945f146200ec13576200ec035f5b60405194855260208501906200564c565b60408301906200564c565ba15f90565b6200ec0360016200ebf2565b836200ec5f6200ec6a928760a4965f146200ec6c575f915b60405196634298a83160e01b885260048801526024870152604486015260648501906200564c565b60848301906200564c565bfd5b6001916200ec37565b5050505050915050600190565b5f60443d106200704f576040513d600319016004823e8051913d602484011167ffffffffffffffff8411176200ecf6578282019283519167ffffffffffffffff83116200ecee573d840160031901858401602001116200ecee57506200704f929101602001906200584e565b949350505050565b92915050565b3d156200ed2b573d906200ed108262005871565b916200ed2060405193846200584e565b82523d5f602084013e565b606090565b929190926200ed695f80936060966001600160a01b03600454169083604051809681958294637bf41d7760e11b8452600484016200b015565b03925af15f91816200eec3575b506200eeb957505f60033d116200eea8575b806308c379a0146200ee5057634e487b71146200edf2575b7f7d7f9345462f0c85c00b5c2083a2ddd2d72fb70e98d0ebed71562cba6feef687906200edcc6200ecfc565b906200edeb6040519283928352604060208401526040830190620053b1565b0390a19190565b5f8060233d116200ee3e575b6200ee0a57506200eda0565b7fe526d22a15e94c788050d8c0ca8cddc836ce3580e3dbe7ac64afb9229c7d633e9160409182519182526020820152a19190565b5050602060045f3e5f5160016200edfe565b506200ee5b6200ec82565b806200ee6857506200eda0565b7fd83687e05ff302f677e5adcaeee1a4cb3c6473e57b9000d71f2c42ff6ada466c916200edeb6040519283928352604060208401526040830190620053b1565b5060045f803e5f5160e01c6200ed88565b9293505050600191565b6200eedb9192503d805f833e6200b5d281836200584e565b905f6200ed76565b600681036200eef6575064e8d4a5100090565b600581036200ef0a57506509184e72a00090565b600481036200ef1e5750655af3107a400090565b600381036200ef33575066038d7ea4c6800090565b600281036200ef485750662386f26fc1000090565b6001146200ef5c57670de0b6b3a764000090565b67016345785d8a000090565b906001600160501b03809116911601906001600160501b0382116200296457565b926200efdc91955f9654956200efb7836001600160501b038960481c1664ffffffffff8a60b81c166200f0f4565b9490938596859963ffffffff8160981c169160ff8260e01c9260401c16908b62007e4b565b94919590856200efee8298846200a5af565b94156200f0315750505050505f5b6001600160501b036200f01d82975482808260801c169160301c166200ef68565b168110156200f0295750565b600a97509450565b5f85126200f04357505050506200effc565b600c9b509299505f98509096509450925050565b906200f06391620069ca565b90620f4240820291808304620f4240149015171562002964576200704f916200d3f9565b9060648202918083046064149015171562002964576200704f916200d3f9565b9190156200f0de5763ffffffff62ffffff80845460601c165b1692541682155f146200f0d257505f90565b6200704f908362006992565b63ffffffff62ffffff80845460781c166200f0c0565b828114939284156200f10557505090565b6200094c906200704f93620069ca565b5f81126200f1205790565b5f0390565b80549293929091603082901c6001600160501b0316918286116200f165575050506001600160501b036200a3ad62005998939482845460301c166200b819565b6001600160501b0390608096929493961c166001600160501b036200f18b82886200ef68565b1682116200f217575061ffff60026200f1cb7f24600c3aa8cc38cbdf9648ea5ebfea6227de49651807d1a2a58fe70ea24953cc9697620075d89462005cef565b84546fffffffffffffffffffff00000000000019168555936200f1ef85826200811c565b015460781c16916040519384938460409194939261ffff606083019616825260208201520152565b6002830154604051635b80bdb960e11b815260789190911c61ffff1660048201526001600160501b0380881660248301529091166044820152606481019190915280608481010390fd5b91906200f279906001600160501b03845416620105b5565b825469ffffffffffffffffffff19166001600160501b03821617909255565b9064ffffffffff6200f2b960026200599894019282845460281c166200b871565b825469ffffffffff00000000001916911660281b69ffffffffff000000000016179055565b64ffffffffff6200f2f8600282930193828554166200b871565b161664ffffffffff19825416179055565b64ffffffffff6200f325620059989382845460b81c166200b871565b825464ffffffffff60b81b1916911660b81b64ffffffffff60b81b16179055565b6006906200f35960078406809462005cef565b5f520160205260405f2090600160ff1983541617825580155f146200f39d575061ffff62005998921664ffff00000082549160181b169064ffff0000001916179055565b600181036200f3d3575061ffff62005998921668ffff0000000000000082549160381b169068ffff000000000000001916179055565b600281036200f411575061ffff6200599892166cffff000000000000000000000082549160581b16906cffff00000000000000000000001916179055565b600381036200f43f575061ffff62005998921661ffff60781b82549160781b169061ffff60781b1916179055565b600481036200f46d575061ffff62005998921661ffff60981b1961ffff60981b83549260981b169116179055565b6005036200f4995761ffff62005998921661ffff60b81b1961ffff60b81b83549260b81b169116179055565b61ffff62005998921661ffff60d81b1961ffff60d81b83549260d81b169116179055565b9063ffffffff81116200f4e157815463ffffffff191663ffffffff91909116179055565b6395d41f3f60e01b5f5260045263ffffffff60245260445ffd5b91909163ffffffff83116200f5355763ffffffff6200599892931663ffffffff60201b82549160201b169063ffffffff60201b1916179055565b826395d41f3f60e01b5f5260045263ffffffff60245260445ffd5b906001821015806200f56c575b156200f567575090565b905090565b508082106200f55d565b939592959490945f965f965f965f99825f52600d60205260405f20925f526011820160205260405f20906200f5ad8786846201085f565b996200f5b98b620053ec565b8a6200f5d7575050506200f5ce975062010e50565b91949093849291565b919450919294959697986200f5ec81620053ec565b600181036200f61857505050906200f60996959493929162010bb4565b94979396879594909350915050565b600391929b9a506200f62a81620053ec565b036200f65757506200f63e97985062010a0c565b50506104e0519698959794959294935062005998915050565b97509091506200f668955062010912565b925092949593505090929395565b939498919295969997909961ffff600286015460781c1697811515806200f821575b6200f79c5750506200f6bb9288925f926200f6b262007839565b928d8b62010ed8565b6200bbb1578260086200f6d392019688868962012611565b90968298926200f6f4575b50505050505050506200f6f057600190565b5f90565b5463ffffffff16816200f78a5750505f945b6200f751575050604080519384529315156020840152507fc0ed4041bfe51a7b847f46f096b9d2495866089371037e3efd436bd858f46edd92919050a15f808080808080806200f6de565b9160c4949186936040519563beb3942960e01b8752600487015260248601526044850152151560648401526084830152151560a4820152fd5b6200f7959162006992565b946200f706565b9894509994969850505092506200f7e157505050505060207f18a118a5bb122057e420b1bcf7903a57ebc749be0d1981d112c6e257e7bd5e8891604051908152a15f90565b60c49650604095949551956321b303f960e11b8752600487015260248601526200f80b81620053ec565b60448501526064840152608483015260a4820152fd5b50600a8214156200f698565b9499939597909a9891929661ffff600287015460781c1698811515806200f8af575b6200f869575050916200f6bb939189936200f6b262007839565b9995509a9597995050509350506200f7e157505050505060207f18a118a5bb122057e420b1bcf7903a57ebc749be0d1981d112c6e257e7bd5e8891604051908152a15f90565b50600a8214156200f84f565b979597610360526102c0526102405260e052610220526101c0526102a0526200f8e7610240516200a6e5565b610260525f6102005261271081116201051057610200525b6103208190525f6101e052801590811562010503575b50620104f6575b6200f93161026051600861036051016200f0a7565b610300525f61016052610220516101a08190525b80151580620104e9575b15620104a35760e051151560e051620104ac575b620104a357505f610280525f610340525f6102e0525f610280526200f98f816008610360510162007fdd565b50610100526101a05161034052610320516102e0525b6103405115158062010496575b8062010489575b15620101c457610100515f52600f610360510160205260405f20805463ffffffff81165f52600d60205260405f2060ff815460a01c166200f9fa81620053ec565b156200faab5750506200faa28161ffff7f86ad99b48b2565c9720e33335db58e8c7468d6af03a5e6238b20d4a562f5b8b4935460c81c16610100526200fa6161ffff600261036051015460781c16916102a05190836102c0519160086103605101620123b2565b604096949296959195519687966102c051938893909796959260c0959260e08601998652602086015260408501526060840152608083015260a08201520152565b0390a16200f9a5565b6200fabf63ffffffff8360781c1662009e6c565b156200fb265750506200faa28161ffff7fb95e250f9f017dcb1bb1806916771df0c04a269e5f46d5db7519382a0f7bb477935460c81c16610100526200fa6161ffff600261036051015460781c16916102a05190836102c0519160086103605101620123b2565b6102c05163ffffffff8316036200fb985750506200faa28161ffff7f52d5291dc7b477ebda965d0693c67e6ccec5b3667b530305685465384756d3fd935460c81c16610100526200fa6161ffff600261036051015460781c16916102a05190836102c0519160086103605101620123b2565b5f6200fbaa60ff8460201c166200e23c565b6201016c575b156200fc175750506200faa28161ffff7fae6369c6e529c86dd87431d10e0db70657c834daa75356e1efd7c0ac79f934b7935460c81c16610100526200fa6161ffff600261036051015460781c16916102a05190836102c0519160086103605101620123b2565b909164ffffffffff8360401c166200fc3560ff8560201c166200e23c565b62010131575b6103405181118015919062010123576200fcc9815b60026103605101549061ffff6200fca56200fc99600161036051015460ff808260f01c169160e81c1664ffffffffff8760501c1664ffffffffff881687878a60d81c1662009384565b828b60981c166200f550565b9260c81c1691610300519060ff8a60201c169063ffffffff8b1661036051620114cd565b6101209290925250610180839052610140849052929792959293919291905060061981016201003b575080156200ffc5576200fd176200fd0d8561030051620069ca565b6102805162006992565b610280526200fd2a846103405162005cef565b610340525b6200fd3d6102e05162006a32565b6102e052156200fe5f5750918593916200fdec6200fdcb61012097956200fd9b6200fd9463ffffffff7ff5f5aef063f495816b6982c44c70c97c8fbec2fa24b73487e6542ce0214312149c166200a9ba896200673c565b986200a5af565b6101405261ffff865460c81c166101005261ffff8860a81c169061ffff600261036051015460781c169062009f64565b936200fdde60ff825460201c166200a6e5565b90600861036051016200d5cf565b6200fe0561ffff8660a81c16600861036051016200db3b565b61ffff80600261036051015460781c169560405196875263ffffffff8116602088015260a81c166040860152610300516060860152608085015260a084015260c08301526101405160e0830152610100820152a16200f9a5565b945060ff6002610360959395510154925460201c165f9061ffff8860a81c16156200ff9c5761ffff8860a81c166303ff00008560681c16175f526002830160205260405f209384549163ffffffff8316156200ff6a579661012098969492819694926200feee7ff5f5aef063f495816b6982c44c70c97c8fbec2fa24b73487e6542ce0214312149c9a6200d46e565b156200ff2c57505050506200ff1c6200ff25926001600160501b036200cf338a5182845460901c1662012826565b865190620113b0565b916200fe05565b9460036200ff649561ffff6200cfd79495969860781c165f520160205264ffffffffff6200cfac858260405f209660681c166200b871565b6200ff25565b5061ffff898163ffffffff60018801541693638d5bba0f60e01b5f5260781c1660045260a81c1660245260445260645ffd5b8361ffff63ffffffff600186015416916369bc91ef60e11b5f5260781c1660045260245260445ffd5b92506200ffdd6200fd0d6103405161030051620069ca565b610280526201002b64ffffffffff620100006103405182895460401c166200b871565b87546cffffffffff00000000000000001916911660401b6cffffffffff000000000000000016178655565b61034051925f610340526200fd2f565b9250949350507f72777d4856cf973d1b0f65b47f675f18842c122c2a529a294343fd22a6c135479550610160945082549161ffff8360c81c166101005261ffff600261036051015460781c16945f14620101115760ff620100b591935b60201c16936102a05190866102c0519160086103605101620123b2565b9493959296919060405198895260208901526040880152620100d781620053ec565b606087015261030051608087015260a086015260c085015260e08401526102c051610100840152610120830152610140820152a16200f9a5565b50620100b560ff610340519362010098565b6200fcc9610340516200fc50565b63ffffffff84165f526011610360510160205264ffffffffff60405f205460b81c1681811062010163575b506200fc3b565b90505f6201015c565b5063ffffffff82165f526011610360510160205260405f2064ffffffffff815460b81c16151515908115620101a3575b506200fbb0565b620101bd915060ff808560201c16915460401c166200ea70565b5f6201019c565b906102e051610320526103405191620101e4610280516101e05162006992565b6101e052610340516101a0510362010473575b6102e0511562010233576103405162010213575b90916200f945565b506201022961026051600861036051016200f0a7565b610300526201020b565b507fb492fac0bb9e8c8d824bf2a4c19ec1efd3e98e987de34e127bc17eb2b5c0605e5f80a15b6101605162010409575b818061022051116201027f575b5062005998610360516200bfa3565b6201028e816102205162005cef565b90610260515f14620103f357620102a9826101e0516200d3f9565b905b60026103605101906201035b6201032383548686600161036051015492620103156201030b6102005195610240519360ff808360f01c169260e81c169064ffffffffff8160501c16908861ffff64ffffffffff83169260d81c1662009384565b6101c0516200f550565b6102c05161036051620114cd565b6103e051995494999598909760789590951c61ffff1696959094939192506201034b6200785f565b91610240516102c0518962010f94565b5060078203620103bb5750506040805195865260208601969096525093830193909352606082019290925260808101919091527f555809b9cabb2c3df7af8353069bd02e72c4d8b4dd0dac9654ed855bdf3be8529060a090a15f62010270565b60c49350878760405194631966e31560e31b865260048601526102c051602486015260448501526064840152608483015260a4820152fd5b62010402826101e0516200781a565b90620102ab565b600161036051016201043f63ffffffff6101605116829063ffffffff60401b82549160401b169063ffffffff60401b1916179055565b80546fffffffff00000000000000000000000019164260601b6fffffffff0000000000000000000000001617905562010263565b6103005161016052610340516101a052620101f7565b506102e05115156200f9b9565b506101005115156200f9b2565b91905062010259565b506102605180620104da575b806200f9635750610260511580156200f96357506103005160e051116200f963565b506103005160e05110620104b8565b506103005115156200f94f565b6103e8610320526200f91c565b6103e89150115f6200f915565b5061ffff600261036051015460b81c16610200526200f8ff565b91620105599794969391959261044052610460526103c05261040052610420526104a0525f610480526201317a565b6104805190565b6001600160501b036201057e620059989382845460481c166200b819565b825472ffffffffffffffffffff0000000000000000001916911660481b72ffffffffffffffffffff00000000000000000016179055565b91905f620105c3826200f115565b911315620105ea576200b8bc818462006992565b6001600160501b0384116200b8d0575050565b620105f6818462005cef565b92620105d7565b908060081c9060ff811660ff8103620106e7575b5060101c9060ff811660ff810362010685575b505060ff8103620106365750505f1990565b620106439082546201245d565b60018101156200a5f557806002915f52600183016020526201066960405f205462012483565b9060081b1791825f52016020526200a64b60405f205462012483565b6201069f90835f526001850160205260405f20546201245d565b9060018201156201062457600292507effffffffffffffffffffffffffffffffffffffffffffffffffffffffffff00161791825f52016020526200a64b60405f205462012483565b6201070190835f526002850160205260405f20546201245d565b600181011562010611579250905060ff19161790565b9062ffffff811162010752576effffff00000000000000000000000082549160601b16906effffff0000000000000000000000001916179055565b6395d41f3f60e01b5f5260045262ffffff60245260445ffd5b9062ffffff811162010752576bffffff00000000000000000082549160481b16906bffffff0000000000000000001916179055565b9062ffffff811162010752577fffffffffffffffffffffff000000ffffffffffffffffffffffffffffffffffff74ffffff00000000000000000000000000000000000083549260901b169116179055565b9062ffffff8111620107525771ffffff00000000000000000000000000000082549160781b169071ffffff0000000000000000000000000000001916179055565b906001811b905f52600182016020525f1960405f2054145f146201085857198154169055565b8154179055565b9190916201086d836200e23c565b156201087b57505050600290565b5464ffffffffff8160b81c169283155f146201089957505050505f90565b620108a481620053ec565b8015908115620108fb575b5015620108f05760ff5f915b60401c166002821015620036cf576002811015620036cf5703620108e0575050600190565b11620108eb57600290565b600390565b60ff600191620108bb565b600391506201090a81620053ec565b145f620108af565b9294919390945f95546201093e826001600160501b038360481c1664ffffffffff8460b81c166200f0f4565b94909385976201096885879563ffffffff8160981c169060ff8160e01c9160401c16858d62007e4b565b969198909787986201097c819b846200a5af565b985f8a12620109f3575050505090620109b79291620109b06200274660018c015460ff808260e01c169160d81c1662006992565b916201258e565b5092836001600160501b03620109db83995482808260801c169160301c166200ef68565b16821015620109e8575050565b600a99509096509250565b600c9e50929c505f9b5099509097508996509450505050565b968396959291979462010ad0949561052052610500525f6104e05262010aeb5f98549164ffffffffff8360b81c169462010a608663ffffffff8660981c168660e01c60ff8860401c168c6105205162007e4b565b9791949062010ad98462010a838b986001600160501b03859b60481c166200a5af565b9d8e5f81131562010bab5762010a99906200f115565b955b866104e05262010ac362002746600161052051015460ff808260e01c169160d81c1662006992565b9d8e916105005162005cef565b9e8f90620125c0565b929094839b869f61050051906201258e565b509862010afa8a9d866200ba93565b9962010b0b846200baf58d62008165565b995f8b12908162010b8b575b5062010b72575050505050505f85128062010b3a575b62010b3457565b600a9950565b5062010b46856200f115565b6001600160501b0362010b69610520515482808260801c169160301c166200ef68565b16111562010b2d565b6104e09490945260059e50939c50919a50975093509150565b90506001600160501b0362010ba08c6200f115565b915416105f62010b17565b505f9562010a9b565b969095919392965f975f9360018301549863ffffffff8a60201c1695600285015461ffff8160981c16905f9880421162010e37575b508862010dd05750505063ffffffff8a16955b62010db75790889154958660b81c64ffffffffff1690818860981c63ffffffff168960e01c8a60401c60ff1662010c34948a62007e4b565b9b91509b8060e01c60ff169060d81c60ff169062010c529162006992565b62010c5d9062006a3f565b918262010c6b91876200f057565b9062010c77916200f087565b9762010c8394620125c0565b94859482809a5f935f8212946001600160501b039362010cb59362010cc19762010d9f575b5062009432919262006992565b9160481c16906200ba93565b9662010ccd8862008165565b5f82121562010d8a579062010ce2916200a5af565b945b62010cfb8162010cf48862008165565b976200ba93565b965f8812908162010d6a575b5062010d5e5750505f8412908162010d28575b5062010d2257565b600a9650565b90506001600160501b0362010d5562010d41866200f115565b925482808260801c169160301c166200ef68565b16105f62010d1a565b60039950909750925050565b90506001600160501b0362010d7f896200f115565b915416105f62010d07565b95979062010d98916200a5af565b9662010ce4565b62009432925062010db09062008165565b9162010ca8565b50600d99505f9850889750879650869550859450505050565b60f89892981c1562010de4575b5062010bfc565b905063ffffffff8b60a01c16905f9180421162010e20575b5050801562010e0d575b5f62010ddd565b955063ffffffff8a60801c169562010e06565b62010e2e9192504262005cef565b115f8062010dfc565b8291995062010e47904262005cef565b11975f62010be9565b96939591959492909462010e655f976200e23c565b62010ec85762010e9162002746600162010e989798999a015460ff808260e01c169160d81c1662006992565b91620125c0565b9190826001600160501b038295541662010eb3828462006992565b1162010ebd575050565b600195509093509150565b50600696505f9550859450505050565b505062010eed9096959694929193946200d46e565b92831562010f8c579062010f019162006992565b915b15908162010f83575b501562010f78575f93845b62010f2157505050565b9193909290911562010f4457505063587d2a9760e01b5f5260045260245260445ffd5b916040907f587d2a97a31a5894b097ff75ad27cad3e726d27474d08c959bcb5e51c5244d0a929482519182526020820152a1565b818110938462010f17565b90505f62010f0c565b509162010f03565b9390949296959162010fa6906200d46e565b96871562011025579062010fba9162006992565b955b1590816201101c575b501562011011575f94855b62010fdb5750505050565b906200163091604051948594635e7f12af60e11b8652600486019094939260609260808301968352602083015260408201520152565b808510948562010fd0565b90505f62010fc5565b509562010fbc565b908054928360281c62ffffff81169462011048868662007fdd565b90620113425750916006939161ffff8094600388019060ff8160381c169060301c916001821b81541790555f526004880160205260405f20600160ff83161b8154179055165f5260058601602052600160ff60405f2092161b81541790555f14620112d557835462ffffff808260781c169160901c1690801580620112cc575b156201129d575050620110dc8585620107f1565b620110e88585620107a0565b5460a81c1691620110fe60078506809562005cef565b5f520160205260405f2091600160ff1984541617835580155f14620111455750815464ffffffff00191662ffff00600883901b161760189190911b64ffff00000016179055565b60018103620111825750815468ffffffff0000000000191666ffff0000000000602883901b161760389190911b68ffff0000000000000016179055565b60028103620111cb575081546cffffffff00000000000000000019166affff000000000000000000604883901b161760589190911b6cffff000000000000000000000016179055565b600381036201120a5750815470ffffffff00000000000000000000000000191661ffff60681b606883901b161760789190911b61ffff60781b16179055565b600481036201123f5750815463ffffffff60881b191661ffff60881b608883901b161760989190911b61ffff60981b16179055565b6005036201127257815463ffffffff60a81b191661ffff60a81b60a883901b161760b89190911b61ffff60b81b16179055565b815463ffffffff60c81b191661ffff60c81b60c883901b161760d89190911b61ffff60d81b16179055565b861115620112b85750620112b28585620107f1565b620110e8565b851015620110e857620112b28585620107a0565b508115620110c8565b835462ffffff808260481c169160601c169080158062011339575b15620113105750506201130485856201076b565b620112b2858562010717565b861115620113255750620112b285856201076b565b851015620112b257620112b2858562010717565b508115620112f0565b61ffff93506200599896949250806201138985620113a49481945f5260078a0160205260a81c1660405f209061ffff60c81b1961ffff60c81b83549260c81b169116179055565b835461ffff60b81b1916911660b81b61ffff60b81b16178255565b5460a81c16916200f346565b9190620113cf62005998916001600160501b03855460501c1662012826565b835469ffffffffffffffffffff60501b1916605082901b69ffffffffffffffffffff60501b1617909355565b9190620113cf62005998916001600160501b03855460501c166200b8ae565b61ffff1661ffff8114620029645760010190565b9192901562011493575081511562011444575090565b3b156201144e5790565b60405162461bcd60e51b815260206004820152601d60248201527f416464726573733a2063616c6c20746f206e6f6e2d636f6e74726163740000006044820152606490fd5b825190915015620114a75750805190602001fd5b60405162461bcd60e51b81526020600482015290819062001630906024830190620053b1565b6104c08190526104608290525f6103e0819052918252600d602090815260408084206104a0819052546001600160501b031661048052601190920190528120929694959192909190828062011524898b856201085f565b6201152f81620053ec565b8062011b0e575050505062011550908387868a6104a0516104c05162010e50565b8094919294978396869a859715620115f1575b5050505050505b6001600160501b036104a05154169461048051861015805f14620115db5762011597610480518862005cef565b905b6001600160ff1b038211620115c15715620115b2579594565b620115bd9062008165565b9594565b8763e69a04b360e01b5f526004526104805160245260445ffd5b620115ea876104805162005cef565b9062011599565b9091929394959a506201160481620053ec565b62011b05575f925b61ffff60026104c051015460781c165f60c06040516201162c816200579e565b8281528260208201528260408201528260608201528260808201528260a082015201526001600160501b03871162011ae75764ffffffffff841162011acb57604051906201167a826200579e565b5f82525f60208301526201169286604084016200640e565b6001600160501b038816606083015263ffffffff8416608083015264ffffffffff851660a083015263ffffffff431660c0830152610460515f5260116104c0510160205264ffffffffff60405f205460b81c1662011ab257506104c0516010015460201c63ffffffff168062011a885750620117186104605160106104c051016200f4bd565b610460515f5260116104c0510160205260405f2063ffffffff808351161663ffffffff198254161781556201177263ffffffff602084015116829063ffffffff60201b82549160201b169063ffffffff60201b1916179055565b6040820151916002831015620036cf5760c063ffffffff916201179a6201186b9585620129aa565b6060810151845472ffffffffffffffffffff000000000000000000191660489190911b72ffffffffffffffffffff000000000000000000161784556080810151845463ffffffff60981b191690841660981b63ffffffff60981b1617845560a0810151845464ffffffffff60b81b191660b89190911b64ffffffffff60b81b16178455015182547bffffffffffffffffffffffffffffffffffffffffffffffffffffffff16911660e01b7fffffffff0000000000000000000000000000000000000000000000000000000016179055565b620118806104605160106104c051016200f4fb565b6104a0516104c0516002015460781c61ffff16919060040160fc8311620119c257600162011917931b81541790555b620118c9620118bf828962006992565b6104a0516200932c565b620118d8876104c0516200a38f565b6201190d62009f0562011905620118ff8462ffffff60016104c051015460c01c16620069ca565b6200d3cb565b809362005cef565b6104c0516200a3de565b6002831015620036cf577f15186d79b32cb4800a4d85134007523ec20911a37b484eb263da5831cc191e8e9460e09484620119ad576201195b846104c051620129f9565b6201198961ffff60026104c051015460781c169560405196875261046051602088015260408701906200564c565b6060850152608084015260a083015260c0820152a16007945f808080808062011563565b620119bc846104c051620129d8565b6201195b565b6101fc8311620119fe5760fb19830192831162002964576201191792600160056104a05101911b8154179055600160fd1b8154179055620118af565b6102fc831162011a3b576101fb19830192831162002964576201191792600160066104a05101911b8154179055600160fe1b8154179055620118af565b6103fc83111562011a54575b50620119179150620118af565b6102fb19830192831162002964576201191792600160066104a05101911b8154179055600160ff1b81541790555f62011a47565b8060208301525f5260116104c0510160205262011aac6104605160405f206200f4bd565b62011718565b633f1ed2e160e21b5f526004526104605160245260445ffd5b836395d41f3f60e01b5f5260045264ffffffffff60245260445ffd5b866395d41f3f60e01b5f526004526001600160501b0360245260445ffd5b6001926201160c565b909192949899505f979695975062011b2681620053ec565b6001810362011e9f5750505062011b49908588856104a051866104c05162010bb4565b959496939891879b919b97600a81145f1462011bd0578c61ffff60026104c051015460781c166200163062011b836104c05154936200f115565b60405163063c641b60e41b815261ffff9093166004840152603084901c6001600160501b03908116602485015260809490941c909316604483015260648201929092529081906084820190565b9b9192939495969798999a9b1562011bf4575b50505050505050928091946201156a565b62011c0b9192939495969798506104a0516200f261565b505f62011c18826200f115565b91121562011e8a5762011c3390610460516104c0516200f125565b60016104c051019462011c6862011c58620118ff8962ffffff8a5460c01c16620069ca565b6201190d62009f05828b62005cef565b80549362011c846001600160501b038660481c1691826200a5af565b905f821262011e7b5760ff8660401c16956002871015620036cf5764ffffffffff6101209862011dad9262011cee7f7026918e3bf251d8904050f685ad390b1075bff141e27c077fb2e86f194438e39c8b156103a0525460ff808260e01c169160d81c166200bfd7565b90610380529162011d3962011d3162011d25858762011d1a6103805163ffffffff8960981c16620069ca565b9660b81c16620069ca565b926103805190620069ca565b938a620069ca565b9062011d46828262006992565b926103a0515f1462011e5b57620013f4926200bac662011d6c969362002f6e93620069ca565b6103a0511562011e45576103805162011d85916200d3f9565b945b6103a0511562011e305762011da0876104c051620129f9565b5460b81c16948562006992565b9462011e0061ffff60026104c0510162011de08a8a898986865460781c16934394610460519060106104c0510162012a13565b5460781c16976040519889526104605160208a015260408901906200564c565b6060870152608086015260a085015260c084015260e0830152610100820152a16007905f80808080808062011be3565b62011e3f876104c051620129d8565b62011da0565b6103805162011e54916200781a565b9462011d87565b6200094c926200bac662011e75969362002f6e93620069ca565b62011d6c565b63b42b26c760e01b5f5260045ffd5b62011e99906104c0516200a38f565b62011c33565b6003905f9a9495969798999a5062011eb781620053ec565b0362012125575050908562011edb925f61040052856104a051866104c05162010a0c565b61044093909352610420889052610400889052949a95989297929692959491939192600a0362011f2c5761ffff60026104c051015460781c166104c05154906200163062011b83610440516200f115565b610420511562011f4a575b505050505050509261040051946201156a565b62011f879062011f5d610440516200f115565b5f61044051125f14620121105762011f7d90610460516104c0516200f125565b6104a0516200f261565b5062011fab62011c58620118ff8962ffffff60016104c051015460c01c16620069ca565b84549360ff8560401c16906002821015620036cf577f6f5d98efdac4a6966f0e3b214c333ce1ea22cc1e13f5c56cb46bddbfc890b38e976101609764ffffffffff931597885f14620120e757506201200d84825460b81c166104c0516200f2de565b6201201c856104c051620129d8565b549161ffff8c620120578a888660026104c051019486865460781c16935f14620120e05760015b4394610460519060106104c0510162012a13565b5460781c169715620120d5576201208460015b604051998a526104605160208b015260408a01906200564c565b60608801526001600160501b038260481c1660808801528a60a088015260c087015260b81c1660e0850152610100840152610120830152610140820152a16007610400525f80808080808062011f37565b620120845f6201206a565b5f62012043565b84620120fb9160b81c166104c0516200f298565b6201210a856104c051620129f9565b6201201c565b6201211f906104c0516200a38f565b62011f7d565b94939750956201213e9192508284896104c05162010912565b909694959792936103c09c929c52959a929487600a81145f14620121b7576104c0516002810154905460405163063c641b60e41b81526103c05160789390931c61ffff166004820152603082901c6001600160501b03908116602483015260809290921c90911660448201526064810191909152608490fd5b15620121d5575b50505050505094906103c0516103e052946201156a565b9091929394959650620121f36103c051610460516104c0516200f125565b620122056103c0516104a051620077ee565b60ff825460401c16946002861015620036cf57856201239d576201222d816104c0516200f2de565b8715620122d957505050907f599b5f439ed4daf1f28ae8638e5439d3982e8001fb26dd8f70021b38672eb26f9360c09392620122736104605160106104c051016200dbf2565b620122b961ffff60026104c051016201229982825460781c1660046104a051016200dd42565b5460781c169460405195865261046051602087015260408601906200564c565b6060840152608083015260a0820152a15b6007905f8080808080620121be565b829493509464ffffffffff809262012325610120986201231e7fcd4a9f7ae1cc250eaa0be6bdb30d07efaf0faafb4ff0e76d8fe09a8373e43f859b9754938a62010560565b886200f309565b6201235561ffff60026104c051015460781c169754936040519889526104605160208a015260408901906200564c565b6001600160501b038160481c1660608801526001600160501b038360481c16608088015260b81c1660a086015260b81c1660c084015260e0830152610100820152a1620122ca565b620123ac816104c0516200f298565b6201222d565b945f94859490801562012454575b156201242e57506200599863ffffffff949596620123e2620012de856200673c565b835490620124286201240d61ffff8460a81c16809981951698895f52600d60205260405f2062009f64565b956201242060ff825460201c166200a6e5565b90836200d5cf565b6200db3b565b62005998955063ffffffff94506201244b906200a9ba846200673c565b959096620123e2565b508015620123c0565b600182018092116200296457811c9081620124795750505f1990565b62002f6e6200704f925b905f916fffffffffffffffffffffffffffffffff81161562012582575b67ffffffffffffffff8116156201256b575b63ffffffff81161562012554575b61ffff8116156201253d575b60ff81161562012526575b600f8116156201250f575b6003811615620124f8575b600116156200dee157565b916002810180911162002964579160021c620124ed565b916004810180911162002964579160041c620124e2565b916008810180911162002964579160081c620124d7565b916010810180911162002964579160101c620124cc565b916020810180911162002964579160201c620124c0565b916040810180911162002964579160401c620124b2565b60809250821c620124a0565b906201259b92916200f057565b906064820291808304606414901517156200296457620125bb916200d3f9565b905f90565b90620125d19291959493956200f057565b906064820290828204606414831517156200296457620125f1916200d3f9565b925f9181620125ff57505090565b6200704f925090620118ff91620069ca565b929391908215620128155762ffffff80855460601c165b16906201263784878462012935565b15620128085762012649828662007fdd565b50915f5b6103e8811080620127fe575b15620127ea57835f526007870160205260405f209363ffffffff85541615620127d4575062012688906200624e565b83546201269e63ffffffff8260781c1662009e6c565b15620127c357867fb95e250f9f017dcb1bb1806916771df0c04a269e5f46d5db7519382a0f7bb47760e08a6201272061ffff620127609660c81c1699620126ea8c6200a9ba836200673c565b92909382620127178d82549063ffffffff82165f52600d60205261ffff60405f209260a81c169162009f64565b9815916200d5cf565b549161ffff8360a81c169563ffffffff604051948c865216602085015286604085015260608401528b608084015260a083015260c0820152a1886200db3b565b836201264d579250508315620127b25762ffffff80865460601c165b166201278a85888362012935565b15620127a4576201279c818762007fdd565b50926201264d565b955050505050505f915f9190565b62ffffff80865460781c166201277c565b5050955050505050506001915f9190565b8363cf25731d60e01b5f5260045260245260445ffd5b935094505093506103e89150101591151592565b5083151562012659565b5093505050505f915f9190565b62ffffff80855460781c1662012628565b9190808311156201284957808303925b6001600160501b0384116200b83a575050565b5f9262012836565b906201285d826201295b565b91939091845f19811462012890575090829162005998935f5260018201602052600160405f20911b815417905562010832565b9450505050565b9190915f6080604051620128ab8162005831565b82815282602082015282604082015282606082015201526303fcffff8082116200a1f7575064ffffffffff821162012919576040519264ffffffffff929163ffffffff16620128fa8562005831565b8085526020850152600160408501521515606084015216608082015290565b506395d41f3f60e01b5f5260045264ffffffffff60245260445ffd5b909291925f93826201294657505050565b9293509091156201295657101590565b111590565b805480156201299f576201297160019162012483565b91825f52016020526201299660405f205419620129908115156200c3dc565b62012483565b808260081b1792565b505f19915f91508190565b906002811015620036cf5768ff000000000000000082549160401b169068ff00000000000000001916179055565b9064ffffffffff6200f2b960026200599894019282845460281c166200b8f0565b64ffffffffff6200f2f8600282930193828554166200b8f0565b90959796949392916001820191815f528260205260405f209764ffffffffff895460b81c161562012c645750908162012a67949392549263ffffffff8460201c16830362012b86575b5050505085620129aa565b6001600160501b03811162012b6957835472ffffffffffffffffffff000000000000000000191660489190911b72ffffffffffffffffffff0000000000000000001617835562012ad69063ffffffff90845463ffffffff60981b1916911660981b63ffffffff60981b16178355565b64ffffffffff841162011acb5763ffffffff9062012b1d64ffffffffff62005998959616849064ffffffffff60b81b1964ffffffffff60b81b83549260b81b169116179055565b82547bffffffffffffffffffffffffffffffffffffffffffffffffffffffff16911660e01b7fffffffff0000000000000000000000000000000000000000000000000000000016179055565b6395d41f3f60e01b5f526004526001600160501b0360245260445ffd5b62012bed9363ffffffff16830362012bf75762012bab63ffffffff8b5416836200f4bd565b63ffffffff825460201c165f5260205262012bca8260405f206200f4bd565b8054895467ffffffffffffffff191663ffffffff60201b9091161789556200f4fb565b5f80808062012a5c565b895463ffffffff8160201c165f528160205263ffffffff8060405f2092161663ffffffff1982541617905562012c5e63ffffffff8b548181165f528360205260201c1660405f209063ffffffff60201b82549160201b169063ffffffff60201b1916179055565b62012bab565b90506334a4033d60e11b5f5260045260245260445ffd5b919290925f6104a05281156201313b57835f5260116104e0510160205260405f209464ffffffffff865460b81c1615620130ff5762012cbe816104e0516200b92e565b979197929092620130f55781549260ff8460401c169860028a1015620036cf5789159963ffffffff8660981c169564ffffffffff8160b81c166104c0526001600160501b0362012d1c6104c051898460e01c86886104e05162007e4b565b9391505060481c169062012d4f8d60016104e0510154908360ff808460e01c169360d81c16918c876104c051926200baac565b97881562013013575050508a5f146201300957858211155b1562012fa157506104c0515f5b88811062012ec2575b508495969798999a5064ffffffffff62012d9f929394955460b81c1662005cef565b8062012e295750505062012dff57917faad1caf83451874ebc06a35849e4a295d8bfa856d05d1fbac2876702c7d507439594939160ff62012ded945460401c165f60405197889788620078a2565b0390a15b620059986104e0516200bfa3565b9060ff620016309493925460401c165f60405197889763155a395f60e31b895260048901620078a2565b925093929897969550935062012e4d5f6001838588888c8f8d906104e0516200bdef565b1562012e70575050505062012e649293506200be0f565b60016104a05262012df1565b62012eaa6101049660ff8a5460401c169060405197634b04a99560e01b8952600489015260248801525f604488015260648701906200564c565b608485015260a484015260c4830152151560e4820152fd5b62012ecf818a8a620060ac565b35805f5260116104e0510160205260405f2064ffffffffff815460b81c161562012f9657805460ff8160401c16926002841015620036cf578f88918f959389928e95151462012f86579162012f4895939164ffffffffff5f969460b81c168a811015871462012f7d5750899788955b6104e0516200bbbc565b1562012f735762012f5a919262005cef565b90811562012f6d576001905b0162012d74565b62012d7d565b5060019062012f66565b97889562012f3e565b5050505050505060019062012f66565b505060019062012f66565b949550955095969750905062012fe957917fc1cc5e312a3f39bfb853352bbb60e3be1d95285a9c702396ba48058c17e7a74395949391620075d893604051968796876200786c565b60405163c1cc5e3160e01b8152965086956200163095600488016200786c565b8582101562012d67565b98509998509a505050509150506201309b5791620075d8917f2e92846d5b5d5dd9cf60dd19064afe4a911e6751cdad455cb26a600db66e963c9594936040519586956104c05193879260a0946001600160501b0363ffffffff9264ffffffffff959a9998949a60c088019b885260208801521660408601521660608401521660808201520152565b604051632e92846d60e01b81526104c051600482019390935260248101949094526001600160501b0394909416604484015263ffffffff909316606483015264ffffffffff909216608482015260a481019190915260c490fd5b5050505050505050565b929450505062007dbf577f6948067a0ba575890268b9a7eaf592a5832287e4402201145ce0768a9d9533fc9160409182519182526020820152a1565b50509162007e16577f64846a095feab375f007bd15ab65eefdf07957e365b3c7ee4711cd9dbdecabe79160409182519182526020820152a15f6104a052565b62013277604051926201318d84620057f6565b5f84525f60208501528361048052620131a9610420516200a6e5565b6104c05262013232600261044051015461ffff6201320b620131fc600161044051015460ff808260f01c169160e81c1664ffffffffff8660501c1664ffffffffff871661040051878960d81c1662009384565b6101606104605101356200f550565b9160c81c1690610400519060806104605101359061042051906103c051610440516200f576565b91949098936103e09793975261038052969294966104a05190886103e05161038051610400518960806104605101356104c051610420516103c051610440516200f82d565b1562014d9057506003546103a0819052613fff61036081905260d59190911c1661271080820282900414901517156200296457612710610360516103a05160d51c160290620132c9610420516200d46e565b62014d6c575b8062014d5a575b506103c0515f52600d60205260405f20805460f01c5f6103405261ffff61034052610340511462014ccb5762013311916104a05191620090d8565b6200a97c5761034051600261044051015460781c165f6102e0525f610300525f6102e0525f610300526103c0515f52600d60205260405f206103205261032051546001600160501b038116906001600160501b038160501c1682118062014c99575b1562014ba9575050506201339a612710610360516103a05160d51c1602610320516200932c565b620133b4612710610360516103a05160d51c16026200777a565b620133ce612710610360516103a05160d51c160262008165565b6103005260016102e0525b6001600160501b036103205154166102a0526102e051156200a97c5761034051600261044051015460781c16926201341062005d84565b506201341f6001820162012851565b6102c08190525f191462014b9657620134636201344561034051835460201c166201141a565b825465ffff00000000191660209190911b65ffff0000000016178255565b6201346d620066f0565b5060016103c05110801562014b85575b62014b62578115801562014b55575b62003b8f5760016104005110801562014b43575b62014b1f57610360516103a05160d51c81161162014afb5763ffffffff60c06104605101351162014ad9576127106101606104605101351162014ab857620136d890620136bb604051620134f48162005813565b63ffffffff6103c0511681526201350e61042051620053ec565b61042051602082015262ffffff8516604082015264ffffffffff61040051166060820152610360516103a05160d51c16608082015263ffffffff60c06104605101351660a0820152610340516101606104605101351660c0820152610340516102c0511660e08201525f6101008201525f6101208201526102c0515f526007830160205260405f209063ffffffff808251161663ffffffff198354161782556020810151620135bd81620053ec565b620135c881620053ec565b8254604083810151606085015161034051608087015160a088015160c089015160e08a01516101008b0151610120909b015161ffff60c81b90861660c81b169a851660b81b61ffff60b81b1690851660a81b61ffff60a81b1691851660981b61ffff60981b1660789390931b63ffffffff60781b169390941660681b61ffff60681b169490961b6cffffffffff00000000000000001660289590951b67ffffff00000000001660209890981b64ff00000000167fffffffffff0000000000000000000000000000000000000000000000ffffffff9097169690961796909617929092171793909317919091171717179055565b6102c0515f52600781016020526104c0519060405f20906201102d565b60405192620136e784620057f6565b83526102c051602084015282610480526102c0511562014a5657506103c0515f52600d60205260405f206201371f610420516200d46e565b156201428c5760026104405101549160208401515f93811562014262576201374a610420516200d46e565b916201375961042051620053ec565b6104205115801562014246575b6103405182166303ff0000606885901c16175f908152600287016020526040902063ffffffff9062013798906200625d565b5116620142185783156201421157845b841562014209575f905b620137bc620061c3565b506303fcffff806103405186166303ff000063ffff000062010000600160981b038a60681c1616161711620141d157506001600160501b03811162012b695764ffffffffff8211620129195762013816610420516200e23c565b15620141bc578062014191576001600160501b03905b64ffffffffff60405193620138418562005781565b6103405187166303ff000063ffff000062010000600160981b038b60681c1616161785525f60208601525f60408601526201387f61042051620053ec565b6104205160608601521660808401521660a0820152865460d01c63ffffffff1662013c88579262013a6d5f51602062014d9c5f395f51905f529a9997959362013b549362013a4c60209b9997620138f86103405185166303ff000063ffff000062010000600160981b038a60681c161616178b6200d496565b61034051620139169085166303ff0000606889901c16178b6200d523565b6103405184166303ff000063ffff000062010000600160981b038960681c161616175f5260028a018d526001600160501b0360a060405f209263ffffffff808251161663ffffffff198554161784558f63ffffffff620139959183015116859063ffffffff60201b82549160201b169063ffffffff60201b1916179055565b60408181015185546bffffffff00000000000000001916911b63ffffffff60401b161784556060810151620139ca81620053ec565b620139d581620053ec565b8454608083015171ffffffffffff0000000000000000000000001990911660609290921b6cff000000000000000000000000169190911760689190911b64ffffffffff60681b161784550151825469ffffffffffffffffffff60901b1916911660901b69ffffffffffffffffffff60901b16179055565b851562013c80575f915b61034051166303ff0000606886901c161762012897565b90610340519060781c165f5260038501885264ffffffffff608060405f209263ffffffff808251161663ffffffff1985541617845562013ad163ffffffff8c83015116859063ffffffff60201b82549160201b169063ffffffff60201b1916179055565b61034051604082810151865469ffff000000000000000019169216901b69ffff000000000000000016178455606081015184546aff00000000000000000000191690151560501b60ff60501b16178455015182546fffffffffff00000000000000000000001916911660581b6fffffffffff000000000000000000000016179055565b62013c65575b5062013b70905b6200a0f2815460f01c6201141a565b925b600a610380511462013bbc575b500151604080516102a0516103005161040051948352602083019490945291810193909352606083019190915260808201528060a08101620075d8565b6101207fb971bdbd8f44fbf3ba501ee287c2533eb61b09097d638c664566aac00bbb3e659161034051600261044051015460781c16906001600160501b0361044051546040519384526103c0518885015262013c1b61042051620053ec565b61042051604085015260806104605101356060850152610400516080850152818160301c1660a085015260801c1660c08301526103e05160e0830152610100820152a15f62013b7f565b81925062013c789062013b7092620113fb565b919062013b5a565b5f9162013a56565b610340518460781c165f526003870160205260405f20805463ffffffff8116155f1462013df55750509262013a6d87959362013dc89362013daa60209b999763ffffffff5f51602062014d9c5f395f51905f529f9e9c5460d01c165f5260028a018d5262013d1b6103405185166303ff000063ffff000062010000600160981b038a60681c1616161760405f206200d552565b63ffffffff8a5460d01c1660408201526103405184166303ff000063ffff000062010000600160981b038960681c161616175f5260028a018d526001600160501b0360a060405f209263ffffffff808251161663ffffffff198554161784558f63ffffffff620139959183015116859063ffffffff60201b82549160201b169063ffffffff60201b1916179055565b6103405162013a4c9083166303ff0000606887901c1617896200d523565b62013dda575b5062013b709062013b61565b81925062013ded9062013b7092620113fb565b919062013dce565b602062013f9a9362013e5763ffffffff8094849e9b989a99969e1c16805f5260028d01845260405f20906040840152848154851c16848401526103405186166303ff000063ffff000062010000600160981b038c60681c16161617906200d552565b8282820151168062014152575b506103405184166303ff0000606889901c16175f90815260028c01835260409020815181548385015163ffffffff60201b90871660201b1691861686199091161767ffffffff00000000191617815562013f78905b60408381015182546bffffffff0000000000000000191690871690911b63ffffffff60401b16178155606083015162013ef281620053ec565b62013efd81620053ec565b8154608085015171ffffffffffff0000000000000000000000001990911660609290921b6cff000000000000000000000000169190911760689190911b64ffffffffff60681b1617815560a0830151815469ffffffffffffffffffff60901b191660909190911b69ffffffffffffffffffff60901b16179055565b015116156201412e575b61034051166303ff0000606885901c1617886200d552565b1562013fe8575050509162013b708262013fe262013fcc6020965f51602062014d9c5f395f51905f52999896620113fb565b935b6200a15661034051825460401c166201141a565b62013b61565b9091948093505460ff8160501c16908315158215151415806201411a575b620140a1575050505f51602062014d9c5f395f51905f5295949262013fe2836201404e62013b7094602098969060ff60501b825491151560501b169060ff60501b1916179055565b6201409b64ffffffffff6201406a5f82855460581c166200b8f0565b83546fffffffffff00000000000000000000001916911660581b6fffffffffff000000000000000000000016178255565b62013fce565b906200ec5f60a49464ffffffffff6200ec6a9463ffffffff60018b015416945f1462014111575f925b1562014108575f945b60405197634298a83160e01b8952610340519060781c166004890152602488015260581c16604486015260648501906200564c565b600194620140d3565b600192620140ca565b5064ffffffffff8160581c16151562014006565b610340516201414c9082166303ff0000606887901c1617896200d523565b62013f82565b5f5260028b0182526201418a6103405185166303ff000063ffff000062010000600160981b038b60681c1616161760405f206200d4ef565b5f62013e64565b63a9c0cecd60e01b5f5261042051620141aa90620053ec565b6104205160045260245260445260645ffd5b8162014191576001600160501b03906201382c565b856303ff000063ffff000062010000600160981b03886395d41f3f60e01b5f5261034051169360681c1616161760045260245260445ffd5b5f90620137b2565b5f620137a8565b5063ffffffff6001860154169163feefcc0b60e01b5f52610340519060781c1660045260245260445260645ffd5b506201425561042051620053ec565b6002610420511462013766565b63ffffffff600185015416906369bc91ef60e11b5f52610340519060781c1660045260245260445ffd5b610440516002015460208401515f935090811562014a2c57620142b2610420516200d46e565b91620142c161042051620053ec565b6104205115801562014a10575b6103405182166303ff0000606885901c16175f908152600286016020526040902063ffffffff9062014300906200625d565b5116620149e2578315620149db575f5b8415620149d0575f905b62014324620061c3565b506303fcffff806103405186166303ff000063ffff000062010000600160981b038a60681c1616161711620141d157506001600160501b03811162012b695764ffffffffff821162012919576201437e610420516200e23c565b15620149bb578062014191576001600160501b03905b64ffffffffff60405193620143a98562005781565b6103405187166303ff000063ffff000062010000600160981b038b60681c1616161785525f60208601525f6040860152620143e761042051620053ec565b6104205160608601521660808401521660a0820152855460d01c63ffffffff16620145e157926201450060209795936201456493620144e05f51602062014d9c5f395f51905f529c9b99976201445f6103405185166303ff000063ffff000062010000600160981b038a60681c161616178a6200d496565b610340516201447d9085166303ff0000606889901c16178a6200d523565b6103405184166303ff0000606888901c16175f90815260028a018d526040902081518154838f015163ffffffff60201b60209190911b1663ffffffff90921667ffffffffffffffff1990911617178155906001600160501b039060a09062013995565b8515620145d657610340515f92166303ff0000606886901c161762012897565b90610340519060781c165f5260038401875264ffffffffff608060405f209263ffffffff808251161663ffffffff1985541617845562013ad163ffffffff8b83015116859063ffffffff60201b82549160201b169063ffffffff60201b1916179055565b62014585575b6201457e906200a0f2815460f01c6201141a565b9262013b72565b90506201457e620145a45f6001600160501b03845460501c166200b8ae565b825469ffffffffffffffffffff60501b1916605082901b69ffffffffffffffffffff60501b161783559190506201456a565b610400519162013a56565b610340518460781c165f526003860160205260405f20805463ffffffff8116155f1462014769575050926201450060209795936201470793620146e9899763ffffffff5f51602062014d9c5f395f51905f529e9d9b5460d01c165f52600289018c52620146736103405185166303ff000063ffff000062010000600160981b038a60681c1616161760405f206200d552565b885460d01c63ffffffff90811660408381019190915261034051606889901c6303ff000016908716175f90815260028c018f5220825181548f85015167ffffffffffffffff19909116919093161760209290921b63ffffffff60201b16919091178155906001600160501b039060a09062013995565b61034051620144e09083166303ff0000606887901c1617886200d523565b62014718575b6201457e9062013b61565b90506201457e620147375f6001600160501b03845460501c166200b8ae565b825469ffffffffffffffffffff60501b1916605082901b69ffffffffffffffffffff60501b161783559190506201470d565b60206201485493620147cb63ffffffff8094849d9b989a99969d1c16805f5260028c01845260405f20906040840152848154851c16848401526103405186166303ff000063ffff000062010000600160981b038c60681c16161617906200d552565b828282015116806201497c575b506103405184166303ff0000606889901c16175f90815260028b01835260409020815181548385015163ffffffff60201b90871660201b1691861686199091161767ffffffff000000001916178155620148329062013eb9565b0151161562014958575b61034051166303ff0000606885901c1617876200d552565b15620148c257505050916020916201457e5f51602062014d9c5f395f51905f52959462013fe2620148935f6001600160501b03845460501c166200b8ae565b825469ffffffffffffffffffff60501b1916605082901b69ffffffffffffffffffff60501b1617835562013fcc565b8492945460ff8160501c169083151582151514158062014944575b620140a1575050505f51602062014d9c5f395f51905f5295949262013fe283620149256201457e94602098969060ff60501b825491151560501b169060ff60501b1916179055565b6201409b64ffffffffff6201406a6104005182855460581c166200b8f0565b5064ffffffffff8160581c161515620148dd565b61034051620149769082166303ff0000606887901c1617886200d523565b6201483c565b5f5260028a018252620149b46103405185166303ff000063ffff000062010000600160981b038b60681c1616161760405f206200d4ef565b5f620147d8565b8162014191576001600160501b039062014394565b61040051906201431a565b5f62014310565b5063ffffffff6001850154169163feefcc0b60e01b5f52610340519060781c1660045260245260445260645ffd5b5062014a1f61042051620053ec565b60026104205114620142ce565b63ffffffff600184015416906369bc91ef60e11b5f52610340519060781c1660045260245260445ffd5b60c49061034051600261044051015460781c169060405191635f4d015360e01b835260048301526103c051602483015262014a9461042051620053ec565b61042051604483015260648201526104005160848201526104c051151560a4820152fd5b6395d41f3f60e01b5f5261016061046051013560045261271060245260445ffd5b6395d41f3f60e01b5f5260c061046051013560045263ffffffff60245260445ffd5b6395d41f3f60e01b5f908152610360516103a05160d51c8116600452602452604490fd5b630c8f0a6960e41b5f5261040051600452600160245264ffffffffff60445260645ffd5b5064ffffffffff6104005111620134a0565b5062ffffff82116201348c565b630c8f0a6960e41b5f526103c051600452600160245263ffffffff60445260645ffd5b5063ffffffff6103c051116201347d565b836313d2887b60e01b5f5260045260245ffd5b6104a05162014c3b579062014c327fe45a99fff28c6d15925d1e2d85178b939f8809e353ffdd55bc03edb410aa24de93926040519384936001600160501b03612710610360516103a05160d51c16029360501c16916103c051908691936001600160501b03608094819398979660a0860199865260208601521660408401521660608201520152565b0390a1620133d9565b60405163e45a99ff60e01b8152610360516103a0516103c051600484019690965260248301959095526001600160501b03938416604483015260509290921c909216606483015260d59290921c90911661271002608482015260a490fd5b50612710610360516103a05160d51c16026001600160501b0362014cc3818460501c168562009051565b161162013373565b5050505050506104a05162014d31577fbd608c77710b601b3c0b0f34d13295beb58c48631119b910d8d6067ad650d5b8620075d861034051600261044051015460781c166040519182916103c05190836020909392919361ffff60408201951681520152565b61034051600261044051015460781c1663bd608c7760e01b5f526004526103c05160245260445ffd5b62014d659162006992565b5f620132d6565b905062014d8983612710610360516103a05160d51c160262006992565b90620132cf565b61048052505050505056fe5d5d31f82cb7d7cf1b09787031cd282c6accc62145d50de980d298bb340a9abaa26469706673582212206653f9ffb995d99897575f485dfd82faa8f1f5e524bb4527d5f53ae2ffaaa86164736f6c634300081e0033",
    "linkReferences": {}
  },
  "methodIdentifiers": {
    "acceptOwnership()": "79ba5097",
    "addContract(string,string,uint256,uint256,uint256,uint256,uint256,uint256,uint256,uint256)": "92f54b3a",
    "adminCancelOrders((uint256,uint256)[])": "e548bb57",
    "allowOrderForwarding(bool)": "7962f910",
    "autoDeleverage((uint256,uint256,uint256[])[],bool)": "43559bbf",
    "clearInitUnwindContract(uint256)": "075367f6",
    "clearOrderSlots(uint256,uint256[])": "d541abc1",
    "clearPricePointerSlots(uint256,uint256[])": "20c801d2",
    "createAccount(uint256)": "cab13915",
    "depositCollateral(uint256)": "bad4a01f",
    "depositToProtocol(uint256)": "54056119",
    "execFwdPositionOps((uint256,uint256,(uint256,uint256,uint8,uint256,uint256,uint256,uint256,bool,bool,bool,uint256,uint256,uint256,uint256))[])": "abce7b20",
    "execFznAccountPosOps((uint256,(uint256,uint256,uint8,uint256,uint256,uint256,uint256,bool,bool,bool,uint256,uint256,uint256,uint256))[])": "0697afae",
    "execOpsAndOrders((uint256,uint256,uint8,uint32,int256,bool,bytes)[],(uint256,uint256,uint8,uint256,uint256,uint256,uint256,bool,bool,bool,uint256,uint256,uint256,uint256)[],bool)": "156352e6",
    "execOrder((uint256,uint256,uint8,uint256,uint256,uint256,uint256,bool,bool,bool,uint256,uint256,uint256,uint256))": "6b69ebbe",
    "execPerpOps((uint256,uint256,uint8,uint32,int256,bool,bytes)[])": "5bf9264c",
    "forceClose(uint256,uint256,uint256[],bool)": "b216d0d2",
    "getAccountByAddr(address)": "12e8eb2c",
    "getAccountById(uint256)": "05aca141",
    "getExchangeInfo()": "8bc5b3c5",
    "getFundingClampPct(uint256)": "d952a594",
    "getFundingInterval()": "0d3e87a7",
    "getIndexOracleMaxAge(uint256)": "5fb78a02",
    "getIndexOracleTolPer100k(uint256)": "ec41ec33",
    "getMakerFee(uint256)": "1275d14c",
    "getMarginFractions(uint256,uint256)": "6825e9e5",
    "getMinAccountOpenCNS()": "dec92b69",
    "getMinimumPostCNS()": "9fffdfe2",
    "getMinimumSettleCNS()": "3a63dabe",
    "getNextPriceBelowWithOrders(uint256,uint256)": "fb455f6b",
    "getOrder(uint256,uint256)": "5e1a3573",
    "getOrderIdIndex(uint256)": "38ecd885",
    "getOrderLocks(uint256)": "8c1c2cef",
    "getOrdersAtPriceLevel(uint256,uint256,uint256,uint256)": "4d3282b4",
    "getOwner()": "893d20e8",
    "getPermissionedCancelParams(uint256)": "396d7e47",
    "getPerpOrderLocks(uint256,uint256)": "2709b746",
    "getPerpetualInfo(uint256)": "00092cce",
    "getPosition(uint256,uint256)": "751de421",
    "getPositionIds(uint256)": "1973c619",
    "getPositions(uint256,uint256,uint256)": "4a9a4158",
    "getPriceLevelOrderIds(uint256,uint256)": "653a6bd7",
    "getProtocolBalanceCNS()": "b5fcf762",
    "getRecycleBalanceCNS()": "edb1314e",
    "getRecycleFeeCNS()": "16a483ea",
    "getTakerFee(uint256)": "4119f930",
    "getUnwindInfo(uint256)": "6728641b",
    "getVolumeAtBookPrice(uint256,uint256)": "fe37fe12",
    "getWithdrawAllowanceData(uint256)": "8bcf1b27",
    "increasePositionCollateral(uint256,uint256)": "f769f0d3",
    "initUnwindContract(uint256,uint256)": "a5e9c411",
    "isAdministrator(address)": "0a2eb301",
    "isHalted()": "c7ff1584",
    "isPositionAdministrator(address)": "dbfbf7e8",
    "isPriceAdministrator(address)": "d8b44268",
    "liquidation((uint256,uint256,uint256,bool))": "bbf979ac",
    "liquidations((uint256,uint256,uint256,bool)[],bool)": "d3b8c49d",
    "numberOfAccounts()": "0f03e4c3",
    "owner()": "8da5cb5b",
    "pauseContract(uint256)": "c2852f38",
    "pendingOwner()": "e30c3978",
    "removeContract(uint256)": "7cca3b06",
    "renounceOwnership()": "715018a6",
    "setAdministrator(address,bool)": "87c95058",
    "setContractPaused(uint256,bool)": "9e430eda",
    "setExchangeHalted(bool)": "58087a74",
    "setFeeParams(uint256,uint256)": "9d2ec188",
    "setFreezeStatus(address,uint8)": "182b01f2",
    "setFrozen(address,uint8)": "4b8344fb",
    "setFundingClampPct(uint256,uint256)": "16a06593",
    "setFundingSum(uint256,int256,uint32,bool,bool)": "9fc8afd7",
    "setIgnOracle(uint256,bool)": "69752159",
    "setIndexOracleMaxAge(uint256,uint256)": "7e33fb80",
    "setIndexOracleTolPer100k(uint256,uint256)": "00e5796b",
    "setInitialMarginFraction(uint256,uint256)": "e2e1cb57",
    "setLinkDsVerifier(address)": "d360dd31",
    "setLiquidationParams(uint256,uint256,uint256)": "60ad17fd",
    "setMaintenanceMarginFraction(uint256,uint256)": "8c031164",
    "setMakerFee(uint256,uint256)": "e74e2c9b",
    "setMaxOpenInterest(uint256,uint256)": "9a6d7630",
    "setMinAccountOpenAmount(uint256)": "d6f34bd6",
    "setMinPost(uint256)": "279289e9",
    "setMinSettle(uint256)": "f28b98f3",
    "setOverCollatDescentThreshold(uint256,uint256)": "ed6760fe",
    "setPermissionedCancelParams(uint256,uint256,uint256)": "efb62904",
    "setPerpLinkDsFeedId(uint256,bytes32)": "03cfe83c",
    "setPositionAdministrator(address,bool)": "12014156",
    "setPriceAdministrator(address,bool)": "a9bd5cee",
    "setRecycleFee(uint256)": "be0783f5",
    "setTakerFee(uint256,uint256)": "6debf8fa",
    "setThousandthsTvlWRLS(uint256)": "d780ece8",
    "setUnityDescentThreshold(uint256,uint256)": "2f32509b",
    "transferOwnership(address)": "f2fde38b",
    "unwindContract(uint256,uint256,bool)": "fb05acb7",
    "updateIndexPricePNS(uint256,uint256)": "ebc950f7",
    "updateOraclePrice(uint256,bytes)": "8f3ffc85",
    "withdrawCollateral(uint256)": "6112fe2e",
    "withdrawFromProtocol(uint256)": "8a924640",
    "xferAcctToProtocol(uint256)": "61bd6f44",
    "xferPerpInsToProtocol(uint256,uint256)": "586d92ca",
    "xferProtocolToAcct(uint256,uint256)": "229c2492",
    "xferProtocolToPerp(uint256,uint256,bool)": "e68073c3",
    "xferProtocolToRecycleBal(uint256)": "1df87ade"
  },
  "id": 13
}